{"abi":[{"anonymous":false,"inputs":[{"indexed":true,"internalType":"bool","name":"success","type":"bool"}],"name":"TaskCompleted","type":"event"},{"inputs":[{"internalType":"uint256","name":"taskId","type":"uint256"}],"name":"completing","outputs":[{"internalType":"bool","name":"success","type":"bool"}],"stateMutability":"nonpayable","type":"function"},{"inputs":[{"internalType":"uint256","name":"_id","type":"uint256"},{"internalType":"string","name":"_activity","type":"string"},{"internalType":"address","name":"_taskresource","type":"address"},{"internalType":"enum BasicEnzian.Tasktype","name":"_tasktype","type":"uint8"},{"internalType":"uint256[]","name":"_requirements","type":"uint256[]"},{"internalType":"uint256[]","name":"_competitors","type":"uint256[]"}],"name":"createTask","outputs":[],"stateMutability":"nonpayable","type":"function"},{"inputs":[{"internalType":"uint256","name":"_id","type":"uint256"},{"internalType":"string","name":"_activity","type":"string"},{"internalType":"enum BasicEnzian.Tasktype","name":"_tasktype","type":"uint8"},{"internalType":"uint256[]","name":"_requirements","type":"uint256[]"},{"internalType":"uint256[]","name":"_competitors","type":"uint256[]"}],"name":"createTask","outputs":[],"stateMutability":"nonpayable","type":"function"},{"inputs":[{"internalType":"uint256","name":"","type":"uint256"}],"name":"debugStringeventLog","outputs":[{"internalType":"string","name":"","type":"string"}],"stateMutability":"view","type":"function"},{"inputs":[],"name":"getDebugStringeventLog","outputs":[{"internalType":"string[]","name":"theevents","type":"string[]"}],"stateMutability":"view","type":"function"},{"inputs":[],"name":"getLog","outputs":[{"internalType":"uint256[]","name":"theevents","type":"uint256[]"}],"stateMutability":"view","type":"function"},{"inputs":[{"internalType":"uint256","name":"_id","type":"uint256"}],"name":"getTaskById","outputs":[{"internalType":"bool","name":"status","type":"bool"},{"internalType":"string","name":"description","type":"string"},{"internalType":"address","name":"taskresource","type":"address"},{"internalType":"enum BasicEnzian.Tasktype","name":"tasktype","type":"uint8"},{"internalType":"uint256[]","name":"requirements","type":"uint256[]"},{"internalType":"uint256[]","name":"competitors","type":"uint256[]"}],"stateMutability":"view","type":"function"},{"inputs":[{"internalType":"uint256","name":"_id","type":"uint256"}],"name":"isTaskCompletedById","outputs":[{"internalType":"bool","name":"success","type":"bool"}],"stateMutability":"view","type":"function"},{"inputs":[{"internalType":"uint256","name":"","type":"uint256"}],"name":"theRealEventLog","outputs":[{"internalType":"uint256","name":"","type":"uint256"}],"stateMutability":"view","type":"function"}],"devdoc":{"kind":"dev","methods":{},"version":1},"evm":{"assembly":"    /* \"BasicEnzian.sol\":26:3731  contract BasicEnzian {\r... */\n  mstore(0x40, 0x80)\n  callvalue\n  dup1\n  iszero\n  tag_1\n  jumpi\n  0x00\n  dup1\n  revert\ntag_1:\n  pop\n  dataSize(sub_0)\n  dup1\n  dataOffset(sub_0)\n  0x00\n  codecopy\n  0x00\n  return\nstop\n\nsub_0: assembly {\n        /* \"BasicEnzian.sol\":26:3731  contract BasicEnzian {\r... */\n      mstore(0x40, 0x80)\n      callvalue\n      dup1\n      iszero\n      tag_1\n      jumpi\n      0x00\n      dup1\n      revert\n    tag_1:\n      pop\n      jumpi(tag_2, lt(calldatasize, 0x04))\n      shr(0xe0, calldataload(0x00))\n      dup1\n      0x909e4ab6\n      gt\n      tag_12\n      jumpi\n      dup1\n      0x909e4ab6\n      eq\n      tag_7\n      jumpi\n      dup1\n      0x95794157\n      eq\n      tag_8\n      jumpi\n      dup1\n      0x976217cd\n      eq\n      tag_9\n      jumpi\n      dup1\n      0x9849cee9\n      eq\n      tag_10\n      jumpi\n      dup1\n      0x993c0410\n      eq\n      tag_11\n      jumpi\n      jump(tag_2)\n    tag_12:\n      dup1\n      0x307ed4be\n      eq\n      tag_3\n      jumpi\n      dup1\n      0x4d60f651\n      eq\n      tag_4\n      jumpi\n      dup1\n      0x61ea18df\n      eq\n      tag_5\n      jumpi\n      dup1\n      0x72a598cc\n      eq\n      tag_6\n      jumpi\n    tag_2:\n      0x00\n      dup1\n      revert\n        /* \"BasicEnzian.sol\":1117:1522  function createTask(\r... */\n    tag_3:\n      tag_13\n      0x04\n      dup1\n      calldatasize\n      sub\n      dup2\n      add\n      swap1\n      tag_14\n      swap2\n      swap1\n      tag_15\n      jump\t// in\n    tag_14:\n      tag_16\n      jump\t// in\n    tag_13:\n      stop\n        /* \"BasicEnzian.sol\":928:1054  function getDebugStringeventLog() public view returns(string[] memory theevents) {\r... */\n    tag_4:\n      tag_17\n      tag_18\n      jump\t// in\n    tag_17:\n      mload(0x40)\n      tag_19\n      swap2\n      swap1\n      tag_20\n      jump\t// in\n    tag_19:\n      mload(0x40)\n      dup1\n      swap2\n      sub\n      swap1\n      return\n        /* \"BasicEnzian.sol\":886:921  string[] public debugStringeventLog */\n    tag_5:\n      tag_21\n      0x04\n      dup1\n      calldatasize\n      sub\n      dup2\n      add\n      swap1\n      tag_22\n      swap2\n      swap1\n      tag_23\n      jump\t// in\n    tag_22:\n      tag_24\n      jump\t// in\n    tag_21:\n      mload(0x40)\n      tag_25\n      swap2\n      swap1\n      tag_26\n      jump\t// in\n    tag_25:\n      mload(0x40)\n      dup1\n      swap2\n      sub\n      swap1\n      return\n        /* \"BasicEnzian.sol\":1538:1908  function createTask(\r... */\n    tag_6:\n      tag_27\n      0x04\n      dup1\n      calldatasize\n      sub\n      dup2\n      add\n      swap1\n      tag_28\n      swap2\n      swap1\n      tag_29\n      jump\t// in\n    tag_28:\n      tag_30\n      jump\t// in\n    tag_27:\n      stop\n        /* \"BasicEnzian.sol\":682:786  function getLog() public view returns(uint[] memory theevents) {\r... */\n    tag_7:\n      tag_31\n      tag_32\n      jump\t// in\n    tag_31:\n      mload(0x40)\n      tag_33\n      swap2\n      swap1\n      tag_34\n      jump\t// in\n    tag_33:\n      mload(0x40)\n      dup1\n      swap2\n      sub\n      swap1\n      return\n        /* \"BasicEnzian.sol\":646:675  uint[] public theRealEventLog */\n    tag_8:\n      tag_35\n      0x04\n      dup1\n      calldatasize\n      sub\n      dup2\n      add\n      swap1\n      tag_36\n      swap2\n      swap1\n      tag_23\n      jump\t// in\n    tag_36:\n      tag_37\n      jump\t// in\n    tag_35:\n      mload(0x40)\n      tag_38\n      swap2\n      swap1\n      tag_39\n      jump\t// in\n    tag_38:\n      mload(0x40)\n      dup1\n      swap2\n      sub\n      swap1\n      return\n        /* \"BasicEnzian.sol\":3347:3726  function getTaskById(uint _id) public view returns (bool status,\r... */\n    tag_9:\n      tag_40\n      0x04\n      dup1\n      calldatasize\n      sub\n      dup2\n      add\n      swap1\n      tag_41\n      swap2\n      swap1\n      tag_23\n      jump\t// in\n    tag_41:\n      tag_42\n      jump\t// in\n    tag_40:\n      mload(0x40)\n      tag_43\n      swap7\n      swap6\n      swap5\n      swap4\n      swap3\n      swap2\n      swap1\n      tag_44\n      jump\t// in\n    tag_43:\n      mload(0x40)\n      dup1\n      swap2\n      sub\n      swap1\n      return\n        /* \"BasicEnzian.sol\":3119:3242  function isTaskCompletedById(uint _id) public view returns (bool success){\r... */\n    tag_10:\n      tag_45\n      0x04\n      dup1\n      calldatasize\n      sub\n      dup2\n      add\n      swap1\n      tag_46\n      swap2\n      swap1\n      tag_23\n      jump\t// in\n    tag_46:\n      tag_47\n      jump\t// in\n    tag_45:\n      mload(0x40)\n      tag_48\n      swap2\n      swap1\n      tag_49\n      jump\t// in\n    tag_48:\n      mload(0x40)\n      dup1\n      swap2\n      sub\n      swap1\n      return\n        /* \"BasicEnzian.sol\":2012:3018  function completing(uint taskId) public returns (bool success){\r... */\n    tag_11:\n      tag_50\n      0x04\n      dup1\n      calldatasize\n      sub\n      dup2\n      add\n      swap1\n      tag_51\n      swap2\n      swap1\n      tag_23\n      jump\t// in\n    tag_51:\n      tag_52\n      jump\t// in\n    tag_50:\n      mload(0x40)\n      tag_53\n      swap2\n      swap1\n      tag_49\n      jump\t// in\n    tag_53:\n      mload(0x40)\n      dup1\n      swap2\n      sub\n      swap1\n      return\n        /* \"BasicEnzian.sol\":1117:1522  function createTask(\r... */\n    tag_16:\n        /* \"BasicEnzian.sol\":1379:1399  Task memory myStruct */\n      0x00\n        /* \"BasicEnzian.sol\":1402:1480  Task (_activity, _taskresource, false, _tasktype, _requirements, _competitors) */\n      mload(0x40)\n      dup1\n      0xc0\n      add\n      0x40\n      mstore\n      dup1\n        /* \"BasicEnzian.sol\":1408:1417  _activity */\n      dup8\n        /* \"BasicEnzian.sol\":1402:1480  Task (_activity, _taskresource, false, _tasktype, _requirements, _competitors) */\n      dup2\n      mstore\n      0x20\n      add\n        /* \"BasicEnzian.sol\":1419:1432  _taskresource */\n      dup7\n        /* \"BasicEnzian.sol\":1402:1480  Task (_activity, _taskresource, false, _tasktype, _requirements, _competitors) */\n      0xffffffffffffffffffffffffffffffffffffffff\n      and\n      dup2\n      mstore\n      0x20\n      add\n        /* \"BasicEnzian.sol\":1434:1439  false */\n      0x00\n        /* \"BasicEnzian.sol\":1402:1480  Task (_activity, _taskresource, false, _tasktype, _requirements, _competitors) */\n      iszero\n      iszero\n      dup2\n      mstore\n      0x20\n      add\n        /* \"BasicEnzian.sol\":1441:1450  _tasktype */\n      dup6\n        /* \"BasicEnzian.sol\":1402:1480  Task (_activity, _taskresource, false, _tasktype, _requirements, _competitors) */\n      0x03\n      dup2\n      gt\n      iszero\n      tag_55\n      jumpi\n      mstore(0x00, 0x4e487b7100000000000000000000000000000000000000000000000000000000)\n      mstore(0x04, 0x21)\n      revert(0x00, 0x24)\n    tag_55:\n      dup2\n      mstore\n      0x20\n      add\n        /* \"BasicEnzian.sol\":1452:1465  _requirements */\n      dup5\n        /* \"BasicEnzian.sol\":1402:1480  Task (_activity, _taskresource, false, _tasktype, _requirements, _competitors) */\n      dup2\n      mstore\n      0x20\n      add\n        /* \"BasicEnzian.sol\":1467:1479  _competitors */\n      dup4\n        /* \"BasicEnzian.sol\":1402:1480  Task (_activity, _taskresource, false, _tasktype, _requirements, _competitors) */\n      dup2\n      mstore\n      pop\n        /* \"BasicEnzian.sol\":1379:1480  Task memory myStruct = Task (_activity, _taskresource, false, _tasktype, _requirements, _competitors) */\n      swap1\n      pop\n        /* \"BasicEnzian.sol\":1505:1513  myStruct */\n      dup1\n        /* \"BasicEnzian.sol\":1491:1496  tasks */\n      0x00\n        /* \"BasicEnzian.sol\":1491:1501  tasks[_id] */\n      dup1\n        /* \"BasicEnzian.sol\":1497:1500  _id */\n      dup10\n        /* \"BasicEnzian.sol\":1491:1501  tasks[_id] */\n      dup2\n      mstore\n      0x20\n      add\n      swap1\n      dup2\n      mstore\n      0x20\n      add\n      0x00\n      keccak256\n        /* \"BasicEnzian.sol\":1491:1514  tasks[_id] = (myStruct) */\n      0x00\n      dup3\n      add\n      mload\n      dup2\n      0x00\n      add\n      swap1\n      dup1\n      mload\n      swap1\n      0x20\n      add\n      swap1\n      tag_56\n      swap3\n      swap2\n      swap1\n      tag_57\n      jump\t// in\n    tag_56:\n      pop\n      0x20\n      dup3\n      add\n      mload\n      dup2\n      0x01\n      add\n      exp(0x0100, 0x00)\n      dup2\n      sload\n      dup2\n      0xffffffffffffffffffffffffffffffffffffffff\n      mul\n      not\n      and\n      swap1\n      dup4\n      0xffffffffffffffffffffffffffffffffffffffff\n      and\n      mul\n      or\n      swap1\n      sstore\n      pop\n      0x40\n      dup3\n      add\n      mload\n      dup2\n      0x01\n      add\n      exp(0x0100, 0x14)\n      dup2\n      sload\n      dup2\n      0xff\n      mul\n      not\n      and\n      swap1\n      dup4\n      iszero\n      iszero\n      mul\n      or\n      swap1\n      sstore\n      pop\n      0x60\n      dup3\n      add\n      mload\n      dup2\n      0x01\n      add\n      exp(0x0100, 0x15)\n      dup2\n      sload\n      dup2\n      0xff\n      mul\n      not\n      and\n      swap1\n      dup4\n      0x03\n      dup2\n      gt\n      iszero\n      tag_58\n      jumpi\n      mstore(0x00, 0x4e487b7100000000000000000000000000000000000000000000000000000000)\n      mstore(0x04, 0x21)\n      revert(0x00, 0x24)\n    tag_58:\n      mul\n      or\n      swap1\n      sstore\n      pop\n      0x80\n      dup3\n      add\n      mload\n      dup2\n      0x02\n      add\n      swap1\n      dup1\n      mload\n      swap1\n      0x20\n      add\n      swap1\n      tag_59\n      swap3\n      swap2\n      swap1\n      tag_60\n      jump\t// in\n    tag_59:\n      pop\n      0xa0\n      dup3\n      add\n      mload\n      dup2\n      0x03\n      add\n      swap1\n      dup1\n      mload\n      swap1\n      0x20\n      add\n      swap1\n      tag_61\n      swap3\n      swap2\n      swap1\n      tag_60\n      jump\t// in\n    tag_61:\n      pop\n      swap1\n      pop\n      pop\n        /* \"BasicEnzian.sol\":1117:1522  function createTask(\r... */\n      pop\n      pop\n      pop\n      pop\n      pop\n      pop\n      pop\n      jump\t// out\n        /* \"BasicEnzian.sol\":928:1054  function getDebugStringeventLog() public view returns(string[] memory theevents) {\r... */\n    tag_18:\n        /* \"BasicEnzian.sol\":982:1007  string[] memory theevents */\n      0x60\n        /* \"BasicEnzian.sol\":1027:1046  debugStringeventLog */\n      0x02\n        /* \"BasicEnzian.sol\":1020:1046  return debugStringeventLog */\n      dup1\n      sload\n      dup1\n      0x20\n      mul\n      0x20\n      add\n      mload(0x40)\n      swap1\n      dup2\n      add\n      0x40\n      mstore\n      dup1\n      swap3\n      swap2\n      swap1\n      dup2\n      dup2\n      mstore\n      0x20\n      add\n      0x00\n      swap1\n    tag_63:\n      dup3\n      dup3\n      lt\n      iszero\n      tag_64\n      jumpi\n      dup4\n      dup3\n      swap1\n      0x00\n      mstore\n      keccak256(0x00, 0x20)\n      add\n      dup1\n      sload\n      tag_66\n      swap1\n      tag_67\n      jump\t// in\n    tag_66:\n      dup1\n      0x1f\n      add\n      0x20\n      dup1\n      swap2\n      div\n      mul\n      0x20\n      add\n      mload(0x40)\n      swap1\n      dup2\n      add\n      0x40\n      mstore\n      dup1\n      swap3\n      swap2\n      swap1\n      dup2\n      dup2\n      mstore\n      0x20\n      add\n      dup3\n      dup1\n      sload\n      tag_68\n      swap1\n      tag_67\n      jump\t// in\n    tag_68:\n      dup1\n      iszero\n      tag_69\n      jumpi\n      dup1\n      0x1f\n      lt\n      tag_70\n      jumpi\n      0x0100\n      dup1\n      dup4\n      sload\n      div\n      mul\n      dup4\n      mstore\n      swap2\n      0x20\n      add\n      swap2\n      jump(tag_69)\n    tag_70:\n      dup3\n      add\n      swap2\n      swap1\n      0x00\n      mstore\n      keccak256(0x00, 0x20)\n      swap1\n    tag_71:\n      dup2\n      sload\n      dup2\n      mstore\n      swap1\n      0x01\n      add\n      swap1\n      0x20\n      add\n      dup1\n      dup4\n      gt\n      tag_71\n      jumpi\n      dup3\n      swap1\n      sub\n      0x1f\n      and\n      dup3\n      add\n      swap2\n    tag_69:\n      pop\n      pop\n      pop\n      pop\n      pop\n      dup2\n      mstore\n      0x20\n      add\n      swap1\n      0x01\n      add\n      swap1\n      jump(tag_63)\n    tag_64:\n      pop\n      pop\n      pop\n      pop\n      swap1\n      pop\n        /* \"BasicEnzian.sol\":928:1054  function getDebugStringeventLog() public view returns(string[] memory theevents) {\r... */\n      swap1\n      jump\t// out\n        /* \"BasicEnzian.sol\":886:921  string[] public debugStringeventLog */\n    tag_24:\n      0x02\n      dup2\n      dup2\n      sload\n      dup2\n      lt\n      tag_72\n      jumpi\n      0x00\n      dup1\n      revert\n    tag_72:\n      swap1\n      0x00\n      mstore\n      keccak256(0x00, 0x20)\n      add\n      0x00\n      swap2\n      pop\n      swap1\n      pop\n      dup1\n      sload\n      tag_74\n      swap1\n      tag_67\n      jump\t// in\n    tag_74:\n      dup1\n      0x1f\n      add\n      0x20\n      dup1\n      swap2\n      div\n      mul\n      0x20\n      add\n      mload(0x40)\n      swap1\n      dup2\n      add\n      0x40\n      mstore\n      dup1\n      swap3\n      swap2\n      swap1\n      dup2\n      dup2\n      mstore\n      0x20\n      add\n      dup3\n      dup1\n      sload\n      tag_75\n      swap1\n      tag_67\n      jump\t// in\n    tag_75:\n      dup1\n      iszero\n      tag_76\n      jumpi\n      dup1\n      0x1f\n      lt\n      tag_77\n      jumpi\n      0x0100\n      dup1\n      dup4\n      sload\n      div\n      mul\n      dup4\n      mstore\n      swap2\n      0x20\n      add\n      swap2\n      jump(tag_76)\n    tag_77:\n      dup3\n      add\n      swap2\n      swap1\n      0x00\n      mstore\n      keccak256(0x00, 0x20)\n      swap1\n    tag_78:\n      dup2\n      sload\n      dup2\n      mstore\n      swap1\n      0x01\n      add\n      swap1\n      0x20\n      add\n      dup1\n      dup4\n      gt\n      tag_78\n      jumpi\n      dup3\n      swap1\n      sub\n      0x1f\n      and\n      dup3\n      add\n      swap2\n    tag_76:\n      pop\n      pop\n      pop\n      pop\n      pop\n      dup2\n      jump\t// out\n        /* \"BasicEnzian.sol\":1538:1908  function createTask(\r... */\n    tag_30:\n        /* \"BasicEnzian.sol\":1768:1788  Task memory myStruct */\n      0x00\n        /* \"BasicEnzian.sol\":1791:1866  Task (_activity, address(0), false, _tasktype, _requirements, _competitors) */\n      mload(0x40)\n      dup1\n      0xc0\n      add\n      0x40\n      mstore\n      dup1\n        /* \"BasicEnzian.sol\":1797:1806  _activity */\n      dup7\n        /* \"BasicEnzian.sol\":1791:1866  Task (_activity, address(0), false, _tasktype, _requirements, _competitors) */\n      dup2\n      mstore\n      0x20\n      add\n        /* \"BasicEnzian.sol\":1816:1817  0 */\n      0x00\n        /* \"BasicEnzian.sol\":1791:1866  Task (_activity, address(0), false, _tasktype, _requirements, _competitors) */\n      0xffffffffffffffffffffffffffffffffffffffff\n      and\n      dup2\n      mstore\n      0x20\n      add\n        /* \"BasicEnzian.sol\":1820:1825  false */\n      0x00\n        /* \"BasicEnzian.sol\":1791:1866  Task (_activity, address(0), false, _tasktype, _requirements, _competitors) */\n      iszero\n      iszero\n      dup2\n      mstore\n      0x20\n      add\n        /* \"BasicEnzian.sol\":1827:1836  _tasktype */\n      dup6\n        /* \"BasicEnzian.sol\":1791:1866  Task (_activity, address(0), false, _tasktype, _requirements, _competitors) */\n      0x03\n      dup2\n      gt\n      iszero\n      tag_80\n      jumpi\n      mstore(0x00, 0x4e487b7100000000000000000000000000000000000000000000000000000000)\n      mstore(0x04, 0x21)\n      revert(0x00, 0x24)\n    tag_80:\n      dup2\n      mstore\n      0x20\n      add\n        /* \"BasicEnzian.sol\":1838:1851  _requirements */\n      dup5\n        /* \"BasicEnzian.sol\":1791:1866  Task (_activity, address(0), false, _tasktype, _requirements, _competitors) */\n      dup2\n      mstore\n      0x20\n      add\n        /* \"BasicEnzian.sol\":1853:1865  _competitors */\n      dup4\n        /* \"BasicEnzian.sol\":1791:1866  Task (_activity, address(0), false, _tasktype, _requirements, _competitors) */\n      dup2\n      mstore\n      pop\n        /* \"BasicEnzian.sol\":1768:1866  Task memory myStruct = Task (_activity, address(0), false, _tasktype, _requirements, _competitors) */\n      swap1\n      pop\n        /* \"BasicEnzian.sol\":1891:1899  myStruct */\n      dup1\n        /* \"BasicEnzian.sol\":1877:1882  tasks */\n      0x00\n        /* \"BasicEnzian.sol\":1877:1887  tasks[_id] */\n      dup1\n        /* \"BasicEnzian.sol\":1883:1886  _id */\n      dup9\n        /* \"BasicEnzian.sol\":1877:1887  tasks[_id] */\n      dup2\n      mstore\n      0x20\n      add\n      swap1\n      dup2\n      mstore\n      0x20\n      add\n      0x00\n      keccak256\n        /* \"BasicEnzian.sol\":1877:1900  tasks[_id] = (myStruct) */\n      0x00\n      dup3\n      add\n      mload\n      dup2\n      0x00\n      add\n      swap1\n      dup1\n      mload\n      swap1\n      0x20\n      add\n      swap1\n      tag_81\n      swap3\n      swap2\n      swap1\n      tag_57\n      jump\t// in\n    tag_81:\n      pop\n      0x20\n      dup3\n      add\n      mload\n      dup2\n      0x01\n      add\n      exp(0x0100, 0x00)\n      dup2\n      sload\n      dup2\n      0xffffffffffffffffffffffffffffffffffffffff\n      mul\n      not\n      and\n      swap1\n      dup4\n      0xffffffffffffffffffffffffffffffffffffffff\n      and\n      mul\n      or\n      swap1\n      sstore\n      pop\n      0x40\n      dup3\n      add\n      mload\n      dup2\n      0x01\n      add\n      exp(0x0100, 0x14)\n      dup2\n      sload\n      dup2\n      0xff\n      mul\n      not\n      and\n      swap1\n      dup4\n      iszero\n      iszero\n      mul\n      or\n      swap1\n      sstore\n      pop\n      0x60\n      dup3\n      add\n      mload\n      dup2\n      0x01\n      add\n      exp(0x0100, 0x15)\n      dup2\n      sload\n      dup2\n      0xff\n      mul\n      not\n      and\n      swap1\n      dup4\n      0x03\n      dup2\n      gt\n      iszero\n      tag_82\n      jumpi\n      mstore(0x00, 0x4e487b7100000000000000000000000000000000000000000000000000000000)\n      mstore(0x04, 0x21)\n      revert(0x00, 0x24)\n    tag_82:\n      mul\n      or\n      swap1\n      sstore\n      pop\n      0x80\n      dup3\n      add\n      mload\n      dup2\n      0x02\n      add\n      swap1\n      dup1\n      mload\n      swap1\n      0x20\n      add\n      swap1\n      tag_83\n      swap3\n      swap2\n      swap1\n      tag_60\n      jump\t// in\n    tag_83:\n      pop\n      0xa0\n      dup3\n      add\n      mload\n      dup2\n      0x03\n      add\n      swap1\n      dup1\n      mload\n      swap1\n      0x20\n      add\n      swap1\n      tag_84\n      swap3\n      swap2\n      swap1\n      tag_60\n      jump\t// in\n    tag_84:\n      pop\n      swap1\n      pop\n      pop\n        /* \"BasicEnzian.sol\":1538:1908  function createTask(\r... */\n      pop\n      pop\n      pop\n      pop\n      pop\n      pop\n      jump\t// out\n        /* \"BasicEnzian.sol\":682:786  function getLog() public view returns(uint[] memory theevents) {\r... */\n    tag_32:\n        /* \"BasicEnzian.sol\":720:743  uint[] memory theevents */\n      0x60\n        /* \"BasicEnzian.sol\":763:778  theRealEventLog */\n      0x01\n        /* \"BasicEnzian.sol\":756:778  return theRealEventLog */\n      dup1\n      sload\n      dup1\n      0x20\n      mul\n      0x20\n      add\n      mload(0x40)\n      swap1\n      dup2\n      add\n      0x40\n      mstore\n      dup1\n      swap3\n      swap2\n      swap1\n      dup2\n      dup2\n      mstore\n      0x20\n      add\n      dup3\n      dup1\n      sload\n      dup1\n      iszero\n      tag_86\n      jumpi\n      0x20\n      mul\n      dup3\n      add\n      swap2\n      swap1\n      0x00\n      mstore\n      keccak256(0x00, 0x20)\n      swap1\n    tag_87:\n      dup2\n      sload\n      dup2\n      mstore\n      0x20\n      add\n      swap1\n      0x01\n      add\n      swap1\n      dup1\n      dup4\n      gt\n      tag_87\n      jumpi\n    tag_86:\n      pop\n      pop\n      pop\n      pop\n      pop\n      swap1\n      pop\n        /* \"BasicEnzian.sol\":682:786  function getLog() public view returns(uint[] memory theevents) {\r... */\n      swap1\n      jump\t// out\n        /* \"BasicEnzian.sol\":646:675  uint[] public theRealEventLog */\n    tag_37:\n      0x01\n      dup2\n      dup2\n      sload\n      dup2\n      lt\n      tag_88\n      jumpi\n      0x00\n      dup1\n      revert\n    tag_88:\n      swap1\n      0x00\n      mstore\n      keccak256(0x00, 0x20)\n      add\n      0x00\n      swap2\n      pop\n      swap1\n      pop\n      sload\n      dup2\n      jump\t// out\n        /* \"BasicEnzian.sol\":3347:3726  function getTaskById(uint _id) public view returns (bool status,\r... */\n    tag_42:\n        /* \"BasicEnzian.sol\":3399:3410  bool status */\n      0x00\n        /* \"BasicEnzian.sol\":3421:3446  string memory description */\n      0x60\n        /* \"BasicEnzian.sol\":3448:3468  address taskresource */\n      0x00\n        /* \"BasicEnzian.sol\":3470:3487  Tasktype tasktype */\n      dup1\n        /* \"BasicEnzian.sol\":3498:3524  uint[] memory requirements */\n      0x60\n        /* \"BasicEnzian.sol\":3526:3551  uint[] memory competitors */\n      dup1\n        /* \"BasicEnzian.sol\":3571:3576  tasks */\n      0x00\n        /* \"BasicEnzian.sol\":3571:3581  tasks[_id] */\n      dup1\n        /* \"BasicEnzian.sol\":3577:3580  _id */\n      dup9\n        /* \"BasicEnzian.sol\":3571:3581  tasks[_id] */\n      dup2\n      mstore\n      0x20\n      add\n      swap1\n      dup2\n      mstore\n      0x20\n      add\n      0x00\n      keccak256\n        /* \"BasicEnzian.sol\":3571:3591  tasks[_id].completed */\n      0x01\n      add\n      0x14\n      swap1\n      sload\n      swap1\n      0x0100\n      exp\n      swap1\n      div\n      0xff\n      and\n        /* \"BasicEnzian.sol\":3593:3598  tasks */\n      0x00\n        /* \"BasicEnzian.sol\":3593:3603  tasks[_id] */\n      dup1\n        /* \"BasicEnzian.sol\":3599:3602  _id */\n      dup10\n        /* \"BasicEnzian.sol\":3593:3603  tasks[_id] */\n      dup2\n      mstore\n      0x20\n      add\n      swap1\n      dup2\n      mstore\n      0x20\n      add\n      0x00\n      keccak256\n        /* \"BasicEnzian.sol\":3593:3612  tasks[_id].activity */\n      0x00\n      add\n        /* \"BasicEnzian.sol\":3614:3619  tasks */\n      0x00\n        /* \"BasicEnzian.sol\":3614:3624  tasks[_id] */\n      dup1\n        /* \"BasicEnzian.sol\":3620:3623  _id */\n      dup11\n        /* \"BasicEnzian.sol\":3614:3624  tasks[_id] */\n      dup2\n      mstore\n      0x20\n      add\n      swap1\n      dup2\n      mstore\n      0x20\n      add\n      0x00\n      keccak256\n        /* \"BasicEnzian.sol\":3614:3637  tasks[_id].taskresource */\n      0x01\n      add\n      0x00\n      swap1\n      sload\n      swap1\n      0x0100\n      exp\n      swap1\n      div\n      0xffffffffffffffffffffffffffffffffffffffff\n      and\n        /* \"BasicEnzian.sol\":3649:3654  tasks */\n      0x00\n        /* \"BasicEnzian.sol\":3649:3659  tasks[_id] */\n      dup1\n        /* \"BasicEnzian.sol\":3655:3658  _id */\n      dup12\n        /* \"BasicEnzian.sol\":3649:3659  tasks[_id] */\n      dup2\n      mstore\n      0x20\n      add\n      swap1\n      dup2\n      mstore\n      0x20\n      add\n      0x00\n      keccak256\n        /* \"BasicEnzian.sol\":3649:3668  tasks[_id].tasktype */\n      0x01\n      add\n      0x15\n      swap1\n      sload\n      swap1\n      0x0100\n      exp\n      swap1\n      div\n      0xff\n      and\n        /* \"BasicEnzian.sol\":3670:3675  tasks */\n      0x00\n        /* \"BasicEnzian.sol\":3670:3680  tasks[_id] */\n      dup1\n        /* \"BasicEnzian.sol\":3676:3679  _id */\n      dup13\n        /* \"BasicEnzian.sol\":3670:3680  tasks[_id] */\n      dup2\n      mstore\n      0x20\n      add\n      swap1\n      dup2\n      mstore\n      0x20\n      add\n      0x00\n      keccak256\n        /* \"BasicEnzian.sol\":3670:3693  tasks[_id].requirements */\n      0x02\n      add\n        /* \"BasicEnzian.sol\":3695:3700  tasks */\n      0x00\n        /* \"BasicEnzian.sol\":3695:3705  tasks[_id] */\n      dup1\n        /* \"BasicEnzian.sol\":3701:3704  _id */\n      dup14\n        /* \"BasicEnzian.sol\":3695:3705  tasks[_id] */\n      dup2\n      mstore\n      0x20\n      add\n      swap1\n      dup2\n      mstore\n      0x20\n      add\n      0x00\n      keccak256\n        /* \"BasicEnzian.sol\":3695:3717  tasks[_id].competitors */\n      0x03\n      add\n        /* \"BasicEnzian.sol\":3563:3718  return (tasks[_id].completed, tasks[_id].activity, tasks[_id].taskresource,\r... */\n      dup5\n      dup1\n      sload\n      tag_91\n      swap1\n      tag_67\n      jump\t// in\n    tag_91:\n      dup1\n      0x1f\n      add\n      0x20\n      dup1\n      swap2\n      div\n      mul\n      0x20\n      add\n      mload(0x40)\n      swap1\n      dup2\n      add\n      0x40\n      mstore\n      dup1\n      swap3\n      swap2\n      swap1\n      dup2\n      dup2\n      mstore\n      0x20\n      add\n      dup3\n      dup1\n      sload\n      tag_92\n      swap1\n      tag_67\n      jump\t// in\n    tag_92:\n      dup1\n      iszero\n      tag_93\n      jumpi\n      dup1\n      0x1f\n      lt\n      tag_94\n      jumpi\n      0x0100\n      dup1\n      dup4\n      sload\n      div\n      mul\n      dup4\n      mstore\n      swap2\n      0x20\n      add\n      swap2\n      jump(tag_93)\n    tag_94:\n      dup3\n      add\n      swap2\n      swap1\n      0x00\n      mstore\n      keccak256(0x00, 0x20)\n      swap1\n    tag_95:\n      dup2\n      sload\n      dup2\n      mstore\n      swap1\n      0x01\n      add\n      swap1\n      0x20\n      add\n      dup1\n      dup4\n      gt\n      tag_95\n      jumpi\n      dup3\n      swap1\n      sub\n      0x1f\n      and\n      dup3\n      add\n      swap2\n    tag_93:\n      pop\n      pop\n      pop\n      pop\n      pop\n      swap5\n      pop\n      dup2\n      dup1\n      sload\n      dup1\n      0x20\n      mul\n      0x20\n      add\n      mload(0x40)\n      swap1\n      dup2\n      add\n      0x40\n      mstore\n      dup1\n      swap3\n      swap2\n      swap1\n      dup2\n      dup2\n      mstore\n      0x20\n      add\n      dup3\n      dup1\n      sload\n      dup1\n      iszero\n      tag_96\n      jumpi\n      0x20\n      mul\n      dup3\n      add\n      swap2\n      swap1\n      0x00\n      mstore\n      keccak256(0x00, 0x20)\n      swap1\n    tag_97:\n      dup2\n      sload\n      dup2\n      mstore\n      0x20\n      add\n      swap1\n      0x01\n      add\n      swap1\n      dup1\n      dup4\n      gt\n      tag_97\n      jumpi\n    tag_96:\n      pop\n      pop\n      pop\n      pop\n      pop\n      swap2\n      pop\n      dup1\n      dup1\n      sload\n      dup1\n      0x20\n      mul\n      0x20\n      add\n      mload(0x40)\n      swap1\n      dup2\n      add\n      0x40\n      mstore\n      dup1\n      swap3\n      swap2\n      swap1\n      dup2\n      dup2\n      mstore\n      0x20\n      add\n      dup3\n      dup1\n      sload\n      dup1\n      iszero\n      tag_98\n      jumpi\n      0x20\n      mul\n      dup3\n      add\n      swap2\n      swap1\n      0x00\n      mstore\n      keccak256(0x00, 0x20)\n      swap1\n    tag_99:\n      dup2\n      sload\n      dup2\n      mstore\n      0x20\n      add\n      swap1\n      0x01\n      add\n      swap1\n      dup1\n      dup4\n      gt\n      tag_99\n      jumpi\n    tag_98:\n      pop\n      pop\n      pop\n      pop\n      pop\n      swap1\n      pop\n      swap6\n      pop\n      swap6\n      pop\n      swap6\n      pop\n      swap6\n      pop\n      swap6\n      pop\n      swap6\n      pop\n        /* \"BasicEnzian.sol\":3347:3726  function getTaskById(uint _id) public view returns (bool status,\r... */\n      swap2\n      swap4\n      swap6\n      pop\n      swap2\n      swap4\n      swap6\n      jump\t// out\n        /* \"BasicEnzian.sol\":3119:3242  function isTaskCompletedById(uint _id) public view returns (bool success){\r... */\n    tag_47:\n        /* \"BasicEnzian.sol\":3179:3191  bool success */\n      0x00\n        /* \"BasicEnzian.sol\":3213:3218  tasks */\n      dup1\n        /* \"BasicEnzian.sol\":3213:3223  tasks[_id] */\n      0x00\n        /* \"BasicEnzian.sol\":3219:3222  _id */\n      dup4\n        /* \"BasicEnzian.sol\":3213:3223  tasks[_id] */\n      dup2\n      mstore\n      0x20\n      add\n      swap1\n      dup2\n      mstore\n      0x20\n      add\n      0x00\n      keccak256\n        /* \"BasicEnzian.sol\":3213:3233  tasks[_id].completed */\n      0x01\n      add\n      0x14\n      swap1\n      sload\n      swap1\n      0x0100\n      exp\n      swap1\n      div\n      0xff\n      and\n        /* \"BasicEnzian.sol\":3205:3234  return (tasks[_id].completed) */\n      swap1\n      pop\n        /* \"BasicEnzian.sol\":3119:3242  function isTaskCompletedById(uint _id) public view returns (bool success){\r... */\n      swap2\n      swap1\n      pop\n      jump\t// out\n        /* \"BasicEnzian.sol\":2012:3018  function completing(uint taskId) public returns (bool success){\r... */\n    tag_52:\n        /* \"BasicEnzian.sol\":2061:2073  bool success */\n      0x00\n        /* \"BasicEnzian.sol\":2123:2139  address resource */\n      dup1\n        /* \"BasicEnzian.sol\":2142:2147  tasks */\n      0x00\n        /* \"BasicEnzian.sol\":2142:2155  tasks[taskId] */\n      dup1\n        /* \"BasicEnzian.sol\":2148:2154  taskId */\n      dup5\n        /* \"BasicEnzian.sol\":2142:2155  tasks[taskId] */\n      dup2\n      mstore\n      0x20\n      add\n      swap1\n      dup2\n      mstore\n      0x20\n      add\n      0x00\n      keccak256\n        /* \"BasicEnzian.sol\":2142:2168  tasks[taskId].taskresource */\n      0x01\n      add\n      0x00\n      swap1\n      sload\n      swap1\n      0x0100\n      exp\n      swap1\n      div\n      0xffffffffffffffffffffffffffffffffffffffff\n      and\n        /* \"BasicEnzian.sol\":2123:2168  address resource = tasks[taskId].taskresource */\n      swap1\n      pop\n        /* \"BasicEnzian.sol\":2207:2208  0 */\n      0x00\n        /* \"BasicEnzian.sol\":2187:2209  resource == address(0) */\n      0xffffffffffffffffffffffffffffffffffffffff\n      and\n        /* \"BasicEnzian.sol\":2187:2195  resource */\n      dup2\n        /* \"BasicEnzian.sol\":2187:2209  resource == address(0) */\n      0xffffffffffffffffffffffffffffffffffffffff\n      and\n      eq\n        /* \"BasicEnzian.sol\":2187:2235  resource == address(0) || resource == msg.sender */\n      dup1\n      tag_102\n      jumpi\n      pop\n        /* \"BasicEnzian.sol\":2225:2235  msg.sender */\n      caller\n        /* \"BasicEnzian.sol\":2213:2235  resource == msg.sender */\n      0xffffffffffffffffffffffffffffffffffffffff\n      and\n        /* \"BasicEnzian.sol\":2213:2221  resource */\n      dup2\n        /* \"BasicEnzian.sol\":2213:2235  resource == msg.sender */\n      0xffffffffffffffffffffffffffffffffffffffff\n      and\n      eq\n        /* \"BasicEnzian.sol\":2187:2235  resource == address(0) || resource == msg.sender */\n    tag_102:\n        /* \"BasicEnzian.sol\":2237:2242  tasks */\n      0x00\n        /* \"BasicEnzian.sol\":2237:2250  tasks[taskId] */\n      dup1\n        /* \"BasicEnzian.sol\":2243:2249  taskId */\n      dup6\n        /* \"BasicEnzian.sol\":2237:2250  tasks[taskId] */\n      dup2\n      mstore\n      0x20\n      add\n      swap1\n      dup2\n      mstore\n      0x20\n      add\n      0x00\n      keccak256\n        /* \"BasicEnzian.sol\":2237:2259  tasks[taskId].activity */\n      0x00\n      add\n        /* \"BasicEnzian.sol\":2179:2260  require(resource == address(0) || resource == msg.sender, tasks[taskId].activity) */\n      swap1\n      tag_103\n      jumpi\n      mload(0x40)\n      0x08c379a000000000000000000000000000000000000000000000000000000000\n      dup2\n      mstore\n      0x04\n      add\n      tag_104\n      swap2\n      swap1\n      tag_105\n      jump\t// in\n    tag_104:\n      mload(0x40)\n      dup1\n      swap2\n      sub\n      swap1\n      revert\n    tag_103:\n      pop\n        /* \"BasicEnzian.sol\":2275:2300  uint[] memory temprequire */\n      0x00\n        /* \"BasicEnzian.sol\":2303:2308  tasks */\n      dup1\n        /* \"BasicEnzian.sol\":2303:2316  tasks[taskId] */\n      0x00\n        /* \"BasicEnzian.sol\":2309:2315  taskId */\n      dup6\n        /* \"BasicEnzian.sol\":2303:2316  tasks[taskId] */\n      dup2\n      mstore\n      0x20\n      add\n      swap1\n      dup2\n      mstore\n      0x20\n      add\n      0x00\n      keccak256\n        /* \"BasicEnzian.sol\":2303:2329  tasks[taskId].requirements */\n      0x02\n      add\n        /* \"BasicEnzian.sol\":2275:2329  uint[] memory temprequire = tasks[taskId].requirements */\n      dup1\n      sload\n      dup1\n      0x20\n      mul\n      0x20\n      add\n      mload(0x40)\n      swap1\n      dup2\n      add\n      0x40\n      mstore\n      dup1\n      swap3\n      swap2\n      swap1\n      dup2\n      dup2\n      mstore\n      0x20\n      add\n      dup3\n      dup1\n      sload\n      dup1\n      iszero\n      tag_106\n      jumpi\n      0x20\n      mul\n      dup3\n      add\n      swap2\n      swap1\n      0x00\n      mstore\n      keccak256(0x00, 0x20)\n      swap1\n    tag_107:\n      dup2\n      sload\n      dup2\n      mstore\n      0x20\n      add\n      swap1\n      0x01\n      add\n      swap1\n      dup1\n      dup4\n      gt\n      tag_107\n      jumpi\n    tag_106:\n      pop\n      pop\n      pop\n      pop\n      pop\n      swap1\n      pop\n        /* \"BasicEnzian.sol\":2366:2367  0 */\n      0x00\n        /* \"BasicEnzian.sol\":2344:2355  temprequire */\n      dup2\n        /* \"BasicEnzian.sol\":2344:2362  temprequire.length */\n      mload\n        /* \"BasicEnzian.sol\":2344:2367  temprequire.length == 0 */\n      eq\n        /* \"BasicEnzian.sol\":2340:2656  if (temprequire.length == 0) {\r... */\n      iszero\n      tag_108\n      jumpi\n        /* \"BasicEnzian.sol\":2394:2398  true */\n      0x01\n        /* \"BasicEnzian.sol\":2384:2398  success = true */\n      swap3\n      pop\n        /* \"BasicEnzian.sol\":2340:2656  if (temprequire.length == 0) {\r... */\n      jump(tag_109)\n    tag_108:\n        /* \"BasicEnzian.sol\":2490:2503  Tasktype.TASK */\n      0x00\n        /* \"BasicEnzian.sol\":2464:2503  tasks[taskId].tasktype == Tasktype.TASK */\n      0x03\n      dup2\n      gt\n      iszero\n      tag_110\n      jumpi\n      mstore(0x00, 0x4e487b7100000000000000000000000000000000000000000000000000000000)\n      mstore(0x04, 0x21)\n      revert(0x00, 0x24)\n    tag_110:\n        /* \"BasicEnzian.sol\":2464:2469  tasks */\n      0x00\n        /* \"BasicEnzian.sol\":2464:2477  tasks[taskId] */\n      dup1\n        /* \"BasicEnzian.sol\":2470:2476  taskId */\n      dup7\n        /* \"BasicEnzian.sol\":2464:2477  tasks[taskId] */\n      dup2\n      mstore\n      0x20\n      add\n      swap1\n      dup2\n      mstore\n      0x20\n      add\n      0x00\n      keccak256\n        /* \"BasicEnzian.sol\":2464:2486  tasks[taskId].tasktype */\n      0x01\n      add\n      0x15\n      swap1\n      sload\n      swap1\n      0x0100\n      exp\n      swap1\n      div\n      0xff\n      and\n        /* \"BasicEnzian.sol\":2464:2503  tasks[taskId].tasktype == Tasktype.TASK */\n      0x03\n      dup2\n      gt\n      iszero\n      tag_111\n      jumpi\n      mstore(0x00, 0x4e487b7100000000000000000000000000000000000000000000000000000000)\n      mstore(0x04, 0x21)\n      revert(0x00, 0x24)\n    tag_111:\n      eq\n        /* \"BasicEnzian.sol\":2460:2645  if (tasks[taskId].tasktype == Tasktype.TASK) {\r... */\n      iszero\n      tag_112\n      jumpi\n        /* \"BasicEnzian.sol\":2567:2571  true */\n      0x01\n        /* \"BasicEnzian.sol\":2528:2571  isTaskCompletedById(temprequire[0]) == true */\n      iszero\n      iszero\n        /* \"BasicEnzian.sol\":2528:2563  isTaskCompletedById(temprequire[0]) */\n      tag_113\n        /* \"BasicEnzian.sol\":2548:2559  temprequire */\n      dup3\n        /* \"BasicEnzian.sol\":2560:2561  0 */\n      0x00\n        /* \"BasicEnzian.sol\":2548:2562  temprequire[0] */\n      dup2\n      mload\n      dup2\n      lt\n      tag_114\n      jumpi\n      mstore(0x00, 0x4e487b7100000000000000000000000000000000000000000000000000000000)\n      mstore(0x04, 0x32)\n      revert(0x00, 0x24)\n    tag_114:\n      0x20\n      mul\n      0x20\n      add\n      add\n      mload\n        /* \"BasicEnzian.sol\":2528:2547  isTaskCompletedById */\n      tag_47\n        /* \"BasicEnzian.sol\":2528:2563  isTaskCompletedById(temprequire[0]) */\n      jump\t// in\n    tag_113:\n        /* \"BasicEnzian.sol\":2528:2571  isTaskCompletedById(temprequire[0]) == true */\n      iszero\n      iszero\n      eq\n        /* \"BasicEnzian.sol\":2524:2630  if (isTaskCompletedById(temprequire[0]) == true) {\r... */\n      iszero\n      tag_115\n      jumpi\n        /* \"BasicEnzian.sol\":2606:2610  true */\n      0x01\n        /* \"BasicEnzian.sol\":2596:2610  success = true */\n      swap3\n      pop\n        /* \"BasicEnzian.sol\":2524:2630  if (isTaskCompletedById(temprequire[0]) == true) {\r... */\n    tag_115:\n        /* \"BasicEnzian.sol\":2460:2645  if (tasks[taskId].tasktype == Tasktype.TASK) {\r... */\n    tag_112:\n        /* \"BasicEnzian.sol\":2340:2656  if (temprequire.length == 0) {\r... */\n    tag_109:\n        /* \"BasicEnzian.sol\":2688:2695  success */\n      dup3\n        /* \"BasicEnzian.sol\":2685:2966  if(success) {\r... */\n      iszero\n      tag_116\n      jumpi\n        /* \"BasicEnzian.sol\":2738:2742  true */\n      0x01\n        /* \"BasicEnzian.sol\":2712:2717  tasks */\n      0x00\n        /* \"BasicEnzian.sol\":2712:2725  tasks[taskId] */\n      dup1\n        /* \"BasicEnzian.sol\":2718:2724  taskId */\n      dup7\n        /* \"BasicEnzian.sol\":2712:2725  tasks[taskId] */\n      dup2\n      mstore\n      0x20\n      add\n      swap1\n      dup2\n      mstore\n      0x20\n      add\n      0x00\n      keccak256\n        /* \"BasicEnzian.sol\":2712:2735  tasks[taskId].completed */\n      0x01\n      add\n      0x14\n        /* \"BasicEnzian.sol\":2712:2742  tasks[taskId].completed = true */\n      0x0100\n      exp\n      dup2\n      sload\n      dup2\n      0xff\n      mul\n      not\n      and\n      swap1\n      dup4\n      iszero\n      iszero\n      mul\n      or\n      swap1\n      sstore\n      pop\n        /* \"BasicEnzian.sol\":2757:2772  theRealEventLog */\n      0x01\n        /* \"BasicEnzian.sol\":2778:2784  taskId */\n      dup5\n        /* \"BasicEnzian.sol\":2757:2785  theRealEventLog.push(taskId) */\n      swap1\n      dup1\n      0x01\n      dup2\n      sload\n      add\n      dup1\n      dup3\n      sstore\n      dup1\n      swap2\n      pop\n      pop\n      0x01\n      swap1\n      sub\n      swap1\n      0x00\n      mstore\n      keccak256(0x00, 0x20)\n      add\n      0x00\n      swap1\n      swap2\n      swap1\n      swap2\n      swap1\n      swap2\n      pop\n      sstore\n        /* \"BasicEnzian.sol\":2800:2819  debugStringeventLog */\n      0x02\n        /* \"BasicEnzian.sol\":2825:2830  tasks */\n      0x00\n        /* \"BasicEnzian.sol\":2825:2838  tasks[taskId] */\n      dup1\n        /* \"BasicEnzian.sol\":2831:2837  taskId */\n      dup7\n        /* \"BasicEnzian.sol\":2825:2838  tasks[taskId] */\n      dup2\n      mstore\n      0x20\n      add\n      swap1\n      dup2\n      mstore\n      0x20\n      add\n      0x00\n      keccak256\n        /* \"BasicEnzian.sol\":2825:2847  tasks[taskId].activity */\n      0x00\n      add\n        /* \"BasicEnzian.sol\":2800:2848  debugStringeventLog.push(tasks[taskId].activity) */\n      swap1\n      dup1\n      0x01\n      dup2\n      sload\n      add\n      dup1\n      dup3\n      sstore\n      dup1\n      swap2\n      pop\n      pop\n      0x01\n      swap1\n      sub\n      swap1\n      0x00\n      mstore\n      keccak256(0x00, 0x20)\n      add\n      0x00\n      swap1\n      swap2\n      swap1\n      swap2\n      swap1\n      swap2\n      pop\n      swap1\n      dup1\n      sload\n      tag_119\n      swap1\n      tag_67\n      jump\t// in\n    tag_119:\n      tag_120\n      swap3\n      swap2\n      swap1\n      tag_121\n      jump\t// in\n    tag_120:\n      pop\n        /* \"BasicEnzian.sol\":2882:2886  true */\n      0x01\n        /* \"BasicEnzian.sol\":2868:2887  TaskCompleted(true) */\n      iszero\n      iszero\n      0xacd30b4f9fd5868793e13ffb506f03374a23d9feba1249ac2cc7b0fe024ff4ba\n      mload(0x40)\n      mload(0x40)\n      dup1\n      swap2\n      sub\n      swap1\n      log2\n        /* \"BasicEnzian.sol\":2685:2966  if(success) {\r... */\n      jump(tag_122)\n    tag_116:\n        /* \"BasicEnzian.sol\":2948:2953  false */\n      0x00\n        /* \"BasicEnzian.sol\":2934:2954  TaskCompleted(false) */\n      iszero\n      iszero\n      0xacd30b4f9fd5868793e13ffb506f03374a23d9feba1249ac2cc7b0fe024ff4ba\n      mload(0x40)\n      mload(0x40)\n      dup1\n      swap2\n      sub\n      swap1\n      log2\n        /* \"BasicEnzian.sol\":2685:2966  if(success) {\r... */\n    tag_122:\n        /* \"BasicEnzian.sol\":2986:3000  return success */\n      pop\n      pop\n        /* \"BasicEnzian.sol\":2012:3018  function completing(uint taskId) public returns (bool success){\r... */\n      swap2\n      swap1\n      pop\n      jump\t// out\n    tag_57:\n      dup3\n      dup1\n      sload\n      tag_123\n      swap1\n      tag_67\n      jump\t// in\n    tag_123:\n      swap1\n      0x00\n      mstore\n      keccak256(0x00, 0x20)\n      swap1\n      0x1f\n      add\n      0x20\n      swap1\n      div\n      dup2\n      add\n      swap3\n      dup3\n      tag_125\n      jumpi\n      0x00\n      dup6\n      sstore\n      jump(tag_124)\n    tag_125:\n      dup3\n      0x1f\n      lt\n      tag_126\n      jumpi\n      dup1\n      mload\n      not(0xff)\n      and\n      dup4\n      dup1\n      add\n      or\n      dup6\n      sstore\n      jump(tag_124)\n    tag_126:\n      dup3\n      dup1\n      add\n      0x01\n      add\n      dup6\n      sstore\n      dup3\n      iszero\n      tag_124\n      jumpi\n      swap2\n      dup3\n      add\n    tag_127:\n      dup3\n      dup2\n      gt\n      iszero\n      tag_128\n      jumpi\n      dup3\n      mload\n      dup3\n      sstore\n      swap2\n      0x20\n      add\n      swap2\n      swap1\n      0x01\n      add\n      swap1\n      jump(tag_127)\n    tag_128:\n    tag_124:\n      pop\n      swap1\n      pop\n      tag_129\n      swap2\n      swap1\n      tag_130\n      jump\t// in\n    tag_129:\n      pop\n      swap1\n      jump\t// out\n    tag_60:\n      dup3\n      dup1\n      sload\n      dup3\n      dup3\n      sstore\n      swap1\n      0x00\n      mstore\n      keccak256(0x00, 0x20)\n      swap1\n      dup2\n      add\n      swap3\n      dup3\n      iszero\n      tag_131\n      jumpi\n      swap2\n      0x20\n      mul\n      dup3\n      add\n    tag_132:\n      dup3\n      dup2\n      gt\n      iszero\n      tag_133\n      jumpi\n      dup3\n      mload\n      dup3\n      sstore\n      swap2\n      0x20\n      add\n      swap2\n      swap1\n      0x01\n      add\n      swap1\n      jump(tag_132)\n    tag_133:\n    tag_131:\n      pop\n      swap1\n      pop\n      tag_134\n      swap2\n      swap1\n      tag_130\n      jump\t// in\n    tag_134:\n      pop\n      swap1\n      jump\t// out\n    tag_121:\n      dup3\n      dup1\n      sload\n      tag_135\n      swap1\n      tag_67\n      jump\t// in\n    tag_135:\n      swap1\n      0x00\n      mstore\n      keccak256(0x00, 0x20)\n      swap1\n      0x1f\n      add\n      0x20\n      swap1\n      div\n      dup2\n      add\n      swap3\n      dup3\n      tag_137\n      jumpi\n      0x00\n      dup6\n      sstore\n      jump(tag_136)\n    tag_137:\n      dup3\n      0x1f\n      lt\n      tag_138\n      jumpi\n      dup1\n      sload\n      dup6\n      sstore\n      jump(tag_136)\n    tag_138:\n      dup3\n      dup1\n      add\n      0x01\n      add\n      dup6\n      sstore\n      dup3\n      iszero\n      tag_136\n      jumpi\n      0x00\n      mstore\n      keccak256(0x00, 0x20)\n      swap2\n      0x1f\n      add\n      0x20\n      swap1\n      div\n      dup3\n      add\n    tag_139:\n      dup3\n      dup2\n      gt\n      iszero\n      tag_140\n      jumpi\n      dup3\n      sload\n      dup3\n      sstore\n      swap2\n      0x01\n      add\n      swap2\n      swap1\n      0x01\n      add\n      swap1\n      jump(tag_139)\n    tag_140:\n    tag_136:\n      pop\n      swap1\n      pop\n      tag_141\n      swap2\n      swap1\n      tag_130\n      jump\t// in\n    tag_141:\n      pop\n      swap1\n      jump\t// out\n    tag_130:\n    tag_142:\n      dup1\n      dup3\n      gt\n      iszero\n      tag_143\n      jumpi\n      0x00\n      dup2\n      0x00\n      swap1\n      sstore\n      pop\n      0x01\n      add\n      jump(tag_142)\n    tag_143:\n      pop\n      swap1\n      jump\t// out\n        /* \"#utility.yul\":24:646   */\n    tag_145:\n      0x00\n        /* \"#utility.yul\":145:225   */\n      tag_147\n        /* \"#utility.yul\":160:224   */\n      tag_148\n        /* \"#utility.yul\":217:223   */\n      dup5\n        /* \"#utility.yul\":160:224   */\n      tag_149\n      jump\t// in\n    tag_148:\n        /* \"#utility.yul\":145:225   */\n      tag_150\n      jump\t// in\n    tag_147:\n        /* \"#utility.yul\":136:225   */\n      swap1\n      pop\n        /* \"#utility.yul\":245:250   */\n      dup1\n        /* \"#utility.yul\":273:279   */\n      dup4\n        /* \"#utility.yul\":266:271   */\n      dup3\n        /* \"#utility.yul\":259:280   */\n      mstore\n        /* \"#utility.yul\":299:303   */\n      0x20\n        /* \"#utility.yul\":292:297   */\n      dup3\n        /* \"#utility.yul\":288:304   */\n      add\n        /* \"#utility.yul\":281:304   */\n      swap1\n      pop\n        /* \"#utility.yul\":324:330   */\n      dup3\n        /* \"#utility.yul\":374:377   */\n      dup6\n        /* \"#utility.yul\":366:370   */\n      0x20\n        /* \"#utility.yul\":358:364   */\n      dup7\n        /* \"#utility.yul\":354:371   */\n      mul\n        /* \"#utility.yul\":349:352   */\n      dup3\n        /* \"#utility.yul\":345:372   */\n      add\n        /* \"#utility.yul\":342:378   */\n      gt\n        /* \"#utility.yul\":339:341   */\n      iszero\n      tag_151\n      jumpi\n        /* \"#utility.yul\":391:392   */\n      0x00\n        /* \"#utility.yul\":388:389   */\n      dup1\n        /* \"#utility.yul\":381:393   */\n      revert\n        /* \"#utility.yul\":339:341   */\n    tag_151:\n        /* \"#utility.yul\":419:420   */\n      0x00\n        /* \"#utility.yul\":404:640   */\n    tag_152:\n        /* \"#utility.yul\":429:435   */\n      dup6\n        /* \"#utility.yul\":426:427   */\n      dup2\n        /* \"#utility.yul\":423:436   */\n      lt\n        /* \"#utility.yul\":404:640   */\n      iszero\n      tag_154\n      jumpi\n        /* \"#utility.yul\":496:499   */\n      dup2\n        /* \"#utility.yul\":524:561   */\n      tag_155\n        /* \"#utility.yul\":557:560   */\n      dup9\n        /* \"#utility.yul\":545:555   */\n      dup3\n        /* \"#utility.yul\":524:561   */\n      tag_156\n      jump\t// in\n    tag_155:\n        /* \"#utility.yul\":519:522   */\n      dup5\n        /* \"#utility.yul\":512:562   */\n      mstore\n        /* \"#utility.yul\":591:595   */\n      0x20\n        /* \"#utility.yul\":586:589   */\n      dup5\n        /* \"#utility.yul\":582:596   */\n      add\n        /* \"#utility.yul\":575:596   */\n      swap4\n      pop\n        /* \"#utility.yul\":625:629   */\n      0x20\n        /* \"#utility.yul\":620:623   */\n      dup4\n        /* \"#utility.yul\":616:630   */\n      add\n        /* \"#utility.yul\":609:630   */\n      swap3\n      pop\n        /* \"#utility.yul\":464:640   */\n      pop\n        /* \"#utility.yul\":451:452   */\n      0x01\n        /* \"#utility.yul\":448:449   */\n      dup2\n        /* \"#utility.yul\":444:453   */\n      add\n        /* \"#utility.yul\":439:453   */\n      swap1\n      pop\n        /* \"#utility.yul\":404:640   */\n      jump(tag_152)\n    tag_154:\n        /* \"#utility.yul\":408:422   */\n      pop\n        /* \"#utility.yul\":126:646   */\n      pop\n      pop\n      swap4\n      swap3\n      pop\n      pop\n      pop\n      jump\t// out\n        /* \"#utility.yul\":652:996   */\n    tag_157:\n      0x00\n        /* \"#utility.yul\":755:820   */\n      tag_159\n        /* \"#utility.yul\":770:819   */\n      tag_160\n        /* \"#utility.yul\":812:818   */\n      dup5\n        /* \"#utility.yul\":770:819   */\n      tag_161\n      jump\t// in\n    tag_160:\n        /* \"#utility.yul\":755:820   */\n      tag_150\n      jump\t// in\n    tag_159:\n        /* \"#utility.yul\":746:820   */\n      swap1\n      pop\n        /* \"#utility.yul\":843:849   */\n      dup3\n        /* \"#utility.yul\":836:841   */\n      dup2\n        /* \"#utility.yul\":829:850   */\n      mstore\n        /* \"#utility.yul\":881:885   */\n      0x20\n        /* \"#utility.yul\":874:879   */\n      dup2\n        /* \"#utility.yul\":870:886   */\n      add\n        /* \"#utility.yul\":919:922   */\n      dup5\n        /* \"#utility.yul\":910:916   */\n      dup5\n        /* \"#utility.yul\":905:908   */\n      dup5\n        /* \"#utility.yul\":901:917   */\n      add\n        /* \"#utility.yul\":898:923   */\n      gt\n        /* \"#utility.yul\":895:897   */\n      iszero\n      tag_162\n      jumpi\n        /* \"#utility.yul\":936:937   */\n      0x00\n        /* \"#utility.yul\":933:934   */\n      dup1\n        /* \"#utility.yul\":926:938   */\n      revert\n        /* \"#utility.yul\":895:897   */\n    tag_162:\n        /* \"#utility.yul\":949:990   */\n      tag_163\n        /* \"#utility.yul\":983:989   */\n      dup5\n        /* \"#utility.yul\":978:981   */\n      dup3\n        /* \"#utility.yul\":973:976   */\n      dup6\n        /* \"#utility.yul\":949:990   */\n      tag_164\n      jump\t// in\n    tag_163:\n        /* \"#utility.yul\":736:996   */\n      pop\n      swap4\n      swap3\n      pop\n      pop\n      pop\n      jump\t// out\n        /* \"#utility.yul\":1002:1141   */\n    tag_165:\n      0x00\n        /* \"#utility.yul\":1086:1092   */\n      dup2\n        /* \"#utility.yul\":1073:1093   */\n      calldataload\n        /* \"#utility.yul\":1064:1093   */\n      swap1\n      pop\n        /* \"#utility.yul\":1102:1135   */\n      tag_167\n        /* \"#utility.yul\":1129:1134   */\n      dup2\n        /* \"#utility.yul\":1102:1135   */\n      tag_168\n      jump\t// in\n    tag_167:\n        /* \"#utility.yul\":1054:1141   */\n      swap3\n      swap2\n      pop\n      pop\n      jump\t// out\n        /* \"#utility.yul\":1164:1467   */\n    tag_169:\n      0x00\n        /* \"#utility.yul\":1284:1287   */\n      dup3\n        /* \"#utility.yul\":1277:1281   */\n      0x1f\n        /* \"#utility.yul\":1269:1275   */\n      dup4\n        /* \"#utility.yul\":1265:1282   */\n      add\n        /* \"#utility.yul\":1261:1288   */\n      slt\n        /* \"#utility.yul\":1251:1253   */\n      tag_171\n      jumpi\n        /* \"#utility.yul\":1302:1303   */\n      0x00\n        /* \"#utility.yul\":1299:1300   */\n      dup1\n        /* \"#utility.yul\":1292:1304   */\n      revert\n        /* \"#utility.yul\":1251:1253   */\n    tag_171:\n        /* \"#utility.yul\":1342:1348   */\n      dup2\n        /* \"#utility.yul\":1329:1349   */\n      calldataload\n        /* \"#utility.yul\":1367:1461   */\n      tag_172\n        /* \"#utility.yul\":1457:1460   */\n      dup5\n        /* \"#utility.yul\":1449:1455   */\n      dup3\n        /* \"#utility.yul\":1442:1446   */\n      0x20\n        /* \"#utility.yul\":1434:1440   */\n      dup7\n        /* \"#utility.yul\":1430:1447   */\n      add\n        /* \"#utility.yul\":1367:1461   */\n      tag_145\n      jump\t// in\n    tag_172:\n        /* \"#utility.yul\":1358:1461   */\n      swap2\n      pop\n        /* \"#utility.yul\":1241:1467   */\n      pop\n      swap3\n      swap2\n      pop\n      pop\n      jump\t// out\n        /* \"#utility.yul\":1473:1632   */\n    tag_173:\n      0x00\n        /* \"#utility.yul\":1567:1573   */\n      dup2\n        /* \"#utility.yul\":1554:1574   */\n      calldataload\n        /* \"#utility.yul\":1545:1574   */\n      swap1\n      pop\n        /* \"#utility.yul\":1583:1626   */\n      tag_175\n        /* \"#utility.yul\":1620:1625   */\n      dup2\n        /* \"#utility.yul\":1583:1626   */\n      tag_176\n      jump\t// in\n    tag_175:\n        /* \"#utility.yul\":1535:1632   */\n      swap3\n      swap2\n      pop\n      pop\n      jump\t// out\n        /* \"#utility.yul\":1652:1925   */\n    tag_177:\n      0x00\n        /* \"#utility.yul\":1757:1760   */\n      dup3\n        /* \"#utility.yul\":1750:1754   */\n      0x1f\n        /* \"#utility.yul\":1742:1748   */\n      dup4\n        /* \"#utility.yul\":1738:1755   */\n      add\n        /* \"#utility.yul\":1734:1761   */\n      slt\n        /* \"#utility.yul\":1724:1726   */\n      tag_179\n      jumpi\n        /* \"#utility.yul\":1775:1776   */\n      0x00\n        /* \"#utility.yul\":1772:1773   */\n      dup1\n        /* \"#utility.yul\":1765:1777   */\n      revert\n        /* \"#utility.yul\":1724:1726   */\n    tag_179:\n        /* \"#utility.yul\":1815:1821   */\n      dup2\n        /* \"#utility.yul\":1802:1822   */\n      calldataload\n        /* \"#utility.yul\":1840:1919   */\n      tag_180\n        /* \"#utility.yul\":1915:1918   */\n      dup5\n        /* \"#utility.yul\":1907:1913   */\n      dup3\n        /* \"#utility.yul\":1900:1904   */\n      0x20\n        /* \"#utility.yul\":1892:1898   */\n      dup7\n        /* \"#utility.yul\":1888:1905   */\n      add\n        /* \"#utility.yul\":1840:1919   */\n      tag_157\n      jump\t// in\n    tag_180:\n        /* \"#utility.yul\":1831:1919   */\n      swap2\n      pop\n        /* \"#utility.yul\":1714:1925   */\n      pop\n      swap3\n      swap2\n      pop\n      pop\n      jump\t// out\n        /* \"#utility.yul\":1931:2070   */\n    tag_156:\n      0x00\n        /* \"#utility.yul\":2015:2021   */\n      dup2\n        /* \"#utility.yul\":2002:2022   */\n      calldataload\n        /* \"#utility.yul\":1993:2022   */\n      swap1\n      pop\n        /* \"#utility.yul\":2031:2064   */\n      tag_182\n        /* \"#utility.yul\":2058:2063   */\n      dup2\n        /* \"#utility.yul\":2031:2064   */\n      tag_183\n      jump\t// in\n    tag_182:\n        /* \"#utility.yul\":1983:2070   */\n      swap3\n      swap2\n      pop\n      pop\n      jump\t// out\n        /* \"#utility.yul\":2076:2338   */\n    tag_23:\n      0x00\n        /* \"#utility.yul\":2184:2186   */\n      0x20\n        /* \"#utility.yul\":2172:2181   */\n      dup3\n        /* \"#utility.yul\":2163:2170   */\n      dup5\n        /* \"#utility.yul\":2159:2182   */\n      sub\n        /* \"#utility.yul\":2155:2187   */\n      slt\n        /* \"#utility.yul\":2152:2154   */\n      iszero\n      tag_185\n      jumpi\n        /* \"#utility.yul\":2200:2201   */\n      0x00\n        /* \"#utility.yul\":2197:2198   */\n      dup1\n        /* \"#utility.yul\":2190:2202   */\n      revert\n        /* \"#utility.yul\":2152:2154   */\n    tag_185:\n        /* \"#utility.yul\":2243:2244   */\n      0x00\n        /* \"#utility.yul\":2268:2321   */\n      tag_186\n        /* \"#utility.yul\":2313:2320   */\n      dup5\n        /* \"#utility.yul\":2304:2310   */\n      dup3\n        /* \"#utility.yul\":2293:2302   */\n      dup6\n        /* \"#utility.yul\":2289:2311   */\n      add\n        /* \"#utility.yul\":2268:2321   */\n      tag_156\n      jump\t// in\n    tag_186:\n        /* \"#utility.yul\":2258:2321   */\n      swap2\n      pop\n        /* \"#utility.yul\":2214:2331   */\n      pop\n        /* \"#utility.yul\":2142:2338   */\n      swap3\n      swap2\n      pop\n      pop\n      jump\t// out\n        /* \"#utility.yul\":2344:3753   */\n    tag_15:\n      0x00\n      dup1\n      0x00\n      dup1\n      0x00\n      dup1\n        /* \"#utility.yul\":2607:2610   */\n      0xc0\n        /* \"#utility.yul\":2595:2604   */\n      dup8\n        /* \"#utility.yul\":2586:2593   */\n      dup10\n        /* \"#utility.yul\":2582:2605   */\n      sub\n        /* \"#utility.yul\":2578:2611   */\n      slt\n        /* \"#utility.yul\":2575:2577   */\n      iszero\n      tag_188\n      jumpi\n        /* \"#utility.yul\":2624:2625   */\n      0x00\n        /* \"#utility.yul\":2621:2622   */\n      dup1\n        /* \"#utility.yul\":2614:2626   */\n      revert\n        /* \"#utility.yul\":2575:2577   */\n    tag_188:\n        /* \"#utility.yul\":2667:2668   */\n      0x00\n        /* \"#utility.yul\":2692:2745   */\n      tag_189\n        /* \"#utility.yul\":2737:2744   */\n      dup10\n        /* \"#utility.yul\":2728:2734   */\n      dup3\n        /* \"#utility.yul\":2717:2726   */\n      dup11\n        /* \"#utility.yul\":2713:2735   */\n      add\n        /* \"#utility.yul\":2692:2745   */\n      tag_156\n      jump\t// in\n    tag_189:\n        /* \"#utility.yul\":2682:2745   */\n      swap7\n      pop\n        /* \"#utility.yul\":2638:2755   */\n      pop\n        /* \"#utility.yul\":2822:2824   */\n      0x20\n        /* \"#utility.yul\":2811:2820   */\n      dup8\n        /* \"#utility.yul\":2807:2825   */\n      add\n        /* \"#utility.yul\":2794:2826   */\n      calldataload\n        /* \"#utility.yul\":2853:2871   */\n      0xffffffffffffffff\n        /* \"#utility.yul\":2845:2851   */\n      dup2\n        /* \"#utility.yul\":2842:2872   */\n      gt\n        /* \"#utility.yul\":2839:2841   */\n      iszero\n      tag_190\n      jumpi\n        /* \"#utility.yul\":2885:2886   */\n      0x00\n        /* \"#utility.yul\":2882:2883   */\n      dup1\n        /* \"#utility.yul\":2875:2887   */\n      revert\n        /* \"#utility.yul\":2839:2841   */\n    tag_190:\n        /* \"#utility.yul\":2913:2976   */\n      tag_191\n        /* \"#utility.yul\":2968:2975   */\n      dup10\n        /* \"#utility.yul\":2959:2965   */\n      dup3\n        /* \"#utility.yul\":2948:2957   */\n      dup11\n        /* \"#utility.yul\":2944:2966   */\n      add\n        /* \"#utility.yul\":2913:2976   */\n      tag_177\n      jump\t// in\n    tag_191:\n        /* \"#utility.yul\":2903:2976   */\n      swap6\n      pop\n        /* \"#utility.yul\":2765:2986   */\n      pop\n        /* \"#utility.yul\":3025:3027   */\n      0x40\n        /* \"#utility.yul\":3051:3104   */\n      tag_192\n        /* \"#utility.yul\":3096:3103   */\n      dup10\n        /* \"#utility.yul\":3087:3093   */\n      dup3\n        /* \"#utility.yul\":3076:3085   */\n      dup11\n        /* \"#utility.yul\":3072:3094   */\n      add\n        /* \"#utility.yul\":3051:3104   */\n      tag_165\n      jump\t// in\n    tag_192:\n        /* \"#utility.yul\":3041:3104   */\n      swap5\n      pop\n        /* \"#utility.yul\":2996:3114   */\n      pop\n        /* \"#utility.yul\":3153:3155   */\n      0x60\n        /* \"#utility.yul\":3179:3242   */\n      tag_193\n        /* \"#utility.yul\":3234:3241   */\n      dup10\n        /* \"#utility.yul\":3225:3231   */\n      dup3\n        /* \"#utility.yul\":3214:3223   */\n      dup11\n        /* \"#utility.yul\":3210:3232   */\n      add\n        /* \"#utility.yul\":3179:3242   */\n      tag_173\n      jump\t// in\n    tag_193:\n        /* \"#utility.yul\":3169:3242   */\n      swap4\n      pop\n        /* \"#utility.yul\":3124:3252   */\n      pop\n        /* \"#utility.yul\":3319:3322   */\n      0x80\n        /* \"#utility.yul\":3308:3317   */\n      dup8\n        /* \"#utility.yul\":3304:3323   */\n      add\n        /* \"#utility.yul\":3291:3324   */\n      calldataload\n        /* \"#utility.yul\":3351:3369   */\n      0xffffffffffffffff\n        /* \"#utility.yul\":3343:3349   */\n      dup2\n        /* \"#utility.yul\":3340:3370   */\n      gt\n        /* \"#utility.yul\":3337:3339   */\n      iszero\n      tag_194\n      jumpi\n        /* \"#utility.yul\":3383:3384   */\n      0x00\n        /* \"#utility.yul\":3380:3381   */\n      dup1\n        /* \"#utility.yul\":3373:3385   */\n      revert\n        /* \"#utility.yul\":3337:3339   */\n    tag_194:\n        /* \"#utility.yul\":3411:3489   */\n      tag_195\n        /* \"#utility.yul\":3481:3488   */\n      dup10\n        /* \"#utility.yul\":3472:3478   */\n      dup3\n        /* \"#utility.yul\":3461:3470   */\n      dup11\n        /* \"#utility.yul\":3457:3479   */\n      add\n        /* \"#utility.yul\":3411:3489   */\n      tag_169\n      jump\t// in\n    tag_195:\n        /* \"#utility.yul\":3401:3489   */\n      swap3\n      pop\n        /* \"#utility.yul\":3262:3499   */\n      pop\n        /* \"#utility.yul\":3566:3569   */\n      0xa0\n        /* \"#utility.yul\":3555:3564   */\n      dup8\n        /* \"#utility.yul\":3551:3570   */\n      add\n        /* \"#utility.yul\":3538:3571   */\n      calldataload\n        /* \"#utility.yul\":3598:3616   */\n      0xffffffffffffffff\n        /* \"#utility.yul\":3590:3596   */\n      dup2\n        /* \"#utility.yul\":3587:3617   */\n      gt\n        /* \"#utility.yul\":3584:3586   */\n      iszero\n      tag_196\n      jumpi\n        /* \"#utility.yul\":3630:3631   */\n      0x00\n        /* \"#utility.yul\":3627:3628   */\n      dup1\n        /* \"#utility.yul\":3620:3632   */\n      revert\n        /* \"#utility.yul\":3584:3586   */\n    tag_196:\n        /* \"#utility.yul\":3658:3736   */\n      tag_197\n        /* \"#utility.yul\":3728:3735   */\n      dup10\n        /* \"#utility.yul\":3719:3725   */\n      dup3\n        /* \"#utility.yul\":3708:3717   */\n      dup11\n        /* \"#utility.yul\":3704:3726   */\n      add\n        /* \"#utility.yul\":3658:3736   */\n      tag_169\n      jump\t// in\n    tag_197:\n        /* \"#utility.yul\":3648:3736   */\n      swap2\n      pop\n        /* \"#utility.yul\":3509:3746   */\n      pop\n        /* \"#utility.yul\":2565:3753   */\n      swap3\n      swap6\n      pop\n      swap3\n      swap6\n      pop\n      swap3\n      swap6\n      jump\t// out\n        /* \"#utility.yul\":3759:5022   */\n    tag_29:\n      0x00\n      dup1\n      0x00\n      dup1\n      0x00\n        /* \"#utility.yul\":4005:4008   */\n      0xa0\n        /* \"#utility.yul\":3993:4002   */\n      dup7\n        /* \"#utility.yul\":3984:3991   */\n      dup9\n        /* \"#utility.yul\":3980:4003   */\n      sub\n        /* \"#utility.yul\":3976:4009   */\n      slt\n        /* \"#utility.yul\":3973:3975   */\n      iszero\n      tag_199\n      jumpi\n        /* \"#utility.yul\":4022:4023   */\n      0x00\n        /* \"#utility.yul\":4019:4020   */\n      dup1\n        /* \"#utility.yul\":4012:4024   */\n      revert\n        /* \"#utility.yul\":3973:3975   */\n    tag_199:\n        /* \"#utility.yul\":4065:4066   */\n      0x00\n        /* \"#utility.yul\":4090:4143   */\n      tag_200\n        /* \"#utility.yul\":4135:4142   */\n      dup9\n        /* \"#utility.yul\":4126:4132   */\n      dup3\n        /* \"#utility.yul\":4115:4124   */\n      dup10\n        /* \"#utility.yul\":4111:4133   */\n      add\n        /* \"#utility.yul\":4090:4143   */\n      tag_156\n      jump\t// in\n    tag_200:\n        /* \"#utility.yul\":4080:4143   */\n      swap6\n      pop\n        /* \"#utility.yul\":4036:4153   */\n      pop\n        /* \"#utility.yul\":4220:4222   */\n      0x20\n        /* \"#utility.yul\":4209:4218   */\n      dup7\n        /* \"#utility.yul\":4205:4223   */\n      add\n        /* \"#utility.yul\":4192:4224   */\n      calldataload\n        /* \"#utility.yul\":4251:4269   */\n      0xffffffffffffffff\n        /* \"#utility.yul\":4243:4249   */\n      dup2\n        /* \"#utility.yul\":4240:4270   */\n      gt\n        /* \"#utility.yul\":4237:4239   */\n      iszero\n      tag_201\n      jumpi\n        /* \"#utility.yul\":4283:4284   */\n      0x00\n        /* \"#utility.yul\":4280:4281   */\n      dup1\n        /* \"#utility.yul\":4273:4285   */\n      revert\n        /* \"#utility.yul\":4237:4239   */\n    tag_201:\n        /* \"#utility.yul\":4311:4374   */\n      tag_202\n        /* \"#utility.yul\":4366:4373   */\n      dup9\n        /* \"#utility.yul\":4357:4363   */\n      dup3\n        /* \"#utility.yul\":4346:4355   */\n      dup10\n        /* \"#utility.yul\":4342:4364   */\n      add\n        /* \"#utility.yul\":4311:4374   */\n      tag_177\n      jump\t// in\n    tag_202:\n        /* \"#utility.yul\":4301:4374   */\n      swap5\n      pop\n        /* \"#utility.yul\":4163:4384   */\n      pop\n        /* \"#utility.yul\":4423:4425   */\n      0x40\n        /* \"#utility.yul\":4449:4512   */\n      tag_203\n        /* \"#utility.yul\":4504:4511   */\n      dup9\n        /* \"#utility.yul\":4495:4501   */\n      dup3\n        /* \"#utility.yul\":4484:4493   */\n      dup10\n        /* \"#utility.yul\":4480:4502   */\n      add\n        /* \"#utility.yul\":4449:4512   */\n      tag_173\n      jump\t// in\n    tag_203:\n        /* \"#utility.yul\":4439:4512   */\n      swap4\n      pop\n        /* \"#utility.yul\":4394:4522   */\n      pop\n        /* \"#utility.yul\":4589:4591   */\n      0x60\n        /* \"#utility.yul\":4578:4587   */\n      dup7\n        /* \"#utility.yul\":4574:4592   */\n      add\n        /* \"#utility.yul\":4561:4593   */\n      calldataload\n        /* \"#utility.yul\":4620:4638   */\n      0xffffffffffffffff\n        /* \"#utility.yul\":4612:4618   */\n      dup2\n        /* \"#utility.yul\":4609:4639   */\n      gt\n        /* \"#utility.yul\":4606:4608   */\n      iszero\n      tag_204\n      jumpi\n        /* \"#utility.yul\":4652:4653   */\n      0x00\n        /* \"#utility.yul\":4649:4650   */\n      dup1\n        /* \"#utility.yul\":4642:4654   */\n      revert\n        /* \"#utility.yul\":4606:4608   */\n    tag_204:\n        /* \"#utility.yul\":4680:4758   */\n      tag_205\n        /* \"#utility.yul\":4750:4757   */\n      dup9\n        /* \"#utility.yul\":4741:4747   */\n      dup3\n        /* \"#utility.yul\":4730:4739   */\n      dup10\n        /* \"#utility.yul\":4726:4748   */\n      add\n        /* \"#utility.yul\":4680:4758   */\n      tag_169\n      jump\t// in\n    tag_205:\n        /* \"#utility.yul\":4670:4758   */\n      swap3\n      pop\n        /* \"#utility.yul\":4532:4768   */\n      pop\n        /* \"#utility.yul\":4835:4838   */\n      0x80\n        /* \"#utility.yul\":4824:4833   */\n      dup7\n        /* \"#utility.yul\":4820:4839   */\n      add\n        /* \"#utility.yul\":4807:4840   */\n      calldataload\n        /* \"#utility.yul\":4867:4885   */\n      0xffffffffffffffff\n        /* \"#utility.yul\":4859:4865   */\n      dup2\n        /* \"#utility.yul\":4856:4886   */\n      gt\n        /* \"#utility.yul\":4853:4855   */\n      iszero\n      tag_206\n      jumpi\n        /* \"#utility.yul\":4899:4900   */\n      0x00\n        /* \"#utility.yul\":4896:4897   */\n      dup1\n        /* \"#utility.yul\":4889:4901   */\n      revert\n        /* \"#utility.yul\":4853:4855   */\n    tag_206:\n        /* \"#utility.yul\":4927:5005   */\n      tag_207\n        /* \"#utility.yul\":4997:5004   */\n      dup9\n        /* \"#utility.yul\":4988:4994   */\n      dup3\n        /* \"#utility.yul\":4977:4986   */\n      dup10\n        /* \"#utility.yul\":4973:4995   */\n      add\n        /* \"#utility.yul\":4927:5005   */\n      tag_169\n      jump\t// in\n    tag_207:\n        /* \"#utility.yul\":4917:5005   */\n      swap2\n      pop\n        /* \"#utility.yul\":4778:5015   */\n      pop\n        /* \"#utility.yul\":3963:5022   */\n      swap3\n      swap6\n      pop\n      swap3\n      swap6\n      swap1\n      swap4\n      pop\n      jump\t// out\n        /* \"#utility.yul\":5028:5224   */\n    tag_208:\n      0x00\n        /* \"#utility.yul\":5152:5218   */\n      tag_210\n        /* \"#utility.yul\":5214:5217   */\n      dup4\n        /* \"#utility.yul\":5206:5212   */\n      dup4\n        /* \"#utility.yul\":5152:5218   */\n      tag_211\n      jump\t// in\n    tag_210:\n        /* \"#utility.yul\":5138:5218   */\n      swap1\n      pop\n        /* \"#utility.yul\":5128:5224   */\n      swap3\n      swap2\n      pop\n      pop\n      jump\t// out\n        /* \"#utility.yul\":5230:5409   */\n    tag_212:\n      0x00\n        /* \"#utility.yul\":5320:5366   */\n      tag_214\n        /* \"#utility.yul\":5362:5365   */\n      dup4\n        /* \"#utility.yul\":5354:5360   */\n      dup4\n        /* \"#utility.yul\":5320:5366   */\n      tag_215\n      jump\t// in\n    tag_214:\n        /* \"#utility.yul\":5398:5402   */\n      0x20\n        /* \"#utility.yul\":5393:5396   */\n      dup4\n        /* \"#utility.yul\":5389:5403   */\n      add\n        /* \"#utility.yul\":5375:5403   */\n      swap1\n      pop\n        /* \"#utility.yul\":5310:5409   */\n      swap3\n      swap2\n      pop\n      pop\n      jump\t// out\n        /* \"#utility.yul\":5415:5533   */\n    tag_216:\n        /* \"#utility.yul\":5502:5526   */\n      tag_218\n        /* \"#utility.yul\":5520:5525   */\n      dup2\n        /* \"#utility.yul\":5502:5526   */\n      tag_219\n      jump\t// in\n    tag_218:\n        /* \"#utility.yul\":5497:5500   */\n      dup3\n        /* \"#utility.yul\":5490:5527   */\n      mstore\n        /* \"#utility.yul\":5480:5533   */\n      pop\n      pop\n      jump\t// out\n        /* \"#utility.yul\":5567:6558   */\n    tag_220:\n      0x00\n        /* \"#utility.yul\":5735:5799   */\n      tag_222\n        /* \"#utility.yul\":5793:5798   */\n      dup3\n        /* \"#utility.yul\":5735:5799   */\n      tag_223\n      jump\t// in\n    tag_222:\n        /* \"#utility.yul\":5815:5911   */\n      tag_224\n        /* \"#utility.yul\":5904:5910   */\n      dup2\n        /* \"#utility.yul\":5899:5902   */\n      dup6\n        /* \"#utility.yul\":5815:5911   */\n      tag_225\n      jump\t// in\n    tag_224:\n        /* \"#utility.yul\":5808:5911   */\n      swap4\n      pop\n        /* \"#utility.yul\":5937:5940   */\n      dup4\n        /* \"#utility.yul\":5982:5986   */\n      0x20\n        /* \"#utility.yul\":5974:5980   */\n      dup3\n        /* \"#utility.yul\":5970:5987   */\n      mul\n        /* \"#utility.yul\":5965:5968   */\n      dup6\n        /* \"#utility.yul\":5961:5988   */\n      add\n        /* \"#utility.yul\":6012:6078   */\n      tag_226\n        /* \"#utility.yul\":6072:6077   */\n      dup6\n        /* \"#utility.yul\":6012:6078   */\n      tag_227\n      jump\t// in\n    tag_226:\n        /* \"#utility.yul\":6101:6108   */\n      dup1\n        /* \"#utility.yul\":6132:6133   */\n      0x00\n        /* \"#utility.yul\":6117:6513   */\n    tag_228:\n        /* \"#utility.yul\":6142:6148   */\n      dup6\n        /* \"#utility.yul\":6139:6140   */\n      dup2\n        /* \"#utility.yul\":6136:6149   */\n      lt\n        /* \"#utility.yul\":6117:6513   */\n      iszero\n      tag_230\n      jumpi\n        /* \"#utility.yul\":6213:6222   */\n      dup5\n        /* \"#utility.yul\":6207:6211   */\n      dup5\n        /* \"#utility.yul\":6203:6223   */\n      sub\n        /* \"#utility.yul\":6198:6201   */\n      dup10\n        /* \"#utility.yul\":6191:6224   */\n      mstore\n        /* \"#utility.yul\":6264:6270   */\n      dup2\n        /* \"#utility.yul\":6258:6271   */\n      mload\n        /* \"#utility.yul\":6292:6376   */\n      tag_231\n        /* \"#utility.yul\":6371:6375   */\n      dup6\n        /* \"#utility.yul\":6356:6369   */\n      dup3\n        /* \"#utility.yul\":6292:6376   */\n      tag_208\n      jump\t// in\n    tag_231:\n        /* \"#utility.yul\":6284:6376   */\n      swap5\n      pop\n        /* \"#utility.yul\":6399:6469   */\n      tag_232\n        /* \"#utility.yul\":6462:6468   */\n      dup4\n        /* \"#utility.yul\":6399:6469   */\n      tag_233\n      jump\t// in\n    tag_232:\n        /* \"#utility.yul\":6389:6469   */\n      swap3\n      pop\n        /* \"#utility.yul\":6498:6502   */\n      0x20\n        /* \"#utility.yul\":6493:6496   */\n      dup11\n        /* \"#utility.yul\":6489:6503   */\n      add\n        /* \"#utility.yul\":6482:6503   */\n      swap10\n      pop\n        /* \"#utility.yul\":6177:6513   */\n      pop\n        /* \"#utility.yul\":6164:6165   */\n      0x01\n        /* \"#utility.yul\":6161:6162   */\n      dup2\n        /* \"#utility.yul\":6157:6166   */\n      add\n        /* \"#utility.yul\":6152:6166   */\n      swap1\n      pop\n        /* \"#utility.yul\":6117:6513   */\n      jump(tag_228)\n    tag_230:\n        /* \"#utility.yul\":6121:6135   */\n      pop\n        /* \"#utility.yul\":6529:6533   */\n      dup3\n        /* \"#utility.yul\":6522:6533   */\n      swap8\n      pop\n        /* \"#utility.yul\":6549:6552   */\n      dup8\n        /* \"#utility.yul\":6542:6552   */\n      swap6\n      pop\n        /* \"#utility.yul\":5711:6558   */\n      pop\n      pop\n      pop\n      pop\n      pop\n      swap3\n      swap2\n      pop\n      pop\n      jump\t// out\n        /* \"#utility.yul\":6594:7326   */\n    tag_234:\n      0x00\n        /* \"#utility.yul\":6742:6796   */\n      tag_236\n        /* \"#utility.yul\":6790:6795   */\n      dup3\n        /* \"#utility.yul\":6742:6796   */\n      tag_237\n      jump\t// in\n    tag_236:\n        /* \"#utility.yul\":6812:6898   */\n      tag_238\n        /* \"#utility.yul\":6891:6897   */\n      dup2\n        /* \"#utility.yul\":6886:6889   */\n      dup6\n        /* \"#utility.yul\":6812:6898   */\n      tag_239\n      jump\t// in\n    tag_238:\n        /* \"#utility.yul\":6805:6898   */\n      swap4\n      pop\n        /* \"#utility.yul\":6922:6978   */\n      tag_240\n        /* \"#utility.yul\":6972:6977   */\n      dup4\n        /* \"#utility.yul\":6922:6978   */\n      tag_241\n      jump\t// in\n    tag_240:\n        /* \"#utility.yul\":7001:7008   */\n      dup1\n        /* \"#utility.yul\":7032:7033   */\n      0x00\n        /* \"#utility.yul\":7017:7301   */\n    tag_242:\n        /* \"#utility.yul\":7042:7048   */\n      dup4\n        /* \"#utility.yul\":7039:7040   */\n      dup2\n        /* \"#utility.yul\":7036:7049   */\n      lt\n        /* \"#utility.yul\":7017:7301   */\n      iszero\n      tag_244\n      jumpi\n        /* \"#utility.yul\":7118:7124   */\n      dup2\n        /* \"#utility.yul\":7112:7125   */\n      mload\n        /* \"#utility.yul\":7145:7208   */\n      tag_245\n        /* \"#utility.yul\":7204:7207   */\n      dup9\n        /* \"#utility.yul\":7189:7202   */\n      dup3\n        /* \"#utility.yul\":7145:7208   */\n      tag_212\n      jump\t// in\n    tag_245:\n        /* \"#utility.yul\":7138:7208   */\n      swap8\n      pop\n        /* \"#utility.yul\":7231:7291   */\n      tag_246\n        /* \"#utility.yul\":7284:7290   */\n      dup4\n        /* \"#utility.yul\":7231:7291   */\n      tag_247\n      jump\t// in\n    tag_246:\n        /* \"#utility.yul\":7221:7291   */\n      swap3\n      pop\n        /* \"#utility.yul\":7077:7301   */\n      pop\n        /* \"#utility.yul\":7064:7065   */\n      0x01\n        /* \"#utility.yul\":7061:7062   */\n      dup2\n        /* \"#utility.yul\":7057:7066   */\n      add\n        /* \"#utility.yul\":7052:7066   */\n      swap1\n      pop\n        /* \"#utility.yul\":7017:7301   */\n      jump(tag_242)\n    tag_244:\n        /* \"#utility.yul\":7021:7035   */\n      pop\n        /* \"#utility.yul\":7317:7320   */\n      dup6\n        /* \"#utility.yul\":7310:7320   */\n      swap4\n      pop\n        /* \"#utility.yul\":6718:7326   */\n      pop\n      pop\n      pop\n      swap3\n      swap2\n      pop\n      pop\n      jump\t// out\n        /* \"#utility.yul\":7332:7441   */\n    tag_248:\n        /* \"#utility.yul\":7413:7434   */\n      tag_250\n        /* \"#utility.yul\":7428:7433   */\n      dup2\n        /* \"#utility.yul\":7413:7434   */\n      tag_251\n      jump\t// in\n    tag_250:\n        /* \"#utility.yul\":7408:7411   */\n      dup3\n        /* \"#utility.yul\":7401:7435   */\n      mstore\n        /* \"#utility.yul\":7391:7441   */\n      pop\n      pop\n      jump\t// out\n        /* \"#utility.yul\":7447:7594   */\n    tag_252:\n        /* \"#utility.yul\":7542:7587   */\n      tag_254\n        /* \"#utility.yul\":7581:7586   */\n      dup2\n        /* \"#utility.yul\":7542:7587   */\n      tag_255\n      jump\t// in\n    tag_254:\n        /* \"#utility.yul\":7537:7540   */\n      dup3\n        /* \"#utility.yul\":7530:7588   */\n      mstore\n        /* \"#utility.yul\":7520:7594   */\n      pop\n      pop\n      jump\t// out\n        /* \"#utility.yul\":7600:7944   */\n    tag_211:\n      0x00\n        /* \"#utility.yul\":7706:7745   */\n      tag_257\n        /* \"#utility.yul\":7739:7744   */\n      dup3\n        /* \"#utility.yul\":7706:7745   */\n      tag_258\n      jump\t// in\n    tag_257:\n        /* \"#utility.yul\":7761:7822   */\n      tag_259\n        /* \"#utility.yul\":7815:7821   */\n      dup2\n        /* \"#utility.yul\":7810:7813   */\n      dup6\n        /* \"#utility.yul\":7761:7822   */\n      tag_260\n      jump\t// in\n    tag_259:\n        /* \"#utility.yul\":7754:7822   */\n      swap4\n      pop\n        /* \"#utility.yul\":7831:7883   */\n      tag_261\n        /* \"#utility.yul\":7876:7882   */\n      dup2\n        /* \"#utility.yul\":7871:7874   */\n      dup6\n        /* \"#utility.yul\":7864:7868   */\n      0x20\n        /* \"#utility.yul\":7857:7862   */\n      dup7\n        /* \"#utility.yul\":7853:7869   */\n      add\n        /* \"#utility.yul\":7831:7883   */\n      tag_262\n      jump\t// in\n    tag_261:\n        /* \"#utility.yul\":7908:7937   */\n      tag_263\n        /* \"#utility.yul\":7930:7936   */\n      dup2\n        /* \"#utility.yul\":7908:7937   */\n      tag_264\n      jump\t// in\n    tag_263:\n        /* \"#utility.yul\":7903:7906   */\n      dup5\n        /* \"#utility.yul\":7899:7938   */\n      add\n        /* \"#utility.yul\":7892:7938   */\n      swap2\n      pop\n        /* \"#utility.yul\":7682:7944   */\n      pop\n      swap3\n      swap2\n      pop\n      pop\n      jump\t// out\n        /* \"#utility.yul\":7950:8314   */\n    tag_265:\n      0x00\n        /* \"#utility.yul\":8066:8105   */\n      tag_267\n        /* \"#utility.yul\":8099:8104   */\n      dup3\n        /* \"#utility.yul\":8066:8105   */\n      tag_258\n      jump\t// in\n    tag_267:\n        /* \"#utility.yul\":8121:8192   */\n      tag_268\n        /* \"#utility.yul\":8185:8191   */\n      dup2\n        /* \"#utility.yul\":8180:8183   */\n      dup6\n        /* \"#utility.yul\":8121:8192   */\n      tag_269\n      jump\t// in\n    tag_268:\n        /* \"#utility.yul\":8114:8192   */\n      swap4\n      pop\n        /* \"#utility.yul\":8201:8253   */\n      tag_270\n        /* \"#utility.yul\":8246:8252   */\n      dup2\n        /* \"#utility.yul\":8241:8244   */\n      dup6\n        /* \"#utility.yul\":8234:8238   */\n      0x20\n        /* \"#utility.yul\":8227:8232   */\n      dup7\n        /* \"#utility.yul\":8223:8239   */\n      add\n        /* \"#utility.yul\":8201:8253   */\n      tag_262\n      jump\t// in\n    tag_270:\n        /* \"#utility.yul\":8278:8307   */\n      tag_271\n        /* \"#utility.yul\":8300:8306   */\n      dup2\n        /* \"#utility.yul\":8278:8307   */\n      tag_264\n      jump\t// in\n    tag_271:\n        /* \"#utility.yul\":8273:8276   */\n      dup5\n        /* \"#utility.yul\":8269:8308   */\n      add\n        /* \"#utility.yul\":8262:8308   */\n      swap2\n      pop\n        /* \"#utility.yul\":8042:8314   */\n      pop\n      swap3\n      swap2\n      pop\n      pop\n      jump\t// out\n        /* \"#utility.yul\":8344:9146   */\n    tag_272:\n      0x00\n        /* \"#utility.yul\":8466:8471   */\n      dup2\n        /* \"#utility.yul\":8460:8472   */\n      sload\n        /* \"#utility.yul\":8495:8531   */\n      tag_274\n        /* \"#utility.yul\":8521:8530   */\n      dup2\n        /* \"#utility.yul\":8495:8531   */\n      tag_67\n      jump\t// in\n    tag_274:\n        /* \"#utility.yul\":8547:8618   */\n      tag_275\n        /* \"#utility.yul\":8611:8617   */\n      dup2\n        /* \"#utility.yul\":8606:8609   */\n      dup7\n        /* \"#utility.yul\":8547:8618   */\n      tag_269\n      jump\t// in\n    tag_275:\n        /* \"#utility.yul\":8540:8618   */\n      swap5\n      pop\n        /* \"#utility.yul\":8649:8650   */\n      0x01\n        /* \"#utility.yul\":8638:8647   */\n      dup3\n        /* \"#utility.yul\":8634:8651   */\n      and\n        /* \"#utility.yul\":8665:8666   */\n      0x00\n        /* \"#utility.yul\":8660:8795   */\n      dup2\n      eq\n      tag_277\n      jumpi\n        /* \"#utility.yul\":8809:8810   */\n      0x01\n        /* \"#utility.yul\":8804:9140   */\n      dup2\n      eq\n      tag_278\n      jumpi\n        /* \"#utility.yul\":8627:9140   */\n      jump(tag_276)\n        /* \"#utility.yul\":8660:8795   */\n    tag_277:\n        /* \"#utility.yul\":8744:8748   */\n      0xff\n        /* \"#utility.yul\":8740:8749   */\n      not\n        /* \"#utility.yul\":8729:8738   */\n      dup4\n        /* \"#utility.yul\":8725:8750   */\n      and\n        /* \"#utility.yul\":8720:8723   */\n      dup7\n        /* \"#utility.yul\":8713:8751   */\n      mstore\n        /* \"#utility.yul\":8780:8784   */\n      0x20\n        /* \"#utility.yul\":8775:8778   */\n      dup7\n        /* \"#utility.yul\":8771:8785   */\n      add\n        /* \"#utility.yul\":8764:8785   */\n      swap4\n      pop\n        /* \"#utility.yul\":8660:8795   */\n      jump(tag_276)\n        /* \"#utility.yul\":8804:9140   */\n    tag_278:\n        /* \"#utility.yul\":8871:8909   */\n      tag_279\n        /* \"#utility.yul\":8903:8908   */\n      dup6\n        /* \"#utility.yul\":8871:8909   */\n      tag_280\n      jump\t// in\n    tag_279:\n        /* \"#utility.yul\":8931:8932   */\n      0x00\n        /* \"#utility.yul\":8945:9099   */\n    tag_281:\n        /* \"#utility.yul\":8959:8965   */\n      dup4\n        /* \"#utility.yul\":8956:8957   */\n      dup2\n        /* \"#utility.yul\":8953:8966   */\n      lt\n        /* \"#utility.yul\":8945:9099   */\n      iszero\n      tag_283\n      jumpi\n        /* \"#utility.yul\":9033:9040   */\n      dup2\n        /* \"#utility.yul\":9027:9041   */\n      sload\n        /* \"#utility.yul\":9023:9024   */\n      dup2\n        /* \"#utility.yul\":9018:9021   */\n      dup10\n        /* \"#utility.yul\":9014:9025   */\n      add\n        /* \"#utility.yul\":9007:9042   */\n      mstore\n        /* \"#utility.yul\":9083:9084   */\n      0x01\n        /* \"#utility.yul\":9074:9081   */\n      dup3\n        /* \"#utility.yul\":9070:9085   */\n      add\n        /* \"#utility.yul\":9059:9085   */\n      swap2\n      pop\n        /* \"#utility.yul\":8981:8985   */\n      0x20\n        /* \"#utility.yul\":8978:8979   */\n      dup2\n        /* \"#utility.yul\":8974:8986   */\n      add\n        /* \"#utility.yul\":8969:8986   */\n      swap1\n      pop\n        /* \"#utility.yul\":8945:9099   */\n      jump(tag_281)\n    tag_283:\n        /* \"#utility.yul\":9128:9129   */\n      dup1\n        /* \"#utility.yul\":9123:9126   */\n      dup9\n        /* \"#utility.yul\":9119:9130   */\n      add\n        /* \"#utility.yul\":9112:9130   */\n      swap6\n      pop\n        /* \"#utility.yul\":8811:9140   */\n      pop\n      pop\n        /* \"#utility.yul\":8627:9140   */\n    tag_276:\n      pop\n        /* \"#utility.yul\":8433:9146   */\n      pop\n      pop\n      swap3\n      swap2\n      pop\n      pop\n      jump\t// out\n        /* \"#utility.yul\":9152:9260   */\n    tag_215:\n        /* \"#utility.yul\":9229:9253   */\n      tag_285\n        /* \"#utility.yul\":9247:9252   */\n      dup2\n        /* \"#utility.yul\":9229:9253   */\n      tag_286\n      jump\t// in\n    tag_285:\n        /* \"#utility.yul\":9224:9227   */\n      dup3\n        /* \"#utility.yul\":9217:9254   */\n      mstore\n        /* \"#utility.yul\":9207:9260   */\n      pop\n      pop\n      jump\t// out\n        /* \"#utility.yul\":9266:9384   */\n    tag_287:\n        /* \"#utility.yul\":9353:9377   */\n      tag_289\n        /* \"#utility.yul\":9371:9376   */\n      dup2\n        /* \"#utility.yul\":9353:9377   */\n      tag_286\n      jump\t// in\n    tag_289:\n        /* \"#utility.yul\":9348:9351   */\n      dup3\n        /* \"#utility.yul\":9341:9378   */\n      mstore\n        /* \"#utility.yul\":9331:9384   */\n      pop\n      pop\n      jump\t// out\n        /* \"#utility.yul\":9390:9803   */\n    tag_20:\n      0x00\n        /* \"#utility.yul\":9591:9593   */\n      0x20\n        /* \"#utility.yul\":9580:9589   */\n      dup3\n        /* \"#utility.yul\":9576:9594   */\n      add\n        /* \"#utility.yul\":9568:9594   */\n      swap1\n      pop\n        /* \"#utility.yul\":9640:9649   */\n      dup2\n        /* \"#utility.yul\":9634:9638   */\n      dup2\n        /* \"#utility.yul\":9630:9650   */\n      sub\n        /* \"#utility.yul\":9626:9627   */\n      0x00\n        /* \"#utility.yul\":9615:9624   */\n      dup4\n        /* \"#utility.yul\":9611:9628   */\n      add\n        /* \"#utility.yul\":9604:9651   */\n      mstore\n        /* \"#utility.yul\":9668:9796   */\n      tag_291\n        /* \"#utility.yul\":9791:9795   */\n      dup2\n        /* \"#utility.yul\":9782:9788   */\n      dup5\n        /* \"#utility.yul\":9668:9796   */\n      tag_220\n      jump\t// in\n    tag_291:\n        /* \"#utility.yul\":9660:9796   */\n      swap1\n      pop\n        /* \"#utility.yul\":9558:9803   */\n      swap3\n      swap2\n      pop\n      pop\n      jump\t// out\n        /* \"#utility.yul\":9809:10182   */\n    tag_34:\n      0x00\n        /* \"#utility.yul\":9990:9992   */\n      0x20\n        /* \"#utility.yul\":9979:9988   */\n      dup3\n        /* \"#utility.yul\":9975:9993   */\n      add\n        /* \"#utility.yul\":9967:9993   */\n      swap1\n      pop\n        /* \"#utility.yul\":10039:10048   */\n      dup2\n        /* \"#utility.yul\":10033:10037   */\n      dup2\n        /* \"#utility.yul\":10029:10049   */\n      sub\n        /* \"#utility.yul\":10025:10026   */\n      0x00\n        /* \"#utility.yul\":10014:10023   */\n      dup4\n        /* \"#utility.yul\":10010:10027   */\n      add\n        /* \"#utility.yul\":10003:10050   */\n      mstore\n        /* \"#utility.yul\":10067:10175   */\n      tag_293\n        /* \"#utility.yul\":10170:10174   */\n      dup2\n        /* \"#utility.yul\":10161:10167   */\n      dup5\n        /* \"#utility.yul\":10067:10175   */\n      tag_234\n      jump\t// in\n    tag_293:\n        /* \"#utility.yul\":10059:10175   */\n      swap1\n      pop\n        /* \"#utility.yul\":9957:10182   */\n      swap3\n      swap2\n      pop\n      pop\n      jump\t// out\n        /* \"#utility.yul\":10188:10398   */\n    tag_49:\n      0x00\n        /* \"#utility.yul\":10313:10315   */\n      0x20\n        /* \"#utility.yul\":10302:10311   */\n      dup3\n        /* \"#utility.yul\":10298:10316   */\n      add\n        /* \"#utility.yul\":10290:10316   */\n      swap1\n      pop\n        /* \"#utility.yul\":10326:10391   */\n      tag_295\n        /* \"#utility.yul\":10388:10389   */\n      0x00\n        /* \"#utility.yul\":10377:10386   */\n      dup4\n        /* \"#utility.yul\":10373:10390   */\n      add\n        /* \"#utility.yul\":10364:10370   */\n      dup5\n        /* \"#utility.yul\":10326:10391   */\n      tag_248\n      jump\t// in\n    tag_295:\n        /* \"#utility.yul\":10280:10398   */\n      swap3\n      swap2\n      pop\n      pop\n      jump\t// out\n        /* \"#utility.yul\":10404:11576   */\n    tag_44:\n      0x00\n        /* \"#utility.yul\":10797:10800   */\n      0xc0\n        /* \"#utility.yul\":10786:10795   */\n      dup3\n        /* \"#utility.yul\":10782:10801   */\n      add\n        /* \"#utility.yul\":10774:10801   */\n      swap1\n      pop\n        /* \"#utility.yul\":10811:10876   */\n      tag_297\n        /* \"#utility.yul\":10873:10874   */\n      0x00\n        /* \"#utility.yul\":10862:10871   */\n      dup4\n        /* \"#utility.yul\":10858:10875   */\n      add\n        /* \"#utility.yul\":10849:10855   */\n      dup10\n        /* \"#utility.yul\":10811:10876   */\n      tag_248\n      jump\t// in\n    tag_297:\n        /* \"#utility.yul\":10923:10932   */\n      dup2\n        /* \"#utility.yul\":10917:10921   */\n      dup2\n        /* \"#utility.yul\":10913:10933   */\n      sub\n        /* \"#utility.yul\":10908:10910   */\n      0x20\n        /* \"#utility.yul\":10897:10906   */\n      dup4\n        /* \"#utility.yul\":10893:10911   */\n      add\n        /* \"#utility.yul\":10886:10934   */\n      mstore\n        /* \"#utility.yul\":10951:11029   */\n      tag_298\n        /* \"#utility.yul\":11024:11028   */\n      dup2\n        /* \"#utility.yul\":11015:11021   */\n      dup9\n        /* \"#utility.yul\":10951:11029   */\n      tag_265\n      jump\t// in\n    tag_298:\n        /* \"#utility.yul\":10943:11029   */\n      swap1\n      pop\n        /* \"#utility.yul\":11039:11111   */\n      tag_299\n        /* \"#utility.yul\":11107:11109   */\n      0x40\n        /* \"#utility.yul\":11096:11105   */\n      dup4\n        /* \"#utility.yul\":11092:11110   */\n      add\n        /* \"#utility.yul\":11083:11089   */\n      dup8\n        /* \"#utility.yul\":11039:11111   */\n      tag_216\n      jump\t// in\n    tag_299:\n        /* \"#utility.yul\":11121:11201   */\n      tag_300\n        /* \"#utility.yul\":11197:11199   */\n      0x60\n        /* \"#utility.yul\":11186:11195   */\n      dup4\n        /* \"#utility.yul\":11182:11200   */\n      add\n        /* \"#utility.yul\":11173:11179   */\n      dup7\n        /* \"#utility.yul\":11121:11201   */\n      tag_252\n      jump\t// in\n    tag_300:\n        /* \"#utility.yul\":11249:11258   */\n      dup2\n        /* \"#utility.yul\":11243:11247   */\n      dup2\n        /* \"#utility.yul\":11239:11259   */\n      sub\n        /* \"#utility.yul\":11233:11236   */\n      0x80\n        /* \"#utility.yul\":11222:11231   */\n      dup4\n        /* \"#utility.yul\":11218:11237   */\n      add\n        /* \"#utility.yul\":11211:11260   */\n      mstore\n        /* \"#utility.yul\":11277:11385   */\n      tag_301\n        /* \"#utility.yul\":11380:11384   */\n      dup2\n        /* \"#utility.yul\":11371:11377   */\n      dup6\n        /* \"#utility.yul\":11277:11385   */\n      tag_234\n      jump\t// in\n    tag_301:\n        /* \"#utility.yul\":11269:11385   */\n      swap1\n      pop\n        /* \"#utility.yul\":11433:11442   */\n      dup2\n        /* \"#utility.yul\":11427:11431   */\n      dup2\n        /* \"#utility.yul\":11423:11443   */\n      sub\n        /* \"#utility.yul\":11417:11420   */\n      0xa0\n        /* \"#utility.yul\":11406:11415   */\n      dup4\n        /* \"#utility.yul\":11402:11421   */\n      add\n        /* \"#utility.yul\":11395:11444   */\n      mstore\n        /* \"#utility.yul\":11461:11569   */\n      tag_302\n        /* \"#utility.yul\":11564:11568   */\n      dup2\n        /* \"#utility.yul\":11555:11561   */\n      dup5\n        /* \"#utility.yul\":11461:11569   */\n      tag_234\n      jump\t// in\n    tag_302:\n        /* \"#utility.yul\":11453:11569   */\n      swap1\n      pop\n        /* \"#utility.yul\":10764:11576   */\n      swap8\n      swap7\n      pop\n      pop\n      pop\n      pop\n      pop\n      pop\n      pop\n      jump\t// out\n        /* \"#utility.yul\":11582:11895   */\n    tag_26:\n      0x00\n        /* \"#utility.yul\":11733:11735   */\n      0x20\n        /* \"#utility.yul\":11722:11731   */\n      dup3\n        /* \"#utility.yul\":11718:11736   */\n      add\n        /* \"#utility.yul\":11710:11736   */\n      swap1\n      pop\n        /* \"#utility.yul\":11782:11791   */\n      dup2\n        /* \"#utility.yul\":11776:11780   */\n      dup2\n        /* \"#utility.yul\":11772:11792   */\n      sub\n        /* \"#utility.yul\":11768:11769   */\n      0x00\n        /* \"#utility.yul\":11757:11766   */\n      dup4\n        /* \"#utility.yul\":11753:11770   */\n      add\n        /* \"#utility.yul\":11746:11793   */\n      mstore\n        /* \"#utility.yul\":11810:11888   */\n      tag_304\n        /* \"#utility.yul\":11883:11887   */\n      dup2\n        /* \"#utility.yul\":11874:11880   */\n      dup5\n        /* \"#utility.yul\":11810:11888   */\n      tag_265\n      jump\t// in\n    tag_304:\n        /* \"#utility.yul\":11802:11888   */\n      swap1\n      pop\n        /* \"#utility.yul\":11700:11895   */\n      swap3\n      swap2\n      pop\n      pop\n      jump\t// out\n        /* \"#utility.yul\":11901:12208   */\n    tag_105:\n      0x00\n        /* \"#utility.yul\":12049:12051   */\n      0x20\n        /* \"#utility.yul\":12038:12047   */\n      dup3\n        /* \"#utility.yul\":12034:12052   */\n      add\n        /* \"#utility.yul\":12026:12052   */\n      swap1\n      pop\n        /* \"#utility.yul\":12098:12107   */\n      dup2\n        /* \"#utility.yul\":12092:12096   */\n      dup2\n        /* \"#utility.yul\":12088:12108   */\n      sub\n        /* \"#utility.yul\":12084:12085   */\n      0x00\n        /* \"#utility.yul\":12073:12082   */\n      dup4\n        /* \"#utility.yul\":12069:12086   */\n      add\n        /* \"#utility.yul\":12062:12109   */\n      mstore\n        /* \"#utility.yul\":12126:12201   */\n      tag_306\n        /* \"#utility.yul\":12196:12200   */\n      dup2\n        /* \"#utility.yul\":12187:12193   */\n      dup5\n        /* \"#utility.yul\":12126:12201   */\n      tag_272\n      jump\t// in\n    tag_306:\n        /* \"#utility.yul\":12118:12201   */\n      swap1\n      pop\n        /* \"#utility.yul\":12016:12208   */\n      swap3\n      swap2\n      pop\n      pop\n      jump\t// out\n        /* \"#utility.yul\":12214:12436   */\n    tag_39:\n      0x00\n        /* \"#utility.yul\":12345:12347   */\n      0x20\n        /* \"#utility.yul\":12334:12343   */\n      dup3\n        /* \"#utility.yul\":12330:12348   */\n      add\n        /* \"#utility.yul\":12322:12348   */\n      swap1\n      pop\n        /* \"#utility.yul\":12358:12429   */\n      tag_308\n        /* \"#utility.yul\":12426:12427   */\n      0x00\n        /* \"#utility.yul\":12415:12424   */\n      dup4\n        /* \"#utility.yul\":12411:12428   */\n      add\n        /* \"#utility.yul\":12402:12408   */\n      dup5\n        /* \"#utility.yul\":12358:12429   */\n      tag_287\n      jump\t// in\n    tag_308:\n        /* \"#utility.yul\":12312:12436   */\n      swap3\n      swap2\n      pop\n      pop\n      jump\t// out\n        /* \"#utility.yul\":12442:12725   */\n    tag_150:\n      0x00\n        /* \"#utility.yul\":12508:12510   */\n      0x40\n        /* \"#utility.yul\":12502:12511   */\n      mload\n        /* \"#utility.yul\":12492:12511   */\n      swap1\n      pop\n        /* \"#utility.yul\":12550:12554   */\n      dup2\n        /* \"#utility.yul\":12542:12548   */\n      dup2\n        /* \"#utility.yul\":12538:12555   */\n      add\n        /* \"#utility.yul\":12657:12663   */\n      dup2\n        /* \"#utility.yul\":12645:12655   */\n      dup2\n        /* \"#utility.yul\":12642:12664   */\n      lt\n        /* \"#utility.yul\":12621:12639   */\n      0xffffffffffffffff\n        /* \"#utility.yul\":12609:12619   */\n      dup3\n        /* \"#utility.yul\":12606:12640   */\n      gt\n        /* \"#utility.yul\":12603:12665   */\n      or\n        /* \"#utility.yul\":12600:12602   */\n      iszero\n      tag_310\n      jumpi\n        /* \"#utility.yul\":12668:12686   */\n      tag_311\n      tag_312\n      jump\t// in\n    tag_311:\n        /* \"#utility.yul\":12600:12602   */\n    tag_310:\n        /* \"#utility.yul\":12708:12718   */\n      dup1\n        /* \"#utility.yul\":12704:12706   */\n      0x40\n        /* \"#utility.yul\":12697:12719   */\n      mstore\n        /* \"#utility.yul\":12482:12725   */\n      pop\n      swap2\n      swap1\n      pop\n      jump\t// out\n        /* \"#utility.yul\":12731:13042   */\n    tag_149:\n      0x00\n        /* \"#utility.yul\":12898:12916   */\n      0xffffffffffffffff\n        /* \"#utility.yul\":12890:12896   */\n      dup3\n        /* \"#utility.yul\":12887:12917   */\n      gt\n        /* \"#utility.yul\":12884:12886   */\n      iszero\n      tag_314\n      jumpi\n        /* \"#utility.yul\":12920:12938   */\n      tag_315\n      tag_312\n      jump\t// in\n    tag_315:\n        /* \"#utility.yul\":12884:12886   */\n    tag_314:\n        /* \"#utility.yul\":12970:12974   */\n      0x20\n        /* \"#utility.yul\":12962:12968   */\n      dup3\n        /* \"#utility.yul\":12958:12975   */\n      mul\n        /* \"#utility.yul\":12950:12975   */\n      swap1\n      pop\n        /* \"#utility.yul\":13030:13034   */\n      0x20\n        /* \"#utility.yul\":13024:13028   */\n      dup2\n        /* \"#utility.yul\":13020:13035   */\n      add\n        /* \"#utility.yul\":13012:13035   */\n      swap1\n      pop\n        /* \"#utility.yul\":12813:13042   */\n      swap2\n      swap1\n      pop\n      jump\t// out\n        /* \"#utility.yul\":13048:13380   */\n    tag_161:\n      0x00\n        /* \"#utility.yul\":13200:13218   */\n      0xffffffffffffffff\n        /* \"#utility.yul\":13192:13198   */\n      dup3\n        /* \"#utility.yul\":13189:13219   */\n      gt\n        /* \"#utility.yul\":13186:13188   */\n      iszero\n      tag_317\n      jumpi\n        /* \"#utility.yul\":13222:13240   */\n      tag_318\n      tag_312\n      jump\t// in\n    tag_318:\n        /* \"#utility.yul\":13186:13188   */\n    tag_317:\n        /* \"#utility.yul\":13307:13311   */\n      0x1f\n        /* \"#utility.yul\":13303:13312   */\n      not\n        /* \"#utility.yul\":13296:13300   */\n      0x1f\n        /* \"#utility.yul\":13288:13294   */\n      dup4\n        /* \"#utility.yul\":13284:13301   */\n      add\n        /* \"#utility.yul\":13280:13313   */\n      and\n        /* \"#utility.yul\":13272:13313   */\n      swap1\n      pop\n        /* \"#utility.yul\":13368:13372   */\n      0x20\n        /* \"#utility.yul\":13362:13366   */\n      dup2\n        /* \"#utility.yul\":13358:13373   */\n      add\n        /* \"#utility.yul\":13350:13373   */\n      swap1\n      pop\n        /* \"#utility.yul\":13115:13380   */\n      swap2\n      swap1\n      pop\n      jump\t// out\n        /* \"#utility.yul\":13386:13528   */\n    tag_227:\n      0x00\n        /* \"#utility.yul\":13486:13489   */\n      dup2\n        /* \"#utility.yul\":13478:13489   */\n      swap1\n      pop\n        /* \"#utility.yul\":13516:13520   */\n      0x20\n        /* \"#utility.yul\":13511:13514   */\n      dup3\n        /* \"#utility.yul\":13507:13521   */\n      add\n        /* \"#utility.yul\":13499:13521   */\n      swap1\n      pop\n        /* \"#utility.yul\":13468:13528   */\n      swap2\n      swap1\n      pop\n      jump\t// out\n        /* \"#utility.yul\":13534:13666   */\n    tag_241:\n      0x00\n        /* \"#utility.yul\":13624:13627   */\n      dup2\n        /* \"#utility.yul\":13616:13627   */\n      swap1\n      pop\n        /* \"#utility.yul\":13654:13658   */\n      0x20\n        /* \"#utility.yul\":13649:13652   */\n      dup3\n        /* \"#utility.yul\":13645:13659   */\n      add\n        /* \"#utility.yul\":13637:13659   */\n      swap1\n      pop\n        /* \"#utility.yul\":13606:13666   */\n      swap2\n      swap1\n      pop\n      jump\t// out\n        /* \"#utility.yul\":13672:13813   */\n    tag_280:\n      0x00\n        /* \"#utility.yul\":13744:13747   */\n      dup2\n        /* \"#utility.yul\":13736:13747   */\n      swap1\n      pop\n        /* \"#utility.yul\":13767:13770   */\n      dup2\n        /* \"#utility.yul\":13764:13765   */\n      0x00\n        /* \"#utility.yul\":13757:13771   */\n      mstore\n        /* \"#utility.yul\":13801:13805   */\n      0x20\n        /* \"#utility.yul\":13798:13799   */\n      0x00\n        /* \"#utility.yul\":13788:13806   */\n      keccak256\n        /* \"#utility.yul\":13780:13806   */\n      swap1\n      pop\n        /* \"#utility.yul\":13726:13813   */\n      swap2\n      swap1\n      pop\n      jump\t// out\n        /* \"#utility.yul\":13819:13943   */\n    tag_223:\n      0x00\n        /* \"#utility.yul\":13930:13935   */\n      dup2\n        /* \"#utility.yul\":13924:13936   */\n      mload\n        /* \"#utility.yul\":13914:13936   */\n      swap1\n      pop\n        /* \"#utility.yul\":13903:13943   */\n      swap2\n      swap1\n      pop\n      jump\t// out\n        /* \"#utility.yul\":13949:14063   */\n    tag_237:\n      0x00\n        /* \"#utility.yul\":14050:14055   */\n      dup2\n        /* \"#utility.yul\":14044:14056   */\n      mload\n        /* \"#utility.yul\":14034:14056   */\n      swap1\n      pop\n        /* \"#utility.yul\":14023:14063   */\n      swap2\n      swap1\n      pop\n      jump\t// out\n        /* \"#utility.yul\":14069:14168   */\n    tag_258:\n      0x00\n        /* \"#utility.yul\":14155:14160   */\n      dup2\n        /* \"#utility.yul\":14149:14161   */\n      mload\n        /* \"#utility.yul\":14139:14161   */\n      swap1\n      pop\n        /* \"#utility.yul\":14128:14168   */\n      swap2\n      swap1\n      pop\n      jump\t// out\n        /* \"#utility.yul\":14174:14297   */\n    tag_233:\n      0x00\n        /* \"#utility.yul\":14286:14290   */\n      0x20\n        /* \"#utility.yul\":14281:14284   */\n      dup3\n        /* \"#utility.yul\":14277:14291   */\n      add\n        /* \"#utility.yul\":14269:14291   */\n      swap1\n      pop\n        /* \"#utility.yul\":14259:14297   */\n      swap2\n      swap1\n      pop\n      jump\t// out\n        /* \"#utility.yul\":14303:14416   */\n    tag_247:\n      0x00\n        /* \"#utility.yul\":14405:14409   */\n      0x20\n        /* \"#utility.yul\":14400:14403   */\n      dup3\n        /* \"#utility.yul\":14396:14410   */\n      add\n        /* \"#utility.yul\":14388:14410   */\n      swap1\n      pop\n        /* \"#utility.yul\":14378:14416   */\n      swap2\n      swap1\n      pop\n      jump\t// out\n        /* \"#utility.yul\":14422:14616   */\n    tag_225:\n      0x00\n        /* \"#utility.yul\":14565:14571   */\n      dup3\n        /* \"#utility.yul\":14560:14563   */\n      dup3\n        /* \"#utility.yul\":14553:14572   */\n      mstore\n        /* \"#utility.yul\":14605:14609   */\n      0x20\n        /* \"#utility.yul\":14600:14603   */\n      dup3\n        /* \"#utility.yul\":14596:14610   */\n      add\n        /* \"#utility.yul\":14581:14610   */\n      swap1\n      pop\n        /* \"#utility.yul\":14543:14616   */\n      swap3\n      swap2\n      pop\n      pop\n      jump\t// out\n        /* \"#utility.yul\":14622:14806   */\n    tag_239:\n      0x00\n        /* \"#utility.yul\":14755:14761   */\n      dup3\n        /* \"#utility.yul\":14750:14753   */\n      dup3\n        /* \"#utility.yul\":14743:14762   */\n      mstore\n        /* \"#utility.yul\":14795:14799   */\n      0x20\n        /* \"#utility.yul\":14790:14793   */\n      dup3\n        /* \"#utility.yul\":14786:14800   */\n      add\n        /* \"#utility.yul\":14771:14800   */\n      swap1\n      pop\n        /* \"#utility.yul\":14733:14806   */\n      swap3\n      swap2\n      pop\n      pop\n      jump\t// out\n        /* \"#utility.yul\":14812:14971   */\n    tag_260:\n      0x00\n        /* \"#utility.yul\":14920:14926   */\n      dup3\n        /* \"#utility.yul\":14915:14918   */\n      dup3\n        /* \"#utility.yul\":14908:14927   */\n      mstore\n        /* \"#utility.yul\":14960:14964   */\n      0x20\n        /* \"#utility.yul\":14955:14958   */\n      dup3\n        /* \"#utility.yul\":14951:14965   */\n      add\n        /* \"#utility.yul\":14936:14965   */\n      swap1\n      pop\n        /* \"#utility.yul\":14898:14971   */\n      swap3\n      swap2\n      pop\n      pop\n      jump\t// out\n        /* \"#utility.yul\":14977:15146   */\n    tag_269:\n      0x00\n        /* \"#utility.yul\":15095:15101   */\n      dup3\n        /* \"#utility.yul\":15090:15093   */\n      dup3\n        /* \"#utility.yul\":15083:15102   */\n      mstore\n        /* \"#utility.yul\":15135:15139   */\n      0x20\n        /* \"#utility.yul\":15130:15133   */\n      dup3\n        /* \"#utility.yul\":15126:15140   */\n      add\n        /* \"#utility.yul\":15111:15140   */\n      swap1\n      pop\n        /* \"#utility.yul\":15073:15146   */\n      swap3\n      swap2\n      pop\n      pop\n      jump\t// out\n        /* \"#utility.yul\":15152:15248   */\n    tag_219:\n      0x00\n        /* \"#utility.yul\":15218:15242   */\n      tag_332\n        /* \"#utility.yul\":15236:15241   */\n      dup3\n        /* \"#utility.yul\":15218:15242   */\n      tag_333\n      jump\t// in\n    tag_332:\n        /* \"#utility.yul\":15207:15242   */\n      swap1\n      pop\n        /* \"#utility.yul\":15197:15248   */\n      swap2\n      swap1\n      pop\n      jump\t// out\n        /* \"#utility.yul\":15254:15344   */\n    tag_251:\n      0x00\n        /* \"#utility.yul\":15331:15336   */\n      dup2\n        /* \"#utility.yul\":15324:15337   */\n      iszero\n        /* \"#utility.yul\":15317:15338   */\n      iszero\n        /* \"#utility.yul\":15306:15338   */\n      swap1\n      pop\n        /* \"#utility.yul\":15296:15344   */\n      swap2\n      swap1\n      pop\n      jump\t// out\n        /* \"#utility.yul\":15350:15481   */\n    tag_335:\n      0x00\n        /* \"#utility.yul\":15426:15431   */\n      dup2\n        /* \"#utility.yul\":15415:15431   */\n      swap1\n      pop\n        /* \"#utility.yul\":15432:15475   */\n      tag_337\n        /* \"#utility.yul\":15469:15474   */\n      dup3\n        /* \"#utility.yul\":15432:15475   */\n      tag_338\n      jump\t// in\n    tag_337:\n        /* \"#utility.yul\":15405:15481   */\n      swap2\n      swap1\n      pop\n      jump\t// out\n        /* \"#utility.yul\":15487:15613   */\n    tag_333:\n      0x00\n        /* \"#utility.yul\":15564:15606   */\n      0xffffffffffffffffffffffffffffffffffffffff\n        /* \"#utility.yul\":15557:15562   */\n      dup3\n        /* \"#utility.yul\":15553:15607   */\n      and\n        /* \"#utility.yul\":15542:15607   */\n      swap1\n      pop\n        /* \"#utility.yul\":15532:15613   */\n      swap2\n      swap1\n      pop\n      jump\t// out\n        /* \"#utility.yul\":15619:15696   */\n    tag_286:\n      0x00\n        /* \"#utility.yul\":15685:15690   */\n      dup2\n        /* \"#utility.yul\":15674:15690   */\n      swap1\n      pop\n        /* \"#utility.yul\":15664:15696   */\n      swap2\n      swap1\n      pop\n      jump\t// out\n        /* \"#utility.yul\":15702:15833   */\n    tag_255:\n      0x00\n        /* \"#utility.yul\":15793:15827   */\n      tag_342\n        /* \"#utility.yul\":15821:15826   */\n      dup3\n        /* \"#utility.yul\":15793:15827   */\n      tag_335\n      jump\t// in\n    tag_342:\n        /* \"#utility.yul\":15780:15827   */\n      swap1\n      pop\n        /* \"#utility.yul\":15770:15833   */\n      swap2\n      swap1\n      pop\n      jump\t// out\n        /* \"#utility.yul\":15839:15993   */\n    tag_164:\n        /* \"#utility.yul\":15923:15929   */\n      dup3\n        /* \"#utility.yul\":15918:15921   */\n      dup2\n        /* \"#utility.yul\":15913:15916   */\n      dup4\n        /* \"#utility.yul\":15900:15930   */\n      calldatacopy\n        /* \"#utility.yul\":15985:15986   */\n      0x00\n        /* \"#utility.yul\":15976:15982   */\n      dup4\n        /* \"#utility.yul\":15971:15974   */\n      dup4\n        /* \"#utility.yul\":15967:15983   */\n      add\n        /* \"#utility.yul\":15960:15987   */\n      mstore\n        /* \"#utility.yul\":15890:15993   */\n      pop\n      pop\n      pop\n      jump\t// out\n        /* \"#utility.yul\":15999:16306   */\n    tag_262:\n        /* \"#utility.yul\":16067:16068   */\n      0x00\n        /* \"#utility.yul\":16077:16190   */\n    tag_345:\n        /* \"#utility.yul\":16091:16097   */\n      dup4\n        /* \"#utility.yul\":16088:16089   */\n      dup2\n        /* \"#utility.yul\":16085:16098   */\n      lt\n        /* \"#utility.yul\":16077:16190   */\n      iszero\n      tag_347\n      jumpi\n        /* \"#utility.yul\":16176:16177   */\n      dup1\n        /* \"#utility.yul\":16171:16174   */\n      dup3\n        /* \"#utility.yul\":16167:16178   */\n      add\n        /* \"#utility.yul\":16161:16179   */\n      mload\n        /* \"#utility.yul\":16157:16158   */\n      dup2\n        /* \"#utility.yul\":16152:16155   */\n      dup5\n        /* \"#utility.yul\":16148:16159   */\n      add\n        /* \"#utility.yul\":16141:16180   */\n      mstore\n        /* \"#utility.yul\":16113:16115   */\n      0x20\n        /* \"#utility.yul\":16110:16111   */\n      dup2\n        /* \"#utility.yul\":16106:16116   */\n      add\n        /* \"#utility.yul\":16101:16116   */\n      swap1\n      pop\n        /* \"#utility.yul\":16077:16190   */\n      jump(tag_345)\n    tag_347:\n        /* \"#utility.yul\":16208:16214   */\n      dup4\n        /* \"#utility.yul\":16205:16206   */\n      dup2\n        /* \"#utility.yul\":16202:16215   */\n      gt\n        /* \"#utility.yul\":16199:16201   */\n      iszero\n      tag_348\n      jumpi\n        /* \"#utility.yul\":16288:16289   */\n      0x00\n        /* \"#utility.yul\":16279:16285   */\n      dup5\n        /* \"#utility.yul\":16274:16277   */\n      dup5\n        /* \"#utility.yul\":16270:16286   */\n      add\n        /* \"#utility.yul\":16263:16290   */\n      mstore\n        /* \"#utility.yul\":16199:16201   */\n    tag_348:\n        /* \"#utility.yul\":16048:16306   */\n      pop\n      pop\n      pop\n      pop\n      jump\t// out\n        /* \"#utility.yul\":16312:16632   */\n    tag_67:\n      0x00\n        /* \"#utility.yul\":16393:16394   */\n      0x02\n        /* \"#utility.yul\":16387:16391   */\n      dup3\n        /* \"#utility.yul\":16383:16395   */\n      div\n        /* \"#utility.yul\":16373:16395   */\n      swap1\n      pop\n        /* \"#utility.yul\":16440:16441   */\n      0x01\n        /* \"#utility.yul\":16434:16438   */\n      dup3\n        /* \"#utility.yul\":16430:16442   */\n      and\n        /* \"#utility.yul\":16461:16479   */\n      dup1\n        /* \"#utility.yul\":16451:16453   */\n      tag_350\n      jumpi\n        /* \"#utility.yul\":16517:16521   */\n      0x7f\n        /* \"#utility.yul\":16509:16515   */\n      dup3\n        /* \"#utility.yul\":16505:16522   */\n      and\n        /* \"#utility.yul\":16495:16522   */\n      swap2\n      pop\n        /* \"#utility.yul\":16451:16453   */\n    tag_350:\n        /* \"#utility.yul\":16579:16581   */\n      0x20\n        /* \"#utility.yul\":16571:16577   */\n      dup3\n        /* \"#utility.yul\":16568:16582   */\n      lt\n        /* \"#utility.yul\":16548:16566   */\n      dup2\n        /* \"#utility.yul\":16545:16583   */\n      eq\n        /* \"#utility.yul\":16542:16544   */\n      iszero\n      tag_351\n      jumpi\n        /* \"#utility.yul\":16598:16616   */\n      tag_352\n      tag_353\n      jump\t// in\n    tag_352:\n        /* \"#utility.yul\":16542:16544   */\n    tag_351:\n        /* \"#utility.yul\":16363:16632   */\n      pop\n      swap2\n      swap1\n      pop\n      jump\t// out\n        /* \"#utility.yul\":16638:16818   */\n    tag_354:\n        /* \"#utility.yul\":16686:16763   */\n      0x4e487b7100000000000000000000000000000000000000000000000000000000\n        /* \"#utility.yul\":16683:16684   */\n      0x00\n        /* \"#utility.yul\":16676:16764   */\n      mstore\n        /* \"#utility.yul\":16783:16787   */\n      0x21\n        /* \"#utility.yul\":16780:16781   */\n      0x04\n        /* \"#utility.yul\":16773:16788   */\n      mstore\n        /* \"#utility.yul\":16807:16811   */\n      0x24\n        /* \"#utility.yul\":16804:16805   */\n      0x00\n        /* \"#utility.yul\":16797:16812   */\n      revert\n        /* \"#utility.yul\":16824:17004   */\n    tag_353:\n        /* \"#utility.yul\":16872:16949   */\n      0x4e487b7100000000000000000000000000000000000000000000000000000000\n        /* \"#utility.yul\":16869:16870   */\n      0x00\n        /* \"#utility.yul\":16862:16950   */\n      mstore\n        /* \"#utility.yul\":16969:16973   */\n      0x22\n        /* \"#utility.yul\":16966:16967   */\n      0x04\n        /* \"#utility.yul\":16959:16974   */\n      mstore\n        /* \"#utility.yul\":16993:16997   */\n      0x24\n        /* \"#utility.yul\":16990:16991   */\n      0x00\n        /* \"#utility.yul\":16983:16998   */\n      revert\n        /* \"#utility.yul\":17010:17190   */\n    tag_312:\n        /* \"#utility.yul\":17058:17135   */\n      0x4e487b7100000000000000000000000000000000000000000000000000000000\n        /* \"#utility.yul\":17055:17056   */\n      0x00\n        /* \"#utility.yul\":17048:17136   */\n      mstore\n        /* \"#utility.yul\":17155:17159   */\n      0x41\n        /* \"#utility.yul\":17152:17153   */\n      0x04\n        /* \"#utility.yul\":17145:17160   */\n      mstore\n        /* \"#utility.yul\":17179:17183   */\n      0x24\n        /* \"#utility.yul\":17176:17177   */\n      0x00\n        /* \"#utility.yul\":17169:17184   */\n      revert\n        /* \"#utility.yul\":17196:17298   */\n    tag_264:\n      0x00\n        /* \"#utility.yul\":17288:17290   */\n      0x1f\n        /* \"#utility.yul\":17284:17291   */\n      not\n        /* \"#utility.yul\":17279:17281   */\n      0x1f\n        /* \"#utility.yul\":17272:17277   */\n      dup4\n        /* \"#utility.yul\":17268:17282   */\n      add\n        /* \"#utility.yul\":17264:17292   */\n      and\n        /* \"#utility.yul\":17254:17292   */\n      swap1\n      pop\n        /* \"#utility.yul\":17244:17298   */\n      swap2\n      swap1\n      pop\n      jump\t// out\n        /* \"#utility.yul\":17304:17419   */\n    tag_338:\n        /* \"#utility.yul\":17387:17388   */\n      0x04\n        /* \"#utility.yul\":17380:17385   */\n      dup2\n        /* \"#utility.yul\":17377:17389   */\n      lt\n        /* \"#utility.yul\":17367:17369   */\n      tag_360\n      jumpi\n        /* \"#utility.yul\":17393:17411   */\n      tag_361\n      tag_354\n      jump\t// in\n    tag_361:\n        /* \"#utility.yul\":17367:17369   */\n    tag_360:\n        /* \"#utility.yul\":17357:17419   */\n      pop\n      jump\t// out\n        /* \"#utility.yul\":17425:17547   */\n    tag_168:\n        /* \"#utility.yul\":17498:17522   */\n      tag_363\n        /* \"#utility.yul\":17516:17521   */\n      dup2\n        /* \"#utility.yul\":17498:17522   */\n      tag_219\n      jump\t// in\n    tag_363:\n        /* \"#utility.yul\":17491:17496   */\n      dup2\n        /* \"#utility.yul\":17488:17523   */\n      eq\n        /* \"#utility.yul\":17478:17480   */\n      tag_364\n      jumpi\n        /* \"#utility.yul\":17537:17538   */\n      0x00\n        /* \"#utility.yul\":17534:17535   */\n      dup1\n        /* \"#utility.yul\":17527:17539   */\n      revert\n        /* \"#utility.yul\":17478:17480   */\n    tag_364:\n        /* \"#utility.yul\":17468:17547   */\n      pop\n      jump\t// out\n        /* \"#utility.yul\":17553:17662   */\n    tag_176:\n        /* \"#utility.yul\":17636:17637   */\n      0x04\n        /* \"#utility.yul\":17629:17634   */\n      dup2\n        /* \"#utility.yul\":17626:17638   */\n      lt\n        /* \"#utility.yul\":17616:17618   */\n      tag_366\n      jumpi\n        /* \"#utility.yul\":17652:17653   */\n      0x00\n        /* \"#utility.yul\":17649:17650   */\n      dup1\n        /* \"#utility.yul\":17642:17654   */\n      revert\n        /* \"#utility.yul\":17616:17618   */\n    tag_366:\n        /* \"#utility.yul\":17606:17662   */\n      pop\n      jump\t// out\n        /* \"#utility.yul\":17668:17790   */\n    tag_183:\n        /* \"#utility.yul\":17741:17765   */\n      tag_368\n        /* \"#utility.yul\":17759:17764   */\n      dup2\n        /* \"#utility.yul\":17741:17765   */\n      tag_286\n      jump\t// in\n    tag_368:\n        /* \"#utility.yul\":17734:17739   */\n      dup2\n        /* \"#utility.yul\":17731:17766   */\n      eq\n        /* \"#utility.yul\":17721:17723   */\n      tag_369\n      jumpi\n        /* \"#utility.yul\":17780:17781   */\n      0x00\n        /* \"#utility.yul\":17777:17778   */\n      dup1\n        /* \"#utility.yul\":17770:17782   */\n      revert\n        /* \"#utility.yul\":17721:17723   */\n    tag_369:\n        /* \"#utility.yul\":17711:17790   */\n      pop\n      jump\t// out\n\n    auxdata: 0xa2646970667358221220eb5e75c90844f4647b2ba013c80d1460092256c8663f9c42c92896b3cf493c1364736f6c63430008000033\n}\n","bytecode":{"linkReferences":{},"object":"608060405234801561001057600080fd5b50611856806100206000396000f3fe608060405234801561001057600080fd5b50600436106100935760003560e01c8063909e4ab611610066578063909e4ab61461011e578063957941571461013c578063976217cd1461016c5780639849cee9146101a1578063993c0410146101d157610093565b8063307ed4be146100985780634d60f651146100b457806361ea18df146100d257806372a598cc14610102575b600080fd5b6100b260048036038101906100ad919061100e565b610201565b005b6100bc6103b6565b6040516100c991906113da565b60405180910390f35b6100ec60048036038101906100e79190610fe5565b61048f565b6040516100f991906114af565b60405180910390f35b61011c600480360381019061011791906110df565b61053b565b005b6101266106f0565b60405161013391906113fc565b60405180910390f35b61015660048036038101906101519190610fe5565b610748565b60405161016391906114f3565b60405180910390f35b61018660048036038101906101819190610fe5565b61076c565b60405161019896959493929190611439565b60405180910390f35b6101bb60048036038101906101b69190610fe5565b610976565b6040516101c8919061141e565b60405180910390f35b6101eb60048036038101906101e69190610fe5565b6109a2565b6040516101f8919061141e565b60405180910390f35b60006040518060c001604052808781526020018673ffffffffffffffffffffffffffffffffffffffff168152602001600015158152602001856003811115610272577f4e487b7100000000000000000000000000000000000000000000000000000000600052602160045260246000fd5b81526020018481526020018381525090508060008089815260200190815260200160002060008201518160000190805190602001906102b2929190610d2b565b5060208201518160010160006101000a81548173ffffffffffffffffffffffffffffffffffffffff021916908373ffffffffffffffffffffffffffffffffffffffff16021790555060408201518160010160146101000a81548160ff02191690831515021790555060608201518160010160156101000a81548160ff0219169083600381111561036b577f4e487b7100000000000000000000000000000000000000000000000000000000600052602160045260246000fd5b0217905550608082015181600201908051906020019061038c929190610db1565b5060a08201518160030190805190602001906103a9929190610db1565b5090505050505050505050565b60606002805480602002602001604051908101604052809291908181526020016000905b828210156104865783829060005260206000200180546103f9906116fe565b80601f0160208091040260200160405190810160405280929190818152602001828054610425906116fe565b80156104725780601f1061044757610100808354040283529160200191610472565b820191906000526020600020905b81548152906001019060200180831161045557829003601f168201915b5050505050815260200190600101906103da565b50505050905090565b6002818154811061049f57600080fd5b9060005260206000200160009150905080546104ba906116fe565b80601f01602080910402602001604051908101604052809291908181526020018280546104e6906116fe565b80156105335780601f1061050857610100808354040283529160200191610533565b820191906000526020600020905b81548152906001019060200180831161051657829003601f168201915b505050505081565b60006040518060c00160405280868152602001600073ffffffffffffffffffffffffffffffffffffffff1681526020016000151581526020018560038111156105ad577f4e487b7100000000000000000000000000000000000000000000000000000000600052602160045260246000fd5b81526020018481526020018381525090508060008088815260200190815260200160002060008201518160000190805190602001906105ed929190610d2b565b5060208201518160010160006101000a81548173ffffffffffffffffffffffffffffffffffffffff021916908373ffffffffffffffffffffffffffffffffffffffff16021790555060408201518160010160146101000a81548160ff02191690831515021790555060608201518160010160156101000a81548160ff021916908360038111156106a6577f4e487b7100000000000000000000000000000000000000000000000000000000600052602160045260246000fd5b021790555060808201518160020190805190602001906106c7929190610db1565b5060a08201518160030190805190602001906106e4929190610db1565b50905050505050505050565b6060600180548060200260200160405190810160405280929190818152602001828054801561073e57602002820191906000526020600020905b81548152602001906001019080831161072a575b5050505050905090565b6001818154811061075857600080fd5b906000526020600020016000915090505481565b6000606060008060608060008088815260200190815260200160002060010160149054906101000a900460ff166000808981526020019081526020016000206000016000808a815260200190815260200160002060010160009054906101000a900473ffffffffffffffffffffffffffffffffffffffff166000808b815260200190815260200160002060010160159054906101000a900460ff166000808c81526020019081526020016000206002016000808d815260200190815260200160002060030184805461083d906116fe565b80601f0160208091040260200160405190810160405280929190818152602001828054610869906116fe565b80156108b65780601f1061088b576101008083540402835291602001916108b6565b820191906000526020600020905b81548152906001019060200180831161089957829003601f168201915b505050505094508180548060200260200160405190810160405280929190818152602001828054801561090857602002820191906000526020600020905b8154815260200190600101908083116108f4575b505050505091508080548060200260200160405190810160405280929190818152602001828054801561095a57602002820191906000526020600020905b815481526020019060010190808311610946575b5050505050905095509550955095509550955091939550919395565b600080600083815260200190815260200160002060010160149054906101000a900460ff169050919050565b60008060008084815260200190815260200160002060010160009054906101000a900473ffffffffffffffffffffffffffffffffffffffff169050600073ffffffffffffffffffffffffffffffffffffffff168173ffffffffffffffffffffffffffffffffffffffff161480610a4357503373ffffffffffffffffffffffffffffffffffffffff168173ffffffffffffffffffffffffffffffffffffffff16145b60008085815260200190815260200160002060000190610a99576040517f08c379a0000000000000000000000000000000000000000000000000000000008152600401610a9091906114d1565b60405180910390fd5b506000806000858152602001908152602001600020600201805480602002602001604051908101604052809291908181526020018280548015610afb57602002820191906000526020600020905b815481526020019060010190808311610ae7575b50505050509050600081511415610b155760019250610c0d565b60006003811115610b4f577f4e487b7100000000000000000000000000000000000000000000000000000000600052602160045260246000fd5b60008086815260200190815260200160002060010160159054906101000a900460ff166003811115610baa577f4e487b7100000000000000000000000000000000000000000000000000000000600052602160045260246000fd5b1415610c0c5760011515610bfe82600081518110610bf1577f4e487b7100000000000000000000000000000000000000000000000000000000600052603260045260246000fd5b6020026020010151610976565b15151415610c0b57600192505b5b5b8215610cf357600160008086815260200190815260200160002060010160146101000a81548160ff0219169083151502179055506001849080600181540180825580915050600190039060005260206000200160009091909190915055600260008086815260200190815260200160002060000190806001815401808255809150506001900390600052602060002001600090919091909150908054610cb2906116fe565b610cbd929190610dfe565b50600115157facd30b4f9fd5868793e13ffb506f03374a23d9feba1249ac2cc7b0fe024ff4ba60405160405180910390a2610d24565b600015157facd30b4f9fd5868793e13ffb506f03374a23d9feba1249ac2cc7b0fe024ff4ba60405160405180910390a25b5050919050565b828054610d37906116fe565b90600052602060002090601f016020900481019282610d595760008555610da0565b82601f10610d7257805160ff1916838001178555610da0565b82800160010185558215610da0579182015b82811115610d9f578251825591602001919060010190610d84565b5b509050610dad9190610e8b565b5090565b828054828255906000526020600020908101928215610ded579160200282015b82811115610dec578251825591602001919060010190610dd1565b5b509050610dfa9190610e8b565b5090565b828054610e0a906116fe565b90600052602060002090601f016020900481019282610e2c5760008555610e7a565b82601f10610e3d5780548555610e7a565b82800160010185558215610e7a57600052602060002091601f016020900482015b82811115610e79578254825591600101919060010190610e5e565b5b509050610e879190610e8b565b5090565b5b80821115610ea4576000816000905550600101610e8c565b5090565b6000610ebb610eb68461153f565b61150e565b90508083825260208201905082856020860282011115610eda57600080fd5b60005b85811015610f0a5781610ef08882610fd0565b845260208401935060208301925050600181019050610edd565b5050509392505050565b6000610f27610f228461156b565b61150e565b905082815260208101848484011115610f3f57600080fd5b610f4a8482856116bc565b509392505050565b600081359050610f61816117e2565b92915050565b600082601f830112610f7857600080fd5b8135610f88848260208601610ea8565b91505092915050565b600081359050610fa0816117f9565b92915050565b600082601f830112610fb757600080fd5b8135610fc7848260208601610f14565b91505092915050565b600081359050610fdf81611809565b92915050565b600060208284031215610ff757600080fd5b600061100584828501610fd0565b91505092915050565b60008060008060008060c0878903121561102757600080fd5b600061103589828a01610fd0565b965050602087013567ffffffffffffffff81111561105257600080fd5b61105e89828a01610fa6565b955050604061106f89828a01610f52565b945050606061108089828a01610f91565b935050608087013567ffffffffffffffff81111561109d57600080fd5b6110a989828a01610f67565b92505060a087013567ffffffffffffffff8111156110c657600080fd5b6110d289828a01610f67565b9150509295509295509295565b600080600080600060a086880312156110f757600080fd5b600061110588828901610fd0565b955050602086013567ffffffffffffffff81111561112257600080fd5b61112e88828901610fa6565b945050604061113f88828901610f91565b935050606086013567ffffffffffffffff81111561115c57600080fd5b61116888828901610f67565b925050608086013567ffffffffffffffff81111561118557600080fd5b61119188828901610f67565b9150509295509295909350565b60006111aa83836112ca565b905092915050565b60006111be83836113bc565b60208301905092915050565b6111d38161164f565b82525050565b60006111e4826115d0565b6111ee818561160b565b9350836020820285016112008561159b565b8060005b8581101561123c578484038952815161121d858261119e565b9450611228836115f1565b925060208a01995050600181019050611204565b50829750879550505050505092915050565b6000611259826115db565b611263818561161c565b935061126e836115ab565b8060005b8381101561129f57815161128688826111b2565b9750611291836115fe565b925050600181019050611272565b5085935050505092915050565b6112b581611661565b82525050565b6112c4816116aa565b82525050565b60006112d5826115e6565b6112df818561162d565b93506112ef8185602086016116cb565b6112f8816117bd565b840191505092915050565b600061130e826115e6565b611318818561163e565b93506113288185602086016116cb565b611331816117bd565b840191505092915050565b60008154611349816116fe565b611353818661163e565b9450600182166000811461136e5760018114611380576113b3565b60ff19831686526020860193506113b3565b611389856115bb565b60005b838110156113ab5781548189015260018201915060208101905061138c565b808801955050505b50505092915050565b6113c5816116a0565b82525050565b6113d4816116a0565b82525050565b600060208201905081810360008301526113f481846111d9565b905092915050565b60006020820190508181036000830152611416818461124e565b905092915050565b600060208201905061143360008301846112ac565b92915050565b600060c08201905061144e60008301896112ac565b81810360208301526114608188611303565b905061146f60408301876111ca565b61147c60608301866112bb565b818103608083015261148e818561124e565b905081810360a08301526114a2818461124e565b9050979650505050505050565b600060208201905081810360008301526114c98184611303565b905092915050565b600060208201905081810360008301526114eb818461133c565b905092915050565b600060208201905061150860008301846113cb565b92915050565b6000604051905081810181811067ffffffffffffffff821117156115355761153461178e565b5b8060405250919050565b600067ffffffffffffffff82111561155a5761155961178e565b5b602082029050602081019050919050565b600067ffffffffffffffff8211156115865761158561178e565b5b601f19601f8301169050602081019050919050565b6000819050602082019050919050565b6000819050602082019050919050565b60008190508160005260206000209050919050565b600081519050919050565b600081519050919050565b600081519050919050565b6000602082019050919050565b6000602082019050919050565b600082825260208201905092915050565b600082825260208201905092915050565b600082825260208201905092915050565b600082825260208201905092915050565b600061165a82611680565b9050919050565b60008115159050919050565b600081905061167b826117ce565b919050565b600073ffffffffffffffffffffffffffffffffffffffff82169050919050565b6000819050919050565b60006116b58261166d565b9050919050565b82818337600083830152505050565b60005b838110156116e95780820151818401526020810190506116ce565b838111156116f8576000848401525b50505050565b6000600282049050600182168061171657607f821691505b6020821081141561172a5761172961175f565b5b50919050565b7f4e487b7100000000000000000000000000000000000000000000000000000000600052602160045260246000fd5b7f4e487b7100000000000000000000000000000000000000000000000000000000600052602260045260246000fd5b7f4e487b7100000000000000000000000000000000000000000000000000000000600052604160045260246000fd5b6000601f19601f8301169050919050565b600481106117df576117de611730565b5b50565b6117eb8161164f565b81146117f657600080fd5b50565b6004811061180657600080fd5b50565b611812816116a0565b811461181d57600080fd5b5056fea2646970667358221220eb5e75c90844f4647b2ba013c80d1460092256c8663f9c42c92896b3cf493c1364736f6c63430008000033","opcodes":"PUSH1 0x80 PUSH1 0x40 MSTORE CALLVALUE DUP1 ISZERO PUSH2 0x10 JUMPI PUSH1 0x0 DUP1 REVERT JUMPDEST POP PUSH2 0x1856 DUP1 PUSH2 0x20 PUSH1 0x0 CODECOPY PUSH1 0x0 RETURN INVALID PUSH1 0x80 PUSH1 0x40 MSTORE CALLVALUE DUP1 ISZERO PUSH2 0x10 JUMPI PUSH1 0x0 DUP1 REVERT JUMPDEST POP PUSH1 0x4 CALLDATASIZE LT PUSH2 0x93 JUMPI PUSH1 0x0 CALLDATALOAD PUSH1 0xE0 SHR DUP1 PUSH4 0x909E4AB6 GT PUSH2 0x66 JUMPI DUP1 PUSH4 0x909E4AB6 EQ PUSH2 0x11E JUMPI DUP1 PUSH4 0x95794157 EQ PUSH2 0x13C JUMPI DUP1 PUSH4 0x976217CD EQ PUSH2 0x16C JUMPI DUP1 PUSH4 0x9849CEE9 EQ PUSH2 0x1A1 JUMPI DUP1 PUSH4 0x993C0410 EQ PUSH2 0x1D1 JUMPI PUSH2 0x93 JUMP JUMPDEST DUP1 PUSH4 0x307ED4BE EQ PUSH2 0x98 JUMPI DUP1 PUSH4 0x4D60F651 EQ PUSH2 0xB4 JUMPI DUP1 PUSH4 0x61EA18DF EQ PUSH2 0xD2 JUMPI DUP1 PUSH4 0x72A598CC EQ PUSH2 0x102 JUMPI JUMPDEST PUSH1 0x0 DUP1 REVERT JUMPDEST PUSH2 0xB2 PUSH1 0x4 DUP1 CALLDATASIZE SUB DUP2 ADD SWAP1 PUSH2 0xAD SWAP2 SWAP1 PUSH2 0x100E JUMP JUMPDEST PUSH2 0x201 JUMP JUMPDEST STOP JUMPDEST PUSH2 0xBC PUSH2 0x3B6 JUMP JUMPDEST PUSH1 0x40 MLOAD PUSH2 0xC9 SWAP2 SWAP1 PUSH2 0x13DA JUMP JUMPDEST PUSH1 0x40 MLOAD DUP1 SWAP2 SUB SWAP1 RETURN JUMPDEST PUSH2 0xEC PUSH1 0x4 DUP1 CALLDATASIZE SUB DUP2 ADD SWAP1 PUSH2 0xE7 SWAP2 SWAP1 PUSH2 0xFE5 JUMP JUMPDEST PUSH2 0x48F JUMP JUMPDEST PUSH1 0x40 MLOAD PUSH2 0xF9 SWAP2 SWAP1 PUSH2 0x14AF JUMP JUMPDEST PUSH1 0x40 MLOAD DUP1 SWAP2 SUB SWAP1 RETURN JUMPDEST PUSH2 0x11C PUSH1 0x4 DUP1 CALLDATASIZE SUB DUP2 ADD SWAP1 PUSH2 0x117 SWAP2 SWAP1 PUSH2 0x10DF JUMP JUMPDEST PUSH2 0x53B JUMP JUMPDEST STOP JUMPDEST PUSH2 0x126 PUSH2 0x6F0 JUMP JUMPDEST PUSH1 0x40 MLOAD PUSH2 0x133 SWAP2 SWAP1 PUSH2 0x13FC JUMP JUMPDEST PUSH1 0x40 MLOAD DUP1 SWAP2 SUB SWAP1 RETURN JUMPDEST PUSH2 0x156 PUSH1 0x4 DUP1 CALLDATASIZE SUB DUP2 ADD SWAP1 PUSH2 0x151 SWAP2 SWAP1 PUSH2 0xFE5 JUMP JUMPDEST PUSH2 0x748 JUMP JUMPDEST PUSH1 0x40 MLOAD PUSH2 0x163 SWAP2 SWAP1 PUSH2 0x14F3 JUMP JUMPDEST PUSH1 0x40 MLOAD DUP1 SWAP2 SUB SWAP1 RETURN JUMPDEST PUSH2 0x186 PUSH1 0x4 DUP1 CALLDATASIZE SUB DUP2 ADD SWAP1 PUSH2 0x181 SWAP2 SWAP1 PUSH2 0xFE5 JUMP JUMPDEST PUSH2 0x76C JUMP JUMPDEST PUSH1 0x40 MLOAD PUSH2 0x198 SWAP7 SWAP6 SWAP5 SWAP4 SWAP3 SWAP2 SWAP1 PUSH2 0x1439 JUMP JUMPDEST PUSH1 0x40 MLOAD DUP1 SWAP2 SUB SWAP1 RETURN JUMPDEST PUSH2 0x1BB PUSH1 0x4 DUP1 CALLDATASIZE SUB DUP2 ADD SWAP1 PUSH2 0x1B6 SWAP2 SWAP1 PUSH2 0xFE5 JUMP JUMPDEST PUSH2 0x976 JUMP JUMPDEST PUSH1 0x40 MLOAD PUSH2 0x1C8 SWAP2 SWAP1 PUSH2 0x141E JUMP JUMPDEST PUSH1 0x40 MLOAD DUP1 SWAP2 SUB SWAP1 RETURN JUMPDEST PUSH2 0x1EB PUSH1 0x4 DUP1 CALLDATASIZE SUB DUP2 ADD SWAP1 PUSH2 0x1E6 SWAP2 SWAP1 PUSH2 0xFE5 JUMP JUMPDEST PUSH2 0x9A2 JUMP JUMPDEST PUSH1 0x40 MLOAD PUSH2 0x1F8 SWAP2 SWAP1 PUSH2 0x141E JUMP JUMPDEST PUSH1 0x40 MLOAD DUP1 SWAP2 SUB SWAP1 RETURN JUMPDEST PUSH1 0x0 PUSH1 0x40 MLOAD DUP1 PUSH1 0xC0 ADD PUSH1 0x40 MSTORE DUP1 DUP8 DUP2 MSTORE PUSH1 0x20 ADD DUP7 PUSH20 0xFFFFFFFFFFFFFFFFFFFFFFFFFFFFFFFFFFFFFFFF AND DUP2 MSTORE PUSH1 0x20 ADD PUSH1 0x0 ISZERO ISZERO DUP2 MSTORE PUSH1 0x20 ADD DUP6 PUSH1 0x3 DUP2 GT ISZERO PUSH2 0x272 JUMPI PUSH32 0x4E487B7100000000000000000000000000000000000000000000000000000000 PUSH1 0x0 MSTORE PUSH1 0x21 PUSH1 0x4 MSTORE PUSH1 0x24 PUSH1 0x0 REVERT JUMPDEST DUP2 MSTORE PUSH1 0x20 ADD DUP5 DUP2 MSTORE PUSH1 0x20 ADD DUP4 DUP2 MSTORE POP SWAP1 POP DUP1 PUSH1 0x0 DUP1 DUP10 DUP2 MSTORE PUSH1 0x20 ADD SWAP1 DUP2 MSTORE PUSH1 0x20 ADD PUSH1 0x0 KECCAK256 PUSH1 0x0 DUP3 ADD MLOAD DUP2 PUSH1 0x0 ADD SWAP1 DUP1 MLOAD SWAP1 PUSH1 0x20 ADD SWAP1 PUSH2 0x2B2 SWAP3 SWAP2 SWAP1 PUSH2 0xD2B JUMP JUMPDEST POP PUSH1 0x20 DUP3 ADD MLOAD DUP2 PUSH1 0x1 ADD PUSH1 0x0 PUSH2 0x100 EXP DUP2 SLOAD DUP2 PUSH20 0xFFFFFFFFFFFFFFFFFFFFFFFFFFFFFFFFFFFFFFFF MUL NOT AND SWAP1 DUP4 PUSH20 0xFFFFFFFFFFFFFFFFFFFFFFFFFFFFFFFFFFFFFFFF AND MUL OR SWAP1 SSTORE POP PUSH1 0x40 DUP3 ADD MLOAD DUP2 PUSH1 0x1 ADD PUSH1 0x14 PUSH2 0x100 EXP DUP2 SLOAD DUP2 PUSH1 0xFF MUL NOT AND SWAP1 DUP4 ISZERO ISZERO MUL OR SWAP1 SSTORE POP PUSH1 0x60 DUP3 ADD MLOAD DUP2 PUSH1 0x1 ADD PUSH1 0x15 PUSH2 0x100 EXP DUP2 SLOAD DUP2 PUSH1 0xFF MUL NOT AND SWAP1 DUP4 PUSH1 0x3 DUP2 GT ISZERO PUSH2 0x36B JUMPI PUSH32 0x4E487B7100000000000000000000000000000000000000000000000000000000 PUSH1 0x0 MSTORE PUSH1 0x21 PUSH1 0x4 MSTORE PUSH1 0x24 PUSH1 0x0 REVERT JUMPDEST MUL OR SWAP1 SSTORE POP PUSH1 0x80 DUP3 ADD MLOAD DUP2 PUSH1 0x2 ADD SWAP1 DUP1 MLOAD SWAP1 PUSH1 0x20 ADD SWAP1 PUSH2 0x38C SWAP3 SWAP2 SWAP1 PUSH2 0xDB1 JUMP JUMPDEST POP PUSH1 0xA0 DUP3 ADD MLOAD DUP2 PUSH1 0x3 ADD SWAP1 DUP1 MLOAD SWAP1 PUSH1 0x20 ADD SWAP1 PUSH2 0x3A9 SWAP3 SWAP2 SWAP1 PUSH2 0xDB1 JUMP JUMPDEST POP SWAP1 POP POP POP POP POP POP POP POP POP JUMP JUMPDEST PUSH1 0x60 PUSH1 0x2 DUP1 SLOAD DUP1 PUSH1 0x20 MUL PUSH1 0x20 ADD PUSH1 0x40 MLOAD SWAP1 DUP2 ADD PUSH1 0x40 MSTORE DUP1 SWAP3 SWAP2 SWAP1 DUP2 DUP2 MSTORE PUSH1 0x20 ADD PUSH1 0x0 SWAP1 JUMPDEST DUP3 DUP3 LT ISZERO PUSH2 0x486 JUMPI DUP4 DUP3 SWAP1 PUSH1 0x0 MSTORE PUSH1 0x20 PUSH1 0x0 KECCAK256 ADD DUP1 SLOAD PUSH2 0x3F9 SWAP1 PUSH2 0x16FE JUMP JUMPDEST DUP1 PUSH1 0x1F ADD PUSH1 0x20 DUP1 SWAP2 DIV MUL PUSH1 0x20 ADD PUSH1 0x40 MLOAD SWAP1 DUP2 ADD PUSH1 0x40 MSTORE DUP1 SWAP3 SWAP2 SWAP1 DUP2 DUP2 MSTORE PUSH1 0x20 ADD DUP3 DUP1 SLOAD PUSH2 0x425 SWAP1 PUSH2 0x16FE JUMP JUMPDEST DUP1 ISZERO PUSH2 0x472 JUMPI DUP1 PUSH1 0x1F LT PUSH2 0x447 JUMPI PUSH2 0x100 DUP1 DUP4 SLOAD DIV MUL DUP4 MSTORE SWAP2 PUSH1 0x20 ADD SWAP2 PUSH2 0x472 JUMP JUMPDEST DUP3 ADD SWAP2 SWAP1 PUSH1 0x0 MSTORE PUSH1 0x20 PUSH1 0x0 KECCAK256 SWAP1 JUMPDEST DUP2 SLOAD DUP2 MSTORE SWAP1 PUSH1 0x1 ADD SWAP1 PUSH1 0x20 ADD DUP1 DUP4 GT PUSH2 0x455 JUMPI DUP3 SWAP1 SUB PUSH1 0x1F AND DUP3 ADD SWAP2 JUMPDEST POP POP POP POP POP DUP2 MSTORE PUSH1 0x20 ADD SWAP1 PUSH1 0x1 ADD SWAP1 PUSH2 0x3DA JUMP JUMPDEST POP POP POP POP SWAP1 POP SWAP1 JUMP JUMPDEST PUSH1 0x2 DUP2 DUP2 SLOAD DUP2 LT PUSH2 0x49F JUMPI PUSH1 0x0 DUP1 REVERT JUMPDEST SWAP1 PUSH1 0x0 MSTORE PUSH1 0x20 PUSH1 0x0 KECCAK256 ADD PUSH1 0x0 SWAP2 POP SWAP1 POP DUP1 SLOAD PUSH2 0x4BA SWAP1 PUSH2 0x16FE JUMP JUMPDEST DUP1 PUSH1 0x1F ADD PUSH1 0x20 DUP1 SWAP2 DIV MUL PUSH1 0x20 ADD PUSH1 0x40 MLOAD SWAP1 DUP2 ADD PUSH1 0x40 MSTORE DUP1 SWAP3 SWAP2 SWAP1 DUP2 DUP2 MSTORE PUSH1 0x20 ADD DUP3 DUP1 SLOAD PUSH2 0x4E6 SWAP1 PUSH2 0x16FE JUMP JUMPDEST DUP1 ISZERO PUSH2 0x533 JUMPI DUP1 PUSH1 0x1F LT PUSH2 0x508 JUMPI PUSH2 0x100 DUP1 DUP4 SLOAD DIV MUL DUP4 MSTORE SWAP2 PUSH1 0x20 ADD SWAP2 PUSH2 0x533 JUMP JUMPDEST DUP3 ADD SWAP2 SWAP1 PUSH1 0x0 MSTORE PUSH1 0x20 PUSH1 0x0 KECCAK256 SWAP1 JUMPDEST DUP2 SLOAD DUP2 MSTORE SWAP1 PUSH1 0x1 ADD SWAP1 PUSH1 0x20 ADD DUP1 DUP4 GT PUSH2 0x516 JUMPI DUP3 SWAP1 SUB PUSH1 0x1F AND DUP3 ADD SWAP2 JUMPDEST POP POP POP POP POP DUP2 JUMP JUMPDEST PUSH1 0x0 PUSH1 0x40 MLOAD DUP1 PUSH1 0xC0 ADD PUSH1 0x40 MSTORE DUP1 DUP7 DUP2 MSTORE PUSH1 0x20 ADD PUSH1 0x0 PUSH20 0xFFFFFFFFFFFFFFFFFFFFFFFFFFFFFFFFFFFFFFFF AND DUP2 MSTORE PUSH1 0x20 ADD PUSH1 0x0 ISZERO ISZERO DUP2 MSTORE PUSH1 0x20 ADD DUP6 PUSH1 0x3 DUP2 GT ISZERO PUSH2 0x5AD JUMPI PUSH32 0x4E487B7100000000000000000000000000000000000000000000000000000000 PUSH1 0x0 MSTORE PUSH1 0x21 PUSH1 0x4 MSTORE PUSH1 0x24 PUSH1 0x0 REVERT JUMPDEST DUP2 MSTORE PUSH1 0x20 ADD DUP5 DUP2 MSTORE PUSH1 0x20 ADD DUP4 DUP2 MSTORE POP SWAP1 POP DUP1 PUSH1 0x0 DUP1 DUP9 DUP2 MSTORE PUSH1 0x20 ADD SWAP1 DUP2 MSTORE PUSH1 0x20 ADD PUSH1 0x0 KECCAK256 PUSH1 0x0 DUP3 ADD MLOAD DUP2 PUSH1 0x0 ADD SWAP1 DUP1 MLOAD SWAP1 PUSH1 0x20 ADD SWAP1 PUSH2 0x5ED SWAP3 SWAP2 SWAP1 PUSH2 0xD2B JUMP JUMPDEST POP PUSH1 0x20 DUP3 ADD MLOAD DUP2 PUSH1 0x1 ADD PUSH1 0x0 PUSH2 0x100 EXP DUP2 SLOAD DUP2 PUSH20 0xFFFFFFFFFFFFFFFFFFFFFFFFFFFFFFFFFFFFFFFF MUL NOT AND SWAP1 DUP4 PUSH20 0xFFFFFFFFFFFFFFFFFFFFFFFFFFFFFFFFFFFFFFFF AND MUL OR SWAP1 SSTORE POP PUSH1 0x40 DUP3 ADD MLOAD DUP2 PUSH1 0x1 ADD PUSH1 0x14 PUSH2 0x100 EXP DUP2 SLOAD DUP2 PUSH1 0xFF MUL NOT AND SWAP1 DUP4 ISZERO ISZERO MUL OR SWAP1 SSTORE POP PUSH1 0x60 DUP3 ADD MLOAD DUP2 PUSH1 0x1 ADD PUSH1 0x15 PUSH2 0x100 EXP DUP2 SLOAD DUP2 PUSH1 0xFF MUL NOT AND SWAP1 DUP4 PUSH1 0x3 DUP2 GT ISZERO PUSH2 0x6A6 JUMPI PUSH32 0x4E487B7100000000000000000000000000000000000000000000000000000000 PUSH1 0x0 MSTORE PUSH1 0x21 PUSH1 0x4 MSTORE PUSH1 0x24 PUSH1 0x0 REVERT JUMPDEST MUL OR SWAP1 SSTORE POP PUSH1 0x80 DUP3 ADD MLOAD DUP2 PUSH1 0x2 ADD SWAP1 DUP1 MLOAD SWAP1 PUSH1 0x20 ADD SWAP1 PUSH2 0x6C7 SWAP3 SWAP2 SWAP1 PUSH2 0xDB1 JUMP JUMPDEST POP PUSH1 0xA0 DUP3 ADD MLOAD DUP2 PUSH1 0x3 ADD SWAP1 DUP1 MLOAD SWAP1 PUSH1 0x20 ADD SWAP1 PUSH2 0x6E4 SWAP3 SWAP2 SWAP1 PUSH2 0xDB1 JUMP JUMPDEST POP SWAP1 POP POP POP POP POP POP POP POP JUMP JUMPDEST PUSH1 0x60 PUSH1 0x1 DUP1 SLOAD DUP1 PUSH1 0x20 MUL PUSH1 0x20 ADD PUSH1 0x40 MLOAD SWAP1 DUP2 ADD PUSH1 0x40 MSTORE DUP1 SWAP3 SWAP2 SWAP1 DUP2 DUP2 MSTORE PUSH1 0x20 ADD DUP3 DUP1 SLOAD DUP1 ISZERO PUSH2 0x73E JUMPI PUSH1 0x20 MUL DUP3 ADD SWAP2 SWAP1 PUSH1 0x0 MSTORE PUSH1 0x20 PUSH1 0x0 KECCAK256 SWAP1 JUMPDEST DUP2 SLOAD DUP2 MSTORE PUSH1 0x20 ADD SWAP1 PUSH1 0x1 ADD SWAP1 DUP1 DUP4 GT PUSH2 0x72A JUMPI JUMPDEST POP POP POP POP POP SWAP1 POP SWAP1 JUMP JUMPDEST PUSH1 0x1 DUP2 DUP2 SLOAD DUP2 LT PUSH2 0x758 JUMPI PUSH1 0x0 DUP1 REVERT JUMPDEST SWAP1 PUSH1 0x0 MSTORE PUSH1 0x20 PUSH1 0x0 KECCAK256 ADD PUSH1 0x0 SWAP2 POP SWAP1 POP SLOAD DUP2 JUMP JUMPDEST PUSH1 0x0 PUSH1 0x60 PUSH1 0x0 DUP1 PUSH1 0x60 DUP1 PUSH1 0x0 DUP1 DUP9 DUP2 MSTORE PUSH1 0x20 ADD SWAP1 DUP2 MSTORE PUSH1 0x20 ADD PUSH1 0x0 KECCAK256 PUSH1 0x1 ADD PUSH1 0x14 SWAP1 SLOAD SWAP1 PUSH2 0x100 EXP SWAP1 DIV PUSH1 0xFF AND PUSH1 0x0 DUP1 DUP10 DUP2 MSTORE PUSH1 0x20 ADD SWAP1 DUP2 MSTORE PUSH1 0x20 ADD PUSH1 0x0 KECCAK256 PUSH1 0x0 ADD PUSH1 0x0 DUP1 DUP11 DUP2 MSTORE PUSH1 0x20 ADD SWAP1 DUP2 MSTORE PUSH1 0x20 ADD PUSH1 0x0 KECCAK256 PUSH1 0x1 ADD PUSH1 0x0 SWAP1 SLOAD SWAP1 PUSH2 0x100 EXP SWAP1 DIV PUSH20 0xFFFFFFFFFFFFFFFFFFFFFFFFFFFFFFFFFFFFFFFF AND PUSH1 0x0 DUP1 DUP12 DUP2 MSTORE PUSH1 0x20 ADD SWAP1 DUP2 MSTORE PUSH1 0x20 ADD PUSH1 0x0 KECCAK256 PUSH1 0x1 ADD PUSH1 0x15 SWAP1 SLOAD SWAP1 PUSH2 0x100 EXP SWAP1 DIV PUSH1 0xFF AND PUSH1 0x0 DUP1 DUP13 DUP2 MSTORE PUSH1 0x20 ADD SWAP1 DUP2 MSTORE PUSH1 0x20 ADD PUSH1 0x0 KECCAK256 PUSH1 0x2 ADD PUSH1 0x0 DUP1 DUP14 DUP2 MSTORE PUSH1 0x20 ADD SWAP1 DUP2 MSTORE PUSH1 0x20 ADD PUSH1 0x0 KECCAK256 PUSH1 0x3 ADD DUP5 DUP1 SLOAD PUSH2 0x83D SWAP1 PUSH2 0x16FE JUMP JUMPDEST DUP1 PUSH1 0x1F ADD PUSH1 0x20 DUP1 SWAP2 DIV MUL PUSH1 0x20 ADD PUSH1 0x40 MLOAD SWAP1 DUP2 ADD PUSH1 0x40 MSTORE DUP1 SWAP3 SWAP2 SWAP1 DUP2 DUP2 MSTORE PUSH1 0x20 ADD DUP3 DUP1 SLOAD PUSH2 0x869 SWAP1 PUSH2 0x16FE JUMP JUMPDEST DUP1 ISZERO PUSH2 0x8B6 JUMPI DUP1 PUSH1 0x1F LT PUSH2 0x88B JUMPI PUSH2 0x100 DUP1 DUP4 SLOAD DIV MUL DUP4 MSTORE SWAP2 PUSH1 0x20 ADD SWAP2 PUSH2 0x8B6 JUMP JUMPDEST DUP3 ADD SWAP2 SWAP1 PUSH1 0x0 MSTORE PUSH1 0x20 PUSH1 0x0 KECCAK256 SWAP1 JUMPDEST DUP2 SLOAD DUP2 MSTORE SWAP1 PUSH1 0x1 ADD SWAP1 PUSH1 0x20 ADD DUP1 DUP4 GT PUSH2 0x899 JUMPI DUP3 SWAP1 SUB PUSH1 0x1F AND DUP3 ADD SWAP2 JUMPDEST POP POP POP POP POP SWAP5 POP DUP2 DUP1 SLOAD DUP1 PUSH1 0x20 MUL PUSH1 0x20 ADD PUSH1 0x40 MLOAD SWAP1 DUP2 ADD PUSH1 0x40 MSTORE DUP1 SWAP3 SWAP2 SWAP1 DUP2 DUP2 MSTORE PUSH1 0x20 ADD DUP3 DUP1 SLOAD DUP1 ISZERO PUSH2 0x908 JUMPI PUSH1 0x20 MUL DUP3 ADD SWAP2 SWAP1 PUSH1 0x0 MSTORE PUSH1 0x20 PUSH1 0x0 KECCAK256 SWAP1 JUMPDEST DUP2 SLOAD DUP2 MSTORE PUSH1 0x20 ADD SWAP1 PUSH1 0x1 ADD SWAP1 DUP1 DUP4 GT PUSH2 0x8F4 JUMPI JUMPDEST POP POP POP POP POP SWAP2 POP DUP1 DUP1 SLOAD DUP1 PUSH1 0x20 MUL PUSH1 0x20 ADD PUSH1 0x40 MLOAD SWAP1 DUP2 ADD PUSH1 0x40 MSTORE DUP1 SWAP3 SWAP2 SWAP1 DUP2 DUP2 MSTORE PUSH1 0x20 ADD DUP3 DUP1 SLOAD DUP1 ISZERO PUSH2 0x95A JUMPI PUSH1 0x20 MUL DUP3 ADD SWAP2 SWAP1 PUSH1 0x0 MSTORE PUSH1 0x20 PUSH1 0x0 KECCAK256 SWAP1 JUMPDEST DUP2 SLOAD DUP2 MSTORE PUSH1 0x20 ADD SWAP1 PUSH1 0x1 ADD SWAP1 DUP1 DUP4 GT PUSH2 0x946 JUMPI JUMPDEST POP POP POP POP POP SWAP1 POP SWAP6 POP SWAP6 POP SWAP6 POP SWAP6 POP SWAP6 POP SWAP6 POP SWAP2 SWAP4 SWAP6 POP SWAP2 SWAP4 SWAP6 JUMP JUMPDEST PUSH1 0x0 DUP1 PUSH1 0x0 DUP4 DUP2 MSTORE PUSH1 0x20 ADD SWAP1 DUP2 MSTORE PUSH1 0x20 ADD PUSH1 0x0 KECCAK256 PUSH1 0x1 ADD PUSH1 0x14 SWAP1 SLOAD SWAP1 PUSH2 0x100 EXP SWAP1 DIV PUSH1 0xFF AND SWAP1 POP SWAP2 SWAP1 POP JUMP JUMPDEST PUSH1 0x0 DUP1 PUSH1 0x0 DUP1 DUP5 DUP2 MSTORE PUSH1 0x20 ADD SWAP1 DUP2 MSTORE PUSH1 0x20 ADD PUSH1 0x0 KECCAK256 PUSH1 0x1 ADD PUSH1 0x0 SWAP1 SLOAD SWAP1 PUSH2 0x100 EXP SWAP1 DIV PUSH20 0xFFFFFFFFFFFFFFFFFFFFFFFFFFFFFFFFFFFFFFFF AND SWAP1 POP PUSH1 0x0 PUSH20 0xFFFFFFFFFFFFFFFFFFFFFFFFFFFFFFFFFFFFFFFF AND DUP2 PUSH20 0xFFFFFFFFFFFFFFFFFFFFFFFFFFFFFFFFFFFFFFFF AND EQ DUP1 PUSH2 0xA43 JUMPI POP CALLER PUSH20 0xFFFFFFFFFFFFFFFFFFFFFFFFFFFFFFFFFFFFFFFF AND DUP2 PUSH20 0xFFFFFFFFFFFFFFFFFFFFFFFFFFFFFFFFFFFFFFFF AND EQ JUMPDEST PUSH1 0x0 DUP1 DUP6 DUP2 MSTORE PUSH1 0x20 ADD SWAP1 DUP2 MSTORE PUSH1 0x20 ADD PUSH1 0x0 KECCAK256 PUSH1 0x0 ADD SWAP1 PUSH2 0xA99 JUMPI PUSH1 0x40 MLOAD PUSH32 0x8C379A000000000000000000000000000000000000000000000000000000000 DUP2 MSTORE PUSH1 0x4 ADD PUSH2 0xA90 SWAP2 SWAP1 PUSH2 0x14D1 JUMP JUMPDEST PUSH1 0x40 MLOAD DUP1 SWAP2 SUB SWAP1 REVERT JUMPDEST POP PUSH1 0x0 DUP1 PUSH1 0x0 DUP6 DUP2 MSTORE PUSH1 0x20 ADD SWAP1 DUP2 MSTORE PUSH1 0x20 ADD PUSH1 0x0 KECCAK256 PUSH1 0x2 ADD DUP1 SLOAD DUP1 PUSH1 0x20 MUL PUSH1 0x20 ADD PUSH1 0x40 MLOAD SWAP1 DUP2 ADD PUSH1 0x40 MSTORE DUP1 SWAP3 SWAP2 SWAP1 DUP2 DUP2 MSTORE PUSH1 0x20 ADD DUP3 DUP1 SLOAD DUP1 ISZERO PUSH2 0xAFB JUMPI PUSH1 0x20 MUL DUP3 ADD SWAP2 SWAP1 PUSH1 0x0 MSTORE PUSH1 0x20 PUSH1 0x0 KECCAK256 SWAP1 JUMPDEST DUP2 SLOAD DUP2 MSTORE PUSH1 0x20 ADD SWAP1 PUSH1 0x1 ADD SWAP1 DUP1 DUP4 GT PUSH2 0xAE7 JUMPI JUMPDEST POP POP POP POP POP SWAP1 POP PUSH1 0x0 DUP2 MLOAD EQ ISZERO PUSH2 0xB15 JUMPI PUSH1 0x1 SWAP3 POP PUSH2 0xC0D JUMP JUMPDEST PUSH1 0x0 PUSH1 0x3 DUP2 GT ISZERO PUSH2 0xB4F JUMPI PUSH32 0x4E487B7100000000000000000000000000000000000000000000000000000000 PUSH1 0x0 MSTORE PUSH1 0x21 PUSH1 0x4 MSTORE PUSH1 0x24 PUSH1 0x0 REVERT JUMPDEST PUSH1 0x0 DUP1 DUP7 DUP2 MSTORE PUSH1 0x20 ADD SWAP1 DUP2 MSTORE PUSH1 0x20 ADD PUSH1 0x0 KECCAK256 PUSH1 0x1 ADD PUSH1 0x15 SWAP1 SLOAD SWAP1 PUSH2 0x100 EXP SWAP1 DIV PUSH1 0xFF AND PUSH1 0x3 DUP2 GT ISZERO PUSH2 0xBAA JUMPI PUSH32 0x4E487B7100000000000000000000000000000000000000000000000000000000 PUSH1 0x0 MSTORE PUSH1 0x21 PUSH1 0x4 MSTORE PUSH1 0x24 PUSH1 0x0 REVERT JUMPDEST EQ ISZERO PUSH2 0xC0C JUMPI PUSH1 0x1 ISZERO ISZERO PUSH2 0xBFE DUP3 PUSH1 0x0 DUP2 MLOAD DUP2 LT PUSH2 0xBF1 JUMPI PUSH32 0x4E487B7100000000000000000000000000000000000000000000000000000000 PUSH1 0x0 MSTORE PUSH1 0x32 PUSH1 0x4 MSTORE PUSH1 0x24 PUSH1 0x0 REVERT JUMPDEST PUSH1 0x20 MUL PUSH1 0x20 ADD ADD MLOAD PUSH2 0x976 JUMP JUMPDEST ISZERO ISZERO EQ ISZERO PUSH2 0xC0B JUMPI PUSH1 0x1 SWAP3 POP JUMPDEST JUMPDEST JUMPDEST DUP3 ISZERO PUSH2 0xCF3 JUMPI PUSH1 0x1 PUSH1 0x0 DUP1 DUP7 DUP2 MSTORE PUSH1 0x20 ADD SWAP1 DUP2 MSTORE PUSH1 0x20 ADD PUSH1 0x0 KECCAK256 PUSH1 0x1 ADD PUSH1 0x14 PUSH2 0x100 EXP DUP2 SLOAD DUP2 PUSH1 0xFF MUL NOT AND SWAP1 DUP4 ISZERO ISZERO MUL OR SWAP1 SSTORE POP PUSH1 0x1 DUP5 SWAP1 DUP1 PUSH1 0x1 DUP2 SLOAD ADD DUP1 DUP3 SSTORE DUP1 SWAP2 POP POP PUSH1 0x1 SWAP1 SUB SWAP1 PUSH1 0x0 MSTORE PUSH1 0x20 PUSH1 0x0 KECCAK256 ADD PUSH1 0x0 SWAP1 SWAP2 SWAP1 SWAP2 SWAP1 SWAP2 POP SSTORE PUSH1 0x2 PUSH1 0x0 DUP1 DUP7 DUP2 MSTORE PUSH1 0x20 ADD SWAP1 DUP2 MSTORE PUSH1 0x20 ADD PUSH1 0x0 KECCAK256 PUSH1 0x0 ADD SWAP1 DUP1 PUSH1 0x1 DUP2 SLOAD ADD DUP1 DUP3 SSTORE DUP1 SWAP2 POP POP PUSH1 0x1 SWAP1 SUB SWAP1 PUSH1 0x0 MSTORE PUSH1 0x20 PUSH1 0x0 KECCAK256 ADD PUSH1 0x0 SWAP1 SWAP2 SWAP1 SWAP2 SWAP1 SWAP2 POP SWAP1 DUP1 SLOAD PUSH2 0xCB2 SWAP1 PUSH2 0x16FE JUMP JUMPDEST PUSH2 0xCBD SWAP3 SWAP2 SWAP1 PUSH2 0xDFE JUMP JUMPDEST POP PUSH1 0x1 ISZERO ISZERO PUSH32 0xACD30B4F9FD5868793E13FFB506F03374A23D9FEBA1249AC2CC7B0FE024FF4BA PUSH1 0x40 MLOAD PUSH1 0x40 MLOAD DUP1 SWAP2 SUB SWAP1 LOG2 PUSH2 0xD24 JUMP JUMPDEST PUSH1 0x0 ISZERO ISZERO PUSH32 0xACD30B4F9FD5868793E13FFB506F03374A23D9FEBA1249AC2CC7B0FE024FF4BA PUSH1 0x40 MLOAD PUSH1 0x40 MLOAD DUP1 SWAP2 SUB SWAP1 LOG2 JUMPDEST POP POP SWAP2 SWAP1 POP JUMP JUMPDEST DUP3 DUP1 SLOAD PUSH2 0xD37 SWAP1 PUSH2 0x16FE JUMP JUMPDEST SWAP1 PUSH1 0x0 MSTORE PUSH1 0x20 PUSH1 0x0 KECCAK256 SWAP1 PUSH1 0x1F ADD PUSH1 0x20 SWAP1 DIV DUP2 ADD SWAP3 DUP3 PUSH2 0xD59 JUMPI PUSH1 0x0 DUP6 SSTORE PUSH2 0xDA0 JUMP JUMPDEST DUP3 PUSH1 0x1F LT PUSH2 0xD72 JUMPI DUP1 MLOAD PUSH1 0xFF NOT AND DUP4 DUP1 ADD OR DUP6 SSTORE PUSH2 0xDA0 JUMP JUMPDEST DUP3 DUP1 ADD PUSH1 0x1 ADD DUP6 SSTORE DUP3 ISZERO PUSH2 0xDA0 JUMPI SWAP2 DUP3 ADD JUMPDEST DUP3 DUP2 GT ISZERO PUSH2 0xD9F JUMPI DUP3 MLOAD DUP3 SSTORE SWAP2 PUSH1 0x20 ADD SWAP2 SWAP1 PUSH1 0x1 ADD SWAP1 PUSH2 0xD84 JUMP JUMPDEST JUMPDEST POP SWAP1 POP PUSH2 0xDAD SWAP2 SWAP1 PUSH2 0xE8B JUMP JUMPDEST POP SWAP1 JUMP JUMPDEST DUP3 DUP1 SLOAD DUP3 DUP3 SSTORE SWAP1 PUSH1 0x0 MSTORE PUSH1 0x20 PUSH1 0x0 KECCAK256 SWAP1 DUP2 ADD SWAP3 DUP3 ISZERO PUSH2 0xDED JUMPI SWAP2 PUSH1 0x20 MUL DUP3 ADD JUMPDEST DUP3 DUP2 GT ISZERO PUSH2 0xDEC JUMPI DUP3 MLOAD DUP3 SSTORE SWAP2 PUSH1 0x20 ADD SWAP2 SWAP1 PUSH1 0x1 ADD SWAP1 PUSH2 0xDD1 JUMP JUMPDEST JUMPDEST POP SWAP1 POP PUSH2 0xDFA SWAP2 SWAP1 PUSH2 0xE8B JUMP JUMPDEST POP SWAP1 JUMP JUMPDEST DUP3 DUP1 SLOAD PUSH2 0xE0A SWAP1 PUSH2 0x16FE JUMP JUMPDEST SWAP1 PUSH1 0x0 MSTORE PUSH1 0x20 PUSH1 0x0 KECCAK256 SWAP1 PUSH1 0x1F ADD PUSH1 0x20 SWAP1 DIV DUP2 ADD SWAP3 DUP3 PUSH2 0xE2C JUMPI PUSH1 0x0 DUP6 SSTORE PUSH2 0xE7A JUMP JUMPDEST DUP3 PUSH1 0x1F LT PUSH2 0xE3D JUMPI DUP1 SLOAD DUP6 SSTORE PUSH2 0xE7A JUMP JUMPDEST DUP3 DUP1 ADD PUSH1 0x1 ADD DUP6 SSTORE DUP3 ISZERO PUSH2 0xE7A JUMPI PUSH1 0x0 MSTORE PUSH1 0x20 PUSH1 0x0 KECCAK256 SWAP2 PUSH1 0x1F ADD PUSH1 0x20 SWAP1 DIV DUP3 ADD JUMPDEST DUP3 DUP2 GT ISZERO PUSH2 0xE79 JUMPI DUP3 SLOAD DUP3 SSTORE SWAP2 PUSH1 0x1 ADD SWAP2 SWAP1 PUSH1 0x1 ADD SWAP1 PUSH2 0xE5E JUMP JUMPDEST JUMPDEST POP SWAP1 POP PUSH2 0xE87 SWAP2 SWAP1 PUSH2 0xE8B JUMP JUMPDEST POP SWAP1 JUMP JUMPDEST JUMPDEST DUP1 DUP3 GT ISZERO PUSH2 0xEA4 JUMPI PUSH1 0x0 DUP2 PUSH1 0x0 SWAP1 SSTORE POP PUSH1 0x1 ADD PUSH2 0xE8C JUMP JUMPDEST POP SWAP1 JUMP JUMPDEST PUSH1 0x0 PUSH2 0xEBB PUSH2 0xEB6 DUP5 PUSH2 0x153F JUMP JUMPDEST PUSH2 0x150E JUMP JUMPDEST SWAP1 POP DUP1 DUP4 DUP3 MSTORE PUSH1 0x20 DUP3 ADD SWAP1 POP DUP3 DUP6 PUSH1 0x20 DUP7 MUL DUP3 ADD GT ISZERO PUSH2 0xEDA JUMPI PUSH1 0x0 DUP1 REVERT JUMPDEST PUSH1 0x0 JUMPDEST DUP6 DUP2 LT ISZERO PUSH2 0xF0A JUMPI DUP2 PUSH2 0xEF0 DUP9 DUP3 PUSH2 0xFD0 JUMP JUMPDEST DUP5 MSTORE PUSH1 0x20 DUP5 ADD SWAP4 POP PUSH1 0x20 DUP4 ADD SWAP3 POP POP PUSH1 0x1 DUP2 ADD SWAP1 POP PUSH2 0xEDD JUMP JUMPDEST POP POP POP SWAP4 SWAP3 POP POP POP JUMP JUMPDEST PUSH1 0x0 PUSH2 0xF27 PUSH2 0xF22 DUP5 PUSH2 0x156B JUMP JUMPDEST PUSH2 0x150E JUMP JUMPDEST SWAP1 POP DUP3 DUP2 MSTORE PUSH1 0x20 DUP2 ADD DUP5 DUP5 DUP5 ADD GT ISZERO PUSH2 0xF3F JUMPI PUSH1 0x0 DUP1 REVERT JUMPDEST PUSH2 0xF4A DUP5 DUP3 DUP6 PUSH2 0x16BC JUMP JUMPDEST POP SWAP4 SWAP3 POP POP POP JUMP JUMPDEST PUSH1 0x0 DUP2 CALLDATALOAD SWAP1 POP PUSH2 0xF61 DUP2 PUSH2 0x17E2 JUMP JUMPDEST SWAP3 SWAP2 POP POP JUMP JUMPDEST PUSH1 0x0 DUP3 PUSH1 0x1F DUP4 ADD SLT PUSH2 0xF78 JUMPI PUSH1 0x0 DUP1 REVERT JUMPDEST DUP2 CALLDATALOAD PUSH2 0xF88 DUP5 DUP3 PUSH1 0x20 DUP7 ADD PUSH2 0xEA8 JUMP JUMPDEST SWAP2 POP POP SWAP3 SWAP2 POP POP JUMP JUMPDEST PUSH1 0x0 DUP2 CALLDATALOAD SWAP1 POP PUSH2 0xFA0 DUP2 PUSH2 0x17F9 JUMP JUMPDEST SWAP3 SWAP2 POP POP JUMP JUMPDEST PUSH1 0x0 DUP3 PUSH1 0x1F DUP4 ADD SLT PUSH2 0xFB7 JUMPI PUSH1 0x0 DUP1 REVERT JUMPDEST DUP2 CALLDATALOAD PUSH2 0xFC7 DUP5 DUP3 PUSH1 0x20 DUP7 ADD PUSH2 0xF14 JUMP JUMPDEST SWAP2 POP POP SWAP3 SWAP2 POP POP JUMP JUMPDEST PUSH1 0x0 DUP2 CALLDATALOAD SWAP1 POP PUSH2 0xFDF DUP2 PUSH2 0x1809 JUMP JUMPDEST SWAP3 SWAP2 POP POP JUMP JUMPDEST PUSH1 0x0 PUSH1 0x20 DUP3 DUP5 SUB SLT ISZERO PUSH2 0xFF7 JUMPI PUSH1 0x0 DUP1 REVERT JUMPDEST PUSH1 0x0 PUSH2 0x1005 DUP5 DUP3 DUP6 ADD PUSH2 0xFD0 JUMP JUMPDEST SWAP2 POP POP SWAP3 SWAP2 POP POP JUMP JUMPDEST PUSH1 0x0 DUP1 PUSH1 0x0 DUP1 PUSH1 0x0 DUP1 PUSH1 0xC0 DUP8 DUP10 SUB SLT ISZERO PUSH2 0x1027 JUMPI PUSH1 0x0 DUP1 REVERT JUMPDEST PUSH1 0x0 PUSH2 0x1035 DUP10 DUP3 DUP11 ADD PUSH2 0xFD0 JUMP JUMPDEST SWAP7 POP POP PUSH1 0x20 DUP8 ADD CALLDATALOAD PUSH8 0xFFFFFFFFFFFFFFFF DUP2 GT ISZERO PUSH2 0x1052 JUMPI PUSH1 0x0 DUP1 REVERT JUMPDEST PUSH2 0x105E DUP10 DUP3 DUP11 ADD PUSH2 0xFA6 JUMP JUMPDEST SWAP6 POP POP PUSH1 0x40 PUSH2 0x106F DUP10 DUP3 DUP11 ADD PUSH2 0xF52 JUMP JUMPDEST SWAP5 POP POP PUSH1 0x60 PUSH2 0x1080 DUP10 DUP3 DUP11 ADD PUSH2 0xF91 JUMP JUMPDEST SWAP4 POP POP PUSH1 0x80 DUP8 ADD CALLDATALOAD PUSH8 0xFFFFFFFFFFFFFFFF DUP2 GT ISZERO PUSH2 0x109D JUMPI PUSH1 0x0 DUP1 REVERT JUMPDEST PUSH2 0x10A9 DUP10 DUP3 DUP11 ADD PUSH2 0xF67 JUMP JUMPDEST SWAP3 POP POP PUSH1 0xA0 DUP8 ADD CALLDATALOAD PUSH8 0xFFFFFFFFFFFFFFFF DUP2 GT ISZERO PUSH2 0x10C6 JUMPI PUSH1 0x0 DUP1 REVERT JUMPDEST PUSH2 0x10D2 DUP10 DUP3 DUP11 ADD PUSH2 0xF67 JUMP JUMPDEST SWAP2 POP POP SWAP3 SWAP6 POP SWAP3 SWAP6 POP SWAP3 SWAP6 JUMP JUMPDEST PUSH1 0x0 DUP1 PUSH1 0x0 DUP1 PUSH1 0x0 PUSH1 0xA0 DUP7 DUP9 SUB SLT ISZERO PUSH2 0x10F7 JUMPI PUSH1 0x0 DUP1 REVERT JUMPDEST PUSH1 0x0 PUSH2 0x1105 DUP9 DUP3 DUP10 ADD PUSH2 0xFD0 JUMP JUMPDEST SWAP6 POP POP PUSH1 0x20 DUP7 ADD CALLDATALOAD PUSH8 0xFFFFFFFFFFFFFFFF DUP2 GT ISZERO PUSH2 0x1122 JUMPI PUSH1 0x0 DUP1 REVERT JUMPDEST PUSH2 0x112E DUP9 DUP3 DUP10 ADD PUSH2 0xFA6 JUMP JUMPDEST SWAP5 POP POP PUSH1 0x40 PUSH2 0x113F DUP9 DUP3 DUP10 ADD PUSH2 0xF91 JUMP JUMPDEST SWAP4 POP POP PUSH1 0x60 DUP7 ADD CALLDATALOAD PUSH8 0xFFFFFFFFFFFFFFFF DUP2 GT ISZERO PUSH2 0x115C JUMPI PUSH1 0x0 DUP1 REVERT JUMPDEST PUSH2 0x1168 DUP9 DUP3 DUP10 ADD PUSH2 0xF67 JUMP JUMPDEST SWAP3 POP POP PUSH1 0x80 DUP7 ADD CALLDATALOAD PUSH8 0xFFFFFFFFFFFFFFFF DUP2 GT ISZERO PUSH2 0x1185 JUMPI PUSH1 0x0 DUP1 REVERT JUMPDEST PUSH2 0x1191 DUP9 DUP3 DUP10 ADD PUSH2 0xF67 JUMP JUMPDEST SWAP2 POP POP SWAP3 SWAP6 POP SWAP3 SWAP6 SWAP1 SWAP4 POP JUMP JUMPDEST PUSH1 0x0 PUSH2 0x11AA DUP4 DUP4 PUSH2 0x12CA JUMP JUMPDEST SWAP1 POP SWAP3 SWAP2 POP POP JUMP JUMPDEST PUSH1 0x0 PUSH2 0x11BE DUP4 DUP4 PUSH2 0x13BC JUMP JUMPDEST PUSH1 0x20 DUP4 ADD SWAP1 POP SWAP3 SWAP2 POP POP JUMP JUMPDEST PUSH2 0x11D3 DUP2 PUSH2 0x164F JUMP JUMPDEST DUP3 MSTORE POP POP JUMP JUMPDEST PUSH1 0x0 PUSH2 0x11E4 DUP3 PUSH2 0x15D0 JUMP JUMPDEST PUSH2 0x11EE DUP2 DUP6 PUSH2 0x160B JUMP JUMPDEST SWAP4 POP DUP4 PUSH1 0x20 DUP3 MUL DUP6 ADD PUSH2 0x1200 DUP6 PUSH2 0x159B JUMP JUMPDEST DUP1 PUSH1 0x0 JUMPDEST DUP6 DUP2 LT ISZERO PUSH2 0x123C JUMPI DUP5 DUP5 SUB DUP10 MSTORE DUP2 MLOAD PUSH2 0x121D DUP6 DUP3 PUSH2 0x119E JUMP JUMPDEST SWAP5 POP PUSH2 0x1228 DUP4 PUSH2 0x15F1 JUMP JUMPDEST SWAP3 POP PUSH1 0x20 DUP11 ADD SWAP10 POP POP PUSH1 0x1 DUP2 ADD SWAP1 POP PUSH2 0x1204 JUMP JUMPDEST POP DUP3 SWAP8 POP DUP8 SWAP6 POP POP POP POP POP POP SWAP3 SWAP2 POP POP JUMP JUMPDEST PUSH1 0x0 PUSH2 0x1259 DUP3 PUSH2 0x15DB JUMP JUMPDEST PUSH2 0x1263 DUP2 DUP6 PUSH2 0x161C JUMP JUMPDEST SWAP4 POP PUSH2 0x126E DUP4 PUSH2 0x15AB JUMP JUMPDEST DUP1 PUSH1 0x0 JUMPDEST DUP4 DUP2 LT ISZERO PUSH2 0x129F JUMPI DUP2 MLOAD PUSH2 0x1286 DUP9 DUP3 PUSH2 0x11B2 JUMP JUMPDEST SWAP8 POP PUSH2 0x1291 DUP4 PUSH2 0x15FE JUMP JUMPDEST SWAP3 POP POP PUSH1 0x1 DUP2 ADD SWAP1 POP PUSH2 0x1272 JUMP JUMPDEST POP DUP6 SWAP4 POP POP POP POP SWAP3 SWAP2 POP POP JUMP JUMPDEST PUSH2 0x12B5 DUP2 PUSH2 0x1661 JUMP JUMPDEST DUP3 MSTORE POP POP JUMP JUMPDEST PUSH2 0x12C4 DUP2 PUSH2 0x16AA JUMP JUMPDEST DUP3 MSTORE POP POP JUMP JUMPDEST PUSH1 0x0 PUSH2 0x12D5 DUP3 PUSH2 0x15E6 JUMP JUMPDEST PUSH2 0x12DF DUP2 DUP6 PUSH2 0x162D JUMP JUMPDEST SWAP4 POP PUSH2 0x12EF DUP2 DUP6 PUSH1 0x20 DUP7 ADD PUSH2 0x16CB JUMP JUMPDEST PUSH2 0x12F8 DUP2 PUSH2 0x17BD JUMP JUMPDEST DUP5 ADD SWAP2 POP POP SWAP3 SWAP2 POP POP JUMP JUMPDEST PUSH1 0x0 PUSH2 0x130E DUP3 PUSH2 0x15E6 JUMP JUMPDEST PUSH2 0x1318 DUP2 DUP6 PUSH2 0x163E JUMP JUMPDEST SWAP4 POP PUSH2 0x1328 DUP2 DUP6 PUSH1 0x20 DUP7 ADD PUSH2 0x16CB JUMP JUMPDEST PUSH2 0x1331 DUP2 PUSH2 0x17BD JUMP JUMPDEST DUP5 ADD SWAP2 POP POP SWAP3 SWAP2 POP POP JUMP JUMPDEST PUSH1 0x0 DUP2 SLOAD PUSH2 0x1349 DUP2 PUSH2 0x16FE JUMP JUMPDEST PUSH2 0x1353 DUP2 DUP7 PUSH2 0x163E JUMP JUMPDEST SWAP5 POP PUSH1 0x1 DUP3 AND PUSH1 0x0 DUP2 EQ PUSH2 0x136E JUMPI PUSH1 0x1 DUP2 EQ PUSH2 0x1380 JUMPI PUSH2 0x13B3 JUMP JUMPDEST PUSH1 0xFF NOT DUP4 AND DUP7 MSTORE PUSH1 0x20 DUP7 ADD SWAP4 POP PUSH2 0x13B3 JUMP JUMPDEST PUSH2 0x1389 DUP6 PUSH2 0x15BB JUMP JUMPDEST PUSH1 0x0 JUMPDEST DUP4 DUP2 LT ISZERO PUSH2 0x13AB JUMPI DUP2 SLOAD DUP2 DUP10 ADD MSTORE PUSH1 0x1 DUP3 ADD SWAP2 POP PUSH1 0x20 DUP2 ADD SWAP1 POP PUSH2 0x138C JUMP JUMPDEST DUP1 DUP9 ADD SWAP6 POP POP POP JUMPDEST POP POP POP SWAP3 SWAP2 POP POP JUMP JUMPDEST PUSH2 0x13C5 DUP2 PUSH2 0x16A0 JUMP JUMPDEST DUP3 MSTORE POP POP JUMP JUMPDEST PUSH2 0x13D4 DUP2 PUSH2 0x16A0 JUMP JUMPDEST DUP3 MSTORE POP POP JUMP JUMPDEST PUSH1 0x0 PUSH1 0x20 DUP3 ADD SWAP1 POP DUP2 DUP2 SUB PUSH1 0x0 DUP4 ADD MSTORE PUSH2 0x13F4 DUP2 DUP5 PUSH2 0x11D9 JUMP JUMPDEST SWAP1 POP SWAP3 SWAP2 POP POP JUMP JUMPDEST PUSH1 0x0 PUSH1 0x20 DUP3 ADD SWAP1 POP DUP2 DUP2 SUB PUSH1 0x0 DUP4 ADD MSTORE PUSH2 0x1416 DUP2 DUP5 PUSH2 0x124E JUMP JUMPDEST SWAP1 POP SWAP3 SWAP2 POP POP JUMP JUMPDEST PUSH1 0x0 PUSH1 0x20 DUP3 ADD SWAP1 POP PUSH2 0x1433 PUSH1 0x0 DUP4 ADD DUP5 PUSH2 0x12AC JUMP JUMPDEST SWAP3 SWAP2 POP POP JUMP JUMPDEST PUSH1 0x0 PUSH1 0xC0 DUP3 ADD SWAP1 POP PUSH2 0x144E PUSH1 0x0 DUP4 ADD DUP10 PUSH2 0x12AC JUMP JUMPDEST DUP2 DUP2 SUB PUSH1 0x20 DUP4 ADD MSTORE PUSH2 0x1460 DUP2 DUP9 PUSH2 0x1303 JUMP JUMPDEST SWAP1 POP PUSH2 0x146F PUSH1 0x40 DUP4 ADD DUP8 PUSH2 0x11CA JUMP JUMPDEST PUSH2 0x147C PUSH1 0x60 DUP4 ADD DUP7 PUSH2 0x12BB JUMP JUMPDEST DUP2 DUP2 SUB PUSH1 0x80 DUP4 ADD MSTORE PUSH2 0x148E DUP2 DUP6 PUSH2 0x124E JUMP JUMPDEST SWAP1 POP DUP2 DUP2 SUB PUSH1 0xA0 DUP4 ADD MSTORE PUSH2 0x14A2 DUP2 DUP5 PUSH2 0x124E JUMP JUMPDEST SWAP1 POP SWAP8 SWAP7 POP POP POP POP POP POP POP JUMP JUMPDEST PUSH1 0x0 PUSH1 0x20 DUP3 ADD SWAP1 POP DUP2 DUP2 SUB PUSH1 0x0 DUP4 ADD MSTORE PUSH2 0x14C9 DUP2 DUP5 PUSH2 0x1303 JUMP JUMPDEST SWAP1 POP SWAP3 SWAP2 POP POP JUMP JUMPDEST PUSH1 0x0 PUSH1 0x20 DUP3 ADD SWAP1 POP DUP2 DUP2 SUB PUSH1 0x0 DUP4 ADD MSTORE PUSH2 0x14EB DUP2 DUP5 PUSH2 0x133C JUMP JUMPDEST SWAP1 POP SWAP3 SWAP2 POP POP JUMP JUMPDEST PUSH1 0x0 PUSH1 0x20 DUP3 ADD SWAP1 POP PUSH2 0x1508 PUSH1 0x0 DUP4 ADD DUP5 PUSH2 0x13CB JUMP JUMPDEST SWAP3 SWAP2 POP POP JUMP JUMPDEST PUSH1 0x0 PUSH1 0x40 MLOAD SWAP1 POP DUP2 DUP2 ADD DUP2 DUP2 LT PUSH8 0xFFFFFFFFFFFFFFFF DUP3 GT OR ISZERO PUSH2 0x1535 JUMPI PUSH2 0x1534 PUSH2 0x178E JUMP JUMPDEST JUMPDEST DUP1 PUSH1 0x40 MSTORE POP SWAP2 SWAP1 POP JUMP JUMPDEST PUSH1 0x0 PUSH8 0xFFFFFFFFFFFFFFFF DUP3 GT ISZERO PUSH2 0x155A JUMPI PUSH2 0x1559 PUSH2 0x178E JUMP JUMPDEST JUMPDEST PUSH1 0x20 DUP3 MUL SWAP1 POP PUSH1 0x20 DUP2 ADD SWAP1 POP SWAP2 SWAP1 POP JUMP JUMPDEST PUSH1 0x0 PUSH8 0xFFFFFFFFFFFFFFFF DUP3 GT ISZERO PUSH2 0x1586 JUMPI PUSH2 0x1585 PUSH2 0x178E JUMP JUMPDEST JUMPDEST PUSH1 0x1F NOT PUSH1 0x1F DUP4 ADD AND SWAP1 POP PUSH1 0x20 DUP2 ADD SWAP1 POP SWAP2 SWAP1 POP JUMP JUMPDEST PUSH1 0x0 DUP2 SWAP1 POP PUSH1 0x20 DUP3 ADD SWAP1 POP SWAP2 SWAP1 POP JUMP JUMPDEST PUSH1 0x0 DUP2 SWAP1 POP PUSH1 0x20 DUP3 ADD SWAP1 POP SWAP2 SWAP1 POP JUMP JUMPDEST PUSH1 0x0 DUP2 SWAP1 POP DUP2 PUSH1 0x0 MSTORE PUSH1 0x20 PUSH1 0x0 KECCAK256 SWAP1 POP SWAP2 SWAP1 POP JUMP JUMPDEST PUSH1 0x0 DUP2 MLOAD SWAP1 POP SWAP2 SWAP1 POP JUMP JUMPDEST PUSH1 0x0 DUP2 MLOAD SWAP1 POP SWAP2 SWAP1 POP JUMP JUMPDEST PUSH1 0x0 DUP2 MLOAD SWAP1 POP SWAP2 SWAP1 POP JUMP JUMPDEST PUSH1 0x0 PUSH1 0x20 DUP3 ADD SWAP1 POP SWAP2 SWAP1 POP JUMP JUMPDEST PUSH1 0x0 PUSH1 0x20 DUP3 ADD SWAP1 POP SWAP2 SWAP1 POP JUMP JUMPDEST PUSH1 0x0 DUP3 DUP3 MSTORE PUSH1 0x20 DUP3 ADD SWAP1 POP SWAP3 SWAP2 POP POP JUMP JUMPDEST PUSH1 0x0 DUP3 DUP3 MSTORE PUSH1 0x20 DUP3 ADD SWAP1 POP SWAP3 SWAP2 POP POP JUMP JUMPDEST PUSH1 0x0 DUP3 DUP3 MSTORE PUSH1 0x20 DUP3 ADD SWAP1 POP SWAP3 SWAP2 POP POP JUMP JUMPDEST PUSH1 0x0 DUP3 DUP3 MSTORE PUSH1 0x20 DUP3 ADD SWAP1 POP SWAP3 SWAP2 POP POP JUMP JUMPDEST PUSH1 0x0 PUSH2 0x165A DUP3 PUSH2 0x1680 JUMP JUMPDEST SWAP1 POP SWAP2 SWAP1 POP JUMP JUMPDEST PUSH1 0x0 DUP2 ISZERO ISZERO SWAP1 POP SWAP2 SWAP1 POP JUMP JUMPDEST PUSH1 0x0 DUP2 SWAP1 POP PUSH2 0x167B DUP3 PUSH2 0x17CE JUMP JUMPDEST SWAP2 SWAP1 POP JUMP JUMPDEST PUSH1 0x0 PUSH20 0xFFFFFFFFFFFFFFFFFFFFFFFFFFFFFFFFFFFFFFFF DUP3 AND SWAP1 POP SWAP2 SWAP1 POP JUMP JUMPDEST PUSH1 0x0 DUP2 SWAP1 POP SWAP2 SWAP1 POP JUMP JUMPDEST PUSH1 0x0 PUSH2 0x16B5 DUP3 PUSH2 0x166D JUMP JUMPDEST SWAP1 POP SWAP2 SWAP1 POP JUMP JUMPDEST DUP3 DUP2 DUP4 CALLDATACOPY PUSH1 0x0 DUP4 DUP4 ADD MSTORE POP POP POP JUMP JUMPDEST PUSH1 0x0 JUMPDEST DUP4 DUP2 LT ISZERO PUSH2 0x16E9 JUMPI DUP1 DUP3 ADD MLOAD DUP2 DUP5 ADD MSTORE PUSH1 0x20 DUP2 ADD SWAP1 POP PUSH2 0x16CE JUMP JUMPDEST DUP4 DUP2 GT ISZERO PUSH2 0x16F8 JUMPI PUSH1 0x0 DUP5 DUP5 ADD MSTORE JUMPDEST POP POP POP POP JUMP JUMPDEST PUSH1 0x0 PUSH1 0x2 DUP3 DIV SWAP1 POP PUSH1 0x1 DUP3 AND DUP1 PUSH2 0x1716 JUMPI PUSH1 0x7F DUP3 AND SWAP2 POP JUMPDEST PUSH1 0x20 DUP3 LT DUP2 EQ ISZERO PUSH2 0x172A JUMPI PUSH2 0x1729 PUSH2 0x175F JUMP JUMPDEST JUMPDEST POP SWAP2 SWAP1 POP JUMP JUMPDEST PUSH32 0x4E487B7100000000000000000000000000000000000000000000000000000000 PUSH1 0x0 MSTORE PUSH1 0x21 PUSH1 0x4 MSTORE PUSH1 0x24 PUSH1 0x0 REVERT JUMPDEST PUSH32 0x4E487B7100000000000000000000000000000000000000000000000000000000 PUSH1 0x0 MSTORE PUSH1 0x22 PUSH1 0x4 MSTORE PUSH1 0x24 PUSH1 0x0 REVERT JUMPDEST PUSH32 0x4E487B7100000000000000000000000000000000000000000000000000000000 PUSH1 0x0 MSTORE PUSH1 0x41 PUSH1 0x4 MSTORE PUSH1 0x24 PUSH1 0x0 REVERT JUMPDEST PUSH1 0x0 PUSH1 0x1F NOT PUSH1 0x1F DUP4 ADD AND SWAP1 POP SWAP2 SWAP1 POP JUMP JUMPDEST PUSH1 0x4 DUP2 LT PUSH2 0x17DF JUMPI PUSH2 0x17DE PUSH2 0x1730 JUMP JUMPDEST JUMPDEST POP JUMP JUMPDEST PUSH2 0x17EB DUP2 PUSH2 0x164F JUMP JUMPDEST DUP2 EQ PUSH2 0x17F6 JUMPI PUSH1 0x0 DUP1 REVERT JUMPDEST POP JUMP JUMPDEST PUSH1 0x4 DUP2 LT PUSH2 0x1806 JUMPI PUSH1 0x0 DUP1 REVERT JUMPDEST POP JUMP JUMPDEST PUSH2 0x1812 DUP2 PUSH2 0x16A0 JUMP JUMPDEST DUP2 EQ PUSH2 0x181D JUMPI PUSH1 0x0 DUP1 REVERT JUMPDEST POP JUMP INVALID LOG2 PUSH5 0x6970667358 0x22 SLT KECCAK256 0xEB 0x5E PUSH22 0xC90844F4647B2BA013C80D1460092256C8663F9C42C9 0x28 SWAP7 0xB3 0xCF 0x49 EXTCODECOPY SGT PUSH5 0x736F6C6343 STOP ADDMOD STOP STOP CALLER "},"gasEstimates":{"creation":{"codeDepositCost":"1246000","executionCost":"1295","totalCost":"1247295"},"external":{"completing(uint256)":"infinite","createTask(uint256,string,address,uint8,uint256[],uint256[])":"infinite","createTask(uint256,string,uint8,uint256[],uint256[])":"infinite","debugStringeventLog(uint256)":"infinite","getDebugStringeventLog()":"infinite","getLog()":"infinite","getTaskById(uint256)":"infinite","isTaskCompletedById(uint256)":"1644","theRealEventLog(uint256)":"infinite"}},"methodIdentifiers":{"completing(uint256)":"993c0410","createTask(uint256,string,address,uint8,uint256[],uint256[])":"307ed4be","createTask(uint256,string,uint8,uint256[],uint256[])":"72a598cc","debugStringeventLog(uint256)":"61ea18df","getDebugStringeventLog()":"4d60f651","getLog()":"909e4ab6","getTaskById(uint256)":"976217cd","isTaskCompletedById(uint256)":"9849cee9","theRealEventLog(uint256)":"95794157"}},"storageLayout":{"storage":[{"astId":27,"contract":"BasicEnzian.sol:BasicEnzian","label":"tasks","offset":0,"slot":"0","type":"t_mapping(t_uint256,t_struct(Task)22_storage)"},{"astId":34,"contract":"BasicEnzian.sol:BasicEnzian","label":"theRealEventLog","offset":0,"slot":"1","type":"t_array(t_uint256)dyn_storage"},{"astId":46,"contract":"BasicEnzian.sol:BasicEnzian","label":"debugStringeventLog","offset":0,"slot":"2","type":"t_array(t_string_storage)dyn_storage"}],"types":{"t_address":{"encoding":"inplace","label":"address","numberOfBytes":"20"},"t_array(t_string_storage)dyn_storage":{"base":"t_string_storage","encoding":"dynamic_array","label":"string[]","numberOfBytes":"32"},"t_array(t_uint256)dyn_storage":{"base":"t_uint256","encoding":"dynamic_array","label":"uint256[]","numberOfBytes":"32"},"t_bool":{"encoding":"inplace","label":"bool","numberOfBytes":"1"},"t_enum(Tasktype)6":{"encoding":"inplace","label":"enum BasicEnzian.Tasktype","numberOfBytes":"1"},"t_mapping(t_uint256,t_struct(Task)22_storage)":{"encoding":"mapping","key":"t_uint256","label":"mapping(uint256 => struct BasicEnzian.Task)","numberOfBytes":"32","value":"t_struct(Task)22_storage"},"t_string_storage":{"encoding":"bytes","label":"string","numberOfBytes":"32"},"t_struct(Task)22_storage":{"encoding":"inplace","label":"struct BasicEnzian.Task","members":[{"astId":8,"contract":"BasicEnzian.sol:BasicEnzian","label":"activity","offset":0,"slot":"0","type":"t_string_storage"},{"astId":10,"contract":"BasicEnzian.sol:BasicEnzian","label":"taskresource","offset":0,"slot":"1","type":"t_address"},{"astId":12,"contract":"BasicEnzian.sol:BasicEnzian","label":"completed","offset":20,"slot":"1","type":"t_bool"},{"astId":15,"contract":"BasicEnzian.sol:BasicEnzian","label":"tasktype","offset":21,"slot":"1","type":"t_enum(Tasktype)6"},{"astId":18,"contract":"BasicEnzian.sol:BasicEnzian","label":"requirements","offset":0,"slot":"2","type":"t_array(t_uint256)dyn_storage"},{"astId":21,"contract":"BasicEnzian.sol:BasicEnzian","label":"competitors","offset":0,"slot":"3","type":"t_array(t_uint256)dyn_storage"}],"numberOfBytes":"128"},"t_uint256":{"encoding":"inplace","label":"uint256","numberOfBytes":"32"}}},"userdoc":{"kind":"user","methods":{},"version":1}}