{"abi":[{"anonymous":false,"inputs":[{"indexed":true,"internalType":"bool","name":"success","type":"bool"}],"name":"TaskCompleted","type":"event"},{"inputs":[{"internalType":"uint256","name":"taskId","type":"uint256"},{"internalType":"enum BasicEnzian.GatewayType","name":"_gatewaytype","type":"uint8"},{"internalType":"enum BasicEnzian.DecisionType","name":"_type","type":"uint8"},{"internalType":"enum DecisionLibrary.Operator","name":"_op","type":"uint8"},{"components":[{"internalType":"uint256","name":"idtoglobalintegerpayload","type":"uint256"},{"internalType":"uint256[]","name":"local","type":"uint256[]"}],"internalType":"struct BasicEnzian.IntegerOperants","name":"_intoperants","type":"tuple"}],"name":"addDecisionToTask","outputs":[{"internalType":"bool","name":"success","type":"bool"}],"stateMutability":"nonpayable","type":"function"},{"inputs":[{"internalType":"uint256","name":"taskId","type":"uint256"}],"name":"completing","outputs":[{"internalType":"bool","name":"success","type":"bool"}],"stateMutability":"nonpayable","type":"function"},{"inputs":[{"internalType":"uint256","name":"_id","type":"uint256"},{"internalType":"string","name":"_activity","type":"string"},{"internalType":"address","name":"_taskresource","type":"address"},{"internalType":"enum BasicEnzian.GatewayType","name":"_pmg","type":"uint8"},{"internalType":"uint256[]","name":"_requirements","type":"uint256[]"},{"internalType":"uint256[]","name":"_competitors","type":"uint256[]"}],"name":"createTask","outputs":[],"stateMutability":"nonpayable","type":"function"},{"inputs":[{"internalType":"uint256","name":"_id","type":"uint256"},{"internalType":"string","name":"_activity","type":"string"},{"internalType":"address","name":"_taskresource","type":"address"},{"internalType":"enum BasicEnzian.GatewayType","name":"_pmg","type":"uint8"},{"internalType":"uint256[]","name":"_requirements","type":"uint256[]"},{"internalType":"uint256[]","name":"_competitors","type":"uint256[]"},{"components":[{"internalType":"uint256","name":"endBoss","type":"uint256"},{"internalType":"enum BasicEnzian.GatewayType","name":"gatewaytype","type":"uint8"},{"internalType":"enum BasicEnzian.DecisionType","name":"typ","type":"uint8"},{"internalType":"bool","name":"completed","type":"bool"},{"internalType":"bool","name":"exists","type":"bool"},{"internalType":"enum DecisionLibrary.Operator","name":"operator","type":"uint8"},{"components":[{"internalType":"uint256","name":"idtoglobalintegerpayload","type":"uint256"},{"internalType":"uint256[]","name":"local","type":"uint256[]"}],"internalType":"struct BasicEnzian.IntegerOperants","name":"integeroperants","type":"tuple"},{"components":[{"internalType":"uint256","name":"idtoglobalstringpayload","type":"uint256"},{"internalType":"string","name":"local","type":"string"}],"internalType":"struct BasicEnzian.StringOperants","name":"stringoperants","type":"tuple"}],"internalType":"struct BasicEnzian.Decision","name":"_decision","type":"tuple"}],"name":"createTaskWithDecision","outputs":[],"stateMutability":"nonpayable","type":"function"},{"inputs":[{"internalType":"uint256","name":"","type":"uint256"}],"name":"debugStringeventLog","outputs":[{"internalType":"string","name":"","type":"string"}],"stateMutability":"view","type":"function"},{"inputs":[],"name":"decisionTest","outputs":[{"internalType":"uint256","name":"drei","type":"uint256"}],"stateMutability":"pure","type":"function"},{"inputs":[{"internalType":"uint256","name":"i1","type":"uint256"},{"internalType":"uint256[]","name":"i2","type":"uint256[]"},{"internalType":"enum DecisionLibrary.Operator","name":"op","type":"uint8"}],"name":"evaluateTest","outputs":[{"internalType":"bool","name":"equality","type":"bool"}],"stateMutability":"pure","type":"function"},{"inputs":[],"name":"getDebugStringeventLog","outputs":[{"internalType":"string[]","name":"theevents","type":"string[]"}],"stateMutability":"view","type":"function"},{"inputs":[],"name":"getLog","outputs":[{"internalType":"uint256[]","name":"theevents","type":"uint256[]"}],"stateMutability":"view","type":"function"},{"inputs":[{"internalType":"uint256","name":"_id","type":"uint256"}],"name":"getTaskById","outputs":[{"internalType":"bool","name":"status","type":"bool"},{"internalType":"string","name":"description","type":"string"},{"internalType":"address","name":"taskresource","type":"address"},{"internalType":"enum BasicEnzian.GatewayType","name":"gateway","type":"uint8"},{"internalType":"uint256[]","name":"requirements","type":"uint256[]"},{"internalType":"uint256[]","name":"competitors","type":"uint256[]"}],"stateMutability":"view","type":"function"},{"inputs":[{"internalType":"uint256","name":"_id","type":"uint256"}],"name":"isTaskCompletedById","outputs":[{"internalType":"bool","name":"success","type":"bool"}],"stateMutability":"view","type":"function"},{"inputs":[{"internalType":"uint256","name":"","type":"uint256"}],"name":"theRealEventLog","outputs":[{"internalType":"uint256","name":"","type":"uint256"}],"stateMutability":"view","type":"function"}],"devdoc":{"kind":"dev","methods":{},"version":1},"evm":{"assembly":"    /* \"BasicEnzian.sol\":61:9069  contract BasicEnzian {\r... */\n  mstore(0x40, 0x80)\n  callvalue\n  dup1\n  iszero\n  tag_1\n  jumpi\n  0x00\n  dup1\n  revert\ntag_1:\n  pop\n  dataSize(sub_0)\n  dup1\n  dataOffset(sub_0)\n  0x00\n  codecopy\n  0x00\n  return\nstop\n\nsub_0: assembly {\n        /* \"BasicEnzian.sol\":61:9069  contract BasicEnzian {\r... */\n      mstore(0x40, 0x80)\n      callvalue\n      dup1\n      iszero\n      tag_1\n      jumpi\n      0x00\n      dup1\n      revert\n    tag_1:\n      pop\n      jumpi(tag_2, lt(calldatasize, 0x04))\n      shr(0xe0, calldataload(0x00))\n      dup1\n      0x71c56f9b\n      gt\n      tag_15\n      jumpi\n      dup1\n      0x71c56f9b\n      eq\n      tag_9\n      jumpi\n      dup1\n      0x909e4ab6\n      eq\n      tag_10\n      jumpi\n      dup1\n      0x95794157\n      eq\n      tag_11\n      jumpi\n      dup1\n      0x976217cd\n      eq\n      tag_12\n      jumpi\n      dup1\n      0x9849cee9\n      eq\n      tag_13\n      jumpi\n      dup1\n      0x993c0410\n      eq\n      tag_14\n      jumpi\n      jump(tag_2)\n    tag_15:\n      dup1\n      0x182a9aee\n      eq\n      tag_3\n      jumpi\n      dup1\n      0x301e26f4\n      eq\n      tag_4\n      jumpi\n      dup1\n      0x307ed4be\n      eq\n      tag_5\n      jumpi\n      dup1\n      0x4c88bf2f\n      eq\n      tag_6\n      jumpi\n      dup1\n      0x4d60f651\n      eq\n      tag_7\n      jumpi\n      dup1\n      0x61ea18df\n      eq\n      tag_8\n      jumpi\n    tag_2:\n      0x00\n      dup1\n      revert\n        /* \"BasicEnzian.sol\":7227:7403  function evaluateTest(uint i1, uint[] memory i2, DecisionLibrary.Operator op) public pure returns (bool equality) {\r... */\n    tag_3:\n      tag_16\n      0x04\n      dup1\n      calldatasize\n      sub\n      dup2\n      add\n      swap1\n      tag_17\n      swap2\n      swap1\n      tag_18\n      jump\t// in\n    tag_17:\n      tag_19\n      jump\t// in\n    tag_16:\n      mload(0x40)\n      tag_20\n      swap2\n      swap1\n      tag_21\n      jump\t// in\n    tag_20:\n      mload(0x40)\n      dup1\n      swap2\n      sub\n      swap1\n      return\n        /* \"BasicEnzian.sol\":3211:3901  function createTaskWithDecision(\r... */\n    tag_4:\n      tag_22\n      0x04\n      dup1\n      calldatasize\n      sub\n      dup2\n      add\n      swap1\n      tag_23\n      swap2\n      swap1\n      tag_24\n      jump\t// in\n    tag_23:\n      tag_25\n      jump\t// in\n    tag_22:\n      stop\n        /* \"BasicEnzian.sol\":2023:2625  function createTask(\r... */\n    tag_5:\n      tag_26\n      0x04\n      dup1\n      calldatasize\n      sub\n      dup2\n      add\n      swap1\n      tag_27\n      swap2\n      swap1\n      tag_28\n      jump\t// in\n    tag_27:\n      tag_29\n      jump\t// in\n    tag_26:\n      stop\n        /* \"BasicEnzian.sol\":2637:3186  function addDecisionToTask(\r... */\n    tag_6:\n      tag_30\n      0x04\n      dup1\n      calldatasize\n      sub\n      dup2\n      add\n      swap1\n      tag_31\n      swap2\n      swap1\n      tag_32\n      jump\t// in\n    tag_31:\n      tag_33\n      jump\t// in\n    tag_30:\n      mload(0x40)\n      tag_34\n      swap2\n      swap1\n      tag_21\n      jump\t// in\n    tag_34:\n      mload(0x40)\n      dup1\n      swap2\n      sub\n      swap1\n      return\n        /* \"BasicEnzian.sol\":1744:1870  function getDebugStringeventLog() public view returns(string[] memory theevents) {\r... */\n    tag_7:\n      tag_35\n      tag_36\n      jump\t// in\n    tag_35:\n      mload(0x40)\n      tag_37\n      swap2\n      swap1\n      tag_38\n      jump\t// in\n    tag_37:\n      mload(0x40)\n      dup1\n      swap2\n      sub\n      swap1\n      return\n        /* \"BasicEnzian.sol\":1702:1737  string[] public debugStringeventLog */\n    tag_8:\n      tag_39\n      0x04\n      dup1\n      calldatasize\n      sub\n      dup2\n      add\n      swap1\n      tag_40\n      swap2\n      swap1\n      tag_41\n      jump\t// in\n    tag_40:\n      tag_42\n      jump\t// in\n    tag_39:\n      mload(0x40)\n      tag_43\n      swap2\n      swap1\n      tag_44\n      jump\t// in\n    tag_43:\n      mload(0x40)\n      dup1\n      swap2\n      sub\n      swap1\n      return\n        /* \"BasicEnzian.sol\":8927:9064  function decisionTest() public pure returns(uint drei) {\r... */\n    tag_9:\n      tag_45\n      tag_46\n      jump\t// in\n    tag_45:\n      mload(0x40)\n      tag_47\n      swap2\n      swap1\n      tag_48\n      jump\t// in\n    tag_47:\n      mload(0x40)\n      dup1\n      swap2\n      sub\n      swap1\n      return\n        /* \"BasicEnzian.sol\":1498:1602  function getLog() public view returns(uint[] memory theevents) {\r... */\n    tag_10:\n      tag_49\n      tag_50\n      jump\t// in\n    tag_49:\n      mload(0x40)\n      tag_51\n      swap2\n      swap1\n      tag_52\n      jump\t// in\n    tag_51:\n      mload(0x40)\n      dup1\n      swap2\n      sub\n      swap1\n      return\n        /* \"BasicEnzian.sol\":1462:1491  uint[] public theRealEventLog */\n    tag_11:\n      tag_53\n      0x04\n      dup1\n      calldatasize\n      sub\n      dup2\n      add\n      swap1\n      tag_54\n      swap2\n      swap1\n      tag_41\n      jump\t// in\n    tag_54:\n      tag_55\n      jump\t// in\n    tag_53:\n      mload(0x40)\n      tag_56\n      swap2\n      swap1\n      tag_48\n      jump\t// in\n    tag_56:\n      mload(0x40)\n      dup1\n      swap2\n      sub\n      swap1\n      return\n        /* \"BasicEnzian.sol\":8522:8919  function getTaskById(uint _id) public view returns (bool status,\r... */\n    tag_12:\n      tag_57\n      0x04\n      dup1\n      calldatasize\n      sub\n      dup2\n      add\n      swap1\n      tag_58\n      swap2\n      swap1\n      tag_41\n      jump\t// in\n    tag_58:\n      tag_59\n      jump\t// in\n    tag_57:\n      mload(0x40)\n      tag_60\n      swap7\n      swap6\n      swap5\n      swap4\n      swap3\n      swap2\n      swap1\n      tag_61\n      jump\t// in\n    tag_60:\n      mload(0x40)\n      dup1\n      swap2\n      sub\n      swap1\n      return\n        /* \"BasicEnzian.sol\":8294:8417  function isTaskCompletedById(uint _id) public view returns (bool success){\r... */\n    tag_13:\n      tag_62\n      0x04\n      dup1\n      calldatasize\n      sub\n      dup2\n      add\n      swap1\n      tag_63\n      swap2\n      swap1\n      tag_41\n      jump\t// in\n    tag_63:\n      tag_64\n      jump\t// in\n    tag_62:\n      mload(0x40)\n      tag_65\n      swap2\n      swap1\n      tag_21\n      jump\t// in\n    tag_65:\n      mload(0x40)\n      dup1\n      swap2\n      sub\n      swap1\n      return\n        /* \"BasicEnzian.sol\":4013:7215  function completing(uint taskId) public returns (bool success){\r... */\n    tag_14:\n      tag_66\n      0x04\n      dup1\n      calldatasize\n      sub\n      dup2\n      add\n      swap1\n      tag_67\n      swap2\n      swap1\n      tag_41\n      jump\t// in\n    tag_67:\n      tag_68\n      jump\t// in\n    tag_66:\n      mload(0x40)\n      tag_69\n      swap2\n      swap1\n      tag_21\n      jump\t// in\n    tag_69:\n      mload(0x40)\n      dup1\n      swap2\n      sub\n      swap1\n      return\n        /* \"BasicEnzian.sol\":7227:7403  function evaluateTest(uint i1, uint[] memory i2, DecisionLibrary.Operator op) public pure returns (bool equality) {\r... */\n    tag_19:\n        /* \"BasicEnzian.sol\":7326:7339  bool equality */\n      0x00\n        /* \"BasicEnzian.sol\":7359:7374  DecisionLibrary */\n      linkerSymbol(\"80c56c7074f1c42024adf49f5dc2b40495aa8bbb68c1dca7ae61973c3346d226\")\n        /* \"BasicEnzian.sol\":7359:7383  DecisionLibrary.evaluate */\n      0x88276283\n        /* \"BasicEnzian.sol\":7384:7386  i1 */\n      dup6\n        /* \"BasicEnzian.sol\":7388:7390  i2 */\n      dup6\n        /* \"BasicEnzian.sol\":7392:7394  op */\n      dup6\n        /* \"BasicEnzian.sol\":7359:7395  DecisionLibrary.evaluate(i1, i2, op) */\n      mload(0x40)\n      dup5\n      0xffffffff\n      and\n      0xe0\n      shl\n      dup2\n      mstore\n      0x04\n      add\n      tag_71\n      swap4\n      swap3\n      swap2\n      swap1\n      tag_72\n      jump\t// in\n    tag_71:\n      0x20\n      mload(0x40)\n      dup1\n      dup4\n      sub\n      dup2\n      dup7\n      dup1\n      extcodesize\n      iszero\n      dup1\n      iszero\n      tag_73\n      jumpi\n      0x00\n      dup1\n      revert\n    tag_73:\n      pop\n      gas\n      delegatecall\n      iszero\n      dup1\n      iszero\n      tag_75\n      jumpi\n      returndatasize\n      0x00\n      dup1\n      returndatacopy\n      revert(0x00, returndatasize)\n    tag_75:\n      pop\n      pop\n      pop\n      pop\n      mload(0x40)\n      returndatasize\n      not(0x1f)\n      0x1f\n      dup3\n      add\n      and\n      dup3\n      add\n      dup1\n      0x40\n      mstore\n      pop\n      dup2\n      add\n      swap1\n      tag_76\n      swap2\n      swap1\n      tag_77\n      jump\t// in\n    tag_76:\n        /* \"BasicEnzian.sol\":7352:7395  return DecisionLibrary.evaluate(i1, i2, op) */\n      swap1\n      pop\n        /* \"BasicEnzian.sol\":7227:7403  function evaluateTest(uint i1, uint[] memory i2, DecisionLibrary.Operator op) public pure returns (bool equality) {\r... */\n      swap4\n      swap3\n      pop\n      pop\n      pop\n      jump\t// out\n        /* \"BasicEnzian.sol\":3211:3901  function createTaskWithDecision(\r... */\n    tag_25:\n        /* \"BasicEnzian.sol\":3529:3549  Task memory myStruct */\n      tag_79\n      tag_80\n      jump\t// in\n    tag_79:\n        /* \"BasicEnzian.sol\":3580:3589  _activity */\n      dup7\n        /* \"BasicEnzian.sol\":3560:3568  myStruct */\n      dup2\n        /* \"BasicEnzian.sol\":3560:3577  myStruct.activity */\n      0x00\n      add\n        /* \"BasicEnzian.sol\":3560:3589  myStruct.activity = _activity */\n      dup2\n      swap1\n      mstore\n      pop\n        /* \"BasicEnzian.sol\":3624:3637  _taskresource */\n      dup6\n        /* \"BasicEnzian.sol\":3600:3608  myStruct */\n      dup2\n        /* \"BasicEnzian.sol\":3600:3621  myStruct.taskresource */\n      0x20\n      add\n        /* \"BasicEnzian.sol\":3600:3637  myStruct.taskresource = _taskresource */\n      swap1\n      0xffffffffffffffffffffffffffffffffffffffff\n      and\n      swap1\n      dup2\n      0xffffffffffffffffffffffffffffffffffffffff\n      and\n      dup2\n      mstore\n      pop\n      pop\n        /* \"BasicEnzian.sol\":3669:3674  false */\n      0x00\n        /* \"BasicEnzian.sol\":3648:3656  myStruct */\n      dup2\n        /* \"BasicEnzian.sol\":3648:3666  myStruct.completed */\n      0x40\n      add\n        /* \"BasicEnzian.sol\":3648:3674  myStruct.completed = false */\n      swap1\n      iszero\n      iszero\n      swap1\n      dup2\n      iszero\n      iszero\n      dup2\n      mstore\n      pop\n      pop\n        /* \"BasicEnzian.sol\":3721:3725  _pmg */\n      dup5\n        /* \"BasicEnzian.sol\":3685:3693  myStruct */\n      dup2\n        /* \"BasicEnzian.sol\":3685:3718  myStruct.preceedingMergingGateway */\n      0x60\n      add\n        /* \"BasicEnzian.sol\":3685:3725  myStruct.preceedingMergingGateway = _pmg */\n      swap1\n      0x03\n      dup2\n      gt\n      iszero\n      tag_81\n      jumpi\n      mstore(0x00, 0x4e487b7100000000000000000000000000000000000000000000000000000000)\n      mstore(0x04, 0x21)\n      revert(0x00, 0x24)\n    tag_81:\n      swap1\n      dup2\n      0x03\n      dup2\n      gt\n      iszero\n      tag_82\n      jumpi\n      mstore(0x00, 0x4e487b7100000000000000000000000000000000000000000000000000000000)\n      mstore(0x04, 0x21)\n      revert(0x00, 0x24)\n    tag_82:\n      dup2\n      mstore\n      pop\n      pop\n        /* \"BasicEnzian.sol\":3760:3773  _requirements */\n      dup4\n        /* \"BasicEnzian.sol\":3736:3744  myStruct */\n      dup2\n        /* \"BasicEnzian.sol\":3736:3757  myStruct.requirements */\n      0x80\n      add\n        /* \"BasicEnzian.sol\":3736:3773  myStruct.requirements = _requirements */\n      dup2\n      swap1\n      mstore\n      pop\n        /* \"BasicEnzian.sol\":3807:3819  _competitors */\n      dup3\n        /* \"BasicEnzian.sol\":3784:3792  myStruct */\n      dup2\n        /* \"BasicEnzian.sol\":3784:3804  myStruct.competitors */\n      0xa0\n      add\n        /* \"BasicEnzian.sol\":3784:3819  myStruct.competitors = _competitors */\n      dup2\n      swap1\n      mstore\n      pop\n        /* \"BasicEnzian.sol\":3850:3859  _decision */\n      dup2\n        /* \"BasicEnzian.sol\":3830:3838  myStruct */\n      dup2\n        /* \"BasicEnzian.sol\":3830:3847  myStruct.decision */\n      0xc0\n      add\n        /* \"BasicEnzian.sol\":3830:3859  myStruct.decision = _decision */\n      dup2\n      swap1\n      mstore\n      pop\n        /* \"BasicEnzian.sol\":3884:3892  myStruct */\n      dup1\n        /* \"BasicEnzian.sol\":3870:3875  tasks */\n      0x00\n        /* \"BasicEnzian.sol\":3870:3880  tasks[_id] */\n      dup1\n        /* \"BasicEnzian.sol\":3876:3879  _id */\n      dup11\n        /* \"BasicEnzian.sol\":3870:3880  tasks[_id] */\n      dup2\n      mstore\n      0x20\n      add\n      swap1\n      dup2\n      mstore\n      0x20\n      add\n      0x00\n      keccak256\n        /* \"BasicEnzian.sol\":3870:3893  tasks[_id] = (myStruct) */\n      0x00\n      dup3\n      add\n      mload\n      dup2\n      0x00\n      add\n      swap1\n      dup1\n      mload\n      swap1\n      0x20\n      add\n      swap1\n      tag_83\n      swap3\n      swap2\n      swap1\n      tag_84\n      jump\t// in\n    tag_83:\n      pop\n      0x20\n      dup3\n      add\n      mload\n      dup2\n      0x01\n      add\n      exp(0x0100, 0x00)\n      dup2\n      sload\n      dup2\n      0xffffffffffffffffffffffffffffffffffffffff\n      mul\n      not\n      and\n      swap1\n      dup4\n      0xffffffffffffffffffffffffffffffffffffffff\n      and\n      mul\n      or\n      swap1\n      sstore\n      pop\n      0x40\n      dup3\n      add\n      mload\n      dup2\n      0x01\n      add\n      exp(0x0100, 0x14)\n      dup2\n      sload\n      dup2\n      0xff\n      mul\n      not\n      and\n      swap1\n      dup4\n      iszero\n      iszero\n      mul\n      or\n      swap1\n      sstore\n      pop\n      0x60\n      dup3\n      add\n      mload\n      dup2\n      0x01\n      add\n      exp(0x0100, 0x15)\n      dup2\n      sload\n      dup2\n      0xff\n      mul\n      not\n      and\n      swap1\n      dup4\n      0x03\n      dup2\n      gt\n      iszero\n      tag_85\n      jumpi\n      mstore(0x00, 0x4e487b7100000000000000000000000000000000000000000000000000000000)\n      mstore(0x04, 0x21)\n      revert(0x00, 0x24)\n    tag_85:\n      mul\n      or\n      swap1\n      sstore\n      pop\n      0x80\n      dup3\n      add\n      mload\n      dup2\n      0x02\n      add\n      swap1\n      dup1\n      mload\n      swap1\n      0x20\n      add\n      swap1\n      tag_86\n      swap3\n      swap2\n      swap1\n      tag_87\n      jump\t// in\n    tag_86:\n      pop\n      0xa0\n      dup3\n      add\n      mload\n      dup2\n      0x03\n      add\n      swap1\n      dup1\n      mload\n      swap1\n      0x20\n      add\n      swap1\n      tag_88\n      swap3\n      swap2\n      swap1\n      tag_87\n      jump\t// in\n    tag_88:\n      pop\n      0xc0\n      dup3\n      add\n      mload\n      dup2\n      0x04\n      add\n      0x00\n      dup3\n      add\n      mload\n      dup2\n      0x00\n      add\n      sstore\n      0x20\n      dup3\n      add\n      mload\n      dup2\n      0x01\n      add\n      exp(0x0100, 0x00)\n      dup2\n      sload\n      dup2\n      0xff\n      mul\n      not\n      and\n      swap1\n      dup4\n      0x03\n      dup2\n      gt\n      iszero\n      tag_89\n      jumpi\n      mstore(0x00, 0x4e487b7100000000000000000000000000000000000000000000000000000000)\n      mstore(0x04, 0x21)\n      revert(0x00, 0x24)\n    tag_89:\n      mul\n      or\n      swap1\n      sstore\n      pop\n      0x40\n      dup3\n      add\n      mload\n      dup2\n      0x01\n      add\n      exp(0x0100, 0x01)\n      dup2\n      sload\n      dup2\n      0xff\n      mul\n      not\n      and\n      swap1\n      dup4\n      0x02\n      dup2\n      gt\n      iszero\n      tag_90\n      jumpi\n      mstore(0x00, 0x4e487b7100000000000000000000000000000000000000000000000000000000)\n      mstore(0x04, 0x21)\n      revert(0x00, 0x24)\n    tag_90:\n      mul\n      or\n      swap1\n      sstore\n      pop\n      0x60\n      dup3\n      add\n      mload\n      dup2\n      0x01\n      add\n      exp(0x0100, 0x02)\n      dup2\n      sload\n      dup2\n      0xff\n      mul\n      not\n      and\n      swap1\n      dup4\n      iszero\n      iszero\n      mul\n      or\n      swap1\n      sstore\n      pop\n      0x80\n      dup3\n      add\n      mload\n      dup2\n      0x01\n      add\n      exp(0x0100, 0x03)\n      dup2\n      sload\n      dup2\n      0xff\n      mul\n      not\n      and\n      swap1\n      dup4\n      iszero\n      iszero\n      mul\n      or\n      swap1\n      sstore\n      pop\n      0xa0\n      dup3\n      add\n      mload\n      dup2\n      0x01\n      add\n      exp(0x0100, 0x04)\n      dup2\n      sload\n      dup2\n      0xff\n      mul\n      not\n      and\n      swap1\n      dup4\n      0x06\n      dup2\n      gt\n      iszero\n      tag_91\n      jumpi\n      mstore(0x00, 0x4e487b7100000000000000000000000000000000000000000000000000000000)\n      mstore(0x04, 0x21)\n      revert(0x00, 0x24)\n    tag_91:\n      mul\n      or\n      swap1\n      sstore\n      pop\n      0xc0\n      dup3\n      add\n      mload\n      dup2\n      0x02\n      add\n      0x00\n      dup3\n      add\n      mload\n      dup2\n      0x00\n      add\n      sstore\n      0x20\n      dup3\n      add\n      mload\n      dup2\n      0x01\n      add\n      swap1\n      dup1\n      mload\n      swap1\n      0x20\n      add\n      swap1\n      tag_92\n      swap3\n      swap2\n      swap1\n      tag_87\n      jump\t// in\n    tag_92:\n      pop\n      pop\n      pop\n      0xe0\n      dup3\n      add\n      mload\n      dup2\n      0x04\n      add\n      0x00\n      dup3\n      add\n      mload\n      dup2\n      0x00\n      add\n      sstore\n      0x20\n      dup3\n      add\n      mload\n      dup2\n      0x01\n      add\n      swap1\n      dup1\n      mload\n      swap1\n      0x20\n      add\n      swap1\n      tag_93\n      swap3\n      swap2\n      swap1\n      tag_84\n      jump\t// in\n    tag_93:\n      pop\n      pop\n      pop\n      pop\n      pop\n      swap1\n      pop\n      pop\n        /* \"BasicEnzian.sol\":3211:3901  function createTaskWithDecision(\r... */\n      pop\n      pop\n      pop\n      pop\n      pop\n      pop\n      pop\n      pop\n      jump\t// out\n        /* \"BasicEnzian.sol\":2023:2625  function createTask(\r... */\n    tag_29:\n        /* \"BasicEnzian.sol\":2293:2313  Task memory myStruct */\n      tag_95\n      tag_80\n      jump\t// in\n    tag_95:\n        /* \"BasicEnzian.sol\":2344:2353  _activity */\n      dup6\n        /* \"BasicEnzian.sol\":2324:2332  myStruct */\n      dup2\n        /* \"BasicEnzian.sol\":2324:2341  myStruct.activity */\n      0x00\n      add\n        /* \"BasicEnzian.sol\":2324:2353  myStruct.activity = _activity */\n      dup2\n      swap1\n      mstore\n      pop\n        /* \"BasicEnzian.sol\":2388:2401  _taskresource */\n      dup5\n        /* \"BasicEnzian.sol\":2364:2372  myStruct */\n      dup2\n        /* \"BasicEnzian.sol\":2364:2385  myStruct.taskresource */\n      0x20\n      add\n        /* \"BasicEnzian.sol\":2364:2401  myStruct.taskresource = _taskresource */\n      swap1\n      0xffffffffffffffffffffffffffffffffffffffff\n      and\n      swap1\n      dup2\n      0xffffffffffffffffffffffffffffffffffffffff\n      and\n      dup2\n      mstore\n      pop\n      pop\n        /* \"BasicEnzian.sol\":2433:2438  false */\n      0x00\n        /* \"BasicEnzian.sol\":2412:2420  myStruct */\n      dup2\n        /* \"BasicEnzian.sol\":2412:2430  myStruct.completed */\n      0x40\n      add\n        /* \"BasicEnzian.sol\":2412:2438  myStruct.completed = false */\n      swap1\n      iszero\n      iszero\n      swap1\n      dup2\n      iszero\n      iszero\n      dup2\n      mstore\n      pop\n      pop\n        /* \"BasicEnzian.sol\":2485:2489  _pmg */\n      dup4\n        /* \"BasicEnzian.sol\":2449:2457  myStruct */\n      dup2\n        /* \"BasicEnzian.sol\":2449:2482  myStruct.preceedingMergingGateway */\n      0x60\n      add\n        /* \"BasicEnzian.sol\":2449:2489  myStruct.preceedingMergingGateway = _pmg */\n      swap1\n      0x03\n      dup2\n      gt\n      iszero\n      tag_96\n      jumpi\n      mstore(0x00, 0x4e487b7100000000000000000000000000000000000000000000000000000000)\n      mstore(0x04, 0x21)\n      revert(0x00, 0x24)\n    tag_96:\n      swap1\n      dup2\n      0x03\n      dup2\n      gt\n      iszero\n      tag_97\n      jumpi\n      mstore(0x00, 0x4e487b7100000000000000000000000000000000000000000000000000000000)\n      mstore(0x04, 0x21)\n      revert(0x00, 0x24)\n    tag_97:\n      dup2\n      mstore\n      pop\n      pop\n        /* \"BasicEnzian.sol\":2524:2537  _requirements */\n      dup3\n        /* \"BasicEnzian.sol\":2500:2508  myStruct */\n      dup2\n        /* \"BasicEnzian.sol\":2500:2521  myStruct.requirements */\n      0x80\n      add\n        /* \"BasicEnzian.sol\":2500:2537  myStruct.requirements = _requirements */\n      dup2\n      swap1\n      mstore\n      pop\n        /* \"BasicEnzian.sol\":2571:2583  _competitors */\n      dup2\n        /* \"BasicEnzian.sol\":2548:2556  myStruct */\n      dup2\n        /* \"BasicEnzian.sol\":2548:2568  myStruct.competitors */\n      0xa0\n      add\n        /* \"BasicEnzian.sol\":2548:2583  myStruct.competitors = _competitors */\n      dup2\n      swap1\n      mstore\n      pop\n        /* \"BasicEnzian.sol\":2608:2616  myStruct */\n      dup1\n        /* \"BasicEnzian.sol\":2594:2599  tasks */\n      0x00\n        /* \"BasicEnzian.sol\":2594:2604  tasks[_id] */\n      dup1\n        /* \"BasicEnzian.sol\":2600:2603  _id */\n      dup10\n        /* \"BasicEnzian.sol\":2594:2604  tasks[_id] */\n      dup2\n      mstore\n      0x20\n      add\n      swap1\n      dup2\n      mstore\n      0x20\n      add\n      0x00\n      keccak256\n        /* \"BasicEnzian.sol\":2594:2617  tasks[_id] = (myStruct) */\n      0x00\n      dup3\n      add\n      mload\n      dup2\n      0x00\n      add\n      swap1\n      dup1\n      mload\n      swap1\n      0x20\n      add\n      swap1\n      tag_98\n      swap3\n      swap2\n      swap1\n      tag_84\n      jump\t// in\n    tag_98:\n      pop\n      0x20\n      dup3\n      add\n      mload\n      dup2\n      0x01\n      add\n      exp(0x0100, 0x00)\n      dup2\n      sload\n      dup2\n      0xffffffffffffffffffffffffffffffffffffffff\n      mul\n      not\n      and\n      swap1\n      dup4\n      0xffffffffffffffffffffffffffffffffffffffff\n      and\n      mul\n      or\n      swap1\n      sstore\n      pop\n      0x40\n      dup3\n      add\n      mload\n      dup2\n      0x01\n      add\n      exp(0x0100, 0x14)\n      dup2\n      sload\n      dup2\n      0xff\n      mul\n      not\n      and\n      swap1\n      dup4\n      iszero\n      iszero\n      mul\n      or\n      swap1\n      sstore\n      pop\n      0x60\n      dup3\n      add\n      mload\n      dup2\n      0x01\n      add\n      exp(0x0100, 0x15)\n      dup2\n      sload\n      dup2\n      0xff\n      mul\n      not\n      and\n      swap1\n      dup4\n      0x03\n      dup2\n      gt\n      iszero\n      tag_99\n      jumpi\n      mstore(0x00, 0x4e487b7100000000000000000000000000000000000000000000000000000000)\n      mstore(0x04, 0x21)\n      revert(0x00, 0x24)\n    tag_99:\n      mul\n      or\n      swap1\n      sstore\n      pop\n      0x80\n      dup3\n      add\n      mload\n      dup2\n      0x02\n      add\n      swap1\n      dup1\n      mload\n      swap1\n      0x20\n      add\n      swap1\n      tag_100\n      swap3\n      swap2\n      swap1\n      tag_87\n      jump\t// in\n    tag_100:\n      pop\n      0xa0\n      dup3\n      add\n      mload\n      dup2\n      0x03\n      add\n      swap1\n      dup1\n      mload\n      swap1\n      0x20\n      add\n      swap1\n      tag_101\n      swap3\n      swap2\n      swap1\n      tag_87\n      jump\t// in\n    tag_101:\n      pop\n      0xc0\n      dup3\n      add\n      mload\n      dup2\n      0x04\n      add\n      0x00\n      dup3\n      add\n      mload\n      dup2\n      0x00\n      add\n      sstore\n      0x20\n      dup3\n      add\n      mload\n      dup2\n      0x01\n      add\n      exp(0x0100, 0x00)\n      dup2\n      sload\n      dup2\n      0xff\n      mul\n      not\n      and\n      swap1\n      dup4\n      0x03\n      dup2\n      gt\n      iszero\n      tag_102\n      jumpi\n      mstore(0x00, 0x4e487b7100000000000000000000000000000000000000000000000000000000)\n      mstore(0x04, 0x21)\n      revert(0x00, 0x24)\n    tag_102:\n      mul\n      or\n      swap1\n      sstore\n      pop\n      0x40\n      dup3\n      add\n      mload\n      dup2\n      0x01\n      add\n      exp(0x0100, 0x01)\n      dup2\n      sload\n      dup2\n      0xff\n      mul\n      not\n      and\n      swap1\n      dup4\n      0x02\n      dup2\n      gt\n      iszero\n      tag_103\n      jumpi\n      mstore(0x00, 0x4e487b7100000000000000000000000000000000000000000000000000000000)\n      mstore(0x04, 0x21)\n      revert(0x00, 0x24)\n    tag_103:\n      mul\n      or\n      swap1\n      sstore\n      pop\n      0x60\n      dup3\n      add\n      mload\n      dup2\n      0x01\n      add\n      exp(0x0100, 0x02)\n      dup2\n      sload\n      dup2\n      0xff\n      mul\n      not\n      and\n      swap1\n      dup4\n      iszero\n      iszero\n      mul\n      or\n      swap1\n      sstore\n      pop\n      0x80\n      dup3\n      add\n      mload\n      dup2\n      0x01\n      add\n      exp(0x0100, 0x03)\n      dup2\n      sload\n      dup2\n      0xff\n      mul\n      not\n      and\n      swap1\n      dup4\n      iszero\n      iszero\n      mul\n      or\n      swap1\n      sstore\n      pop\n      0xa0\n      dup3\n      add\n      mload\n      dup2\n      0x01\n      add\n      exp(0x0100, 0x04)\n      dup2\n      sload\n      dup2\n      0xff\n      mul\n      not\n      and\n      swap1\n      dup4\n      0x06\n      dup2\n      gt\n      iszero\n      tag_104\n      jumpi\n      mstore(0x00, 0x4e487b7100000000000000000000000000000000000000000000000000000000)\n      mstore(0x04, 0x21)\n      revert(0x00, 0x24)\n    tag_104:\n      mul\n      or\n      swap1\n      sstore\n      pop\n      0xc0\n      dup3\n      add\n      mload\n      dup2\n      0x02\n      add\n      0x00\n      dup3\n      add\n      mload\n      dup2\n      0x00\n      add\n      sstore\n      0x20\n      dup3\n      add\n      mload\n      dup2\n      0x01\n      add\n      swap1\n      dup1\n      mload\n      swap1\n      0x20\n      add\n      swap1\n      tag_105\n      swap3\n      swap2\n      swap1\n      tag_87\n      jump\t// in\n    tag_105:\n      pop\n      pop\n      pop\n      0xe0\n      dup3\n      add\n      mload\n      dup2\n      0x04\n      add\n      0x00\n      dup3\n      add\n      mload\n      dup2\n      0x00\n      add\n      sstore\n      0x20\n      dup3\n      add\n      mload\n      dup2\n      0x01\n      add\n      swap1\n      dup1\n      mload\n      swap1\n      0x20\n      add\n      swap1\n      tag_106\n      swap3\n      swap2\n      swap1\n      tag_84\n      jump\t// in\n    tag_106:\n      pop\n      pop\n      pop\n      pop\n      pop\n      swap1\n      pop\n      pop\n        /* \"BasicEnzian.sol\":2023:2625  function createTask(\r... */\n      pop\n      pop\n      pop\n      pop\n      pop\n      pop\n      pop\n      jump\t// out\n        /* \"BasicEnzian.sol\":2637:3186  function addDecisionToTask(\r... */\n    tag_33:\n        /* \"BasicEnzian.sol\":2858:2870  bool success */\n      0x00\n        /* \"BasicEnzian.sol\":2930:2942  _gatewaytype */\n      dup5\n        /* \"BasicEnzian.sol\":2893:2898  tasks */\n      0x00\n        /* \"BasicEnzian.sol\":2893:2906  tasks[taskId] */\n      dup1\n        /* \"BasicEnzian.sol\":2899:2905  taskId */\n      dup9\n        /* \"BasicEnzian.sol\":2893:2906  tasks[taskId] */\n      dup2\n      mstore\n      0x20\n      add\n      swap1\n      dup2\n      mstore\n      0x20\n      add\n      0x00\n      keccak256\n        /* \"BasicEnzian.sol\":2893:2915  tasks[taskId].decision */\n      0x04\n      add\n        /* \"BasicEnzian.sol\":2893:2927  tasks[taskId].decision.gatewaytype */\n      0x01\n      add\n      0x00\n        /* \"BasicEnzian.sol\":2893:2942  tasks[taskId].decision.gatewaytype = _gatewaytype */\n      0x0100\n      exp\n      dup2\n      sload\n      dup2\n      0xff\n      mul\n      not\n      and\n      swap1\n      dup4\n      0x03\n      dup2\n      gt\n      iszero\n      tag_108\n      jumpi\n      mstore(0x00, 0x4e487b7100000000000000000000000000000000000000000000000000000000)\n      mstore(0x04, 0x21)\n      revert(0x00, 0x24)\n    tag_108:\n      mul\n      or\n      swap1\n      sstore\n      pop\n        /* \"BasicEnzian.sol\":2982:2987  _type */\n      dup4\n        /* \"BasicEnzian.sol\":2953:2958  tasks */\n      0x00\n        /* \"BasicEnzian.sol\":2953:2966  tasks[taskId] */\n      dup1\n        /* \"BasicEnzian.sol\":2959:2965  taskId */\n      dup9\n        /* \"BasicEnzian.sol\":2953:2966  tasks[taskId] */\n      dup2\n      mstore\n      0x20\n      add\n      swap1\n      dup2\n      mstore\n      0x20\n      add\n      0x00\n      keccak256\n        /* \"BasicEnzian.sol\":2953:2975  tasks[taskId].decision */\n      0x04\n      add\n        /* \"BasicEnzian.sol\":2953:2979  tasks[taskId].decision.typ */\n      0x01\n      add\n      0x01\n        /* \"BasicEnzian.sol\":2953:2987  tasks[taskId].decision.typ = _type */\n      0x0100\n      exp\n      dup2\n      sload\n      dup2\n      0xff\n      mul\n      not\n      and\n      swap1\n      dup4\n      0x02\n      dup2\n      gt\n      iszero\n      tag_109\n      jumpi\n      mstore(0x00, 0x4e487b7100000000000000000000000000000000000000000000000000000000)\n      mstore(0x04, 0x21)\n      revert(0x00, 0x24)\n    tag_109:\n      mul\n      or\n      swap1\n      sstore\n      pop\n        /* \"BasicEnzian.sol\":3032:3035  _op */\n      dup3\n        /* \"BasicEnzian.sol\":2998:3003  tasks */\n      0x00\n        /* \"BasicEnzian.sol\":2998:3011  tasks[taskId] */\n      dup1\n        /* \"BasicEnzian.sol\":3004:3010  taskId */\n      dup9\n        /* \"BasicEnzian.sol\":2998:3011  tasks[taskId] */\n      dup2\n      mstore\n      0x20\n      add\n      swap1\n      dup2\n      mstore\n      0x20\n      add\n      0x00\n      keccak256\n        /* \"BasicEnzian.sol\":2998:3020  tasks[taskId].decision */\n      0x04\n      add\n        /* \"BasicEnzian.sol\":2998:3029  tasks[taskId].decision.operator */\n      0x01\n      add\n      0x04\n        /* \"BasicEnzian.sol\":2998:3035  tasks[taskId].decision.operator = _op */\n      0x0100\n      exp\n      dup2\n      sload\n      dup2\n      0xff\n      mul\n      not\n      and\n      swap1\n      dup4\n      0x06\n      dup2\n      gt\n      iszero\n      tag_110\n      jumpi\n      mstore(0x00, 0x4e487b7100000000000000000000000000000000000000000000000000000000)\n      mstore(0x04, 0x21)\n      revert(0x00, 0x24)\n    tag_110:\n      mul\n      or\n      swap1\n      sstore\n      pop\n        /* \"BasicEnzian.sol\":3087:3099  _intoperants */\n      dup2\n        /* \"BasicEnzian.sol\":3046:3051  tasks */\n      0x00\n        /* \"BasicEnzian.sol\":3046:3059  tasks[taskId] */\n      dup1\n        /* \"BasicEnzian.sol\":3052:3058  taskId */\n      dup9\n        /* \"BasicEnzian.sol\":3046:3059  tasks[taskId] */\n      dup2\n      mstore\n      0x20\n      add\n      swap1\n      dup2\n      mstore\n      0x20\n      add\n      0x00\n      keccak256\n        /* \"BasicEnzian.sol\":3046:3068  tasks[taskId].decision */\n      0x04\n      add\n        /* \"BasicEnzian.sol\":3046:3084  tasks[taskId].decision.integeroperants */\n      0x02\n      add\n        /* \"BasicEnzian.sol\":3046:3099  tasks[taskId].decision.integeroperants = _intoperants */\n      0x00\n      dup3\n      add\n      mload\n      dup2\n      0x00\n      add\n      sstore\n      0x20\n      dup3\n      add\n      mload\n      dup2\n      0x01\n      add\n      swap1\n      dup1\n      mload\n      swap1\n      0x20\n      add\n      swap1\n      tag_111\n      swap3\n      swap2\n      swap1\n      tag_87\n      jump\t// in\n    tag_111:\n      pop\n      swap1\n      pop\n      pop\n        /* \"BasicEnzian.sol\":3142:3146  true */\n      0x01\n        /* \"BasicEnzian.sol\":3110:3115  tasks */\n      0x00\n        /* \"BasicEnzian.sol\":3110:3123  tasks[taskId] */\n      dup1\n        /* \"BasicEnzian.sol\":3116:3122  taskId */\n      dup9\n        /* \"BasicEnzian.sol\":3110:3123  tasks[taskId] */\n      dup2\n      mstore\n      0x20\n      add\n      swap1\n      dup2\n      mstore\n      0x20\n      add\n      0x00\n      keccak256\n        /* \"BasicEnzian.sol\":3110:3132  tasks[taskId].decision */\n      0x04\n      add\n        /* \"BasicEnzian.sol\":3110:3139  tasks[taskId].decision.exists */\n      0x01\n      add\n      0x03\n        /* \"BasicEnzian.sol\":3110:3146  tasks[taskId].decision.exists = true */\n      0x0100\n      exp\n      dup2\n      sload\n      dup2\n      0xff\n      mul\n      not\n      and\n      swap1\n      dup4\n      iszero\n      iszero\n      mul\n      or\n      swap1\n      sstore\n      pop\n        /* \"BasicEnzian.sol\":3164:3168  true */\n      0x01\n        /* \"BasicEnzian.sol\":3157:3168  return true */\n      swap1\n      pop\n        /* \"BasicEnzian.sol\":2637:3186  function addDecisionToTask(\r... */\n      swap6\n      swap5\n      pop\n      pop\n      pop\n      pop\n      pop\n      jump\t// out\n        /* \"BasicEnzian.sol\":1744:1870  function getDebugStringeventLog() public view returns(string[] memory theevents) {\r... */\n    tag_36:\n        /* \"BasicEnzian.sol\":1798:1823  string[] memory theevents */\n      0x60\n        /* \"BasicEnzian.sol\":1843:1862  debugStringeventLog */\n      0x04\n        /* \"BasicEnzian.sol\":1836:1862  return debugStringeventLog */\n      dup1\n      sload\n      dup1\n      0x20\n      mul\n      0x20\n      add\n      mload(0x40)\n      swap1\n      dup2\n      add\n      0x40\n      mstore\n      dup1\n      swap3\n      swap2\n      swap1\n      dup2\n      dup2\n      mstore\n      0x20\n      add\n      0x00\n      swap1\n    tag_113:\n      dup3\n      dup3\n      lt\n      iszero\n      tag_114\n      jumpi\n      dup4\n      dup3\n      swap1\n      0x00\n      mstore\n      keccak256(0x00, 0x20)\n      add\n      dup1\n      sload\n      tag_116\n      swap1\n      tag_117\n      jump\t// in\n    tag_116:\n      dup1\n      0x1f\n      add\n      0x20\n      dup1\n      swap2\n      div\n      mul\n      0x20\n      add\n      mload(0x40)\n      swap1\n      dup2\n      add\n      0x40\n      mstore\n      dup1\n      swap3\n      swap2\n      swap1\n      dup2\n      dup2\n      mstore\n      0x20\n      add\n      dup3\n      dup1\n      sload\n      tag_118\n      swap1\n      tag_117\n      jump\t// in\n    tag_118:\n      dup1\n      iszero\n      tag_119\n      jumpi\n      dup1\n      0x1f\n      lt\n      tag_120\n      jumpi\n      0x0100\n      dup1\n      dup4\n      sload\n      div\n      mul\n      dup4\n      mstore\n      swap2\n      0x20\n      add\n      swap2\n      jump(tag_119)\n    tag_120:\n      dup3\n      add\n      swap2\n      swap1\n      0x00\n      mstore\n      keccak256(0x00, 0x20)\n      swap1\n    tag_121:\n      dup2\n      sload\n      dup2\n      mstore\n      swap1\n      0x01\n      add\n      swap1\n      0x20\n      add\n      dup1\n      dup4\n      gt\n      tag_121\n      jumpi\n      dup3\n      swap1\n      sub\n      0x1f\n      and\n      dup3\n      add\n      swap2\n    tag_119:\n      pop\n      pop\n      pop\n      pop\n      pop\n      dup2\n      mstore\n      0x20\n      add\n      swap1\n      0x01\n      add\n      swap1\n      jump(tag_113)\n    tag_114:\n      pop\n      pop\n      pop\n      pop\n      swap1\n      pop\n        /* \"BasicEnzian.sol\":1744:1870  function getDebugStringeventLog() public view returns(string[] memory theevents) {\r... */\n      swap1\n      jump\t// out\n        /* \"BasicEnzian.sol\":1702:1737  string[] public debugStringeventLog */\n    tag_42:\n      0x04\n      dup2\n      dup2\n      sload\n      dup2\n      lt\n      tag_122\n      jumpi\n      0x00\n      dup1\n      revert\n    tag_122:\n      swap1\n      0x00\n      mstore\n      keccak256(0x00, 0x20)\n      add\n      0x00\n      swap2\n      pop\n      swap1\n      pop\n      dup1\n      sload\n      tag_124\n      swap1\n      tag_117\n      jump\t// in\n    tag_124:\n      dup1\n      0x1f\n      add\n      0x20\n      dup1\n      swap2\n      div\n      mul\n      0x20\n      add\n      mload(0x40)\n      swap1\n      dup2\n      add\n      0x40\n      mstore\n      dup1\n      swap3\n      swap2\n      swap1\n      dup2\n      dup2\n      mstore\n      0x20\n      add\n      dup3\n      dup1\n      sload\n      tag_125\n      swap1\n      tag_117\n      jump\t// in\n    tag_125:\n      dup1\n      iszero\n      tag_126\n      jumpi\n      dup1\n      0x1f\n      lt\n      tag_127\n      jumpi\n      0x0100\n      dup1\n      dup4\n      sload\n      div\n      mul\n      dup4\n      mstore\n      swap2\n      0x20\n      add\n      swap2\n      jump(tag_126)\n    tag_127:\n      dup3\n      add\n      swap2\n      swap1\n      0x00\n      mstore\n      keccak256(0x00, 0x20)\n      swap1\n    tag_128:\n      dup2\n      sload\n      dup2\n      mstore\n      swap1\n      0x01\n      add\n      swap1\n      0x20\n      add\n      dup1\n      dup4\n      gt\n      tag_128\n      jumpi\n      dup3\n      swap1\n      sub\n      0x1f\n      and\n      dup3\n      add\n      swap2\n    tag_126:\n      pop\n      pop\n      pop\n      pop\n      pop\n      dup2\n      jump\t// out\n        /* \"BasicEnzian.sol\":8927:9064  function decisionTest() public pure returns(uint drei) {\r... */\n    tag_46:\n        /* \"BasicEnzian.sol\":8971:8980  uint drei */\n      0x00\n        /* \"BasicEnzian.sol\":8993:9001  uint zwo */\n      dup1\n        /* \"BasicEnzian.sol\":9004:9019  DecisionLibrary */\n      linkerSymbol(\"80c56c7074f1c42024adf49f5dc2b40495aa8bbb68c1dca7ae61973c3346d226\")\n        /* \"BasicEnzian.sol\":9004:9029  DecisionLibrary.returnZwo */\n      0xc237647f\n        /* \"BasicEnzian.sol\":9004:9031  DecisionLibrary.returnZwo() */\n      mload(0x40)\n      dup2\n      0xffffffff\n      and\n      0xe0\n      shl\n      dup2\n      mstore\n      0x04\n      add\n      0x20\n      mload(0x40)\n      dup1\n      dup4\n      sub\n      dup2\n      dup7\n      dup1\n      extcodesize\n      iszero\n      dup1\n      iszero\n      tag_130\n      jumpi\n      0x00\n      dup1\n      revert\n    tag_130:\n      pop\n      gas\n      delegatecall\n      iszero\n      dup1\n      iszero\n      tag_132\n      jumpi\n      returndatasize\n      0x00\n      dup1\n      returndatacopy\n      revert(0x00, returndatasize)\n    tag_132:\n      pop\n      pop\n      pop\n      pop\n      mload(0x40)\n      returndatasize\n      not(0x1f)\n      0x1f\n      dup3\n      add\n      and\n      dup3\n      add\n      dup1\n      0x40\n      mstore\n      pop\n      dup2\n      add\n      swap1\n      tag_133\n      swap2\n      swap1\n      tag_134\n      jump\t// in\n    tag_133:\n        /* \"BasicEnzian.sol\":8993:9031  uint zwo = DecisionLibrary.returnZwo() */\n      swap1\n      pop\n        /* \"BasicEnzian.sol\":9053:9054  5 */\n      0x05\n        /* \"BasicEnzian.sol\":9049:9052  zwo */\n      dup2\n        /* \"BasicEnzian.sol\":9049:9054  zwo+5 */\n      tag_135\n      swap2\n      swap1\n      tag_136\n      jump\t// in\n    tag_135:\n        /* \"BasicEnzian.sol\":9042:9054  return zwo+5 */\n      swap2\n      pop\n      pop\n        /* \"BasicEnzian.sol\":8927:9064  function decisionTest() public pure returns(uint drei) {\r... */\n      swap1\n      jump\t// out\n        /* \"BasicEnzian.sol\":1498:1602  function getLog() public view returns(uint[] memory theevents) {\r... */\n    tag_50:\n        /* \"BasicEnzian.sol\":1536:1559  uint[] memory theevents */\n      0x60\n        /* \"BasicEnzian.sol\":1579:1594  theRealEventLog */\n      0x03\n        /* \"BasicEnzian.sol\":1572:1594  return theRealEventLog */\n      dup1\n      sload\n      dup1\n      0x20\n      mul\n      0x20\n      add\n      mload(0x40)\n      swap1\n      dup2\n      add\n      0x40\n      mstore\n      dup1\n      swap3\n      swap2\n      swap1\n      dup2\n      dup2\n      mstore\n      0x20\n      add\n      dup3\n      dup1\n      sload\n      dup1\n      iszero\n      tag_138\n      jumpi\n      0x20\n      mul\n      dup3\n      add\n      swap2\n      swap1\n      0x00\n      mstore\n      keccak256(0x00, 0x20)\n      swap1\n    tag_139:\n      dup2\n      sload\n      dup2\n      mstore\n      0x20\n      add\n      swap1\n      0x01\n      add\n      swap1\n      dup1\n      dup4\n      gt\n      tag_139\n      jumpi\n    tag_138:\n      pop\n      pop\n      pop\n      pop\n      pop\n      swap1\n      pop\n        /* \"BasicEnzian.sol\":1498:1602  function getLog() public view returns(uint[] memory theevents) {\r... */\n      swap1\n      jump\t// out\n        /* \"BasicEnzian.sol\":1462:1491  uint[] public theRealEventLog */\n    tag_55:\n      0x03\n      dup2\n      dup2\n      sload\n      dup2\n      lt\n      tag_140\n      jumpi\n      0x00\n      dup1\n      revert\n    tag_140:\n      swap1\n      0x00\n      mstore\n      keccak256(0x00, 0x20)\n      add\n      0x00\n      swap2\n      pop\n      swap1\n      pop\n      sload\n      dup2\n      jump\t// out\n        /* \"BasicEnzian.sol\":8522:8919  function getTaskById(uint _id) public view returns (bool status,\r... */\n    tag_59:\n        /* \"BasicEnzian.sol\":8574:8585  bool status */\n      0x00\n        /* \"BasicEnzian.sol\":8596:8621  string memory description */\n      0x60\n        /* \"BasicEnzian.sol\":8623:8643  address taskresource */\n      0x00\n        /* \"BasicEnzian.sol\":8645:8664  GatewayType gateway */\n      dup1\n        /* \"BasicEnzian.sol\":8675:8701  uint[] memory requirements */\n      0x60\n        /* \"BasicEnzian.sol\":8703:8728  uint[] memory competitors */\n      dup1\n        /* \"BasicEnzian.sol\":8748:8753  tasks */\n      0x00\n        /* \"BasicEnzian.sol\":8748:8758  tasks[_id] */\n      dup1\n        /* \"BasicEnzian.sol\":8754:8757  _id */\n      dup9\n        /* \"BasicEnzian.sol\":8748:8758  tasks[_id] */\n      dup2\n      mstore\n      0x20\n      add\n      swap1\n      dup2\n      mstore\n      0x20\n      add\n      0x00\n      keccak256\n        /* \"BasicEnzian.sol\":8748:8768  tasks[_id].completed */\n      0x01\n      add\n      0x14\n      swap1\n      sload\n      swap1\n      0x0100\n      exp\n      swap1\n      div\n      0xff\n      and\n        /* \"BasicEnzian.sol\":8770:8775  tasks */\n      0x00\n        /* \"BasicEnzian.sol\":8770:8780  tasks[_id] */\n      dup1\n        /* \"BasicEnzian.sol\":8776:8779  _id */\n      dup10\n        /* \"BasicEnzian.sol\":8770:8780  tasks[_id] */\n      dup2\n      mstore\n      0x20\n      add\n      swap1\n      dup2\n      mstore\n      0x20\n      add\n      0x00\n      keccak256\n        /* \"BasicEnzian.sol\":8770:8789  tasks[_id].activity */\n      0x00\n      add\n        /* \"BasicEnzian.sol\":8791:8796  tasks */\n      0x00\n        /* \"BasicEnzian.sol\":8791:8801  tasks[_id] */\n      dup1\n        /* \"BasicEnzian.sol\":8797:8800  _id */\n      dup11\n        /* \"BasicEnzian.sol\":8791:8801  tasks[_id] */\n      dup2\n      mstore\n      0x20\n      add\n      swap1\n      dup2\n      mstore\n      0x20\n      add\n      0x00\n      keccak256\n        /* \"BasicEnzian.sol\":8791:8814  tasks[_id].taskresource */\n      0x01\n      add\n      0x00\n      swap1\n      sload\n      swap1\n      0x0100\n      exp\n      swap1\n      div\n      0xffffffffffffffffffffffffffffffffffffffff\n      and\n        /* \"BasicEnzian.sol\":8826:8831  tasks */\n      0x00\n        /* \"BasicEnzian.sol\":8826:8836  tasks[_id] */\n      dup1\n        /* \"BasicEnzian.sol\":8832:8835  _id */\n      dup12\n        /* \"BasicEnzian.sol\":8826:8836  tasks[_id] */\n      dup2\n      mstore\n      0x20\n      add\n      swap1\n      dup2\n      mstore\n      0x20\n      add\n      0x00\n      keccak256\n        /* \"BasicEnzian.sol\":8826:8861  tasks[_id].preceedingMergingGateway */\n      0x01\n      add\n      0x15\n      swap1\n      sload\n      swap1\n      0x0100\n      exp\n      swap1\n      div\n      0xff\n      and\n        /* \"BasicEnzian.sol\":8863:8868  tasks */\n      0x00\n        /* \"BasicEnzian.sol\":8863:8873  tasks[_id] */\n      dup1\n        /* \"BasicEnzian.sol\":8869:8872  _id */\n      dup13\n        /* \"BasicEnzian.sol\":8863:8873  tasks[_id] */\n      dup2\n      mstore\n      0x20\n      add\n      swap1\n      dup2\n      mstore\n      0x20\n      add\n      0x00\n      keccak256\n        /* \"BasicEnzian.sol\":8863:8886  tasks[_id].requirements */\n      0x02\n      add\n        /* \"BasicEnzian.sol\":8888:8893  tasks */\n      0x00\n        /* \"BasicEnzian.sol\":8888:8898  tasks[_id] */\n      dup1\n        /* \"BasicEnzian.sol\":8894:8897  _id */\n      dup14\n        /* \"BasicEnzian.sol\":8888:8898  tasks[_id] */\n      dup2\n      mstore\n      0x20\n      add\n      swap1\n      dup2\n      mstore\n      0x20\n      add\n      0x00\n      keccak256\n        /* \"BasicEnzian.sol\":8888:8910  tasks[_id].competitors */\n      0x03\n      add\n        /* \"BasicEnzian.sol\":8740:8911  return (tasks[_id].completed, tasks[_id].activity, tasks[_id].taskresource,\r... */\n      dup5\n      dup1\n      sload\n      tag_143\n      swap1\n      tag_117\n      jump\t// in\n    tag_143:\n      dup1\n      0x1f\n      add\n      0x20\n      dup1\n      swap2\n      div\n      mul\n      0x20\n      add\n      mload(0x40)\n      swap1\n      dup2\n      add\n      0x40\n      mstore\n      dup1\n      swap3\n      swap2\n      swap1\n      dup2\n      dup2\n      mstore\n      0x20\n      add\n      dup3\n      dup1\n      sload\n      tag_144\n      swap1\n      tag_117\n      jump\t// in\n    tag_144:\n      dup1\n      iszero\n      tag_145\n      jumpi\n      dup1\n      0x1f\n      lt\n      tag_146\n      jumpi\n      0x0100\n      dup1\n      dup4\n      sload\n      div\n      mul\n      dup4\n      mstore\n      swap2\n      0x20\n      add\n      swap2\n      jump(tag_145)\n    tag_146:\n      dup3\n      add\n      swap2\n      swap1\n      0x00\n      mstore\n      keccak256(0x00, 0x20)\n      swap1\n    tag_147:\n      dup2\n      sload\n      dup2\n      mstore\n      swap1\n      0x01\n      add\n      swap1\n      0x20\n      add\n      dup1\n      dup4\n      gt\n      tag_147\n      jumpi\n      dup3\n      swap1\n      sub\n      0x1f\n      and\n      dup3\n      add\n      swap2\n    tag_145:\n      pop\n      pop\n      pop\n      pop\n      pop\n      swap5\n      pop\n      dup2\n      dup1\n      sload\n      dup1\n      0x20\n      mul\n      0x20\n      add\n      mload(0x40)\n      swap1\n      dup2\n      add\n      0x40\n      mstore\n      dup1\n      swap3\n      swap2\n      swap1\n      dup2\n      dup2\n      mstore\n      0x20\n      add\n      dup3\n      dup1\n      sload\n      dup1\n      iszero\n      tag_148\n      jumpi\n      0x20\n      mul\n      dup3\n      add\n      swap2\n      swap1\n      0x00\n      mstore\n      keccak256(0x00, 0x20)\n      swap1\n    tag_149:\n      dup2\n      sload\n      dup2\n      mstore\n      0x20\n      add\n      swap1\n      0x01\n      add\n      swap1\n      dup1\n      dup4\n      gt\n      tag_149\n      jumpi\n    tag_148:\n      pop\n      pop\n      pop\n      pop\n      pop\n      swap2\n      pop\n      dup1\n      dup1\n      sload\n      dup1\n      0x20\n      mul\n      0x20\n      add\n      mload(0x40)\n      swap1\n      dup2\n      add\n      0x40\n      mstore\n      dup1\n      swap3\n      swap2\n      swap1\n      dup2\n      dup2\n      mstore\n      0x20\n      add\n      dup3\n      dup1\n      sload\n      dup1\n      iszero\n      tag_150\n      jumpi\n      0x20\n      mul\n      dup3\n      add\n      swap2\n      swap1\n      0x00\n      mstore\n      keccak256(0x00, 0x20)\n      swap1\n    tag_151:\n      dup2\n      sload\n      dup2\n      mstore\n      0x20\n      add\n      swap1\n      0x01\n      add\n      swap1\n      dup1\n      dup4\n      gt\n      tag_151\n      jumpi\n    tag_150:\n      pop\n      pop\n      pop\n      pop\n      pop\n      swap1\n      pop\n      swap6\n      pop\n      swap6\n      pop\n      swap6\n      pop\n      swap6\n      pop\n      swap6\n      pop\n      swap6\n      pop\n        /* \"BasicEnzian.sol\":8522:8919  function getTaskById(uint _id) public view returns (bool status,\r... */\n      swap2\n      swap4\n      swap6\n      pop\n      swap2\n      swap4\n      swap6\n      jump\t// out\n        /* \"BasicEnzian.sol\":8294:8417  function isTaskCompletedById(uint _id) public view returns (bool success){\r... */\n    tag_64:\n        /* \"BasicEnzian.sol\":8354:8366  bool success */\n      0x00\n        /* \"BasicEnzian.sol\":8388:8393  tasks */\n      dup1\n        /* \"BasicEnzian.sol\":8388:8398  tasks[_id] */\n      0x00\n        /* \"BasicEnzian.sol\":8394:8397  _id */\n      dup4\n        /* \"BasicEnzian.sol\":8388:8398  tasks[_id] */\n      dup2\n      mstore\n      0x20\n      add\n      swap1\n      dup2\n      mstore\n      0x20\n      add\n      0x00\n      keccak256\n        /* \"BasicEnzian.sol\":8388:8408  tasks[_id].completed */\n      0x01\n      add\n      0x14\n      swap1\n      sload\n      swap1\n      0x0100\n      exp\n      swap1\n      div\n      0xff\n      and\n        /* \"BasicEnzian.sol\":8380:8409  return (tasks[_id].completed) */\n      swap1\n      pop\n        /* \"BasicEnzian.sol\":8294:8417  function isTaskCompletedById(uint _id) public view returns (bool success){\r... */\n      swap2\n      swap1\n      pop\n      jump\t// out\n        /* \"BasicEnzian.sol\":4013:7215  function completing(uint taskId) public returns (bool success){\r... */\n    tag_68:\n        /* \"BasicEnzian.sol\":4062:4074  bool success */\n      0x00\n        /* \"BasicEnzian.sol\":4141:4157  address resource */\n      dup1\n        /* \"BasicEnzian.sol\":4160:4165  tasks */\n      0x00\n        /* \"BasicEnzian.sol\":4160:4173  tasks[taskId] */\n      dup1\n        /* \"BasicEnzian.sol\":4166:4172  taskId */\n      dup5\n        /* \"BasicEnzian.sol\":4160:4173  tasks[taskId] */\n      dup2\n      mstore\n      0x20\n      add\n      swap1\n      dup2\n      mstore\n      0x20\n      add\n      0x00\n      keccak256\n        /* \"BasicEnzian.sol\":4160:4186  tasks[taskId].taskresource */\n      0x01\n      add\n      0x00\n      swap1\n      sload\n      swap1\n      0x0100\n      exp\n      swap1\n      div\n      0xffffffffffffffffffffffffffffffffffffffff\n      and\n        /* \"BasicEnzian.sol\":4141:4186  address resource = tasks[taskId].taskresource */\n      swap1\n      pop\n        /* \"BasicEnzian.sol\":4225:4226  0 */\n      0x00\n        /* \"BasicEnzian.sol\":4205:4227  resource == address(0) */\n      0xffffffffffffffffffffffffffffffffffffffff\n      and\n        /* \"BasicEnzian.sol\":4205:4213  resource */\n      dup2\n        /* \"BasicEnzian.sol\":4205:4227  resource == address(0) */\n      0xffffffffffffffffffffffffffffffffffffffff\n      and\n      eq\n        /* \"BasicEnzian.sol\":4205:4253  resource == address(0) || resource == msg.sender */\n      dup1\n      tag_154\n      jumpi\n      pop\n        /* \"BasicEnzian.sol\":4243:4253  msg.sender */\n      caller\n        /* \"BasicEnzian.sol\":4231:4253  resource == msg.sender */\n      0xffffffffffffffffffffffffffffffffffffffff\n      and\n        /* \"BasicEnzian.sol\":4231:4239  resource */\n      dup2\n        /* \"BasicEnzian.sol\":4231:4253  resource == msg.sender */\n      0xffffffffffffffffffffffffffffffffffffffff\n      and\n      eq\n        /* \"BasicEnzian.sol\":4205:4253  resource == address(0) || resource == msg.sender */\n    tag_154:\n        /* \"BasicEnzian.sol\":4255:4260  tasks */\n      0x00\n        /* \"BasicEnzian.sol\":4255:4268  tasks[taskId] */\n      dup1\n        /* \"BasicEnzian.sol\":4261:4267  taskId */\n      dup6\n        /* \"BasicEnzian.sol\":4255:4268  tasks[taskId] */\n      dup2\n      mstore\n      0x20\n      add\n      swap1\n      dup2\n      mstore\n      0x20\n      add\n      0x00\n      keccak256\n        /* \"BasicEnzian.sol\":4255:4277  tasks[taskId].activity */\n      0x00\n      add\n        /* \"BasicEnzian.sol\":4197:4278  require(resource == address(0) || resource == msg.sender, tasks[taskId].activity) */\n      swap1\n      tag_155\n      jumpi\n      mload(0x40)\n      0x08c379a000000000000000000000000000000000000000000000000000000000\n      dup2\n      mstore\n      0x04\n      add\n      tag_156\n      swap2\n      swap1\n      tag_157\n      jump\t// in\n    tag_156:\n      mload(0x40)\n      dup1\n      swap2\n      sub\n      swap1\n      revert\n    tag_155:\n      pop\n        /* \"BasicEnzian.sol\":4618:4648  uint[] memory requiredTasksIds */\n      0x00\n        /* \"BasicEnzian.sol\":4651:4656  tasks */\n      dup1\n        /* \"BasicEnzian.sol\":4651:4664  tasks[taskId] */\n      0x00\n        /* \"BasicEnzian.sol\":4657:4663  taskId */\n      dup6\n        /* \"BasicEnzian.sol\":4651:4664  tasks[taskId] */\n      dup2\n      mstore\n      0x20\n      add\n      swap1\n      dup2\n      mstore\n      0x20\n      add\n      0x00\n      keccak256\n        /* \"BasicEnzian.sol\":4651:4677  tasks[taskId].requirements */\n      0x02\n      add\n        /* \"BasicEnzian.sol\":4618:4677  uint[] memory requiredTasksIds = tasks[taskId].requirements */\n      dup1\n      sload\n      dup1\n      0x20\n      mul\n      0x20\n      add\n      mload(0x40)\n      swap1\n      dup2\n      add\n      0x40\n      mstore\n      dup1\n      swap3\n      swap2\n      swap1\n      dup2\n      dup2\n      mstore\n      0x20\n      add\n      dup3\n      dup1\n      sload\n      dup1\n      iszero\n      tag_158\n      jumpi\n      0x20\n      mul\n      dup3\n      add\n      swap2\n      swap1\n      0x00\n      mstore\n      keccak256(0x00, 0x20)\n      swap1\n    tag_159:\n      dup2\n      sload\n      dup2\n      mstore\n      0x20\n      add\n      swap1\n      0x01\n      add\n      swap1\n      dup1\n      dup4\n      gt\n      tag_159\n      jumpi\n    tag_158:\n      pop\n      pop\n      pop\n      pop\n      pop\n      swap1\n      pop\n        /* \"BasicEnzian.sol\":4719:4720  0 */\n      0x00\n        /* \"BasicEnzian.sol\":4692:4708  requiredTasksIds */\n      dup2\n        /* \"BasicEnzian.sol\":4692:4715  requiredTasksIds.length */\n      mload\n        /* \"BasicEnzian.sol\":4692:4720  requiredTasksIds.length == 0 */\n      eq\n        /* \"BasicEnzian.sol\":4688:6848  if (requiredTasksIds.length == 0) {\r... */\n      iszero\n      tag_160\n      jumpi\n        /* \"BasicEnzian.sol\":4747:4751  true */\n      0x01\n        /* \"BasicEnzian.sol\":4737:4751  success = true */\n      swap3\n      pop\n        /* \"BasicEnzian.sol\":4688:6848  if (requiredTasksIds.length == 0) {\r... */\n      jump(tag_161)\n    tag_160:\n        /* \"BasicEnzian.sol\":4793:4812  GatewayType gateway */\n      0x00\n        /* \"BasicEnzian.sol\":4815:4820  tasks */\n      dup1\n        /* \"BasicEnzian.sol\":4815:4828  tasks[taskId] */\n      0x00\n        /* \"BasicEnzian.sol\":4821:4827  taskId */\n      dup7\n        /* \"BasicEnzian.sol\":4815:4828  tasks[taskId] */\n      dup2\n      mstore\n      0x20\n      add\n      swap1\n      dup2\n      mstore\n      0x20\n      add\n      0x00\n      keccak256\n        /* \"BasicEnzian.sol\":4815:4853  tasks[taskId].preceedingMergingGateway */\n      0x01\n      add\n      0x15\n      swap1\n      sload\n      swap1\n      0x0100\n      exp\n      swap1\n      div\n      0xff\n      and\n        /* \"BasicEnzian.sol\":4793:4853  GatewayType gateway = tasks[taskId].preceedingMergingGateway */\n      swap1\n      pop\n        /* \"BasicEnzian.sol\":4897:4913  GatewayType.NONE */\n      0x00\n        /* \"BasicEnzian.sol\":4886:4913  gateway == GatewayType.NONE */\n      0x03\n      dup2\n      gt\n      iszero\n      tag_162\n      jumpi\n      mstore(0x00, 0x4e487b7100000000000000000000000000000000000000000000000000000000)\n      mstore(0x04, 0x21)\n      revert(0x00, 0x24)\n    tag_162:\n        /* \"BasicEnzian.sol\":4886:4893  gateway */\n      dup2\n        /* \"BasicEnzian.sol\":4886:4913  gateway == GatewayType.NONE */\n      0x03\n      dup2\n      gt\n      iszero\n      tag_163\n      jumpi\n      mstore(0x00, 0x4e487b7100000000000000000000000000000000000000000000000000000000)\n      mstore(0x04, 0x21)\n      revert(0x00, 0x24)\n    tag_163:\n      eq\n        /* \"BasicEnzian.sol\":4882:6817  if (gateway == GatewayType.NONE) {\r... */\n      iszero\n      tag_164\n      jumpi\n        /* \"BasicEnzian.sol\":4982:4986  true */\n      0x01\n        /* \"BasicEnzian.sol\":4938:4986  isTaskCompletedById(requiredTasksIds[0]) == true */\n      iszero\n      iszero\n        /* \"BasicEnzian.sol\":4938:4978  isTaskCompletedById(requiredTasksIds[0]) */\n      tag_165\n        /* \"BasicEnzian.sol\":4958:4974  requiredTasksIds */\n      dup4\n        /* \"BasicEnzian.sol\":4975:4976  0 */\n      0x00\n        /* \"BasicEnzian.sol\":4958:4977  requiredTasksIds[0] */\n      dup2\n      mload\n      dup2\n      lt\n      tag_166\n      jumpi\n      mstore(0x00, 0x4e487b7100000000000000000000000000000000000000000000000000000000)\n      mstore(0x04, 0x32)\n      revert(0x00, 0x24)\n    tag_166:\n      0x20\n      mul\n      0x20\n      add\n      add\n      mload\n        /* \"BasicEnzian.sol\":4938:4957  isTaskCompletedById */\n      tag_64\n        /* \"BasicEnzian.sol\":4938:4978  isTaskCompletedById(requiredTasksIds[0]) */\n      jump\t// in\n    tag_165:\n        /* \"BasicEnzian.sol\":4938:4986  isTaskCompletedById(requiredTasksIds[0]) == true */\n      iszero\n      iszero\n      eq\n        /* \"BasicEnzian.sol\":4934:5045  if (isTaskCompletedById(requiredTasksIds[0]) == true) {\r... */\n      iszero\n      tag_167\n      jumpi\n        /* \"BasicEnzian.sol\":5021:5025  true */\n      0x01\n        /* \"BasicEnzian.sol\":5011:5025  success = true */\n      swap4\n      pop\n        /* \"BasicEnzian.sol\":4934:5045  if (isTaskCompletedById(requiredTasksIds[0]) == true) {\r... */\n    tag_167:\n        /* \"BasicEnzian.sol\":4882:6817  if (gateway == GatewayType.NONE) {\r... */\n      jump(tag_168)\n    tag_164:\n        /* \"BasicEnzian.sol\":5098:5124  uint fulfilledRequirements */\n      0x00\n        /* \"BasicEnzian.sol\":5204:5210  uint i */\n      dup1\n        /* \"BasicEnzian.sol\":5213:5214  0 */\n      0x00\n        /* \"BasicEnzian.sol\":5204:5214  uint i = 0 */\n      swap1\n      pop\n        /* \"BasicEnzian.sol\":5199:5420  for (uint i = 0; i < requiredTasksIds.length; i++) {\r... */\n    tag_169:\n        /* \"BasicEnzian.sol\":5220:5236  requiredTasksIds */\n      dup4\n        /* \"BasicEnzian.sol\":5220:5243  requiredTasksIds.length */\n      mload\n        /* \"BasicEnzian.sol\":5216:5217  i */\n      dup2\n        /* \"BasicEnzian.sol\":5216:5243  i < requiredTasksIds.length */\n      lt\n        /* \"BasicEnzian.sol\":5199:5420  for (uint i = 0; i < requiredTasksIds.length; i++) {\r... */\n      iszero\n      tag_170\n      jumpi\n        /* \"BasicEnzian.sol\":5321:5325  true */\n      0x01\n        /* \"BasicEnzian.sol\":5277:5325  isTaskCompletedById(requiredTasksIds[i]) == true */\n      iszero\n      iszero\n        /* \"BasicEnzian.sol\":5277:5317  isTaskCompletedById(requiredTasksIds[i]) */\n      tag_172\n        /* \"BasicEnzian.sol\":5297:5313  requiredTasksIds */\n      dup6\n        /* \"BasicEnzian.sol\":5314:5315  i */\n      dup4\n        /* \"BasicEnzian.sol\":5297:5316  requiredTasksIds[i] */\n      dup2\n      mload\n      dup2\n      lt\n      tag_173\n      jumpi\n      mstore(0x00, 0x4e487b7100000000000000000000000000000000000000000000000000000000)\n      mstore(0x04, 0x32)\n      revert(0x00, 0x24)\n    tag_173:\n      0x20\n      mul\n      0x20\n      add\n      add\n      mload\n        /* \"BasicEnzian.sol\":5277:5296  isTaskCompletedById */\n      tag_64\n        /* \"BasicEnzian.sol\":5277:5317  isTaskCompletedById(requiredTasksIds[i]) */\n      jump\t// in\n    tag_172:\n        /* \"BasicEnzian.sol\":5277:5325  isTaskCompletedById(requiredTasksIds[i]) == true */\n      iszero\n      iszero\n      eq\n        /* \"BasicEnzian.sol\":5273:5401  if (isTaskCompletedById(requiredTasksIds[i]) == true) {\r... */\n      iszero\n      tag_174\n      jumpi\n        /* \"BasicEnzian.sol\":5354:5377  fulfilledRequirements++ */\n      dup2\n      dup1\n      tag_175\n      swap1\n      tag_176\n      jump\t// in\n    tag_175:\n      swap3\n      pop\n      pop\n        /* \"BasicEnzian.sol\":5273:5401  if (isTaskCompletedById(requiredTasksIds[i]) == true) {\r... */\n    tag_174:\n        /* \"BasicEnzian.sol\":5245:5248  i++ */\n      dup1\n      dup1\n      tag_177\n      swap1\n      tag_176\n      jump\t// in\n    tag_177:\n      swap2\n      pop\n      pop\n        /* \"BasicEnzian.sol\":5199:5420  for (uint i = 0; i < requiredTasksIds.length; i++) {\r... */\n      jump(tag_169)\n    tag_170:\n      pop\n        /* \"BasicEnzian.sol\":5470:5485  GatewayType.AND */\n      0x01\n        /* \"BasicEnzian.sol\":5459:5485  gateway == GatewayType.AND */\n      0x03\n      dup2\n      gt\n      iszero\n      tag_178\n      jumpi\n      mstore(0x00, 0x4e487b7100000000000000000000000000000000000000000000000000000000)\n      mstore(0x04, 0x21)\n      revert(0x00, 0x24)\n    tag_178:\n        /* \"BasicEnzian.sol\":5459:5466  gateway */\n      dup3\n        /* \"BasicEnzian.sol\":5459:5485  gateway == GatewayType.AND */\n      0x03\n      dup2\n      gt\n      iszero\n      tag_179\n      jumpi\n      mstore(0x00, 0x4e487b7100000000000000000000000000000000000000000000000000000000)\n      mstore(0x04, 0x21)\n      revert(0x00, 0x24)\n    tag_179:\n      eq\n        /* \"BasicEnzian.sol\":5456:6773  if(gateway == GatewayType.AND) {\r... */\n      iszero\n      tag_180\n      jumpi\n        /* \"BasicEnzian.sol\":5608:5624  requiredTasksIds */\n      dup3\n        /* \"BasicEnzian.sol\":5608:5631  requiredTasksIds.length */\n      mload\n        /* \"BasicEnzian.sol\":5583:5604  fulfilledRequirements */\n      dup2\n        /* \"BasicEnzian.sol\":5583:5631  fulfilledRequirements == requiredTasksIds.length */\n      eq\n        /* \"BasicEnzian.sol\":5579:5697  if (fulfilledRequirements == requiredTasksIds.length) {\r... */\n      iszero\n      tag_181\n      jumpi\n        /* \"BasicEnzian.sol\":5669:5673  true */\n      0x01\n        /* \"BasicEnzian.sol\":5659:5673  success = true */\n      swap5\n      pop\n        /* \"BasicEnzian.sol\":5579:5697  if (fulfilledRequirements == requiredTasksIds.length) {\r... */\n    tag_181:\n        /* \"BasicEnzian.sol\":5456:6773  if(gateway == GatewayType.AND) {\r... */\n      jump(tag_182)\n    tag_180:\n        /* \"BasicEnzian.sol\":5976:5990  GatewayType.OR */\n      0x02\n        /* \"BasicEnzian.sol\":5965:5990  gateway == GatewayType.OR */\n      0x03\n      dup2\n      gt\n      iszero\n      tag_183\n      jumpi\n      mstore(0x00, 0x4e487b7100000000000000000000000000000000000000000000000000000000)\n      mstore(0x04, 0x21)\n      revert(0x00, 0x24)\n    tag_183:\n        /* \"BasicEnzian.sol\":5965:5972  gateway */\n      dup3\n        /* \"BasicEnzian.sol\":5965:5990  gateway == GatewayType.OR */\n      0x03\n      dup2\n      gt\n      iszero\n      tag_184\n      jumpi\n      mstore(0x00, 0x4e487b7100000000000000000000000000000000000000000000000000000000)\n      mstore(0x04, 0x21)\n      revert(0x00, 0x24)\n    tag_184:\n      eq\n        /* \"BasicEnzian.sol\":5962:6732  if(gateway == GatewayType.OR) {\r... */\n      iszero\n      tag_185\n      jumpi\n        /* \"BasicEnzian.sol\":6125:6129  true */\n      0x01\n        /* \"BasicEnzian.sol\":6115:6129  success = true */\n      swap5\n      pop\n        /* \"BasicEnzian.sol\":5962:6732  if(gateway == GatewayType.OR) {\r... */\n      jump(tag_186)\n    tag_185:\n        /* \"BasicEnzian.sol\":6194:6209  GatewayType.XOR */\n      0x03\n        /* \"BasicEnzian.sol\":6183:6209  gateway == GatewayType.XOR */\n      dup1\n      dup2\n      gt\n      iszero\n      tag_187\n      jumpi\n      mstore(0x00, 0x4e487b7100000000000000000000000000000000000000000000000000000000)\n      mstore(0x04, 0x21)\n      revert(0x00, 0x24)\n    tag_187:\n        /* \"BasicEnzian.sol\":6183:6190  gateway */\n      dup3\n        /* \"BasicEnzian.sol\":6183:6209  gateway == GatewayType.XOR */\n      0x03\n      dup2\n      gt\n      iszero\n      tag_188\n      jumpi\n      mstore(0x00, 0x4e487b7100000000000000000000000000000000000000000000000000000000)\n      mstore(0x04, 0x21)\n      revert(0x00, 0x24)\n    tag_188:\n      eq\n        /* \"BasicEnzian.sol\":6180:6732  if(gateway == GatewayType.XOR) {\r... */\n      iszero\n      tag_189\n      jumpi\n        /* \"BasicEnzian.sol\":6267:6268  1 */\n      0x01\n        /* \"BasicEnzian.sol\":6242:6263  fulfilledRequirements */\n      dup2\n        /* \"BasicEnzian.sol\":6242:6268  fulfilledRequirements == 1 */\n      eq\n        /* \"BasicEnzian.sol\":6242:6298  fulfilledRequirements == 1 || fulfilledRequirements == 2 */\n      dup1\n      tag_190\n      jumpi\n      pop\n        /* \"BasicEnzian.sol\":6297:6298  2 */\n      0x02\n        /* \"BasicEnzian.sol\":6272:6293  fulfilledRequirements */\n      dup2\n        /* \"BasicEnzian.sol\":6272:6298  fulfilledRequirements == 2 */\n      eq\n        /* \"BasicEnzian.sol\":6242:6298  fulfilledRequirements == 1 || fulfilledRequirements == 2 */\n    tag_190:\n        /* \"BasicEnzian.sol\":6238:6373  if (fulfilledRequirements == 1 || fulfilledRequirements == 2) {\r... */\n      iszero\n      tag_191\n      jumpi\n        /* \"BasicEnzian.sol\":6341:6345  true */\n      0x01\n        /* \"BasicEnzian.sol\":6331:6345  success = true */\n      swap5\n      pop\n        /* \"BasicEnzian.sol\":6238:6373  if (fulfilledRequirements == 1 || fulfilledRequirements == 2) {\r... */\n    tag_191:\n        /* \"BasicEnzian.sol\":6180:6732  if(gateway == GatewayType.XOR) {\r... */\n    tag_189:\n        /* \"BasicEnzian.sol\":5962:6732  if(gateway == GatewayType.OR) {\r... */\n    tag_186:\n        /* \"BasicEnzian.sol\":5456:6773  if(gateway == GatewayType.AND) {\r... */\n    tag_182:\n        /* \"BasicEnzian.sol\":4882:6817  if (gateway == GatewayType.NONE) {\r... */\n      pop\n    tag_168:\n        /* \"BasicEnzian.sol\":4688:6848  if (requiredTasksIds.length == 0) {\r... */\n      pop\n    tag_161:\n        /* \"BasicEnzian.sol\":6885:6892  success */\n      dup3\n        /* \"BasicEnzian.sol\":6882:7163  if(success) {\r... */\n      iszero\n      tag_192\n      jumpi\n        /* \"BasicEnzian.sol\":6935:6939  true */\n      0x01\n        /* \"BasicEnzian.sol\":6909:6914  tasks */\n      0x00\n        /* \"BasicEnzian.sol\":6909:6922  tasks[taskId] */\n      dup1\n        /* \"BasicEnzian.sol\":6915:6921  taskId */\n      dup7\n        /* \"BasicEnzian.sol\":6909:6922  tasks[taskId] */\n      dup2\n      mstore\n      0x20\n      add\n      swap1\n      dup2\n      mstore\n      0x20\n      add\n      0x00\n      keccak256\n        /* \"BasicEnzian.sol\":6909:6932  tasks[taskId].completed */\n      0x01\n      add\n      0x14\n        /* \"BasicEnzian.sol\":6909:6939  tasks[taskId].completed = true */\n      0x0100\n      exp\n      dup2\n      sload\n      dup2\n      0xff\n      mul\n      not\n      and\n      swap1\n      dup4\n      iszero\n      iszero\n      mul\n      or\n      swap1\n      sstore\n      pop\n        /* \"BasicEnzian.sol\":6954:6969  theRealEventLog */\n      0x03\n        /* \"BasicEnzian.sol\":6975:6981  taskId */\n      dup5\n        /* \"BasicEnzian.sol\":6954:6982  theRealEventLog.push(taskId) */\n      swap1\n      dup1\n      0x01\n      dup2\n      sload\n      add\n      dup1\n      dup3\n      sstore\n      dup1\n      swap2\n      pop\n      pop\n      0x01\n      swap1\n      sub\n      swap1\n      0x00\n      mstore\n      keccak256(0x00, 0x20)\n      add\n      0x00\n      swap1\n      swap2\n      swap1\n      swap2\n      swap1\n      swap2\n      pop\n      sstore\n        /* \"BasicEnzian.sol\":6997:7016  debugStringeventLog */\n      0x04\n        /* \"BasicEnzian.sol\":7022:7027  tasks */\n      0x00\n        /* \"BasicEnzian.sol\":7022:7035  tasks[taskId] */\n      dup1\n        /* \"BasicEnzian.sol\":7028:7034  taskId */\n      dup7\n        /* \"BasicEnzian.sol\":7022:7035  tasks[taskId] */\n      dup2\n      mstore\n      0x20\n      add\n      swap1\n      dup2\n      mstore\n      0x20\n      add\n      0x00\n      keccak256\n        /* \"BasicEnzian.sol\":7022:7044  tasks[taskId].activity */\n      0x00\n      add\n        /* \"BasicEnzian.sol\":6997:7045  debugStringeventLog.push(tasks[taskId].activity) */\n      swap1\n      dup1\n      0x01\n      dup2\n      sload\n      add\n      dup1\n      dup3\n      sstore\n      dup1\n      swap2\n      pop\n      pop\n      0x01\n      swap1\n      sub\n      swap1\n      0x00\n      mstore\n      keccak256(0x00, 0x20)\n      add\n      0x00\n      swap1\n      swap2\n      swap1\n      swap2\n      swap1\n      swap2\n      pop\n      swap1\n      dup1\n      sload\n      tag_195\n      swap1\n      tag_117\n      jump\t// in\n    tag_195:\n      tag_196\n      swap3\n      swap2\n      swap1\n      tag_197\n      jump\t// in\n    tag_196:\n      pop\n        /* \"BasicEnzian.sol\":7079:7083  true */\n      0x01\n        /* \"BasicEnzian.sol\":7065:7084  TaskCompleted(true) */\n      iszero\n      iszero\n      0xacd30b4f9fd5868793e13ffb506f03374a23d9feba1249ac2cc7b0fe024ff4ba\n      mload(0x40)\n      mload(0x40)\n      dup1\n      swap2\n      sub\n      swap1\n      log2\n        /* \"BasicEnzian.sol\":6882:7163  if(success) {\r... */\n      jump(tag_198)\n    tag_192:\n        /* \"BasicEnzian.sol\":7145:7150  false */\n      0x00\n        /* \"BasicEnzian.sol\":7131:7151  TaskCompleted(false) */\n      iszero\n      iszero\n      0xacd30b4f9fd5868793e13ffb506f03374a23d9feba1249ac2cc7b0fe024ff4ba\n      mload(0x40)\n      mload(0x40)\n      dup1\n      swap2\n      sub\n      swap1\n      log2\n        /* \"BasicEnzian.sol\":6882:7163  if(success) {\r... */\n    tag_198:\n        /* \"BasicEnzian.sol\":7183:7197  return success */\n      pop\n      pop\n        /* \"BasicEnzian.sol\":4013:7215  function completing(uint taskId) public returns (bool success){\r... */\n      swap2\n      swap1\n      pop\n      jump\t// out\n    tag_80:\n      mload(0x40)\n      dup1\n      0xe0\n      add\n      0x40\n      mstore\n      dup1\n      0x60\n      dup2\n      mstore\n      0x20\n      add\n      and(0xffffffffffffffffffffffffffffffffffffffff, 0x00)\n      dup2\n      mstore\n      0x20\n      add\n      iszero(iszero(0x00))\n      dup2\n      mstore\n      0x20\n      add\n      0x00\n      0x03\n      dup2\n      gt\n      iszero\n      tag_199\n      jumpi\n      mstore(0x00, 0x4e487b7100000000000000000000000000000000000000000000000000000000)\n      mstore(0x04, 0x21)\n      revert(0x00, 0x24)\n    tag_199:\n      dup2\n      mstore\n      0x20\n      add\n      0x60\n      dup2\n      mstore\n      0x20\n      add\n      0x60\n      dup2\n      mstore\n      0x20\n      add\n      tag_200\n      tag_201\n      jump\t// in\n    tag_200:\n      dup2\n      mstore\n      pop\n      swap1\n      jump\t// out\n    tag_84:\n      dup3\n      dup1\n      sload\n      tag_202\n      swap1\n      tag_117\n      jump\t// in\n    tag_202:\n      swap1\n      0x00\n      mstore\n      keccak256(0x00, 0x20)\n      swap1\n      0x1f\n      add\n      0x20\n      swap1\n      div\n      dup2\n      add\n      swap3\n      dup3\n      tag_204\n      jumpi\n      0x00\n      dup6\n      sstore\n      jump(tag_203)\n    tag_204:\n      dup3\n      0x1f\n      lt\n      tag_205\n      jumpi\n      dup1\n      mload\n      not(0xff)\n      and\n      dup4\n      dup1\n      add\n      or\n      dup6\n      sstore\n      jump(tag_203)\n    tag_205:\n      dup3\n      dup1\n      add\n      0x01\n      add\n      dup6\n      sstore\n      dup3\n      iszero\n      tag_203\n      jumpi\n      swap2\n      dup3\n      add\n    tag_206:\n      dup3\n      dup2\n      gt\n      iszero\n      tag_207\n      jumpi\n      dup3\n      mload\n      dup3\n      sstore\n      swap2\n      0x20\n      add\n      swap2\n      swap1\n      0x01\n      add\n      swap1\n      jump(tag_206)\n    tag_207:\n    tag_203:\n      pop\n      swap1\n      pop\n      tag_208\n      swap2\n      swap1\n      tag_209\n      jump\t// in\n    tag_208:\n      pop\n      swap1\n      jump\t// out\n    tag_87:\n      dup3\n      dup1\n      sload\n      dup3\n      dup3\n      sstore\n      swap1\n      0x00\n      mstore\n      keccak256(0x00, 0x20)\n      swap1\n      dup2\n      add\n      swap3\n      dup3\n      iszero\n      tag_210\n      jumpi\n      swap2\n      0x20\n      mul\n      dup3\n      add\n    tag_211:\n      dup3\n      dup2\n      gt\n      iszero\n      tag_212\n      jumpi\n      dup3\n      mload\n      dup3\n      sstore\n      swap2\n      0x20\n      add\n      swap2\n      swap1\n      0x01\n      add\n      swap1\n      jump(tag_211)\n    tag_212:\n    tag_210:\n      pop\n      swap1\n      pop\n      tag_213\n      swap2\n      swap1\n      tag_209\n      jump\t// in\n    tag_213:\n      pop\n      swap1\n      jump\t// out\n    tag_197:\n      dup3\n      dup1\n      sload\n      tag_214\n      swap1\n      tag_117\n      jump\t// in\n    tag_214:\n      swap1\n      0x00\n      mstore\n      keccak256(0x00, 0x20)\n      swap1\n      0x1f\n      add\n      0x20\n      swap1\n      div\n      dup2\n      add\n      swap3\n      dup3\n      tag_216\n      jumpi\n      0x00\n      dup6\n      sstore\n      jump(tag_215)\n    tag_216:\n      dup3\n      0x1f\n      lt\n      tag_217\n      jumpi\n      dup1\n      sload\n      dup6\n      sstore\n      jump(tag_215)\n    tag_217:\n      dup3\n      dup1\n      add\n      0x01\n      add\n      dup6\n      sstore\n      dup3\n      iszero\n      tag_215\n      jumpi\n      0x00\n      mstore\n      keccak256(0x00, 0x20)\n      swap2\n      0x1f\n      add\n      0x20\n      swap1\n      div\n      dup3\n      add\n    tag_218:\n      dup3\n      dup2\n      gt\n      iszero\n      tag_219\n      jumpi\n      dup3\n      sload\n      dup3\n      sstore\n      swap2\n      0x01\n      add\n      swap2\n      swap1\n      0x01\n      add\n      swap1\n      jump(tag_218)\n    tag_219:\n    tag_215:\n      pop\n      swap1\n      pop\n      tag_220\n      swap2\n      swap1\n      tag_209\n      jump\t// in\n    tag_220:\n      pop\n      swap1\n      jump\t// out\n    tag_201:\n      mload(0x40)\n      dup1\n      0x0100\n      add\n      0x40\n      mstore\n      dup1\n      0x00\n      dup2\n      mstore\n      0x20\n      add\n      0x00\n      0x03\n      dup2\n      gt\n      iszero\n      tag_221\n      jumpi\n      mstore(0x00, 0x4e487b7100000000000000000000000000000000000000000000000000000000)\n      mstore(0x04, 0x21)\n      revert(0x00, 0x24)\n    tag_221:\n      dup2\n      mstore\n      0x20\n      add\n      0x00\n      0x02\n      dup2\n      gt\n      iszero\n      tag_222\n      jumpi\n      mstore(0x00, 0x4e487b7100000000000000000000000000000000000000000000000000000000)\n      mstore(0x04, 0x21)\n      revert(0x00, 0x24)\n    tag_222:\n      dup2\n      mstore\n      0x20\n      add\n      iszero(iszero(0x00))\n      dup2\n      mstore\n      0x20\n      add\n      iszero(iszero(0x00))\n      dup2\n      mstore\n      0x20\n      add\n      0x00\n      0x06\n      dup2\n      gt\n      iszero\n      tag_223\n      jumpi\n      mstore(0x00, 0x4e487b7100000000000000000000000000000000000000000000000000000000)\n      mstore(0x04, 0x21)\n      revert(0x00, 0x24)\n    tag_223:\n      dup2\n      mstore\n      0x20\n      add\n      tag_224\n      tag_225\n      jump\t// in\n    tag_224:\n      dup2\n      mstore\n      0x20\n      add\n      tag_226\n      tag_227\n      jump\t// in\n    tag_226:\n      dup2\n      mstore\n      pop\n      swap1\n      jump\t// out\n    tag_209:\n    tag_228:\n      dup1\n      dup3\n      gt\n      iszero\n      tag_229\n      jumpi\n      0x00\n      dup2\n      0x00\n      swap1\n      sstore\n      pop\n      0x01\n      add\n      jump(tag_228)\n    tag_229:\n      pop\n      swap1\n      jump\t// out\n    tag_225:\n      mload(0x40)\n      dup1\n      0x40\n      add\n      0x40\n      mstore\n      dup1\n      0x00\n      dup2\n      mstore\n      0x20\n      add\n      0x60\n      dup2\n      mstore\n      pop\n      swap1\n      jump\t// out\n    tag_227:\n      mload(0x40)\n      dup1\n      0x40\n      add\n      0x40\n      mstore\n      dup1\n      0x00\n      dup2\n      mstore\n      0x20\n      add\n      0x60\n      dup2\n      mstore\n      pop\n      swap1\n      jump\t// out\n        /* \"#utility.yul\":24:646   */\n    tag_231:\n      0x00\n        /* \"#utility.yul\":145:225   */\n      tag_233\n        /* \"#utility.yul\":160:224   */\n      tag_234\n        /* \"#utility.yul\":217:223   */\n      dup5\n        /* \"#utility.yul\":160:224   */\n      tag_235\n      jump\t// in\n    tag_234:\n        /* \"#utility.yul\":145:225   */\n      tag_236\n      jump\t// in\n    tag_233:\n        /* \"#utility.yul\":136:225   */\n      swap1\n      pop\n        /* \"#utility.yul\":245:250   */\n      dup1\n        /* \"#utility.yul\":273:279   */\n      dup4\n        /* \"#utility.yul\":266:271   */\n      dup3\n        /* \"#utility.yul\":259:280   */\n      mstore\n        /* \"#utility.yul\":299:303   */\n      0x20\n        /* \"#utility.yul\":292:297   */\n      dup3\n        /* \"#utility.yul\":288:304   */\n      add\n        /* \"#utility.yul\":281:304   */\n      swap1\n      pop\n        /* \"#utility.yul\":324:330   */\n      dup3\n        /* \"#utility.yul\":374:377   */\n      dup6\n        /* \"#utility.yul\":366:370   */\n      0x20\n        /* \"#utility.yul\":358:364   */\n      dup7\n        /* \"#utility.yul\":354:371   */\n      mul\n        /* \"#utility.yul\":349:352   */\n      dup3\n        /* \"#utility.yul\":345:372   */\n      add\n        /* \"#utility.yul\":342:378   */\n      gt\n        /* \"#utility.yul\":339:341   */\n      iszero\n      tag_237\n      jumpi\n        /* \"#utility.yul\":391:392   */\n      0x00\n        /* \"#utility.yul\":388:389   */\n      dup1\n        /* \"#utility.yul\":381:393   */\n      revert\n        /* \"#utility.yul\":339:341   */\n    tag_237:\n        /* \"#utility.yul\":419:420   */\n      0x00\n        /* \"#utility.yul\":404:640   */\n    tag_238:\n        /* \"#utility.yul\":429:435   */\n      dup6\n        /* \"#utility.yul\":426:427   */\n      dup2\n        /* \"#utility.yul\":423:436   */\n      lt\n        /* \"#utility.yul\":404:640   */\n      iszero\n      tag_240\n      jumpi\n        /* \"#utility.yul\":496:499   */\n      dup2\n        /* \"#utility.yul\":524:561   */\n      tag_241\n        /* \"#utility.yul\":557:560   */\n      dup9\n        /* \"#utility.yul\":545:555   */\n      dup3\n        /* \"#utility.yul\":524:561   */\n      tag_242\n      jump\t// in\n    tag_241:\n        /* \"#utility.yul\":519:522   */\n      dup5\n        /* \"#utility.yul\":512:562   */\n      mstore\n        /* \"#utility.yul\":591:595   */\n      0x20\n        /* \"#utility.yul\":586:589   */\n      dup5\n        /* \"#utility.yul\":582:596   */\n      add\n        /* \"#utility.yul\":575:596   */\n      swap4\n      pop\n        /* \"#utility.yul\":625:629   */\n      0x20\n        /* \"#utility.yul\":620:623   */\n      dup4\n        /* \"#utility.yul\":616:630   */\n      add\n        /* \"#utility.yul\":609:630   */\n      swap3\n      pop\n        /* \"#utility.yul\":464:640   */\n      pop\n        /* \"#utility.yul\":451:452   */\n      0x01\n        /* \"#utility.yul\":448:449   */\n      dup2\n        /* \"#utility.yul\":444:453   */\n      add\n        /* \"#utility.yul\":439:453   */\n      swap1\n      pop\n        /* \"#utility.yul\":404:640   */\n      jump(tag_238)\n    tag_240:\n        /* \"#utility.yul\":408:422   */\n      pop\n        /* \"#utility.yul\":126:646   */\n      pop\n      pop\n      swap4\n      swap3\n      pop\n      pop\n      pop\n      jump\t// out\n        /* \"#utility.yul\":652:996   */\n    tag_243:\n      0x00\n        /* \"#utility.yul\":755:820   */\n      tag_245\n        /* \"#utility.yul\":770:819   */\n      tag_246\n        /* \"#utility.yul\":812:818   */\n      dup5\n        /* \"#utility.yul\":770:819   */\n      tag_247\n      jump\t// in\n    tag_246:\n        /* \"#utility.yul\":755:820   */\n      tag_236\n      jump\t// in\n    tag_245:\n        /* \"#utility.yul\":746:820   */\n      swap1\n      pop\n        /* \"#utility.yul\":843:849   */\n      dup3\n        /* \"#utility.yul\":836:841   */\n      dup2\n        /* \"#utility.yul\":829:850   */\n      mstore\n        /* \"#utility.yul\":881:885   */\n      0x20\n        /* \"#utility.yul\":874:879   */\n      dup2\n        /* \"#utility.yul\":870:886   */\n      add\n        /* \"#utility.yul\":919:922   */\n      dup5\n        /* \"#utility.yul\":910:916   */\n      dup5\n        /* \"#utility.yul\":905:908   */\n      dup5\n        /* \"#utility.yul\":901:917   */\n      add\n        /* \"#utility.yul\":898:923   */\n      gt\n        /* \"#utility.yul\":895:897   */\n      iszero\n      tag_248\n      jumpi\n        /* \"#utility.yul\":936:937   */\n      0x00\n        /* \"#utility.yul\":933:934   */\n      dup1\n        /* \"#utility.yul\":926:938   */\n      revert\n        /* \"#utility.yul\":895:897   */\n    tag_248:\n        /* \"#utility.yul\":949:990   */\n      tag_249\n        /* \"#utility.yul\":983:989   */\n      dup5\n        /* \"#utility.yul\":978:981   */\n      dup3\n        /* \"#utility.yul\":973:976   */\n      dup6\n        /* \"#utility.yul\":949:990   */\n      tag_250\n      jump\t// in\n    tag_249:\n        /* \"#utility.yul\":736:996   */\n      pop\n      swap4\n      swap3\n      pop\n      pop\n      pop\n      jump\t// out\n        /* \"#utility.yul\":1002:1141   */\n    tag_251:\n      0x00\n        /* \"#utility.yul\":1086:1092   */\n      dup2\n        /* \"#utility.yul\":1073:1093   */\n      calldataload\n        /* \"#utility.yul\":1064:1093   */\n      swap1\n      pop\n        /* \"#utility.yul\":1102:1135   */\n      tag_253\n        /* \"#utility.yul\":1129:1134   */\n      dup2\n        /* \"#utility.yul\":1102:1135   */\n      tag_254\n      jump\t// in\n    tag_253:\n        /* \"#utility.yul\":1054:1141   */\n      swap3\n      swap2\n      pop\n      pop\n      jump\t// out\n        /* \"#utility.yul\":1164:1467   */\n    tag_255:\n      0x00\n        /* \"#utility.yul\":1284:1287   */\n      dup3\n        /* \"#utility.yul\":1277:1281   */\n      0x1f\n        /* \"#utility.yul\":1269:1275   */\n      dup4\n        /* \"#utility.yul\":1265:1282   */\n      add\n        /* \"#utility.yul\":1261:1288   */\n      slt\n        /* \"#utility.yul\":1251:1253   */\n      tag_257\n      jumpi\n        /* \"#utility.yul\":1302:1303   */\n      0x00\n        /* \"#utility.yul\":1299:1300   */\n      dup1\n        /* \"#utility.yul\":1292:1304   */\n      revert\n        /* \"#utility.yul\":1251:1253   */\n    tag_257:\n        /* \"#utility.yul\":1342:1348   */\n      dup2\n        /* \"#utility.yul\":1329:1349   */\n      calldataload\n        /* \"#utility.yul\":1367:1461   */\n      tag_258\n        /* \"#utility.yul\":1457:1460   */\n      dup5\n        /* \"#utility.yul\":1449:1455   */\n      dup3\n        /* \"#utility.yul\":1442:1446   */\n      0x20\n        /* \"#utility.yul\":1434:1440   */\n      dup7\n        /* \"#utility.yul\":1430:1447   */\n      add\n        /* \"#utility.yul\":1367:1461   */\n      tag_231\n      jump\t// in\n    tag_258:\n        /* \"#utility.yul\":1358:1461   */\n      swap2\n      pop\n        /* \"#utility.yul\":1241:1467   */\n      pop\n      swap3\n      swap2\n      pop\n      pop\n      jump\t// out\n        /* \"#utility.yul\":1473:1606   */\n    tag_259:\n      0x00\n        /* \"#utility.yul\":1554:1560   */\n      dup2\n        /* \"#utility.yul\":1541:1561   */\n      calldataload\n        /* \"#utility.yul\":1532:1561   */\n      swap1\n      pop\n        /* \"#utility.yul\":1570:1600   */\n      tag_261\n        /* \"#utility.yul\":1594:1599   */\n      dup2\n        /* \"#utility.yul\":1570:1600   */\n      tag_262\n      jump\t// in\n    tag_261:\n        /* \"#utility.yul\":1522:1606   */\n      swap3\n      swap2\n      pop\n      pop\n      jump\t// out\n        /* \"#utility.yul\":1612:1749   */\n    tag_263:\n      0x00\n        /* \"#utility.yul\":1697:1703   */\n      dup2\n        /* \"#utility.yul\":1691:1704   */\n      mload\n        /* \"#utility.yul\":1682:1704   */\n      swap1\n      pop\n        /* \"#utility.yul\":1713:1743   */\n      tag_265\n        /* \"#utility.yul\":1737:1742   */\n      dup2\n        /* \"#utility.yul\":1713:1743   */\n      tag_262\n      jump\t// in\n    tag_265:\n        /* \"#utility.yul\":1672:1749   */\n      swap3\n      swap2\n      pop\n      pop\n      jump\t// out\n        /* \"#utility.yul\":1755:1924   */\n    tag_266:\n      0x00\n        /* \"#utility.yul\":1854:1860   */\n      dup2\n        /* \"#utility.yul\":1841:1861   */\n      calldataload\n        /* \"#utility.yul\":1832:1861   */\n      swap1\n      pop\n        /* \"#utility.yul\":1870:1918   */\n      tag_268\n        /* \"#utility.yul\":1912:1917   */\n      dup2\n        /* \"#utility.yul\":1870:1918   */\n      tag_269\n      jump\t// in\n    tag_268:\n        /* \"#utility.yul\":1822:1924   */\n      swap3\n      swap2\n      pop\n      pop\n      jump\t// out\n        /* \"#utility.yul\":1930:2095   */\n    tag_270:\n      0x00\n        /* \"#utility.yul\":2027:2033   */\n      dup2\n        /* \"#utility.yul\":2014:2034   */\n      calldataload\n        /* \"#utility.yul\":2005:2034   */\n      swap1\n      pop\n        /* \"#utility.yul\":2043:2089   */\n      tag_272\n        /* \"#utility.yul\":2083:2088   */\n      dup2\n        /* \"#utility.yul\":2043:2089   */\n      tag_273\n      jump\t// in\n    tag_272:\n        /* \"#utility.yul\":1995:2095   */\n      swap3\n      swap2\n      pop\n      pop\n      jump\t// out\n        /* \"#utility.yul\":2101:2264   */\n    tag_274:\n      0x00\n        /* \"#utility.yul\":2197:2203   */\n      dup2\n        /* \"#utility.yul\":2184:2204   */\n      calldataload\n        /* \"#utility.yul\":2175:2204   */\n      swap1\n      pop\n        /* \"#utility.yul\":2213:2258   */\n      tag_276\n        /* \"#utility.yul\":2252:2257   */\n      dup2\n        /* \"#utility.yul\":2213:2258   */\n      tag_277\n      jump\t// in\n    tag_276:\n        /* \"#utility.yul\":2165:2264   */\n      swap3\n      swap2\n      pop\n      pop\n      jump\t// out\n        /* \"#utility.yul\":2284:2557   */\n    tag_278:\n      0x00\n        /* \"#utility.yul\":2389:2392   */\n      dup3\n        /* \"#utility.yul\":2382:2386   */\n      0x1f\n        /* \"#utility.yul\":2374:2380   */\n      dup4\n        /* \"#utility.yul\":2370:2387   */\n      add\n        /* \"#utility.yul\":2366:2393   */\n      slt\n        /* \"#utility.yul\":2356:2358   */\n      tag_280\n      jumpi\n        /* \"#utility.yul\":2407:2408   */\n      0x00\n        /* \"#utility.yul\":2404:2405   */\n      dup1\n        /* \"#utility.yul\":2397:2409   */\n      revert\n        /* \"#utility.yul\":2356:2358   */\n    tag_280:\n        /* \"#utility.yul\":2447:2453   */\n      dup2\n        /* \"#utility.yul\":2434:2454   */\n      calldataload\n        /* \"#utility.yul\":2472:2551   */\n      tag_281\n        /* \"#utility.yul\":2547:2550   */\n      dup5\n        /* \"#utility.yul\":2539:2545   */\n      dup3\n        /* \"#utility.yul\":2532:2536   */\n      0x20\n        /* \"#utility.yul\":2524:2530   */\n      dup7\n        /* \"#utility.yul\":2520:2537   */\n      add\n        /* \"#utility.yul\":2472:2551   */\n      tag_243\n      jump\t// in\n    tag_281:\n        /* \"#utility.yul\":2463:2551   */\n      swap2\n      pop\n        /* \"#utility.yul\":2346:2557   */\n      pop\n      swap3\n      swap2\n      pop\n      pop\n      jump\t// out\n        /* \"#utility.yul\":2598:4399   */\n    tag_282:\n      0x00\n        /* \"#utility.yul\":2715:2721   */\n      0x0100\n        /* \"#utility.yul\":2703:2712   */\n      dup3\n        /* \"#utility.yul\":2698:2701   */\n      dup5\n        /* \"#utility.yul\":2694:2713   */\n      sub\n        /* \"#utility.yul\":2690:2722   */\n      slt\n        /* \"#utility.yul\":2687:2689   */\n      iszero\n      tag_284\n      jumpi\n        /* \"#utility.yul\":2735:2736   */\n      0x00\n        /* \"#utility.yul\":2732:2733   */\n      dup1\n        /* \"#utility.yul\":2725:2737   */\n      revert\n        /* \"#utility.yul\":2687:2689   */\n    tag_284:\n        /* \"#utility.yul\":2757:2779   */\n      tag_285\n        /* \"#utility.yul\":2772:2778   */\n      0x0100\n        /* \"#utility.yul\":2757:2779   */\n      tag_236\n      jump\t// in\n    tag_285:\n        /* \"#utility.yul\":2748:2779   */\n      swap1\n      pop\n        /* \"#utility.yul\":2841:2842   */\n      0x00\n        /* \"#utility.yul\":2881:2930   */\n      tag_286\n        /* \"#utility.yul\":2926:2929   */\n      dup5\n        /* \"#utility.yul\":2917:2923   */\n      dup3\n        /* \"#utility.yul\":2906:2915   */\n      dup6\n        /* \"#utility.yul\":2902:2924   */\n      add\n        /* \"#utility.yul\":2881:2930   */\n      tag_242\n      jump\t// in\n    tag_286:\n        /* \"#utility.yul\":2874:2878   */\n      0x00\n        /* \"#utility.yul\":2867:2872   */\n      dup4\n        /* \"#utility.yul\":2863:2879   */\n      add\n        /* \"#utility.yul\":2856:2931   */\n      mstore\n        /* \"#utility.yul\":2789:2942   */\n      pop\n        /* \"#utility.yul\":3008:3010   */\n      0x20\n        /* \"#utility.yul\":3049:3111   */\n      tag_287\n        /* \"#utility.yul\":3107:3110   */\n      dup5\n        /* \"#utility.yul\":3098:3104   */\n      dup3\n        /* \"#utility.yul\":3087:3096   */\n      dup6\n        /* \"#utility.yul\":3083:3105   */\n      add\n        /* \"#utility.yul\":3049:3111   */\n      tag_270\n      jump\t// in\n    tag_287:\n        /* \"#utility.yul\":3042:3046   */\n      0x20\n        /* \"#utility.yul\":3035:3040   */\n      dup4\n        /* \"#utility.yul\":3031:3047   */\n      add\n        /* \"#utility.yul\":3024:3112   */\n      mstore\n        /* \"#utility.yul\":2952:3123   */\n      pop\n        /* \"#utility.yul\":3181:3183   */\n      0x40\n        /* \"#utility.yul\":3222:3286   */\n      tag_288\n        /* \"#utility.yul\":3282:3285   */\n      dup5\n        /* \"#utility.yul\":3273:3279   */\n      dup3\n        /* \"#utility.yul\":3262:3271   */\n      dup6\n        /* \"#utility.yul\":3258:3280   */\n      add\n        /* \"#utility.yul\":3222:3286   */\n      tag_266\n      jump\t// in\n    tag_288:\n        /* \"#utility.yul\":3215:3219   */\n      0x40\n        /* \"#utility.yul\":3208:3213   */\n      dup4\n        /* \"#utility.yul\":3204:3220   */\n      add\n        /* \"#utility.yul\":3197:3287   */\n      mstore\n        /* \"#utility.yul\":3133:3298   */\n      pop\n        /* \"#utility.yul\":3362:3364   */\n      0x60\n        /* \"#utility.yul\":3403:3449   */\n      tag_289\n        /* \"#utility.yul\":3445:3448   */\n      dup5\n        /* \"#utility.yul\":3436:3442   */\n      dup3\n        /* \"#utility.yul\":3425:3434   */\n      dup6\n        /* \"#utility.yul\":3421:3443   */\n      add\n        /* \"#utility.yul\":3403:3449   */\n      tag_259\n      jump\t// in\n    tag_289:\n        /* \"#utility.yul\":3396:3400   */\n      0x60\n        /* \"#utility.yul\":3389:3394   */\n      dup4\n        /* \"#utility.yul\":3385:3401   */\n      add\n        /* \"#utility.yul\":3378:3450   */\n      mstore\n        /* \"#utility.yul\":3308:3461   */\n      pop\n        /* \"#utility.yul\":3522:3525   */\n      0x80\n        /* \"#utility.yul\":3564:3610   */\n      tag_290\n        /* \"#utility.yul\":3606:3609   */\n      dup5\n        /* \"#utility.yul\":3597:3603   */\n      dup3\n        /* \"#utility.yul\":3586:3595   */\n      dup6\n        /* \"#utility.yul\":3582:3604   */\n      add\n        /* \"#utility.yul\":3564:3610   */\n      tag_259\n      jump\t// in\n    tag_290:\n        /* \"#utility.yul\":3557:3561   */\n      0x80\n        /* \"#utility.yul\":3550:3555   */\n      dup4\n        /* \"#utility.yul\":3546:3562   */\n      add\n        /* \"#utility.yul\":3539:3611   */\n      mstore\n        /* \"#utility.yul\":3471:3622   */\n      pop\n        /* \"#utility.yul\":3685:3688   */\n      0xa0\n        /* \"#utility.yul\":3727:3788   */\n      tag_291\n        /* \"#utility.yul\":3784:3787   */\n      dup5\n        /* \"#utility.yul\":3775:3781   */\n      dup3\n        /* \"#utility.yul\":3764:3773   */\n      dup6\n        /* \"#utility.yul\":3760:3782   */\n      add\n        /* \"#utility.yul\":3727:3788   */\n      tag_274\n      jump\t// in\n    tag_291:\n        /* \"#utility.yul\":3720:3724   */\n      0xa0\n        /* \"#utility.yul\":3713:3718   */\n      dup4\n        /* \"#utility.yul\":3709:3725   */\n      add\n        /* \"#utility.yul\":3702:3789   */\n      mstore\n        /* \"#utility.yul\":3632:3800   */\n      pop\n        /* \"#utility.yul\":3898:3901   */\n      0xc0\n        /* \"#utility.yul\":3887:3896   */\n      dup3\n        /* \"#utility.yul\":3883:3902   */\n      add\n        /* \"#utility.yul\":3870:3903   */\n      calldataload\n        /* \"#utility.yul\":3930:3948   */\n      0xffffffffffffffff\n        /* \"#utility.yul\":3922:3928   */\n      dup2\n        /* \"#utility.yul\":3919:3949   */\n      gt\n        /* \"#utility.yul\":3916:3918   */\n      iszero\n      tag_292\n      jumpi\n        /* \"#utility.yul\":3962:3963   */\n      0x00\n        /* \"#utility.yul\":3959:3960   */\n      dup1\n        /* \"#utility.yul\":3952:3964   */\n      revert\n        /* \"#utility.yul\":3916:3918   */\n    tag_292:\n        /* \"#utility.yul\":4005:4085   */\n      tag_293\n        /* \"#utility.yul\":4081:4084   */\n      dup5\n        /* \"#utility.yul\":4072:4078   */\n      dup3\n        /* \"#utility.yul\":4061:4070   */\n      dup6\n        /* \"#utility.yul\":4057:4079   */\n      add\n        /* \"#utility.yul\":4005:4085   */\n      tag_294\n      jump\t// in\n    tag_293:\n        /* \"#utility.yul\":3998:4002   */\n      0xc0\n        /* \"#utility.yul\":3991:3996   */\n      dup4\n        /* \"#utility.yul\":3987:4003   */\n      add\n        /* \"#utility.yul\":3980:4086   */\n      mstore\n        /* \"#utility.yul\":3810:4097   */\n      pop\n        /* \"#utility.yul\":4194:4197   */\n      0xe0\n        /* \"#utility.yul\":4183:4192   */\n      dup3\n        /* \"#utility.yul\":4179:4198   */\n      add\n        /* \"#utility.yul\":4166:4199   */\n      calldataload\n        /* \"#utility.yul\":4226:4244   */\n      0xffffffffffffffff\n        /* \"#utility.yul\":4218:4224   */\n      dup2\n        /* \"#utility.yul\":4215:4245   */\n      gt\n        /* \"#utility.yul\":4212:4214   */\n      iszero\n      tag_295\n      jumpi\n        /* \"#utility.yul\":4258:4259   */\n      0x00\n        /* \"#utility.yul\":4255:4256   */\n      dup1\n        /* \"#utility.yul\":4248:4260   */\n      revert\n        /* \"#utility.yul\":4212:4214   */\n    tag_295:\n        /* \"#utility.yul\":4301:4380   */\n      tag_296\n        /* \"#utility.yul\":4376:4379   */\n      dup5\n        /* \"#utility.yul\":4367:4373   */\n      dup3\n        /* \"#utility.yul\":4356:4365   */\n      dup6\n        /* \"#utility.yul\":4352:4374   */\n      add\n        /* \"#utility.yul\":4301:4380   */\n      tag_297\n      jump\t// in\n    tag_296:\n        /* \"#utility.yul\":4294:4298   */\n      0xe0\n        /* \"#utility.yul\":4287:4292   */\n      dup4\n        /* \"#utility.yul\":4283:4299   */\n      add\n        /* \"#utility.yul\":4276:4381   */\n      mstore\n        /* \"#utility.yul\":4107:4392   */\n      pop\n        /* \"#utility.yul\":2677:4399   */\n      swap3\n      swap2\n      pop\n      pop\n      jump\t// out\n        /* \"#utility.yul\":4447:5098   */\n    tag_294:\n      0x00\n        /* \"#utility.yul\":4571:4575   */\n      0x40\n        /* \"#utility.yul\":4559:4568   */\n      dup3\n        /* \"#utility.yul\":4554:4557   */\n      dup5\n        /* \"#utility.yul\":4550:4569   */\n      sub\n        /* \"#utility.yul\":4546:4576   */\n      slt\n        /* \"#utility.yul\":4543:4545   */\n      iszero\n      tag_299\n      jumpi\n        /* \"#utility.yul\":4589:4590   */\n      0x00\n        /* \"#utility.yul\":4586:4587   */\n      dup1\n        /* \"#utility.yul\":4579:4591   */\n      revert\n        /* \"#utility.yul\":4543:4545   */\n    tag_299:\n        /* \"#utility.yul\":4611:4631   */\n      tag_300\n        /* \"#utility.yul\":4626:4630   */\n      0x40\n        /* \"#utility.yul\":4611:4631   */\n      tag_236\n      jump\t// in\n    tag_300:\n        /* \"#utility.yul\":4602:4631   */\n      swap1\n      pop\n        /* \"#utility.yul\":4710:4711   */\n      0x00\n        /* \"#utility.yul\":4750:4799   */\n      tag_301\n        /* \"#utility.yul\":4795:4798   */\n      dup5\n        /* \"#utility.yul\":4786:4792   */\n      dup3\n        /* \"#utility.yul\":4775:4784   */\n      dup6\n        /* \"#utility.yul\":4771:4793   */\n      add\n        /* \"#utility.yul\":4750:4799   */\n      tag_242\n      jump\t// in\n    tag_301:\n        /* \"#utility.yul\":4743:4747   */\n      0x00\n        /* \"#utility.yul\":4736:4741   */\n      dup4\n        /* \"#utility.yul\":4732:4748   */\n      add\n        /* \"#utility.yul\":4725:4800   */\n      mstore\n        /* \"#utility.yul\":4641:4811   */\n      pop\n        /* \"#utility.yul\":4899:4901   */\n      0x20\n        /* \"#utility.yul\":4888:4897   */\n      dup3\n        /* \"#utility.yul\":4884:4902   */\n      add\n        /* \"#utility.yul\":4871:4903   */\n      calldataload\n        /* \"#utility.yul\":4930:4948   */\n      0xffffffffffffffff\n        /* \"#utility.yul\":4922:4928   */\n      dup2\n        /* \"#utility.yul\":4919:4949   */\n      gt\n        /* \"#utility.yul\":4916:4918   */\n      iszero\n      tag_302\n      jumpi\n        /* \"#utility.yul\":4962:4963   */\n      0x00\n        /* \"#utility.yul\":4959:4960   */\n      dup1\n        /* \"#utility.yul\":4952:4964   */\n      revert\n        /* \"#utility.yul\":4916:4918   */\n    tag_302:\n        /* \"#utility.yul\":5005:5079   */\n      tag_303\n        /* \"#utility.yul\":5075:5078   */\n      dup5\n        /* \"#utility.yul\":5066:5072   */\n      dup3\n        /* \"#utility.yul\":5055:5064   */\n      dup6\n        /* \"#utility.yul\":5051:5073   */\n      add\n        /* \"#utility.yul\":5005:5079   */\n      tag_255\n      jump\t// in\n    tag_303:\n        /* \"#utility.yul\":4998:5002   */\n      0x20\n        /* \"#utility.yul\":4991:4996   */\n      dup4\n        /* \"#utility.yul\":4987:5003   */\n      add\n        /* \"#utility.yul\":4980:5080   */\n      mstore\n        /* \"#utility.yul\":4821:5091   */\n      pop\n        /* \"#utility.yul\":4533:5098   */\n      swap3\n      swap2\n      pop\n      pop\n      jump\t// out\n        /* \"#utility.yul\":5145:5779   */\n    tag_297:\n      0x00\n        /* \"#utility.yul\":5268:5272   */\n      0x40\n        /* \"#utility.yul\":5256:5265   */\n      dup3\n        /* \"#utility.yul\":5251:5254   */\n      dup5\n        /* \"#utility.yul\":5247:5266   */\n      sub\n        /* \"#utility.yul\":5243:5273   */\n      slt\n        /* \"#utility.yul\":5240:5242   */\n      iszero\n      tag_305\n      jumpi\n        /* \"#utility.yul\":5286:5287   */\n      0x00\n        /* \"#utility.yul\":5283:5284   */\n      dup1\n        /* \"#utility.yul\":5276:5288   */\n      revert\n        /* \"#utility.yul\":5240:5242   */\n    tag_305:\n        /* \"#utility.yul\":5308:5328   */\n      tag_306\n        /* \"#utility.yul\":5323:5327   */\n      0x40\n        /* \"#utility.yul\":5308:5328   */\n      tag_236\n      jump\t// in\n    tag_306:\n        /* \"#utility.yul\":5299:5328   */\n      swap1\n      pop\n        /* \"#utility.yul\":5406:5407   */\n      0x00\n        /* \"#utility.yul\":5446:5495   */\n      tag_307\n        /* \"#utility.yul\":5491:5494   */\n      dup5\n        /* \"#utility.yul\":5482:5488   */\n      dup3\n        /* \"#utility.yul\":5471:5480   */\n      dup6\n        /* \"#utility.yul\":5467:5489   */\n      add\n        /* \"#utility.yul\":5446:5495   */\n      tag_242\n      jump\t// in\n    tag_307:\n        /* \"#utility.yul\":5439:5443   */\n      0x00\n        /* \"#utility.yul\":5432:5437   */\n      dup4\n        /* \"#utility.yul\":5428:5444   */\n      add\n        /* \"#utility.yul\":5421:5496   */\n      mstore\n        /* \"#utility.yul\":5338:5507   */\n      pop\n        /* \"#utility.yul\":5595:5597   */\n      0x20\n        /* \"#utility.yul\":5584:5593   */\n      dup3\n        /* \"#utility.yul\":5580:5598   */\n      add\n        /* \"#utility.yul\":5567:5599   */\n      calldataload\n        /* \"#utility.yul\":5626:5644   */\n      0xffffffffffffffff\n        /* \"#utility.yul\":5618:5624   */\n      dup2\n        /* \"#utility.yul\":5615:5645   */\n      gt\n        /* \"#utility.yul\":5612:5614   */\n      iszero\n      tag_308\n      jumpi\n        /* \"#utility.yul\":5658:5659   */\n      0x00\n        /* \"#utility.yul\":5655:5656   */\n      dup1\n        /* \"#utility.yul\":5648:5660   */\n      revert\n        /* \"#utility.yul\":5612:5614   */\n    tag_308:\n        /* \"#utility.yul\":5701:5760   */\n      tag_309\n        /* \"#utility.yul\":5756:5759   */\n      dup5\n        /* \"#utility.yul\":5747:5753   */\n      dup3\n        /* \"#utility.yul\":5736:5745   */\n      dup6\n        /* \"#utility.yul\":5732:5754   */\n      add\n        /* \"#utility.yul\":5701:5760   */\n      tag_278\n      jump\t// in\n    tag_309:\n        /* \"#utility.yul\":5694:5698   */\n      0x20\n        /* \"#utility.yul\":5687:5692   */\n      dup4\n        /* \"#utility.yul\":5683:5699   */\n      add\n        /* \"#utility.yul\":5676:5761   */\n      mstore\n        /* \"#utility.yul\":5517:5772   */\n      pop\n        /* \"#utility.yul\":5230:5779   */\n      swap3\n      swap2\n      pop\n      pop\n      jump\t// out\n        /* \"#utility.yul\":5785:5924   */\n    tag_242:\n      0x00\n        /* \"#utility.yul\":5869:5875   */\n      dup2\n        /* \"#utility.yul\":5856:5876   */\n      calldataload\n        /* \"#utility.yul\":5847:5876   */\n      swap1\n      pop\n        /* \"#utility.yul\":5885:5918   */\n      tag_311\n        /* \"#utility.yul\":5912:5917   */\n      dup2\n        /* \"#utility.yul\":5885:5918   */\n      tag_312\n      jump\t// in\n    tag_311:\n        /* \"#utility.yul\":5837:5924   */\n      swap3\n      swap2\n      pop\n      pop\n      jump\t// out\n        /* \"#utility.yul\":5930:6073   */\n    tag_313:\n      0x00\n        /* \"#utility.yul\":6018:6024   */\n      dup2\n        /* \"#utility.yul\":6012:6025   */\n      mload\n        /* \"#utility.yul\":6003:6025   */\n      swap1\n      pop\n        /* \"#utility.yul\":6034:6067   */\n      tag_315\n        /* \"#utility.yul\":6061:6066   */\n      dup2\n        /* \"#utility.yul\":6034:6067   */\n      tag_312\n      jump\t// in\n    tag_315:\n        /* \"#utility.yul\":5993:6073   */\n      swap3\n      swap2\n      pop\n      pop\n      jump\t// out\n        /* \"#utility.yul\":6079:6357   */\n    tag_77:\n      0x00\n        /* \"#utility.yul\":6195:6197   */\n      0x20\n        /* \"#utility.yul\":6183:6192   */\n      dup3\n        /* \"#utility.yul\":6174:6181   */\n      dup5\n        /* \"#utility.yul\":6170:6193   */\n      sub\n        /* \"#utility.yul\":6166:6198   */\n      slt\n        /* \"#utility.yul\":6163:6165   */\n      iszero\n      tag_317\n      jumpi\n        /* \"#utility.yul\":6211:6212   */\n      0x00\n        /* \"#utility.yul\":6208:6209   */\n      dup1\n        /* \"#utility.yul\":6201:6213   */\n      revert\n        /* \"#utility.yul\":6163:6165   */\n    tag_317:\n        /* \"#utility.yul\":6254:6255   */\n      0x00\n        /* \"#utility.yul\":6279:6340   */\n      tag_318\n        /* \"#utility.yul\":6332:6339   */\n      dup5\n        /* \"#utility.yul\":6323:6329   */\n      dup3\n        /* \"#utility.yul\":6312:6321   */\n      dup6\n        /* \"#utility.yul\":6308:6330   */\n      add\n        /* \"#utility.yul\":6279:6340   */\n      tag_263\n      jump\t// in\n    tag_318:\n        /* \"#utility.yul\":6269:6340   */\n      swap2\n      pop\n        /* \"#utility.yul\":6225:6350   */\n      pop\n        /* \"#utility.yul\":6153:6357   */\n      swap3\n      swap2\n      pop\n      pop\n      jump\t// out\n        /* \"#utility.yul\":6363:6625   */\n    tag_41:\n      0x00\n        /* \"#utility.yul\":6471:6473   */\n      0x20\n        /* \"#utility.yul\":6459:6468   */\n      dup3\n        /* \"#utility.yul\":6450:6457   */\n      dup5\n        /* \"#utility.yul\":6446:6469   */\n      sub\n        /* \"#utility.yul\":6442:6474   */\n      slt\n        /* \"#utility.yul\":6439:6441   */\n      iszero\n      tag_320\n      jumpi\n        /* \"#utility.yul\":6487:6488   */\n      0x00\n        /* \"#utility.yul\":6484:6485   */\n      dup1\n        /* \"#utility.yul\":6477:6489   */\n      revert\n        /* \"#utility.yul\":6439:6441   */\n    tag_320:\n        /* \"#utility.yul\":6530:6531   */\n      0x00\n        /* \"#utility.yul\":6555:6608   */\n      tag_321\n        /* \"#utility.yul\":6600:6607   */\n      dup5\n        /* \"#utility.yul\":6591:6597   */\n      dup3\n        /* \"#utility.yul\":6580:6589   */\n      dup6\n        /* \"#utility.yul\":6576:6598   */\n      add\n        /* \"#utility.yul\":6555:6608   */\n      tag_242\n      jump\t// in\n    tag_321:\n        /* \"#utility.yul\":6545:6608   */\n      swap2\n      pop\n        /* \"#utility.yul\":6501:6618   */\n      pop\n        /* \"#utility.yul\":6429:6625   */\n      swap3\n      swap2\n      pop\n      pop\n      jump\t// out\n        /* \"#utility.yul\":6631:6915   */\n    tag_134:\n      0x00\n        /* \"#utility.yul\":6750:6752   */\n      0x20\n        /* \"#utility.yul\":6738:6747   */\n      dup3\n        /* \"#utility.yul\":6729:6736   */\n      dup5\n        /* \"#utility.yul\":6725:6748   */\n      sub\n        /* \"#utility.yul\":6721:6753   */\n      slt\n        /* \"#utility.yul\":6718:6720   */\n      iszero\n      tag_323\n      jumpi\n        /* \"#utility.yul\":6766:6767   */\n      0x00\n        /* \"#utility.yul\":6763:6764   */\n      dup1\n        /* \"#utility.yul\":6756:6768   */\n      revert\n        /* \"#utility.yul\":6718:6720   */\n    tag_323:\n        /* \"#utility.yul\":6809:6810   */\n      0x00\n        /* \"#utility.yul\":6834:6898   */\n      tag_324\n        /* \"#utility.yul\":6890:6897   */\n      dup5\n        /* \"#utility.yul\":6881:6887   */\n      dup3\n        /* \"#utility.yul\":6870:6879   */\n      dup6\n        /* \"#utility.yul\":6866:6888   */\n      add\n        /* \"#utility.yul\":6834:6898   */\n      tag_313\n      jump\t// in\n    tag_324:\n        /* \"#utility.yul\":6824:6898   */\n      swap2\n      pop\n        /* \"#utility.yul\":6780:6908   */\n      pop\n        /* \"#utility.yul\":6708:6915   */\n      swap3\n      swap2\n      pop\n      pop\n      jump\t// out\n        /* \"#utility.yul\":6921:7640   */\n    tag_18:\n      0x00\n      dup1\n      0x00\n        /* \"#utility.yul\":7100:7102   */\n      0x60\n        /* \"#utility.yul\":7088:7097   */\n      dup5\n        /* \"#utility.yul\":7079:7086   */\n      dup7\n        /* \"#utility.yul\":7075:7098   */\n      sub\n        /* \"#utility.yul\":7071:7103   */\n      slt\n        /* \"#utility.yul\":7068:7070   */\n      iszero\n      tag_326\n      jumpi\n        /* \"#utility.yul\":7116:7117   */\n      0x00\n        /* \"#utility.yul\":7113:7114   */\n      dup1\n        /* \"#utility.yul\":7106:7118   */\n      revert\n        /* \"#utility.yul\":7068:7070   */\n    tag_326:\n        /* \"#utility.yul\":7159:7160   */\n      0x00\n        /* \"#utility.yul\":7184:7237   */\n      tag_327\n        /* \"#utility.yul\":7229:7236   */\n      dup7\n        /* \"#utility.yul\":7220:7226   */\n      dup3\n        /* \"#utility.yul\":7209:7218   */\n      dup8\n        /* \"#utility.yul\":7205:7227   */\n      add\n        /* \"#utility.yul\":7184:7237   */\n      tag_242\n      jump\t// in\n    tag_327:\n        /* \"#utility.yul\":7174:7237   */\n      swap4\n      pop\n        /* \"#utility.yul\":7130:7247   */\n      pop\n        /* \"#utility.yul\":7314:7316   */\n      0x20\n        /* \"#utility.yul\":7303:7312   */\n      dup5\n        /* \"#utility.yul\":7299:7317   */\n      add\n        /* \"#utility.yul\":7286:7318   */\n      calldataload\n        /* \"#utility.yul\":7345:7363   */\n      0xffffffffffffffff\n        /* \"#utility.yul\":7337:7343   */\n      dup2\n        /* \"#utility.yul\":7334:7364   */\n      gt\n        /* \"#utility.yul\":7331:7333   */\n      iszero\n      tag_328\n      jumpi\n        /* \"#utility.yul\":7377:7378   */\n      0x00\n        /* \"#utility.yul\":7374:7375   */\n      dup1\n        /* \"#utility.yul\":7367:7379   */\n      revert\n        /* \"#utility.yul\":7331:7333   */\n    tag_328:\n        /* \"#utility.yul\":7405:7483   */\n      tag_329\n        /* \"#utility.yul\":7475:7482   */\n      dup7\n        /* \"#utility.yul\":7466:7472   */\n      dup3\n        /* \"#utility.yul\":7455:7464   */\n      dup8\n        /* \"#utility.yul\":7451:7473   */\n      add\n        /* \"#utility.yul\":7405:7483   */\n      tag_255\n      jump\t// in\n    tag_329:\n        /* \"#utility.yul\":7395:7483   */\n      swap3\n      pop\n        /* \"#utility.yul\":7257:7493   */\n      pop\n        /* \"#utility.yul\":7532:7534   */\n      0x40\n        /* \"#utility.yul\":7558:7623   */\n      tag_330\n        /* \"#utility.yul\":7615:7622   */\n      dup7\n        /* \"#utility.yul\":7606:7612   */\n      dup3\n        /* \"#utility.yul\":7595:7604   */\n      dup8\n        /* \"#utility.yul\":7591:7613   */\n      add\n        /* \"#utility.yul\":7558:7623   */\n      tag_274\n      jump\t// in\n    tag_330:\n        /* \"#utility.yul\":7548:7623   */\n      swap2\n      pop\n        /* \"#utility.yul\":7503:7633   */\n      pop\n        /* \"#utility.yul\":7058:7640   */\n      swap3\n      pop\n      swap3\n      pop\n      swap3\n      jump\t// out\n        /* \"#utility.yul\":7646:8725   */\n    tag_32:\n      0x00\n      dup1\n      0x00\n      dup1\n      0x00\n        /* \"#utility.yul\":7893:7896   */\n      0xa0\n        /* \"#utility.yul\":7881:7890   */\n      dup7\n        /* \"#utility.yul\":7872:7879   */\n      dup9\n        /* \"#utility.yul\":7868:7891   */\n      sub\n        /* \"#utility.yul\":7864:7897   */\n      slt\n        /* \"#utility.yul\":7861:7863   */\n      iszero\n      tag_332\n      jumpi\n        /* \"#utility.yul\":7910:7911   */\n      0x00\n        /* \"#utility.yul\":7907:7908   */\n      dup1\n        /* \"#utility.yul\":7900:7912   */\n      revert\n        /* \"#utility.yul\":7861:7863   */\n    tag_332:\n        /* \"#utility.yul\":7953:7954   */\n      0x00\n        /* \"#utility.yul\":7978:8031   */\n      tag_333\n        /* \"#utility.yul\":8023:8030   */\n      dup9\n        /* \"#utility.yul\":8014:8020   */\n      dup3\n        /* \"#utility.yul\":8003:8012   */\n      dup10\n        /* \"#utility.yul\":7999:8021   */\n      add\n        /* \"#utility.yul\":7978:8031   */\n      tag_242\n      jump\t// in\n    tag_333:\n        /* \"#utility.yul\":7968:8031   */\n      swap6\n      pop\n        /* \"#utility.yul\":7924:8041   */\n      pop\n        /* \"#utility.yul\":8080:8082   */\n      0x20\n        /* \"#utility.yul\":8106:8172   */\n      tag_334\n        /* \"#utility.yul\":8164:8171   */\n      dup9\n        /* \"#utility.yul\":8155:8161   */\n      dup3\n        /* \"#utility.yul\":8144:8153   */\n      dup10\n        /* \"#utility.yul\":8140:8162   */\n      add\n        /* \"#utility.yul\":8106:8172   */\n      tag_270\n      jump\t// in\n    tag_334:\n        /* \"#utility.yul\":8096:8172   */\n      swap5\n      pop\n        /* \"#utility.yul\":8051:8182   */\n      pop\n        /* \"#utility.yul\":8221:8223   */\n      0x40\n        /* \"#utility.yul\":8247:8315   */\n      tag_335\n        /* \"#utility.yul\":8307:8314   */\n      dup9\n        /* \"#utility.yul\":8298:8304   */\n      dup3\n        /* \"#utility.yul\":8287:8296   */\n      dup10\n        /* \"#utility.yul\":8283:8305   */\n      add\n        /* \"#utility.yul\":8247:8315   */\n      tag_266\n      jump\t// in\n    tag_335:\n        /* \"#utility.yul\":8237:8315   */\n      swap4\n      pop\n        /* \"#utility.yul\":8192:8325   */\n      pop\n        /* \"#utility.yul\":8364:8366   */\n      0x60\n        /* \"#utility.yul\":8390:8455   */\n      tag_336\n        /* \"#utility.yul\":8447:8454   */\n      dup9\n        /* \"#utility.yul\":8438:8444   */\n      dup3\n        /* \"#utility.yul\":8427:8436   */\n      dup10\n        /* \"#utility.yul\":8423:8445   */\n      add\n        /* \"#utility.yul\":8390:8455   */\n      tag_274\n      jump\t// in\n    tag_336:\n        /* \"#utility.yul\":8380:8455   */\n      swap3\n      pop\n        /* \"#utility.yul\":8335:8465   */\n      pop\n        /* \"#utility.yul\":8532:8535   */\n      0x80\n        /* \"#utility.yul\":8521:8530   */\n      dup7\n        /* \"#utility.yul\":8517:8536   */\n      add\n        /* \"#utility.yul\":8504:8537   */\n      calldataload\n        /* \"#utility.yul\":8564:8582   */\n      0xffffffffffffffff\n        /* \"#utility.yul\":8556:8562   */\n      dup2\n        /* \"#utility.yul\":8553:8583   */\n      gt\n        /* \"#utility.yul\":8550:8552   */\n      iszero\n      tag_337\n      jumpi\n        /* \"#utility.yul\":8596:8597   */\n      0x00\n        /* \"#utility.yul\":8593:8594   */\n      dup1\n        /* \"#utility.yul\":8586:8598   */\n      revert\n        /* \"#utility.yul\":8550:8552   */\n    tag_337:\n        /* \"#utility.yul\":8624:8708   */\n      tag_338\n        /* \"#utility.yul\":8700:8707   */\n      dup9\n        /* \"#utility.yul\":8691:8697   */\n      dup3\n        /* \"#utility.yul\":8680:8689   */\n      dup10\n        /* \"#utility.yul\":8676:8698   */\n      add\n        /* \"#utility.yul\":8624:8708   */\n      tag_294\n      jump\t// in\n    tag_338:\n        /* \"#utility.yul\":8614:8708   */\n      swap2\n      pop\n        /* \"#utility.yul\":8475:8718   */\n      pop\n        /* \"#utility.yul\":7851:8725   */\n      swap3\n      swap6\n      pop\n      swap3\n      swap6\n      swap1\n      swap4\n      pop\n      jump\t// out\n        /* \"#utility.yul\":8731:10146   */\n    tag_28:\n      0x00\n      dup1\n      0x00\n      dup1\n      0x00\n      dup1\n        /* \"#utility.yul\":8997:9000   */\n      0xc0\n        /* \"#utility.yul\":8985:8994   */\n      dup8\n        /* \"#utility.yul\":8976:8983   */\n      dup10\n        /* \"#utility.yul\":8972:8995   */\n      sub\n        /* \"#utility.yul\":8968:9001   */\n      slt\n        /* \"#utility.yul\":8965:8967   */\n      iszero\n      tag_340\n      jumpi\n        /* \"#utility.yul\":9014:9015   */\n      0x00\n        /* \"#utility.yul\":9011:9012   */\n      dup1\n        /* \"#utility.yul\":9004:9016   */\n      revert\n        /* \"#utility.yul\":8965:8967   */\n    tag_340:\n        /* \"#utility.yul\":9057:9058   */\n      0x00\n        /* \"#utility.yul\":9082:9135   */\n      tag_341\n        /* \"#utility.yul\":9127:9134   */\n      dup10\n        /* \"#utility.yul\":9118:9124   */\n      dup3\n        /* \"#utility.yul\":9107:9116   */\n      dup11\n        /* \"#utility.yul\":9103:9125   */\n      add\n        /* \"#utility.yul\":9082:9135   */\n      tag_242\n      jump\t// in\n    tag_341:\n        /* \"#utility.yul\":9072:9135   */\n      swap7\n      pop\n        /* \"#utility.yul\":9028:9145   */\n      pop\n        /* \"#utility.yul\":9212:9214   */\n      0x20\n        /* \"#utility.yul\":9201:9210   */\n      dup8\n        /* \"#utility.yul\":9197:9215   */\n      add\n        /* \"#utility.yul\":9184:9216   */\n      calldataload\n        /* \"#utility.yul\":9243:9261   */\n      0xffffffffffffffff\n        /* \"#utility.yul\":9235:9241   */\n      dup2\n        /* \"#utility.yul\":9232:9262   */\n      gt\n        /* \"#utility.yul\":9229:9231   */\n      iszero\n      tag_342\n      jumpi\n        /* \"#utility.yul\":9275:9276   */\n      0x00\n        /* \"#utility.yul\":9272:9273   */\n      dup1\n        /* \"#utility.yul\":9265:9277   */\n      revert\n        /* \"#utility.yul\":9229:9231   */\n    tag_342:\n        /* \"#utility.yul\":9303:9366   */\n      tag_343\n        /* \"#utility.yul\":9358:9365   */\n      dup10\n        /* \"#utility.yul\":9349:9355   */\n      dup3\n        /* \"#utility.yul\":9338:9347   */\n      dup11\n        /* \"#utility.yul\":9334:9356   */\n      add\n        /* \"#utility.yul\":9303:9366   */\n      tag_278\n      jump\t// in\n    tag_343:\n        /* \"#utility.yul\":9293:9366   */\n      swap6\n      pop\n        /* \"#utility.yul\":9155:9376   */\n      pop\n        /* \"#utility.yul\":9415:9417   */\n      0x40\n        /* \"#utility.yul\":9441:9494   */\n      tag_344\n        /* \"#utility.yul\":9486:9493   */\n      dup10\n        /* \"#utility.yul\":9477:9483   */\n      dup3\n        /* \"#utility.yul\":9466:9475   */\n      dup11\n        /* \"#utility.yul\":9462:9484   */\n      add\n        /* \"#utility.yul\":9441:9494   */\n      tag_251\n      jump\t// in\n    tag_344:\n        /* \"#utility.yul\":9431:9494   */\n      swap5\n      pop\n        /* \"#utility.yul\":9386:9504   */\n      pop\n        /* \"#utility.yul\":9543:9545   */\n      0x60\n        /* \"#utility.yul\":9569:9635   */\n      tag_345\n        /* \"#utility.yul\":9627:9634   */\n      dup10\n        /* \"#utility.yul\":9618:9624   */\n      dup3\n        /* \"#utility.yul\":9607:9616   */\n      dup11\n        /* \"#utility.yul\":9603:9625   */\n      add\n        /* \"#utility.yul\":9569:9635   */\n      tag_270\n      jump\t// in\n    tag_345:\n        /* \"#utility.yul\":9559:9635   */\n      swap4\n      pop\n        /* \"#utility.yul\":9514:9645   */\n      pop\n        /* \"#utility.yul\":9712:9715   */\n      0x80\n        /* \"#utility.yul\":9701:9710   */\n      dup8\n        /* \"#utility.yul\":9697:9716   */\n      add\n        /* \"#utility.yul\":9684:9717   */\n      calldataload\n        /* \"#utility.yul\":9744:9762   */\n      0xffffffffffffffff\n        /* \"#utility.yul\":9736:9742   */\n      dup2\n        /* \"#utility.yul\":9733:9763   */\n      gt\n        /* \"#utility.yul\":9730:9732   */\n      iszero\n      tag_346\n      jumpi\n        /* \"#utility.yul\":9776:9777   */\n      0x00\n        /* \"#utility.yul\":9773:9774   */\n      dup1\n        /* \"#utility.yul\":9766:9778   */\n      revert\n        /* \"#utility.yul\":9730:9732   */\n    tag_346:\n        /* \"#utility.yul\":9804:9882   */\n      tag_347\n        /* \"#utility.yul\":9874:9881   */\n      dup10\n        /* \"#utility.yul\":9865:9871   */\n      dup3\n        /* \"#utility.yul\":9854:9863   */\n      dup11\n        /* \"#utility.yul\":9850:9872   */\n      add\n        /* \"#utility.yul\":9804:9882   */\n      tag_255\n      jump\t// in\n    tag_347:\n        /* \"#utility.yul\":9794:9882   */\n      swap3\n      pop\n        /* \"#utility.yul\":9655:9892   */\n      pop\n        /* \"#utility.yul\":9959:9962   */\n      0xa0\n        /* \"#utility.yul\":9948:9957   */\n      dup8\n        /* \"#utility.yul\":9944:9963   */\n      add\n        /* \"#utility.yul\":9931:9964   */\n      calldataload\n        /* \"#utility.yul\":9991:10009   */\n      0xffffffffffffffff\n        /* \"#utility.yul\":9983:9989   */\n      dup2\n        /* \"#utility.yul\":9980:10010   */\n      gt\n        /* \"#utility.yul\":9977:9979   */\n      iszero\n      tag_348\n      jumpi\n        /* \"#utility.yul\":10023:10024   */\n      0x00\n        /* \"#utility.yul\":10020:10021   */\n      dup1\n        /* \"#utility.yul\":10013:10025   */\n      revert\n        /* \"#utility.yul\":9977:9979   */\n    tag_348:\n        /* \"#utility.yul\":10051:10129   */\n      tag_349\n        /* \"#utility.yul\":10121:10128   */\n      dup10\n        /* \"#utility.yul\":10112:10118   */\n      dup3\n        /* \"#utility.yul\":10101:10110   */\n      dup11\n        /* \"#utility.yul\":10097:10119   */\n      add\n        /* \"#utility.yul\":10051:10129   */\n      tag_255\n      jump\t// in\n    tag_349:\n        /* \"#utility.yul\":10041:10129   */\n      swap2\n      pop\n        /* \"#utility.yul\":9902:10139   */\n      pop\n        /* \"#utility.yul\":8955:10146   */\n      swap3\n      swap6\n      pop\n      swap3\n      swap6\n      pop\n      swap3\n      swap6\n      jump\t// out\n        /* \"#utility.yul\":10152:11854   */\n    tag_24:\n      0x00\n      dup1\n      0x00\n      dup1\n      0x00\n      dup1\n      0x00\n        /* \"#utility.yul\":10459:10462   */\n      0xe0\n        /* \"#utility.yul\":10447:10456   */\n      dup9\n        /* \"#utility.yul\":10438:10445   */\n      dup11\n        /* \"#utility.yul\":10434:10457   */\n      sub\n        /* \"#utility.yul\":10430:10463   */\n      slt\n        /* \"#utility.yul\":10427:10429   */\n      iszero\n      tag_351\n      jumpi\n        /* \"#utility.yul\":10476:10477   */\n      0x00\n        /* \"#utility.yul\":10473:10474   */\n      dup1\n        /* \"#utility.yul\":10466:10478   */\n      revert\n        /* \"#utility.yul\":10427:10429   */\n    tag_351:\n        /* \"#utility.yul\":10519:10520   */\n      0x00\n        /* \"#utility.yul\":10544:10597   */\n      tag_352\n        /* \"#utility.yul\":10589:10596   */\n      dup11\n        /* \"#utility.yul\":10580:10586   */\n      dup3\n        /* \"#utility.yul\":10569:10578   */\n      dup12\n        /* \"#utility.yul\":10565:10587   */\n      add\n        /* \"#utility.yul\":10544:10597   */\n      tag_242\n      jump\t// in\n    tag_352:\n        /* \"#utility.yul\":10534:10597   */\n      swap8\n      pop\n        /* \"#utility.yul\":10490:10607   */\n      pop\n        /* \"#utility.yul\":10674:10676   */\n      0x20\n        /* \"#utility.yul\":10663:10672   */\n      dup9\n        /* \"#utility.yul\":10659:10677   */\n      add\n        /* \"#utility.yul\":10646:10678   */\n      calldataload\n        /* \"#utility.yul\":10705:10723   */\n      0xffffffffffffffff\n        /* \"#utility.yul\":10697:10703   */\n      dup2\n        /* \"#utility.yul\":10694:10724   */\n      gt\n        /* \"#utility.yul\":10691:10693   */\n      iszero\n      tag_353\n      jumpi\n        /* \"#utility.yul\":10737:10738   */\n      0x00\n        /* \"#utility.yul\":10734:10735   */\n      dup1\n        /* \"#utility.yul\":10727:10739   */\n      revert\n        /* \"#utility.yul\":10691:10693   */\n    tag_353:\n        /* \"#utility.yul\":10765:10828   */\n      tag_354\n        /* \"#utility.yul\":10820:10827   */\n      dup11\n        /* \"#utility.yul\":10811:10817   */\n      dup3\n        /* \"#utility.yul\":10800:10809   */\n      dup12\n        /* \"#utility.yul\":10796:10818   */\n      add\n        /* \"#utility.yul\":10765:10828   */\n      tag_278\n      jump\t// in\n    tag_354:\n        /* \"#utility.yul\":10755:10828   */\n      swap7\n      pop\n        /* \"#utility.yul\":10617:10838   */\n      pop\n        /* \"#utility.yul\":10877:10879   */\n      0x40\n        /* \"#utility.yul\":10903:10956   */\n      tag_355\n        /* \"#utility.yul\":10948:10955   */\n      dup11\n        /* \"#utility.yul\":10939:10945   */\n      dup3\n        /* \"#utility.yul\":10928:10937   */\n      dup12\n        /* \"#utility.yul\":10924:10946   */\n      add\n        /* \"#utility.yul\":10903:10956   */\n      tag_251\n      jump\t// in\n    tag_355:\n        /* \"#utility.yul\":10893:10956   */\n      swap6\n      pop\n        /* \"#utility.yul\":10848:10966   */\n      pop\n        /* \"#utility.yul\":11005:11007   */\n      0x60\n        /* \"#utility.yul\":11031:11097   */\n      tag_356\n        /* \"#utility.yul\":11089:11096   */\n      dup11\n        /* \"#utility.yul\":11080:11086   */\n      dup3\n        /* \"#utility.yul\":11069:11078   */\n      dup12\n        /* \"#utility.yul\":11065:11087   */\n      add\n        /* \"#utility.yul\":11031:11097   */\n      tag_270\n      jump\t// in\n    tag_356:\n        /* \"#utility.yul\":11021:11097   */\n      swap5\n      pop\n        /* \"#utility.yul\":10976:11107   */\n      pop\n        /* \"#utility.yul\":11174:11177   */\n      0x80\n        /* \"#utility.yul\":11163:11172   */\n      dup9\n        /* \"#utility.yul\":11159:11178   */\n      add\n        /* \"#utility.yul\":11146:11179   */\n      calldataload\n        /* \"#utility.yul\":11206:11224   */\n      0xffffffffffffffff\n        /* \"#utility.yul\":11198:11204   */\n      dup2\n        /* \"#utility.yul\":11195:11225   */\n      gt\n        /* \"#utility.yul\":11192:11194   */\n      iszero\n      tag_357\n      jumpi\n        /* \"#utility.yul\":11238:11239   */\n      0x00\n        /* \"#utility.yul\":11235:11236   */\n      dup1\n        /* \"#utility.yul\":11228:11240   */\n      revert\n        /* \"#utility.yul\":11192:11194   */\n    tag_357:\n        /* \"#utility.yul\":11266:11344   */\n      tag_358\n        /* \"#utility.yul\":11336:11343   */\n      dup11\n        /* \"#utility.yul\":11327:11333   */\n      dup3\n        /* \"#utility.yul\":11316:11325   */\n      dup12\n        /* \"#utility.yul\":11312:11334   */\n      add\n        /* \"#utility.yul\":11266:11344   */\n      tag_255\n      jump\t// in\n    tag_358:\n        /* \"#utility.yul\":11256:11344   */\n      swap4\n      pop\n        /* \"#utility.yul\":11117:11354   */\n      pop\n        /* \"#utility.yul\":11421:11424   */\n      0xa0\n        /* \"#utility.yul\":11410:11419   */\n      dup9\n        /* \"#utility.yul\":11406:11425   */\n      add\n        /* \"#utility.yul\":11393:11426   */\n      calldataload\n        /* \"#utility.yul\":11453:11471   */\n      0xffffffffffffffff\n        /* \"#utility.yul\":11445:11451   */\n      dup2\n        /* \"#utility.yul\":11442:11472   */\n      gt\n        /* \"#utility.yul\":11439:11441   */\n      iszero\n      tag_359\n      jumpi\n        /* \"#utility.yul\":11485:11486   */\n      0x00\n        /* \"#utility.yul\":11482:11483   */\n      dup1\n        /* \"#utility.yul\":11475:11487   */\n      revert\n        /* \"#utility.yul\":11439:11441   */\n    tag_359:\n        /* \"#utility.yul\":11513:11591   */\n      tag_360\n        /* \"#utility.yul\":11583:11590   */\n      dup11\n        /* \"#utility.yul\":11574:11580   */\n      dup3\n        /* \"#utility.yul\":11563:11572   */\n      dup12\n        /* \"#utility.yul\":11559:11581   */\n      add\n        /* \"#utility.yul\":11513:11591   */\n      tag_255\n      jump\t// in\n    tag_360:\n        /* \"#utility.yul\":11503:11591   */\n      swap3\n      pop\n        /* \"#utility.yul\":11364:11601   */\n      pop\n        /* \"#utility.yul\":11668:11671   */\n      0xc0\n        /* \"#utility.yul\":11657:11666   */\n      dup9\n        /* \"#utility.yul\":11653:11672   */\n      add\n        /* \"#utility.yul\":11640:11673   */\n      calldataload\n        /* \"#utility.yul\":11700:11718   */\n      0xffffffffffffffff\n        /* \"#utility.yul\":11692:11698   */\n      dup2\n        /* \"#utility.yul\":11689:11719   */\n      gt\n        /* \"#utility.yul\":11686:11688   */\n      iszero\n      tag_361\n      jumpi\n        /* \"#utility.yul\":11732:11733   */\n      0x00\n        /* \"#utility.yul\":11729:11730   */\n      dup1\n        /* \"#utility.yul\":11722:11734   */\n      revert\n        /* \"#utility.yul\":11686:11688   */\n    tag_361:\n        /* \"#utility.yul\":11760:11837   */\n      tag_362\n        /* \"#utility.yul\":11829:11836   */\n      dup11\n        /* \"#utility.yul\":11820:11826   */\n      dup3\n        /* \"#utility.yul\":11809:11818   */\n      dup12\n        /* \"#utility.yul\":11805:11827   */\n      add\n        /* \"#utility.yul\":11760:11837   */\n      tag_282\n      jump\t// in\n    tag_362:\n        /* \"#utility.yul\":11750:11837   */\n      swap2\n      pop\n        /* \"#utility.yul\":11611:11847   */\n      pop\n        /* \"#utility.yul\":10417:11854   */\n      swap3\n      swap6\n      swap9\n      swap2\n      swap5\n      swap8\n      pop\n      swap3\n      swap6\n      pop\n      jump\t// out\n        /* \"#utility.yul\":11860:12056   */\n    tag_363:\n      0x00\n        /* \"#utility.yul\":11984:12050   */\n      tag_365\n        /* \"#utility.yul\":12046:12049   */\n      dup4\n        /* \"#utility.yul\":12038:12044   */\n      dup4\n        /* \"#utility.yul\":11984:12050   */\n      tag_366\n      jump\t// in\n    tag_365:\n        /* \"#utility.yul\":11970:12050   */\n      swap1\n      pop\n        /* \"#utility.yul\":11960:12056   */\n      swap3\n      swap2\n      pop\n      pop\n      jump\t// out\n        /* \"#utility.yul\":12062:12241   */\n    tag_367:\n      0x00\n        /* \"#utility.yul\":12152:12198   */\n      tag_369\n        /* \"#utility.yul\":12194:12197   */\n      dup4\n        /* \"#utility.yul\":12186:12192   */\n      dup4\n        /* \"#utility.yul\":12152:12198   */\n      tag_370\n      jump\t// in\n    tag_369:\n        /* \"#utility.yul\":12230:12234   */\n      0x20\n        /* \"#utility.yul\":12225:12228   */\n      dup4\n        /* \"#utility.yul\":12221:12235   */\n      add\n        /* \"#utility.yul\":12207:12235   */\n      swap1\n      pop\n        /* \"#utility.yul\":12142:12241   */\n      swap3\n      swap2\n      pop\n      pop\n      jump\t// out\n        /* \"#utility.yul\":12247:12442   */\n    tag_371:\n      0x00\n        /* \"#utility.yul\":12345:12399   */\n      tag_373\n        /* \"#utility.yul\":12395:12398   */\n      dup4\n        /* \"#utility.yul\":12387:12393   */\n      dup4\n        /* \"#utility.yul\":12345:12399   */\n      tag_374\n      jump\t// in\n    tag_373:\n        /* \"#utility.yul\":12431:12435   */\n      0x20\n        /* \"#utility.yul\":12426:12429   */\n      dup4\n        /* \"#utility.yul\":12422:12436   */\n      add\n        /* \"#utility.yul\":12408:12436   */\n      swap1\n      pop\n        /* \"#utility.yul\":12335:12442   */\n      swap3\n      swap2\n      pop\n      pop\n      jump\t// out\n        /* \"#utility.yul\":12448:12566   */\n    tag_375:\n        /* \"#utility.yul\":12535:12559   */\n      tag_377\n        /* \"#utility.yul\":12553:12558   */\n      dup2\n        /* \"#utility.yul\":12535:12559   */\n      tag_378\n      jump\t// in\n    tag_377:\n        /* \"#utility.yul\":12530:12533   */\n      dup3\n        /* \"#utility.yul\":12523:12560   */\n      mstore\n        /* \"#utility.yul\":12513:12566   */\n      pop\n      pop\n      jump\t// out\n        /* \"#utility.yul\":12600:13591   */\n    tag_379:\n      0x00\n        /* \"#utility.yul\":12768:12832   */\n      tag_381\n        /* \"#utility.yul\":12826:12831   */\n      dup3\n        /* \"#utility.yul\":12768:12832   */\n      tag_382\n      jump\t// in\n    tag_381:\n        /* \"#utility.yul\":12848:12944   */\n      tag_383\n        /* \"#utility.yul\":12937:12943   */\n      dup2\n        /* \"#utility.yul\":12932:12935   */\n      dup6\n        /* \"#utility.yul\":12848:12944   */\n      tag_384\n      jump\t// in\n    tag_383:\n        /* \"#utility.yul\":12841:12944   */\n      swap4\n      pop\n        /* \"#utility.yul\":12970:12973   */\n      dup4\n        /* \"#utility.yul\":13015:13019   */\n      0x20\n        /* \"#utility.yul\":13007:13013   */\n      dup3\n        /* \"#utility.yul\":13003:13020   */\n      mul\n        /* \"#utility.yul\":12998:13001   */\n      dup6\n        /* \"#utility.yul\":12994:13021   */\n      add\n        /* \"#utility.yul\":13045:13111   */\n      tag_385\n        /* \"#utility.yul\":13105:13110   */\n      dup6\n        /* \"#utility.yul\":13045:13111   */\n      tag_386\n      jump\t// in\n    tag_385:\n        /* \"#utility.yul\":13134:13141   */\n      dup1\n        /* \"#utility.yul\":13165:13166   */\n      0x00\n        /* \"#utility.yul\":13150:13546   */\n    tag_387:\n        /* \"#utility.yul\":13175:13181   */\n      dup6\n        /* \"#utility.yul\":13172:13173   */\n      dup2\n        /* \"#utility.yul\":13169:13182   */\n      lt\n        /* \"#utility.yul\":13150:13546   */\n      iszero\n      tag_389\n      jumpi\n        /* \"#utility.yul\":13246:13255   */\n      dup5\n        /* \"#utility.yul\":13240:13244   */\n      dup5\n        /* \"#utility.yul\":13236:13256   */\n      sub\n        /* \"#utility.yul\":13231:13234   */\n      dup10\n        /* \"#utility.yul\":13224:13257   */\n      mstore\n        /* \"#utility.yul\":13297:13303   */\n      dup2\n        /* \"#utility.yul\":13291:13304   */\n      mload\n        /* \"#utility.yul\":13325:13409   */\n      tag_390\n        /* \"#utility.yul\":13404:13408   */\n      dup6\n        /* \"#utility.yul\":13389:13402   */\n      dup3\n        /* \"#utility.yul\":13325:13409   */\n      tag_363\n      jump\t// in\n    tag_390:\n        /* \"#utility.yul\":13317:13409   */\n      swap5\n      pop\n        /* \"#utility.yul\":13432:13502   */\n      tag_391\n        /* \"#utility.yul\":13495:13501   */\n      dup4\n        /* \"#utility.yul\":13432:13502   */\n      tag_392\n      jump\t// in\n    tag_391:\n        /* \"#utility.yul\":13422:13502   */\n      swap3\n      pop\n        /* \"#utility.yul\":13531:13535   */\n      0x20\n        /* \"#utility.yul\":13526:13529   */\n      dup11\n        /* \"#utility.yul\":13522:13536   */\n      add\n        /* \"#utility.yul\":13515:13536   */\n      swap10\n      pop\n        /* \"#utility.yul\":13210:13546   */\n      pop\n        /* \"#utility.yul\":13197:13198   */\n      0x01\n        /* \"#utility.yul\":13194:13195   */\n      dup2\n        /* \"#utility.yul\":13190:13199   */\n      add\n        /* \"#utility.yul\":13185:13199   */\n      swap1\n      pop\n        /* \"#utility.yul\":13150:13546   */\n      jump(tag_387)\n    tag_389:\n        /* \"#utility.yul\":13154:13168   */\n      pop\n        /* \"#utility.yul\":13562:13566   */\n      dup3\n        /* \"#utility.yul\":13555:13566   */\n      swap8\n      pop\n        /* \"#utility.yul\":13582:13585   */\n      dup8\n        /* \"#utility.yul\":13575:13585   */\n      swap6\n      pop\n        /* \"#utility.yul\":12744:13591   */\n      pop\n      pop\n      pop\n      pop\n      pop\n      swap3\n      swap2\n      pop\n      pop\n      jump\t// out\n        /* \"#utility.yul\":13627:14359   */\n    tag_393:\n      0x00\n        /* \"#utility.yul\":13775:13829   */\n      tag_395\n        /* \"#utility.yul\":13823:13828   */\n      dup3\n        /* \"#utility.yul\":13775:13829   */\n      tag_396\n      jump\t// in\n    tag_395:\n        /* \"#utility.yul\":13845:13931   */\n      tag_397\n        /* \"#utility.yul\":13924:13930   */\n      dup2\n        /* \"#utility.yul\":13919:13922   */\n      dup6\n        /* \"#utility.yul\":13845:13931   */\n      tag_398\n      jump\t// in\n    tag_397:\n        /* \"#utility.yul\":13838:13931   */\n      swap4\n      pop\n        /* \"#utility.yul\":13955:14011   */\n      tag_399\n        /* \"#utility.yul\":14005:14010   */\n      dup4\n        /* \"#utility.yul\":13955:14011   */\n      tag_400\n      jump\t// in\n    tag_399:\n        /* \"#utility.yul\":14034:14041   */\n      dup1\n        /* \"#utility.yul\":14065:14066   */\n      0x00\n        /* \"#utility.yul\":14050:14334   */\n    tag_401:\n        /* \"#utility.yul\":14075:14081   */\n      dup4\n        /* \"#utility.yul\":14072:14073   */\n      dup2\n        /* \"#utility.yul\":14069:14082   */\n      lt\n        /* \"#utility.yul\":14050:14334   */\n      iszero\n      tag_403\n      jumpi\n        /* \"#utility.yul\":14151:14157   */\n      dup2\n        /* \"#utility.yul\":14145:14158   */\n      mload\n        /* \"#utility.yul\":14178:14241   */\n      tag_404\n        /* \"#utility.yul\":14237:14240   */\n      dup9\n        /* \"#utility.yul\":14222:14235   */\n      dup3\n        /* \"#utility.yul\":14178:14241   */\n      tag_367\n      jump\t// in\n    tag_404:\n        /* \"#utility.yul\":14171:14241   */\n      swap8\n      pop\n        /* \"#utility.yul\":14264:14324   */\n      tag_405\n        /* \"#utility.yul\":14317:14323   */\n      dup4\n        /* \"#utility.yul\":14264:14324   */\n      tag_406\n      jump\t// in\n    tag_405:\n        /* \"#utility.yul\":14254:14324   */\n      swap3\n      pop\n        /* \"#utility.yul\":14110:14334   */\n      pop\n        /* \"#utility.yul\":14097:14098   */\n      0x01\n        /* \"#utility.yul\":14094:14095   */\n      dup2\n        /* \"#utility.yul\":14090:14099   */\n      add\n        /* \"#utility.yul\":14085:14099   */\n      swap1\n      pop\n        /* \"#utility.yul\":14050:14334   */\n      jump(tag_401)\n    tag_403:\n        /* \"#utility.yul\":14054:14068   */\n      pop\n        /* \"#utility.yul\":14350:14353   */\n      dup6\n        /* \"#utility.yul\":14343:14353   */\n      swap4\n      pop\n        /* \"#utility.yul\":13751:14359   */\n      pop\n      pop\n      pop\n      swap3\n      swap2\n      pop\n      pop\n      jump\t// out\n        /* \"#utility.yul\":14395:15151   */\n    tag_407:\n      0x00\n        /* \"#utility.yul\":14551:14605   */\n      tag_409\n        /* \"#utility.yul\":14599:14604   */\n      dup3\n        /* \"#utility.yul\":14551:14605   */\n      tag_396\n      jump\t// in\n    tag_409:\n        /* \"#utility.yul\":14621:14715   */\n      tag_410\n        /* \"#utility.yul\":14708:14714   */\n      dup2\n        /* \"#utility.yul\":14703:14706   */\n      dup6\n        /* \"#utility.yul\":14621:14715   */\n      tag_411\n      jump\t// in\n    tag_410:\n        /* \"#utility.yul\":14614:14715   */\n      swap4\n      pop\n        /* \"#utility.yul\":14739:14795   */\n      tag_412\n        /* \"#utility.yul\":14789:14794   */\n      dup4\n        /* \"#utility.yul\":14739:14795   */\n      tag_400\n      jump\t// in\n    tag_412:\n        /* \"#utility.yul\":14818:14825   */\n      dup1\n        /* \"#utility.yul\":14849:14850   */\n      0x00\n        /* \"#utility.yul\":14834:15126   */\n    tag_413:\n        /* \"#utility.yul\":14859:14865   */\n      dup4\n        /* \"#utility.yul\":14856:14857   */\n      dup2\n        /* \"#utility.yul\":14853:14866   */\n      lt\n        /* \"#utility.yul\":14834:15126   */\n      iszero\n      tag_415\n      jumpi\n        /* \"#utility.yul\":14935:14941   */\n      dup2\n        /* \"#utility.yul\":14929:14942   */\n      mload\n        /* \"#utility.yul\":14962:15033   */\n      tag_416\n        /* \"#utility.yul\":15029:15032   */\n      dup9\n        /* \"#utility.yul\":15014:15027   */\n      dup3\n        /* \"#utility.yul\":14962:15033   */\n      tag_371\n      jump\t// in\n    tag_416:\n        /* \"#utility.yul\":14955:15033   */\n      swap8\n      pop\n        /* \"#utility.yul\":15056:15116   */\n      tag_417\n        /* \"#utility.yul\":15109:15115   */\n      dup4\n        /* \"#utility.yul\":15056:15116   */\n      tag_406\n      jump\t// in\n    tag_417:\n        /* \"#utility.yul\":15046:15116   */\n      swap3\n      pop\n        /* \"#utility.yul\":14894:15126   */\n      pop\n        /* \"#utility.yul\":14881:14882   */\n      0x01\n        /* \"#utility.yul\":14878:14879   */\n      dup2\n        /* \"#utility.yul\":14874:14883   */\n      add\n        /* \"#utility.yul\":14869:14883   */\n      swap1\n      pop\n        /* \"#utility.yul\":14834:15126   */\n      jump(tag_413)\n    tag_415:\n        /* \"#utility.yul\":14838:14852   */\n      pop\n        /* \"#utility.yul\":15142:15145   */\n      dup6\n        /* \"#utility.yul\":15135:15145   */\n      swap4\n      pop\n        /* \"#utility.yul\":14527:15151   */\n      pop\n      pop\n      pop\n      swap3\n      swap2\n      pop\n      pop\n      jump\t// out\n        /* \"#utility.yul\":15157:15266   */\n    tag_418:\n        /* \"#utility.yul\":15238:15259   */\n      tag_420\n        /* \"#utility.yul\":15253:15258   */\n      dup2\n        /* \"#utility.yul\":15238:15259   */\n      tag_421\n      jump\t// in\n    tag_420:\n        /* \"#utility.yul\":15233:15236   */\n      dup3\n        /* \"#utility.yul\":15226:15260   */\n      mstore\n        /* \"#utility.yul\":15216:15266   */\n      pop\n      pop\n      jump\t// out\n        /* \"#utility.yul\":15272:15425   */\n    tag_422:\n        /* \"#utility.yul\":15370:15418   */\n      tag_424\n        /* \"#utility.yul\":15412:15417   */\n      dup2\n        /* \"#utility.yul\":15370:15418   */\n      tag_425\n      jump\t// in\n    tag_424:\n        /* \"#utility.yul\":15365:15368   */\n      dup3\n        /* \"#utility.yul\":15358:15419   */\n      mstore\n        /* \"#utility.yul\":15348:15425   */\n      pop\n      pop\n      jump\t// out\n        /* \"#utility.yul\":15431:15590   */\n    tag_426:\n        /* \"#utility.yul\":15536:15583   */\n      tag_428\n        /* \"#utility.yul\":15577:15582   */\n      dup2\n        /* \"#utility.yul\":15536:15583   */\n      tag_429\n      jump\t// in\n    tag_428:\n        /* \"#utility.yul\":15531:15534   */\n      dup3\n        /* \"#utility.yul\":15524:15584   */\n      mstore\n        /* \"#utility.yul\":15514:15590   */\n      pop\n      pop\n      jump\t// out\n        /* \"#utility.yul\":15596:15940   */\n    tag_366:\n      0x00\n        /* \"#utility.yul\":15702:15741   */\n      tag_431\n        /* \"#utility.yul\":15735:15740   */\n      dup3\n        /* \"#utility.yul\":15702:15741   */\n      tag_432\n      jump\t// in\n    tag_431:\n        /* \"#utility.yul\":15757:15818   */\n      tag_433\n        /* \"#utility.yul\":15811:15817   */\n      dup2\n        /* \"#utility.yul\":15806:15809   */\n      dup6\n        /* \"#utility.yul\":15757:15818   */\n      tag_434\n      jump\t// in\n    tag_433:\n        /* \"#utility.yul\":15750:15818   */\n      swap4\n      pop\n        /* \"#utility.yul\":15827:15879   */\n      tag_435\n        /* \"#utility.yul\":15872:15878   */\n      dup2\n        /* \"#utility.yul\":15867:15870   */\n      dup6\n        /* \"#utility.yul\":15860:15864   */\n      0x20\n        /* \"#utility.yul\":15853:15858   */\n      dup7\n        /* \"#utility.yul\":15849:15865   */\n      add\n        /* \"#utility.yul\":15827:15879   */\n      tag_436\n      jump\t// in\n    tag_435:\n        /* \"#utility.yul\":15904:15933   */\n      tag_437\n        /* \"#utility.yul\":15926:15932   */\n      dup2\n        /* \"#utility.yul\":15904:15933   */\n      tag_438\n      jump\t// in\n    tag_437:\n        /* \"#utility.yul\":15899:15902   */\n      dup5\n        /* \"#utility.yul\":15895:15934   */\n      add\n        /* \"#utility.yul\":15888:15934   */\n      swap2\n      pop\n        /* \"#utility.yul\":15678:15940   */\n      pop\n      swap3\n      swap2\n      pop\n      pop\n      jump\t// out\n        /* \"#utility.yul\":15946:16310   */\n    tag_439:\n      0x00\n        /* \"#utility.yul\":16062:16101   */\n      tag_441\n        /* \"#utility.yul\":16095:16100   */\n      dup3\n        /* \"#utility.yul\":16062:16101   */\n      tag_432\n      jump\t// in\n    tag_441:\n        /* \"#utility.yul\":16117:16188   */\n      tag_442\n        /* \"#utility.yul\":16181:16187   */\n      dup2\n        /* \"#utility.yul\":16176:16179   */\n      dup6\n        /* \"#utility.yul\":16117:16188   */\n      tag_443\n      jump\t// in\n    tag_442:\n        /* \"#utility.yul\":16110:16188   */\n      swap4\n      pop\n        /* \"#utility.yul\":16197:16249   */\n      tag_444\n        /* \"#utility.yul\":16242:16248   */\n      dup2\n        /* \"#utility.yul\":16237:16240   */\n      dup6\n        /* \"#utility.yul\":16230:16234   */\n      0x20\n        /* \"#utility.yul\":16223:16228   */\n      dup7\n        /* \"#utility.yul\":16219:16235   */\n      add\n        /* \"#utility.yul\":16197:16249   */\n      tag_436\n      jump\t// in\n    tag_444:\n        /* \"#utility.yul\":16274:16303   */\n      tag_445\n        /* \"#utility.yul\":16296:16302   */\n      dup2\n        /* \"#utility.yul\":16274:16303   */\n      tag_438\n      jump\t// in\n    tag_445:\n        /* \"#utility.yul\":16269:16272   */\n      dup5\n        /* \"#utility.yul\":16265:16304   */\n      add\n        /* \"#utility.yul\":16258:16304   */\n      swap2\n      pop\n        /* \"#utility.yul\":16038:16310   */\n      pop\n      swap3\n      swap2\n      pop\n      pop\n      jump\t// out\n        /* \"#utility.yul\":16340:17142   */\n    tag_446:\n      0x00\n        /* \"#utility.yul\":16462:16467   */\n      dup2\n        /* \"#utility.yul\":16456:16468   */\n      sload\n        /* \"#utility.yul\":16491:16527   */\n      tag_448\n        /* \"#utility.yul\":16517:16526   */\n      dup2\n        /* \"#utility.yul\":16491:16527   */\n      tag_117\n      jump\t// in\n    tag_448:\n        /* \"#utility.yul\":16543:16614   */\n      tag_449\n        /* \"#utility.yul\":16607:16613   */\n      dup2\n        /* \"#utility.yul\":16602:16605   */\n      dup7\n        /* \"#utility.yul\":16543:16614   */\n      tag_443\n      jump\t// in\n    tag_449:\n        /* \"#utility.yul\":16536:16614   */\n      swap5\n      pop\n        /* \"#utility.yul\":16645:16646   */\n      0x01\n        /* \"#utility.yul\":16634:16643   */\n      dup3\n        /* \"#utility.yul\":16630:16647   */\n      and\n        /* \"#utility.yul\":16661:16662   */\n      0x00\n        /* \"#utility.yul\":16656:16791   */\n      dup2\n      eq\n      tag_451\n      jumpi\n        /* \"#utility.yul\":16805:16806   */\n      0x01\n        /* \"#utility.yul\":16800:17136   */\n      dup2\n      eq\n      tag_452\n      jumpi\n        /* \"#utility.yul\":16623:17136   */\n      jump(tag_450)\n        /* \"#utility.yul\":16656:16791   */\n    tag_451:\n        /* \"#utility.yul\":16740:16744   */\n      0xff\n        /* \"#utility.yul\":16736:16745   */\n      not\n        /* \"#utility.yul\":16725:16734   */\n      dup4\n        /* \"#utility.yul\":16721:16746   */\n      and\n        /* \"#utility.yul\":16716:16719   */\n      dup7\n        /* \"#utility.yul\":16709:16747   */\n      mstore\n        /* \"#utility.yul\":16776:16780   */\n      0x20\n        /* \"#utility.yul\":16771:16774   */\n      dup7\n        /* \"#utility.yul\":16767:16781   */\n      add\n        /* \"#utility.yul\":16760:16781   */\n      swap4\n      pop\n        /* \"#utility.yul\":16656:16791   */\n      jump(tag_450)\n        /* \"#utility.yul\":16800:17136   */\n    tag_452:\n        /* \"#utility.yul\":16867:16905   */\n      tag_453\n        /* \"#utility.yul\":16899:16904   */\n      dup6\n        /* \"#utility.yul\":16867:16905   */\n      tag_454\n      jump\t// in\n    tag_453:\n        /* \"#utility.yul\":16927:16928   */\n      0x00\n        /* \"#utility.yul\":16941:17095   */\n    tag_455:\n        /* \"#utility.yul\":16955:16961   */\n      dup4\n        /* \"#utility.yul\":16952:16953   */\n      dup2\n        /* \"#utility.yul\":16949:16962   */\n      lt\n        /* \"#utility.yul\":16941:17095   */\n      iszero\n      tag_457\n      jumpi\n        /* \"#utility.yul\":17029:17036   */\n      dup2\n        /* \"#utility.yul\":17023:17037   */\n      sload\n        /* \"#utility.yul\":17019:17020   */\n      dup2\n        /* \"#utility.yul\":17014:17017   */\n      dup10\n        /* \"#utility.yul\":17010:17021   */\n      add\n        /* \"#utility.yul\":17003:17038   */\n      mstore\n        /* \"#utility.yul\":17079:17080   */\n      0x01\n        /* \"#utility.yul\":17070:17077   */\n      dup3\n        /* \"#utility.yul\":17066:17081   */\n      add\n        /* \"#utility.yul\":17055:17081   */\n      swap2\n      pop\n        /* \"#utility.yul\":16977:16981   */\n      0x20\n        /* \"#utility.yul\":16974:16975   */\n      dup2\n        /* \"#utility.yul\":16970:16982   */\n      add\n        /* \"#utility.yul\":16965:16982   */\n      swap1\n      pop\n        /* \"#utility.yul\":16941:17095   */\n      jump(tag_455)\n    tag_457:\n        /* \"#utility.yul\":17124:17125   */\n      dup1\n        /* \"#utility.yul\":17119:17122   */\n      dup9\n        /* \"#utility.yul\":17115:17126   */\n      add\n        /* \"#utility.yul\":17108:17126   */\n      swap6\n      pop\n        /* \"#utility.yul\":16807:17136   */\n      pop\n      pop\n        /* \"#utility.yul\":16623:17136   */\n    tag_450:\n      pop\n        /* \"#utility.yul\":16429:17142   */\n      pop\n      pop\n      swap3\n      swap2\n      pop\n      pop\n      jump\t// out\n        /* \"#utility.yul\":17148:17256   */\n    tag_370:\n        /* \"#utility.yul\":17225:17249   */\n      tag_459\n        /* \"#utility.yul\":17243:17248   */\n      dup2\n        /* \"#utility.yul\":17225:17249   */\n      tag_460\n      jump\t// in\n    tag_459:\n        /* \"#utility.yul\":17220:17223   */\n      dup3\n        /* \"#utility.yul\":17213:17250   */\n      mstore\n        /* \"#utility.yul\":17203:17256   */\n      pop\n      pop\n      jump\t// out\n        /* \"#utility.yul\":17262:17380   */\n    tag_461:\n        /* \"#utility.yul\":17349:17373   */\n      tag_463\n        /* \"#utility.yul\":17367:17372   */\n      dup2\n        /* \"#utility.yul\":17349:17373   */\n      tag_460\n      jump\t// in\n    tag_463:\n        /* \"#utility.yul\":17344:17347   */\n      dup3\n        /* \"#utility.yul\":17337:17374   */\n      mstore\n        /* \"#utility.yul\":17327:17380   */\n      pop\n      pop\n      jump\t// out\n        /* \"#utility.yul\":17386:17512   */\n    tag_464:\n        /* \"#utility.yul\":17481:17505   */\n      tag_466\n        /* \"#utility.yul\":17499:17504   */\n      dup2\n        /* \"#utility.yul\":17481:17505   */\n      tag_460\n      jump\t// in\n    tag_466:\n        /* \"#utility.yul\":17476:17479   */\n      dup3\n        /* \"#utility.yul\":17469:17506   */\n      mstore\n        /* \"#utility.yul\":17459:17512   */\n      pop\n      pop\n      jump\t// out\n        /* \"#utility.yul\":17518:17634   */\n    tag_374:\n        /* \"#utility.yul\":17603:17627   */\n      tag_468\n        /* \"#utility.yul\":17621:17626   */\n      dup2\n        /* \"#utility.yul\":17603:17627   */\n      tag_460\n      jump\t// in\n    tag_468:\n        /* \"#utility.yul\":17598:17601   */\n      dup3\n        /* \"#utility.yul\":17591:17628   */\n      mstore\n        /* \"#utility.yul\":17581:17634   */\n      pop\n      pop\n      jump\t// out\n        /* \"#utility.yul\":17640:18053   */\n    tag_38:\n      0x00\n        /* \"#utility.yul\":17841:17843   */\n      0x20\n        /* \"#utility.yul\":17830:17839   */\n      dup3\n        /* \"#utility.yul\":17826:17844   */\n      add\n        /* \"#utility.yul\":17818:17844   */\n      swap1\n      pop\n        /* \"#utility.yul\":17890:17899   */\n      dup2\n        /* \"#utility.yul\":17884:17888   */\n      dup2\n        /* \"#utility.yul\":17880:17900   */\n      sub\n        /* \"#utility.yul\":17876:17877   */\n      0x00\n        /* \"#utility.yul\":17865:17874   */\n      dup4\n        /* \"#utility.yul\":17861:17878   */\n      add\n        /* \"#utility.yul\":17854:17901   */\n      mstore\n        /* \"#utility.yul\":17918:18046   */\n      tag_470\n        /* \"#utility.yul\":18041:18045   */\n      dup2\n        /* \"#utility.yul\":18032:18038   */\n      dup5\n        /* \"#utility.yul\":17918:18046   */\n      tag_379\n      jump\t// in\n    tag_470:\n        /* \"#utility.yul\":17910:18046   */\n      swap1\n      pop\n        /* \"#utility.yul\":17808:18053   */\n      swap3\n      swap2\n      pop\n      pop\n      jump\t// out\n        /* \"#utility.yul\":18059:18432   */\n    tag_52:\n      0x00\n        /* \"#utility.yul\":18240:18242   */\n      0x20\n        /* \"#utility.yul\":18229:18238   */\n      dup3\n        /* \"#utility.yul\":18225:18243   */\n      add\n        /* \"#utility.yul\":18217:18243   */\n      swap1\n      pop\n        /* \"#utility.yul\":18289:18298   */\n      dup2\n        /* \"#utility.yul\":18283:18287   */\n      dup2\n        /* \"#utility.yul\":18279:18299   */\n      sub\n        /* \"#utility.yul\":18275:18276   */\n      0x00\n        /* \"#utility.yul\":18264:18273   */\n      dup4\n        /* \"#utility.yul\":18260:18277   */\n      add\n        /* \"#utility.yul\":18253:18300   */\n      mstore\n        /* \"#utility.yul\":18317:18425   */\n      tag_472\n        /* \"#utility.yul\":18420:18424   */\n      dup2\n        /* \"#utility.yul\":18411:18417   */\n      dup5\n        /* \"#utility.yul\":18317:18425   */\n      tag_393\n      jump\t// in\n    tag_472:\n        /* \"#utility.yul\":18309:18425   */\n      swap1\n      pop\n        /* \"#utility.yul\":18207:18432   */\n      swap3\n      swap2\n      pop\n      pop\n      jump\t// out\n        /* \"#utility.yul\":18438:18648   */\n    tag_21:\n      0x00\n        /* \"#utility.yul\":18563:18565   */\n      0x20\n        /* \"#utility.yul\":18552:18561   */\n      dup3\n        /* \"#utility.yul\":18548:18566   */\n      add\n        /* \"#utility.yul\":18540:18566   */\n      swap1\n      pop\n        /* \"#utility.yul\":18576:18641   */\n      tag_474\n        /* \"#utility.yul\":18638:18639   */\n      0x00\n        /* \"#utility.yul\":18627:18636   */\n      dup4\n        /* \"#utility.yul\":18623:18640   */\n      add\n        /* \"#utility.yul\":18614:18620   */\n      dup5\n        /* \"#utility.yul\":18576:18641   */\n      tag_418\n      jump\t// in\n    tag_474:\n        /* \"#utility.yul\":18530:18648   */\n      swap3\n      swap2\n      pop\n      pop\n      jump\t// out\n        /* \"#utility.yul\":18654:19832   */\n    tag_61:\n      0x00\n        /* \"#utility.yul\":19050:19053   */\n      0xc0\n        /* \"#utility.yul\":19039:19048   */\n      dup3\n        /* \"#utility.yul\":19035:19054   */\n      add\n        /* \"#utility.yul\":19027:19054   */\n      swap1\n      pop\n        /* \"#utility.yul\":19064:19129   */\n      tag_476\n        /* \"#utility.yul\":19126:19127   */\n      0x00\n        /* \"#utility.yul\":19115:19124   */\n      dup4\n        /* \"#utility.yul\":19111:19128   */\n      add\n        /* \"#utility.yul\":19102:19108   */\n      dup10\n        /* \"#utility.yul\":19064:19129   */\n      tag_418\n      jump\t// in\n    tag_476:\n        /* \"#utility.yul\":19176:19185   */\n      dup2\n        /* \"#utility.yul\":19170:19174   */\n      dup2\n        /* \"#utility.yul\":19166:19186   */\n      sub\n        /* \"#utility.yul\":19161:19163   */\n      0x20\n        /* \"#utility.yul\":19150:19159   */\n      dup4\n        /* \"#utility.yul\":19146:19164   */\n      add\n        /* \"#utility.yul\":19139:19187   */\n      mstore\n        /* \"#utility.yul\":19204:19282   */\n      tag_477\n        /* \"#utility.yul\":19277:19281   */\n      dup2\n        /* \"#utility.yul\":19268:19274   */\n      dup9\n        /* \"#utility.yul\":19204:19282   */\n      tag_439\n      jump\t// in\n    tag_477:\n        /* \"#utility.yul\":19196:19282   */\n      swap1\n      pop\n        /* \"#utility.yul\":19292:19364   */\n      tag_478\n        /* \"#utility.yul\":19360:19362   */\n      0x40\n        /* \"#utility.yul\":19349:19358   */\n      dup4\n        /* \"#utility.yul\":19345:19363   */\n      add\n        /* \"#utility.yul\":19336:19342   */\n      dup8\n        /* \"#utility.yul\":19292:19364   */\n      tag_375\n      jump\t// in\n    tag_478:\n        /* \"#utility.yul\":19374:19457   */\n      tag_479\n        /* \"#utility.yul\":19453:19455   */\n      0x60\n        /* \"#utility.yul\":19442:19451   */\n      dup4\n        /* \"#utility.yul\":19438:19456   */\n      add\n        /* \"#utility.yul\":19429:19435   */\n      dup7\n        /* \"#utility.yul\":19374:19457   */\n      tag_422\n      jump\t// in\n    tag_479:\n        /* \"#utility.yul\":19505:19514   */\n      dup2\n        /* \"#utility.yul\":19499:19503   */\n      dup2\n        /* \"#utility.yul\":19495:19515   */\n      sub\n        /* \"#utility.yul\":19489:19492   */\n      0x80\n        /* \"#utility.yul\":19478:19487   */\n      dup4\n        /* \"#utility.yul\":19474:19493   */\n      add\n        /* \"#utility.yul\":19467:19516   */\n      mstore\n        /* \"#utility.yul\":19533:19641   */\n      tag_480\n        /* \"#utility.yul\":19636:19640   */\n      dup2\n        /* \"#utility.yul\":19627:19633   */\n      dup6\n        /* \"#utility.yul\":19533:19641   */\n      tag_393\n      jump\t// in\n    tag_480:\n        /* \"#utility.yul\":19525:19641   */\n      swap1\n      pop\n        /* \"#utility.yul\":19689:19698   */\n      dup2\n        /* \"#utility.yul\":19683:19687   */\n      dup2\n        /* \"#utility.yul\":19679:19699   */\n      sub\n        /* \"#utility.yul\":19673:19676   */\n      0xa0\n        /* \"#utility.yul\":19662:19671   */\n      dup4\n        /* \"#utility.yul\":19658:19677   */\n      add\n        /* \"#utility.yul\":19651:19700   */\n      mstore\n        /* \"#utility.yul\":19717:19825   */\n      tag_481\n        /* \"#utility.yul\":19820:19824   */\n      dup2\n        /* \"#utility.yul\":19811:19817   */\n      dup5\n        /* \"#utility.yul\":19717:19825   */\n      tag_393\n      jump\t// in\n    tag_481:\n        /* \"#utility.yul\":19709:19825   */\n      swap1\n      pop\n        /* \"#utility.yul\":19017:19832   */\n      swap8\n      swap7\n      pop\n      pop\n      pop\n      pop\n      pop\n      pop\n      pop\n      jump\t// out\n        /* \"#utility.yul\":19838:20151   */\n    tag_44:\n      0x00\n        /* \"#utility.yul\":19989:19991   */\n      0x20\n        /* \"#utility.yul\":19978:19987   */\n      dup3\n        /* \"#utility.yul\":19974:19992   */\n      add\n        /* \"#utility.yul\":19966:19992   */\n      swap1\n      pop\n        /* \"#utility.yul\":20038:20047   */\n      dup2\n        /* \"#utility.yul\":20032:20036   */\n      dup2\n        /* \"#utility.yul\":20028:20048   */\n      sub\n        /* \"#utility.yul\":20024:20025   */\n      0x00\n        /* \"#utility.yul\":20013:20022   */\n      dup4\n        /* \"#utility.yul\":20009:20026   */\n      add\n        /* \"#utility.yul\":20002:20049   */\n      mstore\n        /* \"#utility.yul\":20066:20144   */\n      tag_483\n        /* \"#utility.yul\":20139:20143   */\n      dup2\n        /* \"#utility.yul\":20130:20136   */\n      dup5\n        /* \"#utility.yul\":20066:20144   */\n      tag_439\n      jump\t// in\n    tag_483:\n        /* \"#utility.yul\":20058:20144   */\n      swap1\n      pop\n        /* \"#utility.yul\":19956:20151   */\n      swap3\n      swap2\n      pop\n      pop\n      jump\t// out\n        /* \"#utility.yul\":20157:20464   */\n    tag_157:\n      0x00\n        /* \"#utility.yul\":20305:20307   */\n      0x20\n        /* \"#utility.yul\":20294:20303   */\n      dup3\n        /* \"#utility.yul\":20290:20308   */\n      add\n        /* \"#utility.yul\":20282:20308   */\n      swap1\n      pop\n        /* \"#utility.yul\":20354:20363   */\n      dup2\n        /* \"#utility.yul\":20348:20352   */\n      dup2\n        /* \"#utility.yul\":20344:20364   */\n      sub\n        /* \"#utility.yul\":20340:20341   */\n      0x00\n        /* \"#utility.yul\":20329:20338   */\n      dup4\n        /* \"#utility.yul\":20325:20342   */\n      add\n        /* \"#utility.yul\":20318:20365   */\n      mstore\n        /* \"#utility.yul\":20382:20457   */\n      tag_485\n        /* \"#utility.yul\":20452:20456   */\n      dup2\n        /* \"#utility.yul\":20443:20449   */\n      dup5\n        /* \"#utility.yul\":20382:20457   */\n      tag_446\n      jump\t// in\n    tag_485:\n        /* \"#utility.yul\":20374:20457   */\n      swap1\n      pop\n        /* \"#utility.yul\":20272:20464   */\n      swap3\n      swap2\n      pop\n      pop\n      jump\t// out\n        /* \"#utility.yul\":20470:20692   */\n    tag_48:\n      0x00\n        /* \"#utility.yul\":20601:20603   */\n      0x20\n        /* \"#utility.yul\":20590:20599   */\n      dup3\n        /* \"#utility.yul\":20586:20604   */\n      add\n        /* \"#utility.yul\":20578:20604   */\n      swap1\n      pop\n        /* \"#utility.yul\":20614:20685   */\n      tag_487\n        /* \"#utility.yul\":20682:20683   */\n      0x00\n        /* \"#utility.yul\":20671:20680   */\n      dup4\n        /* \"#utility.yul\":20667:20684   */\n      add\n        /* \"#utility.yul\":20658:20664   */\n      dup5\n        /* \"#utility.yul\":20614:20685   */\n      tag_461\n      jump\t// in\n    tag_487:\n        /* \"#utility.yul\":20568:20692   */\n      swap3\n      swap2\n      pop\n      pop\n      jump\t// out\n        /* \"#utility.yul\":20698:21343   */\n    tag_72:\n      0x00\n        /* \"#utility.yul\":20953:20955   */\n      0x60\n        /* \"#utility.yul\":20942:20951   */\n      dup3\n        /* \"#utility.yul\":20938:20956   */\n      add\n        /* \"#utility.yul\":20930:20956   */\n      swap1\n      pop\n        /* \"#utility.yul\":20966:21045   */\n      tag_489\n        /* \"#utility.yul\":21042:21043   */\n      0x00\n        /* \"#utility.yul\":21031:21040   */\n      dup4\n        /* \"#utility.yul\":21027:21044   */\n      add\n        /* \"#utility.yul\":21018:21024   */\n      dup7\n        /* \"#utility.yul\":20966:21045   */\n      tag_464\n      jump\t// in\n    tag_489:\n        /* \"#utility.yul\":21092:21101   */\n      dup2\n        /* \"#utility.yul\":21086:21090   */\n      dup2\n        /* \"#utility.yul\":21082:21102   */\n      sub\n        /* \"#utility.yul\":21077:21079   */\n      0x20\n        /* \"#utility.yul\":21066:21075   */\n      dup4\n        /* \"#utility.yul\":21062:21080   */\n      add\n        /* \"#utility.yul\":21055:21103   */\n      mstore\n        /* \"#utility.yul\":21120:21236   */\n      tag_490\n        /* \"#utility.yul\":21231:21235   */\n      dup2\n        /* \"#utility.yul\":21222:21228   */\n      dup6\n        /* \"#utility.yul\":21120:21236   */\n      tag_407\n      jump\t// in\n    tag_490:\n        /* \"#utility.yul\":21112:21236   */\n      swap1\n      pop\n        /* \"#utility.yul\":21246:21336   */\n      tag_491\n        /* \"#utility.yul\":21332:21334   */\n      0x40\n        /* \"#utility.yul\":21321:21330   */\n      dup4\n        /* \"#utility.yul\":21317:21335   */\n      add\n        /* \"#utility.yul\":21308:21314   */\n      dup5\n        /* \"#utility.yul\":21246:21336   */\n      tag_426\n      jump\t// in\n    tag_491:\n        /* \"#utility.yul\":20920:21343   */\n      swap5\n      swap4\n      pop\n      pop\n      pop\n      pop\n      jump\t// out\n        /* \"#utility.yul\":21349:21632   */\n    tag_236:\n      0x00\n        /* \"#utility.yul\":21415:21417   */\n      0x40\n        /* \"#utility.yul\":21409:21418   */\n      mload\n        /* \"#utility.yul\":21399:21418   */\n      swap1\n      pop\n        /* \"#utility.yul\":21457:21461   */\n      dup2\n        /* \"#utility.yul\":21449:21455   */\n      dup2\n        /* \"#utility.yul\":21445:21462   */\n      add\n        /* \"#utility.yul\":21564:21570   */\n      dup2\n        /* \"#utility.yul\":21552:21562   */\n      dup2\n        /* \"#utility.yul\":21549:21571   */\n      lt\n        /* \"#utility.yul\":21528:21546   */\n      0xffffffffffffffff\n        /* \"#utility.yul\":21516:21526   */\n      dup3\n        /* \"#utility.yul\":21513:21547   */\n      gt\n        /* \"#utility.yul\":21510:21572   */\n      or\n        /* \"#utility.yul\":21507:21509   */\n      iszero\n      tag_493\n      jumpi\n        /* \"#utility.yul\":21575:21593   */\n      tag_494\n      tag_495\n      jump\t// in\n    tag_494:\n        /* \"#utility.yul\":21507:21509   */\n    tag_493:\n        /* \"#utility.yul\":21615:21625   */\n      dup1\n        /* \"#utility.yul\":21611:21613   */\n      0x40\n        /* \"#utility.yul\":21604:21626   */\n      mstore\n        /* \"#utility.yul\":21389:21632   */\n      pop\n      swap2\n      swap1\n      pop\n      jump\t// out\n        /* \"#utility.yul\":21638:21949   */\n    tag_235:\n      0x00\n        /* \"#utility.yul\":21805:21823   */\n      0xffffffffffffffff\n        /* \"#utility.yul\":21797:21803   */\n      dup3\n        /* \"#utility.yul\":21794:21824   */\n      gt\n        /* \"#utility.yul\":21791:21793   */\n      iszero\n      tag_497\n      jumpi\n        /* \"#utility.yul\":21827:21845   */\n      tag_498\n      tag_495\n      jump\t// in\n    tag_498:\n        /* \"#utility.yul\":21791:21793   */\n    tag_497:\n        /* \"#utility.yul\":21877:21881   */\n      0x20\n        /* \"#utility.yul\":21869:21875   */\n      dup3\n        /* \"#utility.yul\":21865:21882   */\n      mul\n        /* \"#utility.yul\":21857:21882   */\n      swap1\n      pop\n        /* \"#utility.yul\":21937:21941   */\n      0x20\n        /* \"#utility.yul\":21931:21935   */\n      dup2\n        /* \"#utility.yul\":21927:21942   */\n      add\n        /* \"#utility.yul\":21919:21942   */\n      swap1\n      pop\n        /* \"#utility.yul\":21720:21949   */\n      swap2\n      swap1\n      pop\n      jump\t// out\n        /* \"#utility.yul\":21955:22287   */\n    tag_247:\n      0x00\n        /* \"#utility.yul\":22107:22125   */\n      0xffffffffffffffff\n        /* \"#utility.yul\":22099:22105   */\n      dup3\n        /* \"#utility.yul\":22096:22126   */\n      gt\n        /* \"#utility.yul\":22093:22095   */\n      iszero\n      tag_500\n      jumpi\n        /* \"#utility.yul\":22129:22147   */\n      tag_501\n      tag_495\n      jump\t// in\n    tag_501:\n        /* \"#utility.yul\":22093:22095   */\n    tag_500:\n        /* \"#utility.yul\":22214:22218   */\n      0x1f\n        /* \"#utility.yul\":22210:22219   */\n      not\n        /* \"#utility.yul\":22203:22207   */\n      0x1f\n        /* \"#utility.yul\":22195:22201   */\n      dup4\n        /* \"#utility.yul\":22191:22208   */\n      add\n        /* \"#utility.yul\":22187:22220   */\n      and\n        /* \"#utility.yul\":22179:22220   */\n      swap1\n      pop\n        /* \"#utility.yul\":22275:22279   */\n      0x20\n        /* \"#utility.yul\":22269:22273   */\n      dup2\n        /* \"#utility.yul\":22265:22280   */\n      add\n        /* \"#utility.yul\":22257:22280   */\n      swap1\n      pop\n        /* \"#utility.yul\":22022:22287   */\n      swap2\n      swap1\n      pop\n      jump\t// out\n        /* \"#utility.yul\":22293:22435   */\n    tag_386:\n      0x00\n        /* \"#utility.yul\":22393:22396   */\n      dup2\n        /* \"#utility.yul\":22385:22396   */\n      swap1\n      pop\n        /* \"#utility.yul\":22423:22427   */\n      0x20\n        /* \"#utility.yul\":22418:22421   */\n      dup3\n        /* \"#utility.yul\":22414:22428   */\n      add\n        /* \"#utility.yul\":22406:22428   */\n      swap1\n      pop\n        /* \"#utility.yul\":22375:22435   */\n      swap2\n      swap1\n      pop\n      jump\t// out\n        /* \"#utility.yul\":22441:22573   */\n    tag_400:\n      0x00\n        /* \"#utility.yul\":22531:22534   */\n      dup2\n        /* \"#utility.yul\":22523:22534   */\n      swap1\n      pop\n        /* \"#utility.yul\":22561:22565   */\n      0x20\n        /* \"#utility.yul\":22556:22559   */\n      dup3\n        /* \"#utility.yul\":22552:22566   */\n      add\n        /* \"#utility.yul\":22544:22566   */\n      swap1\n      pop\n        /* \"#utility.yul\":22513:22573   */\n      swap2\n      swap1\n      pop\n      jump\t// out\n        /* \"#utility.yul\":22579:22720   */\n    tag_454:\n      0x00\n        /* \"#utility.yul\":22651:22654   */\n      dup2\n        /* \"#utility.yul\":22643:22654   */\n      swap1\n      pop\n        /* \"#utility.yul\":22674:22677   */\n      dup2\n        /* \"#utility.yul\":22671:22672   */\n      0x00\n        /* \"#utility.yul\":22664:22678   */\n      mstore\n        /* \"#utility.yul\":22708:22712   */\n      0x20\n        /* \"#utility.yul\":22705:22706   */\n      0x00\n        /* \"#utility.yul\":22695:22713   */\n      keccak256\n        /* \"#utility.yul\":22687:22713   */\n      swap1\n      pop\n        /* \"#utility.yul\":22633:22720   */\n      swap2\n      swap1\n      pop\n      jump\t// out\n        /* \"#utility.yul\":22726:22850   */\n    tag_382:\n      0x00\n        /* \"#utility.yul\":22837:22842   */\n      dup2\n        /* \"#utility.yul\":22831:22843   */\n      mload\n        /* \"#utility.yul\":22821:22843   */\n      swap1\n      pop\n        /* \"#utility.yul\":22810:22850   */\n      swap2\n      swap1\n      pop\n      jump\t// out\n        /* \"#utility.yul\":22856:22970   */\n    tag_396:\n      0x00\n        /* \"#utility.yul\":22957:22962   */\n      dup2\n        /* \"#utility.yul\":22951:22963   */\n      mload\n        /* \"#utility.yul\":22941:22963   */\n      swap1\n      pop\n        /* \"#utility.yul\":22930:22970   */\n      swap2\n      swap1\n      pop\n      jump\t// out\n        /* \"#utility.yul\":22976:23075   */\n    tag_432:\n      0x00\n        /* \"#utility.yul\":23062:23067   */\n      dup2\n        /* \"#utility.yul\":23056:23068   */\n      mload\n        /* \"#utility.yul\":23046:23068   */\n      swap1\n      pop\n        /* \"#utility.yul\":23035:23075   */\n      swap2\n      swap1\n      pop\n      jump\t// out\n        /* \"#utility.yul\":23081:23204   */\n    tag_392:\n      0x00\n        /* \"#utility.yul\":23193:23197   */\n      0x20\n        /* \"#utility.yul\":23188:23191   */\n      dup3\n        /* \"#utility.yul\":23184:23198   */\n      add\n        /* \"#utility.yul\":23176:23198   */\n      swap1\n      pop\n        /* \"#utility.yul\":23166:23204   */\n      swap2\n      swap1\n      pop\n      jump\t// out\n        /* \"#utility.yul\":23210:23323   */\n    tag_406:\n      0x00\n        /* \"#utility.yul\":23312:23316   */\n      0x20\n        /* \"#utility.yul\":23307:23310   */\n      dup3\n        /* \"#utility.yul\":23303:23317   */\n      add\n        /* \"#utility.yul\":23295:23317   */\n      swap1\n      pop\n        /* \"#utility.yul\":23285:23323   */\n      swap2\n      swap1\n      pop\n      jump\t// out\n        /* \"#utility.yul\":23329:23523   */\n    tag_384:\n      0x00\n        /* \"#utility.yul\":23472:23478   */\n      dup3\n        /* \"#utility.yul\":23467:23470   */\n      dup3\n        /* \"#utility.yul\":23460:23479   */\n      mstore\n        /* \"#utility.yul\":23512:23516   */\n      0x20\n        /* \"#utility.yul\":23507:23510   */\n      dup3\n        /* \"#utility.yul\":23503:23517   */\n      add\n        /* \"#utility.yul\":23488:23517   */\n      swap1\n      pop\n        /* \"#utility.yul\":23450:23523   */\n      swap3\n      swap2\n      pop\n      pop\n      jump\t// out\n        /* \"#utility.yul\":23529:23713   */\n    tag_398:\n      0x00\n        /* \"#utility.yul\":23662:23668   */\n      dup3\n        /* \"#utility.yul\":23657:23660   */\n      dup3\n        /* \"#utility.yul\":23650:23669   */\n      mstore\n        /* \"#utility.yul\":23702:23706   */\n      0x20\n        /* \"#utility.yul\":23697:23700   */\n      dup3\n        /* \"#utility.yul\":23693:23707   */\n      add\n        /* \"#utility.yul\":23678:23707   */\n      swap1\n      pop\n        /* \"#utility.yul\":23640:23713   */\n      swap3\n      swap2\n      pop\n      pop\n      jump\t// out\n        /* \"#utility.yul\":23719:23911   */\n    tag_411:\n      0x00\n        /* \"#utility.yul\":23860:23866   */\n      dup3\n        /* \"#utility.yul\":23855:23858   */\n      dup3\n        /* \"#utility.yul\":23848:23867   */\n      mstore\n        /* \"#utility.yul\":23900:23904   */\n      0x20\n        /* \"#utility.yul\":23895:23898   */\n      dup3\n        /* \"#utility.yul\":23891:23905   */\n      add\n        /* \"#utility.yul\":23876:23905   */\n      swap1\n      pop\n        /* \"#utility.yul\":23838:23911   */\n      swap3\n      swap2\n      pop\n      pop\n      jump\t// out\n        /* \"#utility.yul\":23917:24076   */\n    tag_434:\n      0x00\n        /* \"#utility.yul\":24025:24031   */\n      dup3\n        /* \"#utility.yul\":24020:24023   */\n      dup3\n        /* \"#utility.yul\":24013:24032   */\n      mstore\n        /* \"#utility.yul\":24065:24069   */\n      0x20\n        /* \"#utility.yul\":24060:24063   */\n      dup3\n        /* \"#utility.yul\":24056:24070   */\n      add\n        /* \"#utility.yul\":24041:24070   */\n      swap1\n      pop\n        /* \"#utility.yul\":24003:24076   */\n      swap3\n      swap2\n      pop\n      pop\n      jump\t// out\n        /* \"#utility.yul\":24082:24251   */\n    tag_443:\n      0x00\n        /* \"#utility.yul\":24200:24206   */\n      dup3\n        /* \"#utility.yul\":24195:24198   */\n      dup3\n        /* \"#utility.yul\":24188:24207   */\n      mstore\n        /* \"#utility.yul\":24240:24244   */\n      0x20\n        /* \"#utility.yul\":24235:24238   */\n      dup3\n        /* \"#utility.yul\":24231:24245   */\n      add\n        /* \"#utility.yul\":24216:24245   */\n      swap1\n      pop\n        /* \"#utility.yul\":24178:24251   */\n      swap3\n      swap2\n      pop\n      pop\n      jump\t// out\n        /* \"#utility.yul\":24257:24562   */\n    tag_136:\n      0x00\n        /* \"#utility.yul\":24316:24336   */\n      tag_516\n        /* \"#utility.yul\":24334:24335   */\n      dup3\n        /* \"#utility.yul\":24316:24336   */\n      tag_460\n      jump\t// in\n    tag_516:\n        /* \"#utility.yul\":24311:24336   */\n      swap2\n      pop\n        /* \"#utility.yul\":24350:24370   */\n      tag_517\n        /* \"#utility.yul\":24368:24369   */\n      dup4\n        /* \"#utility.yul\":24350:24370   */\n      tag_460\n      jump\t// in\n    tag_517:\n        /* \"#utility.yul\":24345:24370   */\n      swap3\n      pop\n        /* \"#utility.yul\":24504:24505   */\n      dup3\n        /* \"#utility.yul\":24436:24502   */\n      0xffffffffffffffffffffffffffffffffffffffffffffffffffffffffffffffff\n        /* \"#utility.yul\":24432:24506   */\n      sub\n        /* \"#utility.yul\":24429:24430   */\n      dup3\n        /* \"#utility.yul\":24426:24507   */\n      gt\n        /* \"#utility.yul\":24423:24425   */\n      iszero\n      tag_518\n      jumpi\n        /* \"#utility.yul\":24510:24528   */\n      tag_519\n      tag_520\n      jump\t// in\n    tag_519:\n        /* \"#utility.yul\":24423:24425   */\n    tag_518:\n        /* \"#utility.yul\":24554:24555   */\n      dup3\n        /* \"#utility.yul\":24551:24552   */\n      dup3\n        /* \"#utility.yul\":24547:24556   */\n      add\n        /* \"#utility.yul\":24540:24556   */\n      swap1\n      pop\n        /* \"#utility.yul\":24301:24562   */\n      swap3\n      swap2\n      pop\n      pop\n      jump\t// out\n        /* \"#utility.yul\":24568:24664   */\n    tag_378:\n      0x00\n        /* \"#utility.yul\":24634:24658   */\n      tag_522\n        /* \"#utility.yul\":24652:24657   */\n      dup3\n        /* \"#utility.yul\":24634:24658   */\n      tag_523\n      jump\t// in\n    tag_522:\n        /* \"#utility.yul\":24623:24658   */\n      swap1\n      pop\n        /* \"#utility.yul\":24613:24664   */\n      swap2\n      swap1\n      pop\n      jump\t// out\n        /* \"#utility.yul\":24670:24760   */\n    tag_421:\n      0x00\n        /* \"#utility.yul\":24747:24752   */\n      dup2\n        /* \"#utility.yul\":24740:24753   */\n      iszero\n        /* \"#utility.yul\":24733:24754   */\n      iszero\n        /* \"#utility.yul\":24722:24754   */\n      swap1\n      pop\n        /* \"#utility.yul\":24712:24760   */\n      swap2\n      swap1\n      pop\n      jump\t// out\n        /* \"#utility.yul\":24766:24903   */\n    tag_525:\n      0x00\n        /* \"#utility.yul\":24845:24850   */\n      dup2\n        /* \"#utility.yul\":24834:24850   */\n      swap1\n      pop\n        /* \"#utility.yul\":24851:24897   */\n      tag_527\n        /* \"#utility.yul\":24891:24896   */\n      dup3\n        /* \"#utility.yul\":24851:24897   */\n      tag_528\n      jump\t// in\n    tag_527:\n        /* \"#utility.yul\":24824:24903   */\n      swap2\n      swap1\n      pop\n      jump\t// out\n        /* \"#utility.yul\":24909:25044   */\n    tag_529:\n      0x00\n        /* \"#utility.yul\":24987:24992   */\n      dup2\n        /* \"#utility.yul\":24976:24992   */\n      swap1\n      pop\n        /* \"#utility.yul\":24993:25038   */\n      tag_531\n        /* \"#utility.yul\":25032:25037   */\n      dup3\n        /* \"#utility.yul\":24993:25038   */\n      tag_532\n      jump\t// in\n    tag_531:\n        /* \"#utility.yul\":24966:25044   */\n      swap2\n      swap1\n      pop\n      jump\t// out\n        /* \"#utility.yul\":25050:25176   */\n    tag_523:\n      0x00\n        /* \"#utility.yul\":25127:25169   */\n      0xffffffffffffffffffffffffffffffffffffffff\n        /* \"#utility.yul\":25120:25125   */\n      dup3\n        /* \"#utility.yul\":25116:25170   */\n      and\n        /* \"#utility.yul\":25105:25170   */\n      swap1\n      pop\n        /* \"#utility.yul\":25095:25176   */\n      swap2\n      swap1\n      pop\n      jump\t// out\n        /* \"#utility.yul\":25182:25259   */\n    tag_460:\n      0x00\n        /* \"#utility.yul\":25248:25253   */\n      dup2\n        /* \"#utility.yul\":25237:25253   */\n      swap1\n      pop\n        /* \"#utility.yul\":25227:25259   */\n      swap2\n      swap1\n      pop\n      jump\t// out\n        /* \"#utility.yul\":25265:25402   */\n    tag_425:\n      0x00\n        /* \"#utility.yul\":25359:25396   */\n      tag_536\n        /* \"#utility.yul\":25390:25395   */\n      dup3\n        /* \"#utility.yul\":25359:25396   */\n      tag_525\n      jump\t// in\n    tag_536:\n        /* \"#utility.yul\":25346:25396   */\n      swap1\n      pop\n        /* \"#utility.yul\":25336:25402   */\n      swap2\n      swap1\n      pop\n      jump\t// out\n        /* \"#utility.yul\":25408:25543   */\n    tag_429:\n      0x00\n        /* \"#utility.yul\":25501:25537   */\n      tag_538\n        /* \"#utility.yul\":25531:25536   */\n      dup3\n        /* \"#utility.yul\":25501:25537   */\n      tag_529\n      jump\t// in\n    tag_538:\n        /* \"#utility.yul\":25488:25537   */\n      swap1\n      pop\n        /* \"#utility.yul\":25478:25543   */\n      swap2\n      swap1\n      pop\n      jump\t// out\n        /* \"#utility.yul\":25549:25703   */\n    tag_250:\n        /* \"#utility.yul\":25633:25639   */\n      dup3\n        /* \"#utility.yul\":25628:25631   */\n      dup2\n        /* \"#utility.yul\":25623:25626   */\n      dup4\n        /* \"#utility.yul\":25610:25640   */\n      calldatacopy\n        /* \"#utility.yul\":25695:25696   */\n      0x00\n        /* \"#utility.yul\":25686:25692   */\n      dup4\n        /* \"#utility.yul\":25681:25684   */\n      dup4\n        /* \"#utility.yul\":25677:25693   */\n      add\n        /* \"#utility.yul\":25670:25697   */\n      mstore\n        /* \"#utility.yul\":25600:25703   */\n      pop\n      pop\n      pop\n      jump\t// out\n        /* \"#utility.yul\":25709:26016   */\n    tag_436:\n        /* \"#utility.yul\":25777:25778   */\n      0x00\n        /* \"#utility.yul\":25787:25900   */\n    tag_541:\n        /* \"#utility.yul\":25801:25807   */\n      dup4\n        /* \"#utility.yul\":25798:25799   */\n      dup2\n        /* \"#utility.yul\":25795:25808   */\n      lt\n        /* \"#utility.yul\":25787:25900   */\n      iszero\n      tag_543\n      jumpi\n        /* \"#utility.yul\":25886:25887   */\n      dup1\n        /* \"#utility.yul\":25881:25884   */\n      dup3\n        /* \"#utility.yul\":25877:25888   */\n      add\n        /* \"#utility.yul\":25871:25889   */\n      mload\n        /* \"#utility.yul\":25867:25868   */\n      dup2\n        /* \"#utility.yul\":25862:25865   */\n      dup5\n        /* \"#utility.yul\":25858:25869   */\n      add\n        /* \"#utility.yul\":25851:25890   */\n      mstore\n        /* \"#utility.yul\":25823:25825   */\n      0x20\n        /* \"#utility.yul\":25820:25821   */\n      dup2\n        /* \"#utility.yul\":25816:25826   */\n      add\n        /* \"#utility.yul\":25811:25826   */\n      swap1\n      pop\n        /* \"#utility.yul\":25787:25900   */\n      jump(tag_541)\n    tag_543:\n        /* \"#utility.yul\":25918:25924   */\n      dup4\n        /* \"#utility.yul\":25915:25916   */\n      dup2\n        /* \"#utility.yul\":25912:25925   */\n      gt\n        /* \"#utility.yul\":25909:25911   */\n      iszero\n      tag_544\n      jumpi\n        /* \"#utility.yul\":25998:25999   */\n      0x00\n        /* \"#utility.yul\":25989:25995   */\n      dup5\n        /* \"#utility.yul\":25984:25987   */\n      dup5\n        /* \"#utility.yul\":25980:25996   */\n      add\n        /* \"#utility.yul\":25973:26000   */\n      mstore\n        /* \"#utility.yul\":25909:25911   */\n    tag_544:\n        /* \"#utility.yul\":25758:26016   */\n      pop\n      pop\n      pop\n      pop\n      jump\t// out\n        /* \"#utility.yul\":26022:26342   */\n    tag_117:\n      0x00\n        /* \"#utility.yul\":26103:26104   */\n      0x02\n        /* \"#utility.yul\":26097:26101   */\n      dup3\n        /* \"#utility.yul\":26093:26105   */\n      div\n        /* \"#utility.yul\":26083:26105   */\n      swap1\n      pop\n        /* \"#utility.yul\":26150:26151   */\n      0x01\n        /* \"#utility.yul\":26144:26148   */\n      dup3\n        /* \"#utility.yul\":26140:26152   */\n      and\n        /* \"#utility.yul\":26171:26189   */\n      dup1\n        /* \"#utility.yul\":26161:26163   */\n      tag_546\n      jumpi\n        /* \"#utility.yul\":26227:26231   */\n      0x7f\n        /* \"#utility.yul\":26219:26225   */\n      dup3\n        /* \"#utility.yul\":26215:26232   */\n      and\n        /* \"#utility.yul\":26205:26232   */\n      swap2\n      pop\n        /* \"#utility.yul\":26161:26163   */\n    tag_546:\n        /* \"#utility.yul\":26289:26291   */\n      0x20\n        /* \"#utility.yul\":26281:26287   */\n      dup3\n        /* \"#utility.yul\":26278:26292   */\n      lt\n        /* \"#utility.yul\":26258:26276   */\n      dup2\n        /* \"#utility.yul\":26255:26293   */\n      eq\n        /* \"#utility.yul\":26252:26254   */\n      iszero\n      tag_547\n      jumpi\n        /* \"#utility.yul\":26308:26326   */\n      tag_548\n      tag_549\n      jump\t// in\n    tag_548:\n        /* \"#utility.yul\":26252:26254   */\n    tag_547:\n        /* \"#utility.yul\":26073:26342   */\n      pop\n      swap2\n      swap1\n      pop\n      jump\t// out\n        /* \"#utility.yul\":26348:26581   */\n    tag_176:\n      0x00\n        /* \"#utility.yul\":26410:26434   */\n      tag_551\n        /* \"#utility.yul\":26428:26433   */\n      dup3\n        /* \"#utility.yul\":26410:26434   */\n      tag_460\n      jump\t// in\n    tag_551:\n        /* \"#utility.yul\":26401:26434   */\n      swap2\n      pop\n        /* \"#utility.yul\":26456:26522   */\n      0xffffffffffffffffffffffffffffffffffffffffffffffffffffffffffffffff\n        /* \"#utility.yul\":26449:26454   */\n      dup3\n        /* \"#utility.yul\":26446:26523   */\n      eq\n        /* \"#utility.yul\":26443:26445   */\n      iszero\n      tag_552\n      jumpi\n        /* \"#utility.yul\":26526:26544   */\n      tag_553\n      tag_520\n      jump\t// in\n    tag_553:\n        /* \"#utility.yul\":26443:26445   */\n    tag_552:\n        /* \"#utility.yul\":26573:26574   */\n      0x01\n        /* \"#utility.yul\":26566:26571   */\n      dup3\n        /* \"#utility.yul\":26562:26575   */\n      add\n        /* \"#utility.yul\":26555:26575   */\n      swap1\n      pop\n        /* \"#utility.yul\":26391:26581   */\n      swap2\n      swap1\n      pop\n      jump\t// out\n        /* \"#utility.yul\":26587:26767   */\n    tag_520:\n        /* \"#utility.yul\":26635:26712   */\n      0x4e487b7100000000000000000000000000000000000000000000000000000000\n        /* \"#utility.yul\":26632:26633   */\n      0x00\n        /* \"#utility.yul\":26625:26713   */\n      mstore\n        /* \"#utility.yul\":26732:26736   */\n      0x11\n        /* \"#utility.yul\":26729:26730   */\n      0x04\n        /* \"#utility.yul\":26722:26737   */\n      mstore\n        /* \"#utility.yul\":26756:26760   */\n      0x24\n        /* \"#utility.yul\":26753:26754   */\n      0x00\n        /* \"#utility.yul\":26746:26761   */\n      revert\n        /* \"#utility.yul\":26773:26953   */\n    tag_555:\n        /* \"#utility.yul\":26821:26898   */\n      0x4e487b7100000000000000000000000000000000000000000000000000000000\n        /* \"#utility.yul\":26818:26819   */\n      0x00\n        /* \"#utility.yul\":26811:26899   */\n      mstore\n        /* \"#utility.yul\":26918:26922   */\n      0x21\n        /* \"#utility.yul\":26915:26916   */\n      0x04\n        /* \"#utility.yul\":26908:26923   */\n      mstore\n        /* \"#utility.yul\":26942:26946   */\n      0x24\n        /* \"#utility.yul\":26939:26940   */\n      0x00\n        /* \"#utility.yul\":26932:26947   */\n      revert\n        /* \"#utility.yul\":26959:27139   */\n    tag_549:\n        /* \"#utility.yul\":27007:27084   */\n      0x4e487b7100000000000000000000000000000000000000000000000000000000\n        /* \"#utility.yul\":27004:27005   */\n      0x00\n        /* \"#utility.yul\":26997:27085   */\n      mstore\n        /* \"#utility.yul\":27104:27108   */\n      0x22\n        /* \"#utility.yul\":27101:27102   */\n      0x04\n        /* \"#utility.yul\":27094:27109   */\n      mstore\n        /* \"#utility.yul\":27128:27132   */\n      0x24\n        /* \"#utility.yul\":27125:27126   */\n      0x00\n        /* \"#utility.yul\":27118:27133   */\n      revert\n        /* \"#utility.yul\":27145:27325   */\n    tag_495:\n        /* \"#utility.yul\":27193:27270   */\n      0x4e487b7100000000000000000000000000000000000000000000000000000000\n        /* \"#utility.yul\":27190:27191   */\n      0x00\n        /* \"#utility.yul\":27183:27271   */\n      mstore\n        /* \"#utility.yul\":27290:27294   */\n      0x41\n        /* \"#utility.yul\":27287:27288   */\n      0x04\n        /* \"#utility.yul\":27280:27295   */\n      mstore\n        /* \"#utility.yul\":27314:27318   */\n      0x24\n        /* \"#utility.yul\":27311:27312   */\n      0x00\n        /* \"#utility.yul\":27304:27319   */\n      revert\n        /* \"#utility.yul\":27331:27433   */\n    tag_438:\n      0x00\n        /* \"#utility.yul\":27423:27425   */\n      0x1f\n        /* \"#utility.yul\":27419:27426   */\n      not\n        /* \"#utility.yul\":27414:27416   */\n      0x1f\n        /* \"#utility.yul\":27407:27412   */\n      dup4\n        /* \"#utility.yul\":27403:27417   */\n      add\n        /* \"#utility.yul\":27399:27427   */\n      and\n        /* \"#utility.yul\":27389:27427   */\n      swap1\n      pop\n        /* \"#utility.yul\":27379:27433   */\n      swap2\n      swap1\n      pop\n      jump\t// out\n        /* \"#utility.yul\":27439:27557   */\n    tag_528:\n        /* \"#utility.yul\":27525:27526   */\n      0x04\n        /* \"#utility.yul\":27518:27523   */\n      dup2\n        /* \"#utility.yul\":27515:27527   */\n      lt\n        /* \"#utility.yul\":27505:27507   */\n      tag_561\n      jumpi\n        /* \"#utility.yul\":27531:27549   */\n      tag_562\n      tag_555\n      jump\t// in\n    tag_562:\n        /* \"#utility.yul\":27505:27507   */\n    tag_561:\n        /* \"#utility.yul\":27495:27557   */\n      pop\n      jump\t// out\n        /* \"#utility.yul\":27563:27680   */\n    tag_532:\n        /* \"#utility.yul\":27648:27649   */\n      0x07\n        /* \"#utility.yul\":27641:27646   */\n      dup2\n        /* \"#utility.yul\":27638:27650   */\n      lt\n        /* \"#utility.yul\":27628:27630   */\n      tag_564\n      jumpi\n        /* \"#utility.yul\":27654:27672   */\n      tag_565\n      tag_555\n      jump\t// in\n    tag_565:\n        /* \"#utility.yul\":27628:27630   */\n    tag_564:\n        /* \"#utility.yul\":27618:27680   */\n      pop\n      jump\t// out\n        /* \"#utility.yul\":27686:27808   */\n    tag_254:\n        /* \"#utility.yul\":27759:27783   */\n      tag_567\n        /* \"#utility.yul\":27777:27782   */\n      dup2\n        /* \"#utility.yul\":27759:27783   */\n      tag_378\n      jump\t// in\n    tag_567:\n        /* \"#utility.yul\":27752:27757   */\n      dup2\n        /* \"#utility.yul\":27749:27784   */\n      eq\n        /* \"#utility.yul\":27739:27741   */\n      tag_568\n      jumpi\n        /* \"#utility.yul\":27798:27799   */\n      0x00\n        /* \"#utility.yul\":27795:27796   */\n      dup1\n        /* \"#utility.yul\":27788:27800   */\n      revert\n        /* \"#utility.yul\":27739:27741   */\n    tag_568:\n        /* \"#utility.yul\":27729:27808   */\n      pop\n      jump\t// out\n        /* \"#utility.yul\":27814:27930   */\n    tag_262:\n        /* \"#utility.yul\":27884:27905   */\n      tag_570\n        /* \"#utility.yul\":27899:27904   */\n      dup2\n        /* \"#utility.yul\":27884:27905   */\n      tag_421\n      jump\t// in\n    tag_570:\n        /* \"#utility.yul\":27877:27882   */\n      dup2\n        /* \"#utility.yul\":27874:27906   */\n      eq\n        /* \"#utility.yul\":27864:27866   */\n      tag_571\n      jumpi\n        /* \"#utility.yul\":27920:27921   */\n      0x00\n        /* \"#utility.yul\":27917:27918   */\n      dup1\n        /* \"#utility.yul\":27910:27922   */\n      revert\n        /* \"#utility.yul\":27864:27866   */\n    tag_571:\n        /* \"#utility.yul\":27854:27930   */\n      pop\n      jump\t// out\n        /* \"#utility.yul\":27936:28050   */\n    tag_269:\n        /* \"#utility.yul\":28024:28025   */\n      0x03\n        /* \"#utility.yul\":28017:28022   */\n      dup2\n        /* \"#utility.yul\":28014:28026   */\n      lt\n        /* \"#utility.yul\":28004:28006   */\n      tag_573\n      jumpi\n        /* \"#utility.yul\":28040:28041   */\n      0x00\n        /* \"#utility.yul\":28037:28038   */\n      dup1\n        /* \"#utility.yul\":28030:28042   */\n      revert\n        /* \"#utility.yul\":28004:28006   */\n    tag_573:\n        /* \"#utility.yul\":27994:28050   */\n      pop\n      jump\t// out\n        /* \"#utility.yul\":28056:28168   */\n    tag_273:\n        /* \"#utility.yul\":28142:28143   */\n      0x04\n        /* \"#utility.yul\":28135:28140   */\n      dup2\n        /* \"#utility.yul\":28132:28144   */\n      lt\n        /* \"#utility.yul\":28122:28124   */\n      tag_575\n      jumpi\n        /* \"#utility.yul\":28158:28159   */\n      0x00\n        /* \"#utility.yul\":28155:28156   */\n      dup1\n        /* \"#utility.yul\":28148:28160   */\n      revert\n        /* \"#utility.yul\":28122:28124   */\n    tag_575:\n        /* \"#utility.yul\":28112:28168   */\n      pop\n      jump\t// out\n        /* \"#utility.yul\":28174:28285   */\n    tag_277:\n        /* \"#utility.yul\":28259:28260   */\n      0x07\n        /* \"#utility.yul\":28252:28257   */\n      dup2\n        /* \"#utility.yul\":28249:28261   */\n      lt\n        /* \"#utility.yul\":28239:28241   */\n      tag_577\n      jumpi\n        /* \"#utility.yul\":28275:28276   */\n      0x00\n        /* \"#utility.yul\":28272:28273   */\n      dup1\n        /* \"#utility.yul\":28265:28277   */\n      revert\n        /* \"#utility.yul\":28239:28241   */\n    tag_577:\n        /* \"#utility.yul\":28229:28285   */\n      pop\n      jump\t// out\n        /* \"#utility.yul\":28291:28413   */\n    tag_312:\n        /* \"#utility.yul\":28364:28388   */\n      tag_579\n        /* \"#utility.yul\":28382:28387   */\n      dup2\n        /* \"#utility.yul\":28364:28388   */\n      tag_460\n      jump\t// in\n    tag_579:\n        /* \"#utility.yul\":28357:28362   */\n      dup2\n        /* \"#utility.yul\":28354:28389   */\n      eq\n        /* \"#utility.yul\":28344:28346   */\n      tag_580\n      jumpi\n        /* \"#utility.yul\":28403:28404   */\n      0x00\n        /* \"#utility.yul\":28400:28401   */\n      dup1\n        /* \"#utility.yul\":28393:28405   */\n      revert\n        /* \"#utility.yul\":28344:28346   */\n    tag_580:\n        /* \"#utility.yul\":28334:28413   */\n      pop\n      jump\t// out\n\n    auxdata: 0xa26469706673582212209f660a6d98c8dbbb47f6ba6ccfb5ea450f8031719e9520b1acfa47bd254380a664736f6c63430008000033\n}\n","bytecode":{"linkReferences":{},"object":"608060405234801561001057600080fd5b506129f9806100206000396000f3fe608060405234801561001057600080fd5b50600436106100b45760003560e01c806371c56f9b1161007157806371c56f9b1461019f578063909e4ab6146101bd57806395794157146101db578063976217cd1461020b5780639849cee914610240578063993c041014610270576100b4565b8063182a9aee146100b9578063301e26f4146100e9578063307ed4be146101055780634c88bf2f146101215780634d60f6511461015157806361ea18df1461016f575b600080fd5b6100d360048036038101906100ce9190611e4c565b6102a0565b6040516100e09190612434565b60405180910390f35b61010360048036038101906100fe9190612013565b610336565b005b61011f600480360381019061011a9190611f42565b610716565b005b61013b60048036038101906101369190611eb3565b610aec565b6040516101489190612434565b60405180910390f35b610159610ca1565b60405161016691906123f0565b60405180910390f35b61018960048036038101906101849190611dfa565b610d7a565b60405161019691906124c5565b60405180910390f35b6101a7610e26565b6040516101b49190612509565b60405180910390f35b6101c5610eba565b6040516101d29190612412565b60405180910390f35b6101f560048036038101906101f09190611dfa565b610f12565b6040516102029190612509565b60405180910390f35b61022560048036038101906102209190611dfa565b610f36565b6040516102379695949392919061244f565b60405180910390f35b61025a60048036038101906102559190611dfa565b611140565b6040516102679190612434565b60405180910390f35b61028a60048036038101906102859190611dfa565b61116c565b6040516102979190612434565b60405180910390f35b60007323698bae1890e91f99315aba04630bb8faa2399663882762838585856040518463ffffffff1660e01b81526004016102dd93929190612524565b60206040518083038186803b1580156102f557600080fd5b505af4158015610309573d6000803e3d6000fd5b505050506040513d601f19601f8201168201806040525081019061032d9190611dd1565b90509392505050565b61033e61172c565b86816000018190525085816020019073ffffffffffffffffffffffffffffffffffffffff16908173ffffffffffffffffffffffffffffffffffffffff1681525050600081604001901515908115158152505084816060019060038111156103ce577f4e487b7100000000000000000000000000000000000000000000000000000000600052602160045260246000fd5b90816003811115610408577f4e487b7100000000000000000000000000000000000000000000000000000000600052602160045260246000fd5b81525050838160800181905250828160a00181905250818160c00181905250806000808a815260200190815260200160002060008201518160000190805190602001906104569291906117bf565b5060208201518160010160006101000a81548173ffffffffffffffffffffffffffffffffffffffff021916908373ffffffffffffffffffffffffffffffffffffffff16021790555060408201518160010160146101000a81548160ff02191690831515021790555060608201518160010160156101000a81548160ff0219169083600381111561050f577f4e487b7100000000000000000000000000000000000000000000000000000000600052602160045260246000fd5b02179055506080820151816002019080519060200190610530929190611845565b5060a082015181600301908051906020019061054d929190611845565b5060c0820151816004016000820151816000015560208201518160010160006101000a81548160ff021916908360038111156105b2577f4e487b7100000000000000000000000000000000000000000000000000000000600052602160045260246000fd5b021790555060408201518160010160016101000a81548160ff02191690836002811115610608577f4e487b7100000000000000000000000000000000000000000000000000000000600052602160045260246000fd5b021790555060608201518160010160026101000a81548160ff02191690831515021790555060808201518160010160036101000a81548160ff02191690831515021790555060a08201518160010160046101000a81548160ff0219169083600681111561069e577f4e487b7100000000000000000000000000000000000000000000000000000000600052602160045260246000fd5b021790555060c0820151816002016000820151816000015560208201518160010190805190602001906106d2929190611845565b50505060e0820151816004016000820151816000015560208201518160010190805190602001906107049291906117bf565b50505050509050505050505050505050565b61071e61172c565b85816000018190525084816020019073ffffffffffffffffffffffffffffffffffffffff16908173ffffffffffffffffffffffffffffffffffffffff1681525050600081604001901515908115158152505083816060019060038111156107ae577f4e487b7100000000000000000000000000000000000000000000000000000000600052602160045260246000fd5b908160038111156107e8577f4e487b7100000000000000000000000000000000000000000000000000000000600052602160045260246000fd5b81525050828160800181905250818160a0018190525080600080898152602001908152602001600020600082015181600001908051906020019061082d9291906117bf565b5060208201518160010160006101000a81548173ffffffffffffffffffffffffffffffffffffffff021916908373ffffffffffffffffffffffffffffffffffffffff16021790555060408201518160010160146101000a81548160ff02191690831515021790555060608201518160010160156101000a81548160ff021916908360038111156108e6577f4e487b7100000000000000000000000000000000000000000000000000000000600052602160045260246000fd5b02179055506080820151816002019080519060200190610907929190611845565b5060a0820151816003019080519060200190610924929190611845565b5060c0820151816004016000820151816000015560208201518160010160006101000a81548160ff02191690836003811115610989577f4e487b7100000000000000000000000000000000000000000000000000000000600052602160045260246000fd5b021790555060408201518160010160016101000a81548160ff021916908360028111156109df577f4e487b7100000000000000000000000000000000000000000000000000000000600052602160045260246000fd5b021790555060608201518160010160026101000a81548160ff02191690831515021790555060808201518160010160036101000a81548160ff02191690831515021790555060a08201518160010160046101000a81548160ff02191690836006811115610a75577f4e487b7100000000000000000000000000000000000000000000000000000000600052602160045260246000fd5b021790555060c082015181600201600082015181600001556020820151816001019080519060200190610aa9929190611845565b50505060e082015181600401600082015181600001556020820151816001019080519060200190610adb9291906117bf565b505050505090505050505050505050565b60008460008088815260200190815260200160002060040160010160006101000a81548160ff02191690836003811115610b4f577f4e487b7100000000000000000000000000000000000000000000000000000000600052602160045260246000fd5b02179055508360008088815260200190815260200160002060040160010160016101000a81548160ff02191690836002811115610bb5577f4e487b7100000000000000000000000000000000000000000000000000000000600052602160045260246000fd5b02179055508260008088815260200190815260200160002060040160010160046101000a81548160ff02191690836006811115610c1b577f4e487b7100000000000000000000000000000000000000000000000000000000600052602160045260246000fd5b021790555081600080888152602001908152602001600020600401600201600082015181600001556020820151816001019080519060200190610c5f929190611845565b50905050600160008088815260200190815260200160002060040160010160036101000a81548160ff0219169083151502179055506001905095945050505050565b60606004805480602002602001604051908101604052809291908181526020016000905b82821015610d71578382906000526020600020018054610ce4906127de565b80601f0160208091040260200160405190810160405280929190818152602001828054610d10906127de565b8015610d5d5780601f10610d3257610100808354040283529160200191610d5d565b820191906000526020600020905b815481529060010190602001808311610d4057829003601f168201915b505050505081526020019060010190610cc5565b50505050905090565b60048181548110610d8a57600080fd5b906000526020600020016000915090508054610da5906127de565b80601f0160208091040260200160405190810160405280929190818152602001828054610dd1906127de565b8015610e1e5780601f10610df357610100808354040283529160200191610e1e565b820191906000526020600020905b815481529060010190602001808311610e0157829003601f168201915b505050505081565b6000807323698bae1890e91f99315aba04630bb8faa2399663c237647f6040518163ffffffff1660e01b815260040160206040518083038186803b158015610e6d57600080fd5b505af4158015610e81573d6000803e3d6000fd5b505050506040513d601f19601f82011682018060405250810190610ea59190611e23565b9050600581610eb491906126b4565b91505090565b60606003805480602002602001604051908101604052809291908181526020018280548015610f0857602002820191906000526020600020905b815481526020019060010190808311610ef4575b5050505050905090565b60038181548110610f2257600080fd5b906000526020600020016000915090505481565b6000606060008060608060008088815260200190815260200160002060010160149054906101000a900460ff166000808981526020019081526020016000206000016000808a815260200190815260200160002060010160009054906101000a900473ffffffffffffffffffffffffffffffffffffffff166000808b815260200190815260200160002060010160159054906101000a900460ff166000808c81526020019081526020016000206002016000808d8152602001908152602001600020600301848054611007906127de565b80601f0160208091040260200160405190810160405280929190818152602001828054611033906127de565b80156110805780601f1061105557610100808354040283529160200191611080565b820191906000526020600020905b81548152906001019060200180831161106357829003601f168201915b50505050509450818054806020026020016040519081016040528092919081815260200182805480156110d257602002820191906000526020600020905b8154815260200190600101908083116110be575b505050505091508080548060200260200160405190810160405280929190818152602001828054801561112457602002820191906000526020600020905b815481526020019060010190808311611110575b5050505050905095509550955095509550955091939550919395565b600080600083815260200190815260200160002060010160149054906101000a900460ff169050919050565b60008060008084815260200190815260200160002060010160009054906101000a900473ffffffffffffffffffffffffffffffffffffffff169050600073ffffffffffffffffffffffffffffffffffffffff168173ffffffffffffffffffffffffffffffffffffffff16148061120d57503373ffffffffffffffffffffffffffffffffffffffff168173ffffffffffffffffffffffffffffffffffffffff16145b60008085815260200190815260200160002060000190611263576040517f08c379a000000000000000000000000000000000000000000000000000000000815260040161125a91906124e7565b60405180910390fd5b5060008060008581526020019081526020016000206002018054806020026020016040519081016040528092919081815260200182805480156112c557602002820191906000526020600020905b8154815260200190600101908083116112b1575b505050505090506000815114156112df576001925061160e565b600080600086815260200190815260200160002060010160159054906101000a900460ff16905060006003811115611340577f4e487b7100000000000000000000000000000000000000000000000000000000600052602160045260246000fd5b816003811115611379577f4e487b7100000000000000000000000000000000000000000000000000000000600052602160045260246000fd5b14156113df57600115156113cd836000815181106113c0577f4e487b7100000000000000000000000000000000000000000000000000000000600052603260045260246000fd5b6020026020010151611140565b151514156113da57600193505b61160c565b600080600090505b8351811015611467576001151561143d858381518110611430577f4e487b7100000000000000000000000000000000000000000000000000000000600052603260045260246000fd5b6020026020010151611140565b1515141561145457818061145090612810565b9250505b808061145f90612810565b9150506113e7565b50600160038111156114a2577f4e487b7100000000000000000000000000000000000000000000000000000000600052602160045260246000fd5b8260038111156114db577f4e487b7100000000000000000000000000000000000000000000000000000000600052602160045260246000fd5b14156114f45782518114156114ef57600194505b61160a565b6002600381111561152e577f4e487b7100000000000000000000000000000000000000000000000000000000600052602160045260246000fd5b826003811115611567577f4e487b7100000000000000000000000000000000000000000000000000000000600052602160045260246000fd5b14156115765760019450611609565b6003808111156115af577f4e487b7100000000000000000000000000000000000000000000000000000000600052602160045260246000fd5b8260038111156115e8577f4e487b7100000000000000000000000000000000000000000000000000000000600052602160045260246000fd5b14156116085760018114806115fd5750600281145b1561160757600194505b5b5b5b505b505b82156116f457600160008086815260200190815260200160002060010160146101000a81548160ff02191690831515021790555060038490806001815401808255809150506001900390600052602060002001600090919091909150556004600080868152602001908152602001600020600001908060018154018082558091505060019003906000526020600020016000909190919091509080546116b3906127de565b6116be929190611892565b50600115157facd30b4f9fd5868793e13ffb506f03374a23d9feba1249ac2cc7b0fe024ff4ba60405160405180910390a2611725565b600015157facd30b4f9fd5868793e13ffb506f03374a23d9feba1249ac2cc7b0fe024ff4ba60405160405180910390a25b5050919050565b6040518060e0016040528060608152602001600073ffffffffffffffffffffffffffffffffffffffff1681526020016000151581526020016000600381111561179e577f4e487b7100000000000000000000000000000000000000000000000000000000600052602160045260246000fd5b815260200160608152602001606081526020016117b961191f565b81525090565b8280546117cb906127de565b90600052602060002090601f0160209004810192826117ed5760008555611834565b82601f1061180657805160ff1916838001178555611834565b82800160010185558215611834579182015b82811115611833578251825591602001919060010190611818565b5b5090506118419190611a1c565b5090565b828054828255906000526020600020908101928215611881579160200282015b82811115611880578251825591602001919060010190611865565b5b50905061188e9190611a1c565b5090565b82805461189e906127de565b90600052602060002090601f0160209004810192826118c0576000855561190e565b82601f106118d1578054855561190e565b8280016001018555821561190e57600052602060002091601f016020900482015b8281111561190d5782548255916001019190600101906118f2565b5b50905061191b9190611a1c565b5090565b604051806101000160405280600081526020016000600381111561196c577f4e487b7100000000000000000000000000000000000000000000000000000000600052602160045260246000fd5b8152602001600060028111156119ab577f4e487b7100000000000000000000000000000000000000000000000000000000600052602160045260246000fd5b8152602001600015158152602001600015158152602001600060068111156119fc577f4e487b7100000000000000000000000000000000000000000000000000000000600052602160045260246000fd5b8152602001611a09611a39565b8152602001611a16611a53565b81525090565b5b80821115611a35576000816000905550600101611a1d565b5090565b604051806040016040528060008152602001606081525090565b604051806040016040528060008152602001606081525090565b6000611a80611a7b84612593565b612562565b90508083825260208201905082856020860282011115611a9f57600080fd5b60005b85811015611acf5781611ab58882611da7565b845260208401935060208301925050600181019050611aa2565b5050509392505050565b6000611aec611ae7846125bf565b612562565b905082815260208101848484011115611b0457600080fd5b611b0f84828561279c565b509392505050565b600081359050611b268161294e565b92915050565b600082601f830112611b3d57600080fd5b8135611b4d848260208601611a6d565b91505092915050565b600081359050611b6581612965565b92915050565b600081519050611b7a81612965565b92915050565b600081359050611b8f8161297c565b92915050565b600081359050611ba48161298c565b92915050565b600081359050611bb98161299c565b92915050565b600082601f830112611bd057600080fd5b8135611be0848260208601611ad9565b91505092915050565b60006101008284031215611bfc57600080fd5b611c07610100612562565b90506000611c1784828501611da7565b6000830152506020611c2b84828501611b95565b6020830152506040611c3f84828501611b80565b6040830152506060611c5384828501611b56565b6060830152506080611c6784828501611b56565b60808301525060a0611c7b84828501611baa565b60a08301525060c082013567ffffffffffffffff811115611c9b57600080fd5b611ca784828501611cdf565b60c08301525060e082013567ffffffffffffffff811115611cc757600080fd5b611cd384828501611d43565b60e08301525092915050565b600060408284031215611cf157600080fd5b611cfb6040612562565b90506000611d0b84828501611da7565b600083015250602082013567ffffffffffffffff811115611d2b57600080fd5b611d3784828501611b2c565b60208301525092915050565b600060408284031215611d5557600080fd5b611d5f6040612562565b90506000611d6f84828501611da7565b600083015250602082013567ffffffffffffffff811115611d8f57600080fd5b611d9b84828501611bbf565b60208301525092915050565b600081359050611db6816129ac565b92915050565b600081519050611dcb816129ac565b92915050565b600060208284031215611de357600080fd5b6000611df184828501611b6b565b91505092915050565b600060208284031215611e0c57600080fd5b6000611e1a84828501611da7565b91505092915050565b600060208284031215611e3557600080fd5b6000611e4384828501611dbc565b91505092915050565b600080600060608486031215611e6157600080fd5b6000611e6f86828701611da7565b935050602084013567ffffffffffffffff811115611e8c57600080fd5b611e9886828701611b2c565b9250506040611ea986828701611baa565b9150509250925092565b600080600080600060a08688031215611ecb57600080fd5b6000611ed988828901611da7565b9550506020611eea88828901611b95565b9450506040611efb88828901611b80565b9350506060611f0c88828901611baa565b925050608086013567ffffffffffffffff811115611f2957600080fd5b611f3588828901611cdf565b9150509295509295909350565b60008060008060008060c08789031215611f5b57600080fd5b6000611f6989828a01611da7565b965050602087013567ffffffffffffffff811115611f8657600080fd5b611f9289828a01611bbf565b9550506040611fa389828a01611b17565b9450506060611fb489828a01611b95565b935050608087013567ffffffffffffffff811115611fd157600080fd5b611fdd89828a01611b2c565b92505060a087013567ffffffffffffffff811115611ffa57600080fd5b61200689828a01611b2c565b9150509295509295509295565b600080600080600080600060e0888a03121561202e57600080fd5b600061203c8a828b01611da7565b975050602088013567ffffffffffffffff81111561205957600080fd5b6120658a828b01611bbf565b96505060406120768a828b01611b17565b95505060606120878a828b01611b95565b945050608088013567ffffffffffffffff8111156120a457600080fd5b6120b08a828b01611b2c565b93505060a088013567ffffffffffffffff8111156120cd57600080fd5b6120d98a828b01611b2c565b92505060c088013567ffffffffffffffff8111156120f657600080fd5b6121028a828b01611be9565b91505092959891949750929550565b600061211d83836122c2565b905092915050565b600061213183836123b4565b60208301905092915050565b600061214983836123e1565b60208301905092915050565b61215e8161270a565b82525050565b600061216f82612624565b612179818561265f565b93508360208202850161218b856125ef565b8060005b858110156121c757848403895281516121a88582612111565b94506121b383612645565b925060208a0199505060018101905061218f565b50829750879550505050505092915050565b60006121e48261262f565b6121ee8185612670565b93506121f9836125ff565b8060005b8381101561222a5781516122118882612125565b975061221c83612652565b9250506001810190506121fd565b5085935050505092915050565b60006122428261262f565b61224c8185612681565b9350612257836125ff565b8060005b8381101561228857815161226f888261213d565b975061227a83612652565b92505060018101905061225b565b5085935050505092915050565b61229e8161271c565b82525050565b6122ad81612778565b82525050565b6122bc8161278a565b82525050565b60006122cd8261263a565b6122d78185612692565b93506122e78185602086016127ab565b6122f081612915565b840191505092915050565b60006123068261263a565b61231081856126a3565b93506123208185602086016127ab565b61232981612915565b840191505092915050565b60008154612341816127de565b61234b81866126a3565b945060018216600081146123665760018114612378576123ab565b60ff19831686526020860193506123ab565b6123818561260f565b60005b838110156123a357815481890152600182019150602081019050612384565b808801955050505b50505092915050565b6123bd8161276e565b82525050565b6123cc8161276e565b82525050565b6123db8161276e565b82525050565b6123ea8161276e565b82525050565b6000602082019050818103600083015261240a8184612164565b905092915050565b6000602082019050818103600083015261242c81846121d9565b905092915050565b60006020820190506124496000830184612295565b92915050565b600060c0820190506124646000830189612295565b818103602083015261247681886122fb565b90506124856040830187612155565b61249260608301866122a4565b81810360808301526124a481856121d9565b905081810360a08301526124b881846121d9565b9050979650505050505050565b600060208201905081810360008301526124df81846122fb565b905092915050565b600060208201905081810360008301526125018184612334565b905092915050565b600060208201905061251e60008301846123c3565b92915050565b600060608201905061253960008301866123d2565b818103602083015261254b8185612237565b905061255a60408301846122b3565b949350505050565b6000604051905081810181811067ffffffffffffffff82111715612589576125886128e6565b5b8060405250919050565b600067ffffffffffffffff8211156125ae576125ad6128e6565b5b602082029050602081019050919050565b600067ffffffffffffffff8211156125da576125d96128e6565b5b601f19601f8301169050602081019050919050565b6000819050602082019050919050565b6000819050602082019050919050565b60008190508160005260206000209050919050565b600081519050919050565b600081519050919050565b600081519050919050565b6000602082019050919050565b6000602082019050919050565b600082825260208201905092915050565b600082825260208201905092915050565b600082825260208201905092915050565b600082825260208201905092915050565b600082825260208201905092915050565b60006126bf8261276e565b91506126ca8361276e565b9250827fffffffffffffffffffffffffffffffffffffffffffffffffffffffffffffffff038211156126ff576126fe612859565b5b828201905092915050565b60006127158261274e565b9050919050565b60008115159050919050565b600081905061273682612926565b919050565b60008190506127498261293a565b919050565b600073ffffffffffffffffffffffffffffffffffffffff82169050919050565b6000819050919050565b600061278382612728565b9050919050565b60006127958261273b565b9050919050565b82818337600083830152505050565b60005b838110156127c95780820151818401526020810190506127ae565b838111156127d8576000848401525b50505050565b600060028204905060018216806127f657607f821691505b6020821081141561280a576128096128b7565b5b50919050565b600061281b8261276e565b91507fffffffffffffffffffffffffffffffffffffffffffffffffffffffffffffffff82141561284e5761284d612859565b5b600182019050919050565b7f4e487b7100000000000000000000000000000000000000000000000000000000600052601160045260246000fd5b7f4e487b7100000000000000000000000000000000000000000000000000000000600052602160045260246000fd5b7f4e487b7100000000000000000000000000000000000000000000000000000000600052602260045260246000fd5b7f4e487b7100000000000000000000000000000000000000000000000000000000600052604160045260246000fd5b6000601f19601f8301169050919050565b6004811061293757612936612888565b5b50565b6007811061294b5761294a612888565b5b50565b6129578161270a565b811461296257600080fd5b50565b61296e8161271c565b811461297957600080fd5b50565b6003811061298957600080fd5b50565b6004811061299957600080fd5b50565b600781106129a957600080fd5b50565b6129b58161276e565b81146129c057600080fd5b5056fea26469706673582212209f660a6d98c8dbbb47f6ba6ccfb5ea450f8031719e9520b1acfa47bd254380a664736f6c63430008000033","opcodes":"PUSH1 0x80 PUSH1 0x40 MSTORE CALLVALUE DUP1 ISZERO PUSH2 0x10 JUMPI PUSH1 0x0 DUP1 REVERT JUMPDEST POP PUSH2 0x29F9 DUP1 PUSH2 0x20 PUSH1 0x0 CODECOPY PUSH1 0x0 RETURN INVALID PUSH1 0x80 PUSH1 0x40 MSTORE CALLVALUE DUP1 ISZERO PUSH2 0x10 JUMPI PUSH1 0x0 DUP1 REVERT JUMPDEST POP PUSH1 0x4 CALLDATASIZE LT PUSH2 0xB4 JUMPI PUSH1 0x0 CALLDATALOAD PUSH1 0xE0 SHR DUP1 PUSH4 0x71C56F9B GT PUSH2 0x71 JUMPI DUP1 PUSH4 0x71C56F9B EQ PUSH2 0x19F JUMPI DUP1 PUSH4 0x909E4AB6 EQ PUSH2 0x1BD JUMPI DUP1 PUSH4 0x95794157 EQ PUSH2 0x1DB JUMPI DUP1 PUSH4 0x976217CD EQ PUSH2 0x20B JUMPI DUP1 PUSH4 0x9849CEE9 EQ PUSH2 0x240 JUMPI DUP1 PUSH4 0x993C0410 EQ PUSH2 0x270 JUMPI PUSH2 0xB4 JUMP JUMPDEST DUP1 PUSH4 0x182A9AEE EQ PUSH2 0xB9 JUMPI DUP1 PUSH4 0x301E26F4 EQ PUSH2 0xE9 JUMPI DUP1 PUSH4 0x307ED4BE EQ PUSH2 0x105 JUMPI DUP1 PUSH4 0x4C88BF2F EQ PUSH2 0x121 JUMPI DUP1 PUSH4 0x4D60F651 EQ PUSH2 0x151 JUMPI DUP1 PUSH4 0x61EA18DF EQ PUSH2 0x16F JUMPI JUMPDEST PUSH1 0x0 DUP1 REVERT JUMPDEST PUSH2 0xD3 PUSH1 0x4 DUP1 CALLDATASIZE SUB DUP2 ADD SWAP1 PUSH2 0xCE SWAP2 SWAP1 PUSH2 0x1E4C JUMP JUMPDEST PUSH2 0x2A0 JUMP JUMPDEST PUSH1 0x40 MLOAD PUSH2 0xE0 SWAP2 SWAP1 PUSH2 0x2434 JUMP JUMPDEST PUSH1 0x40 MLOAD DUP1 SWAP2 SUB SWAP1 RETURN JUMPDEST PUSH2 0x103 PUSH1 0x4 DUP1 CALLDATASIZE SUB DUP2 ADD SWAP1 PUSH2 0xFE SWAP2 SWAP1 PUSH2 0x2013 JUMP JUMPDEST PUSH2 0x336 JUMP JUMPDEST STOP JUMPDEST PUSH2 0x11F PUSH1 0x4 DUP1 CALLDATASIZE SUB DUP2 ADD SWAP1 PUSH2 0x11A SWAP2 SWAP1 PUSH2 0x1F42 JUMP JUMPDEST PUSH2 0x716 JUMP JUMPDEST STOP JUMPDEST PUSH2 0x13B PUSH1 0x4 DUP1 CALLDATASIZE SUB DUP2 ADD SWAP1 PUSH2 0x136 SWAP2 SWAP1 PUSH2 0x1EB3 JUMP JUMPDEST PUSH2 0xAEC JUMP JUMPDEST PUSH1 0x40 MLOAD PUSH2 0x148 SWAP2 SWAP1 PUSH2 0x2434 JUMP JUMPDEST PUSH1 0x40 MLOAD DUP1 SWAP2 SUB SWAP1 RETURN JUMPDEST PUSH2 0x159 PUSH2 0xCA1 JUMP JUMPDEST PUSH1 0x40 MLOAD PUSH2 0x166 SWAP2 SWAP1 PUSH2 0x23F0 JUMP JUMPDEST PUSH1 0x40 MLOAD DUP1 SWAP2 SUB SWAP1 RETURN JUMPDEST PUSH2 0x189 PUSH1 0x4 DUP1 CALLDATASIZE SUB DUP2 ADD SWAP1 PUSH2 0x184 SWAP2 SWAP1 PUSH2 0x1DFA JUMP JUMPDEST PUSH2 0xD7A JUMP JUMPDEST PUSH1 0x40 MLOAD PUSH2 0x196 SWAP2 SWAP1 PUSH2 0x24C5 JUMP JUMPDEST PUSH1 0x40 MLOAD DUP1 SWAP2 SUB SWAP1 RETURN JUMPDEST PUSH2 0x1A7 PUSH2 0xE26 JUMP JUMPDEST PUSH1 0x40 MLOAD PUSH2 0x1B4 SWAP2 SWAP1 PUSH2 0x2509 JUMP JUMPDEST PUSH1 0x40 MLOAD DUP1 SWAP2 SUB SWAP1 RETURN JUMPDEST PUSH2 0x1C5 PUSH2 0xEBA JUMP JUMPDEST PUSH1 0x40 MLOAD PUSH2 0x1D2 SWAP2 SWAP1 PUSH2 0x2412 JUMP JUMPDEST PUSH1 0x40 MLOAD DUP1 SWAP2 SUB SWAP1 RETURN JUMPDEST PUSH2 0x1F5 PUSH1 0x4 DUP1 CALLDATASIZE SUB DUP2 ADD SWAP1 PUSH2 0x1F0 SWAP2 SWAP1 PUSH2 0x1DFA JUMP JUMPDEST PUSH2 0xF12 JUMP JUMPDEST PUSH1 0x40 MLOAD PUSH2 0x202 SWAP2 SWAP1 PUSH2 0x2509 JUMP JUMPDEST PUSH1 0x40 MLOAD DUP1 SWAP2 SUB SWAP1 RETURN JUMPDEST PUSH2 0x225 PUSH1 0x4 DUP1 CALLDATASIZE SUB DUP2 ADD SWAP1 PUSH2 0x220 SWAP2 SWAP1 PUSH2 0x1DFA JUMP JUMPDEST PUSH2 0xF36 JUMP JUMPDEST PUSH1 0x40 MLOAD PUSH2 0x237 SWAP7 SWAP6 SWAP5 SWAP4 SWAP3 SWAP2 SWAP1 PUSH2 0x244F JUMP JUMPDEST PUSH1 0x40 MLOAD DUP1 SWAP2 SUB SWAP1 RETURN JUMPDEST PUSH2 0x25A PUSH1 0x4 DUP1 CALLDATASIZE SUB DUP2 ADD SWAP1 PUSH2 0x255 SWAP2 SWAP1 PUSH2 0x1DFA JUMP JUMPDEST PUSH2 0x1140 JUMP JUMPDEST PUSH1 0x40 MLOAD PUSH2 0x267 SWAP2 SWAP1 PUSH2 0x2434 JUMP JUMPDEST PUSH1 0x40 MLOAD DUP1 SWAP2 SUB SWAP1 RETURN JUMPDEST PUSH2 0x28A PUSH1 0x4 DUP1 CALLDATASIZE SUB DUP2 ADD SWAP1 PUSH2 0x285 SWAP2 SWAP1 PUSH2 0x1DFA JUMP JUMPDEST PUSH2 0x116C JUMP JUMPDEST PUSH1 0x40 MLOAD PUSH2 0x297 SWAP2 SWAP1 PUSH2 0x2434 JUMP JUMPDEST PUSH1 0x40 MLOAD DUP1 SWAP2 SUB SWAP1 RETURN JUMPDEST PUSH1 0x0 PUSH20 0x23698BAE1890E91F99315ABA04630BB8FAA23996 PUSH4 0x88276283 DUP6 DUP6 DUP6 PUSH1 0x40 MLOAD DUP5 PUSH4 0xFFFFFFFF AND PUSH1 0xE0 SHL DUP2 MSTORE PUSH1 0x4 ADD PUSH2 0x2DD SWAP4 SWAP3 SWAP2 SWAP1 PUSH2 0x2524 JUMP JUMPDEST PUSH1 0x20 PUSH1 0x40 MLOAD DUP1 DUP4 SUB DUP2 DUP7 DUP1 EXTCODESIZE ISZERO DUP1 ISZERO PUSH2 0x2F5 JUMPI PUSH1 0x0 DUP1 REVERT JUMPDEST POP GAS DELEGATECALL ISZERO DUP1 ISZERO PUSH2 0x309 JUMPI RETURNDATASIZE PUSH1 0x0 DUP1 RETURNDATACOPY RETURNDATASIZE PUSH1 0x0 REVERT JUMPDEST POP POP POP POP PUSH1 0x40 MLOAD RETURNDATASIZE PUSH1 0x1F NOT PUSH1 0x1F DUP3 ADD AND DUP3 ADD DUP1 PUSH1 0x40 MSTORE POP DUP2 ADD SWAP1 PUSH2 0x32D SWAP2 SWAP1 PUSH2 0x1DD1 JUMP JUMPDEST SWAP1 POP SWAP4 SWAP3 POP POP POP JUMP JUMPDEST PUSH2 0x33E PUSH2 0x172C JUMP JUMPDEST DUP7 DUP2 PUSH1 0x0 ADD DUP2 SWAP1 MSTORE POP DUP6 DUP2 PUSH1 0x20 ADD SWAP1 PUSH20 0xFFFFFFFFFFFFFFFFFFFFFFFFFFFFFFFFFFFFFFFF AND SWAP1 DUP2 PUSH20 0xFFFFFFFFFFFFFFFFFFFFFFFFFFFFFFFFFFFFFFFF AND DUP2 MSTORE POP POP PUSH1 0x0 DUP2 PUSH1 0x40 ADD SWAP1 ISZERO ISZERO SWAP1 DUP2 ISZERO ISZERO DUP2 MSTORE POP POP DUP5 DUP2 PUSH1 0x60 ADD SWAP1 PUSH1 0x3 DUP2 GT ISZERO PUSH2 0x3CE JUMPI PUSH32 0x4E487B7100000000000000000000000000000000000000000000000000000000 PUSH1 0x0 MSTORE PUSH1 0x21 PUSH1 0x4 MSTORE PUSH1 0x24 PUSH1 0x0 REVERT JUMPDEST SWAP1 DUP2 PUSH1 0x3 DUP2 GT ISZERO PUSH2 0x408 JUMPI PUSH32 0x4E487B7100000000000000000000000000000000000000000000000000000000 PUSH1 0x0 MSTORE PUSH1 0x21 PUSH1 0x4 MSTORE PUSH1 0x24 PUSH1 0x0 REVERT JUMPDEST DUP2 MSTORE POP POP DUP4 DUP2 PUSH1 0x80 ADD DUP2 SWAP1 MSTORE POP DUP3 DUP2 PUSH1 0xA0 ADD DUP2 SWAP1 MSTORE POP DUP2 DUP2 PUSH1 0xC0 ADD DUP2 SWAP1 MSTORE POP DUP1 PUSH1 0x0 DUP1 DUP11 DUP2 MSTORE PUSH1 0x20 ADD SWAP1 DUP2 MSTORE PUSH1 0x20 ADD PUSH1 0x0 KECCAK256 PUSH1 0x0 DUP3 ADD MLOAD DUP2 PUSH1 0x0 ADD SWAP1 DUP1 MLOAD SWAP1 PUSH1 0x20 ADD SWAP1 PUSH2 0x456 SWAP3 SWAP2 SWAP1 PUSH2 0x17BF JUMP JUMPDEST POP PUSH1 0x20 DUP3 ADD MLOAD DUP2 PUSH1 0x1 ADD PUSH1 0x0 PUSH2 0x100 EXP DUP2 SLOAD DUP2 PUSH20 0xFFFFFFFFFFFFFFFFFFFFFFFFFFFFFFFFFFFFFFFF MUL NOT AND SWAP1 DUP4 PUSH20 0xFFFFFFFFFFFFFFFFFFFFFFFFFFFFFFFFFFFFFFFF AND MUL OR SWAP1 SSTORE POP PUSH1 0x40 DUP3 ADD MLOAD DUP2 PUSH1 0x1 ADD PUSH1 0x14 PUSH2 0x100 EXP DUP2 SLOAD DUP2 PUSH1 0xFF MUL NOT AND SWAP1 DUP4 ISZERO ISZERO MUL OR SWAP1 SSTORE POP PUSH1 0x60 DUP3 ADD MLOAD DUP2 PUSH1 0x1 ADD PUSH1 0x15 PUSH2 0x100 EXP DUP2 SLOAD DUP2 PUSH1 0xFF MUL NOT AND SWAP1 DUP4 PUSH1 0x3 DUP2 GT ISZERO PUSH2 0x50F JUMPI PUSH32 0x4E487B7100000000000000000000000000000000000000000000000000000000 PUSH1 0x0 MSTORE PUSH1 0x21 PUSH1 0x4 MSTORE PUSH1 0x24 PUSH1 0x0 REVERT JUMPDEST MUL OR SWAP1 SSTORE POP PUSH1 0x80 DUP3 ADD MLOAD DUP2 PUSH1 0x2 ADD SWAP1 DUP1 MLOAD SWAP1 PUSH1 0x20 ADD SWAP1 PUSH2 0x530 SWAP3 SWAP2 SWAP1 PUSH2 0x1845 JUMP JUMPDEST POP PUSH1 0xA0 DUP3 ADD MLOAD DUP2 PUSH1 0x3 ADD SWAP1 DUP1 MLOAD SWAP1 PUSH1 0x20 ADD SWAP1 PUSH2 0x54D SWAP3 SWAP2 SWAP1 PUSH2 0x1845 JUMP JUMPDEST POP PUSH1 0xC0 DUP3 ADD MLOAD DUP2 PUSH1 0x4 ADD PUSH1 0x0 DUP3 ADD MLOAD DUP2 PUSH1 0x0 ADD SSTORE PUSH1 0x20 DUP3 ADD MLOAD DUP2 PUSH1 0x1 ADD PUSH1 0x0 PUSH2 0x100 EXP DUP2 SLOAD DUP2 PUSH1 0xFF MUL NOT AND SWAP1 DUP4 PUSH1 0x3 DUP2 GT ISZERO PUSH2 0x5B2 JUMPI PUSH32 0x4E487B7100000000000000000000000000000000000000000000000000000000 PUSH1 0x0 MSTORE PUSH1 0x21 PUSH1 0x4 MSTORE PUSH1 0x24 PUSH1 0x0 REVERT JUMPDEST MUL OR SWAP1 SSTORE POP PUSH1 0x40 DUP3 ADD MLOAD DUP2 PUSH1 0x1 ADD PUSH1 0x1 PUSH2 0x100 EXP DUP2 SLOAD DUP2 PUSH1 0xFF MUL NOT AND SWAP1 DUP4 PUSH1 0x2 DUP2 GT ISZERO PUSH2 0x608 JUMPI PUSH32 0x4E487B7100000000000000000000000000000000000000000000000000000000 PUSH1 0x0 MSTORE PUSH1 0x21 PUSH1 0x4 MSTORE PUSH1 0x24 PUSH1 0x0 REVERT JUMPDEST MUL OR SWAP1 SSTORE POP PUSH1 0x60 DUP3 ADD MLOAD DUP2 PUSH1 0x1 ADD PUSH1 0x2 PUSH2 0x100 EXP DUP2 SLOAD DUP2 PUSH1 0xFF MUL NOT AND SWAP1 DUP4 ISZERO ISZERO MUL OR SWAP1 SSTORE POP PUSH1 0x80 DUP3 ADD MLOAD DUP2 PUSH1 0x1 ADD PUSH1 0x3 PUSH2 0x100 EXP DUP2 SLOAD DUP2 PUSH1 0xFF MUL NOT AND SWAP1 DUP4 ISZERO ISZERO MUL OR SWAP1 SSTORE POP PUSH1 0xA0 DUP3 ADD MLOAD DUP2 PUSH1 0x1 ADD PUSH1 0x4 PUSH2 0x100 EXP DUP2 SLOAD DUP2 PUSH1 0xFF MUL NOT AND SWAP1 DUP4 PUSH1 0x6 DUP2 GT ISZERO PUSH2 0x69E JUMPI PUSH32 0x4E487B7100000000000000000000000000000000000000000000000000000000 PUSH1 0x0 MSTORE PUSH1 0x21 PUSH1 0x4 MSTORE PUSH1 0x24 PUSH1 0x0 REVERT JUMPDEST MUL OR SWAP1 SSTORE POP PUSH1 0xC0 DUP3 ADD MLOAD DUP2 PUSH1 0x2 ADD PUSH1 0x0 DUP3 ADD MLOAD DUP2 PUSH1 0x0 ADD SSTORE PUSH1 0x20 DUP3 ADD MLOAD DUP2 PUSH1 0x1 ADD SWAP1 DUP1 MLOAD SWAP1 PUSH1 0x20 ADD SWAP1 PUSH2 0x6D2 SWAP3 SWAP2 SWAP1 PUSH2 0x1845 JUMP JUMPDEST POP POP POP PUSH1 0xE0 DUP3 ADD MLOAD DUP2 PUSH1 0x4 ADD PUSH1 0x0 DUP3 ADD MLOAD DUP2 PUSH1 0x0 ADD SSTORE PUSH1 0x20 DUP3 ADD MLOAD DUP2 PUSH1 0x1 ADD SWAP1 DUP1 MLOAD SWAP1 PUSH1 0x20 ADD SWAP1 PUSH2 0x704 SWAP3 SWAP2 SWAP1 PUSH2 0x17BF JUMP JUMPDEST POP POP POP POP POP SWAP1 POP POP POP POP POP POP POP POP POP POP JUMP JUMPDEST PUSH2 0x71E PUSH2 0x172C JUMP JUMPDEST DUP6 DUP2 PUSH1 0x0 ADD DUP2 SWAP1 MSTORE POP DUP5 DUP2 PUSH1 0x20 ADD SWAP1 PUSH20 0xFFFFFFFFFFFFFFFFFFFFFFFFFFFFFFFFFFFFFFFF AND SWAP1 DUP2 PUSH20 0xFFFFFFFFFFFFFFFFFFFFFFFFFFFFFFFFFFFFFFFF AND DUP2 MSTORE POP POP PUSH1 0x0 DUP2 PUSH1 0x40 ADD SWAP1 ISZERO ISZERO SWAP1 DUP2 ISZERO ISZERO DUP2 MSTORE POP POP DUP4 DUP2 PUSH1 0x60 ADD SWAP1 PUSH1 0x3 DUP2 GT ISZERO PUSH2 0x7AE JUMPI PUSH32 0x4E487B7100000000000000000000000000000000000000000000000000000000 PUSH1 0x0 MSTORE PUSH1 0x21 PUSH1 0x4 MSTORE PUSH1 0x24 PUSH1 0x0 REVERT JUMPDEST SWAP1 DUP2 PUSH1 0x3 DUP2 GT ISZERO PUSH2 0x7E8 JUMPI PUSH32 0x4E487B7100000000000000000000000000000000000000000000000000000000 PUSH1 0x0 MSTORE PUSH1 0x21 PUSH1 0x4 MSTORE PUSH1 0x24 PUSH1 0x0 REVERT JUMPDEST DUP2 MSTORE POP POP DUP3 DUP2 PUSH1 0x80 ADD DUP2 SWAP1 MSTORE POP DUP2 DUP2 PUSH1 0xA0 ADD DUP2 SWAP1 MSTORE POP DUP1 PUSH1 0x0 DUP1 DUP10 DUP2 MSTORE PUSH1 0x20 ADD SWAP1 DUP2 MSTORE PUSH1 0x20 ADD PUSH1 0x0 KECCAK256 PUSH1 0x0 DUP3 ADD MLOAD DUP2 PUSH1 0x0 ADD SWAP1 DUP1 MLOAD SWAP1 PUSH1 0x20 ADD SWAP1 PUSH2 0x82D SWAP3 SWAP2 SWAP1 PUSH2 0x17BF JUMP JUMPDEST POP PUSH1 0x20 DUP3 ADD MLOAD DUP2 PUSH1 0x1 ADD PUSH1 0x0 PUSH2 0x100 EXP DUP2 SLOAD DUP2 PUSH20 0xFFFFFFFFFFFFFFFFFFFFFFFFFFFFFFFFFFFFFFFF MUL NOT AND SWAP1 DUP4 PUSH20 0xFFFFFFFFFFFFFFFFFFFFFFFFFFFFFFFFFFFFFFFF AND MUL OR SWAP1 SSTORE POP PUSH1 0x40 DUP3 ADD MLOAD DUP2 PUSH1 0x1 ADD PUSH1 0x14 PUSH2 0x100 EXP DUP2 SLOAD DUP2 PUSH1 0xFF MUL NOT AND SWAP1 DUP4 ISZERO ISZERO MUL OR SWAP1 SSTORE POP PUSH1 0x60 DUP3 ADD MLOAD DUP2 PUSH1 0x1 ADD PUSH1 0x15 PUSH2 0x100 EXP DUP2 SLOAD DUP2 PUSH1 0xFF MUL NOT AND SWAP1 DUP4 PUSH1 0x3 DUP2 GT ISZERO PUSH2 0x8E6 JUMPI PUSH32 0x4E487B7100000000000000000000000000000000000000000000000000000000 PUSH1 0x0 MSTORE PUSH1 0x21 PUSH1 0x4 MSTORE PUSH1 0x24 PUSH1 0x0 REVERT JUMPDEST MUL OR SWAP1 SSTORE POP PUSH1 0x80 DUP3 ADD MLOAD DUP2 PUSH1 0x2 ADD SWAP1 DUP1 MLOAD SWAP1 PUSH1 0x20 ADD SWAP1 PUSH2 0x907 SWAP3 SWAP2 SWAP1 PUSH2 0x1845 JUMP JUMPDEST POP PUSH1 0xA0 DUP3 ADD MLOAD DUP2 PUSH1 0x3 ADD SWAP1 DUP1 MLOAD SWAP1 PUSH1 0x20 ADD SWAP1 PUSH2 0x924 SWAP3 SWAP2 SWAP1 PUSH2 0x1845 JUMP JUMPDEST POP PUSH1 0xC0 DUP3 ADD MLOAD DUP2 PUSH1 0x4 ADD PUSH1 0x0 DUP3 ADD MLOAD DUP2 PUSH1 0x0 ADD SSTORE PUSH1 0x20 DUP3 ADD MLOAD DUP2 PUSH1 0x1 ADD PUSH1 0x0 PUSH2 0x100 EXP DUP2 SLOAD DUP2 PUSH1 0xFF MUL NOT AND SWAP1 DUP4 PUSH1 0x3 DUP2 GT ISZERO PUSH2 0x989 JUMPI PUSH32 0x4E487B7100000000000000000000000000000000000000000000000000000000 PUSH1 0x0 MSTORE PUSH1 0x21 PUSH1 0x4 MSTORE PUSH1 0x24 PUSH1 0x0 REVERT JUMPDEST MUL OR SWAP1 SSTORE POP PUSH1 0x40 DUP3 ADD MLOAD DUP2 PUSH1 0x1 ADD PUSH1 0x1 PUSH2 0x100 EXP DUP2 SLOAD DUP2 PUSH1 0xFF MUL NOT AND SWAP1 DUP4 PUSH1 0x2 DUP2 GT ISZERO PUSH2 0x9DF JUMPI PUSH32 0x4E487B7100000000000000000000000000000000000000000000000000000000 PUSH1 0x0 MSTORE PUSH1 0x21 PUSH1 0x4 MSTORE PUSH1 0x24 PUSH1 0x0 REVERT JUMPDEST MUL OR SWAP1 SSTORE POP PUSH1 0x60 DUP3 ADD MLOAD DUP2 PUSH1 0x1 ADD PUSH1 0x2 PUSH2 0x100 EXP DUP2 SLOAD DUP2 PUSH1 0xFF MUL NOT AND SWAP1 DUP4 ISZERO ISZERO MUL OR SWAP1 SSTORE POP PUSH1 0x80 DUP3 ADD MLOAD DUP2 PUSH1 0x1 ADD PUSH1 0x3 PUSH2 0x100 EXP DUP2 SLOAD DUP2 PUSH1 0xFF MUL NOT AND SWAP1 DUP4 ISZERO ISZERO MUL OR SWAP1 SSTORE POP PUSH1 0xA0 DUP3 ADD MLOAD DUP2 PUSH1 0x1 ADD PUSH1 0x4 PUSH2 0x100 EXP DUP2 SLOAD DUP2 PUSH1 0xFF MUL NOT AND SWAP1 DUP4 PUSH1 0x6 DUP2 GT ISZERO PUSH2 0xA75 JUMPI PUSH32 0x4E487B7100000000000000000000000000000000000000000000000000000000 PUSH1 0x0 MSTORE PUSH1 0x21 PUSH1 0x4 MSTORE PUSH1 0x24 PUSH1 0x0 REVERT JUMPDEST MUL OR SWAP1 SSTORE POP PUSH1 0xC0 DUP3 ADD MLOAD DUP2 PUSH1 0x2 ADD PUSH1 0x0 DUP3 ADD MLOAD DUP2 PUSH1 0x0 ADD SSTORE PUSH1 0x20 DUP3 ADD MLOAD DUP2 PUSH1 0x1 ADD SWAP1 DUP1 MLOAD SWAP1 PUSH1 0x20 ADD SWAP1 PUSH2 0xAA9 SWAP3 SWAP2 SWAP1 PUSH2 0x1845 JUMP JUMPDEST POP POP POP PUSH1 0xE0 DUP3 ADD MLOAD DUP2 PUSH1 0x4 ADD PUSH1 0x0 DUP3 ADD MLOAD DUP2 PUSH1 0x0 ADD SSTORE PUSH1 0x20 DUP3 ADD MLOAD DUP2 PUSH1 0x1 ADD SWAP1 DUP1 MLOAD SWAP1 PUSH1 0x20 ADD SWAP1 PUSH2 0xADB SWAP3 SWAP2 SWAP1 PUSH2 0x17BF JUMP JUMPDEST POP POP POP POP POP SWAP1 POP POP POP POP POP POP POP POP POP JUMP JUMPDEST PUSH1 0x0 DUP5 PUSH1 0x0 DUP1 DUP9 DUP2 MSTORE PUSH1 0x20 ADD SWAP1 DUP2 MSTORE PUSH1 0x20 ADD PUSH1 0x0 KECCAK256 PUSH1 0x4 ADD PUSH1 0x1 ADD PUSH1 0x0 PUSH2 0x100 EXP DUP2 SLOAD DUP2 PUSH1 0xFF MUL NOT AND SWAP1 DUP4 PUSH1 0x3 DUP2 GT ISZERO PUSH2 0xB4F JUMPI PUSH32 0x4E487B7100000000000000000000000000000000000000000000000000000000 PUSH1 0x0 MSTORE PUSH1 0x21 PUSH1 0x4 MSTORE PUSH1 0x24 PUSH1 0x0 REVERT JUMPDEST MUL OR SWAP1 SSTORE POP DUP4 PUSH1 0x0 DUP1 DUP9 DUP2 MSTORE PUSH1 0x20 ADD SWAP1 DUP2 MSTORE PUSH1 0x20 ADD PUSH1 0x0 KECCAK256 PUSH1 0x4 ADD PUSH1 0x1 ADD PUSH1 0x1 PUSH2 0x100 EXP DUP2 SLOAD DUP2 PUSH1 0xFF MUL NOT AND SWAP1 DUP4 PUSH1 0x2 DUP2 GT ISZERO PUSH2 0xBB5 JUMPI PUSH32 0x4E487B7100000000000000000000000000000000000000000000000000000000 PUSH1 0x0 MSTORE PUSH1 0x21 PUSH1 0x4 MSTORE PUSH1 0x24 PUSH1 0x0 REVERT JUMPDEST MUL OR SWAP1 SSTORE POP DUP3 PUSH1 0x0 DUP1 DUP9 DUP2 MSTORE PUSH1 0x20 ADD SWAP1 DUP2 MSTORE PUSH1 0x20 ADD PUSH1 0x0 KECCAK256 PUSH1 0x4 ADD PUSH1 0x1 ADD PUSH1 0x4 PUSH2 0x100 EXP DUP2 SLOAD DUP2 PUSH1 0xFF MUL NOT AND SWAP1 DUP4 PUSH1 0x6 DUP2 GT ISZERO PUSH2 0xC1B JUMPI PUSH32 0x4E487B7100000000000000000000000000000000000000000000000000000000 PUSH1 0x0 MSTORE PUSH1 0x21 PUSH1 0x4 MSTORE PUSH1 0x24 PUSH1 0x0 REVERT JUMPDEST MUL OR SWAP1 SSTORE POP DUP2 PUSH1 0x0 DUP1 DUP9 DUP2 MSTORE PUSH1 0x20 ADD SWAP1 DUP2 MSTORE PUSH1 0x20 ADD PUSH1 0x0 KECCAK256 PUSH1 0x4 ADD PUSH1 0x2 ADD PUSH1 0x0 DUP3 ADD MLOAD DUP2 PUSH1 0x0 ADD SSTORE PUSH1 0x20 DUP3 ADD MLOAD DUP2 PUSH1 0x1 ADD SWAP1 DUP1 MLOAD SWAP1 PUSH1 0x20 ADD SWAP1 PUSH2 0xC5F SWAP3 SWAP2 SWAP1 PUSH2 0x1845 JUMP JUMPDEST POP SWAP1 POP POP PUSH1 0x1 PUSH1 0x0 DUP1 DUP9 DUP2 MSTORE PUSH1 0x20 ADD SWAP1 DUP2 MSTORE PUSH1 0x20 ADD PUSH1 0x0 KECCAK256 PUSH1 0x4 ADD PUSH1 0x1 ADD PUSH1 0x3 PUSH2 0x100 EXP DUP2 SLOAD DUP2 PUSH1 0xFF MUL NOT AND SWAP1 DUP4 ISZERO ISZERO MUL OR SWAP1 SSTORE POP PUSH1 0x1 SWAP1 POP SWAP6 SWAP5 POP POP POP POP POP JUMP JUMPDEST PUSH1 0x60 PUSH1 0x4 DUP1 SLOAD DUP1 PUSH1 0x20 MUL PUSH1 0x20 ADD PUSH1 0x40 MLOAD SWAP1 DUP2 ADD PUSH1 0x40 MSTORE DUP1 SWAP3 SWAP2 SWAP1 DUP2 DUP2 MSTORE PUSH1 0x20 ADD PUSH1 0x0 SWAP1 JUMPDEST DUP3 DUP3 LT ISZERO PUSH2 0xD71 JUMPI DUP4 DUP3 SWAP1 PUSH1 0x0 MSTORE PUSH1 0x20 PUSH1 0x0 KECCAK256 ADD DUP1 SLOAD PUSH2 0xCE4 SWAP1 PUSH2 0x27DE JUMP JUMPDEST DUP1 PUSH1 0x1F ADD PUSH1 0x20 DUP1 SWAP2 DIV MUL PUSH1 0x20 ADD PUSH1 0x40 MLOAD SWAP1 DUP2 ADD PUSH1 0x40 MSTORE DUP1 SWAP3 SWAP2 SWAP1 DUP2 DUP2 MSTORE PUSH1 0x20 ADD DUP3 DUP1 SLOAD PUSH2 0xD10 SWAP1 PUSH2 0x27DE JUMP JUMPDEST DUP1 ISZERO PUSH2 0xD5D JUMPI DUP1 PUSH1 0x1F LT PUSH2 0xD32 JUMPI PUSH2 0x100 DUP1 DUP4 SLOAD DIV MUL DUP4 MSTORE SWAP2 PUSH1 0x20 ADD SWAP2 PUSH2 0xD5D JUMP JUMPDEST DUP3 ADD SWAP2 SWAP1 PUSH1 0x0 MSTORE PUSH1 0x20 PUSH1 0x0 KECCAK256 SWAP1 JUMPDEST DUP2 SLOAD DUP2 MSTORE SWAP1 PUSH1 0x1 ADD SWAP1 PUSH1 0x20 ADD DUP1 DUP4 GT PUSH2 0xD40 JUMPI DUP3 SWAP1 SUB PUSH1 0x1F AND DUP3 ADD SWAP2 JUMPDEST POP POP POP POP POP DUP2 MSTORE PUSH1 0x20 ADD SWAP1 PUSH1 0x1 ADD SWAP1 PUSH2 0xCC5 JUMP JUMPDEST POP POP POP POP SWAP1 POP SWAP1 JUMP JUMPDEST PUSH1 0x4 DUP2 DUP2 SLOAD DUP2 LT PUSH2 0xD8A JUMPI PUSH1 0x0 DUP1 REVERT JUMPDEST SWAP1 PUSH1 0x0 MSTORE PUSH1 0x20 PUSH1 0x0 KECCAK256 ADD PUSH1 0x0 SWAP2 POP SWAP1 POP DUP1 SLOAD PUSH2 0xDA5 SWAP1 PUSH2 0x27DE JUMP JUMPDEST DUP1 PUSH1 0x1F ADD PUSH1 0x20 DUP1 SWAP2 DIV MUL PUSH1 0x20 ADD PUSH1 0x40 MLOAD SWAP1 DUP2 ADD PUSH1 0x40 MSTORE DUP1 SWAP3 SWAP2 SWAP1 DUP2 DUP2 MSTORE PUSH1 0x20 ADD DUP3 DUP1 SLOAD PUSH2 0xDD1 SWAP1 PUSH2 0x27DE JUMP JUMPDEST DUP1 ISZERO PUSH2 0xE1E JUMPI DUP1 PUSH1 0x1F LT PUSH2 0xDF3 JUMPI PUSH2 0x100 DUP1 DUP4 SLOAD DIV MUL DUP4 MSTORE SWAP2 PUSH1 0x20 ADD SWAP2 PUSH2 0xE1E JUMP JUMPDEST DUP3 ADD SWAP2 SWAP1 PUSH1 0x0 MSTORE PUSH1 0x20 PUSH1 0x0 KECCAK256 SWAP1 JUMPDEST DUP2 SLOAD DUP2 MSTORE SWAP1 PUSH1 0x1 ADD SWAP1 PUSH1 0x20 ADD DUP1 DUP4 GT PUSH2 0xE01 JUMPI DUP3 SWAP1 SUB PUSH1 0x1F AND DUP3 ADD SWAP2 JUMPDEST POP POP POP POP POP DUP2 JUMP JUMPDEST PUSH1 0x0 DUP1 PUSH20 0x23698BAE1890E91F99315ABA04630BB8FAA23996 PUSH4 0xC237647F PUSH1 0x40 MLOAD DUP2 PUSH4 0xFFFFFFFF AND PUSH1 0xE0 SHL DUP2 MSTORE PUSH1 0x4 ADD PUSH1 0x20 PUSH1 0x40 MLOAD DUP1 DUP4 SUB DUP2 DUP7 DUP1 EXTCODESIZE ISZERO DUP1 ISZERO PUSH2 0xE6D JUMPI PUSH1 0x0 DUP1 REVERT JUMPDEST POP GAS DELEGATECALL ISZERO DUP1 ISZERO PUSH2 0xE81 JUMPI RETURNDATASIZE PUSH1 0x0 DUP1 RETURNDATACOPY RETURNDATASIZE PUSH1 0x0 REVERT JUMPDEST POP POP POP POP PUSH1 0x40 MLOAD RETURNDATASIZE PUSH1 0x1F NOT PUSH1 0x1F DUP3 ADD AND DUP3 ADD DUP1 PUSH1 0x40 MSTORE POP DUP2 ADD SWAP1 PUSH2 0xEA5 SWAP2 SWAP1 PUSH2 0x1E23 JUMP JUMPDEST SWAP1 POP PUSH1 0x5 DUP2 PUSH2 0xEB4 SWAP2 SWAP1 PUSH2 0x26B4 JUMP JUMPDEST SWAP2 POP POP SWAP1 JUMP JUMPDEST PUSH1 0x60 PUSH1 0x3 DUP1 SLOAD DUP1 PUSH1 0x20 MUL PUSH1 0x20 ADD PUSH1 0x40 MLOAD SWAP1 DUP2 ADD PUSH1 0x40 MSTORE DUP1 SWAP3 SWAP2 SWAP1 DUP2 DUP2 MSTORE PUSH1 0x20 ADD DUP3 DUP1 SLOAD DUP1 ISZERO PUSH2 0xF08 JUMPI PUSH1 0x20 MUL DUP3 ADD SWAP2 SWAP1 PUSH1 0x0 MSTORE PUSH1 0x20 PUSH1 0x0 KECCAK256 SWAP1 JUMPDEST DUP2 SLOAD DUP2 MSTORE PUSH1 0x20 ADD SWAP1 PUSH1 0x1 ADD SWAP1 DUP1 DUP4 GT PUSH2 0xEF4 JUMPI JUMPDEST POP POP POP POP POP SWAP1 POP SWAP1 JUMP JUMPDEST PUSH1 0x3 DUP2 DUP2 SLOAD DUP2 LT PUSH2 0xF22 JUMPI PUSH1 0x0 DUP1 REVERT JUMPDEST SWAP1 PUSH1 0x0 MSTORE PUSH1 0x20 PUSH1 0x0 KECCAK256 ADD PUSH1 0x0 SWAP2 POP SWAP1 POP SLOAD DUP2 JUMP JUMPDEST PUSH1 0x0 PUSH1 0x60 PUSH1 0x0 DUP1 PUSH1 0x60 DUP1 PUSH1 0x0 DUP1 DUP9 DUP2 MSTORE PUSH1 0x20 ADD SWAP1 DUP2 MSTORE PUSH1 0x20 ADD PUSH1 0x0 KECCAK256 PUSH1 0x1 ADD PUSH1 0x14 SWAP1 SLOAD SWAP1 PUSH2 0x100 EXP SWAP1 DIV PUSH1 0xFF AND PUSH1 0x0 DUP1 DUP10 DUP2 MSTORE PUSH1 0x20 ADD SWAP1 DUP2 MSTORE PUSH1 0x20 ADD PUSH1 0x0 KECCAK256 PUSH1 0x0 ADD PUSH1 0x0 DUP1 DUP11 DUP2 MSTORE PUSH1 0x20 ADD SWAP1 DUP2 MSTORE PUSH1 0x20 ADD PUSH1 0x0 KECCAK256 PUSH1 0x1 ADD PUSH1 0x0 SWAP1 SLOAD SWAP1 PUSH2 0x100 EXP SWAP1 DIV PUSH20 0xFFFFFFFFFFFFFFFFFFFFFFFFFFFFFFFFFFFFFFFF AND PUSH1 0x0 DUP1 DUP12 DUP2 MSTORE PUSH1 0x20 ADD SWAP1 DUP2 MSTORE PUSH1 0x20 ADD PUSH1 0x0 KECCAK256 PUSH1 0x1 ADD PUSH1 0x15 SWAP1 SLOAD SWAP1 PUSH2 0x100 EXP SWAP1 DIV PUSH1 0xFF AND PUSH1 0x0 DUP1 DUP13 DUP2 MSTORE PUSH1 0x20 ADD SWAP1 DUP2 MSTORE PUSH1 0x20 ADD PUSH1 0x0 KECCAK256 PUSH1 0x2 ADD PUSH1 0x0 DUP1 DUP14 DUP2 MSTORE PUSH1 0x20 ADD SWAP1 DUP2 MSTORE PUSH1 0x20 ADD PUSH1 0x0 KECCAK256 PUSH1 0x3 ADD DUP5 DUP1 SLOAD PUSH2 0x1007 SWAP1 PUSH2 0x27DE JUMP JUMPDEST DUP1 PUSH1 0x1F ADD PUSH1 0x20 DUP1 SWAP2 DIV MUL PUSH1 0x20 ADD PUSH1 0x40 MLOAD SWAP1 DUP2 ADD PUSH1 0x40 MSTORE DUP1 SWAP3 SWAP2 SWAP1 DUP2 DUP2 MSTORE PUSH1 0x20 ADD DUP3 DUP1 SLOAD PUSH2 0x1033 SWAP1 PUSH2 0x27DE JUMP JUMPDEST DUP1 ISZERO PUSH2 0x1080 JUMPI DUP1 PUSH1 0x1F LT PUSH2 0x1055 JUMPI PUSH2 0x100 DUP1 DUP4 SLOAD DIV MUL DUP4 MSTORE SWAP2 PUSH1 0x20 ADD SWAP2 PUSH2 0x1080 JUMP JUMPDEST DUP3 ADD SWAP2 SWAP1 PUSH1 0x0 MSTORE PUSH1 0x20 PUSH1 0x0 KECCAK256 SWAP1 JUMPDEST DUP2 SLOAD DUP2 MSTORE SWAP1 PUSH1 0x1 ADD SWAP1 PUSH1 0x20 ADD DUP1 DUP4 GT PUSH2 0x1063 JUMPI DUP3 SWAP1 SUB PUSH1 0x1F AND DUP3 ADD SWAP2 JUMPDEST POP POP POP POP POP SWAP5 POP DUP2 DUP1 SLOAD DUP1 PUSH1 0x20 MUL PUSH1 0x20 ADD PUSH1 0x40 MLOAD SWAP1 DUP2 ADD PUSH1 0x40 MSTORE DUP1 SWAP3 SWAP2 SWAP1 DUP2 DUP2 MSTORE PUSH1 0x20 ADD DUP3 DUP1 SLOAD DUP1 ISZERO PUSH2 0x10D2 JUMPI PUSH1 0x20 MUL DUP3 ADD SWAP2 SWAP1 PUSH1 0x0 MSTORE PUSH1 0x20 PUSH1 0x0 KECCAK256 SWAP1 JUMPDEST DUP2 SLOAD DUP2 MSTORE PUSH1 0x20 ADD SWAP1 PUSH1 0x1 ADD SWAP1 DUP1 DUP4 GT PUSH2 0x10BE JUMPI JUMPDEST POP POP POP POP POP SWAP2 POP DUP1 DUP1 SLOAD DUP1 PUSH1 0x20 MUL PUSH1 0x20 ADD PUSH1 0x40 MLOAD SWAP1 DUP2 ADD PUSH1 0x40 MSTORE DUP1 SWAP3 SWAP2 SWAP1 DUP2 DUP2 MSTORE PUSH1 0x20 ADD DUP3 DUP1 SLOAD DUP1 ISZERO PUSH2 0x1124 JUMPI PUSH1 0x20 MUL DUP3 ADD SWAP2 SWAP1 PUSH1 0x0 MSTORE PUSH1 0x20 PUSH1 0x0 KECCAK256 SWAP1 JUMPDEST DUP2 SLOAD DUP2 MSTORE PUSH1 0x20 ADD SWAP1 PUSH1 0x1 ADD SWAP1 DUP1 DUP4 GT PUSH2 0x1110 JUMPI JUMPDEST POP POP POP POP POP SWAP1 POP SWAP6 POP SWAP6 POP SWAP6 POP SWAP6 POP SWAP6 POP SWAP6 POP SWAP2 SWAP4 SWAP6 POP SWAP2 SWAP4 SWAP6 JUMP JUMPDEST PUSH1 0x0 DUP1 PUSH1 0x0 DUP4 DUP2 MSTORE PUSH1 0x20 ADD SWAP1 DUP2 MSTORE PUSH1 0x20 ADD PUSH1 0x0 KECCAK256 PUSH1 0x1 ADD PUSH1 0x14 SWAP1 SLOAD SWAP1 PUSH2 0x100 EXP SWAP1 DIV PUSH1 0xFF AND SWAP1 POP SWAP2 SWAP1 POP JUMP JUMPDEST PUSH1 0x0 DUP1 PUSH1 0x0 DUP1 DUP5 DUP2 MSTORE PUSH1 0x20 ADD SWAP1 DUP2 MSTORE PUSH1 0x20 ADD PUSH1 0x0 KECCAK256 PUSH1 0x1 ADD PUSH1 0x0 SWAP1 SLOAD SWAP1 PUSH2 0x100 EXP SWAP1 DIV PUSH20 0xFFFFFFFFFFFFFFFFFFFFFFFFFFFFFFFFFFFFFFFF AND SWAP1 POP PUSH1 0x0 PUSH20 0xFFFFFFFFFFFFFFFFFFFFFFFFFFFFFFFFFFFFFFFF AND DUP2 PUSH20 0xFFFFFFFFFFFFFFFFFFFFFFFFFFFFFFFFFFFFFFFF AND EQ DUP1 PUSH2 0x120D JUMPI POP CALLER PUSH20 0xFFFFFFFFFFFFFFFFFFFFFFFFFFFFFFFFFFFFFFFF AND DUP2 PUSH20 0xFFFFFFFFFFFFFFFFFFFFFFFFFFFFFFFFFFFFFFFF AND EQ JUMPDEST PUSH1 0x0 DUP1 DUP6 DUP2 MSTORE PUSH1 0x20 ADD SWAP1 DUP2 MSTORE PUSH1 0x20 ADD PUSH1 0x0 KECCAK256 PUSH1 0x0 ADD SWAP1 PUSH2 0x1263 JUMPI PUSH1 0x40 MLOAD PUSH32 0x8C379A000000000000000000000000000000000000000000000000000000000 DUP2 MSTORE PUSH1 0x4 ADD PUSH2 0x125A SWAP2 SWAP1 PUSH2 0x24E7 JUMP JUMPDEST PUSH1 0x40 MLOAD DUP1 SWAP2 SUB SWAP1 REVERT JUMPDEST POP PUSH1 0x0 DUP1 PUSH1 0x0 DUP6 DUP2 MSTORE PUSH1 0x20 ADD SWAP1 DUP2 MSTORE PUSH1 0x20 ADD PUSH1 0x0 KECCAK256 PUSH1 0x2 ADD DUP1 SLOAD DUP1 PUSH1 0x20 MUL PUSH1 0x20 ADD PUSH1 0x40 MLOAD SWAP1 DUP2 ADD PUSH1 0x40 MSTORE DUP1 SWAP3 SWAP2 SWAP1 DUP2 DUP2 MSTORE PUSH1 0x20 ADD DUP3 DUP1 SLOAD DUP1 ISZERO PUSH2 0x12C5 JUMPI PUSH1 0x20 MUL DUP3 ADD SWAP2 SWAP1 PUSH1 0x0 MSTORE PUSH1 0x20 PUSH1 0x0 KECCAK256 SWAP1 JUMPDEST DUP2 SLOAD DUP2 MSTORE PUSH1 0x20 ADD SWAP1 PUSH1 0x1 ADD SWAP1 DUP1 DUP4 GT PUSH2 0x12B1 JUMPI JUMPDEST POP POP POP POP POP SWAP1 POP PUSH1 0x0 DUP2 MLOAD EQ ISZERO PUSH2 0x12DF JUMPI PUSH1 0x1 SWAP3 POP PUSH2 0x160E JUMP JUMPDEST PUSH1 0x0 DUP1 PUSH1 0x0 DUP7 DUP2 MSTORE PUSH1 0x20 ADD SWAP1 DUP2 MSTORE PUSH1 0x20 ADD PUSH1 0x0 KECCAK256 PUSH1 0x1 ADD PUSH1 0x15 SWAP1 SLOAD SWAP1 PUSH2 0x100 EXP SWAP1 DIV PUSH1 0xFF AND SWAP1 POP PUSH1 0x0 PUSH1 0x3 DUP2 GT ISZERO PUSH2 0x1340 JUMPI PUSH32 0x4E487B7100000000000000000000000000000000000000000000000000000000 PUSH1 0x0 MSTORE PUSH1 0x21 PUSH1 0x4 MSTORE PUSH1 0x24 PUSH1 0x0 REVERT JUMPDEST DUP2 PUSH1 0x3 DUP2 GT ISZERO PUSH2 0x1379 JUMPI PUSH32 0x4E487B7100000000000000000000000000000000000000000000000000000000 PUSH1 0x0 MSTORE PUSH1 0x21 PUSH1 0x4 MSTORE PUSH1 0x24 PUSH1 0x0 REVERT JUMPDEST EQ ISZERO PUSH2 0x13DF JUMPI PUSH1 0x1 ISZERO ISZERO PUSH2 0x13CD DUP4 PUSH1 0x0 DUP2 MLOAD DUP2 LT PUSH2 0x13C0 JUMPI PUSH32 0x4E487B7100000000000000000000000000000000000000000000000000000000 PUSH1 0x0 MSTORE PUSH1 0x32 PUSH1 0x4 MSTORE PUSH1 0x24 PUSH1 0x0 REVERT JUMPDEST PUSH1 0x20 MUL PUSH1 0x20 ADD ADD MLOAD PUSH2 0x1140 JUMP JUMPDEST ISZERO ISZERO EQ ISZERO PUSH2 0x13DA JUMPI PUSH1 0x1 SWAP4 POP JUMPDEST PUSH2 0x160C JUMP JUMPDEST PUSH1 0x0 DUP1 PUSH1 0x0 SWAP1 POP JUMPDEST DUP4 MLOAD DUP2 LT ISZERO PUSH2 0x1467 JUMPI PUSH1 0x1 ISZERO ISZERO PUSH2 0x143D DUP6 DUP4 DUP2 MLOAD DUP2 LT PUSH2 0x1430 JUMPI PUSH32 0x4E487B7100000000000000000000000000000000000000000000000000000000 PUSH1 0x0 MSTORE PUSH1 0x32 PUSH1 0x4 MSTORE PUSH1 0x24 PUSH1 0x0 REVERT JUMPDEST PUSH1 0x20 MUL PUSH1 0x20 ADD ADD MLOAD PUSH2 0x1140 JUMP JUMPDEST ISZERO ISZERO EQ ISZERO PUSH2 0x1454 JUMPI DUP2 DUP1 PUSH2 0x1450 SWAP1 PUSH2 0x2810 JUMP JUMPDEST SWAP3 POP POP JUMPDEST DUP1 DUP1 PUSH2 0x145F SWAP1 PUSH2 0x2810 JUMP JUMPDEST SWAP2 POP POP PUSH2 0x13E7 JUMP JUMPDEST POP PUSH1 0x1 PUSH1 0x3 DUP2 GT ISZERO PUSH2 0x14A2 JUMPI PUSH32 0x4E487B7100000000000000000000000000000000000000000000000000000000 PUSH1 0x0 MSTORE PUSH1 0x21 PUSH1 0x4 MSTORE PUSH1 0x24 PUSH1 0x0 REVERT JUMPDEST DUP3 PUSH1 0x3 DUP2 GT ISZERO PUSH2 0x14DB JUMPI PUSH32 0x4E487B7100000000000000000000000000000000000000000000000000000000 PUSH1 0x0 MSTORE PUSH1 0x21 PUSH1 0x4 MSTORE PUSH1 0x24 PUSH1 0x0 REVERT JUMPDEST EQ ISZERO PUSH2 0x14F4 JUMPI DUP3 MLOAD DUP2 EQ ISZERO PUSH2 0x14EF JUMPI PUSH1 0x1 SWAP5 POP JUMPDEST PUSH2 0x160A JUMP JUMPDEST PUSH1 0x2 PUSH1 0x3 DUP2 GT ISZERO PUSH2 0x152E JUMPI PUSH32 0x4E487B7100000000000000000000000000000000000000000000000000000000 PUSH1 0x0 MSTORE PUSH1 0x21 PUSH1 0x4 MSTORE PUSH1 0x24 PUSH1 0x0 REVERT JUMPDEST DUP3 PUSH1 0x3 DUP2 GT ISZERO PUSH2 0x1567 JUMPI PUSH32 0x4E487B7100000000000000000000000000000000000000000000000000000000 PUSH1 0x0 MSTORE PUSH1 0x21 PUSH1 0x4 MSTORE PUSH1 0x24 PUSH1 0x0 REVERT JUMPDEST EQ ISZERO PUSH2 0x1576 JUMPI PUSH1 0x1 SWAP5 POP PUSH2 0x1609 JUMP JUMPDEST PUSH1 0x3 DUP1 DUP2 GT ISZERO PUSH2 0x15AF JUMPI PUSH32 0x4E487B7100000000000000000000000000000000000000000000000000000000 PUSH1 0x0 MSTORE PUSH1 0x21 PUSH1 0x4 MSTORE PUSH1 0x24 PUSH1 0x0 REVERT JUMPDEST DUP3 PUSH1 0x3 DUP2 GT ISZERO PUSH2 0x15E8 JUMPI PUSH32 0x4E487B7100000000000000000000000000000000000000000000000000000000 PUSH1 0x0 MSTORE PUSH1 0x21 PUSH1 0x4 MSTORE PUSH1 0x24 PUSH1 0x0 REVERT JUMPDEST EQ ISZERO PUSH2 0x1608 JUMPI PUSH1 0x1 DUP2 EQ DUP1 PUSH2 0x15FD JUMPI POP PUSH1 0x2 DUP2 EQ JUMPDEST ISZERO PUSH2 0x1607 JUMPI PUSH1 0x1 SWAP5 POP JUMPDEST JUMPDEST JUMPDEST JUMPDEST POP JUMPDEST POP JUMPDEST DUP3 ISZERO PUSH2 0x16F4 JUMPI PUSH1 0x1 PUSH1 0x0 DUP1 DUP7 DUP2 MSTORE PUSH1 0x20 ADD SWAP1 DUP2 MSTORE PUSH1 0x20 ADD PUSH1 0x0 KECCAK256 PUSH1 0x1 ADD PUSH1 0x14 PUSH2 0x100 EXP DUP2 SLOAD DUP2 PUSH1 0xFF MUL NOT AND SWAP1 DUP4 ISZERO ISZERO MUL OR SWAP1 SSTORE POP PUSH1 0x3 DUP5 SWAP1 DUP1 PUSH1 0x1 DUP2 SLOAD ADD DUP1 DUP3 SSTORE DUP1 SWAP2 POP POP PUSH1 0x1 SWAP1 SUB SWAP1 PUSH1 0x0 MSTORE PUSH1 0x20 PUSH1 0x0 KECCAK256 ADD PUSH1 0x0 SWAP1 SWAP2 SWAP1 SWAP2 SWAP1 SWAP2 POP SSTORE PUSH1 0x4 PUSH1 0x0 DUP1 DUP7 DUP2 MSTORE PUSH1 0x20 ADD SWAP1 DUP2 MSTORE PUSH1 0x20 ADD PUSH1 0x0 KECCAK256 PUSH1 0x0 ADD SWAP1 DUP1 PUSH1 0x1 DUP2 SLOAD ADD DUP1 DUP3 SSTORE DUP1 SWAP2 POP POP PUSH1 0x1 SWAP1 SUB SWAP1 PUSH1 0x0 MSTORE PUSH1 0x20 PUSH1 0x0 KECCAK256 ADD PUSH1 0x0 SWAP1 SWAP2 SWAP1 SWAP2 SWAP1 SWAP2 POP SWAP1 DUP1 SLOAD PUSH2 0x16B3 SWAP1 PUSH2 0x27DE JUMP JUMPDEST PUSH2 0x16BE SWAP3 SWAP2 SWAP1 PUSH2 0x1892 JUMP JUMPDEST POP PUSH1 0x1 ISZERO ISZERO PUSH32 0xACD30B4F9FD5868793E13FFB506F03374A23D9FEBA1249AC2CC7B0FE024FF4BA PUSH1 0x40 MLOAD PUSH1 0x40 MLOAD DUP1 SWAP2 SUB SWAP1 LOG2 PUSH2 0x1725 JUMP JUMPDEST PUSH1 0x0 ISZERO ISZERO PUSH32 0xACD30B4F9FD5868793E13FFB506F03374A23D9FEBA1249AC2CC7B0FE024FF4BA PUSH1 0x40 MLOAD PUSH1 0x40 MLOAD DUP1 SWAP2 SUB SWAP1 LOG2 JUMPDEST POP POP SWAP2 SWAP1 POP JUMP JUMPDEST PUSH1 0x40 MLOAD DUP1 PUSH1 0xE0 ADD PUSH1 0x40 MSTORE DUP1 PUSH1 0x60 DUP2 MSTORE PUSH1 0x20 ADD PUSH1 0x0 PUSH20 0xFFFFFFFFFFFFFFFFFFFFFFFFFFFFFFFFFFFFFFFF AND DUP2 MSTORE PUSH1 0x20 ADD PUSH1 0x0 ISZERO ISZERO DUP2 MSTORE PUSH1 0x20 ADD PUSH1 0x0 PUSH1 0x3 DUP2 GT ISZERO PUSH2 0x179E JUMPI PUSH32 0x4E487B7100000000000000000000000000000000000000000000000000000000 PUSH1 0x0 MSTORE PUSH1 0x21 PUSH1 0x4 MSTORE PUSH1 0x24 PUSH1 0x0 REVERT JUMPDEST DUP2 MSTORE PUSH1 0x20 ADD PUSH1 0x60 DUP2 MSTORE PUSH1 0x20 ADD PUSH1 0x60 DUP2 MSTORE PUSH1 0x20 ADD PUSH2 0x17B9 PUSH2 0x191F JUMP JUMPDEST DUP2 MSTORE POP SWAP1 JUMP JUMPDEST DUP3 DUP1 SLOAD PUSH2 0x17CB SWAP1 PUSH2 0x27DE JUMP JUMPDEST SWAP1 PUSH1 0x0 MSTORE PUSH1 0x20 PUSH1 0x0 KECCAK256 SWAP1 PUSH1 0x1F ADD PUSH1 0x20 SWAP1 DIV DUP2 ADD SWAP3 DUP3 PUSH2 0x17ED JUMPI PUSH1 0x0 DUP6 SSTORE PUSH2 0x1834 JUMP JUMPDEST DUP3 PUSH1 0x1F LT PUSH2 0x1806 JUMPI DUP1 MLOAD PUSH1 0xFF NOT AND DUP4 DUP1 ADD OR DUP6 SSTORE PUSH2 0x1834 JUMP JUMPDEST DUP3 DUP1 ADD PUSH1 0x1 ADD DUP6 SSTORE DUP3 ISZERO PUSH2 0x1834 JUMPI SWAP2 DUP3 ADD JUMPDEST DUP3 DUP2 GT ISZERO PUSH2 0x1833 JUMPI DUP3 MLOAD DUP3 SSTORE SWAP2 PUSH1 0x20 ADD SWAP2 SWAP1 PUSH1 0x1 ADD SWAP1 PUSH2 0x1818 JUMP JUMPDEST JUMPDEST POP SWAP1 POP PUSH2 0x1841 SWAP2 SWAP1 PUSH2 0x1A1C JUMP JUMPDEST POP SWAP1 JUMP JUMPDEST DUP3 DUP1 SLOAD DUP3 DUP3 SSTORE SWAP1 PUSH1 0x0 MSTORE PUSH1 0x20 PUSH1 0x0 KECCAK256 SWAP1 DUP2 ADD SWAP3 DUP3 ISZERO PUSH2 0x1881 JUMPI SWAP2 PUSH1 0x20 MUL DUP3 ADD JUMPDEST DUP3 DUP2 GT ISZERO PUSH2 0x1880 JUMPI DUP3 MLOAD DUP3 SSTORE SWAP2 PUSH1 0x20 ADD SWAP2 SWAP1 PUSH1 0x1 ADD SWAP1 PUSH2 0x1865 JUMP JUMPDEST JUMPDEST POP SWAP1 POP PUSH2 0x188E SWAP2 SWAP1 PUSH2 0x1A1C JUMP JUMPDEST POP SWAP1 JUMP JUMPDEST DUP3 DUP1 SLOAD PUSH2 0x189E SWAP1 PUSH2 0x27DE JUMP JUMPDEST SWAP1 PUSH1 0x0 MSTORE PUSH1 0x20 PUSH1 0x0 KECCAK256 SWAP1 PUSH1 0x1F ADD PUSH1 0x20 SWAP1 DIV DUP2 ADD SWAP3 DUP3 PUSH2 0x18C0 JUMPI PUSH1 0x0 DUP6 SSTORE PUSH2 0x190E JUMP JUMPDEST DUP3 PUSH1 0x1F LT PUSH2 0x18D1 JUMPI DUP1 SLOAD DUP6 SSTORE PUSH2 0x190E JUMP JUMPDEST DUP3 DUP1 ADD PUSH1 0x1 ADD DUP6 SSTORE DUP3 ISZERO PUSH2 0x190E JUMPI PUSH1 0x0 MSTORE PUSH1 0x20 PUSH1 0x0 KECCAK256 SWAP2 PUSH1 0x1F ADD PUSH1 0x20 SWAP1 DIV DUP3 ADD JUMPDEST DUP3 DUP2 GT ISZERO PUSH2 0x190D JUMPI DUP3 SLOAD DUP3 SSTORE SWAP2 PUSH1 0x1 ADD SWAP2 SWAP1 PUSH1 0x1 ADD SWAP1 PUSH2 0x18F2 JUMP JUMPDEST JUMPDEST POP SWAP1 POP PUSH2 0x191B SWAP2 SWAP1 PUSH2 0x1A1C JUMP JUMPDEST POP SWAP1 JUMP JUMPDEST PUSH1 0x40 MLOAD DUP1 PUSH2 0x100 ADD PUSH1 0x40 MSTORE DUP1 PUSH1 0x0 DUP2 MSTORE PUSH1 0x20 ADD PUSH1 0x0 PUSH1 0x3 DUP2 GT ISZERO PUSH2 0x196C JUMPI PUSH32 0x4E487B7100000000000000000000000000000000000000000000000000000000 PUSH1 0x0 MSTORE PUSH1 0x21 PUSH1 0x4 MSTORE PUSH1 0x24 PUSH1 0x0 REVERT JUMPDEST DUP2 MSTORE PUSH1 0x20 ADD PUSH1 0x0 PUSH1 0x2 DUP2 GT ISZERO PUSH2 0x19AB JUMPI PUSH32 0x4E487B7100000000000000000000000000000000000000000000000000000000 PUSH1 0x0 MSTORE PUSH1 0x21 PUSH1 0x4 MSTORE PUSH1 0x24 PUSH1 0x0 REVERT JUMPDEST DUP2 MSTORE PUSH1 0x20 ADD PUSH1 0x0 ISZERO ISZERO DUP2 MSTORE PUSH1 0x20 ADD PUSH1 0x0 ISZERO ISZERO DUP2 MSTORE PUSH1 0x20 ADD PUSH1 0x0 PUSH1 0x6 DUP2 GT ISZERO PUSH2 0x19FC JUMPI PUSH32 0x4E487B7100000000000000000000000000000000000000000000000000000000 PUSH1 0x0 MSTORE PUSH1 0x21 PUSH1 0x4 MSTORE PUSH1 0x24 PUSH1 0x0 REVERT JUMPDEST DUP2 MSTORE PUSH1 0x20 ADD PUSH2 0x1A09 PUSH2 0x1A39 JUMP JUMPDEST DUP2 MSTORE PUSH1 0x20 ADD PUSH2 0x1A16 PUSH2 0x1A53 JUMP JUMPDEST DUP2 MSTORE POP SWAP1 JUMP JUMPDEST JUMPDEST DUP1 DUP3 GT ISZERO PUSH2 0x1A35 JUMPI PUSH1 0x0 DUP2 PUSH1 0x0 SWAP1 SSTORE POP PUSH1 0x1 ADD PUSH2 0x1A1D JUMP JUMPDEST POP SWAP1 JUMP JUMPDEST PUSH1 0x40 MLOAD DUP1 PUSH1 0x40 ADD PUSH1 0x40 MSTORE DUP1 PUSH1 0x0 DUP2 MSTORE PUSH1 0x20 ADD PUSH1 0x60 DUP2 MSTORE POP SWAP1 JUMP JUMPDEST PUSH1 0x40 MLOAD DUP1 PUSH1 0x40 ADD PUSH1 0x40 MSTORE DUP1 PUSH1 0x0 DUP2 MSTORE PUSH1 0x20 ADD PUSH1 0x60 DUP2 MSTORE POP SWAP1 JUMP JUMPDEST PUSH1 0x0 PUSH2 0x1A80 PUSH2 0x1A7B DUP5 PUSH2 0x2593 JUMP JUMPDEST PUSH2 0x2562 JUMP JUMPDEST SWAP1 POP DUP1 DUP4 DUP3 MSTORE PUSH1 0x20 DUP3 ADD SWAP1 POP DUP3 DUP6 PUSH1 0x20 DUP7 MUL DUP3 ADD GT ISZERO PUSH2 0x1A9F JUMPI PUSH1 0x0 DUP1 REVERT JUMPDEST PUSH1 0x0 JUMPDEST DUP6 DUP2 LT ISZERO PUSH2 0x1ACF JUMPI DUP2 PUSH2 0x1AB5 DUP9 DUP3 PUSH2 0x1DA7 JUMP JUMPDEST DUP5 MSTORE PUSH1 0x20 DUP5 ADD SWAP4 POP PUSH1 0x20 DUP4 ADD SWAP3 POP POP PUSH1 0x1 DUP2 ADD SWAP1 POP PUSH2 0x1AA2 JUMP JUMPDEST POP POP POP SWAP4 SWAP3 POP POP POP JUMP JUMPDEST PUSH1 0x0 PUSH2 0x1AEC PUSH2 0x1AE7 DUP5 PUSH2 0x25BF JUMP JUMPDEST PUSH2 0x2562 JUMP JUMPDEST SWAP1 POP DUP3 DUP2 MSTORE PUSH1 0x20 DUP2 ADD DUP5 DUP5 DUP5 ADD GT ISZERO PUSH2 0x1B04 JUMPI PUSH1 0x0 DUP1 REVERT JUMPDEST PUSH2 0x1B0F DUP5 DUP3 DUP6 PUSH2 0x279C JUMP JUMPDEST POP SWAP4 SWAP3 POP POP POP JUMP JUMPDEST PUSH1 0x0 DUP2 CALLDATALOAD SWAP1 POP PUSH2 0x1B26 DUP2 PUSH2 0x294E JUMP JUMPDEST SWAP3 SWAP2 POP POP JUMP JUMPDEST PUSH1 0x0 DUP3 PUSH1 0x1F DUP4 ADD SLT PUSH2 0x1B3D JUMPI PUSH1 0x0 DUP1 REVERT JUMPDEST DUP2 CALLDATALOAD PUSH2 0x1B4D DUP5 DUP3 PUSH1 0x20 DUP7 ADD PUSH2 0x1A6D JUMP JUMPDEST SWAP2 POP POP SWAP3 SWAP2 POP POP JUMP JUMPDEST PUSH1 0x0 DUP2 CALLDATALOAD SWAP1 POP PUSH2 0x1B65 DUP2 PUSH2 0x2965 JUMP JUMPDEST SWAP3 SWAP2 POP POP JUMP JUMPDEST PUSH1 0x0 DUP2 MLOAD SWAP1 POP PUSH2 0x1B7A DUP2 PUSH2 0x2965 JUMP JUMPDEST SWAP3 SWAP2 POP POP JUMP JUMPDEST PUSH1 0x0 DUP2 CALLDATALOAD SWAP1 POP PUSH2 0x1B8F DUP2 PUSH2 0x297C JUMP JUMPDEST SWAP3 SWAP2 POP POP JUMP JUMPDEST PUSH1 0x0 DUP2 CALLDATALOAD SWAP1 POP PUSH2 0x1BA4 DUP2 PUSH2 0x298C JUMP JUMPDEST SWAP3 SWAP2 POP POP JUMP JUMPDEST PUSH1 0x0 DUP2 CALLDATALOAD SWAP1 POP PUSH2 0x1BB9 DUP2 PUSH2 0x299C JUMP JUMPDEST SWAP3 SWAP2 POP POP JUMP JUMPDEST PUSH1 0x0 DUP3 PUSH1 0x1F DUP4 ADD SLT PUSH2 0x1BD0 JUMPI PUSH1 0x0 DUP1 REVERT JUMPDEST DUP2 CALLDATALOAD PUSH2 0x1BE0 DUP5 DUP3 PUSH1 0x20 DUP7 ADD PUSH2 0x1AD9 JUMP JUMPDEST SWAP2 POP POP SWAP3 SWAP2 POP POP JUMP JUMPDEST PUSH1 0x0 PUSH2 0x100 DUP3 DUP5 SUB SLT ISZERO PUSH2 0x1BFC JUMPI PUSH1 0x0 DUP1 REVERT JUMPDEST PUSH2 0x1C07 PUSH2 0x100 PUSH2 0x2562 JUMP JUMPDEST SWAP1 POP PUSH1 0x0 PUSH2 0x1C17 DUP5 DUP3 DUP6 ADD PUSH2 0x1DA7 JUMP JUMPDEST PUSH1 0x0 DUP4 ADD MSTORE POP PUSH1 0x20 PUSH2 0x1C2B DUP5 DUP3 DUP6 ADD PUSH2 0x1B95 JUMP JUMPDEST PUSH1 0x20 DUP4 ADD MSTORE POP PUSH1 0x40 PUSH2 0x1C3F DUP5 DUP3 DUP6 ADD PUSH2 0x1B80 JUMP JUMPDEST PUSH1 0x40 DUP4 ADD MSTORE POP PUSH1 0x60 PUSH2 0x1C53 DUP5 DUP3 DUP6 ADD PUSH2 0x1B56 JUMP JUMPDEST PUSH1 0x60 DUP4 ADD MSTORE POP PUSH1 0x80 PUSH2 0x1C67 DUP5 DUP3 DUP6 ADD PUSH2 0x1B56 JUMP JUMPDEST PUSH1 0x80 DUP4 ADD MSTORE POP PUSH1 0xA0 PUSH2 0x1C7B DUP5 DUP3 DUP6 ADD PUSH2 0x1BAA JUMP JUMPDEST PUSH1 0xA0 DUP4 ADD MSTORE POP PUSH1 0xC0 DUP3 ADD CALLDATALOAD PUSH8 0xFFFFFFFFFFFFFFFF DUP2 GT ISZERO PUSH2 0x1C9B JUMPI PUSH1 0x0 DUP1 REVERT JUMPDEST PUSH2 0x1CA7 DUP5 DUP3 DUP6 ADD PUSH2 0x1CDF JUMP JUMPDEST PUSH1 0xC0 DUP4 ADD MSTORE POP PUSH1 0xE0 DUP3 ADD CALLDATALOAD PUSH8 0xFFFFFFFFFFFFFFFF DUP2 GT ISZERO PUSH2 0x1CC7 JUMPI PUSH1 0x0 DUP1 REVERT JUMPDEST PUSH2 0x1CD3 DUP5 DUP3 DUP6 ADD PUSH2 0x1D43 JUMP JUMPDEST PUSH1 0xE0 DUP4 ADD MSTORE POP SWAP3 SWAP2 POP POP JUMP JUMPDEST PUSH1 0x0 PUSH1 0x40 DUP3 DUP5 SUB SLT ISZERO PUSH2 0x1CF1 JUMPI PUSH1 0x0 DUP1 REVERT JUMPDEST PUSH2 0x1CFB PUSH1 0x40 PUSH2 0x2562 JUMP JUMPDEST SWAP1 POP PUSH1 0x0 PUSH2 0x1D0B DUP5 DUP3 DUP6 ADD PUSH2 0x1DA7 JUMP JUMPDEST PUSH1 0x0 DUP4 ADD MSTORE POP PUSH1 0x20 DUP3 ADD CALLDATALOAD PUSH8 0xFFFFFFFFFFFFFFFF DUP2 GT ISZERO PUSH2 0x1D2B JUMPI PUSH1 0x0 DUP1 REVERT JUMPDEST PUSH2 0x1D37 DUP5 DUP3 DUP6 ADD PUSH2 0x1B2C JUMP JUMPDEST PUSH1 0x20 DUP4 ADD MSTORE POP SWAP3 SWAP2 POP POP JUMP JUMPDEST PUSH1 0x0 PUSH1 0x40 DUP3 DUP5 SUB SLT ISZERO PUSH2 0x1D55 JUMPI PUSH1 0x0 DUP1 REVERT JUMPDEST PUSH2 0x1D5F PUSH1 0x40 PUSH2 0x2562 JUMP JUMPDEST SWAP1 POP PUSH1 0x0 PUSH2 0x1D6F DUP5 DUP3 DUP6 ADD PUSH2 0x1DA7 JUMP JUMPDEST PUSH1 0x0 DUP4 ADD MSTORE POP PUSH1 0x20 DUP3 ADD CALLDATALOAD PUSH8 0xFFFFFFFFFFFFFFFF DUP2 GT ISZERO PUSH2 0x1D8F JUMPI PUSH1 0x0 DUP1 REVERT JUMPDEST PUSH2 0x1D9B DUP5 DUP3 DUP6 ADD PUSH2 0x1BBF JUMP JUMPDEST PUSH1 0x20 DUP4 ADD MSTORE POP SWAP3 SWAP2 POP POP JUMP JUMPDEST PUSH1 0x0 DUP2 CALLDATALOAD SWAP1 POP PUSH2 0x1DB6 DUP2 PUSH2 0x29AC JUMP JUMPDEST SWAP3 SWAP2 POP POP JUMP JUMPDEST PUSH1 0x0 DUP2 MLOAD SWAP1 POP PUSH2 0x1DCB DUP2 PUSH2 0x29AC JUMP JUMPDEST SWAP3 SWAP2 POP POP JUMP JUMPDEST PUSH1 0x0 PUSH1 0x20 DUP3 DUP5 SUB SLT ISZERO PUSH2 0x1DE3 JUMPI PUSH1 0x0 DUP1 REVERT JUMPDEST PUSH1 0x0 PUSH2 0x1DF1 DUP5 DUP3 DUP6 ADD PUSH2 0x1B6B JUMP JUMPDEST SWAP2 POP POP SWAP3 SWAP2 POP POP JUMP JUMPDEST PUSH1 0x0 PUSH1 0x20 DUP3 DUP5 SUB SLT ISZERO PUSH2 0x1E0C JUMPI PUSH1 0x0 DUP1 REVERT JUMPDEST PUSH1 0x0 PUSH2 0x1E1A DUP5 DUP3 DUP6 ADD PUSH2 0x1DA7 JUMP JUMPDEST SWAP2 POP POP SWAP3 SWAP2 POP POP JUMP JUMPDEST PUSH1 0x0 PUSH1 0x20 DUP3 DUP5 SUB SLT ISZERO PUSH2 0x1E35 JUMPI PUSH1 0x0 DUP1 REVERT JUMPDEST PUSH1 0x0 PUSH2 0x1E43 DUP5 DUP3 DUP6 ADD PUSH2 0x1DBC JUMP JUMPDEST SWAP2 POP POP SWAP3 SWAP2 POP POP JUMP JUMPDEST PUSH1 0x0 DUP1 PUSH1 0x0 PUSH1 0x60 DUP5 DUP7 SUB SLT ISZERO PUSH2 0x1E61 JUMPI PUSH1 0x0 DUP1 REVERT JUMPDEST PUSH1 0x0 PUSH2 0x1E6F DUP7 DUP3 DUP8 ADD PUSH2 0x1DA7 JUMP JUMPDEST SWAP4 POP POP PUSH1 0x20 DUP5 ADD CALLDATALOAD PUSH8 0xFFFFFFFFFFFFFFFF DUP2 GT ISZERO PUSH2 0x1E8C JUMPI PUSH1 0x0 DUP1 REVERT JUMPDEST PUSH2 0x1E98 DUP7 DUP3 DUP8 ADD PUSH2 0x1B2C JUMP JUMPDEST SWAP3 POP POP PUSH1 0x40 PUSH2 0x1EA9 DUP7 DUP3 DUP8 ADD PUSH2 0x1BAA JUMP JUMPDEST SWAP2 POP POP SWAP3 POP SWAP3 POP SWAP3 JUMP JUMPDEST PUSH1 0x0 DUP1 PUSH1 0x0 DUP1 PUSH1 0x0 PUSH1 0xA0 DUP7 DUP9 SUB SLT ISZERO PUSH2 0x1ECB JUMPI PUSH1 0x0 DUP1 REVERT JUMPDEST PUSH1 0x0 PUSH2 0x1ED9 DUP9 DUP3 DUP10 ADD PUSH2 0x1DA7 JUMP JUMPDEST SWAP6 POP POP PUSH1 0x20 PUSH2 0x1EEA DUP9 DUP3 DUP10 ADD PUSH2 0x1B95 JUMP JUMPDEST SWAP5 POP POP PUSH1 0x40 PUSH2 0x1EFB DUP9 DUP3 DUP10 ADD PUSH2 0x1B80 JUMP JUMPDEST SWAP4 POP POP PUSH1 0x60 PUSH2 0x1F0C DUP9 DUP3 DUP10 ADD PUSH2 0x1BAA JUMP JUMPDEST SWAP3 POP POP PUSH1 0x80 DUP7 ADD CALLDATALOAD PUSH8 0xFFFFFFFFFFFFFFFF DUP2 GT ISZERO PUSH2 0x1F29 JUMPI PUSH1 0x0 DUP1 REVERT JUMPDEST PUSH2 0x1F35 DUP9 DUP3 DUP10 ADD PUSH2 0x1CDF JUMP JUMPDEST SWAP2 POP POP SWAP3 SWAP6 POP SWAP3 SWAP6 SWAP1 SWAP4 POP JUMP JUMPDEST PUSH1 0x0 DUP1 PUSH1 0x0 DUP1 PUSH1 0x0 DUP1 PUSH1 0xC0 DUP8 DUP10 SUB SLT ISZERO PUSH2 0x1F5B JUMPI PUSH1 0x0 DUP1 REVERT JUMPDEST PUSH1 0x0 PUSH2 0x1F69 DUP10 DUP3 DUP11 ADD PUSH2 0x1DA7 JUMP JUMPDEST SWAP7 POP POP PUSH1 0x20 DUP8 ADD CALLDATALOAD PUSH8 0xFFFFFFFFFFFFFFFF DUP2 GT ISZERO PUSH2 0x1F86 JUMPI PUSH1 0x0 DUP1 REVERT JUMPDEST PUSH2 0x1F92 DUP10 DUP3 DUP11 ADD PUSH2 0x1BBF JUMP JUMPDEST SWAP6 POP POP PUSH1 0x40 PUSH2 0x1FA3 DUP10 DUP3 DUP11 ADD PUSH2 0x1B17 JUMP JUMPDEST SWAP5 POP POP PUSH1 0x60 PUSH2 0x1FB4 DUP10 DUP3 DUP11 ADD PUSH2 0x1B95 JUMP JUMPDEST SWAP4 POP POP PUSH1 0x80 DUP8 ADD CALLDATALOAD PUSH8 0xFFFFFFFFFFFFFFFF DUP2 GT ISZERO PUSH2 0x1FD1 JUMPI PUSH1 0x0 DUP1 REVERT JUMPDEST PUSH2 0x1FDD DUP10 DUP3 DUP11 ADD PUSH2 0x1B2C JUMP JUMPDEST SWAP3 POP POP PUSH1 0xA0 DUP8 ADD CALLDATALOAD PUSH8 0xFFFFFFFFFFFFFFFF DUP2 GT ISZERO PUSH2 0x1FFA JUMPI PUSH1 0x0 DUP1 REVERT JUMPDEST PUSH2 0x2006 DUP10 DUP3 DUP11 ADD PUSH2 0x1B2C JUMP JUMPDEST SWAP2 POP POP SWAP3 SWAP6 POP SWAP3 SWAP6 POP SWAP3 SWAP6 JUMP JUMPDEST PUSH1 0x0 DUP1 PUSH1 0x0 DUP1 PUSH1 0x0 DUP1 PUSH1 0x0 PUSH1 0xE0 DUP9 DUP11 SUB SLT ISZERO PUSH2 0x202E JUMPI PUSH1 0x0 DUP1 REVERT JUMPDEST PUSH1 0x0 PUSH2 0x203C DUP11 DUP3 DUP12 ADD PUSH2 0x1DA7 JUMP JUMPDEST SWAP8 POP POP PUSH1 0x20 DUP9 ADD CALLDATALOAD PUSH8 0xFFFFFFFFFFFFFFFF DUP2 GT ISZERO PUSH2 0x2059 JUMPI PUSH1 0x0 DUP1 REVERT JUMPDEST PUSH2 0x2065 DUP11 DUP3 DUP12 ADD PUSH2 0x1BBF JUMP JUMPDEST SWAP7 POP POP PUSH1 0x40 PUSH2 0x2076 DUP11 DUP3 DUP12 ADD PUSH2 0x1B17 JUMP JUMPDEST SWAP6 POP POP PUSH1 0x60 PUSH2 0x2087 DUP11 DUP3 DUP12 ADD PUSH2 0x1B95 JUMP JUMPDEST SWAP5 POP POP PUSH1 0x80 DUP9 ADD CALLDATALOAD PUSH8 0xFFFFFFFFFFFFFFFF DUP2 GT ISZERO PUSH2 0x20A4 JUMPI PUSH1 0x0 DUP1 REVERT JUMPDEST PUSH2 0x20B0 DUP11 DUP3 DUP12 ADD PUSH2 0x1B2C JUMP JUMPDEST SWAP4 POP POP PUSH1 0xA0 DUP9 ADD CALLDATALOAD PUSH8 0xFFFFFFFFFFFFFFFF DUP2 GT ISZERO PUSH2 0x20CD JUMPI PUSH1 0x0 DUP1 REVERT JUMPDEST PUSH2 0x20D9 DUP11 DUP3 DUP12 ADD PUSH2 0x1B2C JUMP JUMPDEST SWAP3 POP POP PUSH1 0xC0 DUP9 ADD CALLDATALOAD PUSH8 0xFFFFFFFFFFFFFFFF DUP2 GT ISZERO PUSH2 0x20F6 JUMPI PUSH1 0x0 DUP1 REVERT JUMPDEST PUSH2 0x2102 DUP11 DUP3 DUP12 ADD PUSH2 0x1BE9 JUMP JUMPDEST SWAP2 POP POP SWAP3 SWAP6 SWAP9 SWAP2 SWAP5 SWAP8 POP SWAP3 SWAP6 POP JUMP JUMPDEST PUSH1 0x0 PUSH2 0x211D DUP4 DUP4 PUSH2 0x22C2 JUMP JUMPDEST SWAP1 POP SWAP3 SWAP2 POP POP JUMP JUMPDEST PUSH1 0x0 PUSH2 0x2131 DUP4 DUP4 PUSH2 0x23B4 JUMP JUMPDEST PUSH1 0x20 DUP4 ADD SWAP1 POP SWAP3 SWAP2 POP POP JUMP JUMPDEST PUSH1 0x0 PUSH2 0x2149 DUP4 DUP4 PUSH2 0x23E1 JUMP JUMPDEST PUSH1 0x20 DUP4 ADD SWAP1 POP SWAP3 SWAP2 POP POP JUMP JUMPDEST PUSH2 0x215E DUP2 PUSH2 0x270A JUMP JUMPDEST DUP3 MSTORE POP POP JUMP JUMPDEST PUSH1 0x0 PUSH2 0x216F DUP3 PUSH2 0x2624 JUMP JUMPDEST PUSH2 0x2179 DUP2 DUP6 PUSH2 0x265F JUMP JUMPDEST SWAP4 POP DUP4 PUSH1 0x20 DUP3 MUL DUP6 ADD PUSH2 0x218B DUP6 PUSH2 0x25EF JUMP JUMPDEST DUP1 PUSH1 0x0 JUMPDEST DUP6 DUP2 LT ISZERO PUSH2 0x21C7 JUMPI DUP5 DUP5 SUB DUP10 MSTORE DUP2 MLOAD PUSH2 0x21A8 DUP6 DUP3 PUSH2 0x2111 JUMP JUMPDEST SWAP5 POP PUSH2 0x21B3 DUP4 PUSH2 0x2645 JUMP JUMPDEST SWAP3 POP PUSH1 0x20 DUP11 ADD SWAP10 POP POP PUSH1 0x1 DUP2 ADD SWAP1 POP PUSH2 0x218F JUMP JUMPDEST POP DUP3 SWAP8 POP DUP8 SWAP6 POP POP POP POP POP POP SWAP3 SWAP2 POP POP JUMP JUMPDEST PUSH1 0x0 PUSH2 0x21E4 DUP3 PUSH2 0x262F JUMP JUMPDEST PUSH2 0x21EE DUP2 DUP6 PUSH2 0x2670 JUMP JUMPDEST SWAP4 POP PUSH2 0x21F9 DUP4 PUSH2 0x25FF JUMP JUMPDEST DUP1 PUSH1 0x0 JUMPDEST DUP4 DUP2 LT ISZERO PUSH2 0x222A JUMPI DUP2 MLOAD PUSH2 0x2211 DUP9 DUP3 PUSH2 0x2125 JUMP JUMPDEST SWAP8 POP PUSH2 0x221C DUP4 PUSH2 0x2652 JUMP JUMPDEST SWAP3 POP POP PUSH1 0x1 DUP2 ADD SWAP1 POP PUSH2 0x21FD JUMP JUMPDEST POP DUP6 SWAP4 POP POP POP POP SWAP3 SWAP2 POP POP JUMP JUMPDEST PUSH1 0x0 PUSH2 0x2242 DUP3 PUSH2 0x262F JUMP JUMPDEST PUSH2 0x224C DUP2 DUP6 PUSH2 0x2681 JUMP JUMPDEST SWAP4 POP PUSH2 0x2257 DUP4 PUSH2 0x25FF JUMP JUMPDEST DUP1 PUSH1 0x0 JUMPDEST DUP4 DUP2 LT ISZERO PUSH2 0x2288 JUMPI DUP2 MLOAD PUSH2 0x226F DUP9 DUP3 PUSH2 0x213D JUMP JUMPDEST SWAP8 POP PUSH2 0x227A DUP4 PUSH2 0x2652 JUMP JUMPDEST SWAP3 POP POP PUSH1 0x1 DUP2 ADD SWAP1 POP PUSH2 0x225B JUMP JUMPDEST POP DUP6 SWAP4 POP POP POP POP SWAP3 SWAP2 POP POP JUMP JUMPDEST PUSH2 0x229E DUP2 PUSH2 0x271C JUMP JUMPDEST DUP3 MSTORE POP POP JUMP JUMPDEST PUSH2 0x22AD DUP2 PUSH2 0x2778 JUMP JUMPDEST DUP3 MSTORE POP POP JUMP JUMPDEST PUSH2 0x22BC DUP2 PUSH2 0x278A JUMP JUMPDEST DUP3 MSTORE POP POP JUMP JUMPDEST PUSH1 0x0 PUSH2 0x22CD DUP3 PUSH2 0x263A JUMP JUMPDEST PUSH2 0x22D7 DUP2 DUP6 PUSH2 0x2692 JUMP JUMPDEST SWAP4 POP PUSH2 0x22E7 DUP2 DUP6 PUSH1 0x20 DUP7 ADD PUSH2 0x27AB JUMP JUMPDEST PUSH2 0x22F0 DUP2 PUSH2 0x2915 JUMP JUMPDEST DUP5 ADD SWAP2 POP POP SWAP3 SWAP2 POP POP JUMP JUMPDEST PUSH1 0x0 PUSH2 0x2306 DUP3 PUSH2 0x263A JUMP JUMPDEST PUSH2 0x2310 DUP2 DUP6 PUSH2 0x26A3 JUMP JUMPDEST SWAP4 POP PUSH2 0x2320 DUP2 DUP6 PUSH1 0x20 DUP7 ADD PUSH2 0x27AB JUMP JUMPDEST PUSH2 0x2329 DUP2 PUSH2 0x2915 JUMP JUMPDEST DUP5 ADD SWAP2 POP POP SWAP3 SWAP2 POP POP JUMP JUMPDEST PUSH1 0x0 DUP2 SLOAD PUSH2 0x2341 DUP2 PUSH2 0x27DE JUMP JUMPDEST PUSH2 0x234B DUP2 DUP7 PUSH2 0x26A3 JUMP JUMPDEST SWAP5 POP PUSH1 0x1 DUP3 AND PUSH1 0x0 DUP2 EQ PUSH2 0x2366 JUMPI PUSH1 0x1 DUP2 EQ PUSH2 0x2378 JUMPI PUSH2 0x23AB JUMP JUMPDEST PUSH1 0xFF NOT DUP4 AND DUP7 MSTORE PUSH1 0x20 DUP7 ADD SWAP4 POP PUSH2 0x23AB JUMP JUMPDEST PUSH2 0x2381 DUP6 PUSH2 0x260F JUMP JUMPDEST PUSH1 0x0 JUMPDEST DUP4 DUP2 LT ISZERO PUSH2 0x23A3 JUMPI DUP2 SLOAD DUP2 DUP10 ADD MSTORE PUSH1 0x1 DUP3 ADD SWAP2 POP PUSH1 0x20 DUP2 ADD SWAP1 POP PUSH2 0x2384 JUMP JUMPDEST DUP1 DUP9 ADD SWAP6 POP POP POP JUMPDEST POP POP POP SWAP3 SWAP2 POP POP JUMP JUMPDEST PUSH2 0x23BD DUP2 PUSH2 0x276E JUMP JUMPDEST DUP3 MSTORE POP POP JUMP JUMPDEST PUSH2 0x23CC DUP2 PUSH2 0x276E JUMP JUMPDEST DUP3 MSTORE POP POP JUMP JUMPDEST PUSH2 0x23DB DUP2 PUSH2 0x276E JUMP JUMPDEST DUP3 MSTORE POP POP JUMP JUMPDEST PUSH2 0x23EA DUP2 PUSH2 0x276E JUMP JUMPDEST DUP3 MSTORE POP POP JUMP JUMPDEST PUSH1 0x0 PUSH1 0x20 DUP3 ADD SWAP1 POP DUP2 DUP2 SUB PUSH1 0x0 DUP4 ADD MSTORE PUSH2 0x240A DUP2 DUP5 PUSH2 0x2164 JUMP JUMPDEST SWAP1 POP SWAP3 SWAP2 POP POP JUMP JUMPDEST PUSH1 0x0 PUSH1 0x20 DUP3 ADD SWAP1 POP DUP2 DUP2 SUB PUSH1 0x0 DUP4 ADD MSTORE PUSH2 0x242C DUP2 DUP5 PUSH2 0x21D9 JUMP JUMPDEST SWAP1 POP SWAP3 SWAP2 POP POP JUMP JUMPDEST PUSH1 0x0 PUSH1 0x20 DUP3 ADD SWAP1 POP PUSH2 0x2449 PUSH1 0x0 DUP4 ADD DUP5 PUSH2 0x2295 JUMP JUMPDEST SWAP3 SWAP2 POP POP JUMP JUMPDEST PUSH1 0x0 PUSH1 0xC0 DUP3 ADD SWAP1 POP PUSH2 0x2464 PUSH1 0x0 DUP4 ADD DUP10 PUSH2 0x2295 JUMP JUMPDEST DUP2 DUP2 SUB PUSH1 0x20 DUP4 ADD MSTORE PUSH2 0x2476 DUP2 DUP9 PUSH2 0x22FB JUMP JUMPDEST SWAP1 POP PUSH2 0x2485 PUSH1 0x40 DUP4 ADD DUP8 PUSH2 0x2155 JUMP JUMPDEST PUSH2 0x2492 PUSH1 0x60 DUP4 ADD DUP7 PUSH2 0x22A4 JUMP JUMPDEST DUP2 DUP2 SUB PUSH1 0x80 DUP4 ADD MSTORE PUSH2 0x24A4 DUP2 DUP6 PUSH2 0x21D9 JUMP JUMPDEST SWAP1 POP DUP2 DUP2 SUB PUSH1 0xA0 DUP4 ADD MSTORE PUSH2 0x24B8 DUP2 DUP5 PUSH2 0x21D9 JUMP JUMPDEST SWAP1 POP SWAP8 SWAP7 POP POP POP POP POP POP POP JUMP JUMPDEST PUSH1 0x0 PUSH1 0x20 DUP3 ADD SWAP1 POP DUP2 DUP2 SUB PUSH1 0x0 DUP4 ADD MSTORE PUSH2 0x24DF DUP2 DUP5 PUSH2 0x22FB JUMP JUMPDEST SWAP1 POP SWAP3 SWAP2 POP POP JUMP JUMPDEST PUSH1 0x0 PUSH1 0x20 DUP3 ADD SWAP1 POP DUP2 DUP2 SUB PUSH1 0x0 DUP4 ADD MSTORE PUSH2 0x2501 DUP2 DUP5 PUSH2 0x2334 JUMP JUMPDEST SWAP1 POP SWAP3 SWAP2 POP POP JUMP JUMPDEST PUSH1 0x0 PUSH1 0x20 DUP3 ADD SWAP1 POP PUSH2 0x251E PUSH1 0x0 DUP4 ADD DUP5 PUSH2 0x23C3 JUMP JUMPDEST SWAP3 SWAP2 POP POP JUMP JUMPDEST PUSH1 0x0 PUSH1 0x60 DUP3 ADD SWAP1 POP PUSH2 0x2539 PUSH1 0x0 DUP4 ADD DUP7 PUSH2 0x23D2 JUMP JUMPDEST DUP2 DUP2 SUB PUSH1 0x20 DUP4 ADD MSTORE PUSH2 0x254B DUP2 DUP6 PUSH2 0x2237 JUMP JUMPDEST SWAP1 POP PUSH2 0x255A PUSH1 0x40 DUP4 ADD DUP5 PUSH2 0x22B3 JUMP JUMPDEST SWAP5 SWAP4 POP POP POP POP JUMP JUMPDEST PUSH1 0x0 PUSH1 0x40 MLOAD SWAP1 POP DUP2 DUP2 ADD DUP2 DUP2 LT PUSH8 0xFFFFFFFFFFFFFFFF DUP3 GT OR ISZERO PUSH2 0x2589 JUMPI PUSH2 0x2588 PUSH2 0x28E6 JUMP JUMPDEST JUMPDEST DUP1 PUSH1 0x40 MSTORE POP SWAP2 SWAP1 POP JUMP JUMPDEST PUSH1 0x0 PUSH8 0xFFFFFFFFFFFFFFFF DUP3 GT ISZERO PUSH2 0x25AE JUMPI PUSH2 0x25AD PUSH2 0x28E6 JUMP JUMPDEST JUMPDEST PUSH1 0x20 DUP3 MUL SWAP1 POP PUSH1 0x20 DUP2 ADD SWAP1 POP SWAP2 SWAP1 POP JUMP JUMPDEST PUSH1 0x0 PUSH8 0xFFFFFFFFFFFFFFFF DUP3 GT ISZERO PUSH2 0x25DA JUMPI PUSH2 0x25D9 PUSH2 0x28E6 JUMP JUMPDEST JUMPDEST PUSH1 0x1F NOT PUSH1 0x1F DUP4 ADD AND SWAP1 POP PUSH1 0x20 DUP2 ADD SWAP1 POP SWAP2 SWAP1 POP JUMP JUMPDEST PUSH1 0x0 DUP2 SWAP1 POP PUSH1 0x20 DUP3 ADD SWAP1 POP SWAP2 SWAP1 POP JUMP JUMPDEST PUSH1 0x0 DUP2 SWAP1 POP PUSH1 0x20 DUP3 ADD SWAP1 POP SWAP2 SWAP1 POP JUMP JUMPDEST PUSH1 0x0 DUP2 SWAP1 POP DUP2 PUSH1 0x0 MSTORE PUSH1 0x20 PUSH1 0x0 KECCAK256 SWAP1 POP SWAP2 SWAP1 POP JUMP JUMPDEST PUSH1 0x0 DUP2 MLOAD SWAP1 POP SWAP2 SWAP1 POP JUMP JUMPDEST PUSH1 0x0 DUP2 MLOAD SWAP1 POP SWAP2 SWAP1 POP JUMP JUMPDEST PUSH1 0x0 DUP2 MLOAD SWAP1 POP SWAP2 SWAP1 POP JUMP JUMPDEST PUSH1 0x0 PUSH1 0x20 DUP3 ADD SWAP1 POP SWAP2 SWAP1 POP JUMP JUMPDEST PUSH1 0x0 PUSH1 0x20 DUP3 ADD SWAP1 POP SWAP2 SWAP1 POP JUMP JUMPDEST PUSH1 0x0 DUP3 DUP3 MSTORE PUSH1 0x20 DUP3 ADD SWAP1 POP SWAP3 SWAP2 POP POP JUMP JUMPDEST PUSH1 0x0 DUP3 DUP3 MSTORE PUSH1 0x20 DUP3 ADD SWAP1 POP SWAP3 SWAP2 POP POP JUMP JUMPDEST PUSH1 0x0 DUP3 DUP3 MSTORE PUSH1 0x20 DUP3 ADD SWAP1 POP SWAP3 SWAP2 POP POP JUMP JUMPDEST PUSH1 0x0 DUP3 DUP3 MSTORE PUSH1 0x20 DUP3 ADD SWAP1 POP SWAP3 SWAP2 POP POP JUMP JUMPDEST PUSH1 0x0 DUP3 DUP3 MSTORE PUSH1 0x20 DUP3 ADD SWAP1 POP SWAP3 SWAP2 POP POP JUMP JUMPDEST PUSH1 0x0 PUSH2 0x26BF DUP3 PUSH2 0x276E JUMP JUMPDEST SWAP2 POP PUSH2 0x26CA DUP4 PUSH2 0x276E JUMP JUMPDEST SWAP3 POP DUP3 PUSH32 0xFFFFFFFFFFFFFFFFFFFFFFFFFFFFFFFFFFFFFFFFFFFFFFFFFFFFFFFFFFFFFFFF SUB DUP3 GT ISZERO PUSH2 0x26FF JUMPI PUSH2 0x26FE PUSH2 0x2859 JUMP JUMPDEST JUMPDEST DUP3 DUP3 ADD SWAP1 POP SWAP3 SWAP2 POP POP JUMP JUMPDEST PUSH1 0x0 PUSH2 0x2715 DUP3 PUSH2 0x274E JUMP JUMPDEST SWAP1 POP SWAP2 SWAP1 POP JUMP JUMPDEST PUSH1 0x0 DUP2 ISZERO ISZERO SWAP1 POP SWAP2 SWAP1 POP JUMP JUMPDEST PUSH1 0x0 DUP2 SWAP1 POP PUSH2 0x2736 DUP3 PUSH2 0x2926 JUMP JUMPDEST SWAP2 SWAP1 POP JUMP JUMPDEST PUSH1 0x0 DUP2 SWAP1 POP PUSH2 0x2749 DUP3 PUSH2 0x293A JUMP JUMPDEST SWAP2 SWAP1 POP JUMP JUMPDEST PUSH1 0x0 PUSH20 0xFFFFFFFFFFFFFFFFFFFFFFFFFFFFFFFFFFFFFFFF DUP3 AND SWAP1 POP SWAP2 SWAP1 POP JUMP JUMPDEST PUSH1 0x0 DUP2 SWAP1 POP SWAP2 SWAP1 POP JUMP JUMPDEST PUSH1 0x0 PUSH2 0x2783 DUP3 PUSH2 0x2728 JUMP JUMPDEST SWAP1 POP SWAP2 SWAP1 POP JUMP JUMPDEST PUSH1 0x0 PUSH2 0x2795 DUP3 PUSH2 0x273B JUMP JUMPDEST SWAP1 POP SWAP2 SWAP1 POP JUMP JUMPDEST DUP3 DUP2 DUP4 CALLDATACOPY PUSH1 0x0 DUP4 DUP4 ADD MSTORE POP POP POP JUMP JUMPDEST PUSH1 0x0 JUMPDEST DUP4 DUP2 LT ISZERO PUSH2 0x27C9 JUMPI DUP1 DUP3 ADD MLOAD DUP2 DUP5 ADD MSTORE PUSH1 0x20 DUP2 ADD SWAP1 POP PUSH2 0x27AE JUMP JUMPDEST DUP4 DUP2 GT ISZERO PUSH2 0x27D8 JUMPI PUSH1 0x0 DUP5 DUP5 ADD MSTORE JUMPDEST POP POP POP POP JUMP JUMPDEST PUSH1 0x0 PUSH1 0x2 DUP3 DIV SWAP1 POP PUSH1 0x1 DUP3 AND DUP1 PUSH2 0x27F6 JUMPI PUSH1 0x7F DUP3 AND SWAP2 POP JUMPDEST PUSH1 0x20 DUP3 LT DUP2 EQ ISZERO PUSH2 0x280A JUMPI PUSH2 0x2809 PUSH2 0x28B7 JUMP JUMPDEST JUMPDEST POP SWAP2 SWAP1 POP JUMP JUMPDEST PUSH1 0x0 PUSH2 0x281B DUP3 PUSH2 0x276E JUMP JUMPDEST SWAP2 POP PUSH32 0xFFFFFFFFFFFFFFFFFFFFFFFFFFFFFFFFFFFFFFFFFFFFFFFFFFFFFFFFFFFFFFFF DUP3 EQ ISZERO PUSH2 0x284E JUMPI PUSH2 0x284D PUSH2 0x2859 JUMP JUMPDEST JUMPDEST PUSH1 0x1 DUP3 ADD SWAP1 POP SWAP2 SWAP1 POP JUMP JUMPDEST PUSH32 0x4E487B7100000000000000000000000000000000000000000000000000000000 PUSH1 0x0 MSTORE PUSH1 0x11 PUSH1 0x4 MSTORE PUSH1 0x24 PUSH1 0x0 REVERT JUMPDEST PUSH32 0x4E487B7100000000000000000000000000000000000000000000000000000000 PUSH1 0x0 MSTORE PUSH1 0x21 PUSH1 0x4 MSTORE PUSH1 0x24 PUSH1 0x0 REVERT JUMPDEST PUSH32 0x4E487B7100000000000000000000000000000000000000000000000000000000 PUSH1 0x0 MSTORE PUSH1 0x22 PUSH1 0x4 MSTORE PUSH1 0x24 PUSH1 0x0 REVERT JUMPDEST PUSH32 0x4E487B7100000000000000000000000000000000000000000000000000000000 PUSH1 0x0 MSTORE PUSH1 0x41 PUSH1 0x4 MSTORE PUSH1 0x24 PUSH1 0x0 REVERT JUMPDEST PUSH1 0x0 PUSH1 0x1F NOT PUSH1 0x1F DUP4 ADD AND SWAP1 POP SWAP2 SWAP1 POP JUMP JUMPDEST PUSH1 0x4 DUP2 LT PUSH2 0x2937 JUMPI PUSH2 0x2936 PUSH2 0x2888 JUMP JUMPDEST JUMPDEST POP JUMP JUMPDEST PUSH1 0x7 DUP2 LT PUSH2 0x294B JUMPI PUSH2 0x294A PUSH2 0x2888 JUMP JUMPDEST JUMPDEST POP JUMP JUMPDEST PUSH2 0x2957 DUP2 PUSH2 0x270A JUMP JUMPDEST DUP2 EQ PUSH2 0x2962 JUMPI PUSH1 0x0 DUP1 REVERT JUMPDEST POP JUMP JUMPDEST PUSH2 0x296E DUP2 PUSH2 0x271C JUMP JUMPDEST DUP2 EQ PUSH2 0x2979 JUMPI PUSH1 0x0 DUP1 REVERT JUMPDEST POP JUMP JUMPDEST PUSH1 0x3 DUP2 LT PUSH2 0x2989 JUMPI PUSH1 0x0 DUP1 REVERT JUMPDEST POP JUMP JUMPDEST PUSH1 0x4 DUP2 LT PUSH2 0x2999 JUMPI PUSH1 0x0 DUP1 REVERT JUMPDEST POP JUMP JUMPDEST PUSH1 0x7 DUP2 LT PUSH2 0x29A9 JUMPI PUSH1 0x0 DUP1 REVERT JUMPDEST POP JUMP JUMPDEST PUSH2 0x29B5 DUP2 PUSH2 0x276E JUMP JUMPDEST DUP2 EQ PUSH2 0x29C0 JUMPI PUSH1 0x0 DUP1 REVERT JUMPDEST POP JUMP INVALID LOG2 PUSH5 0x6970667358 0x22 SLT KECCAK256 SWAP16 PUSH7 0xA6D98C8DBBB47 0xF6 0xBA PUSH13 0xCFB5EA450F8031719E9520B1AC STATICCALL SELFBALANCE 0xBD 0x25 NUMBER DUP1 0xA6 PUSH5 0x736F6C6343 STOP ADDMOD STOP STOP CALLER "},"gasEstimates":{"creation":{"codeDepositCost":"2149000","executionCost":"2287","totalCost":"2151287"},"external":{"addDecisionToTask(uint256,uint8,uint8,uint8,(uint256,uint256[]))":"infinite","completing(uint256)":"infinite","createTask(uint256,string,address,uint8,uint256[],uint256[])":"infinite","createTaskWithDecision(uint256,string,address,uint8,uint256[],uint256[],(uint256,uint8,uint8,bool,bool,uint8,(uint256,uint256[]),(uint256,string)))":"infinite","debugStringeventLog(uint256)":"infinite","decisionTest()":"infinite","evaluateTest(uint256,uint256[],uint8)":"infinite","getDebugStringeventLog()":"infinite","getLog()":"infinite","getTaskById(uint256)":"infinite","isTaskCompletedById(uint256)":"1666","theRealEventLog(uint256)":"infinite"}},"methodIdentifiers":{"addDecisionToTask(uint256,uint8,uint8,uint8,(uint256,uint256[]))":"4c88bf2f","completing(uint256)":"993c0410","createTask(uint256,string,address,uint8,uint256[],uint256[])":"307ed4be","createTaskWithDecision(uint256,string,address,uint8,uint256[],uint256[],(uint256,uint8,uint8,bool,bool,uint8,(uint256,uint256[]),(uint256,string)))":"301e26f4","debugStringeventLog(uint256)":"61ea18df","decisionTest()":"71c56f9b","evaluateTest(uint256,uint256[],uint8)":"182a9aee","getDebugStringeventLog()":"4d60f651","getLog()":"909e4ab6","getTaskById(uint256)":"976217cd","isTaskCompletedById(uint256)":"9849cee9","theRealEventLog(uint256)":"95794157"}},"storageLayout":{"storage":[{"astId":31,"contract":"BasicEnzian.sol:BasicEnzian","label":"tasks","offset":0,"slot":"0","type":"t_mapping(t_uint256,t_struct(Task)26_storage)"},{"astId":75,"contract":"BasicEnzian.sol:BasicEnzian","label":"globalStringPayload","offset":0,"slot":"1","type":"t_array(t_string_storage)dyn_storage"},{"astId":78,"contract":"BasicEnzian.sol:BasicEnzian","label":"globalIntegerPayload","offset":0,"slot":"2","type":"t_array(t_uint256)dyn_storage"},{"astId":81,"contract":"BasicEnzian.sol:BasicEnzian","label":"theRealEventLog","offset":0,"slot":"3","type":"t_array(t_uint256)dyn_storage"},{"astId":93,"contract":"BasicEnzian.sol:BasicEnzian","label":"debugStringeventLog","offset":0,"slot":"4","type":"t_array(t_string_storage)dyn_storage"}],"types":{"t_address":{"encoding":"inplace","label":"address","numberOfBytes":"20"},"t_array(t_string_storage)dyn_storage":{"base":"t_string_storage","encoding":"dynamic_array","label":"string[]","numberOfBytes":"32"},"t_array(t_uint256)dyn_storage":{"base":"t_uint256","encoding":"dynamic_array","label":"uint256[]","numberOfBytes":"32"},"t_bool":{"encoding":"inplace","label":"bool","numberOfBytes":"1"},"t_enum(DecisionType)39":{"encoding":"inplace","label":"enum BasicEnzian.DecisionType","numberOfBytes":"1"},"t_enum(GatewayType)7":{"encoding":"inplace","label":"enum BasicEnzian.GatewayType","numberOfBytes":"1"},"t_enum(Operator)606":{"encoding":"inplace","label":"enum DecisionLibrary.Operator","numberOfBytes":"1"},"t_mapping(t_uint256,t_struct(Task)26_storage)":{"encoding":"mapping","key":"t_uint256","label":"mapping(uint256 => struct BasicEnzian.Task)","numberOfBytes":"32","value":"t_struct(Task)26_storage"},"t_string_storage":{"encoding":"bytes","label":"string","numberOfBytes":"32"},"t_struct(Decision)72_storage":{"encoding":"inplace","label":"struct BasicEnzian.Decision","members":[{"astId":52,"contract":"BasicEnzian.sol:BasicEnzian","label":"endBoss","offset":0,"slot":"0","type":"t_uint256"},{"astId":55,"contract":"BasicEnzian.sol:BasicEnzian","label":"gatewaytype","offset":0,"slot":"1","type":"t_enum(GatewayType)7"},{"astId":58,"contract":"BasicEnzian.sol:BasicEnzian","label":"typ","offset":1,"slot":"1","type":"t_enum(DecisionType)39"},{"astId":60,"contract":"BasicEnzian.sol:BasicEnzian","label":"completed","offset":2,"slot":"1","type":"t_bool"},{"astId":62,"contract":"BasicEnzian.sol:BasicEnzian","label":"exists","offset":3,"slot":"1","type":"t_bool"},{"astId":65,"contract":"BasicEnzian.sol:BasicEnzian","label":"operator","offset":4,"slot":"1","type":"t_enum(Operator)606"},{"astId":68,"contract":"BasicEnzian.sol:BasicEnzian","label":"integeroperants","offset":0,"slot":"2","type":"t_struct(IntegerOperants)45_storage"},{"astId":71,"contract":"BasicEnzian.sol:BasicEnzian","label":"stringoperants","offset":0,"slot":"4","type":"t_struct(StringOperants)50_storage"}],"numberOfBytes":"192"},"t_struct(IntegerOperants)45_storage":{"encoding":"inplace","label":"struct BasicEnzian.IntegerOperants","members":[{"astId":41,"contract":"BasicEnzian.sol:BasicEnzian","label":"idtoglobalintegerpayload","offset":0,"slot":"0","type":"t_uint256"},{"astId":44,"contract":"BasicEnzian.sol:BasicEnzian","label":"local","offset":0,"slot":"1","type":"t_array(t_uint256)dyn_storage"}],"numberOfBytes":"64"},"t_struct(StringOperants)50_storage":{"encoding":"inplace","label":"struct BasicEnzian.StringOperants","members":[{"astId":47,"contract":"BasicEnzian.sol:BasicEnzian","label":"idtoglobalstringpayload","offset":0,"slot":"0","type":"t_uint256"},{"astId":49,"contract":"BasicEnzian.sol:BasicEnzian","label":"local","offset":0,"slot":"1","type":"t_string_storage"}],"numberOfBytes":"64"},"t_struct(Task)26_storage":{"encoding":"inplace","label":"struct BasicEnzian.Task","members":[{"astId":9,"contract":"BasicEnzian.sol:BasicEnzian","label":"activity","offset":0,"slot":"0","type":"t_string_storage"},{"astId":11,"contract":"BasicEnzian.sol:BasicEnzian","label":"taskresource","offset":0,"slot":"1","type":"t_address"},{"astId":13,"contract":"BasicEnzian.sol:BasicEnzian","label":"completed","offset":20,"slot":"1","type":"t_bool"},{"astId":16,"contract":"BasicEnzian.sol:BasicEnzian","label":"preceedingMergingGateway","offset":21,"slot":"1","type":"t_enum(GatewayType)7"},{"astId":19,"contract":"BasicEnzian.sol:BasicEnzian","label":"requirements","offset":0,"slot":"2","type":"t_array(t_uint256)dyn_storage"},{"astId":22,"contract":"BasicEnzian.sol:BasicEnzian","label":"competitors","offset":0,"slot":"3","type":"t_array(t_uint256)dyn_storage"},{"astId":25,"contract":"BasicEnzian.sol:BasicEnzian","label":"decision","offset":0,"slot":"4","type":"t_struct(Decision)72_storage"}],"numberOfBytes":"320"},"t_uint256":{"encoding":"inplace","label":"uint256","numberOfBytes":"32"}}},"userdoc":{"kind":"user","methods":{},"version":1}}