{"abi":[{"anonymous":false,"inputs":[{"indexed":true,"internalType":"bool","name":"success","type":"bool"}],"name":"TaskCompleted","type":"event"},{"anonymous":false,"inputs":[{"indexed":true,"internalType":"uint256","name":"anumber","type":"uint256"}],"name":"Test","type":"event"},{"inputs":[{"internalType":"uint256","name":"taskId","type":"uint256"}],"name":"completing","outputs":[{"internalType":"bool","name":"success","type":"bool"}],"stateMutability":"nonpayable","type":"function"},{"inputs":[{"internalType":"uint256","name":"_id","type":"uint256"},{"internalType":"string","name":"_activity","type":"string"},{"internalType":"address","name":"_taskresource","type":"address"},{"internalType":"enum BasicEnzian.GatewayType","name":"_pmg","type":"uint8"},{"internalType":"uint256[]","name":"_requirements","type":"uint256[]"},{"internalType":"uint256[]","name":"_competitors","type":"uint256[]"}],"name":"createTask","outputs":[],"stateMutability":"nonpayable","type":"function"},{"inputs":[{"internalType":"uint256","name":"_id","type":"uint256"},{"internalType":"string","name":"_activity","type":"string"},{"internalType":"address","name":"_taskresource","type":"address"},{"internalType":"enum BasicEnzian.GatewayType","name":"_pmg","type":"uint8"},{"internalType":"uint256[]","name":"_requirements","type":"uint256[]"},{"internalType":"uint256[]","name":"_competitors","type":"uint256[]"},{"components":[{"internalType":"uint256","name":"endBoss","type":"uint256"},{"internalType":"enum BasicEnzian.GatewayType","name":"gatewaytype","type":"uint8"},{"internalType":"enum BasicEnzian.DecisionType","name":"type_","type":"uint8"},{"internalType":"bool","name":"completed","type":"bool"},{"internalType":"bool","name":"exists","type":"bool"},{"internalType":"enum DecisionLibrary.Operator","name":"operator","type":"uint8"},{"internalType":"string","name":"processVariable","type":"string"},{"internalType":"string","name":"s_value","type":"string"},{"internalType":"int256[]","name":"i_value","type":"int256[]"}],"internalType":"struct BasicEnzian.Decision","name":"_decision","type":"tuple"}],"name":"createTaskWithDecision","outputs":[],"stateMutability":"nonpayable","type":"function"},{"inputs":[{"internalType":"uint256","name":"","type":"uint256"}],"name":"debugStringeventLog","outputs":[{"internalType":"string","name":"","type":"string"}],"stateMutability":"view","type":"function"},{"inputs":[],"name":"decisionTest","outputs":[{"internalType":"uint256","name":"drei","type":"uint256"}],"stateMutability":"pure","type":"function"},{"inputs":[{"internalType":"uint256","name":"","type":"uint256"}],"name":"enabled","outputs":[{"internalType":"bool","name":"","type":"bool"}],"stateMutability":"view","type":"function"},{"inputs":[{"components":[{"internalType":"uint256","name":"endBoss","type":"uint256"},{"internalType":"enum BasicEnzian.GatewayType","name":"gatewaytype","type":"uint8"},{"internalType":"enum BasicEnzian.DecisionType","name":"type_","type":"uint8"},{"internalType":"bool","name":"completed","type":"bool"},{"internalType":"bool","name":"exists","type":"bool"},{"internalType":"enum DecisionLibrary.Operator","name":"operator","type":"uint8"},{"internalType":"string","name":"processVariable","type":"string"},{"internalType":"string","name":"s_value","type":"string"},{"internalType":"int256[]","name":"i_value","type":"int256[]"}],"internalType":"struct BasicEnzian.Decision","name":"_decision","type":"tuple"}],"name":"evaluateDecision","outputs":[{"internalType":"bool","name":"success","type":"bool"}],"stateMutability":"view","type":"function"},{"inputs":[{"internalType":"int256","name":"i1","type":"int256"},{"internalType":"int256[]","name":"i2","type":"int256[]"},{"internalType":"enum DecisionLibrary.Operator","name":"op","type":"uint8"}],"name":"evaluateTest","outputs":[{"internalType":"bool","name":"equality","type":"bool"}],"stateMutability":"pure","type":"function"},{"inputs":[],"name":"getDebugStringeventLog","outputs":[{"internalType":"string[]","name":"theevents","type":"string[]"}],"stateMutability":"view","type":"function"},{"inputs":[{"internalType":"string","name":"variableName","type":"string"}],"name":"getIntProcessVariableValue","outputs":[{"internalType":"int256","name":"thevalue","type":"int256"}],"stateMutability":"view","type":"function"},{"inputs":[],"name":"getLog","outputs":[{"internalType":"uint256[]","name":"theevents","type":"uint256[]"}],"stateMutability":"view","type":"function"},{"inputs":[{"internalType":"uint256","name":"_id","type":"uint256"}],"name":"getTaskById","outputs":[{"internalType":"bool","name":"status","type":"bool"},{"internalType":"string","name":"description","type":"string"},{"internalType":"address","name":"taskresource","type":"address"},{"internalType":"enum BasicEnzian.GatewayType","name":"gateway","type":"uint8"},{"internalType":"uint256[]","name":"requirements","type":"uint256[]"},{"internalType":"uint256[]","name":"competitors","type":"uint256[]"}],"stateMutability":"view","type":"function"},{"inputs":[{"internalType":"uint256","name":"taskid","type":"uint256"}],"name":"getTaskDecisionEndBoss","outputs":[{"internalType":"uint256","name":"theboss","type":"uint256"}],"stateMutability":"view","type":"function"},{"inputs":[{"internalType":"string","name":"","type":"string"}],"name":"integer_processVariables","outputs":[{"internalType":"int256","name":"","type":"int256"}],"stateMutability":"view","type":"function"},{"inputs":[{"internalType":"uint256","name":"_id","type":"uint256"}],"name":"isTaskCompletedById","outputs":[{"internalType":"bool","name":"success","type":"bool"}],"stateMutability":"view","type":"function"},{"inputs":[{"internalType":"string","name":"","type":"string"}],"name":"string_processVariables","outputs":[{"internalType":"string","name":"","type":"string"}],"stateMutability":"view","type":"function"},{"inputs":[{"internalType":"uint256","name":"","type":"uint256"}],"name":"theRealEventLog","outputs":[{"internalType":"uint256","name":"","type":"uint256"}],"stateMutability":"view","type":"function"},{"inputs":[{"internalType":"string","name":"variableName","type":"string"},{"internalType":"int256","name":"newValue","type":"int256"}],"name":"updateIntProcessVariable","outputs":[],"stateMutability":"nonpayable","type":"function"},{"inputs":[{"internalType":"string","name":"variableName","type":"string"},{"internalType":"string","name":"newValue","type":"string"}],"name":"updateStringProcessVariable","outputs":[],"stateMutability":"nonpayable","type":"function"}],"devdoc":{"kind":"dev","methods":{},"version":1},"evm":{"assembly":"    /* \"BasicEnzian.sol\":63:10603  contract BasicEnzian {\r... */\n  mstore(0x40, 0x80)\n  callvalue\n  dup1\n  iszero\n  tag_1\n  jumpi\n  0x00\n  dup1\n  revert\ntag_1:\n  pop\n  dataSize(sub_0)\n  dup1\n  dataOffset(sub_0)\n  0x00\n  codecopy\n  0x00\n  return\nstop\n\nsub_0: assembly {\n        /* \"BasicEnzian.sol\":63:10603  contract BasicEnzian {\r... */\n      mstore(0x40, 0x80)\n      callvalue\n      dup1\n      iszero\n      tag_1\n      jumpi\n      0x00\n      dup1\n      revert\n    tag_1:\n      pop\n      jumpi(tag_2, lt(calldatasize, 0x04))\n      shr(0xe0, calldataload(0x00))\n      dup1\n      0x897a3e27\n      gt\n      tag_22\n      jumpi\n      dup1\n      0x993c0410\n      gt\n      tag_23\n      jumpi\n      dup1\n      0x993c0410\n      eq\n      tag_17\n      jumpi\n      dup1\n      0xa7c1eb90\n      eq\n      tag_18\n      jumpi\n      dup1\n      0xb8c56cae\n      eq\n      tag_19\n      jumpi\n      dup1\n      0xc7b1ee06\n      eq\n      tag_20\n      jumpi\n      dup1\n      0xfe9620c9\n      eq\n      tag_21\n      jumpi\n      jump(tag_2)\n    tag_23:\n      dup1\n      0x897a3e27\n      eq\n      tag_12\n      jumpi\n      dup1\n      0x909e4ab6\n      eq\n      tag_13\n      jumpi\n      dup1\n      0x95794157\n      eq\n      tag_14\n      jumpi\n      dup1\n      0x976217cd\n      eq\n      tag_15\n      jumpi\n      dup1\n      0x9849cee9\n      eq\n      tag_16\n      jumpi\n      jump(tag_2)\n    tag_22:\n      dup1\n      0x4d60f651\n      gt\n      tag_24\n      jumpi\n      dup1\n      0x4d60f651\n      eq\n      tag_7\n      jumpi\n      dup1\n      0x61ea18df\n      eq\n      tag_8\n      jumpi\n      dup1\n      0x71c56f9b\n      eq\n      tag_9\n      jumpi\n      dup1\n      0x76e5c0de\n      eq\n      tag_10\n      jumpi\n      dup1\n      0x81d1cd2e\n      eq\n      tag_11\n      jumpi\n      jump(tag_2)\n    tag_24:\n      dup1\n      0x06470433\n      eq\n      tag_3\n      jumpi\n      dup1\n      0x307ed4be\n      eq\n      tag_4\n      jumpi\n      dup1\n      0x38624725\n      eq\n      tag_5\n      jumpi\n      dup1\n      0x38b7b6f0\n      eq\n      tag_6\n      jumpi\n    tag_2:\n      0x00\n      dup1\n      revert\n        /* \"BasicEnzian.sol\":8976:9626  function evaluateDecision(Decision memory _decision) public view returns (bool success){\r... */\n    tag_3:\n      tag_25\n      0x04\n      dup1\n      calldatasize\n      sub\n      dup2\n      add\n      swap1\n      tag_26\n      swap2\n      swap1\n      tag_27\n      jump\t// in\n    tag_26:\n      tag_28\n      jump\t// in\n    tag_25:\n      mload(0x40)\n      tag_29\n      swap2\n      swap1\n      tag_30\n      jump\t// in\n    tag_29:\n      mload(0x40)\n      dup1\n      swap2\n      sub\n      swap1\n      return\n        /* \"BasicEnzian.sol\":2063:2665  function createTask(\r... */\n    tag_4:\n      tag_31\n      0x04\n      dup1\n      calldatasize\n      sub\n      dup2\n      add\n      swap1\n      tag_32\n      swap2\n      swap1\n      tag_33\n      jump\t// in\n    tag_32:\n      tag_34\n      jump\t// in\n    tag_31:\n      stop\n        /* \"BasicEnzian.sol\":1263:1317  mapping(string => int) public integer_processVariables */\n    tag_5:\n      tag_35\n      0x04\n      dup1\n      calldatasize\n      sub\n      dup2\n      add\n      swap1\n      tag_36\n      swap2\n      swap1\n      tag_37\n      jump\t// in\n    tag_36:\n      tag_38\n      jump\t// in\n    tag_35:\n      mload(0x40)\n      tag_39\n      swap2\n      swap1\n      tag_40\n      jump\t// in\n    tag_39:\n      mload(0x40)\n      dup1\n      swap2\n      sub\n      swap1\n      return\n        /* \"BasicEnzian.sol\":4125:4278  function updateIntProcessVariable(string calldata variableName, int newValue) public {\r... */\n    tag_6:\n      tag_41\n      0x04\n      dup1\n      calldatasize\n      sub\n      dup2\n      add\n      swap1\n      tag_42\n      swap2\n      swap1\n      tag_43\n      jump\t// in\n    tag_42:\n      tag_44\n      jump\t// in\n    tag_41:\n      stop\n        /* \"BasicEnzian.sol\":1784:1910  function getDebugStringeventLog() public view returns(string[] memory theevents) {\r... */\n    tag_7:\n      tag_45\n      tag_46\n      jump\t// in\n    tag_45:\n      mload(0x40)\n      tag_47\n      swap2\n      swap1\n      tag_48\n      jump\t// in\n    tag_47:\n      mload(0x40)\n      dup1\n      swap2\n      sub\n      swap1\n      return\n        /* \"BasicEnzian.sol\":1742:1777  string[] public debugStringeventLog */\n    tag_8:\n      tag_49\n      0x04\n      dup1\n      calldatasize\n      sub\n      dup2\n      add\n      swap1\n      tag_50\n      swap2\n      swap1\n      tag_51\n      jump\t// in\n    tag_50:\n      tag_52\n      jump\t// in\n    tag_49:\n      mload(0x40)\n      tag_53\n      swap2\n      swap1\n      tag_54\n      jump\t// in\n    tag_53:\n      mload(0x40)\n      dup1\n      swap2\n      sub\n      swap1\n      return\n        /* \"BasicEnzian.sol\":10461:10598  function decisionTest() public pure returns(uint drei) {\r... */\n    tag_9:\n      tag_55\n      tag_56\n      jump\t// in\n    tag_55:\n      mload(0x40)\n      tag_57\n      swap2\n      swap1\n      tag_58\n      jump\t// in\n    tag_57:\n      mload(0x40)\n      dup1\n      swap2\n      sub\n      swap1\n      return\n        /* \"BasicEnzian.sol\":1389:1425  mapping(uint => bool) public enabled */\n    tag_10:\n      tag_59\n      0x04\n      dup1\n      calldatasize\n      sub\n      dup2\n      add\n      swap1\n      tag_60\n      swap2\n      swap1\n      tag_51\n      jump\t// in\n    tag_60:\n      tag_61\n      jump\t// in\n    tag_59:\n      mload(0x40)\n      tag_62\n      swap2\n      swap1\n      tag_30\n      jump\t// in\n    tag_62:\n      mload(0x40)\n      dup1\n      swap2\n      sub\n      swap1\n      return\n        /* \"BasicEnzian.sol\":3977:4113  function getTaskDecisionEndBoss(uint taskid) public view returns (uint theboss) {\r... */\n    tag_11:\n      tag_63\n      0x04\n      dup1\n      calldatasize\n      sub\n      dup2\n      add\n      swap1\n      tag_64\n      swap2\n      swap1\n      tag_51\n      jump\t// in\n    tag_64:\n      tag_65\n      jump\t// in\n    tag_63:\n      mload(0x40)\n      tag_66\n      swap2\n      swap1\n      tag_58\n      jump\t// in\n    tag_66:\n      mload(0x40)\n      dup1\n      swap2\n      sub\n      swap1\n      return\n        /* \"BasicEnzian.sol\":4465:4630  function getIntProcessVariableValue(string calldata variableName) public view returns (int thevalue) {\r... */\n    tag_12:\n      tag_67\n      0x04\n      dup1\n      calldatasize\n      sub\n      dup2\n      add\n      swap1\n      tag_68\n      swap2\n      swap1\n      tag_69\n      jump\t// in\n    tag_68:\n      tag_70\n      jump\t// in\n    tag_67:\n      mload(0x40)\n      tag_71\n      swap2\n      swap1\n      tag_40\n      jump\t// in\n    tag_71:\n      mload(0x40)\n      dup1\n      swap2\n      sub\n      swap1\n      return\n        /* \"BasicEnzian.sol\":1538:1642  function getLog() public view returns(uint[] memory theevents) {\r... */\n    tag_13:\n      tag_72\n      tag_73\n      jump\t// in\n    tag_72:\n      mload(0x40)\n      tag_74\n      swap2\n      swap1\n      tag_75\n      jump\t// in\n    tag_74:\n      mload(0x40)\n      dup1\n      swap2\n      sub\n      swap1\n      return\n        /* \"BasicEnzian.sol\":1502:1531  uint[] public theRealEventLog */\n    tag_14:\n      tag_76\n      0x04\n      dup1\n      calldatasize\n      sub\n      dup2\n      add\n      swap1\n      tag_77\n      swap2\n      swap1\n      tag_51\n      jump\t// in\n    tag_77:\n      tag_78\n      jump\t// in\n    tag_76:\n      mload(0x40)\n      tag_79\n      swap2\n      swap1\n      tag_58\n      jump\t// in\n    tag_79:\n      mload(0x40)\n      dup1\n      swap2\n      sub\n      swap1\n      return\n        /* \"BasicEnzian.sol\":10056:10453  function getTaskById(uint _id) public view returns (bool status,\r... */\n    tag_15:\n      tag_80\n      0x04\n      dup1\n      calldatasize\n      sub\n      dup2\n      add\n      swap1\n      tag_81\n      swap2\n      swap1\n      tag_51\n      jump\t// in\n    tag_81:\n      tag_82\n      jump\t// in\n    tag_80:\n      mload(0x40)\n      tag_83\n      swap7\n      swap6\n      swap5\n      swap4\n      swap3\n      swap2\n      swap1\n      tag_84\n      jump\t// in\n    tag_83:\n      mload(0x40)\n      dup1\n      swap2\n      sub\n      swap1\n      return\n        /* \"BasicEnzian.sol\":9828:9951  function isTaskCompletedById(uint _id) public view returns (bool success){\r... */\n    tag_16:\n      tag_85\n      0x04\n      dup1\n      calldatasize\n      sub\n      dup2\n      add\n      swap1\n      tag_86\n      swap2\n      swap1\n      tag_51\n      jump\t// in\n    tag_86:\n      tag_87\n      jump\t// in\n    tag_85:\n      mload(0x40)\n      tag_88\n      swap2\n      swap1\n      tag_30\n      jump\t// in\n    tag_88:\n      mload(0x40)\n      dup1\n      swap2\n      sub\n      swap1\n      return\n        /* \"BasicEnzian.sol\":4730:8782  function completing(uint taskId) public returns (bool success){\r... */\n    tag_17:\n      tag_89\n      0x04\n      dup1\n      calldatasize\n      sub\n      dup2\n      add\n      swap1\n      tag_90\n      swap2\n      swap1\n      tag_51\n      jump\t// in\n    tag_90:\n      tag_91\n      jump\t// in\n    tag_89:\n      mload(0x40)\n      tag_92\n      swap2\n      swap1\n      tag_30\n      jump\t// in\n    tag_92:\n      mload(0x40)\n      dup1\n      swap2\n      sub\n      swap1\n      return\n        /* \"BasicEnzian.sol\":8794:8968  function evaluateTest(int i1, int[] memory i2, DecisionLibrary.Operator op) public pure returns (bool equality) {\r... */\n    tag_18:\n      tag_93\n      0x04\n      dup1\n      calldatasize\n      sub\n      dup2\n      add\n      swap1\n      tag_94\n      swap2\n      swap1\n      tag_95\n      jump\t// in\n    tag_94:\n      tag_96\n      jump\t// in\n    tag_93:\n      mload(0x40)\n      tag_97\n      swap2\n      swap1\n      tag_30\n      jump\t// in\n    tag_97:\n      mload(0x40)\n      dup1\n      swap2\n      sub\n      swap1\n      return\n        /* \"BasicEnzian.sol\":1324:1380  mapping(string => string) public string_processVariables */\n    tag_19:\n      tag_98\n      0x04\n      dup1\n      calldatasize\n      sub\n      dup2\n      add\n      swap1\n      tag_99\n      swap2\n      swap1\n      tag_37\n      jump\t// in\n    tag_99:\n      tag_100\n      jump\t// in\n    tag_98:\n      mload(0x40)\n      tag_101\n      swap2\n      swap1\n      tag_54\n      jump\t// in\n    tag_101:\n      mload(0x40)\n      dup1\n      swap2\n      sub\n      swap1\n      return\n        /* \"BasicEnzian.sol\":2684:3969  function createTaskWithDecision(\r... */\n    tag_20:\n      tag_102\n      0x04\n      dup1\n      calldatasize\n      sub\n      dup2\n      add\n      swap1\n      tag_103\n      swap2\n      swap1\n      tag_104\n      jump\t// in\n    tag_103:\n      tag_105\n      jump\t// in\n    tag_102:\n      stop\n        /* \"BasicEnzian.sol\":4290:4457  function updateStringProcessVariable(string calldata variableName, string calldata newValue) public {\r... */\n    tag_21:\n      tag_106\n      0x04\n      dup1\n      calldatasize\n      sub\n      dup2\n      add\n      swap1\n      tag_107\n      swap2\n      swap1\n      tag_108\n      jump\t// in\n    tag_107:\n      tag_109\n      jump\t// in\n    tag_106:\n      stop\n        /* \"BasicEnzian.sol\":8976:9626  function evaluateDecision(Decision memory _decision) public view returns (bool success){\r... */\n    tag_28:\n        /* \"BasicEnzian.sol\":9050:9062  bool success */\n      0x00\n        /* \"BasicEnzian.sol\":9096:9119  DecisionType.STRINGDESC */\n      dup1\n        /* \"BasicEnzian.sol\":9077:9119  _decision.type_ == DecisionType.STRINGDESC */\n      0x02\n      dup2\n      gt\n      iszero\n      tag_111\n      jumpi\n      mstore(0x00, 0x4e487b7100000000000000000000000000000000000000000000000000000000)\n      mstore(0x04, 0x21)\n      revert(0x00, 0x24)\n    tag_111:\n        /* \"BasicEnzian.sol\":9077:9086  _decision */\n      dup3\n        /* \"BasicEnzian.sol\":9077:9092  _decision.type_ */\n      0x40\n      add\n      mload\n        /* \"BasicEnzian.sol\":9077:9119  _decision.type_ == DecisionType.STRINGDESC */\n      0x02\n      dup2\n      gt\n      iszero\n      tag_112\n      jumpi\n      mstore(0x00, 0x4e487b7100000000000000000000000000000000000000000000000000000000)\n      mstore(0x04, 0x21)\n      revert(0x00, 0x24)\n    tag_112:\n      eq\n        /* \"BasicEnzian.sol\":9074:9619  if(_decision.type_ == DecisionType.STRINGDESC){\r... */\n      iszero\n      tag_113\n      jumpi\n        /* \"BasicEnzian.sol\":9135:9171  string memory valueOfProcessVariable */\n      0x00\n        /* \"BasicEnzian.sol\":9174:9197  string_processVariables */\n      0x02\n        /* \"BasicEnzian.sol\":9198:9207  _decision */\n      dup4\n        /* \"BasicEnzian.sol\":9198:9223  _decision.processVariable */\n      0xc0\n      add\n      mload\n        /* \"BasicEnzian.sol\":9174:9224  string_processVariables[_decision.processVariable] */\n      mload(0x40)\n      tag_114\n      swap2\n      swap1\n      tag_115\n      jump\t// in\n    tag_114:\n      swap1\n      dup2\n      mstore\n      0x20\n      add\n      mload(0x40)\n      dup1\n      swap2\n      sub\n      swap1\n      keccak256\n        /* \"BasicEnzian.sol\":9135:9224  string memory valueOfProcessVariable = string_processVariables[_decision.processVariable] */\n      dup1\n      sload\n      tag_116\n      swap1\n      tag_117\n      jump\t// in\n    tag_116:\n      dup1\n      0x1f\n      add\n      0x20\n      dup1\n      swap2\n      div\n      mul\n      0x20\n      add\n      mload(0x40)\n      swap1\n      dup2\n      add\n      0x40\n      mstore\n      dup1\n      swap3\n      swap2\n      swap1\n      dup2\n      dup2\n      mstore\n      0x20\n      add\n      dup3\n      dup1\n      sload\n      tag_118\n      swap1\n      tag_117\n      jump\t// in\n    tag_118:\n      dup1\n      iszero\n      tag_119\n      jumpi\n      dup1\n      0x1f\n      lt\n      tag_120\n      jumpi\n      0x0100\n      dup1\n      dup4\n      sload\n      div\n      mul\n      dup4\n      mstore\n      swap2\n      0x20\n      add\n      swap2\n      jump(tag_119)\n    tag_120:\n      dup3\n      add\n      swap2\n      swap1\n      0x00\n      mstore\n      keccak256(0x00, 0x20)\n      swap1\n    tag_121:\n      dup2\n      sload\n      dup2\n      mstore\n      swap1\n      0x01\n      add\n      swap1\n      0x20\n      add\n      dup1\n      dup4\n      gt\n      tag_121\n      jumpi\n      dup3\n      swap1\n      sub\n      0x1f\n      and\n      dup3\n      add\n      swap2\n    tag_119:\n      pop\n      pop\n      pop\n      pop\n      pop\n      swap1\n      pop\n        /* \"BasicEnzian.sol\":9246:9261  DecisionLibrary */\n      linkerSymbol(\"80c56c7074f1c42024adf49f5dc2b40495aa8bbb68c1dca7ae61973c3346d226\")\n        /* \"BasicEnzian.sol\":9246:9270  DecisionLibrary.evaluate */\n      0xa8c0bf8e\n        /* \"BasicEnzian.sol\":9271:9293  valueOfProcessVariable */\n      dup3\n        /* \"BasicEnzian.sol\":9295:9304  _decision */\n      dup6\n        /* \"BasicEnzian.sol\":9295:9312  _decision.s_value */\n      0xe0\n      add\n      mload\n        /* \"BasicEnzian.sol\":9314:9323  _decision */\n      dup7\n        /* \"BasicEnzian.sol\":9314:9332  _decision.operator */\n      0xa0\n      add\n      mload\n        /* \"BasicEnzian.sol\":9246:9333  DecisionLibrary.evaluate(valueOfProcessVariable, _decision.s_value, _decision.operator) */\n      mload(0x40)\n      dup5\n      0xffffffff\n      and\n      0xe0\n      shl\n      dup2\n      mstore\n      0x04\n      add\n      tag_122\n      swap4\n      swap3\n      swap2\n      swap1\n      tag_123\n      jump\t// in\n    tag_122:\n      0x20\n      mload(0x40)\n      dup1\n      dup4\n      sub\n      dup2\n      dup7\n      dup1\n      extcodesize\n      iszero\n      dup1\n      iszero\n      tag_124\n      jumpi\n      0x00\n      dup1\n      revert\n    tag_124:\n      pop\n      gas\n      delegatecall\n      iszero\n      dup1\n      iszero\n      tag_126\n      jumpi\n      returndatasize\n      0x00\n      dup1\n      returndatacopy\n      revert(0x00, returndatasize)\n    tag_126:\n      pop\n      pop\n      pop\n      pop\n      mload(0x40)\n      returndatasize\n      not(0x1f)\n      0x1f\n      dup3\n      add\n      and\n      dup3\n      add\n      dup1\n      0x40\n      mstore\n      pop\n      dup2\n      add\n      swap1\n      tag_127\n      swap2\n      swap1\n      tag_128\n      jump\t// in\n    tag_127:\n        /* \"BasicEnzian.sol\":9239:9333  return DecisionLibrary.evaluate(valueOfProcessVariable, _decision.s_value, _decision.operator) */\n      swap2\n      pop\n      pop\n      jump(tag_110)\n        /* \"BasicEnzian.sol\":9074:9619  if(_decision.type_ == DecisionType.STRINGDESC){\r... */\n    tag_113:\n        /* \"BasicEnzian.sol\":9382:9402  DecisionType.INTDESC */\n      0x01\n        /* \"BasicEnzian.sol\":9363:9402  _decision.type_ == DecisionType.INTDESC */\n      0x02\n      dup2\n      gt\n      iszero\n      tag_130\n      jumpi\n      mstore(0x00, 0x4e487b7100000000000000000000000000000000000000000000000000000000)\n      mstore(0x04, 0x21)\n      revert(0x00, 0x24)\n    tag_130:\n        /* \"BasicEnzian.sol\":9363:9372  _decision */\n      dup3\n        /* \"BasicEnzian.sol\":9363:9378  _decision.type_ */\n      0x40\n      add\n      mload\n        /* \"BasicEnzian.sol\":9363:9402  _decision.type_ == DecisionType.INTDESC */\n      0x02\n      dup2\n      gt\n      iszero\n      tag_131\n      jumpi\n      mstore(0x00, 0x4e487b7100000000000000000000000000000000000000000000000000000000)\n      mstore(0x04, 0x21)\n      revert(0x00, 0x24)\n    tag_131:\n      eq\n        /* \"BasicEnzian.sol\":9360:9619  if(_decision.type_ == DecisionType.INTDESC){\r... */\n      iszero\n      tag_132\n      jumpi\n        /* \"BasicEnzian.sol\":9418:9444  int valueOfProcessVariable */\n      0x00\n        /* \"BasicEnzian.sol\":9447:9471  integer_processVariables */\n      0x01\n        /* \"BasicEnzian.sol\":9472:9481  _decision */\n      dup4\n        /* \"BasicEnzian.sol\":9472:9497  _decision.processVariable */\n      0xc0\n      add\n      mload\n        /* \"BasicEnzian.sol\":9447:9498  integer_processVariables[_decision.processVariable] */\n      mload(0x40)\n      tag_133\n      swap2\n      swap1\n      tag_115\n      jump\t// in\n    tag_133:\n      swap1\n      dup2\n      mstore\n      0x20\n      add\n      mload(0x40)\n      dup1\n      swap2\n      sub\n      swap1\n      keccak256\n      sload\n        /* \"BasicEnzian.sol\":9418:9498  int valueOfProcessVariable = integer_processVariables[_decision.processVariable] */\n      swap1\n      pop\n        /* \"BasicEnzian.sol\":9520:9535  DecisionLibrary */\n      linkerSymbol(\"80c56c7074f1c42024adf49f5dc2b40495aa8bbb68c1dca7ae61973c3346d226\")\n        /* \"BasicEnzian.sol\":9520:9544  DecisionLibrary.evaluate */\n      0xe1df7ad6\n        /* \"BasicEnzian.sol\":9545:9567  valueOfProcessVariable */\n      dup3\n        /* \"BasicEnzian.sol\":9569:9578  _decision */\n      dup6\n        /* \"BasicEnzian.sol\":9569:9586  _decision.i_value */\n      0x0100\n      add\n      mload\n        /* \"BasicEnzian.sol\":9588:9597  _decision */\n      dup7\n        /* \"BasicEnzian.sol\":9588:9606  _decision.operator */\n      0xa0\n      add\n      mload\n        /* \"BasicEnzian.sol\":9520:9607  DecisionLibrary.evaluate(valueOfProcessVariable, _decision.i_value, _decision.operator) */\n      mload(0x40)\n      dup5\n      0xffffffff\n      and\n      0xe0\n      shl\n      dup2\n      mstore\n      0x04\n      add\n      tag_134\n      swap4\n      swap3\n      swap2\n      swap1\n      tag_135\n      jump\t// in\n    tag_134:\n      0x20\n      mload(0x40)\n      dup1\n      dup4\n      sub\n      dup2\n      dup7\n      dup1\n      extcodesize\n      iszero\n      dup1\n      iszero\n      tag_136\n      jumpi\n      0x00\n      dup1\n      revert\n    tag_136:\n      pop\n      gas\n      delegatecall\n      iszero\n      dup1\n      iszero\n      tag_138\n      jumpi\n      returndatasize\n      0x00\n      dup1\n      returndatacopy\n      revert(0x00, returndatasize)\n    tag_138:\n      pop\n      pop\n      pop\n      pop\n      mload(0x40)\n      returndatasize\n      not(0x1f)\n      0x1f\n      dup3\n      add\n      and\n      dup3\n      add\n      dup1\n      0x40\n      mstore\n      pop\n      dup2\n      add\n      swap1\n      tag_139\n      swap2\n      swap1\n      tag_128\n      jump\t// in\n    tag_139:\n        /* \"BasicEnzian.sol\":9513:9607  return DecisionLibrary.evaluate(valueOfProcessVariable, _decision.i_value, _decision.operator) */\n      swap2\n      pop\n      pop\n      jump(tag_110)\n        /* \"BasicEnzian.sol\":9360:9619  if(_decision.type_ == DecisionType.INTDESC){\r... */\n    tag_132:\n        /* \"BasicEnzian.sol\":8976:9626  function evaluateDecision(Decision memory _decision) public view returns (bool success){\r... */\n    tag_110:\n      swap2\n      swap1\n      pop\n      jump\t// out\n        /* \"BasicEnzian.sol\":2063:2665  function createTask(\r... */\n    tag_34:\n        /* \"BasicEnzian.sol\":2333:2353  Task memory myStruct */\n      tag_141\n      tag_142\n      jump\t// in\n    tag_141:\n        /* \"BasicEnzian.sol\":2384:2393  _activity */\n      dup6\n        /* \"BasicEnzian.sol\":2364:2372  myStruct */\n      dup2\n        /* \"BasicEnzian.sol\":2364:2381  myStruct.activity */\n      0x00\n      add\n        /* \"BasicEnzian.sol\":2364:2393  myStruct.activity = _activity */\n      dup2\n      swap1\n      mstore\n      pop\n        /* \"BasicEnzian.sol\":2428:2441  _taskresource */\n      dup5\n        /* \"BasicEnzian.sol\":2404:2412  myStruct */\n      dup2\n        /* \"BasicEnzian.sol\":2404:2425  myStruct.taskresource */\n      0x20\n      add\n        /* \"BasicEnzian.sol\":2404:2441  myStruct.taskresource = _taskresource */\n      swap1\n      0xffffffffffffffffffffffffffffffffffffffff\n      and\n      swap1\n      dup2\n      0xffffffffffffffffffffffffffffffffffffffff\n      and\n      dup2\n      mstore\n      pop\n      pop\n        /* \"BasicEnzian.sol\":2473:2478  false */\n      0x00\n        /* \"BasicEnzian.sol\":2452:2460  myStruct */\n      dup2\n        /* \"BasicEnzian.sol\":2452:2470  myStruct.completed */\n      0x40\n      add\n        /* \"BasicEnzian.sol\":2452:2478  myStruct.completed = false */\n      swap1\n      iszero\n      iszero\n      swap1\n      dup2\n      iszero\n      iszero\n      dup2\n      mstore\n      pop\n      pop\n        /* \"BasicEnzian.sol\":2525:2529  _pmg */\n      dup4\n        /* \"BasicEnzian.sol\":2489:2497  myStruct */\n      dup2\n        /* \"BasicEnzian.sol\":2489:2522  myStruct.preceedingMergingGateway */\n      0x60\n      add\n        /* \"BasicEnzian.sol\":2489:2529  myStruct.preceedingMergingGateway = _pmg */\n      swap1\n      0x03\n      dup2\n      gt\n      iszero\n      tag_143\n      jumpi\n      mstore(0x00, 0x4e487b7100000000000000000000000000000000000000000000000000000000)\n      mstore(0x04, 0x21)\n      revert(0x00, 0x24)\n    tag_143:\n      swap1\n      dup2\n      0x03\n      dup2\n      gt\n      iszero\n      tag_144\n      jumpi\n      mstore(0x00, 0x4e487b7100000000000000000000000000000000000000000000000000000000)\n      mstore(0x04, 0x21)\n      revert(0x00, 0x24)\n    tag_144:\n      dup2\n      mstore\n      pop\n      pop\n        /* \"BasicEnzian.sol\":2564:2577  _requirements */\n      dup3\n        /* \"BasicEnzian.sol\":2540:2548  myStruct */\n      dup2\n        /* \"BasicEnzian.sol\":2540:2561  myStruct.requirements */\n      0x80\n      add\n        /* \"BasicEnzian.sol\":2540:2577  myStruct.requirements = _requirements */\n      dup2\n      swap1\n      mstore\n      pop\n        /* \"BasicEnzian.sol\":2611:2623  _competitors */\n      dup2\n        /* \"BasicEnzian.sol\":2588:2596  myStruct */\n      dup2\n        /* \"BasicEnzian.sol\":2588:2608  myStruct.competitors */\n      0xa0\n      add\n        /* \"BasicEnzian.sol\":2588:2623  myStruct.competitors = _competitors */\n      dup2\n      swap1\n      mstore\n      pop\n        /* \"BasicEnzian.sol\":2648:2656  myStruct */\n      dup1\n        /* \"BasicEnzian.sol\":2634:2639  tasks */\n      0x00\n        /* \"BasicEnzian.sol\":2634:2644  tasks[_id] */\n      dup1\n        /* \"BasicEnzian.sol\":2640:2643  _id */\n      dup10\n        /* \"BasicEnzian.sol\":2634:2644  tasks[_id] */\n      dup2\n      mstore\n      0x20\n      add\n      swap1\n      dup2\n      mstore\n      0x20\n      add\n      0x00\n      keccak256\n        /* \"BasicEnzian.sol\":2634:2657  tasks[_id] = (myStruct) */\n      0x00\n      dup3\n      add\n      mload\n      dup2\n      0x00\n      add\n      swap1\n      dup1\n      mload\n      swap1\n      0x20\n      add\n      swap1\n      tag_145\n      swap3\n      swap2\n      swap1\n      tag_146\n      jump\t// in\n    tag_145:\n      pop\n      0x20\n      dup3\n      add\n      mload\n      dup2\n      0x01\n      add\n      exp(0x0100, 0x00)\n      dup2\n      sload\n      dup2\n      0xffffffffffffffffffffffffffffffffffffffff\n      mul\n      not\n      and\n      swap1\n      dup4\n      0xffffffffffffffffffffffffffffffffffffffff\n      and\n      mul\n      or\n      swap1\n      sstore\n      pop\n      0x40\n      dup3\n      add\n      mload\n      dup2\n      0x01\n      add\n      exp(0x0100, 0x14)\n      dup2\n      sload\n      dup2\n      0xff\n      mul\n      not\n      and\n      swap1\n      dup4\n      iszero\n      iszero\n      mul\n      or\n      swap1\n      sstore\n      pop\n      0x60\n      dup3\n      add\n      mload\n      dup2\n      0x01\n      add\n      exp(0x0100, 0x15)\n      dup2\n      sload\n      dup2\n      0xff\n      mul\n      not\n      and\n      swap1\n      dup4\n      0x03\n      dup2\n      gt\n      iszero\n      tag_147\n      jumpi\n      mstore(0x00, 0x4e487b7100000000000000000000000000000000000000000000000000000000)\n      mstore(0x04, 0x21)\n      revert(0x00, 0x24)\n    tag_147:\n      mul\n      or\n      swap1\n      sstore\n      pop\n      0x80\n      dup3\n      add\n      mload\n      dup2\n      0x02\n      add\n      swap1\n      dup1\n      mload\n      swap1\n      0x20\n      add\n      swap1\n      tag_148\n      swap3\n      swap2\n      swap1\n      tag_149\n      jump\t// in\n    tag_148:\n      pop\n      0xa0\n      dup3\n      add\n      mload\n      dup2\n      0x03\n      add\n      swap1\n      dup1\n      mload\n      swap1\n      0x20\n      add\n      swap1\n      tag_150\n      swap3\n      swap2\n      swap1\n      tag_149\n      jump\t// in\n    tag_150:\n      pop\n      0xc0\n      dup3\n      add\n      mload\n      dup2\n      0x04\n      add\n      0x00\n      dup3\n      add\n      mload\n      dup2\n      0x00\n      add\n      sstore\n      0x20\n      dup3\n      add\n      mload\n      dup2\n      0x01\n      add\n      exp(0x0100, 0x00)\n      dup2\n      sload\n      dup2\n      0xff\n      mul\n      not\n      and\n      swap1\n      dup4\n      0x03\n      dup2\n      gt\n      iszero\n      tag_151\n      jumpi\n      mstore(0x00, 0x4e487b7100000000000000000000000000000000000000000000000000000000)\n      mstore(0x04, 0x21)\n      revert(0x00, 0x24)\n    tag_151:\n      mul\n      or\n      swap1\n      sstore\n      pop\n      0x40\n      dup3\n      add\n      mload\n      dup2\n      0x01\n      add\n      exp(0x0100, 0x01)\n      dup2\n      sload\n      dup2\n      0xff\n      mul\n      not\n      and\n      swap1\n      dup4\n      0x02\n      dup2\n      gt\n      iszero\n      tag_152\n      jumpi\n      mstore(0x00, 0x4e487b7100000000000000000000000000000000000000000000000000000000)\n      mstore(0x04, 0x21)\n      revert(0x00, 0x24)\n    tag_152:\n      mul\n      or\n      swap1\n      sstore\n      pop\n      0x60\n      dup3\n      add\n      mload\n      dup2\n      0x01\n      add\n      exp(0x0100, 0x02)\n      dup2\n      sload\n      dup2\n      0xff\n      mul\n      not\n      and\n      swap1\n      dup4\n      iszero\n      iszero\n      mul\n      or\n      swap1\n      sstore\n      pop\n      0x80\n      dup3\n      add\n      mload\n      dup2\n      0x01\n      add\n      exp(0x0100, 0x03)\n      dup2\n      sload\n      dup2\n      0xff\n      mul\n      not\n      and\n      swap1\n      dup4\n      iszero\n      iszero\n      mul\n      or\n      swap1\n      sstore\n      pop\n      0xa0\n      dup3\n      add\n      mload\n      dup2\n      0x01\n      add\n      exp(0x0100, 0x04)\n      dup2\n      sload\n      dup2\n      0xff\n      mul\n      not\n      and\n      swap1\n      dup4\n      0x06\n      dup2\n      gt\n      iszero\n      tag_153\n      jumpi\n      mstore(0x00, 0x4e487b7100000000000000000000000000000000000000000000000000000000)\n      mstore(0x04, 0x21)\n      revert(0x00, 0x24)\n    tag_153:\n      mul\n      or\n      swap1\n      sstore\n      pop\n      0xc0\n      dup3\n      add\n      mload\n      dup2\n      0x02\n      add\n      swap1\n      dup1\n      mload\n      swap1\n      0x20\n      add\n      swap1\n      tag_154\n      swap3\n      swap2\n      swap1\n      tag_146\n      jump\t// in\n    tag_154:\n      pop\n      0xe0\n      dup3\n      add\n      mload\n      dup2\n      0x03\n      add\n      swap1\n      dup1\n      mload\n      swap1\n      0x20\n      add\n      swap1\n      tag_155\n      swap3\n      swap2\n      swap1\n      tag_146\n      jump\t// in\n    tag_155:\n      pop\n      0x0100\n      dup3\n      add\n      mload\n      dup2\n      0x04\n      add\n      swap1\n      dup1\n      mload\n      swap1\n      0x20\n      add\n      swap1\n      tag_156\n      swap3\n      swap2\n      swap1\n      tag_157\n      jump\t// in\n    tag_156:\n      pop\n      pop\n      pop\n      swap1\n      pop\n      pop\n        /* \"BasicEnzian.sol\":2063:2665  function createTask(\r... */\n      pop\n      pop\n      pop\n      pop\n      pop\n      pop\n      pop\n      jump\t// out\n        /* \"BasicEnzian.sol\":1263:1317  mapping(string => int) public integer_processVariables */\n    tag_38:\n      0x01\n      dup2\n      dup1\n      mload\n      0x20\n      dup2\n      add\n      dup3\n      add\n      dup1\n      mload\n      dup5\n      dup3\n      mstore\n      0x20\n      dup4\n      add\n      0x20\n      dup6\n      add\n      keccak256\n      dup2\n      dup4\n      mstore\n      dup1\n      swap6\n      pop\n      pop\n      pop\n      pop\n      pop\n      pop\n      0x00\n      swap2\n      pop\n      swap1\n      pop\n      sload\n      dup2\n      jump\t// out\n        /* \"BasicEnzian.sol\":4125:4278  function updateIntProcessVariable(string calldata variableName, int newValue) public {\r... */\n    tag_44:\n        /* \"BasicEnzian.sol\":4262:4270  newValue */\n      dup1\n        /* \"BasicEnzian.sol\":4221:4245  integer_processVariables */\n      0x01\n        /* \"BasicEnzian.sol\":4246:4258  variableName */\n      dup5\n      dup5\n        /* \"BasicEnzian.sol\":4221:4259  integer_processVariables[variableName] */\n      mload(0x40)\n      tag_159\n      swap3\n      swap2\n      swap1\n      tag_160\n      jump\t// in\n    tag_159:\n      swap1\n      dup2\n      mstore\n      0x20\n      add\n      mload(0x40)\n      dup1\n      swap2\n      sub\n      swap1\n      keccak256\n        /* \"BasicEnzian.sol\":4221:4270  integer_processVariables[variableName] = newValue */\n      dup2\n      swap1\n      sstore\n      pop\n        /* \"BasicEnzian.sol\":4125:4278  function updateIntProcessVariable(string calldata variableName, int newValue) public {\r... */\n      pop\n      pop\n      pop\n      jump\t// out\n        /* \"BasicEnzian.sol\":1784:1910  function getDebugStringeventLog() public view returns(string[] memory theevents) {\r... */\n    tag_46:\n        /* \"BasicEnzian.sol\":1838:1863  string[] memory theevents */\n      0x60\n        /* \"BasicEnzian.sol\":1883:1902  debugStringeventLog */\n      0x05\n        /* \"BasicEnzian.sol\":1876:1902  return debugStringeventLog */\n      dup1\n      sload\n      dup1\n      0x20\n      mul\n      0x20\n      add\n      mload(0x40)\n      swap1\n      dup2\n      add\n      0x40\n      mstore\n      dup1\n      swap3\n      swap2\n      swap1\n      dup2\n      dup2\n      mstore\n      0x20\n      add\n      0x00\n      swap1\n    tag_162:\n      dup3\n      dup3\n      lt\n      iszero\n      tag_163\n      jumpi\n      dup4\n      dup3\n      swap1\n      0x00\n      mstore\n      keccak256(0x00, 0x20)\n      add\n      dup1\n      sload\n      tag_165\n      swap1\n      tag_117\n      jump\t// in\n    tag_165:\n      dup1\n      0x1f\n      add\n      0x20\n      dup1\n      swap2\n      div\n      mul\n      0x20\n      add\n      mload(0x40)\n      swap1\n      dup2\n      add\n      0x40\n      mstore\n      dup1\n      swap3\n      swap2\n      swap1\n      dup2\n      dup2\n      mstore\n      0x20\n      add\n      dup3\n      dup1\n      sload\n      tag_166\n      swap1\n      tag_117\n      jump\t// in\n    tag_166:\n      dup1\n      iszero\n      tag_167\n      jumpi\n      dup1\n      0x1f\n      lt\n      tag_168\n      jumpi\n      0x0100\n      dup1\n      dup4\n      sload\n      div\n      mul\n      dup4\n      mstore\n      swap2\n      0x20\n      add\n      swap2\n      jump(tag_167)\n    tag_168:\n      dup3\n      add\n      swap2\n      swap1\n      0x00\n      mstore\n      keccak256(0x00, 0x20)\n      swap1\n    tag_169:\n      dup2\n      sload\n      dup2\n      mstore\n      swap1\n      0x01\n      add\n      swap1\n      0x20\n      add\n      dup1\n      dup4\n      gt\n      tag_169\n      jumpi\n      dup3\n      swap1\n      sub\n      0x1f\n      and\n      dup3\n      add\n      swap2\n    tag_167:\n      pop\n      pop\n      pop\n      pop\n      pop\n      dup2\n      mstore\n      0x20\n      add\n      swap1\n      0x01\n      add\n      swap1\n      jump(tag_162)\n    tag_163:\n      pop\n      pop\n      pop\n      pop\n      swap1\n      pop\n        /* \"BasicEnzian.sol\":1784:1910  function getDebugStringeventLog() public view returns(string[] memory theevents) {\r... */\n      swap1\n      jump\t// out\n        /* \"BasicEnzian.sol\":1742:1777  string[] public debugStringeventLog */\n    tag_52:\n      0x05\n      dup2\n      dup2\n      sload\n      dup2\n      lt\n      tag_170\n      jumpi\n      0x00\n      dup1\n      revert\n    tag_170:\n      swap1\n      0x00\n      mstore\n      keccak256(0x00, 0x20)\n      add\n      0x00\n      swap2\n      pop\n      swap1\n      pop\n      dup1\n      sload\n      tag_172\n      swap1\n      tag_117\n      jump\t// in\n    tag_172:\n      dup1\n      0x1f\n      add\n      0x20\n      dup1\n      swap2\n      div\n      mul\n      0x20\n      add\n      mload(0x40)\n      swap1\n      dup2\n      add\n      0x40\n      mstore\n      dup1\n      swap3\n      swap2\n      swap1\n      dup2\n      dup2\n      mstore\n      0x20\n      add\n      dup3\n      dup1\n      sload\n      tag_173\n      swap1\n      tag_117\n      jump\t// in\n    tag_173:\n      dup1\n      iszero\n      tag_174\n      jumpi\n      dup1\n      0x1f\n      lt\n      tag_175\n      jumpi\n      0x0100\n      dup1\n      dup4\n      sload\n      div\n      mul\n      dup4\n      mstore\n      swap2\n      0x20\n      add\n      swap2\n      jump(tag_174)\n    tag_175:\n      dup3\n      add\n      swap2\n      swap1\n      0x00\n      mstore\n      keccak256(0x00, 0x20)\n      swap1\n    tag_176:\n      dup2\n      sload\n      dup2\n      mstore\n      swap1\n      0x01\n      add\n      swap1\n      0x20\n      add\n      dup1\n      dup4\n      gt\n      tag_176\n      jumpi\n      dup3\n      swap1\n      sub\n      0x1f\n      and\n      dup3\n      add\n      swap2\n    tag_174:\n      pop\n      pop\n      pop\n      pop\n      pop\n      dup2\n      jump\t// out\n        /* \"BasicEnzian.sol\":10461:10598  function decisionTest() public pure returns(uint drei) {\r... */\n    tag_56:\n        /* \"BasicEnzian.sol\":10505:10514  uint drei */\n      0x00\n        /* \"BasicEnzian.sol\":10527:10535  uint zwo */\n      dup1\n        /* \"BasicEnzian.sol\":10538:10553  DecisionLibrary */\n      linkerSymbol(\"80c56c7074f1c42024adf49f5dc2b40495aa8bbb68c1dca7ae61973c3346d226\")\n        /* \"BasicEnzian.sol\":10538:10563  DecisionLibrary.returnZwo */\n      0xc237647f\n        /* \"BasicEnzian.sol\":10538:10565  DecisionLibrary.returnZwo() */\n      mload(0x40)\n      dup2\n      0xffffffff\n      and\n      0xe0\n      shl\n      dup2\n      mstore\n      0x04\n      add\n      0x20\n      mload(0x40)\n      dup1\n      dup4\n      sub\n      dup2\n      dup7\n      dup1\n      extcodesize\n      iszero\n      dup1\n      iszero\n      tag_178\n      jumpi\n      0x00\n      dup1\n      revert\n    tag_178:\n      pop\n      gas\n      delegatecall\n      iszero\n      dup1\n      iszero\n      tag_180\n      jumpi\n      returndatasize\n      0x00\n      dup1\n      returndatacopy\n      revert(0x00, returndatasize)\n    tag_180:\n      pop\n      pop\n      pop\n      pop\n      mload(0x40)\n      returndatasize\n      not(0x1f)\n      0x1f\n      dup3\n      add\n      and\n      dup3\n      add\n      dup1\n      0x40\n      mstore\n      pop\n      dup2\n      add\n      swap1\n      tag_181\n      swap2\n      swap1\n      tag_182\n      jump\t// in\n    tag_181:\n        /* \"BasicEnzian.sol\":10527:10565  uint zwo = DecisionLibrary.returnZwo() */\n      swap1\n      pop\n        /* \"BasicEnzian.sol\":10587:10588  5 */\n      0x05\n        /* \"BasicEnzian.sol\":10583:10586  zwo */\n      dup2\n        /* \"BasicEnzian.sol\":10583:10588  zwo+5 */\n      tag_183\n      swap2\n      swap1\n      tag_184\n      jump\t// in\n    tag_183:\n        /* \"BasicEnzian.sol\":10576:10588  return zwo+5 */\n      swap2\n      pop\n      pop\n        /* \"BasicEnzian.sol\":10461:10598  function decisionTest() public pure returns(uint drei) {\r... */\n      swap1\n      jump\t// out\n        /* \"BasicEnzian.sol\":1389:1425  mapping(uint => bool) public enabled */\n    tag_61:\n      mstore(0x20, 0x03)\n      dup1\n      0x00\n      mstore\n      keccak256(0x00, 0x40)\n      0x00\n      swap2\n      pop\n      sload\n      swap1\n      0x0100\n      exp\n      swap1\n      div\n      0xff\n      and\n      dup2\n      jump\t// out\n        /* \"BasicEnzian.sol\":3977:4113  function getTaskDecisionEndBoss(uint taskid) public view returns (uint theboss) {\r... */\n    tag_65:\n        /* \"BasicEnzian.sol\":4043:4055  uint theboss */\n      0x00\n        /* \"BasicEnzian.sol\":4075:4080  tasks */\n      dup1\n        /* \"BasicEnzian.sol\":4075:4088  tasks[taskid] */\n      0x00\n        /* \"BasicEnzian.sol\":4081:4087  taskid */\n      dup4\n        /* \"BasicEnzian.sol\":4075:4088  tasks[taskid] */\n      dup2\n      mstore\n      0x20\n      add\n      swap1\n      dup2\n      mstore\n      0x20\n      add\n      0x00\n      keccak256\n        /* \"BasicEnzian.sol\":4075:4097  tasks[taskid].decision */\n      0x04\n      add\n        /* \"BasicEnzian.sol\":4075:4105  tasks[taskid].decision.endBoss */\n      0x00\n      add\n      sload\n        /* \"BasicEnzian.sol\":4068:4105  return tasks[taskid].decision.endBoss */\n      swap1\n      pop\n        /* \"BasicEnzian.sol\":3977:4113  function getTaskDecisionEndBoss(uint taskid) public view returns (uint theboss) {\r... */\n      swap2\n      swap1\n      pop\n      jump\t// out\n        /* \"BasicEnzian.sol\":4465:4630  function getIntProcessVariableValue(string calldata variableName) public view returns (int thevalue) {\r... */\n    tag_70:\n        /* \"BasicEnzian.sol\":4552:4564  int thevalue */\n      0x00\n        /* \"BasicEnzian.sol\":4584:4608  integer_processVariables */\n      0x01\n        /* \"BasicEnzian.sol\":4609:4621  variableName */\n      dup4\n      dup4\n        /* \"BasicEnzian.sol\":4584:4622  integer_processVariables[variableName] */\n      mload(0x40)\n      tag_187\n      swap3\n      swap2\n      swap1\n      tag_160\n      jump\t// in\n    tag_187:\n      swap1\n      dup2\n      mstore\n      0x20\n      add\n      mload(0x40)\n      dup1\n      swap2\n      sub\n      swap1\n      keccak256\n      sload\n        /* \"BasicEnzian.sol\":4577:4622  return integer_processVariables[variableName] */\n      swap1\n      pop\n        /* \"BasicEnzian.sol\":4465:4630  function getIntProcessVariableValue(string calldata variableName) public view returns (int thevalue) {\r... */\n      swap3\n      swap2\n      pop\n      pop\n      jump\t// out\n        /* \"BasicEnzian.sol\":1538:1642  function getLog() public view returns(uint[] memory theevents) {\r... */\n    tag_73:\n        /* \"BasicEnzian.sol\":1576:1599  uint[] memory theevents */\n      0x60\n        /* \"BasicEnzian.sol\":1619:1634  theRealEventLog */\n      0x04\n        /* \"BasicEnzian.sol\":1612:1634  return theRealEventLog */\n      dup1\n      sload\n      dup1\n      0x20\n      mul\n      0x20\n      add\n      mload(0x40)\n      swap1\n      dup2\n      add\n      0x40\n      mstore\n      dup1\n      swap3\n      swap2\n      swap1\n      dup2\n      dup2\n      mstore\n      0x20\n      add\n      dup3\n      dup1\n      sload\n      dup1\n      iszero\n      tag_189\n      jumpi\n      0x20\n      mul\n      dup3\n      add\n      swap2\n      swap1\n      0x00\n      mstore\n      keccak256(0x00, 0x20)\n      swap1\n    tag_190:\n      dup2\n      sload\n      dup2\n      mstore\n      0x20\n      add\n      swap1\n      0x01\n      add\n      swap1\n      dup1\n      dup4\n      gt\n      tag_190\n      jumpi\n    tag_189:\n      pop\n      pop\n      pop\n      pop\n      pop\n      swap1\n      pop\n        /* \"BasicEnzian.sol\":1538:1642  function getLog() public view returns(uint[] memory theevents) {\r... */\n      swap1\n      jump\t// out\n        /* \"BasicEnzian.sol\":1502:1531  uint[] public theRealEventLog */\n    tag_78:\n      0x04\n      dup2\n      dup2\n      sload\n      dup2\n      lt\n      tag_191\n      jumpi\n      0x00\n      dup1\n      revert\n    tag_191:\n      swap1\n      0x00\n      mstore\n      keccak256(0x00, 0x20)\n      add\n      0x00\n      swap2\n      pop\n      swap1\n      pop\n      sload\n      dup2\n      jump\t// out\n        /* \"BasicEnzian.sol\":10056:10453  function getTaskById(uint _id) public view returns (bool status,\r... */\n    tag_82:\n        /* \"BasicEnzian.sol\":10108:10119  bool status */\n      0x00\n        /* \"BasicEnzian.sol\":10130:10155  string memory description */\n      0x60\n        /* \"BasicEnzian.sol\":10157:10177  address taskresource */\n      0x00\n        /* \"BasicEnzian.sol\":10179:10198  GatewayType gateway */\n      dup1\n        /* \"BasicEnzian.sol\":10209:10235  uint[] memory requirements */\n      0x60\n        /* \"BasicEnzian.sol\":10237:10262  uint[] memory competitors */\n      dup1\n        /* \"BasicEnzian.sol\":10282:10287  tasks */\n      0x00\n        /* \"BasicEnzian.sol\":10282:10292  tasks[_id] */\n      dup1\n        /* \"BasicEnzian.sol\":10288:10291  _id */\n      dup9\n        /* \"BasicEnzian.sol\":10282:10292  tasks[_id] */\n      dup2\n      mstore\n      0x20\n      add\n      swap1\n      dup2\n      mstore\n      0x20\n      add\n      0x00\n      keccak256\n        /* \"BasicEnzian.sol\":10282:10302  tasks[_id].completed */\n      0x01\n      add\n      0x14\n      swap1\n      sload\n      swap1\n      0x0100\n      exp\n      swap1\n      div\n      0xff\n      and\n        /* \"BasicEnzian.sol\":10304:10309  tasks */\n      0x00\n        /* \"BasicEnzian.sol\":10304:10314  tasks[_id] */\n      dup1\n        /* \"BasicEnzian.sol\":10310:10313  _id */\n      dup10\n        /* \"BasicEnzian.sol\":10304:10314  tasks[_id] */\n      dup2\n      mstore\n      0x20\n      add\n      swap1\n      dup2\n      mstore\n      0x20\n      add\n      0x00\n      keccak256\n        /* \"BasicEnzian.sol\":10304:10323  tasks[_id].activity */\n      0x00\n      add\n        /* \"BasicEnzian.sol\":10325:10330  tasks */\n      0x00\n        /* \"BasicEnzian.sol\":10325:10335  tasks[_id] */\n      dup1\n        /* \"BasicEnzian.sol\":10331:10334  _id */\n      dup11\n        /* \"BasicEnzian.sol\":10325:10335  tasks[_id] */\n      dup2\n      mstore\n      0x20\n      add\n      swap1\n      dup2\n      mstore\n      0x20\n      add\n      0x00\n      keccak256\n        /* \"BasicEnzian.sol\":10325:10348  tasks[_id].taskresource */\n      0x01\n      add\n      0x00\n      swap1\n      sload\n      swap1\n      0x0100\n      exp\n      swap1\n      div\n      0xffffffffffffffffffffffffffffffffffffffff\n      and\n        /* \"BasicEnzian.sol\":10360:10365  tasks */\n      0x00\n        /* \"BasicEnzian.sol\":10360:10370  tasks[_id] */\n      dup1\n        /* \"BasicEnzian.sol\":10366:10369  _id */\n      dup12\n        /* \"BasicEnzian.sol\":10360:10370  tasks[_id] */\n      dup2\n      mstore\n      0x20\n      add\n      swap1\n      dup2\n      mstore\n      0x20\n      add\n      0x00\n      keccak256\n        /* \"BasicEnzian.sol\":10360:10395  tasks[_id].preceedingMergingGateway */\n      0x01\n      add\n      0x15\n      swap1\n      sload\n      swap1\n      0x0100\n      exp\n      swap1\n      div\n      0xff\n      and\n        /* \"BasicEnzian.sol\":10397:10402  tasks */\n      0x00\n        /* \"BasicEnzian.sol\":10397:10407  tasks[_id] */\n      dup1\n        /* \"BasicEnzian.sol\":10403:10406  _id */\n      dup13\n        /* \"BasicEnzian.sol\":10397:10407  tasks[_id] */\n      dup2\n      mstore\n      0x20\n      add\n      swap1\n      dup2\n      mstore\n      0x20\n      add\n      0x00\n      keccak256\n        /* \"BasicEnzian.sol\":10397:10420  tasks[_id].requirements */\n      0x02\n      add\n        /* \"BasicEnzian.sol\":10422:10427  tasks */\n      0x00\n        /* \"BasicEnzian.sol\":10422:10432  tasks[_id] */\n      dup1\n        /* \"BasicEnzian.sol\":10428:10431  _id */\n      dup14\n        /* \"BasicEnzian.sol\":10422:10432  tasks[_id] */\n      dup2\n      mstore\n      0x20\n      add\n      swap1\n      dup2\n      mstore\n      0x20\n      add\n      0x00\n      keccak256\n        /* \"BasicEnzian.sol\":10422:10444  tasks[_id].competitors */\n      0x03\n      add\n        /* \"BasicEnzian.sol\":10274:10445  return (tasks[_id].completed, tasks[_id].activity, tasks[_id].taskresource,\r... */\n      dup5\n      dup1\n      sload\n      tag_194\n      swap1\n      tag_117\n      jump\t// in\n    tag_194:\n      dup1\n      0x1f\n      add\n      0x20\n      dup1\n      swap2\n      div\n      mul\n      0x20\n      add\n      mload(0x40)\n      swap1\n      dup2\n      add\n      0x40\n      mstore\n      dup1\n      swap3\n      swap2\n      swap1\n      dup2\n      dup2\n      mstore\n      0x20\n      add\n      dup3\n      dup1\n      sload\n      tag_195\n      swap1\n      tag_117\n      jump\t// in\n    tag_195:\n      dup1\n      iszero\n      tag_196\n      jumpi\n      dup1\n      0x1f\n      lt\n      tag_197\n      jumpi\n      0x0100\n      dup1\n      dup4\n      sload\n      div\n      mul\n      dup4\n      mstore\n      swap2\n      0x20\n      add\n      swap2\n      jump(tag_196)\n    tag_197:\n      dup3\n      add\n      swap2\n      swap1\n      0x00\n      mstore\n      keccak256(0x00, 0x20)\n      swap1\n    tag_198:\n      dup2\n      sload\n      dup2\n      mstore\n      swap1\n      0x01\n      add\n      swap1\n      0x20\n      add\n      dup1\n      dup4\n      gt\n      tag_198\n      jumpi\n      dup3\n      swap1\n      sub\n      0x1f\n      and\n      dup3\n      add\n      swap2\n    tag_196:\n      pop\n      pop\n      pop\n      pop\n      pop\n      swap5\n      pop\n      dup2\n      dup1\n      sload\n      dup1\n      0x20\n      mul\n      0x20\n      add\n      mload(0x40)\n      swap1\n      dup2\n      add\n      0x40\n      mstore\n      dup1\n      swap3\n      swap2\n      swap1\n      dup2\n      dup2\n      mstore\n      0x20\n      add\n      dup3\n      dup1\n      sload\n      dup1\n      iszero\n      tag_199\n      jumpi\n      0x20\n      mul\n      dup3\n      add\n      swap2\n      swap1\n      0x00\n      mstore\n      keccak256(0x00, 0x20)\n      swap1\n    tag_200:\n      dup2\n      sload\n      dup2\n      mstore\n      0x20\n      add\n      swap1\n      0x01\n      add\n      swap1\n      dup1\n      dup4\n      gt\n      tag_200\n      jumpi\n    tag_199:\n      pop\n      pop\n      pop\n      pop\n      pop\n      swap2\n      pop\n      dup1\n      dup1\n      sload\n      dup1\n      0x20\n      mul\n      0x20\n      add\n      mload(0x40)\n      swap1\n      dup2\n      add\n      0x40\n      mstore\n      dup1\n      swap3\n      swap2\n      swap1\n      dup2\n      dup2\n      mstore\n      0x20\n      add\n      dup3\n      dup1\n      sload\n      dup1\n      iszero\n      tag_201\n      jumpi\n      0x20\n      mul\n      dup3\n      add\n      swap2\n      swap1\n      0x00\n      mstore\n      keccak256(0x00, 0x20)\n      swap1\n    tag_202:\n      dup2\n      sload\n      dup2\n      mstore\n      0x20\n      add\n      swap1\n      0x01\n      add\n      swap1\n      dup1\n      dup4\n      gt\n      tag_202\n      jumpi\n    tag_201:\n      pop\n      pop\n      pop\n      pop\n      pop\n      swap1\n      pop\n      swap6\n      pop\n      swap6\n      pop\n      swap6\n      pop\n      swap6\n      pop\n      swap6\n      pop\n      swap6\n      pop\n        /* \"BasicEnzian.sol\":10056:10453  function getTaskById(uint _id) public view returns (bool status,\r... */\n      swap2\n      swap4\n      swap6\n      pop\n      swap2\n      swap4\n      swap6\n      jump\t// out\n        /* \"BasicEnzian.sol\":9828:9951  function isTaskCompletedById(uint _id) public view returns (bool success){\r... */\n    tag_87:\n        /* \"BasicEnzian.sol\":9888:9900  bool success */\n      0x00\n        /* \"BasicEnzian.sol\":9922:9927  tasks */\n      dup1\n        /* \"BasicEnzian.sol\":9922:9932  tasks[_id] */\n      0x00\n        /* \"BasicEnzian.sol\":9928:9931  _id */\n      dup4\n        /* \"BasicEnzian.sol\":9922:9932  tasks[_id] */\n      dup2\n      mstore\n      0x20\n      add\n      swap1\n      dup2\n      mstore\n      0x20\n      add\n      0x00\n      keccak256\n        /* \"BasicEnzian.sol\":9922:9942  tasks[_id].completed */\n      0x01\n      add\n      0x14\n      swap1\n      sload\n      swap1\n      0x0100\n      exp\n      swap1\n      div\n      0xff\n      and\n        /* \"BasicEnzian.sol\":9914:9943  return (tasks[_id].completed) */\n      swap1\n      pop\n        /* \"BasicEnzian.sol\":9828:9951  function isTaskCompletedById(uint _id) public view returns (bool success){\r... */\n      swap2\n      swap1\n      pop\n      jump\t// out\n        /* \"BasicEnzian.sol\":4730:8782  function completing(uint taskId) public returns (bool success){\r... */\n    tag_91:\n        /* \"BasicEnzian.sol\":4779:4791  bool success */\n      0x00\n        /* \"BasicEnzian.sol\":4814:4819  tasks */\n      dup1\n        /* \"BasicEnzian.sol\":4814:4827  tasks[taskId] */\n      0x00\n        /* \"BasicEnzian.sol\":4820:4826  taskId */\n      dup4\n        /* \"BasicEnzian.sol\":4814:4827  tasks[taskId] */\n      dup2\n      mstore\n      0x20\n      add\n      swap1\n      dup2\n      mstore\n      0x20\n      add\n      0x00\n      keccak256\n        /* \"BasicEnzian.sol\":4814:4837  tasks[taskId].completed */\n      0x01\n      add\n      0x14\n      swap1\n      sload\n      swap1\n      0x0100\n      exp\n      swap1\n      div\n      0xff\n      and\n        /* \"BasicEnzian.sol\":4813:4837  !tasks[taskId].completed */\n      iszero\n        /* \"BasicEnzian.sol\":4805:4864  require(!tasks[taskId].completed, \"DO NOT REPEAT TASKS!!!\") */\n      tag_205\n      jumpi\n      mload(0x40)\n      0x08c379a000000000000000000000000000000000000000000000000000000000\n      dup2\n      mstore\n      0x04\n      add\n      tag_206\n      swap1\n      tag_207\n      jump\t// in\n    tag_206:\n      mload(0x40)\n      dup1\n      swap2\n      sub\n      swap1\n      revert\n    tag_205:\n        /* \"BasicEnzian.sol\":4873:4885  uint endBoss */\n      0x00\n        /* \"BasicEnzian.sol\":4896:4915  Task memory thetask */\n      dup1\n        /* \"BasicEnzian.sol\":4918:4923  tasks */\n      dup1\n        /* \"BasicEnzian.sol\":4918:4931  tasks[taskId] */\n      0x00\n        /* \"BasicEnzian.sol\":4924:4930  taskId */\n      dup6\n        /* \"BasicEnzian.sol\":4918:4931  tasks[taskId] */\n      dup2\n      mstore\n      0x20\n      add\n      swap1\n      dup2\n      mstore\n      0x20\n      add\n      0x00\n      keccak256\n        /* \"BasicEnzian.sol\":4896:4931  Task memory thetask = tasks[taskId] */\n      mload(0x40)\n      dup1\n      0xe0\n      add\n      0x40\n      mstore\n      swap1\n      dup2\n      0x00\n      dup3\n      add\n      dup1\n      sload\n      tag_208\n      swap1\n      tag_117\n      jump\t// in\n    tag_208:\n      dup1\n      0x1f\n      add\n      0x20\n      dup1\n      swap2\n      div\n      mul\n      0x20\n      add\n      mload(0x40)\n      swap1\n      dup2\n      add\n      0x40\n      mstore\n      dup1\n      swap3\n      swap2\n      swap1\n      dup2\n      dup2\n      mstore\n      0x20\n      add\n      dup3\n      dup1\n      sload\n      tag_209\n      swap1\n      tag_117\n      jump\t// in\n    tag_209:\n      dup1\n      iszero\n      tag_210\n      jumpi\n      dup1\n      0x1f\n      lt\n      tag_211\n      jumpi\n      0x0100\n      dup1\n      dup4\n      sload\n      div\n      mul\n      dup4\n      mstore\n      swap2\n      0x20\n      add\n      swap2\n      jump(tag_210)\n    tag_211:\n      dup3\n      add\n      swap2\n      swap1\n      0x00\n      mstore\n      keccak256(0x00, 0x20)\n      swap1\n    tag_212:\n      dup2\n      sload\n      dup2\n      mstore\n      swap1\n      0x01\n      add\n      swap1\n      0x20\n      add\n      dup1\n      dup4\n      gt\n      tag_212\n      jumpi\n      dup3\n      swap1\n      sub\n      0x1f\n      and\n      dup3\n      add\n      swap2\n    tag_210:\n      pop\n      pop\n      pop\n      pop\n      pop\n      dup2\n      mstore\n      0x20\n      add\n      0x01\n      dup3\n      add\n      0x00\n      swap1\n      sload\n      swap1\n      0x0100\n      exp\n      swap1\n      div\n      0xffffffffffffffffffffffffffffffffffffffff\n      and\n      0xffffffffffffffffffffffffffffffffffffffff\n      and\n      0xffffffffffffffffffffffffffffffffffffffff\n      and\n      dup2\n      mstore\n      0x20\n      add\n      0x01\n      dup3\n      add\n      0x14\n      swap1\n      sload\n      swap1\n      0x0100\n      exp\n      swap1\n      div\n      0xff\n      and\n      iszero\n      iszero\n      iszero\n      iszero\n      dup2\n      mstore\n      0x20\n      add\n      0x01\n      dup3\n      add\n      0x15\n      swap1\n      sload\n      swap1\n      0x0100\n      exp\n      swap1\n      div\n      0xff\n      and\n      0x03\n      dup2\n      gt\n      iszero\n      tag_213\n      jumpi\n      mstore(0x00, 0x4e487b7100000000000000000000000000000000000000000000000000000000)\n      mstore(0x04, 0x21)\n      revert(0x00, 0x24)\n    tag_213:\n      0x03\n      dup2\n      gt\n      iszero\n      tag_214\n      jumpi\n      mstore(0x00, 0x4e487b7100000000000000000000000000000000000000000000000000000000)\n      mstore(0x04, 0x21)\n      revert(0x00, 0x24)\n    tag_214:\n      dup2\n      mstore\n      0x20\n      add\n      0x02\n      dup3\n      add\n      dup1\n      sload\n      dup1\n      0x20\n      mul\n      0x20\n      add\n      mload(0x40)\n      swap1\n      dup2\n      add\n      0x40\n      mstore\n      dup1\n      swap3\n      swap2\n      swap1\n      dup2\n      dup2\n      mstore\n      0x20\n      add\n      dup3\n      dup1\n      sload\n      dup1\n      iszero\n      tag_215\n      jumpi\n      0x20\n      mul\n      dup3\n      add\n      swap2\n      swap1\n      0x00\n      mstore\n      keccak256(0x00, 0x20)\n      swap1\n    tag_216:\n      dup2\n      sload\n      dup2\n      mstore\n      0x20\n      add\n      swap1\n      0x01\n      add\n      swap1\n      dup1\n      dup4\n      gt\n      tag_216\n      jumpi\n    tag_215:\n      pop\n      pop\n      pop\n      pop\n      pop\n      dup2\n      mstore\n      0x20\n      add\n      0x03\n      dup3\n      add\n      dup1\n      sload\n      dup1\n      0x20\n      mul\n      0x20\n      add\n      mload(0x40)\n      swap1\n      dup2\n      add\n      0x40\n      mstore\n      dup1\n      swap3\n      swap2\n      swap1\n      dup2\n      dup2\n      mstore\n      0x20\n      add\n      dup3\n      dup1\n      sload\n      dup1\n      iszero\n      tag_217\n      jumpi\n      0x20\n      mul\n      dup3\n      add\n      swap2\n      swap1\n      0x00\n      mstore\n      keccak256(0x00, 0x20)\n      swap1\n    tag_218:\n      dup2\n      sload\n      dup2\n      mstore\n      0x20\n      add\n      swap1\n      0x01\n      add\n      swap1\n      dup1\n      dup4\n      gt\n      tag_218\n      jumpi\n    tag_217:\n      pop\n      pop\n      pop\n      pop\n      pop\n      dup2\n      mstore\n      0x20\n      add\n      0x04\n      dup3\n      add\n      mload(0x40)\n      dup1\n      0x0120\n      add\n      0x40\n      mstore\n      swap1\n      dup2\n      0x00\n      dup3\n      add\n      sload\n      dup2\n      mstore\n      0x20\n      add\n      0x01\n      dup3\n      add\n      0x00\n      swap1\n      sload\n      swap1\n      0x0100\n      exp\n      swap1\n      div\n      0xff\n      and\n      0x03\n      dup2\n      gt\n      iszero\n      tag_219\n      jumpi\n      mstore(0x00, 0x4e487b7100000000000000000000000000000000000000000000000000000000)\n      mstore(0x04, 0x21)\n      revert(0x00, 0x24)\n    tag_219:\n      0x03\n      dup2\n      gt\n      iszero\n      tag_220\n      jumpi\n      mstore(0x00, 0x4e487b7100000000000000000000000000000000000000000000000000000000)\n      mstore(0x04, 0x21)\n      revert(0x00, 0x24)\n    tag_220:\n      dup2\n      mstore\n      0x20\n      add\n      0x01\n      dup3\n      add\n      0x01\n      swap1\n      sload\n      swap1\n      0x0100\n      exp\n      swap1\n      div\n      0xff\n      and\n      0x02\n      dup2\n      gt\n      iszero\n      tag_221\n      jumpi\n      mstore(0x00, 0x4e487b7100000000000000000000000000000000000000000000000000000000)\n      mstore(0x04, 0x21)\n      revert(0x00, 0x24)\n    tag_221:\n      0x02\n      dup2\n      gt\n      iszero\n      tag_222\n      jumpi\n      mstore(0x00, 0x4e487b7100000000000000000000000000000000000000000000000000000000)\n      mstore(0x04, 0x21)\n      revert(0x00, 0x24)\n    tag_222:\n      dup2\n      mstore\n      0x20\n      add\n      0x01\n      dup3\n      add\n      0x02\n      swap1\n      sload\n      swap1\n      0x0100\n      exp\n      swap1\n      div\n      0xff\n      and\n      iszero\n      iszero\n      iszero\n      iszero\n      dup2\n      mstore\n      0x20\n      add\n      0x01\n      dup3\n      add\n      0x03\n      swap1\n      sload\n      swap1\n      0x0100\n      exp\n      swap1\n      div\n      0xff\n      and\n      iszero\n      iszero\n      iszero\n      iszero\n      dup2\n      mstore\n      0x20\n      add\n      0x01\n      dup3\n      add\n      0x04\n      swap1\n      sload\n      swap1\n      0x0100\n      exp\n      swap1\n      div\n      0xff\n      and\n      0x06\n      dup2\n      gt\n      iszero\n      tag_223\n      jumpi\n      mstore(0x00, 0x4e487b7100000000000000000000000000000000000000000000000000000000)\n      mstore(0x04, 0x21)\n      revert(0x00, 0x24)\n    tag_223:\n      0x06\n      dup2\n      gt\n      iszero\n      tag_224\n      jumpi\n      mstore(0x00, 0x4e487b7100000000000000000000000000000000000000000000000000000000)\n      mstore(0x04, 0x21)\n      revert(0x00, 0x24)\n    tag_224:\n      dup2\n      mstore\n      0x20\n      add\n      0x02\n      dup3\n      add\n      dup1\n      sload\n      tag_225\n      swap1\n      tag_117\n      jump\t// in\n    tag_225:\n      dup1\n      0x1f\n      add\n      0x20\n      dup1\n      swap2\n      div\n      mul\n      0x20\n      add\n      mload(0x40)\n      swap1\n      dup2\n      add\n      0x40\n      mstore\n      dup1\n      swap3\n      swap2\n      swap1\n      dup2\n      dup2\n      mstore\n      0x20\n      add\n      dup3\n      dup1\n      sload\n      tag_226\n      swap1\n      tag_117\n      jump\t// in\n    tag_226:\n      dup1\n      iszero\n      tag_227\n      jumpi\n      dup1\n      0x1f\n      lt\n      tag_228\n      jumpi\n      0x0100\n      dup1\n      dup4\n      sload\n      div\n      mul\n      dup4\n      mstore\n      swap2\n      0x20\n      add\n      swap2\n      jump(tag_227)\n    tag_228:\n      dup3\n      add\n      swap2\n      swap1\n      0x00\n      mstore\n      keccak256(0x00, 0x20)\n      swap1\n    tag_229:\n      dup2\n      sload\n      dup2\n      mstore\n      swap1\n      0x01\n      add\n      swap1\n      0x20\n      add\n      dup1\n      dup4\n      gt\n      tag_229\n      jumpi\n      dup3\n      swap1\n      sub\n      0x1f\n      and\n      dup3\n      add\n      swap2\n    tag_227:\n      pop\n      pop\n      pop\n      pop\n      pop\n      dup2\n      mstore\n      0x20\n      add\n      0x03\n      dup3\n      add\n      dup1\n      sload\n      tag_230\n      swap1\n      tag_117\n      jump\t// in\n    tag_230:\n      dup1\n      0x1f\n      add\n      0x20\n      dup1\n      swap2\n      div\n      mul\n      0x20\n      add\n      mload(0x40)\n      swap1\n      dup2\n      add\n      0x40\n      mstore\n      dup1\n      swap3\n      swap2\n      swap1\n      dup2\n      dup2\n      mstore\n      0x20\n      add\n      dup3\n      dup1\n      sload\n      tag_231\n      swap1\n      tag_117\n      jump\t// in\n    tag_231:\n      dup1\n      iszero\n      tag_232\n      jumpi\n      dup1\n      0x1f\n      lt\n      tag_233\n      jumpi\n      0x0100\n      dup1\n      dup4\n      sload\n      div\n      mul\n      dup4\n      mstore\n      swap2\n      0x20\n      add\n      swap2\n      jump(tag_232)\n    tag_233:\n      dup3\n      add\n      swap2\n      swap1\n      0x00\n      mstore\n      keccak256(0x00, 0x20)\n      swap1\n    tag_234:\n      dup2\n      sload\n      dup2\n      mstore\n      swap1\n      0x01\n      add\n      swap1\n      0x20\n      add\n      dup1\n      dup4\n      gt\n      tag_234\n      jumpi\n      dup3\n      swap1\n      sub\n      0x1f\n      and\n      dup3\n      add\n      swap2\n    tag_232:\n      pop\n      pop\n      pop\n      pop\n      pop\n      dup2\n      mstore\n      0x20\n      add\n      0x04\n      dup3\n      add\n      dup1\n      sload\n      dup1\n      0x20\n      mul\n      0x20\n      add\n      mload(0x40)\n      swap1\n      dup2\n      add\n      0x40\n      mstore\n      dup1\n      swap3\n      swap2\n      swap1\n      dup2\n      dup2\n      mstore\n      0x20\n      add\n      dup3\n      dup1\n      sload\n      dup1\n      iszero\n      tag_235\n      jumpi\n      0x20\n      mul\n      dup3\n      add\n      swap2\n      swap1\n      0x00\n      mstore\n      keccak256(0x00, 0x20)\n      swap1\n    tag_236:\n      dup2\n      sload\n      dup2\n      mstore\n      0x20\n      add\n      swap1\n      0x01\n      add\n      swap1\n      dup1\n      dup4\n      gt\n      tag_236\n      jumpi\n    tag_235:\n      pop\n      pop\n      pop\n      pop\n      pop\n      dup2\n      mstore\n      pop\n      pop\n      dup2\n      mstore\n      pop\n      pop\n      swap1\n      pop\n        /* \"BasicEnzian.sol\":4987:5003  address resource */\n      0x00\n        /* \"BasicEnzian.sol\":5006:5011  tasks */\n      dup1\n        /* \"BasicEnzian.sol\":5006:5019  tasks[taskId] */\n      0x00\n        /* \"BasicEnzian.sol\":5012:5018  taskId */\n      dup7\n        /* \"BasicEnzian.sol\":5006:5019  tasks[taskId] */\n      dup2\n      mstore\n      0x20\n      add\n      swap1\n      dup2\n      mstore\n      0x20\n      add\n      0x00\n      keccak256\n        /* \"BasicEnzian.sol\":5006:5032  tasks[taskId].taskresource */\n      0x01\n      add\n      0x00\n      swap1\n      sload\n      swap1\n      0x0100\n      exp\n      swap1\n      div\n      0xffffffffffffffffffffffffffffffffffffffff\n      and\n        /* \"BasicEnzian.sol\":4987:5032  address resource = tasks[taskId].taskresource */\n      swap1\n      pop\n        /* \"BasicEnzian.sol\":5071:5072  0 */\n      0x00\n        /* \"BasicEnzian.sol\":5051:5073  resource == address(0) */\n      0xffffffffffffffffffffffffffffffffffffffff\n      and\n        /* \"BasicEnzian.sol\":5051:5059  resource */\n      dup2\n        /* \"BasicEnzian.sol\":5051:5073  resource == address(0) */\n      0xffffffffffffffffffffffffffffffffffffffff\n      and\n      eq\n        /* \"BasicEnzian.sol\":5051:5099  resource == address(0) || resource == msg.sender */\n      dup1\n      tag_237\n      jumpi\n      pop\n        /* \"BasicEnzian.sol\":5089:5099  msg.sender */\n      caller\n        /* \"BasicEnzian.sol\":5077:5099  resource == msg.sender */\n      0xffffffffffffffffffffffffffffffffffffffff\n      and\n        /* \"BasicEnzian.sol\":5077:5085  resource */\n      dup2\n        /* \"BasicEnzian.sol\":5077:5099  resource == msg.sender */\n      0xffffffffffffffffffffffffffffffffffffffff\n      and\n      eq\n        /* \"BasicEnzian.sol\":5051:5099  resource == address(0) || resource == msg.sender */\n    tag_237:\n        /* \"BasicEnzian.sol\":5101:5106  tasks */\n      0x00\n        /* \"BasicEnzian.sol\":5101:5114  tasks[taskId] */\n      dup1\n        /* \"BasicEnzian.sol\":5107:5113  taskId */\n      dup8\n        /* \"BasicEnzian.sol\":5101:5114  tasks[taskId] */\n      dup2\n      mstore\n      0x20\n      add\n      swap1\n      dup2\n      mstore\n      0x20\n      add\n      0x00\n      keccak256\n        /* \"BasicEnzian.sol\":5101:5123  tasks[taskId].activity */\n      0x00\n      add\n        /* \"BasicEnzian.sol\":5043:5124  require(resource == address(0) || resource == msg.sender, tasks[taskId].activity) */\n      swap1\n      tag_238\n      jumpi\n      mload(0x40)\n      0x08c379a000000000000000000000000000000000000000000000000000000000\n      dup2\n      mstore\n      0x04\n      add\n      tag_239\n      swap2\n      swap1\n      tag_240\n      jump\t// in\n    tag_239:\n      mload(0x40)\n      dup1\n      swap2\n      sub\n      swap1\n      revert\n    tag_238:\n      pop\n        /* \"BasicEnzian.sol\":5216:5221  tasks */\n      0x00\n        /* \"BasicEnzian.sol\":5216:5229  tasks[taskId] */\n      dup1\n        /* \"BasicEnzian.sol\":5222:5228  taskId */\n      dup7\n        /* \"BasicEnzian.sol\":5216:5229  tasks[taskId] */\n      dup2\n      mstore\n      0x20\n      add\n      swap1\n      dup2\n      mstore\n      0x20\n      add\n      0x00\n      keccak256\n        /* \"BasicEnzian.sol\":5216:5238  tasks[taskId].decision */\n      0x04\n      add\n        /* \"BasicEnzian.sol\":5216:5245  tasks[taskId].decision.exists */\n      0x01\n      add\n      0x03\n      swap1\n      sload\n      swap1\n      0x0100\n      exp\n      swap1\n      div\n      0xff\n      and\n        /* \"BasicEnzian.sol\":5213:5449  if(tasks[taskId].decision.exists) {\r... */\n      iszero\n      tag_241\n      jumpi\n        /* \"BasicEnzian.sol\":5272:5277  tasks */\n      0x00\n        /* \"BasicEnzian.sol\":5272:5285  tasks[taskId] */\n      dup1\n        /* \"BasicEnzian.sol\":5278:5284  taskId */\n      dup7\n        /* \"BasicEnzian.sol\":5272:5285  tasks[taskId] */\n      dup2\n      mstore\n      0x20\n      add\n      swap1\n      dup2\n      mstore\n      0x20\n      add\n      0x00\n      keccak256\n        /* \"BasicEnzian.sol\":5272:5294  tasks[taskId].decision */\n      0x04\n      add\n        /* \"BasicEnzian.sol\":5272:5302  tasks[taskId].decision.endBoss */\n      0x00\n      add\n      sload\n        /* \"BasicEnzian.sol\":5262:5302  endBoss = tasks[taskId].decision.endBoss */\n      swap3\n      pop\n        /* \"BasicEnzian.sol\":5317:5328  bool result */\n      0x00\n        /* \"BasicEnzian.sol\":5331:5371  evaluateDecision(tasks[taskId].decision) */\n      tag_242\n        /* \"BasicEnzian.sol\":5348:5353  tasks */\n      0x00\n        /* \"BasicEnzian.sol\":5348:5361  tasks[taskId] */\n      dup1\n        /* \"BasicEnzian.sol\":5354:5360  taskId */\n      dup9\n        /* \"BasicEnzian.sol\":5348:5361  tasks[taskId] */\n      dup2\n      mstore\n      0x20\n      add\n      swap1\n      dup2\n      mstore\n      0x20\n      add\n      0x00\n      keccak256\n        /* \"BasicEnzian.sol\":5348:5370  tasks[taskId].decision */\n      0x04\n      add\n        /* \"BasicEnzian.sol\":5331:5371  evaluateDecision(tasks[taskId].decision) */\n      mload(0x40)\n      dup1\n      0x0120\n      add\n      0x40\n      mstore\n      swap1\n      dup2\n      0x00\n      dup3\n      add\n      sload\n      dup2\n      mstore\n      0x20\n      add\n      0x01\n      dup3\n      add\n      0x00\n      swap1\n      sload\n      swap1\n      0x0100\n      exp\n      swap1\n      div\n      0xff\n      and\n      0x03\n      dup2\n      gt\n      iszero\n      tag_243\n      jumpi\n      mstore(0x00, 0x4e487b7100000000000000000000000000000000000000000000000000000000)\n      mstore(0x04, 0x21)\n      revert(0x00, 0x24)\n    tag_243:\n      0x03\n      dup2\n      gt\n      iszero\n      tag_244\n      jumpi\n      mstore(0x00, 0x4e487b7100000000000000000000000000000000000000000000000000000000)\n      mstore(0x04, 0x21)\n      revert(0x00, 0x24)\n    tag_244:\n      dup2\n      mstore\n      0x20\n      add\n      0x01\n      dup3\n      add\n      0x01\n      swap1\n      sload\n      swap1\n      0x0100\n      exp\n      swap1\n      div\n      0xff\n      and\n      0x02\n      dup2\n      gt\n      iszero\n      tag_245\n      jumpi\n      mstore(0x00, 0x4e487b7100000000000000000000000000000000000000000000000000000000)\n      mstore(0x04, 0x21)\n      revert(0x00, 0x24)\n    tag_245:\n      0x02\n      dup2\n      gt\n      iszero\n      tag_246\n      jumpi\n      mstore(0x00, 0x4e487b7100000000000000000000000000000000000000000000000000000000)\n      mstore(0x04, 0x21)\n      revert(0x00, 0x24)\n    tag_246:\n      dup2\n      mstore\n      0x20\n      add\n      0x01\n      dup3\n      add\n      0x02\n      swap1\n      sload\n      swap1\n      0x0100\n      exp\n      swap1\n      div\n      0xff\n      and\n      iszero\n      iszero\n      iszero\n      iszero\n      dup2\n      mstore\n      0x20\n      add\n      0x01\n      dup3\n      add\n      0x03\n      swap1\n      sload\n      swap1\n      0x0100\n      exp\n      swap1\n      div\n      0xff\n      and\n      iszero\n      iszero\n      iszero\n      iszero\n      dup2\n      mstore\n      0x20\n      add\n      0x01\n      dup3\n      add\n      0x04\n      swap1\n      sload\n      swap1\n      0x0100\n      exp\n      swap1\n      div\n      0xff\n      and\n      0x06\n      dup2\n      gt\n      iszero\n      tag_247\n      jumpi\n      mstore(0x00, 0x4e487b7100000000000000000000000000000000000000000000000000000000)\n      mstore(0x04, 0x21)\n      revert(0x00, 0x24)\n    tag_247:\n      0x06\n      dup2\n      gt\n      iszero\n      tag_248\n      jumpi\n      mstore(0x00, 0x4e487b7100000000000000000000000000000000000000000000000000000000)\n      mstore(0x04, 0x21)\n      revert(0x00, 0x24)\n    tag_248:\n      dup2\n      mstore\n      0x20\n      add\n      0x02\n      dup3\n      add\n      dup1\n      sload\n      tag_249\n      swap1\n      tag_117\n      jump\t// in\n    tag_249:\n      dup1\n      0x1f\n      add\n      0x20\n      dup1\n      swap2\n      div\n      mul\n      0x20\n      add\n      mload(0x40)\n      swap1\n      dup2\n      add\n      0x40\n      mstore\n      dup1\n      swap3\n      swap2\n      swap1\n      dup2\n      dup2\n      mstore\n      0x20\n      add\n      dup3\n      dup1\n      sload\n      tag_250\n      swap1\n      tag_117\n      jump\t// in\n    tag_250:\n      dup1\n      iszero\n      tag_251\n      jumpi\n      dup1\n      0x1f\n      lt\n      tag_252\n      jumpi\n      0x0100\n      dup1\n      dup4\n      sload\n      div\n      mul\n      dup4\n      mstore\n      swap2\n      0x20\n      add\n      swap2\n      jump(tag_251)\n    tag_252:\n      dup3\n      add\n      swap2\n      swap1\n      0x00\n      mstore\n      keccak256(0x00, 0x20)\n      swap1\n    tag_253:\n      dup2\n      sload\n      dup2\n      mstore\n      swap1\n      0x01\n      add\n      swap1\n      0x20\n      add\n      dup1\n      dup4\n      gt\n      tag_253\n      jumpi\n      dup3\n      swap1\n      sub\n      0x1f\n      and\n      dup3\n      add\n      swap2\n    tag_251:\n      pop\n      pop\n      pop\n      pop\n      pop\n      dup2\n      mstore\n      0x20\n      add\n      0x03\n      dup3\n      add\n      dup1\n      sload\n      tag_254\n      swap1\n      tag_117\n      jump\t// in\n    tag_254:\n      dup1\n      0x1f\n      add\n      0x20\n      dup1\n      swap2\n      div\n      mul\n      0x20\n      add\n      mload(0x40)\n      swap1\n      dup2\n      add\n      0x40\n      mstore\n      dup1\n      swap3\n      swap2\n      swap1\n      dup2\n      dup2\n      mstore\n      0x20\n      add\n      dup3\n      dup1\n      sload\n      tag_255\n      swap1\n      tag_117\n      jump\t// in\n    tag_255:\n      dup1\n      iszero\n      tag_256\n      jumpi\n      dup1\n      0x1f\n      lt\n      tag_257\n      jumpi\n      0x0100\n      dup1\n      dup4\n      sload\n      div\n      mul\n      dup4\n      mstore\n      swap2\n      0x20\n      add\n      swap2\n      jump(tag_256)\n    tag_257:\n      dup3\n      add\n      swap2\n      swap1\n      0x00\n      mstore\n      keccak256(0x00, 0x20)\n      swap1\n    tag_258:\n      dup2\n      sload\n      dup2\n      mstore\n      swap1\n      0x01\n      add\n      swap1\n      0x20\n      add\n      dup1\n      dup4\n      gt\n      tag_258\n      jumpi\n      dup3\n      swap1\n      sub\n      0x1f\n      and\n      dup3\n      add\n      swap2\n    tag_256:\n      pop\n      pop\n      pop\n      pop\n      pop\n      dup2\n      mstore\n      0x20\n      add\n      0x04\n      dup3\n      add\n      dup1\n      sload\n      dup1\n      0x20\n      mul\n      0x20\n      add\n      mload(0x40)\n      swap1\n      dup2\n      add\n      0x40\n      mstore\n      dup1\n      swap3\n      swap2\n      swap1\n      dup2\n      dup2\n      mstore\n      0x20\n      add\n      dup3\n      dup1\n      sload\n      dup1\n      iszero\n      tag_259\n      jumpi\n      0x20\n      mul\n      dup3\n      add\n      swap2\n      swap1\n      0x00\n      mstore\n      keccak256(0x00, 0x20)\n      swap1\n    tag_260:\n      dup2\n      sload\n      dup2\n      mstore\n      0x20\n      add\n      swap1\n      0x01\n      add\n      swap1\n      dup1\n      dup4\n      gt\n      tag_260\n      jumpi\n    tag_259:\n      pop\n      pop\n      pop\n      pop\n      pop\n      dup2\n      mstore\n      pop\n      pop\n        /* \"BasicEnzian.sol\":5331:5347  evaluateDecision */\n      tag_28\n        /* \"BasicEnzian.sol\":5331:5371  evaluateDecision(tasks[taskId].decision) */\n      jump\t// in\n    tag_242:\n        /* \"BasicEnzian.sol\":5317:5371  bool result = evaluateDecision(tasks[taskId].decision) */\n      swap1\n      pop\n        /* \"BasicEnzian.sol\":5394:5400  result */\n      dup1\n        /* \"BasicEnzian.sol\":5386:5437  require(result, 'Process Variable is not correct.') */\n      tag_261\n      jumpi\n      mload(0x40)\n      0x08c379a000000000000000000000000000000000000000000000000000000000\n      dup2\n      mstore\n      0x04\n      add\n      tag_262\n      swap1\n      tag_263\n      jump\t// in\n    tag_262:\n      mload(0x40)\n      dup1\n      swap2\n      sub\n      swap1\n      revert\n    tag_261:\n        /* \"BasicEnzian.sol\":5213:5449  if(tasks[taskId].decision.exists) {\r... */\n      pop\n    tag_241:\n        /* \"BasicEnzian.sol\":5508:5538  uint[] memory requiredTasksIds */\n      0x00\n        /* \"BasicEnzian.sol\":5541:5546  tasks */\n      dup1\n        /* \"BasicEnzian.sol\":5541:5554  tasks[taskId] */\n      0x00\n        /* \"BasicEnzian.sol\":5547:5553  taskId */\n      dup8\n        /* \"BasicEnzian.sol\":5541:5554  tasks[taskId] */\n      dup2\n      mstore\n      0x20\n      add\n      swap1\n      dup2\n      mstore\n      0x20\n      add\n      0x00\n      keccak256\n        /* \"BasicEnzian.sol\":5541:5567  tasks[taskId].requirements */\n      0x02\n      add\n        /* \"BasicEnzian.sol\":5508:5567  uint[] memory requiredTasksIds = tasks[taskId].requirements */\n      dup1\n      sload\n      dup1\n      0x20\n      mul\n      0x20\n      add\n      mload(0x40)\n      swap1\n      dup2\n      add\n      0x40\n      mstore\n      dup1\n      swap3\n      swap2\n      swap1\n      dup2\n      dup2\n      mstore\n      0x20\n      add\n      dup3\n      dup1\n      sload\n      dup1\n      iszero\n      tag_264\n      jumpi\n      0x20\n      mul\n      dup3\n      add\n      swap2\n      swap1\n      0x00\n      mstore\n      keccak256(0x00, 0x20)\n      swap1\n    tag_265:\n      dup2\n      sload\n      dup2\n      mstore\n      0x20\n      add\n      swap1\n      0x01\n      add\n      swap1\n      dup1\n      dup4\n      gt\n      tag_265\n      jumpi\n    tag_264:\n      pop\n      pop\n      pop\n      pop\n      pop\n      swap1\n      pop\n        /* \"BasicEnzian.sol\":5609:5610  0 */\n      0x00\n        /* \"BasicEnzian.sol\":5582:5598  requiredTasksIds */\n      dup2\n        /* \"BasicEnzian.sol\":5582:5605  requiredTasksIds.length */\n      mload\n        /* \"BasicEnzian.sol\":5582:5610  requiredTasksIds.length == 0 */\n      eq\n        /* \"BasicEnzian.sol\":5578:7937  if (requiredTasksIds.length == 0) {\r... */\n      iszero\n      tag_266\n      jumpi\n        /* \"BasicEnzian.sol\":5639:5643  true */\n      0x01\n        /* \"BasicEnzian.sol\":5629:5643  success = true */\n      swap5\n      pop\n        /* \"BasicEnzian.sol\":5578:7937  if (requiredTasksIds.length == 0) {\r... */\n      jump(tag_267)\n    tag_266:\n        /* \"BasicEnzian.sol\":5687:5706  GatewayType gateway */\n      0x00\n        /* \"BasicEnzian.sol\":5709:5714  tasks */\n      dup1\n        /* \"BasicEnzian.sol\":5709:5722  tasks[taskId] */\n      0x00\n        /* \"BasicEnzian.sol\":5715:5721  taskId */\n      dup9\n        /* \"BasicEnzian.sol\":5709:5722  tasks[taskId] */\n      dup2\n      mstore\n      0x20\n      add\n      swap1\n      dup2\n      mstore\n      0x20\n      add\n      0x00\n      keccak256\n        /* \"BasicEnzian.sol\":5709:5747  tasks[taskId].preceedingMergingGateway */\n      0x01\n      add\n      0x15\n      swap1\n      sload\n      swap1\n      0x0100\n      exp\n      swap1\n      div\n      0xff\n      and\n        /* \"BasicEnzian.sol\":5687:5747  GatewayType gateway = tasks[taskId].preceedingMergingGateway */\n      swap1\n      pop\n        /* \"BasicEnzian.sol\":5791:5807  GatewayType.NONE */\n      0x00\n        /* \"BasicEnzian.sol\":5780:5807  gateway == GatewayType.NONE */\n      0x03\n      dup2\n      gt\n      iszero\n      tag_268\n      jumpi\n      mstore(0x00, 0x4e487b7100000000000000000000000000000000000000000000000000000000)\n      mstore(0x04, 0x21)\n      revert(0x00, 0x24)\n    tag_268:\n        /* \"BasicEnzian.sol\":5780:5787  gateway */\n      dup2\n        /* \"BasicEnzian.sol\":5780:5807  gateway == GatewayType.NONE */\n      0x03\n      dup2\n      gt\n      iszero\n      tag_269\n      jumpi\n      mstore(0x00, 0x4e487b7100000000000000000000000000000000000000000000000000000000)\n      mstore(0x04, 0x21)\n      revert(0x00, 0x24)\n    tag_269:\n      eq\n        /* \"BasicEnzian.sol\":5776:7906  if (gateway == GatewayType.NONE) {\r... */\n      iszero\n      tag_270\n      jumpi\n        /* \"BasicEnzian.sol\":5876:5880  true */\n      0x01\n        /* \"BasicEnzian.sol\":5832:5880  isTaskCompletedById(requiredTasksIds[0]) == true */\n      iszero\n      iszero\n        /* \"BasicEnzian.sol\":5832:5872  isTaskCompletedById(requiredTasksIds[0]) */\n      tag_271\n        /* \"BasicEnzian.sol\":5852:5868  requiredTasksIds */\n      dup4\n        /* \"BasicEnzian.sol\":5869:5870  0 */\n      0x00\n        /* \"BasicEnzian.sol\":5852:5871  requiredTasksIds[0] */\n      dup2\n      mload\n      dup2\n      lt\n      tag_272\n      jumpi\n      mstore(0x00, 0x4e487b7100000000000000000000000000000000000000000000000000000000)\n      mstore(0x04, 0x32)\n      revert(0x00, 0x24)\n    tag_272:\n      0x20\n      mul\n      0x20\n      add\n      add\n      mload\n        /* \"BasicEnzian.sol\":5832:5851  isTaskCompletedById */\n      tag_87\n        /* \"BasicEnzian.sol\":5832:5872  isTaskCompletedById(requiredTasksIds[0]) */\n      jump\t// in\n    tag_271:\n        /* \"BasicEnzian.sol\":5832:5880  isTaskCompletedById(requiredTasksIds[0]) == true */\n      iszero\n      iszero\n      eq\n        /* \"BasicEnzian.sol\":5828:5939  if (isTaskCompletedById(requiredTasksIds[0]) == true) {\r... */\n      iszero\n      tag_273\n      jumpi\n        /* \"BasicEnzian.sol\":5915:5919  true */\n      0x01\n        /* \"BasicEnzian.sol\":5905:5919  success = true */\n      swap6\n      pop\n        /* \"BasicEnzian.sol\":5828:5939  if (isTaskCompletedById(requiredTasksIds[0]) == true) {\r... */\n    tag_273:\n        /* \"BasicEnzian.sol\":5776:7906  if (gateway == GatewayType.NONE) {\r... */\n      jump(tag_274)\n    tag_270:\n        /* \"BasicEnzian.sol\":5994:6020  uint fulfilledRequirements */\n      0x00\n        /* \"BasicEnzian.sol\":6100:6106  uint i */\n      dup1\n        /* \"BasicEnzian.sol\":6109:6110  0 */\n      0x00\n        /* \"BasicEnzian.sol\":6100:6110  uint i = 0 */\n      swap1\n      pop\n        /* \"BasicEnzian.sol\":6095:6316  for (uint i = 0; i < requiredTasksIds.length; i++) {\r... */\n    tag_275:\n        /* \"BasicEnzian.sol\":6116:6132  requiredTasksIds */\n      dup4\n        /* \"BasicEnzian.sol\":6116:6139  requiredTasksIds.length */\n      mload\n        /* \"BasicEnzian.sol\":6112:6113  i */\n      dup2\n        /* \"BasicEnzian.sol\":6112:6139  i < requiredTasksIds.length */\n      lt\n        /* \"BasicEnzian.sol\":6095:6316  for (uint i = 0; i < requiredTasksIds.length; i++) {\r... */\n      iszero\n      tag_276\n      jumpi\n        /* \"BasicEnzian.sol\":6217:6221  true */\n      0x01\n        /* \"BasicEnzian.sol\":6173:6221  isTaskCompletedById(requiredTasksIds[i]) == true */\n      iszero\n      iszero\n        /* \"BasicEnzian.sol\":6173:6213  isTaskCompletedById(requiredTasksIds[i]) */\n      tag_278\n        /* \"BasicEnzian.sol\":6193:6209  requiredTasksIds */\n      dup6\n        /* \"BasicEnzian.sol\":6210:6211  i */\n      dup4\n        /* \"BasicEnzian.sol\":6193:6212  requiredTasksIds[i] */\n      dup2\n      mload\n      dup2\n      lt\n      tag_279\n      jumpi\n      mstore(0x00, 0x4e487b7100000000000000000000000000000000000000000000000000000000)\n      mstore(0x04, 0x32)\n      revert(0x00, 0x24)\n    tag_279:\n      0x20\n      mul\n      0x20\n      add\n      add\n      mload\n        /* \"BasicEnzian.sol\":6173:6192  isTaskCompletedById */\n      tag_87\n        /* \"BasicEnzian.sol\":6173:6213  isTaskCompletedById(requiredTasksIds[i]) */\n      jump\t// in\n    tag_278:\n        /* \"BasicEnzian.sol\":6173:6221  isTaskCompletedById(requiredTasksIds[i]) == true */\n      iszero\n      iszero\n      eq\n        /* \"BasicEnzian.sol\":6169:6297  if (isTaskCompletedById(requiredTasksIds[i]) == true) {\r... */\n      iszero\n      tag_280\n      jumpi\n        /* \"BasicEnzian.sol\":6250:6273  fulfilledRequirements++ */\n      dup2\n      dup1\n      tag_281\n      swap1\n      tag_282\n      jump\t// in\n    tag_281:\n      swap3\n      pop\n      pop\n        /* \"BasicEnzian.sol\":6169:6297  if (isTaskCompletedById(requiredTasksIds[i]) == true) {\r... */\n    tag_280:\n        /* \"BasicEnzian.sol\":6141:6144  i++ */\n      dup1\n      dup1\n      tag_283\n      swap1\n      tag_282\n      jump\t// in\n    tag_283:\n      swap2\n      pop\n      pop\n        /* \"BasicEnzian.sol\":6095:6316  for (uint i = 0; i < requiredTasksIds.length; i++) {\r... */\n      jump(tag_275)\n    tag_276:\n      pop\n        /* \"BasicEnzian.sol\":6366:6381  GatewayType.AND */\n      0x01\n        /* \"BasicEnzian.sol\":6355:6381  gateway == GatewayType.AND */\n      0x03\n      dup2\n      gt\n      iszero\n      tag_284\n      jumpi\n      mstore(0x00, 0x4e487b7100000000000000000000000000000000000000000000000000000000)\n      mstore(0x04, 0x21)\n      revert(0x00, 0x24)\n    tag_284:\n        /* \"BasicEnzian.sol\":6355:6362  gateway */\n      dup3\n        /* \"BasicEnzian.sol\":6355:6381  gateway == GatewayType.AND */\n      0x03\n      dup2\n      gt\n      iszero\n      tag_285\n      jumpi\n      mstore(0x00, 0x4e487b7100000000000000000000000000000000000000000000000000000000)\n      mstore(0x04, 0x21)\n      revert(0x00, 0x24)\n    tag_285:\n      eq\n        /* \"BasicEnzian.sol\":6352:7862  if(gateway == GatewayType.AND) {\r... */\n      iszero\n      tag_286\n      jumpi\n        /* \"BasicEnzian.sol\":6504:6520  requiredTasksIds */\n      dup3\n        /* \"BasicEnzian.sol\":6504:6527  requiredTasksIds.length */\n      mload\n        /* \"BasicEnzian.sol\":6479:6500  fulfilledRequirements */\n      dup2\n        /* \"BasicEnzian.sol\":6479:6527  fulfilledRequirements == requiredTasksIds.length */\n      eq\n        /* \"BasicEnzian.sol\":6475:6593  if (fulfilledRequirements == requiredTasksIds.length) {\r... */\n      iszero\n      tag_287\n      jumpi\n        /* \"BasicEnzian.sol\":6565:6569  true */\n      0x01\n        /* \"BasicEnzian.sol\":6555:6569  success = true */\n      swap7\n      pop\n        /* \"BasicEnzian.sol\":6475:6593  if (fulfilledRequirements == requiredTasksIds.length) {\r... */\n    tag_287:\n        /* \"BasicEnzian.sol\":6352:7862  if(gateway == GatewayType.AND) {\r... */\n      jump(tag_288)\n    tag_286:\n        /* \"BasicEnzian.sol\":6848:6862  GatewayType.OR */\n      0x02\n        /* \"BasicEnzian.sol\":6837:6862  gateway == GatewayType.OR */\n      0x03\n      dup2\n      gt\n      iszero\n      tag_289\n      jumpi\n      mstore(0x00, 0x4e487b7100000000000000000000000000000000000000000000000000000000)\n      mstore(0x04, 0x21)\n      revert(0x00, 0x24)\n    tag_289:\n        /* \"BasicEnzian.sol\":6837:6844  gateway */\n      dup3\n        /* \"BasicEnzian.sol\":6837:6862  gateway == GatewayType.OR */\n      0x03\n      dup2\n      gt\n      iszero\n      tag_290\n      jumpi\n      mstore(0x00, 0x4e487b7100000000000000000000000000000000000000000000000000000000)\n      mstore(0x04, 0x21)\n      revert(0x00, 0x24)\n    tag_290:\n      eq\n        /* \"BasicEnzian.sol\":6834:7821  if(gateway == GatewayType.OR) {\r... */\n      iszero\n      tag_291\n      jumpi\n        /* \"BasicEnzian.sol\":6997:7001  true */\n      0x01\n        /* \"BasicEnzian.sol\":6987:7001  success = true */\n      swap7\n      pop\n        /* \"BasicEnzian.sol\":6834:7821  if(gateway == GatewayType.OR) {\r... */\n      jump(tag_292)\n    tag_291:\n        /* \"BasicEnzian.sol\":7066:7081  GatewayType.XOR */\n      0x03\n        /* \"BasicEnzian.sol\":7055:7081  gateway == GatewayType.XOR */\n      dup1\n      dup2\n      gt\n      iszero\n      tag_293\n      jumpi\n      mstore(0x00, 0x4e487b7100000000000000000000000000000000000000000000000000000000)\n      mstore(0x04, 0x21)\n      revert(0x00, 0x24)\n    tag_293:\n        /* \"BasicEnzian.sol\":7055:7062  gateway */\n      dup3\n        /* \"BasicEnzian.sol\":7055:7081  gateway == GatewayType.XOR */\n      0x03\n      dup2\n      gt\n      iszero\n      tag_294\n      jumpi\n      mstore(0x00, 0x4e487b7100000000000000000000000000000000000000000000000000000000)\n      mstore(0x04, 0x21)\n      revert(0x00, 0x24)\n    tag_294:\n      eq\n        /* \"BasicEnzian.sol\":7052:7821  if(gateway == GatewayType.XOR) {\r... */\n      iszero\n      tag_295\n      jumpi\n        /* \"BasicEnzian.sol\":7116:7122  uint i */\n      0x00\n        /* \"BasicEnzian.sol\":7111:7795  for (uint i = 0; i < requiredTasksIds.length; i++) {\r... */\n    tag_296:\n        /* \"BasicEnzian.sol\":7132:7148  requiredTasksIds */\n      dup4\n        /* \"BasicEnzian.sol\":7132:7155  requiredTasksIds.length */\n      mload\n        /* \"BasicEnzian.sol\":7128:7129  i */\n      dup2\n        /* \"BasicEnzian.sol\":7128:7155  i < requiredTasksIds.length */\n      lt\n        /* \"BasicEnzian.sol\":7111:7795  for (uint i = 0; i < requiredTasksIds.length; i++) {\r... */\n      iszero\n      tag_297\n      jumpi\n        /* \"BasicEnzian.sol\":7504:7511  enabled */\n      0x03\n        /* \"BasicEnzian.sol\":7504:7532  enabled[requiredTasksIds[i]] */\n      0x00\n        /* \"BasicEnzian.sol\":7512:7528  requiredTasksIds */\n      dup6\n        /* \"BasicEnzian.sol\":7529:7530  i */\n      dup4\n        /* \"BasicEnzian.sol\":7512:7531  requiredTasksIds[i] */\n      dup2\n      mload\n      dup2\n      lt\n      tag_299\n      jumpi\n      mstore(0x00, 0x4e487b7100000000000000000000000000000000000000000000000000000000)\n      mstore(0x04, 0x32)\n      revert(0x00, 0x24)\n    tag_299:\n      0x20\n      mul\n      0x20\n      add\n      add\n      mload\n        /* \"BasicEnzian.sol\":7504:7532  enabled[requiredTasksIds[i]] */\n      dup2\n      mstore\n      0x20\n      add\n      swap1\n      dup2\n      mstore\n      0x20\n      add\n      0x00\n      keccak256\n      0x00\n      swap1\n      sload\n      swap1\n      0x0100\n      exp\n      swap1\n      div\n      0xff\n      and\n        /* \"BasicEnzian.sol\":7500:7768  if (enabled[requiredTasksIds[i]]) {\r... */\n      iszero\n      tag_300\n      jumpi\n        /* \"BasicEnzian.sol\":7579:7585  taskId */\n      dup9\n        /* \"BasicEnzian.sol\":7574:7586  Test(taskId) */\n      0x63a242a632efe33c0e210e04e4173612a17efa4f16aa4890bc7e46caece80de0\n      mload(0x40)\n      mload(0x40)\n      dup1\n      swap2\n      sub\n      swap1\n      log2\n        /* \"BasicEnzian.sol\":7631:7647  requiredTasksIds */\n      dup4\n        /* \"BasicEnzian.sol\":7648:7649  i */\n      dup2\n        /* \"BasicEnzian.sol\":7631:7650  requiredTasksIds[i] */\n      dup2\n      mload\n      dup2\n      lt\n      tag_301\n      jumpi\n      mstore(0x00, 0x4e487b7100000000000000000000000000000000000000000000000000000000)\n      mstore(0x04, 0x32)\n      revert(0x00, 0x24)\n    tag_301:\n      0x20\n      mul\n      0x20\n      add\n      add\n      mload\n        /* \"BasicEnzian.sol\":7626:7651  Test(requiredTasksIds[i]) */\n      0x63a242a632efe33c0e210e04e4173612a17efa4f16aa4890bc7e46caece80de0\n      mload(0x40)\n      mload(0x40)\n      dup1\n      swap2\n      sub\n      swap1\n      log2\n        /* \"BasicEnzian.sol\":7696:7736  isTaskCompletedById(requiredTasksIds[i]) */\n      tag_302\n        /* \"BasicEnzian.sol\":7716:7732  requiredTasksIds */\n      dup5\n        /* \"BasicEnzian.sol\":7733:7734  i */\n      dup3\n        /* \"BasicEnzian.sol\":7716:7735  requiredTasksIds[i] */\n      dup2\n      mload\n      dup2\n      lt\n      tag_303\n      jumpi\n      mstore(0x00, 0x4e487b7100000000000000000000000000000000000000000000000000000000)\n      mstore(0x04, 0x32)\n      revert(0x00, 0x24)\n    tag_303:\n      0x20\n      mul\n      0x20\n      add\n      add\n      mload\n        /* \"BasicEnzian.sol\":7696:7715  isTaskCompletedById */\n      tag_87\n        /* \"BasicEnzian.sol\":7696:7736  isTaskCompletedById(requiredTasksIds[i]) */\n      jump\t// in\n    tag_302:\n        /* \"BasicEnzian.sol\":7686:7736  success = isTaskCompletedById(requiredTasksIds[i]) */\n      swap8\n      pop\n        /* \"BasicEnzian.sol\":7500:7768  if (enabled[requiredTasksIds[i]]) {\r... */\n    tag_300:\n        /* \"BasicEnzian.sol\":7157:7160  i++ */\n      dup1\n      dup1\n      tag_304\n      swap1\n      tag_282\n      jump\t// in\n    tag_304:\n      swap2\n      pop\n      pop\n        /* \"BasicEnzian.sol\":7111:7795  for (uint i = 0; i < requiredTasksIds.length; i++) {\r... */\n      jump(tag_296)\n    tag_297:\n      pop\n        /* \"BasicEnzian.sol\":7052:7821  if(gateway == GatewayType.XOR) {\r... */\n    tag_295:\n        /* \"BasicEnzian.sol\":6834:7821  if(gateway == GatewayType.OR) {\r... */\n    tag_292:\n        /* \"BasicEnzian.sol\":6352:7862  if(gateway == GatewayType.AND) {\r... */\n    tag_288:\n        /* \"BasicEnzian.sol\":5776:7906  if (gateway == GatewayType.NONE) {\r... */\n      pop\n    tag_274:\n        /* \"BasicEnzian.sol\":5578:7937  if (requiredTasksIds.length == 0) {\r... */\n      pop\n    tag_267:\n        /* \"BasicEnzian.sol\":7960:7967  success */\n      dup5\n        /* \"BasicEnzian.sol\":7957:8730  if(success) {\r... */\n      iszero\n      tag_305\n      jumpi\n        /* \"BasicEnzian.sol\":7987:7992  tasks */\n      0x00\n        /* \"BasicEnzian.sol\":7987:8000  tasks[taskId] */\n      dup1\n        /* \"BasicEnzian.sol\":7993:7999  taskId */\n      dup8\n        /* \"BasicEnzian.sol\":7987:8000  tasks[taskId] */\n      dup2\n      mstore\n      0x20\n      add\n      swap1\n      dup2\n      mstore\n      0x20\n      add\n      0x00\n      keccak256\n        /* \"BasicEnzian.sol\":7987:8009  tasks[taskId].decision */\n      0x04\n      add\n        /* \"BasicEnzian.sol\":7987:8016  tasks[taskId].decision.exists */\n      0x01\n      add\n      0x03\n      swap1\n      sload\n      swap1\n      0x0100\n      exp\n      swap1\n      div\n      0xff\n      and\n        /* \"BasicEnzian.sol\":7984:8462  if(tasks[taskId].decision.exists) {\r... */\n      iszero\n      tag_306\n      jumpi\n        /* \"BasicEnzian.sol\":8056:8060  true */\n      0x01\n        /* \"BasicEnzian.sol\":8037:8044  enabled */\n      0x03\n        /* \"BasicEnzian.sol\":8037:8053  enabled[endBoss] */\n      0x00\n        /* \"BasicEnzian.sol\":8045:8052  endBoss */\n      dup7\n        /* \"BasicEnzian.sol\":8037:8053  enabled[endBoss] */\n      dup2\n      mstore\n      0x20\n      add\n      swap1\n      dup2\n      mstore\n      0x20\n      add\n      0x00\n      keccak256\n      0x00\n        /* \"BasicEnzian.sol\":8037:8060  enabled[endBoss] = true */\n      0x0100\n      exp\n      dup2\n      sload\n      dup2\n      0xff\n      mul\n      not\n      and\n      swap1\n      dup4\n      iszero\n      iszero\n      mul\n      or\n      swap1\n      sstore\n      pop\n        /* \"BasicEnzian.sol\":8091:8095  1100 */\n      0x044c\n        /* \"BasicEnzian.sol\":8086:8096  Test(1100) */\n      0x63a242a632efe33c0e210e04e4173612a17efa4f16aa4890bc7e46caece80de0\n      mload(0x40)\n      mload(0x40)\n      dup1\n      swap2\n      sub\n      swap1\n      log2\n        /* \"BasicEnzian.sol\":8125:8132  thetask */\n      dup3\n        /* \"BasicEnzian.sol\":8125:8144  thetask.competitors */\n      0xa0\n      add\n      mload\n        /* \"BasicEnzian.sol\":8125:8151  thetask.competitors.length */\n      mload\n        /* \"BasicEnzian.sol\":8120:8152  Test(thetask.competitors.length) */\n      0x63a242a632efe33c0e210e04e4173612a17efa4f16aa4890bc7e46caece80de0\n      mload(0x40)\n      mload(0x40)\n      dup1\n      swap2\n      sub\n      swap1\n      log2\n        /* \"BasicEnzian.sol\":8205:8211  uint i */\n      0x00\n        /* \"BasicEnzian.sol\":8200:8438  for (uint i = 0; i < thetask.competitors.length; i++) {\r... */\n    tag_307:\n        /* \"BasicEnzian.sol\":8221:8228  thetask */\n      dup4\n        /* \"BasicEnzian.sol\":8221:8240  thetask.competitors */\n      0xa0\n      add\n      mload\n        /* \"BasicEnzian.sol\":8221:8247  thetask.competitors.length */\n      mload\n        /* \"BasicEnzian.sol\":8217:8218  i */\n      dup2\n        /* \"BasicEnzian.sol\":8217:8247  i < thetask.competitors.length */\n      lt\n        /* \"BasicEnzian.sol\":8200:8438  for (uint i = 0; i < thetask.competitors.length; i++) {\r... */\n      iszero\n      tag_308\n      jumpi\n        /* \"BasicEnzian.sol\":8287:8288  i */\n      dup1\n        /* \"BasicEnzian.sol\":8282:8289  Test(i) */\n      0x63a242a632efe33c0e210e04e4173612a17efa4f16aa4890bc7e46caece80de0\n      mload(0x40)\n      mload(0x40)\n      dup1\n      swap2\n      sub\n      swap1\n      log2\n        /* \"BasicEnzian.sol\":8322:8329  thetask */\n      dup4\n        /* \"BasicEnzian.sol\":8322:8341  thetask.competitors */\n      0xa0\n      add\n      mload\n        /* \"BasicEnzian.sol\":8342:8343  i */\n      dup2\n        /* \"BasicEnzian.sol\":8322:8344  thetask.competitors[i] */\n      dup2\n      mload\n      dup2\n      lt\n      tag_310\n      jumpi\n      mstore(0x00, 0x4e487b7100000000000000000000000000000000000000000000000000000000)\n      mstore(0x04, 0x32)\n      revert(0x00, 0x24)\n    tag_310:\n      0x20\n      mul\n      0x20\n      add\n      add\n      mload\n        /* \"BasicEnzian.sol\":8317:8345  Test(thetask.competitors[i]) */\n      0x63a242a632efe33c0e210e04e4173612a17efa4f16aa4890bc7e46caece80de0\n      mload(0x40)\n      mload(0x40)\n      dup1\n      swap2\n      sub\n      swap1\n      log2\n        /* \"BasicEnzian.sol\":8414:8418  true */\n      0x01\n        /* \"BasicEnzian.sol\":8370:8375  tasks */\n      0x00\n        /* \"BasicEnzian.sol\":8370:8401  tasks[(thetask.competitors[i])] */\n      dup1\n        /* \"BasicEnzian.sol\":8377:8384  thetask */\n      dup7\n        /* \"BasicEnzian.sol\":8377:8396  thetask.competitors */\n      0xa0\n      add\n      mload\n        /* \"BasicEnzian.sol\":8397:8398  i */\n      dup5\n        /* \"BasicEnzian.sol\":8377:8399  thetask.competitors[i] */\n      dup2\n      mload\n      dup2\n      lt\n      tag_311\n      jumpi\n      mstore(0x00, 0x4e487b7100000000000000000000000000000000000000000000000000000000)\n      mstore(0x04, 0x32)\n      revert(0x00, 0x24)\n    tag_311:\n      0x20\n      mul\n      0x20\n      add\n      add\n      mload\n        /* \"BasicEnzian.sol\":8370:8401  tasks[(thetask.competitors[i])] */\n      dup2\n      mstore\n      0x20\n      add\n      swap1\n      dup2\n      mstore\n      0x20\n      add\n      0x00\n      keccak256\n        /* \"BasicEnzian.sol\":8370:8411  tasks[(thetask.competitors[i])].completed */\n      0x01\n      add\n      0x14\n        /* \"BasicEnzian.sol\":8370:8418  tasks[(thetask.competitors[i])].completed = true */\n      0x0100\n      exp\n      dup2\n      sload\n      dup2\n      0xff\n      mul\n      not\n      and\n      swap1\n      dup4\n      iszero\n      iszero\n      mul\n      or\n      swap1\n      sstore\n      pop\n        /* \"BasicEnzian.sol\":8249:8252  i++ */\n      dup1\n      dup1\n      tag_312\n      swap1\n      tag_282\n      jump\t// in\n    tag_312:\n      swap2\n      pop\n      pop\n        /* \"BasicEnzian.sol\":8200:8438  for (uint i = 0; i < thetask.competitors.length; i++) {\r... */\n      jump(tag_307)\n    tag_308:\n      pop\n        /* \"BasicEnzian.sol\":7984:8462  if(tasks[taskId].decision.exists) {\r... */\n    tag_306:\n        /* \"BasicEnzian.sol\":8478:8497  debugStringeventLog */\n      0x05\n        /* \"BasicEnzian.sol\":8503:8510  thetask */\n      dup4\n        /* \"BasicEnzian.sol\":8503:8519  thetask.activity */\n      0x00\n      add\n      mload\n        /* \"BasicEnzian.sol\":8478:8520  debugStringeventLog.push(thetask.activity) */\n      swap1\n      dup1\n      0x01\n      dup2\n      sload\n      add\n      dup1\n      dup3\n      sstore\n      dup1\n      swap2\n      pop\n      pop\n      0x01\n      swap1\n      sub\n      swap1\n      0x00\n      mstore\n      keccak256(0x00, 0x20)\n      add\n      0x00\n      swap1\n      swap2\n      swap1\n      swap2\n      swap1\n      swap2\n      pop\n      swap1\n      dup1\n      mload\n      swap1\n      0x20\n      add\n      swap1\n      tag_314\n      swap3\n      swap2\n      swap1\n      tag_146\n      jump\t// in\n    tag_314:\n      pop\n        /* \"BasicEnzian.sol\":8565:8569  true */\n      0x01\n        /* \"BasicEnzian.sol\":8539:8544  tasks */\n      0x00\n        /* \"BasicEnzian.sol\":8539:8552  tasks[taskId] */\n      dup1\n        /* \"BasicEnzian.sol\":8545:8551  taskId */\n      dup9\n        /* \"BasicEnzian.sol\":8539:8552  tasks[taskId] */\n      dup2\n      mstore\n      0x20\n      add\n      swap1\n      dup2\n      mstore\n      0x20\n      add\n      0x00\n      keccak256\n        /* \"BasicEnzian.sol\":8539:8562  tasks[taskId].completed */\n      0x01\n      add\n      0x14\n        /* \"BasicEnzian.sol\":8539:8569  tasks[taskId].completed = true */\n      0x0100\n      exp\n      dup2\n      sload\n      dup2\n      0xff\n      mul\n      not\n      and\n      swap1\n      dup4\n      iszero\n      iszero\n      mul\n      or\n      swap1\n      sstore\n      pop\n        /* \"BasicEnzian.sol\":8584:8599  theRealEventLog */\n      0x04\n        /* \"BasicEnzian.sol\":8605:8611  taskId */\n      dup7\n        /* \"BasicEnzian.sol\":8584:8612  theRealEventLog.push(taskId) */\n      swap1\n      dup1\n      0x01\n      dup2\n      sload\n      add\n      dup1\n      dup3\n      sstore\n      dup1\n      swap2\n      pop\n      pop\n      0x01\n      swap1\n      sub\n      swap1\n      0x00\n      mstore\n      keccak256(0x00, 0x20)\n      add\n      0x00\n      swap1\n      swap2\n      swap1\n      swap2\n      swap1\n      swap2\n      pop\n      sstore\n        /* \"BasicEnzian.sol\":8646:8650  true */\n      0x01\n        /* \"BasicEnzian.sol\":8632:8651  TaskCompleted(true) */\n      iszero\n      iszero\n      0xacd30b4f9fd5868793e13ffb506f03374a23d9feba1249ac2cc7b0fe024ff4ba\n      mload(0x40)\n      mload(0x40)\n      dup1\n      swap2\n      sub\n      swap1\n      log2\n        /* \"BasicEnzian.sol\":7957:8730  if(success) {\r... */\n      jump(tag_316)\n    tag_305:\n        /* \"BasicEnzian.sol\":8712:8717  false */\n      0x00\n        /* \"BasicEnzian.sol\":8698:8718  TaskCompleted(false) */\n      iszero\n      iszero\n      0xacd30b4f9fd5868793e13ffb506f03374a23d9feba1249ac2cc7b0fe024ff4ba\n      mload(0x40)\n      mload(0x40)\n      dup1\n      swap2\n      sub\n      swap1\n      log2\n        /* \"BasicEnzian.sol\":7957:8730  if(success) {\r... */\n    tag_316:\n        /* \"BasicEnzian.sol\":8750:8764  return success */\n      pop\n      pop\n      pop\n      pop\n        /* \"BasicEnzian.sol\":4730:8782  function completing(uint taskId) public returns (bool success){\r... */\n      swap2\n      swap1\n      pop\n      jump\t// out\n        /* \"BasicEnzian.sol\":8794:8968  function evaluateTest(int i1, int[] memory i2, DecisionLibrary.Operator op) public pure returns (bool equality) {\r... */\n    tag_96:\n        /* \"BasicEnzian.sol\":8891:8904  bool equality */\n      0x00\n        /* \"BasicEnzian.sol\":8924:8939  DecisionLibrary */\n      linkerSymbol(\"80c56c7074f1c42024adf49f5dc2b40495aa8bbb68c1dca7ae61973c3346d226\")\n        /* \"BasicEnzian.sol\":8924:8948  DecisionLibrary.evaluate */\n      0xe1df7ad6\n        /* \"BasicEnzian.sol\":8949:8951  i1 */\n      dup6\n        /* \"BasicEnzian.sol\":8953:8955  i2 */\n      dup6\n        /* \"BasicEnzian.sol\":8957:8959  op */\n      dup6\n        /* \"BasicEnzian.sol\":8924:8960  DecisionLibrary.evaluate(i1, i2, op) */\n      mload(0x40)\n      dup5\n      0xffffffff\n      and\n      0xe0\n      shl\n      dup2\n      mstore\n      0x04\n      add\n      tag_318\n      swap4\n      swap3\n      swap2\n      swap1\n      tag_135\n      jump\t// in\n    tag_318:\n      0x20\n      mload(0x40)\n      dup1\n      dup4\n      sub\n      dup2\n      dup7\n      dup1\n      extcodesize\n      iszero\n      dup1\n      iszero\n      tag_319\n      jumpi\n      0x00\n      dup1\n      revert\n    tag_319:\n      pop\n      gas\n      delegatecall\n      iszero\n      dup1\n      iszero\n      tag_321\n      jumpi\n      returndatasize\n      0x00\n      dup1\n      returndatacopy\n      revert(0x00, returndatasize)\n    tag_321:\n      pop\n      pop\n      pop\n      pop\n      mload(0x40)\n      returndatasize\n      not(0x1f)\n      0x1f\n      dup3\n      add\n      and\n      dup3\n      add\n      dup1\n      0x40\n      mstore\n      pop\n      dup2\n      add\n      swap1\n      tag_322\n      swap2\n      swap1\n      tag_128\n      jump\t// in\n    tag_322:\n        /* \"BasicEnzian.sol\":8917:8960  return DecisionLibrary.evaluate(i1, i2, op) */\n      swap1\n      pop\n        /* \"BasicEnzian.sol\":8794:8968  function evaluateTest(int i1, int[] memory i2, DecisionLibrary.Operator op) public pure returns (bool equality) {\r... */\n      swap4\n      swap3\n      pop\n      pop\n      pop\n      jump\t// out\n        /* \"BasicEnzian.sol\":1324:1380  mapping(string => string) public string_processVariables */\n    tag_100:\n      0x02\n      dup2\n      dup1\n      mload\n      0x20\n      dup2\n      add\n      dup3\n      add\n      dup1\n      mload\n      dup5\n      dup3\n      mstore\n      0x20\n      dup4\n      add\n      0x20\n      dup6\n      add\n      keccak256\n      dup2\n      dup4\n      mstore\n      dup1\n      swap6\n      pop\n      pop\n      pop\n      pop\n      pop\n      pop\n      0x00\n      swap2\n      pop\n      swap1\n      pop\n      dup1\n      sload\n      tag_323\n      swap1\n      tag_117\n      jump\t// in\n    tag_323:\n      dup1\n      0x1f\n      add\n      0x20\n      dup1\n      swap2\n      div\n      mul\n      0x20\n      add\n      mload(0x40)\n      swap1\n      dup2\n      add\n      0x40\n      mstore\n      dup1\n      swap3\n      swap2\n      swap1\n      dup2\n      dup2\n      mstore\n      0x20\n      add\n      dup3\n      dup1\n      sload\n      tag_324\n      swap1\n      tag_117\n      jump\t// in\n    tag_324:\n      dup1\n      iszero\n      tag_325\n      jumpi\n      dup1\n      0x1f\n      lt\n      tag_326\n      jumpi\n      0x0100\n      dup1\n      dup4\n      sload\n      div\n      mul\n      dup4\n      mstore\n      swap2\n      0x20\n      add\n      swap2\n      jump(tag_325)\n    tag_326:\n      dup3\n      add\n      swap2\n      swap1\n      0x00\n      mstore\n      keccak256(0x00, 0x20)\n      swap1\n    tag_327:\n      dup2\n      sload\n      dup2\n      mstore\n      swap1\n      0x01\n      add\n      swap1\n      0x20\n      add\n      dup1\n      dup4\n      gt\n      tag_327\n      jumpi\n      dup3\n      swap1\n      sub\n      0x1f\n      and\n      dup3\n      add\n      swap2\n    tag_325:\n      pop\n      pop\n      pop\n      pop\n      pop\n      dup2\n      jump\t// out\n        /* \"BasicEnzian.sol\":2684:3969  function createTaskWithDecision(\r... */\n    tag_105:\n        /* \"BasicEnzian.sol\":2992:3015  DecisionType.STRINGDESC */\n      0x00\n        /* \"BasicEnzian.sol\":2973:3015  _decision.type_ == DecisionType.STRINGDESC */\n      0x02\n      dup2\n      gt\n      iszero\n      tag_329\n      jumpi\n      mstore(0x00, 0x4e487b7100000000000000000000000000000000000000000000000000000000)\n      mstore(0x04, 0x21)\n      revert(0x00, 0x24)\n    tag_329:\n        /* \"BasicEnzian.sol\":2973:2982  _decision */\n      dup2\n        /* \"BasicEnzian.sol\":2973:2988  _decision.type_ */\n      0x40\n      add\n      mload\n        /* \"BasicEnzian.sol\":2973:3015  _decision.type_ == DecisionType.STRINGDESC */\n      0x02\n      dup2\n      gt\n      iszero\n      tag_330\n      jumpi\n      mstore(0x00, 0x4e487b7100000000000000000000000000000000000000000000000000000000)\n      mstore(0x04, 0x21)\n      revert(0x00, 0x24)\n    tag_330:\n      eq\n        /* \"BasicEnzian.sol\":2970:3231  if(_decision.type_ == DecisionType.STRINGDESC) {\r... */\n      iszero\n      tag_331\n      jumpi\n        /* \"BasicEnzian.sol\":3032:3087  string_processVariables[_decision.processVariable] = \"\" */\n      mload(0x40)\n      dup1\n      0x20\n      add\n      0x40\n      mstore\n      dup1\n      0x00\n      dup2\n      mstore\n      pop\n        /* \"BasicEnzian.sol\":3032:3055  string_processVariables */\n      0x02\n        /* \"BasicEnzian.sol\":3056:3065  _decision */\n      dup3\n        /* \"BasicEnzian.sol\":3056:3081  _decision.processVariable */\n      0xc0\n      add\n      mload\n        /* \"BasicEnzian.sol\":3032:3082  string_processVariables[_decision.processVariable] */\n      mload(0x40)\n      tag_332\n      swap2\n      swap1\n      tag_115\n      jump\t// in\n    tag_332:\n      swap1\n      dup2\n      mstore\n      0x20\n      add\n      mload(0x40)\n      dup1\n      swap2\n      sub\n      swap1\n      keccak256\n        /* \"BasicEnzian.sol\":3032:3087  string_processVariables[_decision.processVariable] = \"\" */\n      swap1\n      dup1\n      mload\n      swap1\n      0x20\n      add\n      swap1\n      tag_333\n      swap3\n      swap2\n      swap1\n      tag_146\n      jump\t// in\n    tag_333:\n      pop\n        /* \"BasicEnzian.sol\":2970:3231  if(_decision.type_ == DecisionType.STRINGDESC) {\r... */\n      jump(tag_334)\n    tag_331:\n        /* \"BasicEnzian.sol\":3127:3147  DecisionType.INTDESC */\n      0x01\n        /* \"BasicEnzian.sol\":3108:3147  _decision.type_ == DecisionType.INTDESC */\n      0x02\n      dup2\n      gt\n      iszero\n      tag_335\n      jumpi\n      mstore(0x00, 0x4e487b7100000000000000000000000000000000000000000000000000000000)\n      mstore(0x04, 0x21)\n      revert(0x00, 0x24)\n    tag_335:\n        /* \"BasicEnzian.sol\":3108:3117  _decision */\n      dup2\n        /* \"BasicEnzian.sol\":3108:3123  _decision.type_ */\n      0x40\n      add\n      mload\n        /* \"BasicEnzian.sol\":3108:3147  _decision.type_ == DecisionType.INTDESC */\n      0x02\n      dup2\n      gt\n      iszero\n      tag_336\n      jumpi\n      mstore(0x00, 0x4e487b7100000000000000000000000000000000000000000000000000000000)\n      mstore(0x04, 0x21)\n      revert(0x00, 0x24)\n    tag_336:\n      eq\n        /* \"BasicEnzian.sol\":3105:3231  if(_decision.type_ == DecisionType.INTDESC) {\r... */\n      iszero\n      tag_337\n      jumpi\n        /* \"BasicEnzian.sol\":3218:3219  0 */\n      0x00\n        /* \"BasicEnzian.sol\":3164:3188  integer_processVariables */\n      0x01\n        /* \"BasicEnzian.sol\":3189:3198  _decision */\n      dup3\n        /* \"BasicEnzian.sol\":3189:3214  _decision.processVariable */\n      0xc0\n      add\n      mload\n        /* \"BasicEnzian.sol\":3164:3215  integer_processVariables[_decision.processVariable] */\n      mload(0x40)\n      tag_338\n      swap2\n      swap1\n      tag_115\n      jump\t// in\n    tag_338:\n      swap1\n      dup2\n      mstore\n      0x20\n      add\n      mload(0x40)\n      dup1\n      swap2\n      sub\n      swap1\n      keccak256\n        /* \"BasicEnzian.sol\":3164:3219  integer_processVariables[_decision.processVariable] = 0 */\n      dup2\n      swap1\n      sstore\n      pop\n        /* \"BasicEnzian.sol\":3105:3231  if(_decision.type_ == DecisionType.INTDESC) {\r... */\n    tag_337:\n        /* \"BasicEnzian.sol\":2970:3231  if(_decision.type_ == DecisionType.STRINGDESC) {\r... */\n    tag_334:\n        /* \"BasicEnzian.sol\":3243:3319  createTask(_id, _activity, _taskresource, _pmg, _requirements, _competitors) */\n      tag_339\n        /* \"BasicEnzian.sol\":3254:3257  _id */\n      dup8\n        /* \"BasicEnzian.sol\":3259:3268  _activity */\n      dup8\n        /* \"BasicEnzian.sol\":3270:3283  _taskresource */\n      dup8\n        /* \"BasicEnzian.sol\":3285:3289  _pmg */\n      dup8\n        /* \"BasicEnzian.sol\":3291:3304  _requirements */\n      dup8\n        /* \"BasicEnzian.sol\":3306:3318  _competitors */\n      dup8\n        /* \"BasicEnzian.sol\":3243:3253  createTask */\n      tag_34\n        /* \"BasicEnzian.sol\":3243:3319  createTask(_id, _activity, _taskresource, _pmg, _requirements, _competitors) */\n      jump\t// in\n    tag_339:\n        /* \"BasicEnzian.sol\":3381:3405  Decision memory myStruct */\n      tag_340\n      tag_341\n      jump\t// in\n    tag_340:\n        /* \"BasicEnzian.sol\":3435:3444  _decision */\n      dup2\n        /* \"BasicEnzian.sol\":3435:3452  _decision.endBoss */\n      0x00\n      add\n      mload\n        /* \"BasicEnzian.sol\":3416:3424  myStruct */\n      dup2\n        /* \"BasicEnzian.sol\":3416:3432  myStruct.endBoss */\n      0x00\n      add\n        /* \"BasicEnzian.sol\":3416:3452  myStruct.endBoss = _decision.endBoss */\n      dup2\n      dup2\n      mstore\n      pop\n      pop\n        /* \"BasicEnzian.sol\":3486:3495  _decision */\n      dup2\n        /* \"BasicEnzian.sol\":3486:3507  _decision.gatewaytype */\n      0x20\n      add\n      mload\n        /* \"BasicEnzian.sol\":3463:3471  myStruct */\n      dup2\n        /* \"BasicEnzian.sol\":3463:3483  myStruct.gatewaytype */\n      0x20\n      add\n        /* \"BasicEnzian.sol\":3463:3507  myStruct.gatewaytype = _decision.gatewaytype */\n      swap1\n      0x03\n      dup2\n      gt\n      iszero\n      tag_342\n      jumpi\n      mstore(0x00, 0x4e487b7100000000000000000000000000000000000000000000000000000000)\n      mstore(0x04, 0x21)\n      revert(0x00, 0x24)\n    tag_342:\n      swap1\n      dup2\n      0x03\n      dup2\n      gt\n      iszero\n      tag_343\n      jumpi\n      mstore(0x00, 0x4e487b7100000000000000000000000000000000000000000000000000000000)\n      mstore(0x04, 0x21)\n      revert(0x00, 0x24)\n    tag_343:\n      dup2\n      mstore\n      pop\n      pop\n        /* \"BasicEnzian.sol\":3535:3544  _decision */\n      dup2\n        /* \"BasicEnzian.sol\":3535:3550  _decision.type_ */\n      0x40\n      add\n      mload\n        /* \"BasicEnzian.sol\":3518:3526  myStruct */\n      dup2\n        /* \"BasicEnzian.sol\":3518:3532  myStruct.type_ */\n      0x40\n      add\n        /* \"BasicEnzian.sol\":3518:3550  myStruct.type_ = _decision.type_ */\n      swap1\n      0x02\n      dup2\n      gt\n      iszero\n      tag_344\n      jumpi\n      mstore(0x00, 0x4e487b7100000000000000000000000000000000000000000000000000000000)\n      mstore(0x04, 0x21)\n      revert(0x00, 0x24)\n    tag_344:\n      swap1\n      dup2\n      0x02\n      dup2\n      gt\n      iszero\n      tag_345\n      jumpi\n      mstore(0x00, 0x4e487b7100000000000000000000000000000000000000000000000000000000)\n      mstore(0x04, 0x21)\n      revert(0x00, 0x24)\n    tag_345:\n      dup2\n      mstore\n      pop\n      pop\n        /* \"BasicEnzian.sol\":3582:3591  _decision */\n      dup2\n        /* \"BasicEnzian.sol\":3582:3601  _decision.completed */\n      0x60\n      add\n      mload\n        /* \"BasicEnzian.sol\":3561:3569  myStruct */\n      dup2\n        /* \"BasicEnzian.sol\":3561:3579  myStruct.completed */\n      0x60\n      add\n        /* \"BasicEnzian.sol\":3561:3601  myStruct.completed = _decision.completed */\n      swap1\n      iszero\n      iszero\n      swap1\n      dup2\n      iszero\n      iszero\n      dup2\n      mstore\n      pop\n      pop\n        /* \"BasicEnzian.sol\":3630:3639  _decision */\n      dup2\n        /* \"BasicEnzian.sol\":3630:3646  _decision.exists */\n      0x80\n      add\n      mload\n        /* \"BasicEnzian.sol\":3612:3620  myStruct */\n      dup2\n        /* \"BasicEnzian.sol\":3612:3627  myStruct.exists */\n      0x80\n      add\n        /* \"BasicEnzian.sol\":3612:3646  myStruct.exists = _decision.exists */\n      swap1\n      iszero\n      iszero\n      swap1\n      dup2\n      iszero\n      iszero\n      dup2\n      mstore\n      pop\n      pop\n        /* \"BasicEnzian.sol\":3677:3686  _decision */\n      dup2\n        /* \"BasicEnzian.sol\":3677:3695  _decision.operator */\n      0xa0\n      add\n      mload\n        /* \"BasicEnzian.sol\":3657:3665  myStruct */\n      dup2\n        /* \"BasicEnzian.sol\":3657:3674  myStruct.operator */\n      0xa0\n      add\n        /* \"BasicEnzian.sol\":3657:3695  myStruct.operator = _decision.operator */\n      swap1\n      0x06\n      dup2\n      gt\n      iszero\n      tag_346\n      jumpi\n      mstore(0x00, 0x4e487b7100000000000000000000000000000000000000000000000000000000)\n      mstore(0x04, 0x21)\n      revert(0x00, 0x24)\n    tag_346:\n      swap1\n      dup2\n      0x06\n      dup2\n      gt\n      iszero\n      tag_347\n      jumpi\n      mstore(0x00, 0x4e487b7100000000000000000000000000000000000000000000000000000000)\n      mstore(0x04, 0x21)\n      revert(0x00, 0x24)\n    tag_347:\n      dup2\n      mstore\n      pop\n      pop\n        /* \"BasicEnzian.sol\":3733:3742  _decision */\n      dup2\n        /* \"BasicEnzian.sol\":3733:3758  _decision.processVariable */\n      0xc0\n      add\n      mload\n        /* \"BasicEnzian.sol\":3706:3714  myStruct */\n      dup2\n        /* \"BasicEnzian.sol\":3706:3730  myStruct.processVariable */\n      0xc0\n      add\n        /* \"BasicEnzian.sol\":3706:3758  myStruct.processVariable = _decision.processVariable */\n      dup2\n      swap1\n      mstore\n      pop\n        /* \"BasicEnzian.sol\":3788:3797  _decision */\n      dup2\n        /* \"BasicEnzian.sol\":3788:3805  _decision.s_value */\n      0xe0\n      add\n      mload\n        /* \"BasicEnzian.sol\":3769:3777  myStruct */\n      dup2\n        /* \"BasicEnzian.sol\":3769:3785  myStruct.s_value */\n      0xe0\n      add\n        /* \"BasicEnzian.sol\":3769:3805  myStruct.s_value = _decision.s_value */\n      dup2\n      swap1\n      mstore\n      pop\n        /* \"BasicEnzian.sol\":3835:3844  _decision */\n      dup2\n        /* \"BasicEnzian.sol\":3835:3852  _decision.i_value */\n      0x0100\n      add\n      mload\n        /* \"BasicEnzian.sol\":3816:3824  myStruct */\n      dup2\n        /* \"BasicEnzian.sol\":3816:3832  myStruct.i_value */\n      0x0100\n      add\n        /* \"BasicEnzian.sol\":3816:3852  myStruct.i_value = _decision.i_value */\n      dup2\n      swap1\n      mstore\n      pop\n        /* \"BasicEnzian.sol\":3891:3899  myStruct */\n      dup1\n        /* \"BasicEnzian.sol\":3868:3873  tasks */\n      0x00\n        /* \"BasicEnzian.sol\":3868:3878  tasks[_id] */\n      dup1\n        /* \"BasicEnzian.sol\":3874:3877  _id */\n      dup11\n        /* \"BasicEnzian.sol\":3868:3878  tasks[_id] */\n      dup2\n      mstore\n      0x20\n      add\n      swap1\n      dup2\n      mstore\n      0x20\n      add\n      0x00\n      keccak256\n        /* \"BasicEnzian.sol\":3868:3887  tasks[_id].decision */\n      0x04\n      add\n        /* \"BasicEnzian.sol\":3868:3900  tasks[_id].decision = (myStruct) */\n      0x00\n      dup3\n      add\n      mload\n      dup2\n      0x00\n      add\n      sstore\n      0x20\n      dup3\n      add\n      mload\n      dup2\n      0x01\n      add\n      exp(0x0100, 0x00)\n      dup2\n      sload\n      dup2\n      0xff\n      mul\n      not\n      and\n      swap1\n      dup4\n      0x03\n      dup2\n      gt\n      iszero\n      tag_348\n      jumpi\n      mstore(0x00, 0x4e487b7100000000000000000000000000000000000000000000000000000000)\n      mstore(0x04, 0x21)\n      revert(0x00, 0x24)\n    tag_348:\n      mul\n      or\n      swap1\n      sstore\n      pop\n      0x40\n      dup3\n      add\n      mload\n      dup2\n      0x01\n      add\n      exp(0x0100, 0x01)\n      dup2\n      sload\n      dup2\n      0xff\n      mul\n      not\n      and\n      swap1\n      dup4\n      0x02\n      dup2\n      gt\n      iszero\n      tag_349\n      jumpi\n      mstore(0x00, 0x4e487b7100000000000000000000000000000000000000000000000000000000)\n      mstore(0x04, 0x21)\n      revert(0x00, 0x24)\n    tag_349:\n      mul\n      or\n      swap1\n      sstore\n      pop\n      0x60\n      dup3\n      add\n      mload\n      dup2\n      0x01\n      add\n      exp(0x0100, 0x02)\n      dup2\n      sload\n      dup2\n      0xff\n      mul\n      not\n      and\n      swap1\n      dup4\n      iszero\n      iszero\n      mul\n      or\n      swap1\n      sstore\n      pop\n      0x80\n      dup3\n      add\n      mload\n      dup2\n      0x01\n      add\n      exp(0x0100, 0x03)\n      dup2\n      sload\n      dup2\n      0xff\n      mul\n      not\n      and\n      swap1\n      dup4\n      iszero\n      iszero\n      mul\n      or\n      swap1\n      sstore\n      pop\n      0xa0\n      dup3\n      add\n      mload\n      dup2\n      0x01\n      add\n      exp(0x0100, 0x04)\n      dup2\n      sload\n      dup2\n      0xff\n      mul\n      not\n      and\n      swap1\n      dup4\n      0x06\n      dup2\n      gt\n      iszero\n      tag_350\n      jumpi\n      mstore(0x00, 0x4e487b7100000000000000000000000000000000000000000000000000000000)\n      mstore(0x04, 0x21)\n      revert(0x00, 0x24)\n    tag_350:\n      mul\n      or\n      swap1\n      sstore\n      pop\n      0xc0\n      dup3\n      add\n      mload\n      dup2\n      0x02\n      add\n      swap1\n      dup1\n      mload\n      swap1\n      0x20\n      add\n      swap1\n      tag_351\n      swap3\n      swap2\n      swap1\n      tag_146\n      jump\t// in\n    tag_351:\n      pop\n      0xe0\n      dup3\n      add\n      mload\n      dup2\n      0x03\n      add\n      swap1\n      dup1\n      mload\n      swap1\n      0x20\n      add\n      swap1\n      tag_352\n      swap3\n      swap2\n      swap1\n      tag_146\n      jump\t// in\n    tag_352:\n      pop\n      0x0100\n      dup3\n      add\n      mload\n      dup2\n      0x04\n      add\n      swap1\n      dup1\n      mload\n      swap1\n      0x20\n      add\n      swap1\n      tag_353\n      swap3\n      swap2\n      swap1\n      tag_157\n      jump\t// in\n    tag_353:\n      pop\n      swap1\n      pop\n      pop\n        /* \"BasicEnzian.sol\":2684:3969  function createTaskWithDecision(\r... */\n      pop\n      pop\n      pop\n      pop\n      pop\n      pop\n      pop\n      pop\n      jump\t// out\n        /* \"BasicEnzian.sol\":4290:4457  function updateStringProcessVariable(string calldata variableName, string calldata newValue) public {\r... */\n    tag_109:\n        /* \"BasicEnzian.sol\":4441:4449  newValue */\n      dup2\n      dup2\n        /* \"BasicEnzian.sol\":4401:4424  string_processVariables */\n      0x02\n        /* \"BasicEnzian.sol\":4425:4437  variableName */\n      dup7\n      dup7\n        /* \"BasicEnzian.sol\":4401:4438  string_processVariables[variableName] */\n      mload(0x40)\n      tag_355\n      swap3\n      swap2\n      swap1\n      tag_160\n      jump\t// in\n    tag_355:\n      swap1\n      dup2\n      mstore\n      0x20\n      add\n      mload(0x40)\n      dup1\n      swap2\n      sub\n      swap1\n      keccak256\n        /* \"BasicEnzian.sol\":4401:4449  string_processVariables[variableName] = newValue */\n      swap2\n      swap1\n      tag_356\n      swap3\n      swap2\n      swap1\n      tag_357\n      jump\t// in\n    tag_356:\n      pop\n        /* \"BasicEnzian.sol\":4290:4457  function updateStringProcessVariable(string calldata variableName, string calldata newValue) public {\r... */\n      pop\n      pop\n      pop\n      pop\n      jump\t// out\n    tag_142:\n      mload(0x40)\n      dup1\n      0xe0\n      add\n      0x40\n      mstore\n      dup1\n      0x60\n      dup2\n      mstore\n      0x20\n      add\n      and(0xffffffffffffffffffffffffffffffffffffffff, 0x00)\n      dup2\n      mstore\n      0x20\n      add\n      iszero(iszero(0x00))\n      dup2\n      mstore\n      0x20\n      add\n      0x00\n      0x03\n      dup2\n      gt\n      iszero\n      tag_358\n      jumpi\n      mstore(0x00, 0x4e487b7100000000000000000000000000000000000000000000000000000000)\n      mstore(0x04, 0x21)\n      revert(0x00, 0x24)\n    tag_358:\n      dup2\n      mstore\n      0x20\n      add\n      0x60\n      dup2\n      mstore\n      0x20\n      add\n      0x60\n      dup2\n      mstore\n      0x20\n      add\n      tag_359\n      tag_341\n      jump\t// in\n    tag_359:\n      dup2\n      mstore\n      pop\n      swap1\n      jump\t// out\n    tag_146:\n      dup3\n      dup1\n      sload\n      tag_360\n      swap1\n      tag_117\n      jump\t// in\n    tag_360:\n      swap1\n      0x00\n      mstore\n      keccak256(0x00, 0x20)\n      swap1\n      0x1f\n      add\n      0x20\n      swap1\n      div\n      dup2\n      add\n      swap3\n      dup3\n      tag_362\n      jumpi\n      0x00\n      dup6\n      sstore\n      jump(tag_361)\n    tag_362:\n      dup3\n      0x1f\n      lt\n      tag_363\n      jumpi\n      dup1\n      mload\n      not(0xff)\n      and\n      dup4\n      dup1\n      add\n      or\n      dup6\n      sstore\n      jump(tag_361)\n    tag_363:\n      dup3\n      dup1\n      add\n      0x01\n      add\n      dup6\n      sstore\n      dup3\n      iszero\n      tag_361\n      jumpi\n      swap2\n      dup3\n      add\n    tag_364:\n      dup3\n      dup2\n      gt\n      iszero\n      tag_365\n      jumpi\n      dup3\n      mload\n      dup3\n      sstore\n      swap2\n      0x20\n      add\n      swap2\n      swap1\n      0x01\n      add\n      swap1\n      jump(tag_364)\n    tag_365:\n    tag_361:\n      pop\n      swap1\n      pop\n      tag_366\n      swap2\n      swap1\n      tag_367\n      jump\t// in\n    tag_366:\n      pop\n      swap1\n      jump\t// out\n    tag_149:\n      dup3\n      dup1\n      sload\n      dup3\n      dup3\n      sstore\n      swap1\n      0x00\n      mstore\n      keccak256(0x00, 0x20)\n      swap1\n      dup2\n      add\n      swap3\n      dup3\n      iszero\n      tag_368\n      jumpi\n      swap2\n      0x20\n      mul\n      dup3\n      add\n    tag_369:\n      dup3\n      dup2\n      gt\n      iszero\n      tag_370\n      jumpi\n      dup3\n      mload\n      dup3\n      sstore\n      swap2\n      0x20\n      add\n      swap2\n      swap1\n      0x01\n      add\n      swap1\n      jump(tag_369)\n    tag_370:\n    tag_368:\n      pop\n      swap1\n      pop\n      tag_371\n      swap2\n      swap1\n      tag_367\n      jump\t// in\n    tag_371:\n      pop\n      swap1\n      jump\t// out\n    tag_157:\n      dup3\n      dup1\n      sload\n      dup3\n      dup3\n      sstore\n      swap1\n      0x00\n      mstore\n      keccak256(0x00, 0x20)\n      swap1\n      dup2\n      add\n      swap3\n      dup3\n      iszero\n      tag_372\n      jumpi\n      swap2\n      0x20\n      mul\n      dup3\n      add\n    tag_373:\n      dup3\n      dup2\n      gt\n      iszero\n      tag_374\n      jumpi\n      dup3\n      mload\n      dup3\n      sstore\n      swap2\n      0x20\n      add\n      swap2\n      swap1\n      0x01\n      add\n      swap1\n      jump(tag_373)\n    tag_374:\n    tag_372:\n      pop\n      swap1\n      pop\n      tag_375\n      swap2\n      swap1\n      tag_376\n      jump\t// in\n    tag_375:\n      pop\n      swap1\n      jump\t// out\n    tag_341:\n      mload(0x40)\n      dup1\n      0x0120\n      add\n      0x40\n      mstore\n      dup1\n      0x00\n      dup2\n      mstore\n      0x20\n      add\n      0x00\n      0x03\n      dup2\n      gt\n      iszero\n      tag_377\n      jumpi\n      mstore(0x00, 0x4e487b7100000000000000000000000000000000000000000000000000000000)\n      mstore(0x04, 0x21)\n      revert(0x00, 0x24)\n    tag_377:\n      dup2\n      mstore\n      0x20\n      add\n      0x00\n      0x02\n      dup2\n      gt\n      iszero\n      tag_378\n      jumpi\n      mstore(0x00, 0x4e487b7100000000000000000000000000000000000000000000000000000000)\n      mstore(0x04, 0x21)\n      revert(0x00, 0x24)\n    tag_378:\n      dup2\n      mstore\n      0x20\n      add\n      iszero(iszero(0x00))\n      dup2\n      mstore\n      0x20\n      add\n      iszero(iszero(0x00))\n      dup2\n      mstore\n      0x20\n      add\n      0x00\n      0x06\n      dup2\n      gt\n      iszero\n      tag_379\n      jumpi\n      mstore(0x00, 0x4e487b7100000000000000000000000000000000000000000000000000000000)\n      mstore(0x04, 0x21)\n      revert(0x00, 0x24)\n    tag_379:\n      dup2\n      mstore\n      0x20\n      add\n      0x60\n      dup2\n      mstore\n      0x20\n      add\n      0x60\n      dup2\n      mstore\n      0x20\n      add\n      0x60\n      dup2\n      mstore\n      pop\n      swap1\n      jump\t// out\n    tag_357:\n      dup3\n      dup1\n      sload\n      tag_380\n      swap1\n      tag_117\n      jump\t// in\n    tag_380:\n      swap1\n      0x00\n      mstore\n      keccak256(0x00, 0x20)\n      swap1\n      0x1f\n      add\n      0x20\n      swap1\n      div\n      dup2\n      add\n      swap3\n      dup3\n      tag_382\n      jumpi\n      0x00\n      dup6\n      sstore\n      jump(tag_381)\n    tag_382:\n      dup3\n      0x1f\n      lt\n      tag_383\n      jumpi\n      dup1\n      calldataload\n      not(0xff)\n      and\n      dup4\n      dup1\n      add\n      or\n      dup6\n      sstore\n      jump(tag_381)\n    tag_383:\n      dup3\n      dup1\n      add\n      0x01\n      add\n      dup6\n      sstore\n      dup3\n      iszero\n      tag_381\n      jumpi\n      swap2\n      dup3\n      add\n    tag_384:\n      dup3\n      dup2\n      gt\n      iszero\n      tag_385\n      jumpi\n      dup3\n      calldataload\n      dup3\n      sstore\n      swap2\n      0x20\n      add\n      swap2\n      swap1\n      0x01\n      add\n      swap1\n      jump(tag_384)\n    tag_385:\n    tag_381:\n      pop\n      swap1\n      pop\n      tag_386\n      swap2\n      swap1\n      tag_367\n      jump\t// in\n    tag_386:\n      pop\n      swap1\n      jump\t// out\n    tag_367:\n    tag_387:\n      dup1\n      dup3\n      gt\n      iszero\n      tag_388\n      jumpi\n      0x00\n      dup2\n      0x00\n      swap1\n      sstore\n      pop\n      0x01\n      add\n      jump(tag_387)\n    tag_388:\n      pop\n      swap1\n      jump\t// out\n    tag_376:\n    tag_389:\n      dup1\n      dup3\n      gt\n      iszero\n      tag_390\n      jumpi\n      0x00\n      dup2\n      0x00\n      swap1\n      sstore\n      pop\n      0x01\n      add\n      jump(tag_389)\n    tag_390:\n      pop\n      swap1\n      jump\t// out\n        /* \"#utility.yul\":23:642   */\n    tag_392:\n      0x00\n        /* \"#utility.yul\":143:222   */\n      tag_394\n        /* \"#utility.yul\":158:221   */\n      tag_395\n        /* \"#utility.yul\":214:220   */\n      dup5\n        /* \"#utility.yul\":158:221   */\n      tag_396\n      jump\t// in\n    tag_395:\n        /* \"#utility.yul\":143:222   */\n      tag_397\n      jump\t// in\n    tag_394:\n        /* \"#utility.yul\":134:222   */\n      swap1\n      pop\n        /* \"#utility.yul\":242:247   */\n      dup1\n        /* \"#utility.yul\":270:276   */\n      dup4\n        /* \"#utility.yul\":263:268   */\n      dup3\n        /* \"#utility.yul\":256:277   */\n      mstore\n        /* \"#utility.yul\":296:300   */\n      0x20\n        /* \"#utility.yul\":289:294   */\n      dup3\n        /* \"#utility.yul\":285:301   */\n      add\n        /* \"#utility.yul\":278:301   */\n      swap1\n      pop\n        /* \"#utility.yul\":321:327   */\n      dup3\n        /* \"#utility.yul\":371:374   */\n      dup6\n        /* \"#utility.yul\":363:367   */\n      0x20\n        /* \"#utility.yul\":355:361   */\n      dup7\n        /* \"#utility.yul\":351:368   */\n      mul\n        /* \"#utility.yul\":346:349   */\n      dup3\n        /* \"#utility.yul\":342:369   */\n      add\n        /* \"#utility.yul\":339:375   */\n      gt\n        /* \"#utility.yul\":336:338   */\n      iszero\n      tag_398\n      jumpi\n        /* \"#utility.yul\":388:389   */\n      0x00\n        /* \"#utility.yul\":385:386   */\n      dup1\n        /* \"#utility.yul\":378:390   */\n      revert\n        /* \"#utility.yul\":336:338   */\n    tag_398:\n        /* \"#utility.yul\":416:417   */\n      0x00\n        /* \"#utility.yul\":401:636   */\n    tag_399:\n        /* \"#utility.yul\":426:432   */\n      dup6\n        /* \"#utility.yul\":423:424   */\n      dup2\n        /* \"#utility.yul\":420:433   */\n      lt\n        /* \"#utility.yul\":401:636   */\n      iszero\n      tag_401\n      jumpi\n        /* \"#utility.yul\":493:496   */\n      dup2\n        /* \"#utility.yul\":521:557   */\n      tag_402\n        /* \"#utility.yul\":553:556   */\n      dup9\n        /* \"#utility.yul\":541:551   */\n      dup3\n        /* \"#utility.yul\":521:557   */\n      tag_403\n      jump\t// in\n    tag_402:\n        /* \"#utility.yul\":516:519   */\n      dup5\n        /* \"#utility.yul\":509:558   */\n      mstore\n        /* \"#utility.yul\":587:591   */\n      0x20\n        /* \"#utility.yul\":582:585   */\n      dup5\n        /* \"#utility.yul\":578:592   */\n      add\n        /* \"#utility.yul\":571:592   */\n      swap4\n      pop\n        /* \"#utility.yul\":621:625   */\n      0x20\n        /* \"#utility.yul\":616:619   */\n      dup4\n        /* \"#utility.yul\":612:626   */\n      add\n        /* \"#utility.yul\":605:626   */\n      swap3\n      pop\n        /* \"#utility.yul\":461:636   */\n      pop\n        /* \"#utility.yul\":448:449   */\n      0x01\n        /* \"#utility.yul\":445:446   */\n      dup2\n        /* \"#utility.yul\":441:450   */\n      add\n        /* \"#utility.yul\":436:450   */\n      swap1\n      pop\n        /* \"#utility.yul\":401:636   */\n      jump(tag_399)\n    tag_401:\n        /* \"#utility.yul\":405:419   */\n      pop\n        /* \"#utility.yul\":124:642   */\n      pop\n      pop\n      swap4\n      swap3\n      pop\n      pop\n      pop\n      jump\t// out\n        /* \"#utility.yul\":665:1287   */\n    tag_404:\n      0x00\n        /* \"#utility.yul\":786:866   */\n      tag_406\n        /* \"#utility.yul\":801:865   */\n      tag_407\n        /* \"#utility.yul\":858:864   */\n      dup5\n        /* \"#utility.yul\":801:865   */\n      tag_408\n      jump\t// in\n    tag_407:\n        /* \"#utility.yul\":786:866   */\n      tag_397\n      jump\t// in\n    tag_406:\n        /* \"#utility.yul\":777:866   */\n      swap1\n      pop\n        /* \"#utility.yul\":886:891   */\n      dup1\n        /* \"#utility.yul\":914:920   */\n      dup4\n        /* \"#utility.yul\":907:912   */\n      dup3\n        /* \"#utility.yul\":900:921   */\n      mstore\n        /* \"#utility.yul\":940:944   */\n      0x20\n        /* \"#utility.yul\":933:938   */\n      dup3\n        /* \"#utility.yul\":929:945   */\n      add\n        /* \"#utility.yul\":922:945   */\n      swap1\n      pop\n        /* \"#utility.yul\":965:971   */\n      dup3\n        /* \"#utility.yul\":1015:1018   */\n      dup6\n        /* \"#utility.yul\":1007:1011   */\n      0x20\n        /* \"#utility.yul\":999:1005   */\n      dup7\n        /* \"#utility.yul\":995:1012   */\n      mul\n        /* \"#utility.yul\":990:993   */\n      dup3\n        /* \"#utility.yul\":986:1013   */\n      add\n        /* \"#utility.yul\":983:1019   */\n      gt\n        /* \"#utility.yul\":980:982   */\n      iszero\n      tag_409\n      jumpi\n        /* \"#utility.yul\":1032:1033   */\n      0x00\n        /* \"#utility.yul\":1029:1030   */\n      dup1\n        /* \"#utility.yul\":1022:1034   */\n      revert\n        /* \"#utility.yul\":980:982   */\n    tag_409:\n        /* \"#utility.yul\":1060:1061   */\n      0x00\n        /* \"#utility.yul\":1045:1281   */\n    tag_410:\n        /* \"#utility.yul\":1070:1076   */\n      dup6\n        /* \"#utility.yul\":1067:1068   */\n      dup2\n        /* \"#utility.yul\":1064:1077   */\n      lt\n        /* \"#utility.yul\":1045:1281   */\n      iszero\n      tag_412\n      jumpi\n        /* \"#utility.yul\":1137:1140   */\n      dup2\n        /* \"#utility.yul\":1165:1202   */\n      tag_413\n        /* \"#utility.yul\":1198:1201   */\n      dup9\n        /* \"#utility.yul\":1186:1196   */\n      dup3\n        /* \"#utility.yul\":1165:1202   */\n      tag_414\n      jump\t// in\n    tag_413:\n        /* \"#utility.yul\":1160:1163   */\n      dup5\n        /* \"#utility.yul\":1153:1203   */\n      mstore\n        /* \"#utility.yul\":1232:1236   */\n      0x20\n        /* \"#utility.yul\":1227:1230   */\n      dup5\n        /* \"#utility.yul\":1223:1237   */\n      add\n        /* \"#utility.yul\":1216:1237   */\n      swap4\n      pop\n        /* \"#utility.yul\":1266:1270   */\n      0x20\n        /* \"#utility.yul\":1261:1264   */\n      dup4\n        /* \"#utility.yul\":1257:1271   */\n      add\n        /* \"#utility.yul\":1250:1271   */\n      swap3\n      pop\n        /* \"#utility.yul\":1105:1281   */\n      pop\n        /* \"#utility.yul\":1092:1093   */\n      0x01\n        /* \"#utility.yul\":1089:1090   */\n      dup2\n        /* \"#utility.yul\":1085:1094   */\n      add\n        /* \"#utility.yul\":1080:1094   */\n      swap1\n      pop\n        /* \"#utility.yul\":1045:1281   */\n      jump(tag_410)\n    tag_412:\n        /* \"#utility.yul\":1049:1063   */\n      pop\n        /* \"#utility.yul\":767:1287   */\n      pop\n      pop\n      swap4\n      swap3\n      pop\n      pop\n      pop\n      jump\t// out\n        /* \"#utility.yul\":1293:1637   */\n    tag_415:\n      0x00\n        /* \"#utility.yul\":1396:1461   */\n      tag_417\n        /* \"#utility.yul\":1411:1460   */\n      tag_418\n        /* \"#utility.yul\":1453:1459   */\n      dup5\n        /* \"#utility.yul\":1411:1460   */\n      tag_419\n      jump\t// in\n    tag_418:\n        /* \"#utility.yul\":1396:1461   */\n      tag_397\n      jump\t// in\n    tag_417:\n        /* \"#utility.yul\":1387:1461   */\n      swap1\n      pop\n        /* \"#utility.yul\":1484:1490   */\n      dup3\n        /* \"#utility.yul\":1477:1482   */\n      dup2\n        /* \"#utility.yul\":1470:1491   */\n      mstore\n        /* \"#utility.yul\":1522:1526   */\n      0x20\n        /* \"#utility.yul\":1515:1520   */\n      dup2\n        /* \"#utility.yul\":1511:1527   */\n      add\n        /* \"#utility.yul\":1560:1563   */\n      dup5\n        /* \"#utility.yul\":1551:1557   */\n      dup5\n        /* \"#utility.yul\":1546:1549   */\n      dup5\n        /* \"#utility.yul\":1542:1558   */\n      add\n        /* \"#utility.yul\":1539:1564   */\n      gt\n        /* \"#utility.yul\":1536:1538   */\n      iszero\n      tag_420\n      jumpi\n        /* \"#utility.yul\":1577:1578   */\n      0x00\n        /* \"#utility.yul\":1574:1575   */\n      dup1\n        /* \"#utility.yul\":1567:1579   */\n      revert\n        /* \"#utility.yul\":1536:1538   */\n    tag_420:\n        /* \"#utility.yul\":1590:1631   */\n      tag_421\n        /* \"#utility.yul\":1624:1630   */\n      dup5\n        /* \"#utility.yul\":1619:1622   */\n      dup3\n        /* \"#utility.yul\":1614:1617   */\n      dup6\n        /* \"#utility.yul\":1590:1631   */\n      tag_422\n      jump\t// in\n    tag_421:\n        /* \"#utility.yul\":1377:1637   */\n      pop\n      swap4\n      swap3\n      pop\n      pop\n      pop\n      jump\t// out\n        /* \"#utility.yul\":1643:1782   */\n    tag_423:\n      0x00\n        /* \"#utility.yul\":1727:1733   */\n      dup2\n        /* \"#utility.yul\":1714:1734   */\n      calldataload\n        /* \"#utility.yul\":1705:1734   */\n      swap1\n      pop\n        /* \"#utility.yul\":1743:1776   */\n      tag_425\n        /* \"#utility.yul\":1770:1775   */\n      dup2\n        /* \"#utility.yul\":1743:1776   */\n      tag_426\n      jump\t// in\n    tag_425:\n        /* \"#utility.yul\":1695:1782   */\n      swap3\n      swap2\n      pop\n      pop\n      jump\t// out\n        /* \"#utility.yul\":1804:2105   */\n    tag_427:\n      0x00\n        /* \"#utility.yul\":1923:1926   */\n      dup3\n        /* \"#utility.yul\":1916:1920   */\n      0x1f\n        /* \"#utility.yul\":1908:1914   */\n      dup4\n        /* \"#utility.yul\":1904:1921   */\n      add\n        /* \"#utility.yul\":1900:1927   */\n      slt\n        /* \"#utility.yul\":1890:1892   */\n      tag_429\n      jumpi\n        /* \"#utility.yul\":1941:1942   */\n      0x00\n        /* \"#utility.yul\":1938:1939   */\n      dup1\n        /* \"#utility.yul\":1931:1943   */\n      revert\n        /* \"#utility.yul\":1890:1892   */\n    tag_429:\n        /* \"#utility.yul\":1981:1987   */\n      dup2\n        /* \"#utility.yul\":1968:1988   */\n      calldataload\n        /* \"#utility.yul\":2006:2099   */\n      tag_430\n        /* \"#utility.yul\":2095:2098   */\n      dup5\n        /* \"#utility.yul\":2087:2093   */\n      dup3\n        /* \"#utility.yul\":2080:2084   */\n      0x20\n        /* \"#utility.yul\":2072:2078   */\n      dup7\n        /* \"#utility.yul\":2068:2085   */\n      add\n        /* \"#utility.yul\":2006:2099   */\n      tag_392\n      jump\t// in\n    tag_430:\n        /* \"#utility.yul\":1997:2099   */\n      swap2\n      pop\n        /* \"#utility.yul\":1880:2105   */\n      pop\n      swap3\n      swap2\n      pop\n      pop\n      jump\t// out\n        /* \"#utility.yul\":2128:2431   */\n    tag_431:\n      0x00\n        /* \"#utility.yul\":2248:2251   */\n      dup3\n        /* \"#utility.yul\":2241:2245   */\n      0x1f\n        /* \"#utility.yul\":2233:2239   */\n      dup4\n        /* \"#utility.yul\":2229:2246   */\n      add\n        /* \"#utility.yul\":2225:2252   */\n      slt\n        /* \"#utility.yul\":2215:2217   */\n      tag_433\n      jumpi\n        /* \"#utility.yul\":2266:2267   */\n      0x00\n        /* \"#utility.yul\":2263:2264   */\n      dup1\n        /* \"#utility.yul\":2256:2268   */\n      revert\n        /* \"#utility.yul\":2215:2217   */\n    tag_433:\n        /* \"#utility.yul\":2306:2312   */\n      dup2\n        /* \"#utility.yul\":2293:2313   */\n      calldataload\n        /* \"#utility.yul\":2331:2425   */\n      tag_434\n        /* \"#utility.yul\":2421:2424   */\n      dup5\n        /* \"#utility.yul\":2413:2419   */\n      dup3\n        /* \"#utility.yul\":2406:2410   */\n      0x20\n        /* \"#utility.yul\":2398:2404   */\n      dup7\n        /* \"#utility.yul\":2394:2411   */\n      add\n        /* \"#utility.yul\":2331:2425   */\n      tag_404\n      jump\t// in\n    tag_434:\n        /* \"#utility.yul\":2322:2425   */\n      swap2\n      pop\n        /* \"#utility.yul\":2205:2431   */\n      pop\n      swap3\n      swap2\n      pop\n      pop\n      jump\t// out\n        /* \"#utility.yul\":2437:2570   */\n    tag_435:\n      0x00\n        /* \"#utility.yul\":2518:2524   */\n      dup2\n        /* \"#utility.yul\":2505:2525   */\n      calldataload\n        /* \"#utility.yul\":2496:2525   */\n      swap1\n      pop\n        /* \"#utility.yul\":2534:2564   */\n      tag_437\n        /* \"#utility.yul\":2558:2563   */\n      dup2\n        /* \"#utility.yul\":2534:2564   */\n      tag_438\n      jump\t// in\n    tag_437:\n        /* \"#utility.yul\":2486:2570   */\n      swap3\n      swap2\n      pop\n      pop\n      jump\t// out\n        /* \"#utility.yul\":2576:2713   */\n    tag_439:\n      0x00\n        /* \"#utility.yul\":2661:2667   */\n      dup2\n        /* \"#utility.yul\":2655:2668   */\n      mload\n        /* \"#utility.yul\":2646:2668   */\n      swap1\n      pop\n        /* \"#utility.yul\":2677:2707   */\n      tag_441\n        /* \"#utility.yul\":2701:2706   */\n      dup2\n        /* \"#utility.yul\":2677:2707   */\n      tag_438\n      jump\t// in\n    tag_441:\n        /* \"#utility.yul\":2636:2713   */\n      swap3\n      swap2\n      pop\n      pop\n      jump\t// out\n        /* \"#utility.yul\":2719:2888   */\n    tag_442:\n      0x00\n        /* \"#utility.yul\":2818:2824   */\n      dup2\n        /* \"#utility.yul\":2805:2825   */\n      calldataload\n        /* \"#utility.yul\":2796:2825   */\n      swap1\n      pop\n        /* \"#utility.yul\":2834:2882   */\n      tag_444\n        /* \"#utility.yul\":2876:2881   */\n      dup2\n        /* \"#utility.yul\":2834:2882   */\n      tag_445\n      jump\t// in\n    tag_444:\n        /* \"#utility.yul\":2786:2888   */\n      swap3\n      swap2\n      pop\n      pop\n      jump\t// out\n        /* \"#utility.yul\":2894:3059   */\n    tag_446:\n      0x00\n        /* \"#utility.yul\":2991:2997   */\n      dup2\n        /* \"#utility.yul\":2978:2998   */\n      calldataload\n        /* \"#utility.yul\":2969:2998   */\n      swap1\n      pop\n        /* \"#utility.yul\":3007:3053   */\n      tag_448\n        /* \"#utility.yul\":3047:3052   */\n      dup2\n        /* \"#utility.yul\":3007:3053   */\n      tag_449\n      jump\t// in\n    tag_448:\n        /* \"#utility.yul\":2959:3059   */\n      swap3\n      swap2\n      pop\n      pop\n      jump\t// out\n        /* \"#utility.yul\":3065:3228   */\n    tag_450:\n      0x00\n        /* \"#utility.yul\":3161:3167   */\n      dup2\n        /* \"#utility.yul\":3148:3168   */\n      calldataload\n        /* \"#utility.yul\":3139:3168   */\n      swap1\n      pop\n        /* \"#utility.yul\":3177:3222   */\n      tag_452\n        /* \"#utility.yul\":3216:3221   */\n      dup2\n        /* \"#utility.yul\":3177:3222   */\n      tag_453\n      jump\t// in\n    tag_452:\n        /* \"#utility.yul\":3129:3228   */\n      swap3\n      swap2\n      pop\n      pop\n      jump\t// out\n        /* \"#utility.yul\":3234:3371   */\n    tag_403:\n      0x00\n        /* \"#utility.yul\":3317:3323   */\n      dup2\n        /* \"#utility.yul\":3304:3324   */\n      calldataload\n        /* \"#utility.yul\":3295:3324   */\n      swap1\n      pop\n        /* \"#utility.yul\":3333:3365   */\n      tag_455\n        /* \"#utility.yul\":3359:3364   */\n      dup2\n        /* \"#utility.yul\":3333:3365   */\n      tag_456\n      jump\t// in\n    tag_455:\n        /* \"#utility.yul\":3285:3371   */\n      swap3\n      swap2\n      pop\n      pop\n      jump\t// out\n        /* \"#utility.yul\":3391:3743   */\n    tag_457:\n      0x00\n      dup1\n        /* \"#utility.yul\":3509:3512   */\n      dup4\n        /* \"#utility.yul\":3502:3506   */\n      0x1f\n        /* \"#utility.yul\":3494:3500   */\n      dup5\n        /* \"#utility.yul\":3490:3507   */\n      add\n        /* \"#utility.yul\":3486:3513   */\n      slt\n        /* \"#utility.yul\":3476:3478   */\n      tag_459\n      jumpi\n        /* \"#utility.yul\":3527:3528   */\n      0x00\n        /* \"#utility.yul\":3524:3525   */\n      dup1\n        /* \"#utility.yul\":3517:3529   */\n      revert\n        /* \"#utility.yul\":3476:3478   */\n    tag_459:\n        /* \"#utility.yul\":3563:3569   */\n      dup3\n        /* \"#utility.yul\":3550:3570   */\n      calldataload\n        /* \"#utility.yul\":3540:3570   */\n      swap1\n      pop\n        /* \"#utility.yul\":3593:3611   */\n      0xffffffffffffffff\n        /* \"#utility.yul\":3585:3591   */\n      dup2\n        /* \"#utility.yul\":3582:3612   */\n      gt\n        /* \"#utility.yul\":3579:3581   */\n      iszero\n      tag_460\n      jumpi\n        /* \"#utility.yul\":3625:3626   */\n      0x00\n        /* \"#utility.yul\":3622:3623   */\n      dup1\n        /* \"#utility.yul\":3615:3627   */\n      revert\n        /* \"#utility.yul\":3579:3581   */\n    tag_460:\n        /* \"#utility.yul\":3662:3666   */\n      0x20\n        /* \"#utility.yul\":3654:3660   */\n      dup4\n        /* \"#utility.yul\":3650:3667   */\n      add\n        /* \"#utility.yul\":3638:3667   */\n      swap2\n      pop\n        /* \"#utility.yul\":3716:3719   */\n      dup4\n        /* \"#utility.yul\":3708:3712   */\n      0x01\n        /* \"#utility.yul\":3700:3706   */\n      dup3\n        /* \"#utility.yul\":3696:3713   */\n      mul\n        /* \"#utility.yul\":3686:3694   */\n      dup4\n        /* \"#utility.yul\":3682:3714   */\n      add\n        /* \"#utility.yul\":3679:3720   */\n      gt\n        /* \"#utility.yul\":3676:3678   */\n      iszero\n      tag_461\n      jumpi\n        /* \"#utility.yul\":3733:3734   */\n      0x00\n        /* \"#utility.yul\":3730:3731   */\n      dup1\n        /* \"#utility.yul\":3723:3735   */\n      revert\n        /* \"#utility.yul\":3676:3678   */\n    tag_461:\n        /* \"#utility.yul\":3466:3743   */\n      swap3\n      pop\n      swap3\n      swap1\n      pop\n      jump\t// out\n        /* \"#utility.yul\":3763:4036   */\n    tag_462:\n      0x00\n        /* \"#utility.yul\":3868:3871   */\n      dup3\n        /* \"#utility.yul\":3861:3865   */\n      0x1f\n        /* \"#utility.yul\":3853:3859   */\n      dup4\n        /* \"#utility.yul\":3849:3866   */\n      add\n        /* \"#utility.yul\":3845:3872   */\n      slt\n        /* \"#utility.yul\":3835:3837   */\n      tag_464\n      jumpi\n        /* \"#utility.yul\":3886:3887   */\n      0x00\n        /* \"#utility.yul\":3883:3884   */\n      dup1\n        /* \"#utility.yul\":3876:3888   */\n      revert\n        /* \"#utility.yul\":3835:3837   */\n    tag_464:\n        /* \"#utility.yul\":3926:3932   */\n      dup2\n        /* \"#utility.yul\":3913:3933   */\n      calldataload\n        /* \"#utility.yul\":3951:4030   */\n      tag_465\n        /* \"#utility.yul\":4026:4029   */\n      dup5\n        /* \"#utility.yul\":4018:4024   */\n      dup3\n        /* \"#utility.yul\":4011:4015   */\n      0x20\n        /* \"#utility.yul\":4003:4009   */\n      dup7\n        /* \"#utility.yul\":3999:4016   */\n      add\n        /* \"#utility.yul\":3951:4030   */\n      tag_415\n      jump\t// in\n    tag_465:\n        /* \"#utility.yul\":3942:4030   */\n      swap2\n      pop\n        /* \"#utility.yul\":3825:4036   */\n      pop\n      swap3\n      swap2\n      pop\n      pop\n      jump\t// out\n        /* \"#utility.yul\":4077:6116   */\n    tag_466:\n      0x00\n        /* \"#utility.yul\":4194:4200   */\n      0x0120\n        /* \"#utility.yul\":4182:4191   */\n      dup3\n        /* \"#utility.yul\":4177:4180   */\n      dup5\n        /* \"#utility.yul\":4173:4192   */\n      sub\n        /* \"#utility.yul\":4169:4201   */\n      slt\n        /* \"#utility.yul\":4166:4168   */\n      iszero\n      tag_468\n      jumpi\n        /* \"#utility.yul\":4214:4215   */\n      0x00\n        /* \"#utility.yul\":4211:4212   */\n      dup1\n        /* \"#utility.yul\":4204:4216   */\n      revert\n        /* \"#utility.yul\":4166:4168   */\n    tag_468:\n        /* \"#utility.yul\":4236:4258   */\n      tag_469\n        /* \"#utility.yul\":4251:4257   */\n      0x0120\n        /* \"#utility.yul\":4236:4258   */\n      tag_397\n      jump\t// in\n    tag_469:\n        /* \"#utility.yul\":4227:4258   */\n      swap1\n      pop\n        /* \"#utility.yul\":4320:4321   */\n      0x00\n        /* \"#utility.yul\":4360:4409   */\n      tag_470\n        /* \"#utility.yul\":4405:4408   */\n      dup5\n        /* \"#utility.yul\":4396:4402   */\n      dup3\n        /* \"#utility.yul\":4385:4394   */\n      dup6\n        /* \"#utility.yul\":4381:4403   */\n      add\n        /* \"#utility.yul\":4360:4409   */\n      tag_414\n      jump\t// in\n    tag_470:\n        /* \"#utility.yul\":4353:4357   */\n      0x00\n        /* \"#utility.yul\":4346:4351   */\n      dup4\n        /* \"#utility.yul\":4342:4358   */\n      add\n        /* \"#utility.yul\":4335:4410   */\n      mstore\n        /* \"#utility.yul\":4268:4421   */\n      pop\n        /* \"#utility.yul\":4487:4489   */\n      0x20\n        /* \"#utility.yul\":4528:4590   */\n      tag_471\n        /* \"#utility.yul\":4586:4589   */\n      dup5\n        /* \"#utility.yul\":4577:4583   */\n      dup3\n        /* \"#utility.yul\":4566:4575   */\n      dup6\n        /* \"#utility.yul\":4562:4584   */\n      add\n        /* \"#utility.yul\":4528:4590   */\n      tag_446\n      jump\t// in\n    tag_471:\n        /* \"#utility.yul\":4521:4525   */\n      0x20\n        /* \"#utility.yul\":4514:4519   */\n      dup4\n        /* \"#utility.yul\":4510:4526   */\n      add\n        /* \"#utility.yul\":4503:4591   */\n      mstore\n        /* \"#utility.yul\":4431:4602   */\n      pop\n        /* \"#utility.yul\":4662:4664   */\n      0x40\n        /* \"#utility.yul\":4703:4767   */\n      tag_472\n        /* \"#utility.yul\":4763:4766   */\n      dup5\n        /* \"#utility.yul\":4754:4760   */\n      dup3\n        /* \"#utility.yul\":4743:4752   */\n      dup6\n        /* \"#utility.yul\":4739:4761   */\n      add\n        /* \"#utility.yul\":4703:4767   */\n      tag_442\n      jump\t// in\n    tag_472:\n        /* \"#utility.yul\":4696:4700   */\n      0x40\n        /* \"#utility.yul\":4689:4694   */\n      dup4\n        /* \"#utility.yul\":4685:4701   */\n      add\n        /* \"#utility.yul\":4678:4768   */\n      mstore\n        /* \"#utility.yul\":4612:4779   */\n      pop\n        /* \"#utility.yul\":4843:4845   */\n      0x60\n        /* \"#utility.yul\":4884:4930   */\n      tag_473\n        /* \"#utility.yul\":4926:4929   */\n      dup5\n        /* \"#utility.yul\":4917:4923   */\n      dup3\n        /* \"#utility.yul\":4906:4915   */\n      dup6\n        /* \"#utility.yul\":4902:4924   */\n      add\n        /* \"#utility.yul\":4884:4930   */\n      tag_435\n      jump\t// in\n    tag_473:\n        /* \"#utility.yul\":4877:4881   */\n      0x60\n        /* \"#utility.yul\":4870:4875   */\n      dup4\n        /* \"#utility.yul\":4866:4882   */\n      add\n        /* \"#utility.yul\":4859:4931   */\n      mstore\n        /* \"#utility.yul\":4789:4942   */\n      pop\n        /* \"#utility.yul\":5003:5006   */\n      0x80\n        /* \"#utility.yul\":5045:5091   */\n      tag_474\n        /* \"#utility.yul\":5087:5090   */\n      dup5\n        /* \"#utility.yul\":5078:5084   */\n      dup3\n        /* \"#utility.yul\":5067:5076   */\n      dup6\n        /* \"#utility.yul\":5063:5085   */\n      add\n        /* \"#utility.yul\":5045:5091   */\n      tag_435\n      jump\t// in\n    tag_474:\n        /* \"#utility.yul\":5038:5042   */\n      0x80\n        /* \"#utility.yul\":5031:5036   */\n      dup4\n        /* \"#utility.yul\":5027:5043   */\n      add\n        /* \"#utility.yul\":5020:5092   */\n      mstore\n        /* \"#utility.yul\":4952:5103   */\n      pop\n        /* \"#utility.yul\":5166:5169   */\n      0xa0\n        /* \"#utility.yul\":5208:5269   */\n      tag_475\n        /* \"#utility.yul\":5265:5268   */\n      dup5\n        /* \"#utility.yul\":5256:5262   */\n      dup3\n        /* \"#utility.yul\":5245:5254   */\n      dup6\n        /* \"#utility.yul\":5241:5263   */\n      add\n        /* \"#utility.yul\":5208:5269   */\n      tag_450\n      jump\t// in\n    tag_475:\n        /* \"#utility.yul\":5201:5205   */\n      0xa0\n        /* \"#utility.yul\":5194:5199   */\n      dup4\n        /* \"#utility.yul\":5190:5206   */\n      add\n        /* \"#utility.yul\":5183:5270   */\n      mstore\n        /* \"#utility.yul\":5113:5281   */\n      pop\n        /* \"#utility.yul\":5379:5382   */\n      0xc0\n        /* \"#utility.yul\":5368:5377   */\n      dup3\n        /* \"#utility.yul\":5364:5383   */\n      add\n        /* \"#utility.yul\":5351:5384   */\n      calldataload\n        /* \"#utility.yul\":5411:5429   */\n      0xffffffffffffffff\n        /* \"#utility.yul\":5403:5409   */\n      dup2\n        /* \"#utility.yul\":5400:5430   */\n      gt\n        /* \"#utility.yul\":5397:5399   */\n      iszero\n      tag_476\n      jumpi\n        /* \"#utility.yul\":5443:5444   */\n      0x00\n        /* \"#utility.yul\":5440:5441   */\n      dup1\n        /* \"#utility.yul\":5433:5445   */\n      revert\n        /* \"#utility.yul\":5397:5399   */\n    tag_476:\n        /* \"#utility.yul\":5486:5545   */\n      tag_477\n        /* \"#utility.yul\":5541:5544   */\n      dup5\n        /* \"#utility.yul\":5532:5538   */\n      dup3\n        /* \"#utility.yul\":5521:5530   */\n      dup6\n        /* \"#utility.yul\":5517:5539   */\n      add\n        /* \"#utility.yul\":5486:5545   */\n      tag_462\n      jump\t// in\n    tag_477:\n        /* \"#utility.yul\":5479:5483   */\n      0xc0\n        /* \"#utility.yul\":5472:5477   */\n      dup4\n        /* \"#utility.yul\":5468:5484   */\n      add\n        /* \"#utility.yul\":5461:5546   */\n      mstore\n        /* \"#utility.yul\":5291:5557   */\n      pop\n        /* \"#utility.yul\":5647:5650   */\n      0xe0\n        /* \"#utility.yul\":5636:5645   */\n      dup3\n        /* \"#utility.yul\":5632:5651   */\n      add\n        /* \"#utility.yul\":5619:5652   */\n      calldataload\n        /* \"#utility.yul\":5679:5697   */\n      0xffffffffffffffff\n        /* \"#utility.yul\":5671:5677   */\n      dup2\n        /* \"#utility.yul\":5668:5698   */\n      gt\n        /* \"#utility.yul\":5665:5667   */\n      iszero\n      tag_478\n      jumpi\n        /* \"#utility.yul\":5711:5712   */\n      0x00\n        /* \"#utility.yul\":5708:5709   */\n      dup1\n        /* \"#utility.yul\":5701:5713   */\n      revert\n        /* \"#utility.yul\":5665:5667   */\n    tag_478:\n        /* \"#utility.yul\":5754:5813   */\n      tag_479\n        /* \"#utility.yul\":5809:5812   */\n      dup5\n        /* \"#utility.yul\":5800:5806   */\n      dup3\n        /* \"#utility.yul\":5789:5798   */\n      dup6\n        /* \"#utility.yul\":5785:5807   */\n      add\n        /* \"#utility.yul\":5754:5813   */\n      tag_462\n      jump\t// in\n    tag_479:\n        /* \"#utility.yul\":5747:5751   */\n      0xe0\n        /* \"#utility.yul\":5740:5745   */\n      dup4\n        /* \"#utility.yul\":5736:5752   */\n      add\n        /* \"#utility.yul\":5729:5814   */\n      mstore\n        /* \"#utility.yul\":5567:5825   */\n      pop\n        /* \"#utility.yul\":5915:5918   */\n      0x0100\n        /* \"#utility.yul\":5904:5913   */\n      dup3\n        /* \"#utility.yul\":5900:5919   */\n      add\n        /* \"#utility.yul\":5887:5920   */\n      calldataload\n        /* \"#utility.yul\":5947:5965   */\n      0xffffffffffffffff\n        /* \"#utility.yul\":5939:5945   */\n      dup2\n        /* \"#utility.yul\":5936:5966   */\n      gt\n        /* \"#utility.yul\":5933:5935   */\n      iszero\n      tag_480\n      jumpi\n        /* \"#utility.yul\":5979:5980   */\n      0x00\n        /* \"#utility.yul\":5976:5977   */\n      dup1\n        /* \"#utility.yul\":5969:5981   */\n      revert\n        /* \"#utility.yul\":5933:5935   */\n    tag_480:\n        /* \"#utility.yul\":6024:6097   */\n      tag_481\n        /* \"#utility.yul\":6093:6096   */\n      dup5\n        /* \"#utility.yul\":6084:6090   */\n      dup3\n        /* \"#utility.yul\":6073:6082   */\n      dup6\n        /* \"#utility.yul\":6069:6091   */\n      add\n        /* \"#utility.yul\":6024:6097   */\n      tag_427\n      jump\t// in\n    tag_481:\n        /* \"#utility.yul\":6015:6021   */\n      0x0100\n        /* \"#utility.yul\":6008:6013   */\n      dup4\n        /* \"#utility.yul\":6004:6022   */\n      add\n        /* \"#utility.yul\":5997:6098   */\n      mstore\n        /* \"#utility.yul\":5835:6109   */\n      pop\n        /* \"#utility.yul\":4156:6116   */\n      swap3\n      swap2\n      pop\n      pop\n      jump\t// out\n        /* \"#utility.yul\":6122:6261   */\n    tag_414:\n      0x00\n        /* \"#utility.yul\":6206:6212   */\n      dup2\n        /* \"#utility.yul\":6193:6213   */\n      calldataload\n        /* \"#utility.yul\":6184:6213   */\n      swap1\n      pop\n        /* \"#utility.yul\":6222:6255   */\n      tag_483\n        /* \"#utility.yul\":6249:6254   */\n      dup2\n        /* \"#utility.yul\":6222:6255   */\n      tag_484\n      jump\t// in\n    tag_483:\n        /* \"#utility.yul\":6174:6261   */\n      swap3\n      swap2\n      pop\n      pop\n      jump\t// out\n        /* \"#utility.yul\":6267:6410   */\n    tag_485:\n      0x00\n        /* \"#utility.yul\":6355:6361   */\n      dup2\n        /* \"#utility.yul\":6349:6362   */\n      mload\n        /* \"#utility.yul\":6340:6362   */\n      swap1\n      pop\n        /* \"#utility.yul\":6371:6404   */\n      tag_487\n        /* \"#utility.yul\":6398:6403   */\n      dup2\n        /* \"#utility.yul\":6371:6404   */\n      tag_484\n      jump\t// in\n    tag_487:\n        /* \"#utility.yul\":6330:6410   */\n      swap3\n      swap2\n      pop\n      pop\n      jump\t// out\n        /* \"#utility.yul\":6416:6694   */\n    tag_128:\n      0x00\n        /* \"#utility.yul\":6532:6534   */\n      0x20\n        /* \"#utility.yul\":6520:6529   */\n      dup3\n        /* \"#utility.yul\":6511:6518   */\n      dup5\n        /* \"#utility.yul\":6507:6530   */\n      sub\n        /* \"#utility.yul\":6503:6535   */\n      slt\n        /* \"#utility.yul\":6500:6502   */\n      iszero\n      tag_489\n      jumpi\n        /* \"#utility.yul\":6548:6549   */\n      0x00\n        /* \"#utility.yul\":6545:6546   */\n      dup1\n        /* \"#utility.yul\":6538:6550   */\n      revert\n        /* \"#utility.yul\":6500:6502   */\n    tag_489:\n        /* \"#utility.yul\":6591:6592   */\n      0x00\n        /* \"#utility.yul\":6616:6677   */\n      tag_490\n        /* \"#utility.yul\":6669:6676   */\n      dup5\n        /* \"#utility.yul\":6660:6666   */\n      dup3\n        /* \"#utility.yul\":6649:6658   */\n      dup6\n        /* \"#utility.yul\":6645:6667   */\n      add\n        /* \"#utility.yul\":6616:6677   */\n      tag_439\n      jump\t// in\n    tag_490:\n        /* \"#utility.yul\":6606:6677   */\n      swap2\n      pop\n        /* \"#utility.yul\":6562:6687   */\n      pop\n        /* \"#utility.yul\":6490:6694   */\n      swap3\n      swap2\n      pop\n      pop\n      jump\t// out\n        /* \"#utility.yul\":6700:7415   */\n    tag_95:\n      0x00\n      dup1\n      0x00\n        /* \"#utility.yul\":6877:6879   */\n      0x60\n        /* \"#utility.yul\":6865:6874   */\n      dup5\n        /* \"#utility.yul\":6856:6863   */\n      dup7\n        /* \"#utility.yul\":6852:6875   */\n      sub\n        /* \"#utility.yul\":6848:6880   */\n      slt\n        /* \"#utility.yul\":6845:6847   */\n      iszero\n      tag_492\n      jumpi\n        /* \"#utility.yul\":6893:6894   */\n      0x00\n        /* \"#utility.yul\":6890:6891   */\n      dup1\n        /* \"#utility.yul\":6883:6895   */\n      revert\n        /* \"#utility.yul\":6845:6847   */\n    tag_492:\n        /* \"#utility.yul\":6936:6937   */\n      0x00\n        /* \"#utility.yul\":6961:7013   */\n      tag_493\n        /* \"#utility.yul\":7005:7012   */\n      dup7\n        /* \"#utility.yul\":6996:7002   */\n      dup3\n        /* \"#utility.yul\":6985:6994   */\n      dup8\n        /* \"#utility.yul\":6981:7003   */\n      add\n        /* \"#utility.yul\":6961:7013   */\n      tag_403\n      jump\t// in\n    tag_493:\n        /* \"#utility.yul\":6951:7013   */\n      swap4\n      pop\n        /* \"#utility.yul\":6907:7023   */\n      pop\n        /* \"#utility.yul\":7090:7092   */\n      0x20\n        /* \"#utility.yul\":7079:7088   */\n      dup5\n        /* \"#utility.yul\":7075:7093   */\n      add\n        /* \"#utility.yul\":7062:7094   */\n      calldataload\n        /* \"#utility.yul\":7121:7139   */\n      0xffffffffffffffff\n        /* \"#utility.yul\":7113:7119   */\n      dup2\n        /* \"#utility.yul\":7110:7140   */\n      gt\n        /* \"#utility.yul\":7107:7109   */\n      iszero\n      tag_494\n      jumpi\n        /* \"#utility.yul\":7153:7154   */\n      0x00\n        /* \"#utility.yul\":7150:7151   */\n      dup1\n        /* \"#utility.yul\":7143:7155   */\n      revert\n        /* \"#utility.yul\":7107:7109   */\n    tag_494:\n        /* \"#utility.yul\":7181:7258   */\n      tag_495\n        /* \"#utility.yul\":7250:7257   */\n      dup7\n        /* \"#utility.yul\":7241:7247   */\n      dup3\n        /* \"#utility.yul\":7230:7239   */\n      dup8\n        /* \"#utility.yul\":7226:7248   */\n      add\n        /* \"#utility.yul\":7181:7258   */\n      tag_427\n      jump\t// in\n    tag_495:\n        /* \"#utility.yul\":7171:7258   */\n      swap3\n      pop\n        /* \"#utility.yul\":7033:7268   */\n      pop\n        /* \"#utility.yul\":7307:7309   */\n      0x40\n        /* \"#utility.yul\":7333:7398   */\n      tag_496\n        /* \"#utility.yul\":7390:7397   */\n      dup7\n        /* \"#utility.yul\":7381:7387   */\n      dup3\n        /* \"#utility.yul\":7370:7379   */\n      dup8\n        /* \"#utility.yul\":7366:7388   */\n      add\n        /* \"#utility.yul\":7333:7398   */\n      tag_450\n      jump\t// in\n    tag_496:\n        /* \"#utility.yul\":7323:7398   */\n      swap2\n      pop\n        /* \"#utility.yul\":7278:7408   */\n      pop\n        /* \"#utility.yul\":6835:7415   */\n      swap3\n      pop\n      swap3\n      pop\n      swap3\n      jump\t// out\n        /* \"#utility.yul\":7421:7816   */\n    tag_69:\n      0x00\n      dup1\n        /* \"#utility.yul\":7549:7551   */\n      0x20\n        /* \"#utility.yul\":7537:7546   */\n      dup4\n        /* \"#utility.yul\":7528:7535   */\n      dup6\n        /* \"#utility.yul\":7524:7547   */\n      sub\n        /* \"#utility.yul\":7520:7552   */\n      slt\n        /* \"#utility.yul\":7517:7519   */\n      iszero\n      tag_498\n      jumpi\n        /* \"#utility.yul\":7565:7566   */\n      0x00\n        /* \"#utility.yul\":7562:7563   */\n      dup1\n        /* \"#utility.yul\":7555:7567   */\n      revert\n        /* \"#utility.yul\":7517:7519   */\n    tag_498:\n        /* \"#utility.yul\":7636:7637   */\n      0x00\n        /* \"#utility.yul\":7625:7634   */\n      dup4\n        /* \"#utility.yul\":7621:7638   */\n      add\n        /* \"#utility.yul\":7608:7639   */\n      calldataload\n        /* \"#utility.yul\":7666:7684   */\n      0xffffffffffffffff\n        /* \"#utility.yul\":7658:7664   */\n      dup2\n        /* \"#utility.yul\":7655:7685   */\n      gt\n        /* \"#utility.yul\":7652:7654   */\n      iszero\n      tag_499\n      jumpi\n        /* \"#utility.yul\":7698:7699   */\n      0x00\n        /* \"#utility.yul\":7695:7696   */\n      dup1\n        /* \"#utility.yul\":7688:7700   */\n      revert\n        /* \"#utility.yul\":7652:7654   */\n    tag_499:\n        /* \"#utility.yul\":7734:7799   */\n      tag_500\n        /* \"#utility.yul\":7791:7798   */\n      dup6\n        /* \"#utility.yul\":7782:7788   */\n      dup3\n        /* \"#utility.yul\":7771:7780   */\n      dup7\n        /* \"#utility.yul\":7767:7789   */\n      add\n        /* \"#utility.yul\":7734:7799   */\n      tag_457\n      jump\t// in\n    tag_500:\n        /* \"#utility.yul\":7716:7799   */\n      swap3\n      pop\n      swap3\n      pop\n        /* \"#utility.yul\":7579:7809   */\n      pop\n        /* \"#utility.yul\":7507:7816   */\n      swap3\n      pop\n      swap3\n      swap1\n      pop\n      jump\t// out\n        /* \"#utility.yul\":7822:8360   */\n    tag_43:\n      0x00\n      dup1\n      0x00\n        /* \"#utility.yul\":7966:7968   */\n      0x40\n        /* \"#utility.yul\":7954:7963   */\n      dup5\n        /* \"#utility.yul\":7945:7952   */\n      dup7\n        /* \"#utility.yul\":7941:7964   */\n      sub\n        /* \"#utility.yul\":7937:7969   */\n      slt\n        /* \"#utility.yul\":7934:7936   */\n      iszero\n      tag_502\n      jumpi\n        /* \"#utility.yul\":7982:7983   */\n      0x00\n        /* \"#utility.yul\":7979:7980   */\n      dup1\n        /* \"#utility.yul\":7972:7984   */\n      revert\n        /* \"#utility.yul\":7934:7936   */\n    tag_502:\n        /* \"#utility.yul\":8053:8054   */\n      0x00\n        /* \"#utility.yul\":8042:8051   */\n      dup5\n        /* \"#utility.yul\":8038:8055   */\n      add\n        /* \"#utility.yul\":8025:8056   */\n      calldataload\n        /* \"#utility.yul\":8083:8101   */\n      0xffffffffffffffff\n        /* \"#utility.yul\":8075:8081   */\n      dup2\n        /* \"#utility.yul\":8072:8102   */\n      gt\n        /* \"#utility.yul\":8069:8071   */\n      iszero\n      tag_503\n      jumpi\n        /* \"#utility.yul\":8115:8116   */\n      0x00\n        /* \"#utility.yul\":8112:8113   */\n      dup1\n        /* \"#utility.yul\":8105:8117   */\n      revert\n        /* \"#utility.yul\":8069:8071   */\n    tag_503:\n        /* \"#utility.yul\":8151:8216   */\n      tag_504\n        /* \"#utility.yul\":8208:8215   */\n      dup7\n        /* \"#utility.yul\":8199:8205   */\n      dup3\n        /* \"#utility.yul\":8188:8197   */\n      dup8\n        /* \"#utility.yul\":8184:8206   */\n      add\n        /* \"#utility.yul\":8151:8216   */\n      tag_457\n      jump\t// in\n    tag_504:\n        /* \"#utility.yul\":8133:8216   */\n      swap4\n      pop\n      swap4\n      pop\n        /* \"#utility.yul\":7996:8226   */\n      pop\n        /* \"#utility.yul\":8265:8267   */\n      0x20\n        /* \"#utility.yul\":8291:8343   */\n      tag_505\n        /* \"#utility.yul\":8335:8342   */\n      dup7\n        /* \"#utility.yul\":8326:8332   */\n      dup3\n        /* \"#utility.yul\":8315:8324   */\n      dup8\n        /* \"#utility.yul\":8311:8333   */\n      add\n        /* \"#utility.yul\":8291:8343   */\n      tag_403\n      jump\t// in\n    tag_505:\n        /* \"#utility.yul\":8281:8343   */\n      swap2\n      pop\n        /* \"#utility.yul\":8236:8353   */\n      pop\n        /* \"#utility.yul\":7924:8360   */\n      swap3\n      pop\n      swap3\n      pop\n      swap3\n      jump\t// out\n        /* \"#utility.yul\":8366:9039   */\n    tag_108:\n      0x00\n      dup1\n      0x00\n      dup1\n        /* \"#utility.yul\":8531:8533   */\n      0x40\n        /* \"#utility.yul\":8519:8528   */\n      dup6\n        /* \"#utility.yul\":8510:8517   */\n      dup8\n        /* \"#utility.yul\":8506:8529   */\n      sub\n        /* \"#utility.yul\":8502:8534   */\n      slt\n        /* \"#utility.yul\":8499:8501   */\n      iszero\n      tag_507\n      jumpi\n        /* \"#utility.yul\":8547:8548   */\n      0x00\n        /* \"#utility.yul\":8544:8545   */\n      dup1\n        /* \"#utility.yul\":8537:8549   */\n      revert\n        /* \"#utility.yul\":8499:8501   */\n    tag_507:\n        /* \"#utility.yul\":8618:8619   */\n      0x00\n        /* \"#utility.yul\":8607:8616   */\n      dup6\n        /* \"#utility.yul\":8603:8620   */\n      add\n        /* \"#utility.yul\":8590:8621   */\n      calldataload\n        /* \"#utility.yul\":8648:8666   */\n      0xffffffffffffffff\n        /* \"#utility.yul\":8640:8646   */\n      dup2\n        /* \"#utility.yul\":8637:8667   */\n      gt\n        /* \"#utility.yul\":8634:8636   */\n      iszero\n      tag_508\n      jumpi\n        /* \"#utility.yul\":8680:8681   */\n      0x00\n        /* \"#utility.yul\":8677:8678   */\n      dup1\n        /* \"#utility.yul\":8670:8682   */\n      revert\n        /* \"#utility.yul\":8634:8636   */\n    tag_508:\n        /* \"#utility.yul\":8716:8781   */\n      tag_509\n        /* \"#utility.yul\":8773:8780   */\n      dup8\n        /* \"#utility.yul\":8764:8770   */\n      dup3\n        /* \"#utility.yul\":8753:8762   */\n      dup9\n        /* \"#utility.yul\":8749:8771   */\n      add\n        /* \"#utility.yul\":8716:8781   */\n      tag_457\n      jump\t// in\n    tag_509:\n        /* \"#utility.yul\":8698:8781   */\n      swap5\n      pop\n      swap5\n      pop\n        /* \"#utility.yul\":8561:8791   */\n      pop\n        /* \"#utility.yul\":8858:8860   */\n      0x20\n        /* \"#utility.yul\":8847:8856   */\n      dup6\n        /* \"#utility.yul\":8843:8861   */\n      add\n        /* \"#utility.yul\":8830:8862   */\n      calldataload\n        /* \"#utility.yul\":8889:8907   */\n      0xffffffffffffffff\n        /* \"#utility.yul\":8881:8887   */\n      dup2\n        /* \"#utility.yul\":8878:8908   */\n      gt\n        /* \"#utility.yul\":8875:8877   */\n      iszero\n      tag_510\n      jumpi\n        /* \"#utility.yul\":8921:8922   */\n      0x00\n        /* \"#utility.yul\":8918:8919   */\n      dup1\n        /* \"#utility.yul\":8911:8923   */\n      revert\n        /* \"#utility.yul\":8875:8877   */\n    tag_510:\n        /* \"#utility.yul\":8957:9022   */\n      tag_511\n        /* \"#utility.yul\":9014:9021   */\n      dup8\n        /* \"#utility.yul\":9005:9011   */\n      dup3\n        /* \"#utility.yul\":8994:9003   */\n      dup9\n        /* \"#utility.yul\":8990:9012   */\n      add\n        /* \"#utility.yul\":8957:9022   */\n      tag_457\n      jump\t// in\n    tag_511:\n        /* \"#utility.yul\":8939:9022   */\n      swap3\n      pop\n      swap3\n      pop\n        /* \"#utility.yul\":8801:9032   */\n      pop\n        /* \"#utility.yul\":8489:9039   */\n      swap3\n      swap6\n      swap2\n      swap5\n      pop\n      swap3\n      pop\n      jump\t// out\n        /* \"#utility.yul\":9045:9420   */\n    tag_37:\n      0x00\n        /* \"#utility.yul\":9163:9165   */\n      0x20\n        /* \"#utility.yul\":9151:9160   */\n      dup3\n        /* \"#utility.yul\":9142:9149   */\n      dup5\n        /* \"#utility.yul\":9138:9161   */\n      sub\n        /* \"#utility.yul\":9134:9166   */\n      slt\n        /* \"#utility.yul\":9131:9133   */\n      iszero\n      tag_513\n      jumpi\n        /* \"#utility.yul\":9179:9180   */\n      0x00\n        /* \"#utility.yul\":9176:9177   */\n      dup1\n        /* \"#utility.yul\":9169:9181   */\n      revert\n        /* \"#utility.yul\":9131:9133   */\n    tag_513:\n        /* \"#utility.yul\":9250:9251   */\n      0x00\n        /* \"#utility.yul\":9239:9248   */\n      dup3\n        /* \"#utility.yul\":9235:9252   */\n      add\n        /* \"#utility.yul\":9222:9253   */\n      calldataload\n        /* \"#utility.yul\":9280:9298   */\n      0xffffffffffffffff\n        /* \"#utility.yul\":9272:9278   */\n      dup2\n        /* \"#utility.yul\":9269:9299   */\n      gt\n        /* \"#utility.yul\":9266:9268   */\n      iszero\n      tag_514\n      jumpi\n        /* \"#utility.yul\":9312:9313   */\n      0x00\n        /* \"#utility.yul\":9309:9310   */\n      dup1\n        /* \"#utility.yul\":9302:9314   */\n      revert\n        /* \"#utility.yul\":9266:9268   */\n    tag_514:\n        /* \"#utility.yul\":9340:9403   */\n      tag_515\n        /* \"#utility.yul\":9395:9402   */\n      dup5\n        /* \"#utility.yul\":9386:9392   */\n      dup3\n        /* \"#utility.yul\":9375:9384   */\n      dup6\n        /* \"#utility.yul\":9371:9393   */\n      add\n        /* \"#utility.yul\":9340:9403   */\n      tag_462\n      jump\t// in\n    tag_515:\n        /* \"#utility.yul\":9330:9403   */\n      swap2\n      pop\n        /* \"#utility.yul\":9193:9413   */\n      pop\n        /* \"#utility.yul\":9121:9420   */\n      swap3\n      swap2\n      pop\n      pop\n      jump\t// out\n        /* \"#utility.yul\":9426:9829   */\n    tag_27:\n      0x00\n        /* \"#utility.yul\":9558:9560   */\n      0x20\n        /* \"#utility.yul\":9546:9555   */\n      dup3\n        /* \"#utility.yul\":9537:9544   */\n      dup5\n        /* \"#utility.yul\":9533:9556   */\n      sub\n        /* \"#utility.yul\":9529:9561   */\n      slt\n        /* \"#utility.yul\":9526:9528   */\n      iszero\n      tag_517\n      jumpi\n        /* \"#utility.yul\":9574:9575   */\n      0x00\n        /* \"#utility.yul\":9571:9572   */\n      dup1\n        /* \"#utility.yul\":9564:9576   */\n      revert\n        /* \"#utility.yul\":9526:9528   */\n    tag_517:\n        /* \"#utility.yul\":9645:9646   */\n      0x00\n        /* \"#utility.yul\":9634:9643   */\n      dup3\n        /* \"#utility.yul\":9630:9647   */\n      add\n        /* \"#utility.yul\":9617:9648   */\n      calldataload\n        /* \"#utility.yul\":9675:9693   */\n      0xffffffffffffffff\n        /* \"#utility.yul\":9667:9673   */\n      dup2\n        /* \"#utility.yul\":9664:9694   */\n      gt\n        /* \"#utility.yul\":9661:9663   */\n      iszero\n      tag_518\n      jumpi\n        /* \"#utility.yul\":9707:9708   */\n      0x00\n        /* \"#utility.yul\":9704:9705   */\n      dup1\n        /* \"#utility.yul\":9697:9709   */\n      revert\n        /* \"#utility.yul\":9661:9663   */\n    tag_518:\n        /* \"#utility.yul\":9735:9812   */\n      tag_519\n        /* \"#utility.yul\":9804:9811   */\n      dup5\n        /* \"#utility.yul\":9795:9801   */\n      dup3\n        /* \"#utility.yul\":9784:9793   */\n      dup6\n        /* \"#utility.yul\":9780:9802   */\n      add\n        /* \"#utility.yul\":9735:9812   */\n      tag_466\n      jump\t// in\n    tag_519:\n        /* \"#utility.yul\":9725:9812   */\n      swap2\n      pop\n        /* \"#utility.yul\":9588:9822   */\n      pop\n        /* \"#utility.yul\":9516:9829   */\n      swap3\n      swap2\n      pop\n      pop\n      jump\t// out\n        /* \"#utility.yul\":9835:10097   */\n    tag_51:\n      0x00\n        /* \"#utility.yul\":9943:9945   */\n      0x20\n        /* \"#utility.yul\":9931:9940   */\n      dup3\n        /* \"#utility.yul\":9922:9929   */\n      dup5\n        /* \"#utility.yul\":9918:9941   */\n      sub\n        /* \"#utility.yul\":9914:9946   */\n      slt\n        /* \"#utility.yul\":9911:9913   */\n      iszero\n      tag_521\n      jumpi\n        /* \"#utility.yul\":9959:9960   */\n      0x00\n        /* \"#utility.yul\":9956:9957   */\n      dup1\n        /* \"#utility.yul\":9949:9961   */\n      revert\n        /* \"#utility.yul\":9911:9913   */\n    tag_521:\n        /* \"#utility.yul\":10002:10003   */\n      0x00\n        /* \"#utility.yul\":10027:10080   */\n      tag_522\n        /* \"#utility.yul\":10072:10079   */\n      dup5\n        /* \"#utility.yul\":10063:10069   */\n      dup3\n        /* \"#utility.yul\":10052:10061   */\n      dup6\n        /* \"#utility.yul\":10048:10070   */\n      add\n        /* \"#utility.yul\":10027:10080   */\n      tag_414\n      jump\t// in\n    tag_522:\n        /* \"#utility.yul\":10017:10080   */\n      swap2\n      pop\n        /* \"#utility.yul\":9973:10090   */\n      pop\n        /* \"#utility.yul\":9901:10097   */\n      swap3\n      swap2\n      pop\n      pop\n      jump\t// out\n        /* \"#utility.yul\":10103:10387   */\n    tag_182:\n      0x00\n        /* \"#utility.yul\":10222:10224   */\n      0x20\n        /* \"#utility.yul\":10210:10219   */\n      dup3\n        /* \"#utility.yul\":10201:10208   */\n      dup5\n        /* \"#utility.yul\":10197:10220   */\n      sub\n        /* \"#utility.yul\":10193:10225   */\n      slt\n        /* \"#utility.yul\":10190:10192   */\n      iszero\n      tag_524\n      jumpi\n        /* \"#utility.yul\":10238:10239   */\n      0x00\n        /* \"#utility.yul\":10235:10236   */\n      dup1\n        /* \"#utility.yul\":10228:10240   */\n      revert\n        /* \"#utility.yul\":10190:10192   */\n    tag_524:\n        /* \"#utility.yul\":10281:10282   */\n      0x00\n        /* \"#utility.yul\":10306:10370   */\n      tag_525\n        /* \"#utility.yul\":10362:10369   */\n      dup5\n        /* \"#utility.yul\":10353:10359   */\n      dup3\n        /* \"#utility.yul\":10342:10351   */\n      dup6\n        /* \"#utility.yul\":10338:10360   */\n      add\n        /* \"#utility.yul\":10306:10370   */\n      tag_485\n      jump\t// in\n    tag_525:\n        /* \"#utility.yul\":10296:10370   */\n      swap2\n      pop\n        /* \"#utility.yul\":10252:10380   */\n      pop\n        /* \"#utility.yul\":10180:10387   */\n      swap3\n      swap2\n      pop\n      pop\n      jump\t// out\n        /* \"#utility.yul\":10393:11808   */\n    tag_33:\n      0x00\n      dup1\n      0x00\n      dup1\n      0x00\n      dup1\n        /* \"#utility.yul\":10659:10662   */\n      0xc0\n        /* \"#utility.yul\":10647:10656   */\n      dup8\n        /* \"#utility.yul\":10638:10645   */\n      dup10\n        /* \"#utility.yul\":10634:10657   */\n      sub\n        /* \"#utility.yul\":10630:10663   */\n      slt\n        /* \"#utility.yul\":10627:10629   */\n      iszero\n      tag_527\n      jumpi\n        /* \"#utility.yul\":10676:10677   */\n      0x00\n        /* \"#utility.yul\":10673:10674   */\n      dup1\n        /* \"#utility.yul\":10666:10678   */\n      revert\n        /* \"#utility.yul\":10627:10629   */\n    tag_527:\n        /* \"#utility.yul\":10719:10720   */\n      0x00\n        /* \"#utility.yul\":10744:10797   */\n      tag_528\n        /* \"#utility.yul\":10789:10796   */\n      dup10\n        /* \"#utility.yul\":10780:10786   */\n      dup3\n        /* \"#utility.yul\":10769:10778   */\n      dup11\n        /* \"#utility.yul\":10765:10787   */\n      add\n        /* \"#utility.yul\":10744:10797   */\n      tag_414\n      jump\t// in\n    tag_528:\n        /* \"#utility.yul\":10734:10797   */\n      swap7\n      pop\n        /* \"#utility.yul\":10690:10807   */\n      pop\n        /* \"#utility.yul\":10874:10876   */\n      0x20\n        /* \"#utility.yul\":10863:10872   */\n      dup8\n        /* \"#utility.yul\":10859:10877   */\n      add\n        /* \"#utility.yul\":10846:10878   */\n      calldataload\n        /* \"#utility.yul\":10905:10923   */\n      0xffffffffffffffff\n        /* \"#utility.yul\":10897:10903   */\n      dup2\n        /* \"#utility.yul\":10894:10924   */\n      gt\n        /* \"#utility.yul\":10891:10893   */\n      iszero\n      tag_529\n      jumpi\n        /* \"#utility.yul\":10937:10938   */\n      0x00\n        /* \"#utility.yul\":10934:10935   */\n      dup1\n        /* \"#utility.yul\":10927:10939   */\n      revert\n        /* \"#utility.yul\":10891:10893   */\n    tag_529:\n        /* \"#utility.yul\":10965:11028   */\n      tag_530\n        /* \"#utility.yul\":11020:11027   */\n      dup10\n        /* \"#utility.yul\":11011:11017   */\n      dup3\n        /* \"#utility.yul\":11000:11009   */\n      dup11\n        /* \"#utility.yul\":10996:11018   */\n      add\n        /* \"#utility.yul\":10965:11028   */\n      tag_462\n      jump\t// in\n    tag_530:\n        /* \"#utility.yul\":10955:11028   */\n      swap6\n      pop\n        /* \"#utility.yul\":10817:11038   */\n      pop\n        /* \"#utility.yul\":11077:11079   */\n      0x40\n        /* \"#utility.yul\":11103:11156   */\n      tag_531\n        /* \"#utility.yul\":11148:11155   */\n      dup10\n        /* \"#utility.yul\":11139:11145   */\n      dup3\n        /* \"#utility.yul\":11128:11137   */\n      dup11\n        /* \"#utility.yul\":11124:11146   */\n      add\n        /* \"#utility.yul\":11103:11156   */\n      tag_423\n      jump\t// in\n    tag_531:\n        /* \"#utility.yul\":11093:11156   */\n      swap5\n      pop\n        /* \"#utility.yul\":11048:11166   */\n      pop\n        /* \"#utility.yul\":11205:11207   */\n      0x60\n        /* \"#utility.yul\":11231:11297   */\n      tag_532\n        /* \"#utility.yul\":11289:11296   */\n      dup10\n        /* \"#utility.yul\":11280:11286   */\n      dup3\n        /* \"#utility.yul\":11269:11278   */\n      dup11\n        /* \"#utility.yul\":11265:11287   */\n      add\n        /* \"#utility.yul\":11231:11297   */\n      tag_446\n      jump\t// in\n    tag_532:\n        /* \"#utility.yul\":11221:11297   */\n      swap4\n      pop\n        /* \"#utility.yul\":11176:11307   */\n      pop\n        /* \"#utility.yul\":11374:11377   */\n      0x80\n        /* \"#utility.yul\":11363:11372   */\n      dup8\n        /* \"#utility.yul\":11359:11378   */\n      add\n        /* \"#utility.yul\":11346:11379   */\n      calldataload\n        /* \"#utility.yul\":11406:11424   */\n      0xffffffffffffffff\n        /* \"#utility.yul\":11398:11404   */\n      dup2\n        /* \"#utility.yul\":11395:11425   */\n      gt\n        /* \"#utility.yul\":11392:11394   */\n      iszero\n      tag_533\n      jumpi\n        /* \"#utility.yul\":11438:11439   */\n      0x00\n        /* \"#utility.yul\":11435:11436   */\n      dup1\n        /* \"#utility.yul\":11428:11440   */\n      revert\n        /* \"#utility.yul\":11392:11394   */\n    tag_533:\n        /* \"#utility.yul\":11466:11544   */\n      tag_534\n        /* \"#utility.yul\":11536:11543   */\n      dup10\n        /* \"#utility.yul\":11527:11533   */\n      dup3\n        /* \"#utility.yul\":11516:11525   */\n      dup11\n        /* \"#utility.yul\":11512:11534   */\n      add\n        /* \"#utility.yul\":11466:11544   */\n      tag_431\n      jump\t// in\n    tag_534:\n        /* \"#utility.yul\":11456:11544   */\n      swap3\n      pop\n        /* \"#utility.yul\":11317:11554   */\n      pop\n        /* \"#utility.yul\":11621:11624   */\n      0xa0\n        /* \"#utility.yul\":11610:11619   */\n      dup8\n        /* \"#utility.yul\":11606:11625   */\n      add\n        /* \"#utility.yul\":11593:11626   */\n      calldataload\n        /* \"#utility.yul\":11653:11671   */\n      0xffffffffffffffff\n        /* \"#utility.yul\":11645:11651   */\n      dup2\n        /* \"#utility.yul\":11642:11672   */\n      gt\n        /* \"#utility.yul\":11639:11641   */\n      iszero\n      tag_535\n      jumpi\n        /* \"#utility.yul\":11685:11686   */\n      0x00\n        /* \"#utility.yul\":11682:11683   */\n      dup1\n        /* \"#utility.yul\":11675:11687   */\n      revert\n        /* \"#utility.yul\":11639:11641   */\n    tag_535:\n        /* \"#utility.yul\":11713:11791   */\n      tag_536\n        /* \"#utility.yul\":11783:11790   */\n      dup10\n        /* \"#utility.yul\":11774:11780   */\n      dup3\n        /* \"#utility.yul\":11763:11772   */\n      dup11\n        /* \"#utility.yul\":11759:11781   */\n      add\n        /* \"#utility.yul\":11713:11791   */\n      tag_431\n      jump\t// in\n    tag_536:\n        /* \"#utility.yul\":11703:11791   */\n      swap2\n      pop\n        /* \"#utility.yul\":11564:11801   */\n      pop\n        /* \"#utility.yul\":10617:11808   */\n      swap3\n      swap6\n      pop\n      swap3\n      swap6\n      pop\n      swap3\n      swap6\n      jump\t// out\n        /* \"#utility.yul\":11814:13516   */\n    tag_104:\n      0x00\n      dup1\n      0x00\n      dup1\n      0x00\n      dup1\n      0x00\n        /* \"#utility.yul\":12121:12124   */\n      0xe0\n        /* \"#utility.yul\":12109:12118   */\n      dup9\n        /* \"#utility.yul\":12100:12107   */\n      dup11\n        /* \"#utility.yul\":12096:12119   */\n      sub\n        /* \"#utility.yul\":12092:12125   */\n      slt\n        /* \"#utility.yul\":12089:12091   */\n      iszero\n      tag_538\n      jumpi\n        /* \"#utility.yul\":12138:12139   */\n      0x00\n        /* \"#utility.yul\":12135:12136   */\n      dup1\n        /* \"#utility.yul\":12128:12140   */\n      revert\n        /* \"#utility.yul\":12089:12091   */\n    tag_538:\n        /* \"#utility.yul\":12181:12182   */\n      0x00\n        /* \"#utility.yul\":12206:12259   */\n      tag_539\n        /* \"#utility.yul\":12251:12258   */\n      dup11\n        /* \"#utility.yul\":12242:12248   */\n      dup3\n        /* \"#utility.yul\":12231:12240   */\n      dup12\n        /* \"#utility.yul\":12227:12249   */\n      add\n        /* \"#utility.yul\":12206:12259   */\n      tag_414\n      jump\t// in\n    tag_539:\n        /* \"#utility.yul\":12196:12259   */\n      swap8\n      pop\n        /* \"#utility.yul\":12152:12269   */\n      pop\n        /* \"#utility.yul\":12336:12338   */\n      0x20\n        /* \"#utility.yul\":12325:12334   */\n      dup9\n        /* \"#utility.yul\":12321:12339   */\n      add\n        /* \"#utility.yul\":12308:12340   */\n      calldataload\n        /* \"#utility.yul\":12367:12385   */\n      0xffffffffffffffff\n        /* \"#utility.yul\":12359:12365   */\n      dup2\n        /* \"#utility.yul\":12356:12386   */\n      gt\n        /* \"#utility.yul\":12353:12355   */\n      iszero\n      tag_540\n      jumpi\n        /* \"#utility.yul\":12399:12400   */\n      0x00\n        /* \"#utility.yul\":12396:12397   */\n      dup1\n        /* \"#utility.yul\":12389:12401   */\n      revert\n        /* \"#utility.yul\":12353:12355   */\n    tag_540:\n        /* \"#utility.yul\":12427:12490   */\n      tag_541\n        /* \"#utility.yul\":12482:12489   */\n      dup11\n        /* \"#utility.yul\":12473:12479   */\n      dup3\n        /* \"#utility.yul\":12462:12471   */\n      dup12\n        /* \"#utility.yul\":12458:12480   */\n      add\n        /* \"#utility.yul\":12427:12490   */\n      tag_462\n      jump\t// in\n    tag_541:\n        /* \"#utility.yul\":12417:12490   */\n      swap7\n      pop\n        /* \"#utility.yul\":12279:12500   */\n      pop\n        /* \"#utility.yul\":12539:12541   */\n      0x40\n        /* \"#utility.yul\":12565:12618   */\n      tag_542\n        /* \"#utility.yul\":12610:12617   */\n      dup11\n        /* \"#utility.yul\":12601:12607   */\n      dup3\n        /* \"#utility.yul\":12590:12599   */\n      dup12\n        /* \"#utility.yul\":12586:12608   */\n      add\n        /* \"#utility.yul\":12565:12618   */\n      tag_423\n      jump\t// in\n    tag_542:\n        /* \"#utility.yul\":12555:12618   */\n      swap6\n      pop\n        /* \"#utility.yul\":12510:12628   */\n      pop\n        /* \"#utility.yul\":12667:12669   */\n      0x60\n        /* \"#utility.yul\":12693:12759   */\n      tag_543\n        /* \"#utility.yul\":12751:12758   */\n      dup11\n        /* \"#utility.yul\":12742:12748   */\n      dup3\n        /* \"#utility.yul\":12731:12740   */\n      dup12\n        /* \"#utility.yul\":12727:12749   */\n      add\n        /* \"#utility.yul\":12693:12759   */\n      tag_446\n      jump\t// in\n    tag_543:\n        /* \"#utility.yul\":12683:12759   */\n      swap5\n      pop\n        /* \"#utility.yul\":12638:12769   */\n      pop\n        /* \"#utility.yul\":12836:12839   */\n      0x80\n        /* \"#utility.yul\":12825:12834   */\n      dup9\n        /* \"#utility.yul\":12821:12840   */\n      add\n        /* \"#utility.yul\":12808:12841   */\n      calldataload\n        /* \"#utility.yul\":12868:12886   */\n      0xffffffffffffffff\n        /* \"#utility.yul\":12860:12866   */\n      dup2\n        /* \"#utility.yul\":12857:12887   */\n      gt\n        /* \"#utility.yul\":12854:12856   */\n      iszero\n      tag_544\n      jumpi\n        /* \"#utility.yul\":12900:12901   */\n      0x00\n        /* \"#utility.yul\":12897:12898   */\n      dup1\n        /* \"#utility.yul\":12890:12902   */\n      revert\n        /* \"#utility.yul\":12854:12856   */\n    tag_544:\n        /* \"#utility.yul\":12928:13006   */\n      tag_545\n        /* \"#utility.yul\":12998:13005   */\n      dup11\n        /* \"#utility.yul\":12989:12995   */\n      dup3\n        /* \"#utility.yul\":12978:12987   */\n      dup12\n        /* \"#utility.yul\":12974:12996   */\n      add\n        /* \"#utility.yul\":12928:13006   */\n      tag_431\n      jump\t// in\n    tag_545:\n        /* \"#utility.yul\":12918:13006   */\n      swap4\n      pop\n        /* \"#utility.yul\":12779:13016   */\n      pop\n        /* \"#utility.yul\":13083:13086   */\n      0xa0\n        /* \"#utility.yul\":13072:13081   */\n      dup9\n        /* \"#utility.yul\":13068:13087   */\n      add\n        /* \"#utility.yul\":13055:13088   */\n      calldataload\n        /* \"#utility.yul\":13115:13133   */\n      0xffffffffffffffff\n        /* \"#utility.yul\":13107:13113   */\n      dup2\n        /* \"#utility.yul\":13104:13134   */\n      gt\n        /* \"#utility.yul\":13101:13103   */\n      iszero\n      tag_546\n      jumpi\n        /* \"#utility.yul\":13147:13148   */\n      0x00\n        /* \"#utility.yul\":13144:13145   */\n      dup1\n        /* \"#utility.yul\":13137:13149   */\n      revert\n        /* \"#utility.yul\":13101:13103   */\n    tag_546:\n        /* \"#utility.yul\":13175:13253   */\n      tag_547\n        /* \"#utility.yul\":13245:13252   */\n      dup11\n        /* \"#utility.yul\":13236:13242   */\n      dup3\n        /* \"#utility.yul\":13225:13234   */\n      dup12\n        /* \"#utility.yul\":13221:13243   */\n      add\n        /* \"#utility.yul\":13175:13253   */\n      tag_431\n      jump\t// in\n    tag_547:\n        /* \"#utility.yul\":13165:13253   */\n      swap3\n      pop\n        /* \"#utility.yul\":13026:13263   */\n      pop\n        /* \"#utility.yul\":13330:13333   */\n      0xc0\n        /* \"#utility.yul\":13319:13328   */\n      dup9\n        /* \"#utility.yul\":13315:13334   */\n      add\n        /* \"#utility.yul\":13302:13335   */\n      calldataload\n        /* \"#utility.yul\":13362:13380   */\n      0xffffffffffffffff\n        /* \"#utility.yul\":13354:13360   */\n      dup2\n        /* \"#utility.yul\":13351:13381   */\n      gt\n        /* \"#utility.yul\":13348:13350   */\n      iszero\n      tag_548\n      jumpi\n        /* \"#utility.yul\":13394:13395   */\n      0x00\n        /* \"#utility.yul\":13391:13392   */\n      dup1\n        /* \"#utility.yul\":13384:13396   */\n      revert\n        /* \"#utility.yul\":13348:13350   */\n    tag_548:\n        /* \"#utility.yul\":13422:13499   */\n      tag_549\n        /* \"#utility.yul\":13491:13498   */\n      dup11\n        /* \"#utility.yul\":13482:13488   */\n      dup3\n        /* \"#utility.yul\":13471:13480   */\n      dup12\n        /* \"#utility.yul\":13467:13489   */\n      add\n        /* \"#utility.yul\":13422:13499   */\n      tag_466\n      jump\t// in\n    tag_549:\n        /* \"#utility.yul\":13412:13499   */\n      swap2\n      pop\n        /* \"#utility.yul\":13273:13509   */\n      pop\n        /* \"#utility.yul\":12079:13516   */\n      swap3\n      swap6\n      swap9\n      swap2\n      swap5\n      swap8\n      pop\n      swap3\n      swap6\n      pop\n      jump\t// out\n        /* \"#utility.yul\":13522:13713   */\n    tag_550:\n      0x00\n        /* \"#utility.yul\":13618:13670   */\n      tag_552\n        /* \"#utility.yul\":13666:13669   */\n      dup4\n        /* \"#utility.yul\":13658:13664   */\n      dup4\n        /* \"#utility.yul\":13618:13670   */\n      tag_553\n      jump\t// in\n    tag_552:\n        /* \"#utility.yul\":13702:13706   */\n      0x20\n        /* \"#utility.yul\":13697:13700   */\n      dup4\n        /* \"#utility.yul\":13693:13707   */\n      add\n        /* \"#utility.yul\":13679:13707   */\n      swap1\n      pop\n        /* \"#utility.yul\":13608:13713   */\n      swap3\n      swap2\n      pop\n      pop\n      jump\t// out\n        /* \"#utility.yul\":13719:13915   */\n    tag_554:\n      0x00\n        /* \"#utility.yul\":13843:13909   */\n      tag_556\n        /* \"#utility.yul\":13905:13908   */\n      dup4\n        /* \"#utility.yul\":13897:13903   */\n      dup4\n        /* \"#utility.yul\":13843:13909   */\n      tag_557\n      jump\t// in\n    tag_556:\n        /* \"#utility.yul\":13829:13909   */\n      swap1\n      pop\n        /* \"#utility.yul\":13819:13915   */\n      swap3\n      swap2\n      pop\n      pop\n      jump\t// out\n        /* \"#utility.yul\":13921:14100   */\n    tag_558:\n      0x00\n        /* \"#utility.yul\":14011:14057   */\n      tag_560\n        /* \"#utility.yul\":14053:14056   */\n      dup4\n        /* \"#utility.yul\":14045:14051   */\n      dup4\n        /* \"#utility.yul\":14011:14057   */\n      tag_561\n      jump\t// in\n    tag_560:\n        /* \"#utility.yul\":14089:14093   */\n      0x20\n        /* \"#utility.yul\":14084:14087   */\n      dup4\n        /* \"#utility.yul\":14080:14094   */\n      add\n        /* \"#utility.yul\":14066:14094   */\n      swap1\n      pop\n        /* \"#utility.yul\":14001:14100   */\n      swap3\n      swap2\n      pop\n      pop\n      jump\t// out\n        /* \"#utility.yul\":14106:14224   */\n    tag_562:\n        /* \"#utility.yul\":14193:14217   */\n      tag_564\n        /* \"#utility.yul\":14211:14216   */\n      dup2\n        /* \"#utility.yul\":14193:14217   */\n      tag_565\n      jump\t// in\n    tag_564:\n        /* \"#utility.yul\":14188:14191   */\n      dup3\n        /* \"#utility.yul\":14181:14218   */\n      mstore\n        /* \"#utility.yul\":14171:14224   */\n      pop\n      pop\n      jump\t// out\n        /* \"#utility.yul\":14258:15006   */\n    tag_566:\n      0x00\n        /* \"#utility.yul\":14412:14465   */\n      tag_568\n        /* \"#utility.yul\":14459:14464   */\n      dup3\n        /* \"#utility.yul\":14412:14465   */\n      tag_569\n      jump\t// in\n    tag_568:\n        /* \"#utility.yul\":14481:14574   */\n      tag_570\n        /* \"#utility.yul\":14567:14573   */\n      dup2\n        /* \"#utility.yul\":14562:14565   */\n      dup6\n        /* \"#utility.yul\":14481:14574   */\n      tag_571\n      jump\t// in\n    tag_570:\n        /* \"#utility.yul\":14474:14574   */\n      swap4\n      pop\n        /* \"#utility.yul\":14598:14653   */\n      tag_572\n        /* \"#utility.yul\":14647:14652   */\n      dup4\n        /* \"#utility.yul\":14598:14653   */\n      tag_573\n      jump\t// in\n    tag_572:\n        /* \"#utility.yul\":14676:14683   */\n      dup1\n        /* \"#utility.yul\":14707:14708   */\n      0x00\n        /* \"#utility.yul\":14692:14981   */\n    tag_574:\n        /* \"#utility.yul\":14717:14723   */\n      dup4\n        /* \"#utility.yul\":14714:14715   */\n      dup2\n        /* \"#utility.yul\":14711:14724   */\n      lt\n        /* \"#utility.yul\":14692:14981   */\n      iszero\n      tag_576\n      jumpi\n        /* \"#utility.yul\":14793:14799   */\n      dup2\n        /* \"#utility.yul\":14787:14800   */\n      mload\n        /* \"#utility.yul\":14820:14889   */\n      tag_577\n        /* \"#utility.yul\":14885:14888   */\n      dup9\n        /* \"#utility.yul\":14870:14883   */\n      dup3\n        /* \"#utility.yul\":14820:14889   */\n      tag_550\n      jump\t// in\n    tag_577:\n        /* \"#utility.yul\":14813:14889   */\n      swap8\n      pop\n        /* \"#utility.yul\":14912:14971   */\n      tag_578\n        /* \"#utility.yul\":14964:14970   */\n      dup4\n        /* \"#utility.yul\":14912:14971   */\n      tag_579\n      jump\t// in\n    tag_578:\n        /* \"#utility.yul\":14902:14971   */\n      swap3\n      pop\n        /* \"#utility.yul\":14752:14981   */\n      pop\n        /* \"#utility.yul\":14739:14740   */\n      0x01\n        /* \"#utility.yul\":14736:14737   */\n      dup2\n        /* \"#utility.yul\":14732:14741   */\n      add\n        /* \"#utility.yul\":14727:14741   */\n      swap1\n      pop\n        /* \"#utility.yul\":14692:14981   */\n      jump(tag_574)\n    tag_576:\n        /* \"#utility.yul\":14696:14710   */\n      pop\n        /* \"#utility.yul\":14997:15000   */\n      dup6\n        /* \"#utility.yul\":14990:15000   */\n      swap4\n      pop\n        /* \"#utility.yul\":14388:15006   */\n      pop\n      pop\n      pop\n      swap3\n      swap2\n      pop\n      pop\n      jump\t// out\n        /* \"#utility.yul\":15040:16031   */\n    tag_580:\n      0x00\n        /* \"#utility.yul\":15208:15272   */\n      tag_582\n        /* \"#utility.yul\":15266:15271   */\n      dup3\n        /* \"#utility.yul\":15208:15272   */\n      tag_583\n      jump\t// in\n    tag_582:\n        /* \"#utility.yul\":15288:15384   */\n      tag_584\n        /* \"#utility.yul\":15377:15383   */\n      dup2\n        /* \"#utility.yul\":15372:15375   */\n      dup6\n        /* \"#utility.yul\":15288:15384   */\n      tag_585\n      jump\t// in\n    tag_584:\n        /* \"#utility.yul\":15281:15384   */\n      swap4\n      pop\n        /* \"#utility.yul\":15410:15413   */\n      dup4\n        /* \"#utility.yul\":15455:15459   */\n      0x20\n        /* \"#utility.yul\":15447:15453   */\n      dup3\n        /* \"#utility.yul\":15443:15460   */\n      mul\n        /* \"#utility.yul\":15438:15441   */\n      dup6\n        /* \"#utility.yul\":15434:15461   */\n      add\n        /* \"#utility.yul\":15485:15551   */\n      tag_586\n        /* \"#utility.yul\":15545:15550   */\n      dup6\n        /* \"#utility.yul\":15485:15551   */\n      tag_587\n      jump\t// in\n    tag_586:\n        /* \"#utility.yul\":15574:15581   */\n      dup1\n        /* \"#utility.yul\":15605:15606   */\n      0x00\n        /* \"#utility.yul\":15590:15986   */\n    tag_588:\n        /* \"#utility.yul\":15615:15621   */\n      dup6\n        /* \"#utility.yul\":15612:15613   */\n      dup2\n        /* \"#utility.yul\":15609:15622   */\n      lt\n        /* \"#utility.yul\":15590:15986   */\n      iszero\n      tag_590\n      jumpi\n        /* \"#utility.yul\":15686:15695   */\n      dup5\n        /* \"#utility.yul\":15680:15684   */\n      dup5\n        /* \"#utility.yul\":15676:15696   */\n      sub\n        /* \"#utility.yul\":15671:15674   */\n      dup10\n        /* \"#utility.yul\":15664:15697   */\n      mstore\n        /* \"#utility.yul\":15737:15743   */\n      dup2\n        /* \"#utility.yul\":15731:15744   */\n      mload\n        /* \"#utility.yul\":15765:15849   */\n      tag_591\n        /* \"#utility.yul\":15844:15848   */\n      dup6\n        /* \"#utility.yul\":15829:15842   */\n      dup3\n        /* \"#utility.yul\":15765:15849   */\n      tag_554\n      jump\t// in\n    tag_591:\n        /* \"#utility.yul\":15757:15849   */\n      swap5\n      pop\n        /* \"#utility.yul\":15872:15942   */\n      tag_592\n        /* \"#utility.yul\":15935:15941   */\n      dup4\n        /* \"#utility.yul\":15872:15942   */\n      tag_593\n      jump\t// in\n    tag_592:\n        /* \"#utility.yul\":15862:15942   */\n      swap3\n      pop\n        /* \"#utility.yul\":15971:15975   */\n      0x20\n        /* \"#utility.yul\":15966:15969   */\n      dup11\n        /* \"#utility.yul\":15962:15976   */\n      add\n        /* \"#utility.yul\":15955:15976   */\n      swap10\n      pop\n        /* \"#utility.yul\":15650:15986   */\n      pop\n        /* \"#utility.yul\":15637:15638   */\n      0x01\n        /* \"#utility.yul\":15634:15635   */\n      dup2\n        /* \"#utility.yul\":15630:15639   */\n      add\n        /* \"#utility.yul\":15625:15639   */\n      swap1\n      pop\n        /* \"#utility.yul\":15590:15986   */\n      jump(tag_588)\n    tag_590:\n        /* \"#utility.yul\":15594:15608   */\n      pop\n        /* \"#utility.yul\":16002:16006   */\n      dup3\n        /* \"#utility.yul\":15995:16006   */\n      swap8\n      pop\n        /* \"#utility.yul\":16022:16025   */\n      dup8\n        /* \"#utility.yul\":16015:16025   */\n      swap6\n      pop\n        /* \"#utility.yul\":15184:16031   */\n      pop\n      pop\n      pop\n      pop\n      pop\n      swap3\n      swap2\n      pop\n      pop\n      jump\t// out\n        /* \"#utility.yul\":16067:16799   */\n    tag_594:\n      0x00\n        /* \"#utility.yul\":16215:16269   */\n      tag_596\n        /* \"#utility.yul\":16263:16268   */\n      dup3\n        /* \"#utility.yul\":16215:16269   */\n      tag_597\n      jump\t// in\n    tag_596:\n        /* \"#utility.yul\":16285:16371   */\n      tag_598\n        /* \"#utility.yul\":16364:16370   */\n      dup2\n        /* \"#utility.yul\":16359:16362   */\n      dup6\n        /* \"#utility.yul\":16285:16371   */\n      tag_599\n      jump\t// in\n    tag_598:\n        /* \"#utility.yul\":16278:16371   */\n      swap4\n      pop\n        /* \"#utility.yul\":16395:16451   */\n      tag_600\n        /* \"#utility.yul\":16445:16450   */\n      dup4\n        /* \"#utility.yul\":16395:16451   */\n      tag_601\n      jump\t// in\n    tag_600:\n        /* \"#utility.yul\":16474:16481   */\n      dup1\n        /* \"#utility.yul\":16505:16506   */\n      0x00\n        /* \"#utility.yul\":16490:16774   */\n    tag_602:\n        /* \"#utility.yul\":16515:16521   */\n      dup4\n        /* \"#utility.yul\":16512:16513   */\n      dup2\n        /* \"#utility.yul\":16509:16522   */\n      lt\n        /* \"#utility.yul\":16490:16774   */\n      iszero\n      tag_604\n      jumpi\n        /* \"#utility.yul\":16591:16597   */\n      dup2\n        /* \"#utility.yul\":16585:16598   */\n      mload\n        /* \"#utility.yul\":16618:16681   */\n      tag_605\n        /* \"#utility.yul\":16677:16680   */\n      dup9\n        /* \"#utility.yul\":16662:16675   */\n      dup3\n        /* \"#utility.yul\":16618:16681   */\n      tag_558\n      jump\t// in\n    tag_605:\n        /* \"#utility.yul\":16611:16681   */\n      swap8\n      pop\n        /* \"#utility.yul\":16704:16764   */\n      tag_606\n        /* \"#utility.yul\":16757:16763   */\n      dup4\n        /* \"#utility.yul\":16704:16764   */\n      tag_607\n      jump\t// in\n    tag_606:\n        /* \"#utility.yul\":16694:16764   */\n      swap3\n      pop\n        /* \"#utility.yul\":16550:16774   */\n      pop\n        /* \"#utility.yul\":16537:16538   */\n      0x01\n        /* \"#utility.yul\":16534:16535   */\n      dup2\n        /* \"#utility.yul\":16530:16539   */\n      add\n        /* \"#utility.yul\":16525:16539   */\n      swap1\n      pop\n        /* \"#utility.yul\":16490:16774   */\n      jump(tag_602)\n    tag_604:\n        /* \"#utility.yul\":16494:16508   */\n      pop\n        /* \"#utility.yul\":16790:16793   */\n      dup6\n        /* \"#utility.yul\":16783:16793   */\n      swap4\n      pop\n        /* \"#utility.yul\":16191:16799   */\n      pop\n      pop\n      pop\n      swap3\n      swap2\n      pop\n      pop\n      jump\t// out\n        /* \"#utility.yul\":16805:16914   */\n    tag_608:\n        /* \"#utility.yul\":16886:16907   */\n      tag_610\n        /* \"#utility.yul\":16901:16906   */\n      dup2\n        /* \"#utility.yul\":16886:16907   */\n      tag_611\n      jump\t// in\n    tag_610:\n        /* \"#utility.yul\":16881:16884   */\n      dup3\n        /* \"#utility.yul\":16874:16908   */\n      mstore\n        /* \"#utility.yul\":16864:16914   */\n      pop\n      pop\n      jump\t// out\n        /* \"#utility.yul\":16920:17073   */\n    tag_612:\n        /* \"#utility.yul\":17018:17066   */\n      tag_614\n        /* \"#utility.yul\":17060:17065   */\n      dup2\n        /* \"#utility.yul\":17018:17066   */\n      tag_615\n      jump\t// in\n    tag_614:\n        /* \"#utility.yul\":17013:17016   */\n      dup3\n        /* \"#utility.yul\":17006:17067   */\n      mstore\n        /* \"#utility.yul\":16996:17073   */\n      pop\n      pop\n      jump\t// out\n        /* \"#utility.yul\":17079:17238   */\n    tag_616:\n        /* \"#utility.yul\":17184:17231   */\n      tag_618\n        /* \"#utility.yul\":17225:17230   */\n      dup2\n        /* \"#utility.yul\":17184:17231   */\n      tag_619\n      jump\t// in\n    tag_618:\n        /* \"#utility.yul\":17179:17182   */\n      dup3\n        /* \"#utility.yul\":17172:17232   */\n      mstore\n        /* \"#utility.yul\":17162:17238   */\n      pop\n      pop\n      jump\t// out\n        /* \"#utility.yul\":17244:17359   */\n    tag_620:\n        /* \"#utility.yul\":17329:17352   */\n      tag_622\n        /* \"#utility.yul\":17346:17351   */\n      dup2\n        /* \"#utility.yul\":17329:17352   */\n      tag_623\n      jump\t// in\n    tag_622:\n        /* \"#utility.yul\":17324:17327   */\n      dup3\n        /* \"#utility.yul\":17317:17353   */\n      mstore\n        /* \"#utility.yul\":17307:17359   */\n      pop\n      pop\n      jump\t// out\n        /* \"#utility.yul\":17365:17488   */\n    tag_624:\n        /* \"#utility.yul\":17458:17481   */\n      tag_626\n        /* \"#utility.yul\":17475:17480   */\n      dup2\n        /* \"#utility.yul\":17458:17481   */\n      tag_623\n      jump\t// in\n    tag_626:\n        /* \"#utility.yul\":17453:17456   */\n      dup3\n        /* \"#utility.yul\":17446:17482   */\n      mstore\n        /* \"#utility.yul\":17436:17488   */\n      pop\n      pop\n      jump\t// out\n        /* \"#utility.yul\":17494:17607   */\n    tag_553:\n        /* \"#utility.yul\":17577:17600   */\n      tag_628\n        /* \"#utility.yul\":17594:17599   */\n      dup2\n        /* \"#utility.yul\":17577:17600   */\n      tag_623\n      jump\t// in\n    tag_628:\n        /* \"#utility.yul\":17572:17575   */\n      dup3\n        /* \"#utility.yul\":17565:17601   */\n      mstore\n        /* \"#utility.yul\":17555:17607   */\n      pop\n      pop\n      jump\t// out\n        /* \"#utility.yul\":17637:17954   */\n    tag_629:\n      0x00\n        /* \"#utility.yul\":17774:17863   */\n      tag_631\n        /* \"#utility.yul\":17856:17862   */\n      dup4\n        /* \"#utility.yul\":17851:17854   */\n      dup6\n        /* \"#utility.yul\":17774:17863   */\n      tag_632\n      jump\t// in\n    tag_631:\n        /* \"#utility.yul\":17767:17863   */\n      swap4\n      pop\n        /* \"#utility.yul\":17873:17916   */\n      tag_633\n        /* \"#utility.yul\":17909:17915   */\n      dup4\n        /* \"#utility.yul\":17904:17907   */\n      dup6\n        /* \"#utility.yul\":17897:17902   */\n      dup5\n        /* \"#utility.yul\":17873:17916   */\n      tag_422\n      jump\t// in\n    tag_633:\n        /* \"#utility.yul\":17941:17947   */\n      dup3\n        /* \"#utility.yul\":17936:17939   */\n      dup5\n        /* \"#utility.yul\":17932:17948   */\n      add\n        /* \"#utility.yul\":17925:17948   */\n      swap1\n      pop\n        /* \"#utility.yul\":17757:17954   */\n      swap4\n      swap3\n      pop\n      pop\n      pop\n      jump\t// out\n        /* \"#utility.yul\":17960:18304   */\n    tag_557:\n      0x00\n        /* \"#utility.yul\":18066:18105   */\n      tag_635\n        /* \"#utility.yul\":18099:18104   */\n      dup3\n        /* \"#utility.yul\":18066:18105   */\n      tag_636\n      jump\t// in\n    tag_635:\n        /* \"#utility.yul\":18121:18182   */\n      tag_637\n        /* \"#utility.yul\":18175:18181   */\n      dup2\n        /* \"#utility.yul\":18170:18173   */\n      dup6\n        /* \"#utility.yul\":18121:18182   */\n      tag_638\n      jump\t// in\n    tag_637:\n        /* \"#utility.yul\":18114:18182   */\n      swap4\n      pop\n        /* \"#utility.yul\":18191:18243   */\n      tag_639\n        /* \"#utility.yul\":18236:18242   */\n      dup2\n        /* \"#utility.yul\":18231:18234   */\n      dup6\n        /* \"#utility.yul\":18224:18228   */\n      0x20\n        /* \"#utility.yul\":18217:18222   */\n      dup7\n        /* \"#utility.yul\":18213:18229   */\n      add\n        /* \"#utility.yul\":18191:18243   */\n      tag_640\n      jump\t// in\n    tag_639:\n        /* \"#utility.yul\":18268:18297   */\n      tag_641\n        /* \"#utility.yul\":18290:18296   */\n      dup2\n        /* \"#utility.yul\":18268:18297   */\n      tag_642\n      jump\t// in\n    tag_641:\n        /* \"#utility.yul\":18263:18266   */\n      dup5\n        /* \"#utility.yul\":18259:18298   */\n      add\n        /* \"#utility.yul\":18252:18298   */\n      swap2\n      pop\n        /* \"#utility.yul\":18042:18304   */\n      pop\n      swap3\n      swap2\n      pop\n      pop\n      jump\t// out\n        /* \"#utility.yul\":18310:18674   */\n    tag_643:\n      0x00\n        /* \"#utility.yul\":18426:18465   */\n      tag_645\n        /* \"#utility.yul\":18459:18464   */\n      dup3\n        /* \"#utility.yul\":18426:18465   */\n      tag_636\n      jump\t// in\n    tag_645:\n        /* \"#utility.yul\":18481:18552   */\n      tag_646\n        /* \"#utility.yul\":18545:18551   */\n      dup2\n        /* \"#utility.yul\":18540:18543   */\n      dup6\n        /* \"#utility.yul\":18481:18552   */\n      tag_647\n      jump\t// in\n    tag_646:\n        /* \"#utility.yul\":18474:18552   */\n      swap4\n      pop\n        /* \"#utility.yul\":18561:18613   */\n      tag_648\n        /* \"#utility.yul\":18606:18612   */\n      dup2\n        /* \"#utility.yul\":18601:18604   */\n      dup6\n        /* \"#utility.yul\":18594:18598   */\n      0x20\n        /* \"#utility.yul\":18587:18592   */\n      dup7\n        /* \"#utility.yul\":18583:18599   */\n      add\n        /* \"#utility.yul\":18561:18613   */\n      tag_640\n      jump\t// in\n    tag_648:\n        /* \"#utility.yul\":18638:18667   */\n      tag_649\n        /* \"#utility.yul\":18660:18666   */\n      dup2\n        /* \"#utility.yul\":18638:18667   */\n      tag_642\n      jump\t// in\n    tag_649:\n        /* \"#utility.yul\":18633:18636   */\n      dup5\n        /* \"#utility.yul\":18629:18668   */\n      add\n        /* \"#utility.yul\":18622:18668   */\n      swap2\n      pop\n        /* \"#utility.yul\":18402:18674   */\n      pop\n      swap3\n      swap2\n      pop\n      pop\n      jump\t// out\n        /* \"#utility.yul\":18680:19060   */\n    tag_650:\n      0x00\n        /* \"#utility.yul\":18804:18843   */\n      tag_652\n        /* \"#utility.yul\":18837:18842   */\n      dup3\n        /* \"#utility.yul\":18804:18843   */\n      tag_636\n      jump\t// in\n    tag_652:\n        /* \"#utility.yul\":18859:18938   */\n      tag_653\n        /* \"#utility.yul\":18931:18937   */\n      dup2\n        /* \"#utility.yul\":18926:18929   */\n      dup6\n        /* \"#utility.yul\":18859:18938   */\n      tag_654\n      jump\t// in\n    tag_653:\n        /* \"#utility.yul\":18852:18938   */\n      swap4\n      pop\n        /* \"#utility.yul\":18947:18999   */\n      tag_655\n        /* \"#utility.yul\":18992:18998   */\n      dup2\n        /* \"#utility.yul\":18987:18990   */\n      dup6\n        /* \"#utility.yul\":18980:18984   */\n      0x20\n        /* \"#utility.yul\":18973:18978   */\n      dup7\n        /* \"#utility.yul\":18969:18985   */\n      add\n        /* \"#utility.yul\":18947:18999   */\n      tag_640\n      jump\t// in\n    tag_655:\n        /* \"#utility.yul\":19024:19053   */\n      tag_656\n        /* \"#utility.yul\":19046:19052   */\n      dup2\n        /* \"#utility.yul\":19024:19053   */\n      tag_642\n      jump\t// in\n    tag_656:\n        /* \"#utility.yul\":19019:19022   */\n      dup5\n        /* \"#utility.yul\":19015:19054   */\n      add\n        /* \"#utility.yul\":19008:19054   */\n      swap2\n      pop\n        /* \"#utility.yul\":18780:19060   */\n      pop\n      swap3\n      swap2\n      pop\n      pop\n      jump\t// out\n        /* \"#utility.yul\":19066:19443   */\n    tag_657:\n      0x00\n        /* \"#utility.yul\":19200:19239   */\n      tag_659\n        /* \"#utility.yul\":19233:19238   */\n      dup3\n        /* \"#utility.yul\":19200:19239   */\n      tag_636\n      jump\t// in\n    tag_659:\n        /* \"#utility.yul\":19255:19344   */\n      tag_660\n        /* \"#utility.yul\":19337:19343   */\n      dup2\n        /* \"#utility.yul\":19332:19335   */\n      dup6\n        /* \"#utility.yul\":19255:19344   */\n      tag_632\n      jump\t// in\n    tag_660:\n        /* \"#utility.yul\":19248:19344   */\n      swap4\n      pop\n        /* \"#utility.yul\":19353:19405   */\n      tag_661\n        /* \"#utility.yul\":19398:19404   */\n      dup2\n        /* \"#utility.yul\":19393:19396   */\n      dup6\n        /* \"#utility.yul\":19386:19390   */\n      0x20\n        /* \"#utility.yul\":19379:19384   */\n      dup7\n        /* \"#utility.yul\":19375:19391   */\n      add\n        /* \"#utility.yul\":19353:19405   */\n      tag_640\n      jump\t// in\n    tag_661:\n        /* \"#utility.yul\":19430:19436   */\n      dup1\n        /* \"#utility.yul\":19425:19428   */\n      dup5\n        /* \"#utility.yul\":19421:19437   */\n      add\n        /* \"#utility.yul\":19414:19437   */\n      swap2\n      pop\n        /* \"#utility.yul\":19176:19443   */\n      pop\n      swap3\n      swap2\n      pop\n      pop\n      jump\t// out\n        /* \"#utility.yul\":19473:20275   */\n    tag_662:\n      0x00\n        /* \"#utility.yul\":19595:19600   */\n      dup2\n        /* \"#utility.yul\":19589:19601   */\n      sload\n        /* \"#utility.yul\":19624:19660   */\n      tag_664\n        /* \"#utility.yul\":19650:19659   */\n      dup2\n        /* \"#utility.yul\":19624:19660   */\n      tag_117\n      jump\t// in\n    tag_664:\n        /* \"#utility.yul\":19676:19747   */\n      tag_665\n        /* \"#utility.yul\":19740:19746   */\n      dup2\n        /* \"#utility.yul\":19735:19738   */\n      dup7\n        /* \"#utility.yul\":19676:19747   */\n      tag_647\n      jump\t// in\n    tag_665:\n        /* \"#utility.yul\":19669:19747   */\n      swap5\n      pop\n        /* \"#utility.yul\":19778:19779   */\n      0x01\n        /* \"#utility.yul\":19767:19776   */\n      dup3\n        /* \"#utility.yul\":19763:19780   */\n      and\n        /* \"#utility.yul\":19794:19795   */\n      0x00\n        /* \"#utility.yul\":19789:19924   */\n      dup2\n      eq\n      tag_667\n      jumpi\n        /* \"#utility.yul\":19938:19939   */\n      0x01\n        /* \"#utility.yul\":19933:20269   */\n      dup2\n      eq\n      tag_668\n      jumpi\n        /* \"#utility.yul\":19756:20269   */\n      jump(tag_666)\n        /* \"#utility.yul\":19789:19924   */\n    tag_667:\n        /* \"#utility.yul\":19873:19877   */\n      0xff\n        /* \"#utility.yul\":19869:19878   */\n      not\n        /* \"#utility.yul\":19858:19867   */\n      dup4\n        /* \"#utility.yul\":19854:19879   */\n      and\n        /* \"#utility.yul\":19849:19852   */\n      dup7\n        /* \"#utility.yul\":19842:19880   */\n      mstore\n        /* \"#utility.yul\":19909:19913   */\n      0x20\n        /* \"#utility.yul\":19904:19907   */\n      dup7\n        /* \"#utility.yul\":19900:19914   */\n      add\n        /* \"#utility.yul\":19893:19914   */\n      swap4\n      pop\n        /* \"#utility.yul\":19789:19924   */\n      jump(tag_666)\n        /* \"#utility.yul\":19933:20269   */\n    tag_668:\n        /* \"#utility.yul\":20000:20038   */\n      tag_669\n        /* \"#utility.yul\":20032:20037   */\n      dup6\n        /* \"#utility.yul\":20000:20038   */\n      tag_670\n      jump\t// in\n    tag_669:\n        /* \"#utility.yul\":20060:20061   */\n      0x00\n        /* \"#utility.yul\":20074:20228   */\n    tag_671:\n        /* \"#utility.yul\":20088:20094   */\n      dup4\n        /* \"#utility.yul\":20085:20086   */\n      dup2\n        /* \"#utility.yul\":20082:20095   */\n      lt\n        /* \"#utility.yul\":20074:20228   */\n      iszero\n      tag_673\n      jumpi\n        /* \"#utility.yul\":20162:20169   */\n      dup2\n        /* \"#utility.yul\":20156:20170   */\n      sload\n        /* \"#utility.yul\":20152:20153   */\n      dup2\n        /* \"#utility.yul\":20147:20150   */\n      dup10\n        /* \"#utility.yul\":20143:20154   */\n      add\n        /* \"#utility.yul\":20136:20171   */\n      mstore\n        /* \"#utility.yul\":20212:20213   */\n      0x01\n        /* \"#utility.yul\":20203:20210   */\n      dup3\n        /* \"#utility.yul\":20199:20214   */\n      add\n        /* \"#utility.yul\":20188:20214   */\n      swap2\n      pop\n        /* \"#utility.yul\":20110:20114   */\n      0x20\n        /* \"#utility.yul\":20107:20108   */\n      dup2\n        /* \"#utility.yul\":20103:20115   */\n      add\n        /* \"#utility.yul\":20098:20115   */\n      swap1\n      pop\n        /* \"#utility.yul\":20074:20228   */\n      jump(tag_671)\n    tag_673:\n        /* \"#utility.yul\":20257:20258   */\n      dup1\n        /* \"#utility.yul\":20252:20255   */\n      dup9\n        /* \"#utility.yul\":20248:20259   */\n      add\n        /* \"#utility.yul\":20241:20259   */\n      swap6\n      pop\n        /* \"#utility.yul\":19940:20269   */\n      pop\n      pop\n        /* \"#utility.yul\":19756:20269   */\n    tag_666:\n      pop\n        /* \"#utility.yul\":19562:20275   */\n      pop\n      pop\n      swap3\n      swap2\n      pop\n      pop\n      jump\t// out\n        /* \"#utility.yul\":20281:20601   */\n    tag_674:\n      0x00\n        /* \"#utility.yul\":20444:20511   */\n      tag_676\n        /* \"#utility.yul\":20508:20510   */\n      0x16\n        /* \"#utility.yul\":20503:20506   */\n      dup4\n        /* \"#utility.yul\":20444:20511   */\n      tag_647\n      jump\t// in\n    tag_676:\n        /* \"#utility.yul\":20437:20511   */\n      swap2\n      pop\n        /* \"#utility.yul\":20541:20565   */\n      0x444f204e4f5420524550454154205441534b5321212100000000000000000000\n        /* \"#utility.yul\":20537:20538   */\n      0x00\n        /* \"#utility.yul\":20532:20535   */\n      dup4\n        /* \"#utility.yul\":20528:20539   */\n      add\n        /* \"#utility.yul\":20521:20566   */\n      mstore\n        /* \"#utility.yul\":20592:20594   */\n      0x20\n        /* \"#utility.yul\":20587:20590   */\n      dup3\n        /* \"#utility.yul\":20583:20595   */\n      add\n        /* \"#utility.yul\":20576:20595   */\n      swap1\n      pop\n        /* \"#utility.yul\":20427:20601   */\n      swap2\n      swap1\n      pop\n      jump\t// out\n        /* \"#utility.yul\":20607:20937   */\n    tag_677:\n      0x00\n        /* \"#utility.yul\":20770:20837   */\n      tag_679\n        /* \"#utility.yul\":20834:20836   */\n      0x20\n        /* \"#utility.yul\":20829:20832   */\n      dup4\n        /* \"#utility.yul\":20770:20837   */\n      tag_647\n      jump\t// in\n    tag_679:\n        /* \"#utility.yul\":20763:20837   */\n      swap2\n      pop\n        /* \"#utility.yul\":20867:20901   */\n      0x50726f63657373205661726961626c65206973206e6f7420636f72726563742e\n        /* \"#utility.yul\":20863:20864   */\n      0x00\n        /* \"#utility.yul\":20858:20861   */\n      dup4\n        /* \"#utility.yul\":20854:20865   */\n      add\n        /* \"#utility.yul\":20847:20902   */\n      mstore\n        /* \"#utility.yul\":20928:20930   */\n      0x20\n        /* \"#utility.yul\":20923:20926   */\n      dup3\n        /* \"#utility.yul\":20919:20931   */\n      add\n        /* \"#utility.yul\":20912:20931   */\n      swap1\n      pop\n        /* \"#utility.yul\":20753:20937   */\n      swap2\n      swap1\n      pop\n      jump\t// out\n        /* \"#utility.yul\":20943:21051   */\n    tag_561:\n        /* \"#utility.yul\":21020:21044   */\n      tag_681\n        /* \"#utility.yul\":21038:21043   */\n      dup2\n        /* \"#utility.yul\":21020:21044   */\n      tag_682\n      jump\t// in\n    tag_681:\n        /* \"#utility.yul\":21015:21018   */\n      dup3\n        /* \"#utility.yul\":21008:21045   */\n      mstore\n        /* \"#utility.yul\":20998:21051   */\n      pop\n      pop\n      jump\t// out\n        /* \"#utility.yul\":21057:21175   */\n    tag_683:\n        /* \"#utility.yul\":21144:21168   */\n      tag_685\n        /* \"#utility.yul\":21162:21167   */\n      dup2\n        /* \"#utility.yul\":21144:21168   */\n      tag_682\n      jump\t// in\n    tag_685:\n        /* \"#utility.yul\":21139:21142   */\n      dup3\n        /* \"#utility.yul\":21132:21169   */\n      mstore\n        /* \"#utility.yul\":21122:21175   */\n      pop\n      pop\n      jump\t// out\n        /* \"#utility.yul\":21181:21476   */\n    tag_160:\n      0x00\n        /* \"#utility.yul\":21345:21450   */\n      tag_687\n        /* \"#utility.yul\":21446:21449   */\n      dup3\n        /* \"#utility.yul\":21437:21443   */\n      dup5\n        /* \"#utility.yul\":21429:21435   */\n      dup7\n        /* \"#utility.yul\":21345:21450   */\n      tag_629\n      jump\t// in\n    tag_687:\n        /* \"#utility.yul\":21338:21450   */\n      swap2\n      pop\n        /* \"#utility.yul\":21467:21470   */\n      dup2\n        /* \"#utility.yul\":21460:21470   */\n      swap1\n      pop\n        /* \"#utility.yul\":21327:21476   */\n      swap4\n      swap3\n      pop\n      pop\n      pop\n      jump\t// out\n        /* \"#utility.yul\":21482:21757   */\n    tag_115:\n      0x00\n        /* \"#utility.yul\":21636:21731   */\n      tag_689\n        /* \"#utility.yul\":21727:21730   */\n      dup3\n        /* \"#utility.yul\":21718:21724   */\n      dup5\n        /* \"#utility.yul\":21636:21731   */\n      tag_657\n      jump\t// in\n    tag_689:\n        /* \"#utility.yul\":21629:21731   */\n      swap2\n      pop\n        /* \"#utility.yul\":21748:21751   */\n      dup2\n        /* \"#utility.yul\":21741:21751   */\n      swap1\n      pop\n        /* \"#utility.yul\":21618:21757   */\n      swap3\n      swap2\n      pop\n      pop\n      jump\t// out\n        /* \"#utility.yul\":21763:22176   */\n    tag_48:\n      0x00\n        /* \"#utility.yul\":21964:21966   */\n      0x20\n        /* \"#utility.yul\":21953:21962   */\n      dup3\n        /* \"#utility.yul\":21949:21967   */\n      add\n        /* \"#utility.yul\":21941:21967   */\n      swap1\n      pop\n        /* \"#utility.yul\":22013:22022   */\n      dup2\n        /* \"#utility.yul\":22007:22011   */\n      dup2\n        /* \"#utility.yul\":22003:22023   */\n      sub\n        /* \"#utility.yul\":21999:22000   */\n      0x00\n        /* \"#utility.yul\":21988:21997   */\n      dup4\n        /* \"#utility.yul\":21984:22001   */\n      add\n        /* \"#utility.yul\":21977:22024   */\n      mstore\n        /* \"#utility.yul\":22041:22169   */\n      tag_691\n        /* \"#utility.yul\":22164:22168   */\n      dup2\n        /* \"#utility.yul\":22155:22161   */\n      dup5\n        /* \"#utility.yul\":22041:22169   */\n      tag_580\n      jump\t// in\n    tag_691:\n        /* \"#utility.yul\":22033:22169   */\n      swap1\n      pop\n        /* \"#utility.yul\":21931:22176   */\n      swap3\n      swap2\n      pop\n      pop\n      jump\t// out\n        /* \"#utility.yul\":22182:22555   */\n    tag_75:\n      0x00\n        /* \"#utility.yul\":22363:22365   */\n      0x20\n        /* \"#utility.yul\":22352:22361   */\n      dup3\n        /* \"#utility.yul\":22348:22366   */\n      add\n        /* \"#utility.yul\":22340:22366   */\n      swap1\n      pop\n        /* \"#utility.yul\":22412:22421   */\n      dup2\n        /* \"#utility.yul\":22406:22410   */\n      dup2\n        /* \"#utility.yul\":22402:22422   */\n      sub\n        /* \"#utility.yul\":22398:22399   */\n      0x00\n        /* \"#utility.yul\":22387:22396   */\n      dup4\n        /* \"#utility.yul\":22383:22400   */\n      add\n        /* \"#utility.yul\":22376:22423   */\n      mstore\n        /* \"#utility.yul\":22440:22548   */\n      tag_693\n        /* \"#utility.yul\":22543:22547   */\n      dup2\n        /* \"#utility.yul\":22534:22540   */\n      dup5\n        /* \"#utility.yul\":22440:22548   */\n      tag_594\n      jump\t// in\n    tag_693:\n        /* \"#utility.yul\":22432:22548   */\n      swap1\n      pop\n        /* \"#utility.yul\":22330:22555   */\n      swap3\n      swap2\n      pop\n      pop\n      jump\t// out\n        /* \"#utility.yul\":22561:22771   */\n    tag_30:\n      0x00\n        /* \"#utility.yul\":22686:22688   */\n      0x20\n        /* \"#utility.yul\":22675:22684   */\n      dup3\n        /* \"#utility.yul\":22671:22689   */\n      add\n        /* \"#utility.yul\":22663:22689   */\n      swap1\n      pop\n        /* \"#utility.yul\":22699:22764   */\n      tag_695\n        /* \"#utility.yul\":22761:22762   */\n      0x00\n        /* \"#utility.yul\":22750:22759   */\n      dup4\n        /* \"#utility.yul\":22746:22763   */\n      add\n        /* \"#utility.yul\":22737:22743   */\n      dup5\n        /* \"#utility.yul\":22699:22764   */\n      tag_608\n      jump\t// in\n    tag_695:\n        /* \"#utility.yul\":22653:22771   */\n      swap3\n      swap2\n      pop\n      pop\n      jump\t// out\n        /* \"#utility.yul\":22777:23955   */\n    tag_84:\n      0x00\n        /* \"#utility.yul\":23173:23176   */\n      0xc0\n        /* \"#utility.yul\":23162:23171   */\n      dup3\n        /* \"#utility.yul\":23158:23177   */\n      add\n        /* \"#utility.yul\":23150:23177   */\n      swap1\n      pop\n        /* \"#utility.yul\":23187:23252   */\n      tag_697\n        /* \"#utility.yul\":23249:23250   */\n      0x00\n        /* \"#utility.yul\":23238:23247   */\n      dup4\n        /* \"#utility.yul\":23234:23251   */\n      add\n        /* \"#utility.yul\":23225:23231   */\n      dup10\n        /* \"#utility.yul\":23187:23252   */\n      tag_608\n      jump\t// in\n    tag_697:\n        /* \"#utility.yul\":23299:23308   */\n      dup2\n        /* \"#utility.yul\":23293:23297   */\n      dup2\n        /* \"#utility.yul\":23289:23309   */\n      sub\n        /* \"#utility.yul\":23284:23286   */\n      0x20\n        /* \"#utility.yul\":23273:23282   */\n      dup4\n        /* \"#utility.yul\":23269:23287   */\n      add\n        /* \"#utility.yul\":23262:23310   */\n      mstore\n        /* \"#utility.yul\":23327:23405   */\n      tag_698\n        /* \"#utility.yul\":23400:23404   */\n      dup2\n        /* \"#utility.yul\":23391:23397   */\n      dup9\n        /* \"#utility.yul\":23327:23405   */\n      tag_643\n      jump\t// in\n    tag_698:\n        /* \"#utility.yul\":23319:23405   */\n      swap1\n      pop\n        /* \"#utility.yul\":23415:23487   */\n      tag_699\n        /* \"#utility.yul\":23483:23485   */\n      0x40\n        /* \"#utility.yul\":23472:23481   */\n      dup4\n        /* \"#utility.yul\":23468:23486   */\n      add\n        /* \"#utility.yul\":23459:23465   */\n      dup8\n        /* \"#utility.yul\":23415:23487   */\n      tag_562\n      jump\t// in\n    tag_699:\n        /* \"#utility.yul\":23497:23580   */\n      tag_700\n        /* \"#utility.yul\":23576:23578   */\n      0x60\n        /* \"#utility.yul\":23565:23574   */\n      dup4\n        /* \"#utility.yul\":23561:23579   */\n      add\n        /* \"#utility.yul\":23552:23558   */\n      dup7\n        /* \"#utility.yul\":23497:23580   */\n      tag_612\n      jump\t// in\n    tag_700:\n        /* \"#utility.yul\":23628:23637   */\n      dup2\n        /* \"#utility.yul\":23622:23626   */\n      dup2\n        /* \"#utility.yul\":23618:23638   */\n      sub\n        /* \"#utility.yul\":23612:23615   */\n      0x80\n        /* \"#utility.yul\":23601:23610   */\n      dup4\n        /* \"#utility.yul\":23597:23616   */\n      add\n        /* \"#utility.yul\":23590:23639   */\n      mstore\n        /* \"#utility.yul\":23656:23764   */\n      tag_701\n        /* \"#utility.yul\":23759:23763   */\n      dup2\n        /* \"#utility.yul\":23750:23756   */\n      dup6\n        /* \"#utility.yul\":23656:23764   */\n      tag_594\n      jump\t// in\n    tag_701:\n        /* \"#utility.yul\":23648:23764   */\n      swap1\n      pop\n        /* \"#utility.yul\":23812:23821   */\n      dup2\n        /* \"#utility.yul\":23806:23810   */\n      dup2\n        /* \"#utility.yul\":23802:23822   */\n      sub\n        /* \"#utility.yul\":23796:23799   */\n      0xa0\n        /* \"#utility.yul\":23785:23794   */\n      dup4\n        /* \"#utility.yul\":23781:23800   */\n      add\n        /* \"#utility.yul\":23774:23823   */\n      mstore\n        /* \"#utility.yul\":23840:23948   */\n      tag_702\n        /* \"#utility.yul\":23943:23947   */\n      dup2\n        /* \"#utility.yul\":23934:23940   */\n      dup5\n        /* \"#utility.yul\":23840:23948   */\n      tag_594\n      jump\t// in\n    tag_702:\n        /* \"#utility.yul\":23832:23948   */\n      swap1\n      pop\n        /* \"#utility.yul\":23140:23955   */\n      swap8\n      swap7\n      pop\n      pop\n      pop\n      pop\n      pop\n      pop\n      pop\n      jump\t// out\n        /* \"#utility.yul\":23961:24179   */\n    tag_40:\n      0x00\n        /* \"#utility.yul\":24090:24092   */\n      0x20\n        /* \"#utility.yul\":24079:24088   */\n      dup3\n        /* \"#utility.yul\":24075:24093   */\n      add\n        /* \"#utility.yul\":24067:24093   */\n      swap1\n      pop\n        /* \"#utility.yul\":24103:24172   */\n      tag_704\n        /* \"#utility.yul\":24169:24170   */\n      0x00\n        /* \"#utility.yul\":24158:24167   */\n      dup4\n        /* \"#utility.yul\":24154:24171   */\n      add\n        /* \"#utility.yul\":24145:24151   */\n      dup5\n        /* \"#utility.yul\":24103:24172   */\n      tag_620\n      jump\t// in\n    tag_704:\n        /* \"#utility.yul\":24057:24179   */\n      swap3\n      swap2\n      pop\n      pop\n      jump\t// out\n        /* \"#utility.yul\":24185:24822   */\n    tag_135:\n      0x00\n        /* \"#utility.yul\":24436:24438   */\n      0x60\n        /* \"#utility.yul\":24425:24434   */\n      dup3\n        /* \"#utility.yul\":24421:24439   */\n      add\n        /* \"#utility.yul\":24413:24439   */\n      swap1\n      pop\n        /* \"#utility.yul\":24449:24526   */\n      tag_706\n        /* \"#utility.yul\":24523:24524   */\n      0x00\n        /* \"#utility.yul\":24512:24521   */\n      dup4\n        /* \"#utility.yul\":24508:24525   */\n      add\n        /* \"#utility.yul\":24499:24505   */\n      dup7\n        /* \"#utility.yul\":24449:24526   */\n      tag_624\n      jump\t// in\n    tag_706:\n        /* \"#utility.yul\":24573:24582   */\n      dup2\n        /* \"#utility.yul\":24567:24571   */\n      dup2\n        /* \"#utility.yul\":24563:24583   */\n      sub\n        /* \"#utility.yul\":24558:24560   */\n      0x20\n        /* \"#utility.yul\":24547:24556   */\n      dup4\n        /* \"#utility.yul\":24543:24561   */\n      add\n        /* \"#utility.yul\":24536:24584   */\n      mstore\n        /* \"#utility.yul\":24601:24715   */\n      tag_707\n        /* \"#utility.yul\":24710:24714   */\n      dup2\n        /* \"#utility.yul\":24701:24707   */\n      dup6\n        /* \"#utility.yul\":24601:24715   */\n      tag_566\n      jump\t// in\n    tag_707:\n        /* \"#utility.yul\":24593:24715   */\n      swap1\n      pop\n        /* \"#utility.yul\":24725:24815   */\n      tag_708\n        /* \"#utility.yul\":24811:24813   */\n      0x40\n        /* \"#utility.yul\":24800:24809   */\n      dup4\n        /* \"#utility.yul\":24796:24814   */\n      add\n        /* \"#utility.yul\":24787:24793   */\n      dup5\n        /* \"#utility.yul\":24725:24815   */\n      tag_616\n      jump\t// in\n    tag_708:\n        /* \"#utility.yul\":24403:24822   */\n      swap5\n      swap4\n      pop\n      pop\n      pop\n      pop\n      jump\t// out\n        /* \"#utility.yul\":24828:25141   */\n    tag_54:\n      0x00\n        /* \"#utility.yul\":24979:24981   */\n      0x20\n        /* \"#utility.yul\":24968:24977   */\n      dup3\n        /* \"#utility.yul\":24964:24982   */\n      add\n        /* \"#utility.yul\":24956:24982   */\n      swap1\n      pop\n        /* \"#utility.yul\":25028:25037   */\n      dup2\n        /* \"#utility.yul\":25022:25026   */\n      dup2\n        /* \"#utility.yul\":25018:25038   */\n      sub\n        /* \"#utility.yul\":25014:25015   */\n      0x00\n        /* \"#utility.yul\":25003:25012   */\n      dup4\n        /* \"#utility.yul\":24999:25016   */\n      add\n        /* \"#utility.yul\":24992:25039   */\n      mstore\n        /* \"#utility.yul\":25056:25134   */\n      tag_710\n        /* \"#utility.yul\":25129:25133   */\n      dup2\n        /* \"#utility.yul\":25120:25126   */\n      dup5\n        /* \"#utility.yul\":25056:25134   */\n      tag_643\n      jump\t// in\n    tag_710:\n        /* \"#utility.yul\":25048:25134   */\n      swap1\n      pop\n        /* \"#utility.yul\":24946:25141   */\n      swap3\n      swap2\n      pop\n      pop\n      jump\t// out\n        /* \"#utility.yul\":25147:25823   */\n    tag_123:\n      0x00\n        /* \"#utility.yul\":25392:25394   */\n      0x60\n        /* \"#utility.yul\":25381:25390   */\n      dup3\n        /* \"#utility.yul\":25377:25395   */\n      add\n        /* \"#utility.yul\":25369:25395   */\n      swap1\n      pop\n        /* \"#utility.yul\":25441:25450   */\n      dup2\n        /* \"#utility.yul\":25435:25439   */\n      dup2\n        /* \"#utility.yul\":25431:25451   */\n      sub\n        /* \"#utility.yul\":25427:25428   */\n      0x00\n        /* \"#utility.yul\":25416:25425   */\n      dup4\n        /* \"#utility.yul\":25412:25429   */\n      add\n        /* \"#utility.yul\":25405:25452   */\n      mstore\n        /* \"#utility.yul\":25469:25555   */\n      tag_712\n        /* \"#utility.yul\":25550:25554   */\n      dup2\n        /* \"#utility.yul\":25541:25547   */\n      dup7\n        /* \"#utility.yul\":25469:25555   */\n      tag_650\n      jump\t// in\n    tag_712:\n        /* \"#utility.yul\":25461:25555   */\n      swap1\n      pop\n        /* \"#utility.yul\":25602:25611   */\n      dup2\n        /* \"#utility.yul\":25596:25600   */\n      dup2\n        /* \"#utility.yul\":25592:25612   */\n      sub\n        /* \"#utility.yul\":25587:25589   */\n      0x20\n        /* \"#utility.yul\":25576:25585   */\n      dup4\n        /* \"#utility.yul\":25572:25590   */\n      add\n        /* \"#utility.yul\":25565:25613   */\n      mstore\n        /* \"#utility.yul\":25630:25716   */\n      tag_713\n        /* \"#utility.yul\":25711:25715   */\n      dup2\n        /* \"#utility.yul\":25702:25708   */\n      dup6\n        /* \"#utility.yul\":25630:25716   */\n      tag_650\n      jump\t// in\n    tag_713:\n        /* \"#utility.yul\":25622:25716   */\n      swap1\n      pop\n        /* \"#utility.yul\":25726:25816   */\n      tag_714\n        /* \"#utility.yul\":25812:25814   */\n      0x40\n        /* \"#utility.yul\":25801:25810   */\n      dup4\n        /* \"#utility.yul\":25797:25815   */\n      add\n        /* \"#utility.yul\":25788:25794   */\n      dup5\n        /* \"#utility.yul\":25726:25816   */\n      tag_616\n      jump\t// in\n    tag_714:\n        /* \"#utility.yul\":25359:25823   */\n      swap5\n      swap4\n      pop\n      pop\n      pop\n      pop\n      jump\t// out\n        /* \"#utility.yul\":25829:26136   */\n    tag_240:\n      0x00\n        /* \"#utility.yul\":25977:25979   */\n      0x20\n        /* \"#utility.yul\":25966:25975   */\n      dup3\n        /* \"#utility.yul\":25962:25980   */\n      add\n        /* \"#utility.yul\":25954:25980   */\n      swap1\n      pop\n        /* \"#utility.yul\":26026:26035   */\n      dup2\n        /* \"#utility.yul\":26020:26024   */\n      dup2\n        /* \"#utility.yul\":26016:26036   */\n      sub\n        /* \"#utility.yul\":26012:26013   */\n      0x00\n        /* \"#utility.yul\":26001:26010   */\n      dup4\n        /* \"#utility.yul\":25997:26014   */\n      add\n        /* \"#utility.yul\":25990:26037   */\n      mstore\n        /* \"#utility.yul\":26054:26129   */\n      tag_716\n        /* \"#utility.yul\":26124:26128   */\n      dup2\n        /* \"#utility.yul\":26115:26121   */\n      dup5\n        /* \"#utility.yul\":26054:26129   */\n      tag_662\n      jump\t// in\n    tag_716:\n        /* \"#utility.yul\":26046:26129   */\n      swap1\n      pop\n        /* \"#utility.yul\":25944:26136   */\n      swap3\n      swap2\n      pop\n      pop\n      jump\t// out\n        /* \"#utility.yul\":26142:26561   */\n    tag_207:\n      0x00\n        /* \"#utility.yul\":26346:26348   */\n      0x20\n        /* \"#utility.yul\":26335:26344   */\n      dup3\n        /* \"#utility.yul\":26331:26349   */\n      add\n        /* \"#utility.yul\":26323:26349   */\n      swap1\n      pop\n        /* \"#utility.yul\":26395:26404   */\n      dup2\n        /* \"#utility.yul\":26389:26393   */\n      dup2\n        /* \"#utility.yul\":26385:26405   */\n      sub\n        /* \"#utility.yul\":26381:26382   */\n      0x00\n        /* \"#utility.yul\":26370:26379   */\n      dup4\n        /* \"#utility.yul\":26366:26383   */\n      add\n        /* \"#utility.yul\":26359:26406   */\n      mstore\n        /* \"#utility.yul\":26423:26554   */\n      tag_718\n        /* \"#utility.yul\":26549:26553   */\n      dup2\n        /* \"#utility.yul\":26423:26554   */\n      tag_674\n      jump\t// in\n    tag_718:\n        /* \"#utility.yul\":26415:26554   */\n      swap1\n      pop\n        /* \"#utility.yul\":26313:26561   */\n      swap2\n      swap1\n      pop\n      jump\t// out\n        /* \"#utility.yul\":26567:26986   */\n    tag_263:\n      0x00\n        /* \"#utility.yul\":26771:26773   */\n      0x20\n        /* \"#utility.yul\":26760:26769   */\n      dup3\n        /* \"#utility.yul\":26756:26774   */\n      add\n        /* \"#utility.yul\":26748:26774   */\n      swap1\n      pop\n        /* \"#utility.yul\":26820:26829   */\n      dup2\n        /* \"#utility.yul\":26814:26818   */\n      dup2\n        /* \"#utility.yul\":26810:26830   */\n      sub\n        /* \"#utility.yul\":26806:26807   */\n      0x00\n        /* \"#utility.yul\":26795:26804   */\n      dup4\n        /* \"#utility.yul\":26791:26808   */\n      add\n        /* \"#utility.yul\":26784:26831   */\n      mstore\n        /* \"#utility.yul\":26848:26979   */\n      tag_720\n        /* \"#utility.yul\":26974:26978   */\n      dup2\n        /* \"#utility.yul\":26848:26979   */\n      tag_677\n      jump\t// in\n    tag_720:\n        /* \"#utility.yul\":26840:26979   */\n      swap1\n      pop\n        /* \"#utility.yul\":26738:26986   */\n      swap2\n      swap1\n      pop\n      jump\t// out\n        /* \"#utility.yul\":26992:27214   */\n    tag_58:\n      0x00\n        /* \"#utility.yul\":27123:27125   */\n      0x20\n        /* \"#utility.yul\":27112:27121   */\n      dup3\n        /* \"#utility.yul\":27108:27126   */\n      add\n        /* \"#utility.yul\":27100:27126   */\n      swap1\n      pop\n        /* \"#utility.yul\":27136:27207   */\n      tag_722\n        /* \"#utility.yul\":27204:27205   */\n      0x00\n        /* \"#utility.yul\":27193:27202   */\n      dup4\n        /* \"#utility.yul\":27189:27206   */\n      add\n        /* \"#utility.yul\":27180:27186   */\n      dup5\n        /* \"#utility.yul\":27136:27207   */\n      tag_683\n      jump\t// in\n    tag_722:\n        /* \"#utility.yul\":27090:27214   */\n      swap3\n      swap2\n      pop\n      pop\n      jump\t// out\n        /* \"#utility.yul\":27220:27503   */\n    tag_397:\n      0x00\n        /* \"#utility.yul\":27286:27288   */\n      0x40\n        /* \"#utility.yul\":27280:27289   */\n      mload\n        /* \"#utility.yul\":27270:27289   */\n      swap1\n      pop\n        /* \"#utility.yul\":27328:27332   */\n      dup2\n        /* \"#utility.yul\":27320:27326   */\n      dup2\n        /* \"#utility.yul\":27316:27333   */\n      add\n        /* \"#utility.yul\":27435:27441   */\n      dup2\n        /* \"#utility.yul\":27423:27433   */\n      dup2\n        /* \"#utility.yul\":27420:27442   */\n      lt\n        /* \"#utility.yul\":27399:27417   */\n      0xffffffffffffffff\n        /* \"#utility.yul\":27387:27397   */\n      dup3\n        /* \"#utility.yul\":27384:27418   */\n      gt\n        /* \"#utility.yul\":27381:27443   */\n      or\n        /* \"#utility.yul\":27378:27380   */\n      iszero\n      tag_724\n      jumpi\n        /* \"#utility.yul\":27446:27464   */\n      tag_725\n      tag_726\n      jump\t// in\n    tag_725:\n        /* \"#utility.yul\":27378:27380   */\n    tag_724:\n        /* \"#utility.yul\":27486:27496   */\n      dup1\n        /* \"#utility.yul\":27482:27484   */\n      0x40\n        /* \"#utility.yul\":27475:27497   */\n      mstore\n        /* \"#utility.yul\":27260:27503   */\n      pop\n      swap2\n      swap1\n      pop\n      jump\t// out\n        /* \"#utility.yul\":27509:27819   */\n    tag_396:\n      0x00\n        /* \"#utility.yul\":27675:27693   */\n      0xffffffffffffffff\n        /* \"#utility.yul\":27667:27673   */\n      dup3\n        /* \"#utility.yul\":27664:27694   */\n      gt\n        /* \"#utility.yul\":27661:27663   */\n      iszero\n      tag_728\n      jumpi\n        /* \"#utility.yul\":27697:27715   */\n      tag_729\n      tag_726\n      jump\t// in\n    tag_729:\n        /* \"#utility.yul\":27661:27663   */\n    tag_728:\n        /* \"#utility.yul\":27747:27751   */\n      0x20\n        /* \"#utility.yul\":27739:27745   */\n      dup3\n        /* \"#utility.yul\":27735:27752   */\n      mul\n        /* \"#utility.yul\":27727:27752   */\n      swap1\n      pop\n        /* \"#utility.yul\":27807:27811   */\n      0x20\n        /* \"#utility.yul\":27801:27805   */\n      dup2\n        /* \"#utility.yul\":27797:27812   */\n      add\n        /* \"#utility.yul\":27789:27812   */\n      swap1\n      pop\n        /* \"#utility.yul\":27590:27819   */\n      swap2\n      swap1\n      pop\n      jump\t// out\n        /* \"#utility.yul\":27825:28136   */\n    tag_408:\n      0x00\n        /* \"#utility.yul\":27992:28010   */\n      0xffffffffffffffff\n        /* \"#utility.yul\":27984:27990   */\n      dup3\n        /* \"#utility.yul\":27981:28011   */\n      gt\n        /* \"#utility.yul\":27978:27980   */\n      iszero\n      tag_731\n      jumpi\n        /* \"#utility.yul\":28014:28032   */\n      tag_732\n      tag_726\n      jump\t// in\n    tag_732:\n        /* \"#utility.yul\":27978:27980   */\n    tag_731:\n        /* \"#utility.yul\":28064:28068   */\n      0x20\n        /* \"#utility.yul\":28056:28062   */\n      dup3\n        /* \"#utility.yul\":28052:28069   */\n      mul\n        /* \"#utility.yul\":28044:28069   */\n      swap1\n      pop\n        /* \"#utility.yul\":28124:28128   */\n      0x20\n        /* \"#utility.yul\":28118:28122   */\n      dup2\n        /* \"#utility.yul\":28114:28129   */\n      add\n        /* \"#utility.yul\":28106:28129   */\n      swap1\n      pop\n        /* \"#utility.yul\":27907:28136   */\n      swap2\n      swap1\n      pop\n      jump\t// out\n        /* \"#utility.yul\":28142:28474   */\n    tag_419:\n      0x00\n        /* \"#utility.yul\":28294:28312   */\n      0xffffffffffffffff\n        /* \"#utility.yul\":28286:28292   */\n      dup3\n        /* \"#utility.yul\":28283:28313   */\n      gt\n        /* \"#utility.yul\":28280:28282   */\n      iszero\n      tag_734\n      jumpi\n        /* \"#utility.yul\":28316:28334   */\n      tag_735\n      tag_726\n      jump\t// in\n    tag_735:\n        /* \"#utility.yul\":28280:28282   */\n    tag_734:\n        /* \"#utility.yul\":28401:28405   */\n      0x1f\n        /* \"#utility.yul\":28397:28406   */\n      not\n        /* \"#utility.yul\":28390:28394   */\n      0x1f\n        /* \"#utility.yul\":28382:28388   */\n      dup4\n        /* \"#utility.yul\":28378:28395   */\n      add\n        /* \"#utility.yul\":28374:28407   */\n      and\n        /* \"#utility.yul\":28366:28407   */\n      swap1\n      pop\n        /* \"#utility.yul\":28462:28466   */\n      0x20\n        /* \"#utility.yul\":28456:28460   */\n      dup2\n        /* \"#utility.yul\":28452:28467   */\n      add\n        /* \"#utility.yul\":28444:28467   */\n      swap1\n      pop\n        /* \"#utility.yul\":28209:28474   */\n      swap2\n      swap1\n      pop\n      jump\t// out\n        /* \"#utility.yul\":28480:28611   */\n    tag_573:\n      0x00\n        /* \"#utility.yul\":28569:28572   */\n      dup2\n        /* \"#utility.yul\":28561:28572   */\n      swap1\n      pop\n        /* \"#utility.yul\":28599:28603   */\n      0x20\n        /* \"#utility.yul\":28594:28597   */\n      dup3\n        /* \"#utility.yul\":28590:28604   */\n      add\n        /* \"#utility.yul\":28582:28604   */\n      swap1\n      pop\n        /* \"#utility.yul\":28551:28611   */\n      swap2\n      swap1\n      pop\n      jump\t// out\n        /* \"#utility.yul\":28617:28759   */\n    tag_587:\n      0x00\n        /* \"#utility.yul\":28717:28720   */\n      dup2\n        /* \"#utility.yul\":28709:28720   */\n      swap1\n      pop\n        /* \"#utility.yul\":28747:28751   */\n      0x20\n        /* \"#utility.yul\":28742:28745   */\n      dup3\n        /* \"#utility.yul\":28738:28752   */\n      add\n        /* \"#utility.yul\":28730:28752   */\n      swap1\n      pop\n        /* \"#utility.yul\":28699:28759   */\n      swap2\n      swap1\n      pop\n      jump\t// out\n        /* \"#utility.yul\":28765:28897   */\n    tag_601:\n      0x00\n        /* \"#utility.yul\":28855:28858   */\n      dup2\n        /* \"#utility.yul\":28847:28858   */\n      swap1\n      pop\n        /* \"#utility.yul\":28885:28889   */\n      0x20\n        /* \"#utility.yul\":28880:28883   */\n      dup3\n        /* \"#utility.yul\":28876:28890   */\n      add\n        /* \"#utility.yul\":28868:28890   */\n      swap1\n      pop\n        /* \"#utility.yul\":28837:28897   */\n      swap2\n      swap1\n      pop\n      jump\t// out\n        /* \"#utility.yul\":28903:29044   */\n    tag_670:\n      0x00\n        /* \"#utility.yul\":28975:28978   */\n      dup2\n        /* \"#utility.yul\":28967:28978   */\n      swap1\n      pop\n        /* \"#utility.yul\":28998:29001   */\n      dup2\n        /* \"#utility.yul\":28995:28996   */\n      0x00\n        /* \"#utility.yul\":28988:29002   */\n      mstore\n        /* \"#utility.yul\":29032:29036   */\n      0x20\n        /* \"#utility.yul\":29029:29030   */\n      0x00\n        /* \"#utility.yul\":29019:29037   */\n      keccak256\n        /* \"#utility.yul\":29011:29037   */\n      swap1\n      pop\n        /* \"#utility.yul\":28957:29044   */\n      swap2\n      swap1\n      pop\n      jump\t// out\n        /* \"#utility.yul\":29050:29163   */\n    tag_569:\n      0x00\n        /* \"#utility.yul\":29150:29155   */\n      dup2\n        /* \"#utility.yul\":29144:29156   */\n      mload\n        /* \"#utility.yul\":29134:29156   */\n      swap1\n      pop\n        /* \"#utility.yul\":29123:29163   */\n      swap2\n      swap1\n      pop\n      jump\t// out\n        /* \"#utility.yul\":29169:29293   */\n    tag_583:\n      0x00\n        /* \"#utility.yul\":29280:29285   */\n      dup2\n        /* \"#utility.yul\":29274:29286   */\n      mload\n        /* \"#utility.yul\":29264:29286   */\n      swap1\n      pop\n        /* \"#utility.yul\":29253:29293   */\n      swap2\n      swap1\n      pop\n      jump\t// out\n        /* \"#utility.yul\":29299:29413   */\n    tag_597:\n      0x00\n        /* \"#utility.yul\":29400:29405   */\n      dup2\n        /* \"#utility.yul\":29394:29406   */\n      mload\n        /* \"#utility.yul\":29384:29406   */\n      swap1\n      pop\n        /* \"#utility.yul\":29373:29413   */\n      swap2\n      swap1\n      pop\n      jump\t// out\n        /* \"#utility.yul\":29419:29518   */\n    tag_636:\n      0x00\n        /* \"#utility.yul\":29505:29510   */\n      dup2\n        /* \"#utility.yul\":29499:29511   */\n      mload\n        /* \"#utility.yul\":29489:29511   */\n      swap1\n      pop\n        /* \"#utility.yul\":29478:29518   */\n      swap2\n      swap1\n      pop\n      jump\t// out\n        /* \"#utility.yul\":29524:29636   */\n    tag_579:\n      0x00\n        /* \"#utility.yul\":29625:29629   */\n      0x20\n        /* \"#utility.yul\":29620:29623   */\n      dup3\n        /* \"#utility.yul\":29616:29630   */\n      add\n        /* \"#utility.yul\":29608:29630   */\n      swap1\n      pop\n        /* \"#utility.yul\":29598:29636   */\n      swap2\n      swap1\n      pop\n      jump\t// out\n        /* \"#utility.yul\":29642:29765   */\n    tag_593:\n      0x00\n        /* \"#utility.yul\":29754:29758   */\n      0x20\n        /* \"#utility.yul\":29749:29752   */\n      dup3\n        /* \"#utility.yul\":29745:29759   */\n      add\n        /* \"#utility.yul\":29737:29759   */\n      swap1\n      pop\n        /* \"#utility.yul\":29727:29765   */\n      swap2\n      swap1\n      pop\n      jump\t// out\n        /* \"#utility.yul\":29771:29884   */\n    tag_607:\n      0x00\n        /* \"#utility.yul\":29873:29877   */\n      0x20\n        /* \"#utility.yul\":29868:29871   */\n      dup3\n        /* \"#utility.yul\":29864:29878   */\n      add\n        /* \"#utility.yul\":29856:29878   */\n      swap1\n      pop\n        /* \"#utility.yul\":29846:29884   */\n      swap2\n      swap1\n      pop\n      jump\t// out\n        /* \"#utility.yul\":29890:30081   */\n    tag_571:\n      0x00\n        /* \"#utility.yul\":30030:30036   */\n      dup3\n        /* \"#utility.yul\":30025:30028   */\n      dup3\n        /* \"#utility.yul\":30018:30037   */\n      mstore\n        /* \"#utility.yul\":30070:30074   */\n      0x20\n        /* \"#utility.yul\":30065:30068   */\n      dup3\n        /* \"#utility.yul\":30061:30075   */\n      add\n        /* \"#utility.yul\":30046:30075   */\n      swap1\n      pop\n        /* \"#utility.yul\":30008:30081   */\n      swap3\n      swap2\n      pop\n      pop\n      jump\t// out\n        /* \"#utility.yul\":30087:30281   */\n    tag_585:\n      0x00\n        /* \"#utility.yul\":30230:30236   */\n      dup3\n        /* \"#utility.yul\":30225:30228   */\n      dup3\n        /* \"#utility.yul\":30218:30237   */\n      mstore\n        /* \"#utility.yul\":30270:30274   */\n      0x20\n        /* \"#utility.yul\":30265:30268   */\n      dup3\n        /* \"#utility.yul\":30261:30275   */\n      add\n        /* \"#utility.yul\":30246:30275   */\n      swap1\n      pop\n        /* \"#utility.yul\":30208:30281   */\n      swap3\n      swap2\n      pop\n      pop\n      jump\t// out\n        /* \"#utility.yul\":30287:30471   */\n    tag_599:\n      0x00\n        /* \"#utility.yul\":30420:30426   */\n      dup3\n        /* \"#utility.yul\":30415:30418   */\n      dup3\n        /* \"#utility.yul\":30408:30427   */\n      mstore\n        /* \"#utility.yul\":30460:30464   */\n      0x20\n        /* \"#utility.yul\":30455:30458   */\n      dup3\n        /* \"#utility.yul\":30451:30465   */\n      add\n        /* \"#utility.yul\":30436:30465   */\n      swap1\n      pop\n        /* \"#utility.yul\":30398:30471   */\n      swap3\n      swap2\n      pop\n      pop\n      jump\t// out\n        /* \"#utility.yul\":30477:30636   */\n    tag_638:\n      0x00\n        /* \"#utility.yul\":30585:30591   */\n      dup3\n        /* \"#utility.yul\":30580:30583   */\n      dup3\n        /* \"#utility.yul\":30573:30592   */\n      mstore\n        /* \"#utility.yul\":30625:30629   */\n      0x20\n        /* \"#utility.yul\":30620:30623   */\n      dup3\n        /* \"#utility.yul\":30616:30630   */\n      add\n        /* \"#utility.yul\":30601:30630   */\n      swap1\n      pop\n        /* \"#utility.yul\":30563:30636   */\n      swap3\n      swap2\n      pop\n      pop\n      jump\t// out\n        /* \"#utility.yul\":30642:30811   */\n    tag_647:\n      0x00\n        /* \"#utility.yul\":30760:30766   */\n      dup3\n        /* \"#utility.yul\":30755:30758   */\n      dup3\n        /* \"#utility.yul\":30748:30767   */\n      mstore\n        /* \"#utility.yul\":30800:30804   */\n      0x20\n        /* \"#utility.yul\":30795:30798   */\n      dup3\n        /* \"#utility.yul\":30791:30805   */\n      add\n        /* \"#utility.yul\":30776:30805   */\n      swap1\n      pop\n        /* \"#utility.yul\":30738:30811   */\n      swap3\n      swap2\n      pop\n      pop\n      jump\t// out\n        /* \"#utility.yul\":30817:30994   */\n    tag_654:\n      0x00\n        /* \"#utility.yul\":30943:30949   */\n      dup3\n        /* \"#utility.yul\":30938:30941   */\n      dup3\n        /* \"#utility.yul\":30931:30950   */\n      mstore\n        /* \"#utility.yul\":30983:30987   */\n      0x20\n        /* \"#utility.yul\":30978:30981   */\n      dup3\n        /* \"#utility.yul\":30974:30988   */\n      add\n        /* \"#utility.yul\":30959:30988   */\n      swap1\n      pop\n        /* \"#utility.yul\":30921:30994   */\n      swap3\n      swap2\n      pop\n      pop\n      jump\t// out\n        /* \"#utility.yul\":31000:31148   */\n    tag_632:\n      0x00\n        /* \"#utility.yul\":31139:31142   */\n      dup2\n        /* \"#utility.yul\":31124:31142   */\n      swap1\n      pop\n        /* \"#utility.yul\":31114:31148   */\n      swap3\n      swap2\n      pop\n      pop\n      jump\t// out\n        /* \"#utility.yul\":31154:31459   */\n    tag_184:\n      0x00\n        /* \"#utility.yul\":31213:31233   */\n      tag_755\n        /* \"#utility.yul\":31231:31232   */\n      dup3\n        /* \"#utility.yul\":31213:31233   */\n      tag_682\n      jump\t// in\n    tag_755:\n        /* \"#utility.yul\":31208:31233   */\n      swap2\n      pop\n        /* \"#utility.yul\":31247:31267   */\n      tag_756\n        /* \"#utility.yul\":31265:31266   */\n      dup4\n        /* \"#utility.yul\":31247:31267   */\n      tag_682\n      jump\t// in\n    tag_756:\n        /* \"#utility.yul\":31242:31267   */\n      swap3\n      pop\n        /* \"#utility.yul\":31401:31402   */\n      dup3\n        /* \"#utility.yul\":31333:31399   */\n      0xffffffffffffffffffffffffffffffffffffffffffffffffffffffffffffffff\n        /* \"#utility.yul\":31329:31403   */\n      sub\n        /* \"#utility.yul\":31326:31327   */\n      dup3\n        /* \"#utility.yul\":31323:31404   */\n      gt\n        /* \"#utility.yul\":31320:31322   */\n      iszero\n      tag_757\n      jumpi\n        /* \"#utility.yul\":31407:31425   */\n      tag_758\n      tag_759\n      jump\t// in\n    tag_758:\n        /* \"#utility.yul\":31320:31322   */\n    tag_757:\n        /* \"#utility.yul\":31451:31452   */\n      dup3\n        /* \"#utility.yul\":31448:31449   */\n      dup3\n        /* \"#utility.yul\":31444:31453   */\n      add\n        /* \"#utility.yul\":31437:31453   */\n      swap1\n      pop\n        /* \"#utility.yul\":31198:31459   */\n      swap3\n      swap2\n      pop\n      pop\n      jump\t// out\n        /* \"#utility.yul\":31465:31561   */\n    tag_565:\n      0x00\n        /* \"#utility.yul\":31531:31555   */\n      tag_761\n        /* \"#utility.yul\":31549:31554   */\n      dup3\n        /* \"#utility.yul\":31531:31555   */\n      tag_762\n      jump\t// in\n    tag_761:\n        /* \"#utility.yul\":31520:31555   */\n      swap1\n      pop\n        /* \"#utility.yul\":31510:31561   */\n      swap2\n      swap1\n      pop\n      jump\t// out\n        /* \"#utility.yul\":31567:31657   */\n    tag_611:\n      0x00\n        /* \"#utility.yul\":31644:31649   */\n      dup2\n        /* \"#utility.yul\":31637:31650   */\n      iszero\n        /* \"#utility.yul\":31630:31651   */\n      iszero\n        /* \"#utility.yul\":31619:31651   */\n      swap1\n      pop\n        /* \"#utility.yul\":31609:31657   */\n      swap2\n      swap1\n      pop\n      jump\t// out\n        /* \"#utility.yul\":31663:31800   */\n    tag_764:\n      0x00\n        /* \"#utility.yul\":31742:31747   */\n      dup2\n        /* \"#utility.yul\":31731:31747   */\n      swap1\n      pop\n        /* \"#utility.yul\":31748:31794   */\n      tag_766\n        /* \"#utility.yul\":31788:31793   */\n      dup3\n        /* \"#utility.yul\":31748:31794   */\n      tag_767\n      jump\t// in\n    tag_766:\n        /* \"#utility.yul\":31721:31800   */\n      swap2\n      swap1\n      pop\n      jump\t// out\n        /* \"#utility.yul\":31806:31941   */\n    tag_768:\n      0x00\n        /* \"#utility.yul\":31884:31889   */\n      dup2\n        /* \"#utility.yul\":31873:31889   */\n      swap1\n      pop\n        /* \"#utility.yul\":31890:31935   */\n      tag_770\n        /* \"#utility.yul\":31929:31934   */\n      dup3\n        /* \"#utility.yul\":31890:31935   */\n      tag_771\n      jump\t// in\n    tag_770:\n        /* \"#utility.yul\":31863:31941   */\n      swap2\n      swap1\n      pop\n      jump\t// out\n        /* \"#utility.yul\":31947:32023   */\n    tag_623:\n      0x00\n        /* \"#utility.yul\":32012:32017   */\n      dup2\n        /* \"#utility.yul\":32001:32017   */\n      swap1\n      pop\n        /* \"#utility.yul\":31991:32023   */\n      swap2\n      swap1\n      pop\n      jump\t// out\n        /* \"#utility.yul\":32029:32155   */\n    tag_762:\n      0x00\n        /* \"#utility.yul\":32106:32148   */\n      0xffffffffffffffffffffffffffffffffffffffff\n        /* \"#utility.yul\":32099:32104   */\n      dup3\n        /* \"#utility.yul\":32095:32149   */\n      and\n        /* \"#utility.yul\":32084:32149   */\n      swap1\n      pop\n        /* \"#utility.yul\":32074:32155   */\n      swap2\n      swap1\n      pop\n      jump\t// out\n        /* \"#utility.yul\":32161:32238   */\n    tag_682:\n      0x00\n        /* \"#utility.yul\":32227:32232   */\n      dup2\n        /* \"#utility.yul\":32216:32232   */\n      swap1\n      pop\n        /* \"#utility.yul\":32206:32238   */\n      swap2\n      swap1\n      pop\n      jump\t// out\n        /* \"#utility.yul\":32244:32381   */\n    tag_615:\n      0x00\n        /* \"#utility.yul\":32338:32375   */\n      tag_776\n        /* \"#utility.yul\":32369:32374   */\n      dup3\n        /* \"#utility.yul\":32338:32375   */\n      tag_764\n      jump\t// in\n    tag_776:\n        /* \"#utility.yul\":32325:32375   */\n      swap1\n      pop\n        /* \"#utility.yul\":32315:32381   */\n      swap2\n      swap1\n      pop\n      jump\t// out\n        /* \"#utility.yul\":32387:32522   */\n    tag_619:\n      0x00\n        /* \"#utility.yul\":32480:32516   */\n      tag_778\n        /* \"#utility.yul\":32510:32515   */\n      dup3\n        /* \"#utility.yul\":32480:32516   */\n      tag_768\n      jump\t// in\n    tag_778:\n        /* \"#utility.yul\":32467:32516   */\n      swap1\n      pop\n        /* \"#utility.yul\":32457:32522   */\n      swap2\n      swap1\n      pop\n      jump\t// out\n        /* \"#utility.yul\":32528:32682   */\n    tag_422:\n        /* \"#utility.yul\":32612:32618   */\n      dup3\n        /* \"#utility.yul\":32607:32610   */\n      dup2\n        /* \"#utility.yul\":32602:32605   */\n      dup4\n        /* \"#utility.yul\":32589:32619   */\n      calldatacopy\n        /* \"#utility.yul\":32674:32675   */\n      0x00\n        /* \"#utility.yul\":32665:32671   */\n      dup4\n        /* \"#utility.yul\":32660:32663   */\n      dup4\n        /* \"#utility.yul\":32656:32672   */\n      add\n        /* \"#utility.yul\":32649:32676   */\n      mstore\n        /* \"#utility.yul\":32579:32682   */\n      pop\n      pop\n      pop\n      jump\t// out\n        /* \"#utility.yul\":32688:32995   */\n    tag_640:\n        /* \"#utility.yul\":32756:32757   */\n      0x00\n        /* \"#utility.yul\":32766:32879   */\n    tag_781:\n        /* \"#utility.yul\":32780:32786   */\n      dup4\n        /* \"#utility.yul\":32777:32778   */\n      dup2\n        /* \"#utility.yul\":32774:32787   */\n      lt\n        /* \"#utility.yul\":32766:32879   */\n      iszero\n      tag_783\n      jumpi\n        /* \"#utility.yul\":32865:32866   */\n      dup1\n        /* \"#utility.yul\":32860:32863   */\n      dup3\n        /* \"#utility.yul\":32856:32867   */\n      add\n        /* \"#utility.yul\":32850:32868   */\n      mload\n        /* \"#utility.yul\":32846:32847   */\n      dup2\n        /* \"#utility.yul\":32841:32844   */\n      dup5\n        /* \"#utility.yul\":32837:32848   */\n      add\n        /* \"#utility.yul\":32830:32869   */\n      mstore\n        /* \"#utility.yul\":32802:32804   */\n      0x20\n        /* \"#utility.yul\":32799:32800   */\n      dup2\n        /* \"#utility.yul\":32795:32805   */\n      add\n        /* \"#utility.yul\":32790:32805   */\n      swap1\n      pop\n        /* \"#utility.yul\":32766:32879   */\n      jump(tag_781)\n    tag_783:\n        /* \"#utility.yul\":32897:32903   */\n      dup4\n        /* \"#utility.yul\":32894:32895   */\n      dup2\n        /* \"#utility.yul\":32891:32904   */\n      gt\n        /* \"#utility.yul\":32888:32890   */\n      iszero\n      tag_784\n      jumpi\n        /* \"#utility.yul\":32977:32978   */\n      0x00\n        /* \"#utility.yul\":32968:32974   */\n      dup5\n        /* \"#utility.yul\":32963:32966   */\n      dup5\n        /* \"#utility.yul\":32959:32975   */\n      add\n        /* \"#utility.yul\":32952:32979   */\n      mstore\n        /* \"#utility.yul\":32888:32890   */\n    tag_784:\n        /* \"#utility.yul\":32737:32995   */\n      pop\n      pop\n      pop\n      pop\n      jump\t// out\n        /* \"#utility.yul\":33001:33321   */\n    tag_117:\n      0x00\n        /* \"#utility.yul\":33082:33083   */\n      0x02\n        /* \"#utility.yul\":33076:33080   */\n      dup3\n        /* \"#utility.yul\":33072:33084   */\n      div\n        /* \"#utility.yul\":33062:33084   */\n      swap1\n      pop\n        /* \"#utility.yul\":33129:33130   */\n      0x01\n        /* \"#utility.yul\":33123:33127   */\n      dup3\n        /* \"#utility.yul\":33119:33131   */\n      and\n        /* \"#utility.yul\":33150:33168   */\n      dup1\n        /* \"#utility.yul\":33140:33142   */\n      tag_786\n      jumpi\n        /* \"#utility.yul\":33206:33210   */\n      0x7f\n        /* \"#utility.yul\":33198:33204   */\n      dup3\n        /* \"#utility.yul\":33194:33211   */\n      and\n        /* \"#utility.yul\":33184:33211   */\n      swap2\n      pop\n        /* \"#utility.yul\":33140:33142   */\n    tag_786:\n        /* \"#utility.yul\":33268:33270   */\n      0x20\n        /* \"#utility.yul\":33260:33266   */\n      dup3\n        /* \"#utility.yul\":33257:33271   */\n      lt\n        /* \"#utility.yul\":33237:33255   */\n      dup2\n        /* \"#utility.yul\":33234:33272   */\n      eq\n        /* \"#utility.yul\":33231:33233   */\n      iszero\n      tag_787\n      jumpi\n        /* \"#utility.yul\":33287:33305   */\n      tag_788\n      tag_789\n      jump\t// in\n    tag_788:\n        /* \"#utility.yul\":33231:33233   */\n    tag_787:\n        /* \"#utility.yul\":33052:33321   */\n      pop\n      swap2\n      swap1\n      pop\n      jump\t// out\n        /* \"#utility.yul\":33327:33560   */\n    tag_282:\n      0x00\n        /* \"#utility.yul\":33389:33413   */\n      tag_791\n        /* \"#utility.yul\":33407:33412   */\n      dup3\n        /* \"#utility.yul\":33389:33413   */\n      tag_682\n      jump\t// in\n    tag_791:\n        /* \"#utility.yul\":33380:33413   */\n      swap2\n      pop\n        /* \"#utility.yul\":33435:33501   */\n      0xffffffffffffffffffffffffffffffffffffffffffffffffffffffffffffffff\n        /* \"#utility.yul\":33428:33433   */\n      dup3\n        /* \"#utility.yul\":33425:33502   */\n      eq\n        /* \"#utility.yul\":33422:33424   */\n      iszero\n      tag_792\n      jumpi\n        /* \"#utility.yul\":33505:33523   */\n      tag_793\n      tag_759\n      jump\t// in\n    tag_793:\n        /* \"#utility.yul\":33422:33424   */\n    tag_792:\n        /* \"#utility.yul\":33552:33553   */\n      0x01\n        /* \"#utility.yul\":33545:33550   */\n      dup3\n        /* \"#utility.yul\":33541:33554   */\n      add\n        /* \"#utility.yul\":33534:33554   */\n      swap1\n      pop\n        /* \"#utility.yul\":33370:33560   */\n      swap2\n      swap1\n      pop\n      jump\t// out\n        /* \"#utility.yul\":33566:33746   */\n    tag_759:\n        /* \"#utility.yul\":33614:33691   */\n      0x4e487b7100000000000000000000000000000000000000000000000000000000\n        /* \"#utility.yul\":33611:33612   */\n      0x00\n        /* \"#utility.yul\":33604:33692   */\n      mstore\n        /* \"#utility.yul\":33711:33715   */\n      0x11\n        /* \"#utility.yul\":33708:33709   */\n      0x04\n        /* \"#utility.yul\":33701:33716   */\n      mstore\n        /* \"#utility.yul\":33735:33739   */\n      0x24\n        /* \"#utility.yul\":33732:33733   */\n      0x00\n        /* \"#utility.yul\":33725:33740   */\n      revert\n        /* \"#utility.yul\":33752:33932   */\n    tag_795:\n        /* \"#utility.yul\":33800:33877   */\n      0x4e487b7100000000000000000000000000000000000000000000000000000000\n        /* \"#utility.yul\":33797:33798   */\n      0x00\n        /* \"#utility.yul\":33790:33878   */\n      mstore\n        /* \"#utility.yul\":33897:33901   */\n      0x21\n        /* \"#utility.yul\":33894:33895   */\n      0x04\n        /* \"#utility.yul\":33887:33902   */\n      mstore\n        /* \"#utility.yul\":33921:33925   */\n      0x24\n        /* \"#utility.yul\":33918:33919   */\n      0x00\n        /* \"#utility.yul\":33911:33926   */\n      revert\n        /* \"#utility.yul\":33938:34118   */\n    tag_789:\n        /* \"#utility.yul\":33986:34063   */\n      0x4e487b7100000000000000000000000000000000000000000000000000000000\n        /* \"#utility.yul\":33983:33984   */\n      0x00\n        /* \"#utility.yul\":33976:34064   */\n      mstore\n        /* \"#utility.yul\":34083:34087   */\n      0x22\n        /* \"#utility.yul\":34080:34081   */\n      0x04\n        /* \"#utility.yul\":34073:34088   */\n      mstore\n        /* \"#utility.yul\":34107:34111   */\n      0x24\n        /* \"#utility.yul\":34104:34105   */\n      0x00\n        /* \"#utility.yul\":34097:34112   */\n      revert\n        /* \"#utility.yul\":34124:34304   */\n    tag_726:\n        /* \"#utility.yul\":34172:34249   */\n      0x4e487b7100000000000000000000000000000000000000000000000000000000\n        /* \"#utility.yul\":34169:34170   */\n      0x00\n        /* \"#utility.yul\":34162:34250   */\n      mstore\n        /* \"#utility.yul\":34269:34273   */\n      0x41\n        /* \"#utility.yul\":34266:34267   */\n      0x04\n        /* \"#utility.yul\":34259:34274   */\n      mstore\n        /* \"#utility.yul\":34293:34297   */\n      0x24\n        /* \"#utility.yul\":34290:34291   */\n      0x00\n        /* \"#utility.yul\":34283:34298   */\n      revert\n        /* \"#utility.yul\":34310:34412   */\n    tag_642:\n      0x00\n        /* \"#utility.yul\":34402:34404   */\n      0x1f\n        /* \"#utility.yul\":34398:34405   */\n      not\n        /* \"#utility.yul\":34393:34395   */\n      0x1f\n        /* \"#utility.yul\":34386:34391   */\n      dup4\n        /* \"#utility.yul\":34382:34396   */\n      add\n        /* \"#utility.yul\":34378:34406   */\n      and\n        /* \"#utility.yul\":34368:34406   */\n      swap1\n      pop\n        /* \"#utility.yul\":34358:34412   */\n      swap2\n      swap1\n      pop\n      jump\t// out\n        /* \"#utility.yul\":34418:34536   */\n    tag_767:\n        /* \"#utility.yul\":34504:34505   */\n      0x04\n        /* \"#utility.yul\":34497:34502   */\n      dup2\n        /* \"#utility.yul\":34494:34506   */\n      lt\n        /* \"#utility.yul\":34484:34486   */\n      tag_801\n      jumpi\n        /* \"#utility.yul\":34510:34528   */\n      tag_802\n      tag_795\n      jump\t// in\n    tag_802:\n        /* \"#utility.yul\":34484:34486   */\n    tag_801:\n        /* \"#utility.yul\":34474:34536   */\n      pop\n      jump\t// out\n        /* \"#utility.yul\":34542:34659   */\n    tag_771:\n        /* \"#utility.yul\":34627:34628   */\n      0x07\n        /* \"#utility.yul\":34620:34625   */\n      dup2\n        /* \"#utility.yul\":34617:34629   */\n      lt\n        /* \"#utility.yul\":34607:34609   */\n      tag_804\n      jumpi\n        /* \"#utility.yul\":34633:34651   */\n      tag_805\n      tag_795\n      jump\t// in\n    tag_805:\n        /* \"#utility.yul\":34607:34609   */\n    tag_804:\n        /* \"#utility.yul\":34597:34659   */\n      pop\n      jump\t// out\n        /* \"#utility.yul\":34665:34787   */\n    tag_426:\n        /* \"#utility.yul\":34738:34762   */\n      tag_807\n        /* \"#utility.yul\":34756:34761   */\n      dup2\n        /* \"#utility.yul\":34738:34762   */\n      tag_565\n      jump\t// in\n    tag_807:\n        /* \"#utility.yul\":34731:34736   */\n      dup2\n        /* \"#utility.yul\":34728:34763   */\n      eq\n        /* \"#utility.yul\":34718:34720   */\n      tag_808\n      jumpi\n        /* \"#utility.yul\":34777:34778   */\n      0x00\n        /* \"#utility.yul\":34774:34775   */\n      dup1\n        /* \"#utility.yul\":34767:34779   */\n      revert\n        /* \"#utility.yul\":34718:34720   */\n    tag_808:\n        /* \"#utility.yul\":34708:34787   */\n      pop\n      jump\t// out\n        /* \"#utility.yul\":34793:34909   */\n    tag_438:\n        /* \"#utility.yul\":34863:34884   */\n      tag_810\n        /* \"#utility.yul\":34878:34883   */\n      dup2\n        /* \"#utility.yul\":34863:34884   */\n      tag_611\n      jump\t// in\n    tag_810:\n        /* \"#utility.yul\":34856:34861   */\n      dup2\n        /* \"#utility.yul\":34853:34885   */\n      eq\n        /* \"#utility.yul\":34843:34845   */\n      tag_811\n      jumpi\n        /* \"#utility.yul\":34899:34900   */\n      0x00\n        /* \"#utility.yul\":34896:34897   */\n      dup1\n        /* \"#utility.yul\":34889:34901   */\n      revert\n        /* \"#utility.yul\":34843:34845   */\n    tag_811:\n        /* \"#utility.yul\":34833:34909   */\n      pop\n      jump\t// out\n        /* \"#utility.yul\":34915:35029   */\n    tag_445:\n        /* \"#utility.yul\":35003:35004   */\n      0x03\n        /* \"#utility.yul\":34996:35001   */\n      dup2\n        /* \"#utility.yul\":34993:35005   */\n      lt\n        /* \"#utility.yul\":34983:34985   */\n      tag_813\n      jumpi\n        /* \"#utility.yul\":35019:35020   */\n      0x00\n        /* \"#utility.yul\":35016:35017   */\n      dup1\n        /* \"#utility.yul\":35009:35021   */\n      revert\n        /* \"#utility.yul\":34983:34985   */\n    tag_813:\n        /* \"#utility.yul\":34973:35029   */\n      pop\n      jump\t// out\n        /* \"#utility.yul\":35035:35147   */\n    tag_449:\n        /* \"#utility.yul\":35121:35122   */\n      0x04\n        /* \"#utility.yul\":35114:35119   */\n      dup2\n        /* \"#utility.yul\":35111:35123   */\n      lt\n        /* \"#utility.yul\":35101:35103   */\n      tag_815\n      jumpi\n        /* \"#utility.yul\":35137:35138   */\n      0x00\n        /* \"#utility.yul\":35134:35135   */\n      dup1\n        /* \"#utility.yul\":35127:35139   */\n      revert\n        /* \"#utility.yul\":35101:35103   */\n    tag_815:\n        /* \"#utility.yul\":35091:35147   */\n      pop\n      jump\t// out\n        /* \"#utility.yul\":35153:35264   */\n    tag_453:\n        /* \"#utility.yul\":35238:35239   */\n      0x07\n        /* \"#utility.yul\":35231:35236   */\n      dup2\n        /* \"#utility.yul\":35228:35240   */\n      lt\n        /* \"#utility.yul\":35218:35220   */\n      tag_817\n      jumpi\n        /* \"#utility.yul\":35254:35255   */\n      0x00\n        /* \"#utility.yul\":35251:35252   */\n      dup1\n        /* \"#utility.yul\":35244:35256   */\n      revert\n        /* \"#utility.yul\":35218:35220   */\n    tag_817:\n        /* \"#utility.yul\":35208:35264   */\n      pop\n      jump\t// out\n        /* \"#utility.yul\":35270:35390   */\n    tag_456:\n        /* \"#utility.yul\":35342:35365   */\n      tag_819\n        /* \"#utility.yul\":35359:35364   */\n      dup2\n        /* \"#utility.yul\":35342:35365   */\n      tag_623\n      jump\t// in\n    tag_819:\n        /* \"#utility.yul\":35335:35340   */\n      dup2\n        /* \"#utility.yul\":35332:35366   */\n      eq\n        /* \"#utility.yul\":35322:35324   */\n      tag_820\n      jumpi\n        /* \"#utility.yul\":35380:35381   */\n      0x00\n        /* \"#utility.yul\":35377:35378   */\n      dup1\n        /* \"#utility.yul\":35370:35382   */\n      revert\n        /* \"#utility.yul\":35322:35324   */\n    tag_820:\n        /* \"#utility.yul\":35312:35390   */\n      pop\n      jump\t// out\n        /* \"#utility.yul\":35396:35518   */\n    tag_484:\n        /* \"#utility.yul\":35469:35493   */\n      tag_822\n        /* \"#utility.yul\":35487:35492   */\n      dup2\n        /* \"#utility.yul\":35469:35493   */\n      tag_682\n      jump\t// in\n    tag_822:\n        /* \"#utility.yul\":35462:35467   */\n      dup2\n        /* \"#utility.yul\":35459:35494   */\n      eq\n        /* \"#utility.yul\":35449:35451   */\n      tag_823\n      jumpi\n        /* \"#utility.yul\":35508:35509   */\n      0x00\n        /* \"#utility.yul\":35505:35506   */\n      dup1\n        /* \"#utility.yul\":35498:35510   */\n      revert\n        /* \"#utility.yul\":35449:35451   */\n    tag_823:\n        /* \"#utility.yul\":35439:35518   */\n      pop\n      jump\t// out\n\n    auxdata: 0xa26469706673582212203cfded73dad830f640b5b0ebacce81913cea1015982c83b542a091757d03da2a64736f6c63430008000033\n}\n","bytecode":{"linkReferences":{"DecisionLibrary.sol":{"DecisionLibrary":[{"length":20,"start":1412},{"length":20,"start":1731},{"length":20,"start":3343},{"length":20,"start":9179}]}},"object":"608060405234801561001057600080fd5b5061413a806100206000396000f3fe608060405234801561001057600080fd5b50600436106101215760003560e01c8063897a3e27116100ad578063993c041011610071578063993c04101461036d578063a7c1eb901461039d578063b8c56cae146103cd578063c7b1ee06146103fd578063fe9620c91461041957610121565b8063897a3e271461028a578063909e4ab6146102ba57806395794157146102d8578063976217cd146103085780639849cee91461033d57610121565b80634d60f651116100f45780634d60f651146101be57806361ea18df146101dc57806371c56f9b1461020c57806376e5c0de1461022a57806381d1cd2e1461025a57610121565b80630647043314610126578063307ed4be14610156578063386247251461017257806338b7b6f0146101a2575b600080fd5b610140600480360381019061013b9190613371565b610435565b60405161014d9190613a44565b60405180910390f35b610170600480360381019061016b9190613404565b610743565b005b61018c60048036038101906101879190613330565b610b0d565b6040516101999190613ad5565b60405180910390f35b6101bc60048036038101906101b79190613263565b610b3b565b005b6101c6610b65565b6040516101d39190613a00565b60405180910390f35b6101f660048036038101906101f191906133b2565b610c3e565b6040516102039190613b2e565b60405180910390f35b610214610cea565b6040516102219190613bf7565b60405180910390f35b610244600480360381019061023f91906133b2565b610d7e565b6040516102519190613a44565b60405180910390f35b610274600480360381019061026f91906133b2565b610d9e565b6040516102819190613bf7565b60405180910390f35b6102a4600480360381019061029f919061321e565b610dc0565b6040516102b19190613ad5565b60405180910390f35b6102c2610deb565b6040516102cf9190613a22565b60405180910390f35b6102f260048036038101906102ed91906133b2565b610e43565b6040516102ff9190613bf7565b60405180910390f35b610322600480360381019061031d91906133b2565b610e67565b60405161033496959493929190613a5f565b60405180910390f35b610357600480360381019061035291906133b2565b611071565b6040516103649190613a44565b60405180910390f35b610387600480360381019061038291906133b2565b61109d565b6040516103949190613a44565b60405180910390f35b6103b760048036038101906103b291906131b7565b6123b7565b6040516103c49190613a44565b60405180910390f35b6103e760048036038101906103e29190613330565b61244d565b6040516103f49190613b2e565b60405180910390f35b610417600480360381019061041291906134d5565b612503565b005b610433600480360381019061042e91906132bb565b612a2e565b005b6000806002811115610470577f4e487b7100000000000000000000000000000000000000000000000000000000600052602160045260246000fd5b826040015160028111156104ad577f4e487b7100000000000000000000000000000000000000000000000000000000600052602160045260246000fd5b14156105fd57600060028360c001516040516104c991906139e9565b908152602001604051809103902080546104e290613f08565b80601f016020809104026020016040519081016040528092919081815260200182805461050e90613f08565b801561055b5780601f106105305761010080835404028352916020019161055b565b820191906000526020600020905b81548152906001019060200180831161053e57829003601f168201915b5050505050905073__$80c56c7074f1c42024adf49f5dc2b40495$__63a8c0bf8e828560e001518660a001516040518463ffffffff1660e01b81526004016105a593929190613b50565b60206040518083038186803b1580156105bd57600080fd5b505af41580156105d1573d6000803e3d6000fd5b505050506040513d601f19601f820116820180604052508101906105f5919061318e565b91505061073e565b60016002811115610637577f4e487b7100000000000000000000000000000000000000000000000000000000600052602160045260246000fd5b82604001516002811115610674577f4e487b7100000000000000000000000000000000000000000000000000000000600052602160045260246000fd5b141561073d57600060018360c0015160405161069091906139e9565b908152602001604051809103902054905073__$80c56c7074f1c42024adf49f5dc2b40495$__63e1df7ad6828561010001518660a001516040518463ffffffff1660e01b81526004016106e593929190613af0565b60206040518083038186803b1580156106fd57600080fd5b505af4158015610711573d6000803e3d6000fd5b505050506040513d601f19601f82011682018060405250810190610735919061318e565b91505061073e565b5b919050565b61074b612a64565b85816000018190525084816020019073ffffffffffffffffffffffffffffffffffffffff16908173ffffffffffffffffffffffffffffffffffffffff1681525050600081604001901515908115158152505083816060019060038111156107db577f4e487b7100000000000000000000000000000000000000000000000000000000600052602160045260246000fd5b90816003811115610815577f4e487b7100000000000000000000000000000000000000000000000000000000600052602160045260246000fd5b81525050828160800181905250818160a0018190525080600080898152602001908152602001600020600082015181600001908051906020019061085a929190612af7565b5060208201518160010160006101000a81548173ffffffffffffffffffffffffffffffffffffffff021916908373ffffffffffffffffffffffffffffffffffffffff16021790555060408201518160010160146101000a81548160ff02191690831515021790555060608201518160010160156101000a81548160ff02191690836003811115610913577f4e487b7100000000000000000000000000000000000000000000000000000000600052602160045260246000fd5b02179055506080820151816002019080519060200190610934929190612b7d565b5060a0820151816003019080519060200190610951929190612b7d565b5060c0820151816004016000820151816000015560208201518160010160006101000a81548160ff021916908360038111156109b6577f4e487b7100000000000000000000000000000000000000000000000000000000600052602160045260246000fd5b021790555060408201518160010160016101000a81548160ff02191690836002811115610a0c577f4e487b7100000000000000000000000000000000000000000000000000000000600052602160045260246000fd5b021790555060608201518160010160026101000a81548160ff02191690831515021790555060808201518160010160036101000a81548160ff02191690831515021790555060a08201518160010160046101000a81548160ff02191690836006811115610aa2577f4e487b7100000000000000000000000000000000000000000000000000000000600052602160045260246000fd5b021790555060c0820151816002019080519060200190610ac3929190612af7565b5060e0820151816003019080519060200190610ae0929190612af7565b50610100820151816004019080519060200190610afe929190612bca565b50505090505050505050505050565b6001818051602081018201805184825260208301602085012081835280955050505050506000915090505481565b8060018484604051610b4e9291906139d0565b908152602001604051809103902081905550505050565b60606005805480602002602001604051908101604052809291908181526020016000905b82821015610c35578382906000526020600020018054610ba890613f08565b80601f0160208091040260200160405190810160405280929190818152602001828054610bd490613f08565b8015610c215780601f10610bf657610100808354040283529160200191610c21565b820191906000526020600020905b815481529060010190602001808311610c0457829003601f168201915b505050505081526020019060010190610b89565b50505050905090565b60058181548110610c4e57600080fd5b906000526020600020016000915090508054610c6990613f08565b80601f0160208091040260200160405190810160405280929190818152602001828054610c9590613f08565b8015610ce25780601f10610cb757610100808354040283529160200191610ce2565b820191906000526020600020905b815481529060010190602001808311610cc557829003601f168201915b505050505081565b60008073__$80c56c7074f1c42024adf49f5dc2b40495$__63c237647f6040518163ffffffff1660e01b815260040160206040518083038186803b158015610d3157600080fd5b505af4158015610d45573d6000803e3d6000fd5b505050506040513d601f19601f82011682018060405250810190610d6991906133db565b9050600581610d789190613dd4565b91505090565b60036020528060005260406000206000915054906101000a900460ff1681565b6000806000838152602001908152602001600020600401600001549050919050565b600060018383604051610dd49291906139d0565b908152602001604051809103902054905092915050565b60606004805480602002602001604051908101604052809291908181526020018280548015610e3957602002820191906000526020600020905b815481526020019060010190808311610e25575b5050505050905090565b60048181548110610e5357600080fd5b906000526020600020016000915090505481565b6000606060008060608060008088815260200190815260200160002060010160149054906101000a900460ff166000808981526020019081526020016000206000016000808a815260200190815260200160002060010160009054906101000a900473ffffffffffffffffffffffffffffffffffffffff166000808b815260200190815260200160002060010160159054906101000a900460ff166000808c81526020019081526020016000206002016000808d8152602001908152602001600020600301848054610f3890613f08565b80601f0160208091040260200160405190810160405280929190818152602001828054610f6490613f08565b8015610fb15780601f10610f8657610100808354040283529160200191610fb1565b820191906000526020600020905b815481529060010190602001808311610f9457829003601f168201915b505050505094508180548060200260200160405190810160405280929190818152602001828054801561100357602002820191906000526020600020905b815481526020019060010190808311610fef575b505050505091508080548060200260200160405190810160405280929190818152602001828054801561105557602002820191906000526020600020905b815481526020019060010190808311611041575b5050505050905095509550955095509550955091939550919395565b600080600083815260200190815260200160002060010160149054906101000a900460ff169050919050565b600080600083815260200190815260200160002060010160149054906101000a900460ff1615611102576040517f08c379a00000000000000000000000000000000000000000000000000000000081526004016110f990613bb7565b60405180910390fd5b6000808060008581526020019081526020016000206040518060e001604052908160008201805461113290613f08565b80601f016020809104026020016040519081016040528092919081815260200182805461115e90613f08565b80156111ab5780601f10611180576101008083540402835291602001916111ab565b820191906000526020600020905b81548152906001019060200180831161118e57829003601f168201915b505050505081526020016001820160009054906101000a900473ffffffffffffffffffffffffffffffffffffffff1673ffffffffffffffffffffffffffffffffffffffff1673ffffffffffffffffffffffffffffffffffffffff1681526020016001820160149054906101000a900460ff161515151581526020016001820160159054906101000a900460ff166003811115611270577f4e487b7100000000000000000000000000000000000000000000000000000000600052602160045260246000fd5b60038111156112a8577f4e487b7100000000000000000000000000000000000000000000000000000000600052602160045260246000fd5b8152602001600282018054806020026020016040519081016040528092919081815260200182805480156112fb57602002820191906000526020600020905b8154815260200190600101908083116112e7575b505050505081526020016003820180548060200260200160405190810160405280929190818152602001828054801561135357602002820191906000526020600020905b81548152602001906001019080831161133f575b505050505081526020016004820160405180610120016040529081600082015481526020016001820160009054906101000a900460ff1660038111156113c2577f4e487b7100000000000000000000000000000000000000000000000000000000600052602160045260246000fd5b60038111156113fa577f4e487b7100000000000000000000000000000000000000000000000000000000600052602160045260246000fd5b81526020016001820160019054906101000a900460ff166002811115611449577f4e487b7100000000000000000000000000000000000000000000000000000000600052602160045260246000fd5b6002811115611481577f4e487b7100000000000000000000000000000000000000000000000000000000600052602160045260246000fd5b81526020016001820160029054906101000a900460ff161515151581526020016001820160039054906101000a900460ff161515151581526020016001820160049054906101000a900460ff166006811115611506577f4e487b7100000000000000000000000000000000000000000000000000000000600052602160045260246000fd5b600681111561153e577f4e487b7100000000000000000000000000000000000000000000000000000000600052602160045260246000fd5b815260200160028201805461155290613f08565b80601f016020809104026020016040519081016040528092919081815260200182805461157e90613f08565b80156115cb5780601f106115a0576101008083540402835291602001916115cb565b820191906000526020600020905b8154815290600101906020018083116115ae57829003601f168201915b505050505081526020016003820180546115e490613f08565b80601f016020809104026020016040519081016040528092919081815260200182805461161090613f08565b801561165d5780601f106116325761010080835404028352916020019161165d565b820191906000526020600020905b81548152906001019060200180831161164057829003601f168201915b50505050508152602001600482018054806020026020016040519081016040528092919081815260200182805480156116b557602002820191906000526020600020905b8154815260200190600101908083116116a1575b505050505081525050815250509050600080600086815260200190815260200160002060010160009054906101000a900473ffffffffffffffffffffffffffffffffffffffff169050600073ffffffffffffffffffffffffffffffffffffffff168173ffffffffffffffffffffffffffffffffffffffff16148061176457503373ffffffffffffffffffffffffffffffffffffffff168173ffffffffffffffffffffffffffffffffffffffff16145b600080878152602001908152602001600020600001906117ba576040517f08c379a00000000000000000000000000000000000000000000000000000000081526004016117b19190613b95565b60405180910390fd5b5060008086815260200190815260200160002060040160010160039054906101000a900460ff1615611bc1576000808681526020019081526020016000206004016000015492506000611b7d60008088815260200190815260200160002060040160405180610120016040529081600082015481526020016001820160009054906101000a900460ff16600381111561187c577f4e487b7100000000000000000000000000000000000000000000000000000000600052602160045260246000fd5b60038111156118b4577f4e487b7100000000000000000000000000000000000000000000000000000000600052602160045260246000fd5b81526020016001820160019054906101000a900460ff166002811115611903577f4e487b7100000000000000000000000000000000000000000000000000000000600052602160045260246000fd5b600281111561193b577f4e487b7100000000000000000000000000000000000000000000000000000000600052602160045260246000fd5b81526020016001820160029054906101000a900460ff161515151581526020016001820160039054906101000a900460ff161515151581526020016001820160049054906101000a900460ff1660068111156119c0577f4e487b7100000000000000000000000000000000000000000000000000000000600052602160045260246000fd5b60068111156119f8577f4e487b7100000000000000000000000000000000000000000000000000000000600052602160045260246000fd5b8152602001600282018054611a0c90613f08565b80601f0160208091040260200160405190810160405280929190818152602001828054611a3890613f08565b8015611a855780601f10611a5a57610100808354040283529160200191611a85565b820191906000526020600020905b815481529060010190602001808311611a6857829003601f168201915b50505050508152602001600382018054611a9e90613f08565b80601f0160208091040260200160405190810160405280929190818152602001828054611aca90613f08565b8015611b175780601f10611aec57610100808354040283529160200191611b17565b820191906000526020600020905b815481529060010190602001808311611afa57829003601f168201915b5050505050815260200160048201805480602002602001604051908101604052809291908181526020018280548015611b6f57602002820191906000526020600020905b815481526020019060010190808311611b5b575b505050505081525050610435565b905080611bbf576040517f08c379a0000000000000000000000000000000000000000000000000000000008152600401611bb690613bd7565b60405180910390fd5b505b6000806000878152602001908152602001600020600201805480602002602001604051908101604052809291908181526020018280548015611c2257602002820191906000526020600020905b815481526020019060010190808311611c0e575b50505050509050600081511415611c3c57600194506120be565b600080600088815260200190815260200160002060010160159054906101000a900460ff16905060006003811115611c9d577f4e487b7100000000000000000000000000000000000000000000000000000000600052602160045260246000fd5b816003811115611cd6577f4e487b7100000000000000000000000000000000000000000000000000000000600052602160045260246000fd5b1415611d3c5760011515611d2a83600081518110611d1d577f4e487b7100000000000000000000000000000000000000000000000000000000600052603260045260246000fd5b6020026020010151611071565b15151415611d3757600195505b6120bc565b600080600090505b8351811015611dc45760011515611d9a858381518110611d8d577f4e487b7100000000000000000000000000000000000000000000000000000000600052603260045260246000fd5b6020026020010151611071565b15151415611db1578180611dad90613f3a565b9250505b8080611dbc90613f3a565b915050611d44565b5060016003811115611dff577f4e487b7100000000000000000000000000000000000000000000000000000000600052602160045260246000fd5b826003811115611e38577f4e487b7100000000000000000000000000000000000000000000000000000000600052602160045260246000fd5b1415611e51578251811415611e4c57600196505b6120ba565b60026003811115611e8b577f4e487b7100000000000000000000000000000000000000000000000000000000600052602160045260246000fd5b826003811115611ec4577f4e487b7100000000000000000000000000000000000000000000000000000000600052602160045260246000fd5b1415611ed357600196506120b9565b600380811115611f0c577f4e487b7100000000000000000000000000000000000000000000000000000000600052602160045260246000fd5b826003811115611f45577f4e487b7100000000000000000000000000000000000000000000000000000000600052602160045260246000fd5b14156120b85760005b83518110156120b65760036000858381518110611f94577f4e487b7100000000000000000000000000000000000000000000000000000000600052603260045260246000fd5b6020026020010151815260200190815260200160002060009054906101000a900460ff16156120a357887f63a242a632efe33c0e210e04e4173612a17efa4f16aa4890bc7e46caece80de060405160405180910390a2838181518110612023577f4e487b7100000000000000000000000000000000000000000000000000000000600052603260045260246000fd5b60200260200101517f63a242a632efe33c0e210e04e4173612a17efa4f16aa4890bc7e46caece80de060405160405180910390a26120a0848281518110612093577f4e487b7100000000000000000000000000000000000000000000000000000000600052603260045260246000fd5b6020026020010151611071565b97505b80806120ae90613f3a565b915050611f4e565b505b5b5b505b505b841561237d5760008087815260200190815260200160002060040160010160039054906101000a900460ff16156122b15760016003600086815260200190815260200160002060006101000a81548160ff02191690831515021790555061044c7f63a242a632efe33c0e210e04e4173612a17efa4f16aa4890bc7e46caece80de060405160405180910390a28260a00151517f63a242a632efe33c0e210e04e4173612a17efa4f16aa4890bc7e46caece80de060405160405180910390a260005b8360a00151518110156122af57807f63a242a632efe33c0e210e04e4173612a17efa4f16aa4890bc7e46caece80de060405160405180910390a28360a0015181815181106121f6577f4e487b7100000000000000000000000000000000000000000000000000000000600052603260045260246000fd5b60200260200101517f63a242a632efe33c0e210e04e4173612a17efa4f16aa4890bc7e46caece80de060405160405180910390a260016000808660a00151848151811061226c577f4e487b7100000000000000000000000000000000000000000000000000000000600052603260045260246000fd5b6020026020010151815260200190815260200160002060010160146101000a81548160ff02191690831515021790555080806122a790613f3a565b91505061217f565b505b600583600001519080600181540180825580915050600190039060005260206000200160009091909190915090805190602001906122f0929190612af7565b50600160008088815260200190815260200160002060010160146101000a81548160ff0219169083151502179055506004869080600181540180825580915050600190039060005260206000200160009091909190915055600115157facd30b4f9fd5868793e13ffb506f03374a23d9feba1249ac2cc7b0fe024ff4ba60405160405180910390a26123ae565b600015157facd30b4f9fd5868793e13ffb506f03374a23d9feba1249ac2cc7b0fe024ff4ba60405160405180910390a25b50505050919050565b600073__$80c56c7074f1c42024adf49f5dc2b40495$__63e1df7ad68585856040518463ffffffff1660e01b81526004016123f493929190613af0565b60206040518083038186803b15801561240c57600080fd5b505af4158015612420573d6000803e3d6000fd5b505050506040513d601f19601f82011682018060405250810190612444919061318e565b90509392505050565b600281805160208101820180518482526020830160208501208183528095505050505050600091509050805461248290613f08565b80601f01602080910402602001604051908101604052809291908181526020018280546124ae90613f08565b80156124fb5780601f106124d0576101008083540402835291602001916124fb565b820191906000526020600020905b8154815290600101906020018083116124de57829003601f168201915b505050505081565b6000600281111561253d577f4e487b7100000000000000000000000000000000000000000000000000000000600052602160045260246000fd5b8160400151600281111561257a577f4e487b7100000000000000000000000000000000000000000000000000000000600052602160045260246000fd5b14156125cb576040518060200160405280600081525060028260c001516040516125a491906139e9565b908152602001604051809103902090805190602001906125c5929190612af7565b50612672565b60016002811115612605577f4e487b7100000000000000000000000000000000000000000000000000000000600052602160045260246000fd5b81604001516002811115612642577f4e487b7100000000000000000000000000000000000000000000000000000000600052602160045260246000fd5b141561267157600060018260c0015160405161265e91906139e9565b9081526020016040518091039020819055505b5b612680878787878787610743565b612688612c17565b81600001518160000181815250508160200151816020019060038111156126d8577f4e487b7100000000000000000000000000000000000000000000000000000000600052602160045260246000fd5b90816003811115612712577f4e487b7100000000000000000000000000000000000000000000000000000000600052602160045260246000fd5b81525050816040015181604001906002811115612758577f4e487b7100000000000000000000000000000000000000000000000000000000600052602160045260246000fd5b90816002811115612792577f4e487b7100000000000000000000000000000000000000000000000000000000600052602160045260246000fd5b81525050816060015181606001901515908115158152505081608001518160800190151590811515815250508160a001518160a001906006811115612800577f4e487b7100000000000000000000000000000000000000000000000000000000600052602160045260246000fd5b9081600681111561283a577f4e487b7100000000000000000000000000000000000000000000000000000000600052602160045260246000fd5b815250508160c001518160c001819052508160e001518160e00181905250816101000151816101000181905250806000808a81526020019081526020016000206004016000820151816000015560208201518160010160006101000a81548160ff021916908360038111156128d8577f4e487b7100000000000000000000000000000000000000000000000000000000600052602160045260246000fd5b021790555060408201518160010160016101000a81548160ff0219169083600281111561292e577f4e487b7100000000000000000000000000000000000000000000000000000000600052602160045260246000fd5b021790555060608201518160010160026101000a81548160ff02191690831515021790555060808201518160010160036101000a81548160ff02191690831515021790555060a08201518160010160046101000a81548160ff021916908360068111156129c4577f4e487b7100000000000000000000000000000000000000000000000000000000600052602160045260246000fd5b021790555060c08201518160020190805190602001906129e5929190612af7565b5060e0820151816003019080519060200190612a02929190612af7565b50610100820151816004019080519060200190612a20929190612bca565b509050505050505050505050565b818160028686604051612a429291906139d0565b90815260200160405180910390209190612a5d929190612d0f565b5050505050565b6040518060e0016040528060608152602001600073ffffffffffffffffffffffffffffffffffffffff16815260200160001515815260200160006003811115612ad6577f4e487b7100000000000000000000000000000000000000000000000000000000600052602160045260246000fd5b81526020016060815260200160608152602001612af1612c17565b81525090565b828054612b0390613f08565b90600052602060002090601f016020900481019282612b255760008555612b6c565b82601f10612b3e57805160ff1916838001178555612b6c565b82800160010185558215612b6c579182015b82811115612b6b578251825591602001919060010190612b50565b5b509050612b799190612d95565b5090565b828054828255906000526020600020908101928215612bb9579160200282015b82811115612bb8578251825591602001919060010190612b9d565b5b509050612bc69190612d95565b5090565b828054828255906000526020600020908101928215612c06579160200282015b82811115612c05578251825591602001919060010190612bea565b5b509050612c139190612db2565b5090565b6040518061012001604052806000815260200160006003811115612c64577f4e487b7100000000000000000000000000000000000000000000000000000000600052602160045260246000fd5b815260200160006002811115612ca3577f4e487b7100000000000000000000000000000000000000000000000000000000600052602160045260246000fd5b815260200160001515815260200160001515815260200160006006811115612cf4577f4e487b7100000000000000000000000000000000000000000000000000000000600052602160045260246000fd5b81526020016060815260200160608152602001606081525090565b828054612d1b90613f08565b90600052602060002090601f016020900481019282612d3d5760008555612d84565b82601f10612d5657803560ff1916838001178555612d84565b82800160010185558215612d84579182015b82811115612d83578235825591602001919060010190612d68565b5b509050612d919190612d95565b5090565b5b80821115612dae576000816000905550600101612d96565b5090565b5b80821115612dcb576000816000905550600101612db3565b5090565b6000612de2612ddd84613c43565b613c12565b90508083825260208201905082856020860282011115612e0157600080fd5b60005b85811015612e315781612e178882612fb7565b845260208401935060208301925050600181019050612e04565b5050509392505050565b6000612e4e612e4984613c6f565b613c12565b90508083825260208201905082856020860282011115612e6d57600080fd5b60005b85811015612e9d5781612e838882613164565b845260208401935060208301925050600181019050612e70565b5050509392505050565b6000612eba612eb584613c9b565b613c12565b905082815260208101848484011115612ed257600080fd5b612edd848285613ec6565b509392505050565b600081359050612ef481614078565b92915050565b600082601f830112612f0b57600080fd5b8135612f1b848260208601612dcf565b91505092915050565b600082601f830112612f3557600080fd5b8135612f45848260208601612e3b565b91505092915050565b600081359050612f5d8161408f565b92915050565b600081519050612f728161408f565b92915050565b600081359050612f87816140a6565b92915050565b600081359050612f9c816140b6565b92915050565b600081359050612fb1816140c6565b92915050565b600081359050612fc6816140d6565b92915050565b60008083601f840112612fde57600080fd5b8235905067ffffffffffffffff811115612ff757600080fd5b60208301915083600182028301111561300f57600080fd5b9250929050565b600082601f83011261302757600080fd5b8135613037848260208601612ea7565b91505092915050565b6000610120828403121561305357600080fd5b61305e610120613c12565b9050600061306e84828501613164565b600083015250602061308284828501612f8d565b602083015250604061309684828501612f78565b60408301525060606130aa84828501612f4e565b60608301525060806130be84828501612f4e565b60808301525060a06130d284828501612fa2565b60a08301525060c082013567ffffffffffffffff8111156130f257600080fd5b6130fe84828501613016565b60c08301525060e082013567ffffffffffffffff81111561311e57600080fd5b61312a84828501613016565b60e08301525061010082013567ffffffffffffffff81111561314b57600080fd5b61315784828501612efa565b6101008301525092915050565b600081359050613173816140ed565b92915050565b600081519050613188816140ed565b92915050565b6000602082840312156131a057600080fd5b60006131ae84828501612f63565b91505092915050565b6000806000606084860312156131cc57600080fd5b60006131da86828701612fb7565b935050602084013567ffffffffffffffff8111156131f757600080fd5b61320386828701612efa565b925050604061321486828701612fa2565b9150509250925092565b6000806020838503121561323157600080fd5b600083013567ffffffffffffffff81111561324b57600080fd5b61325785828601612fcc565b92509250509250929050565b60008060006040848603121561327857600080fd5b600084013567ffffffffffffffff81111561329257600080fd5b61329e86828701612fcc565b935093505060206132b186828701612fb7565b9150509250925092565b600080600080604085870312156132d157600080fd5b600085013567ffffffffffffffff8111156132eb57600080fd5b6132f787828801612fcc565b9450945050602085013567ffffffffffffffff81111561331657600080fd5b61332287828801612fcc565b925092505092959194509250565b60006020828403121561334257600080fd5b600082013567ffffffffffffffff81111561335c57600080fd5b61336884828501613016565b91505092915050565b60006020828403121561338357600080fd5b600082013567ffffffffffffffff81111561339d57600080fd5b6133a984828501613040565b91505092915050565b6000602082840312156133c457600080fd5b60006133d284828501613164565b91505092915050565b6000602082840312156133ed57600080fd5b60006133fb84828501613179565b91505092915050565b60008060008060008060c0878903121561341d57600080fd5b600061342b89828a01613164565b965050602087013567ffffffffffffffff81111561344857600080fd5b61345489828a01613016565b955050604061346589828a01612ee5565b945050606061347689828a01612f8d565b935050608087013567ffffffffffffffff81111561349357600080fd5b61349f89828a01612f24565b92505060a087013567ffffffffffffffff8111156134bc57600080fd5b6134c889828a01612f24565b9150509295509295509295565b600080600080600080600060e0888a0312156134f057600080fd5b60006134fe8a828b01613164565b975050602088013567ffffffffffffffff81111561351b57600080fd5b6135278a828b01613016565b96505060406135388a828b01612ee5565b95505060606135498a828b01612f8d565b945050608088013567ffffffffffffffff81111561356657600080fd5b6135728a828b01612f24565b93505060a088013567ffffffffffffffff81111561358f57600080fd5b61359b8a828b01612f24565b92505060c088013567ffffffffffffffff8111156135b857600080fd5b6135c48a828b01613040565b91505092959891949750929550565b60006135df83836137a2565b60208301905092915050565b60006135f783836137d6565b905092915050565b600061360b83836139b2565b60208301905092915050565b61362081613e2a565b82525050565b600061363182613d10565b61363b8185613d63565b935061364683613ccb565b8060005b8381101561367757815161365e88826135d3565b975061366983613d3c565b92505060018101905061364a565b5085935050505092915050565b600061368f82613d1b565b6136998185613d74565b9350836020820285016136ab85613cdb565b8060005b858110156136e757848403895281516136c885826135eb565b94506136d383613d49565b925060208a019950506001810190506136af565b50829750879550505050505092915050565b600061370482613d26565b61370e8185613d85565b935061371983613ceb565b8060005b8381101561374a57815161373188826135ff565b975061373c83613d56565b92505060018101905061371d565b5085935050505092915050565b61376081613e3c565b82525050565b61376f81613ea2565b82525050565b61377e81613eb4565b82525050565b61378d81613e6e565b82525050565b61379c81613e6e565b82525050565b6137ab81613e6e565b82525050565b60006137bd8385613dc9565b93506137ca838584613ec6565b82840190509392505050565b60006137e182613d31565b6137eb8185613d96565b93506137fb818560208601613ed5565b6138048161403f565b840191505092915050565b600061381a82613d31565b6138248185613da7565b9350613834818560208601613ed5565b61383d8161403f565b840191505092915050565b600061385382613d31565b61385d8185613db8565b935061386d818560208601613ed5565b6138768161403f565b840191505092915050565b600061388c82613d31565b6138968185613dc9565b93506138a6818560208601613ed5565b80840191505092915050565b600081546138bf81613f08565b6138c98186613da7565b945060018216600081146138e457600181146138f657613929565b60ff1983168652602086019350613929565b6138ff85613cfb565b60005b8381101561392157815481890152600182019150602081019050613902565b808801955050505b50505092915050565b600061393f601683613da7565b91507f444f204e4f5420524550454154205441534b53212121000000000000000000006000830152602082019050919050565b600061397f602083613da7565b91507f50726f63657373205661726961626c65206973206e6f7420636f72726563742e6000830152602082019050919050565b6139bb81613e98565b82525050565b6139ca81613e98565b82525050565b60006139dd8284866137b1565b91508190509392505050565b60006139f58284613881565b915081905092915050565b60006020820190508181036000830152613a1a8184613684565b905092915050565b60006020820190508181036000830152613a3c81846136f9565b905092915050565b6000602082019050613a596000830184613757565b92915050565b600060c082019050613a746000830189613757565b8181036020830152613a86818861380f565b9050613a956040830187613617565b613aa26060830186613766565b8181036080830152613ab481856136f9565b905081810360a0830152613ac881846136f9565b9050979650505050505050565b6000602082019050613aea6000830184613784565b92915050565b6000606082019050613b056000830186613793565b8181036020830152613b178185613626565b9050613b266040830184613775565b949350505050565b60006020820190508181036000830152613b48818461380f565b905092915050565b60006060820190508181036000830152613b6a8186613848565b90508181036020830152613b7e8185613848565b9050613b8d6040830184613775565b949350505050565b60006020820190508181036000830152613baf81846138b2565b905092915050565b60006020820190508181036000830152613bd081613932565b9050919050565b60006020820190508181036000830152613bf081613972565b9050919050565b6000602082019050613c0c60008301846139c1565b92915050565b6000604051905081810181811067ffffffffffffffff82111715613c3957613c38614010565b5b8060405250919050565b600067ffffffffffffffff821115613c5e57613c5d614010565b5b602082029050602081019050919050565b600067ffffffffffffffff821115613c8a57613c89614010565b5b602082029050602081019050919050565b600067ffffffffffffffff821115613cb657613cb5614010565b5b601f19601f8301169050602081019050919050565b6000819050602082019050919050565b6000819050602082019050919050565b6000819050602082019050919050565b60008190508160005260206000209050919050565b600081519050919050565b600081519050919050565b600081519050919050565b600081519050919050565b6000602082019050919050565b6000602082019050919050565b6000602082019050919050565b600082825260208201905092915050565b600082825260208201905092915050565b600082825260208201905092915050565b600082825260208201905092915050565b600082825260208201905092915050565b600082825260208201905092915050565b600081905092915050565b6000613ddf82613e98565b9150613dea83613e98565b9250827fffffffffffffffffffffffffffffffffffffffffffffffffffffffffffffffff03821115613e1f57613e1e613f83565b5b828201905092915050565b6000613e3582613e78565b9050919050565b60008115159050919050565b6000819050613e5682614050565b919050565b6000819050613e6982614064565b919050565b6000819050919050565b600073ffffffffffffffffffffffffffffffffffffffff82169050919050565b6000819050919050565b6000613ead82613e48565b9050919050565b6000613ebf82613e5b565b9050919050565b82818337600083830152505050565b60005b83811015613ef3578082015181840152602081019050613ed8565b83811115613f02576000848401525b50505050565b60006002820490506001821680613f2057607f821691505b60208210811415613f3457613f33613fe1565b5b50919050565b6000613f4582613e98565b91507fffffffffffffffffffffffffffffffffffffffffffffffffffffffffffffffff821415613f7857613f77613f83565b5b600182019050919050565b7f4e487b7100000000000000000000000000000000000000000000000000000000600052601160045260246000fd5b7f4e487b7100000000000000000000000000000000000000000000000000000000600052602160045260246000fd5b7f4e487b7100000000000000000000000000000000000000000000000000000000600052602260045260246000fd5b7f4e487b7100000000000000000000000000000000000000000000000000000000600052604160045260246000fd5b6000601f19601f8301169050919050565b6004811061406157614060613fb2565b5b50565b6007811061407557614074613fb2565b5b50565b61408181613e2a565b811461408c57600080fd5b50565b61409881613e3c565b81146140a357600080fd5b50565b600381106140b357600080fd5b50565b600481106140c357600080fd5b50565b600781106140d357600080fd5b50565b6140df81613e6e565b81146140ea57600080fd5b50565b6140f681613e98565b811461410157600080fd5b5056fea26469706673582212203cfded73dad830f640b5b0ebacce81913cea1015982c83b542a091757d03da2a64736f6c63430008000033","opcodes":"PUSH1 0x80 PUSH1 0x40 MSTORE CALLVALUE DUP1 ISZERO PUSH2 0x10 JUMPI PUSH1 0x0 DUP1 REVERT JUMPDEST POP PUSH2 0x413A DUP1 PUSH2 0x20 PUSH1 0x0 CODECOPY PUSH1 0x0 RETURN INVALID PUSH1 0x80 PUSH1 0x40 MSTORE CALLVALUE DUP1 ISZERO PUSH2 0x10 JUMPI PUSH1 0x0 DUP1 REVERT JUMPDEST POP PUSH1 0x4 CALLDATASIZE LT PUSH2 0x121 JUMPI PUSH1 0x0 CALLDATALOAD PUSH1 0xE0 SHR DUP1 PUSH4 0x897A3E27 GT PUSH2 0xAD JUMPI DUP1 PUSH4 0x993C0410 GT PUSH2 0x71 JUMPI DUP1 PUSH4 0x993C0410 EQ PUSH2 0x36D JUMPI DUP1 PUSH4 0xA7C1EB90 EQ PUSH2 0x39D JUMPI DUP1 PUSH4 0xB8C56CAE EQ PUSH2 0x3CD JUMPI DUP1 PUSH4 0xC7B1EE06 EQ PUSH2 0x3FD JUMPI DUP1 PUSH4 0xFE9620C9 EQ PUSH2 0x419 JUMPI PUSH2 0x121 JUMP JUMPDEST DUP1 PUSH4 0x897A3E27 EQ PUSH2 0x28A JUMPI DUP1 PUSH4 0x909E4AB6 EQ PUSH2 0x2BA JUMPI DUP1 PUSH4 0x95794157 EQ PUSH2 0x2D8 JUMPI DUP1 PUSH4 0x976217CD EQ PUSH2 0x308 JUMPI DUP1 PUSH4 0x9849CEE9 EQ PUSH2 0x33D JUMPI PUSH2 0x121 JUMP JUMPDEST DUP1 PUSH4 0x4D60F651 GT PUSH2 0xF4 JUMPI DUP1 PUSH4 0x4D60F651 EQ PUSH2 0x1BE JUMPI DUP1 PUSH4 0x61EA18DF EQ PUSH2 0x1DC JUMPI DUP1 PUSH4 0x71C56F9B EQ PUSH2 0x20C JUMPI DUP1 PUSH4 0x76E5C0DE EQ PUSH2 0x22A JUMPI DUP1 PUSH4 0x81D1CD2E EQ PUSH2 0x25A JUMPI PUSH2 0x121 JUMP JUMPDEST DUP1 PUSH4 0x6470433 EQ PUSH2 0x126 JUMPI DUP1 PUSH4 0x307ED4BE EQ PUSH2 0x156 JUMPI DUP1 PUSH4 0x38624725 EQ PUSH2 0x172 JUMPI DUP1 PUSH4 0x38B7B6F0 EQ PUSH2 0x1A2 JUMPI JUMPDEST PUSH1 0x0 DUP1 REVERT JUMPDEST PUSH2 0x140 PUSH1 0x4 DUP1 CALLDATASIZE SUB DUP2 ADD SWAP1 PUSH2 0x13B SWAP2 SWAP1 PUSH2 0x3371 JUMP JUMPDEST PUSH2 0x435 JUMP JUMPDEST PUSH1 0x40 MLOAD PUSH2 0x14D SWAP2 SWAP1 PUSH2 0x3A44 JUMP JUMPDEST PUSH1 0x40 MLOAD DUP1 SWAP2 SUB SWAP1 RETURN JUMPDEST PUSH2 0x170 PUSH1 0x4 DUP1 CALLDATASIZE SUB DUP2 ADD SWAP1 PUSH2 0x16B SWAP2 SWAP1 PUSH2 0x3404 JUMP JUMPDEST PUSH2 0x743 JUMP JUMPDEST STOP JUMPDEST PUSH2 0x18C PUSH1 0x4 DUP1 CALLDATASIZE SUB DUP2 ADD SWAP1 PUSH2 0x187 SWAP2 SWAP1 PUSH2 0x3330 JUMP JUMPDEST PUSH2 0xB0D JUMP JUMPDEST PUSH1 0x40 MLOAD PUSH2 0x199 SWAP2 SWAP1 PUSH2 0x3AD5 JUMP JUMPDEST PUSH1 0x40 MLOAD DUP1 SWAP2 SUB SWAP1 RETURN JUMPDEST PUSH2 0x1BC PUSH1 0x4 DUP1 CALLDATASIZE SUB DUP2 ADD SWAP1 PUSH2 0x1B7 SWAP2 SWAP1 PUSH2 0x3263 JUMP JUMPDEST PUSH2 0xB3B JUMP JUMPDEST STOP JUMPDEST PUSH2 0x1C6 PUSH2 0xB65 JUMP JUMPDEST PUSH1 0x40 MLOAD PUSH2 0x1D3 SWAP2 SWAP1 PUSH2 0x3A00 JUMP JUMPDEST PUSH1 0x40 MLOAD DUP1 SWAP2 SUB SWAP1 RETURN JUMPDEST PUSH2 0x1F6 PUSH1 0x4 DUP1 CALLDATASIZE SUB DUP2 ADD SWAP1 PUSH2 0x1F1 SWAP2 SWAP1 PUSH2 0x33B2 JUMP JUMPDEST PUSH2 0xC3E JUMP JUMPDEST PUSH1 0x40 MLOAD PUSH2 0x203 SWAP2 SWAP1 PUSH2 0x3B2E JUMP JUMPDEST PUSH1 0x40 MLOAD DUP1 SWAP2 SUB SWAP1 RETURN JUMPDEST PUSH2 0x214 PUSH2 0xCEA JUMP JUMPDEST PUSH1 0x40 MLOAD PUSH2 0x221 SWAP2 SWAP1 PUSH2 0x3BF7 JUMP JUMPDEST PUSH1 0x40 MLOAD DUP1 SWAP2 SUB SWAP1 RETURN JUMPDEST PUSH2 0x244 PUSH1 0x4 DUP1 CALLDATASIZE SUB DUP2 ADD SWAP1 PUSH2 0x23F SWAP2 SWAP1 PUSH2 0x33B2 JUMP JUMPDEST PUSH2 0xD7E JUMP JUMPDEST PUSH1 0x40 MLOAD PUSH2 0x251 SWAP2 SWAP1 PUSH2 0x3A44 JUMP JUMPDEST PUSH1 0x40 MLOAD DUP1 SWAP2 SUB SWAP1 RETURN JUMPDEST PUSH2 0x274 PUSH1 0x4 DUP1 CALLDATASIZE SUB DUP2 ADD SWAP1 PUSH2 0x26F SWAP2 SWAP1 PUSH2 0x33B2 JUMP JUMPDEST PUSH2 0xD9E JUMP JUMPDEST PUSH1 0x40 MLOAD PUSH2 0x281 SWAP2 SWAP1 PUSH2 0x3BF7 JUMP JUMPDEST PUSH1 0x40 MLOAD DUP1 SWAP2 SUB SWAP1 RETURN JUMPDEST PUSH2 0x2A4 PUSH1 0x4 DUP1 CALLDATASIZE SUB DUP2 ADD SWAP1 PUSH2 0x29F SWAP2 SWAP1 PUSH2 0x321E JUMP JUMPDEST PUSH2 0xDC0 JUMP JUMPDEST PUSH1 0x40 MLOAD PUSH2 0x2B1 SWAP2 SWAP1 PUSH2 0x3AD5 JUMP JUMPDEST PUSH1 0x40 MLOAD DUP1 SWAP2 SUB SWAP1 RETURN JUMPDEST PUSH2 0x2C2 PUSH2 0xDEB JUMP JUMPDEST PUSH1 0x40 MLOAD PUSH2 0x2CF SWAP2 SWAP1 PUSH2 0x3A22 JUMP JUMPDEST PUSH1 0x40 MLOAD DUP1 SWAP2 SUB SWAP1 RETURN JUMPDEST PUSH2 0x2F2 PUSH1 0x4 DUP1 CALLDATASIZE SUB DUP2 ADD SWAP1 PUSH2 0x2ED SWAP2 SWAP1 PUSH2 0x33B2 JUMP JUMPDEST PUSH2 0xE43 JUMP JUMPDEST PUSH1 0x40 MLOAD PUSH2 0x2FF SWAP2 SWAP1 PUSH2 0x3BF7 JUMP JUMPDEST PUSH1 0x40 MLOAD DUP1 SWAP2 SUB SWAP1 RETURN JUMPDEST PUSH2 0x322 PUSH1 0x4 DUP1 CALLDATASIZE SUB DUP2 ADD SWAP1 PUSH2 0x31D SWAP2 SWAP1 PUSH2 0x33B2 JUMP JUMPDEST PUSH2 0xE67 JUMP JUMPDEST PUSH1 0x40 MLOAD PUSH2 0x334 SWAP7 SWAP6 SWAP5 SWAP4 SWAP3 SWAP2 SWAP1 PUSH2 0x3A5F JUMP JUMPDEST PUSH1 0x40 MLOAD DUP1 SWAP2 SUB SWAP1 RETURN JUMPDEST PUSH2 0x357 PUSH1 0x4 DUP1 CALLDATASIZE SUB DUP2 ADD SWAP1 PUSH2 0x352 SWAP2 SWAP1 PUSH2 0x33B2 JUMP JUMPDEST PUSH2 0x1071 JUMP JUMPDEST PUSH1 0x40 MLOAD PUSH2 0x364 SWAP2 SWAP1 PUSH2 0x3A44 JUMP JUMPDEST PUSH1 0x40 MLOAD DUP1 SWAP2 SUB SWAP1 RETURN JUMPDEST PUSH2 0x387 PUSH1 0x4 DUP1 CALLDATASIZE SUB DUP2 ADD SWAP1 PUSH2 0x382 SWAP2 SWAP1 PUSH2 0x33B2 JUMP JUMPDEST PUSH2 0x109D JUMP JUMPDEST PUSH1 0x40 MLOAD PUSH2 0x394 SWAP2 SWAP1 PUSH2 0x3A44 JUMP JUMPDEST PUSH1 0x40 MLOAD DUP1 SWAP2 SUB SWAP1 RETURN JUMPDEST PUSH2 0x3B7 PUSH1 0x4 DUP1 CALLDATASIZE SUB DUP2 ADD SWAP1 PUSH2 0x3B2 SWAP2 SWAP1 PUSH2 0x31B7 JUMP JUMPDEST PUSH2 0x23B7 JUMP JUMPDEST PUSH1 0x40 MLOAD PUSH2 0x3C4 SWAP2 SWAP1 PUSH2 0x3A44 JUMP JUMPDEST PUSH1 0x40 MLOAD DUP1 SWAP2 SUB SWAP1 RETURN JUMPDEST PUSH2 0x3E7 PUSH1 0x4 DUP1 CALLDATASIZE SUB DUP2 ADD SWAP1 PUSH2 0x3E2 SWAP2 SWAP1 PUSH2 0x3330 JUMP JUMPDEST PUSH2 0x244D JUMP JUMPDEST PUSH1 0x40 MLOAD PUSH2 0x3F4 SWAP2 SWAP1 PUSH2 0x3B2E JUMP JUMPDEST PUSH1 0x40 MLOAD DUP1 SWAP2 SUB SWAP1 RETURN JUMPDEST PUSH2 0x417 PUSH1 0x4 DUP1 CALLDATASIZE SUB DUP2 ADD SWAP1 PUSH2 0x412 SWAP2 SWAP1 PUSH2 0x34D5 JUMP JUMPDEST PUSH2 0x2503 JUMP JUMPDEST STOP JUMPDEST PUSH2 0x433 PUSH1 0x4 DUP1 CALLDATASIZE SUB DUP2 ADD SWAP1 PUSH2 0x42E SWAP2 SWAP1 PUSH2 0x32BB JUMP JUMPDEST PUSH2 0x2A2E JUMP JUMPDEST STOP JUMPDEST PUSH1 0x0 DUP1 PUSH1 0x2 DUP2 GT ISZERO PUSH2 0x470 JUMPI PUSH32 0x4E487B7100000000000000000000000000000000000000000000000000000000 PUSH1 0x0 MSTORE PUSH1 0x21 PUSH1 0x4 MSTORE PUSH1 0x24 PUSH1 0x0 REVERT JUMPDEST DUP3 PUSH1 0x40 ADD MLOAD PUSH1 0x2 DUP2 GT ISZERO PUSH2 0x4AD JUMPI PUSH32 0x4E487B7100000000000000000000000000000000000000000000000000000000 PUSH1 0x0 MSTORE PUSH1 0x21 PUSH1 0x4 MSTORE PUSH1 0x24 PUSH1 0x0 REVERT JUMPDEST EQ ISZERO PUSH2 0x5FD JUMPI PUSH1 0x0 PUSH1 0x2 DUP4 PUSH1 0xC0 ADD MLOAD PUSH1 0x40 MLOAD PUSH2 0x4C9 SWAP2 SWAP1 PUSH2 0x39E9 JUMP JUMPDEST SWAP1 DUP2 MSTORE PUSH1 0x20 ADD PUSH1 0x40 MLOAD DUP1 SWAP2 SUB SWAP1 KECCAK256 DUP1 SLOAD PUSH2 0x4E2 SWAP1 PUSH2 0x3F08 JUMP JUMPDEST DUP1 PUSH1 0x1F ADD PUSH1 0x20 DUP1 SWAP2 DIV MUL PUSH1 0x20 ADD PUSH1 0x40 MLOAD SWAP1 DUP2 ADD PUSH1 0x40 MSTORE DUP1 SWAP3 SWAP2 SWAP1 DUP2 DUP2 MSTORE PUSH1 0x20 ADD DUP3 DUP1 SLOAD PUSH2 0x50E SWAP1 PUSH2 0x3F08 JUMP JUMPDEST DUP1 ISZERO PUSH2 0x55B JUMPI DUP1 PUSH1 0x1F LT PUSH2 0x530 JUMPI PUSH2 0x100 DUP1 DUP4 SLOAD DIV MUL DUP4 MSTORE SWAP2 PUSH1 0x20 ADD SWAP2 PUSH2 0x55B JUMP JUMPDEST DUP3 ADD SWAP2 SWAP1 PUSH1 0x0 MSTORE PUSH1 0x20 PUSH1 0x0 KECCAK256 SWAP1 JUMPDEST DUP2 SLOAD DUP2 MSTORE SWAP1 PUSH1 0x1 ADD SWAP1 PUSH1 0x20 ADD DUP1 DUP4 GT PUSH2 0x53E JUMPI DUP3 SWAP1 SUB PUSH1 0x1F AND DUP3 ADD SWAP2 JUMPDEST POP POP POP POP POP SWAP1 POP PUSH20 0x0 PUSH4 0xA8C0BF8E DUP3 DUP6 PUSH1 0xE0 ADD MLOAD DUP7 PUSH1 0xA0 ADD MLOAD PUSH1 0x40 MLOAD DUP5 PUSH4 0xFFFFFFFF AND PUSH1 0xE0 SHL DUP2 MSTORE PUSH1 0x4 ADD PUSH2 0x5A5 SWAP4 SWAP3 SWAP2 SWAP1 PUSH2 0x3B50 JUMP JUMPDEST PUSH1 0x20 PUSH1 0x40 MLOAD DUP1 DUP4 SUB DUP2 DUP7 DUP1 EXTCODESIZE ISZERO DUP1 ISZERO PUSH2 0x5BD JUMPI PUSH1 0x0 DUP1 REVERT JUMPDEST POP GAS DELEGATECALL ISZERO DUP1 ISZERO PUSH2 0x5D1 JUMPI RETURNDATASIZE PUSH1 0x0 DUP1 RETURNDATACOPY RETURNDATASIZE PUSH1 0x0 REVERT JUMPDEST POP POP POP POP PUSH1 0x40 MLOAD RETURNDATASIZE PUSH1 0x1F NOT PUSH1 0x1F DUP3 ADD AND DUP3 ADD DUP1 PUSH1 0x40 MSTORE POP DUP2 ADD SWAP1 PUSH2 0x5F5 SWAP2 SWAP1 PUSH2 0x318E JUMP JUMPDEST SWAP2 POP POP PUSH2 0x73E JUMP JUMPDEST PUSH1 0x1 PUSH1 0x2 DUP2 GT ISZERO PUSH2 0x637 JUMPI PUSH32 0x4E487B7100000000000000000000000000000000000000000000000000000000 PUSH1 0x0 MSTORE PUSH1 0x21 PUSH1 0x4 MSTORE PUSH1 0x24 PUSH1 0x0 REVERT JUMPDEST DUP3 PUSH1 0x40 ADD MLOAD PUSH1 0x2 DUP2 GT ISZERO PUSH2 0x674 JUMPI PUSH32 0x4E487B7100000000000000000000000000000000000000000000000000000000 PUSH1 0x0 MSTORE PUSH1 0x21 PUSH1 0x4 MSTORE PUSH1 0x24 PUSH1 0x0 REVERT JUMPDEST EQ ISZERO PUSH2 0x73D JUMPI PUSH1 0x0 PUSH1 0x1 DUP4 PUSH1 0xC0 ADD MLOAD PUSH1 0x40 MLOAD PUSH2 0x690 SWAP2 SWAP1 PUSH2 0x39E9 JUMP JUMPDEST SWAP1 DUP2 MSTORE PUSH1 0x20 ADD PUSH1 0x40 MLOAD DUP1 SWAP2 SUB SWAP1 KECCAK256 SLOAD SWAP1 POP PUSH20 0x0 PUSH4 0xE1DF7AD6 DUP3 DUP6 PUSH2 0x100 ADD MLOAD DUP7 PUSH1 0xA0 ADD MLOAD PUSH1 0x40 MLOAD DUP5 PUSH4 0xFFFFFFFF AND PUSH1 0xE0 SHL DUP2 MSTORE PUSH1 0x4 ADD PUSH2 0x6E5 SWAP4 SWAP3 SWAP2 SWAP1 PUSH2 0x3AF0 JUMP JUMPDEST PUSH1 0x20 PUSH1 0x40 MLOAD DUP1 DUP4 SUB DUP2 DUP7 DUP1 EXTCODESIZE ISZERO DUP1 ISZERO PUSH2 0x6FD JUMPI PUSH1 0x0 DUP1 REVERT JUMPDEST POP GAS DELEGATECALL ISZERO DUP1 ISZERO PUSH2 0x711 JUMPI RETURNDATASIZE PUSH1 0x0 DUP1 RETURNDATACOPY RETURNDATASIZE PUSH1 0x0 REVERT JUMPDEST POP POP POP POP PUSH1 0x40 MLOAD RETURNDATASIZE PUSH1 0x1F NOT PUSH1 0x1F DUP3 ADD AND DUP3 ADD DUP1 PUSH1 0x40 MSTORE POP DUP2 ADD SWAP1 PUSH2 0x735 SWAP2 SWAP1 PUSH2 0x318E JUMP JUMPDEST SWAP2 POP POP PUSH2 0x73E JUMP JUMPDEST JUMPDEST SWAP2 SWAP1 POP JUMP JUMPDEST PUSH2 0x74B PUSH2 0x2A64 JUMP JUMPDEST DUP6 DUP2 PUSH1 0x0 ADD DUP2 SWAP1 MSTORE POP DUP5 DUP2 PUSH1 0x20 ADD SWAP1 PUSH20 0xFFFFFFFFFFFFFFFFFFFFFFFFFFFFFFFFFFFFFFFF AND SWAP1 DUP2 PUSH20 0xFFFFFFFFFFFFFFFFFFFFFFFFFFFFFFFFFFFFFFFF AND DUP2 MSTORE POP POP PUSH1 0x0 DUP2 PUSH1 0x40 ADD SWAP1 ISZERO ISZERO SWAP1 DUP2 ISZERO ISZERO DUP2 MSTORE POP POP DUP4 DUP2 PUSH1 0x60 ADD SWAP1 PUSH1 0x3 DUP2 GT ISZERO PUSH2 0x7DB JUMPI PUSH32 0x4E487B7100000000000000000000000000000000000000000000000000000000 PUSH1 0x0 MSTORE PUSH1 0x21 PUSH1 0x4 MSTORE PUSH1 0x24 PUSH1 0x0 REVERT JUMPDEST SWAP1 DUP2 PUSH1 0x3 DUP2 GT ISZERO PUSH2 0x815 JUMPI PUSH32 0x4E487B7100000000000000000000000000000000000000000000000000000000 PUSH1 0x0 MSTORE PUSH1 0x21 PUSH1 0x4 MSTORE PUSH1 0x24 PUSH1 0x0 REVERT JUMPDEST DUP2 MSTORE POP POP DUP3 DUP2 PUSH1 0x80 ADD DUP2 SWAP1 MSTORE POP DUP2 DUP2 PUSH1 0xA0 ADD DUP2 SWAP1 MSTORE POP DUP1 PUSH1 0x0 DUP1 DUP10 DUP2 MSTORE PUSH1 0x20 ADD SWAP1 DUP2 MSTORE PUSH1 0x20 ADD PUSH1 0x0 KECCAK256 PUSH1 0x0 DUP3 ADD MLOAD DUP2 PUSH1 0x0 ADD SWAP1 DUP1 MLOAD SWAP1 PUSH1 0x20 ADD SWAP1 PUSH2 0x85A SWAP3 SWAP2 SWAP1 PUSH2 0x2AF7 JUMP JUMPDEST POP PUSH1 0x20 DUP3 ADD MLOAD DUP2 PUSH1 0x1 ADD PUSH1 0x0 PUSH2 0x100 EXP DUP2 SLOAD DUP2 PUSH20 0xFFFFFFFFFFFFFFFFFFFFFFFFFFFFFFFFFFFFFFFF MUL NOT AND SWAP1 DUP4 PUSH20 0xFFFFFFFFFFFFFFFFFFFFFFFFFFFFFFFFFFFFFFFF AND MUL OR SWAP1 SSTORE POP PUSH1 0x40 DUP3 ADD MLOAD DUP2 PUSH1 0x1 ADD PUSH1 0x14 PUSH2 0x100 EXP DUP2 SLOAD DUP2 PUSH1 0xFF MUL NOT AND SWAP1 DUP4 ISZERO ISZERO MUL OR SWAP1 SSTORE POP PUSH1 0x60 DUP3 ADD MLOAD DUP2 PUSH1 0x1 ADD PUSH1 0x15 PUSH2 0x100 EXP DUP2 SLOAD DUP2 PUSH1 0xFF MUL NOT AND SWAP1 DUP4 PUSH1 0x3 DUP2 GT ISZERO PUSH2 0x913 JUMPI PUSH32 0x4E487B7100000000000000000000000000000000000000000000000000000000 PUSH1 0x0 MSTORE PUSH1 0x21 PUSH1 0x4 MSTORE PUSH1 0x24 PUSH1 0x0 REVERT JUMPDEST MUL OR SWAP1 SSTORE POP PUSH1 0x80 DUP3 ADD MLOAD DUP2 PUSH1 0x2 ADD SWAP1 DUP1 MLOAD SWAP1 PUSH1 0x20 ADD SWAP1 PUSH2 0x934 SWAP3 SWAP2 SWAP1 PUSH2 0x2B7D JUMP JUMPDEST POP PUSH1 0xA0 DUP3 ADD MLOAD DUP2 PUSH1 0x3 ADD SWAP1 DUP1 MLOAD SWAP1 PUSH1 0x20 ADD SWAP1 PUSH2 0x951 SWAP3 SWAP2 SWAP1 PUSH2 0x2B7D JUMP JUMPDEST POP PUSH1 0xC0 DUP3 ADD MLOAD DUP2 PUSH1 0x4 ADD PUSH1 0x0 DUP3 ADD MLOAD DUP2 PUSH1 0x0 ADD SSTORE PUSH1 0x20 DUP3 ADD MLOAD DUP2 PUSH1 0x1 ADD PUSH1 0x0 PUSH2 0x100 EXP DUP2 SLOAD DUP2 PUSH1 0xFF MUL NOT AND SWAP1 DUP4 PUSH1 0x3 DUP2 GT ISZERO PUSH2 0x9B6 JUMPI PUSH32 0x4E487B7100000000000000000000000000000000000000000000000000000000 PUSH1 0x0 MSTORE PUSH1 0x21 PUSH1 0x4 MSTORE PUSH1 0x24 PUSH1 0x0 REVERT JUMPDEST MUL OR SWAP1 SSTORE POP PUSH1 0x40 DUP3 ADD MLOAD DUP2 PUSH1 0x1 ADD PUSH1 0x1 PUSH2 0x100 EXP DUP2 SLOAD DUP2 PUSH1 0xFF MUL NOT AND SWAP1 DUP4 PUSH1 0x2 DUP2 GT ISZERO PUSH2 0xA0C JUMPI PUSH32 0x4E487B7100000000000000000000000000000000000000000000000000000000 PUSH1 0x0 MSTORE PUSH1 0x21 PUSH1 0x4 MSTORE PUSH1 0x24 PUSH1 0x0 REVERT JUMPDEST MUL OR SWAP1 SSTORE POP PUSH1 0x60 DUP3 ADD MLOAD DUP2 PUSH1 0x1 ADD PUSH1 0x2 PUSH2 0x100 EXP DUP2 SLOAD DUP2 PUSH1 0xFF MUL NOT AND SWAP1 DUP4 ISZERO ISZERO MUL OR SWAP1 SSTORE POP PUSH1 0x80 DUP3 ADD MLOAD DUP2 PUSH1 0x1 ADD PUSH1 0x3 PUSH2 0x100 EXP DUP2 SLOAD DUP2 PUSH1 0xFF MUL NOT AND SWAP1 DUP4 ISZERO ISZERO MUL OR SWAP1 SSTORE POP PUSH1 0xA0 DUP3 ADD MLOAD DUP2 PUSH1 0x1 ADD PUSH1 0x4 PUSH2 0x100 EXP DUP2 SLOAD DUP2 PUSH1 0xFF MUL NOT AND SWAP1 DUP4 PUSH1 0x6 DUP2 GT ISZERO PUSH2 0xAA2 JUMPI PUSH32 0x4E487B7100000000000000000000000000000000000000000000000000000000 PUSH1 0x0 MSTORE PUSH1 0x21 PUSH1 0x4 MSTORE PUSH1 0x24 PUSH1 0x0 REVERT JUMPDEST MUL OR SWAP1 SSTORE POP PUSH1 0xC0 DUP3 ADD MLOAD DUP2 PUSH1 0x2 ADD SWAP1 DUP1 MLOAD SWAP1 PUSH1 0x20 ADD SWAP1 PUSH2 0xAC3 SWAP3 SWAP2 SWAP1 PUSH2 0x2AF7 JUMP JUMPDEST POP PUSH1 0xE0 DUP3 ADD MLOAD DUP2 PUSH1 0x3 ADD SWAP1 DUP1 MLOAD SWAP1 PUSH1 0x20 ADD SWAP1 PUSH2 0xAE0 SWAP3 SWAP2 SWAP1 PUSH2 0x2AF7 JUMP JUMPDEST POP PUSH2 0x100 DUP3 ADD MLOAD DUP2 PUSH1 0x4 ADD SWAP1 DUP1 MLOAD SWAP1 PUSH1 0x20 ADD SWAP1 PUSH2 0xAFE SWAP3 SWAP2 SWAP1 PUSH2 0x2BCA JUMP JUMPDEST POP POP POP SWAP1 POP POP POP POP POP POP POP POP POP JUMP JUMPDEST PUSH1 0x1 DUP2 DUP1 MLOAD PUSH1 0x20 DUP2 ADD DUP3 ADD DUP1 MLOAD DUP5 DUP3 MSTORE PUSH1 0x20 DUP4 ADD PUSH1 0x20 DUP6 ADD KECCAK256 DUP2 DUP4 MSTORE DUP1 SWAP6 POP POP POP POP POP POP PUSH1 0x0 SWAP2 POP SWAP1 POP SLOAD DUP2 JUMP JUMPDEST DUP1 PUSH1 0x1 DUP5 DUP5 PUSH1 0x40 MLOAD PUSH2 0xB4E SWAP3 SWAP2 SWAP1 PUSH2 0x39D0 JUMP JUMPDEST SWAP1 DUP2 MSTORE PUSH1 0x20 ADD PUSH1 0x40 MLOAD DUP1 SWAP2 SUB SWAP1 KECCAK256 DUP2 SWAP1 SSTORE POP POP POP POP JUMP JUMPDEST PUSH1 0x60 PUSH1 0x5 DUP1 SLOAD DUP1 PUSH1 0x20 MUL PUSH1 0x20 ADD PUSH1 0x40 MLOAD SWAP1 DUP2 ADD PUSH1 0x40 MSTORE DUP1 SWAP3 SWAP2 SWAP1 DUP2 DUP2 MSTORE PUSH1 0x20 ADD PUSH1 0x0 SWAP1 JUMPDEST DUP3 DUP3 LT ISZERO PUSH2 0xC35 JUMPI DUP4 DUP3 SWAP1 PUSH1 0x0 MSTORE PUSH1 0x20 PUSH1 0x0 KECCAK256 ADD DUP1 SLOAD PUSH2 0xBA8 SWAP1 PUSH2 0x3F08 JUMP JUMPDEST DUP1 PUSH1 0x1F ADD PUSH1 0x20 DUP1 SWAP2 DIV MUL PUSH1 0x20 ADD PUSH1 0x40 MLOAD SWAP1 DUP2 ADD PUSH1 0x40 MSTORE DUP1 SWAP3 SWAP2 SWAP1 DUP2 DUP2 MSTORE PUSH1 0x20 ADD DUP3 DUP1 SLOAD PUSH2 0xBD4 SWAP1 PUSH2 0x3F08 JUMP JUMPDEST DUP1 ISZERO PUSH2 0xC21 JUMPI DUP1 PUSH1 0x1F LT PUSH2 0xBF6 JUMPI PUSH2 0x100 DUP1 DUP4 SLOAD DIV MUL DUP4 MSTORE SWAP2 PUSH1 0x20 ADD SWAP2 PUSH2 0xC21 JUMP JUMPDEST DUP3 ADD SWAP2 SWAP1 PUSH1 0x0 MSTORE PUSH1 0x20 PUSH1 0x0 KECCAK256 SWAP1 JUMPDEST DUP2 SLOAD DUP2 MSTORE SWAP1 PUSH1 0x1 ADD SWAP1 PUSH1 0x20 ADD DUP1 DUP4 GT PUSH2 0xC04 JUMPI DUP3 SWAP1 SUB PUSH1 0x1F AND DUP3 ADD SWAP2 JUMPDEST POP POP POP POP POP DUP2 MSTORE PUSH1 0x20 ADD SWAP1 PUSH1 0x1 ADD SWAP1 PUSH2 0xB89 JUMP JUMPDEST POP POP POP POP SWAP1 POP SWAP1 JUMP JUMPDEST PUSH1 0x5 DUP2 DUP2 SLOAD DUP2 LT PUSH2 0xC4E JUMPI PUSH1 0x0 DUP1 REVERT JUMPDEST SWAP1 PUSH1 0x0 MSTORE PUSH1 0x20 PUSH1 0x0 KECCAK256 ADD PUSH1 0x0 SWAP2 POP SWAP1 POP DUP1 SLOAD PUSH2 0xC69 SWAP1 PUSH2 0x3F08 JUMP JUMPDEST DUP1 PUSH1 0x1F ADD PUSH1 0x20 DUP1 SWAP2 DIV MUL PUSH1 0x20 ADD PUSH1 0x40 MLOAD SWAP1 DUP2 ADD PUSH1 0x40 MSTORE DUP1 SWAP3 SWAP2 SWAP1 DUP2 DUP2 MSTORE PUSH1 0x20 ADD DUP3 DUP1 SLOAD PUSH2 0xC95 SWAP1 PUSH2 0x3F08 JUMP JUMPDEST DUP1 ISZERO PUSH2 0xCE2 JUMPI DUP1 PUSH1 0x1F LT PUSH2 0xCB7 JUMPI PUSH2 0x100 DUP1 DUP4 SLOAD DIV MUL DUP4 MSTORE SWAP2 PUSH1 0x20 ADD SWAP2 PUSH2 0xCE2 JUMP JUMPDEST DUP3 ADD SWAP2 SWAP1 PUSH1 0x0 MSTORE PUSH1 0x20 PUSH1 0x0 KECCAK256 SWAP1 JUMPDEST DUP2 SLOAD DUP2 MSTORE SWAP1 PUSH1 0x1 ADD SWAP1 PUSH1 0x20 ADD DUP1 DUP4 GT PUSH2 0xCC5 JUMPI DUP3 SWAP1 SUB PUSH1 0x1F AND DUP3 ADD SWAP2 JUMPDEST POP POP POP POP POP DUP2 JUMP JUMPDEST PUSH1 0x0 DUP1 PUSH20 0x0 PUSH4 0xC237647F PUSH1 0x40 MLOAD DUP2 PUSH4 0xFFFFFFFF AND PUSH1 0xE0 SHL DUP2 MSTORE PUSH1 0x4 ADD PUSH1 0x20 PUSH1 0x40 MLOAD DUP1 DUP4 SUB DUP2 DUP7 DUP1 EXTCODESIZE ISZERO DUP1 ISZERO PUSH2 0xD31 JUMPI PUSH1 0x0 DUP1 REVERT JUMPDEST POP GAS DELEGATECALL ISZERO DUP1 ISZERO PUSH2 0xD45 JUMPI RETURNDATASIZE PUSH1 0x0 DUP1 RETURNDATACOPY RETURNDATASIZE PUSH1 0x0 REVERT JUMPDEST POP POP POP POP PUSH1 0x40 MLOAD RETURNDATASIZE PUSH1 0x1F NOT PUSH1 0x1F DUP3 ADD AND DUP3 ADD DUP1 PUSH1 0x40 MSTORE POP DUP2 ADD SWAP1 PUSH2 0xD69 SWAP2 SWAP1 PUSH2 0x33DB JUMP JUMPDEST SWAP1 POP PUSH1 0x5 DUP2 PUSH2 0xD78 SWAP2 SWAP1 PUSH2 0x3DD4 JUMP JUMPDEST SWAP2 POP POP SWAP1 JUMP JUMPDEST PUSH1 0x3 PUSH1 0x20 MSTORE DUP1 PUSH1 0x0 MSTORE PUSH1 0x40 PUSH1 0x0 KECCAK256 PUSH1 0x0 SWAP2 POP SLOAD SWAP1 PUSH2 0x100 EXP SWAP1 DIV PUSH1 0xFF AND DUP2 JUMP JUMPDEST PUSH1 0x0 DUP1 PUSH1 0x0 DUP4 DUP2 MSTORE PUSH1 0x20 ADD SWAP1 DUP2 MSTORE PUSH1 0x20 ADD PUSH1 0x0 KECCAK256 PUSH1 0x4 ADD PUSH1 0x0 ADD SLOAD SWAP1 POP SWAP2 SWAP1 POP JUMP JUMPDEST PUSH1 0x0 PUSH1 0x1 DUP4 DUP4 PUSH1 0x40 MLOAD PUSH2 0xDD4 SWAP3 SWAP2 SWAP1 PUSH2 0x39D0 JUMP JUMPDEST SWAP1 DUP2 MSTORE PUSH1 0x20 ADD PUSH1 0x40 MLOAD DUP1 SWAP2 SUB SWAP1 KECCAK256 SLOAD SWAP1 POP SWAP3 SWAP2 POP POP JUMP JUMPDEST PUSH1 0x60 PUSH1 0x4 DUP1 SLOAD DUP1 PUSH1 0x20 MUL PUSH1 0x20 ADD PUSH1 0x40 MLOAD SWAP1 DUP2 ADD PUSH1 0x40 MSTORE DUP1 SWAP3 SWAP2 SWAP1 DUP2 DUP2 MSTORE PUSH1 0x20 ADD DUP3 DUP1 SLOAD DUP1 ISZERO PUSH2 0xE39 JUMPI PUSH1 0x20 MUL DUP3 ADD SWAP2 SWAP1 PUSH1 0x0 MSTORE PUSH1 0x20 PUSH1 0x0 KECCAK256 SWAP1 JUMPDEST DUP2 SLOAD DUP2 MSTORE PUSH1 0x20 ADD SWAP1 PUSH1 0x1 ADD SWAP1 DUP1 DUP4 GT PUSH2 0xE25 JUMPI JUMPDEST POP POP POP POP POP SWAP1 POP SWAP1 JUMP JUMPDEST PUSH1 0x4 DUP2 DUP2 SLOAD DUP2 LT PUSH2 0xE53 JUMPI PUSH1 0x0 DUP1 REVERT JUMPDEST SWAP1 PUSH1 0x0 MSTORE PUSH1 0x20 PUSH1 0x0 KECCAK256 ADD PUSH1 0x0 SWAP2 POP SWAP1 POP SLOAD DUP2 JUMP JUMPDEST PUSH1 0x0 PUSH1 0x60 PUSH1 0x0 DUP1 PUSH1 0x60 DUP1 PUSH1 0x0 DUP1 DUP9 DUP2 MSTORE PUSH1 0x20 ADD SWAP1 DUP2 MSTORE PUSH1 0x20 ADD PUSH1 0x0 KECCAK256 PUSH1 0x1 ADD PUSH1 0x14 SWAP1 SLOAD SWAP1 PUSH2 0x100 EXP SWAP1 DIV PUSH1 0xFF AND PUSH1 0x0 DUP1 DUP10 DUP2 MSTORE PUSH1 0x20 ADD SWAP1 DUP2 MSTORE PUSH1 0x20 ADD PUSH1 0x0 KECCAK256 PUSH1 0x0 ADD PUSH1 0x0 DUP1 DUP11 DUP2 MSTORE PUSH1 0x20 ADD SWAP1 DUP2 MSTORE PUSH1 0x20 ADD PUSH1 0x0 KECCAK256 PUSH1 0x1 ADD PUSH1 0x0 SWAP1 SLOAD SWAP1 PUSH2 0x100 EXP SWAP1 DIV PUSH20 0xFFFFFFFFFFFFFFFFFFFFFFFFFFFFFFFFFFFFFFFF AND PUSH1 0x0 DUP1 DUP12 DUP2 MSTORE PUSH1 0x20 ADD SWAP1 DUP2 MSTORE PUSH1 0x20 ADD PUSH1 0x0 KECCAK256 PUSH1 0x1 ADD PUSH1 0x15 SWAP1 SLOAD SWAP1 PUSH2 0x100 EXP SWAP1 DIV PUSH1 0xFF AND PUSH1 0x0 DUP1 DUP13 DUP2 MSTORE PUSH1 0x20 ADD SWAP1 DUP2 MSTORE PUSH1 0x20 ADD PUSH1 0x0 KECCAK256 PUSH1 0x2 ADD PUSH1 0x0 DUP1 DUP14 DUP2 MSTORE PUSH1 0x20 ADD SWAP1 DUP2 MSTORE PUSH1 0x20 ADD PUSH1 0x0 KECCAK256 PUSH1 0x3 ADD DUP5 DUP1 SLOAD PUSH2 0xF38 SWAP1 PUSH2 0x3F08 JUMP JUMPDEST DUP1 PUSH1 0x1F ADD PUSH1 0x20 DUP1 SWAP2 DIV MUL PUSH1 0x20 ADD PUSH1 0x40 MLOAD SWAP1 DUP2 ADD PUSH1 0x40 MSTORE DUP1 SWAP3 SWAP2 SWAP1 DUP2 DUP2 MSTORE PUSH1 0x20 ADD DUP3 DUP1 SLOAD PUSH2 0xF64 SWAP1 PUSH2 0x3F08 JUMP JUMPDEST DUP1 ISZERO PUSH2 0xFB1 JUMPI DUP1 PUSH1 0x1F LT PUSH2 0xF86 JUMPI PUSH2 0x100 DUP1 DUP4 SLOAD DIV MUL DUP4 MSTORE SWAP2 PUSH1 0x20 ADD SWAP2 PUSH2 0xFB1 JUMP JUMPDEST DUP3 ADD SWAP2 SWAP1 PUSH1 0x0 MSTORE PUSH1 0x20 PUSH1 0x0 KECCAK256 SWAP1 JUMPDEST DUP2 SLOAD DUP2 MSTORE SWAP1 PUSH1 0x1 ADD SWAP1 PUSH1 0x20 ADD DUP1 DUP4 GT PUSH2 0xF94 JUMPI DUP3 SWAP1 SUB PUSH1 0x1F AND DUP3 ADD SWAP2 JUMPDEST POP POP POP POP POP SWAP5 POP DUP2 DUP1 SLOAD DUP1 PUSH1 0x20 MUL PUSH1 0x20 ADD PUSH1 0x40 MLOAD SWAP1 DUP2 ADD PUSH1 0x40 MSTORE DUP1 SWAP3 SWAP2 SWAP1 DUP2 DUP2 MSTORE PUSH1 0x20 ADD DUP3 DUP1 SLOAD DUP1 ISZERO PUSH2 0x1003 JUMPI PUSH1 0x20 MUL DUP3 ADD SWAP2 SWAP1 PUSH1 0x0 MSTORE PUSH1 0x20 PUSH1 0x0 KECCAK256 SWAP1 JUMPDEST DUP2 SLOAD DUP2 MSTORE PUSH1 0x20 ADD SWAP1 PUSH1 0x1 ADD SWAP1 DUP1 DUP4 GT PUSH2 0xFEF JUMPI JUMPDEST POP POP POP POP POP SWAP2 POP DUP1 DUP1 SLOAD DUP1 PUSH1 0x20 MUL PUSH1 0x20 ADD PUSH1 0x40 MLOAD SWAP1 DUP2 ADD PUSH1 0x40 MSTORE DUP1 SWAP3 SWAP2 SWAP1 DUP2 DUP2 MSTORE PUSH1 0x20 ADD DUP3 DUP1 SLOAD DUP1 ISZERO PUSH2 0x1055 JUMPI PUSH1 0x20 MUL DUP3 ADD SWAP2 SWAP1 PUSH1 0x0 MSTORE PUSH1 0x20 PUSH1 0x0 KECCAK256 SWAP1 JUMPDEST DUP2 SLOAD DUP2 MSTORE PUSH1 0x20 ADD SWAP1 PUSH1 0x1 ADD SWAP1 DUP1 DUP4 GT PUSH2 0x1041 JUMPI JUMPDEST POP POP POP POP POP SWAP1 POP SWAP6 POP SWAP6 POP SWAP6 POP SWAP6 POP SWAP6 POP SWAP6 POP SWAP2 SWAP4 SWAP6 POP SWAP2 SWAP4 SWAP6 JUMP JUMPDEST PUSH1 0x0 DUP1 PUSH1 0x0 DUP4 DUP2 MSTORE PUSH1 0x20 ADD SWAP1 DUP2 MSTORE PUSH1 0x20 ADD PUSH1 0x0 KECCAK256 PUSH1 0x1 ADD PUSH1 0x14 SWAP1 SLOAD SWAP1 PUSH2 0x100 EXP SWAP1 DIV PUSH1 0xFF AND SWAP1 POP SWAP2 SWAP1 POP JUMP JUMPDEST PUSH1 0x0 DUP1 PUSH1 0x0 DUP4 DUP2 MSTORE PUSH1 0x20 ADD SWAP1 DUP2 MSTORE PUSH1 0x20 ADD PUSH1 0x0 KECCAK256 PUSH1 0x1 ADD PUSH1 0x14 SWAP1 SLOAD SWAP1 PUSH2 0x100 EXP SWAP1 DIV PUSH1 0xFF AND ISZERO PUSH2 0x1102 JUMPI PUSH1 0x40 MLOAD PUSH32 0x8C379A000000000000000000000000000000000000000000000000000000000 DUP2 MSTORE PUSH1 0x4 ADD PUSH2 0x10F9 SWAP1 PUSH2 0x3BB7 JUMP JUMPDEST PUSH1 0x40 MLOAD DUP1 SWAP2 SUB SWAP1 REVERT JUMPDEST PUSH1 0x0 DUP1 DUP1 PUSH1 0x0 DUP6 DUP2 MSTORE PUSH1 0x20 ADD SWAP1 DUP2 MSTORE PUSH1 0x20 ADD PUSH1 0x0 KECCAK256 PUSH1 0x40 MLOAD DUP1 PUSH1 0xE0 ADD PUSH1 0x40 MSTORE SWAP1 DUP2 PUSH1 0x0 DUP3 ADD DUP1 SLOAD PUSH2 0x1132 SWAP1 PUSH2 0x3F08 JUMP JUMPDEST DUP1 PUSH1 0x1F ADD PUSH1 0x20 DUP1 SWAP2 DIV MUL PUSH1 0x20 ADD PUSH1 0x40 MLOAD SWAP1 DUP2 ADD PUSH1 0x40 MSTORE DUP1 SWAP3 SWAP2 SWAP1 DUP2 DUP2 MSTORE PUSH1 0x20 ADD DUP3 DUP1 SLOAD PUSH2 0x115E SWAP1 PUSH2 0x3F08 JUMP JUMPDEST DUP1 ISZERO PUSH2 0x11AB JUMPI DUP1 PUSH1 0x1F LT PUSH2 0x1180 JUMPI PUSH2 0x100 DUP1 DUP4 SLOAD DIV MUL DUP4 MSTORE SWAP2 PUSH1 0x20 ADD SWAP2 PUSH2 0x11AB JUMP JUMPDEST DUP3 ADD SWAP2 SWAP1 PUSH1 0x0 MSTORE PUSH1 0x20 PUSH1 0x0 KECCAK256 SWAP1 JUMPDEST DUP2 SLOAD DUP2 MSTORE SWAP1 PUSH1 0x1 ADD SWAP1 PUSH1 0x20 ADD DUP1 DUP4 GT PUSH2 0x118E JUMPI DUP3 SWAP1 SUB PUSH1 0x1F AND DUP3 ADD SWAP2 JUMPDEST POP POP POP POP POP DUP2 MSTORE PUSH1 0x20 ADD PUSH1 0x1 DUP3 ADD PUSH1 0x0 SWAP1 SLOAD SWAP1 PUSH2 0x100 EXP SWAP1 DIV PUSH20 0xFFFFFFFFFFFFFFFFFFFFFFFFFFFFFFFFFFFFFFFF AND PUSH20 0xFFFFFFFFFFFFFFFFFFFFFFFFFFFFFFFFFFFFFFFF AND PUSH20 0xFFFFFFFFFFFFFFFFFFFFFFFFFFFFFFFFFFFFFFFF AND DUP2 MSTORE PUSH1 0x20 ADD PUSH1 0x1 DUP3 ADD PUSH1 0x14 SWAP1 SLOAD SWAP1 PUSH2 0x100 EXP SWAP1 DIV PUSH1 0xFF AND ISZERO ISZERO ISZERO ISZERO DUP2 MSTORE PUSH1 0x20 ADD PUSH1 0x1 DUP3 ADD PUSH1 0x15 SWAP1 SLOAD SWAP1 PUSH2 0x100 EXP SWAP1 DIV PUSH1 0xFF AND PUSH1 0x3 DUP2 GT ISZERO PUSH2 0x1270 JUMPI PUSH32 0x4E487B7100000000000000000000000000000000000000000000000000000000 PUSH1 0x0 MSTORE PUSH1 0x21 PUSH1 0x4 MSTORE PUSH1 0x24 PUSH1 0x0 REVERT JUMPDEST PUSH1 0x3 DUP2 GT ISZERO PUSH2 0x12A8 JUMPI PUSH32 0x4E487B7100000000000000000000000000000000000000000000000000000000 PUSH1 0x0 MSTORE PUSH1 0x21 PUSH1 0x4 MSTORE PUSH1 0x24 PUSH1 0x0 REVERT JUMPDEST DUP2 MSTORE PUSH1 0x20 ADD PUSH1 0x2 DUP3 ADD DUP1 SLOAD DUP1 PUSH1 0x20 MUL PUSH1 0x20 ADD PUSH1 0x40 MLOAD SWAP1 DUP2 ADD PUSH1 0x40 MSTORE DUP1 SWAP3 SWAP2 SWAP1 DUP2 DUP2 MSTORE PUSH1 0x20 ADD DUP3 DUP1 SLOAD DUP1 ISZERO PUSH2 0x12FB JUMPI PUSH1 0x20 MUL DUP3 ADD SWAP2 SWAP1 PUSH1 0x0 MSTORE PUSH1 0x20 PUSH1 0x0 KECCAK256 SWAP1 JUMPDEST DUP2 SLOAD DUP2 MSTORE PUSH1 0x20 ADD SWAP1 PUSH1 0x1 ADD SWAP1 DUP1 DUP4 GT PUSH2 0x12E7 JUMPI JUMPDEST POP POP POP POP POP DUP2 MSTORE PUSH1 0x20 ADD PUSH1 0x3 DUP3 ADD DUP1 SLOAD DUP1 PUSH1 0x20 MUL PUSH1 0x20 ADD PUSH1 0x40 MLOAD SWAP1 DUP2 ADD PUSH1 0x40 MSTORE DUP1 SWAP3 SWAP2 SWAP1 DUP2 DUP2 MSTORE PUSH1 0x20 ADD DUP3 DUP1 SLOAD DUP1 ISZERO PUSH2 0x1353 JUMPI PUSH1 0x20 MUL DUP3 ADD SWAP2 SWAP1 PUSH1 0x0 MSTORE PUSH1 0x20 PUSH1 0x0 KECCAK256 SWAP1 JUMPDEST DUP2 SLOAD DUP2 MSTORE PUSH1 0x20 ADD SWAP1 PUSH1 0x1 ADD SWAP1 DUP1 DUP4 GT PUSH2 0x133F JUMPI JUMPDEST POP POP POP POP POP DUP2 MSTORE PUSH1 0x20 ADD PUSH1 0x4 DUP3 ADD PUSH1 0x40 MLOAD DUP1 PUSH2 0x120 ADD PUSH1 0x40 MSTORE SWAP1 DUP2 PUSH1 0x0 DUP3 ADD SLOAD DUP2 MSTORE PUSH1 0x20 ADD PUSH1 0x1 DUP3 ADD PUSH1 0x0 SWAP1 SLOAD SWAP1 PUSH2 0x100 EXP SWAP1 DIV PUSH1 0xFF AND PUSH1 0x3 DUP2 GT ISZERO PUSH2 0x13C2 JUMPI PUSH32 0x4E487B7100000000000000000000000000000000000000000000000000000000 PUSH1 0x0 MSTORE PUSH1 0x21 PUSH1 0x4 MSTORE PUSH1 0x24 PUSH1 0x0 REVERT JUMPDEST PUSH1 0x3 DUP2 GT ISZERO PUSH2 0x13FA JUMPI PUSH32 0x4E487B7100000000000000000000000000000000000000000000000000000000 PUSH1 0x0 MSTORE PUSH1 0x21 PUSH1 0x4 MSTORE PUSH1 0x24 PUSH1 0x0 REVERT JUMPDEST DUP2 MSTORE PUSH1 0x20 ADD PUSH1 0x1 DUP3 ADD PUSH1 0x1 SWAP1 SLOAD SWAP1 PUSH2 0x100 EXP SWAP1 DIV PUSH1 0xFF AND PUSH1 0x2 DUP2 GT ISZERO PUSH2 0x1449 JUMPI PUSH32 0x4E487B7100000000000000000000000000000000000000000000000000000000 PUSH1 0x0 MSTORE PUSH1 0x21 PUSH1 0x4 MSTORE PUSH1 0x24 PUSH1 0x0 REVERT JUMPDEST PUSH1 0x2 DUP2 GT ISZERO PUSH2 0x1481 JUMPI PUSH32 0x4E487B7100000000000000000000000000000000000000000000000000000000 PUSH1 0x0 MSTORE PUSH1 0x21 PUSH1 0x4 MSTORE PUSH1 0x24 PUSH1 0x0 REVERT JUMPDEST DUP2 MSTORE PUSH1 0x20 ADD PUSH1 0x1 DUP3 ADD PUSH1 0x2 SWAP1 SLOAD SWAP1 PUSH2 0x100 EXP SWAP1 DIV PUSH1 0xFF AND ISZERO ISZERO ISZERO ISZERO DUP2 MSTORE PUSH1 0x20 ADD PUSH1 0x1 DUP3 ADD PUSH1 0x3 SWAP1 SLOAD SWAP1 PUSH2 0x100 EXP SWAP1 DIV PUSH1 0xFF AND ISZERO ISZERO ISZERO ISZERO DUP2 MSTORE PUSH1 0x20 ADD PUSH1 0x1 DUP3 ADD PUSH1 0x4 SWAP1 SLOAD SWAP1 PUSH2 0x100 EXP SWAP1 DIV PUSH1 0xFF AND PUSH1 0x6 DUP2 GT ISZERO PUSH2 0x1506 JUMPI PUSH32 0x4E487B7100000000000000000000000000000000000000000000000000000000 PUSH1 0x0 MSTORE PUSH1 0x21 PUSH1 0x4 MSTORE PUSH1 0x24 PUSH1 0x0 REVERT JUMPDEST PUSH1 0x6 DUP2 GT ISZERO PUSH2 0x153E JUMPI PUSH32 0x4E487B7100000000000000000000000000000000000000000000000000000000 PUSH1 0x0 MSTORE PUSH1 0x21 PUSH1 0x4 MSTORE PUSH1 0x24 PUSH1 0x0 REVERT JUMPDEST DUP2 MSTORE PUSH1 0x20 ADD PUSH1 0x2 DUP3 ADD DUP1 SLOAD PUSH2 0x1552 SWAP1 PUSH2 0x3F08 JUMP JUMPDEST DUP1 PUSH1 0x1F ADD PUSH1 0x20 DUP1 SWAP2 DIV MUL PUSH1 0x20 ADD PUSH1 0x40 MLOAD SWAP1 DUP2 ADD PUSH1 0x40 MSTORE DUP1 SWAP3 SWAP2 SWAP1 DUP2 DUP2 MSTORE PUSH1 0x20 ADD DUP3 DUP1 SLOAD PUSH2 0x157E SWAP1 PUSH2 0x3F08 JUMP JUMPDEST DUP1 ISZERO PUSH2 0x15CB JUMPI DUP1 PUSH1 0x1F LT PUSH2 0x15A0 JUMPI PUSH2 0x100 DUP1 DUP4 SLOAD DIV MUL DUP4 MSTORE SWAP2 PUSH1 0x20 ADD SWAP2 PUSH2 0x15CB JUMP JUMPDEST DUP3 ADD SWAP2 SWAP1 PUSH1 0x0 MSTORE PUSH1 0x20 PUSH1 0x0 KECCAK256 SWAP1 JUMPDEST DUP2 SLOAD DUP2 MSTORE SWAP1 PUSH1 0x1 ADD SWAP1 PUSH1 0x20 ADD DUP1 DUP4 GT PUSH2 0x15AE JUMPI DUP3 SWAP1 SUB PUSH1 0x1F AND DUP3 ADD SWAP2 JUMPDEST POP POP POP POP POP DUP2 MSTORE PUSH1 0x20 ADD PUSH1 0x3 DUP3 ADD DUP1 SLOAD PUSH2 0x15E4 SWAP1 PUSH2 0x3F08 JUMP JUMPDEST DUP1 PUSH1 0x1F ADD PUSH1 0x20 DUP1 SWAP2 DIV MUL PUSH1 0x20 ADD PUSH1 0x40 MLOAD SWAP1 DUP2 ADD PUSH1 0x40 MSTORE DUP1 SWAP3 SWAP2 SWAP1 DUP2 DUP2 MSTORE PUSH1 0x20 ADD DUP3 DUP1 SLOAD PUSH2 0x1610 SWAP1 PUSH2 0x3F08 JUMP JUMPDEST DUP1 ISZERO PUSH2 0x165D JUMPI DUP1 PUSH1 0x1F LT PUSH2 0x1632 JUMPI PUSH2 0x100 DUP1 DUP4 SLOAD DIV MUL DUP4 MSTORE SWAP2 PUSH1 0x20 ADD SWAP2 PUSH2 0x165D JUMP JUMPDEST DUP3 ADD SWAP2 SWAP1 PUSH1 0x0 MSTORE PUSH1 0x20 PUSH1 0x0 KECCAK256 SWAP1 JUMPDEST DUP2 SLOAD DUP2 MSTORE SWAP1 PUSH1 0x1 ADD SWAP1 PUSH1 0x20 ADD DUP1 DUP4 GT PUSH2 0x1640 JUMPI DUP3 SWAP1 SUB PUSH1 0x1F AND DUP3 ADD SWAP2 JUMPDEST POP POP POP POP POP DUP2 MSTORE PUSH1 0x20 ADD PUSH1 0x4 DUP3 ADD DUP1 SLOAD DUP1 PUSH1 0x20 MUL PUSH1 0x20 ADD PUSH1 0x40 MLOAD SWAP1 DUP2 ADD PUSH1 0x40 MSTORE DUP1 SWAP3 SWAP2 SWAP1 DUP2 DUP2 MSTORE PUSH1 0x20 ADD DUP3 DUP1 SLOAD DUP1 ISZERO PUSH2 0x16B5 JUMPI PUSH1 0x20 MUL DUP3 ADD SWAP2 SWAP1 PUSH1 0x0 MSTORE PUSH1 0x20 PUSH1 0x0 KECCAK256 SWAP1 JUMPDEST DUP2 SLOAD DUP2 MSTORE PUSH1 0x20 ADD SWAP1 PUSH1 0x1 ADD SWAP1 DUP1 DUP4 GT PUSH2 0x16A1 JUMPI JUMPDEST POP POP POP POP POP DUP2 MSTORE POP POP DUP2 MSTORE POP POP SWAP1 POP PUSH1 0x0 DUP1 PUSH1 0x0 DUP7 DUP2 MSTORE PUSH1 0x20 ADD SWAP1 DUP2 MSTORE PUSH1 0x20 ADD PUSH1 0x0 KECCAK256 PUSH1 0x1 ADD PUSH1 0x0 SWAP1 SLOAD SWAP1 PUSH2 0x100 EXP SWAP1 DIV PUSH20 0xFFFFFFFFFFFFFFFFFFFFFFFFFFFFFFFFFFFFFFFF AND SWAP1 POP PUSH1 0x0 PUSH20 0xFFFFFFFFFFFFFFFFFFFFFFFFFFFFFFFFFFFFFFFF AND DUP2 PUSH20 0xFFFFFFFFFFFFFFFFFFFFFFFFFFFFFFFFFFFFFFFF AND EQ DUP1 PUSH2 0x1764 JUMPI POP CALLER PUSH20 0xFFFFFFFFFFFFFFFFFFFFFFFFFFFFFFFFFFFFFFFF AND DUP2 PUSH20 0xFFFFFFFFFFFFFFFFFFFFFFFFFFFFFFFFFFFFFFFF AND EQ JUMPDEST PUSH1 0x0 DUP1 DUP8 DUP2 MSTORE PUSH1 0x20 ADD SWAP1 DUP2 MSTORE PUSH1 0x20 ADD PUSH1 0x0 KECCAK256 PUSH1 0x0 ADD SWAP1 PUSH2 0x17BA JUMPI PUSH1 0x40 MLOAD PUSH32 0x8C379A000000000000000000000000000000000000000000000000000000000 DUP2 MSTORE PUSH1 0x4 ADD PUSH2 0x17B1 SWAP2 SWAP1 PUSH2 0x3B95 JUMP JUMPDEST PUSH1 0x40 MLOAD DUP1 SWAP2 SUB SWAP1 REVERT JUMPDEST POP PUSH1 0x0 DUP1 DUP7 DUP2 MSTORE PUSH1 0x20 ADD SWAP1 DUP2 MSTORE PUSH1 0x20 ADD PUSH1 0x0 KECCAK256 PUSH1 0x4 ADD PUSH1 0x1 ADD PUSH1 0x3 SWAP1 SLOAD SWAP1 PUSH2 0x100 EXP SWAP1 DIV PUSH1 0xFF AND ISZERO PUSH2 0x1BC1 JUMPI PUSH1 0x0 DUP1 DUP7 DUP2 MSTORE PUSH1 0x20 ADD SWAP1 DUP2 MSTORE PUSH1 0x20 ADD PUSH1 0x0 KECCAK256 PUSH1 0x4 ADD PUSH1 0x0 ADD SLOAD SWAP3 POP PUSH1 0x0 PUSH2 0x1B7D PUSH1 0x0 DUP1 DUP9 DUP2 MSTORE PUSH1 0x20 ADD SWAP1 DUP2 MSTORE PUSH1 0x20 ADD PUSH1 0x0 KECCAK256 PUSH1 0x4 ADD PUSH1 0x40 MLOAD DUP1 PUSH2 0x120 ADD PUSH1 0x40 MSTORE SWAP1 DUP2 PUSH1 0x0 DUP3 ADD SLOAD DUP2 MSTORE PUSH1 0x20 ADD PUSH1 0x1 DUP3 ADD PUSH1 0x0 SWAP1 SLOAD SWAP1 PUSH2 0x100 EXP SWAP1 DIV PUSH1 0xFF AND PUSH1 0x3 DUP2 GT ISZERO PUSH2 0x187C JUMPI PUSH32 0x4E487B7100000000000000000000000000000000000000000000000000000000 PUSH1 0x0 MSTORE PUSH1 0x21 PUSH1 0x4 MSTORE PUSH1 0x24 PUSH1 0x0 REVERT JUMPDEST PUSH1 0x3 DUP2 GT ISZERO PUSH2 0x18B4 JUMPI PUSH32 0x4E487B7100000000000000000000000000000000000000000000000000000000 PUSH1 0x0 MSTORE PUSH1 0x21 PUSH1 0x4 MSTORE PUSH1 0x24 PUSH1 0x0 REVERT JUMPDEST DUP2 MSTORE PUSH1 0x20 ADD PUSH1 0x1 DUP3 ADD PUSH1 0x1 SWAP1 SLOAD SWAP1 PUSH2 0x100 EXP SWAP1 DIV PUSH1 0xFF AND PUSH1 0x2 DUP2 GT ISZERO PUSH2 0x1903 JUMPI PUSH32 0x4E487B7100000000000000000000000000000000000000000000000000000000 PUSH1 0x0 MSTORE PUSH1 0x21 PUSH1 0x4 MSTORE PUSH1 0x24 PUSH1 0x0 REVERT JUMPDEST PUSH1 0x2 DUP2 GT ISZERO PUSH2 0x193B JUMPI PUSH32 0x4E487B7100000000000000000000000000000000000000000000000000000000 PUSH1 0x0 MSTORE PUSH1 0x21 PUSH1 0x4 MSTORE PUSH1 0x24 PUSH1 0x0 REVERT JUMPDEST DUP2 MSTORE PUSH1 0x20 ADD PUSH1 0x1 DUP3 ADD PUSH1 0x2 SWAP1 SLOAD SWAP1 PUSH2 0x100 EXP SWAP1 DIV PUSH1 0xFF AND ISZERO ISZERO ISZERO ISZERO DUP2 MSTORE PUSH1 0x20 ADD PUSH1 0x1 DUP3 ADD PUSH1 0x3 SWAP1 SLOAD SWAP1 PUSH2 0x100 EXP SWAP1 DIV PUSH1 0xFF AND ISZERO ISZERO ISZERO ISZERO DUP2 MSTORE PUSH1 0x20 ADD PUSH1 0x1 DUP3 ADD PUSH1 0x4 SWAP1 SLOAD SWAP1 PUSH2 0x100 EXP SWAP1 DIV PUSH1 0xFF AND PUSH1 0x6 DUP2 GT ISZERO PUSH2 0x19C0 JUMPI PUSH32 0x4E487B7100000000000000000000000000000000000000000000000000000000 PUSH1 0x0 MSTORE PUSH1 0x21 PUSH1 0x4 MSTORE PUSH1 0x24 PUSH1 0x0 REVERT JUMPDEST PUSH1 0x6 DUP2 GT ISZERO PUSH2 0x19F8 JUMPI PUSH32 0x4E487B7100000000000000000000000000000000000000000000000000000000 PUSH1 0x0 MSTORE PUSH1 0x21 PUSH1 0x4 MSTORE PUSH1 0x24 PUSH1 0x0 REVERT JUMPDEST DUP2 MSTORE PUSH1 0x20 ADD PUSH1 0x2 DUP3 ADD DUP1 SLOAD PUSH2 0x1A0C SWAP1 PUSH2 0x3F08 JUMP JUMPDEST DUP1 PUSH1 0x1F ADD PUSH1 0x20 DUP1 SWAP2 DIV MUL PUSH1 0x20 ADD PUSH1 0x40 MLOAD SWAP1 DUP2 ADD PUSH1 0x40 MSTORE DUP1 SWAP3 SWAP2 SWAP1 DUP2 DUP2 MSTORE PUSH1 0x20 ADD DUP3 DUP1 SLOAD PUSH2 0x1A38 SWAP1 PUSH2 0x3F08 JUMP JUMPDEST DUP1 ISZERO PUSH2 0x1A85 JUMPI DUP1 PUSH1 0x1F LT PUSH2 0x1A5A JUMPI PUSH2 0x100 DUP1 DUP4 SLOAD DIV MUL DUP4 MSTORE SWAP2 PUSH1 0x20 ADD SWAP2 PUSH2 0x1A85 JUMP JUMPDEST DUP3 ADD SWAP2 SWAP1 PUSH1 0x0 MSTORE PUSH1 0x20 PUSH1 0x0 KECCAK256 SWAP1 JUMPDEST DUP2 SLOAD DUP2 MSTORE SWAP1 PUSH1 0x1 ADD SWAP1 PUSH1 0x20 ADD DUP1 DUP4 GT PUSH2 0x1A68 JUMPI DUP3 SWAP1 SUB PUSH1 0x1F AND DUP3 ADD SWAP2 JUMPDEST POP POP POP POP POP DUP2 MSTORE PUSH1 0x20 ADD PUSH1 0x3 DUP3 ADD DUP1 SLOAD PUSH2 0x1A9E SWAP1 PUSH2 0x3F08 JUMP JUMPDEST DUP1 PUSH1 0x1F ADD PUSH1 0x20 DUP1 SWAP2 DIV MUL PUSH1 0x20 ADD PUSH1 0x40 MLOAD SWAP1 DUP2 ADD PUSH1 0x40 MSTORE DUP1 SWAP3 SWAP2 SWAP1 DUP2 DUP2 MSTORE PUSH1 0x20 ADD DUP3 DUP1 SLOAD PUSH2 0x1ACA SWAP1 PUSH2 0x3F08 JUMP JUMPDEST DUP1 ISZERO PUSH2 0x1B17 JUMPI DUP1 PUSH1 0x1F LT PUSH2 0x1AEC JUMPI PUSH2 0x100 DUP1 DUP4 SLOAD DIV MUL DUP4 MSTORE SWAP2 PUSH1 0x20 ADD SWAP2 PUSH2 0x1B17 JUMP JUMPDEST DUP3 ADD SWAP2 SWAP1 PUSH1 0x0 MSTORE PUSH1 0x20 PUSH1 0x0 KECCAK256 SWAP1 JUMPDEST DUP2 SLOAD DUP2 MSTORE SWAP1 PUSH1 0x1 ADD SWAP1 PUSH1 0x20 ADD DUP1 DUP4 GT PUSH2 0x1AFA JUMPI DUP3 SWAP1 SUB PUSH1 0x1F AND DUP3 ADD SWAP2 JUMPDEST POP POP POP POP POP DUP2 MSTORE PUSH1 0x20 ADD PUSH1 0x4 DUP3 ADD DUP1 SLOAD DUP1 PUSH1 0x20 MUL PUSH1 0x20 ADD PUSH1 0x40 MLOAD SWAP1 DUP2 ADD PUSH1 0x40 MSTORE DUP1 SWAP3 SWAP2 SWAP1 DUP2 DUP2 MSTORE PUSH1 0x20 ADD DUP3 DUP1 SLOAD DUP1 ISZERO PUSH2 0x1B6F JUMPI PUSH1 0x20 MUL DUP3 ADD SWAP2 SWAP1 PUSH1 0x0 MSTORE PUSH1 0x20 PUSH1 0x0 KECCAK256 SWAP1 JUMPDEST DUP2 SLOAD DUP2 MSTORE PUSH1 0x20 ADD SWAP1 PUSH1 0x1 ADD SWAP1 DUP1 DUP4 GT PUSH2 0x1B5B JUMPI JUMPDEST POP POP POP POP POP DUP2 MSTORE POP POP PUSH2 0x435 JUMP JUMPDEST SWAP1 POP DUP1 PUSH2 0x1BBF JUMPI PUSH1 0x40 MLOAD PUSH32 0x8C379A000000000000000000000000000000000000000000000000000000000 DUP2 MSTORE PUSH1 0x4 ADD PUSH2 0x1BB6 SWAP1 PUSH2 0x3BD7 JUMP JUMPDEST PUSH1 0x40 MLOAD DUP1 SWAP2 SUB SWAP1 REVERT JUMPDEST POP JUMPDEST PUSH1 0x0 DUP1 PUSH1 0x0 DUP8 DUP2 MSTORE PUSH1 0x20 ADD SWAP1 DUP2 MSTORE PUSH1 0x20 ADD PUSH1 0x0 KECCAK256 PUSH1 0x2 ADD DUP1 SLOAD DUP1 PUSH1 0x20 MUL PUSH1 0x20 ADD PUSH1 0x40 MLOAD SWAP1 DUP2 ADD PUSH1 0x40 MSTORE DUP1 SWAP3 SWAP2 SWAP1 DUP2 DUP2 MSTORE PUSH1 0x20 ADD DUP3 DUP1 SLOAD DUP1 ISZERO PUSH2 0x1C22 JUMPI PUSH1 0x20 MUL DUP3 ADD SWAP2 SWAP1 PUSH1 0x0 MSTORE PUSH1 0x20 PUSH1 0x0 KECCAK256 SWAP1 JUMPDEST DUP2 SLOAD DUP2 MSTORE PUSH1 0x20 ADD SWAP1 PUSH1 0x1 ADD SWAP1 DUP1 DUP4 GT PUSH2 0x1C0E JUMPI JUMPDEST POP POP POP POP POP SWAP1 POP PUSH1 0x0 DUP2 MLOAD EQ ISZERO PUSH2 0x1C3C JUMPI PUSH1 0x1 SWAP5 POP PUSH2 0x20BE JUMP JUMPDEST PUSH1 0x0 DUP1 PUSH1 0x0 DUP9 DUP2 MSTORE PUSH1 0x20 ADD SWAP1 DUP2 MSTORE PUSH1 0x20 ADD PUSH1 0x0 KECCAK256 PUSH1 0x1 ADD PUSH1 0x15 SWAP1 SLOAD SWAP1 PUSH2 0x100 EXP SWAP1 DIV PUSH1 0xFF AND SWAP1 POP PUSH1 0x0 PUSH1 0x3 DUP2 GT ISZERO PUSH2 0x1C9D JUMPI PUSH32 0x4E487B7100000000000000000000000000000000000000000000000000000000 PUSH1 0x0 MSTORE PUSH1 0x21 PUSH1 0x4 MSTORE PUSH1 0x24 PUSH1 0x0 REVERT JUMPDEST DUP2 PUSH1 0x3 DUP2 GT ISZERO PUSH2 0x1CD6 JUMPI PUSH32 0x4E487B7100000000000000000000000000000000000000000000000000000000 PUSH1 0x0 MSTORE PUSH1 0x21 PUSH1 0x4 MSTORE PUSH1 0x24 PUSH1 0x0 REVERT JUMPDEST EQ ISZERO PUSH2 0x1D3C JUMPI PUSH1 0x1 ISZERO ISZERO PUSH2 0x1D2A DUP4 PUSH1 0x0 DUP2 MLOAD DUP2 LT PUSH2 0x1D1D JUMPI PUSH32 0x4E487B7100000000000000000000000000000000000000000000000000000000 PUSH1 0x0 MSTORE PUSH1 0x32 PUSH1 0x4 MSTORE PUSH1 0x24 PUSH1 0x0 REVERT JUMPDEST PUSH1 0x20 MUL PUSH1 0x20 ADD ADD MLOAD PUSH2 0x1071 JUMP JUMPDEST ISZERO ISZERO EQ ISZERO PUSH2 0x1D37 JUMPI PUSH1 0x1 SWAP6 POP JUMPDEST PUSH2 0x20BC JUMP JUMPDEST PUSH1 0x0 DUP1 PUSH1 0x0 SWAP1 POP JUMPDEST DUP4 MLOAD DUP2 LT ISZERO PUSH2 0x1DC4 JUMPI PUSH1 0x1 ISZERO ISZERO PUSH2 0x1D9A DUP6 DUP4 DUP2 MLOAD DUP2 LT PUSH2 0x1D8D JUMPI PUSH32 0x4E487B7100000000000000000000000000000000000000000000000000000000 PUSH1 0x0 MSTORE PUSH1 0x32 PUSH1 0x4 MSTORE PUSH1 0x24 PUSH1 0x0 REVERT JUMPDEST PUSH1 0x20 MUL PUSH1 0x20 ADD ADD MLOAD PUSH2 0x1071 JUMP JUMPDEST ISZERO ISZERO EQ ISZERO PUSH2 0x1DB1 JUMPI DUP2 DUP1 PUSH2 0x1DAD SWAP1 PUSH2 0x3F3A JUMP JUMPDEST SWAP3 POP POP JUMPDEST DUP1 DUP1 PUSH2 0x1DBC SWAP1 PUSH2 0x3F3A JUMP JUMPDEST SWAP2 POP POP PUSH2 0x1D44 JUMP JUMPDEST POP PUSH1 0x1 PUSH1 0x3 DUP2 GT ISZERO PUSH2 0x1DFF JUMPI PUSH32 0x4E487B7100000000000000000000000000000000000000000000000000000000 PUSH1 0x0 MSTORE PUSH1 0x21 PUSH1 0x4 MSTORE PUSH1 0x24 PUSH1 0x0 REVERT JUMPDEST DUP3 PUSH1 0x3 DUP2 GT ISZERO PUSH2 0x1E38 JUMPI PUSH32 0x4E487B7100000000000000000000000000000000000000000000000000000000 PUSH1 0x0 MSTORE PUSH1 0x21 PUSH1 0x4 MSTORE PUSH1 0x24 PUSH1 0x0 REVERT JUMPDEST EQ ISZERO PUSH2 0x1E51 JUMPI DUP3 MLOAD DUP2 EQ ISZERO PUSH2 0x1E4C JUMPI PUSH1 0x1 SWAP7 POP JUMPDEST PUSH2 0x20BA JUMP JUMPDEST PUSH1 0x2 PUSH1 0x3 DUP2 GT ISZERO PUSH2 0x1E8B JUMPI PUSH32 0x4E487B7100000000000000000000000000000000000000000000000000000000 PUSH1 0x0 MSTORE PUSH1 0x21 PUSH1 0x4 MSTORE PUSH1 0x24 PUSH1 0x0 REVERT JUMPDEST DUP3 PUSH1 0x3 DUP2 GT ISZERO PUSH2 0x1EC4 JUMPI PUSH32 0x4E487B7100000000000000000000000000000000000000000000000000000000 PUSH1 0x0 MSTORE PUSH1 0x21 PUSH1 0x4 MSTORE PUSH1 0x24 PUSH1 0x0 REVERT JUMPDEST EQ ISZERO PUSH2 0x1ED3 JUMPI PUSH1 0x1 SWAP7 POP PUSH2 0x20B9 JUMP JUMPDEST PUSH1 0x3 DUP1 DUP2 GT ISZERO PUSH2 0x1F0C JUMPI PUSH32 0x4E487B7100000000000000000000000000000000000000000000000000000000 PUSH1 0x0 MSTORE PUSH1 0x21 PUSH1 0x4 MSTORE PUSH1 0x24 PUSH1 0x0 REVERT JUMPDEST DUP3 PUSH1 0x3 DUP2 GT ISZERO PUSH2 0x1F45 JUMPI PUSH32 0x4E487B7100000000000000000000000000000000000000000000000000000000 PUSH1 0x0 MSTORE PUSH1 0x21 PUSH1 0x4 MSTORE PUSH1 0x24 PUSH1 0x0 REVERT JUMPDEST EQ ISZERO PUSH2 0x20B8 JUMPI PUSH1 0x0 JUMPDEST DUP4 MLOAD DUP2 LT ISZERO PUSH2 0x20B6 JUMPI PUSH1 0x3 PUSH1 0x0 DUP6 DUP4 DUP2 MLOAD DUP2 LT PUSH2 0x1F94 JUMPI PUSH32 0x4E487B7100000000000000000000000000000000000000000000000000000000 PUSH1 0x0 MSTORE PUSH1 0x32 PUSH1 0x4 MSTORE PUSH1 0x24 PUSH1 0x0 REVERT JUMPDEST PUSH1 0x20 MUL PUSH1 0x20 ADD ADD MLOAD DUP2 MSTORE PUSH1 0x20 ADD SWAP1 DUP2 MSTORE PUSH1 0x20 ADD PUSH1 0x0 KECCAK256 PUSH1 0x0 SWAP1 SLOAD SWAP1 PUSH2 0x100 EXP SWAP1 DIV PUSH1 0xFF AND ISZERO PUSH2 0x20A3 JUMPI DUP9 PUSH32 0x63A242A632EFE33C0E210E04E4173612A17EFA4F16AA4890BC7E46CAECE80DE0 PUSH1 0x40 MLOAD PUSH1 0x40 MLOAD DUP1 SWAP2 SUB SWAP1 LOG2 DUP4 DUP2 DUP2 MLOAD DUP2 LT PUSH2 0x2023 JUMPI PUSH32 0x4E487B7100000000000000000000000000000000000000000000000000000000 PUSH1 0x0 MSTORE PUSH1 0x32 PUSH1 0x4 MSTORE PUSH1 0x24 PUSH1 0x0 REVERT JUMPDEST PUSH1 0x20 MUL PUSH1 0x20 ADD ADD MLOAD PUSH32 0x63A242A632EFE33C0E210E04E4173612A17EFA4F16AA4890BC7E46CAECE80DE0 PUSH1 0x40 MLOAD PUSH1 0x40 MLOAD DUP1 SWAP2 SUB SWAP1 LOG2 PUSH2 0x20A0 DUP5 DUP3 DUP2 MLOAD DUP2 LT PUSH2 0x2093 JUMPI PUSH32 0x4E487B7100000000000000000000000000000000000000000000000000000000 PUSH1 0x0 MSTORE PUSH1 0x32 PUSH1 0x4 MSTORE PUSH1 0x24 PUSH1 0x0 REVERT JUMPDEST PUSH1 0x20 MUL PUSH1 0x20 ADD ADD MLOAD PUSH2 0x1071 JUMP JUMPDEST SWAP8 POP JUMPDEST DUP1 DUP1 PUSH2 0x20AE SWAP1 PUSH2 0x3F3A JUMP JUMPDEST SWAP2 POP POP PUSH2 0x1F4E JUMP JUMPDEST POP JUMPDEST JUMPDEST JUMPDEST POP JUMPDEST POP JUMPDEST DUP5 ISZERO PUSH2 0x237D JUMPI PUSH1 0x0 DUP1 DUP8 DUP2 MSTORE PUSH1 0x20 ADD SWAP1 DUP2 MSTORE PUSH1 0x20 ADD PUSH1 0x0 KECCAK256 PUSH1 0x4 ADD PUSH1 0x1 ADD PUSH1 0x3 SWAP1 SLOAD SWAP1 PUSH2 0x100 EXP SWAP1 DIV PUSH1 0xFF AND ISZERO PUSH2 0x22B1 JUMPI PUSH1 0x1 PUSH1 0x3 PUSH1 0x0 DUP7 DUP2 MSTORE PUSH1 0x20 ADD SWAP1 DUP2 MSTORE PUSH1 0x20 ADD PUSH1 0x0 KECCAK256 PUSH1 0x0 PUSH2 0x100 EXP DUP2 SLOAD DUP2 PUSH1 0xFF MUL NOT AND SWAP1 DUP4 ISZERO ISZERO MUL OR SWAP1 SSTORE POP PUSH2 0x44C PUSH32 0x63A242A632EFE33C0E210E04E4173612A17EFA4F16AA4890BC7E46CAECE80DE0 PUSH1 0x40 MLOAD PUSH1 0x40 MLOAD DUP1 SWAP2 SUB SWAP1 LOG2 DUP3 PUSH1 0xA0 ADD MLOAD MLOAD PUSH32 0x63A242A632EFE33C0E210E04E4173612A17EFA4F16AA4890BC7E46CAECE80DE0 PUSH1 0x40 MLOAD PUSH1 0x40 MLOAD DUP1 SWAP2 SUB SWAP1 LOG2 PUSH1 0x0 JUMPDEST DUP4 PUSH1 0xA0 ADD MLOAD MLOAD DUP2 LT ISZERO PUSH2 0x22AF JUMPI DUP1 PUSH32 0x63A242A632EFE33C0E210E04E4173612A17EFA4F16AA4890BC7E46CAECE80DE0 PUSH1 0x40 MLOAD PUSH1 0x40 MLOAD DUP1 SWAP2 SUB SWAP1 LOG2 DUP4 PUSH1 0xA0 ADD MLOAD DUP2 DUP2 MLOAD DUP2 LT PUSH2 0x21F6 JUMPI PUSH32 0x4E487B7100000000000000000000000000000000000000000000000000000000 PUSH1 0x0 MSTORE PUSH1 0x32 PUSH1 0x4 MSTORE PUSH1 0x24 PUSH1 0x0 REVERT JUMPDEST PUSH1 0x20 MUL PUSH1 0x20 ADD ADD MLOAD PUSH32 0x63A242A632EFE33C0E210E04E4173612A17EFA4F16AA4890BC7E46CAECE80DE0 PUSH1 0x40 MLOAD PUSH1 0x40 MLOAD DUP1 SWAP2 SUB SWAP1 LOG2 PUSH1 0x1 PUSH1 0x0 DUP1 DUP7 PUSH1 0xA0 ADD MLOAD DUP5 DUP2 MLOAD DUP2 LT PUSH2 0x226C JUMPI PUSH32 0x4E487B7100000000000000000000000000000000000000000000000000000000 PUSH1 0x0 MSTORE PUSH1 0x32 PUSH1 0x4 MSTORE PUSH1 0x24 PUSH1 0x0 REVERT JUMPDEST PUSH1 0x20 MUL PUSH1 0x20 ADD ADD MLOAD DUP2 MSTORE PUSH1 0x20 ADD SWAP1 DUP2 MSTORE PUSH1 0x20 ADD PUSH1 0x0 KECCAK256 PUSH1 0x1 ADD PUSH1 0x14 PUSH2 0x100 EXP DUP2 SLOAD DUP2 PUSH1 0xFF MUL NOT AND SWAP1 DUP4 ISZERO ISZERO MUL OR SWAP1 SSTORE POP DUP1 DUP1 PUSH2 0x22A7 SWAP1 PUSH2 0x3F3A JUMP JUMPDEST SWAP2 POP POP PUSH2 0x217F JUMP JUMPDEST POP JUMPDEST PUSH1 0x5 DUP4 PUSH1 0x0 ADD MLOAD SWAP1 DUP1 PUSH1 0x1 DUP2 SLOAD ADD DUP1 DUP3 SSTORE DUP1 SWAP2 POP POP PUSH1 0x1 SWAP1 SUB SWAP1 PUSH1 0x0 MSTORE PUSH1 0x20 PUSH1 0x0 KECCAK256 ADD PUSH1 0x0 SWAP1 SWAP2 SWAP1 SWAP2 SWAP1 SWAP2 POP SWAP1 DUP1 MLOAD SWAP1 PUSH1 0x20 ADD SWAP1 PUSH2 0x22F0 SWAP3 SWAP2 SWAP1 PUSH2 0x2AF7 JUMP JUMPDEST POP PUSH1 0x1 PUSH1 0x0 DUP1 DUP9 DUP2 MSTORE PUSH1 0x20 ADD SWAP1 DUP2 MSTORE PUSH1 0x20 ADD PUSH1 0x0 KECCAK256 PUSH1 0x1 ADD PUSH1 0x14 PUSH2 0x100 EXP DUP2 SLOAD DUP2 PUSH1 0xFF MUL NOT AND SWAP1 DUP4 ISZERO ISZERO MUL OR SWAP1 SSTORE POP PUSH1 0x4 DUP7 SWAP1 DUP1 PUSH1 0x1 DUP2 SLOAD ADD DUP1 DUP3 SSTORE DUP1 SWAP2 POP POP PUSH1 0x1 SWAP1 SUB SWAP1 PUSH1 0x0 MSTORE PUSH1 0x20 PUSH1 0x0 KECCAK256 ADD PUSH1 0x0 SWAP1 SWAP2 SWAP1 SWAP2 SWAP1 SWAP2 POP SSTORE PUSH1 0x1 ISZERO ISZERO PUSH32 0xACD30B4F9FD5868793E13FFB506F03374A23D9FEBA1249AC2CC7B0FE024FF4BA PUSH1 0x40 MLOAD PUSH1 0x40 MLOAD DUP1 SWAP2 SUB SWAP1 LOG2 PUSH2 0x23AE JUMP JUMPDEST PUSH1 0x0 ISZERO ISZERO PUSH32 0xACD30B4F9FD5868793E13FFB506F03374A23D9FEBA1249AC2CC7B0FE024FF4BA PUSH1 0x40 MLOAD PUSH1 0x40 MLOAD DUP1 SWAP2 SUB SWAP1 LOG2 JUMPDEST POP POP POP POP SWAP2 SWAP1 POP JUMP JUMPDEST PUSH1 0x0 PUSH20 0x0 PUSH4 0xE1DF7AD6 DUP6 DUP6 DUP6 PUSH1 0x40 MLOAD DUP5 PUSH4 0xFFFFFFFF AND PUSH1 0xE0 SHL DUP2 MSTORE PUSH1 0x4 ADD PUSH2 0x23F4 SWAP4 SWAP3 SWAP2 SWAP1 PUSH2 0x3AF0 JUMP JUMPDEST PUSH1 0x20 PUSH1 0x40 MLOAD DUP1 DUP4 SUB DUP2 DUP7 DUP1 EXTCODESIZE ISZERO DUP1 ISZERO PUSH2 0x240C JUMPI PUSH1 0x0 DUP1 REVERT JUMPDEST POP GAS DELEGATECALL ISZERO DUP1 ISZERO PUSH2 0x2420 JUMPI RETURNDATASIZE PUSH1 0x0 DUP1 RETURNDATACOPY RETURNDATASIZE PUSH1 0x0 REVERT JUMPDEST POP POP POP POP PUSH1 0x40 MLOAD RETURNDATASIZE PUSH1 0x1F NOT PUSH1 0x1F DUP3 ADD AND DUP3 ADD DUP1 PUSH1 0x40 MSTORE POP DUP2 ADD SWAP1 PUSH2 0x2444 SWAP2 SWAP1 PUSH2 0x318E JUMP JUMPDEST SWAP1 POP SWAP4 SWAP3 POP POP POP JUMP JUMPDEST PUSH1 0x2 DUP2 DUP1 MLOAD PUSH1 0x20 DUP2 ADD DUP3 ADD DUP1 MLOAD DUP5 DUP3 MSTORE PUSH1 0x20 DUP4 ADD PUSH1 0x20 DUP6 ADD KECCAK256 DUP2 DUP4 MSTORE DUP1 SWAP6 POP POP POP POP POP POP PUSH1 0x0 SWAP2 POP SWAP1 POP DUP1 SLOAD PUSH2 0x2482 SWAP1 PUSH2 0x3F08 JUMP JUMPDEST DUP1 PUSH1 0x1F ADD PUSH1 0x20 DUP1 SWAP2 DIV MUL PUSH1 0x20 ADD PUSH1 0x40 MLOAD SWAP1 DUP2 ADD PUSH1 0x40 MSTORE DUP1 SWAP3 SWAP2 SWAP1 DUP2 DUP2 MSTORE PUSH1 0x20 ADD DUP3 DUP1 SLOAD PUSH2 0x24AE SWAP1 PUSH2 0x3F08 JUMP JUMPDEST DUP1 ISZERO PUSH2 0x24FB JUMPI DUP1 PUSH1 0x1F LT PUSH2 0x24D0 JUMPI PUSH2 0x100 DUP1 DUP4 SLOAD DIV MUL DUP4 MSTORE SWAP2 PUSH1 0x20 ADD SWAP2 PUSH2 0x24FB JUMP JUMPDEST DUP3 ADD SWAP2 SWAP1 PUSH1 0x0 MSTORE PUSH1 0x20 PUSH1 0x0 KECCAK256 SWAP1 JUMPDEST DUP2 SLOAD DUP2 MSTORE SWAP1 PUSH1 0x1 ADD SWAP1 PUSH1 0x20 ADD DUP1 DUP4 GT PUSH2 0x24DE JUMPI DUP3 SWAP1 SUB PUSH1 0x1F AND DUP3 ADD SWAP2 JUMPDEST POP POP POP POP POP DUP2 JUMP JUMPDEST PUSH1 0x0 PUSH1 0x2 DUP2 GT ISZERO PUSH2 0x253D JUMPI PUSH32 0x4E487B7100000000000000000000000000000000000000000000000000000000 PUSH1 0x0 MSTORE PUSH1 0x21 PUSH1 0x4 MSTORE PUSH1 0x24 PUSH1 0x0 REVERT JUMPDEST DUP2 PUSH1 0x40 ADD MLOAD PUSH1 0x2 DUP2 GT ISZERO PUSH2 0x257A JUMPI PUSH32 0x4E487B7100000000000000000000000000000000000000000000000000000000 PUSH1 0x0 MSTORE PUSH1 0x21 PUSH1 0x4 MSTORE PUSH1 0x24 PUSH1 0x0 REVERT JUMPDEST EQ ISZERO PUSH2 0x25CB JUMPI PUSH1 0x40 MLOAD DUP1 PUSH1 0x20 ADD PUSH1 0x40 MSTORE DUP1 PUSH1 0x0 DUP2 MSTORE POP PUSH1 0x2 DUP3 PUSH1 0xC0 ADD MLOAD PUSH1 0x40 MLOAD PUSH2 0x25A4 SWAP2 SWAP1 PUSH2 0x39E9 JUMP JUMPDEST SWAP1 DUP2 MSTORE PUSH1 0x20 ADD PUSH1 0x40 MLOAD DUP1 SWAP2 SUB SWAP1 KECCAK256 SWAP1 DUP1 MLOAD SWAP1 PUSH1 0x20 ADD SWAP1 PUSH2 0x25C5 SWAP3 SWAP2 SWAP1 PUSH2 0x2AF7 JUMP JUMPDEST POP PUSH2 0x2672 JUMP JUMPDEST PUSH1 0x1 PUSH1 0x2 DUP2 GT ISZERO PUSH2 0x2605 JUMPI PUSH32 0x4E487B7100000000000000000000000000000000000000000000000000000000 PUSH1 0x0 MSTORE PUSH1 0x21 PUSH1 0x4 MSTORE PUSH1 0x24 PUSH1 0x0 REVERT JUMPDEST DUP2 PUSH1 0x40 ADD MLOAD PUSH1 0x2 DUP2 GT ISZERO PUSH2 0x2642 JUMPI PUSH32 0x4E487B7100000000000000000000000000000000000000000000000000000000 PUSH1 0x0 MSTORE PUSH1 0x21 PUSH1 0x4 MSTORE PUSH1 0x24 PUSH1 0x0 REVERT JUMPDEST EQ ISZERO PUSH2 0x2671 JUMPI PUSH1 0x0 PUSH1 0x1 DUP3 PUSH1 0xC0 ADD MLOAD PUSH1 0x40 MLOAD PUSH2 0x265E SWAP2 SWAP1 PUSH2 0x39E9 JUMP JUMPDEST SWAP1 DUP2 MSTORE PUSH1 0x20 ADD PUSH1 0x40 MLOAD DUP1 SWAP2 SUB SWAP1 KECCAK256 DUP2 SWAP1 SSTORE POP JUMPDEST JUMPDEST PUSH2 0x2680 DUP8 DUP8 DUP8 DUP8 DUP8 DUP8 PUSH2 0x743 JUMP JUMPDEST PUSH2 0x2688 PUSH2 0x2C17 JUMP JUMPDEST DUP2 PUSH1 0x0 ADD MLOAD DUP2 PUSH1 0x0 ADD DUP2 DUP2 MSTORE POP POP DUP2 PUSH1 0x20 ADD MLOAD DUP2 PUSH1 0x20 ADD SWAP1 PUSH1 0x3 DUP2 GT ISZERO PUSH2 0x26D8 JUMPI PUSH32 0x4E487B7100000000000000000000000000000000000000000000000000000000 PUSH1 0x0 MSTORE PUSH1 0x21 PUSH1 0x4 MSTORE PUSH1 0x24 PUSH1 0x0 REVERT JUMPDEST SWAP1 DUP2 PUSH1 0x3 DUP2 GT ISZERO PUSH2 0x2712 JUMPI PUSH32 0x4E487B7100000000000000000000000000000000000000000000000000000000 PUSH1 0x0 MSTORE PUSH1 0x21 PUSH1 0x4 MSTORE PUSH1 0x24 PUSH1 0x0 REVERT JUMPDEST DUP2 MSTORE POP POP DUP2 PUSH1 0x40 ADD MLOAD DUP2 PUSH1 0x40 ADD SWAP1 PUSH1 0x2 DUP2 GT ISZERO PUSH2 0x2758 JUMPI PUSH32 0x4E487B7100000000000000000000000000000000000000000000000000000000 PUSH1 0x0 MSTORE PUSH1 0x21 PUSH1 0x4 MSTORE PUSH1 0x24 PUSH1 0x0 REVERT JUMPDEST SWAP1 DUP2 PUSH1 0x2 DUP2 GT ISZERO PUSH2 0x2792 JUMPI PUSH32 0x4E487B7100000000000000000000000000000000000000000000000000000000 PUSH1 0x0 MSTORE PUSH1 0x21 PUSH1 0x4 MSTORE PUSH1 0x24 PUSH1 0x0 REVERT JUMPDEST DUP2 MSTORE POP POP DUP2 PUSH1 0x60 ADD MLOAD DUP2 PUSH1 0x60 ADD SWAP1 ISZERO ISZERO SWAP1 DUP2 ISZERO ISZERO DUP2 MSTORE POP POP DUP2 PUSH1 0x80 ADD MLOAD DUP2 PUSH1 0x80 ADD SWAP1 ISZERO ISZERO SWAP1 DUP2 ISZERO ISZERO DUP2 MSTORE POP POP DUP2 PUSH1 0xA0 ADD MLOAD DUP2 PUSH1 0xA0 ADD SWAP1 PUSH1 0x6 DUP2 GT ISZERO PUSH2 0x2800 JUMPI PUSH32 0x4E487B7100000000000000000000000000000000000000000000000000000000 PUSH1 0x0 MSTORE PUSH1 0x21 PUSH1 0x4 MSTORE PUSH1 0x24 PUSH1 0x0 REVERT JUMPDEST SWAP1 DUP2 PUSH1 0x6 DUP2 GT ISZERO PUSH2 0x283A JUMPI PUSH32 0x4E487B7100000000000000000000000000000000000000000000000000000000 PUSH1 0x0 MSTORE PUSH1 0x21 PUSH1 0x4 MSTORE PUSH1 0x24 PUSH1 0x0 REVERT JUMPDEST DUP2 MSTORE POP POP DUP2 PUSH1 0xC0 ADD MLOAD DUP2 PUSH1 0xC0 ADD DUP2 SWAP1 MSTORE POP DUP2 PUSH1 0xE0 ADD MLOAD DUP2 PUSH1 0xE0 ADD DUP2 SWAP1 MSTORE POP DUP2 PUSH2 0x100 ADD MLOAD DUP2 PUSH2 0x100 ADD DUP2 SWAP1 MSTORE POP DUP1 PUSH1 0x0 DUP1 DUP11 DUP2 MSTORE PUSH1 0x20 ADD SWAP1 DUP2 MSTORE PUSH1 0x20 ADD PUSH1 0x0 KECCAK256 PUSH1 0x4 ADD PUSH1 0x0 DUP3 ADD MLOAD DUP2 PUSH1 0x0 ADD SSTORE PUSH1 0x20 DUP3 ADD MLOAD DUP2 PUSH1 0x1 ADD PUSH1 0x0 PUSH2 0x100 EXP DUP2 SLOAD DUP2 PUSH1 0xFF MUL NOT AND SWAP1 DUP4 PUSH1 0x3 DUP2 GT ISZERO PUSH2 0x28D8 JUMPI PUSH32 0x4E487B7100000000000000000000000000000000000000000000000000000000 PUSH1 0x0 MSTORE PUSH1 0x21 PUSH1 0x4 MSTORE PUSH1 0x24 PUSH1 0x0 REVERT JUMPDEST MUL OR SWAP1 SSTORE POP PUSH1 0x40 DUP3 ADD MLOAD DUP2 PUSH1 0x1 ADD PUSH1 0x1 PUSH2 0x100 EXP DUP2 SLOAD DUP2 PUSH1 0xFF MUL NOT AND SWAP1 DUP4 PUSH1 0x2 DUP2 GT ISZERO PUSH2 0x292E JUMPI PUSH32 0x4E487B7100000000000000000000000000000000000000000000000000000000 PUSH1 0x0 MSTORE PUSH1 0x21 PUSH1 0x4 MSTORE PUSH1 0x24 PUSH1 0x0 REVERT JUMPDEST MUL OR SWAP1 SSTORE POP PUSH1 0x60 DUP3 ADD MLOAD DUP2 PUSH1 0x1 ADD PUSH1 0x2 PUSH2 0x100 EXP DUP2 SLOAD DUP2 PUSH1 0xFF MUL NOT AND SWAP1 DUP4 ISZERO ISZERO MUL OR SWAP1 SSTORE POP PUSH1 0x80 DUP3 ADD MLOAD DUP2 PUSH1 0x1 ADD PUSH1 0x3 PUSH2 0x100 EXP DUP2 SLOAD DUP2 PUSH1 0xFF MUL NOT AND SWAP1 DUP4 ISZERO ISZERO MUL OR SWAP1 SSTORE POP PUSH1 0xA0 DUP3 ADD MLOAD DUP2 PUSH1 0x1 ADD PUSH1 0x4 PUSH2 0x100 EXP DUP2 SLOAD DUP2 PUSH1 0xFF MUL NOT AND SWAP1 DUP4 PUSH1 0x6 DUP2 GT ISZERO PUSH2 0x29C4 JUMPI PUSH32 0x4E487B7100000000000000000000000000000000000000000000000000000000 PUSH1 0x0 MSTORE PUSH1 0x21 PUSH1 0x4 MSTORE PUSH1 0x24 PUSH1 0x0 REVERT JUMPDEST MUL OR SWAP1 SSTORE POP PUSH1 0xC0 DUP3 ADD MLOAD DUP2 PUSH1 0x2 ADD SWAP1 DUP1 MLOAD SWAP1 PUSH1 0x20 ADD SWAP1 PUSH2 0x29E5 SWAP3 SWAP2 SWAP1 PUSH2 0x2AF7 JUMP JUMPDEST POP PUSH1 0xE0 DUP3 ADD MLOAD DUP2 PUSH1 0x3 ADD SWAP1 DUP1 MLOAD SWAP1 PUSH1 0x20 ADD SWAP1 PUSH2 0x2A02 SWAP3 SWAP2 SWAP1 PUSH2 0x2AF7 JUMP JUMPDEST POP PUSH2 0x100 DUP3 ADD MLOAD DUP2 PUSH1 0x4 ADD SWAP1 DUP1 MLOAD SWAP1 PUSH1 0x20 ADD SWAP1 PUSH2 0x2A20 SWAP3 SWAP2 SWAP1 PUSH2 0x2BCA JUMP JUMPDEST POP SWAP1 POP POP POP POP POP POP POP POP POP POP JUMP JUMPDEST DUP2 DUP2 PUSH1 0x2 DUP7 DUP7 PUSH1 0x40 MLOAD PUSH2 0x2A42 SWAP3 SWAP2 SWAP1 PUSH2 0x39D0 JUMP JUMPDEST SWAP1 DUP2 MSTORE PUSH1 0x20 ADD PUSH1 0x40 MLOAD DUP1 SWAP2 SUB SWAP1 KECCAK256 SWAP2 SWAP1 PUSH2 0x2A5D SWAP3 SWAP2 SWAP1 PUSH2 0x2D0F JUMP JUMPDEST POP POP POP POP POP JUMP JUMPDEST PUSH1 0x40 MLOAD DUP1 PUSH1 0xE0 ADD PUSH1 0x40 MSTORE DUP1 PUSH1 0x60 DUP2 MSTORE PUSH1 0x20 ADD PUSH1 0x0 PUSH20 0xFFFFFFFFFFFFFFFFFFFFFFFFFFFFFFFFFFFFFFFF AND DUP2 MSTORE PUSH1 0x20 ADD PUSH1 0x0 ISZERO ISZERO DUP2 MSTORE PUSH1 0x20 ADD PUSH1 0x0 PUSH1 0x3 DUP2 GT ISZERO PUSH2 0x2AD6 JUMPI PUSH32 0x4E487B7100000000000000000000000000000000000000000000000000000000 PUSH1 0x0 MSTORE PUSH1 0x21 PUSH1 0x4 MSTORE PUSH1 0x24 PUSH1 0x0 REVERT JUMPDEST DUP2 MSTORE PUSH1 0x20 ADD PUSH1 0x60 DUP2 MSTORE PUSH1 0x20 ADD PUSH1 0x60 DUP2 MSTORE PUSH1 0x20 ADD PUSH2 0x2AF1 PUSH2 0x2C17 JUMP JUMPDEST DUP2 MSTORE POP SWAP1 JUMP JUMPDEST DUP3 DUP1 SLOAD PUSH2 0x2B03 SWAP1 PUSH2 0x3F08 JUMP JUMPDEST SWAP1 PUSH1 0x0 MSTORE PUSH1 0x20 PUSH1 0x0 KECCAK256 SWAP1 PUSH1 0x1F ADD PUSH1 0x20 SWAP1 DIV DUP2 ADD SWAP3 DUP3 PUSH2 0x2B25 JUMPI PUSH1 0x0 DUP6 SSTORE PUSH2 0x2B6C JUMP JUMPDEST DUP3 PUSH1 0x1F LT PUSH2 0x2B3E JUMPI DUP1 MLOAD PUSH1 0xFF NOT AND DUP4 DUP1 ADD OR DUP6 SSTORE PUSH2 0x2B6C JUMP JUMPDEST DUP3 DUP1 ADD PUSH1 0x1 ADD DUP6 SSTORE DUP3 ISZERO PUSH2 0x2B6C JUMPI SWAP2 DUP3 ADD JUMPDEST DUP3 DUP2 GT ISZERO PUSH2 0x2B6B JUMPI DUP3 MLOAD DUP3 SSTORE SWAP2 PUSH1 0x20 ADD SWAP2 SWAP1 PUSH1 0x1 ADD SWAP1 PUSH2 0x2B50 JUMP JUMPDEST JUMPDEST POP SWAP1 POP PUSH2 0x2B79 SWAP2 SWAP1 PUSH2 0x2D95 JUMP JUMPDEST POP SWAP1 JUMP JUMPDEST DUP3 DUP1 SLOAD DUP3 DUP3 SSTORE SWAP1 PUSH1 0x0 MSTORE PUSH1 0x20 PUSH1 0x0 KECCAK256 SWAP1 DUP2 ADD SWAP3 DUP3 ISZERO PUSH2 0x2BB9 JUMPI SWAP2 PUSH1 0x20 MUL DUP3 ADD JUMPDEST DUP3 DUP2 GT ISZERO PUSH2 0x2BB8 JUMPI DUP3 MLOAD DUP3 SSTORE SWAP2 PUSH1 0x20 ADD SWAP2 SWAP1 PUSH1 0x1 ADD SWAP1 PUSH2 0x2B9D JUMP JUMPDEST JUMPDEST POP SWAP1 POP PUSH2 0x2BC6 SWAP2 SWAP1 PUSH2 0x2D95 JUMP JUMPDEST POP SWAP1 JUMP JUMPDEST DUP3 DUP1 SLOAD DUP3 DUP3 SSTORE SWAP1 PUSH1 0x0 MSTORE PUSH1 0x20 PUSH1 0x0 KECCAK256 SWAP1 DUP2 ADD SWAP3 DUP3 ISZERO PUSH2 0x2C06 JUMPI SWAP2 PUSH1 0x20 MUL DUP3 ADD JUMPDEST DUP3 DUP2 GT ISZERO PUSH2 0x2C05 JUMPI DUP3 MLOAD DUP3 SSTORE SWAP2 PUSH1 0x20 ADD SWAP2 SWAP1 PUSH1 0x1 ADD SWAP1 PUSH2 0x2BEA JUMP JUMPDEST JUMPDEST POP SWAP1 POP PUSH2 0x2C13 SWAP2 SWAP1 PUSH2 0x2DB2 JUMP JUMPDEST POP SWAP1 JUMP JUMPDEST PUSH1 0x40 MLOAD DUP1 PUSH2 0x120 ADD PUSH1 0x40 MSTORE DUP1 PUSH1 0x0 DUP2 MSTORE PUSH1 0x20 ADD PUSH1 0x0 PUSH1 0x3 DUP2 GT ISZERO PUSH2 0x2C64 JUMPI PUSH32 0x4E487B7100000000000000000000000000000000000000000000000000000000 PUSH1 0x0 MSTORE PUSH1 0x21 PUSH1 0x4 MSTORE PUSH1 0x24 PUSH1 0x0 REVERT JUMPDEST DUP2 MSTORE PUSH1 0x20 ADD PUSH1 0x0 PUSH1 0x2 DUP2 GT ISZERO PUSH2 0x2CA3 JUMPI PUSH32 0x4E487B7100000000000000000000000000000000000000000000000000000000 PUSH1 0x0 MSTORE PUSH1 0x21 PUSH1 0x4 MSTORE PUSH1 0x24 PUSH1 0x0 REVERT JUMPDEST DUP2 MSTORE PUSH1 0x20 ADD PUSH1 0x0 ISZERO ISZERO DUP2 MSTORE PUSH1 0x20 ADD PUSH1 0x0 ISZERO ISZERO DUP2 MSTORE PUSH1 0x20 ADD PUSH1 0x0 PUSH1 0x6 DUP2 GT ISZERO PUSH2 0x2CF4 JUMPI PUSH32 0x4E487B7100000000000000000000000000000000000000000000000000000000 PUSH1 0x0 MSTORE PUSH1 0x21 PUSH1 0x4 MSTORE PUSH1 0x24 PUSH1 0x0 REVERT JUMPDEST DUP2 MSTORE PUSH1 0x20 ADD PUSH1 0x60 DUP2 MSTORE PUSH1 0x20 ADD PUSH1 0x60 DUP2 MSTORE PUSH1 0x20 ADD PUSH1 0x60 DUP2 MSTORE POP SWAP1 JUMP JUMPDEST DUP3 DUP1 SLOAD PUSH2 0x2D1B SWAP1 PUSH2 0x3F08 JUMP JUMPDEST SWAP1 PUSH1 0x0 MSTORE PUSH1 0x20 PUSH1 0x0 KECCAK256 SWAP1 PUSH1 0x1F ADD PUSH1 0x20 SWAP1 DIV DUP2 ADD SWAP3 DUP3 PUSH2 0x2D3D JUMPI PUSH1 0x0 DUP6 SSTORE PUSH2 0x2D84 JUMP JUMPDEST DUP3 PUSH1 0x1F LT PUSH2 0x2D56 JUMPI DUP1 CALLDATALOAD PUSH1 0xFF NOT AND DUP4 DUP1 ADD OR DUP6 SSTORE PUSH2 0x2D84 JUMP JUMPDEST DUP3 DUP1 ADD PUSH1 0x1 ADD DUP6 SSTORE DUP3 ISZERO PUSH2 0x2D84 JUMPI SWAP2 DUP3 ADD JUMPDEST DUP3 DUP2 GT ISZERO PUSH2 0x2D83 JUMPI DUP3 CALLDATALOAD DUP3 SSTORE SWAP2 PUSH1 0x20 ADD SWAP2 SWAP1 PUSH1 0x1 ADD SWAP1 PUSH2 0x2D68 JUMP JUMPDEST JUMPDEST POP SWAP1 POP PUSH2 0x2D91 SWAP2 SWAP1 PUSH2 0x2D95 JUMP JUMPDEST POP SWAP1 JUMP JUMPDEST JUMPDEST DUP1 DUP3 GT ISZERO PUSH2 0x2DAE JUMPI PUSH1 0x0 DUP2 PUSH1 0x0 SWAP1 SSTORE POP PUSH1 0x1 ADD PUSH2 0x2D96 JUMP JUMPDEST POP SWAP1 JUMP JUMPDEST JUMPDEST DUP1 DUP3 GT ISZERO PUSH2 0x2DCB JUMPI PUSH1 0x0 DUP2 PUSH1 0x0 SWAP1 SSTORE POP PUSH1 0x1 ADD PUSH2 0x2DB3 JUMP JUMPDEST POP SWAP1 JUMP JUMPDEST PUSH1 0x0 PUSH2 0x2DE2 PUSH2 0x2DDD DUP5 PUSH2 0x3C43 JUMP JUMPDEST PUSH2 0x3C12 JUMP JUMPDEST SWAP1 POP DUP1 DUP4 DUP3 MSTORE PUSH1 0x20 DUP3 ADD SWAP1 POP DUP3 DUP6 PUSH1 0x20 DUP7 MUL DUP3 ADD GT ISZERO PUSH2 0x2E01 JUMPI PUSH1 0x0 DUP1 REVERT JUMPDEST PUSH1 0x0 JUMPDEST DUP6 DUP2 LT ISZERO PUSH2 0x2E31 JUMPI DUP2 PUSH2 0x2E17 DUP9 DUP3 PUSH2 0x2FB7 JUMP JUMPDEST DUP5 MSTORE PUSH1 0x20 DUP5 ADD SWAP4 POP PUSH1 0x20 DUP4 ADD SWAP3 POP POP PUSH1 0x1 DUP2 ADD SWAP1 POP PUSH2 0x2E04 JUMP JUMPDEST POP POP POP SWAP4 SWAP3 POP POP POP JUMP JUMPDEST PUSH1 0x0 PUSH2 0x2E4E PUSH2 0x2E49 DUP5 PUSH2 0x3C6F JUMP JUMPDEST PUSH2 0x3C12 JUMP JUMPDEST SWAP1 POP DUP1 DUP4 DUP3 MSTORE PUSH1 0x20 DUP3 ADD SWAP1 POP DUP3 DUP6 PUSH1 0x20 DUP7 MUL DUP3 ADD GT ISZERO PUSH2 0x2E6D JUMPI PUSH1 0x0 DUP1 REVERT JUMPDEST PUSH1 0x0 JUMPDEST DUP6 DUP2 LT ISZERO PUSH2 0x2E9D JUMPI DUP2 PUSH2 0x2E83 DUP9 DUP3 PUSH2 0x3164 JUMP JUMPDEST DUP5 MSTORE PUSH1 0x20 DUP5 ADD SWAP4 POP PUSH1 0x20 DUP4 ADD SWAP3 POP POP PUSH1 0x1 DUP2 ADD SWAP1 POP PUSH2 0x2E70 JUMP JUMPDEST POP POP POP SWAP4 SWAP3 POP POP POP JUMP JUMPDEST PUSH1 0x0 PUSH2 0x2EBA PUSH2 0x2EB5 DUP5 PUSH2 0x3C9B JUMP JUMPDEST PUSH2 0x3C12 JUMP JUMPDEST SWAP1 POP DUP3 DUP2 MSTORE PUSH1 0x20 DUP2 ADD DUP5 DUP5 DUP5 ADD GT ISZERO PUSH2 0x2ED2 JUMPI PUSH1 0x0 DUP1 REVERT JUMPDEST PUSH2 0x2EDD DUP5 DUP3 DUP6 PUSH2 0x3EC6 JUMP JUMPDEST POP SWAP4 SWAP3 POP POP POP JUMP JUMPDEST PUSH1 0x0 DUP2 CALLDATALOAD SWAP1 POP PUSH2 0x2EF4 DUP2 PUSH2 0x4078 JUMP JUMPDEST SWAP3 SWAP2 POP POP JUMP JUMPDEST PUSH1 0x0 DUP3 PUSH1 0x1F DUP4 ADD SLT PUSH2 0x2F0B JUMPI PUSH1 0x0 DUP1 REVERT JUMPDEST DUP2 CALLDATALOAD PUSH2 0x2F1B DUP5 DUP3 PUSH1 0x20 DUP7 ADD PUSH2 0x2DCF JUMP JUMPDEST SWAP2 POP POP SWAP3 SWAP2 POP POP JUMP JUMPDEST PUSH1 0x0 DUP3 PUSH1 0x1F DUP4 ADD SLT PUSH2 0x2F35 JUMPI PUSH1 0x0 DUP1 REVERT JUMPDEST DUP2 CALLDATALOAD PUSH2 0x2F45 DUP5 DUP3 PUSH1 0x20 DUP7 ADD PUSH2 0x2E3B JUMP JUMPDEST SWAP2 POP POP SWAP3 SWAP2 POP POP JUMP JUMPDEST PUSH1 0x0 DUP2 CALLDATALOAD SWAP1 POP PUSH2 0x2F5D DUP2 PUSH2 0x408F JUMP JUMPDEST SWAP3 SWAP2 POP POP JUMP JUMPDEST PUSH1 0x0 DUP2 MLOAD SWAP1 POP PUSH2 0x2F72 DUP2 PUSH2 0x408F JUMP JUMPDEST SWAP3 SWAP2 POP POP JUMP JUMPDEST PUSH1 0x0 DUP2 CALLDATALOAD SWAP1 POP PUSH2 0x2F87 DUP2 PUSH2 0x40A6 JUMP JUMPDEST SWAP3 SWAP2 POP POP JUMP JUMPDEST PUSH1 0x0 DUP2 CALLDATALOAD SWAP1 POP PUSH2 0x2F9C DUP2 PUSH2 0x40B6 JUMP JUMPDEST SWAP3 SWAP2 POP POP JUMP JUMPDEST PUSH1 0x0 DUP2 CALLDATALOAD SWAP1 POP PUSH2 0x2FB1 DUP2 PUSH2 0x40C6 JUMP JUMPDEST SWAP3 SWAP2 POP POP JUMP JUMPDEST PUSH1 0x0 DUP2 CALLDATALOAD SWAP1 POP PUSH2 0x2FC6 DUP2 PUSH2 0x40D6 JUMP JUMPDEST SWAP3 SWAP2 POP POP JUMP JUMPDEST PUSH1 0x0 DUP1 DUP4 PUSH1 0x1F DUP5 ADD SLT PUSH2 0x2FDE JUMPI PUSH1 0x0 DUP1 REVERT JUMPDEST DUP3 CALLDATALOAD SWAP1 POP PUSH8 0xFFFFFFFFFFFFFFFF DUP2 GT ISZERO PUSH2 0x2FF7 JUMPI PUSH1 0x0 DUP1 REVERT JUMPDEST PUSH1 0x20 DUP4 ADD SWAP2 POP DUP4 PUSH1 0x1 DUP3 MUL DUP4 ADD GT ISZERO PUSH2 0x300F JUMPI PUSH1 0x0 DUP1 REVERT JUMPDEST SWAP3 POP SWAP3 SWAP1 POP JUMP JUMPDEST PUSH1 0x0 DUP3 PUSH1 0x1F DUP4 ADD SLT PUSH2 0x3027 JUMPI PUSH1 0x0 DUP1 REVERT JUMPDEST DUP2 CALLDATALOAD PUSH2 0x3037 DUP5 DUP3 PUSH1 0x20 DUP7 ADD PUSH2 0x2EA7 JUMP JUMPDEST SWAP2 POP POP SWAP3 SWAP2 POP POP JUMP JUMPDEST PUSH1 0x0 PUSH2 0x120 DUP3 DUP5 SUB SLT ISZERO PUSH2 0x3053 JUMPI PUSH1 0x0 DUP1 REVERT JUMPDEST PUSH2 0x305E PUSH2 0x120 PUSH2 0x3C12 JUMP JUMPDEST SWAP1 POP PUSH1 0x0 PUSH2 0x306E DUP5 DUP3 DUP6 ADD PUSH2 0x3164 JUMP JUMPDEST PUSH1 0x0 DUP4 ADD MSTORE POP PUSH1 0x20 PUSH2 0x3082 DUP5 DUP3 DUP6 ADD PUSH2 0x2F8D JUMP JUMPDEST PUSH1 0x20 DUP4 ADD MSTORE POP PUSH1 0x40 PUSH2 0x3096 DUP5 DUP3 DUP6 ADD PUSH2 0x2F78 JUMP JUMPDEST PUSH1 0x40 DUP4 ADD MSTORE POP PUSH1 0x60 PUSH2 0x30AA DUP5 DUP3 DUP6 ADD PUSH2 0x2F4E JUMP JUMPDEST PUSH1 0x60 DUP4 ADD MSTORE POP PUSH1 0x80 PUSH2 0x30BE DUP5 DUP3 DUP6 ADD PUSH2 0x2F4E JUMP JUMPDEST PUSH1 0x80 DUP4 ADD MSTORE POP PUSH1 0xA0 PUSH2 0x30D2 DUP5 DUP3 DUP6 ADD PUSH2 0x2FA2 JUMP JUMPDEST PUSH1 0xA0 DUP4 ADD MSTORE POP PUSH1 0xC0 DUP3 ADD CALLDATALOAD PUSH8 0xFFFFFFFFFFFFFFFF DUP2 GT ISZERO PUSH2 0x30F2 JUMPI PUSH1 0x0 DUP1 REVERT JUMPDEST PUSH2 0x30FE DUP5 DUP3 DUP6 ADD PUSH2 0x3016 JUMP JUMPDEST PUSH1 0xC0 DUP4 ADD MSTORE POP PUSH1 0xE0 DUP3 ADD CALLDATALOAD PUSH8 0xFFFFFFFFFFFFFFFF DUP2 GT ISZERO PUSH2 0x311E JUMPI PUSH1 0x0 DUP1 REVERT JUMPDEST PUSH2 0x312A DUP5 DUP3 DUP6 ADD PUSH2 0x3016 JUMP JUMPDEST PUSH1 0xE0 DUP4 ADD MSTORE POP PUSH2 0x100 DUP3 ADD CALLDATALOAD PUSH8 0xFFFFFFFFFFFFFFFF DUP2 GT ISZERO PUSH2 0x314B JUMPI PUSH1 0x0 DUP1 REVERT JUMPDEST PUSH2 0x3157 DUP5 DUP3 DUP6 ADD PUSH2 0x2EFA JUMP JUMPDEST PUSH2 0x100 DUP4 ADD MSTORE POP SWAP3 SWAP2 POP POP JUMP JUMPDEST PUSH1 0x0 DUP2 CALLDATALOAD SWAP1 POP PUSH2 0x3173 DUP2 PUSH2 0x40ED JUMP JUMPDEST SWAP3 SWAP2 POP POP JUMP JUMPDEST PUSH1 0x0 DUP2 MLOAD SWAP1 POP PUSH2 0x3188 DUP2 PUSH2 0x40ED JUMP JUMPDEST SWAP3 SWAP2 POP POP JUMP JUMPDEST PUSH1 0x0 PUSH1 0x20 DUP3 DUP5 SUB SLT ISZERO PUSH2 0x31A0 JUMPI PUSH1 0x0 DUP1 REVERT JUMPDEST PUSH1 0x0 PUSH2 0x31AE DUP5 DUP3 DUP6 ADD PUSH2 0x2F63 JUMP JUMPDEST SWAP2 POP POP SWAP3 SWAP2 POP POP JUMP JUMPDEST PUSH1 0x0 DUP1 PUSH1 0x0 PUSH1 0x60 DUP5 DUP7 SUB SLT ISZERO PUSH2 0x31CC JUMPI PUSH1 0x0 DUP1 REVERT JUMPDEST PUSH1 0x0 PUSH2 0x31DA DUP7 DUP3 DUP8 ADD PUSH2 0x2FB7 JUMP JUMPDEST SWAP4 POP POP PUSH1 0x20 DUP5 ADD CALLDATALOAD PUSH8 0xFFFFFFFFFFFFFFFF DUP2 GT ISZERO PUSH2 0x31F7 JUMPI PUSH1 0x0 DUP1 REVERT JUMPDEST PUSH2 0x3203 DUP7 DUP3 DUP8 ADD PUSH2 0x2EFA JUMP JUMPDEST SWAP3 POP POP PUSH1 0x40 PUSH2 0x3214 DUP7 DUP3 DUP8 ADD PUSH2 0x2FA2 JUMP JUMPDEST SWAP2 POP POP SWAP3 POP SWAP3 POP SWAP3 JUMP JUMPDEST PUSH1 0x0 DUP1 PUSH1 0x20 DUP4 DUP6 SUB SLT ISZERO PUSH2 0x3231 JUMPI PUSH1 0x0 DUP1 REVERT JUMPDEST PUSH1 0x0 DUP4 ADD CALLDATALOAD PUSH8 0xFFFFFFFFFFFFFFFF DUP2 GT ISZERO PUSH2 0x324B JUMPI PUSH1 0x0 DUP1 REVERT JUMPDEST PUSH2 0x3257 DUP6 DUP3 DUP7 ADD PUSH2 0x2FCC JUMP JUMPDEST SWAP3 POP SWAP3 POP POP SWAP3 POP SWAP3 SWAP1 POP JUMP JUMPDEST PUSH1 0x0 DUP1 PUSH1 0x0 PUSH1 0x40 DUP5 DUP7 SUB SLT ISZERO PUSH2 0x3278 JUMPI PUSH1 0x0 DUP1 REVERT JUMPDEST PUSH1 0x0 DUP5 ADD CALLDATALOAD PUSH8 0xFFFFFFFFFFFFFFFF DUP2 GT ISZERO PUSH2 0x3292 JUMPI PUSH1 0x0 DUP1 REVERT JUMPDEST PUSH2 0x329E DUP7 DUP3 DUP8 ADD PUSH2 0x2FCC JUMP JUMPDEST SWAP4 POP SWAP4 POP POP PUSH1 0x20 PUSH2 0x32B1 DUP7 DUP3 DUP8 ADD PUSH2 0x2FB7 JUMP JUMPDEST SWAP2 POP POP SWAP3 POP SWAP3 POP SWAP3 JUMP JUMPDEST PUSH1 0x0 DUP1 PUSH1 0x0 DUP1 PUSH1 0x40 DUP6 DUP8 SUB SLT ISZERO PUSH2 0x32D1 JUMPI PUSH1 0x0 DUP1 REVERT JUMPDEST PUSH1 0x0 DUP6 ADD CALLDATALOAD PUSH8 0xFFFFFFFFFFFFFFFF DUP2 GT ISZERO PUSH2 0x32EB JUMPI PUSH1 0x0 DUP1 REVERT JUMPDEST PUSH2 0x32F7 DUP8 DUP3 DUP9 ADD PUSH2 0x2FCC JUMP JUMPDEST SWAP5 POP SWAP5 POP POP PUSH1 0x20 DUP6 ADD CALLDATALOAD PUSH8 0xFFFFFFFFFFFFFFFF DUP2 GT ISZERO PUSH2 0x3316 JUMPI PUSH1 0x0 DUP1 REVERT JUMPDEST PUSH2 0x3322 DUP8 DUP3 DUP9 ADD PUSH2 0x2FCC JUMP JUMPDEST SWAP3 POP SWAP3 POP POP SWAP3 SWAP6 SWAP2 SWAP5 POP SWAP3 POP JUMP JUMPDEST PUSH1 0x0 PUSH1 0x20 DUP3 DUP5 SUB SLT ISZERO PUSH2 0x3342 JUMPI PUSH1 0x0 DUP1 REVERT JUMPDEST PUSH1 0x0 DUP3 ADD CALLDATALOAD PUSH8 0xFFFFFFFFFFFFFFFF DUP2 GT ISZERO PUSH2 0x335C JUMPI PUSH1 0x0 DUP1 REVERT JUMPDEST PUSH2 0x3368 DUP5 DUP3 DUP6 ADD PUSH2 0x3016 JUMP JUMPDEST SWAP2 POP POP SWAP3 SWAP2 POP POP JUMP JUMPDEST PUSH1 0x0 PUSH1 0x20 DUP3 DUP5 SUB SLT ISZERO PUSH2 0x3383 JUMPI PUSH1 0x0 DUP1 REVERT JUMPDEST PUSH1 0x0 DUP3 ADD CALLDATALOAD PUSH8 0xFFFFFFFFFFFFFFFF DUP2 GT ISZERO PUSH2 0x339D JUMPI PUSH1 0x0 DUP1 REVERT JUMPDEST PUSH2 0x33A9 DUP5 DUP3 DUP6 ADD PUSH2 0x3040 JUMP JUMPDEST SWAP2 POP POP SWAP3 SWAP2 POP POP JUMP JUMPDEST PUSH1 0x0 PUSH1 0x20 DUP3 DUP5 SUB SLT ISZERO PUSH2 0x33C4 JUMPI PUSH1 0x0 DUP1 REVERT JUMPDEST PUSH1 0x0 PUSH2 0x33D2 DUP5 DUP3 DUP6 ADD PUSH2 0x3164 JUMP JUMPDEST SWAP2 POP POP SWAP3 SWAP2 POP POP JUMP JUMPDEST PUSH1 0x0 PUSH1 0x20 DUP3 DUP5 SUB SLT ISZERO PUSH2 0x33ED JUMPI PUSH1 0x0 DUP1 REVERT JUMPDEST PUSH1 0x0 PUSH2 0x33FB DUP5 DUP3 DUP6 ADD PUSH2 0x3179 JUMP JUMPDEST SWAP2 POP POP SWAP3 SWAP2 POP POP JUMP JUMPDEST PUSH1 0x0 DUP1 PUSH1 0x0 DUP1 PUSH1 0x0 DUP1 PUSH1 0xC0 DUP8 DUP10 SUB SLT ISZERO PUSH2 0x341D JUMPI PUSH1 0x0 DUP1 REVERT JUMPDEST PUSH1 0x0 PUSH2 0x342B DUP10 DUP3 DUP11 ADD PUSH2 0x3164 JUMP JUMPDEST SWAP7 POP POP PUSH1 0x20 DUP8 ADD CALLDATALOAD PUSH8 0xFFFFFFFFFFFFFFFF DUP2 GT ISZERO PUSH2 0x3448 JUMPI PUSH1 0x0 DUP1 REVERT JUMPDEST PUSH2 0x3454 DUP10 DUP3 DUP11 ADD PUSH2 0x3016 JUMP JUMPDEST SWAP6 POP POP PUSH1 0x40 PUSH2 0x3465 DUP10 DUP3 DUP11 ADD PUSH2 0x2EE5 JUMP JUMPDEST SWAP5 POP POP PUSH1 0x60 PUSH2 0x3476 DUP10 DUP3 DUP11 ADD PUSH2 0x2F8D JUMP JUMPDEST SWAP4 POP POP PUSH1 0x80 DUP8 ADD CALLDATALOAD PUSH8 0xFFFFFFFFFFFFFFFF DUP2 GT ISZERO PUSH2 0x3493 JUMPI PUSH1 0x0 DUP1 REVERT JUMPDEST PUSH2 0x349F DUP10 DUP3 DUP11 ADD PUSH2 0x2F24 JUMP JUMPDEST SWAP3 POP POP PUSH1 0xA0 DUP8 ADD CALLDATALOAD PUSH8 0xFFFFFFFFFFFFFFFF DUP2 GT ISZERO PUSH2 0x34BC JUMPI PUSH1 0x0 DUP1 REVERT JUMPDEST PUSH2 0x34C8 DUP10 DUP3 DUP11 ADD PUSH2 0x2F24 JUMP JUMPDEST SWAP2 POP POP SWAP3 SWAP6 POP SWAP3 SWAP6 POP SWAP3 SWAP6 JUMP JUMPDEST PUSH1 0x0 DUP1 PUSH1 0x0 DUP1 PUSH1 0x0 DUP1 PUSH1 0x0 PUSH1 0xE0 DUP9 DUP11 SUB SLT ISZERO PUSH2 0x34F0 JUMPI PUSH1 0x0 DUP1 REVERT JUMPDEST PUSH1 0x0 PUSH2 0x34FE DUP11 DUP3 DUP12 ADD PUSH2 0x3164 JUMP JUMPDEST SWAP8 POP POP PUSH1 0x20 DUP9 ADD CALLDATALOAD PUSH8 0xFFFFFFFFFFFFFFFF DUP2 GT ISZERO PUSH2 0x351B JUMPI PUSH1 0x0 DUP1 REVERT JUMPDEST PUSH2 0x3527 DUP11 DUP3 DUP12 ADD PUSH2 0x3016 JUMP JUMPDEST SWAP7 POP POP PUSH1 0x40 PUSH2 0x3538 DUP11 DUP3 DUP12 ADD PUSH2 0x2EE5 JUMP JUMPDEST SWAP6 POP POP PUSH1 0x60 PUSH2 0x3549 DUP11 DUP3 DUP12 ADD PUSH2 0x2F8D JUMP JUMPDEST SWAP5 POP POP PUSH1 0x80 DUP9 ADD CALLDATALOAD PUSH8 0xFFFFFFFFFFFFFFFF DUP2 GT ISZERO PUSH2 0x3566 JUMPI PUSH1 0x0 DUP1 REVERT JUMPDEST PUSH2 0x3572 DUP11 DUP3 DUP12 ADD PUSH2 0x2F24 JUMP JUMPDEST SWAP4 POP POP PUSH1 0xA0 DUP9 ADD CALLDATALOAD PUSH8 0xFFFFFFFFFFFFFFFF DUP2 GT ISZERO PUSH2 0x358F JUMPI PUSH1 0x0 DUP1 REVERT JUMPDEST PUSH2 0x359B DUP11 DUP3 DUP12 ADD PUSH2 0x2F24 JUMP JUMPDEST SWAP3 POP POP PUSH1 0xC0 DUP9 ADD CALLDATALOAD PUSH8 0xFFFFFFFFFFFFFFFF DUP2 GT ISZERO PUSH2 0x35B8 JUMPI PUSH1 0x0 DUP1 REVERT JUMPDEST PUSH2 0x35C4 DUP11 DUP3 DUP12 ADD PUSH2 0x3040 JUMP JUMPDEST SWAP2 POP POP SWAP3 SWAP6 SWAP9 SWAP2 SWAP5 SWAP8 POP SWAP3 SWAP6 POP JUMP JUMPDEST PUSH1 0x0 PUSH2 0x35DF DUP4 DUP4 PUSH2 0x37A2 JUMP JUMPDEST PUSH1 0x20 DUP4 ADD SWAP1 POP SWAP3 SWAP2 POP POP JUMP JUMPDEST PUSH1 0x0 PUSH2 0x35F7 DUP4 DUP4 PUSH2 0x37D6 JUMP JUMPDEST SWAP1 POP SWAP3 SWAP2 POP POP JUMP JUMPDEST PUSH1 0x0 PUSH2 0x360B DUP4 DUP4 PUSH2 0x39B2 JUMP JUMPDEST PUSH1 0x20 DUP4 ADD SWAP1 POP SWAP3 SWAP2 POP POP JUMP JUMPDEST PUSH2 0x3620 DUP2 PUSH2 0x3E2A JUMP JUMPDEST DUP3 MSTORE POP POP JUMP JUMPDEST PUSH1 0x0 PUSH2 0x3631 DUP3 PUSH2 0x3D10 JUMP JUMPDEST PUSH2 0x363B DUP2 DUP6 PUSH2 0x3D63 JUMP JUMPDEST SWAP4 POP PUSH2 0x3646 DUP4 PUSH2 0x3CCB JUMP JUMPDEST DUP1 PUSH1 0x0 JUMPDEST DUP4 DUP2 LT ISZERO PUSH2 0x3677 JUMPI DUP2 MLOAD PUSH2 0x365E DUP9 DUP3 PUSH2 0x35D3 JUMP JUMPDEST SWAP8 POP PUSH2 0x3669 DUP4 PUSH2 0x3D3C JUMP JUMPDEST SWAP3 POP POP PUSH1 0x1 DUP2 ADD SWAP1 POP PUSH2 0x364A JUMP JUMPDEST POP DUP6 SWAP4 POP POP POP POP SWAP3 SWAP2 POP POP JUMP JUMPDEST PUSH1 0x0 PUSH2 0x368F DUP3 PUSH2 0x3D1B JUMP JUMPDEST PUSH2 0x3699 DUP2 DUP6 PUSH2 0x3D74 JUMP JUMPDEST SWAP4 POP DUP4 PUSH1 0x20 DUP3 MUL DUP6 ADD PUSH2 0x36AB DUP6 PUSH2 0x3CDB JUMP JUMPDEST DUP1 PUSH1 0x0 JUMPDEST DUP6 DUP2 LT ISZERO PUSH2 0x36E7 JUMPI DUP5 DUP5 SUB DUP10 MSTORE DUP2 MLOAD PUSH2 0x36C8 DUP6 DUP3 PUSH2 0x35EB JUMP JUMPDEST SWAP5 POP PUSH2 0x36D3 DUP4 PUSH2 0x3D49 JUMP JUMPDEST SWAP3 POP PUSH1 0x20 DUP11 ADD SWAP10 POP POP PUSH1 0x1 DUP2 ADD SWAP1 POP PUSH2 0x36AF JUMP JUMPDEST POP DUP3 SWAP8 POP DUP8 SWAP6 POP POP POP POP POP POP SWAP3 SWAP2 POP POP JUMP JUMPDEST PUSH1 0x0 PUSH2 0x3704 DUP3 PUSH2 0x3D26 JUMP JUMPDEST PUSH2 0x370E DUP2 DUP6 PUSH2 0x3D85 JUMP JUMPDEST SWAP4 POP PUSH2 0x3719 DUP4 PUSH2 0x3CEB JUMP JUMPDEST DUP1 PUSH1 0x0 JUMPDEST DUP4 DUP2 LT ISZERO PUSH2 0x374A JUMPI DUP2 MLOAD PUSH2 0x3731 DUP9 DUP3 PUSH2 0x35FF JUMP JUMPDEST SWAP8 POP PUSH2 0x373C DUP4 PUSH2 0x3D56 JUMP JUMPDEST SWAP3 POP POP PUSH1 0x1 DUP2 ADD SWAP1 POP PUSH2 0x371D JUMP JUMPDEST POP DUP6 SWAP4 POP POP POP POP SWAP3 SWAP2 POP POP JUMP JUMPDEST PUSH2 0x3760 DUP2 PUSH2 0x3E3C JUMP JUMPDEST DUP3 MSTORE POP POP JUMP JUMPDEST PUSH2 0x376F DUP2 PUSH2 0x3EA2 JUMP JUMPDEST DUP3 MSTORE POP POP JUMP JUMPDEST PUSH2 0x377E DUP2 PUSH2 0x3EB4 JUMP JUMPDEST DUP3 MSTORE POP POP JUMP JUMPDEST PUSH2 0x378D DUP2 PUSH2 0x3E6E JUMP JUMPDEST DUP3 MSTORE POP POP JUMP JUMPDEST PUSH2 0x379C DUP2 PUSH2 0x3E6E JUMP JUMPDEST DUP3 MSTORE POP POP JUMP JUMPDEST PUSH2 0x37AB DUP2 PUSH2 0x3E6E JUMP JUMPDEST DUP3 MSTORE POP POP JUMP JUMPDEST PUSH1 0x0 PUSH2 0x37BD DUP4 DUP6 PUSH2 0x3DC9 JUMP JUMPDEST SWAP4 POP PUSH2 0x37CA DUP4 DUP6 DUP5 PUSH2 0x3EC6 JUMP JUMPDEST DUP3 DUP5 ADD SWAP1 POP SWAP4 SWAP3 POP POP POP JUMP JUMPDEST PUSH1 0x0 PUSH2 0x37E1 DUP3 PUSH2 0x3D31 JUMP JUMPDEST PUSH2 0x37EB DUP2 DUP6 PUSH2 0x3D96 JUMP JUMPDEST SWAP4 POP PUSH2 0x37FB DUP2 DUP6 PUSH1 0x20 DUP7 ADD PUSH2 0x3ED5 JUMP JUMPDEST PUSH2 0x3804 DUP2 PUSH2 0x403F JUMP JUMPDEST DUP5 ADD SWAP2 POP POP SWAP3 SWAP2 POP POP JUMP JUMPDEST PUSH1 0x0 PUSH2 0x381A DUP3 PUSH2 0x3D31 JUMP JUMPDEST PUSH2 0x3824 DUP2 DUP6 PUSH2 0x3DA7 JUMP JUMPDEST SWAP4 POP PUSH2 0x3834 DUP2 DUP6 PUSH1 0x20 DUP7 ADD PUSH2 0x3ED5 JUMP JUMPDEST PUSH2 0x383D DUP2 PUSH2 0x403F JUMP JUMPDEST DUP5 ADD SWAP2 POP POP SWAP3 SWAP2 POP POP JUMP JUMPDEST PUSH1 0x0 PUSH2 0x3853 DUP3 PUSH2 0x3D31 JUMP JUMPDEST PUSH2 0x385D DUP2 DUP6 PUSH2 0x3DB8 JUMP JUMPDEST SWAP4 POP PUSH2 0x386D DUP2 DUP6 PUSH1 0x20 DUP7 ADD PUSH2 0x3ED5 JUMP JUMPDEST PUSH2 0x3876 DUP2 PUSH2 0x403F JUMP JUMPDEST DUP5 ADD SWAP2 POP POP SWAP3 SWAP2 POP POP JUMP JUMPDEST PUSH1 0x0 PUSH2 0x388C DUP3 PUSH2 0x3D31 JUMP JUMPDEST PUSH2 0x3896 DUP2 DUP6 PUSH2 0x3DC9 JUMP JUMPDEST SWAP4 POP PUSH2 0x38A6 DUP2 DUP6 PUSH1 0x20 DUP7 ADD PUSH2 0x3ED5 JUMP JUMPDEST DUP1 DUP5 ADD SWAP2 POP POP SWAP3 SWAP2 POP POP JUMP JUMPDEST PUSH1 0x0 DUP2 SLOAD PUSH2 0x38BF DUP2 PUSH2 0x3F08 JUMP JUMPDEST PUSH2 0x38C9 DUP2 DUP7 PUSH2 0x3DA7 JUMP JUMPDEST SWAP5 POP PUSH1 0x1 DUP3 AND PUSH1 0x0 DUP2 EQ PUSH2 0x38E4 JUMPI PUSH1 0x1 DUP2 EQ PUSH2 0x38F6 JUMPI PUSH2 0x3929 JUMP JUMPDEST PUSH1 0xFF NOT DUP4 AND DUP7 MSTORE PUSH1 0x20 DUP7 ADD SWAP4 POP PUSH2 0x3929 JUMP JUMPDEST PUSH2 0x38FF DUP6 PUSH2 0x3CFB JUMP JUMPDEST PUSH1 0x0 JUMPDEST DUP4 DUP2 LT ISZERO PUSH2 0x3921 JUMPI DUP2 SLOAD DUP2 DUP10 ADD MSTORE PUSH1 0x1 DUP3 ADD SWAP2 POP PUSH1 0x20 DUP2 ADD SWAP1 POP PUSH2 0x3902 JUMP JUMPDEST DUP1 DUP9 ADD SWAP6 POP POP POP JUMPDEST POP POP POP SWAP3 SWAP2 POP POP JUMP JUMPDEST PUSH1 0x0 PUSH2 0x393F PUSH1 0x16 DUP4 PUSH2 0x3DA7 JUMP JUMPDEST SWAP2 POP PUSH32 0x444F204E4F5420524550454154205441534B5321212100000000000000000000 PUSH1 0x0 DUP4 ADD MSTORE PUSH1 0x20 DUP3 ADD SWAP1 POP SWAP2 SWAP1 POP JUMP JUMPDEST PUSH1 0x0 PUSH2 0x397F PUSH1 0x20 DUP4 PUSH2 0x3DA7 JUMP JUMPDEST SWAP2 POP PUSH32 0x50726F63657373205661726961626C65206973206E6F7420636F72726563742E PUSH1 0x0 DUP4 ADD MSTORE PUSH1 0x20 DUP3 ADD SWAP1 POP SWAP2 SWAP1 POP JUMP JUMPDEST PUSH2 0x39BB DUP2 PUSH2 0x3E98 JUMP JUMPDEST DUP3 MSTORE POP POP JUMP JUMPDEST PUSH2 0x39CA DUP2 PUSH2 0x3E98 JUMP JUMPDEST DUP3 MSTORE POP POP JUMP JUMPDEST PUSH1 0x0 PUSH2 0x39DD DUP3 DUP5 DUP7 PUSH2 0x37B1 JUMP JUMPDEST SWAP2 POP DUP2 SWAP1 POP SWAP4 SWAP3 POP POP POP JUMP JUMPDEST PUSH1 0x0 PUSH2 0x39F5 DUP3 DUP5 PUSH2 0x3881 JUMP JUMPDEST SWAP2 POP DUP2 SWAP1 POP SWAP3 SWAP2 POP POP JUMP JUMPDEST PUSH1 0x0 PUSH1 0x20 DUP3 ADD SWAP1 POP DUP2 DUP2 SUB PUSH1 0x0 DUP4 ADD MSTORE PUSH2 0x3A1A DUP2 DUP5 PUSH2 0x3684 JUMP JUMPDEST SWAP1 POP SWAP3 SWAP2 POP POP JUMP JUMPDEST PUSH1 0x0 PUSH1 0x20 DUP3 ADD SWAP1 POP DUP2 DUP2 SUB PUSH1 0x0 DUP4 ADD MSTORE PUSH2 0x3A3C DUP2 DUP5 PUSH2 0x36F9 JUMP JUMPDEST SWAP1 POP SWAP3 SWAP2 POP POP JUMP JUMPDEST PUSH1 0x0 PUSH1 0x20 DUP3 ADD SWAP1 POP PUSH2 0x3A59 PUSH1 0x0 DUP4 ADD DUP5 PUSH2 0x3757 JUMP JUMPDEST SWAP3 SWAP2 POP POP JUMP JUMPDEST PUSH1 0x0 PUSH1 0xC0 DUP3 ADD SWAP1 POP PUSH2 0x3A74 PUSH1 0x0 DUP4 ADD DUP10 PUSH2 0x3757 JUMP JUMPDEST DUP2 DUP2 SUB PUSH1 0x20 DUP4 ADD MSTORE PUSH2 0x3A86 DUP2 DUP9 PUSH2 0x380F JUMP JUMPDEST SWAP1 POP PUSH2 0x3A95 PUSH1 0x40 DUP4 ADD DUP8 PUSH2 0x3617 JUMP JUMPDEST PUSH2 0x3AA2 PUSH1 0x60 DUP4 ADD DUP7 PUSH2 0x3766 JUMP JUMPDEST DUP2 DUP2 SUB PUSH1 0x80 DUP4 ADD MSTORE PUSH2 0x3AB4 DUP2 DUP6 PUSH2 0x36F9 JUMP JUMPDEST SWAP1 POP DUP2 DUP2 SUB PUSH1 0xA0 DUP4 ADD MSTORE PUSH2 0x3AC8 DUP2 DUP5 PUSH2 0x36F9 JUMP JUMPDEST SWAP1 POP SWAP8 SWAP7 POP POP POP POP POP POP POP JUMP JUMPDEST PUSH1 0x0 PUSH1 0x20 DUP3 ADD SWAP1 POP PUSH2 0x3AEA PUSH1 0x0 DUP4 ADD DUP5 PUSH2 0x3784 JUMP JUMPDEST SWAP3 SWAP2 POP POP JUMP JUMPDEST PUSH1 0x0 PUSH1 0x60 DUP3 ADD SWAP1 POP PUSH2 0x3B05 PUSH1 0x0 DUP4 ADD DUP7 PUSH2 0x3793 JUMP JUMPDEST DUP2 DUP2 SUB PUSH1 0x20 DUP4 ADD MSTORE PUSH2 0x3B17 DUP2 DUP6 PUSH2 0x3626 JUMP JUMPDEST SWAP1 POP PUSH2 0x3B26 PUSH1 0x40 DUP4 ADD DUP5 PUSH2 0x3775 JUMP JUMPDEST SWAP5 SWAP4 POP POP POP POP JUMP JUMPDEST PUSH1 0x0 PUSH1 0x20 DUP3 ADD SWAP1 POP DUP2 DUP2 SUB PUSH1 0x0 DUP4 ADD MSTORE PUSH2 0x3B48 DUP2 DUP5 PUSH2 0x380F JUMP JUMPDEST SWAP1 POP SWAP3 SWAP2 POP POP JUMP JUMPDEST PUSH1 0x0 PUSH1 0x60 DUP3 ADD SWAP1 POP DUP2 DUP2 SUB PUSH1 0x0 DUP4 ADD MSTORE PUSH2 0x3B6A DUP2 DUP7 PUSH2 0x3848 JUMP JUMPDEST SWAP1 POP DUP2 DUP2 SUB PUSH1 0x20 DUP4 ADD MSTORE PUSH2 0x3B7E DUP2 DUP6 PUSH2 0x3848 JUMP JUMPDEST SWAP1 POP PUSH2 0x3B8D PUSH1 0x40 DUP4 ADD DUP5 PUSH2 0x3775 JUMP JUMPDEST SWAP5 SWAP4 POP POP POP POP JUMP JUMPDEST PUSH1 0x0 PUSH1 0x20 DUP3 ADD SWAP1 POP DUP2 DUP2 SUB PUSH1 0x0 DUP4 ADD MSTORE PUSH2 0x3BAF DUP2 DUP5 PUSH2 0x38B2 JUMP JUMPDEST SWAP1 POP SWAP3 SWAP2 POP POP JUMP JUMPDEST PUSH1 0x0 PUSH1 0x20 DUP3 ADD SWAP1 POP DUP2 DUP2 SUB PUSH1 0x0 DUP4 ADD MSTORE PUSH2 0x3BD0 DUP2 PUSH2 0x3932 JUMP JUMPDEST SWAP1 POP SWAP2 SWAP1 POP JUMP JUMPDEST PUSH1 0x0 PUSH1 0x20 DUP3 ADD SWAP1 POP DUP2 DUP2 SUB PUSH1 0x0 DUP4 ADD MSTORE PUSH2 0x3BF0 DUP2 PUSH2 0x3972 JUMP JUMPDEST SWAP1 POP SWAP2 SWAP1 POP JUMP JUMPDEST PUSH1 0x0 PUSH1 0x20 DUP3 ADD SWAP1 POP PUSH2 0x3C0C PUSH1 0x0 DUP4 ADD DUP5 PUSH2 0x39C1 JUMP JUMPDEST SWAP3 SWAP2 POP POP JUMP JUMPDEST PUSH1 0x0 PUSH1 0x40 MLOAD SWAP1 POP DUP2 DUP2 ADD DUP2 DUP2 LT PUSH8 0xFFFFFFFFFFFFFFFF DUP3 GT OR ISZERO PUSH2 0x3C39 JUMPI PUSH2 0x3C38 PUSH2 0x4010 JUMP JUMPDEST JUMPDEST DUP1 PUSH1 0x40 MSTORE POP SWAP2 SWAP1 POP JUMP JUMPDEST PUSH1 0x0 PUSH8 0xFFFFFFFFFFFFFFFF DUP3 GT ISZERO PUSH2 0x3C5E JUMPI PUSH2 0x3C5D PUSH2 0x4010 JUMP JUMPDEST JUMPDEST PUSH1 0x20 DUP3 MUL SWAP1 POP PUSH1 0x20 DUP2 ADD SWAP1 POP SWAP2 SWAP1 POP JUMP JUMPDEST PUSH1 0x0 PUSH8 0xFFFFFFFFFFFFFFFF DUP3 GT ISZERO PUSH2 0x3C8A JUMPI PUSH2 0x3C89 PUSH2 0x4010 JUMP JUMPDEST JUMPDEST PUSH1 0x20 DUP3 MUL SWAP1 POP PUSH1 0x20 DUP2 ADD SWAP1 POP SWAP2 SWAP1 POP JUMP JUMPDEST PUSH1 0x0 PUSH8 0xFFFFFFFFFFFFFFFF DUP3 GT ISZERO PUSH2 0x3CB6 JUMPI PUSH2 0x3CB5 PUSH2 0x4010 JUMP JUMPDEST JUMPDEST PUSH1 0x1F NOT PUSH1 0x1F DUP4 ADD AND SWAP1 POP PUSH1 0x20 DUP2 ADD SWAP1 POP SWAP2 SWAP1 POP JUMP JUMPDEST PUSH1 0x0 DUP2 SWAP1 POP PUSH1 0x20 DUP3 ADD SWAP1 POP SWAP2 SWAP1 POP JUMP JUMPDEST PUSH1 0x0 DUP2 SWAP1 POP PUSH1 0x20 DUP3 ADD SWAP1 POP SWAP2 SWAP1 POP JUMP JUMPDEST PUSH1 0x0 DUP2 SWAP1 POP PUSH1 0x20 DUP3 ADD SWAP1 POP SWAP2 SWAP1 POP JUMP JUMPDEST PUSH1 0x0 DUP2 SWAP1 POP DUP2 PUSH1 0x0 MSTORE PUSH1 0x20 PUSH1 0x0 KECCAK256 SWAP1 POP SWAP2 SWAP1 POP JUMP JUMPDEST PUSH1 0x0 DUP2 MLOAD SWAP1 POP SWAP2 SWAP1 POP JUMP JUMPDEST PUSH1 0x0 DUP2 MLOAD SWAP1 POP SWAP2 SWAP1 POP JUMP JUMPDEST PUSH1 0x0 DUP2 MLOAD SWAP1 POP SWAP2 SWAP1 POP JUMP JUMPDEST PUSH1 0x0 DUP2 MLOAD SWAP1 POP SWAP2 SWAP1 POP JUMP JUMPDEST PUSH1 0x0 PUSH1 0x20 DUP3 ADD SWAP1 POP SWAP2 SWAP1 POP JUMP JUMPDEST PUSH1 0x0 PUSH1 0x20 DUP3 ADD SWAP1 POP SWAP2 SWAP1 POP JUMP JUMPDEST PUSH1 0x0 PUSH1 0x20 DUP3 ADD SWAP1 POP SWAP2 SWAP1 POP JUMP JUMPDEST PUSH1 0x0 DUP3 DUP3 MSTORE PUSH1 0x20 DUP3 ADD SWAP1 POP SWAP3 SWAP2 POP POP JUMP JUMPDEST PUSH1 0x0 DUP3 DUP3 MSTORE PUSH1 0x20 DUP3 ADD SWAP1 POP SWAP3 SWAP2 POP POP JUMP JUMPDEST PUSH1 0x0 DUP3 DUP3 MSTORE PUSH1 0x20 DUP3 ADD SWAP1 POP SWAP3 SWAP2 POP POP JUMP JUMPDEST PUSH1 0x0 DUP3 DUP3 MSTORE PUSH1 0x20 DUP3 ADD SWAP1 POP SWAP3 SWAP2 POP POP JUMP JUMPDEST PUSH1 0x0 DUP3 DUP3 MSTORE PUSH1 0x20 DUP3 ADD SWAP1 POP SWAP3 SWAP2 POP POP JUMP JUMPDEST PUSH1 0x0 DUP3 DUP3 MSTORE PUSH1 0x20 DUP3 ADD SWAP1 POP SWAP3 SWAP2 POP POP JUMP JUMPDEST PUSH1 0x0 DUP2 SWAP1 POP SWAP3 SWAP2 POP POP JUMP JUMPDEST PUSH1 0x0 PUSH2 0x3DDF DUP3 PUSH2 0x3E98 JUMP JUMPDEST SWAP2 POP PUSH2 0x3DEA DUP4 PUSH2 0x3E98 JUMP JUMPDEST SWAP3 POP DUP3 PUSH32 0xFFFFFFFFFFFFFFFFFFFFFFFFFFFFFFFFFFFFFFFFFFFFFFFFFFFFFFFFFFFFFFFF SUB DUP3 GT ISZERO PUSH2 0x3E1F JUMPI PUSH2 0x3E1E PUSH2 0x3F83 JUMP JUMPDEST JUMPDEST DUP3 DUP3 ADD SWAP1 POP SWAP3 SWAP2 POP POP JUMP JUMPDEST PUSH1 0x0 PUSH2 0x3E35 DUP3 PUSH2 0x3E78 JUMP JUMPDEST SWAP1 POP SWAP2 SWAP1 POP JUMP JUMPDEST PUSH1 0x0 DUP2 ISZERO ISZERO SWAP1 POP SWAP2 SWAP1 POP JUMP JUMPDEST PUSH1 0x0 DUP2 SWAP1 POP PUSH2 0x3E56 DUP3 PUSH2 0x4050 JUMP JUMPDEST SWAP2 SWAP1 POP JUMP JUMPDEST PUSH1 0x0 DUP2 SWAP1 POP PUSH2 0x3E69 DUP3 PUSH2 0x4064 JUMP JUMPDEST SWAP2 SWAP1 POP JUMP JUMPDEST PUSH1 0x0 DUP2 SWAP1 POP SWAP2 SWAP1 POP JUMP JUMPDEST PUSH1 0x0 PUSH20 0xFFFFFFFFFFFFFFFFFFFFFFFFFFFFFFFFFFFFFFFF DUP3 AND SWAP1 POP SWAP2 SWAP1 POP JUMP JUMPDEST PUSH1 0x0 DUP2 SWAP1 POP SWAP2 SWAP1 POP JUMP JUMPDEST PUSH1 0x0 PUSH2 0x3EAD DUP3 PUSH2 0x3E48 JUMP JUMPDEST SWAP1 POP SWAP2 SWAP1 POP JUMP JUMPDEST PUSH1 0x0 PUSH2 0x3EBF DUP3 PUSH2 0x3E5B JUMP JUMPDEST SWAP1 POP SWAP2 SWAP1 POP JUMP JUMPDEST DUP3 DUP2 DUP4 CALLDATACOPY PUSH1 0x0 DUP4 DUP4 ADD MSTORE POP POP POP JUMP JUMPDEST PUSH1 0x0 JUMPDEST DUP4 DUP2 LT ISZERO PUSH2 0x3EF3 JUMPI DUP1 DUP3 ADD MLOAD DUP2 DUP5 ADD MSTORE PUSH1 0x20 DUP2 ADD SWAP1 POP PUSH2 0x3ED8 JUMP JUMPDEST DUP4 DUP2 GT ISZERO PUSH2 0x3F02 JUMPI PUSH1 0x0 DUP5 DUP5 ADD MSTORE JUMPDEST POP POP POP POP JUMP JUMPDEST PUSH1 0x0 PUSH1 0x2 DUP3 DIV SWAP1 POP PUSH1 0x1 DUP3 AND DUP1 PUSH2 0x3F20 JUMPI PUSH1 0x7F DUP3 AND SWAP2 POP JUMPDEST PUSH1 0x20 DUP3 LT DUP2 EQ ISZERO PUSH2 0x3F34 JUMPI PUSH2 0x3F33 PUSH2 0x3FE1 JUMP JUMPDEST JUMPDEST POP SWAP2 SWAP1 POP JUMP JUMPDEST PUSH1 0x0 PUSH2 0x3F45 DUP3 PUSH2 0x3E98 JUMP JUMPDEST SWAP2 POP PUSH32 0xFFFFFFFFFFFFFFFFFFFFFFFFFFFFFFFFFFFFFFFFFFFFFFFFFFFFFFFFFFFFFFFF DUP3 EQ ISZERO PUSH2 0x3F78 JUMPI PUSH2 0x3F77 PUSH2 0x3F83 JUMP JUMPDEST JUMPDEST PUSH1 0x1 DUP3 ADD SWAP1 POP SWAP2 SWAP1 POP JUMP JUMPDEST PUSH32 0x4E487B7100000000000000000000000000000000000000000000000000000000 PUSH1 0x0 MSTORE PUSH1 0x11 PUSH1 0x4 MSTORE PUSH1 0x24 PUSH1 0x0 REVERT JUMPDEST PUSH32 0x4E487B7100000000000000000000000000000000000000000000000000000000 PUSH1 0x0 MSTORE PUSH1 0x21 PUSH1 0x4 MSTORE PUSH1 0x24 PUSH1 0x0 REVERT JUMPDEST PUSH32 0x4E487B7100000000000000000000000000000000000000000000000000000000 PUSH1 0x0 MSTORE PUSH1 0x22 PUSH1 0x4 MSTORE PUSH1 0x24 PUSH1 0x0 REVERT JUMPDEST PUSH32 0x4E487B7100000000000000000000000000000000000000000000000000000000 PUSH1 0x0 MSTORE PUSH1 0x41 PUSH1 0x4 MSTORE PUSH1 0x24 PUSH1 0x0 REVERT JUMPDEST PUSH1 0x0 PUSH1 0x1F NOT PUSH1 0x1F DUP4 ADD AND SWAP1 POP SWAP2 SWAP1 POP JUMP JUMPDEST PUSH1 0x4 DUP2 LT PUSH2 0x4061 JUMPI PUSH2 0x4060 PUSH2 0x3FB2 JUMP JUMPDEST JUMPDEST POP JUMP JUMPDEST PUSH1 0x7 DUP2 LT PUSH2 0x4075 JUMPI PUSH2 0x4074 PUSH2 0x3FB2 JUMP JUMPDEST JUMPDEST POP JUMP JUMPDEST PUSH2 0x4081 DUP2 PUSH2 0x3E2A JUMP JUMPDEST DUP2 EQ PUSH2 0x408C JUMPI PUSH1 0x0 DUP1 REVERT JUMPDEST POP JUMP JUMPDEST PUSH2 0x4098 DUP2 PUSH2 0x3E3C JUMP JUMPDEST DUP2 EQ PUSH2 0x40A3 JUMPI PUSH1 0x0 DUP1 REVERT JUMPDEST POP JUMP JUMPDEST PUSH1 0x3 DUP2 LT PUSH2 0x40B3 JUMPI PUSH1 0x0 DUP1 REVERT JUMPDEST POP JUMP JUMPDEST PUSH1 0x4 DUP2 LT PUSH2 0x40C3 JUMPI PUSH1 0x0 DUP1 REVERT JUMPDEST POP JUMP JUMPDEST PUSH1 0x7 DUP2 LT PUSH2 0x40D3 JUMPI PUSH1 0x0 DUP1 REVERT JUMPDEST POP JUMP JUMPDEST PUSH2 0x40DF DUP2 PUSH2 0x3E6E JUMP JUMPDEST DUP2 EQ PUSH2 0x40EA JUMPI PUSH1 0x0 DUP1 REVERT JUMPDEST POP JUMP JUMPDEST PUSH2 0x40F6 DUP2 PUSH2 0x3E98 JUMP JUMPDEST DUP2 EQ PUSH2 0x4101 JUMPI PUSH1 0x0 DUP1 REVERT JUMPDEST POP JUMP INVALID LOG2 PUSH5 0x6970667358 0x22 SLT KECCAK256 EXTCODECOPY REVERT 0xED PUSH20 0xDAD830F640B5B0EBACCE81913CEA1015982C83B5 TIMESTAMP LOG0 SWAP2 PUSH22 0x7D03DA2A64736F6C6343000800003300000000000000 "},"gasEstimates":{"creation":{"codeDepositCost":"3339600","executionCost":"3715","totalCost":"3343315"},"external":{"completing(uint256)":"infinite","createTask(uint256,string,address,uint8,uint256[],uint256[])":"infinite","createTaskWithDecision(uint256,string,address,uint8,uint256[],uint256[],(uint256,uint8,uint8,bool,bool,uint8,string,string,int256[]))":"infinite","debugStringeventLog(uint256)":"infinite","decisionTest()":"infinite","enabled(uint256)":"1585","evaluateDecision((uint256,uint8,uint8,bool,bool,uint8,string,string,int256[]))":"infinite","evaluateTest(int256,int256[],uint8)":"infinite","getDebugStringeventLog()":"infinite","getIntProcessVariableValue(string)":"infinite","getLog()":"infinite","getTaskById(uint256)":"infinite","getTaskDecisionEndBoss(uint256)":"infinite","integer_processVariables(string)":"infinite","isTaskCompletedById(uint256)":"1689","string_processVariables(string)":"infinite","theRealEventLog(uint256)":"infinite","updateIntProcessVariable(string,int256)":"infinite","updateStringProcessVariable(string,string)":"infinite"}},"methodIdentifiers":{"completing(uint256)":"993c0410","createTask(uint256,string,address,uint8,uint256[],uint256[])":"307ed4be","createTaskWithDecision(uint256,string,address,uint8,uint256[],uint256[],(uint256,uint8,uint8,bool,bool,uint8,string,string,int256[]))":"c7b1ee06","debugStringeventLog(uint256)":"61ea18df","decisionTest()":"71c56f9b","enabled(uint256)":"76e5c0de","evaluateDecision((uint256,uint8,uint8,bool,bool,uint8,string,string,int256[]))":"06470433","evaluateTest(int256,int256[],uint8)":"a7c1eb90","getDebugStringeventLog()":"4d60f651","getIntProcessVariableValue(string)":"897a3e27","getLog()":"909e4ab6","getTaskById(uint256)":"976217cd","getTaskDecisionEndBoss(uint256)":"81d1cd2e","integer_processVariables(string)":"38624725","isTaskCompletedById(uint256)":"9849cee9","string_processVariables(string)":"b8c56cae","theRealEventLog(uint256)":"95794157","updateIntProcessVariable(string,int256)":"38b7b6f0","updateStringProcessVariable(string,string)":"fe9620c9"}},"storageLayout":{"storage":[{"astId":31,"contract":"BasicEnzian.sol:BasicEnzian","label":"tasks","offset":0,"slot":"0","type":"t_mapping(t_uint256,t_struct(Task)26_storage)"},{"astId":70,"contract":"BasicEnzian.sol:BasicEnzian","label":"integer_processVariables","offset":0,"slot":"1","type":"t_mapping(t_string_memory_ptr,t_int256)"},{"astId":74,"contract":"BasicEnzian.sol:BasicEnzian","label":"string_processVariables","offset":0,"slot":"2","type":"t_mapping(t_string_memory_ptr,t_string_storage)"},{"astId":78,"contract":"BasicEnzian.sol:BasicEnzian","label":"enabled","offset":0,"slot":"3","type":"t_mapping(t_uint256,t_bool)"},{"astId":81,"contract":"BasicEnzian.sol:BasicEnzian","label":"theRealEventLog","offset":0,"slot":"4","type":"t_array(t_uint256)dyn_storage"},{"astId":93,"contract":"BasicEnzian.sol:BasicEnzian","label":"debugStringeventLog","offset":0,"slot":"5","type":"t_array(t_string_storage)dyn_storage"}],"types":{"t_address":{"encoding":"inplace","label":"address","numberOfBytes":"20"},"t_array(t_int256)dyn_storage":{"base":"t_int256","encoding":"dynamic_array","label":"int256[]","numberOfBytes":"32"},"t_array(t_string_storage)dyn_storage":{"base":"t_string_storage","encoding":"dynamic_array","label":"string[]","numberOfBytes":"32"},"t_array(t_uint256)dyn_storage":{"base":"t_uint256","encoding":"dynamic_array","label":"uint256[]","numberOfBytes":"32"},"t_bool":{"encoding":"inplace","label":"bool","numberOfBytes":"1"},"t_enum(DecisionType)43":{"encoding":"inplace","label":"enum BasicEnzian.DecisionType","numberOfBytes":"1"},"t_enum(GatewayType)7":{"encoding":"inplace","label":"enum BasicEnzian.GatewayType","numberOfBytes":"1"},"t_enum(Operator)843":{"encoding":"inplace","label":"enum DecisionLibrary.Operator","numberOfBytes":"1"},"t_int256":{"encoding":"inplace","label":"int256","numberOfBytes":"32"},"t_mapping(t_string_memory_ptr,t_int256)":{"encoding":"mapping","key":"t_string_memory_ptr","label":"mapping(string => int256)","numberOfBytes":"32","value":"t_int256"},"t_mapping(t_string_memory_ptr,t_string_storage)":{"encoding":"mapping","key":"t_string_memory_ptr","label":"mapping(string => string)","numberOfBytes":"32","value":"t_string_storage"},"t_mapping(t_uint256,t_bool)":{"encoding":"mapping","key":"t_uint256","label":"mapping(uint256 => bool)","numberOfBytes":"32","value":"t_bool"},"t_mapping(t_uint256,t_struct(Task)26_storage)":{"encoding":"mapping","key":"t_uint256","label":"mapping(uint256 => struct BasicEnzian.Task)","numberOfBytes":"32","value":"t_struct(Task)26_storage"},"t_string_memory_ptr":{"encoding":"bytes","label":"string","numberOfBytes":"32"},"t_string_storage":{"encoding":"bytes","label":"string","numberOfBytes":"32"},"t_struct(Decision)66_storage":{"encoding":"inplace","label":"struct BasicEnzian.Decision","members":[{"astId":45,"contract":"BasicEnzian.sol:BasicEnzian","label":"endBoss","offset":0,"slot":"0","type":"t_uint256"},{"astId":48,"contract":"BasicEnzian.sol:BasicEnzian","label":"gatewaytype","offset":0,"slot":"1","type":"t_enum(GatewayType)7"},{"astId":51,"contract":"BasicEnzian.sol:BasicEnzian","label":"type_","offset":1,"slot":"1","type":"t_enum(DecisionType)43"},{"astId":53,"contract":"BasicEnzian.sol:BasicEnzian","label":"completed","offset":2,"slot":"1","type":"t_bool"},{"astId":55,"contract":"BasicEnzian.sol:BasicEnzian","label":"exists","offset":3,"slot":"1","type":"t_bool"},{"astId":58,"contract":"BasicEnzian.sol:BasicEnzian","label":"operator","offset":4,"slot":"1","type":"t_enum(Operator)843"},{"astId":60,"contract":"BasicEnzian.sol:BasicEnzian","label":"processVariable","offset":0,"slot":"2","type":"t_string_storage"},{"astId":62,"contract":"BasicEnzian.sol:BasicEnzian","label":"s_value","offset":0,"slot":"3","type":"t_string_storage"},{"astId":65,"contract":"BasicEnzian.sol:BasicEnzian","label":"i_value","offset":0,"slot":"4","type":"t_array(t_int256)dyn_storage"}],"numberOfBytes":"160"},"t_struct(Task)26_storage":{"encoding":"inplace","label":"struct BasicEnzian.Task","members":[{"astId":9,"contract":"BasicEnzian.sol:BasicEnzian","label":"activity","offset":0,"slot":"0","type":"t_string_storage"},{"astId":11,"contract":"BasicEnzian.sol:BasicEnzian","label":"taskresource","offset":0,"slot":"1","type":"t_address"},{"astId":13,"contract":"BasicEnzian.sol:BasicEnzian","label":"completed","offset":20,"slot":"1","type":"t_bool"},{"astId":16,"contract":"BasicEnzian.sol:BasicEnzian","label":"preceedingMergingGateway","offset":21,"slot":"1","type":"t_enum(GatewayType)7"},{"astId":19,"contract":"BasicEnzian.sol:BasicEnzian","label":"requirements","offset":0,"slot":"2","type":"t_array(t_uint256)dyn_storage"},{"astId":22,"contract":"BasicEnzian.sol:BasicEnzian","label":"competitors","offset":0,"slot":"3","type":"t_array(t_uint256)dyn_storage"},{"astId":25,"contract":"BasicEnzian.sol:BasicEnzian","label":"decision","offset":0,"slot":"4","type":"t_struct(Decision)66_storage"}],"numberOfBytes":"288"},"t_uint256":{"encoding":"inplace","label":"uint256","numberOfBytes":"32"}}},"userdoc":{"kind":"user","methods":{},"version":1}}