{"abi":[{"inputs":[{"internalType":"string","name":"_activity","type":"string"},{"internalType":"enum BasicEnzian.Tasktype","name":"_tasktype","type":"uint8"},{"internalType":"uint256[]","name":"_requirements","type":"uint256[]"},{"internalType":"uint256[]","name":"_competitors","type":"uint256[]"}],"name":"createTask","outputs":[],"stateMutability":"nonpayable","type":"function"},{"inputs":[{"internalType":"uint256","name":"_id","type":"uint256"}],"name":"getTaskActivityById","outputs":[{"internalType":"string","name":"","type":"string"}],"stateMutability":"view","type":"function"},{"inputs":[{"internalType":"uint256","name":"_id","type":"uint256"}],"name":"getTaskById","outputs":[{"internalType":"bool","name":"status","type":"bool"},{"internalType":"string","name":"description","type":"string"},{"internalType":"enum BasicEnzian.Tasktype","name":"tasktype","type":"uint8"},{"internalType":"uint256[]","name":"requirements","type":"uint256[]"},{"internalType":"uint256[]","name":"competitors","type":"uint256[]"}],"stateMutability":"view","type":"function"},{"inputs":[{"internalType":"uint256","name":"_id","type":"uint256"}],"name":"getTaskRequirementsById","outputs":[{"internalType":"uint256[]","name":"","type":"uint256[]"}],"stateMutability":"view","type":"function"},{"inputs":[],"name":"getTasks","outputs":[{"internalType":"uint256[]","name":"","type":"uint256[]"}],"stateMutability":"view","type":"function"},{"inputs":[{"internalType":"uint256","name":"_id","type":"uint256"}],"name":"isTaskCompletedById","outputs":[{"internalType":"bool","name":"success","type":"bool"}],"stateMutability":"view","type":"function"},{"inputs":[{"internalType":"uint256","name":"_id","type":"uint256"}],"name":"setTaskOnCompleted","outputs":[{"internalType":"bool","name":"success","type":"bool"}],"stateMutability":"nonpayable","type":"function"},{"inputs":[{"internalType":"uint256","name":"","type":"uint256"}],"name":"tasksArray","outputs":[{"internalType":"uint256","name":"","type":"uint256"}],"stateMutability":"view","type":"function"}],"devdoc":{"kind":"dev","methods":{},"version":1},"evm":{"assembly":"    /* \"BasicEnzian.sol\":26:4566  contract BasicEnzian {\r... */\n  mstore(0x40, 0x80)\n    /* \"BasicEnzian.sol\":288:289  0 */\n  0x00\n    /* \"BasicEnzian.sol\":268:289  uint globalTaskId = 0 */\n  dup1\n  sstore\n    /* \"BasicEnzian.sol\":26:4566  contract BasicEnzian {\r... */\n  callvalue\n  dup1\n  iszero\n  tag_1\n  jumpi\n  0x00\n  dup1\n  revert\ntag_1:\n  pop\n  dataSize(sub_0)\n  dup1\n  dataOffset(sub_0)\n  0x00\n  codecopy\n  0x00\n  return\nstop\n\nsub_0: assembly {\n        /* \"BasicEnzian.sol\":26:4566  contract BasicEnzian {\r... */\n      mstore(0x40, 0x80)\n      callvalue\n      dup1\n      iszero\n      tag_1\n      jumpi\n      0x00\n      dup1\n      revert\n    tag_1:\n      pop\n      jumpi(tag_2, lt(calldatasize, 0x04))\n      shr(0xe0, calldataload(0x00))\n      dup1\n      0x95cffdf8\n      gt\n      tag_11\n      jumpi\n      dup1\n      0x95cffdf8\n      eq\n      tag_7\n      jumpi\n      dup1\n      0x976217cd\n      eq\n      tag_8\n      jumpi\n      dup1\n      0x9849cee9\n      eq\n      tag_9\n      jumpi\n      dup1\n      0xdbc38a82\n      eq\n      tag_10\n      jumpi\n      jump(tag_2)\n    tag_11:\n      dup1\n      0x04a87e38\n      eq\n      tag_3\n      jumpi\n      dup1\n      0x33251a3a\n      eq\n      tag_4\n      jumpi\n      dup1\n      0x3de723b1\n      eq\n      tag_5\n      jumpi\n      dup1\n      0x63e66d04\n      eq\n      tag_6\n      jumpi\n    tag_2:\n      0x00\n      dup1\n      revert\n        /* \"BasicEnzian.sol\":866:958  function getTasks()  public view returns (uint[] memory){\r... */\n    tag_3:\n      tag_12\n      tag_13\n      jump\t// in\n    tag_12:\n      mload(0x40)\n      tag_14\n      swap2\n      swap1\n      tag_15\n      jump\t// in\n    tag_14:\n      mload(0x40)\n      dup1\n      swap2\n      sub\n      swap1\n      return\n        /* \"BasicEnzian.sol\":332:356  uint[] public tasksArray */\n    tag_4:\n      tag_16\n      0x04\n      dup1\n      calldatasize\n      sub\n      dup2\n      add\n      swap1\n      tag_17\n      swap2\n      swap1\n      tag_18\n      jump\t// in\n    tag_17:\n      tag_19\n      jump\t// in\n    tag_16:\n      mload(0x40)\n      tag_20\n      swap2\n      swap1\n      tag_21\n      jump\t// in\n    tag_20:\n      mload(0x40)\n      dup1\n      swap2\n      sub\n      swap1\n      return\n        /* \"BasicEnzian.sol\":422:856  function createTask(string memory _activity, \r... */\n    tag_5:\n      tag_22\n      0x04\n      dup1\n      calldatasize\n      sub\n      dup2\n      add\n      swap1\n      tag_23\n      swap2\n      swap1\n      tag_24\n      jump\t// in\n    tag_23:\n      tag_25\n      jump\t// in\n    tag_22:\n      stop\n        /* \"BasicEnzian.sol\":1058:3363  function setTaskOnCompleted(uint _id) public returns (bool success){\r... */\n    tag_6:\n      tag_26\n      0x04\n      dup1\n      calldatasize\n      sub\n      dup2\n      add\n      swap1\n      tag_27\n      swap2\n      swap1\n      tag_18\n      jump\t// in\n    tag_27:\n      tag_28\n      jump\t// in\n    tag_26:\n      mload(0x40)\n      tag_29\n      swap2\n      swap1\n      tag_30\n      jump\t// in\n    tag_29:\n      mload(0x40)\n      dup1\n      swap2\n      sub\n      swap1\n      return\n        /* \"BasicEnzian.sol\":4431:4561  function getTaskRequirementsById(uint _id) public view returns (uint[] memory) {\r... */\n    tag_7:\n      tag_31\n      0x04\n      dup1\n      calldatasize\n      sub\n      dup2\n      add\n      swap1\n      tag_32\n      swap2\n      swap1\n      tag_18\n      jump\t// in\n    tag_32:\n      tag_33\n      jump\t// in\n    tag_31:\n      mload(0x40)\n      tag_34\n      swap2\n      swap1\n      tag_15\n      jump\t// in\n    tag_34:\n      mload(0x40)\n      dup1\n      swap2\n      sub\n      swap1\n      return\n        /* \"BasicEnzian.sol\":3692:4148  function getTaskById(uint _id) public view\r... */\n    tag_8:\n      tag_35\n      0x04\n      dup1\n      calldatasize\n      sub\n      dup2\n      add\n      swap1\n      tag_36\n      swap2\n      swap1\n      tag_18\n      jump\t// in\n    tag_36:\n      tag_37\n      jump\t// in\n    tag_35:\n      mload(0x40)\n      tag_38\n      swap6\n      swap5\n      swap4\n      swap3\n      swap2\n      swap1\n      tag_39\n      jump\t// in\n    tag_38:\n      mload(0x40)\n      dup1\n      swap2\n      sub\n      swap1\n      return\n        /* \"BasicEnzian.sol\":3464:3587  function isTaskCompletedById(uint _id) public view returns (bool success){\r... */\n    tag_9:\n      tag_40\n      0x04\n      dup1\n      calldatasize\n      sub\n      dup2\n      add\n      swap1\n      tag_41\n      swap2\n      swap1\n      tag_18\n      jump\t// in\n    tag_41:\n      tag_42\n      jump\t// in\n    tag_40:\n      mload(0x40)\n      tag_43\n      swap2\n      swap1\n      tag_30\n      jump\t// in\n    tag_43:\n      mload(0x40)\n      dup1\n      swap2\n      sub\n      swap1\n      return\n        /* \"BasicEnzian.sol\":4229:4350  function getTaskActivityById(uint _id) public view returns (string memory){\r... */\n    tag_10:\n      tag_44\n      0x04\n      dup1\n      calldatasize\n      sub\n      dup2\n      add\n      swap1\n      tag_45\n      swap2\n      swap1\n      tag_18\n      jump\t// in\n    tag_45:\n      tag_46\n      jump\t// in\n    tag_44:\n      mload(0x40)\n      tag_47\n      swap2\n      swap1\n      tag_48\n      jump\t// in\n    tag_47:\n      mload(0x40)\n      dup1\n      swap2\n      sub\n      swap1\n      return\n        /* \"BasicEnzian.sol\":866:958  function getTasks()  public view returns (uint[] memory){\r... */\n    tag_13:\n        /* \"BasicEnzian.sol\":908:921  uint[] memory */\n      0x60\n        /* \"BasicEnzian.sol\":940:950  tasksArray */\n      0x02\n        /* \"BasicEnzian.sol\":933:950  return tasksArray */\n      dup1\n      sload\n      dup1\n      0x20\n      mul\n      0x20\n      add\n      mload(0x40)\n      swap1\n      dup2\n      add\n      0x40\n      mstore\n      dup1\n      swap3\n      swap2\n      swap1\n      dup2\n      dup2\n      mstore\n      0x20\n      add\n      dup3\n      dup1\n      sload\n      dup1\n      iszero\n      tag_50\n      jumpi\n      0x20\n      mul\n      dup3\n      add\n      swap2\n      swap1\n      0x00\n      mstore\n      keccak256(0x00, 0x20)\n      swap1\n    tag_51:\n      dup2\n      sload\n      dup2\n      mstore\n      0x20\n      add\n      swap1\n      0x01\n      add\n      swap1\n      dup1\n      dup4\n      gt\n      tag_51\n      jumpi\n    tag_50:\n      pop\n      pop\n      pop\n      pop\n      pop\n      swap1\n      pop\n        /* \"BasicEnzian.sol\":866:958  function getTasks()  public view returns (uint[] memory){\r... */\n      swap1\n      jump\t// out\n        /* \"BasicEnzian.sol\":332:356  uint[] public tasksArray */\n    tag_19:\n      0x02\n      dup2\n      dup2\n      sload\n      dup2\n      lt\n      tag_52\n      jumpi\n      0x00\n      dup1\n      revert\n    tag_52:\n      swap1\n      0x00\n      mstore\n      keccak256(0x00, 0x20)\n      add\n      0x00\n      swap2\n      pop\n      swap1\n      pop\n      sload\n      dup2\n      jump\t// out\n        /* \"BasicEnzian.sol\":422:856  function createTask(string memory _activity, \r... */\n    tag_25:\n        /* \"BasicEnzian.sol\":684:704  Task memory myStruct */\n      0x00\n        /* \"BasicEnzian.sol\":707:770  Task (false, _activity, _tasktype, _requirements, _competitors) */\n      mload(0x40)\n      dup1\n      0xa0\n      add\n      0x40\n      mstore\n      dup1\n        /* \"BasicEnzian.sol\":713:718  false */\n      0x00\n        /* \"BasicEnzian.sol\":707:770  Task (false, _activity, _tasktype, _requirements, _competitors) */\n      iszero\n      iszero\n      dup2\n      mstore\n      0x20\n      add\n        /* \"BasicEnzian.sol\":720:729  _activity */\n      dup7\n        /* \"BasicEnzian.sol\":707:770  Task (false, _activity, _tasktype, _requirements, _competitors) */\n      dup2\n      mstore\n      0x20\n      add\n        /* \"BasicEnzian.sol\":731:740  _tasktype */\n      dup6\n        /* \"BasicEnzian.sol\":707:770  Task (false, _activity, _tasktype, _requirements, _competitors) */\n      0x03\n      dup2\n      gt\n      iszero\n      tag_55\n      jumpi\n      mstore(0x00, 0x4e487b7100000000000000000000000000000000000000000000000000000000)\n      mstore(0x04, 0x21)\n      revert(0x00, 0x24)\n    tag_55:\n      dup2\n      mstore\n      0x20\n      add\n        /* \"BasicEnzian.sol\":742:755  _requirements */\n      dup5\n        /* \"BasicEnzian.sol\":707:770  Task (false, _activity, _tasktype, _requirements, _competitors) */\n      dup2\n      mstore\n      0x20\n      add\n        /* \"BasicEnzian.sol\":757:769  _competitors */\n      dup4\n        /* \"BasicEnzian.sol\":707:770  Task (false, _activity, _tasktype, _requirements, _competitors) */\n      dup2\n      mstore\n      pop\n        /* \"BasicEnzian.sol\":684:770  Task memory myStruct = Task (false, _activity, _tasktype, _requirements, _competitors) */\n      swap1\n      pop\n        /* \"BasicEnzian.sol\":804:812  myStruct */\n      dup1\n        /* \"BasicEnzian.sol\":781:786  tasks */\n      0x01\n        /* \"BasicEnzian.sol\":781:800  tasks[globalTaskId] */\n      0x00\n        /* \"BasicEnzian.sol\":787:799  globalTaskId */\n      dup1\n      sload\n        /* \"BasicEnzian.sol\":781:800  tasks[globalTaskId] */\n      dup2\n      mstore\n      0x20\n      add\n      swap1\n      dup2\n      mstore\n      0x20\n      add\n      0x00\n      keccak256\n        /* \"BasicEnzian.sol\":781:813  tasks[globalTaskId] = (myStruct) */\n      0x00\n      dup3\n      add\n      mload\n      dup2\n      0x00\n      add\n      exp(0x0100, 0x00)\n      dup2\n      sload\n      dup2\n      0xff\n      mul\n      not\n      and\n      swap1\n      dup4\n      iszero\n      iszero\n      mul\n      or\n      swap1\n      sstore\n      pop\n      0x20\n      dup3\n      add\n      mload\n      dup2\n      0x01\n      add\n      swap1\n      dup1\n      mload\n      swap1\n      0x20\n      add\n      swap1\n      tag_56\n      swap3\n      swap2\n      swap1\n      tag_57\n      jump\t// in\n    tag_56:\n      pop\n      0x40\n      dup3\n      add\n      mload\n      dup2\n      0x02\n      add\n      exp(0x0100, 0x00)\n      dup2\n      sload\n      dup2\n      0xff\n      mul\n      not\n      and\n      swap1\n      dup4\n      0x03\n      dup2\n      gt\n      iszero\n      tag_58\n      jumpi\n      mstore(0x00, 0x4e487b7100000000000000000000000000000000000000000000000000000000)\n      mstore(0x04, 0x21)\n      revert(0x00, 0x24)\n    tag_58:\n      mul\n      or\n      swap1\n      sstore\n      pop\n      0x60\n      dup3\n      add\n      mload\n      dup2\n      0x03\n      add\n      swap1\n      dup1\n      mload\n      swap1\n      0x20\n      add\n      swap1\n      tag_59\n      swap3\n      swap2\n      swap1\n      tag_60\n      jump\t// in\n    tag_59:\n      pop\n      0x80\n      dup3\n      add\n      mload\n      dup2\n      0x04\n      add\n      swap1\n      dup1\n      mload\n      swap1\n      0x20\n      add\n      swap1\n      tag_61\n      swap3\n      swap2\n      swap1\n      tag_60\n      jump\t// in\n    tag_61:\n      pop\n      swap1\n      pop\n      pop\n        /* \"BasicEnzian.sol\":824:836  globalTaskId */\n      0x00\n      dup1\n        /* \"BasicEnzian.sol\":824:838  globalTaskId++ */\n      dup2\n      sload\n      dup1\n      swap3\n      swap2\n      swap1\n      tag_62\n      swap1\n      tag_63\n      jump\t// in\n    tag_62:\n      swap2\n      swap1\n      pop\n      sstore\n      pop\n        /* \"BasicEnzian.sol\":422:856  function createTask(string memory _activity, \r... */\n      pop\n      pop\n      pop\n      pop\n      pop\n      jump\t// out\n        /* \"BasicEnzian.sol\":1058:3363  function setTaskOnCompleted(uint _id) public returns (bool success){\r... */\n    tag_28:\n        /* \"BasicEnzian.sol\":1112:1124  bool success */\n      0x00\n        /* \"BasicEnzian.sol\":1136:1150  uint tempcount */\n      dup1\n        /* \"BasicEnzian.sol\":1329:1333  true */\n      0x01\n        /* \"BasicEnzian.sol\":1305:1333  tasks[_id].completed == true */\n      iszero\n      iszero\n        /* \"BasicEnzian.sol\":1305:1310  tasks */\n      0x01\n        /* \"BasicEnzian.sol\":1305:1315  tasks[_id] */\n      0x00\n        /* \"BasicEnzian.sol\":1311:1314  _id */\n      dup6\n        /* \"BasicEnzian.sol\":1305:1315  tasks[_id] */\n      dup2\n      mstore\n      0x20\n      add\n      swap1\n      dup2\n      mstore\n      0x20\n      add\n      0x00\n      keccak256\n        /* \"BasicEnzian.sol\":1305:1325  tasks[_id].completed */\n      0x00\n      add\n      0x00\n      swap1\n      sload\n      swap1\n      0x0100\n      exp\n      swap1\n      div\n      0xff\n      and\n        /* \"BasicEnzian.sol\":1305:1333  tasks[_id].completed == true */\n      iszero\n      iszero\n      eq\n        /* \"BasicEnzian.sol\":1301:1373  if (tasks[_id].completed == true) {\r... */\n      iszero\n      tag_65\n      jumpi\n        /* \"BasicEnzian.sol\":1357:1361  true */\n      0x01\n        /* \"BasicEnzian.sol\":1350:1361  return true */\n      swap2\n      pop\n      pop\n      jump(tag_64)\n        /* \"BasicEnzian.sol\":1301:1373  if (tasks[_id].completed == true) {\r... */\n    tag_65:\n        /* \"BasicEnzian.sol\":1383:1408  uint[] memory temprequire */\n      0x00\n        /* \"BasicEnzian.sol\":1411:1416  tasks */\n      0x01\n        /* \"BasicEnzian.sol\":1411:1421  tasks[_id] */\n      0x00\n        /* \"BasicEnzian.sol\":1417:1420  _id */\n      dup6\n        /* \"BasicEnzian.sol\":1411:1421  tasks[_id] */\n      dup2\n      mstore\n      0x20\n      add\n      swap1\n      dup2\n      mstore\n      0x20\n      add\n      0x00\n      keccak256\n        /* \"BasicEnzian.sol\":1411:1434  tasks[_id].requirements */\n      0x03\n      add\n        /* \"BasicEnzian.sol\":1383:1434  uint[] memory temprequire = tasks[_id].requirements */\n      dup1\n      sload\n      dup1\n      0x20\n      mul\n      0x20\n      add\n      mload(0x40)\n      swap1\n      dup2\n      add\n      0x40\n      mstore\n      dup1\n      swap3\n      swap2\n      swap1\n      dup2\n      dup2\n      mstore\n      0x20\n      add\n      dup3\n      dup1\n      sload\n      dup1\n      iszero\n      tag_66\n      jumpi\n      0x20\n      mul\n      dup3\n      add\n      swap2\n      swap1\n      0x00\n      mstore\n      keccak256(0x00, 0x20)\n      swap1\n    tag_67:\n      dup2\n      sload\n      dup2\n      mstore\n      0x20\n      add\n      swap1\n      0x01\n      add\n      swap1\n      dup1\n      dup4\n      gt\n      tag_67\n      jumpi\n    tag_66:\n      pop\n      pop\n      pop\n      pop\n      pop\n      swap1\n      pop\n        /* \"BasicEnzian.sol\":1471:1472  0 */\n      0x00\n        /* \"BasicEnzian.sol\":1449:1460  temprequire */\n      dup2\n        /* \"BasicEnzian.sol\":1449:1467  temprequire.length */\n      mload\n        /* \"BasicEnzian.sol\":1449:1472  temprequire.length == 0 */\n      eq\n        /* \"BasicEnzian.sol\":1445:1554  if (temprequire.length == 0) {\r... */\n      iszero\n      tag_68\n      jumpi\n        /* \"BasicEnzian.sol\":1512:1516  true */\n      0x01\n        /* \"BasicEnzian.sol\":1489:1494  tasks */\n      dup1\n        /* \"BasicEnzian.sol\":1489:1499  tasks[_id] */\n      0x00\n        /* \"BasicEnzian.sol\":1495:1498  _id */\n      dup7\n        /* \"BasicEnzian.sol\":1489:1499  tasks[_id] */\n      dup2\n      mstore\n      0x20\n      add\n      swap1\n      dup2\n      mstore\n      0x20\n      add\n      0x00\n      keccak256\n        /* \"BasicEnzian.sol\":1489:1509  tasks[_id].completed */\n      0x00\n      add\n      0x00\n        /* \"BasicEnzian.sol\":1489:1516  tasks[_id].completed = true */\n      0x0100\n      exp\n      dup2\n      sload\n      dup2\n      0xff\n      mul\n      not\n      and\n      swap1\n      dup4\n      iszero\n      iszero\n      mul\n      or\n      swap1\n      sstore\n      pop\n        /* \"BasicEnzian.sol\":1538:1542  true */\n      0x01\n        /* \"BasicEnzian.sol\":1531:1542  return true */\n      swap3\n      pop\n      pop\n      pop\n      jump(tag_64)\n        /* \"BasicEnzian.sol\":1445:1554  if (temprequire.length == 0) {\r... */\n    tag_68:\n        /* \"BasicEnzian.sol\":1607:1620  Tasktype.TASK */\n      0x00\n        /* \"BasicEnzian.sol\":1584:1620  tasks[_id].tasktype == Tasktype.TASK */\n      0x03\n      dup2\n      gt\n      iszero\n      tag_69\n      jumpi\n      mstore(0x00, 0x4e487b7100000000000000000000000000000000000000000000000000000000)\n      mstore(0x04, 0x21)\n      revert(0x00, 0x24)\n    tag_69:\n        /* \"BasicEnzian.sol\":1584:1589  tasks */\n      0x01\n        /* \"BasicEnzian.sol\":1584:1594  tasks[_id] */\n      0x00\n        /* \"BasicEnzian.sol\":1590:1593  _id */\n      dup7\n        /* \"BasicEnzian.sol\":1584:1594  tasks[_id] */\n      dup2\n      mstore\n      0x20\n      add\n      swap1\n      dup2\n      mstore\n      0x20\n      add\n      0x00\n      keccak256\n        /* \"BasicEnzian.sol\":1584:1603  tasks[_id].tasktype */\n      0x02\n      add\n      0x00\n      swap1\n      sload\n      swap1\n      0x0100\n      exp\n      swap1\n      div\n      0xff\n      and\n        /* \"BasicEnzian.sol\":1584:1620  tasks[_id].tasktype == Tasktype.TASK */\n      0x03\n      dup2\n      gt\n      iszero\n      tag_70\n      jumpi\n      mstore(0x00, 0x4e487b7100000000000000000000000000000000000000000000000000000000)\n      mstore(0x04, 0x21)\n      revert(0x00, 0x24)\n    tag_70:\n      eq\n        /* \"BasicEnzian.sol\":1580:1881  if (tasks[_id].tasktype == Tasktype.TASK) {\r... */\n      iszero\n      tag_71\n      jumpi\n        /* \"BasicEnzian.sol\":1680:1684  true */\n      0x01\n        /* \"BasicEnzian.sol\":1641:1684  isTaskCompletedById(temprequire[0]) == true */\n      iszero\n      iszero\n        /* \"BasicEnzian.sol\":1641:1676  isTaskCompletedById(temprequire[0]) */\n      tag_72\n        /* \"BasicEnzian.sol\":1661:1672  temprequire */\n      dup3\n        /* \"BasicEnzian.sol\":1673:1674  0 */\n      0x00\n        /* \"BasicEnzian.sol\":1661:1675  temprequire[0] */\n      dup2\n      mload\n      dup2\n      lt\n      tag_73\n      jumpi\n      mstore(0x00, 0x4e487b7100000000000000000000000000000000000000000000000000000000)\n      mstore(0x04, 0x32)\n      revert(0x00, 0x24)\n    tag_73:\n      0x20\n      mul\n      0x20\n      add\n      add\n      mload\n        /* \"BasicEnzian.sol\":1641:1660  isTaskCompletedById */\n      tag_42\n        /* \"BasicEnzian.sol\":1641:1676  isTaskCompletedById(temprequire[0]) */\n      jump\t// in\n    tag_72:\n        /* \"BasicEnzian.sol\":1641:1684  isTaskCompletedById(temprequire[0]) == true */\n      iszero\n      iszero\n      eq\n        /* \"BasicEnzian.sol\":1637:1870  if (isTaskCompletedById(temprequire[0]) == true) {\r... */\n      iszero\n      tag_74\n      jumpi\n        /* \"BasicEnzian.sol\":1750:1754  true */\n      0x01\n        /* \"BasicEnzian.sol\":1727:1732  tasks */\n      dup1\n        /* \"BasicEnzian.sol\":1727:1737  tasks[_id] */\n      0x00\n        /* \"BasicEnzian.sol\":1733:1736  _id */\n      dup7\n        /* \"BasicEnzian.sol\":1727:1737  tasks[_id] */\n      dup2\n      mstore\n      0x20\n      add\n      swap1\n      dup2\n      mstore\n      0x20\n      add\n      0x00\n      keccak256\n        /* \"BasicEnzian.sol\":1727:1747  tasks[_id].completed */\n      0x00\n      add\n      0x00\n        /* \"BasicEnzian.sol\":1727:1754  tasks[_id].completed = true */\n      0x0100\n      exp\n      dup2\n      sload\n      dup2\n      0xff\n      mul\n      not\n      and\n      swap1\n      dup4\n      iszero\n      iszero\n      mul\n      or\n      swap1\n      sstore\n      pop\n        /* \"BasicEnzian.sol\":1784:1788  true */\n      0x01\n        /* \"BasicEnzian.sol\":1777:1788  return true */\n      swap3\n      pop\n      pop\n      pop\n      jump(tag_64)\n        /* \"BasicEnzian.sol\":1637:1870  if (isTaskCompletedById(temprequire[0]) == true) {\r... */\n    tag_74:\n        /* \"BasicEnzian.sol\":1849:1854  false */\n      0x00\n        /* \"BasicEnzian.sol\":1842:1854  return false */\n      swap3\n      pop\n      pop\n      pop\n      jump(tag_64)\n        /* \"BasicEnzian.sol\":1580:1881  if (tasks[_id].tasktype == Tasktype.TASK) {\r... */\n    tag_71:\n        /* \"BasicEnzian.sol\":1976:1988  Tasktype.AND */\n      0x01\n        /* \"BasicEnzian.sol\":1953:1988  tasks[_id].tasktype == Tasktype.AND */\n      0x03\n      dup2\n      gt\n      iszero\n      tag_76\n      jumpi\n      mstore(0x00, 0x4e487b7100000000000000000000000000000000000000000000000000000000)\n      mstore(0x04, 0x21)\n      revert(0x00, 0x24)\n    tag_76:\n        /* \"BasicEnzian.sol\":1953:1958  tasks */\n      0x01\n        /* \"BasicEnzian.sol\":1953:1963  tasks[_id] */\n      0x00\n        /* \"BasicEnzian.sol\":1959:1962  _id */\n      dup7\n        /* \"BasicEnzian.sol\":1953:1963  tasks[_id] */\n      dup2\n      mstore\n      0x20\n      add\n      swap1\n      dup2\n      mstore\n      0x20\n      add\n      0x00\n      keccak256\n        /* \"BasicEnzian.sol\":1953:1972  tasks[_id].tasktype */\n      0x02\n      add\n      0x00\n      swap1\n      sload\n      swap1\n      0x0100\n      exp\n      swap1\n      div\n      0xff\n      and\n        /* \"BasicEnzian.sol\":1953:1988  tasks[_id].tasktype == Tasktype.AND */\n      0x03\n      dup2\n      gt\n      iszero\n      tag_77\n      jumpi\n      mstore(0x00, 0x4e487b7100000000000000000000000000000000000000000000000000000000)\n      mstore(0x04, 0x21)\n      revert(0x00, 0x24)\n    tag_77:\n      eq\n        /* \"BasicEnzian.sol\":1949:2410  if (tasks[_id].tasktype == Tasktype.AND) {\r... */\n      iszero\n      tag_78\n      jumpi\n        /* \"BasicEnzian.sol\":2010:2016  uint i */\n      0x00\n        /* \"BasicEnzian.sol\":2005:2188  for (uint i = 0; i < temprequire.length; i++) {\r... */\n    tag_79:\n        /* \"BasicEnzian.sol\":2026:2037  temprequire */\n      dup2\n        /* \"BasicEnzian.sol\":2026:2044  temprequire.length */\n      mload\n        /* \"BasicEnzian.sol\":2022:2023  i */\n      dup2\n        /* \"BasicEnzian.sol\":2022:2044  i < temprequire.length */\n      lt\n        /* \"BasicEnzian.sol\":2005:2188  for (uint i = 0; i < temprequire.length; i++) {\r... */\n      iszero\n      tag_80\n      jumpi\n        /* \"BasicEnzian.sol\":2113:2117  true */\n      0x01\n        /* \"BasicEnzian.sol\":2074:2117  isTaskCompletedById(temprequire[i]) == true */\n      iszero\n      iszero\n        /* \"BasicEnzian.sol\":2074:2109  isTaskCompletedById(temprequire[i]) */\n      tag_82\n        /* \"BasicEnzian.sol\":2094:2105  temprequire */\n      dup4\n        /* \"BasicEnzian.sol\":2106:2107  i */\n      dup4\n        /* \"BasicEnzian.sol\":2094:2108  temprequire[i] */\n      dup2\n      mload\n      dup2\n      lt\n      tag_83\n      jumpi\n      mstore(0x00, 0x4e487b7100000000000000000000000000000000000000000000000000000000)\n      mstore(0x04, 0x32)\n      revert(0x00, 0x24)\n    tag_83:\n      0x20\n      mul\n      0x20\n      add\n      add\n      mload\n        /* \"BasicEnzian.sol\":2074:2093  isTaskCompletedById */\n      tag_42\n        /* \"BasicEnzian.sol\":2074:2109  isTaskCompletedById(temprequire[i]) */\n      jump\t// in\n    tag_82:\n        /* \"BasicEnzian.sol\":2074:2117  isTaskCompletedById(temprequire[i]) == true */\n      iszero\n      iszero\n      eq\n        /* \"BasicEnzian.sol\":2070:2173  if (isTaskCompletedById(temprequire[i]) == true) {\r... */\n      iszero\n      tag_84\n      jumpi\n        /* \"BasicEnzian.sol\":2142:2153  tempcount++ */\n      dup3\n      dup1\n      tag_85\n      swap1\n      tag_63\n      jump\t// in\n    tag_85:\n      swap4\n      pop\n      pop\n        /* \"BasicEnzian.sol\":2070:2173  if (isTaskCompletedById(temprequire[i]) == true) {\r... */\n    tag_84:\n        /* \"BasicEnzian.sol\":2046:2049  i++ */\n      dup1\n      dup1\n      tag_86\n      swap1\n      tag_63\n      jump\t// in\n    tag_86:\n      swap2\n      pop\n      pop\n        /* \"BasicEnzian.sol\":2005:2188  for (uint i = 0; i < temprequire.length; i++) {\r... */\n      jump(tag_79)\n    tag_80:\n      pop\n        /* \"BasicEnzian.sol\":2219:2230  temprequire */\n      dup1\n        /* \"BasicEnzian.sol\":2219:2237  temprequire.length */\n      mload\n        /* \"BasicEnzian.sol\":2206:2215  tempcount */\n      dup3\n        /* \"BasicEnzian.sol\":2206:2237  tempcount == temprequire.length */\n      eq\n        /* \"BasicEnzian.sol\":2202:2399  if (tempcount == temprequire.length) {\r... */\n      iszero\n      tag_87\n      jumpi\n        /* \"BasicEnzian.sol\":2281:2285  true */\n      0x01\n        /* \"BasicEnzian.sol\":2258:2263  tasks */\n      dup1\n        /* \"BasicEnzian.sol\":2258:2268  tasks[_id] */\n      0x00\n        /* \"BasicEnzian.sol\":2264:2267  _id */\n      dup7\n        /* \"BasicEnzian.sol\":2258:2268  tasks[_id] */\n      dup2\n      mstore\n      0x20\n      add\n      swap1\n      dup2\n      mstore\n      0x20\n      add\n      0x00\n      keccak256\n        /* \"BasicEnzian.sol\":2258:2278  tasks[_id].completed */\n      0x00\n      add\n      0x00\n        /* \"BasicEnzian.sol\":2258:2285  tasks[_id].completed = true */\n      0x0100\n      exp\n      dup2\n      sload\n      dup2\n      0xff\n      mul\n      not\n      and\n      swap1\n      dup4\n      iszero\n      iszero\n      mul\n      or\n      swap1\n      sstore\n      pop\n        /* \"BasicEnzian.sol\":2311:2315  true */\n      0x01\n        /* \"BasicEnzian.sol\":2304:2315  return true */\n      swap3\n      pop\n      pop\n      pop\n      jump(tag_64)\n        /* \"BasicEnzian.sol\":2202:2399  if (tempcount == temprequire.length) {\r... */\n    tag_87:\n        /* \"BasicEnzian.sol\":2376:2381  false */\n      0x00\n        /* \"BasicEnzian.sol\":2369:2381  return false */\n      swap3\n      pop\n      pop\n      pop\n      jump(tag_64)\n        /* \"BasicEnzian.sol\":1949:2410  if (tasks[_id].tasktype == Tasktype.AND) {\r... */\n    tag_78:\n        /* \"BasicEnzian.sol\":2469:2480  Tasktype.OR */\n      0x02\n        /* \"BasicEnzian.sol\":2446:2480  tasks[_id].tasktype == Tasktype.OR */\n      0x03\n      dup2\n      gt\n      iszero\n      tag_89\n      jumpi\n      mstore(0x00, 0x4e487b7100000000000000000000000000000000000000000000000000000000)\n      mstore(0x04, 0x21)\n      revert(0x00, 0x24)\n    tag_89:\n        /* \"BasicEnzian.sol\":2446:2451  tasks */\n      0x01\n        /* \"BasicEnzian.sol\":2446:2456  tasks[_id] */\n      0x00\n        /* \"BasicEnzian.sol\":2452:2455  _id */\n      dup7\n        /* \"BasicEnzian.sol\":2446:2456  tasks[_id] */\n      dup2\n      mstore\n      0x20\n      add\n      swap1\n      dup2\n      mstore\n      0x20\n      add\n      0x00\n      keccak256\n        /* \"BasicEnzian.sol\":2446:2465  tasks[_id].tasktype */\n      0x02\n      add\n      0x00\n      swap1\n      sload\n      swap1\n      0x0100\n      exp\n      swap1\n      div\n      0xff\n      and\n        /* \"BasicEnzian.sol\":2446:2480  tasks[_id].tasktype == Tasktype.OR */\n      0x03\n      dup2\n      gt\n      iszero\n      tag_90\n      jumpi\n      mstore(0x00, 0x4e487b7100000000000000000000000000000000000000000000000000000000)\n      mstore(0x04, 0x21)\n      revert(0x00, 0x24)\n    tag_90:\n      eq\n        /* \"BasicEnzian.sol\":2442:2882  if (tasks[_id].tasktype == Tasktype.OR) {\r... */\n      iszero\n      tag_91\n      jumpi\n        /* \"BasicEnzian.sol\":2502:2508  uint j */\n      0x00\n        /* \"BasicEnzian.sol\":2497:2680  for (uint j = 0; j < temprequire.length; j++) {\r... */\n    tag_92:\n        /* \"BasicEnzian.sol\":2518:2529  temprequire */\n      dup2\n        /* \"BasicEnzian.sol\":2518:2536  temprequire.length */\n      mload\n        /* \"BasicEnzian.sol\":2514:2515  j */\n      dup2\n        /* \"BasicEnzian.sol\":2514:2536  j < temprequire.length */\n      lt\n        /* \"BasicEnzian.sol\":2497:2680  for (uint j = 0; j < temprequire.length; j++) {\r... */\n      iszero\n      tag_93\n      jumpi\n        /* \"BasicEnzian.sol\":2605:2609  true */\n      0x01\n        /* \"BasicEnzian.sol\":2566:2609  isTaskCompletedById(temprequire[j]) == true */\n      iszero\n      iszero\n        /* \"BasicEnzian.sol\":2566:2601  isTaskCompletedById(temprequire[j]) */\n      tag_95\n        /* \"BasicEnzian.sol\":2586:2597  temprequire */\n      dup4\n        /* \"BasicEnzian.sol\":2598:2599  j */\n      dup4\n        /* \"BasicEnzian.sol\":2586:2600  temprequire[j] */\n      dup2\n      mload\n      dup2\n      lt\n      tag_96\n      jumpi\n      mstore(0x00, 0x4e487b7100000000000000000000000000000000000000000000000000000000)\n      mstore(0x04, 0x32)\n      revert(0x00, 0x24)\n    tag_96:\n      0x20\n      mul\n      0x20\n      add\n      add\n      mload\n        /* \"BasicEnzian.sol\":2566:2585  isTaskCompletedById */\n      tag_42\n        /* \"BasicEnzian.sol\":2566:2601  isTaskCompletedById(temprequire[j]) */\n      jump\t// in\n    tag_95:\n        /* \"BasicEnzian.sol\":2566:2609  isTaskCompletedById(temprequire[j]) == true */\n      iszero\n      iszero\n      eq\n        /* \"BasicEnzian.sol\":2562:2665  if (isTaskCompletedById(temprequire[j]) == true) {\r... */\n      iszero\n      tag_97\n      jumpi\n        /* \"BasicEnzian.sol\":2634:2645  tempcount++ */\n      dup3\n      dup1\n      tag_98\n      swap1\n      tag_63\n      jump\t// in\n    tag_98:\n      swap4\n      pop\n      pop\n        /* \"BasicEnzian.sol\":2562:2665  if (isTaskCompletedById(temprequire[j]) == true) {\r... */\n    tag_97:\n        /* \"BasicEnzian.sol\":2538:2541  j++ */\n      dup1\n      dup1\n      tag_99\n      swap1\n      tag_63\n      jump\t// in\n    tag_99:\n      swap2\n      pop\n      pop\n        /* \"BasicEnzian.sol\":2497:2680  for (uint j = 0; j < temprequire.length; j++) {\r... */\n      jump(tag_92)\n    tag_93:\n      pop\n        /* \"BasicEnzian.sol\":2710:2711  0 */\n      0x00\n        /* \"BasicEnzian.sol\":2698:2707  tempcount */\n      dup3\n        /* \"BasicEnzian.sol\":2698:2711  tempcount > 0 */\n      gt\n        /* \"BasicEnzian.sol\":2694:2871  if (tempcount > 0) {\r... */\n      iszero\n      tag_100\n      jumpi\n        /* \"BasicEnzian.sol\":2755:2759  true */\n      0x01\n        /* \"BasicEnzian.sol\":2732:2737  tasks */\n      dup1\n        /* \"BasicEnzian.sol\":2732:2742  tasks[_id] */\n      0x00\n        /* \"BasicEnzian.sol\":2738:2741  _id */\n      dup7\n        /* \"BasicEnzian.sol\":2732:2742  tasks[_id] */\n      dup2\n      mstore\n      0x20\n      add\n      swap1\n      dup2\n      mstore\n      0x20\n      add\n      0x00\n      keccak256\n        /* \"BasicEnzian.sol\":2732:2752  tasks[_id].completed */\n      0x00\n      add\n      0x00\n        /* \"BasicEnzian.sol\":2732:2759  tasks[_id].completed = true */\n      0x0100\n      exp\n      dup2\n      sload\n      dup2\n      0xff\n      mul\n      not\n      and\n      swap1\n      dup4\n      iszero\n      iszero\n      mul\n      or\n      swap1\n      sstore\n      pop\n        /* \"BasicEnzian.sol\":2785:2789  true */\n      0x01\n        /* \"BasicEnzian.sol\":2778:2789  return true */\n      swap3\n      pop\n      pop\n      pop\n      jump(tag_64)\n        /* \"BasicEnzian.sol\":2694:2871  if (tempcount > 0) {\r... */\n    tag_100:\n        /* \"BasicEnzian.sol\":2850:2855  false */\n      0x00\n        /* \"BasicEnzian.sol\":2843:2855  return false */\n      swap3\n      pop\n      pop\n      pop\n      jump(tag_64)\n        /* \"BasicEnzian.sol\":2442:2882  if (tasks[_id].tasktype == Tasktype.OR) {\r... */\n    tag_91:\n        /* \"BasicEnzian.sol\":2941:2953  Tasktype.XOR */\n      0x03\n        /* \"BasicEnzian.sol\":2918:2953  tasks[_id].tasktype == Tasktype.XOR */\n      dup1\n      dup2\n      gt\n      iszero\n      tag_102\n      jumpi\n      mstore(0x00, 0x4e487b7100000000000000000000000000000000000000000000000000000000)\n      mstore(0x04, 0x21)\n      revert(0x00, 0x24)\n    tag_102:\n        /* \"BasicEnzian.sol\":2918:2923  tasks */\n      0x01\n        /* \"BasicEnzian.sol\":2918:2928  tasks[_id] */\n      0x00\n        /* \"BasicEnzian.sol\":2924:2927  _id */\n      dup7\n        /* \"BasicEnzian.sol\":2918:2928  tasks[_id] */\n      dup2\n      mstore\n      0x20\n      add\n      swap1\n      dup2\n      mstore\n      0x20\n      add\n      0x00\n      keccak256\n        /* \"BasicEnzian.sol\":2918:2937  tasks[_id].tasktype */\n      0x02\n      add\n      0x00\n      swap1\n      sload\n      swap1\n      0x0100\n      exp\n      swap1\n      div\n      0xff\n      and\n        /* \"BasicEnzian.sol\":2918:2953  tasks[_id].tasktype == Tasktype.XOR */\n      0x03\n      dup2\n      gt\n      iszero\n      tag_103\n      jumpi\n      mstore(0x00, 0x4e487b7100000000000000000000000000000000000000000000000000000000)\n      mstore(0x04, 0x21)\n      revert(0x00, 0x24)\n    tag_103:\n      eq\n        /* \"BasicEnzian.sol\":2914:3356  if (tasks[_id].tasktype == Tasktype.XOR) {\r... */\n      iszero\n      tag_104\n      jumpi\n        /* \"BasicEnzian.sol\":2975:2981  uint k */\n      0x00\n        /* \"BasicEnzian.sol\":2970:3153  for (uint k = 0; k < temprequire.length; k++) {\r... */\n    tag_105:\n        /* \"BasicEnzian.sol\":2991:3002  temprequire */\n      dup2\n        /* \"BasicEnzian.sol\":2991:3009  temprequire.length */\n      mload\n        /* \"BasicEnzian.sol\":2987:2988  k */\n      dup2\n        /* \"BasicEnzian.sol\":2987:3009  k < temprequire.length */\n      lt\n        /* \"BasicEnzian.sol\":2970:3153  for (uint k = 0; k < temprequire.length; k++) {\r... */\n      iszero\n      tag_106\n      jumpi\n        /* \"BasicEnzian.sol\":3078:3082  true */\n      0x01\n        /* \"BasicEnzian.sol\":3039:3082  isTaskCompletedById(temprequire[k]) == true */\n      iszero\n      iszero\n        /* \"BasicEnzian.sol\":3039:3074  isTaskCompletedById(temprequire[k]) */\n      tag_108\n        /* \"BasicEnzian.sol\":3059:3070  temprequire */\n      dup4\n        /* \"BasicEnzian.sol\":3071:3072  k */\n      dup4\n        /* \"BasicEnzian.sol\":3059:3073  temprequire[k] */\n      dup2\n      mload\n      dup2\n      lt\n      tag_109\n      jumpi\n      mstore(0x00, 0x4e487b7100000000000000000000000000000000000000000000000000000000)\n      mstore(0x04, 0x32)\n      revert(0x00, 0x24)\n    tag_109:\n      0x20\n      mul\n      0x20\n      add\n      add\n      mload\n        /* \"BasicEnzian.sol\":3039:3058  isTaskCompletedById */\n      tag_42\n        /* \"BasicEnzian.sol\":3039:3074  isTaskCompletedById(temprequire[k]) */\n      jump\t// in\n    tag_108:\n        /* \"BasicEnzian.sol\":3039:3082  isTaskCompletedById(temprequire[k]) == true */\n      iszero\n      iszero\n      eq\n        /* \"BasicEnzian.sol\":3035:3138  if (isTaskCompletedById(temprequire[k]) == true) {\r... */\n      iszero\n      tag_110\n      jumpi\n        /* \"BasicEnzian.sol\":3107:3118  tempcount++ */\n      dup3\n      dup1\n      tag_111\n      swap1\n      tag_63\n      jump\t// in\n    tag_111:\n      swap4\n      pop\n      pop\n        /* \"BasicEnzian.sol\":3035:3138  if (isTaskCompletedById(temprequire[k]) == true) {\r... */\n    tag_110:\n        /* \"BasicEnzian.sol\":3011:3014  k++ */\n      dup1\n      dup1\n      tag_112\n      swap1\n      tag_63\n      jump\t// in\n    tag_112:\n      swap2\n      pop\n      pop\n        /* \"BasicEnzian.sol\":2970:3153  for (uint k = 0; k < temprequire.length; k++) {\r... */\n      jump(tag_105)\n    tag_106:\n      pop\n        /* \"BasicEnzian.sol\":3184:3185  1 */\n      0x01\n        /* \"BasicEnzian.sol\":3171:3180  tempcount */\n      dup3\n        /* \"BasicEnzian.sol\":3171:3185  tempcount == 1 */\n      eq\n        /* \"BasicEnzian.sol\":3167:3345  if (tempcount == 1) {\r... */\n      iszero\n      tag_113\n      jumpi\n        /* \"BasicEnzian.sol\":3229:3233  true */\n      0x01\n        /* \"BasicEnzian.sol\":3206:3211  tasks */\n      dup1\n        /* \"BasicEnzian.sol\":3206:3216  tasks[_id] */\n      0x00\n        /* \"BasicEnzian.sol\":3212:3215  _id */\n      dup7\n        /* \"BasicEnzian.sol\":3206:3216  tasks[_id] */\n      dup2\n      mstore\n      0x20\n      add\n      swap1\n      dup2\n      mstore\n      0x20\n      add\n      0x00\n      keccak256\n        /* \"BasicEnzian.sol\":3206:3226  tasks[_id].completed */\n      0x00\n      add\n      0x00\n        /* \"BasicEnzian.sol\":3206:3233  tasks[_id].completed = true */\n      0x0100\n      exp\n      dup2\n      sload\n      dup2\n      0xff\n      mul\n      not\n      and\n      swap1\n      dup4\n      iszero\n      iszero\n      mul\n      or\n      swap1\n      sstore\n      pop\n        /* \"BasicEnzian.sol\":3259:3263  true */\n      0x01\n        /* \"BasicEnzian.sol\":3252:3263  return true */\n      swap3\n      pop\n      pop\n      pop\n      jump(tag_64)\n        /* \"BasicEnzian.sol\":3167:3345  if (tempcount == 1) {\r... */\n    tag_113:\n        /* \"BasicEnzian.sol\":3324:3329  false */\n      0x00\n        /* \"BasicEnzian.sol\":3317:3329  return false */\n      swap3\n      pop\n      pop\n      pop\n      jump(tag_64)\n        /* \"BasicEnzian.sol\":2914:3356  if (tasks[_id].tasktype == Tasktype.XOR) {\r... */\n    tag_104:\n        /* \"BasicEnzian.sol\":1058:3363  function setTaskOnCompleted(uint _id) public returns (bool success){\r... */\n      pop\n      pop\n    tag_64:\n      swap2\n      swap1\n      pop\n      jump\t// out\n        /* \"BasicEnzian.sol\":4431:4561  function getTaskRequirementsById(uint _id) public view returns (uint[] memory) {\r... */\n    tag_33:\n        /* \"BasicEnzian.sol\":4495:4508  uint[] memory */\n      0x60\n        /* \"BasicEnzian.sol\":4529:4534  tasks */\n      0x01\n        /* \"BasicEnzian.sol\":4529:4539  tasks[_id] */\n      0x00\n        /* \"BasicEnzian.sol\":4535:4538  _id */\n      dup4\n        /* \"BasicEnzian.sol\":4529:4539  tasks[_id] */\n      dup2\n      mstore\n      0x20\n      add\n      swap1\n      dup2\n      mstore\n      0x20\n      add\n      0x00\n      keccak256\n        /* \"BasicEnzian.sol\":4529:4552  tasks[_id].requirements */\n      0x03\n      add\n        /* \"BasicEnzian.sol\":4521:4553  return (tasks[_id].requirements) */\n      dup1\n      sload\n      dup1\n      0x20\n      mul\n      0x20\n      add\n      mload(0x40)\n      swap1\n      dup2\n      add\n      0x40\n      mstore\n      dup1\n      swap3\n      swap2\n      swap1\n      dup2\n      dup2\n      mstore\n      0x20\n      add\n      dup3\n      dup1\n      sload\n      dup1\n      iszero\n      tag_116\n      jumpi\n      0x20\n      mul\n      dup3\n      add\n      swap2\n      swap1\n      0x00\n      mstore\n      keccak256(0x00, 0x20)\n      swap1\n    tag_117:\n      dup2\n      sload\n      dup2\n      mstore\n      0x20\n      add\n      swap1\n      0x01\n      add\n      swap1\n      dup1\n      dup4\n      gt\n      tag_117\n      jumpi\n    tag_116:\n      pop\n      pop\n      pop\n      pop\n      pop\n      swap1\n      pop\n        /* \"BasicEnzian.sol\":4431:4561  function getTaskRequirementsById(uint _id) public view returns (uint[] memory) {\r... */\n      swap2\n      swap1\n      pop\n      jump\t// out\n        /* \"BasicEnzian.sol\":3692:4148  function getTaskById(uint _id) public view\r... */\n    tag_37:\n        /* \"BasicEnzian.sol\":3767:3778  bool status */\n      0x00\n        /* \"BasicEnzian.sol\":3793:3818  string memory description */\n      0x60\n        /* \"BasicEnzian.sol\":3833:3850  Tasktype tasktype */\n      0x00\n        /* \"BasicEnzian.sol\":3865:3891  uint[] memory requirements */\n      0x60\n        /* \"BasicEnzian.sol\":3906:3931  uint[] memory competitors */\n      dup1\n        /* \"BasicEnzian.sol\":3976:3981  tasks */\n      0x01\n        /* \"BasicEnzian.sol\":3976:3986  tasks[_id] */\n      0x00\n        /* \"BasicEnzian.sol\":3982:3985  _id */\n      dup8\n        /* \"BasicEnzian.sol\":3976:3986  tasks[_id] */\n      dup2\n      mstore\n      0x20\n      add\n      swap1\n      dup2\n      mstore\n      0x20\n      add\n      0x00\n      keccak256\n        /* \"BasicEnzian.sol\":3976:3996  tasks[_id].completed */\n      0x00\n      add\n      0x00\n      swap1\n      sload\n      swap1\n      0x0100\n      exp\n      swap1\n      div\n      0xff\n      and\n        /* \"BasicEnzian.sol\":4011:4016  tasks */\n      0x01\n        /* \"BasicEnzian.sol\":4011:4021  tasks[_id] */\n      0x00\n        /* \"BasicEnzian.sol\":4017:4020  _id */\n      dup9\n        /* \"BasicEnzian.sol\":4011:4021  tasks[_id] */\n      dup2\n      mstore\n      0x20\n      add\n      swap1\n      dup2\n      mstore\n      0x20\n      add\n      0x00\n      keccak256\n        /* \"BasicEnzian.sol\":4011:4030  tasks[_id].activity */\n      0x01\n      add\n        /* \"BasicEnzian.sol\":4045:4050  tasks */\n      0x01\n        /* \"BasicEnzian.sol\":4045:4055  tasks[_id] */\n      0x00\n        /* \"BasicEnzian.sol\":4051:4054  _id */\n      dup10\n        /* \"BasicEnzian.sol\":4045:4055  tasks[_id] */\n      dup2\n      mstore\n      0x20\n      add\n      swap1\n      dup2\n      mstore\n      0x20\n      add\n      0x00\n      keccak256\n        /* \"BasicEnzian.sol\":4045:4064  tasks[_id].tasktype */\n      0x02\n      add\n      0x00\n      swap1\n      sload\n      swap1\n      0x0100\n      exp\n      swap1\n      div\n      0xff\n      and\n        /* \"BasicEnzian.sol\":4079:4084  tasks */\n      0x01\n        /* \"BasicEnzian.sol\":4079:4089  tasks[_id] */\n      0x00\n        /* \"BasicEnzian.sol\":4085:4088  _id */\n      dup11\n        /* \"BasicEnzian.sol\":4079:4089  tasks[_id] */\n      dup2\n      mstore\n      0x20\n      add\n      swap1\n      dup2\n      mstore\n      0x20\n      add\n      0x00\n      keccak256\n        /* \"BasicEnzian.sol\":4079:4102  tasks[_id].requirements */\n      0x03\n      add\n        /* \"BasicEnzian.sol\":4117:4122  tasks */\n      0x01\n        /* \"BasicEnzian.sol\":4117:4127  tasks[_id] */\n      0x00\n        /* \"BasicEnzian.sol\":4123:4126  _id */\n      dup12\n        /* \"BasicEnzian.sol\":4117:4127  tasks[_id] */\n      dup2\n      mstore\n      0x20\n      add\n      swap1\n      dup2\n      mstore\n      0x20\n      add\n      0x00\n      keccak256\n        /* \"BasicEnzian.sol\":4117:4139  tasks[_id].competitors */\n      0x04\n      add\n        /* \"BasicEnzian.sol\":3954:4140  return (\r... */\n      dup4\n      dup1\n      sload\n      tag_119\n      swap1\n      tag_120\n      jump\t// in\n    tag_119:\n      dup1\n      0x1f\n      add\n      0x20\n      dup1\n      swap2\n      div\n      mul\n      0x20\n      add\n      mload(0x40)\n      swap1\n      dup2\n      add\n      0x40\n      mstore\n      dup1\n      swap3\n      swap2\n      swap1\n      dup2\n      dup2\n      mstore\n      0x20\n      add\n      dup3\n      dup1\n      sload\n      tag_121\n      swap1\n      tag_120\n      jump\t// in\n    tag_121:\n      dup1\n      iszero\n      tag_122\n      jumpi\n      dup1\n      0x1f\n      lt\n      tag_123\n      jumpi\n      0x0100\n      dup1\n      dup4\n      sload\n      div\n      mul\n      dup4\n      mstore\n      swap2\n      0x20\n      add\n      swap2\n      jump(tag_122)\n    tag_123:\n      dup3\n      add\n      swap2\n      swap1\n      0x00\n      mstore\n      keccak256(0x00, 0x20)\n      swap1\n    tag_124:\n      dup2\n      sload\n      dup2\n      mstore\n      swap1\n      0x01\n      add\n      swap1\n      0x20\n      add\n      dup1\n      dup4\n      gt\n      tag_124\n      jumpi\n      dup3\n      swap1\n      sub\n      0x1f\n      and\n      dup3\n      add\n      swap2\n    tag_122:\n      pop\n      pop\n      pop\n      pop\n      pop\n      swap4\n      pop\n      dup2\n      dup1\n      sload\n      dup1\n      0x20\n      mul\n      0x20\n      add\n      mload(0x40)\n      swap1\n      dup2\n      add\n      0x40\n      mstore\n      dup1\n      swap3\n      swap2\n      swap1\n      dup2\n      dup2\n      mstore\n      0x20\n      add\n      dup3\n      dup1\n      sload\n      dup1\n      iszero\n      tag_125\n      jumpi\n      0x20\n      mul\n      dup3\n      add\n      swap2\n      swap1\n      0x00\n      mstore\n      keccak256(0x00, 0x20)\n      swap1\n    tag_126:\n      dup2\n      sload\n      dup2\n      mstore\n      0x20\n      add\n      swap1\n      0x01\n      add\n      swap1\n      dup1\n      dup4\n      gt\n      tag_126\n      jumpi\n    tag_125:\n      pop\n      pop\n      pop\n      pop\n      pop\n      swap2\n      pop\n      dup1\n      dup1\n      sload\n      dup1\n      0x20\n      mul\n      0x20\n      add\n      mload(0x40)\n      swap1\n      dup2\n      add\n      0x40\n      mstore\n      dup1\n      swap3\n      swap2\n      swap1\n      dup2\n      dup2\n      mstore\n      0x20\n      add\n      dup3\n      dup1\n      sload\n      dup1\n      iszero\n      tag_127\n      jumpi\n      0x20\n      mul\n      dup3\n      add\n      swap2\n      swap1\n      0x00\n      mstore\n      keccak256(0x00, 0x20)\n      swap1\n    tag_128:\n      dup2\n      sload\n      dup2\n      mstore\n      0x20\n      add\n      swap1\n      0x01\n      add\n      swap1\n      dup1\n      dup4\n      gt\n      tag_128\n      jumpi\n    tag_127:\n      pop\n      pop\n      pop\n      pop\n      pop\n      swap1\n      pop\n      swap5\n      pop\n      swap5\n      pop\n      swap5\n      pop\n      swap5\n      pop\n      swap5\n      pop\n        /* \"BasicEnzian.sol\":3692:4148  function getTaskById(uint _id) public view\r... */\n      swap2\n      swap4\n      swap6\n      swap1\n      swap3\n      swap5\n      pop\n      jump\t// out\n        /* \"BasicEnzian.sol\":3464:3587  function isTaskCompletedById(uint _id) public view returns (bool success){\r... */\n    tag_42:\n        /* \"BasicEnzian.sol\":3524:3536  bool success */\n      0x00\n        /* \"BasicEnzian.sol\":3558:3563  tasks */\n      0x01\n        /* \"BasicEnzian.sol\":3558:3568  tasks[_id] */\n      0x00\n        /* \"BasicEnzian.sol\":3564:3567  _id */\n      dup4\n        /* \"BasicEnzian.sol\":3558:3568  tasks[_id] */\n      dup2\n      mstore\n      0x20\n      add\n      swap1\n      dup2\n      mstore\n      0x20\n      add\n      0x00\n      keccak256\n        /* \"BasicEnzian.sol\":3558:3578  tasks[_id].completed */\n      0x00\n      add\n      0x00\n      swap1\n      sload\n      swap1\n      0x0100\n      exp\n      swap1\n      div\n      0xff\n      and\n        /* \"BasicEnzian.sol\":3550:3579  return (tasks[_id].completed) */\n      swap1\n      pop\n        /* \"BasicEnzian.sol\":3464:3587  function isTaskCompletedById(uint _id) public view returns (bool success){\r... */\n      swap2\n      swap1\n      pop\n      jump\t// out\n        /* \"BasicEnzian.sol\":4229:4350  function getTaskActivityById(uint _id) public view returns (string memory){\r... */\n    tag_46:\n        /* \"BasicEnzian.sol\":4289:4302  string memory */\n      0x60\n        /* \"BasicEnzian.sol\":4322:4327  tasks */\n      0x01\n        /* \"BasicEnzian.sol\":4322:4332  tasks[_id] */\n      0x00\n        /* \"BasicEnzian.sol\":4328:4331  _id */\n      dup4\n        /* \"BasicEnzian.sol\":4322:4332  tasks[_id] */\n      dup2\n      mstore\n      0x20\n      add\n      swap1\n      dup2\n      mstore\n      0x20\n      add\n      0x00\n      keccak256\n        /* \"BasicEnzian.sol\":4322:4341  tasks[_id].activity */\n      0x01\n      add\n        /* \"BasicEnzian.sol\":4314:4342  return (tasks[_id].activity) */\n      dup1\n      sload\n      tag_131\n      swap1\n      tag_120\n      jump\t// in\n    tag_131:\n      dup1\n      0x1f\n      add\n      0x20\n      dup1\n      swap2\n      div\n      mul\n      0x20\n      add\n      mload(0x40)\n      swap1\n      dup2\n      add\n      0x40\n      mstore\n      dup1\n      swap3\n      swap2\n      swap1\n      dup2\n      dup2\n      mstore\n      0x20\n      add\n      dup3\n      dup1\n      sload\n      tag_132\n      swap1\n      tag_120\n      jump\t// in\n    tag_132:\n      dup1\n      iszero\n      tag_133\n      jumpi\n      dup1\n      0x1f\n      lt\n      tag_134\n      jumpi\n      0x0100\n      dup1\n      dup4\n      sload\n      div\n      mul\n      dup4\n      mstore\n      swap2\n      0x20\n      add\n      swap2\n      jump(tag_133)\n    tag_134:\n      dup3\n      add\n      swap2\n      swap1\n      0x00\n      mstore\n      keccak256(0x00, 0x20)\n      swap1\n    tag_135:\n      dup2\n      sload\n      dup2\n      mstore\n      swap1\n      0x01\n      add\n      swap1\n      0x20\n      add\n      dup1\n      dup4\n      gt\n      tag_135\n      jumpi\n      dup3\n      swap1\n      sub\n      0x1f\n      and\n      dup3\n      add\n      swap2\n    tag_133:\n      pop\n      pop\n      pop\n      pop\n      pop\n      swap1\n      pop\n        /* \"BasicEnzian.sol\":4229:4350  function getTaskActivityById(uint _id) public view returns (string memory){\r... */\n      swap2\n      swap1\n      pop\n      jump\t// out\n    tag_57:\n      dup3\n      dup1\n      sload\n      tag_136\n      swap1\n      tag_120\n      jump\t// in\n    tag_136:\n      swap1\n      0x00\n      mstore\n      keccak256(0x00, 0x20)\n      swap1\n      0x1f\n      add\n      0x20\n      swap1\n      div\n      dup2\n      add\n      swap3\n      dup3\n      tag_138\n      jumpi\n      0x00\n      dup6\n      sstore\n      jump(tag_137)\n    tag_138:\n      dup3\n      0x1f\n      lt\n      tag_139\n      jumpi\n      dup1\n      mload\n      not(0xff)\n      and\n      dup4\n      dup1\n      add\n      or\n      dup6\n      sstore\n      jump(tag_137)\n    tag_139:\n      dup3\n      dup1\n      add\n      0x01\n      add\n      dup6\n      sstore\n      dup3\n      iszero\n      tag_137\n      jumpi\n      swap2\n      dup3\n      add\n    tag_140:\n      dup3\n      dup2\n      gt\n      iszero\n      tag_141\n      jumpi\n      dup3\n      mload\n      dup3\n      sstore\n      swap2\n      0x20\n      add\n      swap2\n      swap1\n      0x01\n      add\n      swap1\n      jump(tag_140)\n    tag_141:\n    tag_137:\n      pop\n      swap1\n      pop\n      tag_142\n      swap2\n      swap1\n      tag_143\n      jump\t// in\n    tag_142:\n      pop\n      swap1\n      jump\t// out\n    tag_60:\n      dup3\n      dup1\n      sload\n      dup3\n      dup3\n      sstore\n      swap1\n      0x00\n      mstore\n      keccak256(0x00, 0x20)\n      swap1\n      dup2\n      add\n      swap3\n      dup3\n      iszero\n      tag_144\n      jumpi\n      swap2\n      0x20\n      mul\n      dup3\n      add\n    tag_145:\n      dup3\n      dup2\n      gt\n      iszero\n      tag_146\n      jumpi\n      dup3\n      mload\n      dup3\n      sstore\n      swap2\n      0x20\n      add\n      swap2\n      swap1\n      0x01\n      add\n      swap1\n      jump(tag_145)\n    tag_146:\n    tag_144:\n      pop\n      swap1\n      pop\n      tag_147\n      swap2\n      swap1\n      tag_143\n      jump\t// in\n    tag_147:\n      pop\n      swap1\n      jump\t// out\n    tag_143:\n    tag_148:\n      dup1\n      dup3\n      gt\n      iszero\n      tag_149\n      jumpi\n      0x00\n      dup2\n      0x00\n      swap1\n      sstore\n      pop\n      0x01\n      add\n      jump(tag_148)\n    tag_149:\n      pop\n      swap1\n      jump\t// out\n        /* \"#utility.yul\":24:646   */\n    tag_151:\n      0x00\n        /* \"#utility.yul\":145:225   */\n      tag_153\n        /* \"#utility.yul\":160:224   */\n      tag_154\n        /* \"#utility.yul\":217:223   */\n      dup5\n        /* \"#utility.yul\":160:224   */\n      tag_155\n      jump\t// in\n    tag_154:\n        /* \"#utility.yul\":145:225   */\n      tag_156\n      jump\t// in\n    tag_153:\n        /* \"#utility.yul\":136:225   */\n      swap1\n      pop\n        /* \"#utility.yul\":245:250   */\n      dup1\n        /* \"#utility.yul\":273:279   */\n      dup4\n        /* \"#utility.yul\":266:271   */\n      dup3\n        /* \"#utility.yul\":259:280   */\n      mstore\n        /* \"#utility.yul\":299:303   */\n      0x20\n        /* \"#utility.yul\":292:297   */\n      dup3\n        /* \"#utility.yul\":288:304   */\n      add\n        /* \"#utility.yul\":281:304   */\n      swap1\n      pop\n        /* \"#utility.yul\":324:330   */\n      dup3\n        /* \"#utility.yul\":374:377   */\n      dup6\n        /* \"#utility.yul\":366:370   */\n      0x20\n        /* \"#utility.yul\":358:364   */\n      dup7\n        /* \"#utility.yul\":354:371   */\n      mul\n        /* \"#utility.yul\":349:352   */\n      dup3\n        /* \"#utility.yul\":345:372   */\n      add\n        /* \"#utility.yul\":342:378   */\n      gt\n        /* \"#utility.yul\":339:341   */\n      iszero\n      tag_157\n      jumpi\n        /* \"#utility.yul\":391:392   */\n      0x00\n        /* \"#utility.yul\":388:389   */\n      dup1\n        /* \"#utility.yul\":381:393   */\n      revert\n        /* \"#utility.yul\":339:341   */\n    tag_157:\n        /* \"#utility.yul\":419:420   */\n      0x00\n        /* \"#utility.yul\":404:640   */\n    tag_158:\n        /* \"#utility.yul\":429:435   */\n      dup6\n        /* \"#utility.yul\":426:427   */\n      dup2\n        /* \"#utility.yul\":423:436   */\n      lt\n        /* \"#utility.yul\":404:640   */\n      iszero\n      tag_160\n      jumpi\n        /* \"#utility.yul\":496:499   */\n      dup2\n        /* \"#utility.yul\":524:561   */\n      tag_161\n        /* \"#utility.yul\":557:560   */\n      dup9\n        /* \"#utility.yul\":545:555   */\n      dup3\n        /* \"#utility.yul\":524:561   */\n      tag_162\n      jump\t// in\n    tag_161:\n        /* \"#utility.yul\":519:522   */\n      dup5\n        /* \"#utility.yul\":512:562   */\n      mstore\n        /* \"#utility.yul\":591:595   */\n      0x20\n        /* \"#utility.yul\":586:589   */\n      dup5\n        /* \"#utility.yul\":582:596   */\n      add\n        /* \"#utility.yul\":575:596   */\n      swap4\n      pop\n        /* \"#utility.yul\":625:629   */\n      0x20\n        /* \"#utility.yul\":620:623   */\n      dup4\n        /* \"#utility.yul\":616:630   */\n      add\n        /* \"#utility.yul\":609:630   */\n      swap3\n      pop\n        /* \"#utility.yul\":464:640   */\n      pop\n        /* \"#utility.yul\":451:452   */\n      0x01\n        /* \"#utility.yul\":448:449   */\n      dup2\n        /* \"#utility.yul\":444:453   */\n      add\n        /* \"#utility.yul\":439:453   */\n      swap1\n      pop\n        /* \"#utility.yul\":404:640   */\n      jump(tag_158)\n    tag_160:\n        /* \"#utility.yul\":408:422   */\n      pop\n        /* \"#utility.yul\":126:646   */\n      pop\n      pop\n      swap4\n      swap3\n      pop\n      pop\n      pop\n      jump\t// out\n        /* \"#utility.yul\":652:996   */\n    tag_163:\n      0x00\n        /* \"#utility.yul\":755:820   */\n      tag_165\n        /* \"#utility.yul\":770:819   */\n      tag_166\n        /* \"#utility.yul\":812:818   */\n      dup5\n        /* \"#utility.yul\":770:819   */\n      tag_167\n      jump\t// in\n    tag_166:\n        /* \"#utility.yul\":755:820   */\n      tag_156\n      jump\t// in\n    tag_165:\n        /* \"#utility.yul\":746:820   */\n      swap1\n      pop\n        /* \"#utility.yul\":843:849   */\n      dup3\n        /* \"#utility.yul\":836:841   */\n      dup2\n        /* \"#utility.yul\":829:850   */\n      mstore\n        /* \"#utility.yul\":881:885   */\n      0x20\n        /* \"#utility.yul\":874:879   */\n      dup2\n        /* \"#utility.yul\":870:886   */\n      add\n        /* \"#utility.yul\":919:922   */\n      dup5\n        /* \"#utility.yul\":910:916   */\n      dup5\n        /* \"#utility.yul\":905:908   */\n      dup5\n        /* \"#utility.yul\":901:917   */\n      add\n        /* \"#utility.yul\":898:923   */\n      gt\n        /* \"#utility.yul\":895:897   */\n      iszero\n      tag_168\n      jumpi\n        /* \"#utility.yul\":936:937   */\n      0x00\n        /* \"#utility.yul\":933:934   */\n      dup1\n        /* \"#utility.yul\":926:938   */\n      revert\n        /* \"#utility.yul\":895:897   */\n    tag_168:\n        /* \"#utility.yul\":949:990   */\n      tag_169\n        /* \"#utility.yul\":983:989   */\n      dup5\n        /* \"#utility.yul\":978:981   */\n      dup3\n        /* \"#utility.yul\":973:976   */\n      dup6\n        /* \"#utility.yul\":949:990   */\n      tag_170\n      jump\t// in\n    tag_169:\n        /* \"#utility.yul\":736:996   */\n      pop\n      swap4\n      swap3\n      pop\n      pop\n      pop\n      jump\t// out\n        /* \"#utility.yul\":1019:1322   */\n    tag_171:\n      0x00\n        /* \"#utility.yul\":1139:1142   */\n      dup3\n        /* \"#utility.yul\":1132:1136   */\n      0x1f\n        /* \"#utility.yul\":1124:1130   */\n      dup4\n        /* \"#utility.yul\":1120:1137   */\n      add\n        /* \"#utility.yul\":1116:1143   */\n      slt\n        /* \"#utility.yul\":1106:1108   */\n      tag_173\n      jumpi\n        /* \"#utility.yul\":1157:1158   */\n      0x00\n        /* \"#utility.yul\":1154:1155   */\n      dup1\n        /* \"#utility.yul\":1147:1159   */\n      revert\n        /* \"#utility.yul\":1106:1108   */\n    tag_173:\n        /* \"#utility.yul\":1197:1203   */\n      dup2\n        /* \"#utility.yul\":1184:1204   */\n      calldataload\n        /* \"#utility.yul\":1222:1316   */\n      tag_174\n        /* \"#utility.yul\":1312:1315   */\n      dup5\n        /* \"#utility.yul\":1304:1310   */\n      dup3\n        /* \"#utility.yul\":1297:1301   */\n      0x20\n        /* \"#utility.yul\":1289:1295   */\n      dup7\n        /* \"#utility.yul\":1285:1302   */\n      add\n        /* \"#utility.yul\":1222:1316   */\n      tag_151\n      jump\t// in\n    tag_174:\n        /* \"#utility.yul\":1213:1316   */\n      swap2\n      pop\n        /* \"#utility.yul\":1096:1322   */\n      pop\n      swap3\n      swap2\n      pop\n      pop\n      jump\t// out\n        /* \"#utility.yul\":1328:1487   */\n    tag_175:\n      0x00\n        /* \"#utility.yul\":1422:1428   */\n      dup2\n        /* \"#utility.yul\":1409:1429   */\n      calldataload\n        /* \"#utility.yul\":1400:1429   */\n      swap1\n      pop\n        /* \"#utility.yul\":1438:1481   */\n      tag_177\n        /* \"#utility.yul\":1475:1480   */\n      dup2\n        /* \"#utility.yul\":1438:1481   */\n      tag_178\n      jump\t// in\n    tag_177:\n        /* \"#utility.yul\":1390:1487   */\n      swap3\n      swap2\n      pop\n      pop\n      jump\t// out\n        /* \"#utility.yul\":1507:1780   */\n    tag_179:\n      0x00\n        /* \"#utility.yul\":1612:1615   */\n      dup3\n        /* \"#utility.yul\":1605:1609   */\n      0x1f\n        /* \"#utility.yul\":1597:1603   */\n      dup4\n        /* \"#utility.yul\":1593:1610   */\n      add\n        /* \"#utility.yul\":1589:1616   */\n      slt\n        /* \"#utility.yul\":1579:1581   */\n      tag_181\n      jumpi\n        /* \"#utility.yul\":1630:1631   */\n      0x00\n        /* \"#utility.yul\":1627:1628   */\n      dup1\n        /* \"#utility.yul\":1620:1632   */\n      revert\n        /* \"#utility.yul\":1579:1581   */\n    tag_181:\n        /* \"#utility.yul\":1670:1676   */\n      dup2\n        /* \"#utility.yul\":1657:1677   */\n      calldataload\n        /* \"#utility.yul\":1695:1774   */\n      tag_182\n        /* \"#utility.yul\":1770:1773   */\n      dup5\n        /* \"#utility.yul\":1762:1768   */\n      dup3\n        /* \"#utility.yul\":1755:1759   */\n      0x20\n        /* \"#utility.yul\":1747:1753   */\n      dup7\n        /* \"#utility.yul\":1743:1760   */\n      add\n        /* \"#utility.yul\":1695:1774   */\n      tag_163\n      jump\t// in\n    tag_182:\n        /* \"#utility.yul\":1686:1774   */\n      swap2\n      pop\n        /* \"#utility.yul\":1569:1780   */\n      pop\n      swap3\n      swap2\n      pop\n      pop\n      jump\t// out\n        /* \"#utility.yul\":1786:1925   */\n    tag_162:\n      0x00\n        /* \"#utility.yul\":1870:1876   */\n      dup2\n        /* \"#utility.yul\":1857:1877   */\n      calldataload\n        /* \"#utility.yul\":1848:1877   */\n      swap1\n      pop\n        /* \"#utility.yul\":1886:1919   */\n      tag_184\n        /* \"#utility.yul\":1913:1918   */\n      dup2\n        /* \"#utility.yul\":1886:1919   */\n      tag_185\n      jump\t// in\n    tag_184:\n        /* \"#utility.yul\":1838:1925   */\n      swap3\n      swap2\n      pop\n      pop\n      jump\t// out\n        /* \"#utility.yul\":1931:3048   */\n    tag_24:\n      0x00\n      dup1\n      0x00\n      dup1\n        /* \"#utility.yul\":2160:2163   */\n      0x80\n        /* \"#utility.yul\":2148:2157   */\n      dup6\n        /* \"#utility.yul\":2139:2146   */\n      dup8\n        /* \"#utility.yul\":2135:2158   */\n      sub\n        /* \"#utility.yul\":2131:2164   */\n      slt\n        /* \"#utility.yul\":2128:2130   */\n      iszero\n      tag_187\n      jumpi\n        /* \"#utility.yul\":2177:2178   */\n      0x00\n        /* \"#utility.yul\":2174:2175   */\n      dup1\n        /* \"#utility.yul\":2167:2179   */\n      revert\n        /* \"#utility.yul\":2128:2130   */\n    tag_187:\n        /* \"#utility.yul\":2248:2249   */\n      0x00\n        /* \"#utility.yul\":2237:2246   */\n      dup6\n        /* \"#utility.yul\":2233:2250   */\n      add\n        /* \"#utility.yul\":2220:2251   */\n      calldataload\n        /* \"#utility.yul\":2278:2296   */\n      0xffffffffffffffff\n        /* \"#utility.yul\":2270:2276   */\n      dup2\n        /* \"#utility.yul\":2267:2297   */\n      gt\n        /* \"#utility.yul\":2264:2266   */\n      iszero\n      tag_188\n      jumpi\n        /* \"#utility.yul\":2310:2311   */\n      0x00\n        /* \"#utility.yul\":2307:2308   */\n      dup1\n        /* \"#utility.yul\":2300:2312   */\n      revert\n        /* \"#utility.yul\":2264:2266   */\n    tag_188:\n        /* \"#utility.yul\":2338:2401   */\n      tag_189\n        /* \"#utility.yul\":2393:2400   */\n      dup8\n        /* \"#utility.yul\":2384:2390   */\n      dup3\n        /* \"#utility.yul\":2373:2382   */\n      dup9\n        /* \"#utility.yul\":2369:2391   */\n      add\n        /* \"#utility.yul\":2338:2401   */\n      tag_179\n      jump\t// in\n    tag_189:\n        /* \"#utility.yul\":2328:2401   */\n      swap5\n      pop\n        /* \"#utility.yul\":2191:2411   */\n      pop\n        /* \"#utility.yul\":2450:2452   */\n      0x20\n        /* \"#utility.yul\":2476:2539   */\n      tag_190\n        /* \"#utility.yul\":2531:2538   */\n      dup8\n        /* \"#utility.yul\":2522:2528   */\n      dup3\n        /* \"#utility.yul\":2511:2520   */\n      dup9\n        /* \"#utility.yul\":2507:2529   */\n      add\n        /* \"#utility.yul\":2476:2539   */\n      tag_175\n      jump\t// in\n    tag_190:\n        /* \"#utility.yul\":2466:2539   */\n      swap4\n      pop\n        /* \"#utility.yul\":2421:2549   */\n      pop\n        /* \"#utility.yul\":2616:2618   */\n      0x40\n        /* \"#utility.yul\":2605:2614   */\n      dup6\n        /* \"#utility.yul\":2601:2619   */\n      add\n        /* \"#utility.yul\":2588:2620   */\n      calldataload\n        /* \"#utility.yul\":2647:2665   */\n      0xffffffffffffffff\n        /* \"#utility.yul\":2639:2645   */\n      dup2\n        /* \"#utility.yul\":2636:2666   */\n      gt\n        /* \"#utility.yul\":2633:2635   */\n      iszero\n      tag_191\n      jumpi\n        /* \"#utility.yul\":2679:2680   */\n      0x00\n        /* \"#utility.yul\":2676:2677   */\n      dup1\n        /* \"#utility.yul\":2669:2681   */\n      revert\n        /* \"#utility.yul\":2633:2635   */\n    tag_191:\n        /* \"#utility.yul\":2707:2785   */\n      tag_192\n        /* \"#utility.yul\":2777:2784   */\n      dup8\n        /* \"#utility.yul\":2768:2774   */\n      dup3\n        /* \"#utility.yul\":2757:2766   */\n      dup9\n        /* \"#utility.yul\":2753:2775   */\n      add\n        /* \"#utility.yul\":2707:2785   */\n      tag_171\n      jump\t// in\n    tag_192:\n        /* \"#utility.yul\":2697:2785   */\n      swap3\n      pop\n        /* \"#utility.yul\":2559:2795   */\n      pop\n        /* \"#utility.yul\":2862:2864   */\n      0x60\n        /* \"#utility.yul\":2851:2860   */\n      dup6\n        /* \"#utility.yul\":2847:2865   */\n      add\n        /* \"#utility.yul\":2834:2866   */\n      calldataload\n        /* \"#utility.yul\":2893:2911   */\n      0xffffffffffffffff\n        /* \"#utility.yul\":2885:2891   */\n      dup2\n        /* \"#utility.yul\":2882:2912   */\n      gt\n        /* \"#utility.yul\":2879:2881   */\n      iszero\n      tag_193\n      jumpi\n        /* \"#utility.yul\":2925:2926   */\n      0x00\n        /* \"#utility.yul\":2922:2923   */\n      dup1\n        /* \"#utility.yul\":2915:2927   */\n      revert\n        /* \"#utility.yul\":2879:2881   */\n    tag_193:\n        /* \"#utility.yul\":2953:3031   */\n      tag_194\n        /* \"#utility.yul\":3023:3030   */\n      dup8\n        /* \"#utility.yul\":3014:3020   */\n      dup3\n        /* \"#utility.yul\":3003:3012   */\n      dup9\n        /* \"#utility.yul\":2999:3021   */\n      add\n        /* \"#utility.yul\":2953:3031   */\n      tag_171\n      jump\t// in\n    tag_194:\n        /* \"#utility.yul\":2943:3031   */\n      swap2\n      pop\n        /* \"#utility.yul\":2805:3041   */\n      pop\n        /* \"#utility.yul\":2118:3048   */\n      swap3\n      swap6\n      swap2\n      swap5\n      pop\n      swap3\n      pop\n      jump\t// out\n        /* \"#utility.yul\":3054:3316   */\n    tag_18:\n      0x00\n        /* \"#utility.yul\":3162:3164   */\n      0x20\n        /* \"#utility.yul\":3150:3159   */\n      dup3\n        /* \"#utility.yul\":3141:3148   */\n      dup5\n        /* \"#utility.yul\":3137:3160   */\n      sub\n        /* \"#utility.yul\":3133:3165   */\n      slt\n        /* \"#utility.yul\":3130:3132   */\n      iszero\n      tag_196\n      jumpi\n        /* \"#utility.yul\":3178:3179   */\n      0x00\n        /* \"#utility.yul\":3175:3176   */\n      dup1\n        /* \"#utility.yul\":3168:3180   */\n      revert\n        /* \"#utility.yul\":3130:3132   */\n    tag_196:\n        /* \"#utility.yul\":3221:3222   */\n      0x00\n        /* \"#utility.yul\":3246:3299   */\n      tag_197\n        /* \"#utility.yul\":3291:3298   */\n      dup5\n        /* \"#utility.yul\":3282:3288   */\n      dup3\n        /* \"#utility.yul\":3271:3280   */\n      dup6\n        /* \"#utility.yul\":3267:3289   */\n      add\n        /* \"#utility.yul\":3246:3299   */\n      tag_162\n      jump\t// in\n    tag_197:\n        /* \"#utility.yul\":3236:3299   */\n      swap2\n      pop\n        /* \"#utility.yul\":3192:3309   */\n      pop\n        /* \"#utility.yul\":3120:3316   */\n      swap3\n      swap2\n      pop\n      pop\n      jump\t// out\n        /* \"#utility.yul\":3322:3501   */\n    tag_198:\n      0x00\n        /* \"#utility.yul\":3412:3458   */\n      tag_200\n        /* \"#utility.yul\":3454:3457   */\n      dup4\n        /* \"#utility.yul\":3446:3452   */\n      dup4\n        /* \"#utility.yul\":3412:3458   */\n      tag_201\n      jump\t// in\n    tag_200:\n        /* \"#utility.yul\":3490:3494   */\n      0x20\n        /* \"#utility.yul\":3485:3488   */\n      dup4\n        /* \"#utility.yul\":3481:3495   */\n      add\n        /* \"#utility.yul\":3467:3495   */\n      swap1\n      pop\n        /* \"#utility.yul\":3402:3501   */\n      swap3\n      swap2\n      pop\n      pop\n      jump\t// out\n        /* \"#utility.yul\":3537:4269   */\n    tag_202:\n      0x00\n        /* \"#utility.yul\":3685:3739   */\n      tag_204\n        /* \"#utility.yul\":3733:3738   */\n      dup3\n        /* \"#utility.yul\":3685:3739   */\n      tag_205\n      jump\t// in\n    tag_204:\n        /* \"#utility.yul\":3755:3841   */\n      tag_206\n        /* \"#utility.yul\":3834:3840   */\n      dup2\n        /* \"#utility.yul\":3829:3832   */\n      dup6\n        /* \"#utility.yul\":3755:3841   */\n      tag_207\n      jump\t// in\n    tag_206:\n        /* \"#utility.yul\":3748:3841   */\n      swap4\n      pop\n        /* \"#utility.yul\":3865:3921   */\n      tag_208\n        /* \"#utility.yul\":3915:3920   */\n      dup4\n        /* \"#utility.yul\":3865:3921   */\n      tag_209\n      jump\t// in\n    tag_208:\n        /* \"#utility.yul\":3944:3951   */\n      dup1\n        /* \"#utility.yul\":3975:3976   */\n      0x00\n        /* \"#utility.yul\":3960:4244   */\n    tag_210:\n        /* \"#utility.yul\":3985:3991   */\n      dup4\n        /* \"#utility.yul\":3982:3983   */\n      dup2\n        /* \"#utility.yul\":3979:3992   */\n      lt\n        /* \"#utility.yul\":3960:4244   */\n      iszero\n      tag_212\n      jumpi\n        /* \"#utility.yul\":4061:4067   */\n      dup2\n        /* \"#utility.yul\":4055:4068   */\n      mload\n        /* \"#utility.yul\":4088:4151   */\n      tag_213\n        /* \"#utility.yul\":4147:4150   */\n      dup9\n        /* \"#utility.yul\":4132:4145   */\n      dup3\n        /* \"#utility.yul\":4088:4151   */\n      tag_198\n      jump\t// in\n    tag_213:\n        /* \"#utility.yul\":4081:4151   */\n      swap8\n      pop\n        /* \"#utility.yul\":4174:4234   */\n      tag_214\n        /* \"#utility.yul\":4227:4233   */\n      dup4\n        /* \"#utility.yul\":4174:4234   */\n      tag_215\n      jump\t// in\n    tag_214:\n        /* \"#utility.yul\":4164:4234   */\n      swap3\n      pop\n        /* \"#utility.yul\":4020:4244   */\n      pop\n        /* \"#utility.yul\":4007:4008   */\n      0x01\n        /* \"#utility.yul\":4004:4005   */\n      dup2\n        /* \"#utility.yul\":4000:4009   */\n      add\n        /* \"#utility.yul\":3995:4009   */\n      swap1\n      pop\n        /* \"#utility.yul\":3960:4244   */\n      jump(tag_210)\n    tag_212:\n        /* \"#utility.yul\":3964:3978   */\n      pop\n        /* \"#utility.yul\":4260:4263   */\n      dup6\n        /* \"#utility.yul\":4253:4263   */\n      swap4\n      pop\n        /* \"#utility.yul\":3661:4269   */\n      pop\n      pop\n      pop\n      swap3\n      swap2\n      pop\n      pop\n      jump\t// out\n        /* \"#utility.yul\":4275:4384   */\n    tag_216:\n        /* \"#utility.yul\":4356:4377   */\n      tag_218\n        /* \"#utility.yul\":4371:4376   */\n      dup2\n        /* \"#utility.yul\":4356:4377   */\n      tag_219\n      jump\t// in\n    tag_218:\n        /* \"#utility.yul\":4351:4354   */\n      dup3\n        /* \"#utility.yul\":4344:4378   */\n      mstore\n        /* \"#utility.yul\":4334:4384   */\n      pop\n      pop\n      jump\t// out\n        /* \"#utility.yul\":4390:4537   */\n    tag_220:\n        /* \"#utility.yul\":4485:4530   */\n      tag_222\n        /* \"#utility.yul\":4524:4529   */\n      dup2\n        /* \"#utility.yul\":4485:4530   */\n      tag_223\n      jump\t// in\n    tag_222:\n        /* \"#utility.yul\":4480:4483   */\n      dup3\n        /* \"#utility.yul\":4473:4531   */\n      mstore\n        /* \"#utility.yul\":4463:4537   */\n      pop\n      pop\n      jump\t// out\n        /* \"#utility.yul\":4543:4907   */\n    tag_224:\n      0x00\n        /* \"#utility.yul\":4659:4698   */\n      tag_226\n        /* \"#utility.yul\":4692:4697   */\n      dup3\n        /* \"#utility.yul\":4659:4698   */\n      tag_227\n      jump\t// in\n    tag_226:\n        /* \"#utility.yul\":4714:4785   */\n      tag_228\n        /* \"#utility.yul\":4778:4784   */\n      dup2\n        /* \"#utility.yul\":4773:4776   */\n      dup6\n        /* \"#utility.yul\":4714:4785   */\n      tag_229\n      jump\t// in\n    tag_228:\n        /* \"#utility.yul\":4707:4785   */\n      swap4\n      pop\n        /* \"#utility.yul\":4794:4846   */\n      tag_230\n        /* \"#utility.yul\":4839:4845   */\n      dup2\n        /* \"#utility.yul\":4834:4837   */\n      dup6\n        /* \"#utility.yul\":4827:4831   */\n      0x20\n        /* \"#utility.yul\":4820:4825   */\n      dup7\n        /* \"#utility.yul\":4816:4832   */\n      add\n        /* \"#utility.yul\":4794:4846   */\n      tag_231\n      jump\t// in\n    tag_230:\n        /* \"#utility.yul\":4871:4900   */\n      tag_232\n        /* \"#utility.yul\":4893:4899   */\n      dup2\n        /* \"#utility.yul\":4871:4900   */\n      tag_233\n      jump\t// in\n    tag_232:\n        /* \"#utility.yul\":4866:4869   */\n      dup5\n        /* \"#utility.yul\":4862:4901   */\n      add\n        /* \"#utility.yul\":4855:4901   */\n      swap2\n      pop\n        /* \"#utility.yul\":4635:4907   */\n      pop\n      swap3\n      swap2\n      pop\n      pop\n      jump\t// out\n        /* \"#utility.yul\":4913:5021   */\n    tag_201:\n        /* \"#utility.yul\":4990:5014   */\n      tag_235\n        /* \"#utility.yul\":5008:5013   */\n      dup2\n        /* \"#utility.yul\":4990:5014   */\n      tag_236\n      jump\t// in\n    tag_235:\n        /* \"#utility.yul\":4985:4988   */\n      dup3\n        /* \"#utility.yul\":4978:5015   */\n      mstore\n        /* \"#utility.yul\":4968:5021   */\n      pop\n      pop\n      jump\t// out\n        /* \"#utility.yul\":5027:5145   */\n    tag_237:\n        /* \"#utility.yul\":5114:5138   */\n      tag_239\n        /* \"#utility.yul\":5132:5137   */\n      dup2\n        /* \"#utility.yul\":5114:5138   */\n      tag_236\n      jump\t// in\n    tag_239:\n        /* \"#utility.yul\":5109:5112   */\n      dup3\n        /* \"#utility.yul\":5102:5139   */\n      mstore\n        /* \"#utility.yul\":5092:5145   */\n      pop\n      pop\n      jump\t// out\n        /* \"#utility.yul\":5151:5524   */\n    tag_15:\n      0x00\n        /* \"#utility.yul\":5332:5334   */\n      0x20\n        /* \"#utility.yul\":5321:5330   */\n      dup3\n        /* \"#utility.yul\":5317:5335   */\n      add\n        /* \"#utility.yul\":5309:5335   */\n      swap1\n      pop\n        /* \"#utility.yul\":5381:5390   */\n      dup2\n        /* \"#utility.yul\":5375:5379   */\n      dup2\n        /* \"#utility.yul\":5371:5391   */\n      sub\n        /* \"#utility.yul\":5367:5368   */\n      0x00\n        /* \"#utility.yul\":5356:5365   */\n      dup4\n        /* \"#utility.yul\":5352:5369   */\n      add\n        /* \"#utility.yul\":5345:5392   */\n      mstore\n        /* \"#utility.yul\":5409:5517   */\n      tag_241\n        /* \"#utility.yul\":5512:5516   */\n      dup2\n        /* \"#utility.yul\":5503:5509   */\n      dup5\n        /* \"#utility.yul\":5409:5517   */\n      tag_202\n      jump\t// in\n    tag_241:\n        /* \"#utility.yul\":5401:5517   */\n      swap1\n      pop\n        /* \"#utility.yul\":5299:5524   */\n      swap3\n      swap2\n      pop\n      pop\n      jump\t// out\n        /* \"#utility.yul\":5530:5740   */\n    tag_30:\n      0x00\n        /* \"#utility.yul\":5655:5657   */\n      0x20\n        /* \"#utility.yul\":5644:5653   */\n      dup3\n        /* \"#utility.yul\":5640:5658   */\n      add\n        /* \"#utility.yul\":5632:5658   */\n      swap1\n      pop\n        /* \"#utility.yul\":5668:5733   */\n      tag_243\n        /* \"#utility.yul\":5730:5731   */\n      0x00\n        /* \"#utility.yul\":5719:5728   */\n      dup4\n        /* \"#utility.yul\":5715:5732   */\n      add\n        /* \"#utility.yul\":5706:5712   */\n      dup5\n        /* \"#utility.yul\":5668:5733   */\n      tag_216\n      jump\t// in\n    tag_243:\n        /* \"#utility.yul\":5622:5740   */\n      swap3\n      swap2\n      pop\n      pop\n      jump\t// out\n        /* \"#utility.yul\":5746:6807   */\n    tag_39:\n      0x00\n        /* \"#utility.yul\":6111:6114   */\n      0xa0\n        /* \"#utility.yul\":6100:6109   */\n      dup3\n        /* \"#utility.yul\":6096:6115   */\n      add\n        /* \"#utility.yul\":6088:6115   */\n      swap1\n      pop\n        /* \"#utility.yul\":6125:6190   */\n      tag_245\n        /* \"#utility.yul\":6187:6188   */\n      0x00\n        /* \"#utility.yul\":6176:6185   */\n      dup4\n        /* \"#utility.yul\":6172:6189   */\n      add\n        /* \"#utility.yul\":6163:6169   */\n      dup9\n        /* \"#utility.yul\":6125:6190   */\n      tag_216\n      jump\t// in\n    tag_245:\n        /* \"#utility.yul\":6237:6246   */\n      dup2\n        /* \"#utility.yul\":6231:6235   */\n      dup2\n        /* \"#utility.yul\":6227:6247   */\n      sub\n        /* \"#utility.yul\":6222:6224   */\n      0x20\n        /* \"#utility.yul\":6211:6220   */\n      dup4\n        /* \"#utility.yul\":6207:6225   */\n      add\n        /* \"#utility.yul\":6200:6248   */\n      mstore\n        /* \"#utility.yul\":6265:6343   */\n      tag_246\n        /* \"#utility.yul\":6338:6342   */\n      dup2\n        /* \"#utility.yul\":6329:6335   */\n      dup8\n        /* \"#utility.yul\":6265:6343   */\n      tag_224\n      jump\t// in\n    tag_246:\n        /* \"#utility.yul\":6257:6343   */\n      swap1\n      pop\n        /* \"#utility.yul\":6353:6433   */\n      tag_247\n        /* \"#utility.yul\":6429:6431   */\n      0x40\n        /* \"#utility.yul\":6418:6427   */\n      dup4\n        /* \"#utility.yul\":6414:6432   */\n      add\n        /* \"#utility.yul\":6405:6411   */\n      dup7\n        /* \"#utility.yul\":6353:6433   */\n      tag_220\n      jump\t// in\n    tag_247:\n        /* \"#utility.yul\":6480:6489   */\n      dup2\n        /* \"#utility.yul\":6474:6478   */\n      dup2\n        /* \"#utility.yul\":6470:6490   */\n      sub\n        /* \"#utility.yul\":6465:6467   */\n      0x60\n        /* \"#utility.yul\":6454:6463   */\n      dup4\n        /* \"#utility.yul\":6450:6468   */\n      add\n        /* \"#utility.yul\":6443:6491   */\n      mstore\n        /* \"#utility.yul\":6508:6616   */\n      tag_248\n        /* \"#utility.yul\":6611:6615   */\n      dup2\n        /* \"#utility.yul\":6602:6608   */\n      dup6\n        /* \"#utility.yul\":6508:6616   */\n      tag_202\n      jump\t// in\n    tag_248:\n        /* \"#utility.yul\":6500:6616   */\n      swap1\n      pop\n        /* \"#utility.yul\":6664:6673   */\n      dup2\n        /* \"#utility.yul\":6658:6662   */\n      dup2\n        /* \"#utility.yul\":6654:6674   */\n      sub\n        /* \"#utility.yul\":6648:6651   */\n      0x80\n        /* \"#utility.yul\":6637:6646   */\n      dup4\n        /* \"#utility.yul\":6633:6652   */\n      add\n        /* \"#utility.yul\":6626:6675   */\n      mstore\n        /* \"#utility.yul\":6692:6800   */\n      tag_249\n        /* \"#utility.yul\":6795:6799   */\n      dup2\n        /* \"#utility.yul\":6786:6792   */\n      dup5\n        /* \"#utility.yul\":6692:6800   */\n      tag_202\n      jump\t// in\n    tag_249:\n        /* \"#utility.yul\":6684:6800   */\n      swap1\n      pop\n        /* \"#utility.yul\":6078:6807   */\n      swap7\n      swap6\n      pop\n      pop\n      pop\n      pop\n      pop\n      pop\n      jump\t// out\n        /* \"#utility.yul\":6813:7126   */\n    tag_48:\n      0x00\n        /* \"#utility.yul\":6964:6966   */\n      0x20\n        /* \"#utility.yul\":6953:6962   */\n      dup3\n        /* \"#utility.yul\":6949:6967   */\n      add\n        /* \"#utility.yul\":6941:6967   */\n      swap1\n      pop\n        /* \"#utility.yul\":7013:7022   */\n      dup2\n        /* \"#utility.yul\":7007:7011   */\n      dup2\n        /* \"#utility.yul\":7003:7023   */\n      sub\n        /* \"#utility.yul\":6999:7000   */\n      0x00\n        /* \"#utility.yul\":6988:6997   */\n      dup4\n        /* \"#utility.yul\":6984:7001   */\n      add\n        /* \"#utility.yul\":6977:7024   */\n      mstore\n        /* \"#utility.yul\":7041:7119   */\n      tag_251\n        /* \"#utility.yul\":7114:7118   */\n      dup2\n        /* \"#utility.yul\":7105:7111   */\n      dup5\n        /* \"#utility.yul\":7041:7119   */\n      tag_224\n      jump\t// in\n    tag_251:\n        /* \"#utility.yul\":7033:7119   */\n      swap1\n      pop\n        /* \"#utility.yul\":6931:7126   */\n      swap3\n      swap2\n      pop\n      pop\n      jump\t// out\n        /* \"#utility.yul\":7132:7354   */\n    tag_21:\n      0x00\n        /* \"#utility.yul\":7263:7265   */\n      0x20\n        /* \"#utility.yul\":7252:7261   */\n      dup3\n        /* \"#utility.yul\":7248:7266   */\n      add\n        /* \"#utility.yul\":7240:7266   */\n      swap1\n      pop\n        /* \"#utility.yul\":7276:7347   */\n      tag_253\n        /* \"#utility.yul\":7344:7345   */\n      0x00\n        /* \"#utility.yul\":7333:7342   */\n      dup4\n        /* \"#utility.yul\":7329:7346   */\n      add\n        /* \"#utility.yul\":7320:7326   */\n      dup5\n        /* \"#utility.yul\":7276:7347   */\n      tag_237\n      jump\t// in\n    tag_253:\n        /* \"#utility.yul\":7230:7354   */\n      swap3\n      swap2\n      pop\n      pop\n      jump\t// out\n        /* \"#utility.yul\":7360:7643   */\n    tag_156:\n      0x00\n        /* \"#utility.yul\":7426:7428   */\n      0x40\n        /* \"#utility.yul\":7420:7429   */\n      mload\n        /* \"#utility.yul\":7410:7429   */\n      swap1\n      pop\n        /* \"#utility.yul\":7468:7472   */\n      dup2\n        /* \"#utility.yul\":7460:7466   */\n      dup2\n        /* \"#utility.yul\":7456:7473   */\n      add\n        /* \"#utility.yul\":7575:7581   */\n      dup2\n        /* \"#utility.yul\":7563:7573   */\n      dup2\n        /* \"#utility.yul\":7560:7582   */\n      lt\n        /* \"#utility.yul\":7539:7557   */\n      0xffffffffffffffff\n        /* \"#utility.yul\":7527:7537   */\n      dup3\n        /* \"#utility.yul\":7524:7558   */\n      gt\n        /* \"#utility.yul\":7521:7583   */\n      or\n        /* \"#utility.yul\":7518:7520   */\n      iszero\n      tag_255\n      jumpi\n        /* \"#utility.yul\":7586:7604   */\n      tag_256\n      tag_257\n      jump\t// in\n    tag_256:\n        /* \"#utility.yul\":7518:7520   */\n    tag_255:\n        /* \"#utility.yul\":7626:7636   */\n      dup1\n        /* \"#utility.yul\":7622:7624   */\n      0x40\n        /* \"#utility.yul\":7615:7637   */\n      mstore\n        /* \"#utility.yul\":7400:7643   */\n      pop\n      swap2\n      swap1\n      pop\n      jump\t// out\n        /* \"#utility.yul\":7649:7960   */\n    tag_155:\n      0x00\n        /* \"#utility.yul\":7816:7834   */\n      0xffffffffffffffff\n        /* \"#utility.yul\":7808:7814   */\n      dup3\n        /* \"#utility.yul\":7805:7835   */\n      gt\n        /* \"#utility.yul\":7802:7804   */\n      iszero\n      tag_259\n      jumpi\n        /* \"#utility.yul\":7838:7856   */\n      tag_260\n      tag_257\n      jump\t// in\n    tag_260:\n        /* \"#utility.yul\":7802:7804   */\n    tag_259:\n        /* \"#utility.yul\":7888:7892   */\n      0x20\n        /* \"#utility.yul\":7880:7886   */\n      dup3\n        /* \"#utility.yul\":7876:7893   */\n      mul\n        /* \"#utility.yul\":7868:7893   */\n      swap1\n      pop\n        /* \"#utility.yul\":7948:7952   */\n      0x20\n        /* \"#utility.yul\":7942:7946   */\n      dup2\n        /* \"#utility.yul\":7938:7953   */\n      add\n        /* \"#utility.yul\":7930:7953   */\n      swap1\n      pop\n        /* \"#utility.yul\":7731:7960   */\n      swap2\n      swap1\n      pop\n      jump\t// out\n        /* \"#utility.yul\":7966:8298   */\n    tag_167:\n      0x00\n        /* \"#utility.yul\":8118:8136   */\n      0xffffffffffffffff\n        /* \"#utility.yul\":8110:8116   */\n      dup3\n        /* \"#utility.yul\":8107:8137   */\n      gt\n        /* \"#utility.yul\":8104:8106   */\n      iszero\n      tag_262\n      jumpi\n        /* \"#utility.yul\":8140:8158   */\n      tag_263\n      tag_257\n      jump\t// in\n    tag_263:\n        /* \"#utility.yul\":8104:8106   */\n    tag_262:\n        /* \"#utility.yul\":8225:8229   */\n      0x1f\n        /* \"#utility.yul\":8221:8230   */\n      not\n        /* \"#utility.yul\":8214:8218   */\n      0x1f\n        /* \"#utility.yul\":8206:8212   */\n      dup4\n        /* \"#utility.yul\":8202:8219   */\n      add\n        /* \"#utility.yul\":8198:8231   */\n      and\n        /* \"#utility.yul\":8190:8231   */\n      swap1\n      pop\n        /* \"#utility.yul\":8286:8290   */\n      0x20\n        /* \"#utility.yul\":8280:8284   */\n      dup2\n        /* \"#utility.yul\":8276:8291   */\n      add\n        /* \"#utility.yul\":8268:8291   */\n      swap1\n      pop\n        /* \"#utility.yul\":8033:8298   */\n      swap2\n      swap1\n      pop\n      jump\t// out\n        /* \"#utility.yul\":8304:8436   */\n    tag_209:\n      0x00\n        /* \"#utility.yul\":8394:8397   */\n      dup2\n        /* \"#utility.yul\":8386:8397   */\n      swap1\n      pop\n        /* \"#utility.yul\":8424:8428   */\n      0x20\n        /* \"#utility.yul\":8419:8422   */\n      dup3\n        /* \"#utility.yul\":8415:8429   */\n      add\n        /* \"#utility.yul\":8407:8429   */\n      swap1\n      pop\n        /* \"#utility.yul\":8376:8436   */\n      swap2\n      swap1\n      pop\n      jump\t// out\n        /* \"#utility.yul\":8442:8556   */\n    tag_205:\n      0x00\n        /* \"#utility.yul\":8543:8548   */\n      dup2\n        /* \"#utility.yul\":8537:8549   */\n      mload\n        /* \"#utility.yul\":8527:8549   */\n      swap1\n      pop\n        /* \"#utility.yul\":8516:8556   */\n      swap2\n      swap1\n      pop\n      jump\t// out\n        /* \"#utility.yul\":8562:8661   */\n    tag_227:\n      0x00\n        /* \"#utility.yul\":8648:8653   */\n      dup2\n        /* \"#utility.yul\":8642:8654   */\n      mload\n        /* \"#utility.yul\":8632:8654   */\n      swap1\n      pop\n        /* \"#utility.yul\":8621:8661   */\n      swap2\n      swap1\n      pop\n      jump\t// out\n        /* \"#utility.yul\":8667:8780   */\n    tag_215:\n      0x00\n        /* \"#utility.yul\":8769:8773   */\n      0x20\n        /* \"#utility.yul\":8764:8767   */\n      dup3\n        /* \"#utility.yul\":8760:8774   */\n      add\n        /* \"#utility.yul\":8752:8774   */\n      swap1\n      pop\n        /* \"#utility.yul\":8742:8780   */\n      swap2\n      swap1\n      pop\n      jump\t// out\n        /* \"#utility.yul\":8786:8970   */\n    tag_207:\n      0x00\n        /* \"#utility.yul\":8919:8925   */\n      dup3\n        /* \"#utility.yul\":8914:8917   */\n      dup3\n        /* \"#utility.yul\":8907:8926   */\n      mstore\n        /* \"#utility.yul\":8959:8963   */\n      0x20\n        /* \"#utility.yul\":8954:8957   */\n      dup3\n        /* \"#utility.yul\":8950:8964   */\n      add\n        /* \"#utility.yul\":8935:8964   */\n      swap1\n      pop\n        /* \"#utility.yul\":8897:8970   */\n      swap3\n      swap2\n      pop\n      pop\n      jump\t// out\n        /* \"#utility.yul\":8976:9145   */\n    tag_229:\n      0x00\n        /* \"#utility.yul\":9094:9100   */\n      dup3\n        /* \"#utility.yul\":9089:9092   */\n      dup3\n        /* \"#utility.yul\":9082:9101   */\n      mstore\n        /* \"#utility.yul\":9134:9138   */\n      0x20\n        /* \"#utility.yul\":9129:9132   */\n      dup3\n        /* \"#utility.yul\":9125:9139   */\n      add\n        /* \"#utility.yul\":9110:9139   */\n      swap1\n      pop\n        /* \"#utility.yul\":9072:9145   */\n      swap3\n      swap2\n      pop\n      pop\n      jump\t// out\n        /* \"#utility.yul\":9151:9241   */\n    tag_219:\n      0x00\n        /* \"#utility.yul\":9228:9233   */\n      dup2\n        /* \"#utility.yul\":9221:9234   */\n      iszero\n        /* \"#utility.yul\":9214:9235   */\n      iszero\n        /* \"#utility.yul\":9203:9235   */\n      swap1\n      pop\n        /* \"#utility.yul\":9193:9241   */\n      swap2\n      swap1\n      pop\n      jump\t// out\n        /* \"#utility.yul\":9247:9378   */\n    tag_271:\n      0x00\n        /* \"#utility.yul\":9323:9328   */\n      dup2\n        /* \"#utility.yul\":9312:9328   */\n      swap1\n      pop\n        /* \"#utility.yul\":9329:9372   */\n      tag_273\n        /* \"#utility.yul\":9366:9371   */\n      dup3\n        /* \"#utility.yul\":9329:9372   */\n      tag_274\n      jump\t// in\n    tag_273:\n        /* \"#utility.yul\":9302:9378   */\n      swap2\n      swap1\n      pop\n      jump\t// out\n        /* \"#utility.yul\":9384:9461   */\n    tag_236:\n      0x00\n        /* \"#utility.yul\":9450:9455   */\n      dup2\n        /* \"#utility.yul\":9439:9455   */\n      swap1\n      pop\n        /* \"#utility.yul\":9429:9461   */\n      swap2\n      swap1\n      pop\n      jump\t// out\n        /* \"#utility.yul\":9467:9598   */\n    tag_223:\n      0x00\n        /* \"#utility.yul\":9558:9592   */\n      tag_277\n        /* \"#utility.yul\":9586:9591   */\n      dup3\n        /* \"#utility.yul\":9558:9592   */\n      tag_271\n      jump\t// in\n    tag_277:\n        /* \"#utility.yul\":9545:9592   */\n      swap1\n      pop\n        /* \"#utility.yul\":9535:9598   */\n      swap2\n      swap1\n      pop\n      jump\t// out\n        /* \"#utility.yul\":9604:9758   */\n    tag_170:\n        /* \"#utility.yul\":9688:9694   */\n      dup3\n        /* \"#utility.yul\":9683:9686   */\n      dup2\n        /* \"#utility.yul\":9678:9681   */\n      dup4\n        /* \"#utility.yul\":9665:9695   */\n      calldatacopy\n        /* \"#utility.yul\":9750:9751   */\n      0x00\n        /* \"#utility.yul\":9741:9747   */\n      dup4\n        /* \"#utility.yul\":9736:9739   */\n      dup4\n        /* \"#utility.yul\":9732:9748   */\n      add\n        /* \"#utility.yul\":9725:9752   */\n      mstore\n        /* \"#utility.yul\":9655:9758   */\n      pop\n      pop\n      pop\n      jump\t// out\n        /* \"#utility.yul\":9764:10071   */\n    tag_231:\n        /* \"#utility.yul\":9832:9833   */\n      0x00\n        /* \"#utility.yul\":9842:9955   */\n    tag_280:\n        /* \"#utility.yul\":9856:9862   */\n      dup4\n        /* \"#utility.yul\":9853:9854   */\n      dup2\n        /* \"#utility.yul\":9850:9863   */\n      lt\n        /* \"#utility.yul\":9842:9955   */\n      iszero\n      tag_282\n      jumpi\n        /* \"#utility.yul\":9941:9942   */\n      dup1\n        /* \"#utility.yul\":9936:9939   */\n      dup3\n        /* \"#utility.yul\":9932:9943   */\n      add\n        /* \"#utility.yul\":9926:9944   */\n      mload\n        /* \"#utility.yul\":9922:9923   */\n      dup2\n        /* \"#utility.yul\":9917:9920   */\n      dup5\n        /* \"#utility.yul\":9913:9924   */\n      add\n        /* \"#utility.yul\":9906:9945   */\n      mstore\n        /* \"#utility.yul\":9878:9880   */\n      0x20\n        /* \"#utility.yul\":9875:9876   */\n      dup2\n        /* \"#utility.yul\":9871:9881   */\n      add\n        /* \"#utility.yul\":9866:9881   */\n      swap1\n      pop\n        /* \"#utility.yul\":9842:9955   */\n      jump(tag_280)\n    tag_282:\n        /* \"#utility.yul\":9973:9979   */\n      dup4\n        /* \"#utility.yul\":9970:9971   */\n      dup2\n        /* \"#utility.yul\":9967:9980   */\n      gt\n        /* \"#utility.yul\":9964:9966   */\n      iszero\n      tag_283\n      jumpi\n        /* \"#utility.yul\":10053:10054   */\n      0x00\n        /* \"#utility.yul\":10044:10050   */\n      dup5\n        /* \"#utility.yul\":10039:10042   */\n      dup5\n        /* \"#utility.yul\":10035:10051   */\n      add\n        /* \"#utility.yul\":10028:10055   */\n      mstore\n        /* \"#utility.yul\":9964:9966   */\n    tag_283:\n        /* \"#utility.yul\":9813:10071   */\n      pop\n      pop\n      pop\n      pop\n      jump\t// out\n        /* \"#utility.yul\":10077:10397   */\n    tag_120:\n      0x00\n        /* \"#utility.yul\":10158:10159   */\n      0x02\n        /* \"#utility.yul\":10152:10156   */\n      dup3\n        /* \"#utility.yul\":10148:10160   */\n      div\n        /* \"#utility.yul\":10138:10160   */\n      swap1\n      pop\n        /* \"#utility.yul\":10205:10206   */\n      0x01\n        /* \"#utility.yul\":10199:10203   */\n      dup3\n        /* \"#utility.yul\":10195:10207   */\n      and\n        /* \"#utility.yul\":10226:10244   */\n      dup1\n        /* \"#utility.yul\":10216:10218   */\n      tag_285\n      jumpi\n        /* \"#utility.yul\":10282:10286   */\n      0x7f\n        /* \"#utility.yul\":10274:10280   */\n      dup3\n        /* \"#utility.yul\":10270:10287   */\n      and\n        /* \"#utility.yul\":10260:10287   */\n      swap2\n      pop\n        /* \"#utility.yul\":10216:10218   */\n    tag_285:\n        /* \"#utility.yul\":10344:10346   */\n      0x20\n        /* \"#utility.yul\":10336:10342   */\n      dup3\n        /* \"#utility.yul\":10333:10347   */\n      lt\n        /* \"#utility.yul\":10313:10331   */\n      dup2\n        /* \"#utility.yul\":10310:10348   */\n      eq\n        /* \"#utility.yul\":10307:10309   */\n      iszero\n      tag_286\n      jumpi\n        /* \"#utility.yul\":10363:10381   */\n      tag_287\n      tag_288\n      jump\t// in\n    tag_287:\n        /* \"#utility.yul\":10307:10309   */\n    tag_286:\n        /* \"#utility.yul\":10128:10397   */\n      pop\n      swap2\n      swap1\n      pop\n      jump\t// out\n        /* \"#utility.yul\":10403:10636   */\n    tag_63:\n      0x00\n        /* \"#utility.yul\":10465:10489   */\n      tag_290\n        /* \"#utility.yul\":10483:10488   */\n      dup3\n        /* \"#utility.yul\":10465:10489   */\n      tag_236\n      jump\t// in\n    tag_290:\n        /* \"#utility.yul\":10456:10489   */\n      swap2\n      pop\n        /* \"#utility.yul\":10511:10577   */\n      0xffffffffffffffffffffffffffffffffffffffffffffffffffffffffffffffff\n        /* \"#utility.yul\":10504:10509   */\n      dup3\n        /* \"#utility.yul\":10501:10578   */\n      eq\n        /* \"#utility.yul\":10498:10500   */\n      iszero\n      tag_291\n      jumpi\n        /* \"#utility.yul\":10581:10599   */\n      tag_292\n      tag_293\n      jump\t// in\n    tag_292:\n        /* \"#utility.yul\":10498:10500   */\n    tag_291:\n        /* \"#utility.yul\":10628:10629   */\n      0x01\n        /* \"#utility.yul\":10621:10626   */\n      dup3\n        /* \"#utility.yul\":10617:10630   */\n      add\n        /* \"#utility.yul\":10610:10630   */\n      swap1\n      pop\n        /* \"#utility.yul\":10446:10636   */\n      swap2\n      swap1\n      pop\n      jump\t// out\n        /* \"#utility.yul\":10642:10822   */\n    tag_293:\n        /* \"#utility.yul\":10690:10767   */\n      0x4e487b7100000000000000000000000000000000000000000000000000000000\n        /* \"#utility.yul\":10687:10688   */\n      0x00\n        /* \"#utility.yul\":10680:10768   */\n      mstore\n        /* \"#utility.yul\":10787:10791   */\n      0x11\n        /* \"#utility.yul\":10784:10785   */\n      0x04\n        /* \"#utility.yul\":10777:10792   */\n      mstore\n        /* \"#utility.yul\":10811:10815   */\n      0x24\n        /* \"#utility.yul\":10808:10809   */\n      0x00\n        /* \"#utility.yul\":10801:10816   */\n      revert\n        /* \"#utility.yul\":10828:11008   */\n    tag_295:\n        /* \"#utility.yul\":10876:10953   */\n      0x4e487b7100000000000000000000000000000000000000000000000000000000\n        /* \"#utility.yul\":10873:10874   */\n      0x00\n        /* \"#utility.yul\":10866:10954   */\n      mstore\n        /* \"#utility.yul\":10973:10977   */\n      0x21\n        /* \"#utility.yul\":10970:10971   */\n      0x04\n        /* \"#utility.yul\":10963:10978   */\n      mstore\n        /* \"#utility.yul\":10997:11001   */\n      0x24\n        /* \"#utility.yul\":10994:10995   */\n      0x00\n        /* \"#utility.yul\":10987:11002   */\n      revert\n        /* \"#utility.yul\":11014:11194   */\n    tag_288:\n        /* \"#utility.yul\":11062:11139   */\n      0x4e487b7100000000000000000000000000000000000000000000000000000000\n        /* \"#utility.yul\":11059:11060   */\n      0x00\n        /* \"#utility.yul\":11052:11140   */\n      mstore\n        /* \"#utility.yul\":11159:11163   */\n      0x22\n        /* \"#utility.yul\":11156:11157   */\n      0x04\n        /* \"#utility.yul\":11149:11164   */\n      mstore\n        /* \"#utility.yul\":11183:11187   */\n      0x24\n        /* \"#utility.yul\":11180:11181   */\n      0x00\n        /* \"#utility.yul\":11173:11188   */\n      revert\n        /* \"#utility.yul\":11200:11380   */\n    tag_257:\n        /* \"#utility.yul\":11248:11325   */\n      0x4e487b7100000000000000000000000000000000000000000000000000000000\n        /* \"#utility.yul\":11245:11246   */\n      0x00\n        /* \"#utility.yul\":11238:11326   */\n      mstore\n        /* \"#utility.yul\":11345:11349   */\n      0x41\n        /* \"#utility.yul\":11342:11343   */\n      0x04\n        /* \"#utility.yul\":11335:11350   */\n      mstore\n        /* \"#utility.yul\":11369:11373   */\n      0x24\n        /* \"#utility.yul\":11366:11367   */\n      0x00\n        /* \"#utility.yul\":11359:11374   */\n      revert\n        /* \"#utility.yul\":11386:11488   */\n    tag_233:\n      0x00\n        /* \"#utility.yul\":11478:11480   */\n      0x1f\n        /* \"#utility.yul\":11474:11481   */\n      not\n        /* \"#utility.yul\":11469:11471   */\n      0x1f\n        /* \"#utility.yul\":11462:11467   */\n      dup4\n        /* \"#utility.yul\":11458:11472   */\n      add\n        /* \"#utility.yul\":11454:11482   */\n      and\n        /* \"#utility.yul\":11444:11482   */\n      swap1\n      pop\n        /* \"#utility.yul\":11434:11488   */\n      swap2\n      swap1\n      pop\n      jump\t// out\n        /* \"#utility.yul\":11494:11609   */\n    tag_274:\n        /* \"#utility.yul\":11577:11578   */\n      0x04\n        /* \"#utility.yul\":11570:11575   */\n      dup2\n        /* \"#utility.yul\":11567:11579   */\n      lt\n        /* \"#utility.yul\":11557:11559   */\n      tag_301\n      jumpi\n        /* \"#utility.yul\":11583:11601   */\n      tag_302\n      tag_295\n      jump\t// in\n    tag_302:\n        /* \"#utility.yul\":11557:11559   */\n    tag_301:\n        /* \"#utility.yul\":11547:11609   */\n      pop\n      jump\t// out\n        /* \"#utility.yul\":11615:11724   */\n    tag_178:\n        /* \"#utility.yul\":11698:11699   */\n      0x04\n        /* \"#utility.yul\":11691:11696   */\n      dup2\n        /* \"#utility.yul\":11688:11700   */\n      lt\n        /* \"#utility.yul\":11678:11680   */\n      tag_304\n      jumpi\n        /* \"#utility.yul\":11714:11715   */\n      0x00\n        /* \"#utility.yul\":11711:11712   */\n      dup1\n        /* \"#utility.yul\":11704:11716   */\n      revert\n        /* \"#utility.yul\":11678:11680   */\n    tag_304:\n        /* \"#utility.yul\":11668:11724   */\n      pop\n      jump\t// out\n        /* \"#utility.yul\":11730:11852   */\n    tag_185:\n        /* \"#utility.yul\":11803:11827   */\n      tag_306\n        /* \"#utility.yul\":11821:11826   */\n      dup2\n        /* \"#utility.yul\":11803:11827   */\n      tag_236\n      jump\t// in\n    tag_306:\n        /* \"#utility.yul\":11796:11801   */\n      dup2\n        /* \"#utility.yul\":11793:11828   */\n      eq\n        /* \"#utility.yul\":11783:11785   */\n      tag_307\n      jumpi\n        /* \"#utility.yul\":11842:11843   */\n      0x00\n        /* \"#utility.yul\":11839:11840   */\n      dup1\n        /* \"#utility.yul\":11832:11844   */\n      revert\n        /* \"#utility.yul\":11783:11785   */\n    tag_307:\n        /* \"#utility.yul\":11773:11852   */\n      pop\n      jump\t// out\n\n    auxdata: 0xa2646970667358221220d1563b6a6661662958d7baaba116960db4d679b393d332cef04a35f3daec3ce264736f6c63430008000033\n}\n","bytecode":{"linkReferences":{},"object":"60806040526000805534801561001457600080fd5b50611527806100246000396000f3fe608060405234801561001057600080fd5b50600436106100885760003560e01c806395cffdf81161005b57806395cffdf814610127578063976217cd146101575780639849cee91461018b578063dbc38a82146101bb57610088565b806304a87e381461008d57806333251a3a146100ab5780633de723b1146100db57806363e66d04146100f7575b600080fd5b6100956101eb565b6040516100a2919061112d565b60405180910390f35b6100c560048036038101906100c09190611019565b610243565b6040516100d291906111f4565b60405180910390f35b6100f560048036038101906100f09190610f6e565b610267565b005b610111600480360381019061010c9190611019565b6103d0565b60405161011e919061114f565b60405180910390f35b610141600480360381019061013c9190611019565b610a3d565b60405161014e919061112d565b60405180910390f35b610171600480360381019061016c9190611019565b610aab565b60405161018295949392919061116a565b60405180910390f35b6101a560048036038101906101a09190611019565b610c81565b6040516101b2919061114f565b60405180910390f35b6101d560048036038101906101d09190611019565b610cae565b6040516101e291906111d2565b60405180910390f35b6060600280548060200260200160405190810160405280929190818152602001828054801561023957602002820191906000526020600020905b815481526020019060010190808311610225575b5050505050905090565b6002818154811061025357600080fd5b906000526020600020016000915090505481565b60006040518060a001604052806000151581526020018681526020018560038111156102bc577f4e487b7100000000000000000000000000000000000000000000000000000000600052602160045260246000fd5b815260200184815260200183815250905080600160008054815260200190815260200160002060008201518160000160006101000a81548160ff021916908315150217905550602082015181600101908051906020019061031e929190610d56565b5060408201518160020160006101000a81548160ff02191690836003811115610370577f4e487b7100000000000000000000000000000000000000000000000000000000600052602160045260246000fd5b02179055506060820151816003019080519060200190610391929190610ddc565b5060808201518160040190805190602001906103ae929190610ddc565b509050506000808154809291906103c4906113a0565b91905055505050505050565b600080600115156001600085815260200190815260200160002060000160009054906101000a900460ff161515141561040d576001915050610a38565b60006001600085815260200190815260200160002060030180548060200260200160405190810160405280929190818152602001828054801561046f57602002820191906000526020600020905b81548152602001906001019080831161045b575b505050505090506000815114156104b957600180600086815260200190815260200160002060000160006101000a81548160ff021916908315150217905550600192505050610a38565b600060038111156104f3577f4e487b7100000000000000000000000000000000000000000000000000000000600052602160045260246000fd5b6001600086815260200190815260200160002060020160009054906101000a900460ff16600381111561054f577f4e487b7100000000000000000000000000000000000000000000000000000000600052602160045260246000fd5b14156105ef57600115156105a382600081518110610596577f4e487b7100000000000000000000000000000000000000000000000000000000600052603260045260246000fd5b6020026020010151610c81565b151514156105e457600180600086815260200190815260200160002060000160006101000a81548160ff021916908315150217905550600192505050610a38565b600092505050610a38565b60016003811115610629577f4e487b7100000000000000000000000000000000000000000000000000000000600052602160045260246000fd5b6001600086815260200190815260200160002060020160009054906101000a900460ff166003811115610685577f4e487b7100000000000000000000000000000000000000000000000000000000600052602160045260246000fd5b141561075c5760005b815181101561070e57600115156106e48383815181106106d7577f4e487b7100000000000000000000000000000000000000000000000000000000600052603260045260246000fd5b6020026020010151610c81565b151514156106fb5782806106f7906113a0565b9350505b8080610706906113a0565b91505061068e565b50805182141561075157600180600086815260200190815260200160002060000160006101000a81548160ff021916908315150217905550600192505050610a38565b600092505050610a38565b60026003811115610796577f4e487b7100000000000000000000000000000000000000000000000000000000600052602160045260246000fd5b6001600086815260200190815260200160002060020160009054906101000a900460ff1660038111156107f2577f4e487b7100000000000000000000000000000000000000000000000000000000600052602160045260246000fd5b14156108c95760005b815181101561087b5760011515610851838381518110610844577f4e487b7100000000000000000000000000000000000000000000000000000000600052603260045260246000fd5b6020026020010151610c81565b15151415610868578280610864906113a0565b9350505b8080610873906113a0565b9150506107fb565b5060008211156108be57600180600086815260200190815260200160002060000160006101000a81548160ff021916908315150217905550600192505050610a38565b600092505050610a38565b600380811115610902577f4e487b7100000000000000000000000000000000000000000000000000000000600052602160045260246000fd5b6001600086815260200190815260200160002060020160009054906101000a900460ff16600381111561095e577f4e487b7100000000000000000000000000000000000000000000000000000000600052602160045260246000fd5b1415610a355760005b81518110156109e757600115156109bd8383815181106109b0577f4e487b7100000000000000000000000000000000000000000000000000000000600052603260045260246000fd5b6020026020010151610c81565b151514156109d45782806109d0906113a0565b9350505b80806109df906113a0565b915050610967565b506001821415610a2a57600180600086815260200190815260200160002060000160006101000a81548160ff021916908315150217905550600192505050610a38565b600092505050610a38565b50505b919050565b606060016000838152602001908152602001600020600301805480602002602001604051908101604052809291908181526020018280548015610a9f57602002820191906000526020600020905b815481526020019060010190808311610a8b575b50505050509050919050565b6000606060006060806001600087815260200190815260200160002060000160009054906101000a900460ff16600160008881526020019081526020016000206001016001600089815260200190815260200160002060020160009054906101000a900460ff16600160008a8152602001908152602001600020600301600160008b8152602001908152602001600020600401838054610b4a9061136e565b80601f0160208091040260200160405190810160405280929190818152602001828054610b769061136e565b8015610bc35780601f10610b9857610100808354040283529160200191610bc3565b820191906000526020600020905b815481529060010190602001808311610ba657829003601f168201915b5050505050935081805480602002602001604051908101604052809291908181526020018280548015610c1557602002820191906000526020600020905b815481526020019060010190808311610c01575b5050505050915080805480602002602001604051908101604052809291908181526020018280548015610c6757602002820191906000526020600020905b815481526020019060010190808311610c53575b505050505090509450945094509450945091939590929450565b60006001600083815260200190815260200160002060000160009054906101000a900460ff169050919050565b6060600160008381526020019081526020016000206001018054610cd19061136e565b80601f0160208091040260200160405190810160405280929190818152602001828054610cfd9061136e565b8015610d4a5780601f10610d1f57610100808354040283529160200191610d4a565b820191906000526020600020905b815481529060010190602001808311610d2d57829003601f168201915b50505050509050919050565b828054610d629061136e565b90600052602060002090601f016020900481019282610d845760008555610dcb565b82601f10610d9d57805160ff1916838001178555610dcb565b82800160010185558215610dcb579182015b82811115610dca578251825591602001919060010190610daf565b5b509050610dd89190610e29565b5090565b828054828255906000526020600020908101928215610e18579160200282015b82811115610e17578251825591602001919060010190610dfc565b5b509050610e259190610e29565b5090565b5b80821115610e42576000816000905550600101610e2a565b5090565b6000610e59610e5484611240565b61120f565b90508083825260208201905082856020860282011115610e7857600080fd5b60005b85811015610ea85781610e8e8882610f59565b845260208401935060208301925050600181019050610e7b565b5050509392505050565b6000610ec5610ec08461126c565b61120f565b905082815260208101848484011115610edd57600080fd5b610ee884828561132c565b509392505050565b600082601f830112610f0157600080fd5b8135610f11848260208601610e46565b91505092915050565b600081359050610f29816114ca565b92915050565b600082601f830112610f4057600080fd5b8135610f50848260208601610eb2565b91505092915050565b600081359050610f68816114da565b92915050565b60008060008060808587031215610f8457600080fd5b600085013567ffffffffffffffff811115610f9e57600080fd5b610faa87828801610f2f565b9450506020610fbb87828801610f1a565b935050604085013567ffffffffffffffff811115610fd857600080fd5b610fe487828801610ef0565b925050606085013567ffffffffffffffff81111561100157600080fd5b61100d87828801610ef0565b91505092959194509250565b60006020828403121561102b57600080fd5b600061103984828501610f59565b91505092915050565b600061104e838361110f565b60208301905092915050565b6000611065826112ac565b61106f81856112cf565b935061107a8361129c565b8060005b838110156110ab5781516110928882611042565b975061109d836112c2565b92505060018101905061107e565b5085935050505092915050565b6110c1816112f1565b82525050565b6110d08161131a565b82525050565b60006110e1826112b7565b6110eb81856112e0565b93506110fb81856020860161133b565b611104816114a5565b840191505092915050565b61111881611310565b82525050565b61112781611310565b82525050565b60006020820190508181036000830152611147818461105a565b905092915050565b600060208201905061116460008301846110b8565b92915050565b600060a08201905061117f60008301886110b8565b818103602083015261119181876110d6565b90506111a060408301866110c7565b81810360608301526111b2818561105a565b905081810360808301526111c6818461105a565b90509695505050505050565b600060208201905081810360008301526111ec81846110d6565b905092915050565b6000602082019050611209600083018461111e565b92915050565b6000604051905081810181811067ffffffffffffffff8211171561123657611235611476565b5b8060405250919050565b600067ffffffffffffffff82111561125b5761125a611476565b5b602082029050602081019050919050565b600067ffffffffffffffff82111561128757611286611476565b5b601f19601f8301169050602081019050919050565b6000819050602082019050919050565b600081519050919050565b600081519050919050565b6000602082019050919050565b600082825260208201905092915050565b600082825260208201905092915050565b60008115159050919050565b600081905061130b826114b6565b919050565b6000819050919050565b6000611325826112fd565b9050919050565b82818337600083830152505050565b60005b8381101561135957808201518184015260208101905061133e565b83811115611368576000848401525b50505050565b6000600282049050600182168061138657607f821691505b6020821081141561139a57611399611447565b5b50919050565b60006113ab82611310565b91507fffffffffffffffffffffffffffffffffffffffffffffffffffffffffffffffff8214156113de576113dd6113e9565b5b600182019050919050565b7f4e487b7100000000000000000000000000000000000000000000000000000000600052601160045260246000fd5b7f4e487b7100000000000000000000000000000000000000000000000000000000600052602160045260246000fd5b7f4e487b7100000000000000000000000000000000000000000000000000000000600052602260045260246000fd5b7f4e487b7100000000000000000000000000000000000000000000000000000000600052604160045260246000fd5b6000601f19601f8301169050919050565b600481106114c7576114c6611418565b5b50565b600481106114d757600080fd5b50565b6114e381611310565b81146114ee57600080fd5b5056fea2646970667358221220d1563b6a6661662958d7baaba116960db4d679b393d332cef04a35f3daec3ce264736f6c63430008000033","opcodes":"PUSH1 0x80 PUSH1 0x40 MSTORE PUSH1 0x0 DUP1 SSTORE CALLVALUE DUP1 ISZERO PUSH2 0x14 JUMPI PUSH1 0x0 DUP1 REVERT JUMPDEST POP PUSH2 0x1527 DUP1 PUSH2 0x24 PUSH1 0x0 CODECOPY PUSH1 0x0 RETURN INVALID PUSH1 0x80 PUSH1 0x40 MSTORE CALLVALUE DUP1 ISZERO PUSH2 0x10 JUMPI PUSH1 0x0 DUP1 REVERT JUMPDEST POP PUSH1 0x4 CALLDATASIZE LT PUSH2 0x88 JUMPI PUSH1 0x0 CALLDATALOAD PUSH1 0xE0 SHR DUP1 PUSH4 0x95CFFDF8 GT PUSH2 0x5B JUMPI DUP1 PUSH4 0x95CFFDF8 EQ PUSH2 0x127 JUMPI DUP1 PUSH4 0x976217CD EQ PUSH2 0x157 JUMPI DUP1 PUSH4 0x9849CEE9 EQ PUSH2 0x18B JUMPI DUP1 PUSH4 0xDBC38A82 EQ PUSH2 0x1BB JUMPI PUSH2 0x88 JUMP JUMPDEST DUP1 PUSH4 0x4A87E38 EQ PUSH2 0x8D JUMPI DUP1 PUSH4 0x33251A3A EQ PUSH2 0xAB JUMPI DUP1 PUSH4 0x3DE723B1 EQ PUSH2 0xDB JUMPI DUP1 PUSH4 0x63E66D04 EQ PUSH2 0xF7 JUMPI JUMPDEST PUSH1 0x0 DUP1 REVERT JUMPDEST PUSH2 0x95 PUSH2 0x1EB JUMP JUMPDEST PUSH1 0x40 MLOAD PUSH2 0xA2 SWAP2 SWAP1 PUSH2 0x112D JUMP JUMPDEST PUSH1 0x40 MLOAD DUP1 SWAP2 SUB SWAP1 RETURN JUMPDEST PUSH2 0xC5 PUSH1 0x4 DUP1 CALLDATASIZE SUB DUP2 ADD SWAP1 PUSH2 0xC0 SWAP2 SWAP1 PUSH2 0x1019 JUMP JUMPDEST PUSH2 0x243 JUMP JUMPDEST PUSH1 0x40 MLOAD PUSH2 0xD2 SWAP2 SWAP1 PUSH2 0x11F4 JUMP JUMPDEST PUSH1 0x40 MLOAD DUP1 SWAP2 SUB SWAP1 RETURN JUMPDEST PUSH2 0xF5 PUSH1 0x4 DUP1 CALLDATASIZE SUB DUP2 ADD SWAP1 PUSH2 0xF0 SWAP2 SWAP1 PUSH2 0xF6E JUMP JUMPDEST PUSH2 0x267 JUMP JUMPDEST STOP JUMPDEST PUSH2 0x111 PUSH1 0x4 DUP1 CALLDATASIZE SUB DUP2 ADD SWAP1 PUSH2 0x10C SWAP2 SWAP1 PUSH2 0x1019 JUMP JUMPDEST PUSH2 0x3D0 JUMP JUMPDEST PUSH1 0x40 MLOAD PUSH2 0x11E SWAP2 SWAP1 PUSH2 0x114F JUMP JUMPDEST PUSH1 0x40 MLOAD DUP1 SWAP2 SUB SWAP1 RETURN JUMPDEST PUSH2 0x141 PUSH1 0x4 DUP1 CALLDATASIZE SUB DUP2 ADD SWAP1 PUSH2 0x13C SWAP2 SWAP1 PUSH2 0x1019 JUMP JUMPDEST PUSH2 0xA3D JUMP JUMPDEST PUSH1 0x40 MLOAD PUSH2 0x14E SWAP2 SWAP1 PUSH2 0x112D JUMP JUMPDEST PUSH1 0x40 MLOAD DUP1 SWAP2 SUB SWAP1 RETURN JUMPDEST PUSH2 0x171 PUSH1 0x4 DUP1 CALLDATASIZE SUB DUP2 ADD SWAP1 PUSH2 0x16C SWAP2 SWAP1 PUSH2 0x1019 JUMP JUMPDEST PUSH2 0xAAB JUMP JUMPDEST PUSH1 0x40 MLOAD PUSH2 0x182 SWAP6 SWAP5 SWAP4 SWAP3 SWAP2 SWAP1 PUSH2 0x116A JUMP JUMPDEST PUSH1 0x40 MLOAD DUP1 SWAP2 SUB SWAP1 RETURN JUMPDEST PUSH2 0x1A5 PUSH1 0x4 DUP1 CALLDATASIZE SUB DUP2 ADD SWAP1 PUSH2 0x1A0 SWAP2 SWAP1 PUSH2 0x1019 JUMP JUMPDEST PUSH2 0xC81 JUMP JUMPDEST PUSH1 0x40 MLOAD PUSH2 0x1B2 SWAP2 SWAP1 PUSH2 0x114F JUMP JUMPDEST PUSH1 0x40 MLOAD DUP1 SWAP2 SUB SWAP1 RETURN JUMPDEST PUSH2 0x1D5 PUSH1 0x4 DUP1 CALLDATASIZE SUB DUP2 ADD SWAP1 PUSH2 0x1D0 SWAP2 SWAP1 PUSH2 0x1019 JUMP JUMPDEST PUSH2 0xCAE JUMP JUMPDEST PUSH1 0x40 MLOAD PUSH2 0x1E2 SWAP2 SWAP1 PUSH2 0x11D2 JUMP JUMPDEST PUSH1 0x40 MLOAD DUP1 SWAP2 SUB SWAP1 RETURN JUMPDEST PUSH1 0x60 PUSH1 0x2 DUP1 SLOAD DUP1 PUSH1 0x20 MUL PUSH1 0x20 ADD PUSH1 0x40 MLOAD SWAP1 DUP2 ADD PUSH1 0x40 MSTORE DUP1 SWAP3 SWAP2 SWAP1 DUP2 DUP2 MSTORE PUSH1 0x20 ADD DUP3 DUP1 SLOAD DUP1 ISZERO PUSH2 0x239 JUMPI PUSH1 0x20 MUL DUP3 ADD SWAP2 SWAP1 PUSH1 0x0 MSTORE PUSH1 0x20 PUSH1 0x0 KECCAK256 SWAP1 JUMPDEST DUP2 SLOAD DUP2 MSTORE PUSH1 0x20 ADD SWAP1 PUSH1 0x1 ADD SWAP1 DUP1 DUP4 GT PUSH2 0x225 JUMPI JUMPDEST POP POP POP POP POP SWAP1 POP SWAP1 JUMP JUMPDEST PUSH1 0x2 DUP2 DUP2 SLOAD DUP2 LT PUSH2 0x253 JUMPI PUSH1 0x0 DUP1 REVERT JUMPDEST SWAP1 PUSH1 0x0 MSTORE PUSH1 0x20 PUSH1 0x0 KECCAK256 ADD PUSH1 0x0 SWAP2 POP SWAP1 POP SLOAD DUP2 JUMP JUMPDEST PUSH1 0x0 PUSH1 0x40 MLOAD DUP1 PUSH1 0xA0 ADD PUSH1 0x40 MSTORE DUP1 PUSH1 0x0 ISZERO ISZERO DUP2 MSTORE PUSH1 0x20 ADD DUP7 DUP2 MSTORE PUSH1 0x20 ADD DUP6 PUSH1 0x3 DUP2 GT ISZERO PUSH2 0x2BC JUMPI PUSH32 0x4E487B7100000000000000000000000000000000000000000000000000000000 PUSH1 0x0 MSTORE PUSH1 0x21 PUSH1 0x4 MSTORE PUSH1 0x24 PUSH1 0x0 REVERT JUMPDEST DUP2 MSTORE PUSH1 0x20 ADD DUP5 DUP2 MSTORE PUSH1 0x20 ADD DUP4 DUP2 MSTORE POP SWAP1 POP DUP1 PUSH1 0x1 PUSH1 0x0 DUP1 SLOAD DUP2 MSTORE PUSH1 0x20 ADD SWAP1 DUP2 MSTORE PUSH1 0x20 ADD PUSH1 0x0 KECCAK256 PUSH1 0x0 DUP3 ADD MLOAD DUP2 PUSH1 0x0 ADD PUSH1 0x0 PUSH2 0x100 EXP DUP2 SLOAD DUP2 PUSH1 0xFF MUL NOT AND SWAP1 DUP4 ISZERO ISZERO MUL OR SWAP1 SSTORE POP PUSH1 0x20 DUP3 ADD MLOAD DUP2 PUSH1 0x1 ADD SWAP1 DUP1 MLOAD SWAP1 PUSH1 0x20 ADD SWAP1 PUSH2 0x31E SWAP3 SWAP2 SWAP1 PUSH2 0xD56 JUMP JUMPDEST POP PUSH1 0x40 DUP3 ADD MLOAD DUP2 PUSH1 0x2 ADD PUSH1 0x0 PUSH2 0x100 EXP DUP2 SLOAD DUP2 PUSH1 0xFF MUL NOT AND SWAP1 DUP4 PUSH1 0x3 DUP2 GT ISZERO PUSH2 0x370 JUMPI PUSH32 0x4E487B7100000000000000000000000000000000000000000000000000000000 PUSH1 0x0 MSTORE PUSH1 0x21 PUSH1 0x4 MSTORE PUSH1 0x24 PUSH1 0x0 REVERT JUMPDEST MUL OR SWAP1 SSTORE POP PUSH1 0x60 DUP3 ADD MLOAD DUP2 PUSH1 0x3 ADD SWAP1 DUP1 MLOAD SWAP1 PUSH1 0x20 ADD SWAP1 PUSH2 0x391 SWAP3 SWAP2 SWAP1 PUSH2 0xDDC JUMP JUMPDEST POP PUSH1 0x80 DUP3 ADD MLOAD DUP2 PUSH1 0x4 ADD SWAP1 DUP1 MLOAD SWAP1 PUSH1 0x20 ADD SWAP1 PUSH2 0x3AE SWAP3 SWAP2 SWAP1 PUSH2 0xDDC JUMP JUMPDEST POP SWAP1 POP POP PUSH1 0x0 DUP1 DUP2 SLOAD DUP1 SWAP3 SWAP2 SWAP1 PUSH2 0x3C4 SWAP1 PUSH2 0x13A0 JUMP JUMPDEST SWAP2 SWAP1 POP SSTORE POP POP POP POP POP POP JUMP JUMPDEST PUSH1 0x0 DUP1 PUSH1 0x1 ISZERO ISZERO PUSH1 0x1 PUSH1 0x0 DUP6 DUP2 MSTORE PUSH1 0x20 ADD SWAP1 DUP2 MSTORE PUSH1 0x20 ADD PUSH1 0x0 KECCAK256 PUSH1 0x0 ADD PUSH1 0x0 SWAP1 SLOAD SWAP1 PUSH2 0x100 EXP SWAP1 DIV PUSH1 0xFF AND ISZERO ISZERO EQ ISZERO PUSH2 0x40D JUMPI PUSH1 0x1 SWAP2 POP POP PUSH2 0xA38 JUMP JUMPDEST PUSH1 0x0 PUSH1 0x1 PUSH1 0x0 DUP6 DUP2 MSTORE PUSH1 0x20 ADD SWAP1 DUP2 MSTORE PUSH1 0x20 ADD PUSH1 0x0 KECCAK256 PUSH1 0x3 ADD DUP1 SLOAD DUP1 PUSH1 0x20 MUL PUSH1 0x20 ADD PUSH1 0x40 MLOAD SWAP1 DUP2 ADD PUSH1 0x40 MSTORE DUP1 SWAP3 SWAP2 SWAP1 DUP2 DUP2 MSTORE PUSH1 0x20 ADD DUP3 DUP1 SLOAD DUP1 ISZERO PUSH2 0x46F JUMPI PUSH1 0x20 MUL DUP3 ADD SWAP2 SWAP1 PUSH1 0x0 MSTORE PUSH1 0x20 PUSH1 0x0 KECCAK256 SWAP1 JUMPDEST DUP2 SLOAD DUP2 MSTORE PUSH1 0x20 ADD SWAP1 PUSH1 0x1 ADD SWAP1 DUP1 DUP4 GT PUSH2 0x45B JUMPI JUMPDEST POP POP POP POP POP SWAP1 POP PUSH1 0x0 DUP2 MLOAD EQ ISZERO PUSH2 0x4B9 JUMPI PUSH1 0x1 DUP1 PUSH1 0x0 DUP7 DUP2 MSTORE PUSH1 0x20 ADD SWAP1 DUP2 MSTORE PUSH1 0x20 ADD PUSH1 0x0 KECCAK256 PUSH1 0x0 ADD PUSH1 0x0 PUSH2 0x100 EXP DUP2 SLOAD DUP2 PUSH1 0xFF MUL NOT AND SWAP1 DUP4 ISZERO ISZERO MUL OR SWAP1 SSTORE POP PUSH1 0x1 SWAP3 POP POP POP PUSH2 0xA38 JUMP JUMPDEST PUSH1 0x0 PUSH1 0x3 DUP2 GT ISZERO PUSH2 0x4F3 JUMPI PUSH32 0x4E487B7100000000000000000000000000000000000000000000000000000000 PUSH1 0x0 MSTORE PUSH1 0x21 PUSH1 0x4 MSTORE PUSH1 0x24 PUSH1 0x0 REVERT JUMPDEST PUSH1 0x1 PUSH1 0x0 DUP7 DUP2 MSTORE PUSH1 0x20 ADD SWAP1 DUP2 MSTORE PUSH1 0x20 ADD PUSH1 0x0 KECCAK256 PUSH1 0x2 ADD PUSH1 0x0 SWAP1 SLOAD SWAP1 PUSH2 0x100 EXP SWAP1 DIV PUSH1 0xFF AND PUSH1 0x3 DUP2 GT ISZERO PUSH2 0x54F JUMPI PUSH32 0x4E487B7100000000000000000000000000000000000000000000000000000000 PUSH1 0x0 MSTORE PUSH1 0x21 PUSH1 0x4 MSTORE PUSH1 0x24 PUSH1 0x0 REVERT JUMPDEST EQ ISZERO PUSH2 0x5EF JUMPI PUSH1 0x1 ISZERO ISZERO PUSH2 0x5A3 DUP3 PUSH1 0x0 DUP2 MLOAD DUP2 LT PUSH2 0x596 JUMPI PUSH32 0x4E487B7100000000000000000000000000000000000000000000000000000000 PUSH1 0x0 MSTORE PUSH1 0x32 PUSH1 0x4 MSTORE PUSH1 0x24 PUSH1 0x0 REVERT JUMPDEST PUSH1 0x20 MUL PUSH1 0x20 ADD ADD MLOAD PUSH2 0xC81 JUMP JUMPDEST ISZERO ISZERO EQ ISZERO PUSH2 0x5E4 JUMPI PUSH1 0x1 DUP1 PUSH1 0x0 DUP7 DUP2 MSTORE PUSH1 0x20 ADD SWAP1 DUP2 MSTORE PUSH1 0x20 ADD PUSH1 0x0 KECCAK256 PUSH1 0x0 ADD PUSH1 0x0 PUSH2 0x100 EXP DUP2 SLOAD DUP2 PUSH1 0xFF MUL NOT AND SWAP1 DUP4 ISZERO ISZERO MUL OR SWAP1 SSTORE POP PUSH1 0x1 SWAP3 POP POP POP PUSH2 0xA38 JUMP JUMPDEST PUSH1 0x0 SWAP3 POP POP POP PUSH2 0xA38 JUMP JUMPDEST PUSH1 0x1 PUSH1 0x3 DUP2 GT ISZERO PUSH2 0x629 JUMPI PUSH32 0x4E487B7100000000000000000000000000000000000000000000000000000000 PUSH1 0x0 MSTORE PUSH1 0x21 PUSH1 0x4 MSTORE PUSH1 0x24 PUSH1 0x0 REVERT JUMPDEST PUSH1 0x1 PUSH1 0x0 DUP7 DUP2 MSTORE PUSH1 0x20 ADD SWAP1 DUP2 MSTORE PUSH1 0x20 ADD PUSH1 0x0 KECCAK256 PUSH1 0x2 ADD PUSH1 0x0 SWAP1 SLOAD SWAP1 PUSH2 0x100 EXP SWAP1 DIV PUSH1 0xFF AND PUSH1 0x3 DUP2 GT ISZERO PUSH2 0x685 JUMPI PUSH32 0x4E487B7100000000000000000000000000000000000000000000000000000000 PUSH1 0x0 MSTORE PUSH1 0x21 PUSH1 0x4 MSTORE PUSH1 0x24 PUSH1 0x0 REVERT JUMPDEST EQ ISZERO PUSH2 0x75C JUMPI PUSH1 0x0 JUMPDEST DUP2 MLOAD DUP2 LT ISZERO PUSH2 0x70E JUMPI PUSH1 0x1 ISZERO ISZERO PUSH2 0x6E4 DUP4 DUP4 DUP2 MLOAD DUP2 LT PUSH2 0x6D7 JUMPI PUSH32 0x4E487B7100000000000000000000000000000000000000000000000000000000 PUSH1 0x0 MSTORE PUSH1 0x32 PUSH1 0x4 MSTORE PUSH1 0x24 PUSH1 0x0 REVERT JUMPDEST PUSH1 0x20 MUL PUSH1 0x20 ADD ADD MLOAD PUSH2 0xC81 JUMP JUMPDEST ISZERO ISZERO EQ ISZERO PUSH2 0x6FB JUMPI DUP3 DUP1 PUSH2 0x6F7 SWAP1 PUSH2 0x13A0 JUMP JUMPDEST SWAP4 POP POP JUMPDEST DUP1 DUP1 PUSH2 0x706 SWAP1 PUSH2 0x13A0 JUMP JUMPDEST SWAP2 POP POP PUSH2 0x68E JUMP JUMPDEST POP DUP1 MLOAD DUP3 EQ ISZERO PUSH2 0x751 JUMPI PUSH1 0x1 DUP1 PUSH1 0x0 DUP7 DUP2 MSTORE PUSH1 0x20 ADD SWAP1 DUP2 MSTORE PUSH1 0x20 ADD PUSH1 0x0 KECCAK256 PUSH1 0x0 ADD PUSH1 0x0 PUSH2 0x100 EXP DUP2 SLOAD DUP2 PUSH1 0xFF MUL NOT AND SWAP1 DUP4 ISZERO ISZERO MUL OR SWAP1 SSTORE POP PUSH1 0x1 SWAP3 POP POP POP PUSH2 0xA38 JUMP JUMPDEST PUSH1 0x0 SWAP3 POP POP POP PUSH2 0xA38 JUMP JUMPDEST PUSH1 0x2 PUSH1 0x3 DUP2 GT ISZERO PUSH2 0x796 JUMPI PUSH32 0x4E487B7100000000000000000000000000000000000000000000000000000000 PUSH1 0x0 MSTORE PUSH1 0x21 PUSH1 0x4 MSTORE PUSH1 0x24 PUSH1 0x0 REVERT JUMPDEST PUSH1 0x1 PUSH1 0x0 DUP7 DUP2 MSTORE PUSH1 0x20 ADD SWAP1 DUP2 MSTORE PUSH1 0x20 ADD PUSH1 0x0 KECCAK256 PUSH1 0x2 ADD PUSH1 0x0 SWAP1 SLOAD SWAP1 PUSH2 0x100 EXP SWAP1 DIV PUSH1 0xFF AND PUSH1 0x3 DUP2 GT ISZERO PUSH2 0x7F2 JUMPI PUSH32 0x4E487B7100000000000000000000000000000000000000000000000000000000 PUSH1 0x0 MSTORE PUSH1 0x21 PUSH1 0x4 MSTORE PUSH1 0x24 PUSH1 0x0 REVERT JUMPDEST EQ ISZERO PUSH2 0x8C9 JUMPI PUSH1 0x0 JUMPDEST DUP2 MLOAD DUP2 LT ISZERO PUSH2 0x87B JUMPI PUSH1 0x1 ISZERO ISZERO PUSH2 0x851 DUP4 DUP4 DUP2 MLOAD DUP2 LT PUSH2 0x844 JUMPI PUSH32 0x4E487B7100000000000000000000000000000000000000000000000000000000 PUSH1 0x0 MSTORE PUSH1 0x32 PUSH1 0x4 MSTORE PUSH1 0x24 PUSH1 0x0 REVERT JUMPDEST PUSH1 0x20 MUL PUSH1 0x20 ADD ADD MLOAD PUSH2 0xC81 JUMP JUMPDEST ISZERO ISZERO EQ ISZERO PUSH2 0x868 JUMPI DUP3 DUP1 PUSH2 0x864 SWAP1 PUSH2 0x13A0 JUMP JUMPDEST SWAP4 POP POP JUMPDEST DUP1 DUP1 PUSH2 0x873 SWAP1 PUSH2 0x13A0 JUMP JUMPDEST SWAP2 POP POP PUSH2 0x7FB JUMP JUMPDEST POP PUSH1 0x0 DUP3 GT ISZERO PUSH2 0x8BE JUMPI PUSH1 0x1 DUP1 PUSH1 0x0 DUP7 DUP2 MSTORE PUSH1 0x20 ADD SWAP1 DUP2 MSTORE PUSH1 0x20 ADD PUSH1 0x0 KECCAK256 PUSH1 0x0 ADD PUSH1 0x0 PUSH2 0x100 EXP DUP2 SLOAD DUP2 PUSH1 0xFF MUL NOT AND SWAP1 DUP4 ISZERO ISZERO MUL OR SWAP1 SSTORE POP PUSH1 0x1 SWAP3 POP POP POP PUSH2 0xA38 JUMP JUMPDEST PUSH1 0x0 SWAP3 POP POP POP PUSH2 0xA38 JUMP JUMPDEST PUSH1 0x3 DUP1 DUP2 GT ISZERO PUSH2 0x902 JUMPI PUSH32 0x4E487B7100000000000000000000000000000000000000000000000000000000 PUSH1 0x0 MSTORE PUSH1 0x21 PUSH1 0x4 MSTORE PUSH1 0x24 PUSH1 0x0 REVERT JUMPDEST PUSH1 0x1 PUSH1 0x0 DUP7 DUP2 MSTORE PUSH1 0x20 ADD SWAP1 DUP2 MSTORE PUSH1 0x20 ADD PUSH1 0x0 KECCAK256 PUSH1 0x2 ADD PUSH1 0x0 SWAP1 SLOAD SWAP1 PUSH2 0x100 EXP SWAP1 DIV PUSH1 0xFF AND PUSH1 0x3 DUP2 GT ISZERO PUSH2 0x95E JUMPI PUSH32 0x4E487B7100000000000000000000000000000000000000000000000000000000 PUSH1 0x0 MSTORE PUSH1 0x21 PUSH1 0x4 MSTORE PUSH1 0x24 PUSH1 0x0 REVERT JUMPDEST EQ ISZERO PUSH2 0xA35 JUMPI PUSH1 0x0 JUMPDEST DUP2 MLOAD DUP2 LT ISZERO PUSH2 0x9E7 JUMPI PUSH1 0x1 ISZERO ISZERO PUSH2 0x9BD DUP4 DUP4 DUP2 MLOAD DUP2 LT PUSH2 0x9B0 JUMPI PUSH32 0x4E487B7100000000000000000000000000000000000000000000000000000000 PUSH1 0x0 MSTORE PUSH1 0x32 PUSH1 0x4 MSTORE PUSH1 0x24 PUSH1 0x0 REVERT JUMPDEST PUSH1 0x20 MUL PUSH1 0x20 ADD ADD MLOAD PUSH2 0xC81 JUMP JUMPDEST ISZERO ISZERO EQ ISZERO PUSH2 0x9D4 JUMPI DUP3 DUP1 PUSH2 0x9D0 SWAP1 PUSH2 0x13A0 JUMP JUMPDEST SWAP4 POP POP JUMPDEST DUP1 DUP1 PUSH2 0x9DF SWAP1 PUSH2 0x13A0 JUMP JUMPDEST SWAP2 POP POP PUSH2 0x967 JUMP JUMPDEST POP PUSH1 0x1 DUP3 EQ ISZERO PUSH2 0xA2A JUMPI PUSH1 0x1 DUP1 PUSH1 0x0 DUP7 DUP2 MSTORE PUSH1 0x20 ADD SWAP1 DUP2 MSTORE PUSH1 0x20 ADD PUSH1 0x0 KECCAK256 PUSH1 0x0 ADD PUSH1 0x0 PUSH2 0x100 EXP DUP2 SLOAD DUP2 PUSH1 0xFF MUL NOT AND SWAP1 DUP4 ISZERO ISZERO MUL OR SWAP1 SSTORE POP PUSH1 0x1 SWAP3 POP POP POP PUSH2 0xA38 JUMP JUMPDEST PUSH1 0x0 SWAP3 POP POP POP PUSH2 0xA38 JUMP JUMPDEST POP POP JUMPDEST SWAP2 SWAP1 POP JUMP JUMPDEST PUSH1 0x60 PUSH1 0x1 PUSH1 0x0 DUP4 DUP2 MSTORE PUSH1 0x20 ADD SWAP1 DUP2 MSTORE PUSH1 0x20 ADD PUSH1 0x0 KECCAK256 PUSH1 0x3 ADD DUP1 SLOAD DUP1 PUSH1 0x20 MUL PUSH1 0x20 ADD PUSH1 0x40 MLOAD SWAP1 DUP2 ADD PUSH1 0x40 MSTORE DUP1 SWAP3 SWAP2 SWAP1 DUP2 DUP2 MSTORE PUSH1 0x20 ADD DUP3 DUP1 SLOAD DUP1 ISZERO PUSH2 0xA9F JUMPI PUSH1 0x20 MUL DUP3 ADD SWAP2 SWAP1 PUSH1 0x0 MSTORE PUSH1 0x20 PUSH1 0x0 KECCAK256 SWAP1 JUMPDEST DUP2 SLOAD DUP2 MSTORE PUSH1 0x20 ADD SWAP1 PUSH1 0x1 ADD SWAP1 DUP1 DUP4 GT PUSH2 0xA8B JUMPI JUMPDEST POP POP POP POP POP SWAP1 POP SWAP2 SWAP1 POP JUMP JUMPDEST PUSH1 0x0 PUSH1 0x60 PUSH1 0x0 PUSH1 0x60 DUP1 PUSH1 0x1 PUSH1 0x0 DUP8 DUP2 MSTORE PUSH1 0x20 ADD SWAP1 DUP2 MSTORE PUSH1 0x20 ADD PUSH1 0x0 KECCAK256 PUSH1 0x0 ADD PUSH1 0x0 SWAP1 SLOAD SWAP1 PUSH2 0x100 EXP SWAP1 DIV PUSH1 0xFF AND PUSH1 0x1 PUSH1 0x0 DUP9 DUP2 MSTORE PUSH1 0x20 ADD SWAP1 DUP2 MSTORE PUSH1 0x20 ADD PUSH1 0x0 KECCAK256 PUSH1 0x1 ADD PUSH1 0x1 PUSH1 0x0 DUP10 DUP2 MSTORE PUSH1 0x20 ADD SWAP1 DUP2 MSTORE PUSH1 0x20 ADD PUSH1 0x0 KECCAK256 PUSH1 0x2 ADD PUSH1 0x0 SWAP1 SLOAD SWAP1 PUSH2 0x100 EXP SWAP1 DIV PUSH1 0xFF AND PUSH1 0x1 PUSH1 0x0 DUP11 DUP2 MSTORE PUSH1 0x20 ADD SWAP1 DUP2 MSTORE PUSH1 0x20 ADD PUSH1 0x0 KECCAK256 PUSH1 0x3 ADD PUSH1 0x1 PUSH1 0x0 DUP12 DUP2 MSTORE PUSH1 0x20 ADD SWAP1 DUP2 MSTORE PUSH1 0x20 ADD PUSH1 0x0 KECCAK256 PUSH1 0x4 ADD DUP4 DUP1 SLOAD PUSH2 0xB4A SWAP1 PUSH2 0x136E JUMP JUMPDEST DUP1 PUSH1 0x1F ADD PUSH1 0x20 DUP1 SWAP2 DIV MUL PUSH1 0x20 ADD PUSH1 0x40 MLOAD SWAP1 DUP2 ADD PUSH1 0x40 MSTORE DUP1 SWAP3 SWAP2 SWAP1 DUP2 DUP2 MSTORE PUSH1 0x20 ADD DUP3 DUP1 SLOAD PUSH2 0xB76 SWAP1 PUSH2 0x136E JUMP JUMPDEST DUP1 ISZERO PUSH2 0xBC3 JUMPI DUP1 PUSH1 0x1F LT PUSH2 0xB98 JUMPI PUSH2 0x100 DUP1 DUP4 SLOAD DIV MUL DUP4 MSTORE SWAP2 PUSH1 0x20 ADD SWAP2 PUSH2 0xBC3 JUMP JUMPDEST DUP3 ADD SWAP2 SWAP1 PUSH1 0x0 MSTORE PUSH1 0x20 PUSH1 0x0 KECCAK256 SWAP1 JUMPDEST DUP2 SLOAD DUP2 MSTORE SWAP1 PUSH1 0x1 ADD SWAP1 PUSH1 0x20 ADD DUP1 DUP4 GT PUSH2 0xBA6 JUMPI DUP3 SWAP1 SUB PUSH1 0x1F AND DUP3 ADD SWAP2 JUMPDEST POP POP POP POP POP SWAP4 POP DUP2 DUP1 SLOAD DUP1 PUSH1 0x20 MUL PUSH1 0x20 ADD PUSH1 0x40 MLOAD SWAP1 DUP2 ADD PUSH1 0x40 MSTORE DUP1 SWAP3 SWAP2 SWAP1 DUP2 DUP2 MSTORE PUSH1 0x20 ADD DUP3 DUP1 SLOAD DUP1 ISZERO PUSH2 0xC15 JUMPI PUSH1 0x20 MUL DUP3 ADD SWAP2 SWAP1 PUSH1 0x0 MSTORE PUSH1 0x20 PUSH1 0x0 KECCAK256 SWAP1 JUMPDEST DUP2 SLOAD DUP2 MSTORE PUSH1 0x20 ADD SWAP1 PUSH1 0x1 ADD SWAP1 DUP1 DUP4 GT PUSH2 0xC01 JUMPI JUMPDEST POP POP POP POP POP SWAP2 POP DUP1 DUP1 SLOAD DUP1 PUSH1 0x20 MUL PUSH1 0x20 ADD PUSH1 0x40 MLOAD SWAP1 DUP2 ADD PUSH1 0x40 MSTORE DUP1 SWAP3 SWAP2 SWAP1 DUP2 DUP2 MSTORE PUSH1 0x20 ADD DUP3 DUP1 SLOAD DUP1 ISZERO PUSH2 0xC67 JUMPI PUSH1 0x20 MUL DUP3 ADD SWAP2 SWAP1 PUSH1 0x0 MSTORE PUSH1 0x20 PUSH1 0x0 KECCAK256 SWAP1 JUMPDEST DUP2 SLOAD DUP2 MSTORE PUSH1 0x20 ADD SWAP1 PUSH1 0x1 ADD SWAP1 DUP1 DUP4 GT PUSH2 0xC53 JUMPI JUMPDEST POP POP POP POP POP SWAP1 POP SWAP5 POP SWAP5 POP SWAP5 POP SWAP5 POP SWAP5 POP SWAP2 SWAP4 SWAP6 SWAP1 SWAP3 SWAP5 POP JUMP JUMPDEST PUSH1 0x0 PUSH1 0x1 PUSH1 0x0 DUP4 DUP2 MSTORE PUSH1 0x20 ADD SWAP1 DUP2 MSTORE PUSH1 0x20 ADD PUSH1 0x0 KECCAK256 PUSH1 0x0 ADD PUSH1 0x0 SWAP1 SLOAD SWAP1 PUSH2 0x100 EXP SWAP1 DIV PUSH1 0xFF AND SWAP1 POP SWAP2 SWAP1 POP JUMP JUMPDEST PUSH1 0x60 PUSH1 0x1 PUSH1 0x0 DUP4 DUP2 MSTORE PUSH1 0x20 ADD SWAP1 DUP2 MSTORE PUSH1 0x20 ADD PUSH1 0x0 KECCAK256 PUSH1 0x1 ADD DUP1 SLOAD PUSH2 0xCD1 SWAP1 PUSH2 0x136E JUMP JUMPDEST DUP1 PUSH1 0x1F ADD PUSH1 0x20 DUP1 SWAP2 DIV MUL PUSH1 0x20 ADD PUSH1 0x40 MLOAD SWAP1 DUP2 ADD PUSH1 0x40 MSTORE DUP1 SWAP3 SWAP2 SWAP1 DUP2 DUP2 MSTORE PUSH1 0x20 ADD DUP3 DUP1 SLOAD PUSH2 0xCFD SWAP1 PUSH2 0x136E JUMP JUMPDEST DUP1 ISZERO PUSH2 0xD4A JUMPI DUP1 PUSH1 0x1F LT PUSH2 0xD1F JUMPI PUSH2 0x100 DUP1 DUP4 SLOAD DIV MUL DUP4 MSTORE SWAP2 PUSH1 0x20 ADD SWAP2 PUSH2 0xD4A JUMP JUMPDEST DUP3 ADD SWAP2 SWAP1 PUSH1 0x0 MSTORE PUSH1 0x20 PUSH1 0x0 KECCAK256 SWAP1 JUMPDEST DUP2 SLOAD DUP2 MSTORE SWAP1 PUSH1 0x1 ADD SWAP1 PUSH1 0x20 ADD DUP1 DUP4 GT PUSH2 0xD2D JUMPI DUP3 SWAP1 SUB PUSH1 0x1F AND DUP3 ADD SWAP2 JUMPDEST POP POP POP POP POP SWAP1 POP SWAP2 SWAP1 POP JUMP JUMPDEST DUP3 DUP1 SLOAD PUSH2 0xD62 SWAP1 PUSH2 0x136E JUMP JUMPDEST SWAP1 PUSH1 0x0 MSTORE PUSH1 0x20 PUSH1 0x0 KECCAK256 SWAP1 PUSH1 0x1F ADD PUSH1 0x20 SWAP1 DIV DUP2 ADD SWAP3 DUP3 PUSH2 0xD84 JUMPI PUSH1 0x0 DUP6 SSTORE PUSH2 0xDCB JUMP JUMPDEST DUP3 PUSH1 0x1F LT PUSH2 0xD9D JUMPI DUP1 MLOAD PUSH1 0xFF NOT AND DUP4 DUP1 ADD OR DUP6 SSTORE PUSH2 0xDCB JUMP JUMPDEST DUP3 DUP1 ADD PUSH1 0x1 ADD DUP6 SSTORE DUP3 ISZERO PUSH2 0xDCB JUMPI SWAP2 DUP3 ADD JUMPDEST DUP3 DUP2 GT ISZERO PUSH2 0xDCA JUMPI DUP3 MLOAD DUP3 SSTORE SWAP2 PUSH1 0x20 ADD SWAP2 SWAP1 PUSH1 0x1 ADD SWAP1 PUSH2 0xDAF JUMP JUMPDEST JUMPDEST POP SWAP1 POP PUSH2 0xDD8 SWAP2 SWAP1 PUSH2 0xE29 JUMP JUMPDEST POP SWAP1 JUMP JUMPDEST DUP3 DUP1 SLOAD DUP3 DUP3 SSTORE SWAP1 PUSH1 0x0 MSTORE PUSH1 0x20 PUSH1 0x0 KECCAK256 SWAP1 DUP2 ADD SWAP3 DUP3 ISZERO PUSH2 0xE18 JUMPI SWAP2 PUSH1 0x20 MUL DUP3 ADD JUMPDEST DUP3 DUP2 GT ISZERO PUSH2 0xE17 JUMPI DUP3 MLOAD DUP3 SSTORE SWAP2 PUSH1 0x20 ADD SWAP2 SWAP1 PUSH1 0x1 ADD SWAP1 PUSH2 0xDFC JUMP JUMPDEST JUMPDEST POP SWAP1 POP PUSH2 0xE25 SWAP2 SWAP1 PUSH2 0xE29 JUMP JUMPDEST POP SWAP1 JUMP JUMPDEST JUMPDEST DUP1 DUP3 GT ISZERO PUSH2 0xE42 JUMPI PUSH1 0x0 DUP2 PUSH1 0x0 SWAP1 SSTORE POP PUSH1 0x1 ADD PUSH2 0xE2A JUMP JUMPDEST POP SWAP1 JUMP JUMPDEST PUSH1 0x0 PUSH2 0xE59 PUSH2 0xE54 DUP5 PUSH2 0x1240 JUMP JUMPDEST PUSH2 0x120F JUMP JUMPDEST SWAP1 POP DUP1 DUP4 DUP3 MSTORE PUSH1 0x20 DUP3 ADD SWAP1 POP DUP3 DUP6 PUSH1 0x20 DUP7 MUL DUP3 ADD GT ISZERO PUSH2 0xE78 JUMPI PUSH1 0x0 DUP1 REVERT JUMPDEST PUSH1 0x0 JUMPDEST DUP6 DUP2 LT ISZERO PUSH2 0xEA8 JUMPI DUP2 PUSH2 0xE8E DUP9 DUP3 PUSH2 0xF59 JUMP JUMPDEST DUP5 MSTORE PUSH1 0x20 DUP5 ADD SWAP4 POP PUSH1 0x20 DUP4 ADD SWAP3 POP POP PUSH1 0x1 DUP2 ADD SWAP1 POP PUSH2 0xE7B JUMP JUMPDEST POP POP POP SWAP4 SWAP3 POP POP POP JUMP JUMPDEST PUSH1 0x0 PUSH2 0xEC5 PUSH2 0xEC0 DUP5 PUSH2 0x126C JUMP JUMPDEST PUSH2 0x120F JUMP JUMPDEST SWAP1 POP DUP3 DUP2 MSTORE PUSH1 0x20 DUP2 ADD DUP5 DUP5 DUP5 ADD GT ISZERO PUSH2 0xEDD JUMPI PUSH1 0x0 DUP1 REVERT JUMPDEST PUSH2 0xEE8 DUP5 DUP3 DUP6 PUSH2 0x132C JUMP JUMPDEST POP SWAP4 SWAP3 POP POP POP JUMP JUMPDEST PUSH1 0x0 DUP3 PUSH1 0x1F DUP4 ADD SLT PUSH2 0xF01 JUMPI PUSH1 0x0 DUP1 REVERT JUMPDEST DUP2 CALLDATALOAD PUSH2 0xF11 DUP5 DUP3 PUSH1 0x20 DUP7 ADD PUSH2 0xE46 JUMP JUMPDEST SWAP2 POP POP SWAP3 SWAP2 POP POP JUMP JUMPDEST PUSH1 0x0 DUP2 CALLDATALOAD SWAP1 POP PUSH2 0xF29 DUP2 PUSH2 0x14CA JUMP JUMPDEST SWAP3 SWAP2 POP POP JUMP JUMPDEST PUSH1 0x0 DUP3 PUSH1 0x1F DUP4 ADD SLT PUSH2 0xF40 JUMPI PUSH1 0x0 DUP1 REVERT JUMPDEST DUP2 CALLDATALOAD PUSH2 0xF50 DUP5 DUP3 PUSH1 0x20 DUP7 ADD PUSH2 0xEB2 JUMP JUMPDEST SWAP2 POP POP SWAP3 SWAP2 POP POP JUMP JUMPDEST PUSH1 0x0 DUP2 CALLDATALOAD SWAP1 POP PUSH2 0xF68 DUP2 PUSH2 0x14DA JUMP JUMPDEST SWAP3 SWAP2 POP POP JUMP JUMPDEST PUSH1 0x0 DUP1 PUSH1 0x0 DUP1 PUSH1 0x80 DUP6 DUP8 SUB SLT ISZERO PUSH2 0xF84 JUMPI PUSH1 0x0 DUP1 REVERT JUMPDEST PUSH1 0x0 DUP6 ADD CALLDATALOAD PUSH8 0xFFFFFFFFFFFFFFFF DUP2 GT ISZERO PUSH2 0xF9E JUMPI PUSH1 0x0 DUP1 REVERT JUMPDEST PUSH2 0xFAA DUP8 DUP3 DUP9 ADD PUSH2 0xF2F JUMP JUMPDEST SWAP5 POP POP PUSH1 0x20 PUSH2 0xFBB DUP8 DUP3 DUP9 ADD PUSH2 0xF1A JUMP JUMPDEST SWAP4 POP POP PUSH1 0x40 DUP6 ADD CALLDATALOAD PUSH8 0xFFFFFFFFFFFFFFFF DUP2 GT ISZERO PUSH2 0xFD8 JUMPI PUSH1 0x0 DUP1 REVERT JUMPDEST PUSH2 0xFE4 DUP8 DUP3 DUP9 ADD PUSH2 0xEF0 JUMP JUMPDEST SWAP3 POP POP PUSH1 0x60 DUP6 ADD CALLDATALOAD PUSH8 0xFFFFFFFFFFFFFFFF DUP2 GT ISZERO PUSH2 0x1001 JUMPI PUSH1 0x0 DUP1 REVERT JUMPDEST PUSH2 0x100D DUP8 DUP3 DUP9 ADD PUSH2 0xEF0 JUMP JUMPDEST SWAP2 POP POP SWAP3 SWAP6 SWAP2 SWAP5 POP SWAP3 POP JUMP JUMPDEST PUSH1 0x0 PUSH1 0x20 DUP3 DUP5 SUB SLT ISZERO PUSH2 0x102B JUMPI PUSH1 0x0 DUP1 REVERT JUMPDEST PUSH1 0x0 PUSH2 0x1039 DUP5 DUP3 DUP6 ADD PUSH2 0xF59 JUMP JUMPDEST SWAP2 POP POP SWAP3 SWAP2 POP POP JUMP JUMPDEST PUSH1 0x0 PUSH2 0x104E DUP4 DUP4 PUSH2 0x110F JUMP JUMPDEST PUSH1 0x20 DUP4 ADD SWAP1 POP SWAP3 SWAP2 POP POP JUMP JUMPDEST PUSH1 0x0 PUSH2 0x1065 DUP3 PUSH2 0x12AC JUMP JUMPDEST PUSH2 0x106F DUP2 DUP6 PUSH2 0x12CF JUMP JUMPDEST SWAP4 POP PUSH2 0x107A DUP4 PUSH2 0x129C JUMP JUMPDEST DUP1 PUSH1 0x0 JUMPDEST DUP4 DUP2 LT ISZERO PUSH2 0x10AB JUMPI DUP2 MLOAD PUSH2 0x1092 DUP9 DUP3 PUSH2 0x1042 JUMP JUMPDEST SWAP8 POP PUSH2 0x109D DUP4 PUSH2 0x12C2 JUMP JUMPDEST SWAP3 POP POP PUSH1 0x1 DUP2 ADD SWAP1 POP PUSH2 0x107E JUMP JUMPDEST POP DUP6 SWAP4 POP POP POP POP SWAP3 SWAP2 POP POP JUMP JUMPDEST PUSH2 0x10C1 DUP2 PUSH2 0x12F1 JUMP JUMPDEST DUP3 MSTORE POP POP JUMP JUMPDEST PUSH2 0x10D0 DUP2 PUSH2 0x131A JUMP JUMPDEST DUP3 MSTORE POP POP JUMP JUMPDEST PUSH1 0x0 PUSH2 0x10E1 DUP3 PUSH2 0x12B7 JUMP JUMPDEST PUSH2 0x10EB DUP2 DUP6 PUSH2 0x12E0 JUMP JUMPDEST SWAP4 POP PUSH2 0x10FB DUP2 DUP6 PUSH1 0x20 DUP7 ADD PUSH2 0x133B JUMP JUMPDEST PUSH2 0x1104 DUP2 PUSH2 0x14A5 JUMP JUMPDEST DUP5 ADD SWAP2 POP POP SWAP3 SWAP2 POP POP JUMP JUMPDEST PUSH2 0x1118 DUP2 PUSH2 0x1310 JUMP JUMPDEST DUP3 MSTORE POP POP JUMP JUMPDEST PUSH2 0x1127 DUP2 PUSH2 0x1310 JUMP JUMPDEST DUP3 MSTORE POP POP JUMP JUMPDEST PUSH1 0x0 PUSH1 0x20 DUP3 ADD SWAP1 POP DUP2 DUP2 SUB PUSH1 0x0 DUP4 ADD MSTORE PUSH2 0x1147 DUP2 DUP5 PUSH2 0x105A JUMP JUMPDEST SWAP1 POP SWAP3 SWAP2 POP POP JUMP JUMPDEST PUSH1 0x0 PUSH1 0x20 DUP3 ADD SWAP1 POP PUSH2 0x1164 PUSH1 0x0 DUP4 ADD DUP5 PUSH2 0x10B8 JUMP JUMPDEST SWAP3 SWAP2 POP POP JUMP JUMPDEST PUSH1 0x0 PUSH1 0xA0 DUP3 ADD SWAP1 POP PUSH2 0x117F PUSH1 0x0 DUP4 ADD DUP9 PUSH2 0x10B8 JUMP JUMPDEST DUP2 DUP2 SUB PUSH1 0x20 DUP4 ADD MSTORE PUSH2 0x1191 DUP2 DUP8 PUSH2 0x10D6 JUMP JUMPDEST SWAP1 POP PUSH2 0x11A0 PUSH1 0x40 DUP4 ADD DUP7 PUSH2 0x10C7 JUMP JUMPDEST DUP2 DUP2 SUB PUSH1 0x60 DUP4 ADD MSTORE PUSH2 0x11B2 DUP2 DUP6 PUSH2 0x105A JUMP JUMPDEST SWAP1 POP DUP2 DUP2 SUB PUSH1 0x80 DUP4 ADD MSTORE PUSH2 0x11C6 DUP2 DUP5 PUSH2 0x105A JUMP JUMPDEST SWAP1 POP SWAP7 SWAP6 POP POP POP POP POP POP JUMP JUMPDEST PUSH1 0x0 PUSH1 0x20 DUP3 ADD SWAP1 POP DUP2 DUP2 SUB PUSH1 0x0 DUP4 ADD MSTORE PUSH2 0x11EC DUP2 DUP5 PUSH2 0x10D6 JUMP JUMPDEST SWAP1 POP SWAP3 SWAP2 POP POP JUMP JUMPDEST PUSH1 0x0 PUSH1 0x20 DUP3 ADD SWAP1 POP PUSH2 0x1209 PUSH1 0x0 DUP4 ADD DUP5 PUSH2 0x111E JUMP JUMPDEST SWAP3 SWAP2 POP POP JUMP JUMPDEST PUSH1 0x0 PUSH1 0x40 MLOAD SWAP1 POP DUP2 DUP2 ADD DUP2 DUP2 LT PUSH8 0xFFFFFFFFFFFFFFFF DUP3 GT OR ISZERO PUSH2 0x1236 JUMPI PUSH2 0x1235 PUSH2 0x1476 JUMP JUMPDEST JUMPDEST DUP1 PUSH1 0x40 MSTORE POP SWAP2 SWAP1 POP JUMP JUMPDEST PUSH1 0x0 PUSH8 0xFFFFFFFFFFFFFFFF DUP3 GT ISZERO PUSH2 0x125B JUMPI PUSH2 0x125A PUSH2 0x1476 JUMP JUMPDEST JUMPDEST PUSH1 0x20 DUP3 MUL SWAP1 POP PUSH1 0x20 DUP2 ADD SWAP1 POP SWAP2 SWAP1 POP JUMP JUMPDEST PUSH1 0x0 PUSH8 0xFFFFFFFFFFFFFFFF DUP3 GT ISZERO PUSH2 0x1287 JUMPI PUSH2 0x1286 PUSH2 0x1476 JUMP JUMPDEST JUMPDEST PUSH1 0x1F NOT PUSH1 0x1F DUP4 ADD AND SWAP1 POP PUSH1 0x20 DUP2 ADD SWAP1 POP SWAP2 SWAP1 POP JUMP JUMPDEST PUSH1 0x0 DUP2 SWAP1 POP PUSH1 0x20 DUP3 ADD SWAP1 POP SWAP2 SWAP1 POP JUMP JUMPDEST PUSH1 0x0 DUP2 MLOAD SWAP1 POP SWAP2 SWAP1 POP JUMP JUMPDEST PUSH1 0x0 DUP2 MLOAD SWAP1 POP SWAP2 SWAP1 POP JUMP JUMPDEST PUSH1 0x0 PUSH1 0x20 DUP3 ADD SWAP1 POP SWAP2 SWAP1 POP JUMP JUMPDEST PUSH1 0x0 DUP3 DUP3 MSTORE PUSH1 0x20 DUP3 ADD SWAP1 POP SWAP3 SWAP2 POP POP JUMP JUMPDEST PUSH1 0x0 DUP3 DUP3 MSTORE PUSH1 0x20 DUP3 ADD SWAP1 POP SWAP3 SWAP2 POP POP JUMP JUMPDEST PUSH1 0x0 DUP2 ISZERO ISZERO SWAP1 POP SWAP2 SWAP1 POP JUMP JUMPDEST PUSH1 0x0 DUP2 SWAP1 POP PUSH2 0x130B DUP3 PUSH2 0x14B6 JUMP JUMPDEST SWAP2 SWAP1 POP JUMP JUMPDEST PUSH1 0x0 DUP2 SWAP1 POP SWAP2 SWAP1 POP JUMP JUMPDEST PUSH1 0x0 PUSH2 0x1325 DUP3 PUSH2 0x12FD JUMP JUMPDEST SWAP1 POP SWAP2 SWAP1 POP JUMP JUMPDEST DUP3 DUP2 DUP4 CALLDATACOPY PUSH1 0x0 DUP4 DUP4 ADD MSTORE POP POP POP JUMP JUMPDEST PUSH1 0x0 JUMPDEST DUP4 DUP2 LT ISZERO PUSH2 0x1359 JUMPI DUP1 DUP3 ADD MLOAD DUP2 DUP5 ADD MSTORE PUSH1 0x20 DUP2 ADD SWAP1 POP PUSH2 0x133E JUMP JUMPDEST DUP4 DUP2 GT ISZERO PUSH2 0x1368 JUMPI PUSH1 0x0 DUP5 DUP5 ADD MSTORE JUMPDEST POP POP POP POP JUMP JUMPDEST PUSH1 0x0 PUSH1 0x2 DUP3 DIV SWAP1 POP PUSH1 0x1 DUP3 AND DUP1 PUSH2 0x1386 JUMPI PUSH1 0x7F DUP3 AND SWAP2 POP JUMPDEST PUSH1 0x20 DUP3 LT DUP2 EQ ISZERO PUSH2 0x139A JUMPI PUSH2 0x1399 PUSH2 0x1447 JUMP JUMPDEST JUMPDEST POP SWAP2 SWAP1 POP JUMP JUMPDEST PUSH1 0x0 PUSH2 0x13AB DUP3 PUSH2 0x1310 JUMP JUMPDEST SWAP2 POP PUSH32 0xFFFFFFFFFFFFFFFFFFFFFFFFFFFFFFFFFFFFFFFFFFFFFFFFFFFFFFFFFFFFFFFF DUP3 EQ ISZERO PUSH2 0x13DE JUMPI PUSH2 0x13DD PUSH2 0x13E9 JUMP JUMPDEST JUMPDEST PUSH1 0x1 DUP3 ADD SWAP1 POP SWAP2 SWAP1 POP JUMP JUMPDEST PUSH32 0x4E487B7100000000000000000000000000000000000000000000000000000000 PUSH1 0x0 MSTORE PUSH1 0x11 PUSH1 0x4 MSTORE PUSH1 0x24 PUSH1 0x0 REVERT JUMPDEST PUSH32 0x4E487B7100000000000000000000000000000000000000000000000000000000 PUSH1 0x0 MSTORE PUSH1 0x21 PUSH1 0x4 MSTORE PUSH1 0x24 PUSH1 0x0 REVERT JUMPDEST PUSH32 0x4E487B7100000000000000000000000000000000000000000000000000000000 PUSH1 0x0 MSTORE PUSH1 0x22 PUSH1 0x4 MSTORE PUSH1 0x24 PUSH1 0x0 REVERT JUMPDEST PUSH32 0x4E487B7100000000000000000000000000000000000000000000000000000000 PUSH1 0x0 MSTORE PUSH1 0x41 PUSH1 0x4 MSTORE PUSH1 0x24 PUSH1 0x0 REVERT JUMPDEST PUSH1 0x0 PUSH1 0x1F NOT PUSH1 0x1F DUP4 ADD AND SWAP1 POP SWAP2 SWAP1 POP JUMP JUMPDEST PUSH1 0x4 DUP2 LT PUSH2 0x14C7 JUMPI PUSH2 0x14C6 PUSH2 0x1418 JUMP JUMPDEST JUMPDEST POP JUMP JUMPDEST PUSH1 0x4 DUP2 LT PUSH2 0x14D7 JUMPI PUSH1 0x0 DUP1 REVERT JUMPDEST POP JUMP JUMPDEST PUSH2 0x14E3 DUP2 PUSH2 0x1310 JUMP JUMPDEST DUP2 EQ PUSH2 0x14EE JUMPI PUSH1 0x0 DUP1 REVERT JUMPDEST POP JUMP INVALID LOG2 PUSH5 0x6970667358 0x22 SLT KECCAK256 0xD1 JUMP EXTCODESIZE PUSH11 0x6661662958D7BAABA11696 0xD 0xB4 0xD6 PUSH26 0xB393D332CEF04A35F3DAEC3CE264736F6C634300080000330000 "},"gasEstimates":{"creation":{"codeDepositCost":"1083000","executionCost":"6133","totalCost":"1089133"},"external":{"createTask(string,uint8,uint256[],uint256[])":"infinite","getTaskActivityById(uint256)":"infinite","getTaskById(uint256)":"infinite","getTaskRequirementsById(uint256)":"infinite","getTasks()":"infinite","isTaskCompletedById(uint256)":"1572","setTaskOnCompleted(uint256)":"infinite","tasksArray(uint256)":"infinite"}},"methodIdentifiers":{"createTask(string,uint8,uint256[],uint256[])":"3de723b1","getTaskActivityById(uint256)":"dbc38a82","getTaskById(uint256)":"976217cd","getTaskRequirementsById(uint256)":"95cffdf8","getTasks()":"04a87e38","isTaskCompletedById(uint256)":"9849cee9","setTaskOnCompleted(uint256)":"63e66d04","tasksArray(uint256)":"33251a3a"}},"storageLayout":{"storage":[{"astId":23,"contract":"BasicEnzian.sol:BasicEnzian","label":"globalTaskId","offset":0,"slot":"0","type":"t_uint256"},{"astId":28,"contract":"BasicEnzian.sol:BasicEnzian","label":"tasks","offset":0,"slot":"1","type":"t_mapping(t_uint256,t_struct(Task)20_storage)"},{"astId":31,"contract":"BasicEnzian.sol:BasicEnzian","label":"tasksArray","offset":0,"slot":"2","type":"t_array(t_uint256)dyn_storage"}],"types":{"t_array(t_uint256)dyn_storage":{"base":"t_uint256","encoding":"dynamic_array","label":"uint256[]","numberOfBytes":"32"},"t_bool":{"encoding":"inplace","label":"bool","numberOfBytes":"1"},"t_enum(Tasktype)6":{"encoding":"inplace","label":"enum BasicEnzian.Tasktype","numberOfBytes":"1"},"t_mapping(t_uint256,t_struct(Task)20_storage)":{"encoding":"mapping","key":"t_uint256","label":"mapping(uint256 => struct BasicEnzian.Task)","numberOfBytes":"32","value":"t_struct(Task)20_storage"},"t_string_storage":{"encoding":"bytes","label":"string","numberOfBytes":"32"},"t_struct(Task)20_storage":{"encoding":"inplace","label":"struct BasicEnzian.Task","members":[{"astId":8,"contract":"BasicEnzian.sol:BasicEnzian","label":"completed","offset":0,"slot":"0","type":"t_bool"},{"astId":10,"contract":"BasicEnzian.sol:BasicEnzian","label":"activity","offset":0,"slot":"1","type":"t_string_storage"},{"astId":13,"contract":"BasicEnzian.sol:BasicEnzian","label":"tasktype","offset":0,"slot":"2","type":"t_enum(Tasktype)6"},{"astId":16,"contract":"BasicEnzian.sol:BasicEnzian","label":"requirements","offset":0,"slot":"3","type":"t_array(t_uint256)dyn_storage"},{"astId":19,"contract":"BasicEnzian.sol:BasicEnzian","label":"competitors","offset":0,"slot":"4","type":"t_array(t_uint256)dyn_storage"}],"numberOfBytes":"160"},"t_uint256":{"encoding":"inplace","label":"uint256","numberOfBytes":"32"}}},"userdoc":{"kind":"user","methods":{},"version":1}}