{"abi":[{"anonymous":false,"inputs":[{"indexed":true,"internalType":"bool","name":"success","type":"bool"}],"name":"TaskCompleted","type":"event"},{"inputs":[{"internalType":"uint256","name":"taskId","type":"uint256"}],"name":"completing","outputs":[{"internalType":"bool","name":"success","type":"bool"}],"stateMutability":"nonpayable","type":"function"},{"inputs":[{"internalType":"uint256","name":"_id","type":"uint256"},{"internalType":"string","name":"_activity","type":"string"},{"internalType":"enum BasicEnzian.Tasktype","name":"_tasktype","type":"uint8"},{"internalType":"uint256[]","name":"_requirements","type":"uint256[]"},{"internalType":"uint256[]","name":"_competitors","type":"uint256[]"}],"name":"createTask","outputs":[],"stateMutability":"nonpayable","type":"function"},{"inputs":[{"internalType":"uint256","name":"","type":"uint256"}],"name":"debugStringeventLog","outputs":[{"internalType":"string","name":"","type":"string"}],"stateMutability":"view","type":"function"},{"inputs":[],"name":"getDebugStringeventLog","outputs":[{"internalType":"string[]","name":"theevents","type":"string[]"}],"stateMutability":"view","type":"function"},{"inputs":[],"name":"getLog","outputs":[{"internalType":"uint256[]","name":"theevents","type":"uint256[]"}],"stateMutability":"view","type":"function"},{"inputs":[{"internalType":"uint256","name":"_id","type":"uint256"}],"name":"getTaskById","outputs":[{"internalType":"bool","name":"status","type":"bool"},{"internalType":"string","name":"description","type":"string"},{"internalType":"enum BasicEnzian.Tasktype","name":"tasktype","type":"uint8"},{"internalType":"uint256[]","name":"requirements","type":"uint256[]"},{"internalType":"uint256[]","name":"competitors","type":"uint256[]"}],"stateMutability":"view","type":"function"},{"inputs":[{"internalType":"uint256","name":"_id","type":"uint256"}],"name":"isTaskCompletedById","outputs":[{"internalType":"bool","name":"success","type":"bool"}],"stateMutability":"view","type":"function"},{"inputs":[{"internalType":"uint256","name":"","type":"uint256"}],"name":"theRealEventLog","outputs":[{"internalType":"uint256","name":"","type":"uint256"}],"stateMutability":"view","type":"function"}],"devdoc":{"kind":"dev","methods":{},"version":1},"evm":{"assembly":"    /* \"BasicEnzian.sol\":26:3173  contract BasicEnzian {\r... */\n  mstore(0x40, 0x80)\n  callvalue\n  dup1\n  iszero\n  tag_1\n  jumpi\n  0x00\n  dup1\n  revert\ntag_1:\n  pop\n  dataSize(sub_0)\n  dup1\n  dataOffset(sub_0)\n  0x00\n  codecopy\n  0x00\n  return\nstop\n\nsub_0: assembly {\n        /* \"BasicEnzian.sol\":26:3173  contract BasicEnzian {\r... */\n      mstore(0x40, 0x80)\n      callvalue\n      dup1\n      iszero\n      tag_1\n      jumpi\n      0x00\n      dup1\n      revert\n    tag_1:\n      pop\n      jumpi(tag_2, lt(calldatasize, 0x04))\n      shr(0xe0, calldataload(0x00))\n      dup1\n      0x95794157\n      gt\n      tag_11\n      jumpi\n      dup1\n      0x95794157\n      eq\n      tag_7\n      jumpi\n      dup1\n      0x976217cd\n      eq\n      tag_8\n      jumpi\n      dup1\n      0x9849cee9\n      eq\n      tag_9\n      jumpi\n      dup1\n      0x993c0410\n      eq\n      tag_10\n      jumpi\n      jump(tag_2)\n    tag_11:\n      dup1\n      0x4d60f651\n      eq\n      tag_3\n      jumpi\n      dup1\n      0x61ea18df\n      eq\n      tag_4\n      jumpi\n      dup1\n      0x72a598cc\n      eq\n      tag_5\n      jumpi\n      dup1\n      0x909e4ab6\n      eq\n      tag_6\n      jumpi\n    tag_2:\n      0x00\n      dup1\n      revert\n        /* \"BasicEnzian.sol\":897:1023  function getDebugStringeventLog() public view returns(string[] memory theevents) {\r... */\n    tag_3:\n      tag_12\n      tag_13\n      jump\t// in\n    tag_12:\n      mload(0x40)\n      tag_14\n      swap2\n      swap1\n      tag_15\n      jump\t// in\n    tag_14:\n      mload(0x40)\n      dup1\n      swap2\n      sub\n      swap1\n      return\n        /* \"BasicEnzian.sol\":855:890  string[] public debugStringeventLog */\n    tag_4:\n      tag_16\n      0x04\n      dup1\n      calldatasize\n      sub\n      dup2\n      add\n      swap1\n      tag_17\n      swap2\n      swap1\n      tag_18\n      jump\t// in\n    tag_17:\n      tag_19\n      jump\t// in\n    tag_16:\n      mload(0x40)\n      tag_20\n      swap2\n      swap1\n      tag_21\n      jump\t// in\n    tag_20:\n      mload(0x40)\n      dup1\n      swap2\n      sub\n      swap1\n      return\n        /* \"BasicEnzian.sol\":1086:1455  function createTask(\r... */\n    tag_5:\n      tag_22\n      0x04\n      dup1\n      calldatasize\n      sub\n      dup2\n      add\n      swap1\n      tag_23\n      swap2\n      swap1\n      tag_24\n      jump\t// in\n    tag_23:\n      tag_25\n      jump\t// in\n    tag_22:\n      stop\n        /* \"BasicEnzian.sol\":651:755  function getLog() public view returns(uint[] memory theevents) {\r... */\n    tag_6:\n      tag_26\n      tag_27\n      jump\t// in\n    tag_26:\n      mload(0x40)\n      tag_28\n      swap2\n      swap1\n      tag_29\n      jump\t// in\n    tag_28:\n      mload(0x40)\n      dup1\n      swap2\n      sub\n      swap1\n      return\n        /* \"BasicEnzian.sol\":615:644  uint[] public theRealEventLog */\n    tag_7:\n      tag_30\n      0x04\n      dup1\n      calldatasize\n      sub\n      dup2\n      add\n      swap1\n      tag_31\n      swap2\n      swap1\n      tag_18\n      jump\t// in\n    tag_31:\n      tag_32\n      jump\t// in\n    tag_30:\n      mload(0x40)\n      tag_33\n      swap2\n      swap1\n      tag_34\n      jump\t// in\n    tag_33:\n      mload(0x40)\n      dup1\n      swap2\n      sub\n      swap1\n      return\n        /* \"BasicEnzian.sol\":2836:3168  function getTaskById(uint _id) public view returns (bool status,\r... */\n    tag_8:\n      tag_35\n      0x04\n      dup1\n      calldatasize\n      sub\n      dup2\n      add\n      swap1\n      tag_36\n      swap2\n      swap1\n      tag_18\n      jump\t// in\n    tag_36:\n      tag_37\n      jump\t// in\n    tag_35:\n      mload(0x40)\n      tag_38\n      swap6\n      swap5\n      swap4\n      swap3\n      swap2\n      swap1\n      tag_39\n      jump\t// in\n    tag_38:\n      mload(0x40)\n      dup1\n      swap2\n      sub\n      swap1\n      return\n        /* \"BasicEnzian.sol\":2608:2731  function isTaskCompletedById(uint _id) public view returns (bool success){\r... */\n    tag_9:\n      tag_40\n      0x04\n      dup1\n      calldatasize\n      sub\n      dup2\n      add\n      swap1\n      tag_41\n      swap2\n      swap1\n      tag_18\n      jump\t// in\n    tag_41:\n      tag_42\n      jump\t// in\n    tag_40:\n      mload(0x40)\n      tag_43\n      swap2\n      swap1\n      tag_44\n      jump\t// in\n    tag_43:\n      mload(0x40)\n      dup1\n      swap2\n      sub\n      swap1\n      return\n        /* \"BasicEnzian.sol\":1563:2507  function completing(uint taskId) public returns (bool success){\r... */\n    tag_10:\n      tag_45\n      0x04\n      dup1\n      calldatasize\n      sub\n      dup2\n      add\n      swap1\n      tag_46\n      swap2\n      swap1\n      tag_18\n      jump\t// in\n    tag_46:\n      tag_47\n      jump\t// in\n    tag_45:\n      mload(0x40)\n      tag_48\n      swap2\n      swap1\n      tag_44\n      jump\t// in\n    tag_48:\n      mload(0x40)\n      dup1\n      swap2\n      sub\n      swap1\n      return\n        /* \"BasicEnzian.sol\":897:1023  function getDebugStringeventLog() public view returns(string[] memory theevents) {\r... */\n    tag_13:\n        /* \"BasicEnzian.sol\":951:976  string[] memory theevents */\n      0x60\n        /* \"BasicEnzian.sol\":996:1015  debugStringeventLog */\n      0x02\n        /* \"BasicEnzian.sol\":989:1015  return debugStringeventLog */\n      dup1\n      sload\n      dup1\n      0x20\n      mul\n      0x20\n      add\n      mload(0x40)\n      swap1\n      dup2\n      add\n      0x40\n      mstore\n      dup1\n      swap3\n      swap2\n      swap1\n      dup2\n      dup2\n      mstore\n      0x20\n      add\n      0x00\n      swap1\n    tag_50:\n      dup3\n      dup3\n      lt\n      iszero\n      tag_51\n      jumpi\n      dup4\n      dup3\n      swap1\n      0x00\n      mstore\n      keccak256(0x00, 0x20)\n      add\n      dup1\n      sload\n      tag_53\n      swap1\n      tag_54\n      jump\t// in\n    tag_53:\n      dup1\n      0x1f\n      add\n      0x20\n      dup1\n      swap2\n      div\n      mul\n      0x20\n      add\n      mload(0x40)\n      swap1\n      dup2\n      add\n      0x40\n      mstore\n      dup1\n      swap3\n      swap2\n      swap1\n      dup2\n      dup2\n      mstore\n      0x20\n      add\n      dup3\n      dup1\n      sload\n      tag_55\n      swap1\n      tag_54\n      jump\t// in\n    tag_55:\n      dup1\n      iszero\n      tag_56\n      jumpi\n      dup1\n      0x1f\n      lt\n      tag_57\n      jumpi\n      0x0100\n      dup1\n      dup4\n      sload\n      div\n      mul\n      dup4\n      mstore\n      swap2\n      0x20\n      add\n      swap2\n      jump(tag_56)\n    tag_57:\n      dup3\n      add\n      swap2\n      swap1\n      0x00\n      mstore\n      keccak256(0x00, 0x20)\n      swap1\n    tag_58:\n      dup2\n      sload\n      dup2\n      mstore\n      swap1\n      0x01\n      add\n      swap1\n      0x20\n      add\n      dup1\n      dup4\n      gt\n      tag_58\n      jumpi\n      dup3\n      swap1\n      sub\n      0x1f\n      and\n      dup3\n      add\n      swap2\n    tag_56:\n      pop\n      pop\n      pop\n      pop\n      pop\n      dup2\n      mstore\n      0x20\n      add\n      swap1\n      0x01\n      add\n      swap1\n      jump(tag_50)\n    tag_51:\n      pop\n      pop\n      pop\n      pop\n      swap1\n      pop\n        /* \"BasicEnzian.sol\":897:1023  function getDebugStringeventLog() public view returns(string[] memory theevents) {\r... */\n      swap1\n      jump\t// out\n        /* \"BasicEnzian.sol\":855:890  string[] public debugStringeventLog */\n    tag_19:\n      0x02\n      dup2\n      dup2\n      sload\n      dup2\n      lt\n      tag_59\n      jumpi\n      0x00\n      dup1\n      revert\n    tag_59:\n      swap1\n      0x00\n      mstore\n      keccak256(0x00, 0x20)\n      add\n      0x00\n      swap2\n      pop\n      swap1\n      pop\n      dup1\n      sload\n      tag_61\n      swap1\n      tag_54\n      jump\t// in\n    tag_61:\n      dup1\n      0x1f\n      add\n      0x20\n      dup1\n      swap2\n      div\n      mul\n      0x20\n      add\n      mload(0x40)\n      swap1\n      dup2\n      add\n      0x40\n      mstore\n      dup1\n      swap3\n      swap2\n      swap1\n      dup2\n      dup2\n      mstore\n      0x20\n      add\n      dup3\n      dup1\n      sload\n      tag_62\n      swap1\n      tag_54\n      jump\t// in\n    tag_62:\n      dup1\n      iszero\n      tag_63\n      jumpi\n      dup1\n      0x1f\n      lt\n      tag_64\n      jumpi\n      0x0100\n      dup1\n      dup4\n      sload\n      div\n      mul\n      dup4\n      mstore\n      swap2\n      0x20\n      add\n      swap2\n      jump(tag_63)\n    tag_64:\n      dup3\n      add\n      swap2\n      swap1\n      0x00\n      mstore\n      keccak256(0x00, 0x20)\n      swap1\n    tag_65:\n      dup2\n      sload\n      dup2\n      mstore\n      swap1\n      0x01\n      add\n      swap1\n      0x20\n      add\n      dup1\n      dup4\n      gt\n      tag_65\n      jumpi\n      dup3\n      swap1\n      sub\n      0x1f\n      and\n      dup3\n      add\n      swap2\n    tag_63:\n      pop\n      pop\n      pop\n      pop\n      pop\n      dup2\n      jump\t// out\n        /* \"BasicEnzian.sol\":1086:1455  function createTask(\r... */\n    tag_25:\n        /* \"BasicEnzian.sol\":1317:1337  Task memory myStruct */\n      0x00\n        /* \"BasicEnzian.sol\":1340:1403  Task (false, _activity, _tasktype, _requirements, _competitors) */\n      mload(0x40)\n      dup1\n      0xa0\n      add\n      0x40\n      mstore\n      dup1\n        /* \"BasicEnzian.sol\":1346:1351  false */\n      0x00\n        /* \"BasicEnzian.sol\":1340:1403  Task (false, _activity, _tasktype, _requirements, _competitors) */\n      iszero\n      iszero\n      dup2\n      mstore\n      0x20\n      add\n        /* \"BasicEnzian.sol\":1353:1362  _activity */\n      dup7\n        /* \"BasicEnzian.sol\":1340:1403  Task (false, _activity, _tasktype, _requirements, _competitors) */\n      dup2\n      mstore\n      0x20\n      add\n        /* \"BasicEnzian.sol\":1364:1373  _tasktype */\n      dup6\n        /* \"BasicEnzian.sol\":1340:1403  Task (false, _activity, _tasktype, _requirements, _competitors) */\n      0x03\n      dup2\n      gt\n      iszero\n      tag_67\n      jumpi\n      mstore(0x00, 0x4e487b7100000000000000000000000000000000000000000000000000000000)\n      mstore(0x04, 0x21)\n      revert(0x00, 0x24)\n    tag_67:\n      dup2\n      mstore\n      0x20\n      add\n        /* \"BasicEnzian.sol\":1375:1388  _requirements */\n      dup5\n        /* \"BasicEnzian.sol\":1340:1403  Task (false, _activity, _tasktype, _requirements, _competitors) */\n      dup2\n      mstore\n      0x20\n      add\n        /* \"BasicEnzian.sol\":1390:1402  _competitors */\n      dup4\n        /* \"BasicEnzian.sol\":1340:1403  Task (false, _activity, _tasktype, _requirements, _competitors) */\n      dup2\n      mstore\n      pop\n        /* \"BasicEnzian.sol\":1317:1403  Task memory myStruct = Task (false, _activity, _tasktype, _requirements, _competitors) */\n      swap1\n      pop\n        /* \"BasicEnzian.sol\":1428:1436  myStruct */\n      dup1\n        /* \"BasicEnzian.sol\":1414:1419  tasks */\n      0x00\n        /* \"BasicEnzian.sol\":1414:1424  tasks[_id] */\n      dup1\n        /* \"BasicEnzian.sol\":1420:1423  _id */\n      dup9\n        /* \"BasicEnzian.sol\":1414:1424  tasks[_id] */\n      dup2\n      mstore\n      0x20\n      add\n      swap1\n      dup2\n      mstore\n      0x20\n      add\n      0x00\n      keccak256\n        /* \"BasicEnzian.sol\":1414:1437  tasks[_id] = (myStruct) */\n      0x00\n      dup3\n      add\n      mload\n      dup2\n      0x00\n      add\n      exp(0x0100, 0x00)\n      dup2\n      sload\n      dup2\n      0xff\n      mul\n      not\n      and\n      swap1\n      dup4\n      iszero\n      iszero\n      mul\n      or\n      swap1\n      sstore\n      pop\n      0x20\n      dup3\n      add\n      mload\n      dup2\n      0x01\n      add\n      swap1\n      dup1\n      mload\n      swap1\n      0x20\n      add\n      swap1\n      tag_68\n      swap3\n      swap2\n      swap1\n      tag_69\n      jump\t// in\n    tag_68:\n      pop\n      0x40\n      dup3\n      add\n      mload\n      dup2\n      0x02\n      add\n      exp(0x0100, 0x00)\n      dup2\n      sload\n      dup2\n      0xff\n      mul\n      not\n      and\n      swap1\n      dup4\n      0x03\n      dup2\n      gt\n      iszero\n      tag_70\n      jumpi\n      mstore(0x00, 0x4e487b7100000000000000000000000000000000000000000000000000000000)\n      mstore(0x04, 0x21)\n      revert(0x00, 0x24)\n    tag_70:\n      mul\n      or\n      swap1\n      sstore\n      pop\n      0x60\n      dup3\n      add\n      mload\n      dup2\n      0x03\n      add\n      swap1\n      dup1\n      mload\n      swap1\n      0x20\n      add\n      swap1\n      tag_71\n      swap3\n      swap2\n      swap1\n      tag_72\n      jump\t// in\n    tag_71:\n      pop\n      0x80\n      dup3\n      add\n      mload\n      dup2\n      0x04\n      add\n      swap1\n      dup1\n      mload\n      swap1\n      0x20\n      add\n      swap1\n      tag_73\n      swap3\n      swap2\n      swap1\n      tag_72\n      jump\t// in\n    tag_73:\n      pop\n      swap1\n      pop\n      pop\n        /* \"BasicEnzian.sol\":1086:1455  function createTask(\r... */\n      pop\n      pop\n      pop\n      pop\n      pop\n      pop\n      jump\t// out\n        /* \"BasicEnzian.sol\":651:755  function getLog() public view returns(uint[] memory theevents) {\r... */\n    tag_27:\n        /* \"BasicEnzian.sol\":689:712  uint[] memory theevents */\n      0x60\n        /* \"BasicEnzian.sol\":732:747  theRealEventLog */\n      0x01\n        /* \"BasicEnzian.sol\":725:747  return theRealEventLog */\n      dup1\n      sload\n      dup1\n      0x20\n      mul\n      0x20\n      add\n      mload(0x40)\n      swap1\n      dup2\n      add\n      0x40\n      mstore\n      dup1\n      swap3\n      swap2\n      swap1\n      dup2\n      dup2\n      mstore\n      0x20\n      add\n      dup3\n      dup1\n      sload\n      dup1\n      iszero\n      tag_75\n      jumpi\n      0x20\n      mul\n      dup3\n      add\n      swap2\n      swap1\n      0x00\n      mstore\n      keccak256(0x00, 0x20)\n      swap1\n    tag_76:\n      dup2\n      sload\n      dup2\n      mstore\n      0x20\n      add\n      swap1\n      0x01\n      add\n      swap1\n      dup1\n      dup4\n      gt\n      tag_76\n      jumpi\n    tag_75:\n      pop\n      pop\n      pop\n      pop\n      pop\n      swap1\n      pop\n        /* \"BasicEnzian.sol\":651:755  function getLog() public view returns(uint[] memory theevents) {\r... */\n      swap1\n      jump\t// out\n        /* \"BasicEnzian.sol\":615:644  uint[] public theRealEventLog */\n    tag_32:\n      0x01\n      dup2\n      dup2\n      sload\n      dup2\n      lt\n      tag_77\n      jumpi\n      0x00\n      dup1\n      revert\n    tag_77:\n      swap1\n      0x00\n      mstore\n      keccak256(0x00, 0x20)\n      add\n      0x00\n      swap2\n      pop\n      swap1\n      pop\n      sload\n      dup2\n      jump\t// out\n        /* \"BasicEnzian.sol\":2836:3168  function getTaskById(uint _id) public view returns (bool status,\r... */\n    tag_37:\n        /* \"BasicEnzian.sol\":2888:2899  bool status */\n      0x00\n        /* \"BasicEnzian.sol\":2910:2935  string memory description */\n      0x60\n        /* \"BasicEnzian.sol\":2937:2954  Tasktype tasktype */\n      0x00\n        /* \"BasicEnzian.sol\":2965:2991  uint[] memory requirements */\n      0x60\n        /* \"BasicEnzian.sol\":2993:3018  uint[] memory competitors */\n      dup1\n        /* \"BasicEnzian.sol\":3038:3043  tasks */\n      0x00\n        /* \"BasicEnzian.sol\":3038:3048  tasks[_id] */\n      dup1\n        /* \"BasicEnzian.sol\":3044:3047  _id */\n      dup8\n        /* \"BasicEnzian.sol\":3038:3048  tasks[_id] */\n      dup2\n      mstore\n      0x20\n      add\n      swap1\n      dup2\n      mstore\n      0x20\n      add\n      0x00\n      keccak256\n        /* \"BasicEnzian.sol\":3038:3058  tasks[_id].completed */\n      0x00\n      add\n      0x00\n      swap1\n      sload\n      swap1\n      0x0100\n      exp\n      swap1\n      div\n      0xff\n      and\n        /* \"BasicEnzian.sol\":3060:3065  tasks */\n      0x00\n        /* \"BasicEnzian.sol\":3060:3070  tasks[_id] */\n      dup1\n        /* \"BasicEnzian.sol\":3066:3069  _id */\n      dup9\n        /* \"BasicEnzian.sol\":3060:3070  tasks[_id] */\n      dup2\n      mstore\n      0x20\n      add\n      swap1\n      dup2\n      mstore\n      0x20\n      add\n      0x00\n      keccak256\n        /* \"BasicEnzian.sol\":3060:3079  tasks[_id].activity */\n      0x01\n      add\n        /* \"BasicEnzian.sol\":3091:3096  tasks */\n      0x00\n        /* \"BasicEnzian.sol\":3091:3101  tasks[_id] */\n      dup1\n        /* \"BasicEnzian.sol\":3097:3100  _id */\n      dup10\n        /* \"BasicEnzian.sol\":3091:3101  tasks[_id] */\n      dup2\n      mstore\n      0x20\n      add\n      swap1\n      dup2\n      mstore\n      0x20\n      add\n      0x00\n      keccak256\n        /* \"BasicEnzian.sol\":3091:3110  tasks[_id].tasktype */\n      0x02\n      add\n      0x00\n      swap1\n      sload\n      swap1\n      0x0100\n      exp\n      swap1\n      div\n      0xff\n      and\n        /* \"BasicEnzian.sol\":3112:3117  tasks */\n      0x00\n        /* \"BasicEnzian.sol\":3112:3122  tasks[_id] */\n      dup1\n        /* \"BasicEnzian.sol\":3118:3121  _id */\n      dup11\n        /* \"BasicEnzian.sol\":3112:3122  tasks[_id] */\n      dup2\n      mstore\n      0x20\n      add\n      swap1\n      dup2\n      mstore\n      0x20\n      add\n      0x00\n      keccak256\n        /* \"BasicEnzian.sol\":3112:3135  tasks[_id].requirements */\n      0x03\n      add\n        /* \"BasicEnzian.sol\":3137:3142  tasks */\n      0x00\n        /* \"BasicEnzian.sol\":3137:3147  tasks[_id] */\n      dup1\n        /* \"BasicEnzian.sol\":3143:3146  _id */\n      dup12\n        /* \"BasicEnzian.sol\":3137:3147  tasks[_id] */\n      dup2\n      mstore\n      0x20\n      add\n      swap1\n      dup2\n      mstore\n      0x20\n      add\n      0x00\n      keccak256\n        /* \"BasicEnzian.sol\":3137:3159  tasks[_id].competitors */\n      0x04\n      add\n        /* \"BasicEnzian.sol\":3030:3160  return (tasks[_id].completed, tasks[_id].activity,\r... */\n      dup4\n      dup1\n      sload\n      tag_80\n      swap1\n      tag_54\n      jump\t// in\n    tag_80:\n      dup1\n      0x1f\n      add\n      0x20\n      dup1\n      swap2\n      div\n      mul\n      0x20\n      add\n      mload(0x40)\n      swap1\n      dup2\n      add\n      0x40\n      mstore\n      dup1\n      swap3\n      swap2\n      swap1\n      dup2\n      dup2\n      mstore\n      0x20\n      add\n      dup3\n      dup1\n      sload\n      tag_81\n      swap1\n      tag_54\n      jump\t// in\n    tag_81:\n      dup1\n      iszero\n      tag_82\n      jumpi\n      dup1\n      0x1f\n      lt\n      tag_83\n      jumpi\n      0x0100\n      dup1\n      dup4\n      sload\n      div\n      mul\n      dup4\n      mstore\n      swap2\n      0x20\n      add\n      swap2\n      jump(tag_82)\n    tag_83:\n      dup3\n      add\n      swap2\n      swap1\n      0x00\n      mstore\n      keccak256(0x00, 0x20)\n      swap1\n    tag_84:\n      dup2\n      sload\n      dup2\n      mstore\n      swap1\n      0x01\n      add\n      swap1\n      0x20\n      add\n      dup1\n      dup4\n      gt\n      tag_84\n      jumpi\n      dup3\n      swap1\n      sub\n      0x1f\n      and\n      dup3\n      add\n      swap2\n    tag_82:\n      pop\n      pop\n      pop\n      pop\n      pop\n      swap4\n      pop\n      dup2\n      dup1\n      sload\n      dup1\n      0x20\n      mul\n      0x20\n      add\n      mload(0x40)\n      swap1\n      dup2\n      add\n      0x40\n      mstore\n      dup1\n      swap3\n      swap2\n      swap1\n      dup2\n      dup2\n      mstore\n      0x20\n      add\n      dup3\n      dup1\n      sload\n      dup1\n      iszero\n      tag_85\n      jumpi\n      0x20\n      mul\n      dup3\n      add\n      swap2\n      swap1\n      0x00\n      mstore\n      keccak256(0x00, 0x20)\n      swap1\n    tag_86:\n      dup2\n      sload\n      dup2\n      mstore\n      0x20\n      add\n      swap1\n      0x01\n      add\n      swap1\n      dup1\n      dup4\n      gt\n      tag_86\n      jumpi\n    tag_85:\n      pop\n      pop\n      pop\n      pop\n      pop\n      swap2\n      pop\n      dup1\n      dup1\n      sload\n      dup1\n      0x20\n      mul\n      0x20\n      add\n      mload(0x40)\n      swap1\n      dup2\n      add\n      0x40\n      mstore\n      dup1\n      swap3\n      swap2\n      swap1\n      dup2\n      dup2\n      mstore\n      0x20\n      add\n      dup3\n      dup1\n      sload\n      dup1\n      iszero\n      tag_87\n      jumpi\n      0x20\n      mul\n      dup3\n      add\n      swap2\n      swap1\n      0x00\n      mstore\n      keccak256(0x00, 0x20)\n      swap1\n    tag_88:\n      dup2\n      sload\n      dup2\n      mstore\n      0x20\n      add\n      swap1\n      0x01\n      add\n      swap1\n      dup1\n      dup4\n      gt\n      tag_88\n      jumpi\n    tag_87:\n      pop\n      pop\n      pop\n      pop\n      pop\n      swap1\n      pop\n      swap5\n      pop\n      swap5\n      pop\n      swap5\n      pop\n      swap5\n      pop\n      swap5\n      pop\n        /* \"BasicEnzian.sol\":2836:3168  function getTaskById(uint _id) public view returns (bool status,\r... */\n      swap2\n      swap4\n      swap6\n      swap1\n      swap3\n      swap5\n      pop\n      jump\t// out\n        /* \"BasicEnzian.sol\":2608:2731  function isTaskCompletedById(uint _id) public view returns (bool success){\r... */\n    tag_42:\n        /* \"BasicEnzian.sol\":2668:2680  bool success */\n      0x00\n        /* \"BasicEnzian.sol\":2702:2707  tasks */\n      dup1\n        /* \"BasicEnzian.sol\":2702:2712  tasks[_id] */\n      0x00\n        /* \"BasicEnzian.sol\":2708:2711  _id */\n      dup4\n        /* \"BasicEnzian.sol\":2702:2712  tasks[_id] */\n      dup2\n      mstore\n      0x20\n      add\n      swap1\n      dup2\n      mstore\n      0x20\n      add\n      0x00\n      keccak256\n        /* \"BasicEnzian.sol\":2702:2722  tasks[_id].completed */\n      0x00\n      add\n      0x00\n      swap1\n      sload\n      swap1\n      0x0100\n      exp\n      swap1\n      div\n      0xff\n      and\n        /* \"BasicEnzian.sol\":2694:2723  return (tasks[_id].completed) */\n      swap1\n      pop\n        /* \"BasicEnzian.sol\":2608:2731  function isTaskCompletedById(uint _id) public view returns (bool success){\r... */\n      swap2\n      swap1\n      pop\n      jump\t// out\n        /* \"BasicEnzian.sol\":1563:2507  function completing(uint taskId) public returns (bool success){\r... */\n    tag_47:\n        /* \"BasicEnzian.sol\":1612:1624  bool success */\n      0x00\n        /* \"BasicEnzian.sol\":1764:1789  uint[] memory temprequire */\n      dup1\n        /* \"BasicEnzian.sol\":1792:1797  tasks */\n      0x00\n        /* \"BasicEnzian.sol\":1792:1805  tasks[taskId] */\n      dup1\n        /* \"BasicEnzian.sol\":1798:1804  taskId */\n      dup5\n        /* \"BasicEnzian.sol\":1792:1805  tasks[taskId] */\n      dup2\n      mstore\n      0x20\n      add\n      swap1\n      dup2\n      mstore\n      0x20\n      add\n      0x00\n      keccak256\n        /* \"BasicEnzian.sol\":1792:1818  tasks[taskId].requirements */\n      0x03\n      add\n        /* \"BasicEnzian.sol\":1764:1818  uint[] memory temprequire = tasks[taskId].requirements */\n      dup1\n      sload\n      dup1\n      0x20\n      mul\n      0x20\n      add\n      mload(0x40)\n      swap1\n      dup2\n      add\n      0x40\n      mstore\n      dup1\n      swap3\n      swap2\n      swap1\n      dup2\n      dup2\n      mstore\n      0x20\n      add\n      dup3\n      dup1\n      sload\n      dup1\n      iszero\n      tag_91\n      jumpi\n      0x20\n      mul\n      dup3\n      add\n      swap2\n      swap1\n      0x00\n      mstore\n      keccak256(0x00, 0x20)\n      swap1\n    tag_92:\n      dup2\n      sload\n      dup2\n      mstore\n      0x20\n      add\n      swap1\n      0x01\n      add\n      swap1\n      dup1\n      dup4\n      gt\n      tag_92\n      jumpi\n    tag_91:\n      pop\n      pop\n      pop\n      pop\n      pop\n      swap1\n      pop\n        /* \"BasicEnzian.sol\":1855:1856  0 */\n      0x00\n        /* \"BasicEnzian.sol\":1833:1844  temprequire */\n      dup2\n        /* \"BasicEnzian.sol\":1833:1851  temprequire.length */\n      mload\n        /* \"BasicEnzian.sol\":1833:1856  temprequire.length == 0 */\n      eq\n        /* \"BasicEnzian.sol\":1829:2145  if (temprequire.length == 0) {\r... */\n      iszero\n      tag_93\n      jumpi\n        /* \"BasicEnzian.sol\":1883:1887  true */\n      0x01\n        /* \"BasicEnzian.sol\":1873:1887  success = true */\n      swap2\n      pop\n        /* \"BasicEnzian.sol\":1829:2145  if (temprequire.length == 0) {\r... */\n      jump(tag_94)\n    tag_93:\n        /* \"BasicEnzian.sol\":1979:1992  Tasktype.TASK */\n      0x00\n        /* \"BasicEnzian.sol\":1953:1992  tasks[taskId].tasktype == Tasktype.TASK */\n      0x03\n      dup2\n      gt\n      iszero\n      tag_95\n      jumpi\n      mstore(0x00, 0x4e487b7100000000000000000000000000000000000000000000000000000000)\n      mstore(0x04, 0x21)\n      revert(0x00, 0x24)\n    tag_95:\n        /* \"BasicEnzian.sol\":1953:1958  tasks */\n      0x00\n        /* \"BasicEnzian.sol\":1953:1966  tasks[taskId] */\n      dup1\n        /* \"BasicEnzian.sol\":1959:1965  taskId */\n      dup6\n        /* \"BasicEnzian.sol\":1953:1966  tasks[taskId] */\n      dup2\n      mstore\n      0x20\n      add\n      swap1\n      dup2\n      mstore\n      0x20\n      add\n      0x00\n      keccak256\n        /* \"BasicEnzian.sol\":1953:1975  tasks[taskId].tasktype */\n      0x02\n      add\n      0x00\n      swap1\n      sload\n      swap1\n      0x0100\n      exp\n      swap1\n      div\n      0xff\n      and\n        /* \"BasicEnzian.sol\":1953:1992  tasks[taskId].tasktype == Tasktype.TASK */\n      0x03\n      dup2\n      gt\n      iszero\n      tag_96\n      jumpi\n      mstore(0x00, 0x4e487b7100000000000000000000000000000000000000000000000000000000)\n      mstore(0x04, 0x21)\n      revert(0x00, 0x24)\n    tag_96:\n      eq\n        /* \"BasicEnzian.sol\":1949:2134  if (tasks[taskId].tasktype == Tasktype.TASK) {\r... */\n      iszero\n      tag_97\n      jumpi\n        /* \"BasicEnzian.sol\":2056:2060  true */\n      0x01\n        /* \"BasicEnzian.sol\":2017:2060  isTaskCompletedById(temprequire[0]) == true */\n      iszero\n      iszero\n        /* \"BasicEnzian.sol\":2017:2052  isTaskCompletedById(temprequire[0]) */\n      tag_98\n        /* \"BasicEnzian.sol\":2037:2048  temprequire */\n      dup3\n        /* \"BasicEnzian.sol\":2049:2050  0 */\n      0x00\n        /* \"BasicEnzian.sol\":2037:2051  temprequire[0] */\n      dup2\n      mload\n      dup2\n      lt\n      tag_99\n      jumpi\n      mstore(0x00, 0x4e487b7100000000000000000000000000000000000000000000000000000000)\n      mstore(0x04, 0x32)\n      revert(0x00, 0x24)\n    tag_99:\n      0x20\n      mul\n      0x20\n      add\n      add\n      mload\n        /* \"BasicEnzian.sol\":2017:2036  isTaskCompletedById */\n      tag_42\n        /* \"BasicEnzian.sol\":2017:2052  isTaskCompletedById(temprequire[0]) */\n      jump\t// in\n    tag_98:\n        /* \"BasicEnzian.sol\":2017:2060  isTaskCompletedById(temprequire[0]) == true */\n      iszero\n      iszero\n      eq\n        /* \"BasicEnzian.sol\":2013:2119  if (isTaskCompletedById(temprequire[0]) == true) {\r... */\n      iszero\n      tag_100\n      jumpi\n        /* \"BasicEnzian.sol\":2095:2099  true */\n      0x01\n        /* \"BasicEnzian.sol\":2085:2099  success = true */\n      swap2\n      pop\n        /* \"BasicEnzian.sol\":2013:2119  if (isTaskCompletedById(temprequire[0]) == true) {\r... */\n    tag_100:\n        /* \"BasicEnzian.sol\":1949:2134  if (tasks[taskId].tasktype == Tasktype.TASK) {\r... */\n    tag_97:\n        /* \"BasicEnzian.sol\":1829:2145  if (temprequire.length == 0) {\r... */\n    tag_94:\n        /* \"BasicEnzian.sol\":2177:2184  success */\n      dup2\n        /* \"BasicEnzian.sol\":2174:2455  if(success) {\r... */\n      iszero\n      tag_101\n      jumpi\n        /* \"BasicEnzian.sol\":2227:2231  true */\n      0x01\n        /* \"BasicEnzian.sol\":2201:2206  tasks */\n      0x00\n        /* \"BasicEnzian.sol\":2201:2214  tasks[taskId] */\n      dup1\n        /* \"BasicEnzian.sol\":2207:2213  taskId */\n      dup6\n        /* \"BasicEnzian.sol\":2201:2214  tasks[taskId] */\n      dup2\n      mstore\n      0x20\n      add\n      swap1\n      dup2\n      mstore\n      0x20\n      add\n      0x00\n      keccak256\n        /* \"BasicEnzian.sol\":2201:2224  tasks[taskId].completed */\n      0x00\n      add\n      0x00\n        /* \"BasicEnzian.sol\":2201:2231  tasks[taskId].completed = true */\n      0x0100\n      exp\n      dup2\n      sload\n      dup2\n      0xff\n      mul\n      not\n      and\n      swap1\n      dup4\n      iszero\n      iszero\n      mul\n      or\n      swap1\n      sstore\n      pop\n        /* \"BasicEnzian.sol\":2246:2261  theRealEventLog */\n      0x01\n        /* \"BasicEnzian.sol\":2267:2273  taskId */\n      dup4\n        /* \"BasicEnzian.sol\":2246:2274  theRealEventLog.push(taskId) */\n      swap1\n      dup1\n      0x01\n      dup2\n      sload\n      add\n      dup1\n      dup3\n      sstore\n      dup1\n      swap2\n      pop\n      pop\n      0x01\n      swap1\n      sub\n      swap1\n      0x00\n      mstore\n      keccak256(0x00, 0x20)\n      add\n      0x00\n      swap1\n      swap2\n      swap1\n      swap2\n      swap1\n      swap2\n      pop\n      sstore\n        /* \"BasicEnzian.sol\":2289:2308  debugStringeventLog */\n      0x02\n        /* \"BasicEnzian.sol\":2314:2319  tasks */\n      0x00\n        /* \"BasicEnzian.sol\":2314:2327  tasks[taskId] */\n      dup1\n        /* \"BasicEnzian.sol\":2320:2326  taskId */\n      dup6\n        /* \"BasicEnzian.sol\":2314:2327  tasks[taskId] */\n      dup2\n      mstore\n      0x20\n      add\n      swap1\n      dup2\n      mstore\n      0x20\n      add\n      0x00\n      keccak256\n        /* \"BasicEnzian.sol\":2314:2336  tasks[taskId].activity */\n      0x01\n      add\n        /* \"BasicEnzian.sol\":2289:2337  debugStringeventLog.push(tasks[taskId].activity) */\n      swap1\n      dup1\n      0x01\n      dup2\n      sload\n      add\n      dup1\n      dup3\n      sstore\n      dup1\n      swap2\n      pop\n      pop\n      0x01\n      swap1\n      sub\n      swap1\n      0x00\n      mstore\n      keccak256(0x00, 0x20)\n      add\n      0x00\n      swap1\n      swap2\n      swap1\n      swap2\n      swap1\n      swap2\n      pop\n      swap1\n      dup1\n      sload\n      tag_104\n      swap1\n      tag_54\n      jump\t// in\n    tag_104:\n      tag_105\n      swap3\n      swap2\n      swap1\n      tag_106\n      jump\t// in\n    tag_105:\n      pop\n        /* \"BasicEnzian.sol\":2371:2375  true */\n      0x01\n        /* \"BasicEnzian.sol\":2357:2376  TaskCompleted(true) */\n      iszero\n      iszero\n      0xacd30b4f9fd5868793e13ffb506f03374a23d9feba1249ac2cc7b0fe024ff4ba\n      mload(0x40)\n      mload(0x40)\n      dup1\n      swap2\n      sub\n      swap1\n      log2\n        /* \"BasicEnzian.sol\":2174:2455  if(success) {\r... */\n      jump(tag_107)\n    tag_101:\n        /* \"BasicEnzian.sol\":2437:2442  false */\n      0x00\n        /* \"BasicEnzian.sol\":2423:2443  TaskCompleted(false) */\n      iszero\n      iszero\n      0xacd30b4f9fd5868793e13ffb506f03374a23d9feba1249ac2cc7b0fe024ff4ba\n      mload(0x40)\n      mload(0x40)\n      dup1\n      swap2\n      sub\n      swap1\n      log2\n        /* \"BasicEnzian.sol\":2174:2455  if(success) {\r... */\n    tag_107:\n        /* \"BasicEnzian.sol\":2475:2489  return success */\n      pop\n        /* \"BasicEnzian.sol\":1563:2507  function completing(uint taskId) public returns (bool success){\r... */\n      swap2\n      swap1\n      pop\n      jump\t// out\n    tag_69:\n      dup3\n      dup1\n      sload\n      tag_108\n      swap1\n      tag_54\n      jump\t// in\n    tag_108:\n      swap1\n      0x00\n      mstore\n      keccak256(0x00, 0x20)\n      swap1\n      0x1f\n      add\n      0x20\n      swap1\n      div\n      dup2\n      add\n      swap3\n      dup3\n      tag_110\n      jumpi\n      0x00\n      dup6\n      sstore\n      jump(tag_109)\n    tag_110:\n      dup3\n      0x1f\n      lt\n      tag_111\n      jumpi\n      dup1\n      mload\n      not(0xff)\n      and\n      dup4\n      dup1\n      add\n      or\n      dup6\n      sstore\n      jump(tag_109)\n    tag_111:\n      dup3\n      dup1\n      add\n      0x01\n      add\n      dup6\n      sstore\n      dup3\n      iszero\n      tag_109\n      jumpi\n      swap2\n      dup3\n      add\n    tag_112:\n      dup3\n      dup2\n      gt\n      iszero\n      tag_113\n      jumpi\n      dup3\n      mload\n      dup3\n      sstore\n      swap2\n      0x20\n      add\n      swap2\n      swap1\n      0x01\n      add\n      swap1\n      jump(tag_112)\n    tag_113:\n    tag_109:\n      pop\n      swap1\n      pop\n      tag_114\n      swap2\n      swap1\n      tag_115\n      jump\t// in\n    tag_114:\n      pop\n      swap1\n      jump\t// out\n    tag_72:\n      dup3\n      dup1\n      sload\n      dup3\n      dup3\n      sstore\n      swap1\n      0x00\n      mstore\n      keccak256(0x00, 0x20)\n      swap1\n      dup2\n      add\n      swap3\n      dup3\n      iszero\n      tag_116\n      jumpi\n      swap2\n      0x20\n      mul\n      dup3\n      add\n    tag_117:\n      dup3\n      dup2\n      gt\n      iszero\n      tag_118\n      jumpi\n      dup3\n      mload\n      dup3\n      sstore\n      swap2\n      0x20\n      add\n      swap2\n      swap1\n      0x01\n      add\n      swap1\n      jump(tag_117)\n    tag_118:\n    tag_116:\n      pop\n      swap1\n      pop\n      tag_119\n      swap2\n      swap1\n      tag_115\n      jump\t// in\n    tag_119:\n      pop\n      swap1\n      jump\t// out\n    tag_106:\n      dup3\n      dup1\n      sload\n      tag_120\n      swap1\n      tag_54\n      jump\t// in\n    tag_120:\n      swap1\n      0x00\n      mstore\n      keccak256(0x00, 0x20)\n      swap1\n      0x1f\n      add\n      0x20\n      swap1\n      div\n      dup2\n      add\n      swap3\n      dup3\n      tag_122\n      jumpi\n      0x00\n      dup6\n      sstore\n      jump(tag_121)\n    tag_122:\n      dup3\n      0x1f\n      lt\n      tag_123\n      jumpi\n      dup1\n      sload\n      dup6\n      sstore\n      jump(tag_121)\n    tag_123:\n      dup3\n      dup1\n      add\n      0x01\n      add\n      dup6\n      sstore\n      dup3\n      iszero\n      tag_121\n      jumpi\n      0x00\n      mstore\n      keccak256(0x00, 0x20)\n      swap2\n      0x1f\n      add\n      0x20\n      swap1\n      div\n      dup3\n      add\n    tag_124:\n      dup3\n      dup2\n      gt\n      iszero\n      tag_125\n      jumpi\n      dup3\n      sload\n      dup3\n      sstore\n      swap2\n      0x01\n      add\n      swap2\n      swap1\n      0x01\n      add\n      swap1\n      jump(tag_124)\n    tag_125:\n    tag_121:\n      pop\n      swap1\n      pop\n      tag_126\n      swap2\n      swap1\n      tag_115\n      jump\t// in\n    tag_126:\n      pop\n      swap1\n      jump\t// out\n    tag_115:\n    tag_127:\n      dup1\n      dup3\n      gt\n      iszero\n      tag_128\n      jumpi\n      0x00\n      dup2\n      0x00\n      swap1\n      sstore\n      pop\n      0x01\n      add\n      jump(tag_127)\n    tag_128:\n      pop\n      swap1\n      jump\t// out\n        /* \"#utility.yul\":24:646   */\n    tag_130:\n      0x00\n        /* \"#utility.yul\":145:225   */\n      tag_132\n        /* \"#utility.yul\":160:224   */\n      tag_133\n        /* \"#utility.yul\":217:223   */\n      dup5\n        /* \"#utility.yul\":160:224   */\n      tag_134\n      jump\t// in\n    tag_133:\n        /* \"#utility.yul\":145:225   */\n      tag_135\n      jump\t// in\n    tag_132:\n        /* \"#utility.yul\":136:225   */\n      swap1\n      pop\n        /* \"#utility.yul\":245:250   */\n      dup1\n        /* \"#utility.yul\":273:279   */\n      dup4\n        /* \"#utility.yul\":266:271   */\n      dup3\n        /* \"#utility.yul\":259:280   */\n      mstore\n        /* \"#utility.yul\":299:303   */\n      0x20\n        /* \"#utility.yul\":292:297   */\n      dup3\n        /* \"#utility.yul\":288:304   */\n      add\n        /* \"#utility.yul\":281:304   */\n      swap1\n      pop\n        /* \"#utility.yul\":324:330   */\n      dup3\n        /* \"#utility.yul\":374:377   */\n      dup6\n        /* \"#utility.yul\":366:370   */\n      0x20\n        /* \"#utility.yul\":358:364   */\n      dup7\n        /* \"#utility.yul\":354:371   */\n      mul\n        /* \"#utility.yul\":349:352   */\n      dup3\n        /* \"#utility.yul\":345:372   */\n      add\n        /* \"#utility.yul\":342:378   */\n      gt\n        /* \"#utility.yul\":339:341   */\n      iszero\n      tag_136\n      jumpi\n        /* \"#utility.yul\":391:392   */\n      0x00\n        /* \"#utility.yul\":388:389   */\n      dup1\n        /* \"#utility.yul\":381:393   */\n      revert\n        /* \"#utility.yul\":339:341   */\n    tag_136:\n        /* \"#utility.yul\":419:420   */\n      0x00\n        /* \"#utility.yul\":404:640   */\n    tag_137:\n        /* \"#utility.yul\":429:435   */\n      dup6\n        /* \"#utility.yul\":426:427   */\n      dup2\n        /* \"#utility.yul\":423:436   */\n      lt\n        /* \"#utility.yul\":404:640   */\n      iszero\n      tag_139\n      jumpi\n        /* \"#utility.yul\":496:499   */\n      dup2\n        /* \"#utility.yul\":524:561   */\n      tag_140\n        /* \"#utility.yul\":557:560   */\n      dup9\n        /* \"#utility.yul\":545:555   */\n      dup3\n        /* \"#utility.yul\":524:561   */\n      tag_141\n      jump\t// in\n    tag_140:\n        /* \"#utility.yul\":519:522   */\n      dup5\n        /* \"#utility.yul\":512:562   */\n      mstore\n        /* \"#utility.yul\":591:595   */\n      0x20\n        /* \"#utility.yul\":586:589   */\n      dup5\n        /* \"#utility.yul\":582:596   */\n      add\n        /* \"#utility.yul\":575:596   */\n      swap4\n      pop\n        /* \"#utility.yul\":625:629   */\n      0x20\n        /* \"#utility.yul\":620:623   */\n      dup4\n        /* \"#utility.yul\":616:630   */\n      add\n        /* \"#utility.yul\":609:630   */\n      swap3\n      pop\n        /* \"#utility.yul\":464:640   */\n      pop\n        /* \"#utility.yul\":451:452   */\n      0x01\n        /* \"#utility.yul\":448:449   */\n      dup2\n        /* \"#utility.yul\":444:453   */\n      add\n        /* \"#utility.yul\":439:453   */\n      swap1\n      pop\n        /* \"#utility.yul\":404:640   */\n      jump(tag_137)\n    tag_139:\n        /* \"#utility.yul\":408:422   */\n      pop\n        /* \"#utility.yul\":126:646   */\n      pop\n      pop\n      swap4\n      swap3\n      pop\n      pop\n      pop\n      jump\t// out\n        /* \"#utility.yul\":652:996   */\n    tag_142:\n      0x00\n        /* \"#utility.yul\":755:820   */\n      tag_144\n        /* \"#utility.yul\":770:819   */\n      tag_145\n        /* \"#utility.yul\":812:818   */\n      dup5\n        /* \"#utility.yul\":770:819   */\n      tag_146\n      jump\t// in\n    tag_145:\n        /* \"#utility.yul\":755:820   */\n      tag_135\n      jump\t// in\n    tag_144:\n        /* \"#utility.yul\":746:820   */\n      swap1\n      pop\n        /* \"#utility.yul\":843:849   */\n      dup3\n        /* \"#utility.yul\":836:841   */\n      dup2\n        /* \"#utility.yul\":829:850   */\n      mstore\n        /* \"#utility.yul\":881:885   */\n      0x20\n        /* \"#utility.yul\":874:879   */\n      dup2\n        /* \"#utility.yul\":870:886   */\n      add\n        /* \"#utility.yul\":919:922   */\n      dup5\n        /* \"#utility.yul\":910:916   */\n      dup5\n        /* \"#utility.yul\":905:908   */\n      dup5\n        /* \"#utility.yul\":901:917   */\n      add\n        /* \"#utility.yul\":898:923   */\n      gt\n        /* \"#utility.yul\":895:897   */\n      iszero\n      tag_147\n      jumpi\n        /* \"#utility.yul\":936:937   */\n      0x00\n        /* \"#utility.yul\":933:934   */\n      dup1\n        /* \"#utility.yul\":926:938   */\n      revert\n        /* \"#utility.yul\":895:897   */\n    tag_147:\n        /* \"#utility.yul\":949:990   */\n      tag_148\n        /* \"#utility.yul\":983:989   */\n      dup5\n        /* \"#utility.yul\":978:981   */\n      dup3\n        /* \"#utility.yul\":973:976   */\n      dup6\n        /* \"#utility.yul\":949:990   */\n      tag_149\n      jump\t// in\n    tag_148:\n        /* \"#utility.yul\":736:996   */\n      pop\n      swap4\n      swap3\n      pop\n      pop\n      pop\n      jump\t// out\n        /* \"#utility.yul\":1019:1322   */\n    tag_150:\n      0x00\n        /* \"#utility.yul\":1139:1142   */\n      dup3\n        /* \"#utility.yul\":1132:1136   */\n      0x1f\n        /* \"#utility.yul\":1124:1130   */\n      dup4\n        /* \"#utility.yul\":1120:1137   */\n      add\n        /* \"#utility.yul\":1116:1143   */\n      slt\n        /* \"#utility.yul\":1106:1108   */\n      tag_152\n      jumpi\n        /* \"#utility.yul\":1157:1158   */\n      0x00\n        /* \"#utility.yul\":1154:1155   */\n      dup1\n        /* \"#utility.yul\":1147:1159   */\n      revert\n        /* \"#utility.yul\":1106:1108   */\n    tag_152:\n        /* \"#utility.yul\":1197:1203   */\n      dup2\n        /* \"#utility.yul\":1184:1204   */\n      calldataload\n        /* \"#utility.yul\":1222:1316   */\n      tag_153\n        /* \"#utility.yul\":1312:1315   */\n      dup5\n        /* \"#utility.yul\":1304:1310   */\n      dup3\n        /* \"#utility.yul\":1297:1301   */\n      0x20\n        /* \"#utility.yul\":1289:1295   */\n      dup7\n        /* \"#utility.yul\":1285:1302   */\n      add\n        /* \"#utility.yul\":1222:1316   */\n      tag_130\n      jump\t// in\n    tag_153:\n        /* \"#utility.yul\":1213:1316   */\n      swap2\n      pop\n        /* \"#utility.yul\":1096:1322   */\n      pop\n      swap3\n      swap2\n      pop\n      pop\n      jump\t// out\n        /* \"#utility.yul\":1328:1487   */\n    tag_154:\n      0x00\n        /* \"#utility.yul\":1422:1428   */\n      dup2\n        /* \"#utility.yul\":1409:1429   */\n      calldataload\n        /* \"#utility.yul\":1400:1429   */\n      swap1\n      pop\n        /* \"#utility.yul\":1438:1481   */\n      tag_156\n        /* \"#utility.yul\":1475:1480   */\n      dup2\n        /* \"#utility.yul\":1438:1481   */\n      tag_157\n      jump\t// in\n    tag_156:\n        /* \"#utility.yul\":1390:1487   */\n      swap3\n      swap2\n      pop\n      pop\n      jump\t// out\n        /* \"#utility.yul\":1507:1780   */\n    tag_158:\n      0x00\n        /* \"#utility.yul\":1612:1615   */\n      dup3\n        /* \"#utility.yul\":1605:1609   */\n      0x1f\n        /* \"#utility.yul\":1597:1603   */\n      dup4\n        /* \"#utility.yul\":1593:1610   */\n      add\n        /* \"#utility.yul\":1589:1616   */\n      slt\n        /* \"#utility.yul\":1579:1581   */\n      tag_160\n      jumpi\n        /* \"#utility.yul\":1630:1631   */\n      0x00\n        /* \"#utility.yul\":1627:1628   */\n      dup1\n        /* \"#utility.yul\":1620:1632   */\n      revert\n        /* \"#utility.yul\":1579:1581   */\n    tag_160:\n        /* \"#utility.yul\":1670:1676   */\n      dup2\n        /* \"#utility.yul\":1657:1677   */\n      calldataload\n        /* \"#utility.yul\":1695:1774   */\n      tag_161\n        /* \"#utility.yul\":1770:1773   */\n      dup5\n        /* \"#utility.yul\":1762:1768   */\n      dup3\n        /* \"#utility.yul\":1755:1759   */\n      0x20\n        /* \"#utility.yul\":1747:1753   */\n      dup7\n        /* \"#utility.yul\":1743:1760   */\n      add\n        /* \"#utility.yul\":1695:1774   */\n      tag_142\n      jump\t// in\n    tag_161:\n        /* \"#utility.yul\":1686:1774   */\n      swap2\n      pop\n        /* \"#utility.yul\":1569:1780   */\n      pop\n      swap3\n      swap2\n      pop\n      pop\n      jump\t// out\n        /* \"#utility.yul\":1786:1925   */\n    tag_141:\n      0x00\n        /* \"#utility.yul\":1870:1876   */\n      dup2\n        /* \"#utility.yul\":1857:1877   */\n      calldataload\n        /* \"#utility.yul\":1848:1877   */\n      swap1\n      pop\n        /* \"#utility.yul\":1886:1919   */\n      tag_163\n        /* \"#utility.yul\":1913:1918   */\n      dup2\n        /* \"#utility.yul\":1886:1919   */\n      tag_164\n      jump\t// in\n    tag_163:\n        /* \"#utility.yul\":1838:1925   */\n      swap3\n      swap2\n      pop\n      pop\n      jump\t// out\n        /* \"#utility.yul\":1931:2193   */\n    tag_18:\n      0x00\n        /* \"#utility.yul\":2039:2041   */\n      0x20\n        /* \"#utility.yul\":2027:2036   */\n      dup3\n        /* \"#utility.yul\":2018:2025   */\n      dup5\n        /* \"#utility.yul\":2014:2037   */\n      sub\n        /* \"#utility.yul\":2010:2042   */\n      slt\n        /* \"#utility.yul\":2007:2009   */\n      iszero\n      tag_166\n      jumpi\n        /* \"#utility.yul\":2055:2056   */\n      0x00\n        /* \"#utility.yul\":2052:2053   */\n      dup1\n        /* \"#utility.yul\":2045:2057   */\n      revert\n        /* \"#utility.yul\":2007:2009   */\n    tag_166:\n        /* \"#utility.yul\":2098:2099   */\n      0x00\n        /* \"#utility.yul\":2123:2176   */\n      tag_167\n        /* \"#utility.yul\":2168:2175   */\n      dup5\n        /* \"#utility.yul\":2159:2165   */\n      dup3\n        /* \"#utility.yul\":2148:2157   */\n      dup6\n        /* \"#utility.yul\":2144:2166   */\n      add\n        /* \"#utility.yul\":2123:2176   */\n      tag_141\n      jump\t// in\n    tag_167:\n        /* \"#utility.yul\":2113:2176   */\n      swap2\n      pop\n        /* \"#utility.yul\":2069:2186   */\n      pop\n        /* \"#utility.yul\":1997:2193   */\n      swap3\n      swap2\n      pop\n      pop\n      jump\t// out\n        /* \"#utility.yul\":2199:3462   */\n    tag_24:\n      0x00\n      dup1\n      0x00\n      dup1\n      0x00\n        /* \"#utility.yul\":2445:2448   */\n      0xa0\n        /* \"#utility.yul\":2433:2442   */\n      dup7\n        /* \"#utility.yul\":2424:2431   */\n      dup9\n        /* \"#utility.yul\":2420:2443   */\n      sub\n        /* \"#utility.yul\":2416:2449   */\n      slt\n        /* \"#utility.yul\":2413:2415   */\n      iszero\n      tag_169\n      jumpi\n        /* \"#utility.yul\":2462:2463   */\n      0x00\n        /* \"#utility.yul\":2459:2460   */\n      dup1\n        /* \"#utility.yul\":2452:2464   */\n      revert\n        /* \"#utility.yul\":2413:2415   */\n    tag_169:\n        /* \"#utility.yul\":2505:2506   */\n      0x00\n        /* \"#utility.yul\":2530:2583   */\n      tag_170\n        /* \"#utility.yul\":2575:2582   */\n      dup9\n        /* \"#utility.yul\":2566:2572   */\n      dup3\n        /* \"#utility.yul\":2555:2564   */\n      dup10\n        /* \"#utility.yul\":2551:2573   */\n      add\n        /* \"#utility.yul\":2530:2583   */\n      tag_141\n      jump\t// in\n    tag_170:\n        /* \"#utility.yul\":2520:2583   */\n      swap6\n      pop\n        /* \"#utility.yul\":2476:2593   */\n      pop\n        /* \"#utility.yul\":2660:2662   */\n      0x20\n        /* \"#utility.yul\":2649:2658   */\n      dup7\n        /* \"#utility.yul\":2645:2663   */\n      add\n        /* \"#utility.yul\":2632:2664   */\n      calldataload\n        /* \"#utility.yul\":2691:2709   */\n      0xffffffffffffffff\n        /* \"#utility.yul\":2683:2689   */\n      dup2\n        /* \"#utility.yul\":2680:2710   */\n      gt\n        /* \"#utility.yul\":2677:2679   */\n      iszero\n      tag_171\n      jumpi\n        /* \"#utility.yul\":2723:2724   */\n      0x00\n        /* \"#utility.yul\":2720:2721   */\n      dup1\n        /* \"#utility.yul\":2713:2725   */\n      revert\n        /* \"#utility.yul\":2677:2679   */\n    tag_171:\n        /* \"#utility.yul\":2751:2814   */\n      tag_172\n        /* \"#utility.yul\":2806:2813   */\n      dup9\n        /* \"#utility.yul\":2797:2803   */\n      dup3\n        /* \"#utility.yul\":2786:2795   */\n      dup10\n        /* \"#utility.yul\":2782:2804   */\n      add\n        /* \"#utility.yul\":2751:2814   */\n      tag_158\n      jump\t// in\n    tag_172:\n        /* \"#utility.yul\":2741:2814   */\n      swap5\n      pop\n        /* \"#utility.yul\":2603:2824   */\n      pop\n        /* \"#utility.yul\":2863:2865   */\n      0x40\n        /* \"#utility.yul\":2889:2952   */\n      tag_173\n        /* \"#utility.yul\":2944:2951   */\n      dup9\n        /* \"#utility.yul\":2935:2941   */\n      dup3\n        /* \"#utility.yul\":2924:2933   */\n      dup10\n        /* \"#utility.yul\":2920:2942   */\n      add\n        /* \"#utility.yul\":2889:2952   */\n      tag_154\n      jump\t// in\n    tag_173:\n        /* \"#utility.yul\":2879:2952   */\n      swap4\n      pop\n        /* \"#utility.yul\":2834:2962   */\n      pop\n        /* \"#utility.yul\":3029:3031   */\n      0x60\n        /* \"#utility.yul\":3018:3027   */\n      dup7\n        /* \"#utility.yul\":3014:3032   */\n      add\n        /* \"#utility.yul\":3001:3033   */\n      calldataload\n        /* \"#utility.yul\":3060:3078   */\n      0xffffffffffffffff\n        /* \"#utility.yul\":3052:3058   */\n      dup2\n        /* \"#utility.yul\":3049:3079   */\n      gt\n        /* \"#utility.yul\":3046:3048   */\n      iszero\n      tag_174\n      jumpi\n        /* \"#utility.yul\":3092:3093   */\n      0x00\n        /* \"#utility.yul\":3089:3090   */\n      dup1\n        /* \"#utility.yul\":3082:3094   */\n      revert\n        /* \"#utility.yul\":3046:3048   */\n    tag_174:\n        /* \"#utility.yul\":3120:3198   */\n      tag_175\n        /* \"#utility.yul\":3190:3197   */\n      dup9\n        /* \"#utility.yul\":3181:3187   */\n      dup3\n        /* \"#utility.yul\":3170:3179   */\n      dup10\n        /* \"#utility.yul\":3166:3188   */\n      add\n        /* \"#utility.yul\":3120:3198   */\n      tag_150\n      jump\t// in\n    tag_175:\n        /* \"#utility.yul\":3110:3198   */\n      swap3\n      pop\n        /* \"#utility.yul\":2972:3208   */\n      pop\n        /* \"#utility.yul\":3275:3278   */\n      0x80\n        /* \"#utility.yul\":3264:3273   */\n      dup7\n        /* \"#utility.yul\":3260:3279   */\n      add\n        /* \"#utility.yul\":3247:3280   */\n      calldataload\n        /* \"#utility.yul\":3307:3325   */\n      0xffffffffffffffff\n        /* \"#utility.yul\":3299:3305   */\n      dup2\n        /* \"#utility.yul\":3296:3326   */\n      gt\n        /* \"#utility.yul\":3293:3295   */\n      iszero\n      tag_176\n      jumpi\n        /* \"#utility.yul\":3339:3340   */\n      0x00\n        /* \"#utility.yul\":3336:3337   */\n      dup1\n        /* \"#utility.yul\":3329:3341   */\n      revert\n        /* \"#utility.yul\":3293:3295   */\n    tag_176:\n        /* \"#utility.yul\":3367:3445   */\n      tag_177\n        /* \"#utility.yul\":3437:3444   */\n      dup9\n        /* \"#utility.yul\":3428:3434   */\n      dup3\n        /* \"#utility.yul\":3417:3426   */\n      dup10\n        /* \"#utility.yul\":3413:3435   */\n      add\n        /* \"#utility.yul\":3367:3445   */\n      tag_150\n      jump\t// in\n    tag_177:\n        /* \"#utility.yul\":3357:3445   */\n      swap2\n      pop\n        /* \"#utility.yul\":3218:3455   */\n      pop\n        /* \"#utility.yul\":2403:3462   */\n      swap3\n      swap6\n      pop\n      swap3\n      swap6\n      swap1\n      swap4\n      pop\n      jump\t// out\n        /* \"#utility.yul\":3468:3664   */\n    tag_178:\n      0x00\n        /* \"#utility.yul\":3592:3658   */\n      tag_180\n        /* \"#utility.yul\":3654:3657   */\n      dup4\n        /* \"#utility.yul\":3646:3652   */\n      dup4\n        /* \"#utility.yul\":3592:3658   */\n      tag_181\n      jump\t// in\n    tag_180:\n        /* \"#utility.yul\":3578:3658   */\n      swap1\n      pop\n        /* \"#utility.yul\":3568:3664   */\n      swap3\n      swap2\n      pop\n      pop\n      jump\t// out\n        /* \"#utility.yul\":3670:3849   */\n    tag_182:\n      0x00\n        /* \"#utility.yul\":3760:3806   */\n      tag_184\n        /* \"#utility.yul\":3802:3805   */\n      dup4\n        /* \"#utility.yul\":3794:3800   */\n      dup4\n        /* \"#utility.yul\":3760:3806   */\n      tag_185\n      jump\t// in\n    tag_184:\n        /* \"#utility.yul\":3838:3842   */\n      0x20\n        /* \"#utility.yul\":3833:3836   */\n      dup4\n        /* \"#utility.yul\":3829:3843   */\n      add\n        /* \"#utility.yul\":3815:3843   */\n      swap1\n      pop\n        /* \"#utility.yul\":3750:3849   */\n      swap3\n      swap2\n      pop\n      pop\n      jump\t// out\n        /* \"#utility.yul\":3883:4874   */\n    tag_186:\n      0x00\n        /* \"#utility.yul\":4051:4115   */\n      tag_188\n        /* \"#utility.yul\":4109:4114   */\n      dup3\n        /* \"#utility.yul\":4051:4115   */\n      tag_189\n      jump\t// in\n    tag_188:\n        /* \"#utility.yul\":4131:4227   */\n      tag_190\n        /* \"#utility.yul\":4220:4226   */\n      dup2\n        /* \"#utility.yul\":4215:4218   */\n      dup6\n        /* \"#utility.yul\":4131:4227   */\n      tag_191\n      jump\t// in\n    tag_190:\n        /* \"#utility.yul\":4124:4227   */\n      swap4\n      pop\n        /* \"#utility.yul\":4253:4256   */\n      dup4\n        /* \"#utility.yul\":4298:4302   */\n      0x20\n        /* \"#utility.yul\":4290:4296   */\n      dup3\n        /* \"#utility.yul\":4286:4303   */\n      mul\n        /* \"#utility.yul\":4281:4284   */\n      dup6\n        /* \"#utility.yul\":4277:4304   */\n      add\n        /* \"#utility.yul\":4328:4394   */\n      tag_192\n        /* \"#utility.yul\":4388:4393   */\n      dup6\n        /* \"#utility.yul\":4328:4394   */\n      tag_193\n      jump\t// in\n    tag_192:\n        /* \"#utility.yul\":4417:4424   */\n      dup1\n        /* \"#utility.yul\":4448:4449   */\n      0x00\n        /* \"#utility.yul\":4433:4829   */\n    tag_194:\n        /* \"#utility.yul\":4458:4464   */\n      dup6\n        /* \"#utility.yul\":4455:4456   */\n      dup2\n        /* \"#utility.yul\":4452:4465   */\n      lt\n        /* \"#utility.yul\":4433:4829   */\n      iszero\n      tag_196\n      jumpi\n        /* \"#utility.yul\":4529:4538   */\n      dup5\n        /* \"#utility.yul\":4523:4527   */\n      dup5\n        /* \"#utility.yul\":4519:4539   */\n      sub\n        /* \"#utility.yul\":4514:4517   */\n      dup10\n        /* \"#utility.yul\":4507:4540   */\n      mstore\n        /* \"#utility.yul\":4580:4586   */\n      dup2\n        /* \"#utility.yul\":4574:4587   */\n      mload\n        /* \"#utility.yul\":4608:4692   */\n      tag_197\n        /* \"#utility.yul\":4687:4691   */\n      dup6\n        /* \"#utility.yul\":4672:4685   */\n      dup3\n        /* \"#utility.yul\":4608:4692   */\n      tag_178\n      jump\t// in\n    tag_197:\n        /* \"#utility.yul\":4600:4692   */\n      swap5\n      pop\n        /* \"#utility.yul\":4715:4785   */\n      tag_198\n        /* \"#utility.yul\":4778:4784   */\n      dup4\n        /* \"#utility.yul\":4715:4785   */\n      tag_199\n      jump\t// in\n    tag_198:\n        /* \"#utility.yul\":4705:4785   */\n      swap3\n      pop\n        /* \"#utility.yul\":4814:4818   */\n      0x20\n        /* \"#utility.yul\":4809:4812   */\n      dup11\n        /* \"#utility.yul\":4805:4819   */\n      add\n        /* \"#utility.yul\":4798:4819   */\n      swap10\n      pop\n        /* \"#utility.yul\":4493:4829   */\n      pop\n        /* \"#utility.yul\":4480:4481   */\n      0x01\n        /* \"#utility.yul\":4477:4478   */\n      dup2\n        /* \"#utility.yul\":4473:4482   */\n      add\n        /* \"#utility.yul\":4468:4482   */\n      swap1\n      pop\n        /* \"#utility.yul\":4433:4829   */\n      jump(tag_194)\n    tag_196:\n        /* \"#utility.yul\":4437:4451   */\n      pop\n        /* \"#utility.yul\":4845:4849   */\n      dup3\n        /* \"#utility.yul\":4838:4849   */\n      swap8\n      pop\n        /* \"#utility.yul\":4865:4868   */\n      dup8\n        /* \"#utility.yul\":4858:4868   */\n      swap6\n      pop\n        /* \"#utility.yul\":4027:4874   */\n      pop\n      pop\n      pop\n      pop\n      pop\n      swap3\n      swap2\n      pop\n      pop\n      jump\t// out\n        /* \"#utility.yul\":4910:5642   */\n    tag_200:\n      0x00\n        /* \"#utility.yul\":5058:5112   */\n      tag_202\n        /* \"#utility.yul\":5106:5111   */\n      dup3\n        /* \"#utility.yul\":5058:5112   */\n      tag_203\n      jump\t// in\n    tag_202:\n        /* \"#utility.yul\":5128:5214   */\n      tag_204\n        /* \"#utility.yul\":5207:5213   */\n      dup2\n        /* \"#utility.yul\":5202:5205   */\n      dup6\n        /* \"#utility.yul\":5128:5214   */\n      tag_205\n      jump\t// in\n    tag_204:\n        /* \"#utility.yul\":5121:5214   */\n      swap4\n      pop\n        /* \"#utility.yul\":5238:5294   */\n      tag_206\n        /* \"#utility.yul\":5288:5293   */\n      dup4\n        /* \"#utility.yul\":5238:5294   */\n      tag_207\n      jump\t// in\n    tag_206:\n        /* \"#utility.yul\":5317:5324   */\n      dup1\n        /* \"#utility.yul\":5348:5349   */\n      0x00\n        /* \"#utility.yul\":5333:5617   */\n    tag_208:\n        /* \"#utility.yul\":5358:5364   */\n      dup4\n        /* \"#utility.yul\":5355:5356   */\n      dup2\n        /* \"#utility.yul\":5352:5365   */\n      lt\n        /* \"#utility.yul\":5333:5617   */\n      iszero\n      tag_210\n      jumpi\n        /* \"#utility.yul\":5434:5440   */\n      dup2\n        /* \"#utility.yul\":5428:5441   */\n      mload\n        /* \"#utility.yul\":5461:5524   */\n      tag_211\n        /* \"#utility.yul\":5520:5523   */\n      dup9\n        /* \"#utility.yul\":5505:5518   */\n      dup3\n        /* \"#utility.yul\":5461:5524   */\n      tag_182\n      jump\t// in\n    tag_211:\n        /* \"#utility.yul\":5454:5524   */\n      swap8\n      pop\n        /* \"#utility.yul\":5547:5607   */\n      tag_212\n        /* \"#utility.yul\":5600:5606   */\n      dup4\n        /* \"#utility.yul\":5547:5607   */\n      tag_213\n      jump\t// in\n    tag_212:\n        /* \"#utility.yul\":5537:5607   */\n      swap3\n      pop\n        /* \"#utility.yul\":5393:5617   */\n      pop\n        /* \"#utility.yul\":5380:5381   */\n      0x01\n        /* \"#utility.yul\":5377:5378   */\n      dup2\n        /* \"#utility.yul\":5373:5382   */\n      add\n        /* \"#utility.yul\":5368:5382   */\n      swap1\n      pop\n        /* \"#utility.yul\":5333:5617   */\n      jump(tag_208)\n    tag_210:\n        /* \"#utility.yul\":5337:5351   */\n      pop\n        /* \"#utility.yul\":5633:5636   */\n      dup6\n        /* \"#utility.yul\":5626:5636   */\n      swap4\n      pop\n        /* \"#utility.yul\":5034:5642   */\n      pop\n      pop\n      pop\n      swap3\n      swap2\n      pop\n      pop\n      jump\t// out\n        /* \"#utility.yul\":5648:5757   */\n    tag_214:\n        /* \"#utility.yul\":5729:5750   */\n      tag_216\n        /* \"#utility.yul\":5744:5749   */\n      dup2\n        /* \"#utility.yul\":5729:5750   */\n      tag_217\n      jump\t// in\n    tag_216:\n        /* \"#utility.yul\":5724:5727   */\n      dup3\n        /* \"#utility.yul\":5717:5751   */\n      mstore\n        /* \"#utility.yul\":5707:5757   */\n      pop\n      pop\n      jump\t// out\n        /* \"#utility.yul\":5763:5910   */\n    tag_218:\n        /* \"#utility.yul\":5858:5903   */\n      tag_220\n        /* \"#utility.yul\":5897:5902   */\n      dup2\n        /* \"#utility.yul\":5858:5903   */\n      tag_221\n      jump\t// in\n    tag_220:\n        /* \"#utility.yul\":5853:5856   */\n      dup3\n        /* \"#utility.yul\":5846:5904   */\n      mstore\n        /* \"#utility.yul\":5836:5910   */\n      pop\n      pop\n      jump\t// out\n        /* \"#utility.yul\":5916:6260   */\n    tag_181:\n      0x00\n        /* \"#utility.yul\":6022:6061   */\n      tag_223\n        /* \"#utility.yul\":6055:6060   */\n      dup3\n        /* \"#utility.yul\":6022:6061   */\n      tag_224\n      jump\t// in\n    tag_223:\n        /* \"#utility.yul\":6077:6138   */\n      tag_225\n        /* \"#utility.yul\":6131:6137   */\n      dup2\n        /* \"#utility.yul\":6126:6129   */\n      dup6\n        /* \"#utility.yul\":6077:6138   */\n      tag_226\n      jump\t// in\n    tag_225:\n        /* \"#utility.yul\":6070:6138   */\n      swap4\n      pop\n        /* \"#utility.yul\":6147:6199   */\n      tag_227\n        /* \"#utility.yul\":6192:6198   */\n      dup2\n        /* \"#utility.yul\":6187:6190   */\n      dup6\n        /* \"#utility.yul\":6180:6184   */\n      0x20\n        /* \"#utility.yul\":6173:6178   */\n      dup7\n        /* \"#utility.yul\":6169:6185   */\n      add\n        /* \"#utility.yul\":6147:6199   */\n      tag_228\n      jump\t// in\n    tag_227:\n        /* \"#utility.yul\":6224:6253   */\n      tag_229\n        /* \"#utility.yul\":6246:6252   */\n      dup2\n        /* \"#utility.yul\":6224:6253   */\n      tag_230\n      jump\t// in\n    tag_229:\n        /* \"#utility.yul\":6219:6222   */\n      dup5\n        /* \"#utility.yul\":6215:6254   */\n      add\n        /* \"#utility.yul\":6208:6254   */\n      swap2\n      pop\n        /* \"#utility.yul\":5998:6260   */\n      pop\n      swap3\n      swap2\n      pop\n      pop\n      jump\t// out\n        /* \"#utility.yul\":6266:6630   */\n    tag_231:\n      0x00\n        /* \"#utility.yul\":6382:6421   */\n      tag_233\n        /* \"#utility.yul\":6415:6420   */\n      dup3\n        /* \"#utility.yul\":6382:6421   */\n      tag_224\n      jump\t// in\n    tag_233:\n        /* \"#utility.yul\":6437:6508   */\n      tag_234\n        /* \"#utility.yul\":6501:6507   */\n      dup2\n        /* \"#utility.yul\":6496:6499   */\n      dup6\n        /* \"#utility.yul\":6437:6508   */\n      tag_235\n      jump\t// in\n    tag_234:\n        /* \"#utility.yul\":6430:6508   */\n      swap4\n      pop\n        /* \"#utility.yul\":6517:6569   */\n      tag_236\n        /* \"#utility.yul\":6562:6568   */\n      dup2\n        /* \"#utility.yul\":6557:6560   */\n      dup6\n        /* \"#utility.yul\":6550:6554   */\n      0x20\n        /* \"#utility.yul\":6543:6548   */\n      dup7\n        /* \"#utility.yul\":6539:6555   */\n      add\n        /* \"#utility.yul\":6517:6569   */\n      tag_228\n      jump\t// in\n    tag_236:\n        /* \"#utility.yul\":6594:6623   */\n      tag_237\n        /* \"#utility.yul\":6616:6622   */\n      dup2\n        /* \"#utility.yul\":6594:6623   */\n      tag_230\n      jump\t// in\n    tag_237:\n        /* \"#utility.yul\":6589:6592   */\n      dup5\n        /* \"#utility.yul\":6585:6624   */\n      add\n        /* \"#utility.yul\":6578:6624   */\n      swap2\n      pop\n        /* \"#utility.yul\":6358:6630   */\n      pop\n      swap3\n      swap2\n      pop\n      pop\n      jump\t// out\n        /* \"#utility.yul\":6636:6744   */\n    tag_185:\n        /* \"#utility.yul\":6713:6737   */\n      tag_239\n        /* \"#utility.yul\":6731:6736   */\n      dup2\n        /* \"#utility.yul\":6713:6737   */\n      tag_240\n      jump\t// in\n    tag_239:\n        /* \"#utility.yul\":6708:6711   */\n      dup3\n        /* \"#utility.yul\":6701:6738   */\n      mstore\n        /* \"#utility.yul\":6691:6744   */\n      pop\n      pop\n      jump\t// out\n        /* \"#utility.yul\":6750:6868   */\n    tag_241:\n        /* \"#utility.yul\":6837:6861   */\n      tag_243\n        /* \"#utility.yul\":6855:6860   */\n      dup2\n        /* \"#utility.yul\":6837:6861   */\n      tag_240\n      jump\t// in\n    tag_243:\n        /* \"#utility.yul\":6832:6835   */\n      dup3\n        /* \"#utility.yul\":6825:6862   */\n      mstore\n        /* \"#utility.yul\":6815:6868   */\n      pop\n      pop\n      jump\t// out\n        /* \"#utility.yul\":6874:7287   */\n    tag_15:\n      0x00\n        /* \"#utility.yul\":7075:7077   */\n      0x20\n        /* \"#utility.yul\":7064:7073   */\n      dup3\n        /* \"#utility.yul\":7060:7078   */\n      add\n        /* \"#utility.yul\":7052:7078   */\n      swap1\n      pop\n        /* \"#utility.yul\":7124:7133   */\n      dup2\n        /* \"#utility.yul\":7118:7122   */\n      dup2\n        /* \"#utility.yul\":7114:7134   */\n      sub\n        /* \"#utility.yul\":7110:7111   */\n      0x00\n        /* \"#utility.yul\":7099:7108   */\n      dup4\n        /* \"#utility.yul\":7095:7112   */\n      add\n        /* \"#utility.yul\":7088:7135   */\n      mstore\n        /* \"#utility.yul\":7152:7280   */\n      tag_245\n        /* \"#utility.yul\":7275:7279   */\n      dup2\n        /* \"#utility.yul\":7266:7272   */\n      dup5\n        /* \"#utility.yul\":7152:7280   */\n      tag_186\n      jump\t// in\n    tag_245:\n        /* \"#utility.yul\":7144:7280   */\n      swap1\n      pop\n        /* \"#utility.yul\":7042:7287   */\n      swap3\n      swap2\n      pop\n      pop\n      jump\t// out\n        /* \"#utility.yul\":7293:7666   */\n    tag_29:\n      0x00\n        /* \"#utility.yul\":7474:7476   */\n      0x20\n        /* \"#utility.yul\":7463:7472   */\n      dup3\n        /* \"#utility.yul\":7459:7477   */\n      add\n        /* \"#utility.yul\":7451:7477   */\n      swap1\n      pop\n        /* \"#utility.yul\":7523:7532   */\n      dup2\n        /* \"#utility.yul\":7517:7521   */\n      dup2\n        /* \"#utility.yul\":7513:7533   */\n      sub\n        /* \"#utility.yul\":7509:7510   */\n      0x00\n        /* \"#utility.yul\":7498:7507   */\n      dup4\n        /* \"#utility.yul\":7494:7511   */\n      add\n        /* \"#utility.yul\":7487:7534   */\n      mstore\n        /* \"#utility.yul\":7551:7659   */\n      tag_247\n        /* \"#utility.yul\":7654:7658   */\n      dup2\n        /* \"#utility.yul\":7645:7651   */\n      dup5\n        /* \"#utility.yul\":7551:7659   */\n      tag_200\n      jump\t// in\n    tag_247:\n        /* \"#utility.yul\":7543:7659   */\n      swap1\n      pop\n        /* \"#utility.yul\":7441:7666   */\n      swap3\n      swap2\n      pop\n      pop\n      jump\t// out\n        /* \"#utility.yul\":7672:7882   */\n    tag_44:\n      0x00\n        /* \"#utility.yul\":7797:7799   */\n      0x20\n        /* \"#utility.yul\":7786:7795   */\n      dup3\n        /* \"#utility.yul\":7782:7800   */\n      add\n        /* \"#utility.yul\":7774:7800   */\n      swap1\n      pop\n        /* \"#utility.yul\":7810:7875   */\n      tag_249\n        /* \"#utility.yul\":7872:7873   */\n      0x00\n        /* \"#utility.yul\":7861:7870   */\n      dup4\n        /* \"#utility.yul\":7857:7874   */\n      add\n        /* \"#utility.yul\":7848:7854   */\n      dup5\n        /* \"#utility.yul\":7810:7875   */\n      tag_214\n      jump\t// in\n    tag_249:\n        /* \"#utility.yul\":7764:7882   */\n      swap3\n      swap2\n      pop\n      pop\n      jump\t// out\n        /* \"#utility.yul\":7888:8949   */\n    tag_39:\n      0x00\n        /* \"#utility.yul\":8253:8256   */\n      0xa0\n        /* \"#utility.yul\":8242:8251   */\n      dup3\n        /* \"#utility.yul\":8238:8257   */\n      add\n        /* \"#utility.yul\":8230:8257   */\n      swap1\n      pop\n        /* \"#utility.yul\":8267:8332   */\n      tag_251\n        /* \"#utility.yul\":8329:8330   */\n      0x00\n        /* \"#utility.yul\":8318:8327   */\n      dup4\n        /* \"#utility.yul\":8314:8331   */\n      add\n        /* \"#utility.yul\":8305:8311   */\n      dup9\n        /* \"#utility.yul\":8267:8332   */\n      tag_214\n      jump\t// in\n    tag_251:\n        /* \"#utility.yul\":8379:8388   */\n      dup2\n        /* \"#utility.yul\":8373:8377   */\n      dup2\n        /* \"#utility.yul\":8369:8389   */\n      sub\n        /* \"#utility.yul\":8364:8366   */\n      0x20\n        /* \"#utility.yul\":8353:8362   */\n      dup4\n        /* \"#utility.yul\":8349:8367   */\n      add\n        /* \"#utility.yul\":8342:8390   */\n      mstore\n        /* \"#utility.yul\":8407:8485   */\n      tag_252\n        /* \"#utility.yul\":8480:8484   */\n      dup2\n        /* \"#utility.yul\":8471:8477   */\n      dup8\n        /* \"#utility.yul\":8407:8485   */\n      tag_231\n      jump\t// in\n    tag_252:\n        /* \"#utility.yul\":8399:8485   */\n      swap1\n      pop\n        /* \"#utility.yul\":8495:8575   */\n      tag_253\n        /* \"#utility.yul\":8571:8573   */\n      0x40\n        /* \"#utility.yul\":8560:8569   */\n      dup4\n        /* \"#utility.yul\":8556:8574   */\n      add\n        /* \"#utility.yul\":8547:8553   */\n      dup7\n        /* \"#utility.yul\":8495:8575   */\n      tag_218\n      jump\t// in\n    tag_253:\n        /* \"#utility.yul\":8622:8631   */\n      dup2\n        /* \"#utility.yul\":8616:8620   */\n      dup2\n        /* \"#utility.yul\":8612:8632   */\n      sub\n        /* \"#utility.yul\":8607:8609   */\n      0x60\n        /* \"#utility.yul\":8596:8605   */\n      dup4\n        /* \"#utility.yul\":8592:8610   */\n      add\n        /* \"#utility.yul\":8585:8633   */\n      mstore\n        /* \"#utility.yul\":8650:8758   */\n      tag_254\n        /* \"#utility.yul\":8753:8757   */\n      dup2\n        /* \"#utility.yul\":8744:8750   */\n      dup6\n        /* \"#utility.yul\":8650:8758   */\n      tag_200\n      jump\t// in\n    tag_254:\n        /* \"#utility.yul\":8642:8758   */\n      swap1\n      pop\n        /* \"#utility.yul\":8806:8815   */\n      dup2\n        /* \"#utility.yul\":8800:8804   */\n      dup2\n        /* \"#utility.yul\":8796:8816   */\n      sub\n        /* \"#utility.yul\":8790:8793   */\n      0x80\n        /* \"#utility.yul\":8779:8788   */\n      dup4\n        /* \"#utility.yul\":8775:8794   */\n      add\n        /* \"#utility.yul\":8768:8817   */\n      mstore\n        /* \"#utility.yul\":8834:8942   */\n      tag_255\n        /* \"#utility.yul\":8937:8941   */\n      dup2\n        /* \"#utility.yul\":8928:8934   */\n      dup5\n        /* \"#utility.yul\":8834:8942   */\n      tag_200\n      jump\t// in\n    tag_255:\n        /* \"#utility.yul\":8826:8942   */\n      swap1\n      pop\n        /* \"#utility.yul\":8220:8949   */\n      swap7\n      swap6\n      pop\n      pop\n      pop\n      pop\n      pop\n      pop\n      jump\t// out\n        /* \"#utility.yul\":8955:9268   */\n    tag_21:\n      0x00\n        /* \"#utility.yul\":9106:9108   */\n      0x20\n        /* \"#utility.yul\":9095:9104   */\n      dup3\n        /* \"#utility.yul\":9091:9109   */\n      add\n        /* \"#utility.yul\":9083:9109   */\n      swap1\n      pop\n        /* \"#utility.yul\":9155:9164   */\n      dup2\n        /* \"#utility.yul\":9149:9153   */\n      dup2\n        /* \"#utility.yul\":9145:9165   */\n      sub\n        /* \"#utility.yul\":9141:9142   */\n      0x00\n        /* \"#utility.yul\":9130:9139   */\n      dup4\n        /* \"#utility.yul\":9126:9143   */\n      add\n        /* \"#utility.yul\":9119:9166   */\n      mstore\n        /* \"#utility.yul\":9183:9261   */\n      tag_257\n        /* \"#utility.yul\":9256:9260   */\n      dup2\n        /* \"#utility.yul\":9247:9253   */\n      dup5\n        /* \"#utility.yul\":9183:9261   */\n      tag_231\n      jump\t// in\n    tag_257:\n        /* \"#utility.yul\":9175:9261   */\n      swap1\n      pop\n        /* \"#utility.yul\":9073:9268   */\n      swap3\n      swap2\n      pop\n      pop\n      jump\t// out\n        /* \"#utility.yul\":9274:9496   */\n    tag_34:\n      0x00\n        /* \"#utility.yul\":9405:9407   */\n      0x20\n        /* \"#utility.yul\":9394:9403   */\n      dup3\n        /* \"#utility.yul\":9390:9408   */\n      add\n        /* \"#utility.yul\":9382:9408   */\n      swap1\n      pop\n        /* \"#utility.yul\":9418:9489   */\n      tag_259\n        /* \"#utility.yul\":9486:9487   */\n      0x00\n        /* \"#utility.yul\":9475:9484   */\n      dup4\n        /* \"#utility.yul\":9471:9488   */\n      add\n        /* \"#utility.yul\":9462:9468   */\n      dup5\n        /* \"#utility.yul\":9418:9489   */\n      tag_241\n      jump\t// in\n    tag_259:\n        /* \"#utility.yul\":9372:9496   */\n      swap3\n      swap2\n      pop\n      pop\n      jump\t// out\n        /* \"#utility.yul\":9502:9785   */\n    tag_135:\n      0x00\n        /* \"#utility.yul\":9568:9570   */\n      0x40\n        /* \"#utility.yul\":9562:9571   */\n      mload\n        /* \"#utility.yul\":9552:9571   */\n      swap1\n      pop\n        /* \"#utility.yul\":9610:9614   */\n      dup2\n        /* \"#utility.yul\":9602:9608   */\n      dup2\n        /* \"#utility.yul\":9598:9615   */\n      add\n        /* \"#utility.yul\":9717:9723   */\n      dup2\n        /* \"#utility.yul\":9705:9715   */\n      dup2\n        /* \"#utility.yul\":9702:9724   */\n      lt\n        /* \"#utility.yul\":9681:9699   */\n      0xffffffffffffffff\n        /* \"#utility.yul\":9669:9679   */\n      dup3\n        /* \"#utility.yul\":9666:9700   */\n      gt\n        /* \"#utility.yul\":9663:9725   */\n      or\n        /* \"#utility.yul\":9660:9662   */\n      iszero\n      tag_261\n      jumpi\n        /* \"#utility.yul\":9728:9746   */\n      tag_262\n      tag_263\n      jump\t// in\n    tag_262:\n        /* \"#utility.yul\":9660:9662   */\n    tag_261:\n        /* \"#utility.yul\":9768:9778   */\n      dup1\n        /* \"#utility.yul\":9764:9766   */\n      0x40\n        /* \"#utility.yul\":9757:9779   */\n      mstore\n        /* \"#utility.yul\":9542:9785   */\n      pop\n      swap2\n      swap1\n      pop\n      jump\t// out\n        /* \"#utility.yul\":9791:10102   */\n    tag_134:\n      0x00\n        /* \"#utility.yul\":9958:9976   */\n      0xffffffffffffffff\n        /* \"#utility.yul\":9950:9956   */\n      dup3\n        /* \"#utility.yul\":9947:9977   */\n      gt\n        /* \"#utility.yul\":9944:9946   */\n      iszero\n      tag_265\n      jumpi\n        /* \"#utility.yul\":9980:9998   */\n      tag_266\n      tag_263\n      jump\t// in\n    tag_266:\n        /* \"#utility.yul\":9944:9946   */\n    tag_265:\n        /* \"#utility.yul\":10030:10034   */\n      0x20\n        /* \"#utility.yul\":10022:10028   */\n      dup3\n        /* \"#utility.yul\":10018:10035   */\n      mul\n        /* \"#utility.yul\":10010:10035   */\n      swap1\n      pop\n        /* \"#utility.yul\":10090:10094   */\n      0x20\n        /* \"#utility.yul\":10084:10088   */\n      dup2\n        /* \"#utility.yul\":10080:10095   */\n      add\n        /* \"#utility.yul\":10072:10095   */\n      swap1\n      pop\n        /* \"#utility.yul\":9873:10102   */\n      swap2\n      swap1\n      pop\n      jump\t// out\n        /* \"#utility.yul\":10108:10440   */\n    tag_146:\n      0x00\n        /* \"#utility.yul\":10260:10278   */\n      0xffffffffffffffff\n        /* \"#utility.yul\":10252:10258   */\n      dup3\n        /* \"#utility.yul\":10249:10279   */\n      gt\n        /* \"#utility.yul\":10246:10248   */\n      iszero\n      tag_268\n      jumpi\n        /* \"#utility.yul\":10282:10300   */\n      tag_269\n      tag_263\n      jump\t// in\n    tag_269:\n        /* \"#utility.yul\":10246:10248   */\n    tag_268:\n        /* \"#utility.yul\":10367:10371   */\n      0x1f\n        /* \"#utility.yul\":10363:10372   */\n      not\n        /* \"#utility.yul\":10356:10360   */\n      0x1f\n        /* \"#utility.yul\":10348:10354   */\n      dup4\n        /* \"#utility.yul\":10344:10361   */\n      add\n        /* \"#utility.yul\":10340:10373   */\n      and\n        /* \"#utility.yul\":10332:10373   */\n      swap1\n      pop\n        /* \"#utility.yul\":10428:10432   */\n      0x20\n        /* \"#utility.yul\":10422:10426   */\n      dup2\n        /* \"#utility.yul\":10418:10433   */\n      add\n        /* \"#utility.yul\":10410:10433   */\n      swap1\n      pop\n        /* \"#utility.yul\":10175:10440   */\n      swap2\n      swap1\n      pop\n      jump\t// out\n        /* \"#utility.yul\":10446:10588   */\n    tag_193:\n      0x00\n        /* \"#utility.yul\":10546:10549   */\n      dup2\n        /* \"#utility.yul\":10538:10549   */\n      swap1\n      pop\n        /* \"#utility.yul\":10576:10580   */\n      0x20\n        /* \"#utility.yul\":10571:10574   */\n      dup3\n        /* \"#utility.yul\":10567:10581   */\n      add\n        /* \"#utility.yul\":10559:10581   */\n      swap1\n      pop\n        /* \"#utility.yul\":10528:10588   */\n      swap2\n      swap1\n      pop\n      jump\t// out\n        /* \"#utility.yul\":10594:10726   */\n    tag_207:\n      0x00\n        /* \"#utility.yul\":10684:10687   */\n      dup2\n        /* \"#utility.yul\":10676:10687   */\n      swap1\n      pop\n        /* \"#utility.yul\":10714:10718   */\n      0x20\n        /* \"#utility.yul\":10709:10712   */\n      dup3\n        /* \"#utility.yul\":10705:10719   */\n      add\n        /* \"#utility.yul\":10697:10719   */\n      swap1\n      pop\n        /* \"#utility.yul\":10666:10726   */\n      swap2\n      swap1\n      pop\n      jump\t// out\n        /* \"#utility.yul\":10732:10856   */\n    tag_189:\n      0x00\n        /* \"#utility.yul\":10843:10848   */\n      dup2\n        /* \"#utility.yul\":10837:10849   */\n      mload\n        /* \"#utility.yul\":10827:10849   */\n      swap1\n      pop\n        /* \"#utility.yul\":10816:10856   */\n      swap2\n      swap1\n      pop\n      jump\t// out\n        /* \"#utility.yul\":10862:10976   */\n    tag_203:\n      0x00\n        /* \"#utility.yul\":10963:10968   */\n      dup2\n        /* \"#utility.yul\":10957:10969   */\n      mload\n        /* \"#utility.yul\":10947:10969   */\n      swap1\n      pop\n        /* \"#utility.yul\":10936:10976   */\n      swap2\n      swap1\n      pop\n      jump\t// out\n        /* \"#utility.yul\":10982:11081   */\n    tag_224:\n      0x00\n        /* \"#utility.yul\":11068:11073   */\n      dup2\n        /* \"#utility.yul\":11062:11074   */\n      mload\n        /* \"#utility.yul\":11052:11074   */\n      swap1\n      pop\n        /* \"#utility.yul\":11041:11081   */\n      swap2\n      swap1\n      pop\n      jump\t// out\n        /* \"#utility.yul\":11087:11210   */\n    tag_199:\n      0x00\n        /* \"#utility.yul\":11199:11203   */\n      0x20\n        /* \"#utility.yul\":11194:11197   */\n      dup3\n        /* \"#utility.yul\":11190:11204   */\n      add\n        /* \"#utility.yul\":11182:11204   */\n      swap1\n      pop\n        /* \"#utility.yul\":11172:11210   */\n      swap2\n      swap1\n      pop\n      jump\t// out\n        /* \"#utility.yul\":11216:11329   */\n    tag_213:\n      0x00\n        /* \"#utility.yul\":11318:11322   */\n      0x20\n        /* \"#utility.yul\":11313:11316   */\n      dup3\n        /* \"#utility.yul\":11309:11323   */\n      add\n        /* \"#utility.yul\":11301:11323   */\n      swap1\n      pop\n        /* \"#utility.yul\":11291:11329   */\n      swap2\n      swap1\n      pop\n      jump\t// out\n        /* \"#utility.yul\":11335:11529   */\n    tag_191:\n      0x00\n        /* \"#utility.yul\":11478:11484   */\n      dup3\n        /* \"#utility.yul\":11473:11476   */\n      dup3\n        /* \"#utility.yul\":11466:11485   */\n      mstore\n        /* \"#utility.yul\":11518:11522   */\n      0x20\n        /* \"#utility.yul\":11513:11516   */\n      dup3\n        /* \"#utility.yul\":11509:11523   */\n      add\n        /* \"#utility.yul\":11494:11523   */\n      swap1\n      pop\n        /* \"#utility.yul\":11456:11529   */\n      swap3\n      swap2\n      pop\n      pop\n      jump\t// out\n        /* \"#utility.yul\":11535:11719   */\n    tag_205:\n      0x00\n        /* \"#utility.yul\":11668:11674   */\n      dup3\n        /* \"#utility.yul\":11663:11666   */\n      dup3\n        /* \"#utility.yul\":11656:11675   */\n      mstore\n        /* \"#utility.yul\":11708:11712   */\n      0x20\n        /* \"#utility.yul\":11703:11706   */\n      dup3\n        /* \"#utility.yul\":11699:11713   */\n      add\n        /* \"#utility.yul\":11684:11713   */\n      swap1\n      pop\n        /* \"#utility.yul\":11646:11719   */\n      swap3\n      swap2\n      pop\n      pop\n      jump\t// out\n        /* \"#utility.yul\":11725:11884   */\n    tag_226:\n      0x00\n        /* \"#utility.yul\":11833:11839   */\n      dup3\n        /* \"#utility.yul\":11828:11831   */\n      dup3\n        /* \"#utility.yul\":11821:11840   */\n      mstore\n        /* \"#utility.yul\":11873:11877   */\n      0x20\n        /* \"#utility.yul\":11868:11871   */\n      dup3\n        /* \"#utility.yul\":11864:11878   */\n      add\n        /* \"#utility.yul\":11849:11878   */\n      swap1\n      pop\n        /* \"#utility.yul\":11811:11884   */\n      swap3\n      swap2\n      pop\n      pop\n      jump\t// out\n        /* \"#utility.yul\":11890:12059   */\n    tag_235:\n      0x00\n        /* \"#utility.yul\":12008:12014   */\n      dup3\n        /* \"#utility.yul\":12003:12006   */\n      dup3\n        /* \"#utility.yul\":11996:12015   */\n      mstore\n        /* \"#utility.yul\":12048:12052   */\n      0x20\n        /* \"#utility.yul\":12043:12046   */\n      dup3\n        /* \"#utility.yul\":12039:12053   */\n      add\n        /* \"#utility.yul\":12024:12053   */\n      swap1\n      pop\n        /* \"#utility.yul\":11986:12059   */\n      swap3\n      swap2\n      pop\n      pop\n      jump\t// out\n        /* \"#utility.yul\":12065:12155   */\n    tag_217:\n      0x00\n        /* \"#utility.yul\":12142:12147   */\n      dup2\n        /* \"#utility.yul\":12135:12148   */\n      iszero\n        /* \"#utility.yul\":12128:12149   */\n      iszero\n        /* \"#utility.yul\":12117:12149   */\n      swap1\n      pop\n        /* \"#utility.yul\":12107:12155   */\n      swap2\n      swap1\n      pop\n      jump\t// out\n        /* \"#utility.yul\":12161:12292   */\n    tag_282:\n      0x00\n        /* \"#utility.yul\":12237:12242   */\n      dup2\n        /* \"#utility.yul\":12226:12242   */\n      swap1\n      pop\n        /* \"#utility.yul\":12243:12286   */\n      tag_284\n        /* \"#utility.yul\":12280:12285   */\n      dup3\n        /* \"#utility.yul\":12243:12286   */\n      tag_285\n      jump\t// in\n    tag_284:\n        /* \"#utility.yul\":12216:12292   */\n      swap2\n      swap1\n      pop\n      jump\t// out\n        /* \"#utility.yul\":12298:12375   */\n    tag_240:\n      0x00\n        /* \"#utility.yul\":12364:12369   */\n      dup2\n        /* \"#utility.yul\":12353:12369   */\n      swap1\n      pop\n        /* \"#utility.yul\":12343:12375   */\n      swap2\n      swap1\n      pop\n      jump\t// out\n        /* \"#utility.yul\":12381:12512   */\n    tag_221:\n      0x00\n        /* \"#utility.yul\":12472:12506   */\n      tag_288\n        /* \"#utility.yul\":12500:12505   */\n      dup3\n        /* \"#utility.yul\":12472:12506   */\n      tag_282\n      jump\t// in\n    tag_288:\n        /* \"#utility.yul\":12459:12506   */\n      swap1\n      pop\n        /* \"#utility.yul\":12449:12512   */\n      swap2\n      swap1\n      pop\n      jump\t// out\n        /* \"#utility.yul\":12518:12672   */\n    tag_149:\n        /* \"#utility.yul\":12602:12608   */\n      dup3\n        /* \"#utility.yul\":12597:12600   */\n      dup2\n        /* \"#utility.yul\":12592:12595   */\n      dup4\n        /* \"#utility.yul\":12579:12609   */\n      calldatacopy\n        /* \"#utility.yul\":12664:12665   */\n      0x00\n        /* \"#utility.yul\":12655:12661   */\n      dup4\n        /* \"#utility.yul\":12650:12653   */\n      dup4\n        /* \"#utility.yul\":12646:12662   */\n      add\n        /* \"#utility.yul\":12639:12666   */\n      mstore\n        /* \"#utility.yul\":12569:12672   */\n      pop\n      pop\n      pop\n      jump\t// out\n        /* \"#utility.yul\":12678:12985   */\n    tag_228:\n        /* \"#utility.yul\":12746:12747   */\n      0x00\n        /* \"#utility.yul\":12756:12869   */\n    tag_291:\n        /* \"#utility.yul\":12770:12776   */\n      dup4\n        /* \"#utility.yul\":12767:12768   */\n      dup2\n        /* \"#utility.yul\":12764:12777   */\n      lt\n        /* \"#utility.yul\":12756:12869   */\n      iszero\n      tag_293\n      jumpi\n        /* \"#utility.yul\":12855:12856   */\n      dup1\n        /* \"#utility.yul\":12850:12853   */\n      dup3\n        /* \"#utility.yul\":12846:12857   */\n      add\n        /* \"#utility.yul\":12840:12858   */\n      mload\n        /* \"#utility.yul\":12836:12837   */\n      dup2\n        /* \"#utility.yul\":12831:12834   */\n      dup5\n        /* \"#utility.yul\":12827:12838   */\n      add\n        /* \"#utility.yul\":12820:12859   */\n      mstore\n        /* \"#utility.yul\":12792:12794   */\n      0x20\n        /* \"#utility.yul\":12789:12790   */\n      dup2\n        /* \"#utility.yul\":12785:12795   */\n      add\n        /* \"#utility.yul\":12780:12795   */\n      swap1\n      pop\n        /* \"#utility.yul\":12756:12869   */\n      jump(tag_291)\n    tag_293:\n        /* \"#utility.yul\":12887:12893   */\n      dup4\n        /* \"#utility.yul\":12884:12885   */\n      dup2\n        /* \"#utility.yul\":12881:12894   */\n      gt\n        /* \"#utility.yul\":12878:12880   */\n      iszero\n      tag_294\n      jumpi\n        /* \"#utility.yul\":12967:12968   */\n      0x00\n        /* \"#utility.yul\":12958:12964   */\n      dup5\n        /* \"#utility.yul\":12953:12956   */\n      dup5\n        /* \"#utility.yul\":12949:12965   */\n      add\n        /* \"#utility.yul\":12942:12969   */\n      mstore\n        /* \"#utility.yul\":12878:12880   */\n    tag_294:\n        /* \"#utility.yul\":12727:12985   */\n      pop\n      pop\n      pop\n      pop\n      jump\t// out\n        /* \"#utility.yul\":12991:13311   */\n    tag_54:\n      0x00\n        /* \"#utility.yul\":13072:13073   */\n      0x02\n        /* \"#utility.yul\":13066:13070   */\n      dup3\n        /* \"#utility.yul\":13062:13074   */\n      div\n        /* \"#utility.yul\":13052:13074   */\n      swap1\n      pop\n        /* \"#utility.yul\":13119:13120   */\n      0x01\n        /* \"#utility.yul\":13113:13117   */\n      dup3\n        /* \"#utility.yul\":13109:13121   */\n      and\n        /* \"#utility.yul\":13140:13158   */\n      dup1\n        /* \"#utility.yul\":13130:13132   */\n      tag_296\n      jumpi\n        /* \"#utility.yul\":13196:13200   */\n      0x7f\n        /* \"#utility.yul\":13188:13194   */\n      dup3\n        /* \"#utility.yul\":13184:13201   */\n      and\n        /* \"#utility.yul\":13174:13201   */\n      swap2\n      pop\n        /* \"#utility.yul\":13130:13132   */\n    tag_296:\n        /* \"#utility.yul\":13258:13260   */\n      0x20\n        /* \"#utility.yul\":13250:13256   */\n      dup3\n        /* \"#utility.yul\":13247:13261   */\n      lt\n        /* \"#utility.yul\":13227:13245   */\n      dup2\n        /* \"#utility.yul\":13224:13262   */\n      eq\n        /* \"#utility.yul\":13221:13223   */\n      iszero\n      tag_297\n      jumpi\n        /* \"#utility.yul\":13277:13295   */\n      tag_298\n      tag_299\n      jump\t// in\n    tag_298:\n        /* \"#utility.yul\":13221:13223   */\n    tag_297:\n        /* \"#utility.yul\":13042:13311   */\n      pop\n      swap2\n      swap1\n      pop\n      jump\t// out\n        /* \"#utility.yul\":13317:13497   */\n    tag_300:\n        /* \"#utility.yul\":13365:13442   */\n      0x4e487b7100000000000000000000000000000000000000000000000000000000\n        /* \"#utility.yul\":13362:13363   */\n      0x00\n        /* \"#utility.yul\":13355:13443   */\n      mstore\n        /* \"#utility.yul\":13462:13466   */\n      0x21\n        /* \"#utility.yul\":13459:13460   */\n      0x04\n        /* \"#utility.yul\":13452:13467   */\n      mstore\n        /* \"#utility.yul\":13486:13490   */\n      0x24\n        /* \"#utility.yul\":13483:13484   */\n      0x00\n        /* \"#utility.yul\":13476:13491   */\n      revert\n        /* \"#utility.yul\":13503:13683   */\n    tag_299:\n        /* \"#utility.yul\":13551:13628   */\n      0x4e487b7100000000000000000000000000000000000000000000000000000000\n        /* \"#utility.yul\":13548:13549   */\n      0x00\n        /* \"#utility.yul\":13541:13629   */\n      mstore\n        /* \"#utility.yul\":13648:13652   */\n      0x22\n        /* \"#utility.yul\":13645:13646   */\n      0x04\n        /* \"#utility.yul\":13638:13653   */\n      mstore\n        /* \"#utility.yul\":13672:13676   */\n      0x24\n        /* \"#utility.yul\":13669:13670   */\n      0x00\n        /* \"#utility.yul\":13662:13677   */\n      revert\n        /* \"#utility.yul\":13689:13869   */\n    tag_263:\n        /* \"#utility.yul\":13737:13814   */\n      0x4e487b7100000000000000000000000000000000000000000000000000000000\n        /* \"#utility.yul\":13734:13735   */\n      0x00\n        /* \"#utility.yul\":13727:13815   */\n      mstore\n        /* \"#utility.yul\":13834:13838   */\n      0x41\n        /* \"#utility.yul\":13831:13832   */\n      0x04\n        /* \"#utility.yul\":13824:13839   */\n      mstore\n        /* \"#utility.yul\":13858:13862   */\n      0x24\n        /* \"#utility.yul\":13855:13856   */\n      0x00\n        /* \"#utility.yul\":13848:13863   */\n      revert\n        /* \"#utility.yul\":13875:13977   */\n    tag_230:\n      0x00\n        /* \"#utility.yul\":13967:13969   */\n      0x1f\n        /* \"#utility.yul\":13963:13970   */\n      not\n        /* \"#utility.yul\":13958:13960   */\n      0x1f\n        /* \"#utility.yul\":13951:13956   */\n      dup4\n        /* \"#utility.yul\":13947:13961   */\n      add\n        /* \"#utility.yul\":13943:13971   */\n      and\n        /* \"#utility.yul\":13933:13971   */\n      swap1\n      pop\n        /* \"#utility.yul\":13923:13977   */\n      swap2\n      swap1\n      pop\n      jump\t// out\n        /* \"#utility.yul\":13983:14098   */\n    tag_285:\n        /* \"#utility.yul\":14066:14067   */\n      0x04\n        /* \"#utility.yul\":14059:14064   */\n      dup2\n        /* \"#utility.yul\":14056:14068   */\n      lt\n        /* \"#utility.yul\":14046:14048   */\n      tag_306\n      jumpi\n        /* \"#utility.yul\":14072:14090   */\n      tag_307\n      tag_300\n      jump\t// in\n    tag_307:\n        /* \"#utility.yul\":14046:14048   */\n    tag_306:\n        /* \"#utility.yul\":14036:14098   */\n      pop\n      jump\t// out\n        /* \"#utility.yul\":14104:14213   */\n    tag_157:\n        /* \"#utility.yul\":14187:14188   */\n      0x04\n        /* \"#utility.yul\":14180:14185   */\n      dup2\n        /* \"#utility.yul\":14177:14189   */\n      lt\n        /* \"#utility.yul\":14167:14169   */\n      tag_309\n      jumpi\n        /* \"#utility.yul\":14203:14204   */\n      0x00\n        /* \"#utility.yul\":14200:14201   */\n      dup1\n        /* \"#utility.yul\":14193:14205   */\n      revert\n        /* \"#utility.yul\":14167:14169   */\n    tag_309:\n        /* \"#utility.yul\":14157:14213   */\n      pop\n      jump\t// out\n        /* \"#utility.yul\":14219:14341   */\n    tag_164:\n        /* \"#utility.yul\":14292:14316   */\n      tag_311\n        /* \"#utility.yul\":14310:14315   */\n      dup2\n        /* \"#utility.yul\":14292:14316   */\n      tag_240\n      jump\t// in\n    tag_311:\n        /* \"#utility.yul\":14285:14290   */\n      dup2\n        /* \"#utility.yul\":14282:14317   */\n      eq\n        /* \"#utility.yul\":14272:14274   */\n      tag_312\n      jumpi\n        /* \"#utility.yul\":14331:14332   */\n      0x00\n        /* \"#utility.yul\":14328:14329   */\n      dup1\n        /* \"#utility.yul\":14321:14333   */\n      revert\n        /* \"#utility.yul\":14272:14274   */\n    tag_312:\n        /* \"#utility.yul\":14262:14341   */\n      pop\n      jump\t// out\n\n    auxdata: 0xa2646970667358221220b11f4d0420f24482ff100a924e86a4cf01c630439d7071030ed2fd91e4c12bd864736f6c63430008000033\n}\n","bytecode":{"linkReferences":{},"object":"608060405234801561001057600080fd5b506112e1806100206000396000f3fe608060405234801561001057600080fd5b50600436106100885760003560e01c8063957941571161005b5780639579415714610115578063976217cd146101455780639849cee914610179578063993c0410146101a957610088565b80634d60f6511461008d57806361ea18df146100ab57806372a598cc146100db578063909e4ab6146100f7575b600080fd5b6100956101d9565b6040516100a29190610ef3565b60405180910390f35b6100c560048036038101906100c09190610c5e565b6102b2565b6040516100d29190610fba565b60405180910390f35b6100f560048036038101906100f09190610c87565b61035e565b005b6100ff6104af565b60405161010c9190610f15565b60405180910390f35b61012f600480360381019061012a9190610c5e565b610507565b60405161013c9190610fdc565b60405180910390f35b61015f600480360381019061015a9190610c5e565b61052b565b604051610170959493929190610f52565b60405180910390f35b610193600480360381019061018e9190610c5e565b6106fc565b6040516101a09190610f37565b60405180910390f35b6101c360048036038101906101be9190610c5e565b610728565b6040516101d09190610f37565b60405180910390f35b60606002805480602002602001604051908101604052809291908181526020016000905b828210156102a957838290600052602060002001805461021c906111a0565b80601f0160208091040260200160405190810160405280929190818152602001828054610248906111a0565b80156102955780601f1061026a57610100808354040283529160200191610295565b820191906000526020600020905b81548152906001019060200180831161027857829003601f168201915b5050505050815260200190600101906101fd565b50505050905090565b600281815481106102c257600080fd5b9060005260206000200160009150905080546102dd906111a0565b80601f0160208091040260200160405190810160405280929190818152602001828054610309906111a0565b80156103565780601f1061032b57610100808354040283529160200191610356565b820191906000526020600020905b81548152906001019060200180831161033957829003601f168201915b505050505081565b60006040518060a001604052806000151581526020018681526020018560038111156103b3577f4e487b7100000000000000000000000000000000000000000000000000000000600052602160045260246000fd5b81526020018481526020018381525090508060008088815260200190815260200160002060008201518160000160006101000a81548160ff02191690831515021790555060208201518160010190805190602001906104139291906109b9565b5060408201518160020160006101000a81548160ff02191690836003811115610465577f4e487b7100000000000000000000000000000000000000000000000000000000600052602160045260246000fd5b02179055506060820151816003019080519060200190610486929190610a3f565b5060808201518160040190805190602001906104a3929190610a3f565b50905050505050505050565b606060018054806020026020016040519081016040528092919081815260200182805480156104fd57602002820191906000526020600020905b8154815260200190600101908083116104e9575b5050505050905090565b6001818154811061051757600080fd5b906000526020600020016000915090505481565b60006060600060608060008087815260200190815260200160002060000160009054906101000a900460ff1660008088815260200190815260200160002060010160008089815260200190815260200160002060020160009054906101000a900460ff166000808a81526020019081526020016000206003016000808b81526020019081526020016000206004018380546105c5906111a0565b80601f01602080910402602001604051908101604052809291908181526020018280546105f1906111a0565b801561063e5780601f106106135761010080835404028352916020019161063e565b820191906000526020600020905b81548152906001019060200180831161062157829003601f168201915b505050505093508180548060200260200160405190810160405280929190818152602001828054801561069057602002820191906000526020600020905b81548152602001906001019080831161067c575b50505050509150808054806020026020016040519081016040528092919081815260200182805480156106e257602002820191906000526020600020905b8154815260200190600101908083116106ce575b505050505090509450945094509450945091939590929450565b600080600083815260200190815260200160002060000160009054906101000a900460ff169050919050565b60008060008084815260200190815260200160002060030180548060200260200160405190810160405280929190818152602001828054801561078a57602002820191906000526020600020905b815481526020019060010190808311610776575b505050505090506000815114156107a4576001915061089c565b600060038111156107de577f4e487b7100000000000000000000000000000000000000000000000000000000600052602160045260246000fd5b60008085815260200190815260200160002060020160009054906101000a900460ff166003811115610839577f4e487b7100000000000000000000000000000000000000000000000000000000600052602160045260246000fd5b141561089b576001151561088d82600081518110610880577f4e487b7100000000000000000000000000000000000000000000000000000000600052603260045260246000fd5b60200260200101516106fc565b1515141561089a57600191505b5b5b811561098257600160008085815260200190815260200160002060000160006101000a81548160ff0219169083151502179055506001839080600181540180825580915050600190039060005260206000200160009091909190915055600260008085815260200190815260200160002060010190806001815401808255809150506001900390600052602060002001600090919091909150908054610941906111a0565b61094c929190610a8c565b50600115157facd30b4f9fd5868793e13ffb506f03374a23d9feba1249ac2cc7b0fe024ff4ba60405160405180910390a26109b3565b600015157facd30b4f9fd5868793e13ffb506f03374a23d9feba1249ac2cc7b0fe024ff4ba60405160405180910390a25b50919050565b8280546109c5906111a0565b90600052602060002090601f0160209004810192826109e75760008555610a2e565b82601f10610a0057805160ff1916838001178555610a2e565b82800160010185558215610a2e579182015b82811115610a2d578251825591602001919060010190610a12565b5b509050610a3b9190610b19565b5090565b828054828255906000526020600020908101928215610a7b579160200282015b82811115610a7a578251825591602001919060010190610a5f565b5b509050610a889190610b19565b5090565b828054610a98906111a0565b90600052602060002090601f016020900481019282610aba5760008555610b08565b82601f10610acb5780548555610b08565b82800160010185558215610b0857600052602060002091601f016020900482015b82811115610b07578254825591600101919060010190610aec565b5b509050610b159190610b19565b5090565b5b80821115610b32576000816000905550600101610b1a565b5090565b6000610b49610b4484611028565b610ff7565b90508083825260208201905082856020860282011115610b6857600080fd5b60005b85811015610b985781610b7e8882610c49565b845260208401935060208301925050600181019050610b6b565b5050509392505050565b6000610bb5610bb084611054565b610ff7565b905082815260208101848484011115610bcd57600080fd5b610bd884828561115e565b509392505050565b600082601f830112610bf157600080fd5b8135610c01848260208601610b36565b91505092915050565b600081359050610c1981611284565b92915050565b600082601f830112610c3057600080fd5b8135610c40848260208601610ba2565b91505092915050565b600081359050610c5881611294565b92915050565b600060208284031215610c7057600080fd5b6000610c7e84828501610c49565b91505092915050565b600080600080600060a08688031215610c9f57600080fd5b6000610cad88828901610c49565b955050602086013567ffffffffffffffff811115610cca57600080fd5b610cd688828901610c1f565b9450506040610ce788828901610c0a565b935050606086013567ffffffffffffffff811115610d0457600080fd5b610d1088828901610be0565b925050608086013567ffffffffffffffff811115610d2d57600080fd5b610d3988828901610be0565b9150509295509295909350565b6000610d528383610e63565b905092915050565b6000610d668383610ed5565b60208301905092915050565b6000610d7d826110a4565b610d8781856110df565b935083602082028501610d9985611084565b8060005b85811015610dd55784840389528151610db68582610d46565b9450610dc1836110c5565b925060208a01995050600181019050610d9d565b50829750879550505050505092915050565b6000610df2826110af565b610dfc81856110f0565b9350610e0783611094565b8060005b83811015610e38578151610e1f8882610d5a565b9750610e2a836110d2565b925050600181019050610e0b565b5085935050505092915050565b610e4e81611123565b82525050565b610e5d8161114c565b82525050565b6000610e6e826110ba565b610e788185611101565b9350610e8881856020860161116d565b610e918161125f565b840191505092915050565b6000610ea7826110ba565b610eb18185611112565b9350610ec181856020860161116d565b610eca8161125f565b840191505092915050565b610ede81611142565b82525050565b610eed81611142565b82525050565b60006020820190508181036000830152610f0d8184610d72565b905092915050565b60006020820190508181036000830152610f2f8184610de7565b905092915050565b6000602082019050610f4c6000830184610e45565b92915050565b600060a082019050610f676000830188610e45565b8181036020830152610f798187610e9c565b9050610f886040830186610e54565b8181036060830152610f9a8185610de7565b90508181036080830152610fae8184610de7565b90509695505050505050565b60006020820190508181036000830152610fd48184610e9c565b905092915050565b6000602082019050610ff16000830184610ee4565b92915050565b6000604051905081810181811067ffffffffffffffff8211171561101e5761101d611230565b5b8060405250919050565b600067ffffffffffffffff82111561104357611042611230565b5b602082029050602081019050919050565b600067ffffffffffffffff82111561106f5761106e611230565b5b601f19601f8301169050602081019050919050565b6000819050602082019050919050565b6000819050602082019050919050565b600081519050919050565b600081519050919050565b600081519050919050565b6000602082019050919050565b6000602082019050919050565b600082825260208201905092915050565b600082825260208201905092915050565b600082825260208201905092915050565b600082825260208201905092915050565b60008115159050919050565b600081905061113d82611270565b919050565b6000819050919050565b60006111578261112f565b9050919050565b82818337600083830152505050565b60005b8381101561118b578082015181840152602081019050611170565b8381111561119a576000848401525b50505050565b600060028204905060018216806111b857607f821691505b602082108114156111cc576111cb611201565b5b50919050565b7f4e487b7100000000000000000000000000000000000000000000000000000000600052602160045260246000fd5b7f4e487b7100000000000000000000000000000000000000000000000000000000600052602260045260246000fd5b7f4e487b7100000000000000000000000000000000000000000000000000000000600052604160045260246000fd5b6000601f19601f8301169050919050565b60048110611281576112806111d2565b5b50565b6004811061129157600080fd5b50565b61129d81611142565b81146112a857600080fd5b5056fea2646970667358221220b11f4d0420f24482ff100a924e86a4cf01c630439d7071030ed2fd91e4c12bd864736f6c63430008000033","opcodes":"PUSH1 0x80 PUSH1 0x40 MSTORE CALLVALUE DUP1 ISZERO PUSH2 0x10 JUMPI PUSH1 0x0 DUP1 REVERT JUMPDEST POP PUSH2 0x12E1 DUP1 PUSH2 0x20 PUSH1 0x0 CODECOPY PUSH1 0x0 RETURN INVALID PUSH1 0x80 PUSH1 0x40 MSTORE CALLVALUE DUP1 ISZERO PUSH2 0x10 JUMPI PUSH1 0x0 DUP1 REVERT JUMPDEST POP PUSH1 0x4 CALLDATASIZE LT PUSH2 0x88 JUMPI PUSH1 0x0 CALLDATALOAD PUSH1 0xE0 SHR DUP1 PUSH4 0x95794157 GT PUSH2 0x5B JUMPI DUP1 PUSH4 0x95794157 EQ PUSH2 0x115 JUMPI DUP1 PUSH4 0x976217CD EQ PUSH2 0x145 JUMPI DUP1 PUSH4 0x9849CEE9 EQ PUSH2 0x179 JUMPI DUP1 PUSH4 0x993C0410 EQ PUSH2 0x1A9 JUMPI PUSH2 0x88 JUMP JUMPDEST DUP1 PUSH4 0x4D60F651 EQ PUSH2 0x8D JUMPI DUP1 PUSH4 0x61EA18DF EQ PUSH2 0xAB JUMPI DUP1 PUSH4 0x72A598CC EQ PUSH2 0xDB JUMPI DUP1 PUSH4 0x909E4AB6 EQ PUSH2 0xF7 JUMPI JUMPDEST PUSH1 0x0 DUP1 REVERT JUMPDEST PUSH2 0x95 PUSH2 0x1D9 JUMP JUMPDEST PUSH1 0x40 MLOAD PUSH2 0xA2 SWAP2 SWAP1 PUSH2 0xEF3 JUMP JUMPDEST PUSH1 0x40 MLOAD DUP1 SWAP2 SUB SWAP1 RETURN JUMPDEST PUSH2 0xC5 PUSH1 0x4 DUP1 CALLDATASIZE SUB DUP2 ADD SWAP1 PUSH2 0xC0 SWAP2 SWAP1 PUSH2 0xC5E JUMP JUMPDEST PUSH2 0x2B2 JUMP JUMPDEST PUSH1 0x40 MLOAD PUSH2 0xD2 SWAP2 SWAP1 PUSH2 0xFBA JUMP JUMPDEST PUSH1 0x40 MLOAD DUP1 SWAP2 SUB SWAP1 RETURN JUMPDEST PUSH2 0xF5 PUSH1 0x4 DUP1 CALLDATASIZE SUB DUP2 ADD SWAP1 PUSH2 0xF0 SWAP2 SWAP1 PUSH2 0xC87 JUMP JUMPDEST PUSH2 0x35E JUMP JUMPDEST STOP JUMPDEST PUSH2 0xFF PUSH2 0x4AF JUMP JUMPDEST PUSH1 0x40 MLOAD PUSH2 0x10C SWAP2 SWAP1 PUSH2 0xF15 JUMP JUMPDEST PUSH1 0x40 MLOAD DUP1 SWAP2 SUB SWAP1 RETURN JUMPDEST PUSH2 0x12F PUSH1 0x4 DUP1 CALLDATASIZE SUB DUP2 ADD SWAP1 PUSH2 0x12A SWAP2 SWAP1 PUSH2 0xC5E JUMP JUMPDEST PUSH2 0x507 JUMP JUMPDEST PUSH1 0x40 MLOAD PUSH2 0x13C SWAP2 SWAP1 PUSH2 0xFDC JUMP JUMPDEST PUSH1 0x40 MLOAD DUP1 SWAP2 SUB SWAP1 RETURN JUMPDEST PUSH2 0x15F PUSH1 0x4 DUP1 CALLDATASIZE SUB DUP2 ADD SWAP1 PUSH2 0x15A SWAP2 SWAP1 PUSH2 0xC5E JUMP JUMPDEST PUSH2 0x52B JUMP JUMPDEST PUSH1 0x40 MLOAD PUSH2 0x170 SWAP6 SWAP5 SWAP4 SWAP3 SWAP2 SWAP1 PUSH2 0xF52 JUMP JUMPDEST PUSH1 0x40 MLOAD DUP1 SWAP2 SUB SWAP1 RETURN JUMPDEST PUSH2 0x193 PUSH1 0x4 DUP1 CALLDATASIZE SUB DUP2 ADD SWAP1 PUSH2 0x18E SWAP2 SWAP1 PUSH2 0xC5E JUMP JUMPDEST PUSH2 0x6FC JUMP JUMPDEST PUSH1 0x40 MLOAD PUSH2 0x1A0 SWAP2 SWAP1 PUSH2 0xF37 JUMP JUMPDEST PUSH1 0x40 MLOAD DUP1 SWAP2 SUB SWAP1 RETURN JUMPDEST PUSH2 0x1C3 PUSH1 0x4 DUP1 CALLDATASIZE SUB DUP2 ADD SWAP1 PUSH2 0x1BE SWAP2 SWAP1 PUSH2 0xC5E JUMP JUMPDEST PUSH2 0x728 JUMP JUMPDEST PUSH1 0x40 MLOAD PUSH2 0x1D0 SWAP2 SWAP1 PUSH2 0xF37 JUMP JUMPDEST PUSH1 0x40 MLOAD DUP1 SWAP2 SUB SWAP1 RETURN JUMPDEST PUSH1 0x60 PUSH1 0x2 DUP1 SLOAD DUP1 PUSH1 0x20 MUL PUSH1 0x20 ADD PUSH1 0x40 MLOAD SWAP1 DUP2 ADD PUSH1 0x40 MSTORE DUP1 SWAP3 SWAP2 SWAP1 DUP2 DUP2 MSTORE PUSH1 0x20 ADD PUSH1 0x0 SWAP1 JUMPDEST DUP3 DUP3 LT ISZERO PUSH2 0x2A9 JUMPI DUP4 DUP3 SWAP1 PUSH1 0x0 MSTORE PUSH1 0x20 PUSH1 0x0 KECCAK256 ADD DUP1 SLOAD PUSH2 0x21C SWAP1 PUSH2 0x11A0 JUMP JUMPDEST DUP1 PUSH1 0x1F ADD PUSH1 0x20 DUP1 SWAP2 DIV MUL PUSH1 0x20 ADD PUSH1 0x40 MLOAD SWAP1 DUP2 ADD PUSH1 0x40 MSTORE DUP1 SWAP3 SWAP2 SWAP1 DUP2 DUP2 MSTORE PUSH1 0x20 ADD DUP3 DUP1 SLOAD PUSH2 0x248 SWAP1 PUSH2 0x11A0 JUMP JUMPDEST DUP1 ISZERO PUSH2 0x295 JUMPI DUP1 PUSH1 0x1F LT PUSH2 0x26A JUMPI PUSH2 0x100 DUP1 DUP4 SLOAD DIV MUL DUP4 MSTORE SWAP2 PUSH1 0x20 ADD SWAP2 PUSH2 0x295 JUMP JUMPDEST DUP3 ADD SWAP2 SWAP1 PUSH1 0x0 MSTORE PUSH1 0x20 PUSH1 0x0 KECCAK256 SWAP1 JUMPDEST DUP2 SLOAD DUP2 MSTORE SWAP1 PUSH1 0x1 ADD SWAP1 PUSH1 0x20 ADD DUP1 DUP4 GT PUSH2 0x278 JUMPI DUP3 SWAP1 SUB PUSH1 0x1F AND DUP3 ADD SWAP2 JUMPDEST POP POP POP POP POP DUP2 MSTORE PUSH1 0x20 ADD SWAP1 PUSH1 0x1 ADD SWAP1 PUSH2 0x1FD JUMP JUMPDEST POP POP POP POP SWAP1 POP SWAP1 JUMP JUMPDEST PUSH1 0x2 DUP2 DUP2 SLOAD DUP2 LT PUSH2 0x2C2 JUMPI PUSH1 0x0 DUP1 REVERT JUMPDEST SWAP1 PUSH1 0x0 MSTORE PUSH1 0x20 PUSH1 0x0 KECCAK256 ADD PUSH1 0x0 SWAP2 POP SWAP1 POP DUP1 SLOAD PUSH2 0x2DD SWAP1 PUSH2 0x11A0 JUMP JUMPDEST DUP1 PUSH1 0x1F ADD PUSH1 0x20 DUP1 SWAP2 DIV MUL PUSH1 0x20 ADD PUSH1 0x40 MLOAD SWAP1 DUP2 ADD PUSH1 0x40 MSTORE DUP1 SWAP3 SWAP2 SWAP1 DUP2 DUP2 MSTORE PUSH1 0x20 ADD DUP3 DUP1 SLOAD PUSH2 0x309 SWAP1 PUSH2 0x11A0 JUMP JUMPDEST DUP1 ISZERO PUSH2 0x356 JUMPI DUP1 PUSH1 0x1F LT PUSH2 0x32B JUMPI PUSH2 0x100 DUP1 DUP4 SLOAD DIV MUL DUP4 MSTORE SWAP2 PUSH1 0x20 ADD SWAP2 PUSH2 0x356 JUMP JUMPDEST DUP3 ADD SWAP2 SWAP1 PUSH1 0x0 MSTORE PUSH1 0x20 PUSH1 0x0 KECCAK256 SWAP1 JUMPDEST DUP2 SLOAD DUP2 MSTORE SWAP1 PUSH1 0x1 ADD SWAP1 PUSH1 0x20 ADD DUP1 DUP4 GT PUSH2 0x339 JUMPI DUP3 SWAP1 SUB PUSH1 0x1F AND DUP3 ADD SWAP2 JUMPDEST POP POP POP POP POP DUP2 JUMP JUMPDEST PUSH1 0x0 PUSH1 0x40 MLOAD DUP1 PUSH1 0xA0 ADD PUSH1 0x40 MSTORE DUP1 PUSH1 0x0 ISZERO ISZERO DUP2 MSTORE PUSH1 0x20 ADD DUP7 DUP2 MSTORE PUSH1 0x20 ADD DUP6 PUSH1 0x3 DUP2 GT ISZERO PUSH2 0x3B3 JUMPI PUSH32 0x4E487B7100000000000000000000000000000000000000000000000000000000 PUSH1 0x0 MSTORE PUSH1 0x21 PUSH1 0x4 MSTORE PUSH1 0x24 PUSH1 0x0 REVERT JUMPDEST DUP2 MSTORE PUSH1 0x20 ADD DUP5 DUP2 MSTORE PUSH1 0x20 ADD DUP4 DUP2 MSTORE POP SWAP1 POP DUP1 PUSH1 0x0 DUP1 DUP9 DUP2 MSTORE PUSH1 0x20 ADD SWAP1 DUP2 MSTORE PUSH1 0x20 ADD PUSH1 0x0 KECCAK256 PUSH1 0x0 DUP3 ADD MLOAD DUP2 PUSH1 0x0 ADD PUSH1 0x0 PUSH2 0x100 EXP DUP2 SLOAD DUP2 PUSH1 0xFF MUL NOT AND SWAP1 DUP4 ISZERO ISZERO MUL OR SWAP1 SSTORE POP PUSH1 0x20 DUP3 ADD MLOAD DUP2 PUSH1 0x1 ADD SWAP1 DUP1 MLOAD SWAP1 PUSH1 0x20 ADD SWAP1 PUSH2 0x413 SWAP3 SWAP2 SWAP1 PUSH2 0x9B9 JUMP JUMPDEST POP PUSH1 0x40 DUP3 ADD MLOAD DUP2 PUSH1 0x2 ADD PUSH1 0x0 PUSH2 0x100 EXP DUP2 SLOAD DUP2 PUSH1 0xFF MUL NOT AND SWAP1 DUP4 PUSH1 0x3 DUP2 GT ISZERO PUSH2 0x465 JUMPI PUSH32 0x4E487B7100000000000000000000000000000000000000000000000000000000 PUSH1 0x0 MSTORE PUSH1 0x21 PUSH1 0x4 MSTORE PUSH1 0x24 PUSH1 0x0 REVERT JUMPDEST MUL OR SWAP1 SSTORE POP PUSH1 0x60 DUP3 ADD MLOAD DUP2 PUSH1 0x3 ADD SWAP1 DUP1 MLOAD SWAP1 PUSH1 0x20 ADD SWAP1 PUSH2 0x486 SWAP3 SWAP2 SWAP1 PUSH2 0xA3F JUMP JUMPDEST POP PUSH1 0x80 DUP3 ADD MLOAD DUP2 PUSH1 0x4 ADD SWAP1 DUP1 MLOAD SWAP1 PUSH1 0x20 ADD SWAP1 PUSH2 0x4A3 SWAP3 SWAP2 SWAP1 PUSH2 0xA3F JUMP JUMPDEST POP SWAP1 POP POP POP POP POP POP POP POP JUMP JUMPDEST PUSH1 0x60 PUSH1 0x1 DUP1 SLOAD DUP1 PUSH1 0x20 MUL PUSH1 0x20 ADD PUSH1 0x40 MLOAD SWAP1 DUP2 ADD PUSH1 0x40 MSTORE DUP1 SWAP3 SWAP2 SWAP1 DUP2 DUP2 MSTORE PUSH1 0x20 ADD DUP3 DUP1 SLOAD DUP1 ISZERO PUSH2 0x4FD JUMPI PUSH1 0x20 MUL DUP3 ADD SWAP2 SWAP1 PUSH1 0x0 MSTORE PUSH1 0x20 PUSH1 0x0 KECCAK256 SWAP1 JUMPDEST DUP2 SLOAD DUP2 MSTORE PUSH1 0x20 ADD SWAP1 PUSH1 0x1 ADD SWAP1 DUP1 DUP4 GT PUSH2 0x4E9 JUMPI JUMPDEST POP POP POP POP POP SWAP1 POP SWAP1 JUMP JUMPDEST PUSH1 0x1 DUP2 DUP2 SLOAD DUP2 LT PUSH2 0x517 JUMPI PUSH1 0x0 DUP1 REVERT JUMPDEST SWAP1 PUSH1 0x0 MSTORE PUSH1 0x20 PUSH1 0x0 KECCAK256 ADD PUSH1 0x0 SWAP2 POP SWAP1 POP SLOAD DUP2 JUMP JUMPDEST PUSH1 0x0 PUSH1 0x60 PUSH1 0x0 PUSH1 0x60 DUP1 PUSH1 0x0 DUP1 DUP8 DUP2 MSTORE PUSH1 0x20 ADD SWAP1 DUP2 MSTORE PUSH1 0x20 ADD PUSH1 0x0 KECCAK256 PUSH1 0x0 ADD PUSH1 0x0 SWAP1 SLOAD SWAP1 PUSH2 0x100 EXP SWAP1 DIV PUSH1 0xFF AND PUSH1 0x0 DUP1 DUP9 DUP2 MSTORE PUSH1 0x20 ADD SWAP1 DUP2 MSTORE PUSH1 0x20 ADD PUSH1 0x0 KECCAK256 PUSH1 0x1 ADD PUSH1 0x0 DUP1 DUP10 DUP2 MSTORE PUSH1 0x20 ADD SWAP1 DUP2 MSTORE PUSH1 0x20 ADD PUSH1 0x0 KECCAK256 PUSH1 0x2 ADD PUSH1 0x0 SWAP1 SLOAD SWAP1 PUSH2 0x100 EXP SWAP1 DIV PUSH1 0xFF AND PUSH1 0x0 DUP1 DUP11 DUP2 MSTORE PUSH1 0x20 ADD SWAP1 DUP2 MSTORE PUSH1 0x20 ADD PUSH1 0x0 KECCAK256 PUSH1 0x3 ADD PUSH1 0x0 DUP1 DUP12 DUP2 MSTORE PUSH1 0x20 ADD SWAP1 DUP2 MSTORE PUSH1 0x20 ADD PUSH1 0x0 KECCAK256 PUSH1 0x4 ADD DUP4 DUP1 SLOAD PUSH2 0x5C5 SWAP1 PUSH2 0x11A0 JUMP JUMPDEST DUP1 PUSH1 0x1F ADD PUSH1 0x20 DUP1 SWAP2 DIV MUL PUSH1 0x20 ADD PUSH1 0x40 MLOAD SWAP1 DUP2 ADD PUSH1 0x40 MSTORE DUP1 SWAP3 SWAP2 SWAP1 DUP2 DUP2 MSTORE PUSH1 0x20 ADD DUP3 DUP1 SLOAD PUSH2 0x5F1 SWAP1 PUSH2 0x11A0 JUMP JUMPDEST DUP1 ISZERO PUSH2 0x63E JUMPI DUP1 PUSH1 0x1F LT PUSH2 0x613 JUMPI PUSH2 0x100 DUP1 DUP4 SLOAD DIV MUL DUP4 MSTORE SWAP2 PUSH1 0x20 ADD SWAP2 PUSH2 0x63E JUMP JUMPDEST DUP3 ADD SWAP2 SWAP1 PUSH1 0x0 MSTORE PUSH1 0x20 PUSH1 0x0 KECCAK256 SWAP1 JUMPDEST DUP2 SLOAD DUP2 MSTORE SWAP1 PUSH1 0x1 ADD SWAP1 PUSH1 0x20 ADD DUP1 DUP4 GT PUSH2 0x621 JUMPI DUP3 SWAP1 SUB PUSH1 0x1F AND DUP3 ADD SWAP2 JUMPDEST POP POP POP POP POP SWAP4 POP DUP2 DUP1 SLOAD DUP1 PUSH1 0x20 MUL PUSH1 0x20 ADD PUSH1 0x40 MLOAD SWAP1 DUP2 ADD PUSH1 0x40 MSTORE DUP1 SWAP3 SWAP2 SWAP1 DUP2 DUP2 MSTORE PUSH1 0x20 ADD DUP3 DUP1 SLOAD DUP1 ISZERO PUSH2 0x690 JUMPI PUSH1 0x20 MUL DUP3 ADD SWAP2 SWAP1 PUSH1 0x0 MSTORE PUSH1 0x20 PUSH1 0x0 KECCAK256 SWAP1 JUMPDEST DUP2 SLOAD DUP2 MSTORE PUSH1 0x20 ADD SWAP1 PUSH1 0x1 ADD SWAP1 DUP1 DUP4 GT PUSH2 0x67C JUMPI JUMPDEST POP POP POP POP POP SWAP2 POP DUP1 DUP1 SLOAD DUP1 PUSH1 0x20 MUL PUSH1 0x20 ADD PUSH1 0x40 MLOAD SWAP1 DUP2 ADD PUSH1 0x40 MSTORE DUP1 SWAP3 SWAP2 SWAP1 DUP2 DUP2 MSTORE PUSH1 0x20 ADD DUP3 DUP1 SLOAD DUP1 ISZERO PUSH2 0x6E2 JUMPI PUSH1 0x20 MUL DUP3 ADD SWAP2 SWAP1 PUSH1 0x0 MSTORE PUSH1 0x20 PUSH1 0x0 KECCAK256 SWAP1 JUMPDEST DUP2 SLOAD DUP2 MSTORE PUSH1 0x20 ADD SWAP1 PUSH1 0x1 ADD SWAP1 DUP1 DUP4 GT PUSH2 0x6CE JUMPI JUMPDEST POP POP POP POP POP SWAP1 POP SWAP5 POP SWAP5 POP SWAP5 POP SWAP5 POP SWAP5 POP SWAP2 SWAP4 SWAP6 SWAP1 SWAP3 SWAP5 POP JUMP JUMPDEST PUSH1 0x0 DUP1 PUSH1 0x0 DUP4 DUP2 MSTORE PUSH1 0x20 ADD SWAP1 DUP2 MSTORE PUSH1 0x20 ADD PUSH1 0x0 KECCAK256 PUSH1 0x0 ADD PUSH1 0x0 SWAP1 SLOAD SWAP1 PUSH2 0x100 EXP SWAP1 DIV PUSH1 0xFF AND SWAP1 POP SWAP2 SWAP1 POP JUMP JUMPDEST PUSH1 0x0 DUP1 PUSH1 0x0 DUP1 DUP5 DUP2 MSTORE PUSH1 0x20 ADD SWAP1 DUP2 MSTORE PUSH1 0x20 ADD PUSH1 0x0 KECCAK256 PUSH1 0x3 ADD DUP1 SLOAD DUP1 PUSH1 0x20 MUL PUSH1 0x20 ADD PUSH1 0x40 MLOAD SWAP1 DUP2 ADD PUSH1 0x40 MSTORE DUP1 SWAP3 SWAP2 SWAP1 DUP2 DUP2 MSTORE PUSH1 0x20 ADD DUP3 DUP1 SLOAD DUP1 ISZERO PUSH2 0x78A JUMPI PUSH1 0x20 MUL DUP3 ADD SWAP2 SWAP1 PUSH1 0x0 MSTORE PUSH1 0x20 PUSH1 0x0 KECCAK256 SWAP1 JUMPDEST DUP2 SLOAD DUP2 MSTORE PUSH1 0x20 ADD SWAP1 PUSH1 0x1 ADD SWAP1 DUP1 DUP4 GT PUSH2 0x776 JUMPI JUMPDEST POP POP POP POP POP SWAP1 POP PUSH1 0x0 DUP2 MLOAD EQ ISZERO PUSH2 0x7A4 JUMPI PUSH1 0x1 SWAP2 POP PUSH2 0x89C JUMP JUMPDEST PUSH1 0x0 PUSH1 0x3 DUP2 GT ISZERO PUSH2 0x7DE JUMPI PUSH32 0x4E487B7100000000000000000000000000000000000000000000000000000000 PUSH1 0x0 MSTORE PUSH1 0x21 PUSH1 0x4 MSTORE PUSH1 0x24 PUSH1 0x0 REVERT JUMPDEST PUSH1 0x0 DUP1 DUP6 DUP2 MSTORE PUSH1 0x20 ADD SWAP1 DUP2 MSTORE PUSH1 0x20 ADD PUSH1 0x0 KECCAK256 PUSH1 0x2 ADD PUSH1 0x0 SWAP1 SLOAD SWAP1 PUSH2 0x100 EXP SWAP1 DIV PUSH1 0xFF AND PUSH1 0x3 DUP2 GT ISZERO PUSH2 0x839 JUMPI PUSH32 0x4E487B7100000000000000000000000000000000000000000000000000000000 PUSH1 0x0 MSTORE PUSH1 0x21 PUSH1 0x4 MSTORE PUSH1 0x24 PUSH1 0x0 REVERT JUMPDEST EQ ISZERO PUSH2 0x89B JUMPI PUSH1 0x1 ISZERO ISZERO PUSH2 0x88D DUP3 PUSH1 0x0 DUP2 MLOAD DUP2 LT PUSH2 0x880 JUMPI PUSH32 0x4E487B7100000000000000000000000000000000000000000000000000000000 PUSH1 0x0 MSTORE PUSH1 0x32 PUSH1 0x4 MSTORE PUSH1 0x24 PUSH1 0x0 REVERT JUMPDEST PUSH1 0x20 MUL PUSH1 0x20 ADD ADD MLOAD PUSH2 0x6FC JUMP JUMPDEST ISZERO ISZERO EQ ISZERO PUSH2 0x89A JUMPI PUSH1 0x1 SWAP2 POP JUMPDEST JUMPDEST JUMPDEST DUP2 ISZERO PUSH2 0x982 JUMPI PUSH1 0x1 PUSH1 0x0 DUP1 DUP6 DUP2 MSTORE PUSH1 0x20 ADD SWAP1 DUP2 MSTORE PUSH1 0x20 ADD PUSH1 0x0 KECCAK256 PUSH1 0x0 ADD PUSH1 0x0 PUSH2 0x100 EXP DUP2 SLOAD DUP2 PUSH1 0xFF MUL NOT AND SWAP1 DUP4 ISZERO ISZERO MUL OR SWAP1 SSTORE POP PUSH1 0x1 DUP4 SWAP1 DUP1 PUSH1 0x1 DUP2 SLOAD ADD DUP1 DUP3 SSTORE DUP1 SWAP2 POP POP PUSH1 0x1 SWAP1 SUB SWAP1 PUSH1 0x0 MSTORE PUSH1 0x20 PUSH1 0x0 KECCAK256 ADD PUSH1 0x0 SWAP1 SWAP2 SWAP1 SWAP2 SWAP1 SWAP2 POP SSTORE PUSH1 0x2 PUSH1 0x0 DUP1 DUP6 DUP2 MSTORE PUSH1 0x20 ADD SWAP1 DUP2 MSTORE PUSH1 0x20 ADD PUSH1 0x0 KECCAK256 PUSH1 0x1 ADD SWAP1 DUP1 PUSH1 0x1 DUP2 SLOAD ADD DUP1 DUP3 SSTORE DUP1 SWAP2 POP POP PUSH1 0x1 SWAP1 SUB SWAP1 PUSH1 0x0 MSTORE PUSH1 0x20 PUSH1 0x0 KECCAK256 ADD PUSH1 0x0 SWAP1 SWAP2 SWAP1 SWAP2 SWAP1 SWAP2 POP SWAP1 DUP1 SLOAD PUSH2 0x941 SWAP1 PUSH2 0x11A0 JUMP JUMPDEST PUSH2 0x94C SWAP3 SWAP2 SWAP1 PUSH2 0xA8C JUMP JUMPDEST POP PUSH1 0x1 ISZERO ISZERO PUSH32 0xACD30B4F9FD5868793E13FFB506F03374A23D9FEBA1249AC2CC7B0FE024FF4BA PUSH1 0x40 MLOAD PUSH1 0x40 MLOAD DUP1 SWAP2 SUB SWAP1 LOG2 PUSH2 0x9B3 JUMP JUMPDEST PUSH1 0x0 ISZERO ISZERO PUSH32 0xACD30B4F9FD5868793E13FFB506F03374A23D9FEBA1249AC2CC7B0FE024FF4BA PUSH1 0x40 MLOAD PUSH1 0x40 MLOAD DUP1 SWAP2 SUB SWAP1 LOG2 JUMPDEST POP SWAP2 SWAP1 POP JUMP JUMPDEST DUP3 DUP1 SLOAD PUSH2 0x9C5 SWAP1 PUSH2 0x11A0 JUMP JUMPDEST SWAP1 PUSH1 0x0 MSTORE PUSH1 0x20 PUSH1 0x0 KECCAK256 SWAP1 PUSH1 0x1F ADD PUSH1 0x20 SWAP1 DIV DUP2 ADD SWAP3 DUP3 PUSH2 0x9E7 JUMPI PUSH1 0x0 DUP6 SSTORE PUSH2 0xA2E JUMP JUMPDEST DUP3 PUSH1 0x1F LT PUSH2 0xA00 JUMPI DUP1 MLOAD PUSH1 0xFF NOT AND DUP4 DUP1 ADD OR DUP6 SSTORE PUSH2 0xA2E JUMP JUMPDEST DUP3 DUP1 ADD PUSH1 0x1 ADD DUP6 SSTORE DUP3 ISZERO PUSH2 0xA2E JUMPI SWAP2 DUP3 ADD JUMPDEST DUP3 DUP2 GT ISZERO PUSH2 0xA2D JUMPI DUP3 MLOAD DUP3 SSTORE SWAP2 PUSH1 0x20 ADD SWAP2 SWAP1 PUSH1 0x1 ADD SWAP1 PUSH2 0xA12 JUMP JUMPDEST JUMPDEST POP SWAP1 POP PUSH2 0xA3B SWAP2 SWAP1 PUSH2 0xB19 JUMP JUMPDEST POP SWAP1 JUMP JUMPDEST DUP3 DUP1 SLOAD DUP3 DUP3 SSTORE SWAP1 PUSH1 0x0 MSTORE PUSH1 0x20 PUSH1 0x0 KECCAK256 SWAP1 DUP2 ADD SWAP3 DUP3 ISZERO PUSH2 0xA7B JUMPI SWAP2 PUSH1 0x20 MUL DUP3 ADD JUMPDEST DUP3 DUP2 GT ISZERO PUSH2 0xA7A JUMPI DUP3 MLOAD DUP3 SSTORE SWAP2 PUSH1 0x20 ADD SWAP2 SWAP1 PUSH1 0x1 ADD SWAP1 PUSH2 0xA5F JUMP JUMPDEST JUMPDEST POP SWAP1 POP PUSH2 0xA88 SWAP2 SWAP1 PUSH2 0xB19 JUMP JUMPDEST POP SWAP1 JUMP JUMPDEST DUP3 DUP1 SLOAD PUSH2 0xA98 SWAP1 PUSH2 0x11A0 JUMP JUMPDEST SWAP1 PUSH1 0x0 MSTORE PUSH1 0x20 PUSH1 0x0 KECCAK256 SWAP1 PUSH1 0x1F ADD PUSH1 0x20 SWAP1 DIV DUP2 ADD SWAP3 DUP3 PUSH2 0xABA JUMPI PUSH1 0x0 DUP6 SSTORE PUSH2 0xB08 JUMP JUMPDEST DUP3 PUSH1 0x1F LT PUSH2 0xACB JUMPI DUP1 SLOAD DUP6 SSTORE PUSH2 0xB08 JUMP JUMPDEST DUP3 DUP1 ADD PUSH1 0x1 ADD DUP6 SSTORE DUP3 ISZERO PUSH2 0xB08 JUMPI PUSH1 0x0 MSTORE PUSH1 0x20 PUSH1 0x0 KECCAK256 SWAP2 PUSH1 0x1F ADD PUSH1 0x20 SWAP1 DIV DUP3 ADD JUMPDEST DUP3 DUP2 GT ISZERO PUSH2 0xB07 JUMPI DUP3 SLOAD DUP3 SSTORE SWAP2 PUSH1 0x1 ADD SWAP2 SWAP1 PUSH1 0x1 ADD SWAP1 PUSH2 0xAEC JUMP JUMPDEST JUMPDEST POP SWAP1 POP PUSH2 0xB15 SWAP2 SWAP1 PUSH2 0xB19 JUMP JUMPDEST POP SWAP1 JUMP JUMPDEST JUMPDEST DUP1 DUP3 GT ISZERO PUSH2 0xB32 JUMPI PUSH1 0x0 DUP2 PUSH1 0x0 SWAP1 SSTORE POP PUSH1 0x1 ADD PUSH2 0xB1A JUMP JUMPDEST POP SWAP1 JUMP JUMPDEST PUSH1 0x0 PUSH2 0xB49 PUSH2 0xB44 DUP5 PUSH2 0x1028 JUMP JUMPDEST PUSH2 0xFF7 JUMP JUMPDEST SWAP1 POP DUP1 DUP4 DUP3 MSTORE PUSH1 0x20 DUP3 ADD SWAP1 POP DUP3 DUP6 PUSH1 0x20 DUP7 MUL DUP3 ADD GT ISZERO PUSH2 0xB68 JUMPI PUSH1 0x0 DUP1 REVERT JUMPDEST PUSH1 0x0 JUMPDEST DUP6 DUP2 LT ISZERO PUSH2 0xB98 JUMPI DUP2 PUSH2 0xB7E DUP9 DUP3 PUSH2 0xC49 JUMP JUMPDEST DUP5 MSTORE PUSH1 0x20 DUP5 ADD SWAP4 POP PUSH1 0x20 DUP4 ADD SWAP3 POP POP PUSH1 0x1 DUP2 ADD SWAP1 POP PUSH2 0xB6B JUMP JUMPDEST POP POP POP SWAP4 SWAP3 POP POP POP JUMP JUMPDEST PUSH1 0x0 PUSH2 0xBB5 PUSH2 0xBB0 DUP5 PUSH2 0x1054 JUMP JUMPDEST PUSH2 0xFF7 JUMP JUMPDEST SWAP1 POP DUP3 DUP2 MSTORE PUSH1 0x20 DUP2 ADD DUP5 DUP5 DUP5 ADD GT ISZERO PUSH2 0xBCD JUMPI PUSH1 0x0 DUP1 REVERT JUMPDEST PUSH2 0xBD8 DUP5 DUP3 DUP6 PUSH2 0x115E JUMP JUMPDEST POP SWAP4 SWAP3 POP POP POP JUMP JUMPDEST PUSH1 0x0 DUP3 PUSH1 0x1F DUP4 ADD SLT PUSH2 0xBF1 JUMPI PUSH1 0x0 DUP1 REVERT JUMPDEST DUP2 CALLDATALOAD PUSH2 0xC01 DUP5 DUP3 PUSH1 0x20 DUP7 ADD PUSH2 0xB36 JUMP JUMPDEST SWAP2 POP POP SWAP3 SWAP2 POP POP JUMP JUMPDEST PUSH1 0x0 DUP2 CALLDATALOAD SWAP1 POP PUSH2 0xC19 DUP2 PUSH2 0x1284 JUMP JUMPDEST SWAP3 SWAP2 POP POP JUMP JUMPDEST PUSH1 0x0 DUP3 PUSH1 0x1F DUP4 ADD SLT PUSH2 0xC30 JUMPI PUSH1 0x0 DUP1 REVERT JUMPDEST DUP2 CALLDATALOAD PUSH2 0xC40 DUP5 DUP3 PUSH1 0x20 DUP7 ADD PUSH2 0xBA2 JUMP JUMPDEST SWAP2 POP POP SWAP3 SWAP2 POP POP JUMP JUMPDEST PUSH1 0x0 DUP2 CALLDATALOAD SWAP1 POP PUSH2 0xC58 DUP2 PUSH2 0x1294 JUMP JUMPDEST SWAP3 SWAP2 POP POP JUMP JUMPDEST PUSH1 0x0 PUSH1 0x20 DUP3 DUP5 SUB SLT ISZERO PUSH2 0xC70 JUMPI PUSH1 0x0 DUP1 REVERT JUMPDEST PUSH1 0x0 PUSH2 0xC7E DUP5 DUP3 DUP6 ADD PUSH2 0xC49 JUMP JUMPDEST SWAP2 POP POP SWAP3 SWAP2 POP POP JUMP JUMPDEST PUSH1 0x0 DUP1 PUSH1 0x0 DUP1 PUSH1 0x0 PUSH1 0xA0 DUP7 DUP9 SUB SLT ISZERO PUSH2 0xC9F JUMPI PUSH1 0x0 DUP1 REVERT JUMPDEST PUSH1 0x0 PUSH2 0xCAD DUP9 DUP3 DUP10 ADD PUSH2 0xC49 JUMP JUMPDEST SWAP6 POP POP PUSH1 0x20 DUP7 ADD CALLDATALOAD PUSH8 0xFFFFFFFFFFFFFFFF DUP2 GT ISZERO PUSH2 0xCCA JUMPI PUSH1 0x0 DUP1 REVERT JUMPDEST PUSH2 0xCD6 DUP9 DUP3 DUP10 ADD PUSH2 0xC1F JUMP JUMPDEST SWAP5 POP POP PUSH1 0x40 PUSH2 0xCE7 DUP9 DUP3 DUP10 ADD PUSH2 0xC0A JUMP JUMPDEST SWAP4 POP POP PUSH1 0x60 DUP7 ADD CALLDATALOAD PUSH8 0xFFFFFFFFFFFFFFFF DUP2 GT ISZERO PUSH2 0xD04 JUMPI PUSH1 0x0 DUP1 REVERT JUMPDEST PUSH2 0xD10 DUP9 DUP3 DUP10 ADD PUSH2 0xBE0 JUMP JUMPDEST SWAP3 POP POP PUSH1 0x80 DUP7 ADD CALLDATALOAD PUSH8 0xFFFFFFFFFFFFFFFF DUP2 GT ISZERO PUSH2 0xD2D JUMPI PUSH1 0x0 DUP1 REVERT JUMPDEST PUSH2 0xD39 DUP9 DUP3 DUP10 ADD PUSH2 0xBE0 JUMP JUMPDEST SWAP2 POP POP SWAP3 SWAP6 POP SWAP3 SWAP6 SWAP1 SWAP4 POP JUMP JUMPDEST PUSH1 0x0 PUSH2 0xD52 DUP4 DUP4 PUSH2 0xE63 JUMP JUMPDEST SWAP1 POP SWAP3 SWAP2 POP POP JUMP JUMPDEST PUSH1 0x0 PUSH2 0xD66 DUP4 DUP4 PUSH2 0xED5 JUMP JUMPDEST PUSH1 0x20 DUP4 ADD SWAP1 POP SWAP3 SWAP2 POP POP JUMP JUMPDEST PUSH1 0x0 PUSH2 0xD7D DUP3 PUSH2 0x10A4 JUMP JUMPDEST PUSH2 0xD87 DUP2 DUP6 PUSH2 0x10DF JUMP JUMPDEST SWAP4 POP DUP4 PUSH1 0x20 DUP3 MUL DUP6 ADD PUSH2 0xD99 DUP6 PUSH2 0x1084 JUMP JUMPDEST DUP1 PUSH1 0x0 JUMPDEST DUP6 DUP2 LT ISZERO PUSH2 0xDD5 JUMPI DUP5 DUP5 SUB DUP10 MSTORE DUP2 MLOAD PUSH2 0xDB6 DUP6 DUP3 PUSH2 0xD46 JUMP JUMPDEST SWAP5 POP PUSH2 0xDC1 DUP4 PUSH2 0x10C5 JUMP JUMPDEST SWAP3 POP PUSH1 0x20 DUP11 ADD SWAP10 POP POP PUSH1 0x1 DUP2 ADD SWAP1 POP PUSH2 0xD9D JUMP JUMPDEST POP DUP3 SWAP8 POP DUP8 SWAP6 POP POP POP POP POP POP SWAP3 SWAP2 POP POP JUMP JUMPDEST PUSH1 0x0 PUSH2 0xDF2 DUP3 PUSH2 0x10AF JUMP JUMPDEST PUSH2 0xDFC DUP2 DUP6 PUSH2 0x10F0 JUMP JUMPDEST SWAP4 POP PUSH2 0xE07 DUP4 PUSH2 0x1094 JUMP JUMPDEST DUP1 PUSH1 0x0 JUMPDEST DUP4 DUP2 LT ISZERO PUSH2 0xE38 JUMPI DUP2 MLOAD PUSH2 0xE1F DUP9 DUP3 PUSH2 0xD5A JUMP JUMPDEST SWAP8 POP PUSH2 0xE2A DUP4 PUSH2 0x10D2 JUMP JUMPDEST SWAP3 POP POP PUSH1 0x1 DUP2 ADD SWAP1 POP PUSH2 0xE0B JUMP JUMPDEST POP DUP6 SWAP4 POP POP POP POP SWAP3 SWAP2 POP POP JUMP JUMPDEST PUSH2 0xE4E DUP2 PUSH2 0x1123 JUMP JUMPDEST DUP3 MSTORE POP POP JUMP JUMPDEST PUSH2 0xE5D DUP2 PUSH2 0x114C JUMP JUMPDEST DUP3 MSTORE POP POP JUMP JUMPDEST PUSH1 0x0 PUSH2 0xE6E DUP3 PUSH2 0x10BA JUMP JUMPDEST PUSH2 0xE78 DUP2 DUP6 PUSH2 0x1101 JUMP JUMPDEST SWAP4 POP PUSH2 0xE88 DUP2 DUP6 PUSH1 0x20 DUP7 ADD PUSH2 0x116D JUMP JUMPDEST PUSH2 0xE91 DUP2 PUSH2 0x125F JUMP JUMPDEST DUP5 ADD SWAP2 POP POP SWAP3 SWAP2 POP POP JUMP JUMPDEST PUSH1 0x0 PUSH2 0xEA7 DUP3 PUSH2 0x10BA JUMP JUMPDEST PUSH2 0xEB1 DUP2 DUP6 PUSH2 0x1112 JUMP JUMPDEST SWAP4 POP PUSH2 0xEC1 DUP2 DUP6 PUSH1 0x20 DUP7 ADD PUSH2 0x116D JUMP JUMPDEST PUSH2 0xECA DUP2 PUSH2 0x125F JUMP JUMPDEST DUP5 ADD SWAP2 POP POP SWAP3 SWAP2 POP POP JUMP JUMPDEST PUSH2 0xEDE DUP2 PUSH2 0x1142 JUMP JUMPDEST DUP3 MSTORE POP POP JUMP JUMPDEST PUSH2 0xEED DUP2 PUSH2 0x1142 JUMP JUMPDEST DUP3 MSTORE POP POP JUMP JUMPDEST PUSH1 0x0 PUSH1 0x20 DUP3 ADD SWAP1 POP DUP2 DUP2 SUB PUSH1 0x0 DUP4 ADD MSTORE PUSH2 0xF0D DUP2 DUP5 PUSH2 0xD72 JUMP JUMPDEST SWAP1 POP SWAP3 SWAP2 POP POP JUMP JUMPDEST PUSH1 0x0 PUSH1 0x20 DUP3 ADD SWAP1 POP DUP2 DUP2 SUB PUSH1 0x0 DUP4 ADD MSTORE PUSH2 0xF2F DUP2 DUP5 PUSH2 0xDE7 JUMP JUMPDEST SWAP1 POP SWAP3 SWAP2 POP POP JUMP JUMPDEST PUSH1 0x0 PUSH1 0x20 DUP3 ADD SWAP1 POP PUSH2 0xF4C PUSH1 0x0 DUP4 ADD DUP5 PUSH2 0xE45 JUMP JUMPDEST SWAP3 SWAP2 POP POP JUMP JUMPDEST PUSH1 0x0 PUSH1 0xA0 DUP3 ADD SWAP1 POP PUSH2 0xF67 PUSH1 0x0 DUP4 ADD DUP9 PUSH2 0xE45 JUMP JUMPDEST DUP2 DUP2 SUB PUSH1 0x20 DUP4 ADD MSTORE PUSH2 0xF79 DUP2 DUP8 PUSH2 0xE9C JUMP JUMPDEST SWAP1 POP PUSH2 0xF88 PUSH1 0x40 DUP4 ADD DUP7 PUSH2 0xE54 JUMP JUMPDEST DUP2 DUP2 SUB PUSH1 0x60 DUP4 ADD MSTORE PUSH2 0xF9A DUP2 DUP6 PUSH2 0xDE7 JUMP JUMPDEST SWAP1 POP DUP2 DUP2 SUB PUSH1 0x80 DUP4 ADD MSTORE PUSH2 0xFAE DUP2 DUP5 PUSH2 0xDE7 JUMP JUMPDEST SWAP1 POP SWAP7 SWAP6 POP POP POP POP POP POP JUMP JUMPDEST PUSH1 0x0 PUSH1 0x20 DUP3 ADD SWAP1 POP DUP2 DUP2 SUB PUSH1 0x0 DUP4 ADD MSTORE PUSH2 0xFD4 DUP2 DUP5 PUSH2 0xE9C JUMP JUMPDEST SWAP1 POP SWAP3 SWAP2 POP POP JUMP JUMPDEST PUSH1 0x0 PUSH1 0x20 DUP3 ADD SWAP1 POP PUSH2 0xFF1 PUSH1 0x0 DUP4 ADD DUP5 PUSH2 0xEE4 JUMP JUMPDEST SWAP3 SWAP2 POP POP JUMP JUMPDEST PUSH1 0x0 PUSH1 0x40 MLOAD SWAP1 POP DUP2 DUP2 ADD DUP2 DUP2 LT PUSH8 0xFFFFFFFFFFFFFFFF DUP3 GT OR ISZERO PUSH2 0x101E JUMPI PUSH2 0x101D PUSH2 0x1230 JUMP JUMPDEST JUMPDEST DUP1 PUSH1 0x40 MSTORE POP SWAP2 SWAP1 POP JUMP JUMPDEST PUSH1 0x0 PUSH8 0xFFFFFFFFFFFFFFFF DUP3 GT ISZERO PUSH2 0x1043 JUMPI PUSH2 0x1042 PUSH2 0x1230 JUMP JUMPDEST JUMPDEST PUSH1 0x20 DUP3 MUL SWAP1 POP PUSH1 0x20 DUP2 ADD SWAP1 POP SWAP2 SWAP1 POP JUMP JUMPDEST PUSH1 0x0 PUSH8 0xFFFFFFFFFFFFFFFF DUP3 GT ISZERO PUSH2 0x106F JUMPI PUSH2 0x106E PUSH2 0x1230 JUMP JUMPDEST JUMPDEST PUSH1 0x1F NOT PUSH1 0x1F DUP4 ADD AND SWAP1 POP PUSH1 0x20 DUP2 ADD SWAP1 POP SWAP2 SWAP1 POP JUMP JUMPDEST PUSH1 0x0 DUP2 SWAP1 POP PUSH1 0x20 DUP3 ADD SWAP1 POP SWAP2 SWAP1 POP JUMP JUMPDEST PUSH1 0x0 DUP2 SWAP1 POP PUSH1 0x20 DUP3 ADD SWAP1 POP SWAP2 SWAP1 POP JUMP JUMPDEST PUSH1 0x0 DUP2 MLOAD SWAP1 POP SWAP2 SWAP1 POP JUMP JUMPDEST PUSH1 0x0 DUP2 MLOAD SWAP1 POP SWAP2 SWAP1 POP JUMP JUMPDEST PUSH1 0x0 DUP2 MLOAD SWAP1 POP SWAP2 SWAP1 POP JUMP JUMPDEST PUSH1 0x0 PUSH1 0x20 DUP3 ADD SWAP1 POP SWAP2 SWAP1 POP JUMP JUMPDEST PUSH1 0x0 PUSH1 0x20 DUP3 ADD SWAP1 POP SWAP2 SWAP1 POP JUMP JUMPDEST PUSH1 0x0 DUP3 DUP3 MSTORE PUSH1 0x20 DUP3 ADD SWAP1 POP SWAP3 SWAP2 POP POP JUMP JUMPDEST PUSH1 0x0 DUP3 DUP3 MSTORE PUSH1 0x20 DUP3 ADD SWAP1 POP SWAP3 SWAP2 POP POP JUMP JUMPDEST PUSH1 0x0 DUP3 DUP3 MSTORE PUSH1 0x20 DUP3 ADD SWAP1 POP SWAP3 SWAP2 POP POP JUMP JUMPDEST PUSH1 0x0 DUP3 DUP3 MSTORE PUSH1 0x20 DUP3 ADD SWAP1 POP SWAP3 SWAP2 POP POP JUMP JUMPDEST PUSH1 0x0 DUP2 ISZERO ISZERO SWAP1 POP SWAP2 SWAP1 POP JUMP JUMPDEST PUSH1 0x0 DUP2 SWAP1 POP PUSH2 0x113D DUP3 PUSH2 0x1270 JUMP JUMPDEST SWAP2 SWAP1 POP JUMP JUMPDEST PUSH1 0x0 DUP2 SWAP1 POP SWAP2 SWAP1 POP JUMP JUMPDEST PUSH1 0x0 PUSH2 0x1157 DUP3 PUSH2 0x112F JUMP JUMPDEST SWAP1 POP SWAP2 SWAP1 POP JUMP JUMPDEST DUP3 DUP2 DUP4 CALLDATACOPY PUSH1 0x0 DUP4 DUP4 ADD MSTORE POP POP POP JUMP JUMPDEST PUSH1 0x0 JUMPDEST DUP4 DUP2 LT ISZERO PUSH2 0x118B JUMPI DUP1 DUP3 ADD MLOAD DUP2 DUP5 ADD MSTORE PUSH1 0x20 DUP2 ADD SWAP1 POP PUSH2 0x1170 JUMP JUMPDEST DUP4 DUP2 GT ISZERO PUSH2 0x119A JUMPI PUSH1 0x0 DUP5 DUP5 ADD MSTORE JUMPDEST POP POP POP POP JUMP JUMPDEST PUSH1 0x0 PUSH1 0x2 DUP3 DIV SWAP1 POP PUSH1 0x1 DUP3 AND DUP1 PUSH2 0x11B8 JUMPI PUSH1 0x7F DUP3 AND SWAP2 POP JUMPDEST PUSH1 0x20 DUP3 LT DUP2 EQ ISZERO PUSH2 0x11CC JUMPI PUSH2 0x11CB PUSH2 0x1201 JUMP JUMPDEST JUMPDEST POP SWAP2 SWAP1 POP JUMP JUMPDEST PUSH32 0x4E487B7100000000000000000000000000000000000000000000000000000000 PUSH1 0x0 MSTORE PUSH1 0x21 PUSH1 0x4 MSTORE PUSH1 0x24 PUSH1 0x0 REVERT JUMPDEST PUSH32 0x4E487B7100000000000000000000000000000000000000000000000000000000 PUSH1 0x0 MSTORE PUSH1 0x22 PUSH1 0x4 MSTORE PUSH1 0x24 PUSH1 0x0 REVERT JUMPDEST PUSH32 0x4E487B7100000000000000000000000000000000000000000000000000000000 PUSH1 0x0 MSTORE PUSH1 0x41 PUSH1 0x4 MSTORE PUSH1 0x24 PUSH1 0x0 REVERT JUMPDEST PUSH1 0x0 PUSH1 0x1F NOT PUSH1 0x1F DUP4 ADD AND SWAP1 POP SWAP2 SWAP1 POP JUMP JUMPDEST PUSH1 0x4 DUP2 LT PUSH2 0x1281 JUMPI PUSH2 0x1280 PUSH2 0x11D2 JUMP JUMPDEST JUMPDEST POP JUMP JUMPDEST PUSH1 0x4 DUP2 LT PUSH2 0x1291 JUMPI PUSH1 0x0 DUP1 REVERT JUMPDEST POP JUMP JUMPDEST PUSH2 0x129D DUP2 PUSH2 0x1142 JUMP JUMPDEST DUP2 EQ PUSH2 0x12A8 JUMPI PUSH1 0x0 DUP1 REVERT JUMPDEST POP JUMP INVALID LOG2 PUSH5 0x6970667358 0x22 SLT KECCAK256 0xB1 0x1F 0x4D DIV KECCAK256 CALLCODE DIFFICULTY DUP3 SELFDESTRUCT LT EXP SWAP3 0x4E DUP7 LOG4 0xCF ADD 0xC6 ADDRESS NUMBER SWAP14 PUSH17 0x71030ED2FD91E4C12BD864736F6C634300 ADDMOD STOP STOP CALLER "},"gasEstimates":{"creation":{"codeDepositCost":"966600","executionCost":"1008","totalCost":"967608"},"external":{"completing(uint256)":"infinite","createTask(uint256,string,uint8,uint256[],uint256[])":"infinite","debugStringeventLog(uint256)":"infinite","getDebugStringeventLog()":"infinite","getLog()":"infinite","getTaskById(uint256)":"infinite","isTaskCompletedById(uint256)":"1572","theRealEventLog(uint256)":"infinite"}},"methodIdentifiers":{"completing(uint256)":"993c0410","createTask(uint256,string,uint8,uint256[],uint256[])":"72a598cc","debugStringeventLog(uint256)":"61ea18df","getDebugStringeventLog()":"4d60f651","getLog()":"909e4ab6","getTaskById(uint256)":"976217cd","isTaskCompletedById(uint256)":"9849cee9","theRealEventLog(uint256)":"95794157"}},"storageLayout":{"storage":[{"astId":25,"contract":"BasicEnzian.sol:BasicEnzian","label":"tasks","offset":0,"slot":"0","type":"t_mapping(t_uint256,t_struct(Task)20_storage)"},{"astId":32,"contract":"BasicEnzian.sol:BasicEnzian","label":"theRealEventLog","offset":0,"slot":"1","type":"t_array(t_uint256)dyn_storage"},{"astId":44,"contract":"BasicEnzian.sol:BasicEnzian","label":"debugStringeventLog","offset":0,"slot":"2","type":"t_array(t_string_storage)dyn_storage"}],"types":{"t_array(t_string_storage)dyn_storage":{"base":"t_string_storage","encoding":"dynamic_array","label":"string[]","numberOfBytes":"32"},"t_array(t_uint256)dyn_storage":{"base":"t_uint256","encoding":"dynamic_array","label":"uint256[]","numberOfBytes":"32"},"t_bool":{"encoding":"inplace","label":"bool","numberOfBytes":"1"},"t_enum(Tasktype)6":{"encoding":"inplace","label":"enum BasicEnzian.Tasktype","numberOfBytes":"1"},"t_mapping(t_uint256,t_struct(Task)20_storage)":{"encoding":"mapping","key":"t_uint256","label":"mapping(uint256 => struct BasicEnzian.Task)","numberOfBytes":"32","value":"t_struct(Task)20_storage"},"t_string_storage":{"encoding":"bytes","label":"string","numberOfBytes":"32"},"t_struct(Task)20_storage":{"encoding":"inplace","label":"struct BasicEnzian.Task","members":[{"astId":8,"contract":"BasicEnzian.sol:BasicEnzian","label":"completed","offset":0,"slot":"0","type":"t_bool"},{"astId":10,"contract":"BasicEnzian.sol:BasicEnzian","label":"activity","offset":0,"slot":"1","type":"t_string_storage"},{"astId":13,"contract":"BasicEnzian.sol:BasicEnzian","label":"tasktype","offset":0,"slot":"2","type":"t_enum(Tasktype)6"},{"astId":16,"contract":"BasicEnzian.sol:BasicEnzian","label":"requirements","offset":0,"slot":"3","type":"t_array(t_uint256)dyn_storage"},{"astId":19,"contract":"BasicEnzian.sol:BasicEnzian","label":"competitors","offset":0,"slot":"4","type":"t_array(t_uint256)dyn_storage"}],"numberOfBytes":"160"},"t_uint256":{"encoding":"inplace","label":"uint256","numberOfBytes":"32"}}},"userdoc":{"kind":"user","methods":{},"version":1}}