{"abi":[{"anonymous":false,"inputs":[{"indexed":true,"internalType":"bool","name":"success","type":"bool"}],"name":"TaskCompleted","type":"event"},{"anonymous":false,"inputs":[{"indexed":true,"internalType":"uint256","name":"anumber","type":"uint256"}],"name":"Test","type":"event"},{"inputs":[{"internalType":"uint256","name":"taskId","type":"uint256"}],"name":"completing","outputs":[{"internalType":"bool","name":"success","type":"bool"}],"stateMutability":"nonpayable","type":"function"},{"inputs":[{"internalType":"uint256","name":"_id","type":"uint256"},{"internalType":"string","name":"_activity","type":"string"},{"internalType":"address","name":"_taskresource","type":"address"},{"internalType":"enum BasicEnzian.GatewayType","name":"_pmg","type":"uint8"},{"internalType":"uint256[]","name":"_requirements","type":"uint256[]"},{"internalType":"uint256[]","name":"_competitors","type":"uint256[]"}],"name":"createTask","outputs":[],"stateMutability":"nonpayable","type":"function"},{"inputs":[{"internalType":"uint256","name":"_id","type":"uint256"},{"internalType":"string","name":"_activity","type":"string"},{"internalType":"address","name":"_taskresource","type":"address"},{"internalType":"enum BasicEnzian.GatewayType","name":"_pmg","type":"uint8"},{"internalType":"uint256[]","name":"_requirements","type":"uint256[]"},{"internalType":"uint256[]","name":"_competitors","type":"uint256[]"},{"components":[{"internalType":"uint256","name":"endBoss","type":"uint256"},{"internalType":"enum BasicEnzian.GatewayType","name":"gatewaytype","type":"uint8"},{"internalType":"enum BasicEnzian.DecisionType","name":"type_","type":"uint8"},{"internalType":"bool","name":"completed","type":"bool"},{"internalType":"bool","name":"exists","type":"bool"},{"internalType":"enum DecisionLibrary.Operator","name":"operator","type":"uint8"},{"internalType":"string","name":"processVariable","type":"string"},{"internalType":"string","name":"s_value","type":"string"},{"internalType":"int256[]","name":"i_value","type":"int256[]"}],"internalType":"struct BasicEnzian.Decision","name":"_decision","type":"tuple"}],"name":"createTaskWithDecision","outputs":[],"stateMutability":"nonpayable","type":"function"},{"inputs":[{"internalType":"uint256","name":"","type":"uint256"}],"name":"debugStringeventLog","outputs":[{"internalType":"string","name":"","type":"string"}],"stateMutability":"view","type":"function"},{"inputs":[],"name":"decisionTest","outputs":[{"internalType":"uint256","name":"drei","type":"uint256"}],"stateMutability":"pure","type":"function"},{"inputs":[{"internalType":"uint256","name":"","type":"uint256"}],"name":"enabled","outputs":[{"internalType":"bool","name":"","type":"bool"}],"stateMutability":"view","type":"function"},{"inputs":[{"components":[{"internalType":"uint256","name":"endBoss","type":"uint256"},{"internalType":"enum BasicEnzian.GatewayType","name":"gatewaytype","type":"uint8"},{"internalType":"enum BasicEnzian.DecisionType","name":"type_","type":"uint8"},{"internalType":"bool","name":"completed","type":"bool"},{"internalType":"bool","name":"exists","type":"bool"},{"internalType":"enum DecisionLibrary.Operator","name":"operator","type":"uint8"},{"internalType":"string","name":"processVariable","type":"string"},{"internalType":"string","name":"s_value","type":"string"},{"internalType":"int256[]","name":"i_value","type":"int256[]"}],"internalType":"struct BasicEnzian.Decision","name":"_decision","type":"tuple"}],"name":"evaluateDecision","outputs":[{"internalType":"bool","name":"success","type":"bool"}],"stateMutability":"view","type":"function"},{"inputs":[{"internalType":"int256","name":"i1","type":"int256"},{"internalType":"int256[]","name":"i2","type":"int256[]"},{"internalType":"enum DecisionLibrary.Operator","name":"op","type":"uint8"}],"name":"evaluateTest","outputs":[{"internalType":"bool","name":"equality","type":"bool"}],"stateMutability":"pure","type":"function"},{"inputs":[],"name":"getDebugStringeventLog","outputs":[{"internalType":"string[]","name":"theevents","type":"string[]"}],"stateMutability":"view","type":"function"},{"inputs":[{"internalType":"string","name":"variableName","type":"string"}],"name":"getIntProcessVariableValue","outputs":[{"internalType":"int256","name":"thevalue","type":"int256"}],"stateMutability":"view","type":"function"},{"inputs":[],"name":"getLog","outputs":[{"internalType":"uint256[]","name":"theevents","type":"uint256[]"}],"stateMutability":"view","type":"function"},{"inputs":[{"internalType":"uint256","name":"_id","type":"uint256"}],"name":"getTaskById","outputs":[{"internalType":"bool","name":"status","type":"bool"},{"internalType":"string","name":"description","type":"string"},{"internalType":"address","name":"taskresource","type":"address"},{"internalType":"enum BasicEnzian.GatewayType","name":"gateway","type":"uint8"},{"internalType":"uint256[]","name":"requirements","type":"uint256[]"},{"internalType":"uint256[]","name":"competitors","type":"uint256[]"}],"stateMutability":"view","type":"function"},{"inputs":[{"internalType":"uint256","name":"taskid","type":"uint256"}],"name":"getTaskDecisionEndBoss","outputs":[{"internalType":"uint256","name":"theboss","type":"uint256"}],"stateMutability":"view","type":"function"},{"inputs":[{"internalType":"string","name":"","type":"string"}],"name":"integer_processVariables","outputs":[{"internalType":"int256","name":"","type":"int256"}],"stateMutability":"view","type":"function"},{"inputs":[{"internalType":"uint256","name":"_id","type":"uint256"}],"name":"isTaskCompletedById","outputs":[{"internalType":"bool","name":"success","type":"bool"}],"stateMutability":"view","type":"function"},{"inputs":[{"internalType":"string","name":"","type":"string"}],"name":"string_processVariables","outputs":[{"internalType":"string","name":"","type":"string"}],"stateMutability":"view","type":"function"},{"inputs":[{"internalType":"uint256","name":"","type":"uint256"}],"name":"theRealEventLog","outputs":[{"internalType":"uint256","name":"","type":"uint256"}],"stateMutability":"view","type":"function"},{"inputs":[{"internalType":"string","name":"variableName","type":"string"},{"internalType":"int256","name":"newValue","type":"int256"}],"name":"updateIntProcessVariable","outputs":[],"stateMutability":"nonpayable","type":"function"},{"inputs":[{"internalType":"string","name":"variableName","type":"string"},{"internalType":"string","name":"newValue","type":"string"}],"name":"updateStringProcessVariable","outputs":[],"stateMutability":"nonpayable","type":"function"}],"devdoc":{"kind":"dev","methods":{},"version":1},"evm":{"assembly":"    /* \"BasicEnzian.sol\":63:10239  contract BasicEnzian {\r... */\n  mstore(0x40, 0x80)\n  callvalue\n  dup1\n  iszero\n  tag_1\n  jumpi\n  0x00\n  dup1\n  revert\ntag_1:\n  pop\n  dataSize(sub_0)\n  dup1\n  dataOffset(sub_0)\n  0x00\n  codecopy\n  0x00\n  return\nstop\n\nsub_0: assembly {\n        /* \"BasicEnzian.sol\":63:10239  contract BasicEnzian {\r... */\n      mstore(0x40, 0x80)\n      callvalue\n      dup1\n      iszero\n      tag_1\n      jumpi\n      0x00\n      dup1\n      revert\n    tag_1:\n      pop\n      jumpi(tag_2, lt(calldatasize, 0x04))\n      shr(0xe0, calldataload(0x00))\n      dup1\n      0x897a3e27\n      gt\n      tag_22\n      jumpi\n      dup1\n      0x993c0410\n      gt\n      tag_23\n      jumpi\n      dup1\n      0x993c0410\n      eq\n      tag_17\n      jumpi\n      dup1\n      0xa7c1eb90\n      eq\n      tag_18\n      jumpi\n      dup1\n      0xb8c56cae\n      eq\n      tag_19\n      jumpi\n      dup1\n      0xc7b1ee06\n      eq\n      tag_20\n      jumpi\n      dup1\n      0xfe9620c9\n      eq\n      tag_21\n      jumpi\n      jump(tag_2)\n    tag_23:\n      dup1\n      0x897a3e27\n      eq\n      tag_12\n      jumpi\n      dup1\n      0x909e4ab6\n      eq\n      tag_13\n      jumpi\n      dup1\n      0x95794157\n      eq\n      tag_14\n      jumpi\n      dup1\n      0x976217cd\n      eq\n      tag_15\n      jumpi\n      dup1\n      0x9849cee9\n      eq\n      tag_16\n      jumpi\n      jump(tag_2)\n    tag_22:\n      dup1\n      0x4d60f651\n      gt\n      tag_24\n      jumpi\n      dup1\n      0x4d60f651\n      eq\n      tag_7\n      jumpi\n      dup1\n      0x61ea18df\n      eq\n      tag_8\n      jumpi\n      dup1\n      0x71c56f9b\n      eq\n      tag_9\n      jumpi\n      dup1\n      0x76e5c0de\n      eq\n      tag_10\n      jumpi\n      dup1\n      0x81d1cd2e\n      eq\n      tag_11\n      jumpi\n      jump(tag_2)\n    tag_24:\n      dup1\n      0x06470433\n      eq\n      tag_3\n      jumpi\n      dup1\n      0x307ed4be\n      eq\n      tag_4\n      jumpi\n      dup1\n      0x38624725\n      eq\n      tag_5\n      jumpi\n      dup1\n      0x38b7b6f0\n      eq\n      tag_6\n      jumpi\n    tag_2:\n      0x00\n      dup1\n      revert\n        /* \"BasicEnzian.sol\":8612:9262  function evaluateDecision(Decision memory _decision) public view returns (bool success){\r... */\n    tag_3:\n      tag_25\n      0x04\n      dup1\n      calldatasize\n      sub\n      dup2\n      add\n      swap1\n      tag_26\n      swap2\n      swap1\n      tag_27\n      jump\t// in\n    tag_26:\n      tag_28\n      jump\t// in\n    tag_25:\n      mload(0x40)\n      tag_29\n      swap2\n      swap1\n      tag_30\n      jump\t// in\n    tag_29:\n      mload(0x40)\n      dup1\n      swap2\n      sub\n      swap1\n      return\n        /* \"BasicEnzian.sol\":2063:2665  function createTask(\r... */\n    tag_4:\n      tag_31\n      0x04\n      dup1\n      calldatasize\n      sub\n      dup2\n      add\n      swap1\n      tag_32\n      swap2\n      swap1\n      tag_33\n      jump\t// in\n    tag_32:\n      tag_34\n      jump\t// in\n    tag_31:\n      stop\n        /* \"BasicEnzian.sol\":1263:1317  mapping(string => int) public integer_processVariables */\n    tag_5:\n      tag_35\n      0x04\n      dup1\n      calldatasize\n      sub\n      dup2\n      add\n      swap1\n      tag_36\n      swap2\n      swap1\n      tag_37\n      jump\t// in\n    tag_36:\n      tag_38\n      jump\t// in\n    tag_35:\n      mload(0x40)\n      tag_39\n      swap2\n      swap1\n      tag_40\n      jump\t// in\n    tag_39:\n      mload(0x40)\n      dup1\n      swap2\n      sub\n      swap1\n      return\n        /* \"BasicEnzian.sol\":4125:4278  function updateIntProcessVariable(string calldata variableName, int newValue) public {\r... */\n    tag_6:\n      tag_41\n      0x04\n      dup1\n      calldatasize\n      sub\n      dup2\n      add\n      swap1\n      tag_42\n      swap2\n      swap1\n      tag_43\n      jump\t// in\n    tag_42:\n      tag_44\n      jump\t// in\n    tag_41:\n      stop\n        /* \"BasicEnzian.sol\":1784:1910  function getDebugStringeventLog() public view returns(string[] memory theevents) {\r... */\n    tag_7:\n      tag_45\n      tag_46\n      jump\t// in\n    tag_45:\n      mload(0x40)\n      tag_47\n      swap2\n      swap1\n      tag_48\n      jump\t// in\n    tag_47:\n      mload(0x40)\n      dup1\n      swap2\n      sub\n      swap1\n      return\n        /* \"BasicEnzian.sol\":1742:1777  string[] public debugStringeventLog */\n    tag_8:\n      tag_49\n      0x04\n      dup1\n      calldatasize\n      sub\n      dup2\n      add\n      swap1\n      tag_50\n      swap2\n      swap1\n      tag_51\n      jump\t// in\n    tag_50:\n      tag_52\n      jump\t// in\n    tag_49:\n      mload(0x40)\n      tag_53\n      swap2\n      swap1\n      tag_54\n      jump\t// in\n    tag_53:\n      mload(0x40)\n      dup1\n      swap2\n      sub\n      swap1\n      return\n        /* \"BasicEnzian.sol\":10097:10234  function decisionTest() public pure returns(uint drei) {\r... */\n    tag_9:\n      tag_55\n      tag_56\n      jump\t// in\n    tag_55:\n      mload(0x40)\n      tag_57\n      swap2\n      swap1\n      tag_58\n      jump\t// in\n    tag_57:\n      mload(0x40)\n      dup1\n      swap2\n      sub\n      swap1\n      return\n        /* \"BasicEnzian.sol\":1389:1425  mapping(uint => bool) public enabled */\n    tag_10:\n      tag_59\n      0x04\n      dup1\n      calldatasize\n      sub\n      dup2\n      add\n      swap1\n      tag_60\n      swap2\n      swap1\n      tag_51\n      jump\t// in\n    tag_60:\n      tag_61\n      jump\t// in\n    tag_59:\n      mload(0x40)\n      tag_62\n      swap2\n      swap1\n      tag_30\n      jump\t// in\n    tag_62:\n      mload(0x40)\n      dup1\n      swap2\n      sub\n      swap1\n      return\n        /* \"BasicEnzian.sol\":3977:4113  function getTaskDecisionEndBoss(uint taskid) public view returns (uint theboss) {\r... */\n    tag_11:\n      tag_63\n      0x04\n      dup1\n      calldatasize\n      sub\n      dup2\n      add\n      swap1\n      tag_64\n      swap2\n      swap1\n      tag_51\n      jump\t// in\n    tag_64:\n      tag_65\n      jump\t// in\n    tag_63:\n      mload(0x40)\n      tag_66\n      swap2\n      swap1\n      tag_58\n      jump\t// in\n    tag_66:\n      mload(0x40)\n      dup1\n      swap2\n      sub\n      swap1\n      return\n        /* \"BasicEnzian.sol\":4465:4630  function getIntProcessVariableValue(string calldata variableName) public view returns (int thevalue) {\r... */\n    tag_12:\n      tag_67\n      0x04\n      dup1\n      calldatasize\n      sub\n      dup2\n      add\n      swap1\n      tag_68\n      swap2\n      swap1\n      tag_69\n      jump\t// in\n    tag_68:\n      tag_70\n      jump\t// in\n    tag_67:\n      mload(0x40)\n      tag_71\n      swap2\n      swap1\n      tag_40\n      jump\t// in\n    tag_71:\n      mload(0x40)\n      dup1\n      swap2\n      sub\n      swap1\n      return\n        /* \"BasicEnzian.sol\":1538:1642  function getLog() public view returns(uint[] memory theevents) {\r... */\n    tag_13:\n      tag_72\n      tag_73\n      jump\t// in\n    tag_72:\n      mload(0x40)\n      tag_74\n      swap2\n      swap1\n      tag_75\n      jump\t// in\n    tag_74:\n      mload(0x40)\n      dup1\n      swap2\n      sub\n      swap1\n      return\n        /* \"BasicEnzian.sol\":1502:1531  uint[] public theRealEventLog */\n    tag_14:\n      tag_76\n      0x04\n      dup1\n      calldatasize\n      sub\n      dup2\n      add\n      swap1\n      tag_77\n      swap2\n      swap1\n      tag_51\n      jump\t// in\n    tag_77:\n      tag_78\n      jump\t// in\n    tag_76:\n      mload(0x40)\n      tag_79\n      swap2\n      swap1\n      tag_58\n      jump\t// in\n    tag_79:\n      mload(0x40)\n      dup1\n      swap2\n      sub\n      swap1\n      return\n        /* \"BasicEnzian.sol\":9692:10089  function getTaskById(uint _id) public view returns (bool status,\r... */\n    tag_15:\n      tag_80\n      0x04\n      dup1\n      calldatasize\n      sub\n      dup2\n      add\n      swap1\n      tag_81\n      swap2\n      swap1\n      tag_51\n      jump\t// in\n    tag_81:\n      tag_82\n      jump\t// in\n    tag_80:\n      mload(0x40)\n      tag_83\n      swap7\n      swap6\n      swap5\n      swap4\n      swap3\n      swap2\n      swap1\n      tag_84\n      jump\t// in\n    tag_83:\n      mload(0x40)\n      dup1\n      swap2\n      sub\n      swap1\n      return\n        /* \"BasicEnzian.sol\":9464:9587  function isTaskCompletedById(uint _id) public view returns (bool success){\r... */\n    tag_16:\n      tag_85\n      0x04\n      dup1\n      calldatasize\n      sub\n      dup2\n      add\n      swap1\n      tag_86\n      swap2\n      swap1\n      tag_51\n      jump\t// in\n    tag_86:\n      tag_87\n      jump\t// in\n    tag_85:\n      mload(0x40)\n      tag_88\n      swap2\n      swap1\n      tag_30\n      jump\t// in\n    tag_88:\n      mload(0x40)\n      dup1\n      swap2\n      sub\n      swap1\n      return\n        /* \"BasicEnzian.sol\":4730:8418  function completing(uint taskId) public returns (bool success){\r... */\n    tag_17:\n      tag_89\n      0x04\n      dup1\n      calldatasize\n      sub\n      dup2\n      add\n      swap1\n      tag_90\n      swap2\n      swap1\n      tag_51\n      jump\t// in\n    tag_90:\n      tag_91\n      jump\t// in\n    tag_89:\n      mload(0x40)\n      tag_92\n      swap2\n      swap1\n      tag_30\n      jump\t// in\n    tag_92:\n      mload(0x40)\n      dup1\n      swap2\n      sub\n      swap1\n      return\n        /* \"BasicEnzian.sol\":8430:8604  function evaluateTest(int i1, int[] memory i2, DecisionLibrary.Operator op) public pure returns (bool equality) {\r... */\n    tag_18:\n      tag_93\n      0x04\n      dup1\n      calldatasize\n      sub\n      dup2\n      add\n      swap1\n      tag_94\n      swap2\n      swap1\n      tag_95\n      jump\t// in\n    tag_94:\n      tag_96\n      jump\t// in\n    tag_93:\n      mload(0x40)\n      tag_97\n      swap2\n      swap1\n      tag_30\n      jump\t// in\n    tag_97:\n      mload(0x40)\n      dup1\n      swap2\n      sub\n      swap1\n      return\n        /* \"BasicEnzian.sol\":1324:1380  mapping(string => string) public string_processVariables */\n    tag_19:\n      tag_98\n      0x04\n      dup1\n      calldatasize\n      sub\n      dup2\n      add\n      swap1\n      tag_99\n      swap2\n      swap1\n      tag_37\n      jump\t// in\n    tag_99:\n      tag_100\n      jump\t// in\n    tag_98:\n      mload(0x40)\n      tag_101\n      swap2\n      swap1\n      tag_54\n      jump\t// in\n    tag_101:\n      mload(0x40)\n      dup1\n      swap2\n      sub\n      swap1\n      return\n        /* \"BasicEnzian.sol\":2684:3969  function createTaskWithDecision(\r... */\n    tag_20:\n      tag_102\n      0x04\n      dup1\n      calldatasize\n      sub\n      dup2\n      add\n      swap1\n      tag_103\n      swap2\n      swap1\n      tag_104\n      jump\t// in\n    tag_103:\n      tag_105\n      jump\t// in\n    tag_102:\n      stop\n        /* \"BasicEnzian.sol\":4290:4457  function updateStringProcessVariable(string calldata variableName, string calldata newValue) public {\r... */\n    tag_21:\n      tag_106\n      0x04\n      dup1\n      calldatasize\n      sub\n      dup2\n      add\n      swap1\n      tag_107\n      swap2\n      swap1\n      tag_108\n      jump\t// in\n    tag_107:\n      tag_109\n      jump\t// in\n    tag_106:\n      stop\n        /* \"BasicEnzian.sol\":8612:9262  function evaluateDecision(Decision memory _decision) public view returns (bool success){\r... */\n    tag_28:\n        /* \"BasicEnzian.sol\":8686:8698  bool success */\n      0x00\n        /* \"BasicEnzian.sol\":8732:8755  DecisionType.STRINGDESC */\n      dup1\n        /* \"BasicEnzian.sol\":8713:8755  _decision.type_ == DecisionType.STRINGDESC */\n      0x02\n      dup2\n      gt\n      iszero\n      tag_111\n      jumpi\n      mstore(0x00, 0x4e487b7100000000000000000000000000000000000000000000000000000000)\n      mstore(0x04, 0x21)\n      revert(0x00, 0x24)\n    tag_111:\n        /* \"BasicEnzian.sol\":8713:8722  _decision */\n      dup3\n        /* \"BasicEnzian.sol\":8713:8728  _decision.type_ */\n      0x40\n      add\n      mload\n        /* \"BasicEnzian.sol\":8713:8755  _decision.type_ == DecisionType.STRINGDESC */\n      0x02\n      dup2\n      gt\n      iszero\n      tag_112\n      jumpi\n      mstore(0x00, 0x4e487b7100000000000000000000000000000000000000000000000000000000)\n      mstore(0x04, 0x21)\n      revert(0x00, 0x24)\n    tag_112:\n      eq\n        /* \"BasicEnzian.sol\":8710:9255  if(_decision.type_ == DecisionType.STRINGDESC){\r... */\n      iszero\n      tag_113\n      jumpi\n        /* \"BasicEnzian.sol\":8771:8807  string memory valueOfProcessVariable */\n      0x00\n        /* \"BasicEnzian.sol\":8810:8833  string_processVariables */\n      0x02\n        /* \"BasicEnzian.sol\":8834:8843  _decision */\n      dup4\n        /* \"BasicEnzian.sol\":8834:8859  _decision.processVariable */\n      0xc0\n      add\n      mload\n        /* \"BasicEnzian.sol\":8810:8860  string_processVariables[_decision.processVariable] */\n      mload(0x40)\n      tag_114\n      swap2\n      swap1\n      tag_115\n      jump\t// in\n    tag_114:\n      swap1\n      dup2\n      mstore\n      0x20\n      add\n      mload(0x40)\n      dup1\n      swap2\n      sub\n      swap1\n      keccak256\n        /* \"BasicEnzian.sol\":8771:8860  string memory valueOfProcessVariable = string_processVariables[_decision.processVariable] */\n      dup1\n      sload\n      tag_116\n      swap1\n      tag_117\n      jump\t// in\n    tag_116:\n      dup1\n      0x1f\n      add\n      0x20\n      dup1\n      swap2\n      div\n      mul\n      0x20\n      add\n      mload(0x40)\n      swap1\n      dup2\n      add\n      0x40\n      mstore\n      dup1\n      swap3\n      swap2\n      swap1\n      dup2\n      dup2\n      mstore\n      0x20\n      add\n      dup3\n      dup1\n      sload\n      tag_118\n      swap1\n      tag_117\n      jump\t// in\n    tag_118:\n      dup1\n      iszero\n      tag_119\n      jumpi\n      dup1\n      0x1f\n      lt\n      tag_120\n      jumpi\n      0x0100\n      dup1\n      dup4\n      sload\n      div\n      mul\n      dup4\n      mstore\n      swap2\n      0x20\n      add\n      swap2\n      jump(tag_119)\n    tag_120:\n      dup3\n      add\n      swap2\n      swap1\n      0x00\n      mstore\n      keccak256(0x00, 0x20)\n      swap1\n    tag_121:\n      dup2\n      sload\n      dup2\n      mstore\n      swap1\n      0x01\n      add\n      swap1\n      0x20\n      add\n      dup1\n      dup4\n      gt\n      tag_121\n      jumpi\n      dup3\n      swap1\n      sub\n      0x1f\n      and\n      dup3\n      add\n      swap2\n    tag_119:\n      pop\n      pop\n      pop\n      pop\n      pop\n      swap1\n      pop\n        /* \"BasicEnzian.sol\":8882:8897  DecisionLibrary */\n      linkerSymbol(\"80c56c7074f1c42024adf49f5dc2b40495aa8bbb68c1dca7ae61973c3346d226\")\n        /* \"BasicEnzian.sol\":8882:8906  DecisionLibrary.evaluate */\n      0xa8c0bf8e\n        /* \"BasicEnzian.sol\":8907:8929  valueOfProcessVariable */\n      dup3\n        /* \"BasicEnzian.sol\":8931:8940  _decision */\n      dup6\n        /* \"BasicEnzian.sol\":8931:8948  _decision.s_value */\n      0xe0\n      add\n      mload\n        /* \"BasicEnzian.sol\":8950:8959  _decision */\n      dup7\n        /* \"BasicEnzian.sol\":8950:8968  _decision.operator */\n      0xa0\n      add\n      mload\n        /* \"BasicEnzian.sol\":8882:8969  DecisionLibrary.evaluate(valueOfProcessVariable, _decision.s_value, _decision.operator) */\n      mload(0x40)\n      dup5\n      0xffffffff\n      and\n      0xe0\n      shl\n      dup2\n      mstore\n      0x04\n      add\n      tag_122\n      swap4\n      swap3\n      swap2\n      swap1\n      tag_123\n      jump\t// in\n    tag_122:\n      0x20\n      mload(0x40)\n      dup1\n      dup4\n      sub\n      dup2\n      dup7\n      dup1\n      extcodesize\n      iszero\n      dup1\n      iszero\n      tag_124\n      jumpi\n      0x00\n      dup1\n      revert\n    tag_124:\n      pop\n      gas\n      delegatecall\n      iszero\n      dup1\n      iszero\n      tag_126\n      jumpi\n      returndatasize\n      0x00\n      dup1\n      returndatacopy\n      revert(0x00, returndatasize)\n    tag_126:\n      pop\n      pop\n      pop\n      pop\n      mload(0x40)\n      returndatasize\n      not(0x1f)\n      0x1f\n      dup3\n      add\n      and\n      dup3\n      add\n      dup1\n      0x40\n      mstore\n      pop\n      dup2\n      add\n      swap1\n      tag_127\n      swap2\n      swap1\n      tag_128\n      jump\t// in\n    tag_127:\n        /* \"BasicEnzian.sol\":8875:8969  return DecisionLibrary.evaluate(valueOfProcessVariable, _decision.s_value, _decision.operator) */\n      swap2\n      pop\n      pop\n      jump(tag_110)\n        /* \"BasicEnzian.sol\":8710:9255  if(_decision.type_ == DecisionType.STRINGDESC){\r... */\n    tag_113:\n        /* \"BasicEnzian.sol\":9018:9038  DecisionType.INTDESC */\n      0x01\n        /* \"BasicEnzian.sol\":8999:9038  _decision.type_ == DecisionType.INTDESC */\n      0x02\n      dup2\n      gt\n      iszero\n      tag_130\n      jumpi\n      mstore(0x00, 0x4e487b7100000000000000000000000000000000000000000000000000000000)\n      mstore(0x04, 0x21)\n      revert(0x00, 0x24)\n    tag_130:\n        /* \"BasicEnzian.sol\":8999:9008  _decision */\n      dup3\n        /* \"BasicEnzian.sol\":8999:9014  _decision.type_ */\n      0x40\n      add\n      mload\n        /* \"BasicEnzian.sol\":8999:9038  _decision.type_ == DecisionType.INTDESC */\n      0x02\n      dup2\n      gt\n      iszero\n      tag_131\n      jumpi\n      mstore(0x00, 0x4e487b7100000000000000000000000000000000000000000000000000000000)\n      mstore(0x04, 0x21)\n      revert(0x00, 0x24)\n    tag_131:\n      eq\n        /* \"BasicEnzian.sol\":8996:9255  if(_decision.type_ == DecisionType.INTDESC){\r... */\n      iszero\n      tag_132\n      jumpi\n        /* \"BasicEnzian.sol\":9054:9080  int valueOfProcessVariable */\n      0x00\n        /* \"BasicEnzian.sol\":9083:9107  integer_processVariables */\n      0x01\n        /* \"BasicEnzian.sol\":9108:9117  _decision */\n      dup4\n        /* \"BasicEnzian.sol\":9108:9133  _decision.processVariable */\n      0xc0\n      add\n      mload\n        /* \"BasicEnzian.sol\":9083:9134  integer_processVariables[_decision.processVariable] */\n      mload(0x40)\n      tag_133\n      swap2\n      swap1\n      tag_115\n      jump\t// in\n    tag_133:\n      swap1\n      dup2\n      mstore\n      0x20\n      add\n      mload(0x40)\n      dup1\n      swap2\n      sub\n      swap1\n      keccak256\n      sload\n        /* \"BasicEnzian.sol\":9054:9134  int valueOfProcessVariable = integer_processVariables[_decision.processVariable] */\n      swap1\n      pop\n        /* \"BasicEnzian.sol\":9156:9171  DecisionLibrary */\n      linkerSymbol(\"80c56c7074f1c42024adf49f5dc2b40495aa8bbb68c1dca7ae61973c3346d226\")\n        /* \"BasicEnzian.sol\":9156:9180  DecisionLibrary.evaluate */\n      0xe1df7ad6\n        /* \"BasicEnzian.sol\":9181:9203  valueOfProcessVariable */\n      dup3\n        /* \"BasicEnzian.sol\":9205:9214  _decision */\n      dup6\n        /* \"BasicEnzian.sol\":9205:9222  _decision.i_value */\n      0x0100\n      add\n      mload\n        /* \"BasicEnzian.sol\":9224:9233  _decision */\n      dup7\n        /* \"BasicEnzian.sol\":9224:9242  _decision.operator */\n      0xa0\n      add\n      mload\n        /* \"BasicEnzian.sol\":9156:9243  DecisionLibrary.evaluate(valueOfProcessVariable, _decision.i_value, _decision.operator) */\n      mload(0x40)\n      dup5\n      0xffffffff\n      and\n      0xe0\n      shl\n      dup2\n      mstore\n      0x04\n      add\n      tag_134\n      swap4\n      swap3\n      swap2\n      swap1\n      tag_135\n      jump\t// in\n    tag_134:\n      0x20\n      mload(0x40)\n      dup1\n      dup4\n      sub\n      dup2\n      dup7\n      dup1\n      extcodesize\n      iszero\n      dup1\n      iszero\n      tag_136\n      jumpi\n      0x00\n      dup1\n      revert\n    tag_136:\n      pop\n      gas\n      delegatecall\n      iszero\n      dup1\n      iszero\n      tag_138\n      jumpi\n      returndatasize\n      0x00\n      dup1\n      returndatacopy\n      revert(0x00, returndatasize)\n    tag_138:\n      pop\n      pop\n      pop\n      pop\n      mload(0x40)\n      returndatasize\n      not(0x1f)\n      0x1f\n      dup3\n      add\n      and\n      dup3\n      add\n      dup1\n      0x40\n      mstore\n      pop\n      dup2\n      add\n      swap1\n      tag_139\n      swap2\n      swap1\n      tag_128\n      jump\t// in\n    tag_139:\n        /* \"BasicEnzian.sol\":9149:9243  return DecisionLibrary.evaluate(valueOfProcessVariable, _decision.i_value, _decision.operator) */\n      swap2\n      pop\n      pop\n      jump(tag_110)\n        /* \"BasicEnzian.sol\":8996:9255  if(_decision.type_ == DecisionType.INTDESC){\r... */\n    tag_132:\n        /* \"BasicEnzian.sol\":8612:9262  function evaluateDecision(Decision memory _decision) public view returns (bool success){\r... */\n    tag_110:\n      swap2\n      swap1\n      pop\n      jump\t// out\n        /* \"BasicEnzian.sol\":2063:2665  function createTask(\r... */\n    tag_34:\n        /* \"BasicEnzian.sol\":2333:2353  Task memory myStruct */\n      tag_141\n      tag_142\n      jump\t// in\n    tag_141:\n        /* \"BasicEnzian.sol\":2384:2393  _activity */\n      dup6\n        /* \"BasicEnzian.sol\":2364:2372  myStruct */\n      dup2\n        /* \"BasicEnzian.sol\":2364:2381  myStruct.activity */\n      0x00\n      add\n        /* \"BasicEnzian.sol\":2364:2393  myStruct.activity = _activity */\n      dup2\n      swap1\n      mstore\n      pop\n        /* \"BasicEnzian.sol\":2428:2441  _taskresource */\n      dup5\n        /* \"BasicEnzian.sol\":2404:2412  myStruct */\n      dup2\n        /* \"BasicEnzian.sol\":2404:2425  myStruct.taskresource */\n      0x20\n      add\n        /* \"BasicEnzian.sol\":2404:2441  myStruct.taskresource = _taskresource */\n      swap1\n      0xffffffffffffffffffffffffffffffffffffffff\n      and\n      swap1\n      dup2\n      0xffffffffffffffffffffffffffffffffffffffff\n      and\n      dup2\n      mstore\n      pop\n      pop\n        /* \"BasicEnzian.sol\":2473:2478  false */\n      0x00\n        /* \"BasicEnzian.sol\":2452:2460  myStruct */\n      dup2\n        /* \"BasicEnzian.sol\":2452:2470  myStruct.completed */\n      0x40\n      add\n        /* \"BasicEnzian.sol\":2452:2478  myStruct.completed = false */\n      swap1\n      iszero\n      iszero\n      swap1\n      dup2\n      iszero\n      iszero\n      dup2\n      mstore\n      pop\n      pop\n        /* \"BasicEnzian.sol\":2525:2529  _pmg */\n      dup4\n        /* \"BasicEnzian.sol\":2489:2497  myStruct */\n      dup2\n        /* \"BasicEnzian.sol\":2489:2522  myStruct.preceedingMergingGateway */\n      0x60\n      add\n        /* \"BasicEnzian.sol\":2489:2529  myStruct.preceedingMergingGateway = _pmg */\n      swap1\n      0x03\n      dup2\n      gt\n      iszero\n      tag_143\n      jumpi\n      mstore(0x00, 0x4e487b7100000000000000000000000000000000000000000000000000000000)\n      mstore(0x04, 0x21)\n      revert(0x00, 0x24)\n    tag_143:\n      swap1\n      dup2\n      0x03\n      dup2\n      gt\n      iszero\n      tag_144\n      jumpi\n      mstore(0x00, 0x4e487b7100000000000000000000000000000000000000000000000000000000)\n      mstore(0x04, 0x21)\n      revert(0x00, 0x24)\n    tag_144:\n      dup2\n      mstore\n      pop\n      pop\n        /* \"BasicEnzian.sol\":2564:2577  _requirements */\n      dup3\n        /* \"BasicEnzian.sol\":2540:2548  myStruct */\n      dup2\n        /* \"BasicEnzian.sol\":2540:2561  myStruct.requirements */\n      0x80\n      add\n        /* \"BasicEnzian.sol\":2540:2577  myStruct.requirements = _requirements */\n      dup2\n      swap1\n      mstore\n      pop\n        /* \"BasicEnzian.sol\":2611:2623  _competitors */\n      dup2\n        /* \"BasicEnzian.sol\":2588:2596  myStruct */\n      dup2\n        /* \"BasicEnzian.sol\":2588:2608  myStruct.competitors */\n      0xa0\n      add\n        /* \"BasicEnzian.sol\":2588:2623  myStruct.competitors = _competitors */\n      dup2\n      swap1\n      mstore\n      pop\n        /* \"BasicEnzian.sol\":2648:2656  myStruct */\n      dup1\n        /* \"BasicEnzian.sol\":2634:2639  tasks */\n      0x00\n        /* \"BasicEnzian.sol\":2634:2644  tasks[_id] */\n      dup1\n        /* \"BasicEnzian.sol\":2640:2643  _id */\n      dup10\n        /* \"BasicEnzian.sol\":2634:2644  tasks[_id] */\n      dup2\n      mstore\n      0x20\n      add\n      swap1\n      dup2\n      mstore\n      0x20\n      add\n      0x00\n      keccak256\n        /* \"BasicEnzian.sol\":2634:2657  tasks[_id] = (myStruct) */\n      0x00\n      dup3\n      add\n      mload\n      dup2\n      0x00\n      add\n      swap1\n      dup1\n      mload\n      swap1\n      0x20\n      add\n      swap1\n      tag_145\n      swap3\n      swap2\n      swap1\n      tag_146\n      jump\t// in\n    tag_145:\n      pop\n      0x20\n      dup3\n      add\n      mload\n      dup2\n      0x01\n      add\n      exp(0x0100, 0x00)\n      dup2\n      sload\n      dup2\n      0xffffffffffffffffffffffffffffffffffffffff\n      mul\n      not\n      and\n      swap1\n      dup4\n      0xffffffffffffffffffffffffffffffffffffffff\n      and\n      mul\n      or\n      swap1\n      sstore\n      pop\n      0x40\n      dup3\n      add\n      mload\n      dup2\n      0x01\n      add\n      exp(0x0100, 0x14)\n      dup2\n      sload\n      dup2\n      0xff\n      mul\n      not\n      and\n      swap1\n      dup4\n      iszero\n      iszero\n      mul\n      or\n      swap1\n      sstore\n      pop\n      0x60\n      dup3\n      add\n      mload\n      dup2\n      0x01\n      add\n      exp(0x0100, 0x15)\n      dup2\n      sload\n      dup2\n      0xff\n      mul\n      not\n      and\n      swap1\n      dup4\n      0x03\n      dup2\n      gt\n      iszero\n      tag_147\n      jumpi\n      mstore(0x00, 0x4e487b7100000000000000000000000000000000000000000000000000000000)\n      mstore(0x04, 0x21)\n      revert(0x00, 0x24)\n    tag_147:\n      mul\n      or\n      swap1\n      sstore\n      pop\n      0x80\n      dup3\n      add\n      mload\n      dup2\n      0x02\n      add\n      swap1\n      dup1\n      mload\n      swap1\n      0x20\n      add\n      swap1\n      tag_148\n      swap3\n      swap2\n      swap1\n      tag_149\n      jump\t// in\n    tag_148:\n      pop\n      0xa0\n      dup3\n      add\n      mload\n      dup2\n      0x03\n      add\n      swap1\n      dup1\n      mload\n      swap1\n      0x20\n      add\n      swap1\n      tag_150\n      swap3\n      swap2\n      swap1\n      tag_149\n      jump\t// in\n    tag_150:\n      pop\n      0xc0\n      dup3\n      add\n      mload\n      dup2\n      0x04\n      add\n      0x00\n      dup3\n      add\n      mload\n      dup2\n      0x00\n      add\n      sstore\n      0x20\n      dup3\n      add\n      mload\n      dup2\n      0x01\n      add\n      exp(0x0100, 0x00)\n      dup2\n      sload\n      dup2\n      0xff\n      mul\n      not\n      and\n      swap1\n      dup4\n      0x03\n      dup2\n      gt\n      iszero\n      tag_151\n      jumpi\n      mstore(0x00, 0x4e487b7100000000000000000000000000000000000000000000000000000000)\n      mstore(0x04, 0x21)\n      revert(0x00, 0x24)\n    tag_151:\n      mul\n      or\n      swap1\n      sstore\n      pop\n      0x40\n      dup3\n      add\n      mload\n      dup2\n      0x01\n      add\n      exp(0x0100, 0x01)\n      dup2\n      sload\n      dup2\n      0xff\n      mul\n      not\n      and\n      swap1\n      dup4\n      0x02\n      dup2\n      gt\n      iszero\n      tag_152\n      jumpi\n      mstore(0x00, 0x4e487b7100000000000000000000000000000000000000000000000000000000)\n      mstore(0x04, 0x21)\n      revert(0x00, 0x24)\n    tag_152:\n      mul\n      or\n      swap1\n      sstore\n      pop\n      0x60\n      dup3\n      add\n      mload\n      dup2\n      0x01\n      add\n      exp(0x0100, 0x02)\n      dup2\n      sload\n      dup2\n      0xff\n      mul\n      not\n      and\n      swap1\n      dup4\n      iszero\n      iszero\n      mul\n      or\n      swap1\n      sstore\n      pop\n      0x80\n      dup3\n      add\n      mload\n      dup2\n      0x01\n      add\n      exp(0x0100, 0x03)\n      dup2\n      sload\n      dup2\n      0xff\n      mul\n      not\n      and\n      swap1\n      dup4\n      iszero\n      iszero\n      mul\n      or\n      swap1\n      sstore\n      pop\n      0xa0\n      dup3\n      add\n      mload\n      dup2\n      0x01\n      add\n      exp(0x0100, 0x04)\n      dup2\n      sload\n      dup2\n      0xff\n      mul\n      not\n      and\n      swap1\n      dup4\n      0x06\n      dup2\n      gt\n      iszero\n      tag_153\n      jumpi\n      mstore(0x00, 0x4e487b7100000000000000000000000000000000000000000000000000000000)\n      mstore(0x04, 0x21)\n      revert(0x00, 0x24)\n    tag_153:\n      mul\n      or\n      swap1\n      sstore\n      pop\n      0xc0\n      dup3\n      add\n      mload\n      dup2\n      0x02\n      add\n      swap1\n      dup1\n      mload\n      swap1\n      0x20\n      add\n      swap1\n      tag_154\n      swap3\n      swap2\n      swap1\n      tag_146\n      jump\t// in\n    tag_154:\n      pop\n      0xe0\n      dup3\n      add\n      mload\n      dup2\n      0x03\n      add\n      swap1\n      dup1\n      mload\n      swap1\n      0x20\n      add\n      swap1\n      tag_155\n      swap3\n      swap2\n      swap1\n      tag_146\n      jump\t// in\n    tag_155:\n      pop\n      0x0100\n      dup3\n      add\n      mload\n      dup2\n      0x04\n      add\n      swap1\n      dup1\n      mload\n      swap1\n      0x20\n      add\n      swap1\n      tag_156\n      swap3\n      swap2\n      swap1\n      tag_157\n      jump\t// in\n    tag_156:\n      pop\n      pop\n      pop\n      swap1\n      pop\n      pop\n        /* \"BasicEnzian.sol\":2063:2665  function createTask(\r... */\n      pop\n      pop\n      pop\n      pop\n      pop\n      pop\n      pop\n      jump\t// out\n        /* \"BasicEnzian.sol\":1263:1317  mapping(string => int) public integer_processVariables */\n    tag_38:\n      0x01\n      dup2\n      dup1\n      mload\n      0x20\n      dup2\n      add\n      dup3\n      add\n      dup1\n      mload\n      dup5\n      dup3\n      mstore\n      0x20\n      dup4\n      add\n      0x20\n      dup6\n      add\n      keccak256\n      dup2\n      dup4\n      mstore\n      dup1\n      swap6\n      pop\n      pop\n      pop\n      pop\n      pop\n      pop\n      0x00\n      swap2\n      pop\n      swap1\n      pop\n      sload\n      dup2\n      jump\t// out\n        /* \"BasicEnzian.sol\":4125:4278  function updateIntProcessVariable(string calldata variableName, int newValue) public {\r... */\n    tag_44:\n        /* \"BasicEnzian.sol\":4262:4270  newValue */\n      dup1\n        /* \"BasicEnzian.sol\":4221:4245  integer_processVariables */\n      0x01\n        /* \"BasicEnzian.sol\":4246:4258  variableName */\n      dup5\n      dup5\n        /* \"BasicEnzian.sol\":4221:4259  integer_processVariables[variableName] */\n      mload(0x40)\n      tag_159\n      swap3\n      swap2\n      swap1\n      tag_160\n      jump\t// in\n    tag_159:\n      swap1\n      dup2\n      mstore\n      0x20\n      add\n      mload(0x40)\n      dup1\n      swap2\n      sub\n      swap1\n      keccak256\n        /* \"BasicEnzian.sol\":4221:4270  integer_processVariables[variableName] = newValue */\n      dup2\n      swap1\n      sstore\n      pop\n        /* \"BasicEnzian.sol\":4125:4278  function updateIntProcessVariable(string calldata variableName, int newValue) public {\r... */\n      pop\n      pop\n      pop\n      jump\t// out\n        /* \"BasicEnzian.sol\":1784:1910  function getDebugStringeventLog() public view returns(string[] memory theevents) {\r... */\n    tag_46:\n        /* \"BasicEnzian.sol\":1838:1863  string[] memory theevents */\n      0x60\n        /* \"BasicEnzian.sol\":1883:1902  debugStringeventLog */\n      0x05\n        /* \"BasicEnzian.sol\":1876:1902  return debugStringeventLog */\n      dup1\n      sload\n      dup1\n      0x20\n      mul\n      0x20\n      add\n      mload(0x40)\n      swap1\n      dup2\n      add\n      0x40\n      mstore\n      dup1\n      swap3\n      swap2\n      swap1\n      dup2\n      dup2\n      mstore\n      0x20\n      add\n      0x00\n      swap1\n    tag_162:\n      dup3\n      dup3\n      lt\n      iszero\n      tag_163\n      jumpi\n      dup4\n      dup3\n      swap1\n      0x00\n      mstore\n      keccak256(0x00, 0x20)\n      add\n      dup1\n      sload\n      tag_165\n      swap1\n      tag_117\n      jump\t// in\n    tag_165:\n      dup1\n      0x1f\n      add\n      0x20\n      dup1\n      swap2\n      div\n      mul\n      0x20\n      add\n      mload(0x40)\n      swap1\n      dup2\n      add\n      0x40\n      mstore\n      dup1\n      swap3\n      swap2\n      swap1\n      dup2\n      dup2\n      mstore\n      0x20\n      add\n      dup3\n      dup1\n      sload\n      tag_166\n      swap1\n      tag_117\n      jump\t// in\n    tag_166:\n      dup1\n      iszero\n      tag_167\n      jumpi\n      dup1\n      0x1f\n      lt\n      tag_168\n      jumpi\n      0x0100\n      dup1\n      dup4\n      sload\n      div\n      mul\n      dup4\n      mstore\n      swap2\n      0x20\n      add\n      swap2\n      jump(tag_167)\n    tag_168:\n      dup3\n      add\n      swap2\n      swap1\n      0x00\n      mstore\n      keccak256(0x00, 0x20)\n      swap1\n    tag_169:\n      dup2\n      sload\n      dup2\n      mstore\n      swap1\n      0x01\n      add\n      swap1\n      0x20\n      add\n      dup1\n      dup4\n      gt\n      tag_169\n      jumpi\n      dup3\n      swap1\n      sub\n      0x1f\n      and\n      dup3\n      add\n      swap2\n    tag_167:\n      pop\n      pop\n      pop\n      pop\n      pop\n      dup2\n      mstore\n      0x20\n      add\n      swap1\n      0x01\n      add\n      swap1\n      jump(tag_162)\n    tag_163:\n      pop\n      pop\n      pop\n      pop\n      swap1\n      pop\n        /* \"BasicEnzian.sol\":1784:1910  function getDebugStringeventLog() public view returns(string[] memory theevents) {\r... */\n      swap1\n      jump\t// out\n        /* \"BasicEnzian.sol\":1742:1777  string[] public debugStringeventLog */\n    tag_52:\n      0x05\n      dup2\n      dup2\n      sload\n      dup2\n      lt\n      tag_170\n      jumpi\n      0x00\n      dup1\n      revert\n    tag_170:\n      swap1\n      0x00\n      mstore\n      keccak256(0x00, 0x20)\n      add\n      0x00\n      swap2\n      pop\n      swap1\n      pop\n      dup1\n      sload\n      tag_172\n      swap1\n      tag_117\n      jump\t// in\n    tag_172:\n      dup1\n      0x1f\n      add\n      0x20\n      dup1\n      swap2\n      div\n      mul\n      0x20\n      add\n      mload(0x40)\n      swap1\n      dup2\n      add\n      0x40\n      mstore\n      dup1\n      swap3\n      swap2\n      swap1\n      dup2\n      dup2\n      mstore\n      0x20\n      add\n      dup3\n      dup1\n      sload\n      tag_173\n      swap1\n      tag_117\n      jump\t// in\n    tag_173:\n      dup1\n      iszero\n      tag_174\n      jumpi\n      dup1\n      0x1f\n      lt\n      tag_175\n      jumpi\n      0x0100\n      dup1\n      dup4\n      sload\n      div\n      mul\n      dup4\n      mstore\n      swap2\n      0x20\n      add\n      swap2\n      jump(tag_174)\n    tag_175:\n      dup3\n      add\n      swap2\n      swap1\n      0x00\n      mstore\n      keccak256(0x00, 0x20)\n      swap1\n    tag_176:\n      dup2\n      sload\n      dup2\n      mstore\n      swap1\n      0x01\n      add\n      swap1\n      0x20\n      add\n      dup1\n      dup4\n      gt\n      tag_176\n      jumpi\n      dup3\n      swap1\n      sub\n      0x1f\n      and\n      dup3\n      add\n      swap2\n    tag_174:\n      pop\n      pop\n      pop\n      pop\n      pop\n      dup2\n      jump\t// out\n        /* \"BasicEnzian.sol\":10097:10234  function decisionTest() public pure returns(uint drei) {\r... */\n    tag_56:\n        /* \"BasicEnzian.sol\":10141:10150  uint drei */\n      0x00\n        /* \"BasicEnzian.sol\":10163:10171  uint zwo */\n      dup1\n        /* \"BasicEnzian.sol\":10174:10189  DecisionLibrary */\n      linkerSymbol(\"80c56c7074f1c42024adf49f5dc2b40495aa8bbb68c1dca7ae61973c3346d226\")\n        /* \"BasicEnzian.sol\":10174:10199  DecisionLibrary.returnZwo */\n      0xc237647f\n        /* \"BasicEnzian.sol\":10174:10201  DecisionLibrary.returnZwo() */\n      mload(0x40)\n      dup2\n      0xffffffff\n      and\n      0xe0\n      shl\n      dup2\n      mstore\n      0x04\n      add\n      0x20\n      mload(0x40)\n      dup1\n      dup4\n      sub\n      dup2\n      dup7\n      dup1\n      extcodesize\n      iszero\n      dup1\n      iszero\n      tag_178\n      jumpi\n      0x00\n      dup1\n      revert\n    tag_178:\n      pop\n      gas\n      delegatecall\n      iszero\n      dup1\n      iszero\n      tag_180\n      jumpi\n      returndatasize\n      0x00\n      dup1\n      returndatacopy\n      revert(0x00, returndatasize)\n    tag_180:\n      pop\n      pop\n      pop\n      pop\n      mload(0x40)\n      returndatasize\n      not(0x1f)\n      0x1f\n      dup3\n      add\n      and\n      dup3\n      add\n      dup1\n      0x40\n      mstore\n      pop\n      dup2\n      add\n      swap1\n      tag_181\n      swap2\n      swap1\n      tag_182\n      jump\t// in\n    tag_181:\n        /* \"BasicEnzian.sol\":10163:10201  uint zwo = DecisionLibrary.returnZwo() */\n      swap1\n      pop\n        /* \"BasicEnzian.sol\":10223:10224  5 */\n      0x05\n        /* \"BasicEnzian.sol\":10219:10222  zwo */\n      dup2\n        /* \"BasicEnzian.sol\":10219:10224  zwo+5 */\n      tag_183\n      swap2\n      swap1\n      tag_184\n      jump\t// in\n    tag_183:\n        /* \"BasicEnzian.sol\":10212:10224  return zwo+5 */\n      swap2\n      pop\n      pop\n        /* \"BasicEnzian.sol\":10097:10234  function decisionTest() public pure returns(uint drei) {\r... */\n      swap1\n      jump\t// out\n        /* \"BasicEnzian.sol\":1389:1425  mapping(uint => bool) public enabled */\n    tag_61:\n      mstore(0x20, 0x03)\n      dup1\n      0x00\n      mstore\n      keccak256(0x00, 0x40)\n      0x00\n      swap2\n      pop\n      sload\n      swap1\n      0x0100\n      exp\n      swap1\n      div\n      0xff\n      and\n      dup2\n      jump\t// out\n        /* \"BasicEnzian.sol\":3977:4113  function getTaskDecisionEndBoss(uint taskid) public view returns (uint theboss) {\r... */\n    tag_65:\n        /* \"BasicEnzian.sol\":4043:4055  uint theboss */\n      0x00\n        /* \"BasicEnzian.sol\":4075:4080  tasks */\n      dup1\n        /* \"BasicEnzian.sol\":4075:4088  tasks[taskid] */\n      0x00\n        /* \"BasicEnzian.sol\":4081:4087  taskid */\n      dup4\n        /* \"BasicEnzian.sol\":4075:4088  tasks[taskid] */\n      dup2\n      mstore\n      0x20\n      add\n      swap1\n      dup2\n      mstore\n      0x20\n      add\n      0x00\n      keccak256\n        /* \"BasicEnzian.sol\":4075:4097  tasks[taskid].decision */\n      0x04\n      add\n        /* \"BasicEnzian.sol\":4075:4105  tasks[taskid].decision.endBoss */\n      0x00\n      add\n      sload\n        /* \"BasicEnzian.sol\":4068:4105  return tasks[taskid].decision.endBoss */\n      swap1\n      pop\n        /* \"BasicEnzian.sol\":3977:4113  function getTaskDecisionEndBoss(uint taskid) public view returns (uint theboss) {\r... */\n      swap2\n      swap1\n      pop\n      jump\t// out\n        /* \"BasicEnzian.sol\":4465:4630  function getIntProcessVariableValue(string calldata variableName) public view returns (int thevalue) {\r... */\n    tag_70:\n        /* \"BasicEnzian.sol\":4552:4564  int thevalue */\n      0x00\n        /* \"BasicEnzian.sol\":4584:4608  integer_processVariables */\n      0x01\n        /* \"BasicEnzian.sol\":4609:4621  variableName */\n      dup4\n      dup4\n        /* \"BasicEnzian.sol\":4584:4622  integer_processVariables[variableName] */\n      mload(0x40)\n      tag_187\n      swap3\n      swap2\n      swap1\n      tag_160\n      jump\t// in\n    tag_187:\n      swap1\n      dup2\n      mstore\n      0x20\n      add\n      mload(0x40)\n      dup1\n      swap2\n      sub\n      swap1\n      keccak256\n      sload\n        /* \"BasicEnzian.sol\":4577:4622  return integer_processVariables[variableName] */\n      swap1\n      pop\n        /* \"BasicEnzian.sol\":4465:4630  function getIntProcessVariableValue(string calldata variableName) public view returns (int thevalue) {\r... */\n      swap3\n      swap2\n      pop\n      pop\n      jump\t// out\n        /* \"BasicEnzian.sol\":1538:1642  function getLog() public view returns(uint[] memory theevents) {\r... */\n    tag_73:\n        /* \"BasicEnzian.sol\":1576:1599  uint[] memory theevents */\n      0x60\n        /* \"BasicEnzian.sol\":1619:1634  theRealEventLog */\n      0x04\n        /* \"BasicEnzian.sol\":1612:1634  return theRealEventLog */\n      dup1\n      sload\n      dup1\n      0x20\n      mul\n      0x20\n      add\n      mload(0x40)\n      swap1\n      dup2\n      add\n      0x40\n      mstore\n      dup1\n      swap3\n      swap2\n      swap1\n      dup2\n      dup2\n      mstore\n      0x20\n      add\n      dup3\n      dup1\n      sload\n      dup1\n      iszero\n      tag_189\n      jumpi\n      0x20\n      mul\n      dup3\n      add\n      swap2\n      swap1\n      0x00\n      mstore\n      keccak256(0x00, 0x20)\n      swap1\n    tag_190:\n      dup2\n      sload\n      dup2\n      mstore\n      0x20\n      add\n      swap1\n      0x01\n      add\n      swap1\n      dup1\n      dup4\n      gt\n      tag_190\n      jumpi\n    tag_189:\n      pop\n      pop\n      pop\n      pop\n      pop\n      swap1\n      pop\n        /* \"BasicEnzian.sol\":1538:1642  function getLog() public view returns(uint[] memory theevents) {\r... */\n      swap1\n      jump\t// out\n        /* \"BasicEnzian.sol\":1502:1531  uint[] public theRealEventLog */\n    tag_78:\n      0x04\n      dup2\n      dup2\n      sload\n      dup2\n      lt\n      tag_191\n      jumpi\n      0x00\n      dup1\n      revert\n    tag_191:\n      swap1\n      0x00\n      mstore\n      keccak256(0x00, 0x20)\n      add\n      0x00\n      swap2\n      pop\n      swap1\n      pop\n      sload\n      dup2\n      jump\t// out\n        /* \"BasicEnzian.sol\":9692:10089  function getTaskById(uint _id) public view returns (bool status,\r... */\n    tag_82:\n        /* \"BasicEnzian.sol\":9744:9755  bool status */\n      0x00\n        /* \"BasicEnzian.sol\":9766:9791  string memory description */\n      0x60\n        /* \"BasicEnzian.sol\":9793:9813  address taskresource */\n      0x00\n        /* \"BasicEnzian.sol\":9815:9834  GatewayType gateway */\n      dup1\n        /* \"BasicEnzian.sol\":9845:9871  uint[] memory requirements */\n      0x60\n        /* \"BasicEnzian.sol\":9873:9898  uint[] memory competitors */\n      dup1\n        /* \"BasicEnzian.sol\":9918:9923  tasks */\n      0x00\n        /* \"BasicEnzian.sol\":9918:9928  tasks[_id] */\n      dup1\n        /* \"BasicEnzian.sol\":9924:9927  _id */\n      dup9\n        /* \"BasicEnzian.sol\":9918:9928  tasks[_id] */\n      dup2\n      mstore\n      0x20\n      add\n      swap1\n      dup2\n      mstore\n      0x20\n      add\n      0x00\n      keccak256\n        /* \"BasicEnzian.sol\":9918:9938  tasks[_id].completed */\n      0x01\n      add\n      0x14\n      swap1\n      sload\n      swap1\n      0x0100\n      exp\n      swap1\n      div\n      0xff\n      and\n        /* \"BasicEnzian.sol\":9940:9945  tasks */\n      0x00\n        /* \"BasicEnzian.sol\":9940:9950  tasks[_id] */\n      dup1\n        /* \"BasicEnzian.sol\":9946:9949  _id */\n      dup10\n        /* \"BasicEnzian.sol\":9940:9950  tasks[_id] */\n      dup2\n      mstore\n      0x20\n      add\n      swap1\n      dup2\n      mstore\n      0x20\n      add\n      0x00\n      keccak256\n        /* \"BasicEnzian.sol\":9940:9959  tasks[_id].activity */\n      0x00\n      add\n        /* \"BasicEnzian.sol\":9961:9966  tasks */\n      0x00\n        /* \"BasicEnzian.sol\":9961:9971  tasks[_id] */\n      dup1\n        /* \"BasicEnzian.sol\":9967:9970  _id */\n      dup11\n        /* \"BasicEnzian.sol\":9961:9971  tasks[_id] */\n      dup2\n      mstore\n      0x20\n      add\n      swap1\n      dup2\n      mstore\n      0x20\n      add\n      0x00\n      keccak256\n        /* \"BasicEnzian.sol\":9961:9984  tasks[_id].taskresource */\n      0x01\n      add\n      0x00\n      swap1\n      sload\n      swap1\n      0x0100\n      exp\n      swap1\n      div\n      0xffffffffffffffffffffffffffffffffffffffff\n      and\n        /* \"BasicEnzian.sol\":9996:10001  tasks */\n      0x00\n        /* \"BasicEnzian.sol\":9996:10006  tasks[_id] */\n      dup1\n        /* \"BasicEnzian.sol\":10002:10005  _id */\n      dup12\n        /* \"BasicEnzian.sol\":9996:10006  tasks[_id] */\n      dup2\n      mstore\n      0x20\n      add\n      swap1\n      dup2\n      mstore\n      0x20\n      add\n      0x00\n      keccak256\n        /* \"BasicEnzian.sol\":9996:10031  tasks[_id].preceedingMergingGateway */\n      0x01\n      add\n      0x15\n      swap1\n      sload\n      swap1\n      0x0100\n      exp\n      swap1\n      div\n      0xff\n      and\n        /* \"BasicEnzian.sol\":10033:10038  tasks */\n      0x00\n        /* \"BasicEnzian.sol\":10033:10043  tasks[_id] */\n      dup1\n        /* \"BasicEnzian.sol\":10039:10042  _id */\n      dup13\n        /* \"BasicEnzian.sol\":10033:10043  tasks[_id] */\n      dup2\n      mstore\n      0x20\n      add\n      swap1\n      dup2\n      mstore\n      0x20\n      add\n      0x00\n      keccak256\n        /* \"BasicEnzian.sol\":10033:10056  tasks[_id].requirements */\n      0x02\n      add\n        /* \"BasicEnzian.sol\":10058:10063  tasks */\n      0x00\n        /* \"BasicEnzian.sol\":10058:10068  tasks[_id] */\n      dup1\n        /* \"BasicEnzian.sol\":10064:10067  _id */\n      dup14\n        /* \"BasicEnzian.sol\":10058:10068  tasks[_id] */\n      dup2\n      mstore\n      0x20\n      add\n      swap1\n      dup2\n      mstore\n      0x20\n      add\n      0x00\n      keccak256\n        /* \"BasicEnzian.sol\":10058:10080  tasks[_id].competitors */\n      0x03\n      add\n        /* \"BasicEnzian.sol\":9910:10081  return (tasks[_id].completed, tasks[_id].activity, tasks[_id].taskresource,\r... */\n      dup5\n      dup1\n      sload\n      tag_194\n      swap1\n      tag_117\n      jump\t// in\n    tag_194:\n      dup1\n      0x1f\n      add\n      0x20\n      dup1\n      swap2\n      div\n      mul\n      0x20\n      add\n      mload(0x40)\n      swap1\n      dup2\n      add\n      0x40\n      mstore\n      dup1\n      swap3\n      swap2\n      swap1\n      dup2\n      dup2\n      mstore\n      0x20\n      add\n      dup3\n      dup1\n      sload\n      tag_195\n      swap1\n      tag_117\n      jump\t// in\n    tag_195:\n      dup1\n      iszero\n      tag_196\n      jumpi\n      dup1\n      0x1f\n      lt\n      tag_197\n      jumpi\n      0x0100\n      dup1\n      dup4\n      sload\n      div\n      mul\n      dup4\n      mstore\n      swap2\n      0x20\n      add\n      swap2\n      jump(tag_196)\n    tag_197:\n      dup3\n      add\n      swap2\n      swap1\n      0x00\n      mstore\n      keccak256(0x00, 0x20)\n      swap1\n    tag_198:\n      dup2\n      sload\n      dup2\n      mstore\n      swap1\n      0x01\n      add\n      swap1\n      0x20\n      add\n      dup1\n      dup4\n      gt\n      tag_198\n      jumpi\n      dup3\n      swap1\n      sub\n      0x1f\n      and\n      dup3\n      add\n      swap2\n    tag_196:\n      pop\n      pop\n      pop\n      pop\n      pop\n      swap5\n      pop\n      dup2\n      dup1\n      sload\n      dup1\n      0x20\n      mul\n      0x20\n      add\n      mload(0x40)\n      swap1\n      dup2\n      add\n      0x40\n      mstore\n      dup1\n      swap3\n      swap2\n      swap1\n      dup2\n      dup2\n      mstore\n      0x20\n      add\n      dup3\n      dup1\n      sload\n      dup1\n      iszero\n      tag_199\n      jumpi\n      0x20\n      mul\n      dup3\n      add\n      swap2\n      swap1\n      0x00\n      mstore\n      keccak256(0x00, 0x20)\n      swap1\n    tag_200:\n      dup2\n      sload\n      dup2\n      mstore\n      0x20\n      add\n      swap1\n      0x01\n      add\n      swap1\n      dup1\n      dup4\n      gt\n      tag_200\n      jumpi\n    tag_199:\n      pop\n      pop\n      pop\n      pop\n      pop\n      swap2\n      pop\n      dup1\n      dup1\n      sload\n      dup1\n      0x20\n      mul\n      0x20\n      add\n      mload(0x40)\n      swap1\n      dup2\n      add\n      0x40\n      mstore\n      dup1\n      swap3\n      swap2\n      swap1\n      dup2\n      dup2\n      mstore\n      0x20\n      add\n      dup3\n      dup1\n      sload\n      dup1\n      iszero\n      tag_201\n      jumpi\n      0x20\n      mul\n      dup3\n      add\n      swap2\n      swap1\n      0x00\n      mstore\n      keccak256(0x00, 0x20)\n      swap1\n    tag_202:\n      dup2\n      sload\n      dup2\n      mstore\n      0x20\n      add\n      swap1\n      0x01\n      add\n      swap1\n      dup1\n      dup4\n      gt\n      tag_202\n      jumpi\n    tag_201:\n      pop\n      pop\n      pop\n      pop\n      pop\n      swap1\n      pop\n      swap6\n      pop\n      swap6\n      pop\n      swap6\n      pop\n      swap6\n      pop\n      swap6\n      pop\n      swap6\n      pop\n        /* \"BasicEnzian.sol\":9692:10089  function getTaskById(uint _id) public view returns (bool status,\r... */\n      swap2\n      swap4\n      swap6\n      pop\n      swap2\n      swap4\n      swap6\n      jump\t// out\n        /* \"BasicEnzian.sol\":9464:9587  function isTaskCompletedById(uint _id) public view returns (bool success){\r... */\n    tag_87:\n        /* \"BasicEnzian.sol\":9524:9536  bool success */\n      0x00\n        /* \"BasicEnzian.sol\":9558:9563  tasks */\n      dup1\n        /* \"BasicEnzian.sol\":9558:9568  tasks[_id] */\n      0x00\n        /* \"BasicEnzian.sol\":9564:9567  _id */\n      dup4\n        /* \"BasicEnzian.sol\":9558:9568  tasks[_id] */\n      dup2\n      mstore\n      0x20\n      add\n      swap1\n      dup2\n      mstore\n      0x20\n      add\n      0x00\n      keccak256\n        /* \"BasicEnzian.sol\":9558:9578  tasks[_id].completed */\n      0x01\n      add\n      0x14\n      swap1\n      sload\n      swap1\n      0x0100\n      exp\n      swap1\n      div\n      0xff\n      and\n        /* \"BasicEnzian.sol\":9550:9579  return (tasks[_id].completed) */\n      swap1\n      pop\n        /* \"BasicEnzian.sol\":9464:9587  function isTaskCompletedById(uint _id) public view returns (bool success){\r... */\n      swap2\n      swap1\n      pop\n      jump\t// out\n        /* \"BasicEnzian.sol\":4730:8418  function completing(uint taskId) public returns (bool success){\r... */\n    tag_91:\n        /* \"BasicEnzian.sol\":4779:4791  bool success */\n      0x00\n        /* \"BasicEnzian.sol\":4839:4841  35 */\n      0x23\n        /* \"BasicEnzian.sol\":4834:4842  Test(35) */\n      0x63a242a632efe33c0e210e04e4173612a17efa4f16aa4890bc7e46caece80de0\n      mload(0x40)\n      mload(0x40)\n      dup1\n      swap2\n      sub\n      swap1\n      log2\n        /* \"BasicEnzian.sol\":4851:4863  uint endBoss */\n      0x00\n        /* \"BasicEnzian.sol\":4874:4893  Task memory thetask */\n      dup1\n        /* \"BasicEnzian.sol\":4896:4901  tasks */\n      dup1\n        /* \"BasicEnzian.sol\":4896:4909  tasks[taskId] */\n      0x00\n        /* \"BasicEnzian.sol\":4902:4908  taskId */\n      dup6\n        /* \"BasicEnzian.sol\":4896:4909  tasks[taskId] */\n      dup2\n      mstore\n      0x20\n      add\n      swap1\n      dup2\n      mstore\n      0x20\n      add\n      0x00\n      keccak256\n        /* \"BasicEnzian.sol\":4874:4909  Task memory thetask = tasks[taskId] */\n      mload(0x40)\n      dup1\n      0xe0\n      add\n      0x40\n      mstore\n      swap1\n      dup2\n      0x00\n      dup3\n      add\n      dup1\n      sload\n      tag_205\n      swap1\n      tag_117\n      jump\t// in\n    tag_205:\n      dup1\n      0x1f\n      add\n      0x20\n      dup1\n      swap2\n      div\n      mul\n      0x20\n      add\n      mload(0x40)\n      swap1\n      dup2\n      add\n      0x40\n      mstore\n      dup1\n      swap3\n      swap2\n      swap1\n      dup2\n      dup2\n      mstore\n      0x20\n      add\n      dup3\n      dup1\n      sload\n      tag_206\n      swap1\n      tag_117\n      jump\t// in\n    tag_206:\n      dup1\n      iszero\n      tag_207\n      jumpi\n      dup1\n      0x1f\n      lt\n      tag_208\n      jumpi\n      0x0100\n      dup1\n      dup4\n      sload\n      div\n      mul\n      dup4\n      mstore\n      swap2\n      0x20\n      add\n      swap2\n      jump(tag_207)\n    tag_208:\n      dup3\n      add\n      swap2\n      swap1\n      0x00\n      mstore\n      keccak256(0x00, 0x20)\n      swap1\n    tag_209:\n      dup2\n      sload\n      dup2\n      mstore\n      swap1\n      0x01\n      add\n      swap1\n      0x20\n      add\n      dup1\n      dup4\n      gt\n      tag_209\n      jumpi\n      dup3\n      swap1\n      sub\n      0x1f\n      and\n      dup3\n      add\n      swap2\n    tag_207:\n      pop\n      pop\n      pop\n      pop\n      pop\n      dup2\n      mstore\n      0x20\n      add\n      0x01\n      dup3\n      add\n      0x00\n      swap1\n      sload\n      swap1\n      0x0100\n      exp\n      swap1\n      div\n      0xffffffffffffffffffffffffffffffffffffffff\n      and\n      0xffffffffffffffffffffffffffffffffffffffff\n      and\n      0xffffffffffffffffffffffffffffffffffffffff\n      and\n      dup2\n      mstore\n      0x20\n      add\n      0x01\n      dup3\n      add\n      0x14\n      swap1\n      sload\n      swap1\n      0x0100\n      exp\n      swap1\n      div\n      0xff\n      and\n      iszero\n      iszero\n      iszero\n      iszero\n      dup2\n      mstore\n      0x20\n      add\n      0x01\n      dup3\n      add\n      0x15\n      swap1\n      sload\n      swap1\n      0x0100\n      exp\n      swap1\n      div\n      0xff\n      and\n      0x03\n      dup2\n      gt\n      iszero\n      tag_210\n      jumpi\n      mstore(0x00, 0x4e487b7100000000000000000000000000000000000000000000000000000000)\n      mstore(0x04, 0x21)\n      revert(0x00, 0x24)\n    tag_210:\n      0x03\n      dup2\n      gt\n      iszero\n      tag_211\n      jumpi\n      mstore(0x00, 0x4e487b7100000000000000000000000000000000000000000000000000000000)\n      mstore(0x04, 0x21)\n      revert(0x00, 0x24)\n    tag_211:\n      dup2\n      mstore\n      0x20\n      add\n      0x02\n      dup3\n      add\n      dup1\n      sload\n      dup1\n      0x20\n      mul\n      0x20\n      add\n      mload(0x40)\n      swap1\n      dup2\n      add\n      0x40\n      mstore\n      dup1\n      swap3\n      swap2\n      swap1\n      dup2\n      dup2\n      mstore\n      0x20\n      add\n      dup3\n      dup1\n      sload\n      dup1\n      iszero\n      tag_212\n      jumpi\n      0x20\n      mul\n      dup3\n      add\n      swap2\n      swap1\n      0x00\n      mstore\n      keccak256(0x00, 0x20)\n      swap1\n    tag_213:\n      dup2\n      sload\n      dup2\n      mstore\n      0x20\n      add\n      swap1\n      0x01\n      add\n      swap1\n      dup1\n      dup4\n      gt\n      tag_213\n      jumpi\n    tag_212:\n      pop\n      pop\n      pop\n      pop\n      pop\n      dup2\n      mstore\n      0x20\n      add\n      0x03\n      dup3\n      add\n      dup1\n      sload\n      dup1\n      0x20\n      mul\n      0x20\n      add\n      mload(0x40)\n      swap1\n      dup2\n      add\n      0x40\n      mstore\n      dup1\n      swap3\n      swap2\n      swap1\n      dup2\n      dup2\n      mstore\n      0x20\n      add\n      dup3\n      dup1\n      sload\n      dup1\n      iszero\n      tag_214\n      jumpi\n      0x20\n      mul\n      dup3\n      add\n      swap2\n      swap1\n      0x00\n      mstore\n      keccak256(0x00, 0x20)\n      swap1\n    tag_215:\n      dup2\n      sload\n      dup2\n      mstore\n      0x20\n      add\n      swap1\n      0x01\n      add\n      swap1\n      dup1\n      dup4\n      gt\n      tag_215\n      jumpi\n    tag_214:\n      pop\n      pop\n      pop\n      pop\n      pop\n      dup2\n      mstore\n      0x20\n      add\n      0x04\n      dup3\n      add\n      mload(0x40)\n      dup1\n      0x0120\n      add\n      0x40\n      mstore\n      swap1\n      dup2\n      0x00\n      dup3\n      add\n      sload\n      dup2\n      mstore\n      0x20\n      add\n      0x01\n      dup3\n      add\n      0x00\n      swap1\n      sload\n      swap1\n      0x0100\n      exp\n      swap1\n      div\n      0xff\n      and\n      0x03\n      dup2\n      gt\n      iszero\n      tag_216\n      jumpi\n      mstore(0x00, 0x4e487b7100000000000000000000000000000000000000000000000000000000)\n      mstore(0x04, 0x21)\n      revert(0x00, 0x24)\n    tag_216:\n      0x03\n      dup2\n      gt\n      iszero\n      tag_217\n      jumpi\n      mstore(0x00, 0x4e487b7100000000000000000000000000000000000000000000000000000000)\n      mstore(0x04, 0x21)\n      revert(0x00, 0x24)\n    tag_217:\n      dup2\n      mstore\n      0x20\n      add\n      0x01\n      dup3\n      add\n      0x01\n      swap1\n      sload\n      swap1\n      0x0100\n      exp\n      swap1\n      div\n      0xff\n      and\n      0x02\n      dup2\n      gt\n      iszero\n      tag_218\n      jumpi\n      mstore(0x00, 0x4e487b7100000000000000000000000000000000000000000000000000000000)\n      mstore(0x04, 0x21)\n      revert(0x00, 0x24)\n    tag_218:\n      0x02\n      dup2\n      gt\n      iszero\n      tag_219\n      jumpi\n      mstore(0x00, 0x4e487b7100000000000000000000000000000000000000000000000000000000)\n      mstore(0x04, 0x21)\n      revert(0x00, 0x24)\n    tag_219:\n      dup2\n      mstore\n      0x20\n      add\n      0x01\n      dup3\n      add\n      0x02\n      swap1\n      sload\n      swap1\n      0x0100\n      exp\n      swap1\n      div\n      0xff\n      and\n      iszero\n      iszero\n      iszero\n      iszero\n      dup2\n      mstore\n      0x20\n      add\n      0x01\n      dup3\n      add\n      0x03\n      swap1\n      sload\n      swap1\n      0x0100\n      exp\n      swap1\n      div\n      0xff\n      and\n      iszero\n      iszero\n      iszero\n      iszero\n      dup2\n      mstore\n      0x20\n      add\n      0x01\n      dup3\n      add\n      0x04\n      swap1\n      sload\n      swap1\n      0x0100\n      exp\n      swap1\n      div\n      0xff\n      and\n      0x06\n      dup2\n      gt\n      iszero\n      tag_220\n      jumpi\n      mstore(0x00, 0x4e487b7100000000000000000000000000000000000000000000000000000000)\n      mstore(0x04, 0x21)\n      revert(0x00, 0x24)\n    tag_220:\n      0x06\n      dup2\n      gt\n      iszero\n      tag_221\n      jumpi\n      mstore(0x00, 0x4e487b7100000000000000000000000000000000000000000000000000000000)\n      mstore(0x04, 0x21)\n      revert(0x00, 0x24)\n    tag_221:\n      dup2\n      mstore\n      0x20\n      add\n      0x02\n      dup3\n      add\n      dup1\n      sload\n      tag_222\n      swap1\n      tag_117\n      jump\t// in\n    tag_222:\n      dup1\n      0x1f\n      add\n      0x20\n      dup1\n      swap2\n      div\n      mul\n      0x20\n      add\n      mload(0x40)\n      swap1\n      dup2\n      add\n      0x40\n      mstore\n      dup1\n      swap3\n      swap2\n      swap1\n      dup2\n      dup2\n      mstore\n      0x20\n      add\n      dup3\n      dup1\n      sload\n      tag_223\n      swap1\n      tag_117\n      jump\t// in\n    tag_223:\n      dup1\n      iszero\n      tag_224\n      jumpi\n      dup1\n      0x1f\n      lt\n      tag_225\n      jumpi\n      0x0100\n      dup1\n      dup4\n      sload\n      div\n      mul\n      dup4\n      mstore\n      swap2\n      0x20\n      add\n      swap2\n      jump(tag_224)\n    tag_225:\n      dup3\n      add\n      swap2\n      swap1\n      0x00\n      mstore\n      keccak256(0x00, 0x20)\n      swap1\n    tag_226:\n      dup2\n      sload\n      dup2\n      mstore\n      swap1\n      0x01\n      add\n      swap1\n      0x20\n      add\n      dup1\n      dup4\n      gt\n      tag_226\n      jumpi\n      dup3\n      swap1\n      sub\n      0x1f\n      and\n      dup3\n      add\n      swap2\n    tag_224:\n      pop\n      pop\n      pop\n      pop\n      pop\n      dup2\n      mstore\n      0x20\n      add\n      0x03\n      dup3\n      add\n      dup1\n      sload\n      tag_227\n      swap1\n      tag_117\n      jump\t// in\n    tag_227:\n      dup1\n      0x1f\n      add\n      0x20\n      dup1\n      swap2\n      div\n      mul\n      0x20\n      add\n      mload(0x40)\n      swap1\n      dup2\n      add\n      0x40\n      mstore\n      dup1\n      swap3\n      swap2\n      swap1\n      dup2\n      dup2\n      mstore\n      0x20\n      add\n      dup3\n      dup1\n      sload\n      tag_228\n      swap1\n      tag_117\n      jump\t// in\n    tag_228:\n      dup1\n      iszero\n      tag_229\n      jumpi\n      dup1\n      0x1f\n      lt\n      tag_230\n      jumpi\n      0x0100\n      dup1\n      dup4\n      sload\n      div\n      mul\n      dup4\n      mstore\n      swap2\n      0x20\n      add\n      swap2\n      jump(tag_229)\n    tag_230:\n      dup3\n      add\n      swap2\n      swap1\n      0x00\n      mstore\n      keccak256(0x00, 0x20)\n      swap1\n    tag_231:\n      dup2\n      sload\n      dup2\n      mstore\n      swap1\n      0x01\n      add\n      swap1\n      0x20\n      add\n      dup1\n      dup4\n      gt\n      tag_231\n      jumpi\n      dup3\n      swap1\n      sub\n      0x1f\n      and\n      dup3\n      add\n      swap2\n    tag_229:\n      pop\n      pop\n      pop\n      pop\n      pop\n      dup2\n      mstore\n      0x20\n      add\n      0x04\n      dup3\n      add\n      dup1\n      sload\n      dup1\n      0x20\n      mul\n      0x20\n      add\n      mload(0x40)\n      swap1\n      dup2\n      add\n      0x40\n      mstore\n      dup1\n      swap3\n      swap2\n      swap1\n      dup2\n      dup2\n      mstore\n      0x20\n      add\n      dup3\n      dup1\n      sload\n      dup1\n      iszero\n      tag_232\n      jumpi\n      0x20\n      mul\n      dup3\n      add\n      swap2\n      swap1\n      0x00\n      mstore\n      keccak256(0x00, 0x20)\n      swap1\n    tag_233:\n      dup2\n      sload\n      dup2\n      mstore\n      0x20\n      add\n      swap1\n      0x01\n      add\n      swap1\n      dup1\n      dup4\n      gt\n      tag_233\n      jumpi\n    tag_232:\n      pop\n      pop\n      pop\n      pop\n      pop\n      dup2\n      mstore\n      pop\n      pop\n      dup2\n      mstore\n      pop\n      pop\n      swap1\n      pop\n        /* \"BasicEnzian.sol\":4965:4981  address resource */\n      0x00\n        /* \"BasicEnzian.sol\":4984:4989  tasks */\n      dup1\n        /* \"BasicEnzian.sol\":4984:4997  tasks[taskId] */\n      0x00\n        /* \"BasicEnzian.sol\":4990:4996  taskId */\n      dup7\n        /* \"BasicEnzian.sol\":4984:4997  tasks[taskId] */\n      dup2\n      mstore\n      0x20\n      add\n      swap1\n      dup2\n      mstore\n      0x20\n      add\n      0x00\n      keccak256\n        /* \"BasicEnzian.sol\":4984:5010  tasks[taskId].taskresource */\n      0x01\n      add\n      0x00\n      swap1\n      sload\n      swap1\n      0x0100\n      exp\n      swap1\n      div\n      0xffffffffffffffffffffffffffffffffffffffff\n      and\n        /* \"BasicEnzian.sol\":4965:5010  address resource = tasks[taskId].taskresource */\n      swap1\n      pop\n        /* \"BasicEnzian.sol\":5049:5050  0 */\n      0x00\n        /* \"BasicEnzian.sol\":5029:5051  resource == address(0) */\n      0xffffffffffffffffffffffffffffffffffffffff\n      and\n        /* \"BasicEnzian.sol\":5029:5037  resource */\n      dup2\n        /* \"BasicEnzian.sol\":5029:5051  resource == address(0) */\n      0xffffffffffffffffffffffffffffffffffffffff\n      and\n      eq\n        /* \"BasicEnzian.sol\":5029:5077  resource == address(0) || resource == msg.sender */\n      dup1\n      tag_234\n      jumpi\n      pop\n        /* \"BasicEnzian.sol\":5067:5077  msg.sender */\n      caller\n        /* \"BasicEnzian.sol\":5055:5077  resource == msg.sender */\n      0xffffffffffffffffffffffffffffffffffffffff\n      and\n        /* \"BasicEnzian.sol\":5055:5063  resource */\n      dup2\n        /* \"BasicEnzian.sol\":5055:5077  resource == msg.sender */\n      0xffffffffffffffffffffffffffffffffffffffff\n      and\n      eq\n        /* \"BasicEnzian.sol\":5029:5077  resource == address(0) || resource == msg.sender */\n    tag_234:\n        /* \"BasicEnzian.sol\":5079:5084  tasks */\n      0x00\n        /* \"BasicEnzian.sol\":5079:5092  tasks[taskId] */\n      dup1\n        /* \"BasicEnzian.sol\":5085:5091  taskId */\n      dup8\n        /* \"BasicEnzian.sol\":5079:5092  tasks[taskId] */\n      dup2\n      mstore\n      0x20\n      add\n      swap1\n      dup2\n      mstore\n      0x20\n      add\n      0x00\n      keccak256\n        /* \"BasicEnzian.sol\":5079:5101  tasks[taskId].activity */\n      0x00\n      add\n        /* \"BasicEnzian.sol\":5021:5102  require(resource == address(0) || resource == msg.sender, tasks[taskId].activity) */\n      swap1\n      tag_235\n      jumpi\n      mload(0x40)\n      0x08c379a000000000000000000000000000000000000000000000000000000000\n      dup2\n      mstore\n      0x04\n      add\n      tag_236\n      swap2\n      swap1\n      tag_237\n      jump\t// in\n    tag_236:\n      mload(0x40)\n      dup1\n      swap2\n      sub\n      swap1\n      revert\n    tag_235:\n      pop\n        /* \"BasicEnzian.sol\":5194:5199  tasks */\n      0x00\n        /* \"BasicEnzian.sol\":5194:5207  tasks[taskId] */\n      dup1\n        /* \"BasicEnzian.sol\":5200:5206  taskId */\n      dup7\n        /* \"BasicEnzian.sol\":5194:5207  tasks[taskId] */\n      dup2\n      mstore\n      0x20\n      add\n      swap1\n      dup2\n      mstore\n      0x20\n      add\n      0x00\n      keccak256\n        /* \"BasicEnzian.sol\":5194:5216  tasks[taskId].decision */\n      0x04\n      add\n        /* \"BasicEnzian.sol\":5194:5223  tasks[taskId].decision.exists */\n      0x01\n      add\n      0x03\n      swap1\n      sload\n      swap1\n      0x0100\n      exp\n      swap1\n      div\n      0xff\n      and\n        /* \"BasicEnzian.sol\":5191:5427  if(tasks[taskId].decision.exists) {\r... */\n      iszero\n      tag_238\n      jumpi\n        /* \"BasicEnzian.sol\":5250:5255  tasks */\n      0x00\n        /* \"BasicEnzian.sol\":5250:5263  tasks[taskId] */\n      dup1\n        /* \"BasicEnzian.sol\":5256:5262  taskId */\n      dup7\n        /* \"BasicEnzian.sol\":5250:5263  tasks[taskId] */\n      dup2\n      mstore\n      0x20\n      add\n      swap1\n      dup2\n      mstore\n      0x20\n      add\n      0x00\n      keccak256\n        /* \"BasicEnzian.sol\":5250:5272  tasks[taskId].decision */\n      0x04\n      add\n        /* \"BasicEnzian.sol\":5250:5280  tasks[taskId].decision.endBoss */\n      0x00\n      add\n      sload\n        /* \"BasicEnzian.sol\":5240:5280  endBoss = tasks[taskId].decision.endBoss */\n      swap3\n      pop\n        /* \"BasicEnzian.sol\":5295:5306  bool result */\n      0x00\n        /* \"BasicEnzian.sol\":5309:5349  evaluateDecision(tasks[taskId].decision) */\n      tag_239\n        /* \"BasicEnzian.sol\":5326:5331  tasks */\n      0x00\n        /* \"BasicEnzian.sol\":5326:5339  tasks[taskId] */\n      dup1\n        /* \"BasicEnzian.sol\":5332:5338  taskId */\n      dup9\n        /* \"BasicEnzian.sol\":5326:5339  tasks[taskId] */\n      dup2\n      mstore\n      0x20\n      add\n      swap1\n      dup2\n      mstore\n      0x20\n      add\n      0x00\n      keccak256\n        /* \"BasicEnzian.sol\":5326:5348  tasks[taskId].decision */\n      0x04\n      add\n        /* \"BasicEnzian.sol\":5309:5349  evaluateDecision(tasks[taskId].decision) */\n      mload(0x40)\n      dup1\n      0x0120\n      add\n      0x40\n      mstore\n      swap1\n      dup2\n      0x00\n      dup3\n      add\n      sload\n      dup2\n      mstore\n      0x20\n      add\n      0x01\n      dup3\n      add\n      0x00\n      swap1\n      sload\n      swap1\n      0x0100\n      exp\n      swap1\n      div\n      0xff\n      and\n      0x03\n      dup2\n      gt\n      iszero\n      tag_240\n      jumpi\n      mstore(0x00, 0x4e487b7100000000000000000000000000000000000000000000000000000000)\n      mstore(0x04, 0x21)\n      revert(0x00, 0x24)\n    tag_240:\n      0x03\n      dup2\n      gt\n      iszero\n      tag_241\n      jumpi\n      mstore(0x00, 0x4e487b7100000000000000000000000000000000000000000000000000000000)\n      mstore(0x04, 0x21)\n      revert(0x00, 0x24)\n    tag_241:\n      dup2\n      mstore\n      0x20\n      add\n      0x01\n      dup3\n      add\n      0x01\n      swap1\n      sload\n      swap1\n      0x0100\n      exp\n      swap1\n      div\n      0xff\n      and\n      0x02\n      dup2\n      gt\n      iszero\n      tag_242\n      jumpi\n      mstore(0x00, 0x4e487b7100000000000000000000000000000000000000000000000000000000)\n      mstore(0x04, 0x21)\n      revert(0x00, 0x24)\n    tag_242:\n      0x02\n      dup2\n      gt\n      iszero\n      tag_243\n      jumpi\n      mstore(0x00, 0x4e487b7100000000000000000000000000000000000000000000000000000000)\n      mstore(0x04, 0x21)\n      revert(0x00, 0x24)\n    tag_243:\n      dup2\n      mstore\n      0x20\n      add\n      0x01\n      dup3\n      add\n      0x02\n      swap1\n      sload\n      swap1\n      0x0100\n      exp\n      swap1\n      div\n      0xff\n      and\n      iszero\n      iszero\n      iszero\n      iszero\n      dup2\n      mstore\n      0x20\n      add\n      0x01\n      dup3\n      add\n      0x03\n      swap1\n      sload\n      swap1\n      0x0100\n      exp\n      swap1\n      div\n      0xff\n      and\n      iszero\n      iszero\n      iszero\n      iszero\n      dup2\n      mstore\n      0x20\n      add\n      0x01\n      dup3\n      add\n      0x04\n      swap1\n      sload\n      swap1\n      0x0100\n      exp\n      swap1\n      div\n      0xff\n      and\n      0x06\n      dup2\n      gt\n      iszero\n      tag_244\n      jumpi\n      mstore(0x00, 0x4e487b7100000000000000000000000000000000000000000000000000000000)\n      mstore(0x04, 0x21)\n      revert(0x00, 0x24)\n    tag_244:\n      0x06\n      dup2\n      gt\n      iszero\n      tag_245\n      jumpi\n      mstore(0x00, 0x4e487b7100000000000000000000000000000000000000000000000000000000)\n      mstore(0x04, 0x21)\n      revert(0x00, 0x24)\n    tag_245:\n      dup2\n      mstore\n      0x20\n      add\n      0x02\n      dup3\n      add\n      dup1\n      sload\n      tag_246\n      swap1\n      tag_117\n      jump\t// in\n    tag_246:\n      dup1\n      0x1f\n      add\n      0x20\n      dup1\n      swap2\n      div\n      mul\n      0x20\n      add\n      mload(0x40)\n      swap1\n      dup2\n      add\n      0x40\n      mstore\n      dup1\n      swap3\n      swap2\n      swap1\n      dup2\n      dup2\n      mstore\n      0x20\n      add\n      dup3\n      dup1\n      sload\n      tag_247\n      swap1\n      tag_117\n      jump\t// in\n    tag_247:\n      dup1\n      iszero\n      tag_248\n      jumpi\n      dup1\n      0x1f\n      lt\n      tag_249\n      jumpi\n      0x0100\n      dup1\n      dup4\n      sload\n      div\n      mul\n      dup4\n      mstore\n      swap2\n      0x20\n      add\n      swap2\n      jump(tag_248)\n    tag_249:\n      dup3\n      add\n      swap2\n      swap1\n      0x00\n      mstore\n      keccak256(0x00, 0x20)\n      swap1\n    tag_250:\n      dup2\n      sload\n      dup2\n      mstore\n      swap1\n      0x01\n      add\n      swap1\n      0x20\n      add\n      dup1\n      dup4\n      gt\n      tag_250\n      jumpi\n      dup3\n      swap1\n      sub\n      0x1f\n      and\n      dup3\n      add\n      swap2\n    tag_248:\n      pop\n      pop\n      pop\n      pop\n      pop\n      dup2\n      mstore\n      0x20\n      add\n      0x03\n      dup3\n      add\n      dup1\n      sload\n      tag_251\n      swap1\n      tag_117\n      jump\t// in\n    tag_251:\n      dup1\n      0x1f\n      add\n      0x20\n      dup1\n      swap2\n      div\n      mul\n      0x20\n      add\n      mload(0x40)\n      swap1\n      dup2\n      add\n      0x40\n      mstore\n      dup1\n      swap3\n      swap2\n      swap1\n      dup2\n      dup2\n      mstore\n      0x20\n      add\n      dup3\n      dup1\n      sload\n      tag_252\n      swap1\n      tag_117\n      jump\t// in\n    tag_252:\n      dup1\n      iszero\n      tag_253\n      jumpi\n      dup1\n      0x1f\n      lt\n      tag_254\n      jumpi\n      0x0100\n      dup1\n      dup4\n      sload\n      div\n      mul\n      dup4\n      mstore\n      swap2\n      0x20\n      add\n      swap2\n      jump(tag_253)\n    tag_254:\n      dup3\n      add\n      swap2\n      swap1\n      0x00\n      mstore\n      keccak256(0x00, 0x20)\n      swap1\n    tag_255:\n      dup2\n      sload\n      dup2\n      mstore\n      swap1\n      0x01\n      add\n      swap1\n      0x20\n      add\n      dup1\n      dup4\n      gt\n      tag_255\n      jumpi\n      dup3\n      swap1\n      sub\n      0x1f\n      and\n      dup3\n      add\n      swap2\n    tag_253:\n      pop\n      pop\n      pop\n      pop\n      pop\n      dup2\n      mstore\n      0x20\n      add\n      0x04\n      dup3\n      add\n      dup1\n      sload\n      dup1\n      0x20\n      mul\n      0x20\n      add\n      mload(0x40)\n      swap1\n      dup2\n      add\n      0x40\n      mstore\n      dup1\n      swap3\n      swap2\n      swap1\n      dup2\n      dup2\n      mstore\n      0x20\n      add\n      dup3\n      dup1\n      sload\n      dup1\n      iszero\n      tag_256\n      jumpi\n      0x20\n      mul\n      dup3\n      add\n      swap2\n      swap1\n      0x00\n      mstore\n      keccak256(0x00, 0x20)\n      swap1\n    tag_257:\n      dup2\n      sload\n      dup2\n      mstore\n      0x20\n      add\n      swap1\n      0x01\n      add\n      swap1\n      dup1\n      dup4\n      gt\n      tag_257\n      jumpi\n    tag_256:\n      pop\n      pop\n      pop\n      pop\n      pop\n      dup2\n      mstore\n      pop\n      pop\n        /* \"BasicEnzian.sol\":5309:5325  evaluateDecision */\n      tag_28\n        /* \"BasicEnzian.sol\":5309:5349  evaluateDecision(tasks[taskId].decision) */\n      jump\t// in\n    tag_239:\n        /* \"BasicEnzian.sol\":5295:5349  bool result = evaluateDecision(tasks[taskId].decision) */\n      swap1\n      pop\n        /* \"BasicEnzian.sol\":5372:5378  result */\n      dup1\n        /* \"BasicEnzian.sol\":5364:5415  require(result, 'Process Variable is not correct.') */\n      tag_258\n      jumpi\n      mload(0x40)\n      0x08c379a000000000000000000000000000000000000000000000000000000000\n      dup2\n      mstore\n      0x04\n      add\n      tag_259\n      swap1\n      tag_260\n      jump\t// in\n    tag_259:\n      mload(0x40)\n      dup1\n      swap2\n      sub\n      swap1\n      revert\n    tag_258:\n        /* \"BasicEnzian.sol\":5191:5427  if(tasks[taskId].decision.exists) {\r... */\n      pop\n    tag_238:\n        /* \"BasicEnzian.sol\":5486:5516  uint[] memory requiredTasksIds */\n      0x00\n        /* \"BasicEnzian.sol\":5519:5524  tasks */\n      dup1\n        /* \"BasicEnzian.sol\":5519:5532  tasks[taskId] */\n      0x00\n        /* \"BasicEnzian.sol\":5525:5531  taskId */\n      dup8\n        /* \"BasicEnzian.sol\":5519:5532  tasks[taskId] */\n      dup2\n      mstore\n      0x20\n      add\n      swap1\n      dup2\n      mstore\n      0x20\n      add\n      0x00\n      keccak256\n        /* \"BasicEnzian.sol\":5519:5545  tasks[taskId].requirements */\n      0x02\n      add\n        /* \"BasicEnzian.sol\":5486:5545  uint[] memory requiredTasksIds = tasks[taskId].requirements */\n      dup1\n      sload\n      dup1\n      0x20\n      mul\n      0x20\n      add\n      mload(0x40)\n      swap1\n      dup2\n      add\n      0x40\n      mstore\n      dup1\n      swap3\n      swap2\n      swap1\n      dup2\n      dup2\n      mstore\n      0x20\n      add\n      dup3\n      dup1\n      sload\n      dup1\n      iszero\n      tag_261\n      jumpi\n      0x20\n      mul\n      dup3\n      add\n      swap2\n      swap1\n      0x00\n      mstore\n      keccak256(0x00, 0x20)\n      swap1\n    tag_262:\n      dup2\n      sload\n      dup2\n      mstore\n      0x20\n      add\n      swap1\n      0x01\n      add\n      swap1\n      dup1\n      dup4\n      gt\n      tag_262\n      jumpi\n    tag_261:\n      pop\n      pop\n      pop\n      pop\n      pop\n      swap1\n      pop\n        /* \"BasicEnzian.sol\":5587:5588  0 */\n      0x00\n        /* \"BasicEnzian.sol\":5560:5576  requiredTasksIds */\n      dup2\n        /* \"BasicEnzian.sol\":5560:5583  requiredTasksIds.length */\n      mload\n        /* \"BasicEnzian.sol\":5560:5588  requiredTasksIds.length == 0 */\n      eq\n        /* \"BasicEnzian.sol\":5556:7961  if (requiredTasksIds.length == 0) {\r... */\n      iszero\n      tag_263\n      jumpi\n        /* \"BasicEnzian.sol\":5615:5619  true */\n      0x01\n        /* \"BasicEnzian.sol\":5605:5619  success = true */\n      swap5\n      pop\n        /* \"BasicEnzian.sol\":5556:7961  if (requiredTasksIds.length == 0) {\r... */\n      jump(tag_264)\n    tag_263:\n        /* \"BasicEnzian.sol\":5661:5680  GatewayType gateway */\n      0x00\n        /* \"BasicEnzian.sol\":5683:5688  tasks */\n      dup1\n        /* \"BasicEnzian.sol\":5683:5696  tasks[taskId] */\n      0x00\n        /* \"BasicEnzian.sol\":5689:5695  taskId */\n      dup9\n        /* \"BasicEnzian.sol\":5683:5696  tasks[taskId] */\n      dup2\n      mstore\n      0x20\n      add\n      swap1\n      dup2\n      mstore\n      0x20\n      add\n      0x00\n      keccak256\n        /* \"BasicEnzian.sol\":5683:5721  tasks[taskId].preceedingMergingGateway */\n      0x01\n      add\n      0x15\n      swap1\n      sload\n      swap1\n      0x0100\n      exp\n      swap1\n      div\n      0xff\n      and\n        /* \"BasicEnzian.sol\":5661:5721  GatewayType gateway = tasks[taskId].preceedingMergingGateway */\n      swap1\n      pop\n        /* \"BasicEnzian.sol\":5765:5781  GatewayType.NONE */\n      0x00\n        /* \"BasicEnzian.sol\":5754:5781  gateway == GatewayType.NONE */\n      0x03\n      dup2\n      gt\n      iszero\n      tag_265\n      jumpi\n      mstore(0x00, 0x4e487b7100000000000000000000000000000000000000000000000000000000)\n      mstore(0x04, 0x21)\n      revert(0x00, 0x24)\n    tag_265:\n        /* \"BasicEnzian.sol\":5754:5761  gateway */\n      dup2\n        /* \"BasicEnzian.sol\":5754:5781  gateway == GatewayType.NONE */\n      0x03\n      dup2\n      gt\n      iszero\n      tag_266\n      jumpi\n      mstore(0x00, 0x4e487b7100000000000000000000000000000000000000000000000000000000)\n      mstore(0x04, 0x21)\n      revert(0x00, 0x24)\n    tag_266:\n      eq\n        /* \"BasicEnzian.sol\":5750:7930  if (gateway == GatewayType.NONE) {\r... */\n      iszero\n      tag_267\n      jumpi\n        /* \"BasicEnzian.sol\":5850:5854  true */\n      0x01\n        /* \"BasicEnzian.sol\":5806:5854  isTaskCompletedById(requiredTasksIds[0]) == true */\n      iszero\n      iszero\n        /* \"BasicEnzian.sol\":5806:5846  isTaskCompletedById(requiredTasksIds[0]) */\n      tag_268\n        /* \"BasicEnzian.sol\":5826:5842  requiredTasksIds */\n      dup4\n        /* \"BasicEnzian.sol\":5843:5844  0 */\n      0x00\n        /* \"BasicEnzian.sol\":5826:5845  requiredTasksIds[0] */\n      dup2\n      mload\n      dup2\n      lt\n      tag_269\n      jumpi\n      mstore(0x00, 0x4e487b7100000000000000000000000000000000000000000000000000000000)\n      mstore(0x04, 0x32)\n      revert(0x00, 0x24)\n    tag_269:\n      0x20\n      mul\n      0x20\n      add\n      add\n      mload\n        /* \"BasicEnzian.sol\":5806:5825  isTaskCompletedById */\n      tag_87\n        /* \"BasicEnzian.sol\":5806:5846  isTaskCompletedById(requiredTasksIds[0]) */\n      jump\t// in\n    tag_268:\n        /* \"BasicEnzian.sol\":5806:5854  isTaskCompletedById(requiredTasksIds[0]) == true */\n      iszero\n      iszero\n      eq\n        /* \"BasicEnzian.sol\":5802:5913  if (isTaskCompletedById(requiredTasksIds[0]) == true) {\r... */\n      iszero\n      tag_270\n      jumpi\n        /* \"BasicEnzian.sol\":5889:5893  true */\n      0x01\n        /* \"BasicEnzian.sol\":5879:5893  success = true */\n      swap6\n      pop\n        /* \"BasicEnzian.sol\":5802:5913  if (isTaskCompletedById(requiredTasksIds[0]) == true) {\r... */\n    tag_270:\n        /* \"BasicEnzian.sol\":5750:7930  if (gateway == GatewayType.NONE) {\r... */\n      jump(tag_271)\n    tag_267:\n        /* \"BasicEnzian.sol\":5966:5992  uint fulfilledRequirements */\n      0x00\n        /* \"BasicEnzian.sol\":6072:6078  uint i */\n      dup1\n        /* \"BasicEnzian.sol\":6081:6082  0 */\n      0x00\n        /* \"BasicEnzian.sol\":6072:6082  uint i = 0 */\n      swap1\n      pop\n        /* \"BasicEnzian.sol\":6067:6288  for (uint i = 0; i < requiredTasksIds.length; i++) {\r... */\n    tag_272:\n        /* \"BasicEnzian.sol\":6088:6104  requiredTasksIds */\n      dup4\n        /* \"BasicEnzian.sol\":6088:6111  requiredTasksIds.length */\n      mload\n        /* \"BasicEnzian.sol\":6084:6085  i */\n      dup2\n        /* \"BasicEnzian.sol\":6084:6111  i < requiredTasksIds.length */\n      lt\n        /* \"BasicEnzian.sol\":6067:6288  for (uint i = 0; i < requiredTasksIds.length; i++) {\r... */\n      iszero\n      tag_273\n      jumpi\n        /* \"BasicEnzian.sol\":6189:6193  true */\n      0x01\n        /* \"BasicEnzian.sol\":6145:6193  isTaskCompletedById(requiredTasksIds[i]) == true */\n      iszero\n      iszero\n        /* \"BasicEnzian.sol\":6145:6185  isTaskCompletedById(requiredTasksIds[i]) */\n      tag_275\n        /* \"BasicEnzian.sol\":6165:6181  requiredTasksIds */\n      dup6\n        /* \"BasicEnzian.sol\":6182:6183  i */\n      dup4\n        /* \"BasicEnzian.sol\":6165:6184  requiredTasksIds[i] */\n      dup2\n      mload\n      dup2\n      lt\n      tag_276\n      jumpi\n      mstore(0x00, 0x4e487b7100000000000000000000000000000000000000000000000000000000)\n      mstore(0x04, 0x32)\n      revert(0x00, 0x24)\n    tag_276:\n      0x20\n      mul\n      0x20\n      add\n      add\n      mload\n        /* \"BasicEnzian.sol\":6145:6164  isTaskCompletedById */\n      tag_87\n        /* \"BasicEnzian.sol\":6145:6185  isTaskCompletedById(requiredTasksIds[i]) */\n      jump\t// in\n    tag_275:\n        /* \"BasicEnzian.sol\":6145:6193  isTaskCompletedById(requiredTasksIds[i]) == true */\n      iszero\n      iszero\n      eq\n        /* \"BasicEnzian.sol\":6141:6269  if (isTaskCompletedById(requiredTasksIds[i]) == true) {\r... */\n      iszero\n      tag_277\n      jumpi\n        /* \"BasicEnzian.sol\":6222:6245  fulfilledRequirements++ */\n      dup2\n      dup1\n      tag_278\n      swap1\n      tag_279\n      jump\t// in\n    tag_278:\n      swap3\n      pop\n      pop\n        /* \"BasicEnzian.sol\":6141:6269  if (isTaskCompletedById(requiredTasksIds[i]) == true) {\r... */\n    tag_277:\n        /* \"BasicEnzian.sol\":6113:6116  i++ */\n      dup1\n      dup1\n      tag_280\n      swap1\n      tag_279\n      jump\t// in\n    tag_280:\n      swap2\n      pop\n      pop\n        /* \"BasicEnzian.sol\":6067:6288  for (uint i = 0; i < requiredTasksIds.length; i++) {\r... */\n      jump(tag_272)\n    tag_273:\n      pop\n        /* \"BasicEnzian.sol\":6338:6353  GatewayType.AND */\n      0x01\n        /* \"BasicEnzian.sol\":6327:6353  gateway == GatewayType.AND */\n      0x03\n      dup2\n      gt\n      iszero\n      tag_281\n      jumpi\n      mstore(0x00, 0x4e487b7100000000000000000000000000000000000000000000000000000000)\n      mstore(0x04, 0x21)\n      revert(0x00, 0x24)\n    tag_281:\n        /* \"BasicEnzian.sol\":6327:6334  gateway */\n      dup3\n        /* \"BasicEnzian.sol\":6327:6353  gateway == GatewayType.AND */\n      0x03\n      dup2\n      gt\n      iszero\n      tag_282\n      jumpi\n      mstore(0x00, 0x4e487b7100000000000000000000000000000000000000000000000000000000)\n      mstore(0x04, 0x21)\n      revert(0x00, 0x24)\n    tag_282:\n      eq\n        /* \"BasicEnzian.sol\":6324:7886  if(gateway == GatewayType.AND) {\r... */\n      iszero\n      tag_283\n      jumpi\n        /* \"BasicEnzian.sol\":6476:6492  requiredTasksIds */\n      dup3\n        /* \"BasicEnzian.sol\":6476:6499  requiredTasksIds.length */\n      mload\n        /* \"BasicEnzian.sol\":6451:6472  fulfilledRequirements */\n      dup2\n        /* \"BasicEnzian.sol\":6451:6499  fulfilledRequirements == requiredTasksIds.length */\n      eq\n        /* \"BasicEnzian.sol\":6447:6565  if (fulfilledRequirements == requiredTasksIds.length) {\r... */\n      iszero\n      tag_284\n      jumpi\n        /* \"BasicEnzian.sol\":6537:6541  true */\n      0x01\n        /* \"BasicEnzian.sol\":6527:6541  success = true */\n      swap7\n      pop\n        /* \"BasicEnzian.sol\":6447:6565  if (fulfilledRequirements == requiredTasksIds.length) {\r... */\n    tag_284:\n        /* \"BasicEnzian.sol\":6324:7886  if(gateway == GatewayType.AND) {\r... */\n      jump(tag_285)\n    tag_283:\n        /* \"BasicEnzian.sol\":6844:6858  GatewayType.OR */\n      0x02\n        /* \"BasicEnzian.sol\":6833:6858  gateway == GatewayType.OR */\n      0x03\n      dup2\n      gt\n      iszero\n      tag_286\n      jumpi\n      mstore(0x00, 0x4e487b7100000000000000000000000000000000000000000000000000000000)\n      mstore(0x04, 0x21)\n      revert(0x00, 0x24)\n    tag_286:\n        /* \"BasicEnzian.sol\":6833:6840  gateway */\n      dup3\n        /* \"BasicEnzian.sol\":6833:6858  gateway == GatewayType.OR */\n      0x03\n      dup2\n      gt\n      iszero\n      tag_287\n      jumpi\n      mstore(0x00, 0x4e487b7100000000000000000000000000000000000000000000000000000000)\n      mstore(0x04, 0x21)\n      revert(0x00, 0x24)\n    tag_287:\n      eq\n        /* \"BasicEnzian.sol\":6830:7845  if(gateway == GatewayType.OR) {\r... */\n      iszero\n      tag_288\n      jumpi\n        /* \"BasicEnzian.sol\":6993:6997  true */\n      0x01\n        /* \"BasicEnzian.sol\":6983:6997  success = true */\n      swap7\n      pop\n        /* \"BasicEnzian.sol\":6830:7845  if(gateway == GatewayType.OR) {\r... */\n      jump(tag_289)\n    tag_288:\n        /* \"BasicEnzian.sol\":7062:7077  GatewayType.XOR */\n      0x03\n        /* \"BasicEnzian.sol\":7051:7077  gateway == GatewayType.XOR */\n      dup1\n      dup2\n      gt\n      iszero\n      tag_290\n      jumpi\n      mstore(0x00, 0x4e487b7100000000000000000000000000000000000000000000000000000000)\n      mstore(0x04, 0x21)\n      revert(0x00, 0x24)\n    tag_290:\n        /* \"BasicEnzian.sol\":7051:7058  gateway */\n      dup3\n        /* \"BasicEnzian.sol\":7051:7077  gateway == GatewayType.XOR */\n      0x03\n      dup2\n      gt\n      iszero\n      tag_291\n      jumpi\n      mstore(0x00, 0x4e487b7100000000000000000000000000000000000000000000000000000000)\n      mstore(0x04, 0x21)\n      revert(0x00, 0x24)\n    tag_291:\n      eq\n        /* \"BasicEnzian.sol\":7048:7845  if(gateway == GatewayType.XOR) {\r... */\n      iszero\n      tag_292\n      jumpi\n        /* \"BasicEnzian.sol\":7110:7116  uint i */\n      0x00\n        /* \"BasicEnzian.sol\":7105:7484  for (uint i = 0; i < requiredTasksIds.length; i++) {\r... */\n    tag_293:\n        /* \"BasicEnzian.sol\":7126:7142  requiredTasksIds */\n      dup4\n        /* \"BasicEnzian.sol\":7126:7149  requiredTasksIds.length */\n      mload\n        /* \"BasicEnzian.sol\":7122:7123  i */\n      dup2\n        /* \"BasicEnzian.sol\":7122:7149  i < requiredTasksIds.length */\n      lt\n        /* \"BasicEnzian.sol\":7105:7484  for (uint i = 0; i < requiredTasksIds.length; i++) {\r... */\n      iszero\n      tag_294\n      jumpi\n        /* \"BasicEnzian.sol\":7193:7200  enabled */\n      0x03\n        /* \"BasicEnzian.sol\":7193:7221  enabled[requiredTasksIds[i]] */\n      0x00\n        /* \"BasicEnzian.sol\":7201:7217  requiredTasksIds */\n      dup6\n        /* \"BasicEnzian.sol\":7218:7219  i */\n      dup4\n        /* \"BasicEnzian.sol\":7201:7220  requiredTasksIds[i] */\n      dup2\n      mload\n      dup2\n      lt\n      tag_296\n      jumpi\n      mstore(0x00, 0x4e487b7100000000000000000000000000000000000000000000000000000000)\n      mstore(0x04, 0x32)\n      revert(0x00, 0x24)\n    tag_296:\n      0x20\n      mul\n      0x20\n      add\n      add\n      mload\n        /* \"BasicEnzian.sol\":7193:7221  enabled[requiredTasksIds[i]] */\n      dup2\n      mstore\n      0x20\n      add\n      swap1\n      dup2\n      mstore\n      0x20\n      add\n      0x00\n      keccak256\n      0x00\n      swap1\n      sload\n      swap1\n      0x0100\n      exp\n      swap1\n      div\n      0xff\n      and\n        /* \"BasicEnzian.sol\":7189:7457  if (enabled[requiredTasksIds[i]]) {\r... */\n      iszero\n      tag_297\n      jumpi\n        /* \"BasicEnzian.sol\":7268:7274  taskId */\n      dup9\n        /* \"BasicEnzian.sol\":7263:7275  Test(taskId) */\n      0x63a242a632efe33c0e210e04e4173612a17efa4f16aa4890bc7e46caece80de0\n      mload(0x40)\n      mload(0x40)\n      dup1\n      swap2\n      sub\n      swap1\n      log2\n        /* \"BasicEnzian.sol\":7320:7336  requiredTasksIds */\n      dup4\n        /* \"BasicEnzian.sol\":7337:7338  i */\n      dup2\n        /* \"BasicEnzian.sol\":7320:7339  requiredTasksIds[i] */\n      dup2\n      mload\n      dup2\n      lt\n      tag_298\n      jumpi\n      mstore(0x00, 0x4e487b7100000000000000000000000000000000000000000000000000000000)\n      mstore(0x04, 0x32)\n      revert(0x00, 0x24)\n    tag_298:\n      0x20\n      mul\n      0x20\n      add\n      add\n      mload\n        /* \"BasicEnzian.sol\":7315:7340  Test(requiredTasksIds[i]) */\n      0x63a242a632efe33c0e210e04e4173612a17efa4f16aa4890bc7e46caece80de0\n      mload(0x40)\n      mload(0x40)\n      dup1\n      swap2\n      sub\n      swap1\n      log2\n        /* \"BasicEnzian.sol\":7385:7425  isTaskCompletedById(requiredTasksIds[i]) */\n      tag_299\n        /* \"BasicEnzian.sol\":7405:7421  requiredTasksIds */\n      dup5\n        /* \"BasicEnzian.sol\":7422:7423  i */\n      dup3\n        /* \"BasicEnzian.sol\":7405:7424  requiredTasksIds[i] */\n      dup2\n      mload\n      dup2\n      lt\n      tag_300\n      jumpi\n      mstore(0x00, 0x4e487b7100000000000000000000000000000000000000000000000000000000)\n      mstore(0x04, 0x32)\n      revert(0x00, 0x24)\n    tag_300:\n      0x20\n      mul\n      0x20\n      add\n      add\n      mload\n        /* \"BasicEnzian.sol\":7385:7404  isTaskCompletedById */\n      tag_87\n        /* \"BasicEnzian.sol\":7385:7425  isTaskCompletedById(requiredTasksIds[i]) */\n      jump\t// in\n    tag_299:\n        /* \"BasicEnzian.sol\":7375:7425  success = isTaskCompletedById(requiredTasksIds[i]) */\n      swap8\n      pop\n        /* \"BasicEnzian.sol\":7189:7457  if (enabled[requiredTasksIds[i]]) {\r... */\n    tag_297:\n        /* \"BasicEnzian.sol\":7151:7154  i++ */\n      dup1\n      dup1\n      tag_301\n      swap1\n      tag_279\n      jump\t// in\n    tag_301:\n      swap2\n      pop\n      pop\n        /* \"BasicEnzian.sol\":7105:7484  for (uint i = 0; i < requiredTasksIds.length; i++) {\r... */\n      jump(tag_293)\n    tag_294:\n      pop\n        /* \"BasicEnzian.sol\":7048:7845  if(gateway == GatewayType.XOR) {\r... */\n    tag_292:\n        /* \"BasicEnzian.sol\":6830:7845  if(gateway == GatewayType.OR) {\r... */\n    tag_289:\n        /* \"BasicEnzian.sol\":6324:7886  if(gateway == GatewayType.AND) {\r... */\n    tag_285:\n        /* \"BasicEnzian.sol\":5750:7930  if (gateway == GatewayType.NONE) {\r... */\n      pop\n    tag_271:\n        /* \"BasicEnzian.sol\":5556:7961  if (requiredTasksIds.length == 0) {\r... */\n      pop\n    tag_264:\n        /* \"BasicEnzian.sol\":7984:7991  success */\n      dup5\n        /* \"BasicEnzian.sol\":7981:8366  if(success) {\r... */\n      iszero\n      tag_302\n      jumpi\n        /* \"BasicEnzian.sol\":8011:8016  tasks */\n      0x00\n        /* \"BasicEnzian.sol\":8011:8024  tasks[taskId] */\n      dup1\n        /* \"BasicEnzian.sol\":8017:8023  taskId */\n      dup8\n        /* \"BasicEnzian.sol\":8011:8024  tasks[taskId] */\n      dup2\n      mstore\n      0x20\n      add\n      swap1\n      dup2\n      mstore\n      0x20\n      add\n      0x00\n      keccak256\n        /* \"BasicEnzian.sol\":8011:8033  tasks[taskId].decision */\n      0x04\n      add\n        /* \"BasicEnzian.sol\":8011:8040  tasks[taskId].decision.exists */\n      0x01\n      add\n      0x03\n      swap1\n      sload\n      swap1\n      0x0100\n      exp\n      swap1\n      div\n      0xff\n      and\n        /* \"BasicEnzian.sol\":8008:8100  if(tasks[taskId].decision.exists) {\r... */\n      iszero\n      tag_303\n      jumpi\n        /* \"BasicEnzian.sol\":8080:8084  true */\n      0x01\n        /* \"BasicEnzian.sol\":8061:8068  enabled */\n      0x03\n        /* \"BasicEnzian.sol\":8061:8077  enabled[endBoss] */\n      0x00\n        /* \"BasicEnzian.sol\":8069:8076  endBoss */\n      dup7\n        /* \"BasicEnzian.sol\":8061:8077  enabled[endBoss] */\n      dup2\n      mstore\n      0x20\n      add\n      swap1\n      dup2\n      mstore\n      0x20\n      add\n      0x00\n      keccak256\n      0x00\n        /* \"BasicEnzian.sol\":8061:8084  enabled[endBoss] = true */\n      0x0100\n      exp\n      dup2\n      sload\n      dup2\n      0xff\n      mul\n      not\n      and\n      swap1\n      dup4\n      iszero\n      iszero\n      mul\n      or\n      swap1\n      sstore\n      pop\n        /* \"BasicEnzian.sol\":8008:8100  if(tasks[taskId].decision.exists) {\r... */\n    tag_303:\n        /* \"BasicEnzian.sol\":8114:8133  debugStringeventLog */\n      0x05\n        /* \"BasicEnzian.sol\":8139:8146  thetask */\n      dup4\n        /* \"BasicEnzian.sol\":8139:8155  thetask.activity */\n      0x00\n      add\n      mload\n        /* \"BasicEnzian.sol\":8114:8156  debugStringeventLog.push(thetask.activity) */\n      swap1\n      dup1\n      0x01\n      dup2\n      sload\n      add\n      dup1\n      dup3\n      sstore\n      dup1\n      swap2\n      pop\n      pop\n      0x01\n      swap1\n      sub\n      swap1\n      0x00\n      mstore\n      keccak256(0x00, 0x20)\n      add\n      0x00\n      swap1\n      swap2\n      swap1\n      swap2\n      swap1\n      swap2\n      pop\n      swap1\n      dup1\n      mload\n      swap1\n      0x20\n      add\n      swap1\n      tag_305\n      swap3\n      swap2\n      swap1\n      tag_146\n      jump\t// in\n    tag_305:\n      pop\n        /* \"BasicEnzian.sol\":8201:8205  true */\n      0x01\n        /* \"BasicEnzian.sol\":8175:8180  tasks */\n      0x00\n        /* \"BasicEnzian.sol\":8175:8188  tasks[taskId] */\n      dup1\n        /* \"BasicEnzian.sol\":8181:8187  taskId */\n      dup9\n        /* \"BasicEnzian.sol\":8175:8188  tasks[taskId] */\n      dup2\n      mstore\n      0x20\n      add\n      swap1\n      dup2\n      mstore\n      0x20\n      add\n      0x00\n      keccak256\n        /* \"BasicEnzian.sol\":8175:8198  tasks[taskId].completed */\n      0x01\n      add\n      0x14\n        /* \"BasicEnzian.sol\":8175:8205  tasks[taskId].completed = true */\n      0x0100\n      exp\n      dup2\n      sload\n      dup2\n      0xff\n      mul\n      not\n      and\n      swap1\n      dup4\n      iszero\n      iszero\n      mul\n      or\n      swap1\n      sstore\n      pop\n        /* \"BasicEnzian.sol\":8220:8235  theRealEventLog */\n      0x04\n        /* \"BasicEnzian.sol\":8241:8247  taskId */\n      dup7\n        /* \"BasicEnzian.sol\":8220:8248  theRealEventLog.push(taskId) */\n      swap1\n      dup1\n      0x01\n      dup2\n      sload\n      add\n      dup1\n      dup3\n      sstore\n      dup1\n      swap2\n      pop\n      pop\n      0x01\n      swap1\n      sub\n      swap1\n      0x00\n      mstore\n      keccak256(0x00, 0x20)\n      add\n      0x00\n      swap1\n      swap2\n      swap1\n      swap2\n      swap1\n      swap2\n      pop\n      sstore\n        /* \"BasicEnzian.sol\":8282:8286  true */\n      0x01\n        /* \"BasicEnzian.sol\":8268:8287  TaskCompleted(true) */\n      iszero\n      iszero\n      0xacd30b4f9fd5868793e13ffb506f03374a23d9feba1249ac2cc7b0fe024ff4ba\n      mload(0x40)\n      mload(0x40)\n      dup1\n      swap2\n      sub\n      swap1\n      log2\n        /* \"BasicEnzian.sol\":7981:8366  if(success) {\r... */\n      jump(tag_307)\n    tag_302:\n        /* \"BasicEnzian.sol\":8348:8353  false */\n      0x00\n        /* \"BasicEnzian.sol\":8334:8354  TaskCompleted(false) */\n      iszero\n      iszero\n      0xacd30b4f9fd5868793e13ffb506f03374a23d9feba1249ac2cc7b0fe024ff4ba\n      mload(0x40)\n      mload(0x40)\n      dup1\n      swap2\n      sub\n      swap1\n      log2\n        /* \"BasicEnzian.sol\":7981:8366  if(success) {\r... */\n    tag_307:\n        /* \"BasicEnzian.sol\":8386:8400  return success */\n      pop\n      pop\n      pop\n      pop\n        /* \"BasicEnzian.sol\":4730:8418  function completing(uint taskId) public returns (bool success){\r... */\n      swap2\n      swap1\n      pop\n      jump\t// out\n        /* \"BasicEnzian.sol\":8430:8604  function evaluateTest(int i1, int[] memory i2, DecisionLibrary.Operator op) public pure returns (bool equality) {\r... */\n    tag_96:\n        /* \"BasicEnzian.sol\":8527:8540  bool equality */\n      0x00\n        /* \"BasicEnzian.sol\":8560:8575  DecisionLibrary */\n      linkerSymbol(\"80c56c7074f1c42024adf49f5dc2b40495aa8bbb68c1dca7ae61973c3346d226\")\n        /* \"BasicEnzian.sol\":8560:8584  DecisionLibrary.evaluate */\n      0xe1df7ad6\n        /* \"BasicEnzian.sol\":8585:8587  i1 */\n      dup6\n        /* \"BasicEnzian.sol\":8589:8591  i2 */\n      dup6\n        /* \"BasicEnzian.sol\":8593:8595  op */\n      dup6\n        /* \"BasicEnzian.sol\":8560:8596  DecisionLibrary.evaluate(i1, i2, op) */\n      mload(0x40)\n      dup5\n      0xffffffff\n      and\n      0xe0\n      shl\n      dup2\n      mstore\n      0x04\n      add\n      tag_309\n      swap4\n      swap3\n      swap2\n      swap1\n      tag_135\n      jump\t// in\n    tag_309:\n      0x20\n      mload(0x40)\n      dup1\n      dup4\n      sub\n      dup2\n      dup7\n      dup1\n      extcodesize\n      iszero\n      dup1\n      iszero\n      tag_310\n      jumpi\n      0x00\n      dup1\n      revert\n    tag_310:\n      pop\n      gas\n      delegatecall\n      iszero\n      dup1\n      iszero\n      tag_312\n      jumpi\n      returndatasize\n      0x00\n      dup1\n      returndatacopy\n      revert(0x00, returndatasize)\n    tag_312:\n      pop\n      pop\n      pop\n      pop\n      mload(0x40)\n      returndatasize\n      not(0x1f)\n      0x1f\n      dup3\n      add\n      and\n      dup3\n      add\n      dup1\n      0x40\n      mstore\n      pop\n      dup2\n      add\n      swap1\n      tag_313\n      swap2\n      swap1\n      tag_128\n      jump\t// in\n    tag_313:\n        /* \"BasicEnzian.sol\":8553:8596  return DecisionLibrary.evaluate(i1, i2, op) */\n      swap1\n      pop\n        /* \"BasicEnzian.sol\":8430:8604  function evaluateTest(int i1, int[] memory i2, DecisionLibrary.Operator op) public pure returns (bool equality) {\r... */\n      swap4\n      swap3\n      pop\n      pop\n      pop\n      jump\t// out\n        /* \"BasicEnzian.sol\":1324:1380  mapping(string => string) public string_processVariables */\n    tag_100:\n      0x02\n      dup2\n      dup1\n      mload\n      0x20\n      dup2\n      add\n      dup3\n      add\n      dup1\n      mload\n      dup5\n      dup3\n      mstore\n      0x20\n      dup4\n      add\n      0x20\n      dup6\n      add\n      keccak256\n      dup2\n      dup4\n      mstore\n      dup1\n      swap6\n      pop\n      pop\n      pop\n      pop\n      pop\n      pop\n      0x00\n      swap2\n      pop\n      swap1\n      pop\n      dup1\n      sload\n      tag_314\n      swap1\n      tag_117\n      jump\t// in\n    tag_314:\n      dup1\n      0x1f\n      add\n      0x20\n      dup1\n      swap2\n      div\n      mul\n      0x20\n      add\n      mload(0x40)\n      swap1\n      dup2\n      add\n      0x40\n      mstore\n      dup1\n      swap3\n      swap2\n      swap1\n      dup2\n      dup2\n      mstore\n      0x20\n      add\n      dup3\n      dup1\n      sload\n      tag_315\n      swap1\n      tag_117\n      jump\t// in\n    tag_315:\n      dup1\n      iszero\n      tag_316\n      jumpi\n      dup1\n      0x1f\n      lt\n      tag_317\n      jumpi\n      0x0100\n      dup1\n      dup4\n      sload\n      div\n      mul\n      dup4\n      mstore\n      swap2\n      0x20\n      add\n      swap2\n      jump(tag_316)\n    tag_317:\n      dup3\n      add\n      swap2\n      swap1\n      0x00\n      mstore\n      keccak256(0x00, 0x20)\n      swap1\n    tag_318:\n      dup2\n      sload\n      dup2\n      mstore\n      swap1\n      0x01\n      add\n      swap1\n      0x20\n      add\n      dup1\n      dup4\n      gt\n      tag_318\n      jumpi\n      dup3\n      swap1\n      sub\n      0x1f\n      and\n      dup3\n      add\n      swap2\n    tag_316:\n      pop\n      pop\n      pop\n      pop\n      pop\n      dup2\n      jump\t// out\n        /* \"BasicEnzian.sol\":2684:3969  function createTaskWithDecision(\r... */\n    tag_105:\n        /* \"BasicEnzian.sol\":2992:3015  DecisionType.STRINGDESC */\n      0x00\n        /* \"BasicEnzian.sol\":2973:3015  _decision.type_ == DecisionType.STRINGDESC */\n      0x02\n      dup2\n      gt\n      iszero\n      tag_320\n      jumpi\n      mstore(0x00, 0x4e487b7100000000000000000000000000000000000000000000000000000000)\n      mstore(0x04, 0x21)\n      revert(0x00, 0x24)\n    tag_320:\n        /* \"BasicEnzian.sol\":2973:2982  _decision */\n      dup2\n        /* \"BasicEnzian.sol\":2973:2988  _decision.type_ */\n      0x40\n      add\n      mload\n        /* \"BasicEnzian.sol\":2973:3015  _decision.type_ == DecisionType.STRINGDESC */\n      0x02\n      dup2\n      gt\n      iszero\n      tag_321\n      jumpi\n      mstore(0x00, 0x4e487b7100000000000000000000000000000000000000000000000000000000)\n      mstore(0x04, 0x21)\n      revert(0x00, 0x24)\n    tag_321:\n      eq\n        /* \"BasicEnzian.sol\":2970:3231  if(_decision.type_ == DecisionType.STRINGDESC) {\r... */\n      iszero\n      tag_322\n      jumpi\n        /* \"BasicEnzian.sol\":3032:3087  string_processVariables[_decision.processVariable] = \"\" */\n      mload(0x40)\n      dup1\n      0x20\n      add\n      0x40\n      mstore\n      dup1\n      0x00\n      dup2\n      mstore\n      pop\n        /* \"BasicEnzian.sol\":3032:3055  string_processVariables */\n      0x02\n        /* \"BasicEnzian.sol\":3056:3065  _decision */\n      dup3\n        /* \"BasicEnzian.sol\":3056:3081  _decision.processVariable */\n      0xc0\n      add\n      mload\n        /* \"BasicEnzian.sol\":3032:3082  string_processVariables[_decision.processVariable] */\n      mload(0x40)\n      tag_323\n      swap2\n      swap1\n      tag_115\n      jump\t// in\n    tag_323:\n      swap1\n      dup2\n      mstore\n      0x20\n      add\n      mload(0x40)\n      dup1\n      swap2\n      sub\n      swap1\n      keccak256\n        /* \"BasicEnzian.sol\":3032:3087  string_processVariables[_decision.processVariable] = \"\" */\n      swap1\n      dup1\n      mload\n      swap1\n      0x20\n      add\n      swap1\n      tag_324\n      swap3\n      swap2\n      swap1\n      tag_146\n      jump\t// in\n    tag_324:\n      pop\n        /* \"BasicEnzian.sol\":2970:3231  if(_decision.type_ == DecisionType.STRINGDESC) {\r... */\n      jump(tag_325)\n    tag_322:\n        /* \"BasicEnzian.sol\":3127:3147  DecisionType.INTDESC */\n      0x01\n        /* \"BasicEnzian.sol\":3108:3147  _decision.type_ == DecisionType.INTDESC */\n      0x02\n      dup2\n      gt\n      iszero\n      tag_326\n      jumpi\n      mstore(0x00, 0x4e487b7100000000000000000000000000000000000000000000000000000000)\n      mstore(0x04, 0x21)\n      revert(0x00, 0x24)\n    tag_326:\n        /* \"BasicEnzian.sol\":3108:3117  _decision */\n      dup2\n        /* \"BasicEnzian.sol\":3108:3123  _decision.type_ */\n      0x40\n      add\n      mload\n        /* \"BasicEnzian.sol\":3108:3147  _decision.type_ == DecisionType.INTDESC */\n      0x02\n      dup2\n      gt\n      iszero\n      tag_327\n      jumpi\n      mstore(0x00, 0x4e487b7100000000000000000000000000000000000000000000000000000000)\n      mstore(0x04, 0x21)\n      revert(0x00, 0x24)\n    tag_327:\n      eq\n        /* \"BasicEnzian.sol\":3105:3231  if(_decision.type_ == DecisionType.INTDESC) {\r... */\n      iszero\n      tag_328\n      jumpi\n        /* \"BasicEnzian.sol\":3218:3219  0 */\n      0x00\n        /* \"BasicEnzian.sol\":3164:3188  integer_processVariables */\n      0x01\n        /* \"BasicEnzian.sol\":3189:3198  _decision */\n      dup3\n        /* \"BasicEnzian.sol\":3189:3214  _decision.processVariable */\n      0xc0\n      add\n      mload\n        /* \"BasicEnzian.sol\":3164:3215  integer_processVariables[_decision.processVariable] */\n      mload(0x40)\n      tag_329\n      swap2\n      swap1\n      tag_115\n      jump\t// in\n    tag_329:\n      swap1\n      dup2\n      mstore\n      0x20\n      add\n      mload(0x40)\n      dup1\n      swap2\n      sub\n      swap1\n      keccak256\n        /* \"BasicEnzian.sol\":3164:3219  integer_processVariables[_decision.processVariable] = 0 */\n      dup2\n      swap1\n      sstore\n      pop\n        /* \"BasicEnzian.sol\":3105:3231  if(_decision.type_ == DecisionType.INTDESC) {\r... */\n    tag_328:\n        /* \"BasicEnzian.sol\":2970:3231  if(_decision.type_ == DecisionType.STRINGDESC) {\r... */\n    tag_325:\n        /* \"BasicEnzian.sol\":3243:3319  createTask(_id, _activity, _taskresource, _pmg, _requirements, _competitors) */\n      tag_330\n        /* \"BasicEnzian.sol\":3254:3257  _id */\n      dup8\n        /* \"BasicEnzian.sol\":3259:3268  _activity */\n      dup8\n        /* \"BasicEnzian.sol\":3270:3283  _taskresource */\n      dup8\n        /* \"BasicEnzian.sol\":3285:3289  _pmg */\n      dup8\n        /* \"BasicEnzian.sol\":3291:3304  _requirements */\n      dup8\n        /* \"BasicEnzian.sol\":3306:3318  _competitors */\n      dup8\n        /* \"BasicEnzian.sol\":3243:3253  createTask */\n      tag_34\n        /* \"BasicEnzian.sol\":3243:3319  createTask(_id, _activity, _taskresource, _pmg, _requirements, _competitors) */\n      jump\t// in\n    tag_330:\n        /* \"BasicEnzian.sol\":3381:3405  Decision memory myStruct */\n      tag_331\n      tag_332\n      jump\t// in\n    tag_331:\n        /* \"BasicEnzian.sol\":3435:3444  _decision */\n      dup2\n        /* \"BasicEnzian.sol\":3435:3452  _decision.endBoss */\n      0x00\n      add\n      mload\n        /* \"BasicEnzian.sol\":3416:3424  myStruct */\n      dup2\n        /* \"BasicEnzian.sol\":3416:3432  myStruct.endBoss */\n      0x00\n      add\n        /* \"BasicEnzian.sol\":3416:3452  myStruct.endBoss = _decision.endBoss */\n      dup2\n      dup2\n      mstore\n      pop\n      pop\n        /* \"BasicEnzian.sol\":3486:3495  _decision */\n      dup2\n        /* \"BasicEnzian.sol\":3486:3507  _decision.gatewaytype */\n      0x20\n      add\n      mload\n        /* \"BasicEnzian.sol\":3463:3471  myStruct */\n      dup2\n        /* \"BasicEnzian.sol\":3463:3483  myStruct.gatewaytype */\n      0x20\n      add\n        /* \"BasicEnzian.sol\":3463:3507  myStruct.gatewaytype = _decision.gatewaytype */\n      swap1\n      0x03\n      dup2\n      gt\n      iszero\n      tag_333\n      jumpi\n      mstore(0x00, 0x4e487b7100000000000000000000000000000000000000000000000000000000)\n      mstore(0x04, 0x21)\n      revert(0x00, 0x24)\n    tag_333:\n      swap1\n      dup2\n      0x03\n      dup2\n      gt\n      iszero\n      tag_334\n      jumpi\n      mstore(0x00, 0x4e487b7100000000000000000000000000000000000000000000000000000000)\n      mstore(0x04, 0x21)\n      revert(0x00, 0x24)\n    tag_334:\n      dup2\n      mstore\n      pop\n      pop\n        /* \"BasicEnzian.sol\":3535:3544  _decision */\n      dup2\n        /* \"BasicEnzian.sol\":3535:3550  _decision.type_ */\n      0x40\n      add\n      mload\n        /* \"BasicEnzian.sol\":3518:3526  myStruct */\n      dup2\n        /* \"BasicEnzian.sol\":3518:3532  myStruct.type_ */\n      0x40\n      add\n        /* \"BasicEnzian.sol\":3518:3550  myStruct.type_ = _decision.type_ */\n      swap1\n      0x02\n      dup2\n      gt\n      iszero\n      tag_335\n      jumpi\n      mstore(0x00, 0x4e487b7100000000000000000000000000000000000000000000000000000000)\n      mstore(0x04, 0x21)\n      revert(0x00, 0x24)\n    tag_335:\n      swap1\n      dup2\n      0x02\n      dup2\n      gt\n      iszero\n      tag_336\n      jumpi\n      mstore(0x00, 0x4e487b7100000000000000000000000000000000000000000000000000000000)\n      mstore(0x04, 0x21)\n      revert(0x00, 0x24)\n    tag_336:\n      dup2\n      mstore\n      pop\n      pop\n        /* \"BasicEnzian.sol\":3582:3591  _decision */\n      dup2\n        /* \"BasicEnzian.sol\":3582:3601  _decision.completed */\n      0x60\n      add\n      mload\n        /* \"BasicEnzian.sol\":3561:3569  myStruct */\n      dup2\n        /* \"BasicEnzian.sol\":3561:3579  myStruct.completed */\n      0x60\n      add\n        /* \"BasicEnzian.sol\":3561:3601  myStruct.completed = _decision.completed */\n      swap1\n      iszero\n      iszero\n      swap1\n      dup2\n      iszero\n      iszero\n      dup2\n      mstore\n      pop\n      pop\n        /* \"BasicEnzian.sol\":3630:3639  _decision */\n      dup2\n        /* \"BasicEnzian.sol\":3630:3646  _decision.exists */\n      0x80\n      add\n      mload\n        /* \"BasicEnzian.sol\":3612:3620  myStruct */\n      dup2\n        /* \"BasicEnzian.sol\":3612:3627  myStruct.exists */\n      0x80\n      add\n        /* \"BasicEnzian.sol\":3612:3646  myStruct.exists = _decision.exists */\n      swap1\n      iszero\n      iszero\n      swap1\n      dup2\n      iszero\n      iszero\n      dup2\n      mstore\n      pop\n      pop\n        /* \"BasicEnzian.sol\":3677:3686  _decision */\n      dup2\n        /* \"BasicEnzian.sol\":3677:3695  _decision.operator */\n      0xa0\n      add\n      mload\n        /* \"BasicEnzian.sol\":3657:3665  myStruct */\n      dup2\n        /* \"BasicEnzian.sol\":3657:3674  myStruct.operator */\n      0xa0\n      add\n        /* \"BasicEnzian.sol\":3657:3695  myStruct.operator = _decision.operator */\n      swap1\n      0x06\n      dup2\n      gt\n      iszero\n      tag_337\n      jumpi\n      mstore(0x00, 0x4e487b7100000000000000000000000000000000000000000000000000000000)\n      mstore(0x04, 0x21)\n      revert(0x00, 0x24)\n    tag_337:\n      swap1\n      dup2\n      0x06\n      dup2\n      gt\n      iszero\n      tag_338\n      jumpi\n      mstore(0x00, 0x4e487b7100000000000000000000000000000000000000000000000000000000)\n      mstore(0x04, 0x21)\n      revert(0x00, 0x24)\n    tag_338:\n      dup2\n      mstore\n      pop\n      pop\n        /* \"BasicEnzian.sol\":3733:3742  _decision */\n      dup2\n        /* \"BasicEnzian.sol\":3733:3758  _decision.processVariable */\n      0xc0\n      add\n      mload\n        /* \"BasicEnzian.sol\":3706:3714  myStruct */\n      dup2\n        /* \"BasicEnzian.sol\":3706:3730  myStruct.processVariable */\n      0xc0\n      add\n        /* \"BasicEnzian.sol\":3706:3758  myStruct.processVariable = _decision.processVariable */\n      dup2\n      swap1\n      mstore\n      pop\n        /* \"BasicEnzian.sol\":3788:3797  _decision */\n      dup2\n        /* \"BasicEnzian.sol\":3788:3805  _decision.s_value */\n      0xe0\n      add\n      mload\n        /* \"BasicEnzian.sol\":3769:3777  myStruct */\n      dup2\n        /* \"BasicEnzian.sol\":3769:3785  myStruct.s_value */\n      0xe0\n      add\n        /* \"BasicEnzian.sol\":3769:3805  myStruct.s_value = _decision.s_value */\n      dup2\n      swap1\n      mstore\n      pop\n        /* \"BasicEnzian.sol\":3835:3844  _decision */\n      dup2\n        /* \"BasicEnzian.sol\":3835:3852  _decision.i_value */\n      0x0100\n      add\n      mload\n        /* \"BasicEnzian.sol\":3816:3824  myStruct */\n      dup2\n        /* \"BasicEnzian.sol\":3816:3832  myStruct.i_value */\n      0x0100\n      add\n        /* \"BasicEnzian.sol\":3816:3852  myStruct.i_value = _decision.i_value */\n      dup2\n      swap1\n      mstore\n      pop\n        /* \"BasicEnzian.sol\":3891:3899  myStruct */\n      dup1\n        /* \"BasicEnzian.sol\":3868:3873  tasks */\n      0x00\n        /* \"BasicEnzian.sol\":3868:3878  tasks[_id] */\n      dup1\n        /* \"BasicEnzian.sol\":3874:3877  _id */\n      dup11\n        /* \"BasicEnzian.sol\":3868:3878  tasks[_id] */\n      dup2\n      mstore\n      0x20\n      add\n      swap1\n      dup2\n      mstore\n      0x20\n      add\n      0x00\n      keccak256\n        /* \"BasicEnzian.sol\":3868:3887  tasks[_id].decision */\n      0x04\n      add\n        /* \"BasicEnzian.sol\":3868:3900  tasks[_id].decision = (myStruct) */\n      0x00\n      dup3\n      add\n      mload\n      dup2\n      0x00\n      add\n      sstore\n      0x20\n      dup3\n      add\n      mload\n      dup2\n      0x01\n      add\n      exp(0x0100, 0x00)\n      dup2\n      sload\n      dup2\n      0xff\n      mul\n      not\n      and\n      swap1\n      dup4\n      0x03\n      dup2\n      gt\n      iszero\n      tag_339\n      jumpi\n      mstore(0x00, 0x4e487b7100000000000000000000000000000000000000000000000000000000)\n      mstore(0x04, 0x21)\n      revert(0x00, 0x24)\n    tag_339:\n      mul\n      or\n      swap1\n      sstore\n      pop\n      0x40\n      dup3\n      add\n      mload\n      dup2\n      0x01\n      add\n      exp(0x0100, 0x01)\n      dup2\n      sload\n      dup2\n      0xff\n      mul\n      not\n      and\n      swap1\n      dup4\n      0x02\n      dup2\n      gt\n      iszero\n      tag_340\n      jumpi\n      mstore(0x00, 0x4e487b7100000000000000000000000000000000000000000000000000000000)\n      mstore(0x04, 0x21)\n      revert(0x00, 0x24)\n    tag_340:\n      mul\n      or\n      swap1\n      sstore\n      pop\n      0x60\n      dup3\n      add\n      mload\n      dup2\n      0x01\n      add\n      exp(0x0100, 0x02)\n      dup2\n      sload\n      dup2\n      0xff\n      mul\n      not\n      and\n      swap1\n      dup4\n      iszero\n      iszero\n      mul\n      or\n      swap1\n      sstore\n      pop\n      0x80\n      dup3\n      add\n      mload\n      dup2\n      0x01\n      add\n      exp(0x0100, 0x03)\n      dup2\n      sload\n      dup2\n      0xff\n      mul\n      not\n      and\n      swap1\n      dup4\n      iszero\n      iszero\n      mul\n      or\n      swap1\n      sstore\n      pop\n      0xa0\n      dup3\n      add\n      mload\n      dup2\n      0x01\n      add\n      exp(0x0100, 0x04)\n      dup2\n      sload\n      dup2\n      0xff\n      mul\n      not\n      and\n      swap1\n      dup4\n      0x06\n      dup2\n      gt\n      iszero\n      tag_341\n      jumpi\n      mstore(0x00, 0x4e487b7100000000000000000000000000000000000000000000000000000000)\n      mstore(0x04, 0x21)\n      revert(0x00, 0x24)\n    tag_341:\n      mul\n      or\n      swap1\n      sstore\n      pop\n      0xc0\n      dup3\n      add\n      mload\n      dup2\n      0x02\n      add\n      swap1\n      dup1\n      mload\n      swap1\n      0x20\n      add\n      swap1\n      tag_342\n      swap3\n      swap2\n      swap1\n      tag_146\n      jump\t// in\n    tag_342:\n      pop\n      0xe0\n      dup3\n      add\n      mload\n      dup2\n      0x03\n      add\n      swap1\n      dup1\n      mload\n      swap1\n      0x20\n      add\n      swap1\n      tag_343\n      swap3\n      swap2\n      swap1\n      tag_146\n      jump\t// in\n    tag_343:\n      pop\n      0x0100\n      dup3\n      add\n      mload\n      dup2\n      0x04\n      add\n      swap1\n      dup1\n      mload\n      swap1\n      0x20\n      add\n      swap1\n      tag_344\n      swap3\n      swap2\n      swap1\n      tag_157\n      jump\t// in\n    tag_344:\n      pop\n      swap1\n      pop\n      pop\n        /* \"BasicEnzian.sol\":2684:3969  function createTaskWithDecision(\r... */\n      pop\n      pop\n      pop\n      pop\n      pop\n      pop\n      pop\n      pop\n      jump\t// out\n        /* \"BasicEnzian.sol\":4290:4457  function updateStringProcessVariable(string calldata variableName, string calldata newValue) public {\r... */\n    tag_109:\n        /* \"BasicEnzian.sol\":4441:4449  newValue */\n      dup2\n      dup2\n        /* \"BasicEnzian.sol\":4401:4424  string_processVariables */\n      0x02\n        /* \"BasicEnzian.sol\":4425:4437  variableName */\n      dup7\n      dup7\n        /* \"BasicEnzian.sol\":4401:4438  string_processVariables[variableName] */\n      mload(0x40)\n      tag_346\n      swap3\n      swap2\n      swap1\n      tag_160\n      jump\t// in\n    tag_346:\n      swap1\n      dup2\n      mstore\n      0x20\n      add\n      mload(0x40)\n      dup1\n      swap2\n      sub\n      swap1\n      keccak256\n        /* \"BasicEnzian.sol\":4401:4449  string_processVariables[variableName] = newValue */\n      swap2\n      swap1\n      tag_347\n      swap3\n      swap2\n      swap1\n      tag_348\n      jump\t// in\n    tag_347:\n      pop\n        /* \"BasicEnzian.sol\":4290:4457  function updateStringProcessVariable(string calldata variableName, string calldata newValue) public {\r... */\n      pop\n      pop\n      pop\n      pop\n      jump\t// out\n    tag_142:\n      mload(0x40)\n      dup1\n      0xe0\n      add\n      0x40\n      mstore\n      dup1\n      0x60\n      dup2\n      mstore\n      0x20\n      add\n      and(0xffffffffffffffffffffffffffffffffffffffff, 0x00)\n      dup2\n      mstore\n      0x20\n      add\n      iszero(iszero(0x00))\n      dup2\n      mstore\n      0x20\n      add\n      0x00\n      0x03\n      dup2\n      gt\n      iszero\n      tag_349\n      jumpi\n      mstore(0x00, 0x4e487b7100000000000000000000000000000000000000000000000000000000)\n      mstore(0x04, 0x21)\n      revert(0x00, 0x24)\n    tag_349:\n      dup2\n      mstore\n      0x20\n      add\n      0x60\n      dup2\n      mstore\n      0x20\n      add\n      0x60\n      dup2\n      mstore\n      0x20\n      add\n      tag_350\n      tag_332\n      jump\t// in\n    tag_350:\n      dup2\n      mstore\n      pop\n      swap1\n      jump\t// out\n    tag_146:\n      dup3\n      dup1\n      sload\n      tag_351\n      swap1\n      tag_117\n      jump\t// in\n    tag_351:\n      swap1\n      0x00\n      mstore\n      keccak256(0x00, 0x20)\n      swap1\n      0x1f\n      add\n      0x20\n      swap1\n      div\n      dup2\n      add\n      swap3\n      dup3\n      tag_353\n      jumpi\n      0x00\n      dup6\n      sstore\n      jump(tag_352)\n    tag_353:\n      dup3\n      0x1f\n      lt\n      tag_354\n      jumpi\n      dup1\n      mload\n      not(0xff)\n      and\n      dup4\n      dup1\n      add\n      or\n      dup6\n      sstore\n      jump(tag_352)\n    tag_354:\n      dup3\n      dup1\n      add\n      0x01\n      add\n      dup6\n      sstore\n      dup3\n      iszero\n      tag_352\n      jumpi\n      swap2\n      dup3\n      add\n    tag_355:\n      dup3\n      dup2\n      gt\n      iszero\n      tag_356\n      jumpi\n      dup3\n      mload\n      dup3\n      sstore\n      swap2\n      0x20\n      add\n      swap2\n      swap1\n      0x01\n      add\n      swap1\n      jump(tag_355)\n    tag_356:\n    tag_352:\n      pop\n      swap1\n      pop\n      tag_357\n      swap2\n      swap1\n      tag_358\n      jump\t// in\n    tag_357:\n      pop\n      swap1\n      jump\t// out\n    tag_149:\n      dup3\n      dup1\n      sload\n      dup3\n      dup3\n      sstore\n      swap1\n      0x00\n      mstore\n      keccak256(0x00, 0x20)\n      swap1\n      dup2\n      add\n      swap3\n      dup3\n      iszero\n      tag_359\n      jumpi\n      swap2\n      0x20\n      mul\n      dup3\n      add\n    tag_360:\n      dup3\n      dup2\n      gt\n      iszero\n      tag_361\n      jumpi\n      dup3\n      mload\n      dup3\n      sstore\n      swap2\n      0x20\n      add\n      swap2\n      swap1\n      0x01\n      add\n      swap1\n      jump(tag_360)\n    tag_361:\n    tag_359:\n      pop\n      swap1\n      pop\n      tag_362\n      swap2\n      swap1\n      tag_358\n      jump\t// in\n    tag_362:\n      pop\n      swap1\n      jump\t// out\n    tag_157:\n      dup3\n      dup1\n      sload\n      dup3\n      dup3\n      sstore\n      swap1\n      0x00\n      mstore\n      keccak256(0x00, 0x20)\n      swap1\n      dup2\n      add\n      swap3\n      dup3\n      iszero\n      tag_363\n      jumpi\n      swap2\n      0x20\n      mul\n      dup3\n      add\n    tag_364:\n      dup3\n      dup2\n      gt\n      iszero\n      tag_365\n      jumpi\n      dup3\n      mload\n      dup3\n      sstore\n      swap2\n      0x20\n      add\n      swap2\n      swap1\n      0x01\n      add\n      swap1\n      jump(tag_364)\n    tag_365:\n    tag_363:\n      pop\n      swap1\n      pop\n      tag_366\n      swap2\n      swap1\n      tag_367\n      jump\t// in\n    tag_366:\n      pop\n      swap1\n      jump\t// out\n    tag_332:\n      mload(0x40)\n      dup1\n      0x0120\n      add\n      0x40\n      mstore\n      dup1\n      0x00\n      dup2\n      mstore\n      0x20\n      add\n      0x00\n      0x03\n      dup2\n      gt\n      iszero\n      tag_368\n      jumpi\n      mstore(0x00, 0x4e487b7100000000000000000000000000000000000000000000000000000000)\n      mstore(0x04, 0x21)\n      revert(0x00, 0x24)\n    tag_368:\n      dup2\n      mstore\n      0x20\n      add\n      0x00\n      0x02\n      dup2\n      gt\n      iszero\n      tag_369\n      jumpi\n      mstore(0x00, 0x4e487b7100000000000000000000000000000000000000000000000000000000)\n      mstore(0x04, 0x21)\n      revert(0x00, 0x24)\n    tag_369:\n      dup2\n      mstore\n      0x20\n      add\n      iszero(iszero(0x00))\n      dup2\n      mstore\n      0x20\n      add\n      iszero(iszero(0x00))\n      dup2\n      mstore\n      0x20\n      add\n      0x00\n      0x06\n      dup2\n      gt\n      iszero\n      tag_370\n      jumpi\n      mstore(0x00, 0x4e487b7100000000000000000000000000000000000000000000000000000000)\n      mstore(0x04, 0x21)\n      revert(0x00, 0x24)\n    tag_370:\n      dup2\n      mstore\n      0x20\n      add\n      0x60\n      dup2\n      mstore\n      0x20\n      add\n      0x60\n      dup2\n      mstore\n      0x20\n      add\n      0x60\n      dup2\n      mstore\n      pop\n      swap1\n      jump\t// out\n    tag_348:\n      dup3\n      dup1\n      sload\n      tag_371\n      swap1\n      tag_117\n      jump\t// in\n    tag_371:\n      swap1\n      0x00\n      mstore\n      keccak256(0x00, 0x20)\n      swap1\n      0x1f\n      add\n      0x20\n      swap1\n      div\n      dup2\n      add\n      swap3\n      dup3\n      tag_373\n      jumpi\n      0x00\n      dup6\n      sstore\n      jump(tag_372)\n    tag_373:\n      dup3\n      0x1f\n      lt\n      tag_374\n      jumpi\n      dup1\n      calldataload\n      not(0xff)\n      and\n      dup4\n      dup1\n      add\n      or\n      dup6\n      sstore\n      jump(tag_372)\n    tag_374:\n      dup3\n      dup1\n      add\n      0x01\n      add\n      dup6\n      sstore\n      dup3\n      iszero\n      tag_372\n      jumpi\n      swap2\n      dup3\n      add\n    tag_375:\n      dup3\n      dup2\n      gt\n      iszero\n      tag_376\n      jumpi\n      dup3\n      calldataload\n      dup3\n      sstore\n      swap2\n      0x20\n      add\n      swap2\n      swap1\n      0x01\n      add\n      swap1\n      jump(tag_375)\n    tag_376:\n    tag_372:\n      pop\n      swap1\n      pop\n      tag_377\n      swap2\n      swap1\n      tag_358\n      jump\t// in\n    tag_377:\n      pop\n      swap1\n      jump\t// out\n    tag_358:\n    tag_378:\n      dup1\n      dup3\n      gt\n      iszero\n      tag_379\n      jumpi\n      0x00\n      dup2\n      0x00\n      swap1\n      sstore\n      pop\n      0x01\n      add\n      jump(tag_378)\n    tag_379:\n      pop\n      swap1\n      jump\t// out\n    tag_367:\n    tag_380:\n      dup1\n      dup3\n      gt\n      iszero\n      tag_381\n      jumpi\n      0x00\n      dup2\n      0x00\n      swap1\n      sstore\n      pop\n      0x01\n      add\n      jump(tag_380)\n    tag_381:\n      pop\n      swap1\n      jump\t// out\n        /* \"#utility.yul\":23:642   */\n    tag_383:\n      0x00\n        /* \"#utility.yul\":143:222   */\n      tag_385\n        /* \"#utility.yul\":158:221   */\n      tag_386\n        /* \"#utility.yul\":214:220   */\n      dup5\n        /* \"#utility.yul\":158:221   */\n      tag_387\n      jump\t// in\n    tag_386:\n        /* \"#utility.yul\":143:222   */\n      tag_388\n      jump\t// in\n    tag_385:\n        /* \"#utility.yul\":134:222   */\n      swap1\n      pop\n        /* \"#utility.yul\":242:247   */\n      dup1\n        /* \"#utility.yul\":270:276   */\n      dup4\n        /* \"#utility.yul\":263:268   */\n      dup3\n        /* \"#utility.yul\":256:277   */\n      mstore\n        /* \"#utility.yul\":296:300   */\n      0x20\n        /* \"#utility.yul\":289:294   */\n      dup3\n        /* \"#utility.yul\":285:301   */\n      add\n        /* \"#utility.yul\":278:301   */\n      swap1\n      pop\n        /* \"#utility.yul\":321:327   */\n      dup3\n        /* \"#utility.yul\":371:374   */\n      dup6\n        /* \"#utility.yul\":363:367   */\n      0x20\n        /* \"#utility.yul\":355:361   */\n      dup7\n        /* \"#utility.yul\":351:368   */\n      mul\n        /* \"#utility.yul\":346:349   */\n      dup3\n        /* \"#utility.yul\":342:369   */\n      add\n        /* \"#utility.yul\":339:375   */\n      gt\n        /* \"#utility.yul\":336:338   */\n      iszero\n      tag_389\n      jumpi\n        /* \"#utility.yul\":388:389   */\n      0x00\n        /* \"#utility.yul\":385:386   */\n      dup1\n        /* \"#utility.yul\":378:390   */\n      revert\n        /* \"#utility.yul\":336:338   */\n    tag_389:\n        /* \"#utility.yul\":416:417   */\n      0x00\n        /* \"#utility.yul\":401:636   */\n    tag_390:\n        /* \"#utility.yul\":426:432   */\n      dup6\n        /* \"#utility.yul\":423:424   */\n      dup2\n        /* \"#utility.yul\":420:433   */\n      lt\n        /* \"#utility.yul\":401:636   */\n      iszero\n      tag_392\n      jumpi\n        /* \"#utility.yul\":493:496   */\n      dup2\n        /* \"#utility.yul\":521:557   */\n      tag_393\n        /* \"#utility.yul\":553:556   */\n      dup9\n        /* \"#utility.yul\":541:551   */\n      dup3\n        /* \"#utility.yul\":521:557   */\n      tag_394\n      jump\t// in\n    tag_393:\n        /* \"#utility.yul\":516:519   */\n      dup5\n        /* \"#utility.yul\":509:558   */\n      mstore\n        /* \"#utility.yul\":587:591   */\n      0x20\n        /* \"#utility.yul\":582:585   */\n      dup5\n        /* \"#utility.yul\":578:592   */\n      add\n        /* \"#utility.yul\":571:592   */\n      swap4\n      pop\n        /* \"#utility.yul\":621:625   */\n      0x20\n        /* \"#utility.yul\":616:619   */\n      dup4\n        /* \"#utility.yul\":612:626   */\n      add\n        /* \"#utility.yul\":605:626   */\n      swap3\n      pop\n        /* \"#utility.yul\":461:636   */\n      pop\n        /* \"#utility.yul\":448:449   */\n      0x01\n        /* \"#utility.yul\":445:446   */\n      dup2\n        /* \"#utility.yul\":441:450   */\n      add\n        /* \"#utility.yul\":436:450   */\n      swap1\n      pop\n        /* \"#utility.yul\":401:636   */\n      jump(tag_390)\n    tag_392:\n        /* \"#utility.yul\":405:419   */\n      pop\n        /* \"#utility.yul\":124:642   */\n      pop\n      pop\n      swap4\n      swap3\n      pop\n      pop\n      pop\n      jump\t// out\n        /* \"#utility.yul\":665:1287   */\n    tag_395:\n      0x00\n        /* \"#utility.yul\":786:866   */\n      tag_397\n        /* \"#utility.yul\":801:865   */\n      tag_398\n        /* \"#utility.yul\":858:864   */\n      dup5\n        /* \"#utility.yul\":801:865   */\n      tag_399\n      jump\t// in\n    tag_398:\n        /* \"#utility.yul\":786:866   */\n      tag_388\n      jump\t// in\n    tag_397:\n        /* \"#utility.yul\":777:866   */\n      swap1\n      pop\n        /* \"#utility.yul\":886:891   */\n      dup1\n        /* \"#utility.yul\":914:920   */\n      dup4\n        /* \"#utility.yul\":907:912   */\n      dup3\n        /* \"#utility.yul\":900:921   */\n      mstore\n        /* \"#utility.yul\":940:944   */\n      0x20\n        /* \"#utility.yul\":933:938   */\n      dup3\n        /* \"#utility.yul\":929:945   */\n      add\n        /* \"#utility.yul\":922:945   */\n      swap1\n      pop\n        /* \"#utility.yul\":965:971   */\n      dup3\n        /* \"#utility.yul\":1015:1018   */\n      dup6\n        /* \"#utility.yul\":1007:1011   */\n      0x20\n        /* \"#utility.yul\":999:1005   */\n      dup7\n        /* \"#utility.yul\":995:1012   */\n      mul\n        /* \"#utility.yul\":990:993   */\n      dup3\n        /* \"#utility.yul\":986:1013   */\n      add\n        /* \"#utility.yul\":983:1019   */\n      gt\n        /* \"#utility.yul\":980:982   */\n      iszero\n      tag_400\n      jumpi\n        /* \"#utility.yul\":1032:1033   */\n      0x00\n        /* \"#utility.yul\":1029:1030   */\n      dup1\n        /* \"#utility.yul\":1022:1034   */\n      revert\n        /* \"#utility.yul\":980:982   */\n    tag_400:\n        /* \"#utility.yul\":1060:1061   */\n      0x00\n        /* \"#utility.yul\":1045:1281   */\n    tag_401:\n        /* \"#utility.yul\":1070:1076   */\n      dup6\n        /* \"#utility.yul\":1067:1068   */\n      dup2\n        /* \"#utility.yul\":1064:1077   */\n      lt\n        /* \"#utility.yul\":1045:1281   */\n      iszero\n      tag_403\n      jumpi\n        /* \"#utility.yul\":1137:1140   */\n      dup2\n        /* \"#utility.yul\":1165:1202   */\n      tag_404\n        /* \"#utility.yul\":1198:1201   */\n      dup9\n        /* \"#utility.yul\":1186:1196   */\n      dup3\n        /* \"#utility.yul\":1165:1202   */\n      tag_405\n      jump\t// in\n    tag_404:\n        /* \"#utility.yul\":1160:1163   */\n      dup5\n        /* \"#utility.yul\":1153:1203   */\n      mstore\n        /* \"#utility.yul\":1232:1236   */\n      0x20\n        /* \"#utility.yul\":1227:1230   */\n      dup5\n        /* \"#utility.yul\":1223:1237   */\n      add\n        /* \"#utility.yul\":1216:1237   */\n      swap4\n      pop\n        /* \"#utility.yul\":1266:1270   */\n      0x20\n        /* \"#utility.yul\":1261:1264   */\n      dup4\n        /* \"#utility.yul\":1257:1271   */\n      add\n        /* \"#utility.yul\":1250:1271   */\n      swap3\n      pop\n        /* \"#utility.yul\":1105:1281   */\n      pop\n        /* \"#utility.yul\":1092:1093   */\n      0x01\n        /* \"#utility.yul\":1089:1090   */\n      dup2\n        /* \"#utility.yul\":1085:1094   */\n      add\n        /* \"#utility.yul\":1080:1094   */\n      swap1\n      pop\n        /* \"#utility.yul\":1045:1281   */\n      jump(tag_401)\n    tag_403:\n        /* \"#utility.yul\":1049:1063   */\n      pop\n        /* \"#utility.yul\":767:1287   */\n      pop\n      pop\n      swap4\n      swap3\n      pop\n      pop\n      pop\n      jump\t// out\n        /* \"#utility.yul\":1293:1637   */\n    tag_406:\n      0x00\n        /* \"#utility.yul\":1396:1461   */\n      tag_408\n        /* \"#utility.yul\":1411:1460   */\n      tag_409\n        /* \"#utility.yul\":1453:1459   */\n      dup5\n        /* \"#utility.yul\":1411:1460   */\n      tag_410\n      jump\t// in\n    tag_409:\n        /* \"#utility.yul\":1396:1461   */\n      tag_388\n      jump\t// in\n    tag_408:\n        /* \"#utility.yul\":1387:1461   */\n      swap1\n      pop\n        /* \"#utility.yul\":1484:1490   */\n      dup3\n        /* \"#utility.yul\":1477:1482   */\n      dup2\n        /* \"#utility.yul\":1470:1491   */\n      mstore\n        /* \"#utility.yul\":1522:1526   */\n      0x20\n        /* \"#utility.yul\":1515:1520   */\n      dup2\n        /* \"#utility.yul\":1511:1527   */\n      add\n        /* \"#utility.yul\":1560:1563   */\n      dup5\n        /* \"#utility.yul\":1551:1557   */\n      dup5\n        /* \"#utility.yul\":1546:1549   */\n      dup5\n        /* \"#utility.yul\":1542:1558   */\n      add\n        /* \"#utility.yul\":1539:1564   */\n      gt\n        /* \"#utility.yul\":1536:1538   */\n      iszero\n      tag_411\n      jumpi\n        /* \"#utility.yul\":1577:1578   */\n      0x00\n        /* \"#utility.yul\":1574:1575   */\n      dup1\n        /* \"#utility.yul\":1567:1579   */\n      revert\n        /* \"#utility.yul\":1536:1538   */\n    tag_411:\n        /* \"#utility.yul\":1590:1631   */\n      tag_412\n        /* \"#utility.yul\":1624:1630   */\n      dup5\n        /* \"#utility.yul\":1619:1622   */\n      dup3\n        /* \"#utility.yul\":1614:1617   */\n      dup6\n        /* \"#utility.yul\":1590:1631   */\n      tag_413\n      jump\t// in\n    tag_412:\n        /* \"#utility.yul\":1377:1637   */\n      pop\n      swap4\n      swap3\n      pop\n      pop\n      pop\n      jump\t// out\n        /* \"#utility.yul\":1643:1782   */\n    tag_414:\n      0x00\n        /* \"#utility.yul\":1727:1733   */\n      dup2\n        /* \"#utility.yul\":1714:1734   */\n      calldataload\n        /* \"#utility.yul\":1705:1734   */\n      swap1\n      pop\n        /* \"#utility.yul\":1743:1776   */\n      tag_416\n        /* \"#utility.yul\":1770:1775   */\n      dup2\n        /* \"#utility.yul\":1743:1776   */\n      tag_417\n      jump\t// in\n    tag_416:\n        /* \"#utility.yul\":1695:1782   */\n      swap3\n      swap2\n      pop\n      pop\n      jump\t// out\n        /* \"#utility.yul\":1804:2105   */\n    tag_418:\n      0x00\n        /* \"#utility.yul\":1923:1926   */\n      dup3\n        /* \"#utility.yul\":1916:1920   */\n      0x1f\n        /* \"#utility.yul\":1908:1914   */\n      dup4\n        /* \"#utility.yul\":1904:1921   */\n      add\n        /* \"#utility.yul\":1900:1927   */\n      slt\n        /* \"#utility.yul\":1890:1892   */\n      tag_420\n      jumpi\n        /* \"#utility.yul\":1941:1942   */\n      0x00\n        /* \"#utility.yul\":1938:1939   */\n      dup1\n        /* \"#utility.yul\":1931:1943   */\n      revert\n        /* \"#utility.yul\":1890:1892   */\n    tag_420:\n        /* \"#utility.yul\":1981:1987   */\n      dup2\n        /* \"#utility.yul\":1968:1988   */\n      calldataload\n        /* \"#utility.yul\":2006:2099   */\n      tag_421\n        /* \"#utility.yul\":2095:2098   */\n      dup5\n        /* \"#utility.yul\":2087:2093   */\n      dup3\n        /* \"#utility.yul\":2080:2084   */\n      0x20\n        /* \"#utility.yul\":2072:2078   */\n      dup7\n        /* \"#utility.yul\":2068:2085   */\n      add\n        /* \"#utility.yul\":2006:2099   */\n      tag_383\n      jump\t// in\n    tag_421:\n        /* \"#utility.yul\":1997:2099   */\n      swap2\n      pop\n        /* \"#utility.yul\":1880:2105   */\n      pop\n      swap3\n      swap2\n      pop\n      pop\n      jump\t// out\n        /* \"#utility.yul\":2128:2431   */\n    tag_422:\n      0x00\n        /* \"#utility.yul\":2248:2251   */\n      dup3\n        /* \"#utility.yul\":2241:2245   */\n      0x1f\n        /* \"#utility.yul\":2233:2239   */\n      dup4\n        /* \"#utility.yul\":2229:2246   */\n      add\n        /* \"#utility.yul\":2225:2252   */\n      slt\n        /* \"#utility.yul\":2215:2217   */\n      tag_424\n      jumpi\n        /* \"#utility.yul\":2266:2267   */\n      0x00\n        /* \"#utility.yul\":2263:2264   */\n      dup1\n        /* \"#utility.yul\":2256:2268   */\n      revert\n        /* \"#utility.yul\":2215:2217   */\n    tag_424:\n        /* \"#utility.yul\":2306:2312   */\n      dup2\n        /* \"#utility.yul\":2293:2313   */\n      calldataload\n        /* \"#utility.yul\":2331:2425   */\n      tag_425\n        /* \"#utility.yul\":2421:2424   */\n      dup5\n        /* \"#utility.yul\":2413:2419   */\n      dup3\n        /* \"#utility.yul\":2406:2410   */\n      0x20\n        /* \"#utility.yul\":2398:2404   */\n      dup7\n        /* \"#utility.yul\":2394:2411   */\n      add\n        /* \"#utility.yul\":2331:2425   */\n      tag_395\n      jump\t// in\n    tag_425:\n        /* \"#utility.yul\":2322:2425   */\n      swap2\n      pop\n        /* \"#utility.yul\":2205:2431   */\n      pop\n      swap3\n      swap2\n      pop\n      pop\n      jump\t// out\n        /* \"#utility.yul\":2437:2570   */\n    tag_426:\n      0x00\n        /* \"#utility.yul\":2518:2524   */\n      dup2\n        /* \"#utility.yul\":2505:2525   */\n      calldataload\n        /* \"#utility.yul\":2496:2525   */\n      swap1\n      pop\n        /* \"#utility.yul\":2534:2564   */\n      tag_428\n        /* \"#utility.yul\":2558:2563   */\n      dup2\n        /* \"#utility.yul\":2534:2564   */\n      tag_429\n      jump\t// in\n    tag_428:\n        /* \"#utility.yul\":2486:2570   */\n      swap3\n      swap2\n      pop\n      pop\n      jump\t// out\n        /* \"#utility.yul\":2576:2713   */\n    tag_430:\n      0x00\n        /* \"#utility.yul\":2661:2667   */\n      dup2\n        /* \"#utility.yul\":2655:2668   */\n      mload\n        /* \"#utility.yul\":2646:2668   */\n      swap1\n      pop\n        /* \"#utility.yul\":2677:2707   */\n      tag_432\n        /* \"#utility.yul\":2701:2706   */\n      dup2\n        /* \"#utility.yul\":2677:2707   */\n      tag_429\n      jump\t// in\n    tag_432:\n        /* \"#utility.yul\":2636:2713   */\n      swap3\n      swap2\n      pop\n      pop\n      jump\t// out\n        /* \"#utility.yul\":2719:2888   */\n    tag_433:\n      0x00\n        /* \"#utility.yul\":2818:2824   */\n      dup2\n        /* \"#utility.yul\":2805:2825   */\n      calldataload\n        /* \"#utility.yul\":2796:2825   */\n      swap1\n      pop\n        /* \"#utility.yul\":2834:2882   */\n      tag_435\n        /* \"#utility.yul\":2876:2881   */\n      dup2\n        /* \"#utility.yul\":2834:2882   */\n      tag_436\n      jump\t// in\n    tag_435:\n        /* \"#utility.yul\":2786:2888   */\n      swap3\n      swap2\n      pop\n      pop\n      jump\t// out\n        /* \"#utility.yul\":2894:3059   */\n    tag_437:\n      0x00\n        /* \"#utility.yul\":2991:2997   */\n      dup2\n        /* \"#utility.yul\":2978:2998   */\n      calldataload\n        /* \"#utility.yul\":2969:2998   */\n      swap1\n      pop\n        /* \"#utility.yul\":3007:3053   */\n      tag_439\n        /* \"#utility.yul\":3047:3052   */\n      dup2\n        /* \"#utility.yul\":3007:3053   */\n      tag_440\n      jump\t// in\n    tag_439:\n        /* \"#utility.yul\":2959:3059   */\n      swap3\n      swap2\n      pop\n      pop\n      jump\t// out\n        /* \"#utility.yul\":3065:3228   */\n    tag_441:\n      0x00\n        /* \"#utility.yul\":3161:3167   */\n      dup2\n        /* \"#utility.yul\":3148:3168   */\n      calldataload\n        /* \"#utility.yul\":3139:3168   */\n      swap1\n      pop\n        /* \"#utility.yul\":3177:3222   */\n      tag_443\n        /* \"#utility.yul\":3216:3221   */\n      dup2\n        /* \"#utility.yul\":3177:3222   */\n      tag_444\n      jump\t// in\n    tag_443:\n        /* \"#utility.yul\":3129:3228   */\n      swap3\n      swap2\n      pop\n      pop\n      jump\t// out\n        /* \"#utility.yul\":3234:3371   */\n    tag_394:\n      0x00\n        /* \"#utility.yul\":3317:3323   */\n      dup2\n        /* \"#utility.yul\":3304:3324   */\n      calldataload\n        /* \"#utility.yul\":3295:3324   */\n      swap1\n      pop\n        /* \"#utility.yul\":3333:3365   */\n      tag_446\n        /* \"#utility.yul\":3359:3364   */\n      dup2\n        /* \"#utility.yul\":3333:3365   */\n      tag_447\n      jump\t// in\n    tag_446:\n        /* \"#utility.yul\":3285:3371   */\n      swap3\n      swap2\n      pop\n      pop\n      jump\t// out\n        /* \"#utility.yul\":3391:3743   */\n    tag_448:\n      0x00\n      dup1\n        /* \"#utility.yul\":3509:3512   */\n      dup4\n        /* \"#utility.yul\":3502:3506   */\n      0x1f\n        /* \"#utility.yul\":3494:3500   */\n      dup5\n        /* \"#utility.yul\":3490:3507   */\n      add\n        /* \"#utility.yul\":3486:3513   */\n      slt\n        /* \"#utility.yul\":3476:3478   */\n      tag_450\n      jumpi\n        /* \"#utility.yul\":3527:3528   */\n      0x00\n        /* \"#utility.yul\":3524:3525   */\n      dup1\n        /* \"#utility.yul\":3517:3529   */\n      revert\n        /* \"#utility.yul\":3476:3478   */\n    tag_450:\n        /* \"#utility.yul\":3563:3569   */\n      dup3\n        /* \"#utility.yul\":3550:3570   */\n      calldataload\n        /* \"#utility.yul\":3540:3570   */\n      swap1\n      pop\n        /* \"#utility.yul\":3593:3611   */\n      0xffffffffffffffff\n        /* \"#utility.yul\":3585:3591   */\n      dup2\n        /* \"#utility.yul\":3582:3612   */\n      gt\n        /* \"#utility.yul\":3579:3581   */\n      iszero\n      tag_451\n      jumpi\n        /* \"#utility.yul\":3625:3626   */\n      0x00\n        /* \"#utility.yul\":3622:3623   */\n      dup1\n        /* \"#utility.yul\":3615:3627   */\n      revert\n        /* \"#utility.yul\":3579:3581   */\n    tag_451:\n        /* \"#utility.yul\":3662:3666   */\n      0x20\n        /* \"#utility.yul\":3654:3660   */\n      dup4\n        /* \"#utility.yul\":3650:3667   */\n      add\n        /* \"#utility.yul\":3638:3667   */\n      swap2\n      pop\n        /* \"#utility.yul\":3716:3719   */\n      dup4\n        /* \"#utility.yul\":3708:3712   */\n      0x01\n        /* \"#utility.yul\":3700:3706   */\n      dup3\n        /* \"#utility.yul\":3696:3713   */\n      mul\n        /* \"#utility.yul\":3686:3694   */\n      dup4\n        /* \"#utility.yul\":3682:3714   */\n      add\n        /* \"#utility.yul\":3679:3720   */\n      gt\n        /* \"#utility.yul\":3676:3678   */\n      iszero\n      tag_452\n      jumpi\n        /* \"#utility.yul\":3733:3734   */\n      0x00\n        /* \"#utility.yul\":3730:3731   */\n      dup1\n        /* \"#utility.yul\":3723:3735   */\n      revert\n        /* \"#utility.yul\":3676:3678   */\n    tag_452:\n        /* \"#utility.yul\":3466:3743   */\n      swap3\n      pop\n      swap3\n      swap1\n      pop\n      jump\t// out\n        /* \"#utility.yul\":3763:4036   */\n    tag_453:\n      0x00\n        /* \"#utility.yul\":3868:3871   */\n      dup3\n        /* \"#utility.yul\":3861:3865   */\n      0x1f\n        /* \"#utility.yul\":3853:3859   */\n      dup4\n        /* \"#utility.yul\":3849:3866   */\n      add\n        /* \"#utility.yul\":3845:3872   */\n      slt\n        /* \"#utility.yul\":3835:3837   */\n      tag_455\n      jumpi\n        /* \"#utility.yul\":3886:3887   */\n      0x00\n        /* \"#utility.yul\":3883:3884   */\n      dup1\n        /* \"#utility.yul\":3876:3888   */\n      revert\n        /* \"#utility.yul\":3835:3837   */\n    tag_455:\n        /* \"#utility.yul\":3926:3932   */\n      dup2\n        /* \"#utility.yul\":3913:3933   */\n      calldataload\n        /* \"#utility.yul\":3951:4030   */\n      tag_456\n        /* \"#utility.yul\":4026:4029   */\n      dup5\n        /* \"#utility.yul\":4018:4024   */\n      dup3\n        /* \"#utility.yul\":4011:4015   */\n      0x20\n        /* \"#utility.yul\":4003:4009   */\n      dup7\n        /* \"#utility.yul\":3999:4016   */\n      add\n        /* \"#utility.yul\":3951:4030   */\n      tag_406\n      jump\t// in\n    tag_456:\n        /* \"#utility.yul\":3942:4030   */\n      swap2\n      pop\n        /* \"#utility.yul\":3825:4036   */\n      pop\n      swap3\n      swap2\n      pop\n      pop\n      jump\t// out\n        /* \"#utility.yul\":4077:6116   */\n    tag_457:\n      0x00\n        /* \"#utility.yul\":4194:4200   */\n      0x0120\n        /* \"#utility.yul\":4182:4191   */\n      dup3\n        /* \"#utility.yul\":4177:4180   */\n      dup5\n        /* \"#utility.yul\":4173:4192   */\n      sub\n        /* \"#utility.yul\":4169:4201   */\n      slt\n        /* \"#utility.yul\":4166:4168   */\n      iszero\n      tag_459\n      jumpi\n        /* \"#utility.yul\":4214:4215   */\n      0x00\n        /* \"#utility.yul\":4211:4212   */\n      dup1\n        /* \"#utility.yul\":4204:4216   */\n      revert\n        /* \"#utility.yul\":4166:4168   */\n    tag_459:\n        /* \"#utility.yul\":4236:4258   */\n      tag_460\n        /* \"#utility.yul\":4251:4257   */\n      0x0120\n        /* \"#utility.yul\":4236:4258   */\n      tag_388\n      jump\t// in\n    tag_460:\n        /* \"#utility.yul\":4227:4258   */\n      swap1\n      pop\n        /* \"#utility.yul\":4320:4321   */\n      0x00\n        /* \"#utility.yul\":4360:4409   */\n      tag_461\n        /* \"#utility.yul\":4405:4408   */\n      dup5\n        /* \"#utility.yul\":4396:4402   */\n      dup3\n        /* \"#utility.yul\":4385:4394   */\n      dup6\n        /* \"#utility.yul\":4381:4403   */\n      add\n        /* \"#utility.yul\":4360:4409   */\n      tag_405\n      jump\t// in\n    tag_461:\n        /* \"#utility.yul\":4353:4357   */\n      0x00\n        /* \"#utility.yul\":4346:4351   */\n      dup4\n        /* \"#utility.yul\":4342:4358   */\n      add\n        /* \"#utility.yul\":4335:4410   */\n      mstore\n        /* \"#utility.yul\":4268:4421   */\n      pop\n        /* \"#utility.yul\":4487:4489   */\n      0x20\n        /* \"#utility.yul\":4528:4590   */\n      tag_462\n        /* \"#utility.yul\":4586:4589   */\n      dup5\n        /* \"#utility.yul\":4577:4583   */\n      dup3\n        /* \"#utility.yul\":4566:4575   */\n      dup6\n        /* \"#utility.yul\":4562:4584   */\n      add\n        /* \"#utility.yul\":4528:4590   */\n      tag_437\n      jump\t// in\n    tag_462:\n        /* \"#utility.yul\":4521:4525   */\n      0x20\n        /* \"#utility.yul\":4514:4519   */\n      dup4\n        /* \"#utility.yul\":4510:4526   */\n      add\n        /* \"#utility.yul\":4503:4591   */\n      mstore\n        /* \"#utility.yul\":4431:4602   */\n      pop\n        /* \"#utility.yul\":4662:4664   */\n      0x40\n        /* \"#utility.yul\":4703:4767   */\n      tag_463\n        /* \"#utility.yul\":4763:4766   */\n      dup5\n        /* \"#utility.yul\":4754:4760   */\n      dup3\n        /* \"#utility.yul\":4743:4752   */\n      dup6\n        /* \"#utility.yul\":4739:4761   */\n      add\n        /* \"#utility.yul\":4703:4767   */\n      tag_433\n      jump\t// in\n    tag_463:\n        /* \"#utility.yul\":4696:4700   */\n      0x40\n        /* \"#utility.yul\":4689:4694   */\n      dup4\n        /* \"#utility.yul\":4685:4701   */\n      add\n        /* \"#utility.yul\":4678:4768   */\n      mstore\n        /* \"#utility.yul\":4612:4779   */\n      pop\n        /* \"#utility.yul\":4843:4845   */\n      0x60\n        /* \"#utility.yul\":4884:4930   */\n      tag_464\n        /* \"#utility.yul\":4926:4929   */\n      dup5\n        /* \"#utility.yul\":4917:4923   */\n      dup3\n        /* \"#utility.yul\":4906:4915   */\n      dup6\n        /* \"#utility.yul\":4902:4924   */\n      add\n        /* \"#utility.yul\":4884:4930   */\n      tag_426\n      jump\t// in\n    tag_464:\n        /* \"#utility.yul\":4877:4881   */\n      0x60\n        /* \"#utility.yul\":4870:4875   */\n      dup4\n        /* \"#utility.yul\":4866:4882   */\n      add\n        /* \"#utility.yul\":4859:4931   */\n      mstore\n        /* \"#utility.yul\":4789:4942   */\n      pop\n        /* \"#utility.yul\":5003:5006   */\n      0x80\n        /* \"#utility.yul\":5045:5091   */\n      tag_465\n        /* \"#utility.yul\":5087:5090   */\n      dup5\n        /* \"#utility.yul\":5078:5084   */\n      dup3\n        /* \"#utility.yul\":5067:5076   */\n      dup6\n        /* \"#utility.yul\":5063:5085   */\n      add\n        /* \"#utility.yul\":5045:5091   */\n      tag_426\n      jump\t// in\n    tag_465:\n        /* \"#utility.yul\":5038:5042   */\n      0x80\n        /* \"#utility.yul\":5031:5036   */\n      dup4\n        /* \"#utility.yul\":5027:5043   */\n      add\n        /* \"#utility.yul\":5020:5092   */\n      mstore\n        /* \"#utility.yul\":4952:5103   */\n      pop\n        /* \"#utility.yul\":5166:5169   */\n      0xa0\n        /* \"#utility.yul\":5208:5269   */\n      tag_466\n        /* \"#utility.yul\":5265:5268   */\n      dup5\n        /* \"#utility.yul\":5256:5262   */\n      dup3\n        /* \"#utility.yul\":5245:5254   */\n      dup6\n        /* \"#utility.yul\":5241:5263   */\n      add\n        /* \"#utility.yul\":5208:5269   */\n      tag_441\n      jump\t// in\n    tag_466:\n        /* \"#utility.yul\":5201:5205   */\n      0xa0\n        /* \"#utility.yul\":5194:5199   */\n      dup4\n        /* \"#utility.yul\":5190:5206   */\n      add\n        /* \"#utility.yul\":5183:5270   */\n      mstore\n        /* \"#utility.yul\":5113:5281   */\n      pop\n        /* \"#utility.yul\":5379:5382   */\n      0xc0\n        /* \"#utility.yul\":5368:5377   */\n      dup3\n        /* \"#utility.yul\":5364:5383   */\n      add\n        /* \"#utility.yul\":5351:5384   */\n      calldataload\n        /* \"#utility.yul\":5411:5429   */\n      0xffffffffffffffff\n        /* \"#utility.yul\":5403:5409   */\n      dup2\n        /* \"#utility.yul\":5400:5430   */\n      gt\n        /* \"#utility.yul\":5397:5399   */\n      iszero\n      tag_467\n      jumpi\n        /* \"#utility.yul\":5443:5444   */\n      0x00\n        /* \"#utility.yul\":5440:5441   */\n      dup1\n        /* \"#utility.yul\":5433:5445   */\n      revert\n        /* \"#utility.yul\":5397:5399   */\n    tag_467:\n        /* \"#utility.yul\":5486:5545   */\n      tag_468\n        /* \"#utility.yul\":5541:5544   */\n      dup5\n        /* \"#utility.yul\":5532:5538   */\n      dup3\n        /* \"#utility.yul\":5521:5530   */\n      dup6\n        /* \"#utility.yul\":5517:5539   */\n      add\n        /* \"#utility.yul\":5486:5545   */\n      tag_453\n      jump\t// in\n    tag_468:\n        /* \"#utility.yul\":5479:5483   */\n      0xc0\n        /* \"#utility.yul\":5472:5477   */\n      dup4\n        /* \"#utility.yul\":5468:5484   */\n      add\n        /* \"#utility.yul\":5461:5546   */\n      mstore\n        /* \"#utility.yul\":5291:5557   */\n      pop\n        /* \"#utility.yul\":5647:5650   */\n      0xe0\n        /* \"#utility.yul\":5636:5645   */\n      dup3\n        /* \"#utility.yul\":5632:5651   */\n      add\n        /* \"#utility.yul\":5619:5652   */\n      calldataload\n        /* \"#utility.yul\":5679:5697   */\n      0xffffffffffffffff\n        /* \"#utility.yul\":5671:5677   */\n      dup2\n        /* \"#utility.yul\":5668:5698   */\n      gt\n        /* \"#utility.yul\":5665:5667   */\n      iszero\n      tag_469\n      jumpi\n        /* \"#utility.yul\":5711:5712   */\n      0x00\n        /* \"#utility.yul\":5708:5709   */\n      dup1\n        /* \"#utility.yul\":5701:5713   */\n      revert\n        /* \"#utility.yul\":5665:5667   */\n    tag_469:\n        /* \"#utility.yul\":5754:5813   */\n      tag_470\n        /* \"#utility.yul\":5809:5812   */\n      dup5\n        /* \"#utility.yul\":5800:5806   */\n      dup3\n        /* \"#utility.yul\":5789:5798   */\n      dup6\n        /* \"#utility.yul\":5785:5807   */\n      add\n        /* \"#utility.yul\":5754:5813   */\n      tag_453\n      jump\t// in\n    tag_470:\n        /* \"#utility.yul\":5747:5751   */\n      0xe0\n        /* \"#utility.yul\":5740:5745   */\n      dup4\n        /* \"#utility.yul\":5736:5752   */\n      add\n        /* \"#utility.yul\":5729:5814   */\n      mstore\n        /* \"#utility.yul\":5567:5825   */\n      pop\n        /* \"#utility.yul\":5915:5918   */\n      0x0100\n        /* \"#utility.yul\":5904:5913   */\n      dup3\n        /* \"#utility.yul\":5900:5919   */\n      add\n        /* \"#utility.yul\":5887:5920   */\n      calldataload\n        /* \"#utility.yul\":5947:5965   */\n      0xffffffffffffffff\n        /* \"#utility.yul\":5939:5945   */\n      dup2\n        /* \"#utility.yul\":5936:5966   */\n      gt\n        /* \"#utility.yul\":5933:5935   */\n      iszero\n      tag_471\n      jumpi\n        /* \"#utility.yul\":5979:5980   */\n      0x00\n        /* \"#utility.yul\":5976:5977   */\n      dup1\n        /* \"#utility.yul\":5969:5981   */\n      revert\n        /* \"#utility.yul\":5933:5935   */\n    tag_471:\n        /* \"#utility.yul\":6024:6097   */\n      tag_472\n        /* \"#utility.yul\":6093:6096   */\n      dup5\n        /* \"#utility.yul\":6084:6090   */\n      dup3\n        /* \"#utility.yul\":6073:6082   */\n      dup6\n        /* \"#utility.yul\":6069:6091   */\n      add\n        /* \"#utility.yul\":6024:6097   */\n      tag_418\n      jump\t// in\n    tag_472:\n        /* \"#utility.yul\":6015:6021   */\n      0x0100\n        /* \"#utility.yul\":6008:6013   */\n      dup4\n        /* \"#utility.yul\":6004:6022   */\n      add\n        /* \"#utility.yul\":5997:6098   */\n      mstore\n        /* \"#utility.yul\":5835:6109   */\n      pop\n        /* \"#utility.yul\":4156:6116   */\n      swap3\n      swap2\n      pop\n      pop\n      jump\t// out\n        /* \"#utility.yul\":6122:6261   */\n    tag_405:\n      0x00\n        /* \"#utility.yul\":6206:6212   */\n      dup2\n        /* \"#utility.yul\":6193:6213   */\n      calldataload\n        /* \"#utility.yul\":6184:6213   */\n      swap1\n      pop\n        /* \"#utility.yul\":6222:6255   */\n      tag_474\n        /* \"#utility.yul\":6249:6254   */\n      dup2\n        /* \"#utility.yul\":6222:6255   */\n      tag_475\n      jump\t// in\n    tag_474:\n        /* \"#utility.yul\":6174:6261   */\n      swap3\n      swap2\n      pop\n      pop\n      jump\t// out\n        /* \"#utility.yul\":6267:6410   */\n    tag_476:\n      0x00\n        /* \"#utility.yul\":6355:6361   */\n      dup2\n        /* \"#utility.yul\":6349:6362   */\n      mload\n        /* \"#utility.yul\":6340:6362   */\n      swap1\n      pop\n        /* \"#utility.yul\":6371:6404   */\n      tag_478\n        /* \"#utility.yul\":6398:6403   */\n      dup2\n        /* \"#utility.yul\":6371:6404   */\n      tag_475\n      jump\t// in\n    tag_478:\n        /* \"#utility.yul\":6330:6410   */\n      swap3\n      swap2\n      pop\n      pop\n      jump\t// out\n        /* \"#utility.yul\":6416:6694   */\n    tag_128:\n      0x00\n        /* \"#utility.yul\":6532:6534   */\n      0x20\n        /* \"#utility.yul\":6520:6529   */\n      dup3\n        /* \"#utility.yul\":6511:6518   */\n      dup5\n        /* \"#utility.yul\":6507:6530   */\n      sub\n        /* \"#utility.yul\":6503:6535   */\n      slt\n        /* \"#utility.yul\":6500:6502   */\n      iszero\n      tag_480\n      jumpi\n        /* \"#utility.yul\":6548:6549   */\n      0x00\n        /* \"#utility.yul\":6545:6546   */\n      dup1\n        /* \"#utility.yul\":6538:6550   */\n      revert\n        /* \"#utility.yul\":6500:6502   */\n    tag_480:\n        /* \"#utility.yul\":6591:6592   */\n      0x00\n        /* \"#utility.yul\":6616:6677   */\n      tag_481\n        /* \"#utility.yul\":6669:6676   */\n      dup5\n        /* \"#utility.yul\":6660:6666   */\n      dup3\n        /* \"#utility.yul\":6649:6658   */\n      dup6\n        /* \"#utility.yul\":6645:6667   */\n      add\n        /* \"#utility.yul\":6616:6677   */\n      tag_430\n      jump\t// in\n    tag_481:\n        /* \"#utility.yul\":6606:6677   */\n      swap2\n      pop\n        /* \"#utility.yul\":6562:6687   */\n      pop\n        /* \"#utility.yul\":6490:6694   */\n      swap3\n      swap2\n      pop\n      pop\n      jump\t// out\n        /* \"#utility.yul\":6700:7415   */\n    tag_95:\n      0x00\n      dup1\n      0x00\n        /* \"#utility.yul\":6877:6879   */\n      0x60\n        /* \"#utility.yul\":6865:6874   */\n      dup5\n        /* \"#utility.yul\":6856:6863   */\n      dup7\n        /* \"#utility.yul\":6852:6875   */\n      sub\n        /* \"#utility.yul\":6848:6880   */\n      slt\n        /* \"#utility.yul\":6845:6847   */\n      iszero\n      tag_483\n      jumpi\n        /* \"#utility.yul\":6893:6894   */\n      0x00\n        /* \"#utility.yul\":6890:6891   */\n      dup1\n        /* \"#utility.yul\":6883:6895   */\n      revert\n        /* \"#utility.yul\":6845:6847   */\n    tag_483:\n        /* \"#utility.yul\":6936:6937   */\n      0x00\n        /* \"#utility.yul\":6961:7013   */\n      tag_484\n        /* \"#utility.yul\":7005:7012   */\n      dup7\n        /* \"#utility.yul\":6996:7002   */\n      dup3\n        /* \"#utility.yul\":6985:6994   */\n      dup8\n        /* \"#utility.yul\":6981:7003   */\n      add\n        /* \"#utility.yul\":6961:7013   */\n      tag_394\n      jump\t// in\n    tag_484:\n        /* \"#utility.yul\":6951:7013   */\n      swap4\n      pop\n        /* \"#utility.yul\":6907:7023   */\n      pop\n        /* \"#utility.yul\":7090:7092   */\n      0x20\n        /* \"#utility.yul\":7079:7088   */\n      dup5\n        /* \"#utility.yul\":7075:7093   */\n      add\n        /* \"#utility.yul\":7062:7094   */\n      calldataload\n        /* \"#utility.yul\":7121:7139   */\n      0xffffffffffffffff\n        /* \"#utility.yul\":7113:7119   */\n      dup2\n        /* \"#utility.yul\":7110:7140   */\n      gt\n        /* \"#utility.yul\":7107:7109   */\n      iszero\n      tag_485\n      jumpi\n        /* \"#utility.yul\":7153:7154   */\n      0x00\n        /* \"#utility.yul\":7150:7151   */\n      dup1\n        /* \"#utility.yul\":7143:7155   */\n      revert\n        /* \"#utility.yul\":7107:7109   */\n    tag_485:\n        /* \"#utility.yul\":7181:7258   */\n      tag_486\n        /* \"#utility.yul\":7250:7257   */\n      dup7\n        /* \"#utility.yul\":7241:7247   */\n      dup3\n        /* \"#utility.yul\":7230:7239   */\n      dup8\n        /* \"#utility.yul\":7226:7248   */\n      add\n        /* \"#utility.yul\":7181:7258   */\n      tag_418\n      jump\t// in\n    tag_486:\n        /* \"#utility.yul\":7171:7258   */\n      swap3\n      pop\n        /* \"#utility.yul\":7033:7268   */\n      pop\n        /* \"#utility.yul\":7307:7309   */\n      0x40\n        /* \"#utility.yul\":7333:7398   */\n      tag_487\n        /* \"#utility.yul\":7390:7397   */\n      dup7\n        /* \"#utility.yul\":7381:7387   */\n      dup3\n        /* \"#utility.yul\":7370:7379   */\n      dup8\n        /* \"#utility.yul\":7366:7388   */\n      add\n        /* \"#utility.yul\":7333:7398   */\n      tag_441\n      jump\t// in\n    tag_487:\n        /* \"#utility.yul\":7323:7398   */\n      swap2\n      pop\n        /* \"#utility.yul\":7278:7408   */\n      pop\n        /* \"#utility.yul\":6835:7415   */\n      swap3\n      pop\n      swap3\n      pop\n      swap3\n      jump\t// out\n        /* \"#utility.yul\":7421:7816   */\n    tag_69:\n      0x00\n      dup1\n        /* \"#utility.yul\":7549:7551   */\n      0x20\n        /* \"#utility.yul\":7537:7546   */\n      dup4\n        /* \"#utility.yul\":7528:7535   */\n      dup6\n        /* \"#utility.yul\":7524:7547   */\n      sub\n        /* \"#utility.yul\":7520:7552   */\n      slt\n        /* \"#utility.yul\":7517:7519   */\n      iszero\n      tag_489\n      jumpi\n        /* \"#utility.yul\":7565:7566   */\n      0x00\n        /* \"#utility.yul\":7562:7563   */\n      dup1\n        /* \"#utility.yul\":7555:7567   */\n      revert\n        /* \"#utility.yul\":7517:7519   */\n    tag_489:\n        /* \"#utility.yul\":7636:7637   */\n      0x00\n        /* \"#utility.yul\":7625:7634   */\n      dup4\n        /* \"#utility.yul\":7621:7638   */\n      add\n        /* \"#utility.yul\":7608:7639   */\n      calldataload\n        /* \"#utility.yul\":7666:7684   */\n      0xffffffffffffffff\n        /* \"#utility.yul\":7658:7664   */\n      dup2\n        /* \"#utility.yul\":7655:7685   */\n      gt\n        /* \"#utility.yul\":7652:7654   */\n      iszero\n      tag_490\n      jumpi\n        /* \"#utility.yul\":7698:7699   */\n      0x00\n        /* \"#utility.yul\":7695:7696   */\n      dup1\n        /* \"#utility.yul\":7688:7700   */\n      revert\n        /* \"#utility.yul\":7652:7654   */\n    tag_490:\n        /* \"#utility.yul\":7734:7799   */\n      tag_491\n        /* \"#utility.yul\":7791:7798   */\n      dup6\n        /* \"#utility.yul\":7782:7788   */\n      dup3\n        /* \"#utility.yul\":7771:7780   */\n      dup7\n        /* \"#utility.yul\":7767:7789   */\n      add\n        /* \"#utility.yul\":7734:7799   */\n      tag_448\n      jump\t// in\n    tag_491:\n        /* \"#utility.yul\":7716:7799   */\n      swap3\n      pop\n      swap3\n      pop\n        /* \"#utility.yul\":7579:7809   */\n      pop\n        /* \"#utility.yul\":7507:7816   */\n      swap3\n      pop\n      swap3\n      swap1\n      pop\n      jump\t// out\n        /* \"#utility.yul\":7822:8360   */\n    tag_43:\n      0x00\n      dup1\n      0x00\n        /* \"#utility.yul\":7966:7968   */\n      0x40\n        /* \"#utility.yul\":7954:7963   */\n      dup5\n        /* \"#utility.yul\":7945:7952   */\n      dup7\n        /* \"#utility.yul\":7941:7964   */\n      sub\n        /* \"#utility.yul\":7937:7969   */\n      slt\n        /* \"#utility.yul\":7934:7936   */\n      iszero\n      tag_493\n      jumpi\n        /* \"#utility.yul\":7982:7983   */\n      0x00\n        /* \"#utility.yul\":7979:7980   */\n      dup1\n        /* \"#utility.yul\":7972:7984   */\n      revert\n        /* \"#utility.yul\":7934:7936   */\n    tag_493:\n        /* \"#utility.yul\":8053:8054   */\n      0x00\n        /* \"#utility.yul\":8042:8051   */\n      dup5\n        /* \"#utility.yul\":8038:8055   */\n      add\n        /* \"#utility.yul\":8025:8056   */\n      calldataload\n        /* \"#utility.yul\":8083:8101   */\n      0xffffffffffffffff\n        /* \"#utility.yul\":8075:8081   */\n      dup2\n        /* \"#utility.yul\":8072:8102   */\n      gt\n        /* \"#utility.yul\":8069:8071   */\n      iszero\n      tag_494\n      jumpi\n        /* \"#utility.yul\":8115:8116   */\n      0x00\n        /* \"#utility.yul\":8112:8113   */\n      dup1\n        /* \"#utility.yul\":8105:8117   */\n      revert\n        /* \"#utility.yul\":8069:8071   */\n    tag_494:\n        /* \"#utility.yul\":8151:8216   */\n      tag_495\n        /* \"#utility.yul\":8208:8215   */\n      dup7\n        /* \"#utility.yul\":8199:8205   */\n      dup3\n        /* \"#utility.yul\":8188:8197   */\n      dup8\n        /* \"#utility.yul\":8184:8206   */\n      add\n        /* \"#utility.yul\":8151:8216   */\n      tag_448\n      jump\t// in\n    tag_495:\n        /* \"#utility.yul\":8133:8216   */\n      swap4\n      pop\n      swap4\n      pop\n        /* \"#utility.yul\":7996:8226   */\n      pop\n        /* \"#utility.yul\":8265:8267   */\n      0x20\n        /* \"#utility.yul\":8291:8343   */\n      tag_496\n        /* \"#utility.yul\":8335:8342   */\n      dup7\n        /* \"#utility.yul\":8326:8332   */\n      dup3\n        /* \"#utility.yul\":8315:8324   */\n      dup8\n        /* \"#utility.yul\":8311:8333   */\n      add\n        /* \"#utility.yul\":8291:8343   */\n      tag_394\n      jump\t// in\n    tag_496:\n        /* \"#utility.yul\":8281:8343   */\n      swap2\n      pop\n        /* \"#utility.yul\":8236:8353   */\n      pop\n        /* \"#utility.yul\":7924:8360   */\n      swap3\n      pop\n      swap3\n      pop\n      swap3\n      jump\t// out\n        /* \"#utility.yul\":8366:9039   */\n    tag_108:\n      0x00\n      dup1\n      0x00\n      dup1\n        /* \"#utility.yul\":8531:8533   */\n      0x40\n        /* \"#utility.yul\":8519:8528   */\n      dup6\n        /* \"#utility.yul\":8510:8517   */\n      dup8\n        /* \"#utility.yul\":8506:8529   */\n      sub\n        /* \"#utility.yul\":8502:8534   */\n      slt\n        /* \"#utility.yul\":8499:8501   */\n      iszero\n      tag_498\n      jumpi\n        /* \"#utility.yul\":8547:8548   */\n      0x00\n        /* \"#utility.yul\":8544:8545   */\n      dup1\n        /* \"#utility.yul\":8537:8549   */\n      revert\n        /* \"#utility.yul\":8499:8501   */\n    tag_498:\n        /* \"#utility.yul\":8618:8619   */\n      0x00\n        /* \"#utility.yul\":8607:8616   */\n      dup6\n        /* \"#utility.yul\":8603:8620   */\n      add\n        /* \"#utility.yul\":8590:8621   */\n      calldataload\n        /* \"#utility.yul\":8648:8666   */\n      0xffffffffffffffff\n        /* \"#utility.yul\":8640:8646   */\n      dup2\n        /* \"#utility.yul\":8637:8667   */\n      gt\n        /* \"#utility.yul\":8634:8636   */\n      iszero\n      tag_499\n      jumpi\n        /* \"#utility.yul\":8680:8681   */\n      0x00\n        /* \"#utility.yul\":8677:8678   */\n      dup1\n        /* \"#utility.yul\":8670:8682   */\n      revert\n        /* \"#utility.yul\":8634:8636   */\n    tag_499:\n        /* \"#utility.yul\":8716:8781   */\n      tag_500\n        /* \"#utility.yul\":8773:8780   */\n      dup8\n        /* \"#utility.yul\":8764:8770   */\n      dup3\n        /* \"#utility.yul\":8753:8762   */\n      dup9\n        /* \"#utility.yul\":8749:8771   */\n      add\n        /* \"#utility.yul\":8716:8781   */\n      tag_448\n      jump\t// in\n    tag_500:\n        /* \"#utility.yul\":8698:8781   */\n      swap5\n      pop\n      swap5\n      pop\n        /* \"#utility.yul\":8561:8791   */\n      pop\n        /* \"#utility.yul\":8858:8860   */\n      0x20\n        /* \"#utility.yul\":8847:8856   */\n      dup6\n        /* \"#utility.yul\":8843:8861   */\n      add\n        /* \"#utility.yul\":8830:8862   */\n      calldataload\n        /* \"#utility.yul\":8889:8907   */\n      0xffffffffffffffff\n        /* \"#utility.yul\":8881:8887   */\n      dup2\n        /* \"#utility.yul\":8878:8908   */\n      gt\n        /* \"#utility.yul\":8875:8877   */\n      iszero\n      tag_501\n      jumpi\n        /* \"#utility.yul\":8921:8922   */\n      0x00\n        /* \"#utility.yul\":8918:8919   */\n      dup1\n        /* \"#utility.yul\":8911:8923   */\n      revert\n        /* \"#utility.yul\":8875:8877   */\n    tag_501:\n        /* \"#utility.yul\":8957:9022   */\n      tag_502\n        /* \"#utility.yul\":9014:9021   */\n      dup8\n        /* \"#utility.yul\":9005:9011   */\n      dup3\n        /* \"#utility.yul\":8994:9003   */\n      dup9\n        /* \"#utility.yul\":8990:9012   */\n      add\n        /* \"#utility.yul\":8957:9022   */\n      tag_448\n      jump\t// in\n    tag_502:\n        /* \"#utility.yul\":8939:9022   */\n      swap3\n      pop\n      swap3\n      pop\n        /* \"#utility.yul\":8801:9032   */\n      pop\n        /* \"#utility.yul\":8489:9039   */\n      swap3\n      swap6\n      swap2\n      swap5\n      pop\n      swap3\n      pop\n      jump\t// out\n        /* \"#utility.yul\":9045:9420   */\n    tag_37:\n      0x00\n        /* \"#utility.yul\":9163:9165   */\n      0x20\n        /* \"#utility.yul\":9151:9160   */\n      dup3\n        /* \"#utility.yul\":9142:9149   */\n      dup5\n        /* \"#utility.yul\":9138:9161   */\n      sub\n        /* \"#utility.yul\":9134:9166   */\n      slt\n        /* \"#utility.yul\":9131:9133   */\n      iszero\n      tag_504\n      jumpi\n        /* \"#utility.yul\":9179:9180   */\n      0x00\n        /* \"#utility.yul\":9176:9177   */\n      dup1\n        /* \"#utility.yul\":9169:9181   */\n      revert\n        /* \"#utility.yul\":9131:9133   */\n    tag_504:\n        /* \"#utility.yul\":9250:9251   */\n      0x00\n        /* \"#utility.yul\":9239:9248   */\n      dup3\n        /* \"#utility.yul\":9235:9252   */\n      add\n        /* \"#utility.yul\":9222:9253   */\n      calldataload\n        /* \"#utility.yul\":9280:9298   */\n      0xffffffffffffffff\n        /* \"#utility.yul\":9272:9278   */\n      dup2\n        /* \"#utility.yul\":9269:9299   */\n      gt\n        /* \"#utility.yul\":9266:9268   */\n      iszero\n      tag_505\n      jumpi\n        /* \"#utility.yul\":9312:9313   */\n      0x00\n        /* \"#utility.yul\":9309:9310   */\n      dup1\n        /* \"#utility.yul\":9302:9314   */\n      revert\n        /* \"#utility.yul\":9266:9268   */\n    tag_505:\n        /* \"#utility.yul\":9340:9403   */\n      tag_506\n        /* \"#utility.yul\":9395:9402   */\n      dup5\n        /* \"#utility.yul\":9386:9392   */\n      dup3\n        /* \"#utility.yul\":9375:9384   */\n      dup6\n        /* \"#utility.yul\":9371:9393   */\n      add\n        /* \"#utility.yul\":9340:9403   */\n      tag_453\n      jump\t// in\n    tag_506:\n        /* \"#utility.yul\":9330:9403   */\n      swap2\n      pop\n        /* \"#utility.yul\":9193:9413   */\n      pop\n        /* \"#utility.yul\":9121:9420   */\n      swap3\n      swap2\n      pop\n      pop\n      jump\t// out\n        /* \"#utility.yul\":9426:9829   */\n    tag_27:\n      0x00\n        /* \"#utility.yul\":9558:9560   */\n      0x20\n        /* \"#utility.yul\":9546:9555   */\n      dup3\n        /* \"#utility.yul\":9537:9544   */\n      dup5\n        /* \"#utility.yul\":9533:9556   */\n      sub\n        /* \"#utility.yul\":9529:9561   */\n      slt\n        /* \"#utility.yul\":9526:9528   */\n      iszero\n      tag_508\n      jumpi\n        /* \"#utility.yul\":9574:9575   */\n      0x00\n        /* \"#utility.yul\":9571:9572   */\n      dup1\n        /* \"#utility.yul\":9564:9576   */\n      revert\n        /* \"#utility.yul\":9526:9528   */\n    tag_508:\n        /* \"#utility.yul\":9645:9646   */\n      0x00\n        /* \"#utility.yul\":9634:9643   */\n      dup3\n        /* \"#utility.yul\":9630:9647   */\n      add\n        /* \"#utility.yul\":9617:9648   */\n      calldataload\n        /* \"#utility.yul\":9675:9693   */\n      0xffffffffffffffff\n        /* \"#utility.yul\":9667:9673   */\n      dup2\n        /* \"#utility.yul\":9664:9694   */\n      gt\n        /* \"#utility.yul\":9661:9663   */\n      iszero\n      tag_509\n      jumpi\n        /* \"#utility.yul\":9707:9708   */\n      0x00\n        /* \"#utility.yul\":9704:9705   */\n      dup1\n        /* \"#utility.yul\":9697:9709   */\n      revert\n        /* \"#utility.yul\":9661:9663   */\n    tag_509:\n        /* \"#utility.yul\":9735:9812   */\n      tag_510\n        /* \"#utility.yul\":9804:9811   */\n      dup5\n        /* \"#utility.yul\":9795:9801   */\n      dup3\n        /* \"#utility.yul\":9784:9793   */\n      dup6\n        /* \"#utility.yul\":9780:9802   */\n      add\n        /* \"#utility.yul\":9735:9812   */\n      tag_457\n      jump\t// in\n    tag_510:\n        /* \"#utility.yul\":9725:9812   */\n      swap2\n      pop\n        /* \"#utility.yul\":9588:9822   */\n      pop\n        /* \"#utility.yul\":9516:9829   */\n      swap3\n      swap2\n      pop\n      pop\n      jump\t// out\n        /* \"#utility.yul\":9835:10097   */\n    tag_51:\n      0x00\n        /* \"#utility.yul\":9943:9945   */\n      0x20\n        /* \"#utility.yul\":9931:9940   */\n      dup3\n        /* \"#utility.yul\":9922:9929   */\n      dup5\n        /* \"#utility.yul\":9918:9941   */\n      sub\n        /* \"#utility.yul\":9914:9946   */\n      slt\n        /* \"#utility.yul\":9911:9913   */\n      iszero\n      tag_512\n      jumpi\n        /* \"#utility.yul\":9959:9960   */\n      0x00\n        /* \"#utility.yul\":9956:9957   */\n      dup1\n        /* \"#utility.yul\":9949:9961   */\n      revert\n        /* \"#utility.yul\":9911:9913   */\n    tag_512:\n        /* \"#utility.yul\":10002:10003   */\n      0x00\n        /* \"#utility.yul\":10027:10080   */\n      tag_513\n        /* \"#utility.yul\":10072:10079   */\n      dup5\n        /* \"#utility.yul\":10063:10069   */\n      dup3\n        /* \"#utility.yul\":10052:10061   */\n      dup6\n        /* \"#utility.yul\":10048:10070   */\n      add\n        /* \"#utility.yul\":10027:10080   */\n      tag_405\n      jump\t// in\n    tag_513:\n        /* \"#utility.yul\":10017:10080   */\n      swap2\n      pop\n        /* \"#utility.yul\":9973:10090   */\n      pop\n        /* \"#utility.yul\":9901:10097   */\n      swap3\n      swap2\n      pop\n      pop\n      jump\t// out\n        /* \"#utility.yul\":10103:10387   */\n    tag_182:\n      0x00\n        /* \"#utility.yul\":10222:10224   */\n      0x20\n        /* \"#utility.yul\":10210:10219   */\n      dup3\n        /* \"#utility.yul\":10201:10208   */\n      dup5\n        /* \"#utility.yul\":10197:10220   */\n      sub\n        /* \"#utility.yul\":10193:10225   */\n      slt\n        /* \"#utility.yul\":10190:10192   */\n      iszero\n      tag_515\n      jumpi\n        /* \"#utility.yul\":10238:10239   */\n      0x00\n        /* \"#utility.yul\":10235:10236   */\n      dup1\n        /* \"#utility.yul\":10228:10240   */\n      revert\n        /* \"#utility.yul\":10190:10192   */\n    tag_515:\n        /* \"#utility.yul\":10281:10282   */\n      0x00\n        /* \"#utility.yul\":10306:10370   */\n      tag_516\n        /* \"#utility.yul\":10362:10369   */\n      dup5\n        /* \"#utility.yul\":10353:10359   */\n      dup3\n        /* \"#utility.yul\":10342:10351   */\n      dup6\n        /* \"#utility.yul\":10338:10360   */\n      add\n        /* \"#utility.yul\":10306:10370   */\n      tag_476\n      jump\t// in\n    tag_516:\n        /* \"#utility.yul\":10296:10370   */\n      swap2\n      pop\n        /* \"#utility.yul\":10252:10380   */\n      pop\n        /* \"#utility.yul\":10180:10387   */\n      swap3\n      swap2\n      pop\n      pop\n      jump\t// out\n        /* \"#utility.yul\":10393:11808   */\n    tag_33:\n      0x00\n      dup1\n      0x00\n      dup1\n      0x00\n      dup1\n        /* \"#utility.yul\":10659:10662   */\n      0xc0\n        /* \"#utility.yul\":10647:10656   */\n      dup8\n        /* \"#utility.yul\":10638:10645   */\n      dup10\n        /* \"#utility.yul\":10634:10657   */\n      sub\n        /* \"#utility.yul\":10630:10663   */\n      slt\n        /* \"#utility.yul\":10627:10629   */\n      iszero\n      tag_518\n      jumpi\n        /* \"#utility.yul\":10676:10677   */\n      0x00\n        /* \"#utility.yul\":10673:10674   */\n      dup1\n        /* \"#utility.yul\":10666:10678   */\n      revert\n        /* \"#utility.yul\":10627:10629   */\n    tag_518:\n        /* \"#utility.yul\":10719:10720   */\n      0x00\n        /* \"#utility.yul\":10744:10797   */\n      tag_519\n        /* \"#utility.yul\":10789:10796   */\n      dup10\n        /* \"#utility.yul\":10780:10786   */\n      dup3\n        /* \"#utility.yul\":10769:10778   */\n      dup11\n        /* \"#utility.yul\":10765:10787   */\n      add\n        /* \"#utility.yul\":10744:10797   */\n      tag_405\n      jump\t// in\n    tag_519:\n        /* \"#utility.yul\":10734:10797   */\n      swap7\n      pop\n        /* \"#utility.yul\":10690:10807   */\n      pop\n        /* \"#utility.yul\":10874:10876   */\n      0x20\n        /* \"#utility.yul\":10863:10872   */\n      dup8\n        /* \"#utility.yul\":10859:10877   */\n      add\n        /* \"#utility.yul\":10846:10878   */\n      calldataload\n        /* \"#utility.yul\":10905:10923   */\n      0xffffffffffffffff\n        /* \"#utility.yul\":10897:10903   */\n      dup2\n        /* \"#utility.yul\":10894:10924   */\n      gt\n        /* \"#utility.yul\":10891:10893   */\n      iszero\n      tag_520\n      jumpi\n        /* \"#utility.yul\":10937:10938   */\n      0x00\n        /* \"#utility.yul\":10934:10935   */\n      dup1\n        /* \"#utility.yul\":10927:10939   */\n      revert\n        /* \"#utility.yul\":10891:10893   */\n    tag_520:\n        /* \"#utility.yul\":10965:11028   */\n      tag_521\n        /* \"#utility.yul\":11020:11027   */\n      dup10\n        /* \"#utility.yul\":11011:11017   */\n      dup3\n        /* \"#utility.yul\":11000:11009   */\n      dup11\n        /* \"#utility.yul\":10996:11018   */\n      add\n        /* \"#utility.yul\":10965:11028   */\n      tag_453\n      jump\t// in\n    tag_521:\n        /* \"#utility.yul\":10955:11028   */\n      swap6\n      pop\n        /* \"#utility.yul\":10817:11038   */\n      pop\n        /* \"#utility.yul\":11077:11079   */\n      0x40\n        /* \"#utility.yul\":11103:11156   */\n      tag_522\n        /* \"#utility.yul\":11148:11155   */\n      dup10\n        /* \"#utility.yul\":11139:11145   */\n      dup3\n        /* \"#utility.yul\":11128:11137   */\n      dup11\n        /* \"#utility.yul\":11124:11146   */\n      add\n        /* \"#utility.yul\":11103:11156   */\n      tag_414\n      jump\t// in\n    tag_522:\n        /* \"#utility.yul\":11093:11156   */\n      swap5\n      pop\n        /* \"#utility.yul\":11048:11166   */\n      pop\n        /* \"#utility.yul\":11205:11207   */\n      0x60\n        /* \"#utility.yul\":11231:11297   */\n      tag_523\n        /* \"#utility.yul\":11289:11296   */\n      dup10\n        /* \"#utility.yul\":11280:11286   */\n      dup3\n        /* \"#utility.yul\":11269:11278   */\n      dup11\n        /* \"#utility.yul\":11265:11287   */\n      add\n        /* \"#utility.yul\":11231:11297   */\n      tag_437\n      jump\t// in\n    tag_523:\n        /* \"#utility.yul\":11221:11297   */\n      swap4\n      pop\n        /* \"#utility.yul\":11176:11307   */\n      pop\n        /* \"#utility.yul\":11374:11377   */\n      0x80\n        /* \"#utility.yul\":11363:11372   */\n      dup8\n        /* \"#utility.yul\":11359:11378   */\n      add\n        /* \"#utility.yul\":11346:11379   */\n      calldataload\n        /* \"#utility.yul\":11406:11424   */\n      0xffffffffffffffff\n        /* \"#utility.yul\":11398:11404   */\n      dup2\n        /* \"#utility.yul\":11395:11425   */\n      gt\n        /* \"#utility.yul\":11392:11394   */\n      iszero\n      tag_524\n      jumpi\n        /* \"#utility.yul\":11438:11439   */\n      0x00\n        /* \"#utility.yul\":11435:11436   */\n      dup1\n        /* \"#utility.yul\":11428:11440   */\n      revert\n        /* \"#utility.yul\":11392:11394   */\n    tag_524:\n        /* \"#utility.yul\":11466:11544   */\n      tag_525\n        /* \"#utility.yul\":11536:11543   */\n      dup10\n        /* \"#utility.yul\":11527:11533   */\n      dup3\n        /* \"#utility.yul\":11516:11525   */\n      dup11\n        /* \"#utility.yul\":11512:11534   */\n      add\n        /* \"#utility.yul\":11466:11544   */\n      tag_422\n      jump\t// in\n    tag_525:\n        /* \"#utility.yul\":11456:11544   */\n      swap3\n      pop\n        /* \"#utility.yul\":11317:11554   */\n      pop\n        /* \"#utility.yul\":11621:11624   */\n      0xa0\n        /* \"#utility.yul\":11610:11619   */\n      dup8\n        /* \"#utility.yul\":11606:11625   */\n      add\n        /* \"#utility.yul\":11593:11626   */\n      calldataload\n        /* \"#utility.yul\":11653:11671   */\n      0xffffffffffffffff\n        /* \"#utility.yul\":11645:11651   */\n      dup2\n        /* \"#utility.yul\":11642:11672   */\n      gt\n        /* \"#utility.yul\":11639:11641   */\n      iszero\n      tag_526\n      jumpi\n        /* \"#utility.yul\":11685:11686   */\n      0x00\n        /* \"#utility.yul\":11682:11683   */\n      dup1\n        /* \"#utility.yul\":11675:11687   */\n      revert\n        /* \"#utility.yul\":11639:11641   */\n    tag_526:\n        /* \"#utility.yul\":11713:11791   */\n      tag_527\n        /* \"#utility.yul\":11783:11790   */\n      dup10\n        /* \"#utility.yul\":11774:11780   */\n      dup3\n        /* \"#utility.yul\":11763:11772   */\n      dup11\n        /* \"#utility.yul\":11759:11781   */\n      add\n        /* \"#utility.yul\":11713:11791   */\n      tag_422\n      jump\t// in\n    tag_527:\n        /* \"#utility.yul\":11703:11791   */\n      swap2\n      pop\n        /* \"#utility.yul\":11564:11801   */\n      pop\n        /* \"#utility.yul\":10617:11808   */\n      swap3\n      swap6\n      pop\n      swap3\n      swap6\n      pop\n      swap3\n      swap6\n      jump\t// out\n        /* \"#utility.yul\":11814:13516   */\n    tag_104:\n      0x00\n      dup1\n      0x00\n      dup1\n      0x00\n      dup1\n      0x00\n        /* \"#utility.yul\":12121:12124   */\n      0xe0\n        /* \"#utility.yul\":12109:12118   */\n      dup9\n        /* \"#utility.yul\":12100:12107   */\n      dup11\n        /* \"#utility.yul\":12096:12119   */\n      sub\n        /* \"#utility.yul\":12092:12125   */\n      slt\n        /* \"#utility.yul\":12089:12091   */\n      iszero\n      tag_529\n      jumpi\n        /* \"#utility.yul\":12138:12139   */\n      0x00\n        /* \"#utility.yul\":12135:12136   */\n      dup1\n        /* \"#utility.yul\":12128:12140   */\n      revert\n        /* \"#utility.yul\":12089:12091   */\n    tag_529:\n        /* \"#utility.yul\":12181:12182   */\n      0x00\n        /* \"#utility.yul\":12206:12259   */\n      tag_530\n        /* \"#utility.yul\":12251:12258   */\n      dup11\n        /* \"#utility.yul\":12242:12248   */\n      dup3\n        /* \"#utility.yul\":12231:12240   */\n      dup12\n        /* \"#utility.yul\":12227:12249   */\n      add\n        /* \"#utility.yul\":12206:12259   */\n      tag_405\n      jump\t// in\n    tag_530:\n        /* \"#utility.yul\":12196:12259   */\n      swap8\n      pop\n        /* \"#utility.yul\":12152:12269   */\n      pop\n        /* \"#utility.yul\":12336:12338   */\n      0x20\n        /* \"#utility.yul\":12325:12334   */\n      dup9\n        /* \"#utility.yul\":12321:12339   */\n      add\n        /* \"#utility.yul\":12308:12340   */\n      calldataload\n        /* \"#utility.yul\":12367:12385   */\n      0xffffffffffffffff\n        /* \"#utility.yul\":12359:12365   */\n      dup2\n        /* \"#utility.yul\":12356:12386   */\n      gt\n        /* \"#utility.yul\":12353:12355   */\n      iszero\n      tag_531\n      jumpi\n        /* \"#utility.yul\":12399:12400   */\n      0x00\n        /* \"#utility.yul\":12396:12397   */\n      dup1\n        /* \"#utility.yul\":12389:12401   */\n      revert\n        /* \"#utility.yul\":12353:12355   */\n    tag_531:\n        /* \"#utility.yul\":12427:12490   */\n      tag_532\n        /* \"#utility.yul\":12482:12489   */\n      dup11\n        /* \"#utility.yul\":12473:12479   */\n      dup3\n        /* \"#utility.yul\":12462:12471   */\n      dup12\n        /* \"#utility.yul\":12458:12480   */\n      add\n        /* \"#utility.yul\":12427:12490   */\n      tag_453\n      jump\t// in\n    tag_532:\n        /* \"#utility.yul\":12417:12490   */\n      swap7\n      pop\n        /* \"#utility.yul\":12279:12500   */\n      pop\n        /* \"#utility.yul\":12539:12541   */\n      0x40\n        /* \"#utility.yul\":12565:12618   */\n      tag_533\n        /* \"#utility.yul\":12610:12617   */\n      dup11\n        /* \"#utility.yul\":12601:12607   */\n      dup3\n        /* \"#utility.yul\":12590:12599   */\n      dup12\n        /* \"#utility.yul\":12586:12608   */\n      add\n        /* \"#utility.yul\":12565:12618   */\n      tag_414\n      jump\t// in\n    tag_533:\n        /* \"#utility.yul\":12555:12618   */\n      swap6\n      pop\n        /* \"#utility.yul\":12510:12628   */\n      pop\n        /* \"#utility.yul\":12667:12669   */\n      0x60\n        /* \"#utility.yul\":12693:12759   */\n      tag_534\n        /* \"#utility.yul\":12751:12758   */\n      dup11\n        /* \"#utility.yul\":12742:12748   */\n      dup3\n        /* \"#utility.yul\":12731:12740   */\n      dup12\n        /* \"#utility.yul\":12727:12749   */\n      add\n        /* \"#utility.yul\":12693:12759   */\n      tag_437\n      jump\t// in\n    tag_534:\n        /* \"#utility.yul\":12683:12759   */\n      swap5\n      pop\n        /* \"#utility.yul\":12638:12769   */\n      pop\n        /* \"#utility.yul\":12836:12839   */\n      0x80\n        /* \"#utility.yul\":12825:12834   */\n      dup9\n        /* \"#utility.yul\":12821:12840   */\n      add\n        /* \"#utility.yul\":12808:12841   */\n      calldataload\n        /* \"#utility.yul\":12868:12886   */\n      0xffffffffffffffff\n        /* \"#utility.yul\":12860:12866   */\n      dup2\n        /* \"#utility.yul\":12857:12887   */\n      gt\n        /* \"#utility.yul\":12854:12856   */\n      iszero\n      tag_535\n      jumpi\n        /* \"#utility.yul\":12900:12901   */\n      0x00\n        /* \"#utility.yul\":12897:12898   */\n      dup1\n        /* \"#utility.yul\":12890:12902   */\n      revert\n        /* \"#utility.yul\":12854:12856   */\n    tag_535:\n        /* \"#utility.yul\":12928:13006   */\n      tag_536\n        /* \"#utility.yul\":12998:13005   */\n      dup11\n        /* \"#utility.yul\":12989:12995   */\n      dup3\n        /* \"#utility.yul\":12978:12987   */\n      dup12\n        /* \"#utility.yul\":12974:12996   */\n      add\n        /* \"#utility.yul\":12928:13006   */\n      tag_422\n      jump\t// in\n    tag_536:\n        /* \"#utility.yul\":12918:13006   */\n      swap4\n      pop\n        /* \"#utility.yul\":12779:13016   */\n      pop\n        /* \"#utility.yul\":13083:13086   */\n      0xa0\n        /* \"#utility.yul\":13072:13081   */\n      dup9\n        /* \"#utility.yul\":13068:13087   */\n      add\n        /* \"#utility.yul\":13055:13088   */\n      calldataload\n        /* \"#utility.yul\":13115:13133   */\n      0xffffffffffffffff\n        /* \"#utility.yul\":13107:13113   */\n      dup2\n        /* \"#utility.yul\":13104:13134   */\n      gt\n        /* \"#utility.yul\":13101:13103   */\n      iszero\n      tag_537\n      jumpi\n        /* \"#utility.yul\":13147:13148   */\n      0x00\n        /* \"#utility.yul\":13144:13145   */\n      dup1\n        /* \"#utility.yul\":13137:13149   */\n      revert\n        /* \"#utility.yul\":13101:13103   */\n    tag_537:\n        /* \"#utility.yul\":13175:13253   */\n      tag_538\n        /* \"#utility.yul\":13245:13252   */\n      dup11\n        /* \"#utility.yul\":13236:13242   */\n      dup3\n        /* \"#utility.yul\":13225:13234   */\n      dup12\n        /* \"#utility.yul\":13221:13243   */\n      add\n        /* \"#utility.yul\":13175:13253   */\n      tag_422\n      jump\t// in\n    tag_538:\n        /* \"#utility.yul\":13165:13253   */\n      swap3\n      pop\n        /* \"#utility.yul\":13026:13263   */\n      pop\n        /* \"#utility.yul\":13330:13333   */\n      0xc0\n        /* \"#utility.yul\":13319:13328   */\n      dup9\n        /* \"#utility.yul\":13315:13334   */\n      add\n        /* \"#utility.yul\":13302:13335   */\n      calldataload\n        /* \"#utility.yul\":13362:13380   */\n      0xffffffffffffffff\n        /* \"#utility.yul\":13354:13360   */\n      dup2\n        /* \"#utility.yul\":13351:13381   */\n      gt\n        /* \"#utility.yul\":13348:13350   */\n      iszero\n      tag_539\n      jumpi\n        /* \"#utility.yul\":13394:13395   */\n      0x00\n        /* \"#utility.yul\":13391:13392   */\n      dup1\n        /* \"#utility.yul\":13384:13396   */\n      revert\n        /* \"#utility.yul\":13348:13350   */\n    tag_539:\n        /* \"#utility.yul\":13422:13499   */\n      tag_540\n        /* \"#utility.yul\":13491:13498   */\n      dup11\n        /* \"#utility.yul\":13482:13488   */\n      dup3\n        /* \"#utility.yul\":13471:13480   */\n      dup12\n        /* \"#utility.yul\":13467:13489   */\n      add\n        /* \"#utility.yul\":13422:13499   */\n      tag_457\n      jump\t// in\n    tag_540:\n        /* \"#utility.yul\":13412:13499   */\n      swap2\n      pop\n        /* \"#utility.yul\":13273:13509   */\n      pop\n        /* \"#utility.yul\":12079:13516   */\n      swap3\n      swap6\n      swap9\n      swap2\n      swap5\n      swap8\n      pop\n      swap3\n      swap6\n      pop\n      jump\t// out\n        /* \"#utility.yul\":13522:13713   */\n    tag_541:\n      0x00\n        /* \"#utility.yul\":13618:13670   */\n      tag_543\n        /* \"#utility.yul\":13666:13669   */\n      dup4\n        /* \"#utility.yul\":13658:13664   */\n      dup4\n        /* \"#utility.yul\":13618:13670   */\n      tag_544\n      jump\t// in\n    tag_543:\n        /* \"#utility.yul\":13702:13706   */\n      0x20\n        /* \"#utility.yul\":13697:13700   */\n      dup4\n        /* \"#utility.yul\":13693:13707   */\n      add\n        /* \"#utility.yul\":13679:13707   */\n      swap1\n      pop\n        /* \"#utility.yul\":13608:13713   */\n      swap3\n      swap2\n      pop\n      pop\n      jump\t// out\n        /* \"#utility.yul\":13719:13915   */\n    tag_545:\n      0x00\n        /* \"#utility.yul\":13843:13909   */\n      tag_547\n        /* \"#utility.yul\":13905:13908   */\n      dup4\n        /* \"#utility.yul\":13897:13903   */\n      dup4\n        /* \"#utility.yul\":13843:13909   */\n      tag_548\n      jump\t// in\n    tag_547:\n        /* \"#utility.yul\":13829:13909   */\n      swap1\n      pop\n        /* \"#utility.yul\":13819:13915   */\n      swap3\n      swap2\n      pop\n      pop\n      jump\t// out\n        /* \"#utility.yul\":13921:14100   */\n    tag_549:\n      0x00\n        /* \"#utility.yul\":14011:14057   */\n      tag_551\n        /* \"#utility.yul\":14053:14056   */\n      dup4\n        /* \"#utility.yul\":14045:14051   */\n      dup4\n        /* \"#utility.yul\":14011:14057   */\n      tag_552\n      jump\t// in\n    tag_551:\n        /* \"#utility.yul\":14089:14093   */\n      0x20\n        /* \"#utility.yul\":14084:14087   */\n      dup4\n        /* \"#utility.yul\":14080:14094   */\n      add\n        /* \"#utility.yul\":14066:14094   */\n      swap1\n      pop\n        /* \"#utility.yul\":14001:14100   */\n      swap3\n      swap2\n      pop\n      pop\n      jump\t// out\n        /* \"#utility.yul\":14106:14224   */\n    tag_553:\n        /* \"#utility.yul\":14193:14217   */\n      tag_555\n        /* \"#utility.yul\":14211:14216   */\n      dup2\n        /* \"#utility.yul\":14193:14217   */\n      tag_556\n      jump\t// in\n    tag_555:\n        /* \"#utility.yul\":14188:14191   */\n      dup3\n        /* \"#utility.yul\":14181:14218   */\n      mstore\n        /* \"#utility.yul\":14171:14224   */\n      pop\n      pop\n      jump\t// out\n        /* \"#utility.yul\":14258:15006   */\n    tag_557:\n      0x00\n        /* \"#utility.yul\":14412:14465   */\n      tag_559\n        /* \"#utility.yul\":14459:14464   */\n      dup3\n        /* \"#utility.yul\":14412:14465   */\n      tag_560\n      jump\t// in\n    tag_559:\n        /* \"#utility.yul\":14481:14574   */\n      tag_561\n        /* \"#utility.yul\":14567:14573   */\n      dup2\n        /* \"#utility.yul\":14562:14565   */\n      dup6\n        /* \"#utility.yul\":14481:14574   */\n      tag_562\n      jump\t// in\n    tag_561:\n        /* \"#utility.yul\":14474:14574   */\n      swap4\n      pop\n        /* \"#utility.yul\":14598:14653   */\n      tag_563\n        /* \"#utility.yul\":14647:14652   */\n      dup4\n        /* \"#utility.yul\":14598:14653   */\n      tag_564\n      jump\t// in\n    tag_563:\n        /* \"#utility.yul\":14676:14683   */\n      dup1\n        /* \"#utility.yul\":14707:14708   */\n      0x00\n        /* \"#utility.yul\":14692:14981   */\n    tag_565:\n        /* \"#utility.yul\":14717:14723   */\n      dup4\n        /* \"#utility.yul\":14714:14715   */\n      dup2\n        /* \"#utility.yul\":14711:14724   */\n      lt\n        /* \"#utility.yul\":14692:14981   */\n      iszero\n      tag_567\n      jumpi\n        /* \"#utility.yul\":14793:14799   */\n      dup2\n        /* \"#utility.yul\":14787:14800   */\n      mload\n        /* \"#utility.yul\":14820:14889   */\n      tag_568\n        /* \"#utility.yul\":14885:14888   */\n      dup9\n        /* \"#utility.yul\":14870:14883   */\n      dup3\n        /* \"#utility.yul\":14820:14889   */\n      tag_541\n      jump\t// in\n    tag_568:\n        /* \"#utility.yul\":14813:14889   */\n      swap8\n      pop\n        /* \"#utility.yul\":14912:14971   */\n      tag_569\n        /* \"#utility.yul\":14964:14970   */\n      dup4\n        /* \"#utility.yul\":14912:14971   */\n      tag_570\n      jump\t// in\n    tag_569:\n        /* \"#utility.yul\":14902:14971   */\n      swap3\n      pop\n        /* \"#utility.yul\":14752:14981   */\n      pop\n        /* \"#utility.yul\":14739:14740   */\n      0x01\n        /* \"#utility.yul\":14736:14737   */\n      dup2\n        /* \"#utility.yul\":14732:14741   */\n      add\n        /* \"#utility.yul\":14727:14741   */\n      swap1\n      pop\n        /* \"#utility.yul\":14692:14981   */\n      jump(tag_565)\n    tag_567:\n        /* \"#utility.yul\":14696:14710   */\n      pop\n        /* \"#utility.yul\":14997:15000   */\n      dup6\n        /* \"#utility.yul\":14990:15000   */\n      swap4\n      pop\n        /* \"#utility.yul\":14388:15006   */\n      pop\n      pop\n      pop\n      swap3\n      swap2\n      pop\n      pop\n      jump\t// out\n        /* \"#utility.yul\":15040:16031   */\n    tag_571:\n      0x00\n        /* \"#utility.yul\":15208:15272   */\n      tag_573\n        /* \"#utility.yul\":15266:15271   */\n      dup3\n        /* \"#utility.yul\":15208:15272   */\n      tag_574\n      jump\t// in\n    tag_573:\n        /* \"#utility.yul\":15288:15384   */\n      tag_575\n        /* \"#utility.yul\":15377:15383   */\n      dup2\n        /* \"#utility.yul\":15372:15375   */\n      dup6\n        /* \"#utility.yul\":15288:15384   */\n      tag_576\n      jump\t// in\n    tag_575:\n        /* \"#utility.yul\":15281:15384   */\n      swap4\n      pop\n        /* \"#utility.yul\":15410:15413   */\n      dup4\n        /* \"#utility.yul\":15455:15459   */\n      0x20\n        /* \"#utility.yul\":15447:15453   */\n      dup3\n        /* \"#utility.yul\":15443:15460   */\n      mul\n        /* \"#utility.yul\":15438:15441   */\n      dup6\n        /* \"#utility.yul\":15434:15461   */\n      add\n        /* \"#utility.yul\":15485:15551   */\n      tag_577\n        /* \"#utility.yul\":15545:15550   */\n      dup6\n        /* \"#utility.yul\":15485:15551   */\n      tag_578\n      jump\t// in\n    tag_577:\n        /* \"#utility.yul\":15574:15581   */\n      dup1\n        /* \"#utility.yul\":15605:15606   */\n      0x00\n        /* \"#utility.yul\":15590:15986   */\n    tag_579:\n        /* \"#utility.yul\":15615:15621   */\n      dup6\n        /* \"#utility.yul\":15612:15613   */\n      dup2\n        /* \"#utility.yul\":15609:15622   */\n      lt\n        /* \"#utility.yul\":15590:15986   */\n      iszero\n      tag_581\n      jumpi\n        /* \"#utility.yul\":15686:15695   */\n      dup5\n        /* \"#utility.yul\":15680:15684   */\n      dup5\n        /* \"#utility.yul\":15676:15696   */\n      sub\n        /* \"#utility.yul\":15671:15674   */\n      dup10\n        /* \"#utility.yul\":15664:15697   */\n      mstore\n        /* \"#utility.yul\":15737:15743   */\n      dup2\n        /* \"#utility.yul\":15731:15744   */\n      mload\n        /* \"#utility.yul\":15765:15849   */\n      tag_582\n        /* \"#utility.yul\":15844:15848   */\n      dup6\n        /* \"#utility.yul\":15829:15842   */\n      dup3\n        /* \"#utility.yul\":15765:15849   */\n      tag_545\n      jump\t// in\n    tag_582:\n        /* \"#utility.yul\":15757:15849   */\n      swap5\n      pop\n        /* \"#utility.yul\":15872:15942   */\n      tag_583\n        /* \"#utility.yul\":15935:15941   */\n      dup4\n        /* \"#utility.yul\":15872:15942   */\n      tag_584\n      jump\t// in\n    tag_583:\n        /* \"#utility.yul\":15862:15942   */\n      swap3\n      pop\n        /* \"#utility.yul\":15971:15975   */\n      0x20\n        /* \"#utility.yul\":15966:15969   */\n      dup11\n        /* \"#utility.yul\":15962:15976   */\n      add\n        /* \"#utility.yul\":15955:15976   */\n      swap10\n      pop\n        /* \"#utility.yul\":15650:15986   */\n      pop\n        /* \"#utility.yul\":15637:15638   */\n      0x01\n        /* \"#utility.yul\":15634:15635   */\n      dup2\n        /* \"#utility.yul\":15630:15639   */\n      add\n        /* \"#utility.yul\":15625:15639   */\n      swap1\n      pop\n        /* \"#utility.yul\":15590:15986   */\n      jump(tag_579)\n    tag_581:\n        /* \"#utility.yul\":15594:15608   */\n      pop\n        /* \"#utility.yul\":16002:16006   */\n      dup3\n        /* \"#utility.yul\":15995:16006   */\n      swap8\n      pop\n        /* \"#utility.yul\":16022:16025   */\n      dup8\n        /* \"#utility.yul\":16015:16025   */\n      swap6\n      pop\n        /* \"#utility.yul\":15184:16031   */\n      pop\n      pop\n      pop\n      pop\n      pop\n      swap3\n      swap2\n      pop\n      pop\n      jump\t// out\n        /* \"#utility.yul\":16067:16799   */\n    tag_585:\n      0x00\n        /* \"#utility.yul\":16215:16269   */\n      tag_587\n        /* \"#utility.yul\":16263:16268   */\n      dup3\n        /* \"#utility.yul\":16215:16269   */\n      tag_588\n      jump\t// in\n    tag_587:\n        /* \"#utility.yul\":16285:16371   */\n      tag_589\n        /* \"#utility.yul\":16364:16370   */\n      dup2\n        /* \"#utility.yul\":16359:16362   */\n      dup6\n        /* \"#utility.yul\":16285:16371   */\n      tag_590\n      jump\t// in\n    tag_589:\n        /* \"#utility.yul\":16278:16371   */\n      swap4\n      pop\n        /* \"#utility.yul\":16395:16451   */\n      tag_591\n        /* \"#utility.yul\":16445:16450   */\n      dup4\n        /* \"#utility.yul\":16395:16451   */\n      tag_592\n      jump\t// in\n    tag_591:\n        /* \"#utility.yul\":16474:16481   */\n      dup1\n        /* \"#utility.yul\":16505:16506   */\n      0x00\n        /* \"#utility.yul\":16490:16774   */\n    tag_593:\n        /* \"#utility.yul\":16515:16521   */\n      dup4\n        /* \"#utility.yul\":16512:16513   */\n      dup2\n        /* \"#utility.yul\":16509:16522   */\n      lt\n        /* \"#utility.yul\":16490:16774   */\n      iszero\n      tag_595\n      jumpi\n        /* \"#utility.yul\":16591:16597   */\n      dup2\n        /* \"#utility.yul\":16585:16598   */\n      mload\n        /* \"#utility.yul\":16618:16681   */\n      tag_596\n        /* \"#utility.yul\":16677:16680   */\n      dup9\n        /* \"#utility.yul\":16662:16675   */\n      dup3\n        /* \"#utility.yul\":16618:16681   */\n      tag_549\n      jump\t// in\n    tag_596:\n        /* \"#utility.yul\":16611:16681   */\n      swap8\n      pop\n        /* \"#utility.yul\":16704:16764   */\n      tag_597\n        /* \"#utility.yul\":16757:16763   */\n      dup4\n        /* \"#utility.yul\":16704:16764   */\n      tag_598\n      jump\t// in\n    tag_597:\n        /* \"#utility.yul\":16694:16764   */\n      swap3\n      pop\n        /* \"#utility.yul\":16550:16774   */\n      pop\n        /* \"#utility.yul\":16537:16538   */\n      0x01\n        /* \"#utility.yul\":16534:16535   */\n      dup2\n        /* \"#utility.yul\":16530:16539   */\n      add\n        /* \"#utility.yul\":16525:16539   */\n      swap1\n      pop\n        /* \"#utility.yul\":16490:16774   */\n      jump(tag_593)\n    tag_595:\n        /* \"#utility.yul\":16494:16508   */\n      pop\n        /* \"#utility.yul\":16790:16793   */\n      dup6\n        /* \"#utility.yul\":16783:16793   */\n      swap4\n      pop\n        /* \"#utility.yul\":16191:16799   */\n      pop\n      pop\n      pop\n      swap3\n      swap2\n      pop\n      pop\n      jump\t// out\n        /* \"#utility.yul\":16805:16914   */\n    tag_599:\n        /* \"#utility.yul\":16886:16907   */\n      tag_601\n        /* \"#utility.yul\":16901:16906   */\n      dup2\n        /* \"#utility.yul\":16886:16907   */\n      tag_602\n      jump\t// in\n    tag_601:\n        /* \"#utility.yul\":16881:16884   */\n      dup3\n        /* \"#utility.yul\":16874:16908   */\n      mstore\n        /* \"#utility.yul\":16864:16914   */\n      pop\n      pop\n      jump\t// out\n        /* \"#utility.yul\":16920:17073   */\n    tag_603:\n        /* \"#utility.yul\":17018:17066   */\n      tag_605\n        /* \"#utility.yul\":17060:17065   */\n      dup2\n        /* \"#utility.yul\":17018:17066   */\n      tag_606\n      jump\t// in\n    tag_605:\n        /* \"#utility.yul\":17013:17016   */\n      dup3\n        /* \"#utility.yul\":17006:17067   */\n      mstore\n        /* \"#utility.yul\":16996:17073   */\n      pop\n      pop\n      jump\t// out\n        /* \"#utility.yul\":17079:17238   */\n    tag_607:\n        /* \"#utility.yul\":17184:17231   */\n      tag_609\n        /* \"#utility.yul\":17225:17230   */\n      dup2\n        /* \"#utility.yul\":17184:17231   */\n      tag_610\n      jump\t// in\n    tag_609:\n        /* \"#utility.yul\":17179:17182   */\n      dup3\n        /* \"#utility.yul\":17172:17232   */\n      mstore\n        /* \"#utility.yul\":17162:17238   */\n      pop\n      pop\n      jump\t// out\n        /* \"#utility.yul\":17244:17359   */\n    tag_611:\n        /* \"#utility.yul\":17329:17352   */\n      tag_613\n        /* \"#utility.yul\":17346:17351   */\n      dup2\n        /* \"#utility.yul\":17329:17352   */\n      tag_614\n      jump\t// in\n    tag_613:\n        /* \"#utility.yul\":17324:17327   */\n      dup3\n        /* \"#utility.yul\":17317:17353   */\n      mstore\n        /* \"#utility.yul\":17307:17359   */\n      pop\n      pop\n      jump\t// out\n        /* \"#utility.yul\":17365:17488   */\n    tag_615:\n        /* \"#utility.yul\":17458:17481   */\n      tag_617\n        /* \"#utility.yul\":17475:17480   */\n      dup2\n        /* \"#utility.yul\":17458:17481   */\n      tag_614\n      jump\t// in\n    tag_617:\n        /* \"#utility.yul\":17453:17456   */\n      dup3\n        /* \"#utility.yul\":17446:17482   */\n      mstore\n        /* \"#utility.yul\":17436:17488   */\n      pop\n      pop\n      jump\t// out\n        /* \"#utility.yul\":17494:17607   */\n    tag_544:\n        /* \"#utility.yul\":17577:17600   */\n      tag_619\n        /* \"#utility.yul\":17594:17599   */\n      dup2\n        /* \"#utility.yul\":17577:17600   */\n      tag_614\n      jump\t// in\n    tag_619:\n        /* \"#utility.yul\":17572:17575   */\n      dup3\n        /* \"#utility.yul\":17565:17601   */\n      mstore\n        /* \"#utility.yul\":17555:17607   */\n      pop\n      pop\n      jump\t// out\n        /* \"#utility.yul\":17637:17954   */\n    tag_620:\n      0x00\n        /* \"#utility.yul\":17774:17863   */\n      tag_622\n        /* \"#utility.yul\":17856:17862   */\n      dup4\n        /* \"#utility.yul\":17851:17854   */\n      dup6\n        /* \"#utility.yul\":17774:17863   */\n      tag_623\n      jump\t// in\n    tag_622:\n        /* \"#utility.yul\":17767:17863   */\n      swap4\n      pop\n        /* \"#utility.yul\":17873:17916   */\n      tag_624\n        /* \"#utility.yul\":17909:17915   */\n      dup4\n        /* \"#utility.yul\":17904:17907   */\n      dup6\n        /* \"#utility.yul\":17897:17902   */\n      dup5\n        /* \"#utility.yul\":17873:17916   */\n      tag_413\n      jump\t// in\n    tag_624:\n        /* \"#utility.yul\":17941:17947   */\n      dup3\n        /* \"#utility.yul\":17936:17939   */\n      dup5\n        /* \"#utility.yul\":17932:17948   */\n      add\n        /* \"#utility.yul\":17925:17948   */\n      swap1\n      pop\n        /* \"#utility.yul\":17757:17954   */\n      swap4\n      swap3\n      pop\n      pop\n      pop\n      jump\t// out\n        /* \"#utility.yul\":17960:18304   */\n    tag_548:\n      0x00\n        /* \"#utility.yul\":18066:18105   */\n      tag_626\n        /* \"#utility.yul\":18099:18104   */\n      dup3\n        /* \"#utility.yul\":18066:18105   */\n      tag_627\n      jump\t// in\n    tag_626:\n        /* \"#utility.yul\":18121:18182   */\n      tag_628\n        /* \"#utility.yul\":18175:18181   */\n      dup2\n        /* \"#utility.yul\":18170:18173   */\n      dup6\n        /* \"#utility.yul\":18121:18182   */\n      tag_629\n      jump\t// in\n    tag_628:\n        /* \"#utility.yul\":18114:18182   */\n      swap4\n      pop\n        /* \"#utility.yul\":18191:18243   */\n      tag_630\n        /* \"#utility.yul\":18236:18242   */\n      dup2\n        /* \"#utility.yul\":18231:18234   */\n      dup6\n        /* \"#utility.yul\":18224:18228   */\n      0x20\n        /* \"#utility.yul\":18217:18222   */\n      dup7\n        /* \"#utility.yul\":18213:18229   */\n      add\n        /* \"#utility.yul\":18191:18243   */\n      tag_631\n      jump\t// in\n    tag_630:\n        /* \"#utility.yul\":18268:18297   */\n      tag_632\n        /* \"#utility.yul\":18290:18296   */\n      dup2\n        /* \"#utility.yul\":18268:18297   */\n      tag_633\n      jump\t// in\n    tag_632:\n        /* \"#utility.yul\":18263:18266   */\n      dup5\n        /* \"#utility.yul\":18259:18298   */\n      add\n        /* \"#utility.yul\":18252:18298   */\n      swap2\n      pop\n        /* \"#utility.yul\":18042:18304   */\n      pop\n      swap3\n      swap2\n      pop\n      pop\n      jump\t// out\n        /* \"#utility.yul\":18310:18674   */\n    tag_634:\n      0x00\n        /* \"#utility.yul\":18426:18465   */\n      tag_636\n        /* \"#utility.yul\":18459:18464   */\n      dup3\n        /* \"#utility.yul\":18426:18465   */\n      tag_627\n      jump\t// in\n    tag_636:\n        /* \"#utility.yul\":18481:18552   */\n      tag_637\n        /* \"#utility.yul\":18545:18551   */\n      dup2\n        /* \"#utility.yul\":18540:18543   */\n      dup6\n        /* \"#utility.yul\":18481:18552   */\n      tag_638\n      jump\t// in\n    tag_637:\n        /* \"#utility.yul\":18474:18552   */\n      swap4\n      pop\n        /* \"#utility.yul\":18561:18613   */\n      tag_639\n        /* \"#utility.yul\":18606:18612   */\n      dup2\n        /* \"#utility.yul\":18601:18604   */\n      dup6\n        /* \"#utility.yul\":18594:18598   */\n      0x20\n        /* \"#utility.yul\":18587:18592   */\n      dup7\n        /* \"#utility.yul\":18583:18599   */\n      add\n        /* \"#utility.yul\":18561:18613   */\n      tag_631\n      jump\t// in\n    tag_639:\n        /* \"#utility.yul\":18638:18667   */\n      tag_640\n        /* \"#utility.yul\":18660:18666   */\n      dup2\n        /* \"#utility.yul\":18638:18667   */\n      tag_633\n      jump\t// in\n    tag_640:\n        /* \"#utility.yul\":18633:18636   */\n      dup5\n        /* \"#utility.yul\":18629:18668   */\n      add\n        /* \"#utility.yul\":18622:18668   */\n      swap2\n      pop\n        /* \"#utility.yul\":18402:18674   */\n      pop\n      swap3\n      swap2\n      pop\n      pop\n      jump\t// out\n        /* \"#utility.yul\":18680:19060   */\n    tag_641:\n      0x00\n        /* \"#utility.yul\":18804:18843   */\n      tag_643\n        /* \"#utility.yul\":18837:18842   */\n      dup3\n        /* \"#utility.yul\":18804:18843   */\n      tag_627\n      jump\t// in\n    tag_643:\n        /* \"#utility.yul\":18859:18938   */\n      tag_644\n        /* \"#utility.yul\":18931:18937   */\n      dup2\n        /* \"#utility.yul\":18926:18929   */\n      dup6\n        /* \"#utility.yul\":18859:18938   */\n      tag_645\n      jump\t// in\n    tag_644:\n        /* \"#utility.yul\":18852:18938   */\n      swap4\n      pop\n        /* \"#utility.yul\":18947:18999   */\n      tag_646\n        /* \"#utility.yul\":18992:18998   */\n      dup2\n        /* \"#utility.yul\":18987:18990   */\n      dup6\n        /* \"#utility.yul\":18980:18984   */\n      0x20\n        /* \"#utility.yul\":18973:18978   */\n      dup7\n        /* \"#utility.yul\":18969:18985   */\n      add\n        /* \"#utility.yul\":18947:18999   */\n      tag_631\n      jump\t// in\n    tag_646:\n        /* \"#utility.yul\":19024:19053   */\n      tag_647\n        /* \"#utility.yul\":19046:19052   */\n      dup2\n        /* \"#utility.yul\":19024:19053   */\n      tag_633\n      jump\t// in\n    tag_647:\n        /* \"#utility.yul\":19019:19022   */\n      dup5\n        /* \"#utility.yul\":19015:19054   */\n      add\n        /* \"#utility.yul\":19008:19054   */\n      swap2\n      pop\n        /* \"#utility.yul\":18780:19060   */\n      pop\n      swap3\n      swap2\n      pop\n      pop\n      jump\t// out\n        /* \"#utility.yul\":19066:19443   */\n    tag_648:\n      0x00\n        /* \"#utility.yul\":19200:19239   */\n      tag_650\n        /* \"#utility.yul\":19233:19238   */\n      dup3\n        /* \"#utility.yul\":19200:19239   */\n      tag_627\n      jump\t// in\n    tag_650:\n        /* \"#utility.yul\":19255:19344   */\n      tag_651\n        /* \"#utility.yul\":19337:19343   */\n      dup2\n        /* \"#utility.yul\":19332:19335   */\n      dup6\n        /* \"#utility.yul\":19255:19344   */\n      tag_623\n      jump\t// in\n    tag_651:\n        /* \"#utility.yul\":19248:19344   */\n      swap4\n      pop\n        /* \"#utility.yul\":19353:19405   */\n      tag_652\n        /* \"#utility.yul\":19398:19404   */\n      dup2\n        /* \"#utility.yul\":19393:19396   */\n      dup6\n        /* \"#utility.yul\":19386:19390   */\n      0x20\n        /* \"#utility.yul\":19379:19384   */\n      dup7\n        /* \"#utility.yul\":19375:19391   */\n      add\n        /* \"#utility.yul\":19353:19405   */\n      tag_631\n      jump\t// in\n    tag_652:\n        /* \"#utility.yul\":19430:19436   */\n      dup1\n        /* \"#utility.yul\":19425:19428   */\n      dup5\n        /* \"#utility.yul\":19421:19437   */\n      add\n        /* \"#utility.yul\":19414:19437   */\n      swap2\n      pop\n        /* \"#utility.yul\":19176:19443   */\n      pop\n      swap3\n      swap2\n      pop\n      pop\n      jump\t// out\n        /* \"#utility.yul\":19473:20275   */\n    tag_653:\n      0x00\n        /* \"#utility.yul\":19595:19600   */\n      dup2\n        /* \"#utility.yul\":19589:19601   */\n      sload\n        /* \"#utility.yul\":19624:19660   */\n      tag_655\n        /* \"#utility.yul\":19650:19659   */\n      dup2\n        /* \"#utility.yul\":19624:19660   */\n      tag_117\n      jump\t// in\n    tag_655:\n        /* \"#utility.yul\":19676:19747   */\n      tag_656\n        /* \"#utility.yul\":19740:19746   */\n      dup2\n        /* \"#utility.yul\":19735:19738   */\n      dup7\n        /* \"#utility.yul\":19676:19747   */\n      tag_638\n      jump\t// in\n    tag_656:\n        /* \"#utility.yul\":19669:19747   */\n      swap5\n      pop\n        /* \"#utility.yul\":19778:19779   */\n      0x01\n        /* \"#utility.yul\":19767:19776   */\n      dup3\n        /* \"#utility.yul\":19763:19780   */\n      and\n        /* \"#utility.yul\":19794:19795   */\n      0x00\n        /* \"#utility.yul\":19789:19924   */\n      dup2\n      eq\n      tag_658\n      jumpi\n        /* \"#utility.yul\":19938:19939   */\n      0x01\n        /* \"#utility.yul\":19933:20269   */\n      dup2\n      eq\n      tag_659\n      jumpi\n        /* \"#utility.yul\":19756:20269   */\n      jump(tag_657)\n        /* \"#utility.yul\":19789:19924   */\n    tag_658:\n        /* \"#utility.yul\":19873:19877   */\n      0xff\n        /* \"#utility.yul\":19869:19878   */\n      not\n        /* \"#utility.yul\":19858:19867   */\n      dup4\n        /* \"#utility.yul\":19854:19879   */\n      and\n        /* \"#utility.yul\":19849:19852   */\n      dup7\n        /* \"#utility.yul\":19842:19880   */\n      mstore\n        /* \"#utility.yul\":19909:19913   */\n      0x20\n        /* \"#utility.yul\":19904:19907   */\n      dup7\n        /* \"#utility.yul\":19900:19914   */\n      add\n        /* \"#utility.yul\":19893:19914   */\n      swap4\n      pop\n        /* \"#utility.yul\":19789:19924   */\n      jump(tag_657)\n        /* \"#utility.yul\":19933:20269   */\n    tag_659:\n        /* \"#utility.yul\":20000:20038   */\n      tag_660\n        /* \"#utility.yul\":20032:20037   */\n      dup6\n        /* \"#utility.yul\":20000:20038   */\n      tag_661\n      jump\t// in\n    tag_660:\n        /* \"#utility.yul\":20060:20061   */\n      0x00\n        /* \"#utility.yul\":20074:20228   */\n    tag_662:\n        /* \"#utility.yul\":20088:20094   */\n      dup4\n        /* \"#utility.yul\":20085:20086   */\n      dup2\n        /* \"#utility.yul\":20082:20095   */\n      lt\n        /* \"#utility.yul\":20074:20228   */\n      iszero\n      tag_664\n      jumpi\n        /* \"#utility.yul\":20162:20169   */\n      dup2\n        /* \"#utility.yul\":20156:20170   */\n      sload\n        /* \"#utility.yul\":20152:20153   */\n      dup2\n        /* \"#utility.yul\":20147:20150   */\n      dup10\n        /* \"#utility.yul\":20143:20154   */\n      add\n        /* \"#utility.yul\":20136:20171   */\n      mstore\n        /* \"#utility.yul\":20212:20213   */\n      0x01\n        /* \"#utility.yul\":20203:20210   */\n      dup3\n        /* \"#utility.yul\":20199:20214   */\n      add\n        /* \"#utility.yul\":20188:20214   */\n      swap2\n      pop\n        /* \"#utility.yul\":20110:20114   */\n      0x20\n        /* \"#utility.yul\":20107:20108   */\n      dup2\n        /* \"#utility.yul\":20103:20115   */\n      add\n        /* \"#utility.yul\":20098:20115   */\n      swap1\n      pop\n        /* \"#utility.yul\":20074:20228   */\n      jump(tag_662)\n    tag_664:\n        /* \"#utility.yul\":20257:20258   */\n      dup1\n        /* \"#utility.yul\":20252:20255   */\n      dup9\n        /* \"#utility.yul\":20248:20259   */\n      add\n        /* \"#utility.yul\":20241:20259   */\n      swap6\n      pop\n        /* \"#utility.yul\":19940:20269   */\n      pop\n      pop\n        /* \"#utility.yul\":19756:20269   */\n    tag_657:\n      pop\n        /* \"#utility.yul\":19562:20275   */\n      pop\n      pop\n      swap3\n      swap2\n      pop\n      pop\n      jump\t// out\n        /* \"#utility.yul\":20281:20611   */\n    tag_665:\n      0x00\n        /* \"#utility.yul\":20444:20511   */\n      tag_667\n        /* \"#utility.yul\":20508:20510   */\n      0x20\n        /* \"#utility.yul\":20503:20506   */\n      dup4\n        /* \"#utility.yul\":20444:20511   */\n      tag_638\n      jump\t// in\n    tag_667:\n        /* \"#utility.yul\":20437:20511   */\n      swap2\n      pop\n        /* \"#utility.yul\":20541:20575   */\n      0x50726f63657373205661726961626c65206973206e6f7420636f72726563742e\n        /* \"#utility.yul\":20537:20538   */\n      0x00\n        /* \"#utility.yul\":20532:20535   */\n      dup4\n        /* \"#utility.yul\":20528:20539   */\n      add\n        /* \"#utility.yul\":20521:20576   */\n      mstore\n        /* \"#utility.yul\":20602:20604   */\n      0x20\n        /* \"#utility.yul\":20597:20600   */\n      dup3\n        /* \"#utility.yul\":20593:20605   */\n      add\n        /* \"#utility.yul\":20586:20605   */\n      swap1\n      pop\n        /* \"#utility.yul\":20427:20611   */\n      swap2\n      swap1\n      pop\n      jump\t// out\n        /* \"#utility.yul\":20617:20725   */\n    tag_552:\n        /* \"#utility.yul\":20694:20718   */\n      tag_669\n        /* \"#utility.yul\":20712:20717   */\n      dup2\n        /* \"#utility.yul\":20694:20718   */\n      tag_670\n      jump\t// in\n    tag_669:\n        /* \"#utility.yul\":20689:20692   */\n      dup3\n        /* \"#utility.yul\":20682:20719   */\n      mstore\n        /* \"#utility.yul\":20672:20725   */\n      pop\n      pop\n      jump\t// out\n        /* \"#utility.yul\":20731:20849   */\n    tag_671:\n        /* \"#utility.yul\":20818:20842   */\n      tag_673\n        /* \"#utility.yul\":20836:20841   */\n      dup2\n        /* \"#utility.yul\":20818:20842   */\n      tag_670\n      jump\t// in\n    tag_673:\n        /* \"#utility.yul\":20813:20816   */\n      dup3\n        /* \"#utility.yul\":20806:20843   */\n      mstore\n        /* \"#utility.yul\":20796:20849   */\n      pop\n      pop\n      jump\t// out\n        /* \"#utility.yul\":20855:21150   */\n    tag_160:\n      0x00\n        /* \"#utility.yul\":21019:21124   */\n      tag_675\n        /* \"#utility.yul\":21120:21123   */\n      dup3\n        /* \"#utility.yul\":21111:21117   */\n      dup5\n        /* \"#utility.yul\":21103:21109   */\n      dup7\n        /* \"#utility.yul\":21019:21124   */\n      tag_620\n      jump\t// in\n    tag_675:\n        /* \"#utility.yul\":21012:21124   */\n      swap2\n      pop\n        /* \"#utility.yul\":21141:21144   */\n      dup2\n        /* \"#utility.yul\":21134:21144   */\n      swap1\n      pop\n        /* \"#utility.yul\":21001:21150   */\n      swap4\n      swap3\n      pop\n      pop\n      pop\n      jump\t// out\n        /* \"#utility.yul\":21156:21431   */\n    tag_115:\n      0x00\n        /* \"#utility.yul\":21310:21405   */\n      tag_677\n        /* \"#utility.yul\":21401:21404   */\n      dup3\n        /* \"#utility.yul\":21392:21398   */\n      dup5\n        /* \"#utility.yul\":21310:21405   */\n      tag_648\n      jump\t// in\n    tag_677:\n        /* \"#utility.yul\":21303:21405   */\n      swap2\n      pop\n        /* \"#utility.yul\":21422:21425   */\n      dup2\n        /* \"#utility.yul\":21415:21425   */\n      swap1\n      pop\n        /* \"#utility.yul\":21292:21431   */\n      swap3\n      swap2\n      pop\n      pop\n      jump\t// out\n        /* \"#utility.yul\":21437:21850   */\n    tag_48:\n      0x00\n        /* \"#utility.yul\":21638:21640   */\n      0x20\n        /* \"#utility.yul\":21627:21636   */\n      dup3\n        /* \"#utility.yul\":21623:21641   */\n      add\n        /* \"#utility.yul\":21615:21641   */\n      swap1\n      pop\n        /* \"#utility.yul\":21687:21696   */\n      dup2\n        /* \"#utility.yul\":21681:21685   */\n      dup2\n        /* \"#utility.yul\":21677:21697   */\n      sub\n        /* \"#utility.yul\":21673:21674   */\n      0x00\n        /* \"#utility.yul\":21662:21671   */\n      dup4\n        /* \"#utility.yul\":21658:21675   */\n      add\n        /* \"#utility.yul\":21651:21698   */\n      mstore\n        /* \"#utility.yul\":21715:21843   */\n      tag_679\n        /* \"#utility.yul\":21838:21842   */\n      dup2\n        /* \"#utility.yul\":21829:21835   */\n      dup5\n        /* \"#utility.yul\":21715:21843   */\n      tag_571\n      jump\t// in\n    tag_679:\n        /* \"#utility.yul\":21707:21843   */\n      swap1\n      pop\n        /* \"#utility.yul\":21605:21850   */\n      swap3\n      swap2\n      pop\n      pop\n      jump\t// out\n        /* \"#utility.yul\":21856:22229   */\n    tag_75:\n      0x00\n        /* \"#utility.yul\":22037:22039   */\n      0x20\n        /* \"#utility.yul\":22026:22035   */\n      dup3\n        /* \"#utility.yul\":22022:22040   */\n      add\n        /* \"#utility.yul\":22014:22040   */\n      swap1\n      pop\n        /* \"#utility.yul\":22086:22095   */\n      dup2\n        /* \"#utility.yul\":22080:22084   */\n      dup2\n        /* \"#utility.yul\":22076:22096   */\n      sub\n        /* \"#utility.yul\":22072:22073   */\n      0x00\n        /* \"#utility.yul\":22061:22070   */\n      dup4\n        /* \"#utility.yul\":22057:22074   */\n      add\n        /* \"#utility.yul\":22050:22097   */\n      mstore\n        /* \"#utility.yul\":22114:22222   */\n      tag_681\n        /* \"#utility.yul\":22217:22221   */\n      dup2\n        /* \"#utility.yul\":22208:22214   */\n      dup5\n        /* \"#utility.yul\":22114:22222   */\n      tag_585\n      jump\t// in\n    tag_681:\n        /* \"#utility.yul\":22106:22222   */\n      swap1\n      pop\n        /* \"#utility.yul\":22004:22229   */\n      swap3\n      swap2\n      pop\n      pop\n      jump\t// out\n        /* \"#utility.yul\":22235:22445   */\n    tag_30:\n      0x00\n        /* \"#utility.yul\":22360:22362   */\n      0x20\n        /* \"#utility.yul\":22349:22358   */\n      dup3\n        /* \"#utility.yul\":22345:22363   */\n      add\n        /* \"#utility.yul\":22337:22363   */\n      swap1\n      pop\n        /* \"#utility.yul\":22373:22438   */\n      tag_683\n        /* \"#utility.yul\":22435:22436   */\n      0x00\n        /* \"#utility.yul\":22424:22433   */\n      dup4\n        /* \"#utility.yul\":22420:22437   */\n      add\n        /* \"#utility.yul\":22411:22417   */\n      dup5\n        /* \"#utility.yul\":22373:22438   */\n      tag_599\n      jump\t// in\n    tag_683:\n        /* \"#utility.yul\":22327:22445   */\n      swap3\n      swap2\n      pop\n      pop\n      jump\t// out\n        /* \"#utility.yul\":22451:23629   */\n    tag_84:\n      0x00\n        /* \"#utility.yul\":22847:22850   */\n      0xc0\n        /* \"#utility.yul\":22836:22845   */\n      dup3\n        /* \"#utility.yul\":22832:22851   */\n      add\n        /* \"#utility.yul\":22824:22851   */\n      swap1\n      pop\n        /* \"#utility.yul\":22861:22926   */\n      tag_685\n        /* \"#utility.yul\":22923:22924   */\n      0x00\n        /* \"#utility.yul\":22912:22921   */\n      dup4\n        /* \"#utility.yul\":22908:22925   */\n      add\n        /* \"#utility.yul\":22899:22905   */\n      dup10\n        /* \"#utility.yul\":22861:22926   */\n      tag_599\n      jump\t// in\n    tag_685:\n        /* \"#utility.yul\":22973:22982   */\n      dup2\n        /* \"#utility.yul\":22967:22971   */\n      dup2\n        /* \"#utility.yul\":22963:22983   */\n      sub\n        /* \"#utility.yul\":22958:22960   */\n      0x20\n        /* \"#utility.yul\":22947:22956   */\n      dup4\n        /* \"#utility.yul\":22943:22961   */\n      add\n        /* \"#utility.yul\":22936:22984   */\n      mstore\n        /* \"#utility.yul\":23001:23079   */\n      tag_686\n        /* \"#utility.yul\":23074:23078   */\n      dup2\n        /* \"#utility.yul\":23065:23071   */\n      dup9\n        /* \"#utility.yul\":23001:23079   */\n      tag_634\n      jump\t// in\n    tag_686:\n        /* \"#utility.yul\":22993:23079   */\n      swap1\n      pop\n        /* \"#utility.yul\":23089:23161   */\n      tag_687\n        /* \"#utility.yul\":23157:23159   */\n      0x40\n        /* \"#utility.yul\":23146:23155   */\n      dup4\n        /* \"#utility.yul\":23142:23160   */\n      add\n        /* \"#utility.yul\":23133:23139   */\n      dup8\n        /* \"#utility.yul\":23089:23161   */\n      tag_553\n      jump\t// in\n    tag_687:\n        /* \"#utility.yul\":23171:23254   */\n      tag_688\n        /* \"#utility.yul\":23250:23252   */\n      0x60\n        /* \"#utility.yul\":23239:23248   */\n      dup4\n        /* \"#utility.yul\":23235:23253   */\n      add\n        /* \"#utility.yul\":23226:23232   */\n      dup7\n        /* \"#utility.yul\":23171:23254   */\n      tag_603\n      jump\t// in\n    tag_688:\n        /* \"#utility.yul\":23302:23311   */\n      dup2\n        /* \"#utility.yul\":23296:23300   */\n      dup2\n        /* \"#utility.yul\":23292:23312   */\n      sub\n        /* \"#utility.yul\":23286:23289   */\n      0x80\n        /* \"#utility.yul\":23275:23284   */\n      dup4\n        /* \"#utility.yul\":23271:23290   */\n      add\n        /* \"#utility.yul\":23264:23313   */\n      mstore\n        /* \"#utility.yul\":23330:23438   */\n      tag_689\n        /* \"#utility.yul\":23433:23437   */\n      dup2\n        /* \"#utility.yul\":23424:23430   */\n      dup6\n        /* \"#utility.yul\":23330:23438   */\n      tag_585\n      jump\t// in\n    tag_689:\n        /* \"#utility.yul\":23322:23438   */\n      swap1\n      pop\n        /* \"#utility.yul\":23486:23495   */\n      dup2\n        /* \"#utility.yul\":23480:23484   */\n      dup2\n        /* \"#utility.yul\":23476:23496   */\n      sub\n        /* \"#utility.yul\":23470:23473   */\n      0xa0\n        /* \"#utility.yul\":23459:23468   */\n      dup4\n        /* \"#utility.yul\":23455:23474   */\n      add\n        /* \"#utility.yul\":23448:23497   */\n      mstore\n        /* \"#utility.yul\":23514:23622   */\n      tag_690\n        /* \"#utility.yul\":23617:23621   */\n      dup2\n        /* \"#utility.yul\":23608:23614   */\n      dup5\n        /* \"#utility.yul\":23514:23622   */\n      tag_585\n      jump\t// in\n    tag_690:\n        /* \"#utility.yul\":23506:23622   */\n      swap1\n      pop\n        /* \"#utility.yul\":22814:23629   */\n      swap8\n      swap7\n      pop\n      pop\n      pop\n      pop\n      pop\n      pop\n      pop\n      jump\t// out\n        /* \"#utility.yul\":23635:23853   */\n    tag_40:\n      0x00\n        /* \"#utility.yul\":23764:23766   */\n      0x20\n        /* \"#utility.yul\":23753:23762   */\n      dup3\n        /* \"#utility.yul\":23749:23767   */\n      add\n        /* \"#utility.yul\":23741:23767   */\n      swap1\n      pop\n        /* \"#utility.yul\":23777:23846   */\n      tag_692\n        /* \"#utility.yul\":23843:23844   */\n      0x00\n        /* \"#utility.yul\":23832:23841   */\n      dup4\n        /* \"#utility.yul\":23828:23845   */\n      add\n        /* \"#utility.yul\":23819:23825   */\n      dup5\n        /* \"#utility.yul\":23777:23846   */\n      tag_611\n      jump\t// in\n    tag_692:\n        /* \"#utility.yul\":23731:23853   */\n      swap3\n      swap2\n      pop\n      pop\n      jump\t// out\n        /* \"#utility.yul\":23859:24496   */\n    tag_135:\n      0x00\n        /* \"#utility.yul\":24110:24112   */\n      0x60\n        /* \"#utility.yul\":24099:24108   */\n      dup3\n        /* \"#utility.yul\":24095:24113   */\n      add\n        /* \"#utility.yul\":24087:24113   */\n      swap1\n      pop\n        /* \"#utility.yul\":24123:24200   */\n      tag_694\n        /* \"#utility.yul\":24197:24198   */\n      0x00\n        /* \"#utility.yul\":24186:24195   */\n      dup4\n        /* \"#utility.yul\":24182:24199   */\n      add\n        /* \"#utility.yul\":24173:24179   */\n      dup7\n        /* \"#utility.yul\":24123:24200   */\n      tag_615\n      jump\t// in\n    tag_694:\n        /* \"#utility.yul\":24247:24256   */\n      dup2\n        /* \"#utility.yul\":24241:24245   */\n      dup2\n        /* \"#utility.yul\":24237:24257   */\n      sub\n        /* \"#utility.yul\":24232:24234   */\n      0x20\n        /* \"#utility.yul\":24221:24230   */\n      dup4\n        /* \"#utility.yul\":24217:24235   */\n      add\n        /* \"#utility.yul\":24210:24258   */\n      mstore\n        /* \"#utility.yul\":24275:24389   */\n      tag_695\n        /* \"#utility.yul\":24384:24388   */\n      dup2\n        /* \"#utility.yul\":24375:24381   */\n      dup6\n        /* \"#utility.yul\":24275:24389   */\n      tag_557\n      jump\t// in\n    tag_695:\n        /* \"#utility.yul\":24267:24389   */\n      swap1\n      pop\n        /* \"#utility.yul\":24399:24489   */\n      tag_696\n        /* \"#utility.yul\":24485:24487   */\n      0x40\n        /* \"#utility.yul\":24474:24483   */\n      dup4\n        /* \"#utility.yul\":24470:24488   */\n      add\n        /* \"#utility.yul\":24461:24467   */\n      dup5\n        /* \"#utility.yul\":24399:24489   */\n      tag_607\n      jump\t// in\n    tag_696:\n        /* \"#utility.yul\":24077:24496   */\n      swap5\n      swap4\n      pop\n      pop\n      pop\n      pop\n      jump\t// out\n        /* \"#utility.yul\":24502:24815   */\n    tag_54:\n      0x00\n        /* \"#utility.yul\":24653:24655   */\n      0x20\n        /* \"#utility.yul\":24642:24651   */\n      dup3\n        /* \"#utility.yul\":24638:24656   */\n      add\n        /* \"#utility.yul\":24630:24656   */\n      swap1\n      pop\n        /* \"#utility.yul\":24702:24711   */\n      dup2\n        /* \"#utility.yul\":24696:24700   */\n      dup2\n        /* \"#utility.yul\":24692:24712   */\n      sub\n        /* \"#utility.yul\":24688:24689   */\n      0x00\n        /* \"#utility.yul\":24677:24686   */\n      dup4\n        /* \"#utility.yul\":24673:24690   */\n      add\n        /* \"#utility.yul\":24666:24713   */\n      mstore\n        /* \"#utility.yul\":24730:24808   */\n      tag_698\n        /* \"#utility.yul\":24803:24807   */\n      dup2\n        /* \"#utility.yul\":24794:24800   */\n      dup5\n        /* \"#utility.yul\":24730:24808   */\n      tag_634\n      jump\t// in\n    tag_698:\n        /* \"#utility.yul\":24722:24808   */\n      swap1\n      pop\n        /* \"#utility.yul\":24620:24815   */\n      swap3\n      swap2\n      pop\n      pop\n      jump\t// out\n        /* \"#utility.yul\":24821:25497   */\n    tag_123:\n      0x00\n        /* \"#utility.yul\":25066:25068   */\n      0x60\n        /* \"#utility.yul\":25055:25064   */\n      dup3\n        /* \"#utility.yul\":25051:25069   */\n      add\n        /* \"#utility.yul\":25043:25069   */\n      swap1\n      pop\n        /* \"#utility.yul\":25115:25124   */\n      dup2\n        /* \"#utility.yul\":25109:25113   */\n      dup2\n        /* \"#utility.yul\":25105:25125   */\n      sub\n        /* \"#utility.yul\":25101:25102   */\n      0x00\n        /* \"#utility.yul\":25090:25099   */\n      dup4\n        /* \"#utility.yul\":25086:25103   */\n      add\n        /* \"#utility.yul\":25079:25126   */\n      mstore\n        /* \"#utility.yul\":25143:25229   */\n      tag_700\n        /* \"#utility.yul\":25224:25228   */\n      dup2\n        /* \"#utility.yul\":25215:25221   */\n      dup7\n        /* \"#utility.yul\":25143:25229   */\n      tag_641\n      jump\t// in\n    tag_700:\n        /* \"#utility.yul\":25135:25229   */\n      swap1\n      pop\n        /* \"#utility.yul\":25276:25285   */\n      dup2\n        /* \"#utility.yul\":25270:25274   */\n      dup2\n        /* \"#utility.yul\":25266:25286   */\n      sub\n        /* \"#utility.yul\":25261:25263   */\n      0x20\n        /* \"#utility.yul\":25250:25259   */\n      dup4\n        /* \"#utility.yul\":25246:25264   */\n      add\n        /* \"#utility.yul\":25239:25287   */\n      mstore\n        /* \"#utility.yul\":25304:25390   */\n      tag_701\n        /* \"#utility.yul\":25385:25389   */\n      dup2\n        /* \"#utility.yul\":25376:25382   */\n      dup6\n        /* \"#utility.yul\":25304:25390   */\n      tag_641\n      jump\t// in\n    tag_701:\n        /* \"#utility.yul\":25296:25390   */\n      swap1\n      pop\n        /* \"#utility.yul\":25400:25490   */\n      tag_702\n        /* \"#utility.yul\":25486:25488   */\n      0x40\n        /* \"#utility.yul\":25475:25484   */\n      dup4\n        /* \"#utility.yul\":25471:25489   */\n      add\n        /* \"#utility.yul\":25462:25468   */\n      dup5\n        /* \"#utility.yul\":25400:25490   */\n      tag_607\n      jump\t// in\n    tag_702:\n        /* \"#utility.yul\":25033:25497   */\n      swap5\n      swap4\n      pop\n      pop\n      pop\n      pop\n      jump\t// out\n        /* \"#utility.yul\":25503:25810   */\n    tag_237:\n      0x00\n        /* \"#utility.yul\":25651:25653   */\n      0x20\n        /* \"#utility.yul\":25640:25649   */\n      dup3\n        /* \"#utility.yul\":25636:25654   */\n      add\n        /* \"#utility.yul\":25628:25654   */\n      swap1\n      pop\n        /* \"#utility.yul\":25700:25709   */\n      dup2\n        /* \"#utility.yul\":25694:25698   */\n      dup2\n        /* \"#utility.yul\":25690:25710   */\n      sub\n        /* \"#utility.yul\":25686:25687   */\n      0x00\n        /* \"#utility.yul\":25675:25684   */\n      dup4\n        /* \"#utility.yul\":25671:25688   */\n      add\n        /* \"#utility.yul\":25664:25711   */\n      mstore\n        /* \"#utility.yul\":25728:25803   */\n      tag_704\n        /* \"#utility.yul\":25798:25802   */\n      dup2\n        /* \"#utility.yul\":25789:25795   */\n      dup5\n        /* \"#utility.yul\":25728:25803   */\n      tag_653\n      jump\t// in\n    tag_704:\n        /* \"#utility.yul\":25720:25803   */\n      swap1\n      pop\n        /* \"#utility.yul\":25618:25810   */\n      swap3\n      swap2\n      pop\n      pop\n      jump\t// out\n        /* \"#utility.yul\":25816:26235   */\n    tag_260:\n      0x00\n        /* \"#utility.yul\":26020:26022   */\n      0x20\n        /* \"#utility.yul\":26009:26018   */\n      dup3\n        /* \"#utility.yul\":26005:26023   */\n      add\n        /* \"#utility.yul\":25997:26023   */\n      swap1\n      pop\n        /* \"#utility.yul\":26069:26078   */\n      dup2\n        /* \"#utility.yul\":26063:26067   */\n      dup2\n        /* \"#utility.yul\":26059:26079   */\n      sub\n        /* \"#utility.yul\":26055:26056   */\n      0x00\n        /* \"#utility.yul\":26044:26053   */\n      dup4\n        /* \"#utility.yul\":26040:26057   */\n      add\n        /* \"#utility.yul\":26033:26080   */\n      mstore\n        /* \"#utility.yul\":26097:26228   */\n      tag_706\n        /* \"#utility.yul\":26223:26227   */\n      dup2\n        /* \"#utility.yul\":26097:26228   */\n      tag_665\n      jump\t// in\n    tag_706:\n        /* \"#utility.yul\":26089:26228   */\n      swap1\n      pop\n        /* \"#utility.yul\":25987:26235   */\n      swap2\n      swap1\n      pop\n      jump\t// out\n        /* \"#utility.yul\":26241:26463   */\n    tag_58:\n      0x00\n        /* \"#utility.yul\":26372:26374   */\n      0x20\n        /* \"#utility.yul\":26361:26370   */\n      dup3\n        /* \"#utility.yul\":26357:26375   */\n      add\n        /* \"#utility.yul\":26349:26375   */\n      swap1\n      pop\n        /* \"#utility.yul\":26385:26456   */\n      tag_708\n        /* \"#utility.yul\":26453:26454   */\n      0x00\n        /* \"#utility.yul\":26442:26451   */\n      dup4\n        /* \"#utility.yul\":26438:26455   */\n      add\n        /* \"#utility.yul\":26429:26435   */\n      dup5\n        /* \"#utility.yul\":26385:26456   */\n      tag_671\n      jump\t// in\n    tag_708:\n        /* \"#utility.yul\":26339:26463   */\n      swap3\n      swap2\n      pop\n      pop\n      jump\t// out\n        /* \"#utility.yul\":26469:26752   */\n    tag_388:\n      0x00\n        /* \"#utility.yul\":26535:26537   */\n      0x40\n        /* \"#utility.yul\":26529:26538   */\n      mload\n        /* \"#utility.yul\":26519:26538   */\n      swap1\n      pop\n        /* \"#utility.yul\":26577:26581   */\n      dup2\n        /* \"#utility.yul\":26569:26575   */\n      dup2\n        /* \"#utility.yul\":26565:26582   */\n      add\n        /* \"#utility.yul\":26684:26690   */\n      dup2\n        /* \"#utility.yul\":26672:26682   */\n      dup2\n        /* \"#utility.yul\":26669:26691   */\n      lt\n        /* \"#utility.yul\":26648:26666   */\n      0xffffffffffffffff\n        /* \"#utility.yul\":26636:26646   */\n      dup3\n        /* \"#utility.yul\":26633:26667   */\n      gt\n        /* \"#utility.yul\":26630:26692   */\n      or\n        /* \"#utility.yul\":26627:26629   */\n      iszero\n      tag_710\n      jumpi\n        /* \"#utility.yul\":26695:26713   */\n      tag_711\n      tag_712\n      jump\t// in\n    tag_711:\n        /* \"#utility.yul\":26627:26629   */\n    tag_710:\n        /* \"#utility.yul\":26735:26745   */\n      dup1\n        /* \"#utility.yul\":26731:26733   */\n      0x40\n        /* \"#utility.yul\":26724:26746   */\n      mstore\n        /* \"#utility.yul\":26509:26752   */\n      pop\n      swap2\n      swap1\n      pop\n      jump\t// out\n        /* \"#utility.yul\":26758:27068   */\n    tag_387:\n      0x00\n        /* \"#utility.yul\":26924:26942   */\n      0xffffffffffffffff\n        /* \"#utility.yul\":26916:26922   */\n      dup3\n        /* \"#utility.yul\":26913:26943   */\n      gt\n        /* \"#utility.yul\":26910:26912   */\n      iszero\n      tag_714\n      jumpi\n        /* \"#utility.yul\":26946:26964   */\n      tag_715\n      tag_712\n      jump\t// in\n    tag_715:\n        /* \"#utility.yul\":26910:26912   */\n    tag_714:\n        /* \"#utility.yul\":26996:27000   */\n      0x20\n        /* \"#utility.yul\":26988:26994   */\n      dup3\n        /* \"#utility.yul\":26984:27001   */\n      mul\n        /* \"#utility.yul\":26976:27001   */\n      swap1\n      pop\n        /* \"#utility.yul\":27056:27060   */\n      0x20\n        /* \"#utility.yul\":27050:27054   */\n      dup2\n        /* \"#utility.yul\":27046:27061   */\n      add\n        /* \"#utility.yul\":27038:27061   */\n      swap1\n      pop\n        /* \"#utility.yul\":26839:27068   */\n      swap2\n      swap1\n      pop\n      jump\t// out\n        /* \"#utility.yul\":27074:27385   */\n    tag_399:\n      0x00\n        /* \"#utility.yul\":27241:27259   */\n      0xffffffffffffffff\n        /* \"#utility.yul\":27233:27239   */\n      dup3\n        /* \"#utility.yul\":27230:27260   */\n      gt\n        /* \"#utility.yul\":27227:27229   */\n      iszero\n      tag_717\n      jumpi\n        /* \"#utility.yul\":27263:27281   */\n      tag_718\n      tag_712\n      jump\t// in\n    tag_718:\n        /* \"#utility.yul\":27227:27229   */\n    tag_717:\n        /* \"#utility.yul\":27313:27317   */\n      0x20\n        /* \"#utility.yul\":27305:27311   */\n      dup3\n        /* \"#utility.yul\":27301:27318   */\n      mul\n        /* \"#utility.yul\":27293:27318   */\n      swap1\n      pop\n        /* \"#utility.yul\":27373:27377   */\n      0x20\n        /* \"#utility.yul\":27367:27371   */\n      dup2\n        /* \"#utility.yul\":27363:27378   */\n      add\n        /* \"#utility.yul\":27355:27378   */\n      swap1\n      pop\n        /* \"#utility.yul\":27156:27385   */\n      swap2\n      swap1\n      pop\n      jump\t// out\n        /* \"#utility.yul\":27391:27723   */\n    tag_410:\n      0x00\n        /* \"#utility.yul\":27543:27561   */\n      0xffffffffffffffff\n        /* \"#utility.yul\":27535:27541   */\n      dup3\n        /* \"#utility.yul\":27532:27562   */\n      gt\n        /* \"#utility.yul\":27529:27531   */\n      iszero\n      tag_720\n      jumpi\n        /* \"#utility.yul\":27565:27583   */\n      tag_721\n      tag_712\n      jump\t// in\n    tag_721:\n        /* \"#utility.yul\":27529:27531   */\n    tag_720:\n        /* \"#utility.yul\":27650:27654   */\n      0x1f\n        /* \"#utility.yul\":27646:27655   */\n      not\n        /* \"#utility.yul\":27639:27643   */\n      0x1f\n        /* \"#utility.yul\":27631:27637   */\n      dup4\n        /* \"#utility.yul\":27627:27644   */\n      add\n        /* \"#utility.yul\":27623:27656   */\n      and\n        /* \"#utility.yul\":27615:27656   */\n      swap1\n      pop\n        /* \"#utility.yul\":27711:27715   */\n      0x20\n        /* \"#utility.yul\":27705:27709   */\n      dup2\n        /* \"#utility.yul\":27701:27716   */\n      add\n        /* \"#utility.yul\":27693:27716   */\n      swap1\n      pop\n        /* \"#utility.yul\":27458:27723   */\n      swap2\n      swap1\n      pop\n      jump\t// out\n        /* \"#utility.yul\":27729:27860   */\n    tag_564:\n      0x00\n        /* \"#utility.yul\":27818:27821   */\n      dup2\n        /* \"#utility.yul\":27810:27821   */\n      swap1\n      pop\n        /* \"#utility.yul\":27848:27852   */\n      0x20\n        /* \"#utility.yul\":27843:27846   */\n      dup3\n        /* \"#utility.yul\":27839:27853   */\n      add\n        /* \"#utility.yul\":27831:27853   */\n      swap1\n      pop\n        /* \"#utility.yul\":27800:27860   */\n      swap2\n      swap1\n      pop\n      jump\t// out\n        /* \"#utility.yul\":27866:28008   */\n    tag_578:\n      0x00\n        /* \"#utility.yul\":27966:27969   */\n      dup2\n        /* \"#utility.yul\":27958:27969   */\n      swap1\n      pop\n        /* \"#utility.yul\":27996:28000   */\n      0x20\n        /* \"#utility.yul\":27991:27994   */\n      dup3\n        /* \"#utility.yul\":27987:28001   */\n      add\n        /* \"#utility.yul\":27979:28001   */\n      swap1\n      pop\n        /* \"#utility.yul\":27948:28008   */\n      swap2\n      swap1\n      pop\n      jump\t// out\n        /* \"#utility.yul\":28014:28146   */\n    tag_592:\n      0x00\n        /* \"#utility.yul\":28104:28107   */\n      dup2\n        /* \"#utility.yul\":28096:28107   */\n      swap1\n      pop\n        /* \"#utility.yul\":28134:28138   */\n      0x20\n        /* \"#utility.yul\":28129:28132   */\n      dup3\n        /* \"#utility.yul\":28125:28139   */\n      add\n        /* \"#utility.yul\":28117:28139   */\n      swap1\n      pop\n        /* \"#utility.yul\":28086:28146   */\n      swap2\n      swap1\n      pop\n      jump\t// out\n        /* \"#utility.yul\":28152:28293   */\n    tag_661:\n      0x00\n        /* \"#utility.yul\":28224:28227   */\n      dup2\n        /* \"#utility.yul\":28216:28227   */\n      swap1\n      pop\n        /* \"#utility.yul\":28247:28250   */\n      dup2\n        /* \"#utility.yul\":28244:28245   */\n      0x00\n        /* \"#utility.yul\":28237:28251   */\n      mstore\n        /* \"#utility.yul\":28281:28285   */\n      0x20\n        /* \"#utility.yul\":28278:28279   */\n      0x00\n        /* \"#utility.yul\":28268:28286   */\n      keccak256\n        /* \"#utility.yul\":28260:28286   */\n      swap1\n      pop\n        /* \"#utility.yul\":28206:28293   */\n      swap2\n      swap1\n      pop\n      jump\t// out\n        /* \"#utility.yul\":28299:28412   */\n    tag_560:\n      0x00\n        /* \"#utility.yul\":28399:28404   */\n      dup2\n        /* \"#utility.yul\":28393:28405   */\n      mload\n        /* \"#utility.yul\":28383:28405   */\n      swap1\n      pop\n        /* \"#utility.yul\":28372:28412   */\n      swap2\n      swap1\n      pop\n      jump\t// out\n        /* \"#utility.yul\":28418:28542   */\n    tag_574:\n      0x00\n        /* \"#utility.yul\":28529:28534   */\n      dup2\n        /* \"#utility.yul\":28523:28535   */\n      mload\n        /* \"#utility.yul\":28513:28535   */\n      swap1\n      pop\n        /* \"#utility.yul\":28502:28542   */\n      swap2\n      swap1\n      pop\n      jump\t// out\n        /* \"#utility.yul\":28548:28662   */\n    tag_588:\n      0x00\n        /* \"#utility.yul\":28649:28654   */\n      dup2\n        /* \"#utility.yul\":28643:28655   */\n      mload\n        /* \"#utility.yul\":28633:28655   */\n      swap1\n      pop\n        /* \"#utility.yul\":28622:28662   */\n      swap2\n      swap1\n      pop\n      jump\t// out\n        /* \"#utility.yul\":28668:28767   */\n    tag_627:\n      0x00\n        /* \"#utility.yul\":28754:28759   */\n      dup2\n        /* \"#utility.yul\":28748:28760   */\n      mload\n        /* \"#utility.yul\":28738:28760   */\n      swap1\n      pop\n        /* \"#utility.yul\":28727:28767   */\n      swap2\n      swap1\n      pop\n      jump\t// out\n        /* \"#utility.yul\":28773:28885   */\n    tag_570:\n      0x00\n        /* \"#utility.yul\":28874:28878   */\n      0x20\n        /* \"#utility.yul\":28869:28872   */\n      dup3\n        /* \"#utility.yul\":28865:28879   */\n      add\n        /* \"#utility.yul\":28857:28879   */\n      swap1\n      pop\n        /* \"#utility.yul\":28847:28885   */\n      swap2\n      swap1\n      pop\n      jump\t// out\n        /* \"#utility.yul\":28891:29014   */\n    tag_584:\n      0x00\n        /* \"#utility.yul\":29003:29007   */\n      0x20\n        /* \"#utility.yul\":28998:29001   */\n      dup3\n        /* \"#utility.yul\":28994:29008   */\n      add\n        /* \"#utility.yul\":28986:29008   */\n      swap1\n      pop\n        /* \"#utility.yul\":28976:29014   */\n      swap2\n      swap1\n      pop\n      jump\t// out\n        /* \"#utility.yul\":29020:29133   */\n    tag_598:\n      0x00\n        /* \"#utility.yul\":29122:29126   */\n      0x20\n        /* \"#utility.yul\":29117:29120   */\n      dup3\n        /* \"#utility.yul\":29113:29127   */\n      add\n        /* \"#utility.yul\":29105:29127   */\n      swap1\n      pop\n        /* \"#utility.yul\":29095:29133   */\n      swap2\n      swap1\n      pop\n      jump\t// out\n        /* \"#utility.yul\":29139:29330   */\n    tag_562:\n      0x00\n        /* \"#utility.yul\":29279:29285   */\n      dup3\n        /* \"#utility.yul\":29274:29277   */\n      dup3\n        /* \"#utility.yul\":29267:29286   */\n      mstore\n        /* \"#utility.yul\":29319:29323   */\n      0x20\n        /* \"#utility.yul\":29314:29317   */\n      dup3\n        /* \"#utility.yul\":29310:29324   */\n      add\n        /* \"#utility.yul\":29295:29324   */\n      swap1\n      pop\n        /* \"#utility.yul\":29257:29330   */\n      swap3\n      swap2\n      pop\n      pop\n      jump\t// out\n        /* \"#utility.yul\":29336:29530   */\n    tag_576:\n      0x00\n        /* \"#utility.yul\":29479:29485   */\n      dup3\n        /* \"#utility.yul\":29474:29477   */\n      dup3\n        /* \"#utility.yul\":29467:29486   */\n      mstore\n        /* \"#utility.yul\":29519:29523   */\n      0x20\n        /* \"#utility.yul\":29514:29517   */\n      dup3\n        /* \"#utility.yul\":29510:29524   */\n      add\n        /* \"#utility.yul\":29495:29524   */\n      swap1\n      pop\n        /* \"#utility.yul\":29457:29530   */\n      swap3\n      swap2\n      pop\n      pop\n      jump\t// out\n        /* \"#utility.yul\":29536:29720   */\n    tag_590:\n      0x00\n        /* \"#utility.yul\":29669:29675   */\n      dup3\n        /* \"#utility.yul\":29664:29667   */\n      dup3\n        /* \"#utility.yul\":29657:29676   */\n      mstore\n        /* \"#utility.yul\":29709:29713   */\n      0x20\n        /* \"#utility.yul\":29704:29707   */\n      dup3\n        /* \"#utility.yul\":29700:29714   */\n      add\n        /* \"#utility.yul\":29685:29714   */\n      swap1\n      pop\n        /* \"#utility.yul\":29647:29720   */\n      swap3\n      swap2\n      pop\n      pop\n      jump\t// out\n        /* \"#utility.yul\":29726:29885   */\n    tag_629:\n      0x00\n        /* \"#utility.yul\":29834:29840   */\n      dup3\n        /* \"#utility.yul\":29829:29832   */\n      dup3\n        /* \"#utility.yul\":29822:29841   */\n      mstore\n        /* \"#utility.yul\":29874:29878   */\n      0x20\n        /* \"#utility.yul\":29869:29872   */\n      dup3\n        /* \"#utility.yul\":29865:29879   */\n      add\n        /* \"#utility.yul\":29850:29879   */\n      swap1\n      pop\n        /* \"#utility.yul\":29812:29885   */\n      swap3\n      swap2\n      pop\n      pop\n      jump\t// out\n        /* \"#utility.yul\":29891:30060   */\n    tag_638:\n      0x00\n        /* \"#utility.yul\":30009:30015   */\n      dup3\n        /* \"#utility.yul\":30004:30007   */\n      dup3\n        /* \"#utility.yul\":29997:30016   */\n      mstore\n        /* \"#utility.yul\":30049:30053   */\n      0x20\n        /* \"#utility.yul\":30044:30047   */\n      dup3\n        /* \"#utility.yul\":30040:30054   */\n      add\n        /* \"#utility.yul\":30025:30054   */\n      swap1\n      pop\n        /* \"#utility.yul\":29987:30060   */\n      swap3\n      swap2\n      pop\n      pop\n      jump\t// out\n        /* \"#utility.yul\":30066:30243   */\n    tag_645:\n      0x00\n        /* \"#utility.yul\":30192:30198   */\n      dup3\n        /* \"#utility.yul\":30187:30190   */\n      dup3\n        /* \"#utility.yul\":30180:30199   */\n      mstore\n        /* \"#utility.yul\":30232:30236   */\n      0x20\n        /* \"#utility.yul\":30227:30230   */\n      dup3\n        /* \"#utility.yul\":30223:30237   */\n      add\n        /* \"#utility.yul\":30208:30237   */\n      swap1\n      pop\n        /* \"#utility.yul\":30170:30243   */\n      swap3\n      swap2\n      pop\n      pop\n      jump\t// out\n        /* \"#utility.yul\":30249:30397   */\n    tag_623:\n      0x00\n        /* \"#utility.yul\":30388:30391   */\n      dup2\n        /* \"#utility.yul\":30373:30391   */\n      swap1\n      pop\n        /* \"#utility.yul\":30363:30397   */\n      swap3\n      swap2\n      pop\n      pop\n      jump\t// out\n        /* \"#utility.yul\":30403:30708   */\n    tag_184:\n      0x00\n        /* \"#utility.yul\":30462:30482   */\n      tag_741\n        /* \"#utility.yul\":30480:30481   */\n      dup3\n        /* \"#utility.yul\":30462:30482   */\n      tag_670\n      jump\t// in\n    tag_741:\n        /* \"#utility.yul\":30457:30482   */\n      swap2\n      pop\n        /* \"#utility.yul\":30496:30516   */\n      tag_742\n        /* \"#utility.yul\":30514:30515   */\n      dup4\n        /* \"#utility.yul\":30496:30516   */\n      tag_670\n      jump\t// in\n    tag_742:\n        /* \"#utility.yul\":30491:30516   */\n      swap3\n      pop\n        /* \"#utility.yul\":30650:30651   */\n      dup3\n        /* \"#utility.yul\":30582:30648   */\n      0xffffffffffffffffffffffffffffffffffffffffffffffffffffffffffffffff\n        /* \"#utility.yul\":30578:30652   */\n      sub\n        /* \"#utility.yul\":30575:30576   */\n      dup3\n        /* \"#utility.yul\":30572:30653   */\n      gt\n        /* \"#utility.yul\":30569:30571   */\n      iszero\n      tag_743\n      jumpi\n        /* \"#utility.yul\":30656:30674   */\n      tag_744\n      tag_745\n      jump\t// in\n    tag_744:\n        /* \"#utility.yul\":30569:30571   */\n    tag_743:\n        /* \"#utility.yul\":30700:30701   */\n      dup3\n        /* \"#utility.yul\":30697:30698   */\n      dup3\n        /* \"#utility.yul\":30693:30702   */\n      add\n        /* \"#utility.yul\":30686:30702   */\n      swap1\n      pop\n        /* \"#utility.yul\":30447:30708   */\n      swap3\n      swap2\n      pop\n      pop\n      jump\t// out\n        /* \"#utility.yul\":30714:30810   */\n    tag_556:\n      0x00\n        /* \"#utility.yul\":30780:30804   */\n      tag_747\n        /* \"#utility.yul\":30798:30803   */\n      dup3\n        /* \"#utility.yul\":30780:30804   */\n      tag_748\n      jump\t// in\n    tag_747:\n        /* \"#utility.yul\":30769:30804   */\n      swap1\n      pop\n        /* \"#utility.yul\":30759:30810   */\n      swap2\n      swap1\n      pop\n      jump\t// out\n        /* \"#utility.yul\":30816:30906   */\n    tag_602:\n      0x00\n        /* \"#utility.yul\":30893:30898   */\n      dup2\n        /* \"#utility.yul\":30886:30899   */\n      iszero\n        /* \"#utility.yul\":30879:30900   */\n      iszero\n        /* \"#utility.yul\":30868:30900   */\n      swap1\n      pop\n        /* \"#utility.yul\":30858:30906   */\n      swap2\n      swap1\n      pop\n      jump\t// out\n        /* \"#utility.yul\":30912:31049   */\n    tag_750:\n      0x00\n        /* \"#utility.yul\":30991:30996   */\n      dup2\n        /* \"#utility.yul\":30980:30996   */\n      swap1\n      pop\n        /* \"#utility.yul\":30997:31043   */\n      tag_752\n        /* \"#utility.yul\":31037:31042   */\n      dup3\n        /* \"#utility.yul\":30997:31043   */\n      tag_753\n      jump\t// in\n    tag_752:\n        /* \"#utility.yul\":30970:31049   */\n      swap2\n      swap1\n      pop\n      jump\t// out\n        /* \"#utility.yul\":31055:31190   */\n    tag_754:\n      0x00\n        /* \"#utility.yul\":31133:31138   */\n      dup2\n        /* \"#utility.yul\":31122:31138   */\n      swap1\n      pop\n        /* \"#utility.yul\":31139:31184   */\n      tag_756\n        /* \"#utility.yul\":31178:31183   */\n      dup3\n        /* \"#utility.yul\":31139:31184   */\n      tag_757\n      jump\t// in\n    tag_756:\n        /* \"#utility.yul\":31112:31190   */\n      swap2\n      swap1\n      pop\n      jump\t// out\n        /* \"#utility.yul\":31196:31272   */\n    tag_614:\n      0x00\n        /* \"#utility.yul\":31261:31266   */\n      dup2\n        /* \"#utility.yul\":31250:31266   */\n      swap1\n      pop\n        /* \"#utility.yul\":31240:31272   */\n      swap2\n      swap1\n      pop\n      jump\t// out\n        /* \"#utility.yul\":31278:31404   */\n    tag_748:\n      0x00\n        /* \"#utility.yul\":31355:31397   */\n      0xffffffffffffffffffffffffffffffffffffffff\n        /* \"#utility.yul\":31348:31353   */\n      dup3\n        /* \"#utility.yul\":31344:31398   */\n      and\n        /* \"#utility.yul\":31333:31398   */\n      swap1\n      pop\n        /* \"#utility.yul\":31323:31404   */\n      swap2\n      swap1\n      pop\n      jump\t// out\n        /* \"#utility.yul\":31410:31487   */\n    tag_670:\n      0x00\n        /* \"#utility.yul\":31476:31481   */\n      dup2\n        /* \"#utility.yul\":31465:31481   */\n      swap1\n      pop\n        /* \"#utility.yul\":31455:31487   */\n      swap2\n      swap1\n      pop\n      jump\t// out\n        /* \"#utility.yul\":31493:31630   */\n    tag_606:\n      0x00\n        /* \"#utility.yul\":31587:31624   */\n      tag_762\n        /* \"#utility.yul\":31618:31623   */\n      dup3\n        /* \"#utility.yul\":31587:31624   */\n      tag_750\n      jump\t// in\n    tag_762:\n        /* \"#utility.yul\":31574:31624   */\n      swap1\n      pop\n        /* \"#utility.yul\":31564:31630   */\n      swap2\n      swap1\n      pop\n      jump\t// out\n        /* \"#utility.yul\":31636:31771   */\n    tag_610:\n      0x00\n        /* \"#utility.yul\":31729:31765   */\n      tag_764\n        /* \"#utility.yul\":31759:31764   */\n      dup3\n        /* \"#utility.yul\":31729:31765   */\n      tag_754\n      jump\t// in\n    tag_764:\n        /* \"#utility.yul\":31716:31765   */\n      swap1\n      pop\n        /* \"#utility.yul\":31706:31771   */\n      swap2\n      swap1\n      pop\n      jump\t// out\n        /* \"#utility.yul\":31777:31931   */\n    tag_413:\n        /* \"#utility.yul\":31861:31867   */\n      dup3\n        /* \"#utility.yul\":31856:31859   */\n      dup2\n        /* \"#utility.yul\":31851:31854   */\n      dup4\n        /* \"#utility.yul\":31838:31868   */\n      calldatacopy\n        /* \"#utility.yul\":31923:31924   */\n      0x00\n        /* \"#utility.yul\":31914:31920   */\n      dup4\n        /* \"#utility.yul\":31909:31912   */\n      dup4\n        /* \"#utility.yul\":31905:31921   */\n      add\n        /* \"#utility.yul\":31898:31925   */\n      mstore\n        /* \"#utility.yul\":31828:31931   */\n      pop\n      pop\n      pop\n      jump\t// out\n        /* \"#utility.yul\":31937:32244   */\n    tag_631:\n        /* \"#utility.yul\":32005:32006   */\n      0x00\n        /* \"#utility.yul\":32015:32128   */\n    tag_767:\n        /* \"#utility.yul\":32029:32035   */\n      dup4\n        /* \"#utility.yul\":32026:32027   */\n      dup2\n        /* \"#utility.yul\":32023:32036   */\n      lt\n        /* \"#utility.yul\":32015:32128   */\n      iszero\n      tag_769\n      jumpi\n        /* \"#utility.yul\":32114:32115   */\n      dup1\n        /* \"#utility.yul\":32109:32112   */\n      dup3\n        /* \"#utility.yul\":32105:32116   */\n      add\n        /* \"#utility.yul\":32099:32117   */\n      mload\n        /* \"#utility.yul\":32095:32096   */\n      dup2\n        /* \"#utility.yul\":32090:32093   */\n      dup5\n        /* \"#utility.yul\":32086:32097   */\n      add\n        /* \"#utility.yul\":32079:32118   */\n      mstore\n        /* \"#utility.yul\":32051:32053   */\n      0x20\n        /* \"#utility.yul\":32048:32049   */\n      dup2\n        /* \"#utility.yul\":32044:32054   */\n      add\n        /* \"#utility.yul\":32039:32054   */\n      swap1\n      pop\n        /* \"#utility.yul\":32015:32128   */\n      jump(tag_767)\n    tag_769:\n        /* \"#utility.yul\":32146:32152   */\n      dup4\n        /* \"#utility.yul\":32143:32144   */\n      dup2\n        /* \"#utility.yul\":32140:32153   */\n      gt\n        /* \"#utility.yul\":32137:32139   */\n      iszero\n      tag_770\n      jumpi\n        /* \"#utility.yul\":32226:32227   */\n      0x00\n        /* \"#utility.yul\":32217:32223   */\n      dup5\n        /* \"#utility.yul\":32212:32215   */\n      dup5\n        /* \"#utility.yul\":32208:32224   */\n      add\n        /* \"#utility.yul\":32201:32228   */\n      mstore\n        /* \"#utility.yul\":32137:32139   */\n    tag_770:\n        /* \"#utility.yul\":31986:32244   */\n      pop\n      pop\n      pop\n      pop\n      jump\t// out\n        /* \"#utility.yul\":32250:32570   */\n    tag_117:\n      0x00\n        /* \"#utility.yul\":32331:32332   */\n      0x02\n        /* \"#utility.yul\":32325:32329   */\n      dup3\n        /* \"#utility.yul\":32321:32333   */\n      div\n        /* \"#utility.yul\":32311:32333   */\n      swap1\n      pop\n        /* \"#utility.yul\":32378:32379   */\n      0x01\n        /* \"#utility.yul\":32372:32376   */\n      dup3\n        /* \"#utility.yul\":32368:32380   */\n      and\n        /* \"#utility.yul\":32399:32417   */\n      dup1\n        /* \"#utility.yul\":32389:32391   */\n      tag_772\n      jumpi\n        /* \"#utility.yul\":32455:32459   */\n      0x7f\n        /* \"#utility.yul\":32447:32453   */\n      dup3\n        /* \"#utility.yul\":32443:32460   */\n      and\n        /* \"#utility.yul\":32433:32460   */\n      swap2\n      pop\n        /* \"#utility.yul\":32389:32391   */\n    tag_772:\n        /* \"#utility.yul\":32517:32519   */\n      0x20\n        /* \"#utility.yul\":32509:32515   */\n      dup3\n        /* \"#utility.yul\":32506:32520   */\n      lt\n        /* \"#utility.yul\":32486:32504   */\n      dup2\n        /* \"#utility.yul\":32483:32521   */\n      eq\n        /* \"#utility.yul\":32480:32482   */\n      iszero\n      tag_773\n      jumpi\n        /* \"#utility.yul\":32536:32554   */\n      tag_774\n      tag_775\n      jump\t// in\n    tag_774:\n        /* \"#utility.yul\":32480:32482   */\n    tag_773:\n        /* \"#utility.yul\":32301:32570   */\n      pop\n      swap2\n      swap1\n      pop\n      jump\t// out\n        /* \"#utility.yul\":32576:32809   */\n    tag_279:\n      0x00\n        /* \"#utility.yul\":32638:32662   */\n      tag_777\n        /* \"#utility.yul\":32656:32661   */\n      dup3\n        /* \"#utility.yul\":32638:32662   */\n      tag_670\n      jump\t// in\n    tag_777:\n        /* \"#utility.yul\":32629:32662   */\n      swap2\n      pop\n        /* \"#utility.yul\":32684:32750   */\n      0xffffffffffffffffffffffffffffffffffffffffffffffffffffffffffffffff\n        /* \"#utility.yul\":32677:32682   */\n      dup3\n        /* \"#utility.yul\":32674:32751   */\n      eq\n        /* \"#utility.yul\":32671:32673   */\n      iszero\n      tag_778\n      jumpi\n        /* \"#utility.yul\":32754:32772   */\n      tag_779\n      tag_745\n      jump\t// in\n    tag_779:\n        /* \"#utility.yul\":32671:32673   */\n    tag_778:\n        /* \"#utility.yul\":32801:32802   */\n      0x01\n        /* \"#utility.yul\":32794:32799   */\n      dup3\n        /* \"#utility.yul\":32790:32803   */\n      add\n        /* \"#utility.yul\":32783:32803   */\n      swap1\n      pop\n        /* \"#utility.yul\":32619:32809   */\n      swap2\n      swap1\n      pop\n      jump\t// out\n        /* \"#utility.yul\":32815:32995   */\n    tag_745:\n        /* \"#utility.yul\":32863:32940   */\n      0x4e487b7100000000000000000000000000000000000000000000000000000000\n        /* \"#utility.yul\":32860:32861   */\n      0x00\n        /* \"#utility.yul\":32853:32941   */\n      mstore\n        /* \"#utility.yul\":32960:32964   */\n      0x11\n        /* \"#utility.yul\":32957:32958   */\n      0x04\n        /* \"#utility.yul\":32950:32965   */\n      mstore\n        /* \"#utility.yul\":32984:32988   */\n      0x24\n        /* \"#utility.yul\":32981:32982   */\n      0x00\n        /* \"#utility.yul\":32974:32989   */\n      revert\n        /* \"#utility.yul\":33001:33181   */\n    tag_781:\n        /* \"#utility.yul\":33049:33126   */\n      0x4e487b7100000000000000000000000000000000000000000000000000000000\n        /* \"#utility.yul\":33046:33047   */\n      0x00\n        /* \"#utility.yul\":33039:33127   */\n      mstore\n        /* \"#utility.yul\":33146:33150   */\n      0x21\n        /* \"#utility.yul\":33143:33144   */\n      0x04\n        /* \"#utility.yul\":33136:33151   */\n      mstore\n        /* \"#utility.yul\":33170:33174   */\n      0x24\n        /* \"#utility.yul\":33167:33168   */\n      0x00\n        /* \"#utility.yul\":33160:33175   */\n      revert\n        /* \"#utility.yul\":33187:33367   */\n    tag_775:\n        /* \"#utility.yul\":33235:33312   */\n      0x4e487b7100000000000000000000000000000000000000000000000000000000\n        /* \"#utility.yul\":33232:33233   */\n      0x00\n        /* \"#utility.yul\":33225:33313   */\n      mstore\n        /* \"#utility.yul\":33332:33336   */\n      0x22\n        /* \"#utility.yul\":33329:33330   */\n      0x04\n        /* \"#utility.yul\":33322:33337   */\n      mstore\n        /* \"#utility.yul\":33356:33360   */\n      0x24\n        /* \"#utility.yul\":33353:33354   */\n      0x00\n        /* \"#utility.yul\":33346:33361   */\n      revert\n        /* \"#utility.yul\":33373:33553   */\n    tag_712:\n        /* \"#utility.yul\":33421:33498   */\n      0x4e487b7100000000000000000000000000000000000000000000000000000000\n        /* \"#utility.yul\":33418:33419   */\n      0x00\n        /* \"#utility.yul\":33411:33499   */\n      mstore\n        /* \"#utility.yul\":33518:33522   */\n      0x41\n        /* \"#utility.yul\":33515:33516   */\n      0x04\n        /* \"#utility.yul\":33508:33523   */\n      mstore\n        /* \"#utility.yul\":33542:33546   */\n      0x24\n        /* \"#utility.yul\":33539:33540   */\n      0x00\n        /* \"#utility.yul\":33532:33547   */\n      revert\n        /* \"#utility.yul\":33559:33661   */\n    tag_633:\n      0x00\n        /* \"#utility.yul\":33651:33653   */\n      0x1f\n        /* \"#utility.yul\":33647:33654   */\n      not\n        /* \"#utility.yul\":33642:33644   */\n      0x1f\n        /* \"#utility.yul\":33635:33640   */\n      dup4\n        /* \"#utility.yul\":33631:33645   */\n      add\n        /* \"#utility.yul\":33627:33655   */\n      and\n        /* \"#utility.yul\":33617:33655   */\n      swap1\n      pop\n        /* \"#utility.yul\":33607:33661   */\n      swap2\n      swap1\n      pop\n      jump\t// out\n        /* \"#utility.yul\":33667:33785   */\n    tag_753:\n        /* \"#utility.yul\":33753:33754   */\n      0x04\n        /* \"#utility.yul\":33746:33751   */\n      dup2\n        /* \"#utility.yul\":33743:33755   */\n      lt\n        /* \"#utility.yul\":33733:33735   */\n      tag_787\n      jumpi\n        /* \"#utility.yul\":33759:33777   */\n      tag_788\n      tag_781\n      jump\t// in\n    tag_788:\n        /* \"#utility.yul\":33733:33735   */\n    tag_787:\n        /* \"#utility.yul\":33723:33785   */\n      pop\n      jump\t// out\n        /* \"#utility.yul\":33791:33908   */\n    tag_757:\n        /* \"#utility.yul\":33876:33877   */\n      0x07\n        /* \"#utility.yul\":33869:33874   */\n      dup2\n        /* \"#utility.yul\":33866:33878   */\n      lt\n        /* \"#utility.yul\":33856:33858   */\n      tag_790\n      jumpi\n        /* \"#utility.yul\":33882:33900   */\n      tag_791\n      tag_781\n      jump\t// in\n    tag_791:\n        /* \"#utility.yul\":33856:33858   */\n    tag_790:\n        /* \"#utility.yul\":33846:33908   */\n      pop\n      jump\t// out\n        /* \"#utility.yul\":33914:34036   */\n    tag_417:\n        /* \"#utility.yul\":33987:34011   */\n      tag_793\n        /* \"#utility.yul\":34005:34010   */\n      dup2\n        /* \"#utility.yul\":33987:34011   */\n      tag_556\n      jump\t// in\n    tag_793:\n        /* \"#utility.yul\":33980:33985   */\n      dup2\n        /* \"#utility.yul\":33977:34012   */\n      eq\n        /* \"#utility.yul\":33967:33969   */\n      tag_794\n      jumpi\n        /* \"#utility.yul\":34026:34027   */\n      0x00\n        /* \"#utility.yul\":34023:34024   */\n      dup1\n        /* \"#utility.yul\":34016:34028   */\n      revert\n        /* \"#utility.yul\":33967:33969   */\n    tag_794:\n        /* \"#utility.yul\":33957:34036   */\n      pop\n      jump\t// out\n        /* \"#utility.yul\":34042:34158   */\n    tag_429:\n        /* \"#utility.yul\":34112:34133   */\n      tag_796\n        /* \"#utility.yul\":34127:34132   */\n      dup2\n        /* \"#utility.yul\":34112:34133   */\n      tag_602\n      jump\t// in\n    tag_796:\n        /* \"#utility.yul\":34105:34110   */\n      dup2\n        /* \"#utility.yul\":34102:34134   */\n      eq\n        /* \"#utility.yul\":34092:34094   */\n      tag_797\n      jumpi\n        /* \"#utility.yul\":34148:34149   */\n      0x00\n        /* \"#utility.yul\":34145:34146   */\n      dup1\n        /* \"#utility.yul\":34138:34150   */\n      revert\n        /* \"#utility.yul\":34092:34094   */\n    tag_797:\n        /* \"#utility.yul\":34082:34158   */\n      pop\n      jump\t// out\n        /* \"#utility.yul\":34164:34278   */\n    tag_436:\n        /* \"#utility.yul\":34252:34253   */\n      0x03\n        /* \"#utility.yul\":34245:34250   */\n      dup2\n        /* \"#utility.yul\":34242:34254   */\n      lt\n        /* \"#utility.yul\":34232:34234   */\n      tag_799\n      jumpi\n        /* \"#utility.yul\":34268:34269   */\n      0x00\n        /* \"#utility.yul\":34265:34266   */\n      dup1\n        /* \"#utility.yul\":34258:34270   */\n      revert\n        /* \"#utility.yul\":34232:34234   */\n    tag_799:\n        /* \"#utility.yul\":34222:34278   */\n      pop\n      jump\t// out\n        /* \"#utility.yul\":34284:34396   */\n    tag_440:\n        /* \"#utility.yul\":34370:34371   */\n      0x04\n        /* \"#utility.yul\":34363:34368   */\n      dup2\n        /* \"#utility.yul\":34360:34372   */\n      lt\n        /* \"#utility.yul\":34350:34352   */\n      tag_801\n      jumpi\n        /* \"#utility.yul\":34386:34387   */\n      0x00\n        /* \"#utility.yul\":34383:34384   */\n      dup1\n        /* \"#utility.yul\":34376:34388   */\n      revert\n        /* \"#utility.yul\":34350:34352   */\n    tag_801:\n        /* \"#utility.yul\":34340:34396   */\n      pop\n      jump\t// out\n        /* \"#utility.yul\":34402:34513   */\n    tag_444:\n        /* \"#utility.yul\":34487:34488   */\n      0x07\n        /* \"#utility.yul\":34480:34485   */\n      dup2\n        /* \"#utility.yul\":34477:34489   */\n      lt\n        /* \"#utility.yul\":34467:34469   */\n      tag_803\n      jumpi\n        /* \"#utility.yul\":34503:34504   */\n      0x00\n        /* \"#utility.yul\":34500:34501   */\n      dup1\n        /* \"#utility.yul\":34493:34505   */\n      revert\n        /* \"#utility.yul\":34467:34469   */\n    tag_803:\n        /* \"#utility.yul\":34457:34513   */\n      pop\n      jump\t// out\n        /* \"#utility.yul\":34519:34639   */\n    tag_447:\n        /* \"#utility.yul\":34591:34614   */\n      tag_805\n        /* \"#utility.yul\":34608:34613   */\n      dup2\n        /* \"#utility.yul\":34591:34614   */\n      tag_614\n      jump\t// in\n    tag_805:\n        /* \"#utility.yul\":34584:34589   */\n      dup2\n        /* \"#utility.yul\":34581:34615   */\n      eq\n        /* \"#utility.yul\":34571:34573   */\n      tag_806\n      jumpi\n        /* \"#utility.yul\":34629:34630   */\n      0x00\n        /* \"#utility.yul\":34626:34627   */\n      dup1\n        /* \"#utility.yul\":34619:34631   */\n      revert\n        /* \"#utility.yul\":34571:34573   */\n    tag_806:\n        /* \"#utility.yul\":34561:34639   */\n      pop\n      jump\t// out\n        /* \"#utility.yul\":34645:34767   */\n    tag_475:\n        /* \"#utility.yul\":34718:34742   */\n      tag_808\n        /* \"#utility.yul\":34736:34741   */\n      dup2\n        /* \"#utility.yul\":34718:34742   */\n      tag_670\n      jump\t// in\n    tag_808:\n        /* \"#utility.yul\":34711:34716   */\n      dup2\n        /* \"#utility.yul\":34708:34743   */\n      eq\n        /* \"#utility.yul\":34698:34700   */\n      tag_809\n      jumpi\n        /* \"#utility.yul\":34757:34758   */\n      0x00\n        /* \"#utility.yul\":34754:34755   */\n      dup1\n        /* \"#utility.yul\":34747:34759   */\n      revert\n        /* \"#utility.yul\":34698:34700   */\n    tag_809:\n        /* \"#utility.yul\":34688:34767   */\n      pop\n      jump\t// out\n\n    auxdata: 0xa2646970667358221220be8d97a51726892f30a9eabc3bb6ac611e8c67438540de99787bc5bfeb3ba57a64736f6c63430008000033\n}\n","bytecode":{"linkReferences":{},"object":"608060405234801561001057600080fd5b50613f10806100206000396000f3fe608060405234801561001057600080fd5b50600436106101215760003560e01c8063897a3e27116100ad578063993c041011610071578063993c04101461036d578063a7c1eb901461039d578063b8c56cae146103cd578063c7b1ee06146103fd578063fe9620c91461041957610121565b8063897a3e271461028a578063909e4ab6146102ba57806395794157146102d8578063976217cd146103085780639849cee91461033d57610121565b80634d60f651116100f45780634d60f651146101be57806361ea18df146101dc57806371c56f9b1461020c57806376e5c0de1461022a57806381d1cd2e1461025a57610121565b80630647043314610126578063307ed4be14610156578063386247251461017257806338b7b6f0146101a2575b600080fd5b610140600480360381019061013b91906131a7565b610435565b60405161014d919061383a565b60405180910390f35b610170600480360381019061016b919061323a565b610743565b005b61018c60048036038101906101879190613166565b610b0d565b60405161019991906138cb565b60405180910390f35b6101bc60048036038101906101b79190613099565b610b3b565b005b6101c6610b65565b6040516101d391906137f6565b60405180910390f35b6101f660048036038101906101f191906131e8565b610c3e565b6040516102039190613924565b60405180910390f35b610214610cea565b60405161022191906139cd565b60405180910390f35b610244600480360381019061023f91906131e8565b610d7e565b604051610251919061383a565b60405180910390f35b610274600480360381019061026f91906131e8565b610d9e565b60405161028191906139cd565b60405180910390f35b6102a4600480360381019061029f9190613054565b610dc0565b6040516102b191906138cb565b60405180910390f35b6102c2610deb565b6040516102cf9190613818565b60405180910390f35b6102f260048036038101906102ed91906131e8565b610e43565b6040516102ff91906139cd565b60405180910390f35b610322600480360381019061031d91906131e8565b610e67565b60405161033496959493929190613855565b60405180910390f35b610357600480360381019061035291906131e8565b611071565b604051610364919061383a565b60405180910390f35b610387600480360381019061038291906131e8565b61109d565b604051610394919061383a565b60405180910390f35b6103b760048036038101906103b29190612fed565b6121ed565b6040516103c4919061383a565b60405180910390f35b6103e760048036038101906103e29190613166565b612283565b6040516103f49190613924565b60405180910390f35b6104176004803603810190610412919061330b565b612339565b005b610433600480360381019061042e91906130f1565b612864565b005b6000806002811115610470577f4e487b7100000000000000000000000000000000000000000000000000000000600052602160045260246000fd5b826040015160028111156104ad577f4e487b7100000000000000000000000000000000000000000000000000000000600052602160045260246000fd5b14156105fd57600060028360c001516040516104c991906137df565b908152602001604051809103902080546104e290613cde565b80601f016020809104026020016040519081016040528092919081815260200182805461050e90613cde565b801561055b5780601f106105305761010080835404028352916020019161055b565b820191906000526020600020905b81548152906001019060200180831161053e57829003601f168201915b505050505090507327b1618cb7956bbf41bc640a506f4563ae74f61363a8c0bf8e828560e001518660a001516040518463ffffffff1660e01b81526004016105a593929190613946565b60206040518083038186803b1580156105bd57600080fd5b505af41580156105d1573d6000803e3d6000fd5b505050506040513d601f19601f820116820180604052508101906105f59190612fc4565b91505061073e565b60016002811115610637577f4e487b7100000000000000000000000000000000000000000000000000000000600052602160045260246000fd5b82604001516002811115610674577f4e487b7100000000000000000000000000000000000000000000000000000000600052602160045260246000fd5b141561073d57600060018360c0015160405161069091906137df565b90815260200160405180910390205490507327b1618cb7956bbf41bc640a506f4563ae74f61363e1df7ad6828561010001518660a001516040518463ffffffff1660e01b81526004016106e5939291906138e6565b60206040518083038186803b1580156106fd57600080fd5b505af4158015610711573d6000803e3d6000fd5b505050506040513d601f19601f820116820180604052508101906107359190612fc4565b91505061073e565b5b919050565b61074b61289a565b85816000018190525084816020019073ffffffffffffffffffffffffffffffffffffffff16908173ffffffffffffffffffffffffffffffffffffffff1681525050600081604001901515908115158152505083816060019060038111156107db577f4e487b7100000000000000000000000000000000000000000000000000000000600052602160045260246000fd5b90816003811115610815577f4e487b7100000000000000000000000000000000000000000000000000000000600052602160045260246000fd5b81525050828160800181905250818160a0018190525080600080898152602001908152602001600020600082015181600001908051906020019061085a92919061292d565b5060208201518160010160006101000a81548173ffffffffffffffffffffffffffffffffffffffff021916908373ffffffffffffffffffffffffffffffffffffffff16021790555060408201518160010160146101000a81548160ff02191690831515021790555060608201518160010160156101000a81548160ff02191690836003811115610913577f4e487b7100000000000000000000000000000000000000000000000000000000600052602160045260246000fd5b021790555060808201518160020190805190602001906109349291906129b3565b5060a08201518160030190805190602001906109519291906129b3565b5060c0820151816004016000820151816000015560208201518160010160006101000a81548160ff021916908360038111156109b6577f4e487b7100000000000000000000000000000000000000000000000000000000600052602160045260246000fd5b021790555060408201518160010160016101000a81548160ff02191690836002811115610a0c577f4e487b7100000000000000000000000000000000000000000000000000000000600052602160045260246000fd5b021790555060608201518160010160026101000a81548160ff02191690831515021790555060808201518160010160036101000a81548160ff02191690831515021790555060a08201518160010160046101000a81548160ff02191690836006811115610aa2577f4e487b7100000000000000000000000000000000000000000000000000000000600052602160045260246000fd5b021790555060c0820151816002019080519060200190610ac392919061292d565b5060e0820151816003019080519060200190610ae092919061292d565b50610100820151816004019080519060200190610afe929190612a00565b50505090505050505050505050565b6001818051602081018201805184825260208301602085012081835280955050505050506000915090505481565b8060018484604051610b4e9291906137c6565b908152602001604051809103902081905550505050565b60606005805480602002602001604051908101604052809291908181526020016000905b82821015610c35578382906000526020600020018054610ba890613cde565b80601f0160208091040260200160405190810160405280929190818152602001828054610bd490613cde565b8015610c215780601f10610bf657610100808354040283529160200191610c21565b820191906000526020600020905b815481529060010190602001808311610c0457829003601f168201915b505050505081526020019060010190610b89565b50505050905090565b60058181548110610c4e57600080fd5b906000526020600020016000915090508054610c6990613cde565b80601f0160208091040260200160405190810160405280929190818152602001828054610c9590613cde565b8015610ce25780601f10610cb757610100808354040283529160200191610ce2565b820191906000526020600020905b815481529060010190602001808311610cc557829003601f168201915b505050505081565b6000807327b1618cb7956bbf41bc640a506f4563ae74f61363c237647f6040518163ffffffff1660e01b815260040160206040518083038186803b158015610d3157600080fd5b505af4158015610d45573d6000803e3d6000fd5b505050506040513d601f19601f82011682018060405250810190610d699190613211565b9050600581610d789190613baa565b91505090565b60036020528060005260406000206000915054906101000a900460ff1681565b6000806000838152602001908152602001600020600401600001549050919050565b600060018383604051610dd49291906137c6565b908152602001604051809103902054905092915050565b60606004805480602002602001604051908101604052809291908181526020018280548015610e3957602002820191906000526020600020905b815481526020019060010190808311610e25575b5050505050905090565b60048181548110610e5357600080fd5b906000526020600020016000915090505481565b6000606060008060608060008088815260200190815260200160002060010160149054906101000a900460ff166000808981526020019081526020016000206000016000808a815260200190815260200160002060010160009054906101000a900473ffffffffffffffffffffffffffffffffffffffff166000808b815260200190815260200160002060010160159054906101000a900460ff166000808c81526020019081526020016000206002016000808d8152602001908152602001600020600301848054610f3890613cde565b80601f0160208091040260200160405190810160405280929190818152602001828054610f6490613cde565b8015610fb15780601f10610f8657610100808354040283529160200191610fb1565b820191906000526020600020905b815481529060010190602001808311610f9457829003601f168201915b505050505094508180548060200260200160405190810160405280929190818152602001828054801561100357602002820191906000526020600020905b815481526020019060010190808311610fef575b505050505091508080548060200260200160405190810160405280929190818152602001828054801561105557602002820191906000526020600020905b815481526020019060010190808311611041575b5050505050905095509550955095509550955091939550919395565b600080600083815260200190815260200160002060010160149054906101000a900460ff169050919050565b600060237f63a242a632efe33c0e210e04e4173612a17efa4f16aa4890bc7e46caece80de060405160405180910390a26000808060008581526020019081526020016000206040518060e00160405290816000820180546110fd90613cde565b80601f016020809104026020016040519081016040528092919081815260200182805461112990613cde565b80156111765780601f1061114b57610100808354040283529160200191611176565b820191906000526020600020905b81548152906001019060200180831161115957829003601f168201915b505050505081526020016001820160009054906101000a900473ffffffffffffffffffffffffffffffffffffffff1673ffffffffffffffffffffffffffffffffffffffff1673ffffffffffffffffffffffffffffffffffffffff1681526020016001820160149054906101000a900460ff161515151581526020016001820160159054906101000a900460ff16600381111561123b577f4e487b7100000000000000000000000000000000000000000000000000000000600052602160045260246000fd5b6003811115611273577f4e487b7100000000000000000000000000000000000000000000000000000000600052602160045260246000fd5b8152602001600282018054806020026020016040519081016040528092919081815260200182805480156112c657602002820191906000526020600020905b8154815260200190600101908083116112b2575b505050505081526020016003820180548060200260200160405190810160405280929190818152602001828054801561131e57602002820191906000526020600020905b81548152602001906001019080831161130a575b505050505081526020016004820160405180610120016040529081600082015481526020016001820160009054906101000a900460ff16600381111561138d577f4e487b7100000000000000000000000000000000000000000000000000000000600052602160045260246000fd5b60038111156113c5577f4e487b7100000000000000000000000000000000000000000000000000000000600052602160045260246000fd5b81526020016001820160019054906101000a900460ff166002811115611414577f4e487b7100000000000000000000000000000000000000000000000000000000600052602160045260246000fd5b600281111561144c577f4e487b7100000000000000000000000000000000000000000000000000000000600052602160045260246000fd5b81526020016001820160029054906101000a900460ff161515151581526020016001820160039054906101000a900460ff161515151581526020016001820160049054906101000a900460ff1660068111156114d1577f4e487b7100000000000000000000000000000000000000000000000000000000600052602160045260246000fd5b6006811115611509577f4e487b7100000000000000000000000000000000000000000000000000000000600052602160045260246000fd5b815260200160028201805461151d90613cde565b80601f016020809104026020016040519081016040528092919081815260200182805461154990613cde565b80156115965780601f1061156b57610100808354040283529160200191611596565b820191906000526020600020905b81548152906001019060200180831161157957829003601f168201915b505050505081526020016003820180546115af90613cde565b80601f01602080910402602001604051908101604052809291908181526020018280546115db90613cde565b80156116285780601f106115fd57610100808354040283529160200191611628565b820191906000526020600020905b81548152906001019060200180831161160b57829003601f168201915b505050505081526020016004820180548060200260200160405190810160405280929190818152602001828054801561168057602002820191906000526020600020905b81548152602001906001019080831161166c575b505050505081525050815250509050600080600086815260200190815260200160002060010160009054906101000a900473ffffffffffffffffffffffffffffffffffffffff169050600073ffffffffffffffffffffffffffffffffffffffff168173ffffffffffffffffffffffffffffffffffffffff16148061172f57503373ffffffffffffffffffffffffffffffffffffffff168173ffffffffffffffffffffffffffffffffffffffff16145b60008087815260200190815260200160002060000190611785576040517f08c379a000000000000000000000000000000000000000000000000000000000815260040161177c919061398b565b60405180910390fd5b5060008086815260200190815260200160002060040160010160039054906101000a900460ff1615611b8c576000808681526020019081526020016000206004016000015492506000611b4860008088815260200190815260200160002060040160405180610120016040529081600082015481526020016001820160009054906101000a900460ff166003811115611847577f4e487b7100000000000000000000000000000000000000000000000000000000600052602160045260246000fd5b600381111561187f577f4e487b7100000000000000000000000000000000000000000000000000000000600052602160045260246000fd5b81526020016001820160019054906101000a900460ff1660028111156118ce577f4e487b7100000000000000000000000000000000000000000000000000000000600052602160045260246000fd5b6002811115611906577f4e487b7100000000000000000000000000000000000000000000000000000000600052602160045260246000fd5b81526020016001820160029054906101000a900460ff161515151581526020016001820160039054906101000a900460ff161515151581526020016001820160049054906101000a900460ff16600681111561198b577f4e487b7100000000000000000000000000000000000000000000000000000000600052602160045260246000fd5b60068111156119c3577f4e487b7100000000000000000000000000000000000000000000000000000000600052602160045260246000fd5b81526020016002820180546119d790613cde565b80601f0160208091040260200160405190810160405280929190818152602001828054611a0390613cde565b8015611a505780601f10611a2557610100808354040283529160200191611a50565b820191906000526020600020905b815481529060010190602001808311611a3357829003601f168201915b50505050508152602001600382018054611a6990613cde565b80601f0160208091040260200160405190810160405280929190818152602001828054611a9590613cde565b8015611ae25780601f10611ab757610100808354040283529160200191611ae2565b820191906000526020600020905b815481529060010190602001808311611ac557829003601f168201915b5050505050815260200160048201805480602002602001604051908101604052809291908181526020018280548015611b3a57602002820191906000526020600020905b815481526020019060010190808311611b26575b505050505081525050610435565b905080611b8a576040517f08c379a0000000000000000000000000000000000000000000000000000000008152600401611b81906139ad565b60405180910390fd5b505b6000806000878152602001908152602001600020600201805480602002602001604051908101604052809291908181526020018280548015611bed57602002820191906000526020600020905b815481526020019060010190808311611bd9575b50505050509050600081511415611c075760019450612089565b600080600088815260200190815260200160002060010160159054906101000a900460ff16905060006003811115611c68577f4e487b7100000000000000000000000000000000000000000000000000000000600052602160045260246000fd5b816003811115611ca1577f4e487b7100000000000000000000000000000000000000000000000000000000600052602160045260246000fd5b1415611d075760011515611cf583600081518110611ce8577f4e487b7100000000000000000000000000000000000000000000000000000000600052603260045260246000fd5b6020026020010151611071565b15151415611d0257600195505b612087565b600080600090505b8351811015611d8f5760011515611d65858381518110611d58577f4e487b7100000000000000000000000000000000000000000000000000000000600052603260045260246000fd5b6020026020010151611071565b15151415611d7c578180611d7890613d10565b9250505b8080611d8790613d10565b915050611d0f565b5060016003811115611dca577f4e487b7100000000000000000000000000000000000000000000000000000000600052602160045260246000fd5b826003811115611e03577f4e487b7100000000000000000000000000000000000000000000000000000000600052602160045260246000fd5b1415611e1c578251811415611e1757600196505b612085565b60026003811115611e56577f4e487b7100000000000000000000000000000000000000000000000000000000600052602160045260246000fd5b826003811115611e8f577f4e487b7100000000000000000000000000000000000000000000000000000000600052602160045260246000fd5b1415611e9e5760019650612084565b600380811115611ed7577f4e487b7100000000000000000000000000000000000000000000000000000000600052602160045260246000fd5b826003811115611f10577f4e487b7100000000000000000000000000000000000000000000000000000000600052602160045260246000fd5b14156120835760005b83518110156120815760036000858381518110611f5f577f4e487b7100000000000000000000000000000000000000000000000000000000600052603260045260246000fd5b6020026020010151815260200190815260200160002060009054906101000a900460ff161561206e57887f63a242a632efe33c0e210e04e4173612a17efa4f16aa4890bc7e46caece80de060405160405180910390a2838181518110611fee577f4e487b7100000000000000000000000000000000000000000000000000000000600052603260045260246000fd5b60200260200101517f63a242a632efe33c0e210e04e4173612a17efa4f16aa4890bc7e46caece80de060405160405180910390a261206b84828151811061205e577f4e487b7100000000000000000000000000000000000000000000000000000000600052603260045260246000fd5b6020026020010151611071565b97505b808061207990613d10565b915050611f19565b505b5b5b505b505b84156121b35760008087815260200190815260200160002060040160010160039054906101000a900460ff16156120e75760016003600086815260200190815260200160002060006101000a81548160ff0219169083151502179055505b6005836000015190806001815401808255809150506001900390600052602060002001600090919091909150908051906020019061212692919061292d565b50600160008088815260200190815260200160002060010160146101000a81548160ff0219169083151502179055506004869080600181540180825580915050600190039060005260206000200160009091909190915055600115157facd30b4f9fd5868793e13ffb506f03374a23d9feba1249ac2cc7b0fe024ff4ba60405160405180910390a26121e4565b600015157facd30b4f9fd5868793e13ffb506f03374a23d9feba1249ac2cc7b0fe024ff4ba60405160405180910390a25b50505050919050565b60007327b1618cb7956bbf41bc640a506f4563ae74f61363e1df7ad68585856040518463ffffffff1660e01b815260040161222a939291906138e6565b60206040518083038186803b15801561224257600080fd5b505af4158015612256573d6000803e3d6000fd5b505050506040513d601f19601f8201168201806040525081019061227a9190612fc4565b90509392505050565b60028180516020810182018051848252602083016020850120818352809550505050505060009150905080546122b890613cde565b80601f01602080910402602001604051908101604052809291908181526020018280546122e490613cde565b80156123315780601f1061230657610100808354040283529160200191612331565b820191906000526020600020905b81548152906001019060200180831161231457829003601f168201915b505050505081565b60006002811115612373577f4e487b7100000000000000000000000000000000000000000000000000000000600052602160045260246000fd5b816040015160028111156123b0577f4e487b7100000000000000000000000000000000000000000000000000000000600052602160045260246000fd5b1415612401576040518060200160405280600081525060028260c001516040516123da91906137df565b908152602001604051809103902090805190602001906123fb92919061292d565b506124a8565b6001600281111561243b577f4e487b7100000000000000000000000000000000000000000000000000000000600052602160045260246000fd5b81604001516002811115612478577f4e487b7100000000000000000000000000000000000000000000000000000000600052602160045260246000fd5b14156124a757600060018260c0015160405161249491906137df565b9081526020016040518091039020819055505b5b6124b6878787878787610743565b6124be612a4d565b816000015181600001818152505081602001518160200190600381111561250e577f4e487b7100000000000000000000000000000000000000000000000000000000600052602160045260246000fd5b90816003811115612548577f4e487b7100000000000000000000000000000000000000000000000000000000600052602160045260246000fd5b8152505081604001518160400190600281111561258e577f4e487b7100000000000000000000000000000000000000000000000000000000600052602160045260246000fd5b908160028111156125c8577f4e487b7100000000000000000000000000000000000000000000000000000000600052602160045260246000fd5b81525050816060015181606001901515908115158152505081608001518160800190151590811515815250508160a001518160a001906006811115612636577f4e487b7100000000000000000000000000000000000000000000000000000000600052602160045260246000fd5b90816006811115612670577f4e487b7100000000000000000000000000000000000000000000000000000000600052602160045260246000fd5b815250508160c001518160c001819052508160e001518160e00181905250816101000151816101000181905250806000808a81526020019081526020016000206004016000820151816000015560208201518160010160006101000a81548160ff0219169083600381111561270e577f4e487b7100000000000000000000000000000000000000000000000000000000600052602160045260246000fd5b021790555060408201518160010160016101000a81548160ff02191690836002811115612764577f4e487b7100000000000000000000000000000000000000000000000000000000600052602160045260246000fd5b021790555060608201518160010160026101000a81548160ff02191690831515021790555060808201518160010160036101000a81548160ff02191690831515021790555060a08201518160010160046101000a81548160ff021916908360068111156127fa577f4e487b7100000000000000000000000000000000000000000000000000000000600052602160045260246000fd5b021790555060c082015181600201908051906020019061281b92919061292d565b5060e082015181600301908051906020019061283892919061292d565b50610100820151816004019080519060200190612856929190612a00565b509050505050505050505050565b8181600286866040516128789291906137c6565b90815260200160405180910390209190612893929190612b45565b5050505050565b6040518060e0016040528060608152602001600073ffffffffffffffffffffffffffffffffffffffff1681526020016000151581526020016000600381111561290c577f4e487b7100000000000000000000000000000000000000000000000000000000600052602160045260246000fd5b81526020016060815260200160608152602001612927612a4d565b81525090565b82805461293990613cde565b90600052602060002090601f01602090048101928261295b57600085556129a2565b82601f1061297457805160ff19168380011785556129a2565b828001600101855582156129a2579182015b828111156129a1578251825591602001919060010190612986565b5b5090506129af9190612bcb565b5090565b8280548282559060005260206000209081019282156129ef579160200282015b828111156129ee5782518255916020019190600101906129d3565b5b5090506129fc9190612bcb565b5090565b828054828255906000526020600020908101928215612a3c579160200282015b82811115612a3b578251825591602001919060010190612a20565b5b509050612a499190612be8565b5090565b6040518061012001604052806000815260200160006003811115612a9a577f4e487b7100000000000000000000000000000000000000000000000000000000600052602160045260246000fd5b815260200160006002811115612ad9577f4e487b7100000000000000000000000000000000000000000000000000000000600052602160045260246000fd5b815260200160001515815260200160001515815260200160006006811115612b2a577f4e487b7100000000000000000000000000000000000000000000000000000000600052602160045260246000fd5b81526020016060815260200160608152602001606081525090565b828054612b5190613cde565b90600052602060002090601f016020900481019282612b735760008555612bba565b82601f10612b8c57803560ff1916838001178555612bba565b82800160010185558215612bba579182015b82811115612bb9578235825591602001919060010190612b9e565b5b509050612bc79190612bcb565b5090565b5b80821115612be4576000816000905550600101612bcc565b5090565b5b80821115612c01576000816000905550600101612be9565b5090565b6000612c18612c1384613a19565b6139e8565b90508083825260208201905082856020860282011115612c3757600080fd5b60005b85811015612c675781612c4d8882612ded565b845260208401935060208301925050600181019050612c3a565b5050509392505050565b6000612c84612c7f84613a45565b6139e8565b90508083825260208201905082856020860282011115612ca357600080fd5b60005b85811015612cd35781612cb98882612f9a565b845260208401935060208301925050600181019050612ca6565b5050509392505050565b6000612cf0612ceb84613a71565b6139e8565b905082815260208101848484011115612d0857600080fd5b612d13848285613c9c565b509392505050565b600081359050612d2a81613e4e565b92915050565b600082601f830112612d4157600080fd5b8135612d51848260208601612c05565b91505092915050565b600082601f830112612d6b57600080fd5b8135612d7b848260208601612c71565b91505092915050565b600081359050612d9381613e65565b92915050565b600081519050612da881613e65565b92915050565b600081359050612dbd81613e7c565b92915050565b600081359050612dd281613e8c565b92915050565b600081359050612de781613e9c565b92915050565b600081359050612dfc81613eac565b92915050565b60008083601f840112612e1457600080fd5b8235905067ffffffffffffffff811115612e2d57600080fd5b602083019150836001820283011115612e4557600080fd5b9250929050565b600082601f830112612e5d57600080fd5b8135612e6d848260208601612cdd565b91505092915050565b60006101208284031215612e8957600080fd5b612e946101206139e8565b90506000612ea484828501612f9a565b6000830152506020612eb884828501612dc3565b6020830152506040612ecc84828501612dae565b6040830152506060612ee084828501612d84565b6060830152506080612ef484828501612d84565b60808301525060a0612f0884828501612dd8565b60a08301525060c082013567ffffffffffffffff811115612f2857600080fd5b612f3484828501612e4c565b60c08301525060e082013567ffffffffffffffff811115612f5457600080fd5b612f6084828501612e4c565b60e08301525061010082013567ffffffffffffffff811115612f8157600080fd5b612f8d84828501612d30565b6101008301525092915050565b600081359050612fa981613ec3565b92915050565b600081519050612fbe81613ec3565b92915050565b600060208284031215612fd657600080fd5b6000612fe484828501612d99565b91505092915050565b60008060006060848603121561300257600080fd5b600061301086828701612ded565b935050602084013567ffffffffffffffff81111561302d57600080fd5b61303986828701612d30565b925050604061304a86828701612dd8565b9150509250925092565b6000806020838503121561306757600080fd5b600083013567ffffffffffffffff81111561308157600080fd5b61308d85828601612e02565b92509250509250929050565b6000806000604084860312156130ae57600080fd5b600084013567ffffffffffffffff8111156130c857600080fd5b6130d486828701612e02565b935093505060206130e786828701612ded565b9150509250925092565b6000806000806040858703121561310757600080fd5b600085013567ffffffffffffffff81111561312157600080fd5b61312d87828801612e02565b9450945050602085013567ffffffffffffffff81111561314c57600080fd5b61315887828801612e02565b925092505092959194509250565b60006020828403121561317857600080fd5b600082013567ffffffffffffffff81111561319257600080fd5b61319e84828501612e4c565b91505092915050565b6000602082840312156131b957600080fd5b600082013567ffffffffffffffff8111156131d357600080fd5b6131df84828501612e76565b91505092915050565b6000602082840312156131fa57600080fd5b600061320884828501612f9a565b91505092915050565b60006020828403121561322357600080fd5b600061323184828501612faf565b91505092915050565b60008060008060008060c0878903121561325357600080fd5b600061326189828a01612f9a565b965050602087013567ffffffffffffffff81111561327e57600080fd5b61328a89828a01612e4c565b955050604061329b89828a01612d1b565b94505060606132ac89828a01612dc3565b935050608087013567ffffffffffffffff8111156132c957600080fd5b6132d589828a01612d5a565b92505060a087013567ffffffffffffffff8111156132f257600080fd5b6132fe89828a01612d5a565b9150509295509295509295565b600080600080600080600060e0888a03121561332657600080fd5b60006133348a828b01612f9a565b975050602088013567ffffffffffffffff81111561335157600080fd5b61335d8a828b01612e4c565b965050604061336e8a828b01612d1b565b955050606061337f8a828b01612dc3565b945050608088013567ffffffffffffffff81111561339c57600080fd5b6133a88a828b01612d5a565b93505060a088013567ffffffffffffffff8111156133c557600080fd5b6133d18a828b01612d5a565b92505060c088013567ffffffffffffffff8111156133ee57600080fd5b6133fa8a828b01612e76565b91505092959891949750929550565b600061341583836135d8565b60208301905092915050565b600061342d838361360c565b905092915050565b600061344183836137a8565b60208301905092915050565b61345681613c00565b82525050565b600061346782613ae6565b6134718185613b39565b935061347c83613aa1565b8060005b838110156134ad5781516134948882613409565b975061349f83613b12565b925050600181019050613480565b5085935050505092915050565b60006134c582613af1565b6134cf8185613b4a565b9350836020820285016134e185613ab1565b8060005b8581101561351d57848403895281516134fe8582613421565b945061350983613b1f565b925060208a019950506001810190506134e5565b50829750879550505050505092915050565b600061353a82613afc565b6135448185613b5b565b935061354f83613ac1565b8060005b838110156135805781516135678882613435565b975061357283613b2c565b925050600181019050613553565b5085935050505092915050565b61359681613c12565b82525050565b6135a581613c78565b82525050565b6135b481613c8a565b82525050565b6135c381613c44565b82525050565b6135d281613c44565b82525050565b6135e181613c44565b82525050565b60006135f38385613b9f565b9350613600838584613c9c565b82840190509392505050565b600061361782613b07565b6136218185613b6c565b9350613631818560208601613cab565b61363a81613e15565b840191505092915050565b600061365082613b07565b61365a8185613b7d565b935061366a818560208601613cab565b61367381613e15565b840191505092915050565b600061368982613b07565b6136938185613b8e565b93506136a3818560208601613cab565b6136ac81613e15565b840191505092915050565b60006136c282613b07565b6136cc8185613b9f565b93506136dc818560208601613cab565b80840191505092915050565b600081546136f581613cde565b6136ff8186613b7d565b9450600182166000811461371a576001811461372c5761375f565b60ff198316865260208601935061375f565b61373585613ad1565b60005b8381101561375757815481890152600182019150602081019050613738565b808801955050505b50505092915050565b6000613775602083613b7d565b91507f50726f63657373205661726961626c65206973206e6f7420636f72726563742e6000830152602082019050919050565b6137b181613c6e565b82525050565b6137c081613c6e565b82525050565b60006137d38284866135e7565b91508190509392505050565b60006137eb82846136b7565b915081905092915050565b6000602082019050818103600083015261381081846134ba565b905092915050565b60006020820190508181036000830152613832818461352f565b905092915050565b600060208201905061384f600083018461358d565b92915050565b600060c08201905061386a600083018961358d565b818103602083015261387c8188613645565b905061388b604083018761344d565b613898606083018661359c565b81810360808301526138aa818561352f565b905081810360a08301526138be818461352f565b9050979650505050505050565b60006020820190506138e060008301846135ba565b92915050565b60006060820190506138fb60008301866135c9565b818103602083015261390d818561345c565b905061391c60408301846135ab565b949350505050565b6000602082019050818103600083015261393e8184613645565b905092915050565b60006060820190508181036000830152613960818661367e565b90508181036020830152613974818561367e565b905061398360408301846135ab565b949350505050565b600060208201905081810360008301526139a581846136e8565b905092915050565b600060208201905081810360008301526139c681613768565b9050919050565b60006020820190506139e260008301846137b7565b92915050565b6000604051905081810181811067ffffffffffffffff82111715613a0f57613a0e613de6565b5b8060405250919050565b600067ffffffffffffffff821115613a3457613a33613de6565b5b602082029050602081019050919050565b600067ffffffffffffffff821115613a6057613a5f613de6565b5b602082029050602081019050919050565b600067ffffffffffffffff821115613a8c57613a8b613de6565b5b601f19601f8301169050602081019050919050565b6000819050602082019050919050565b6000819050602082019050919050565b6000819050602082019050919050565b60008190508160005260206000209050919050565b600081519050919050565b600081519050919050565b600081519050919050565b600081519050919050565b6000602082019050919050565b6000602082019050919050565b6000602082019050919050565b600082825260208201905092915050565b600082825260208201905092915050565b600082825260208201905092915050565b600082825260208201905092915050565b600082825260208201905092915050565b600082825260208201905092915050565b600081905092915050565b6000613bb582613c6e565b9150613bc083613c6e565b9250827fffffffffffffffffffffffffffffffffffffffffffffffffffffffffffffffff03821115613bf557613bf4613d59565b5b828201905092915050565b6000613c0b82613c4e565b9050919050565b60008115159050919050565b6000819050613c2c82613e26565b919050565b6000819050613c3f82613e3a565b919050565b6000819050919050565b600073ffffffffffffffffffffffffffffffffffffffff82169050919050565b6000819050919050565b6000613c8382613c1e565b9050919050565b6000613c9582613c31565b9050919050565b82818337600083830152505050565b60005b83811015613cc9578082015181840152602081019050613cae565b83811115613cd8576000848401525b50505050565b60006002820490506001821680613cf657607f821691505b60208210811415613d0a57613d09613db7565b5b50919050565b6000613d1b82613c6e565b91507fffffffffffffffffffffffffffffffffffffffffffffffffffffffffffffffff821415613d4e57613d4d613d59565b5b600182019050919050565b7f4e487b7100000000000000000000000000000000000000000000000000000000600052601160045260246000fd5b7f4e487b7100000000000000000000000000000000000000000000000000000000600052602160045260246000fd5b7f4e487b7100000000000000000000000000000000000000000000000000000000600052602260045260246000fd5b7f4e487b7100000000000000000000000000000000000000000000000000000000600052604160045260246000fd5b6000601f19601f8301169050919050565b60048110613e3757613e36613d88565b5b50565b60078110613e4b57613e4a613d88565b5b50565b613e5781613c00565b8114613e6257600080fd5b50565b613e6e81613c12565b8114613e7957600080fd5b50565b60038110613e8957600080fd5b50565b60048110613e9957600080fd5b50565b60078110613ea957600080fd5b50565b613eb581613c44565b8114613ec057600080fd5b50565b613ecc81613c6e565b8114613ed757600080fd5b5056fea2646970667358221220be8d97a51726892f30a9eabc3bb6ac611e8c67438540de99787bc5bfeb3ba57a64736f6c63430008000033","opcodes":"PUSH1 0x80 PUSH1 0x40 MSTORE CALLVALUE DUP1 ISZERO PUSH2 0x10 JUMPI PUSH1 0x0 DUP1 REVERT JUMPDEST POP PUSH2 0x3F10 DUP1 PUSH2 0x20 PUSH1 0x0 CODECOPY PUSH1 0x0 RETURN INVALID PUSH1 0x80 PUSH1 0x40 MSTORE CALLVALUE DUP1 ISZERO PUSH2 0x10 JUMPI PUSH1 0x0 DUP1 REVERT JUMPDEST POP PUSH1 0x4 CALLDATASIZE LT PUSH2 0x121 JUMPI PUSH1 0x0 CALLDATALOAD PUSH1 0xE0 SHR DUP1 PUSH4 0x897A3E27 GT PUSH2 0xAD JUMPI DUP1 PUSH4 0x993C0410 GT PUSH2 0x71 JUMPI DUP1 PUSH4 0x993C0410 EQ PUSH2 0x36D JUMPI DUP1 PUSH4 0xA7C1EB90 EQ PUSH2 0x39D JUMPI DUP1 PUSH4 0xB8C56CAE EQ PUSH2 0x3CD JUMPI DUP1 PUSH4 0xC7B1EE06 EQ PUSH2 0x3FD JUMPI DUP1 PUSH4 0xFE9620C9 EQ PUSH2 0x419 JUMPI PUSH2 0x121 JUMP JUMPDEST DUP1 PUSH4 0x897A3E27 EQ PUSH2 0x28A JUMPI DUP1 PUSH4 0x909E4AB6 EQ PUSH2 0x2BA JUMPI DUP1 PUSH4 0x95794157 EQ PUSH2 0x2D8 JUMPI DUP1 PUSH4 0x976217CD EQ PUSH2 0x308 JUMPI DUP1 PUSH4 0x9849CEE9 EQ PUSH2 0x33D JUMPI PUSH2 0x121 JUMP JUMPDEST DUP1 PUSH4 0x4D60F651 GT PUSH2 0xF4 JUMPI DUP1 PUSH4 0x4D60F651 EQ PUSH2 0x1BE JUMPI DUP1 PUSH4 0x61EA18DF EQ PUSH2 0x1DC JUMPI DUP1 PUSH4 0x71C56F9B EQ PUSH2 0x20C JUMPI DUP1 PUSH4 0x76E5C0DE EQ PUSH2 0x22A JUMPI DUP1 PUSH4 0x81D1CD2E EQ PUSH2 0x25A JUMPI PUSH2 0x121 JUMP JUMPDEST DUP1 PUSH4 0x6470433 EQ PUSH2 0x126 JUMPI DUP1 PUSH4 0x307ED4BE EQ PUSH2 0x156 JUMPI DUP1 PUSH4 0x38624725 EQ PUSH2 0x172 JUMPI DUP1 PUSH4 0x38B7B6F0 EQ PUSH2 0x1A2 JUMPI JUMPDEST PUSH1 0x0 DUP1 REVERT JUMPDEST PUSH2 0x140 PUSH1 0x4 DUP1 CALLDATASIZE SUB DUP2 ADD SWAP1 PUSH2 0x13B SWAP2 SWAP1 PUSH2 0x31A7 JUMP JUMPDEST PUSH2 0x435 JUMP JUMPDEST PUSH1 0x40 MLOAD PUSH2 0x14D SWAP2 SWAP1 PUSH2 0x383A JUMP JUMPDEST PUSH1 0x40 MLOAD DUP1 SWAP2 SUB SWAP1 RETURN JUMPDEST PUSH2 0x170 PUSH1 0x4 DUP1 CALLDATASIZE SUB DUP2 ADD SWAP1 PUSH2 0x16B SWAP2 SWAP1 PUSH2 0x323A JUMP JUMPDEST PUSH2 0x743 JUMP JUMPDEST STOP JUMPDEST PUSH2 0x18C PUSH1 0x4 DUP1 CALLDATASIZE SUB DUP2 ADD SWAP1 PUSH2 0x187 SWAP2 SWAP1 PUSH2 0x3166 JUMP JUMPDEST PUSH2 0xB0D JUMP JUMPDEST PUSH1 0x40 MLOAD PUSH2 0x199 SWAP2 SWAP1 PUSH2 0x38CB JUMP JUMPDEST PUSH1 0x40 MLOAD DUP1 SWAP2 SUB SWAP1 RETURN JUMPDEST PUSH2 0x1BC PUSH1 0x4 DUP1 CALLDATASIZE SUB DUP2 ADD SWAP1 PUSH2 0x1B7 SWAP2 SWAP1 PUSH2 0x3099 JUMP JUMPDEST PUSH2 0xB3B JUMP JUMPDEST STOP JUMPDEST PUSH2 0x1C6 PUSH2 0xB65 JUMP JUMPDEST PUSH1 0x40 MLOAD PUSH2 0x1D3 SWAP2 SWAP1 PUSH2 0x37F6 JUMP JUMPDEST PUSH1 0x40 MLOAD DUP1 SWAP2 SUB SWAP1 RETURN JUMPDEST PUSH2 0x1F6 PUSH1 0x4 DUP1 CALLDATASIZE SUB DUP2 ADD SWAP1 PUSH2 0x1F1 SWAP2 SWAP1 PUSH2 0x31E8 JUMP JUMPDEST PUSH2 0xC3E JUMP JUMPDEST PUSH1 0x40 MLOAD PUSH2 0x203 SWAP2 SWAP1 PUSH2 0x3924 JUMP JUMPDEST PUSH1 0x40 MLOAD DUP1 SWAP2 SUB SWAP1 RETURN JUMPDEST PUSH2 0x214 PUSH2 0xCEA JUMP JUMPDEST PUSH1 0x40 MLOAD PUSH2 0x221 SWAP2 SWAP1 PUSH2 0x39CD JUMP JUMPDEST PUSH1 0x40 MLOAD DUP1 SWAP2 SUB SWAP1 RETURN JUMPDEST PUSH2 0x244 PUSH1 0x4 DUP1 CALLDATASIZE SUB DUP2 ADD SWAP1 PUSH2 0x23F SWAP2 SWAP1 PUSH2 0x31E8 JUMP JUMPDEST PUSH2 0xD7E JUMP JUMPDEST PUSH1 0x40 MLOAD PUSH2 0x251 SWAP2 SWAP1 PUSH2 0x383A JUMP JUMPDEST PUSH1 0x40 MLOAD DUP1 SWAP2 SUB SWAP1 RETURN JUMPDEST PUSH2 0x274 PUSH1 0x4 DUP1 CALLDATASIZE SUB DUP2 ADD SWAP1 PUSH2 0x26F SWAP2 SWAP1 PUSH2 0x31E8 JUMP JUMPDEST PUSH2 0xD9E JUMP JUMPDEST PUSH1 0x40 MLOAD PUSH2 0x281 SWAP2 SWAP1 PUSH2 0x39CD JUMP JUMPDEST PUSH1 0x40 MLOAD DUP1 SWAP2 SUB SWAP1 RETURN JUMPDEST PUSH2 0x2A4 PUSH1 0x4 DUP1 CALLDATASIZE SUB DUP2 ADD SWAP1 PUSH2 0x29F SWAP2 SWAP1 PUSH2 0x3054 JUMP JUMPDEST PUSH2 0xDC0 JUMP JUMPDEST PUSH1 0x40 MLOAD PUSH2 0x2B1 SWAP2 SWAP1 PUSH2 0x38CB JUMP JUMPDEST PUSH1 0x40 MLOAD DUP1 SWAP2 SUB SWAP1 RETURN JUMPDEST PUSH2 0x2C2 PUSH2 0xDEB JUMP JUMPDEST PUSH1 0x40 MLOAD PUSH2 0x2CF SWAP2 SWAP1 PUSH2 0x3818 JUMP JUMPDEST PUSH1 0x40 MLOAD DUP1 SWAP2 SUB SWAP1 RETURN JUMPDEST PUSH2 0x2F2 PUSH1 0x4 DUP1 CALLDATASIZE SUB DUP2 ADD SWAP1 PUSH2 0x2ED SWAP2 SWAP1 PUSH2 0x31E8 JUMP JUMPDEST PUSH2 0xE43 JUMP JUMPDEST PUSH1 0x40 MLOAD PUSH2 0x2FF SWAP2 SWAP1 PUSH2 0x39CD JUMP JUMPDEST PUSH1 0x40 MLOAD DUP1 SWAP2 SUB SWAP1 RETURN JUMPDEST PUSH2 0x322 PUSH1 0x4 DUP1 CALLDATASIZE SUB DUP2 ADD SWAP1 PUSH2 0x31D SWAP2 SWAP1 PUSH2 0x31E8 JUMP JUMPDEST PUSH2 0xE67 JUMP JUMPDEST PUSH1 0x40 MLOAD PUSH2 0x334 SWAP7 SWAP6 SWAP5 SWAP4 SWAP3 SWAP2 SWAP1 PUSH2 0x3855 JUMP JUMPDEST PUSH1 0x40 MLOAD DUP1 SWAP2 SUB SWAP1 RETURN JUMPDEST PUSH2 0x357 PUSH1 0x4 DUP1 CALLDATASIZE SUB DUP2 ADD SWAP1 PUSH2 0x352 SWAP2 SWAP1 PUSH2 0x31E8 JUMP JUMPDEST PUSH2 0x1071 JUMP JUMPDEST PUSH1 0x40 MLOAD PUSH2 0x364 SWAP2 SWAP1 PUSH2 0x383A JUMP JUMPDEST PUSH1 0x40 MLOAD DUP1 SWAP2 SUB SWAP1 RETURN JUMPDEST PUSH2 0x387 PUSH1 0x4 DUP1 CALLDATASIZE SUB DUP2 ADD SWAP1 PUSH2 0x382 SWAP2 SWAP1 PUSH2 0x31E8 JUMP JUMPDEST PUSH2 0x109D JUMP JUMPDEST PUSH1 0x40 MLOAD PUSH2 0x394 SWAP2 SWAP1 PUSH2 0x383A JUMP JUMPDEST PUSH1 0x40 MLOAD DUP1 SWAP2 SUB SWAP1 RETURN JUMPDEST PUSH2 0x3B7 PUSH1 0x4 DUP1 CALLDATASIZE SUB DUP2 ADD SWAP1 PUSH2 0x3B2 SWAP2 SWAP1 PUSH2 0x2FED JUMP JUMPDEST PUSH2 0x21ED JUMP JUMPDEST PUSH1 0x40 MLOAD PUSH2 0x3C4 SWAP2 SWAP1 PUSH2 0x383A JUMP JUMPDEST PUSH1 0x40 MLOAD DUP1 SWAP2 SUB SWAP1 RETURN JUMPDEST PUSH2 0x3E7 PUSH1 0x4 DUP1 CALLDATASIZE SUB DUP2 ADD SWAP1 PUSH2 0x3E2 SWAP2 SWAP1 PUSH2 0x3166 JUMP JUMPDEST PUSH2 0x2283 JUMP JUMPDEST PUSH1 0x40 MLOAD PUSH2 0x3F4 SWAP2 SWAP1 PUSH2 0x3924 JUMP JUMPDEST PUSH1 0x40 MLOAD DUP1 SWAP2 SUB SWAP1 RETURN JUMPDEST PUSH2 0x417 PUSH1 0x4 DUP1 CALLDATASIZE SUB DUP2 ADD SWAP1 PUSH2 0x412 SWAP2 SWAP1 PUSH2 0x330B JUMP JUMPDEST PUSH2 0x2339 JUMP JUMPDEST STOP JUMPDEST PUSH2 0x433 PUSH1 0x4 DUP1 CALLDATASIZE SUB DUP2 ADD SWAP1 PUSH2 0x42E SWAP2 SWAP1 PUSH2 0x30F1 JUMP JUMPDEST PUSH2 0x2864 JUMP JUMPDEST STOP JUMPDEST PUSH1 0x0 DUP1 PUSH1 0x2 DUP2 GT ISZERO PUSH2 0x470 JUMPI PUSH32 0x4E487B7100000000000000000000000000000000000000000000000000000000 PUSH1 0x0 MSTORE PUSH1 0x21 PUSH1 0x4 MSTORE PUSH1 0x24 PUSH1 0x0 REVERT JUMPDEST DUP3 PUSH1 0x40 ADD MLOAD PUSH1 0x2 DUP2 GT ISZERO PUSH2 0x4AD JUMPI PUSH32 0x4E487B7100000000000000000000000000000000000000000000000000000000 PUSH1 0x0 MSTORE PUSH1 0x21 PUSH1 0x4 MSTORE PUSH1 0x24 PUSH1 0x0 REVERT JUMPDEST EQ ISZERO PUSH2 0x5FD JUMPI PUSH1 0x0 PUSH1 0x2 DUP4 PUSH1 0xC0 ADD MLOAD PUSH1 0x40 MLOAD PUSH2 0x4C9 SWAP2 SWAP1 PUSH2 0x37DF JUMP JUMPDEST SWAP1 DUP2 MSTORE PUSH1 0x20 ADD PUSH1 0x40 MLOAD DUP1 SWAP2 SUB SWAP1 KECCAK256 DUP1 SLOAD PUSH2 0x4E2 SWAP1 PUSH2 0x3CDE JUMP JUMPDEST DUP1 PUSH1 0x1F ADD PUSH1 0x20 DUP1 SWAP2 DIV MUL PUSH1 0x20 ADD PUSH1 0x40 MLOAD SWAP1 DUP2 ADD PUSH1 0x40 MSTORE DUP1 SWAP3 SWAP2 SWAP1 DUP2 DUP2 MSTORE PUSH1 0x20 ADD DUP3 DUP1 SLOAD PUSH2 0x50E SWAP1 PUSH2 0x3CDE JUMP JUMPDEST DUP1 ISZERO PUSH2 0x55B JUMPI DUP1 PUSH1 0x1F LT PUSH2 0x530 JUMPI PUSH2 0x100 DUP1 DUP4 SLOAD DIV MUL DUP4 MSTORE SWAP2 PUSH1 0x20 ADD SWAP2 PUSH2 0x55B JUMP JUMPDEST DUP3 ADD SWAP2 SWAP1 PUSH1 0x0 MSTORE PUSH1 0x20 PUSH1 0x0 KECCAK256 SWAP1 JUMPDEST DUP2 SLOAD DUP2 MSTORE SWAP1 PUSH1 0x1 ADD SWAP1 PUSH1 0x20 ADD DUP1 DUP4 GT PUSH2 0x53E JUMPI DUP3 SWAP1 SUB PUSH1 0x1F AND DUP3 ADD SWAP2 JUMPDEST POP POP POP POP POP SWAP1 POP PUSH20 0x27B1618CB7956BBF41BC640A506F4563AE74F613 PUSH4 0xA8C0BF8E DUP3 DUP6 PUSH1 0xE0 ADD MLOAD DUP7 PUSH1 0xA0 ADD MLOAD PUSH1 0x40 MLOAD DUP5 PUSH4 0xFFFFFFFF AND PUSH1 0xE0 SHL DUP2 MSTORE PUSH1 0x4 ADD PUSH2 0x5A5 SWAP4 SWAP3 SWAP2 SWAP1 PUSH2 0x3946 JUMP JUMPDEST PUSH1 0x20 PUSH1 0x40 MLOAD DUP1 DUP4 SUB DUP2 DUP7 DUP1 EXTCODESIZE ISZERO DUP1 ISZERO PUSH2 0x5BD JUMPI PUSH1 0x0 DUP1 REVERT JUMPDEST POP GAS DELEGATECALL ISZERO DUP1 ISZERO PUSH2 0x5D1 JUMPI RETURNDATASIZE PUSH1 0x0 DUP1 RETURNDATACOPY RETURNDATASIZE PUSH1 0x0 REVERT JUMPDEST POP POP POP POP PUSH1 0x40 MLOAD RETURNDATASIZE PUSH1 0x1F NOT PUSH1 0x1F DUP3 ADD AND DUP3 ADD DUP1 PUSH1 0x40 MSTORE POP DUP2 ADD SWAP1 PUSH2 0x5F5 SWAP2 SWAP1 PUSH2 0x2FC4 JUMP JUMPDEST SWAP2 POP POP PUSH2 0x73E JUMP JUMPDEST PUSH1 0x1 PUSH1 0x2 DUP2 GT ISZERO PUSH2 0x637 JUMPI PUSH32 0x4E487B7100000000000000000000000000000000000000000000000000000000 PUSH1 0x0 MSTORE PUSH1 0x21 PUSH1 0x4 MSTORE PUSH1 0x24 PUSH1 0x0 REVERT JUMPDEST DUP3 PUSH1 0x40 ADD MLOAD PUSH1 0x2 DUP2 GT ISZERO PUSH2 0x674 JUMPI PUSH32 0x4E487B7100000000000000000000000000000000000000000000000000000000 PUSH1 0x0 MSTORE PUSH1 0x21 PUSH1 0x4 MSTORE PUSH1 0x24 PUSH1 0x0 REVERT JUMPDEST EQ ISZERO PUSH2 0x73D JUMPI PUSH1 0x0 PUSH1 0x1 DUP4 PUSH1 0xC0 ADD MLOAD PUSH1 0x40 MLOAD PUSH2 0x690 SWAP2 SWAP1 PUSH2 0x37DF JUMP JUMPDEST SWAP1 DUP2 MSTORE PUSH1 0x20 ADD PUSH1 0x40 MLOAD DUP1 SWAP2 SUB SWAP1 KECCAK256 SLOAD SWAP1 POP PUSH20 0x27B1618CB7956BBF41BC640A506F4563AE74F613 PUSH4 0xE1DF7AD6 DUP3 DUP6 PUSH2 0x100 ADD MLOAD DUP7 PUSH1 0xA0 ADD MLOAD PUSH1 0x40 MLOAD DUP5 PUSH4 0xFFFFFFFF AND PUSH1 0xE0 SHL DUP2 MSTORE PUSH1 0x4 ADD PUSH2 0x6E5 SWAP4 SWAP3 SWAP2 SWAP1 PUSH2 0x38E6 JUMP JUMPDEST PUSH1 0x20 PUSH1 0x40 MLOAD DUP1 DUP4 SUB DUP2 DUP7 DUP1 EXTCODESIZE ISZERO DUP1 ISZERO PUSH2 0x6FD JUMPI PUSH1 0x0 DUP1 REVERT JUMPDEST POP GAS DELEGATECALL ISZERO DUP1 ISZERO PUSH2 0x711 JUMPI RETURNDATASIZE PUSH1 0x0 DUP1 RETURNDATACOPY RETURNDATASIZE PUSH1 0x0 REVERT JUMPDEST POP POP POP POP PUSH1 0x40 MLOAD RETURNDATASIZE PUSH1 0x1F NOT PUSH1 0x1F DUP3 ADD AND DUP3 ADD DUP1 PUSH1 0x40 MSTORE POP DUP2 ADD SWAP1 PUSH2 0x735 SWAP2 SWAP1 PUSH2 0x2FC4 JUMP JUMPDEST SWAP2 POP POP PUSH2 0x73E JUMP JUMPDEST JUMPDEST SWAP2 SWAP1 POP JUMP JUMPDEST PUSH2 0x74B PUSH2 0x289A JUMP JUMPDEST DUP6 DUP2 PUSH1 0x0 ADD DUP2 SWAP1 MSTORE POP DUP5 DUP2 PUSH1 0x20 ADD SWAP1 PUSH20 0xFFFFFFFFFFFFFFFFFFFFFFFFFFFFFFFFFFFFFFFF AND SWAP1 DUP2 PUSH20 0xFFFFFFFFFFFFFFFFFFFFFFFFFFFFFFFFFFFFFFFF AND DUP2 MSTORE POP POP PUSH1 0x0 DUP2 PUSH1 0x40 ADD SWAP1 ISZERO ISZERO SWAP1 DUP2 ISZERO ISZERO DUP2 MSTORE POP POP DUP4 DUP2 PUSH1 0x60 ADD SWAP1 PUSH1 0x3 DUP2 GT ISZERO PUSH2 0x7DB JUMPI PUSH32 0x4E487B7100000000000000000000000000000000000000000000000000000000 PUSH1 0x0 MSTORE PUSH1 0x21 PUSH1 0x4 MSTORE PUSH1 0x24 PUSH1 0x0 REVERT JUMPDEST SWAP1 DUP2 PUSH1 0x3 DUP2 GT ISZERO PUSH2 0x815 JUMPI PUSH32 0x4E487B7100000000000000000000000000000000000000000000000000000000 PUSH1 0x0 MSTORE PUSH1 0x21 PUSH1 0x4 MSTORE PUSH1 0x24 PUSH1 0x0 REVERT JUMPDEST DUP2 MSTORE POP POP DUP3 DUP2 PUSH1 0x80 ADD DUP2 SWAP1 MSTORE POP DUP2 DUP2 PUSH1 0xA0 ADD DUP2 SWAP1 MSTORE POP DUP1 PUSH1 0x0 DUP1 DUP10 DUP2 MSTORE PUSH1 0x20 ADD SWAP1 DUP2 MSTORE PUSH1 0x20 ADD PUSH1 0x0 KECCAK256 PUSH1 0x0 DUP3 ADD MLOAD DUP2 PUSH1 0x0 ADD SWAP1 DUP1 MLOAD SWAP1 PUSH1 0x20 ADD SWAP1 PUSH2 0x85A SWAP3 SWAP2 SWAP1 PUSH2 0x292D JUMP JUMPDEST POP PUSH1 0x20 DUP3 ADD MLOAD DUP2 PUSH1 0x1 ADD PUSH1 0x0 PUSH2 0x100 EXP DUP2 SLOAD DUP2 PUSH20 0xFFFFFFFFFFFFFFFFFFFFFFFFFFFFFFFFFFFFFFFF MUL NOT AND SWAP1 DUP4 PUSH20 0xFFFFFFFFFFFFFFFFFFFFFFFFFFFFFFFFFFFFFFFF AND MUL OR SWAP1 SSTORE POP PUSH1 0x40 DUP3 ADD MLOAD DUP2 PUSH1 0x1 ADD PUSH1 0x14 PUSH2 0x100 EXP DUP2 SLOAD DUP2 PUSH1 0xFF MUL NOT AND SWAP1 DUP4 ISZERO ISZERO MUL OR SWAP1 SSTORE POP PUSH1 0x60 DUP3 ADD MLOAD DUP2 PUSH1 0x1 ADD PUSH1 0x15 PUSH2 0x100 EXP DUP2 SLOAD DUP2 PUSH1 0xFF MUL NOT AND SWAP1 DUP4 PUSH1 0x3 DUP2 GT ISZERO PUSH2 0x913 JUMPI PUSH32 0x4E487B7100000000000000000000000000000000000000000000000000000000 PUSH1 0x0 MSTORE PUSH1 0x21 PUSH1 0x4 MSTORE PUSH1 0x24 PUSH1 0x0 REVERT JUMPDEST MUL OR SWAP1 SSTORE POP PUSH1 0x80 DUP3 ADD MLOAD DUP2 PUSH1 0x2 ADD SWAP1 DUP1 MLOAD SWAP1 PUSH1 0x20 ADD SWAP1 PUSH2 0x934 SWAP3 SWAP2 SWAP1 PUSH2 0x29B3 JUMP JUMPDEST POP PUSH1 0xA0 DUP3 ADD MLOAD DUP2 PUSH1 0x3 ADD SWAP1 DUP1 MLOAD SWAP1 PUSH1 0x20 ADD SWAP1 PUSH2 0x951 SWAP3 SWAP2 SWAP1 PUSH2 0x29B3 JUMP JUMPDEST POP PUSH1 0xC0 DUP3 ADD MLOAD DUP2 PUSH1 0x4 ADD PUSH1 0x0 DUP3 ADD MLOAD DUP2 PUSH1 0x0 ADD SSTORE PUSH1 0x20 DUP3 ADD MLOAD DUP2 PUSH1 0x1 ADD PUSH1 0x0 PUSH2 0x100 EXP DUP2 SLOAD DUP2 PUSH1 0xFF MUL NOT AND SWAP1 DUP4 PUSH1 0x3 DUP2 GT ISZERO PUSH2 0x9B6 JUMPI PUSH32 0x4E487B7100000000000000000000000000000000000000000000000000000000 PUSH1 0x0 MSTORE PUSH1 0x21 PUSH1 0x4 MSTORE PUSH1 0x24 PUSH1 0x0 REVERT JUMPDEST MUL OR SWAP1 SSTORE POP PUSH1 0x40 DUP3 ADD MLOAD DUP2 PUSH1 0x1 ADD PUSH1 0x1 PUSH2 0x100 EXP DUP2 SLOAD DUP2 PUSH1 0xFF MUL NOT AND SWAP1 DUP4 PUSH1 0x2 DUP2 GT ISZERO PUSH2 0xA0C JUMPI PUSH32 0x4E487B7100000000000000000000000000000000000000000000000000000000 PUSH1 0x0 MSTORE PUSH1 0x21 PUSH1 0x4 MSTORE PUSH1 0x24 PUSH1 0x0 REVERT JUMPDEST MUL OR SWAP1 SSTORE POP PUSH1 0x60 DUP3 ADD MLOAD DUP2 PUSH1 0x1 ADD PUSH1 0x2 PUSH2 0x100 EXP DUP2 SLOAD DUP2 PUSH1 0xFF MUL NOT AND SWAP1 DUP4 ISZERO ISZERO MUL OR SWAP1 SSTORE POP PUSH1 0x80 DUP3 ADD MLOAD DUP2 PUSH1 0x1 ADD PUSH1 0x3 PUSH2 0x100 EXP DUP2 SLOAD DUP2 PUSH1 0xFF MUL NOT AND SWAP1 DUP4 ISZERO ISZERO MUL OR SWAP1 SSTORE POP PUSH1 0xA0 DUP3 ADD MLOAD DUP2 PUSH1 0x1 ADD PUSH1 0x4 PUSH2 0x100 EXP DUP2 SLOAD DUP2 PUSH1 0xFF MUL NOT AND SWAP1 DUP4 PUSH1 0x6 DUP2 GT ISZERO PUSH2 0xAA2 JUMPI PUSH32 0x4E487B7100000000000000000000000000000000000000000000000000000000 PUSH1 0x0 MSTORE PUSH1 0x21 PUSH1 0x4 MSTORE PUSH1 0x24 PUSH1 0x0 REVERT JUMPDEST MUL OR SWAP1 SSTORE POP PUSH1 0xC0 DUP3 ADD MLOAD DUP2 PUSH1 0x2 ADD SWAP1 DUP1 MLOAD SWAP1 PUSH1 0x20 ADD SWAP1 PUSH2 0xAC3 SWAP3 SWAP2 SWAP1 PUSH2 0x292D JUMP JUMPDEST POP PUSH1 0xE0 DUP3 ADD MLOAD DUP2 PUSH1 0x3 ADD SWAP1 DUP1 MLOAD SWAP1 PUSH1 0x20 ADD SWAP1 PUSH2 0xAE0 SWAP3 SWAP2 SWAP1 PUSH2 0x292D JUMP JUMPDEST POP PUSH2 0x100 DUP3 ADD MLOAD DUP2 PUSH1 0x4 ADD SWAP1 DUP1 MLOAD SWAP1 PUSH1 0x20 ADD SWAP1 PUSH2 0xAFE SWAP3 SWAP2 SWAP1 PUSH2 0x2A00 JUMP JUMPDEST POP POP POP SWAP1 POP POP POP POP POP POP POP POP POP JUMP JUMPDEST PUSH1 0x1 DUP2 DUP1 MLOAD PUSH1 0x20 DUP2 ADD DUP3 ADD DUP1 MLOAD DUP5 DUP3 MSTORE PUSH1 0x20 DUP4 ADD PUSH1 0x20 DUP6 ADD KECCAK256 DUP2 DUP4 MSTORE DUP1 SWAP6 POP POP POP POP POP POP PUSH1 0x0 SWAP2 POP SWAP1 POP SLOAD DUP2 JUMP JUMPDEST DUP1 PUSH1 0x1 DUP5 DUP5 PUSH1 0x40 MLOAD PUSH2 0xB4E SWAP3 SWAP2 SWAP1 PUSH2 0x37C6 JUMP JUMPDEST SWAP1 DUP2 MSTORE PUSH1 0x20 ADD PUSH1 0x40 MLOAD DUP1 SWAP2 SUB SWAP1 KECCAK256 DUP2 SWAP1 SSTORE POP POP POP POP JUMP JUMPDEST PUSH1 0x60 PUSH1 0x5 DUP1 SLOAD DUP1 PUSH1 0x20 MUL PUSH1 0x20 ADD PUSH1 0x40 MLOAD SWAP1 DUP2 ADD PUSH1 0x40 MSTORE DUP1 SWAP3 SWAP2 SWAP1 DUP2 DUP2 MSTORE PUSH1 0x20 ADD PUSH1 0x0 SWAP1 JUMPDEST DUP3 DUP3 LT ISZERO PUSH2 0xC35 JUMPI DUP4 DUP3 SWAP1 PUSH1 0x0 MSTORE PUSH1 0x20 PUSH1 0x0 KECCAK256 ADD DUP1 SLOAD PUSH2 0xBA8 SWAP1 PUSH2 0x3CDE JUMP JUMPDEST DUP1 PUSH1 0x1F ADD PUSH1 0x20 DUP1 SWAP2 DIV MUL PUSH1 0x20 ADD PUSH1 0x40 MLOAD SWAP1 DUP2 ADD PUSH1 0x40 MSTORE DUP1 SWAP3 SWAP2 SWAP1 DUP2 DUP2 MSTORE PUSH1 0x20 ADD DUP3 DUP1 SLOAD PUSH2 0xBD4 SWAP1 PUSH2 0x3CDE JUMP JUMPDEST DUP1 ISZERO PUSH2 0xC21 JUMPI DUP1 PUSH1 0x1F LT PUSH2 0xBF6 JUMPI PUSH2 0x100 DUP1 DUP4 SLOAD DIV MUL DUP4 MSTORE SWAP2 PUSH1 0x20 ADD SWAP2 PUSH2 0xC21 JUMP JUMPDEST DUP3 ADD SWAP2 SWAP1 PUSH1 0x0 MSTORE PUSH1 0x20 PUSH1 0x0 KECCAK256 SWAP1 JUMPDEST DUP2 SLOAD DUP2 MSTORE SWAP1 PUSH1 0x1 ADD SWAP1 PUSH1 0x20 ADD DUP1 DUP4 GT PUSH2 0xC04 JUMPI DUP3 SWAP1 SUB PUSH1 0x1F AND DUP3 ADD SWAP2 JUMPDEST POP POP POP POP POP DUP2 MSTORE PUSH1 0x20 ADD SWAP1 PUSH1 0x1 ADD SWAP1 PUSH2 0xB89 JUMP JUMPDEST POP POP POP POP SWAP1 POP SWAP1 JUMP JUMPDEST PUSH1 0x5 DUP2 DUP2 SLOAD DUP2 LT PUSH2 0xC4E JUMPI PUSH1 0x0 DUP1 REVERT JUMPDEST SWAP1 PUSH1 0x0 MSTORE PUSH1 0x20 PUSH1 0x0 KECCAK256 ADD PUSH1 0x0 SWAP2 POP SWAP1 POP DUP1 SLOAD PUSH2 0xC69 SWAP1 PUSH2 0x3CDE JUMP JUMPDEST DUP1 PUSH1 0x1F ADD PUSH1 0x20 DUP1 SWAP2 DIV MUL PUSH1 0x20 ADD PUSH1 0x40 MLOAD SWAP1 DUP2 ADD PUSH1 0x40 MSTORE DUP1 SWAP3 SWAP2 SWAP1 DUP2 DUP2 MSTORE PUSH1 0x20 ADD DUP3 DUP1 SLOAD PUSH2 0xC95 SWAP1 PUSH2 0x3CDE JUMP JUMPDEST DUP1 ISZERO PUSH2 0xCE2 JUMPI DUP1 PUSH1 0x1F LT PUSH2 0xCB7 JUMPI PUSH2 0x100 DUP1 DUP4 SLOAD DIV MUL DUP4 MSTORE SWAP2 PUSH1 0x20 ADD SWAP2 PUSH2 0xCE2 JUMP JUMPDEST DUP3 ADD SWAP2 SWAP1 PUSH1 0x0 MSTORE PUSH1 0x20 PUSH1 0x0 KECCAK256 SWAP1 JUMPDEST DUP2 SLOAD DUP2 MSTORE SWAP1 PUSH1 0x1 ADD SWAP1 PUSH1 0x20 ADD DUP1 DUP4 GT PUSH2 0xCC5 JUMPI DUP3 SWAP1 SUB PUSH1 0x1F AND DUP3 ADD SWAP2 JUMPDEST POP POP POP POP POP DUP2 JUMP JUMPDEST PUSH1 0x0 DUP1 PUSH20 0x27B1618CB7956BBF41BC640A506F4563AE74F613 PUSH4 0xC237647F PUSH1 0x40 MLOAD DUP2 PUSH4 0xFFFFFFFF AND PUSH1 0xE0 SHL DUP2 MSTORE PUSH1 0x4 ADD PUSH1 0x20 PUSH1 0x40 MLOAD DUP1 DUP4 SUB DUP2 DUP7 DUP1 EXTCODESIZE ISZERO DUP1 ISZERO PUSH2 0xD31 JUMPI PUSH1 0x0 DUP1 REVERT JUMPDEST POP GAS DELEGATECALL ISZERO DUP1 ISZERO PUSH2 0xD45 JUMPI RETURNDATASIZE PUSH1 0x0 DUP1 RETURNDATACOPY RETURNDATASIZE PUSH1 0x0 REVERT JUMPDEST POP POP POP POP PUSH1 0x40 MLOAD RETURNDATASIZE PUSH1 0x1F NOT PUSH1 0x1F DUP3 ADD AND DUP3 ADD DUP1 PUSH1 0x40 MSTORE POP DUP2 ADD SWAP1 PUSH2 0xD69 SWAP2 SWAP1 PUSH2 0x3211 JUMP JUMPDEST SWAP1 POP PUSH1 0x5 DUP2 PUSH2 0xD78 SWAP2 SWAP1 PUSH2 0x3BAA JUMP JUMPDEST SWAP2 POP POP SWAP1 JUMP JUMPDEST PUSH1 0x3 PUSH1 0x20 MSTORE DUP1 PUSH1 0x0 MSTORE PUSH1 0x40 PUSH1 0x0 KECCAK256 PUSH1 0x0 SWAP2 POP SLOAD SWAP1 PUSH2 0x100 EXP SWAP1 DIV PUSH1 0xFF AND DUP2 JUMP JUMPDEST PUSH1 0x0 DUP1 PUSH1 0x0 DUP4 DUP2 MSTORE PUSH1 0x20 ADD SWAP1 DUP2 MSTORE PUSH1 0x20 ADD PUSH1 0x0 KECCAK256 PUSH1 0x4 ADD PUSH1 0x0 ADD SLOAD SWAP1 POP SWAP2 SWAP1 POP JUMP JUMPDEST PUSH1 0x0 PUSH1 0x1 DUP4 DUP4 PUSH1 0x40 MLOAD PUSH2 0xDD4 SWAP3 SWAP2 SWAP1 PUSH2 0x37C6 JUMP JUMPDEST SWAP1 DUP2 MSTORE PUSH1 0x20 ADD PUSH1 0x40 MLOAD DUP1 SWAP2 SUB SWAP1 KECCAK256 SLOAD SWAP1 POP SWAP3 SWAP2 POP POP JUMP JUMPDEST PUSH1 0x60 PUSH1 0x4 DUP1 SLOAD DUP1 PUSH1 0x20 MUL PUSH1 0x20 ADD PUSH1 0x40 MLOAD SWAP1 DUP2 ADD PUSH1 0x40 MSTORE DUP1 SWAP3 SWAP2 SWAP1 DUP2 DUP2 MSTORE PUSH1 0x20 ADD DUP3 DUP1 SLOAD DUP1 ISZERO PUSH2 0xE39 JUMPI PUSH1 0x20 MUL DUP3 ADD SWAP2 SWAP1 PUSH1 0x0 MSTORE PUSH1 0x20 PUSH1 0x0 KECCAK256 SWAP1 JUMPDEST DUP2 SLOAD DUP2 MSTORE PUSH1 0x20 ADD SWAP1 PUSH1 0x1 ADD SWAP1 DUP1 DUP4 GT PUSH2 0xE25 JUMPI JUMPDEST POP POP POP POP POP SWAP1 POP SWAP1 JUMP JUMPDEST PUSH1 0x4 DUP2 DUP2 SLOAD DUP2 LT PUSH2 0xE53 JUMPI PUSH1 0x0 DUP1 REVERT JUMPDEST SWAP1 PUSH1 0x0 MSTORE PUSH1 0x20 PUSH1 0x0 KECCAK256 ADD PUSH1 0x0 SWAP2 POP SWAP1 POP SLOAD DUP2 JUMP JUMPDEST PUSH1 0x0 PUSH1 0x60 PUSH1 0x0 DUP1 PUSH1 0x60 DUP1 PUSH1 0x0 DUP1 DUP9 DUP2 MSTORE PUSH1 0x20 ADD SWAP1 DUP2 MSTORE PUSH1 0x20 ADD PUSH1 0x0 KECCAK256 PUSH1 0x1 ADD PUSH1 0x14 SWAP1 SLOAD SWAP1 PUSH2 0x100 EXP SWAP1 DIV PUSH1 0xFF AND PUSH1 0x0 DUP1 DUP10 DUP2 MSTORE PUSH1 0x20 ADD SWAP1 DUP2 MSTORE PUSH1 0x20 ADD PUSH1 0x0 KECCAK256 PUSH1 0x0 ADD PUSH1 0x0 DUP1 DUP11 DUP2 MSTORE PUSH1 0x20 ADD SWAP1 DUP2 MSTORE PUSH1 0x20 ADD PUSH1 0x0 KECCAK256 PUSH1 0x1 ADD PUSH1 0x0 SWAP1 SLOAD SWAP1 PUSH2 0x100 EXP SWAP1 DIV PUSH20 0xFFFFFFFFFFFFFFFFFFFFFFFFFFFFFFFFFFFFFFFF AND PUSH1 0x0 DUP1 DUP12 DUP2 MSTORE PUSH1 0x20 ADD SWAP1 DUP2 MSTORE PUSH1 0x20 ADD PUSH1 0x0 KECCAK256 PUSH1 0x1 ADD PUSH1 0x15 SWAP1 SLOAD SWAP1 PUSH2 0x100 EXP SWAP1 DIV PUSH1 0xFF AND PUSH1 0x0 DUP1 DUP13 DUP2 MSTORE PUSH1 0x20 ADD SWAP1 DUP2 MSTORE PUSH1 0x20 ADD PUSH1 0x0 KECCAK256 PUSH1 0x2 ADD PUSH1 0x0 DUP1 DUP14 DUP2 MSTORE PUSH1 0x20 ADD SWAP1 DUP2 MSTORE PUSH1 0x20 ADD PUSH1 0x0 KECCAK256 PUSH1 0x3 ADD DUP5 DUP1 SLOAD PUSH2 0xF38 SWAP1 PUSH2 0x3CDE JUMP JUMPDEST DUP1 PUSH1 0x1F ADD PUSH1 0x20 DUP1 SWAP2 DIV MUL PUSH1 0x20 ADD PUSH1 0x40 MLOAD SWAP1 DUP2 ADD PUSH1 0x40 MSTORE DUP1 SWAP3 SWAP2 SWAP1 DUP2 DUP2 MSTORE PUSH1 0x20 ADD DUP3 DUP1 SLOAD PUSH2 0xF64 SWAP1 PUSH2 0x3CDE JUMP JUMPDEST DUP1 ISZERO PUSH2 0xFB1 JUMPI DUP1 PUSH1 0x1F LT PUSH2 0xF86 JUMPI PUSH2 0x100 DUP1 DUP4 SLOAD DIV MUL DUP4 MSTORE SWAP2 PUSH1 0x20 ADD SWAP2 PUSH2 0xFB1 JUMP JUMPDEST DUP3 ADD SWAP2 SWAP1 PUSH1 0x0 MSTORE PUSH1 0x20 PUSH1 0x0 KECCAK256 SWAP1 JUMPDEST DUP2 SLOAD DUP2 MSTORE SWAP1 PUSH1 0x1 ADD SWAP1 PUSH1 0x20 ADD DUP1 DUP4 GT PUSH2 0xF94 JUMPI DUP3 SWAP1 SUB PUSH1 0x1F AND DUP3 ADD SWAP2 JUMPDEST POP POP POP POP POP SWAP5 POP DUP2 DUP1 SLOAD DUP1 PUSH1 0x20 MUL PUSH1 0x20 ADD PUSH1 0x40 MLOAD SWAP1 DUP2 ADD PUSH1 0x40 MSTORE DUP1 SWAP3 SWAP2 SWAP1 DUP2 DUP2 MSTORE PUSH1 0x20 ADD DUP3 DUP1 SLOAD DUP1 ISZERO PUSH2 0x1003 JUMPI PUSH1 0x20 MUL DUP3 ADD SWAP2 SWAP1 PUSH1 0x0 MSTORE PUSH1 0x20 PUSH1 0x0 KECCAK256 SWAP1 JUMPDEST DUP2 SLOAD DUP2 MSTORE PUSH1 0x20 ADD SWAP1 PUSH1 0x1 ADD SWAP1 DUP1 DUP4 GT PUSH2 0xFEF JUMPI JUMPDEST POP POP POP POP POP SWAP2 POP DUP1 DUP1 SLOAD DUP1 PUSH1 0x20 MUL PUSH1 0x20 ADD PUSH1 0x40 MLOAD SWAP1 DUP2 ADD PUSH1 0x40 MSTORE DUP1 SWAP3 SWAP2 SWAP1 DUP2 DUP2 MSTORE PUSH1 0x20 ADD DUP3 DUP1 SLOAD DUP1 ISZERO PUSH2 0x1055 JUMPI PUSH1 0x20 MUL DUP3 ADD SWAP2 SWAP1 PUSH1 0x0 MSTORE PUSH1 0x20 PUSH1 0x0 KECCAK256 SWAP1 JUMPDEST DUP2 SLOAD DUP2 MSTORE PUSH1 0x20 ADD SWAP1 PUSH1 0x1 ADD SWAP1 DUP1 DUP4 GT PUSH2 0x1041 JUMPI JUMPDEST POP POP POP POP POP SWAP1 POP SWAP6 POP SWAP6 POP SWAP6 POP SWAP6 POP SWAP6 POP SWAP6 POP SWAP2 SWAP4 SWAP6 POP SWAP2 SWAP4 SWAP6 JUMP JUMPDEST PUSH1 0x0 DUP1 PUSH1 0x0 DUP4 DUP2 MSTORE PUSH1 0x20 ADD SWAP1 DUP2 MSTORE PUSH1 0x20 ADD PUSH1 0x0 KECCAK256 PUSH1 0x1 ADD PUSH1 0x14 SWAP1 SLOAD SWAP1 PUSH2 0x100 EXP SWAP1 DIV PUSH1 0xFF AND SWAP1 POP SWAP2 SWAP1 POP JUMP JUMPDEST PUSH1 0x0 PUSH1 0x23 PUSH32 0x63A242A632EFE33C0E210E04E4173612A17EFA4F16AA4890BC7E46CAECE80DE0 PUSH1 0x40 MLOAD PUSH1 0x40 MLOAD DUP1 SWAP2 SUB SWAP1 LOG2 PUSH1 0x0 DUP1 DUP1 PUSH1 0x0 DUP6 DUP2 MSTORE PUSH1 0x20 ADD SWAP1 DUP2 MSTORE PUSH1 0x20 ADD PUSH1 0x0 KECCAK256 PUSH1 0x40 MLOAD DUP1 PUSH1 0xE0 ADD PUSH1 0x40 MSTORE SWAP1 DUP2 PUSH1 0x0 DUP3 ADD DUP1 SLOAD PUSH2 0x10FD SWAP1 PUSH2 0x3CDE JUMP JUMPDEST DUP1 PUSH1 0x1F ADD PUSH1 0x20 DUP1 SWAP2 DIV MUL PUSH1 0x20 ADD PUSH1 0x40 MLOAD SWAP1 DUP2 ADD PUSH1 0x40 MSTORE DUP1 SWAP3 SWAP2 SWAP1 DUP2 DUP2 MSTORE PUSH1 0x20 ADD DUP3 DUP1 SLOAD PUSH2 0x1129 SWAP1 PUSH2 0x3CDE JUMP JUMPDEST DUP1 ISZERO PUSH2 0x1176 JUMPI DUP1 PUSH1 0x1F LT PUSH2 0x114B JUMPI PUSH2 0x100 DUP1 DUP4 SLOAD DIV MUL DUP4 MSTORE SWAP2 PUSH1 0x20 ADD SWAP2 PUSH2 0x1176 JUMP JUMPDEST DUP3 ADD SWAP2 SWAP1 PUSH1 0x0 MSTORE PUSH1 0x20 PUSH1 0x0 KECCAK256 SWAP1 JUMPDEST DUP2 SLOAD DUP2 MSTORE SWAP1 PUSH1 0x1 ADD SWAP1 PUSH1 0x20 ADD DUP1 DUP4 GT PUSH2 0x1159 JUMPI DUP3 SWAP1 SUB PUSH1 0x1F AND DUP3 ADD SWAP2 JUMPDEST POP POP POP POP POP DUP2 MSTORE PUSH1 0x20 ADD PUSH1 0x1 DUP3 ADD PUSH1 0x0 SWAP1 SLOAD SWAP1 PUSH2 0x100 EXP SWAP1 DIV PUSH20 0xFFFFFFFFFFFFFFFFFFFFFFFFFFFFFFFFFFFFFFFF AND PUSH20 0xFFFFFFFFFFFFFFFFFFFFFFFFFFFFFFFFFFFFFFFF AND PUSH20 0xFFFFFFFFFFFFFFFFFFFFFFFFFFFFFFFFFFFFFFFF AND DUP2 MSTORE PUSH1 0x20 ADD PUSH1 0x1 DUP3 ADD PUSH1 0x14 SWAP1 SLOAD SWAP1 PUSH2 0x100 EXP SWAP1 DIV PUSH1 0xFF AND ISZERO ISZERO ISZERO ISZERO DUP2 MSTORE PUSH1 0x20 ADD PUSH1 0x1 DUP3 ADD PUSH1 0x15 SWAP1 SLOAD SWAP1 PUSH2 0x100 EXP SWAP1 DIV PUSH1 0xFF AND PUSH1 0x3 DUP2 GT ISZERO PUSH2 0x123B JUMPI PUSH32 0x4E487B7100000000000000000000000000000000000000000000000000000000 PUSH1 0x0 MSTORE PUSH1 0x21 PUSH1 0x4 MSTORE PUSH1 0x24 PUSH1 0x0 REVERT JUMPDEST PUSH1 0x3 DUP2 GT ISZERO PUSH2 0x1273 JUMPI PUSH32 0x4E487B7100000000000000000000000000000000000000000000000000000000 PUSH1 0x0 MSTORE PUSH1 0x21 PUSH1 0x4 MSTORE PUSH1 0x24 PUSH1 0x0 REVERT JUMPDEST DUP2 MSTORE PUSH1 0x20 ADD PUSH1 0x2 DUP3 ADD DUP1 SLOAD DUP1 PUSH1 0x20 MUL PUSH1 0x20 ADD PUSH1 0x40 MLOAD SWAP1 DUP2 ADD PUSH1 0x40 MSTORE DUP1 SWAP3 SWAP2 SWAP1 DUP2 DUP2 MSTORE PUSH1 0x20 ADD DUP3 DUP1 SLOAD DUP1 ISZERO PUSH2 0x12C6 JUMPI PUSH1 0x20 MUL DUP3 ADD SWAP2 SWAP1 PUSH1 0x0 MSTORE PUSH1 0x20 PUSH1 0x0 KECCAK256 SWAP1 JUMPDEST DUP2 SLOAD DUP2 MSTORE PUSH1 0x20 ADD SWAP1 PUSH1 0x1 ADD SWAP1 DUP1 DUP4 GT PUSH2 0x12B2 JUMPI JUMPDEST POP POP POP POP POP DUP2 MSTORE PUSH1 0x20 ADD PUSH1 0x3 DUP3 ADD DUP1 SLOAD DUP1 PUSH1 0x20 MUL PUSH1 0x20 ADD PUSH1 0x40 MLOAD SWAP1 DUP2 ADD PUSH1 0x40 MSTORE DUP1 SWAP3 SWAP2 SWAP1 DUP2 DUP2 MSTORE PUSH1 0x20 ADD DUP3 DUP1 SLOAD DUP1 ISZERO PUSH2 0x131E JUMPI PUSH1 0x20 MUL DUP3 ADD SWAP2 SWAP1 PUSH1 0x0 MSTORE PUSH1 0x20 PUSH1 0x0 KECCAK256 SWAP1 JUMPDEST DUP2 SLOAD DUP2 MSTORE PUSH1 0x20 ADD SWAP1 PUSH1 0x1 ADD SWAP1 DUP1 DUP4 GT PUSH2 0x130A JUMPI JUMPDEST POP POP POP POP POP DUP2 MSTORE PUSH1 0x20 ADD PUSH1 0x4 DUP3 ADD PUSH1 0x40 MLOAD DUP1 PUSH2 0x120 ADD PUSH1 0x40 MSTORE SWAP1 DUP2 PUSH1 0x0 DUP3 ADD SLOAD DUP2 MSTORE PUSH1 0x20 ADD PUSH1 0x1 DUP3 ADD PUSH1 0x0 SWAP1 SLOAD SWAP1 PUSH2 0x100 EXP SWAP1 DIV PUSH1 0xFF AND PUSH1 0x3 DUP2 GT ISZERO PUSH2 0x138D JUMPI PUSH32 0x4E487B7100000000000000000000000000000000000000000000000000000000 PUSH1 0x0 MSTORE PUSH1 0x21 PUSH1 0x4 MSTORE PUSH1 0x24 PUSH1 0x0 REVERT JUMPDEST PUSH1 0x3 DUP2 GT ISZERO PUSH2 0x13C5 JUMPI PUSH32 0x4E487B7100000000000000000000000000000000000000000000000000000000 PUSH1 0x0 MSTORE PUSH1 0x21 PUSH1 0x4 MSTORE PUSH1 0x24 PUSH1 0x0 REVERT JUMPDEST DUP2 MSTORE PUSH1 0x20 ADD PUSH1 0x1 DUP3 ADD PUSH1 0x1 SWAP1 SLOAD SWAP1 PUSH2 0x100 EXP SWAP1 DIV PUSH1 0xFF AND PUSH1 0x2 DUP2 GT ISZERO PUSH2 0x1414 JUMPI PUSH32 0x4E487B7100000000000000000000000000000000000000000000000000000000 PUSH1 0x0 MSTORE PUSH1 0x21 PUSH1 0x4 MSTORE PUSH1 0x24 PUSH1 0x0 REVERT JUMPDEST PUSH1 0x2 DUP2 GT ISZERO PUSH2 0x144C JUMPI PUSH32 0x4E487B7100000000000000000000000000000000000000000000000000000000 PUSH1 0x0 MSTORE PUSH1 0x21 PUSH1 0x4 MSTORE PUSH1 0x24 PUSH1 0x0 REVERT JUMPDEST DUP2 MSTORE PUSH1 0x20 ADD PUSH1 0x1 DUP3 ADD PUSH1 0x2 SWAP1 SLOAD SWAP1 PUSH2 0x100 EXP SWAP1 DIV PUSH1 0xFF AND ISZERO ISZERO ISZERO ISZERO DUP2 MSTORE PUSH1 0x20 ADD PUSH1 0x1 DUP3 ADD PUSH1 0x3 SWAP1 SLOAD SWAP1 PUSH2 0x100 EXP SWAP1 DIV PUSH1 0xFF AND ISZERO ISZERO ISZERO ISZERO DUP2 MSTORE PUSH1 0x20 ADD PUSH1 0x1 DUP3 ADD PUSH1 0x4 SWAP1 SLOAD SWAP1 PUSH2 0x100 EXP SWAP1 DIV PUSH1 0xFF AND PUSH1 0x6 DUP2 GT ISZERO PUSH2 0x14D1 JUMPI PUSH32 0x4E487B7100000000000000000000000000000000000000000000000000000000 PUSH1 0x0 MSTORE PUSH1 0x21 PUSH1 0x4 MSTORE PUSH1 0x24 PUSH1 0x0 REVERT JUMPDEST PUSH1 0x6 DUP2 GT ISZERO PUSH2 0x1509 JUMPI PUSH32 0x4E487B7100000000000000000000000000000000000000000000000000000000 PUSH1 0x0 MSTORE PUSH1 0x21 PUSH1 0x4 MSTORE PUSH1 0x24 PUSH1 0x0 REVERT JUMPDEST DUP2 MSTORE PUSH1 0x20 ADD PUSH1 0x2 DUP3 ADD DUP1 SLOAD PUSH2 0x151D SWAP1 PUSH2 0x3CDE JUMP JUMPDEST DUP1 PUSH1 0x1F ADD PUSH1 0x20 DUP1 SWAP2 DIV MUL PUSH1 0x20 ADD PUSH1 0x40 MLOAD SWAP1 DUP2 ADD PUSH1 0x40 MSTORE DUP1 SWAP3 SWAP2 SWAP1 DUP2 DUP2 MSTORE PUSH1 0x20 ADD DUP3 DUP1 SLOAD PUSH2 0x1549 SWAP1 PUSH2 0x3CDE JUMP JUMPDEST DUP1 ISZERO PUSH2 0x1596 JUMPI DUP1 PUSH1 0x1F LT PUSH2 0x156B JUMPI PUSH2 0x100 DUP1 DUP4 SLOAD DIV MUL DUP4 MSTORE SWAP2 PUSH1 0x20 ADD SWAP2 PUSH2 0x1596 JUMP JUMPDEST DUP3 ADD SWAP2 SWAP1 PUSH1 0x0 MSTORE PUSH1 0x20 PUSH1 0x0 KECCAK256 SWAP1 JUMPDEST DUP2 SLOAD DUP2 MSTORE SWAP1 PUSH1 0x1 ADD SWAP1 PUSH1 0x20 ADD DUP1 DUP4 GT PUSH2 0x1579 JUMPI DUP3 SWAP1 SUB PUSH1 0x1F AND DUP3 ADD SWAP2 JUMPDEST POP POP POP POP POP DUP2 MSTORE PUSH1 0x20 ADD PUSH1 0x3 DUP3 ADD DUP1 SLOAD PUSH2 0x15AF SWAP1 PUSH2 0x3CDE JUMP JUMPDEST DUP1 PUSH1 0x1F ADD PUSH1 0x20 DUP1 SWAP2 DIV MUL PUSH1 0x20 ADD PUSH1 0x40 MLOAD SWAP1 DUP2 ADD PUSH1 0x40 MSTORE DUP1 SWAP3 SWAP2 SWAP1 DUP2 DUP2 MSTORE PUSH1 0x20 ADD DUP3 DUP1 SLOAD PUSH2 0x15DB SWAP1 PUSH2 0x3CDE JUMP JUMPDEST DUP1 ISZERO PUSH2 0x1628 JUMPI DUP1 PUSH1 0x1F LT PUSH2 0x15FD JUMPI PUSH2 0x100 DUP1 DUP4 SLOAD DIV MUL DUP4 MSTORE SWAP2 PUSH1 0x20 ADD SWAP2 PUSH2 0x1628 JUMP JUMPDEST DUP3 ADD SWAP2 SWAP1 PUSH1 0x0 MSTORE PUSH1 0x20 PUSH1 0x0 KECCAK256 SWAP1 JUMPDEST DUP2 SLOAD DUP2 MSTORE SWAP1 PUSH1 0x1 ADD SWAP1 PUSH1 0x20 ADD DUP1 DUP4 GT PUSH2 0x160B JUMPI DUP3 SWAP1 SUB PUSH1 0x1F AND DUP3 ADD SWAP2 JUMPDEST POP POP POP POP POP DUP2 MSTORE PUSH1 0x20 ADD PUSH1 0x4 DUP3 ADD DUP1 SLOAD DUP1 PUSH1 0x20 MUL PUSH1 0x20 ADD PUSH1 0x40 MLOAD SWAP1 DUP2 ADD PUSH1 0x40 MSTORE DUP1 SWAP3 SWAP2 SWAP1 DUP2 DUP2 MSTORE PUSH1 0x20 ADD DUP3 DUP1 SLOAD DUP1 ISZERO PUSH2 0x1680 JUMPI PUSH1 0x20 MUL DUP3 ADD SWAP2 SWAP1 PUSH1 0x0 MSTORE PUSH1 0x20 PUSH1 0x0 KECCAK256 SWAP1 JUMPDEST DUP2 SLOAD DUP2 MSTORE PUSH1 0x20 ADD SWAP1 PUSH1 0x1 ADD SWAP1 DUP1 DUP4 GT PUSH2 0x166C JUMPI JUMPDEST POP POP POP POP POP DUP2 MSTORE POP POP DUP2 MSTORE POP POP SWAP1 POP PUSH1 0x0 DUP1 PUSH1 0x0 DUP7 DUP2 MSTORE PUSH1 0x20 ADD SWAP1 DUP2 MSTORE PUSH1 0x20 ADD PUSH1 0x0 KECCAK256 PUSH1 0x1 ADD PUSH1 0x0 SWAP1 SLOAD SWAP1 PUSH2 0x100 EXP SWAP1 DIV PUSH20 0xFFFFFFFFFFFFFFFFFFFFFFFFFFFFFFFFFFFFFFFF AND SWAP1 POP PUSH1 0x0 PUSH20 0xFFFFFFFFFFFFFFFFFFFFFFFFFFFFFFFFFFFFFFFF AND DUP2 PUSH20 0xFFFFFFFFFFFFFFFFFFFFFFFFFFFFFFFFFFFFFFFF AND EQ DUP1 PUSH2 0x172F JUMPI POP CALLER PUSH20 0xFFFFFFFFFFFFFFFFFFFFFFFFFFFFFFFFFFFFFFFF AND DUP2 PUSH20 0xFFFFFFFFFFFFFFFFFFFFFFFFFFFFFFFFFFFFFFFF AND EQ JUMPDEST PUSH1 0x0 DUP1 DUP8 DUP2 MSTORE PUSH1 0x20 ADD SWAP1 DUP2 MSTORE PUSH1 0x20 ADD PUSH1 0x0 KECCAK256 PUSH1 0x0 ADD SWAP1 PUSH2 0x1785 JUMPI PUSH1 0x40 MLOAD PUSH32 0x8C379A000000000000000000000000000000000000000000000000000000000 DUP2 MSTORE PUSH1 0x4 ADD PUSH2 0x177C SWAP2 SWAP1 PUSH2 0x398B JUMP JUMPDEST PUSH1 0x40 MLOAD DUP1 SWAP2 SUB SWAP1 REVERT JUMPDEST POP PUSH1 0x0 DUP1 DUP7 DUP2 MSTORE PUSH1 0x20 ADD SWAP1 DUP2 MSTORE PUSH1 0x20 ADD PUSH1 0x0 KECCAK256 PUSH1 0x4 ADD PUSH1 0x1 ADD PUSH1 0x3 SWAP1 SLOAD SWAP1 PUSH2 0x100 EXP SWAP1 DIV PUSH1 0xFF AND ISZERO PUSH2 0x1B8C JUMPI PUSH1 0x0 DUP1 DUP7 DUP2 MSTORE PUSH1 0x20 ADD SWAP1 DUP2 MSTORE PUSH1 0x20 ADD PUSH1 0x0 KECCAK256 PUSH1 0x4 ADD PUSH1 0x0 ADD SLOAD SWAP3 POP PUSH1 0x0 PUSH2 0x1B48 PUSH1 0x0 DUP1 DUP9 DUP2 MSTORE PUSH1 0x20 ADD SWAP1 DUP2 MSTORE PUSH1 0x20 ADD PUSH1 0x0 KECCAK256 PUSH1 0x4 ADD PUSH1 0x40 MLOAD DUP1 PUSH2 0x120 ADD PUSH1 0x40 MSTORE SWAP1 DUP2 PUSH1 0x0 DUP3 ADD SLOAD DUP2 MSTORE PUSH1 0x20 ADD PUSH1 0x1 DUP3 ADD PUSH1 0x0 SWAP1 SLOAD SWAP1 PUSH2 0x100 EXP SWAP1 DIV PUSH1 0xFF AND PUSH1 0x3 DUP2 GT ISZERO PUSH2 0x1847 JUMPI PUSH32 0x4E487B7100000000000000000000000000000000000000000000000000000000 PUSH1 0x0 MSTORE PUSH1 0x21 PUSH1 0x4 MSTORE PUSH1 0x24 PUSH1 0x0 REVERT JUMPDEST PUSH1 0x3 DUP2 GT ISZERO PUSH2 0x187F JUMPI PUSH32 0x4E487B7100000000000000000000000000000000000000000000000000000000 PUSH1 0x0 MSTORE PUSH1 0x21 PUSH1 0x4 MSTORE PUSH1 0x24 PUSH1 0x0 REVERT JUMPDEST DUP2 MSTORE PUSH1 0x20 ADD PUSH1 0x1 DUP3 ADD PUSH1 0x1 SWAP1 SLOAD SWAP1 PUSH2 0x100 EXP SWAP1 DIV PUSH1 0xFF AND PUSH1 0x2 DUP2 GT ISZERO PUSH2 0x18CE JUMPI PUSH32 0x4E487B7100000000000000000000000000000000000000000000000000000000 PUSH1 0x0 MSTORE PUSH1 0x21 PUSH1 0x4 MSTORE PUSH1 0x24 PUSH1 0x0 REVERT JUMPDEST PUSH1 0x2 DUP2 GT ISZERO PUSH2 0x1906 JUMPI PUSH32 0x4E487B7100000000000000000000000000000000000000000000000000000000 PUSH1 0x0 MSTORE PUSH1 0x21 PUSH1 0x4 MSTORE PUSH1 0x24 PUSH1 0x0 REVERT JUMPDEST DUP2 MSTORE PUSH1 0x20 ADD PUSH1 0x1 DUP3 ADD PUSH1 0x2 SWAP1 SLOAD SWAP1 PUSH2 0x100 EXP SWAP1 DIV PUSH1 0xFF AND ISZERO ISZERO ISZERO ISZERO DUP2 MSTORE PUSH1 0x20 ADD PUSH1 0x1 DUP3 ADD PUSH1 0x3 SWAP1 SLOAD SWAP1 PUSH2 0x100 EXP SWAP1 DIV PUSH1 0xFF AND ISZERO ISZERO ISZERO ISZERO DUP2 MSTORE PUSH1 0x20 ADD PUSH1 0x1 DUP3 ADD PUSH1 0x4 SWAP1 SLOAD SWAP1 PUSH2 0x100 EXP SWAP1 DIV PUSH1 0xFF AND PUSH1 0x6 DUP2 GT ISZERO PUSH2 0x198B JUMPI PUSH32 0x4E487B7100000000000000000000000000000000000000000000000000000000 PUSH1 0x0 MSTORE PUSH1 0x21 PUSH1 0x4 MSTORE PUSH1 0x24 PUSH1 0x0 REVERT JUMPDEST PUSH1 0x6 DUP2 GT ISZERO PUSH2 0x19C3 JUMPI PUSH32 0x4E487B7100000000000000000000000000000000000000000000000000000000 PUSH1 0x0 MSTORE PUSH1 0x21 PUSH1 0x4 MSTORE PUSH1 0x24 PUSH1 0x0 REVERT JUMPDEST DUP2 MSTORE PUSH1 0x20 ADD PUSH1 0x2 DUP3 ADD DUP1 SLOAD PUSH2 0x19D7 SWAP1 PUSH2 0x3CDE JUMP JUMPDEST DUP1 PUSH1 0x1F ADD PUSH1 0x20 DUP1 SWAP2 DIV MUL PUSH1 0x20 ADD PUSH1 0x40 MLOAD SWAP1 DUP2 ADD PUSH1 0x40 MSTORE DUP1 SWAP3 SWAP2 SWAP1 DUP2 DUP2 MSTORE PUSH1 0x20 ADD DUP3 DUP1 SLOAD PUSH2 0x1A03 SWAP1 PUSH2 0x3CDE JUMP JUMPDEST DUP1 ISZERO PUSH2 0x1A50 JUMPI DUP1 PUSH1 0x1F LT PUSH2 0x1A25 JUMPI PUSH2 0x100 DUP1 DUP4 SLOAD DIV MUL DUP4 MSTORE SWAP2 PUSH1 0x20 ADD SWAP2 PUSH2 0x1A50 JUMP JUMPDEST DUP3 ADD SWAP2 SWAP1 PUSH1 0x0 MSTORE PUSH1 0x20 PUSH1 0x0 KECCAK256 SWAP1 JUMPDEST DUP2 SLOAD DUP2 MSTORE SWAP1 PUSH1 0x1 ADD SWAP1 PUSH1 0x20 ADD DUP1 DUP4 GT PUSH2 0x1A33 JUMPI DUP3 SWAP1 SUB PUSH1 0x1F AND DUP3 ADD SWAP2 JUMPDEST POP POP POP POP POP DUP2 MSTORE PUSH1 0x20 ADD PUSH1 0x3 DUP3 ADD DUP1 SLOAD PUSH2 0x1A69 SWAP1 PUSH2 0x3CDE JUMP JUMPDEST DUP1 PUSH1 0x1F ADD PUSH1 0x20 DUP1 SWAP2 DIV MUL PUSH1 0x20 ADD PUSH1 0x40 MLOAD SWAP1 DUP2 ADD PUSH1 0x40 MSTORE DUP1 SWAP3 SWAP2 SWAP1 DUP2 DUP2 MSTORE PUSH1 0x20 ADD DUP3 DUP1 SLOAD PUSH2 0x1A95 SWAP1 PUSH2 0x3CDE JUMP JUMPDEST DUP1 ISZERO PUSH2 0x1AE2 JUMPI DUP1 PUSH1 0x1F LT PUSH2 0x1AB7 JUMPI PUSH2 0x100 DUP1 DUP4 SLOAD DIV MUL DUP4 MSTORE SWAP2 PUSH1 0x20 ADD SWAP2 PUSH2 0x1AE2 JUMP JUMPDEST DUP3 ADD SWAP2 SWAP1 PUSH1 0x0 MSTORE PUSH1 0x20 PUSH1 0x0 KECCAK256 SWAP1 JUMPDEST DUP2 SLOAD DUP2 MSTORE SWAP1 PUSH1 0x1 ADD SWAP1 PUSH1 0x20 ADD DUP1 DUP4 GT PUSH2 0x1AC5 JUMPI DUP3 SWAP1 SUB PUSH1 0x1F AND DUP3 ADD SWAP2 JUMPDEST POP POP POP POP POP DUP2 MSTORE PUSH1 0x20 ADD PUSH1 0x4 DUP3 ADD DUP1 SLOAD DUP1 PUSH1 0x20 MUL PUSH1 0x20 ADD PUSH1 0x40 MLOAD SWAP1 DUP2 ADD PUSH1 0x40 MSTORE DUP1 SWAP3 SWAP2 SWAP1 DUP2 DUP2 MSTORE PUSH1 0x20 ADD DUP3 DUP1 SLOAD DUP1 ISZERO PUSH2 0x1B3A JUMPI PUSH1 0x20 MUL DUP3 ADD SWAP2 SWAP1 PUSH1 0x0 MSTORE PUSH1 0x20 PUSH1 0x0 KECCAK256 SWAP1 JUMPDEST DUP2 SLOAD DUP2 MSTORE PUSH1 0x20 ADD SWAP1 PUSH1 0x1 ADD SWAP1 DUP1 DUP4 GT PUSH2 0x1B26 JUMPI JUMPDEST POP POP POP POP POP DUP2 MSTORE POP POP PUSH2 0x435 JUMP JUMPDEST SWAP1 POP DUP1 PUSH2 0x1B8A JUMPI PUSH1 0x40 MLOAD PUSH32 0x8C379A000000000000000000000000000000000000000000000000000000000 DUP2 MSTORE PUSH1 0x4 ADD PUSH2 0x1B81 SWAP1 PUSH2 0x39AD JUMP JUMPDEST PUSH1 0x40 MLOAD DUP1 SWAP2 SUB SWAP1 REVERT JUMPDEST POP JUMPDEST PUSH1 0x0 DUP1 PUSH1 0x0 DUP8 DUP2 MSTORE PUSH1 0x20 ADD SWAP1 DUP2 MSTORE PUSH1 0x20 ADD PUSH1 0x0 KECCAK256 PUSH1 0x2 ADD DUP1 SLOAD DUP1 PUSH1 0x20 MUL PUSH1 0x20 ADD PUSH1 0x40 MLOAD SWAP1 DUP2 ADD PUSH1 0x40 MSTORE DUP1 SWAP3 SWAP2 SWAP1 DUP2 DUP2 MSTORE PUSH1 0x20 ADD DUP3 DUP1 SLOAD DUP1 ISZERO PUSH2 0x1BED JUMPI PUSH1 0x20 MUL DUP3 ADD SWAP2 SWAP1 PUSH1 0x0 MSTORE PUSH1 0x20 PUSH1 0x0 KECCAK256 SWAP1 JUMPDEST DUP2 SLOAD DUP2 MSTORE PUSH1 0x20 ADD SWAP1 PUSH1 0x1 ADD SWAP1 DUP1 DUP4 GT PUSH2 0x1BD9 JUMPI JUMPDEST POP POP POP POP POP SWAP1 POP PUSH1 0x0 DUP2 MLOAD EQ ISZERO PUSH2 0x1C07 JUMPI PUSH1 0x1 SWAP5 POP PUSH2 0x2089 JUMP JUMPDEST PUSH1 0x0 DUP1 PUSH1 0x0 DUP9 DUP2 MSTORE PUSH1 0x20 ADD SWAP1 DUP2 MSTORE PUSH1 0x20 ADD PUSH1 0x0 KECCAK256 PUSH1 0x1 ADD PUSH1 0x15 SWAP1 SLOAD SWAP1 PUSH2 0x100 EXP SWAP1 DIV PUSH1 0xFF AND SWAP1 POP PUSH1 0x0 PUSH1 0x3 DUP2 GT ISZERO PUSH2 0x1C68 JUMPI PUSH32 0x4E487B7100000000000000000000000000000000000000000000000000000000 PUSH1 0x0 MSTORE PUSH1 0x21 PUSH1 0x4 MSTORE PUSH1 0x24 PUSH1 0x0 REVERT JUMPDEST DUP2 PUSH1 0x3 DUP2 GT ISZERO PUSH2 0x1CA1 JUMPI PUSH32 0x4E487B7100000000000000000000000000000000000000000000000000000000 PUSH1 0x0 MSTORE PUSH1 0x21 PUSH1 0x4 MSTORE PUSH1 0x24 PUSH1 0x0 REVERT JUMPDEST EQ ISZERO PUSH2 0x1D07 JUMPI PUSH1 0x1 ISZERO ISZERO PUSH2 0x1CF5 DUP4 PUSH1 0x0 DUP2 MLOAD DUP2 LT PUSH2 0x1CE8 JUMPI PUSH32 0x4E487B7100000000000000000000000000000000000000000000000000000000 PUSH1 0x0 MSTORE PUSH1 0x32 PUSH1 0x4 MSTORE PUSH1 0x24 PUSH1 0x0 REVERT JUMPDEST PUSH1 0x20 MUL PUSH1 0x20 ADD ADD MLOAD PUSH2 0x1071 JUMP JUMPDEST ISZERO ISZERO EQ ISZERO PUSH2 0x1D02 JUMPI PUSH1 0x1 SWAP6 POP JUMPDEST PUSH2 0x2087 JUMP JUMPDEST PUSH1 0x0 DUP1 PUSH1 0x0 SWAP1 POP JUMPDEST DUP4 MLOAD DUP2 LT ISZERO PUSH2 0x1D8F JUMPI PUSH1 0x1 ISZERO ISZERO PUSH2 0x1D65 DUP6 DUP4 DUP2 MLOAD DUP2 LT PUSH2 0x1D58 JUMPI PUSH32 0x4E487B7100000000000000000000000000000000000000000000000000000000 PUSH1 0x0 MSTORE PUSH1 0x32 PUSH1 0x4 MSTORE PUSH1 0x24 PUSH1 0x0 REVERT JUMPDEST PUSH1 0x20 MUL PUSH1 0x20 ADD ADD MLOAD PUSH2 0x1071 JUMP JUMPDEST ISZERO ISZERO EQ ISZERO PUSH2 0x1D7C JUMPI DUP2 DUP1 PUSH2 0x1D78 SWAP1 PUSH2 0x3D10 JUMP JUMPDEST SWAP3 POP POP JUMPDEST DUP1 DUP1 PUSH2 0x1D87 SWAP1 PUSH2 0x3D10 JUMP JUMPDEST SWAP2 POP POP PUSH2 0x1D0F JUMP JUMPDEST POP PUSH1 0x1 PUSH1 0x3 DUP2 GT ISZERO PUSH2 0x1DCA JUMPI PUSH32 0x4E487B7100000000000000000000000000000000000000000000000000000000 PUSH1 0x0 MSTORE PUSH1 0x21 PUSH1 0x4 MSTORE PUSH1 0x24 PUSH1 0x0 REVERT JUMPDEST DUP3 PUSH1 0x3 DUP2 GT ISZERO PUSH2 0x1E03 JUMPI PUSH32 0x4E487B7100000000000000000000000000000000000000000000000000000000 PUSH1 0x0 MSTORE PUSH1 0x21 PUSH1 0x4 MSTORE PUSH1 0x24 PUSH1 0x0 REVERT JUMPDEST EQ ISZERO PUSH2 0x1E1C JUMPI DUP3 MLOAD DUP2 EQ ISZERO PUSH2 0x1E17 JUMPI PUSH1 0x1 SWAP7 POP JUMPDEST PUSH2 0x2085 JUMP JUMPDEST PUSH1 0x2 PUSH1 0x3 DUP2 GT ISZERO PUSH2 0x1E56 JUMPI PUSH32 0x4E487B7100000000000000000000000000000000000000000000000000000000 PUSH1 0x0 MSTORE PUSH1 0x21 PUSH1 0x4 MSTORE PUSH1 0x24 PUSH1 0x0 REVERT JUMPDEST DUP3 PUSH1 0x3 DUP2 GT ISZERO PUSH2 0x1E8F JUMPI PUSH32 0x4E487B7100000000000000000000000000000000000000000000000000000000 PUSH1 0x0 MSTORE PUSH1 0x21 PUSH1 0x4 MSTORE PUSH1 0x24 PUSH1 0x0 REVERT JUMPDEST EQ ISZERO PUSH2 0x1E9E JUMPI PUSH1 0x1 SWAP7 POP PUSH2 0x2084 JUMP JUMPDEST PUSH1 0x3 DUP1 DUP2 GT ISZERO PUSH2 0x1ED7 JUMPI PUSH32 0x4E487B7100000000000000000000000000000000000000000000000000000000 PUSH1 0x0 MSTORE PUSH1 0x21 PUSH1 0x4 MSTORE PUSH1 0x24 PUSH1 0x0 REVERT JUMPDEST DUP3 PUSH1 0x3 DUP2 GT ISZERO PUSH2 0x1F10 JUMPI PUSH32 0x4E487B7100000000000000000000000000000000000000000000000000000000 PUSH1 0x0 MSTORE PUSH1 0x21 PUSH1 0x4 MSTORE PUSH1 0x24 PUSH1 0x0 REVERT JUMPDEST EQ ISZERO PUSH2 0x2083 JUMPI PUSH1 0x0 JUMPDEST DUP4 MLOAD DUP2 LT ISZERO PUSH2 0x2081 JUMPI PUSH1 0x3 PUSH1 0x0 DUP6 DUP4 DUP2 MLOAD DUP2 LT PUSH2 0x1F5F JUMPI PUSH32 0x4E487B7100000000000000000000000000000000000000000000000000000000 PUSH1 0x0 MSTORE PUSH1 0x32 PUSH1 0x4 MSTORE PUSH1 0x24 PUSH1 0x0 REVERT JUMPDEST PUSH1 0x20 MUL PUSH1 0x20 ADD ADD MLOAD DUP2 MSTORE PUSH1 0x20 ADD SWAP1 DUP2 MSTORE PUSH1 0x20 ADD PUSH1 0x0 KECCAK256 PUSH1 0x0 SWAP1 SLOAD SWAP1 PUSH2 0x100 EXP SWAP1 DIV PUSH1 0xFF AND ISZERO PUSH2 0x206E JUMPI DUP9 PUSH32 0x63A242A632EFE33C0E210E04E4173612A17EFA4F16AA4890BC7E46CAECE80DE0 PUSH1 0x40 MLOAD PUSH1 0x40 MLOAD DUP1 SWAP2 SUB SWAP1 LOG2 DUP4 DUP2 DUP2 MLOAD DUP2 LT PUSH2 0x1FEE JUMPI PUSH32 0x4E487B7100000000000000000000000000000000000000000000000000000000 PUSH1 0x0 MSTORE PUSH1 0x32 PUSH1 0x4 MSTORE PUSH1 0x24 PUSH1 0x0 REVERT JUMPDEST PUSH1 0x20 MUL PUSH1 0x20 ADD ADD MLOAD PUSH32 0x63A242A632EFE33C0E210E04E4173612A17EFA4F16AA4890BC7E46CAECE80DE0 PUSH1 0x40 MLOAD PUSH1 0x40 MLOAD DUP1 SWAP2 SUB SWAP1 LOG2 PUSH2 0x206B DUP5 DUP3 DUP2 MLOAD DUP2 LT PUSH2 0x205E JUMPI PUSH32 0x4E487B7100000000000000000000000000000000000000000000000000000000 PUSH1 0x0 MSTORE PUSH1 0x32 PUSH1 0x4 MSTORE PUSH1 0x24 PUSH1 0x0 REVERT JUMPDEST PUSH1 0x20 MUL PUSH1 0x20 ADD ADD MLOAD PUSH2 0x1071 JUMP JUMPDEST SWAP8 POP JUMPDEST DUP1 DUP1 PUSH2 0x2079 SWAP1 PUSH2 0x3D10 JUMP JUMPDEST SWAP2 POP POP PUSH2 0x1F19 JUMP JUMPDEST POP JUMPDEST JUMPDEST JUMPDEST POP JUMPDEST POP JUMPDEST DUP5 ISZERO PUSH2 0x21B3 JUMPI PUSH1 0x0 DUP1 DUP8 DUP2 MSTORE PUSH1 0x20 ADD SWAP1 DUP2 MSTORE PUSH1 0x20 ADD PUSH1 0x0 KECCAK256 PUSH1 0x4 ADD PUSH1 0x1 ADD PUSH1 0x3 SWAP1 SLOAD SWAP1 PUSH2 0x100 EXP SWAP1 DIV PUSH1 0xFF AND ISZERO PUSH2 0x20E7 JUMPI PUSH1 0x1 PUSH1 0x3 PUSH1 0x0 DUP7 DUP2 MSTORE PUSH1 0x20 ADD SWAP1 DUP2 MSTORE PUSH1 0x20 ADD PUSH1 0x0 KECCAK256 PUSH1 0x0 PUSH2 0x100 EXP DUP2 SLOAD DUP2 PUSH1 0xFF MUL NOT AND SWAP1 DUP4 ISZERO ISZERO MUL OR SWAP1 SSTORE POP JUMPDEST PUSH1 0x5 DUP4 PUSH1 0x0 ADD MLOAD SWAP1 DUP1 PUSH1 0x1 DUP2 SLOAD ADD DUP1 DUP3 SSTORE DUP1 SWAP2 POP POP PUSH1 0x1 SWAP1 SUB SWAP1 PUSH1 0x0 MSTORE PUSH1 0x20 PUSH1 0x0 KECCAK256 ADD PUSH1 0x0 SWAP1 SWAP2 SWAP1 SWAP2 SWAP1 SWAP2 POP SWAP1 DUP1 MLOAD SWAP1 PUSH1 0x20 ADD SWAP1 PUSH2 0x2126 SWAP3 SWAP2 SWAP1 PUSH2 0x292D JUMP JUMPDEST POP PUSH1 0x1 PUSH1 0x0 DUP1 DUP9 DUP2 MSTORE PUSH1 0x20 ADD SWAP1 DUP2 MSTORE PUSH1 0x20 ADD PUSH1 0x0 KECCAK256 PUSH1 0x1 ADD PUSH1 0x14 PUSH2 0x100 EXP DUP2 SLOAD DUP2 PUSH1 0xFF MUL NOT AND SWAP1 DUP4 ISZERO ISZERO MUL OR SWAP1 SSTORE POP PUSH1 0x4 DUP7 SWAP1 DUP1 PUSH1 0x1 DUP2 SLOAD ADD DUP1 DUP3 SSTORE DUP1 SWAP2 POP POP PUSH1 0x1 SWAP1 SUB SWAP1 PUSH1 0x0 MSTORE PUSH1 0x20 PUSH1 0x0 KECCAK256 ADD PUSH1 0x0 SWAP1 SWAP2 SWAP1 SWAP2 SWAP1 SWAP2 POP SSTORE PUSH1 0x1 ISZERO ISZERO PUSH32 0xACD30B4F9FD5868793E13FFB506F03374A23D9FEBA1249AC2CC7B0FE024FF4BA PUSH1 0x40 MLOAD PUSH1 0x40 MLOAD DUP1 SWAP2 SUB SWAP1 LOG2 PUSH2 0x21E4 JUMP JUMPDEST PUSH1 0x0 ISZERO ISZERO PUSH32 0xACD30B4F9FD5868793E13FFB506F03374A23D9FEBA1249AC2CC7B0FE024FF4BA PUSH1 0x40 MLOAD PUSH1 0x40 MLOAD DUP1 SWAP2 SUB SWAP1 LOG2 JUMPDEST POP POP POP POP SWAP2 SWAP1 POP JUMP JUMPDEST PUSH1 0x0 PUSH20 0x27B1618CB7956BBF41BC640A506F4563AE74F613 PUSH4 0xE1DF7AD6 DUP6 DUP6 DUP6 PUSH1 0x40 MLOAD DUP5 PUSH4 0xFFFFFFFF AND PUSH1 0xE0 SHL DUP2 MSTORE PUSH1 0x4 ADD PUSH2 0x222A SWAP4 SWAP3 SWAP2 SWAP1 PUSH2 0x38E6 JUMP JUMPDEST PUSH1 0x20 PUSH1 0x40 MLOAD DUP1 DUP4 SUB DUP2 DUP7 DUP1 EXTCODESIZE ISZERO DUP1 ISZERO PUSH2 0x2242 JUMPI PUSH1 0x0 DUP1 REVERT JUMPDEST POP GAS DELEGATECALL ISZERO DUP1 ISZERO PUSH2 0x2256 JUMPI RETURNDATASIZE PUSH1 0x0 DUP1 RETURNDATACOPY RETURNDATASIZE PUSH1 0x0 REVERT JUMPDEST POP POP POP POP PUSH1 0x40 MLOAD RETURNDATASIZE PUSH1 0x1F NOT PUSH1 0x1F DUP3 ADD AND DUP3 ADD DUP1 PUSH1 0x40 MSTORE POP DUP2 ADD SWAP1 PUSH2 0x227A SWAP2 SWAP1 PUSH2 0x2FC4 JUMP JUMPDEST SWAP1 POP SWAP4 SWAP3 POP POP POP JUMP JUMPDEST PUSH1 0x2 DUP2 DUP1 MLOAD PUSH1 0x20 DUP2 ADD DUP3 ADD DUP1 MLOAD DUP5 DUP3 MSTORE PUSH1 0x20 DUP4 ADD PUSH1 0x20 DUP6 ADD KECCAK256 DUP2 DUP4 MSTORE DUP1 SWAP6 POP POP POP POP POP POP PUSH1 0x0 SWAP2 POP SWAP1 POP DUP1 SLOAD PUSH2 0x22B8 SWAP1 PUSH2 0x3CDE JUMP JUMPDEST DUP1 PUSH1 0x1F ADD PUSH1 0x20 DUP1 SWAP2 DIV MUL PUSH1 0x20 ADD PUSH1 0x40 MLOAD SWAP1 DUP2 ADD PUSH1 0x40 MSTORE DUP1 SWAP3 SWAP2 SWAP1 DUP2 DUP2 MSTORE PUSH1 0x20 ADD DUP3 DUP1 SLOAD PUSH2 0x22E4 SWAP1 PUSH2 0x3CDE JUMP JUMPDEST DUP1 ISZERO PUSH2 0x2331 JUMPI DUP1 PUSH1 0x1F LT PUSH2 0x2306 JUMPI PUSH2 0x100 DUP1 DUP4 SLOAD DIV MUL DUP4 MSTORE SWAP2 PUSH1 0x20 ADD SWAP2 PUSH2 0x2331 JUMP JUMPDEST DUP3 ADD SWAP2 SWAP1 PUSH1 0x0 MSTORE PUSH1 0x20 PUSH1 0x0 KECCAK256 SWAP1 JUMPDEST DUP2 SLOAD DUP2 MSTORE SWAP1 PUSH1 0x1 ADD SWAP1 PUSH1 0x20 ADD DUP1 DUP4 GT PUSH2 0x2314 JUMPI DUP3 SWAP1 SUB PUSH1 0x1F AND DUP3 ADD SWAP2 JUMPDEST POP POP POP POP POP DUP2 JUMP JUMPDEST PUSH1 0x0 PUSH1 0x2 DUP2 GT ISZERO PUSH2 0x2373 JUMPI PUSH32 0x4E487B7100000000000000000000000000000000000000000000000000000000 PUSH1 0x0 MSTORE PUSH1 0x21 PUSH1 0x4 MSTORE PUSH1 0x24 PUSH1 0x0 REVERT JUMPDEST DUP2 PUSH1 0x40 ADD MLOAD PUSH1 0x2 DUP2 GT ISZERO PUSH2 0x23B0 JUMPI PUSH32 0x4E487B7100000000000000000000000000000000000000000000000000000000 PUSH1 0x0 MSTORE PUSH1 0x21 PUSH1 0x4 MSTORE PUSH1 0x24 PUSH1 0x0 REVERT JUMPDEST EQ ISZERO PUSH2 0x2401 JUMPI PUSH1 0x40 MLOAD DUP1 PUSH1 0x20 ADD PUSH1 0x40 MSTORE DUP1 PUSH1 0x0 DUP2 MSTORE POP PUSH1 0x2 DUP3 PUSH1 0xC0 ADD MLOAD PUSH1 0x40 MLOAD PUSH2 0x23DA SWAP2 SWAP1 PUSH2 0x37DF JUMP JUMPDEST SWAP1 DUP2 MSTORE PUSH1 0x20 ADD PUSH1 0x40 MLOAD DUP1 SWAP2 SUB SWAP1 KECCAK256 SWAP1 DUP1 MLOAD SWAP1 PUSH1 0x20 ADD SWAP1 PUSH2 0x23FB SWAP3 SWAP2 SWAP1 PUSH2 0x292D JUMP JUMPDEST POP PUSH2 0x24A8 JUMP JUMPDEST PUSH1 0x1 PUSH1 0x2 DUP2 GT ISZERO PUSH2 0x243B JUMPI PUSH32 0x4E487B7100000000000000000000000000000000000000000000000000000000 PUSH1 0x0 MSTORE PUSH1 0x21 PUSH1 0x4 MSTORE PUSH1 0x24 PUSH1 0x0 REVERT JUMPDEST DUP2 PUSH1 0x40 ADD MLOAD PUSH1 0x2 DUP2 GT ISZERO PUSH2 0x2478 JUMPI PUSH32 0x4E487B7100000000000000000000000000000000000000000000000000000000 PUSH1 0x0 MSTORE PUSH1 0x21 PUSH1 0x4 MSTORE PUSH1 0x24 PUSH1 0x0 REVERT JUMPDEST EQ ISZERO PUSH2 0x24A7 JUMPI PUSH1 0x0 PUSH1 0x1 DUP3 PUSH1 0xC0 ADD MLOAD PUSH1 0x40 MLOAD PUSH2 0x2494 SWAP2 SWAP1 PUSH2 0x37DF JUMP JUMPDEST SWAP1 DUP2 MSTORE PUSH1 0x20 ADD PUSH1 0x40 MLOAD DUP1 SWAP2 SUB SWAP1 KECCAK256 DUP2 SWAP1 SSTORE POP JUMPDEST JUMPDEST PUSH2 0x24B6 DUP8 DUP8 DUP8 DUP8 DUP8 DUP8 PUSH2 0x743 JUMP JUMPDEST PUSH2 0x24BE PUSH2 0x2A4D JUMP JUMPDEST DUP2 PUSH1 0x0 ADD MLOAD DUP2 PUSH1 0x0 ADD DUP2 DUP2 MSTORE POP POP DUP2 PUSH1 0x20 ADD MLOAD DUP2 PUSH1 0x20 ADD SWAP1 PUSH1 0x3 DUP2 GT ISZERO PUSH2 0x250E JUMPI PUSH32 0x4E487B7100000000000000000000000000000000000000000000000000000000 PUSH1 0x0 MSTORE PUSH1 0x21 PUSH1 0x4 MSTORE PUSH1 0x24 PUSH1 0x0 REVERT JUMPDEST SWAP1 DUP2 PUSH1 0x3 DUP2 GT ISZERO PUSH2 0x2548 JUMPI PUSH32 0x4E487B7100000000000000000000000000000000000000000000000000000000 PUSH1 0x0 MSTORE PUSH1 0x21 PUSH1 0x4 MSTORE PUSH1 0x24 PUSH1 0x0 REVERT JUMPDEST DUP2 MSTORE POP POP DUP2 PUSH1 0x40 ADD MLOAD DUP2 PUSH1 0x40 ADD SWAP1 PUSH1 0x2 DUP2 GT ISZERO PUSH2 0x258E JUMPI PUSH32 0x4E487B7100000000000000000000000000000000000000000000000000000000 PUSH1 0x0 MSTORE PUSH1 0x21 PUSH1 0x4 MSTORE PUSH1 0x24 PUSH1 0x0 REVERT JUMPDEST SWAP1 DUP2 PUSH1 0x2 DUP2 GT ISZERO PUSH2 0x25C8 JUMPI PUSH32 0x4E487B7100000000000000000000000000000000000000000000000000000000 PUSH1 0x0 MSTORE PUSH1 0x21 PUSH1 0x4 MSTORE PUSH1 0x24 PUSH1 0x0 REVERT JUMPDEST DUP2 MSTORE POP POP DUP2 PUSH1 0x60 ADD MLOAD DUP2 PUSH1 0x60 ADD SWAP1 ISZERO ISZERO SWAP1 DUP2 ISZERO ISZERO DUP2 MSTORE POP POP DUP2 PUSH1 0x80 ADD MLOAD DUP2 PUSH1 0x80 ADD SWAP1 ISZERO ISZERO SWAP1 DUP2 ISZERO ISZERO DUP2 MSTORE POP POP DUP2 PUSH1 0xA0 ADD MLOAD DUP2 PUSH1 0xA0 ADD SWAP1 PUSH1 0x6 DUP2 GT ISZERO PUSH2 0x2636 JUMPI PUSH32 0x4E487B7100000000000000000000000000000000000000000000000000000000 PUSH1 0x0 MSTORE PUSH1 0x21 PUSH1 0x4 MSTORE PUSH1 0x24 PUSH1 0x0 REVERT JUMPDEST SWAP1 DUP2 PUSH1 0x6 DUP2 GT ISZERO PUSH2 0x2670 JUMPI PUSH32 0x4E487B7100000000000000000000000000000000000000000000000000000000 PUSH1 0x0 MSTORE PUSH1 0x21 PUSH1 0x4 MSTORE PUSH1 0x24 PUSH1 0x0 REVERT JUMPDEST DUP2 MSTORE POP POP DUP2 PUSH1 0xC0 ADD MLOAD DUP2 PUSH1 0xC0 ADD DUP2 SWAP1 MSTORE POP DUP2 PUSH1 0xE0 ADD MLOAD DUP2 PUSH1 0xE0 ADD DUP2 SWAP1 MSTORE POP DUP2 PUSH2 0x100 ADD MLOAD DUP2 PUSH2 0x100 ADD DUP2 SWAP1 MSTORE POP DUP1 PUSH1 0x0 DUP1 DUP11 DUP2 MSTORE PUSH1 0x20 ADD SWAP1 DUP2 MSTORE PUSH1 0x20 ADD PUSH1 0x0 KECCAK256 PUSH1 0x4 ADD PUSH1 0x0 DUP3 ADD MLOAD DUP2 PUSH1 0x0 ADD SSTORE PUSH1 0x20 DUP3 ADD MLOAD DUP2 PUSH1 0x1 ADD PUSH1 0x0 PUSH2 0x100 EXP DUP2 SLOAD DUP2 PUSH1 0xFF MUL NOT AND SWAP1 DUP4 PUSH1 0x3 DUP2 GT ISZERO PUSH2 0x270E JUMPI PUSH32 0x4E487B7100000000000000000000000000000000000000000000000000000000 PUSH1 0x0 MSTORE PUSH1 0x21 PUSH1 0x4 MSTORE PUSH1 0x24 PUSH1 0x0 REVERT JUMPDEST MUL OR SWAP1 SSTORE POP PUSH1 0x40 DUP3 ADD MLOAD DUP2 PUSH1 0x1 ADD PUSH1 0x1 PUSH2 0x100 EXP DUP2 SLOAD DUP2 PUSH1 0xFF MUL NOT AND SWAP1 DUP4 PUSH1 0x2 DUP2 GT ISZERO PUSH2 0x2764 JUMPI PUSH32 0x4E487B7100000000000000000000000000000000000000000000000000000000 PUSH1 0x0 MSTORE PUSH1 0x21 PUSH1 0x4 MSTORE PUSH1 0x24 PUSH1 0x0 REVERT JUMPDEST MUL OR SWAP1 SSTORE POP PUSH1 0x60 DUP3 ADD MLOAD DUP2 PUSH1 0x1 ADD PUSH1 0x2 PUSH2 0x100 EXP DUP2 SLOAD DUP2 PUSH1 0xFF MUL NOT AND SWAP1 DUP4 ISZERO ISZERO MUL OR SWAP1 SSTORE POP PUSH1 0x80 DUP3 ADD MLOAD DUP2 PUSH1 0x1 ADD PUSH1 0x3 PUSH2 0x100 EXP DUP2 SLOAD DUP2 PUSH1 0xFF MUL NOT AND SWAP1 DUP4 ISZERO ISZERO MUL OR SWAP1 SSTORE POP PUSH1 0xA0 DUP3 ADD MLOAD DUP2 PUSH1 0x1 ADD PUSH1 0x4 PUSH2 0x100 EXP DUP2 SLOAD DUP2 PUSH1 0xFF MUL NOT AND SWAP1 DUP4 PUSH1 0x6 DUP2 GT ISZERO PUSH2 0x27FA JUMPI PUSH32 0x4E487B7100000000000000000000000000000000000000000000000000000000 PUSH1 0x0 MSTORE PUSH1 0x21 PUSH1 0x4 MSTORE PUSH1 0x24 PUSH1 0x0 REVERT JUMPDEST MUL OR SWAP1 SSTORE POP PUSH1 0xC0 DUP3 ADD MLOAD DUP2 PUSH1 0x2 ADD SWAP1 DUP1 MLOAD SWAP1 PUSH1 0x20 ADD SWAP1 PUSH2 0x281B SWAP3 SWAP2 SWAP1 PUSH2 0x292D JUMP JUMPDEST POP PUSH1 0xE0 DUP3 ADD MLOAD DUP2 PUSH1 0x3 ADD SWAP1 DUP1 MLOAD SWAP1 PUSH1 0x20 ADD SWAP1 PUSH2 0x2838 SWAP3 SWAP2 SWAP1 PUSH2 0x292D JUMP JUMPDEST POP PUSH2 0x100 DUP3 ADD MLOAD DUP2 PUSH1 0x4 ADD SWAP1 DUP1 MLOAD SWAP1 PUSH1 0x20 ADD SWAP1 PUSH2 0x2856 SWAP3 SWAP2 SWAP1 PUSH2 0x2A00 JUMP JUMPDEST POP SWAP1 POP POP POP POP POP POP POP POP POP POP JUMP JUMPDEST DUP2 DUP2 PUSH1 0x2 DUP7 DUP7 PUSH1 0x40 MLOAD PUSH2 0x2878 SWAP3 SWAP2 SWAP1 PUSH2 0x37C6 JUMP JUMPDEST SWAP1 DUP2 MSTORE PUSH1 0x20 ADD PUSH1 0x40 MLOAD DUP1 SWAP2 SUB SWAP1 KECCAK256 SWAP2 SWAP1 PUSH2 0x2893 SWAP3 SWAP2 SWAP1 PUSH2 0x2B45 JUMP JUMPDEST POP POP POP POP POP JUMP JUMPDEST PUSH1 0x40 MLOAD DUP1 PUSH1 0xE0 ADD PUSH1 0x40 MSTORE DUP1 PUSH1 0x60 DUP2 MSTORE PUSH1 0x20 ADD PUSH1 0x0 PUSH20 0xFFFFFFFFFFFFFFFFFFFFFFFFFFFFFFFFFFFFFFFF AND DUP2 MSTORE PUSH1 0x20 ADD PUSH1 0x0 ISZERO ISZERO DUP2 MSTORE PUSH1 0x20 ADD PUSH1 0x0 PUSH1 0x3 DUP2 GT ISZERO PUSH2 0x290C JUMPI PUSH32 0x4E487B7100000000000000000000000000000000000000000000000000000000 PUSH1 0x0 MSTORE PUSH1 0x21 PUSH1 0x4 MSTORE PUSH1 0x24 PUSH1 0x0 REVERT JUMPDEST DUP2 MSTORE PUSH1 0x20 ADD PUSH1 0x60 DUP2 MSTORE PUSH1 0x20 ADD PUSH1 0x60 DUP2 MSTORE PUSH1 0x20 ADD PUSH2 0x2927 PUSH2 0x2A4D JUMP JUMPDEST DUP2 MSTORE POP SWAP1 JUMP JUMPDEST DUP3 DUP1 SLOAD PUSH2 0x2939 SWAP1 PUSH2 0x3CDE JUMP JUMPDEST SWAP1 PUSH1 0x0 MSTORE PUSH1 0x20 PUSH1 0x0 KECCAK256 SWAP1 PUSH1 0x1F ADD PUSH1 0x20 SWAP1 DIV DUP2 ADD SWAP3 DUP3 PUSH2 0x295B JUMPI PUSH1 0x0 DUP6 SSTORE PUSH2 0x29A2 JUMP JUMPDEST DUP3 PUSH1 0x1F LT PUSH2 0x2974 JUMPI DUP1 MLOAD PUSH1 0xFF NOT AND DUP4 DUP1 ADD OR DUP6 SSTORE PUSH2 0x29A2 JUMP JUMPDEST DUP3 DUP1 ADD PUSH1 0x1 ADD DUP6 SSTORE DUP3 ISZERO PUSH2 0x29A2 JUMPI SWAP2 DUP3 ADD JUMPDEST DUP3 DUP2 GT ISZERO PUSH2 0x29A1 JUMPI DUP3 MLOAD DUP3 SSTORE SWAP2 PUSH1 0x20 ADD SWAP2 SWAP1 PUSH1 0x1 ADD SWAP1 PUSH2 0x2986 JUMP JUMPDEST JUMPDEST POP SWAP1 POP PUSH2 0x29AF SWAP2 SWAP1 PUSH2 0x2BCB JUMP JUMPDEST POP SWAP1 JUMP JUMPDEST DUP3 DUP1 SLOAD DUP3 DUP3 SSTORE SWAP1 PUSH1 0x0 MSTORE PUSH1 0x20 PUSH1 0x0 KECCAK256 SWAP1 DUP2 ADD SWAP3 DUP3 ISZERO PUSH2 0x29EF JUMPI SWAP2 PUSH1 0x20 MUL DUP3 ADD JUMPDEST DUP3 DUP2 GT ISZERO PUSH2 0x29EE JUMPI DUP3 MLOAD DUP3 SSTORE SWAP2 PUSH1 0x20 ADD SWAP2 SWAP1 PUSH1 0x1 ADD SWAP1 PUSH2 0x29D3 JUMP JUMPDEST JUMPDEST POP SWAP1 POP PUSH2 0x29FC SWAP2 SWAP1 PUSH2 0x2BCB JUMP JUMPDEST POP SWAP1 JUMP JUMPDEST DUP3 DUP1 SLOAD DUP3 DUP3 SSTORE SWAP1 PUSH1 0x0 MSTORE PUSH1 0x20 PUSH1 0x0 KECCAK256 SWAP1 DUP2 ADD SWAP3 DUP3 ISZERO PUSH2 0x2A3C JUMPI SWAP2 PUSH1 0x20 MUL DUP3 ADD JUMPDEST DUP3 DUP2 GT ISZERO PUSH2 0x2A3B JUMPI DUP3 MLOAD DUP3 SSTORE SWAP2 PUSH1 0x20 ADD SWAP2 SWAP1 PUSH1 0x1 ADD SWAP1 PUSH2 0x2A20 JUMP JUMPDEST JUMPDEST POP SWAP1 POP PUSH2 0x2A49 SWAP2 SWAP1 PUSH2 0x2BE8 JUMP JUMPDEST POP SWAP1 JUMP JUMPDEST PUSH1 0x40 MLOAD DUP1 PUSH2 0x120 ADD PUSH1 0x40 MSTORE DUP1 PUSH1 0x0 DUP2 MSTORE PUSH1 0x20 ADD PUSH1 0x0 PUSH1 0x3 DUP2 GT ISZERO PUSH2 0x2A9A JUMPI PUSH32 0x4E487B7100000000000000000000000000000000000000000000000000000000 PUSH1 0x0 MSTORE PUSH1 0x21 PUSH1 0x4 MSTORE PUSH1 0x24 PUSH1 0x0 REVERT JUMPDEST DUP2 MSTORE PUSH1 0x20 ADD PUSH1 0x0 PUSH1 0x2 DUP2 GT ISZERO PUSH2 0x2AD9 JUMPI PUSH32 0x4E487B7100000000000000000000000000000000000000000000000000000000 PUSH1 0x0 MSTORE PUSH1 0x21 PUSH1 0x4 MSTORE PUSH1 0x24 PUSH1 0x0 REVERT JUMPDEST DUP2 MSTORE PUSH1 0x20 ADD PUSH1 0x0 ISZERO ISZERO DUP2 MSTORE PUSH1 0x20 ADD PUSH1 0x0 ISZERO ISZERO DUP2 MSTORE PUSH1 0x20 ADD PUSH1 0x0 PUSH1 0x6 DUP2 GT ISZERO PUSH2 0x2B2A JUMPI PUSH32 0x4E487B7100000000000000000000000000000000000000000000000000000000 PUSH1 0x0 MSTORE PUSH1 0x21 PUSH1 0x4 MSTORE PUSH1 0x24 PUSH1 0x0 REVERT JUMPDEST DUP2 MSTORE PUSH1 0x20 ADD PUSH1 0x60 DUP2 MSTORE PUSH1 0x20 ADD PUSH1 0x60 DUP2 MSTORE PUSH1 0x20 ADD PUSH1 0x60 DUP2 MSTORE POP SWAP1 JUMP JUMPDEST DUP3 DUP1 SLOAD PUSH2 0x2B51 SWAP1 PUSH2 0x3CDE JUMP JUMPDEST SWAP1 PUSH1 0x0 MSTORE PUSH1 0x20 PUSH1 0x0 KECCAK256 SWAP1 PUSH1 0x1F ADD PUSH1 0x20 SWAP1 DIV DUP2 ADD SWAP3 DUP3 PUSH2 0x2B73 JUMPI PUSH1 0x0 DUP6 SSTORE PUSH2 0x2BBA JUMP JUMPDEST DUP3 PUSH1 0x1F LT PUSH2 0x2B8C JUMPI DUP1 CALLDATALOAD PUSH1 0xFF NOT AND DUP4 DUP1 ADD OR DUP6 SSTORE PUSH2 0x2BBA JUMP JUMPDEST DUP3 DUP1 ADD PUSH1 0x1 ADD DUP6 SSTORE DUP3 ISZERO PUSH2 0x2BBA JUMPI SWAP2 DUP3 ADD JUMPDEST DUP3 DUP2 GT ISZERO PUSH2 0x2BB9 JUMPI DUP3 CALLDATALOAD DUP3 SSTORE SWAP2 PUSH1 0x20 ADD SWAP2 SWAP1 PUSH1 0x1 ADD SWAP1 PUSH2 0x2B9E JUMP JUMPDEST JUMPDEST POP SWAP1 POP PUSH2 0x2BC7 SWAP2 SWAP1 PUSH2 0x2BCB JUMP JUMPDEST POP SWAP1 JUMP JUMPDEST JUMPDEST DUP1 DUP3 GT ISZERO PUSH2 0x2BE4 JUMPI PUSH1 0x0 DUP2 PUSH1 0x0 SWAP1 SSTORE POP PUSH1 0x1 ADD PUSH2 0x2BCC JUMP JUMPDEST POP SWAP1 JUMP JUMPDEST JUMPDEST DUP1 DUP3 GT ISZERO PUSH2 0x2C01 JUMPI PUSH1 0x0 DUP2 PUSH1 0x0 SWAP1 SSTORE POP PUSH1 0x1 ADD PUSH2 0x2BE9 JUMP JUMPDEST POP SWAP1 JUMP JUMPDEST PUSH1 0x0 PUSH2 0x2C18 PUSH2 0x2C13 DUP5 PUSH2 0x3A19 JUMP JUMPDEST PUSH2 0x39E8 JUMP JUMPDEST SWAP1 POP DUP1 DUP4 DUP3 MSTORE PUSH1 0x20 DUP3 ADD SWAP1 POP DUP3 DUP6 PUSH1 0x20 DUP7 MUL DUP3 ADD GT ISZERO PUSH2 0x2C37 JUMPI PUSH1 0x0 DUP1 REVERT JUMPDEST PUSH1 0x0 JUMPDEST DUP6 DUP2 LT ISZERO PUSH2 0x2C67 JUMPI DUP2 PUSH2 0x2C4D DUP9 DUP3 PUSH2 0x2DED JUMP JUMPDEST DUP5 MSTORE PUSH1 0x20 DUP5 ADD SWAP4 POP PUSH1 0x20 DUP4 ADD SWAP3 POP POP PUSH1 0x1 DUP2 ADD SWAP1 POP PUSH2 0x2C3A JUMP JUMPDEST POP POP POP SWAP4 SWAP3 POP POP POP JUMP JUMPDEST PUSH1 0x0 PUSH2 0x2C84 PUSH2 0x2C7F DUP5 PUSH2 0x3A45 JUMP JUMPDEST PUSH2 0x39E8 JUMP JUMPDEST SWAP1 POP DUP1 DUP4 DUP3 MSTORE PUSH1 0x20 DUP3 ADD SWAP1 POP DUP3 DUP6 PUSH1 0x20 DUP7 MUL DUP3 ADD GT ISZERO PUSH2 0x2CA3 JUMPI PUSH1 0x0 DUP1 REVERT JUMPDEST PUSH1 0x0 JUMPDEST DUP6 DUP2 LT ISZERO PUSH2 0x2CD3 JUMPI DUP2 PUSH2 0x2CB9 DUP9 DUP3 PUSH2 0x2F9A JUMP JUMPDEST DUP5 MSTORE PUSH1 0x20 DUP5 ADD SWAP4 POP PUSH1 0x20 DUP4 ADD SWAP3 POP POP PUSH1 0x1 DUP2 ADD SWAP1 POP PUSH2 0x2CA6 JUMP JUMPDEST POP POP POP SWAP4 SWAP3 POP POP POP JUMP JUMPDEST PUSH1 0x0 PUSH2 0x2CF0 PUSH2 0x2CEB DUP5 PUSH2 0x3A71 JUMP JUMPDEST PUSH2 0x39E8 JUMP JUMPDEST SWAP1 POP DUP3 DUP2 MSTORE PUSH1 0x20 DUP2 ADD DUP5 DUP5 DUP5 ADD GT ISZERO PUSH2 0x2D08 JUMPI PUSH1 0x0 DUP1 REVERT JUMPDEST PUSH2 0x2D13 DUP5 DUP3 DUP6 PUSH2 0x3C9C JUMP JUMPDEST POP SWAP4 SWAP3 POP POP POP JUMP JUMPDEST PUSH1 0x0 DUP2 CALLDATALOAD SWAP1 POP PUSH2 0x2D2A DUP2 PUSH2 0x3E4E JUMP JUMPDEST SWAP3 SWAP2 POP POP JUMP JUMPDEST PUSH1 0x0 DUP3 PUSH1 0x1F DUP4 ADD SLT PUSH2 0x2D41 JUMPI PUSH1 0x0 DUP1 REVERT JUMPDEST DUP2 CALLDATALOAD PUSH2 0x2D51 DUP5 DUP3 PUSH1 0x20 DUP7 ADD PUSH2 0x2C05 JUMP JUMPDEST SWAP2 POP POP SWAP3 SWAP2 POP POP JUMP JUMPDEST PUSH1 0x0 DUP3 PUSH1 0x1F DUP4 ADD SLT PUSH2 0x2D6B JUMPI PUSH1 0x0 DUP1 REVERT JUMPDEST DUP2 CALLDATALOAD PUSH2 0x2D7B DUP5 DUP3 PUSH1 0x20 DUP7 ADD PUSH2 0x2C71 JUMP JUMPDEST SWAP2 POP POP SWAP3 SWAP2 POP POP JUMP JUMPDEST PUSH1 0x0 DUP2 CALLDATALOAD SWAP1 POP PUSH2 0x2D93 DUP2 PUSH2 0x3E65 JUMP JUMPDEST SWAP3 SWAP2 POP POP JUMP JUMPDEST PUSH1 0x0 DUP2 MLOAD SWAP1 POP PUSH2 0x2DA8 DUP2 PUSH2 0x3E65 JUMP JUMPDEST SWAP3 SWAP2 POP POP JUMP JUMPDEST PUSH1 0x0 DUP2 CALLDATALOAD SWAP1 POP PUSH2 0x2DBD DUP2 PUSH2 0x3E7C JUMP JUMPDEST SWAP3 SWAP2 POP POP JUMP JUMPDEST PUSH1 0x0 DUP2 CALLDATALOAD SWAP1 POP PUSH2 0x2DD2 DUP2 PUSH2 0x3E8C JUMP JUMPDEST SWAP3 SWAP2 POP POP JUMP JUMPDEST PUSH1 0x0 DUP2 CALLDATALOAD SWAP1 POP PUSH2 0x2DE7 DUP2 PUSH2 0x3E9C JUMP JUMPDEST SWAP3 SWAP2 POP POP JUMP JUMPDEST PUSH1 0x0 DUP2 CALLDATALOAD SWAP1 POP PUSH2 0x2DFC DUP2 PUSH2 0x3EAC JUMP JUMPDEST SWAP3 SWAP2 POP POP JUMP JUMPDEST PUSH1 0x0 DUP1 DUP4 PUSH1 0x1F DUP5 ADD SLT PUSH2 0x2E14 JUMPI PUSH1 0x0 DUP1 REVERT JUMPDEST DUP3 CALLDATALOAD SWAP1 POP PUSH8 0xFFFFFFFFFFFFFFFF DUP2 GT ISZERO PUSH2 0x2E2D JUMPI PUSH1 0x0 DUP1 REVERT JUMPDEST PUSH1 0x20 DUP4 ADD SWAP2 POP DUP4 PUSH1 0x1 DUP3 MUL DUP4 ADD GT ISZERO PUSH2 0x2E45 JUMPI PUSH1 0x0 DUP1 REVERT JUMPDEST SWAP3 POP SWAP3 SWAP1 POP JUMP JUMPDEST PUSH1 0x0 DUP3 PUSH1 0x1F DUP4 ADD SLT PUSH2 0x2E5D JUMPI PUSH1 0x0 DUP1 REVERT JUMPDEST DUP2 CALLDATALOAD PUSH2 0x2E6D DUP5 DUP3 PUSH1 0x20 DUP7 ADD PUSH2 0x2CDD JUMP JUMPDEST SWAP2 POP POP SWAP3 SWAP2 POP POP JUMP JUMPDEST PUSH1 0x0 PUSH2 0x120 DUP3 DUP5 SUB SLT ISZERO PUSH2 0x2E89 JUMPI PUSH1 0x0 DUP1 REVERT JUMPDEST PUSH2 0x2E94 PUSH2 0x120 PUSH2 0x39E8 JUMP JUMPDEST SWAP1 POP PUSH1 0x0 PUSH2 0x2EA4 DUP5 DUP3 DUP6 ADD PUSH2 0x2F9A JUMP JUMPDEST PUSH1 0x0 DUP4 ADD MSTORE POP PUSH1 0x20 PUSH2 0x2EB8 DUP5 DUP3 DUP6 ADD PUSH2 0x2DC3 JUMP JUMPDEST PUSH1 0x20 DUP4 ADD MSTORE POP PUSH1 0x40 PUSH2 0x2ECC DUP5 DUP3 DUP6 ADD PUSH2 0x2DAE JUMP JUMPDEST PUSH1 0x40 DUP4 ADD MSTORE POP PUSH1 0x60 PUSH2 0x2EE0 DUP5 DUP3 DUP6 ADD PUSH2 0x2D84 JUMP JUMPDEST PUSH1 0x60 DUP4 ADD MSTORE POP PUSH1 0x80 PUSH2 0x2EF4 DUP5 DUP3 DUP6 ADD PUSH2 0x2D84 JUMP JUMPDEST PUSH1 0x80 DUP4 ADD MSTORE POP PUSH1 0xA0 PUSH2 0x2F08 DUP5 DUP3 DUP6 ADD PUSH2 0x2DD8 JUMP JUMPDEST PUSH1 0xA0 DUP4 ADD MSTORE POP PUSH1 0xC0 DUP3 ADD CALLDATALOAD PUSH8 0xFFFFFFFFFFFFFFFF DUP2 GT ISZERO PUSH2 0x2F28 JUMPI PUSH1 0x0 DUP1 REVERT JUMPDEST PUSH2 0x2F34 DUP5 DUP3 DUP6 ADD PUSH2 0x2E4C JUMP JUMPDEST PUSH1 0xC0 DUP4 ADD MSTORE POP PUSH1 0xE0 DUP3 ADD CALLDATALOAD PUSH8 0xFFFFFFFFFFFFFFFF DUP2 GT ISZERO PUSH2 0x2F54 JUMPI PUSH1 0x0 DUP1 REVERT JUMPDEST PUSH2 0x2F60 DUP5 DUP3 DUP6 ADD PUSH2 0x2E4C JUMP JUMPDEST PUSH1 0xE0 DUP4 ADD MSTORE POP PUSH2 0x100 DUP3 ADD CALLDATALOAD PUSH8 0xFFFFFFFFFFFFFFFF DUP2 GT ISZERO PUSH2 0x2F81 JUMPI PUSH1 0x0 DUP1 REVERT JUMPDEST PUSH2 0x2F8D DUP5 DUP3 DUP6 ADD PUSH2 0x2D30 JUMP JUMPDEST PUSH2 0x100 DUP4 ADD MSTORE POP SWAP3 SWAP2 POP POP JUMP JUMPDEST PUSH1 0x0 DUP2 CALLDATALOAD SWAP1 POP PUSH2 0x2FA9 DUP2 PUSH2 0x3EC3 JUMP JUMPDEST SWAP3 SWAP2 POP POP JUMP JUMPDEST PUSH1 0x0 DUP2 MLOAD SWAP1 POP PUSH2 0x2FBE DUP2 PUSH2 0x3EC3 JUMP JUMPDEST SWAP3 SWAP2 POP POP JUMP JUMPDEST PUSH1 0x0 PUSH1 0x20 DUP3 DUP5 SUB SLT ISZERO PUSH2 0x2FD6 JUMPI PUSH1 0x0 DUP1 REVERT JUMPDEST PUSH1 0x0 PUSH2 0x2FE4 DUP5 DUP3 DUP6 ADD PUSH2 0x2D99 JUMP JUMPDEST SWAP2 POP POP SWAP3 SWAP2 POP POP JUMP JUMPDEST PUSH1 0x0 DUP1 PUSH1 0x0 PUSH1 0x60 DUP5 DUP7 SUB SLT ISZERO PUSH2 0x3002 JUMPI PUSH1 0x0 DUP1 REVERT JUMPDEST PUSH1 0x0 PUSH2 0x3010 DUP7 DUP3 DUP8 ADD PUSH2 0x2DED JUMP JUMPDEST SWAP4 POP POP PUSH1 0x20 DUP5 ADD CALLDATALOAD PUSH8 0xFFFFFFFFFFFFFFFF DUP2 GT ISZERO PUSH2 0x302D JUMPI PUSH1 0x0 DUP1 REVERT JUMPDEST PUSH2 0x3039 DUP7 DUP3 DUP8 ADD PUSH2 0x2D30 JUMP JUMPDEST SWAP3 POP POP PUSH1 0x40 PUSH2 0x304A DUP7 DUP3 DUP8 ADD PUSH2 0x2DD8 JUMP JUMPDEST SWAP2 POP POP SWAP3 POP SWAP3 POP SWAP3 JUMP JUMPDEST PUSH1 0x0 DUP1 PUSH1 0x20 DUP4 DUP6 SUB SLT ISZERO PUSH2 0x3067 JUMPI PUSH1 0x0 DUP1 REVERT JUMPDEST PUSH1 0x0 DUP4 ADD CALLDATALOAD PUSH8 0xFFFFFFFFFFFFFFFF DUP2 GT ISZERO PUSH2 0x3081 JUMPI PUSH1 0x0 DUP1 REVERT JUMPDEST PUSH2 0x308D DUP6 DUP3 DUP7 ADD PUSH2 0x2E02 JUMP JUMPDEST SWAP3 POP SWAP3 POP POP SWAP3 POP SWAP3 SWAP1 POP JUMP JUMPDEST PUSH1 0x0 DUP1 PUSH1 0x0 PUSH1 0x40 DUP5 DUP7 SUB SLT ISZERO PUSH2 0x30AE JUMPI PUSH1 0x0 DUP1 REVERT JUMPDEST PUSH1 0x0 DUP5 ADD CALLDATALOAD PUSH8 0xFFFFFFFFFFFFFFFF DUP2 GT ISZERO PUSH2 0x30C8 JUMPI PUSH1 0x0 DUP1 REVERT JUMPDEST PUSH2 0x30D4 DUP7 DUP3 DUP8 ADD PUSH2 0x2E02 JUMP JUMPDEST SWAP4 POP SWAP4 POP POP PUSH1 0x20 PUSH2 0x30E7 DUP7 DUP3 DUP8 ADD PUSH2 0x2DED JUMP JUMPDEST SWAP2 POP POP SWAP3 POP SWAP3 POP SWAP3 JUMP JUMPDEST PUSH1 0x0 DUP1 PUSH1 0x0 DUP1 PUSH1 0x40 DUP6 DUP8 SUB SLT ISZERO PUSH2 0x3107 JUMPI PUSH1 0x0 DUP1 REVERT JUMPDEST PUSH1 0x0 DUP6 ADD CALLDATALOAD PUSH8 0xFFFFFFFFFFFFFFFF DUP2 GT ISZERO PUSH2 0x3121 JUMPI PUSH1 0x0 DUP1 REVERT JUMPDEST PUSH2 0x312D DUP8 DUP3 DUP9 ADD PUSH2 0x2E02 JUMP JUMPDEST SWAP5 POP SWAP5 POP POP PUSH1 0x20 DUP6 ADD CALLDATALOAD PUSH8 0xFFFFFFFFFFFFFFFF DUP2 GT ISZERO PUSH2 0x314C JUMPI PUSH1 0x0 DUP1 REVERT JUMPDEST PUSH2 0x3158 DUP8 DUP3 DUP9 ADD PUSH2 0x2E02 JUMP JUMPDEST SWAP3 POP SWAP3 POP POP SWAP3 SWAP6 SWAP2 SWAP5 POP SWAP3 POP JUMP JUMPDEST PUSH1 0x0 PUSH1 0x20 DUP3 DUP5 SUB SLT ISZERO PUSH2 0x3178 JUMPI PUSH1 0x0 DUP1 REVERT JUMPDEST PUSH1 0x0 DUP3 ADD CALLDATALOAD PUSH8 0xFFFFFFFFFFFFFFFF DUP2 GT ISZERO PUSH2 0x3192 JUMPI PUSH1 0x0 DUP1 REVERT JUMPDEST PUSH2 0x319E DUP5 DUP3 DUP6 ADD PUSH2 0x2E4C JUMP JUMPDEST SWAP2 POP POP SWAP3 SWAP2 POP POP JUMP JUMPDEST PUSH1 0x0 PUSH1 0x20 DUP3 DUP5 SUB SLT ISZERO PUSH2 0x31B9 JUMPI PUSH1 0x0 DUP1 REVERT JUMPDEST PUSH1 0x0 DUP3 ADD CALLDATALOAD PUSH8 0xFFFFFFFFFFFFFFFF DUP2 GT ISZERO PUSH2 0x31D3 JUMPI PUSH1 0x0 DUP1 REVERT JUMPDEST PUSH2 0x31DF DUP5 DUP3 DUP6 ADD PUSH2 0x2E76 JUMP JUMPDEST SWAP2 POP POP SWAP3 SWAP2 POP POP JUMP JUMPDEST PUSH1 0x0 PUSH1 0x20 DUP3 DUP5 SUB SLT ISZERO PUSH2 0x31FA JUMPI PUSH1 0x0 DUP1 REVERT JUMPDEST PUSH1 0x0 PUSH2 0x3208 DUP5 DUP3 DUP6 ADD PUSH2 0x2F9A JUMP JUMPDEST SWAP2 POP POP SWAP3 SWAP2 POP POP JUMP JUMPDEST PUSH1 0x0 PUSH1 0x20 DUP3 DUP5 SUB SLT ISZERO PUSH2 0x3223 JUMPI PUSH1 0x0 DUP1 REVERT JUMPDEST PUSH1 0x0 PUSH2 0x3231 DUP5 DUP3 DUP6 ADD PUSH2 0x2FAF JUMP JUMPDEST SWAP2 POP POP SWAP3 SWAP2 POP POP JUMP JUMPDEST PUSH1 0x0 DUP1 PUSH1 0x0 DUP1 PUSH1 0x0 DUP1 PUSH1 0xC0 DUP8 DUP10 SUB SLT ISZERO PUSH2 0x3253 JUMPI PUSH1 0x0 DUP1 REVERT JUMPDEST PUSH1 0x0 PUSH2 0x3261 DUP10 DUP3 DUP11 ADD PUSH2 0x2F9A JUMP JUMPDEST SWAP7 POP POP PUSH1 0x20 DUP8 ADD CALLDATALOAD PUSH8 0xFFFFFFFFFFFFFFFF DUP2 GT ISZERO PUSH2 0x327E JUMPI PUSH1 0x0 DUP1 REVERT JUMPDEST PUSH2 0x328A DUP10 DUP3 DUP11 ADD PUSH2 0x2E4C JUMP JUMPDEST SWAP6 POP POP PUSH1 0x40 PUSH2 0x329B DUP10 DUP3 DUP11 ADD PUSH2 0x2D1B JUMP JUMPDEST SWAP5 POP POP PUSH1 0x60 PUSH2 0x32AC DUP10 DUP3 DUP11 ADD PUSH2 0x2DC3 JUMP JUMPDEST SWAP4 POP POP PUSH1 0x80 DUP8 ADD CALLDATALOAD PUSH8 0xFFFFFFFFFFFFFFFF DUP2 GT ISZERO PUSH2 0x32C9 JUMPI PUSH1 0x0 DUP1 REVERT JUMPDEST PUSH2 0x32D5 DUP10 DUP3 DUP11 ADD PUSH2 0x2D5A JUMP JUMPDEST SWAP3 POP POP PUSH1 0xA0 DUP8 ADD CALLDATALOAD PUSH8 0xFFFFFFFFFFFFFFFF DUP2 GT ISZERO PUSH2 0x32F2 JUMPI PUSH1 0x0 DUP1 REVERT JUMPDEST PUSH2 0x32FE DUP10 DUP3 DUP11 ADD PUSH2 0x2D5A JUMP JUMPDEST SWAP2 POP POP SWAP3 SWAP6 POP SWAP3 SWAP6 POP SWAP3 SWAP6 JUMP JUMPDEST PUSH1 0x0 DUP1 PUSH1 0x0 DUP1 PUSH1 0x0 DUP1 PUSH1 0x0 PUSH1 0xE0 DUP9 DUP11 SUB SLT ISZERO PUSH2 0x3326 JUMPI PUSH1 0x0 DUP1 REVERT JUMPDEST PUSH1 0x0 PUSH2 0x3334 DUP11 DUP3 DUP12 ADD PUSH2 0x2F9A JUMP JUMPDEST SWAP8 POP POP PUSH1 0x20 DUP9 ADD CALLDATALOAD PUSH8 0xFFFFFFFFFFFFFFFF DUP2 GT ISZERO PUSH2 0x3351 JUMPI PUSH1 0x0 DUP1 REVERT JUMPDEST PUSH2 0x335D DUP11 DUP3 DUP12 ADD PUSH2 0x2E4C JUMP JUMPDEST SWAP7 POP POP PUSH1 0x40 PUSH2 0x336E DUP11 DUP3 DUP12 ADD PUSH2 0x2D1B JUMP JUMPDEST SWAP6 POP POP PUSH1 0x60 PUSH2 0x337F DUP11 DUP3 DUP12 ADD PUSH2 0x2DC3 JUMP JUMPDEST SWAP5 POP POP PUSH1 0x80 DUP9 ADD CALLDATALOAD PUSH8 0xFFFFFFFFFFFFFFFF DUP2 GT ISZERO PUSH2 0x339C JUMPI PUSH1 0x0 DUP1 REVERT JUMPDEST PUSH2 0x33A8 DUP11 DUP3 DUP12 ADD PUSH2 0x2D5A JUMP JUMPDEST SWAP4 POP POP PUSH1 0xA0 DUP9 ADD CALLDATALOAD PUSH8 0xFFFFFFFFFFFFFFFF DUP2 GT ISZERO PUSH2 0x33C5 JUMPI PUSH1 0x0 DUP1 REVERT JUMPDEST PUSH2 0x33D1 DUP11 DUP3 DUP12 ADD PUSH2 0x2D5A JUMP JUMPDEST SWAP3 POP POP PUSH1 0xC0 DUP9 ADD CALLDATALOAD PUSH8 0xFFFFFFFFFFFFFFFF DUP2 GT ISZERO PUSH2 0x33EE JUMPI PUSH1 0x0 DUP1 REVERT JUMPDEST PUSH2 0x33FA DUP11 DUP3 DUP12 ADD PUSH2 0x2E76 JUMP JUMPDEST SWAP2 POP POP SWAP3 SWAP6 SWAP9 SWAP2 SWAP5 SWAP8 POP SWAP3 SWAP6 POP JUMP JUMPDEST PUSH1 0x0 PUSH2 0x3415 DUP4 DUP4 PUSH2 0x35D8 JUMP JUMPDEST PUSH1 0x20 DUP4 ADD SWAP1 POP SWAP3 SWAP2 POP POP JUMP JUMPDEST PUSH1 0x0 PUSH2 0x342D DUP4 DUP4 PUSH2 0x360C JUMP JUMPDEST SWAP1 POP SWAP3 SWAP2 POP POP JUMP JUMPDEST PUSH1 0x0 PUSH2 0x3441 DUP4 DUP4 PUSH2 0x37A8 JUMP JUMPDEST PUSH1 0x20 DUP4 ADD SWAP1 POP SWAP3 SWAP2 POP POP JUMP JUMPDEST PUSH2 0x3456 DUP2 PUSH2 0x3C00 JUMP JUMPDEST DUP3 MSTORE POP POP JUMP JUMPDEST PUSH1 0x0 PUSH2 0x3467 DUP3 PUSH2 0x3AE6 JUMP JUMPDEST PUSH2 0x3471 DUP2 DUP6 PUSH2 0x3B39 JUMP JUMPDEST SWAP4 POP PUSH2 0x347C DUP4 PUSH2 0x3AA1 JUMP JUMPDEST DUP1 PUSH1 0x0 JUMPDEST DUP4 DUP2 LT ISZERO PUSH2 0x34AD JUMPI DUP2 MLOAD PUSH2 0x3494 DUP9 DUP3 PUSH2 0x3409 JUMP JUMPDEST SWAP8 POP PUSH2 0x349F DUP4 PUSH2 0x3B12 JUMP JUMPDEST SWAP3 POP POP PUSH1 0x1 DUP2 ADD SWAP1 POP PUSH2 0x3480 JUMP JUMPDEST POP DUP6 SWAP4 POP POP POP POP SWAP3 SWAP2 POP POP JUMP JUMPDEST PUSH1 0x0 PUSH2 0x34C5 DUP3 PUSH2 0x3AF1 JUMP JUMPDEST PUSH2 0x34CF DUP2 DUP6 PUSH2 0x3B4A JUMP JUMPDEST SWAP4 POP DUP4 PUSH1 0x20 DUP3 MUL DUP6 ADD PUSH2 0x34E1 DUP6 PUSH2 0x3AB1 JUMP JUMPDEST DUP1 PUSH1 0x0 JUMPDEST DUP6 DUP2 LT ISZERO PUSH2 0x351D JUMPI DUP5 DUP5 SUB DUP10 MSTORE DUP2 MLOAD PUSH2 0x34FE DUP6 DUP3 PUSH2 0x3421 JUMP JUMPDEST SWAP5 POP PUSH2 0x3509 DUP4 PUSH2 0x3B1F JUMP JUMPDEST SWAP3 POP PUSH1 0x20 DUP11 ADD SWAP10 POP POP PUSH1 0x1 DUP2 ADD SWAP1 POP PUSH2 0x34E5 JUMP JUMPDEST POP DUP3 SWAP8 POP DUP8 SWAP6 POP POP POP POP POP POP SWAP3 SWAP2 POP POP JUMP JUMPDEST PUSH1 0x0 PUSH2 0x353A DUP3 PUSH2 0x3AFC JUMP JUMPDEST PUSH2 0x3544 DUP2 DUP6 PUSH2 0x3B5B JUMP JUMPDEST SWAP4 POP PUSH2 0x354F DUP4 PUSH2 0x3AC1 JUMP JUMPDEST DUP1 PUSH1 0x0 JUMPDEST DUP4 DUP2 LT ISZERO PUSH2 0x3580 JUMPI DUP2 MLOAD PUSH2 0x3567 DUP9 DUP3 PUSH2 0x3435 JUMP JUMPDEST SWAP8 POP PUSH2 0x3572 DUP4 PUSH2 0x3B2C JUMP JUMPDEST SWAP3 POP POP PUSH1 0x1 DUP2 ADD SWAP1 POP PUSH2 0x3553 JUMP JUMPDEST POP DUP6 SWAP4 POP POP POP POP SWAP3 SWAP2 POP POP JUMP JUMPDEST PUSH2 0x3596 DUP2 PUSH2 0x3C12 JUMP JUMPDEST DUP3 MSTORE POP POP JUMP JUMPDEST PUSH2 0x35A5 DUP2 PUSH2 0x3C78 JUMP JUMPDEST DUP3 MSTORE POP POP JUMP JUMPDEST PUSH2 0x35B4 DUP2 PUSH2 0x3C8A JUMP JUMPDEST DUP3 MSTORE POP POP JUMP JUMPDEST PUSH2 0x35C3 DUP2 PUSH2 0x3C44 JUMP JUMPDEST DUP3 MSTORE POP POP JUMP JUMPDEST PUSH2 0x35D2 DUP2 PUSH2 0x3C44 JUMP JUMPDEST DUP3 MSTORE POP POP JUMP JUMPDEST PUSH2 0x35E1 DUP2 PUSH2 0x3C44 JUMP JUMPDEST DUP3 MSTORE POP POP JUMP JUMPDEST PUSH1 0x0 PUSH2 0x35F3 DUP4 DUP6 PUSH2 0x3B9F JUMP JUMPDEST SWAP4 POP PUSH2 0x3600 DUP4 DUP6 DUP5 PUSH2 0x3C9C JUMP JUMPDEST DUP3 DUP5 ADD SWAP1 POP SWAP4 SWAP3 POP POP POP JUMP JUMPDEST PUSH1 0x0 PUSH2 0x3617 DUP3 PUSH2 0x3B07 JUMP JUMPDEST PUSH2 0x3621 DUP2 DUP6 PUSH2 0x3B6C JUMP JUMPDEST SWAP4 POP PUSH2 0x3631 DUP2 DUP6 PUSH1 0x20 DUP7 ADD PUSH2 0x3CAB JUMP JUMPDEST PUSH2 0x363A DUP2 PUSH2 0x3E15 JUMP JUMPDEST DUP5 ADD SWAP2 POP POP SWAP3 SWAP2 POP POP JUMP JUMPDEST PUSH1 0x0 PUSH2 0x3650 DUP3 PUSH2 0x3B07 JUMP JUMPDEST PUSH2 0x365A DUP2 DUP6 PUSH2 0x3B7D JUMP JUMPDEST SWAP4 POP PUSH2 0x366A DUP2 DUP6 PUSH1 0x20 DUP7 ADD PUSH2 0x3CAB JUMP JUMPDEST PUSH2 0x3673 DUP2 PUSH2 0x3E15 JUMP JUMPDEST DUP5 ADD SWAP2 POP POP SWAP3 SWAP2 POP POP JUMP JUMPDEST PUSH1 0x0 PUSH2 0x3689 DUP3 PUSH2 0x3B07 JUMP JUMPDEST PUSH2 0x3693 DUP2 DUP6 PUSH2 0x3B8E JUMP JUMPDEST SWAP4 POP PUSH2 0x36A3 DUP2 DUP6 PUSH1 0x20 DUP7 ADD PUSH2 0x3CAB JUMP JUMPDEST PUSH2 0x36AC DUP2 PUSH2 0x3E15 JUMP JUMPDEST DUP5 ADD SWAP2 POP POP SWAP3 SWAP2 POP POP JUMP JUMPDEST PUSH1 0x0 PUSH2 0x36C2 DUP3 PUSH2 0x3B07 JUMP JUMPDEST PUSH2 0x36CC DUP2 DUP6 PUSH2 0x3B9F JUMP JUMPDEST SWAP4 POP PUSH2 0x36DC DUP2 DUP6 PUSH1 0x20 DUP7 ADD PUSH2 0x3CAB JUMP JUMPDEST DUP1 DUP5 ADD SWAP2 POP POP SWAP3 SWAP2 POP POP JUMP JUMPDEST PUSH1 0x0 DUP2 SLOAD PUSH2 0x36F5 DUP2 PUSH2 0x3CDE JUMP JUMPDEST PUSH2 0x36FF DUP2 DUP7 PUSH2 0x3B7D JUMP JUMPDEST SWAP5 POP PUSH1 0x1 DUP3 AND PUSH1 0x0 DUP2 EQ PUSH2 0x371A JUMPI PUSH1 0x1 DUP2 EQ PUSH2 0x372C JUMPI PUSH2 0x375F JUMP JUMPDEST PUSH1 0xFF NOT DUP4 AND DUP7 MSTORE PUSH1 0x20 DUP7 ADD SWAP4 POP PUSH2 0x375F JUMP JUMPDEST PUSH2 0x3735 DUP6 PUSH2 0x3AD1 JUMP JUMPDEST PUSH1 0x0 JUMPDEST DUP4 DUP2 LT ISZERO PUSH2 0x3757 JUMPI DUP2 SLOAD DUP2 DUP10 ADD MSTORE PUSH1 0x1 DUP3 ADD SWAP2 POP PUSH1 0x20 DUP2 ADD SWAP1 POP PUSH2 0x3738 JUMP JUMPDEST DUP1 DUP9 ADD SWAP6 POP POP POP JUMPDEST POP POP POP SWAP3 SWAP2 POP POP JUMP JUMPDEST PUSH1 0x0 PUSH2 0x3775 PUSH1 0x20 DUP4 PUSH2 0x3B7D JUMP JUMPDEST SWAP2 POP PUSH32 0x50726F63657373205661726961626C65206973206E6F7420636F72726563742E PUSH1 0x0 DUP4 ADD MSTORE PUSH1 0x20 DUP3 ADD SWAP1 POP SWAP2 SWAP1 POP JUMP JUMPDEST PUSH2 0x37B1 DUP2 PUSH2 0x3C6E JUMP JUMPDEST DUP3 MSTORE POP POP JUMP JUMPDEST PUSH2 0x37C0 DUP2 PUSH2 0x3C6E JUMP JUMPDEST DUP3 MSTORE POP POP JUMP JUMPDEST PUSH1 0x0 PUSH2 0x37D3 DUP3 DUP5 DUP7 PUSH2 0x35E7 JUMP JUMPDEST SWAP2 POP DUP2 SWAP1 POP SWAP4 SWAP3 POP POP POP JUMP JUMPDEST PUSH1 0x0 PUSH2 0x37EB DUP3 DUP5 PUSH2 0x36B7 JUMP JUMPDEST SWAP2 POP DUP2 SWAP1 POP SWAP3 SWAP2 POP POP JUMP JUMPDEST PUSH1 0x0 PUSH1 0x20 DUP3 ADD SWAP1 POP DUP2 DUP2 SUB PUSH1 0x0 DUP4 ADD MSTORE PUSH2 0x3810 DUP2 DUP5 PUSH2 0x34BA JUMP JUMPDEST SWAP1 POP SWAP3 SWAP2 POP POP JUMP JUMPDEST PUSH1 0x0 PUSH1 0x20 DUP3 ADD SWAP1 POP DUP2 DUP2 SUB PUSH1 0x0 DUP4 ADD MSTORE PUSH2 0x3832 DUP2 DUP5 PUSH2 0x352F JUMP JUMPDEST SWAP1 POP SWAP3 SWAP2 POP POP JUMP JUMPDEST PUSH1 0x0 PUSH1 0x20 DUP3 ADD SWAP1 POP PUSH2 0x384F PUSH1 0x0 DUP4 ADD DUP5 PUSH2 0x358D JUMP JUMPDEST SWAP3 SWAP2 POP POP JUMP JUMPDEST PUSH1 0x0 PUSH1 0xC0 DUP3 ADD SWAP1 POP PUSH2 0x386A PUSH1 0x0 DUP4 ADD DUP10 PUSH2 0x358D JUMP JUMPDEST DUP2 DUP2 SUB PUSH1 0x20 DUP4 ADD MSTORE PUSH2 0x387C DUP2 DUP9 PUSH2 0x3645 JUMP JUMPDEST SWAP1 POP PUSH2 0x388B PUSH1 0x40 DUP4 ADD DUP8 PUSH2 0x344D JUMP JUMPDEST PUSH2 0x3898 PUSH1 0x60 DUP4 ADD DUP7 PUSH2 0x359C JUMP JUMPDEST DUP2 DUP2 SUB PUSH1 0x80 DUP4 ADD MSTORE PUSH2 0x38AA DUP2 DUP6 PUSH2 0x352F JUMP JUMPDEST SWAP1 POP DUP2 DUP2 SUB PUSH1 0xA0 DUP4 ADD MSTORE PUSH2 0x38BE DUP2 DUP5 PUSH2 0x352F JUMP JUMPDEST SWAP1 POP SWAP8 SWAP7 POP POP POP POP POP POP POP JUMP JUMPDEST PUSH1 0x0 PUSH1 0x20 DUP3 ADD SWAP1 POP PUSH2 0x38E0 PUSH1 0x0 DUP4 ADD DUP5 PUSH2 0x35BA JUMP JUMPDEST SWAP3 SWAP2 POP POP JUMP JUMPDEST PUSH1 0x0 PUSH1 0x60 DUP3 ADD SWAP1 POP PUSH2 0x38FB PUSH1 0x0 DUP4 ADD DUP7 PUSH2 0x35C9 JUMP JUMPDEST DUP2 DUP2 SUB PUSH1 0x20 DUP4 ADD MSTORE PUSH2 0x390D DUP2 DUP6 PUSH2 0x345C JUMP JUMPDEST SWAP1 POP PUSH2 0x391C PUSH1 0x40 DUP4 ADD DUP5 PUSH2 0x35AB JUMP JUMPDEST SWAP5 SWAP4 POP POP POP POP JUMP JUMPDEST PUSH1 0x0 PUSH1 0x20 DUP3 ADD SWAP1 POP DUP2 DUP2 SUB PUSH1 0x0 DUP4 ADD MSTORE PUSH2 0x393E DUP2 DUP5 PUSH2 0x3645 JUMP JUMPDEST SWAP1 POP SWAP3 SWAP2 POP POP JUMP JUMPDEST PUSH1 0x0 PUSH1 0x60 DUP3 ADD SWAP1 POP DUP2 DUP2 SUB PUSH1 0x0 DUP4 ADD MSTORE PUSH2 0x3960 DUP2 DUP7 PUSH2 0x367E JUMP JUMPDEST SWAP1 POP DUP2 DUP2 SUB PUSH1 0x20 DUP4 ADD MSTORE PUSH2 0x3974 DUP2 DUP6 PUSH2 0x367E JUMP JUMPDEST SWAP1 POP PUSH2 0x3983 PUSH1 0x40 DUP4 ADD DUP5 PUSH2 0x35AB JUMP JUMPDEST SWAP5 SWAP4 POP POP POP POP JUMP JUMPDEST PUSH1 0x0 PUSH1 0x20 DUP3 ADD SWAP1 POP DUP2 DUP2 SUB PUSH1 0x0 DUP4 ADD MSTORE PUSH2 0x39A5 DUP2 DUP5 PUSH2 0x36E8 JUMP JUMPDEST SWAP1 POP SWAP3 SWAP2 POP POP JUMP JUMPDEST PUSH1 0x0 PUSH1 0x20 DUP3 ADD SWAP1 POP DUP2 DUP2 SUB PUSH1 0x0 DUP4 ADD MSTORE PUSH2 0x39C6 DUP2 PUSH2 0x3768 JUMP JUMPDEST SWAP1 POP SWAP2 SWAP1 POP JUMP JUMPDEST PUSH1 0x0 PUSH1 0x20 DUP3 ADD SWAP1 POP PUSH2 0x39E2 PUSH1 0x0 DUP4 ADD DUP5 PUSH2 0x37B7 JUMP JUMPDEST SWAP3 SWAP2 POP POP JUMP JUMPDEST PUSH1 0x0 PUSH1 0x40 MLOAD SWAP1 POP DUP2 DUP2 ADD DUP2 DUP2 LT PUSH8 0xFFFFFFFFFFFFFFFF DUP3 GT OR ISZERO PUSH2 0x3A0F JUMPI PUSH2 0x3A0E PUSH2 0x3DE6 JUMP JUMPDEST JUMPDEST DUP1 PUSH1 0x40 MSTORE POP SWAP2 SWAP1 POP JUMP JUMPDEST PUSH1 0x0 PUSH8 0xFFFFFFFFFFFFFFFF DUP3 GT ISZERO PUSH2 0x3A34 JUMPI PUSH2 0x3A33 PUSH2 0x3DE6 JUMP JUMPDEST JUMPDEST PUSH1 0x20 DUP3 MUL SWAP1 POP PUSH1 0x20 DUP2 ADD SWAP1 POP SWAP2 SWAP1 POP JUMP JUMPDEST PUSH1 0x0 PUSH8 0xFFFFFFFFFFFFFFFF DUP3 GT ISZERO PUSH2 0x3A60 JUMPI PUSH2 0x3A5F PUSH2 0x3DE6 JUMP JUMPDEST JUMPDEST PUSH1 0x20 DUP3 MUL SWAP1 POP PUSH1 0x20 DUP2 ADD SWAP1 POP SWAP2 SWAP1 POP JUMP JUMPDEST PUSH1 0x0 PUSH8 0xFFFFFFFFFFFFFFFF DUP3 GT ISZERO PUSH2 0x3A8C JUMPI PUSH2 0x3A8B PUSH2 0x3DE6 JUMP JUMPDEST JUMPDEST PUSH1 0x1F NOT PUSH1 0x1F DUP4 ADD AND SWAP1 POP PUSH1 0x20 DUP2 ADD SWAP1 POP SWAP2 SWAP1 POP JUMP JUMPDEST PUSH1 0x0 DUP2 SWAP1 POP PUSH1 0x20 DUP3 ADD SWAP1 POP SWAP2 SWAP1 POP JUMP JUMPDEST PUSH1 0x0 DUP2 SWAP1 POP PUSH1 0x20 DUP3 ADD SWAP1 POP SWAP2 SWAP1 POP JUMP JUMPDEST PUSH1 0x0 DUP2 SWAP1 POP PUSH1 0x20 DUP3 ADD SWAP1 POP SWAP2 SWAP1 POP JUMP JUMPDEST PUSH1 0x0 DUP2 SWAP1 POP DUP2 PUSH1 0x0 MSTORE PUSH1 0x20 PUSH1 0x0 KECCAK256 SWAP1 POP SWAP2 SWAP1 POP JUMP JUMPDEST PUSH1 0x0 DUP2 MLOAD SWAP1 POP SWAP2 SWAP1 POP JUMP JUMPDEST PUSH1 0x0 DUP2 MLOAD SWAP1 POP SWAP2 SWAP1 POP JUMP JUMPDEST PUSH1 0x0 DUP2 MLOAD SWAP1 POP SWAP2 SWAP1 POP JUMP JUMPDEST PUSH1 0x0 DUP2 MLOAD SWAP1 POP SWAP2 SWAP1 POP JUMP JUMPDEST PUSH1 0x0 PUSH1 0x20 DUP3 ADD SWAP1 POP SWAP2 SWAP1 POP JUMP JUMPDEST PUSH1 0x0 PUSH1 0x20 DUP3 ADD SWAP1 POP SWAP2 SWAP1 POP JUMP JUMPDEST PUSH1 0x0 PUSH1 0x20 DUP3 ADD SWAP1 POP SWAP2 SWAP1 POP JUMP JUMPDEST PUSH1 0x0 DUP3 DUP3 MSTORE PUSH1 0x20 DUP3 ADD SWAP1 POP SWAP3 SWAP2 POP POP JUMP JUMPDEST PUSH1 0x0 DUP3 DUP3 MSTORE PUSH1 0x20 DUP3 ADD SWAP1 POP SWAP3 SWAP2 POP POP JUMP JUMPDEST PUSH1 0x0 DUP3 DUP3 MSTORE PUSH1 0x20 DUP3 ADD SWAP1 POP SWAP3 SWAP2 POP POP JUMP JUMPDEST PUSH1 0x0 DUP3 DUP3 MSTORE PUSH1 0x20 DUP3 ADD SWAP1 POP SWAP3 SWAP2 POP POP JUMP JUMPDEST PUSH1 0x0 DUP3 DUP3 MSTORE PUSH1 0x20 DUP3 ADD SWAP1 POP SWAP3 SWAP2 POP POP JUMP JUMPDEST PUSH1 0x0 DUP3 DUP3 MSTORE PUSH1 0x20 DUP3 ADD SWAP1 POP SWAP3 SWAP2 POP POP JUMP JUMPDEST PUSH1 0x0 DUP2 SWAP1 POP SWAP3 SWAP2 POP POP JUMP JUMPDEST PUSH1 0x0 PUSH2 0x3BB5 DUP3 PUSH2 0x3C6E JUMP JUMPDEST SWAP2 POP PUSH2 0x3BC0 DUP4 PUSH2 0x3C6E JUMP JUMPDEST SWAP3 POP DUP3 PUSH32 0xFFFFFFFFFFFFFFFFFFFFFFFFFFFFFFFFFFFFFFFFFFFFFFFFFFFFFFFFFFFFFFFF SUB DUP3 GT ISZERO PUSH2 0x3BF5 JUMPI PUSH2 0x3BF4 PUSH2 0x3D59 JUMP JUMPDEST JUMPDEST DUP3 DUP3 ADD SWAP1 POP SWAP3 SWAP2 POP POP JUMP JUMPDEST PUSH1 0x0 PUSH2 0x3C0B DUP3 PUSH2 0x3C4E JUMP JUMPDEST SWAP1 POP SWAP2 SWAP1 POP JUMP JUMPDEST PUSH1 0x0 DUP2 ISZERO ISZERO SWAP1 POP SWAP2 SWAP1 POP JUMP JUMPDEST PUSH1 0x0 DUP2 SWAP1 POP PUSH2 0x3C2C DUP3 PUSH2 0x3E26 JUMP JUMPDEST SWAP2 SWAP1 POP JUMP JUMPDEST PUSH1 0x0 DUP2 SWAP1 POP PUSH2 0x3C3F DUP3 PUSH2 0x3E3A JUMP JUMPDEST SWAP2 SWAP1 POP JUMP JUMPDEST PUSH1 0x0 DUP2 SWAP1 POP SWAP2 SWAP1 POP JUMP JUMPDEST PUSH1 0x0 PUSH20 0xFFFFFFFFFFFFFFFFFFFFFFFFFFFFFFFFFFFFFFFF DUP3 AND SWAP1 POP SWAP2 SWAP1 POP JUMP JUMPDEST PUSH1 0x0 DUP2 SWAP1 POP SWAP2 SWAP1 POP JUMP JUMPDEST PUSH1 0x0 PUSH2 0x3C83 DUP3 PUSH2 0x3C1E JUMP JUMPDEST SWAP1 POP SWAP2 SWAP1 POP JUMP JUMPDEST PUSH1 0x0 PUSH2 0x3C95 DUP3 PUSH2 0x3C31 JUMP JUMPDEST SWAP1 POP SWAP2 SWAP1 POP JUMP JUMPDEST DUP3 DUP2 DUP4 CALLDATACOPY PUSH1 0x0 DUP4 DUP4 ADD MSTORE POP POP POP JUMP JUMPDEST PUSH1 0x0 JUMPDEST DUP4 DUP2 LT ISZERO PUSH2 0x3CC9 JUMPI DUP1 DUP3 ADD MLOAD DUP2 DUP5 ADD MSTORE PUSH1 0x20 DUP2 ADD SWAP1 POP PUSH2 0x3CAE JUMP JUMPDEST DUP4 DUP2 GT ISZERO PUSH2 0x3CD8 JUMPI PUSH1 0x0 DUP5 DUP5 ADD MSTORE JUMPDEST POP POP POP POP JUMP JUMPDEST PUSH1 0x0 PUSH1 0x2 DUP3 DIV SWAP1 POP PUSH1 0x1 DUP3 AND DUP1 PUSH2 0x3CF6 JUMPI PUSH1 0x7F DUP3 AND SWAP2 POP JUMPDEST PUSH1 0x20 DUP3 LT DUP2 EQ ISZERO PUSH2 0x3D0A JUMPI PUSH2 0x3D09 PUSH2 0x3DB7 JUMP JUMPDEST JUMPDEST POP SWAP2 SWAP1 POP JUMP JUMPDEST PUSH1 0x0 PUSH2 0x3D1B DUP3 PUSH2 0x3C6E JUMP JUMPDEST SWAP2 POP PUSH32 0xFFFFFFFFFFFFFFFFFFFFFFFFFFFFFFFFFFFFFFFFFFFFFFFFFFFFFFFFFFFFFFFF DUP3 EQ ISZERO PUSH2 0x3D4E JUMPI PUSH2 0x3D4D PUSH2 0x3D59 JUMP JUMPDEST JUMPDEST PUSH1 0x1 DUP3 ADD SWAP1 POP SWAP2 SWAP1 POP JUMP JUMPDEST PUSH32 0x4E487B7100000000000000000000000000000000000000000000000000000000 PUSH1 0x0 MSTORE PUSH1 0x11 PUSH1 0x4 MSTORE PUSH1 0x24 PUSH1 0x0 REVERT JUMPDEST PUSH32 0x4E487B7100000000000000000000000000000000000000000000000000000000 PUSH1 0x0 MSTORE PUSH1 0x21 PUSH1 0x4 MSTORE PUSH1 0x24 PUSH1 0x0 REVERT JUMPDEST PUSH32 0x4E487B7100000000000000000000000000000000000000000000000000000000 PUSH1 0x0 MSTORE PUSH1 0x22 PUSH1 0x4 MSTORE PUSH1 0x24 PUSH1 0x0 REVERT JUMPDEST PUSH32 0x4E487B7100000000000000000000000000000000000000000000000000000000 PUSH1 0x0 MSTORE PUSH1 0x41 PUSH1 0x4 MSTORE PUSH1 0x24 PUSH1 0x0 REVERT JUMPDEST PUSH1 0x0 PUSH1 0x1F NOT PUSH1 0x1F DUP4 ADD AND SWAP1 POP SWAP2 SWAP1 POP JUMP JUMPDEST PUSH1 0x4 DUP2 LT PUSH2 0x3E37 JUMPI PUSH2 0x3E36 PUSH2 0x3D88 JUMP JUMPDEST JUMPDEST POP JUMP JUMPDEST PUSH1 0x7 DUP2 LT PUSH2 0x3E4B JUMPI PUSH2 0x3E4A PUSH2 0x3D88 JUMP JUMPDEST JUMPDEST POP JUMP JUMPDEST PUSH2 0x3E57 DUP2 PUSH2 0x3C00 JUMP JUMPDEST DUP2 EQ PUSH2 0x3E62 JUMPI PUSH1 0x0 DUP1 REVERT JUMPDEST POP JUMP JUMPDEST PUSH2 0x3E6E DUP2 PUSH2 0x3C12 JUMP JUMPDEST DUP2 EQ PUSH2 0x3E79 JUMPI PUSH1 0x0 DUP1 REVERT JUMPDEST POP JUMP JUMPDEST PUSH1 0x3 DUP2 LT PUSH2 0x3E89 JUMPI PUSH1 0x0 DUP1 REVERT JUMPDEST POP JUMP JUMPDEST PUSH1 0x4 DUP2 LT PUSH2 0x3E99 JUMPI PUSH1 0x0 DUP1 REVERT JUMPDEST POP JUMP JUMPDEST PUSH1 0x7 DUP2 LT PUSH2 0x3EA9 JUMPI PUSH1 0x0 DUP1 REVERT JUMPDEST POP JUMP JUMPDEST PUSH2 0x3EB5 DUP2 PUSH2 0x3C44 JUMP JUMPDEST DUP2 EQ PUSH2 0x3EC0 JUMPI PUSH1 0x0 DUP1 REVERT JUMPDEST POP JUMP JUMPDEST PUSH2 0x3ECC DUP2 PUSH2 0x3C6E JUMP JUMPDEST DUP2 EQ PUSH2 0x3ED7 JUMPI PUSH1 0x0 DUP1 REVERT JUMPDEST POP JUMP INVALID LOG2 PUSH5 0x6970667358 0x22 SLT KECCAK256 0xBE DUP14 SWAP8 0xA5 OR 0x26 DUP10 0x2F ADDRESS 0xA9 0xEA 0xBC EXTCODESIZE 0xB6 0xAC PUSH2 0x1E8C PUSH8 0x438540DE99787BC5 0xBF 0xEB EXTCODESIZE 0xA5 PUSH27 0x64736F6C6343000800003300000000000000000000000000000000 "},"gasEstimates":{"creation":{"codeDepositCost":"3228800","executionCost":"3579","totalCost":"3232379"},"external":{"completing(uint256)":"infinite","createTask(uint256,string,address,uint8,uint256[],uint256[])":"infinite","createTaskWithDecision(uint256,string,address,uint8,uint256[],uint256[],(uint256,uint8,uint8,bool,bool,uint8,string,string,int256[]))":"infinite","debugStringeventLog(uint256)":"infinite","decisionTest()":"infinite","enabled(uint256)":"1585","evaluateDecision((uint256,uint8,uint8,bool,bool,uint8,string,string,int256[]))":"infinite","evaluateTest(int256,int256[],uint8)":"infinite","getDebugStringeventLog()":"infinite","getIntProcessVariableValue(string)":"infinite","getLog()":"infinite","getTaskById(uint256)":"infinite","getTaskDecisionEndBoss(uint256)":"infinite","integer_processVariables(string)":"infinite","isTaskCompletedById(uint256)":"1689","string_processVariables(string)":"infinite","theRealEventLog(uint256)":"infinite","updateIntProcessVariable(string,int256)":"infinite","updateStringProcessVariable(string,string)":"infinite"}},"methodIdentifiers":{"completing(uint256)":"993c0410","createTask(uint256,string,address,uint8,uint256[],uint256[])":"307ed4be","createTaskWithDecision(uint256,string,address,uint8,uint256[],uint256[],(uint256,uint8,uint8,bool,bool,uint8,string,string,int256[]))":"c7b1ee06","debugStringeventLog(uint256)":"61ea18df","decisionTest()":"71c56f9b","enabled(uint256)":"76e5c0de","evaluateDecision((uint256,uint8,uint8,bool,bool,uint8,string,string,int256[]))":"06470433","evaluateTest(int256,int256[],uint8)":"a7c1eb90","getDebugStringeventLog()":"4d60f651","getIntProcessVariableValue(string)":"897a3e27","getLog()":"909e4ab6","getTaskById(uint256)":"976217cd","getTaskDecisionEndBoss(uint256)":"81d1cd2e","integer_processVariables(string)":"38624725","isTaskCompletedById(uint256)":"9849cee9","string_processVariables(string)":"b8c56cae","theRealEventLog(uint256)":"95794157","updateIntProcessVariable(string,int256)":"38b7b6f0","updateStringProcessVariable(string,string)":"fe9620c9"}},"storageLayout":{"storage":[{"astId":31,"contract":"BasicEnzian.sol:BasicEnzian","label":"tasks","offset":0,"slot":"0","type":"t_mapping(t_uint256,t_struct(Task)26_storage)"},{"astId":70,"contract":"BasicEnzian.sol:BasicEnzian","label":"integer_processVariables","offset":0,"slot":"1","type":"t_mapping(t_string_memory_ptr,t_int256)"},{"astId":74,"contract":"BasicEnzian.sol:BasicEnzian","label":"string_processVariables","offset":0,"slot":"2","type":"t_mapping(t_string_memory_ptr,t_string_storage)"},{"astId":78,"contract":"BasicEnzian.sol:BasicEnzian","label":"enabled","offset":0,"slot":"3","type":"t_mapping(t_uint256,t_bool)"},{"astId":81,"contract":"BasicEnzian.sol:BasicEnzian","label":"theRealEventLog","offset":0,"slot":"4","type":"t_array(t_uint256)dyn_storage"},{"astId":93,"contract":"BasicEnzian.sol:BasicEnzian","label":"debugStringeventLog","offset":0,"slot":"5","type":"t_array(t_string_storage)dyn_storage"}],"types":{"t_address":{"encoding":"inplace","label":"address","numberOfBytes":"20"},"t_array(t_int256)dyn_storage":{"base":"t_int256","encoding":"dynamic_array","label":"int256[]","numberOfBytes":"32"},"t_array(t_string_storage)dyn_storage":{"base":"t_string_storage","encoding":"dynamic_array","label":"string[]","numberOfBytes":"32"},"t_array(t_uint256)dyn_storage":{"base":"t_uint256","encoding":"dynamic_array","label":"uint256[]","numberOfBytes":"32"},"t_bool":{"encoding":"inplace","label":"bool","numberOfBytes":"1"},"t_enum(DecisionType)43":{"encoding":"inplace","label":"enum BasicEnzian.DecisionType","numberOfBytes":"1"},"t_enum(GatewayType)7":{"encoding":"inplace","label":"enum BasicEnzian.GatewayType","numberOfBytes":"1"},"t_enum(Operator)792":{"encoding":"inplace","label":"enum DecisionLibrary.Operator","numberOfBytes":"1"},"t_int256":{"encoding":"inplace","label":"int256","numberOfBytes":"32"},"t_mapping(t_string_memory_ptr,t_int256)":{"encoding":"mapping","key":"t_string_memory_ptr","label":"mapping(string => int256)","numberOfBytes":"32","value":"t_int256"},"t_mapping(t_string_memory_ptr,t_string_storage)":{"encoding":"mapping","key":"t_string_memory_ptr","label":"mapping(string => string)","numberOfBytes":"32","value":"t_string_storage"},"t_mapping(t_uint256,t_bool)":{"encoding":"mapping","key":"t_uint256","label":"mapping(uint256 => bool)","numberOfBytes":"32","value":"t_bool"},"t_mapping(t_uint256,t_struct(Task)26_storage)":{"encoding":"mapping","key":"t_uint256","label":"mapping(uint256 => struct BasicEnzian.Task)","numberOfBytes":"32","value":"t_struct(Task)26_storage"},"t_string_memory_ptr":{"encoding":"bytes","label":"string","numberOfBytes":"32"},"t_string_storage":{"encoding":"bytes","label":"string","numberOfBytes":"32"},"t_struct(Decision)66_storage":{"encoding":"inplace","label":"struct BasicEnzian.Decision","members":[{"astId":45,"contract":"BasicEnzian.sol:BasicEnzian","label":"endBoss","offset":0,"slot":"0","type":"t_uint256"},{"astId":48,"contract":"BasicEnzian.sol:BasicEnzian","label":"gatewaytype","offset":0,"slot":"1","type":"t_enum(GatewayType)7"},{"astId":51,"contract":"BasicEnzian.sol:BasicEnzian","label":"type_","offset":1,"slot":"1","type":"t_enum(DecisionType)43"},{"astId":53,"contract":"BasicEnzian.sol:BasicEnzian","label":"completed","offset":2,"slot":"1","type":"t_bool"},{"astId":55,"contract":"BasicEnzian.sol:BasicEnzian","label":"exists","offset":3,"slot":"1","type":"t_bool"},{"astId":58,"contract":"BasicEnzian.sol:BasicEnzian","label":"operator","offset":4,"slot":"1","type":"t_enum(Operator)792"},{"astId":60,"contract":"BasicEnzian.sol:BasicEnzian","label":"processVariable","offset":0,"slot":"2","type":"t_string_storage"},{"astId":62,"contract":"BasicEnzian.sol:BasicEnzian","label":"s_value","offset":0,"slot":"3","type":"t_string_storage"},{"astId":65,"contract":"BasicEnzian.sol:BasicEnzian","label":"i_value","offset":0,"slot":"4","type":"t_array(t_int256)dyn_storage"}],"numberOfBytes":"160"},"t_struct(Task)26_storage":{"encoding":"inplace","label":"struct BasicEnzian.Task","members":[{"astId":9,"contract":"BasicEnzian.sol:BasicEnzian","label":"activity","offset":0,"slot":"0","type":"t_string_storage"},{"astId":11,"contract":"BasicEnzian.sol:BasicEnzian","label":"taskresource","offset":0,"slot":"1","type":"t_address"},{"astId":13,"contract":"BasicEnzian.sol:BasicEnzian","label":"completed","offset":20,"slot":"1","type":"t_bool"},{"astId":16,"contract":"BasicEnzian.sol:BasicEnzian","label":"preceedingMergingGateway","offset":21,"slot":"1","type":"t_enum(GatewayType)7"},{"astId":19,"contract":"BasicEnzian.sol:BasicEnzian","label":"requirements","offset":0,"slot":"2","type":"t_array(t_uint256)dyn_storage"},{"astId":22,"contract":"BasicEnzian.sol:BasicEnzian","label":"competitors","offset":0,"slot":"3","type":"t_array(t_uint256)dyn_storage"},{"astId":25,"contract":"BasicEnzian.sol:BasicEnzian","label":"decision","offset":0,"slot":"4","type":"t_struct(Decision)66_storage"}],"numberOfBytes":"288"},"t_uint256":{"encoding":"inplace","label":"uint256","numberOfBytes":"32"}}},"userdoc":{"kind":"user","methods":{},"version":1}}