{"abi":[{"anonymous":false,"inputs":[{"indexed":true,"internalType":"bool","name":"success","type":"bool"}],"name":"TaskCompleted","type":"event"},{"inputs":[{"internalType":"uint256","name":"taskId","type":"uint256"}],"name":"completing","outputs":[{"internalType":"bool","name":"success","type":"bool"}],"stateMutability":"nonpayable","type":"function"},{"inputs":[{"internalType":"uint256","name":"_id","type":"uint256"},{"internalType":"string","name":"_activity","type":"string"},{"internalType":"enum BasicEnzian.Tasktype","name":"_tasktype","type":"uint8"},{"internalType":"uint256[]","name":"_requirements","type":"uint256[]"},{"internalType":"uint256[]","name":"_competitors","type":"uint256[]"}],"name":"createTask","outputs":[],"stateMutability":"nonpayable","type":"function"},{"inputs":[{"internalType":"uint256","name":"","type":"uint256"}],"name":"debugStringeventLog","outputs":[{"internalType":"string","name":"","type":"string"}],"stateMutability":"view","type":"function"},{"inputs":[],"name":"getDebugStringeventLog","outputs":[{"internalType":"string[]","name":"theevents","type":"string[]"}],"stateMutability":"view","type":"function"},{"inputs":[],"name":"getLog","outputs":[{"internalType":"uint256[]","name":"theevents","type":"uint256[]"}],"stateMutability":"view","type":"function"},{"inputs":[{"internalType":"uint256","name":"_id","type":"uint256"}],"name":"isTaskCompletedById","outputs":[{"internalType":"bool","name":"success","type":"bool"}],"stateMutability":"view","type":"function"},{"inputs":[{"internalType":"uint256","name":"","type":"uint256"}],"name":"theRealEventLog","outputs":[{"internalType":"uint256","name":"","type":"uint256"}],"stateMutability":"view","type":"function"}],"devdoc":{"kind":"dev","methods":{},"version":1},"evm":{"assembly":"    /* \"BasicEnzian.sol\":26:2736  contract BasicEnzian {\r... */\n  mstore(0x40, 0x80)\n  callvalue\n  dup1\n  iszero\n  tag_1\n  jumpi\n  0x00\n  dup1\n  revert\ntag_1:\n  pop\n  dataSize(sub_0)\n  dup1\n  dataOffset(sub_0)\n  0x00\n  codecopy\n  0x00\n  return\nstop\n\nsub_0: assembly {\n        /* \"BasicEnzian.sol\":26:2736  contract BasicEnzian {\r... */\n      mstore(0x40, 0x80)\n      callvalue\n      dup1\n      iszero\n      tag_1\n      jumpi\n      0x00\n      dup1\n      revert\n    tag_1:\n      pop\n      jumpi(tag_2, lt(calldatasize, 0x04))\n      shr(0xe0, calldataload(0x00))\n      dup1\n      0x909e4ab6\n      gt\n      tag_10\n      jumpi\n      dup1\n      0x909e4ab6\n      eq\n      tag_6\n      jumpi\n      dup1\n      0x95794157\n      eq\n      tag_7\n      jumpi\n      dup1\n      0x9849cee9\n      eq\n      tag_8\n      jumpi\n      dup1\n      0x993c0410\n      eq\n      tag_9\n      jumpi\n      jump(tag_2)\n    tag_10:\n      dup1\n      0x4d60f651\n      eq\n      tag_3\n      jumpi\n      dup1\n      0x61ea18df\n      eq\n      tag_4\n      jumpi\n      dup1\n      0x72a598cc\n      eq\n      tag_5\n      jumpi\n    tag_2:\n      0x00\n      dup1\n      revert\n        /* \"BasicEnzian.sol\":897:1023  function getDebugStringeventLog() public view returns(string[] memory theevents) {\r... */\n    tag_3:\n      tag_11\n      tag_12\n      jump\t// in\n    tag_11:\n      mload(0x40)\n      tag_13\n      swap2\n      swap1\n      tag_14\n      jump\t// in\n    tag_13:\n      mload(0x40)\n      dup1\n      swap2\n      sub\n      swap1\n      return\n        /* \"BasicEnzian.sol\":855:890  string[] public debugStringeventLog */\n    tag_4:\n      tag_15\n      0x04\n      dup1\n      calldatasize\n      sub\n      dup2\n      add\n      swap1\n      tag_16\n      swap2\n      swap1\n      tag_17\n      jump\t// in\n    tag_16:\n      tag_18\n      jump\t// in\n    tag_15:\n      mload(0x40)\n      tag_19\n      swap2\n      swap1\n      tag_20\n      jump\t// in\n    tag_19:\n      mload(0x40)\n      dup1\n      swap2\n      sub\n      swap1\n      return\n        /* \"BasicEnzian.sol\":1086:1455  function createTask(\r... */\n    tag_5:\n      tag_21\n      0x04\n      dup1\n      calldatasize\n      sub\n      dup2\n      add\n      swap1\n      tag_22\n      swap2\n      swap1\n      tag_23\n      jump\t// in\n    tag_22:\n      tag_24\n      jump\t// in\n    tag_21:\n      stop\n        /* \"BasicEnzian.sol\":651:755  function getLog() public view returns(uint[] memory theevents) {\r... */\n    tag_6:\n      tag_25\n      tag_26\n      jump\t// in\n    tag_25:\n      mload(0x40)\n      tag_27\n      swap2\n      swap1\n      tag_28\n      jump\t// in\n    tag_27:\n      mload(0x40)\n      dup1\n      swap2\n      sub\n      swap1\n      return\n        /* \"BasicEnzian.sol\":615:644  uint[] public theRealEventLog */\n    tag_7:\n      tag_29\n      0x04\n      dup1\n      calldatasize\n      sub\n      dup2\n      add\n      swap1\n      tag_30\n      swap2\n      swap1\n      tag_17\n      jump\t// in\n    tag_30:\n      tag_31\n      jump\t// in\n    tag_29:\n      mload(0x40)\n      tag_32\n      swap2\n      swap1\n      tag_33\n      jump\t// in\n    tag_32:\n      mload(0x40)\n      dup1\n      swap2\n      sub\n      swap1\n      return\n        /* \"BasicEnzian.sol\":2608:2731  function isTaskCompletedById(uint _id) public view returns (bool success){\r... */\n    tag_8:\n      tag_34\n      0x04\n      dup1\n      calldatasize\n      sub\n      dup2\n      add\n      swap1\n      tag_35\n      swap2\n      swap1\n      tag_17\n      jump\t// in\n    tag_35:\n      tag_36\n      jump\t// in\n    tag_34:\n      mload(0x40)\n      tag_37\n      swap2\n      swap1\n      tag_38\n      jump\t// in\n    tag_37:\n      mload(0x40)\n      dup1\n      swap2\n      sub\n      swap1\n      return\n        /* \"BasicEnzian.sol\":1563:2507  function completing(uint taskId) public returns (bool success){\r... */\n    tag_9:\n      tag_39\n      0x04\n      dup1\n      calldatasize\n      sub\n      dup2\n      add\n      swap1\n      tag_40\n      swap2\n      swap1\n      tag_17\n      jump\t// in\n    tag_40:\n      tag_41\n      jump\t// in\n    tag_39:\n      mload(0x40)\n      tag_42\n      swap2\n      swap1\n      tag_38\n      jump\t// in\n    tag_42:\n      mload(0x40)\n      dup1\n      swap2\n      sub\n      swap1\n      return\n        /* \"BasicEnzian.sol\":897:1023  function getDebugStringeventLog() public view returns(string[] memory theevents) {\r... */\n    tag_12:\n        /* \"BasicEnzian.sol\":951:976  string[] memory theevents */\n      0x60\n        /* \"BasicEnzian.sol\":996:1015  debugStringeventLog */\n      0x02\n        /* \"BasicEnzian.sol\":989:1015  return debugStringeventLog */\n      dup1\n      sload\n      dup1\n      0x20\n      mul\n      0x20\n      add\n      mload(0x40)\n      swap1\n      dup2\n      add\n      0x40\n      mstore\n      dup1\n      swap3\n      swap2\n      swap1\n      dup2\n      dup2\n      mstore\n      0x20\n      add\n      0x00\n      swap1\n    tag_44:\n      dup3\n      dup3\n      lt\n      iszero\n      tag_45\n      jumpi\n      dup4\n      dup3\n      swap1\n      0x00\n      mstore\n      keccak256(0x00, 0x20)\n      add\n      dup1\n      sload\n      tag_47\n      swap1\n      tag_48\n      jump\t// in\n    tag_47:\n      dup1\n      0x1f\n      add\n      0x20\n      dup1\n      swap2\n      div\n      mul\n      0x20\n      add\n      mload(0x40)\n      swap1\n      dup2\n      add\n      0x40\n      mstore\n      dup1\n      swap3\n      swap2\n      swap1\n      dup2\n      dup2\n      mstore\n      0x20\n      add\n      dup3\n      dup1\n      sload\n      tag_49\n      swap1\n      tag_48\n      jump\t// in\n    tag_49:\n      dup1\n      iszero\n      tag_50\n      jumpi\n      dup1\n      0x1f\n      lt\n      tag_51\n      jumpi\n      0x0100\n      dup1\n      dup4\n      sload\n      div\n      mul\n      dup4\n      mstore\n      swap2\n      0x20\n      add\n      swap2\n      jump(tag_50)\n    tag_51:\n      dup3\n      add\n      swap2\n      swap1\n      0x00\n      mstore\n      keccak256(0x00, 0x20)\n      swap1\n    tag_52:\n      dup2\n      sload\n      dup2\n      mstore\n      swap1\n      0x01\n      add\n      swap1\n      0x20\n      add\n      dup1\n      dup4\n      gt\n      tag_52\n      jumpi\n      dup3\n      swap1\n      sub\n      0x1f\n      and\n      dup3\n      add\n      swap2\n    tag_50:\n      pop\n      pop\n      pop\n      pop\n      pop\n      dup2\n      mstore\n      0x20\n      add\n      swap1\n      0x01\n      add\n      swap1\n      jump(tag_44)\n    tag_45:\n      pop\n      pop\n      pop\n      pop\n      swap1\n      pop\n        /* \"BasicEnzian.sol\":897:1023  function getDebugStringeventLog() public view returns(string[] memory theevents) {\r... */\n      swap1\n      jump\t// out\n        /* \"BasicEnzian.sol\":855:890  string[] public debugStringeventLog */\n    tag_18:\n      0x02\n      dup2\n      dup2\n      sload\n      dup2\n      lt\n      tag_53\n      jumpi\n      0x00\n      dup1\n      revert\n    tag_53:\n      swap1\n      0x00\n      mstore\n      keccak256(0x00, 0x20)\n      add\n      0x00\n      swap2\n      pop\n      swap1\n      pop\n      dup1\n      sload\n      tag_55\n      swap1\n      tag_48\n      jump\t// in\n    tag_55:\n      dup1\n      0x1f\n      add\n      0x20\n      dup1\n      swap2\n      div\n      mul\n      0x20\n      add\n      mload(0x40)\n      swap1\n      dup2\n      add\n      0x40\n      mstore\n      dup1\n      swap3\n      swap2\n      swap1\n      dup2\n      dup2\n      mstore\n      0x20\n      add\n      dup3\n      dup1\n      sload\n      tag_56\n      swap1\n      tag_48\n      jump\t// in\n    tag_56:\n      dup1\n      iszero\n      tag_57\n      jumpi\n      dup1\n      0x1f\n      lt\n      tag_58\n      jumpi\n      0x0100\n      dup1\n      dup4\n      sload\n      div\n      mul\n      dup4\n      mstore\n      swap2\n      0x20\n      add\n      swap2\n      jump(tag_57)\n    tag_58:\n      dup3\n      add\n      swap2\n      swap1\n      0x00\n      mstore\n      keccak256(0x00, 0x20)\n      swap1\n    tag_59:\n      dup2\n      sload\n      dup2\n      mstore\n      swap1\n      0x01\n      add\n      swap1\n      0x20\n      add\n      dup1\n      dup4\n      gt\n      tag_59\n      jumpi\n      dup3\n      swap1\n      sub\n      0x1f\n      and\n      dup3\n      add\n      swap2\n    tag_57:\n      pop\n      pop\n      pop\n      pop\n      pop\n      dup2\n      jump\t// out\n        /* \"BasicEnzian.sol\":1086:1455  function createTask(\r... */\n    tag_24:\n        /* \"BasicEnzian.sol\":1317:1337  Task memory myStruct */\n      0x00\n        /* \"BasicEnzian.sol\":1340:1403  Task (false, _activity, _tasktype, _requirements, _competitors) */\n      mload(0x40)\n      dup1\n      0xa0\n      add\n      0x40\n      mstore\n      dup1\n        /* \"BasicEnzian.sol\":1346:1351  false */\n      0x00\n        /* \"BasicEnzian.sol\":1340:1403  Task (false, _activity, _tasktype, _requirements, _competitors) */\n      iszero\n      iszero\n      dup2\n      mstore\n      0x20\n      add\n        /* \"BasicEnzian.sol\":1353:1362  _activity */\n      dup7\n        /* \"BasicEnzian.sol\":1340:1403  Task (false, _activity, _tasktype, _requirements, _competitors) */\n      dup2\n      mstore\n      0x20\n      add\n        /* \"BasicEnzian.sol\":1364:1373  _tasktype */\n      dup6\n        /* \"BasicEnzian.sol\":1340:1403  Task (false, _activity, _tasktype, _requirements, _competitors) */\n      0x03\n      dup2\n      gt\n      iszero\n      tag_61\n      jumpi\n      mstore(0x00, 0x4e487b7100000000000000000000000000000000000000000000000000000000)\n      mstore(0x04, 0x21)\n      revert(0x00, 0x24)\n    tag_61:\n      dup2\n      mstore\n      0x20\n      add\n        /* \"BasicEnzian.sol\":1375:1388  _requirements */\n      dup5\n        /* \"BasicEnzian.sol\":1340:1403  Task (false, _activity, _tasktype, _requirements, _competitors) */\n      dup2\n      mstore\n      0x20\n      add\n        /* \"BasicEnzian.sol\":1390:1402  _competitors */\n      dup4\n        /* \"BasicEnzian.sol\":1340:1403  Task (false, _activity, _tasktype, _requirements, _competitors) */\n      dup2\n      mstore\n      pop\n        /* \"BasicEnzian.sol\":1317:1403  Task memory myStruct = Task (false, _activity, _tasktype, _requirements, _competitors) */\n      swap1\n      pop\n        /* \"BasicEnzian.sol\":1428:1436  myStruct */\n      dup1\n        /* \"BasicEnzian.sol\":1414:1419  tasks */\n      0x00\n        /* \"BasicEnzian.sol\":1414:1424  tasks[_id] */\n      dup1\n        /* \"BasicEnzian.sol\":1420:1423  _id */\n      dup9\n        /* \"BasicEnzian.sol\":1414:1424  tasks[_id] */\n      dup2\n      mstore\n      0x20\n      add\n      swap1\n      dup2\n      mstore\n      0x20\n      add\n      0x00\n      keccak256\n        /* \"BasicEnzian.sol\":1414:1437  tasks[_id] = (myStruct) */\n      0x00\n      dup3\n      add\n      mload\n      dup2\n      0x00\n      add\n      exp(0x0100, 0x00)\n      dup2\n      sload\n      dup2\n      0xff\n      mul\n      not\n      and\n      swap1\n      dup4\n      iszero\n      iszero\n      mul\n      or\n      swap1\n      sstore\n      pop\n      0x20\n      dup3\n      add\n      mload\n      dup2\n      0x01\n      add\n      swap1\n      dup1\n      mload\n      swap1\n      0x20\n      add\n      swap1\n      tag_62\n      swap3\n      swap2\n      swap1\n      tag_63\n      jump\t// in\n    tag_62:\n      pop\n      0x40\n      dup3\n      add\n      mload\n      dup2\n      0x02\n      add\n      exp(0x0100, 0x00)\n      dup2\n      sload\n      dup2\n      0xff\n      mul\n      not\n      and\n      swap1\n      dup4\n      0x03\n      dup2\n      gt\n      iszero\n      tag_64\n      jumpi\n      mstore(0x00, 0x4e487b7100000000000000000000000000000000000000000000000000000000)\n      mstore(0x04, 0x21)\n      revert(0x00, 0x24)\n    tag_64:\n      mul\n      or\n      swap1\n      sstore\n      pop\n      0x60\n      dup3\n      add\n      mload\n      dup2\n      0x03\n      add\n      swap1\n      dup1\n      mload\n      swap1\n      0x20\n      add\n      swap1\n      tag_65\n      swap3\n      swap2\n      swap1\n      tag_66\n      jump\t// in\n    tag_65:\n      pop\n      0x80\n      dup3\n      add\n      mload\n      dup2\n      0x04\n      add\n      swap1\n      dup1\n      mload\n      swap1\n      0x20\n      add\n      swap1\n      tag_67\n      swap3\n      swap2\n      swap1\n      tag_66\n      jump\t// in\n    tag_67:\n      pop\n      swap1\n      pop\n      pop\n        /* \"BasicEnzian.sol\":1086:1455  function createTask(\r... */\n      pop\n      pop\n      pop\n      pop\n      pop\n      pop\n      jump\t// out\n        /* \"BasicEnzian.sol\":651:755  function getLog() public view returns(uint[] memory theevents) {\r... */\n    tag_26:\n        /* \"BasicEnzian.sol\":689:712  uint[] memory theevents */\n      0x60\n        /* \"BasicEnzian.sol\":732:747  theRealEventLog */\n      0x01\n        /* \"BasicEnzian.sol\":725:747  return theRealEventLog */\n      dup1\n      sload\n      dup1\n      0x20\n      mul\n      0x20\n      add\n      mload(0x40)\n      swap1\n      dup2\n      add\n      0x40\n      mstore\n      dup1\n      swap3\n      swap2\n      swap1\n      dup2\n      dup2\n      mstore\n      0x20\n      add\n      dup3\n      dup1\n      sload\n      dup1\n      iszero\n      tag_69\n      jumpi\n      0x20\n      mul\n      dup3\n      add\n      swap2\n      swap1\n      0x00\n      mstore\n      keccak256(0x00, 0x20)\n      swap1\n    tag_70:\n      dup2\n      sload\n      dup2\n      mstore\n      0x20\n      add\n      swap1\n      0x01\n      add\n      swap1\n      dup1\n      dup4\n      gt\n      tag_70\n      jumpi\n    tag_69:\n      pop\n      pop\n      pop\n      pop\n      pop\n      swap1\n      pop\n        /* \"BasicEnzian.sol\":651:755  function getLog() public view returns(uint[] memory theevents) {\r... */\n      swap1\n      jump\t// out\n        /* \"BasicEnzian.sol\":615:644  uint[] public theRealEventLog */\n    tag_31:\n      0x01\n      dup2\n      dup2\n      sload\n      dup2\n      lt\n      tag_71\n      jumpi\n      0x00\n      dup1\n      revert\n    tag_71:\n      swap1\n      0x00\n      mstore\n      keccak256(0x00, 0x20)\n      add\n      0x00\n      swap2\n      pop\n      swap1\n      pop\n      sload\n      dup2\n      jump\t// out\n        /* \"BasicEnzian.sol\":2608:2731  function isTaskCompletedById(uint _id) public view returns (bool success){\r... */\n    tag_36:\n        /* \"BasicEnzian.sol\":2668:2680  bool success */\n      0x00\n        /* \"BasicEnzian.sol\":2702:2707  tasks */\n      dup1\n        /* \"BasicEnzian.sol\":2702:2712  tasks[_id] */\n      0x00\n        /* \"BasicEnzian.sol\":2708:2711  _id */\n      dup4\n        /* \"BasicEnzian.sol\":2702:2712  tasks[_id] */\n      dup2\n      mstore\n      0x20\n      add\n      swap1\n      dup2\n      mstore\n      0x20\n      add\n      0x00\n      keccak256\n        /* \"BasicEnzian.sol\":2702:2722  tasks[_id].completed */\n      0x00\n      add\n      0x00\n      swap1\n      sload\n      swap1\n      0x0100\n      exp\n      swap1\n      div\n      0xff\n      and\n        /* \"BasicEnzian.sol\":2694:2723  return (tasks[_id].completed) */\n      swap1\n      pop\n        /* \"BasicEnzian.sol\":2608:2731  function isTaskCompletedById(uint _id) public view returns (bool success){\r... */\n      swap2\n      swap1\n      pop\n      jump\t// out\n        /* \"BasicEnzian.sol\":1563:2507  function completing(uint taskId) public returns (bool success){\r... */\n    tag_41:\n        /* \"BasicEnzian.sol\":1612:1624  bool success */\n      0x00\n        /* \"BasicEnzian.sol\":1764:1789  uint[] memory temprequire */\n      dup1\n        /* \"BasicEnzian.sol\":1792:1797  tasks */\n      0x00\n        /* \"BasicEnzian.sol\":1792:1805  tasks[taskId] */\n      dup1\n        /* \"BasicEnzian.sol\":1798:1804  taskId */\n      dup5\n        /* \"BasicEnzian.sol\":1792:1805  tasks[taskId] */\n      dup2\n      mstore\n      0x20\n      add\n      swap1\n      dup2\n      mstore\n      0x20\n      add\n      0x00\n      keccak256\n        /* \"BasicEnzian.sol\":1792:1818  tasks[taskId].requirements */\n      0x03\n      add\n        /* \"BasicEnzian.sol\":1764:1818  uint[] memory temprequire = tasks[taskId].requirements */\n      dup1\n      sload\n      dup1\n      0x20\n      mul\n      0x20\n      add\n      mload(0x40)\n      swap1\n      dup2\n      add\n      0x40\n      mstore\n      dup1\n      swap3\n      swap2\n      swap1\n      dup2\n      dup2\n      mstore\n      0x20\n      add\n      dup3\n      dup1\n      sload\n      dup1\n      iszero\n      tag_75\n      jumpi\n      0x20\n      mul\n      dup3\n      add\n      swap2\n      swap1\n      0x00\n      mstore\n      keccak256(0x00, 0x20)\n      swap1\n    tag_76:\n      dup2\n      sload\n      dup2\n      mstore\n      0x20\n      add\n      swap1\n      0x01\n      add\n      swap1\n      dup1\n      dup4\n      gt\n      tag_76\n      jumpi\n    tag_75:\n      pop\n      pop\n      pop\n      pop\n      pop\n      swap1\n      pop\n        /* \"BasicEnzian.sol\":1855:1856  0 */\n      0x00\n        /* \"BasicEnzian.sol\":1833:1844  temprequire */\n      dup2\n        /* \"BasicEnzian.sol\":1833:1851  temprequire.length */\n      mload\n        /* \"BasicEnzian.sol\":1833:1856  temprequire.length == 0 */\n      eq\n        /* \"BasicEnzian.sol\":1829:2145  if (temprequire.length == 0) {\r... */\n      iszero\n      tag_77\n      jumpi\n        /* \"BasicEnzian.sol\":1883:1887  true */\n      0x01\n        /* \"BasicEnzian.sol\":1873:1887  success = true */\n      swap2\n      pop\n        /* \"BasicEnzian.sol\":1829:2145  if (temprequire.length == 0) {\r... */\n      jump(tag_78)\n    tag_77:\n        /* \"BasicEnzian.sol\":1979:1992  Tasktype.TASK */\n      0x00\n        /* \"BasicEnzian.sol\":1953:1992  tasks[taskId].tasktype == Tasktype.TASK */\n      0x03\n      dup2\n      gt\n      iszero\n      tag_79\n      jumpi\n      mstore(0x00, 0x4e487b7100000000000000000000000000000000000000000000000000000000)\n      mstore(0x04, 0x21)\n      revert(0x00, 0x24)\n    tag_79:\n        /* \"BasicEnzian.sol\":1953:1958  tasks */\n      0x00\n        /* \"BasicEnzian.sol\":1953:1966  tasks[taskId] */\n      dup1\n        /* \"BasicEnzian.sol\":1959:1965  taskId */\n      dup6\n        /* \"BasicEnzian.sol\":1953:1966  tasks[taskId] */\n      dup2\n      mstore\n      0x20\n      add\n      swap1\n      dup2\n      mstore\n      0x20\n      add\n      0x00\n      keccak256\n        /* \"BasicEnzian.sol\":1953:1975  tasks[taskId].tasktype */\n      0x02\n      add\n      0x00\n      swap1\n      sload\n      swap1\n      0x0100\n      exp\n      swap1\n      div\n      0xff\n      and\n        /* \"BasicEnzian.sol\":1953:1992  tasks[taskId].tasktype == Tasktype.TASK */\n      0x03\n      dup2\n      gt\n      iszero\n      tag_80\n      jumpi\n      mstore(0x00, 0x4e487b7100000000000000000000000000000000000000000000000000000000)\n      mstore(0x04, 0x21)\n      revert(0x00, 0x24)\n    tag_80:\n      eq\n        /* \"BasicEnzian.sol\":1949:2134  if (tasks[taskId].tasktype == Tasktype.TASK) {\r... */\n      iszero\n      tag_81\n      jumpi\n        /* \"BasicEnzian.sol\":2056:2060  true */\n      0x01\n        /* \"BasicEnzian.sol\":2017:2060  isTaskCompletedById(temprequire[0]) == true */\n      iszero\n      iszero\n        /* \"BasicEnzian.sol\":2017:2052  isTaskCompletedById(temprequire[0]) */\n      tag_82\n        /* \"BasicEnzian.sol\":2037:2048  temprequire */\n      dup3\n        /* \"BasicEnzian.sol\":2049:2050  0 */\n      0x00\n        /* \"BasicEnzian.sol\":2037:2051  temprequire[0] */\n      dup2\n      mload\n      dup2\n      lt\n      tag_83\n      jumpi\n      mstore(0x00, 0x4e487b7100000000000000000000000000000000000000000000000000000000)\n      mstore(0x04, 0x32)\n      revert(0x00, 0x24)\n    tag_83:\n      0x20\n      mul\n      0x20\n      add\n      add\n      mload\n        /* \"BasicEnzian.sol\":2017:2036  isTaskCompletedById */\n      tag_36\n        /* \"BasicEnzian.sol\":2017:2052  isTaskCompletedById(temprequire[0]) */\n      jump\t// in\n    tag_82:\n        /* \"BasicEnzian.sol\":2017:2060  isTaskCompletedById(temprequire[0]) == true */\n      iszero\n      iszero\n      eq\n        /* \"BasicEnzian.sol\":2013:2119  if (isTaskCompletedById(temprequire[0]) == true) {\r... */\n      iszero\n      tag_84\n      jumpi\n        /* \"BasicEnzian.sol\":2095:2099  true */\n      0x01\n        /* \"BasicEnzian.sol\":2085:2099  success = true */\n      swap2\n      pop\n        /* \"BasicEnzian.sol\":2013:2119  if (isTaskCompletedById(temprequire[0]) == true) {\r... */\n    tag_84:\n        /* \"BasicEnzian.sol\":1949:2134  if (tasks[taskId].tasktype == Tasktype.TASK) {\r... */\n    tag_81:\n        /* \"BasicEnzian.sol\":1829:2145  if (temprequire.length == 0) {\r... */\n    tag_78:\n        /* \"BasicEnzian.sol\":2177:2184  success */\n      dup2\n        /* \"BasicEnzian.sol\":2174:2455  if(success) {\r... */\n      iszero\n      tag_85\n      jumpi\n        /* \"BasicEnzian.sol\":2227:2231  true */\n      0x01\n        /* \"BasicEnzian.sol\":2201:2206  tasks */\n      0x00\n        /* \"BasicEnzian.sol\":2201:2214  tasks[taskId] */\n      dup1\n        /* \"BasicEnzian.sol\":2207:2213  taskId */\n      dup6\n        /* \"BasicEnzian.sol\":2201:2214  tasks[taskId] */\n      dup2\n      mstore\n      0x20\n      add\n      swap1\n      dup2\n      mstore\n      0x20\n      add\n      0x00\n      keccak256\n        /* \"BasicEnzian.sol\":2201:2224  tasks[taskId].completed */\n      0x00\n      add\n      0x00\n        /* \"BasicEnzian.sol\":2201:2231  tasks[taskId].completed = true */\n      0x0100\n      exp\n      dup2\n      sload\n      dup2\n      0xff\n      mul\n      not\n      and\n      swap1\n      dup4\n      iszero\n      iszero\n      mul\n      or\n      swap1\n      sstore\n      pop\n        /* \"BasicEnzian.sol\":2246:2261  theRealEventLog */\n      0x01\n        /* \"BasicEnzian.sol\":2267:2273  taskId */\n      dup4\n        /* \"BasicEnzian.sol\":2246:2274  theRealEventLog.push(taskId) */\n      swap1\n      dup1\n      0x01\n      dup2\n      sload\n      add\n      dup1\n      dup3\n      sstore\n      dup1\n      swap2\n      pop\n      pop\n      0x01\n      swap1\n      sub\n      swap1\n      0x00\n      mstore\n      keccak256(0x00, 0x20)\n      add\n      0x00\n      swap1\n      swap2\n      swap1\n      swap2\n      swap1\n      swap2\n      pop\n      sstore\n        /* \"BasicEnzian.sol\":2289:2308  debugStringeventLog */\n      0x02\n        /* \"BasicEnzian.sol\":2314:2319  tasks */\n      0x00\n        /* \"BasicEnzian.sol\":2314:2327  tasks[taskId] */\n      dup1\n        /* \"BasicEnzian.sol\":2320:2326  taskId */\n      dup6\n        /* \"BasicEnzian.sol\":2314:2327  tasks[taskId] */\n      dup2\n      mstore\n      0x20\n      add\n      swap1\n      dup2\n      mstore\n      0x20\n      add\n      0x00\n      keccak256\n        /* \"BasicEnzian.sol\":2314:2336  tasks[taskId].activity */\n      0x01\n      add\n        /* \"BasicEnzian.sol\":2289:2337  debugStringeventLog.push(tasks[taskId].activity) */\n      swap1\n      dup1\n      0x01\n      dup2\n      sload\n      add\n      dup1\n      dup3\n      sstore\n      dup1\n      swap2\n      pop\n      pop\n      0x01\n      swap1\n      sub\n      swap1\n      0x00\n      mstore\n      keccak256(0x00, 0x20)\n      add\n      0x00\n      swap1\n      swap2\n      swap1\n      swap2\n      swap1\n      swap2\n      pop\n      swap1\n      dup1\n      sload\n      tag_88\n      swap1\n      tag_48\n      jump\t// in\n    tag_88:\n      tag_89\n      swap3\n      swap2\n      swap1\n      tag_90\n      jump\t// in\n    tag_89:\n      pop\n        /* \"BasicEnzian.sol\":2371:2375  true */\n      0x01\n        /* \"BasicEnzian.sol\":2357:2376  TaskCompleted(true) */\n      iszero\n      iszero\n      0xacd30b4f9fd5868793e13ffb506f03374a23d9feba1249ac2cc7b0fe024ff4ba\n      mload(0x40)\n      mload(0x40)\n      dup1\n      swap2\n      sub\n      swap1\n      log2\n        /* \"BasicEnzian.sol\":2174:2455  if(success) {\r... */\n      jump(tag_91)\n    tag_85:\n        /* \"BasicEnzian.sol\":2437:2442  false */\n      0x00\n        /* \"BasicEnzian.sol\":2423:2443  TaskCompleted(false) */\n      iszero\n      iszero\n      0xacd30b4f9fd5868793e13ffb506f03374a23d9feba1249ac2cc7b0fe024ff4ba\n      mload(0x40)\n      mload(0x40)\n      dup1\n      swap2\n      sub\n      swap1\n      log2\n        /* \"BasicEnzian.sol\":2174:2455  if(success) {\r... */\n    tag_91:\n        /* \"BasicEnzian.sol\":2475:2489  return success */\n      pop\n        /* \"BasicEnzian.sol\":1563:2507  function completing(uint taskId) public returns (bool success){\r... */\n      swap2\n      swap1\n      pop\n      jump\t// out\n    tag_63:\n      dup3\n      dup1\n      sload\n      tag_92\n      swap1\n      tag_48\n      jump\t// in\n    tag_92:\n      swap1\n      0x00\n      mstore\n      keccak256(0x00, 0x20)\n      swap1\n      0x1f\n      add\n      0x20\n      swap1\n      div\n      dup2\n      add\n      swap3\n      dup3\n      tag_94\n      jumpi\n      0x00\n      dup6\n      sstore\n      jump(tag_93)\n    tag_94:\n      dup3\n      0x1f\n      lt\n      tag_95\n      jumpi\n      dup1\n      mload\n      not(0xff)\n      and\n      dup4\n      dup1\n      add\n      or\n      dup6\n      sstore\n      jump(tag_93)\n    tag_95:\n      dup3\n      dup1\n      add\n      0x01\n      add\n      dup6\n      sstore\n      dup3\n      iszero\n      tag_93\n      jumpi\n      swap2\n      dup3\n      add\n    tag_96:\n      dup3\n      dup2\n      gt\n      iszero\n      tag_97\n      jumpi\n      dup3\n      mload\n      dup3\n      sstore\n      swap2\n      0x20\n      add\n      swap2\n      swap1\n      0x01\n      add\n      swap1\n      jump(tag_96)\n    tag_97:\n    tag_93:\n      pop\n      swap1\n      pop\n      tag_98\n      swap2\n      swap1\n      tag_99\n      jump\t// in\n    tag_98:\n      pop\n      swap1\n      jump\t// out\n    tag_66:\n      dup3\n      dup1\n      sload\n      dup3\n      dup3\n      sstore\n      swap1\n      0x00\n      mstore\n      keccak256(0x00, 0x20)\n      swap1\n      dup2\n      add\n      swap3\n      dup3\n      iszero\n      tag_100\n      jumpi\n      swap2\n      0x20\n      mul\n      dup3\n      add\n    tag_101:\n      dup3\n      dup2\n      gt\n      iszero\n      tag_102\n      jumpi\n      dup3\n      mload\n      dup3\n      sstore\n      swap2\n      0x20\n      add\n      swap2\n      swap1\n      0x01\n      add\n      swap1\n      jump(tag_101)\n    tag_102:\n    tag_100:\n      pop\n      swap1\n      pop\n      tag_103\n      swap2\n      swap1\n      tag_99\n      jump\t// in\n    tag_103:\n      pop\n      swap1\n      jump\t// out\n    tag_90:\n      dup3\n      dup1\n      sload\n      tag_104\n      swap1\n      tag_48\n      jump\t// in\n    tag_104:\n      swap1\n      0x00\n      mstore\n      keccak256(0x00, 0x20)\n      swap1\n      0x1f\n      add\n      0x20\n      swap1\n      div\n      dup2\n      add\n      swap3\n      dup3\n      tag_106\n      jumpi\n      0x00\n      dup6\n      sstore\n      jump(tag_105)\n    tag_106:\n      dup3\n      0x1f\n      lt\n      tag_107\n      jumpi\n      dup1\n      sload\n      dup6\n      sstore\n      jump(tag_105)\n    tag_107:\n      dup3\n      dup1\n      add\n      0x01\n      add\n      dup6\n      sstore\n      dup3\n      iszero\n      tag_105\n      jumpi\n      0x00\n      mstore\n      keccak256(0x00, 0x20)\n      swap2\n      0x1f\n      add\n      0x20\n      swap1\n      div\n      dup3\n      add\n    tag_108:\n      dup3\n      dup2\n      gt\n      iszero\n      tag_109\n      jumpi\n      dup3\n      sload\n      dup3\n      sstore\n      swap2\n      0x01\n      add\n      swap2\n      swap1\n      0x01\n      add\n      swap1\n      jump(tag_108)\n    tag_109:\n    tag_105:\n      pop\n      swap1\n      pop\n      tag_110\n      swap2\n      swap1\n      tag_99\n      jump\t// in\n    tag_110:\n      pop\n      swap1\n      jump\t// out\n    tag_99:\n    tag_111:\n      dup1\n      dup3\n      gt\n      iszero\n      tag_112\n      jumpi\n      0x00\n      dup2\n      0x00\n      swap1\n      sstore\n      pop\n      0x01\n      add\n      jump(tag_111)\n    tag_112:\n      pop\n      swap1\n      jump\t// out\n        /* \"#utility.yul\":24:646   */\n    tag_114:\n      0x00\n        /* \"#utility.yul\":145:225   */\n      tag_116\n        /* \"#utility.yul\":160:224   */\n      tag_117\n        /* \"#utility.yul\":217:223   */\n      dup5\n        /* \"#utility.yul\":160:224   */\n      tag_118\n      jump\t// in\n    tag_117:\n        /* \"#utility.yul\":145:225   */\n      tag_119\n      jump\t// in\n    tag_116:\n        /* \"#utility.yul\":136:225   */\n      swap1\n      pop\n        /* \"#utility.yul\":245:250   */\n      dup1\n        /* \"#utility.yul\":273:279   */\n      dup4\n        /* \"#utility.yul\":266:271   */\n      dup3\n        /* \"#utility.yul\":259:280   */\n      mstore\n        /* \"#utility.yul\":299:303   */\n      0x20\n        /* \"#utility.yul\":292:297   */\n      dup3\n        /* \"#utility.yul\":288:304   */\n      add\n        /* \"#utility.yul\":281:304   */\n      swap1\n      pop\n        /* \"#utility.yul\":324:330   */\n      dup3\n        /* \"#utility.yul\":374:377   */\n      dup6\n        /* \"#utility.yul\":366:370   */\n      0x20\n        /* \"#utility.yul\":358:364   */\n      dup7\n        /* \"#utility.yul\":354:371   */\n      mul\n        /* \"#utility.yul\":349:352   */\n      dup3\n        /* \"#utility.yul\":345:372   */\n      add\n        /* \"#utility.yul\":342:378   */\n      gt\n        /* \"#utility.yul\":339:341   */\n      iszero\n      tag_120\n      jumpi\n        /* \"#utility.yul\":391:392   */\n      0x00\n        /* \"#utility.yul\":388:389   */\n      dup1\n        /* \"#utility.yul\":381:393   */\n      revert\n        /* \"#utility.yul\":339:341   */\n    tag_120:\n        /* \"#utility.yul\":419:420   */\n      0x00\n        /* \"#utility.yul\":404:640   */\n    tag_121:\n        /* \"#utility.yul\":429:435   */\n      dup6\n        /* \"#utility.yul\":426:427   */\n      dup2\n        /* \"#utility.yul\":423:436   */\n      lt\n        /* \"#utility.yul\":404:640   */\n      iszero\n      tag_123\n      jumpi\n        /* \"#utility.yul\":496:499   */\n      dup2\n        /* \"#utility.yul\":524:561   */\n      tag_124\n        /* \"#utility.yul\":557:560   */\n      dup9\n        /* \"#utility.yul\":545:555   */\n      dup3\n        /* \"#utility.yul\":524:561   */\n      tag_125\n      jump\t// in\n    tag_124:\n        /* \"#utility.yul\":519:522   */\n      dup5\n        /* \"#utility.yul\":512:562   */\n      mstore\n        /* \"#utility.yul\":591:595   */\n      0x20\n        /* \"#utility.yul\":586:589   */\n      dup5\n        /* \"#utility.yul\":582:596   */\n      add\n        /* \"#utility.yul\":575:596   */\n      swap4\n      pop\n        /* \"#utility.yul\":625:629   */\n      0x20\n        /* \"#utility.yul\":620:623   */\n      dup4\n        /* \"#utility.yul\":616:630   */\n      add\n        /* \"#utility.yul\":609:630   */\n      swap3\n      pop\n        /* \"#utility.yul\":464:640   */\n      pop\n        /* \"#utility.yul\":451:452   */\n      0x01\n        /* \"#utility.yul\":448:449   */\n      dup2\n        /* \"#utility.yul\":444:453   */\n      add\n        /* \"#utility.yul\":439:453   */\n      swap1\n      pop\n        /* \"#utility.yul\":404:640   */\n      jump(tag_121)\n    tag_123:\n        /* \"#utility.yul\":408:422   */\n      pop\n        /* \"#utility.yul\":126:646   */\n      pop\n      pop\n      swap4\n      swap3\n      pop\n      pop\n      pop\n      jump\t// out\n        /* \"#utility.yul\":652:996   */\n    tag_126:\n      0x00\n        /* \"#utility.yul\":755:820   */\n      tag_128\n        /* \"#utility.yul\":770:819   */\n      tag_129\n        /* \"#utility.yul\":812:818   */\n      dup5\n        /* \"#utility.yul\":770:819   */\n      tag_130\n      jump\t// in\n    tag_129:\n        /* \"#utility.yul\":755:820   */\n      tag_119\n      jump\t// in\n    tag_128:\n        /* \"#utility.yul\":746:820   */\n      swap1\n      pop\n        /* \"#utility.yul\":843:849   */\n      dup3\n        /* \"#utility.yul\":836:841   */\n      dup2\n        /* \"#utility.yul\":829:850   */\n      mstore\n        /* \"#utility.yul\":881:885   */\n      0x20\n        /* \"#utility.yul\":874:879   */\n      dup2\n        /* \"#utility.yul\":870:886   */\n      add\n        /* \"#utility.yul\":919:922   */\n      dup5\n        /* \"#utility.yul\":910:916   */\n      dup5\n        /* \"#utility.yul\":905:908   */\n      dup5\n        /* \"#utility.yul\":901:917   */\n      add\n        /* \"#utility.yul\":898:923   */\n      gt\n        /* \"#utility.yul\":895:897   */\n      iszero\n      tag_131\n      jumpi\n        /* \"#utility.yul\":936:937   */\n      0x00\n        /* \"#utility.yul\":933:934   */\n      dup1\n        /* \"#utility.yul\":926:938   */\n      revert\n        /* \"#utility.yul\":895:897   */\n    tag_131:\n        /* \"#utility.yul\":949:990   */\n      tag_132\n        /* \"#utility.yul\":983:989   */\n      dup5\n        /* \"#utility.yul\":978:981   */\n      dup3\n        /* \"#utility.yul\":973:976   */\n      dup6\n        /* \"#utility.yul\":949:990   */\n      tag_133\n      jump\t// in\n    tag_132:\n        /* \"#utility.yul\":736:996   */\n      pop\n      swap4\n      swap3\n      pop\n      pop\n      pop\n      jump\t// out\n        /* \"#utility.yul\":1019:1322   */\n    tag_134:\n      0x00\n        /* \"#utility.yul\":1139:1142   */\n      dup3\n        /* \"#utility.yul\":1132:1136   */\n      0x1f\n        /* \"#utility.yul\":1124:1130   */\n      dup4\n        /* \"#utility.yul\":1120:1137   */\n      add\n        /* \"#utility.yul\":1116:1143   */\n      slt\n        /* \"#utility.yul\":1106:1108   */\n      tag_136\n      jumpi\n        /* \"#utility.yul\":1157:1158   */\n      0x00\n        /* \"#utility.yul\":1154:1155   */\n      dup1\n        /* \"#utility.yul\":1147:1159   */\n      revert\n        /* \"#utility.yul\":1106:1108   */\n    tag_136:\n        /* \"#utility.yul\":1197:1203   */\n      dup2\n        /* \"#utility.yul\":1184:1204   */\n      calldataload\n        /* \"#utility.yul\":1222:1316   */\n      tag_137\n        /* \"#utility.yul\":1312:1315   */\n      dup5\n        /* \"#utility.yul\":1304:1310   */\n      dup3\n        /* \"#utility.yul\":1297:1301   */\n      0x20\n        /* \"#utility.yul\":1289:1295   */\n      dup7\n        /* \"#utility.yul\":1285:1302   */\n      add\n        /* \"#utility.yul\":1222:1316   */\n      tag_114\n      jump\t// in\n    tag_137:\n        /* \"#utility.yul\":1213:1316   */\n      swap2\n      pop\n        /* \"#utility.yul\":1096:1322   */\n      pop\n      swap3\n      swap2\n      pop\n      pop\n      jump\t// out\n        /* \"#utility.yul\":1328:1487   */\n    tag_138:\n      0x00\n        /* \"#utility.yul\":1422:1428   */\n      dup2\n        /* \"#utility.yul\":1409:1429   */\n      calldataload\n        /* \"#utility.yul\":1400:1429   */\n      swap1\n      pop\n        /* \"#utility.yul\":1438:1481   */\n      tag_140\n        /* \"#utility.yul\":1475:1480   */\n      dup2\n        /* \"#utility.yul\":1438:1481   */\n      tag_141\n      jump\t// in\n    tag_140:\n        /* \"#utility.yul\":1390:1487   */\n      swap3\n      swap2\n      pop\n      pop\n      jump\t// out\n        /* \"#utility.yul\":1507:1780   */\n    tag_142:\n      0x00\n        /* \"#utility.yul\":1612:1615   */\n      dup3\n        /* \"#utility.yul\":1605:1609   */\n      0x1f\n        /* \"#utility.yul\":1597:1603   */\n      dup4\n        /* \"#utility.yul\":1593:1610   */\n      add\n        /* \"#utility.yul\":1589:1616   */\n      slt\n        /* \"#utility.yul\":1579:1581   */\n      tag_144\n      jumpi\n        /* \"#utility.yul\":1630:1631   */\n      0x00\n        /* \"#utility.yul\":1627:1628   */\n      dup1\n        /* \"#utility.yul\":1620:1632   */\n      revert\n        /* \"#utility.yul\":1579:1581   */\n    tag_144:\n        /* \"#utility.yul\":1670:1676   */\n      dup2\n        /* \"#utility.yul\":1657:1677   */\n      calldataload\n        /* \"#utility.yul\":1695:1774   */\n      tag_145\n        /* \"#utility.yul\":1770:1773   */\n      dup5\n        /* \"#utility.yul\":1762:1768   */\n      dup3\n        /* \"#utility.yul\":1755:1759   */\n      0x20\n        /* \"#utility.yul\":1747:1753   */\n      dup7\n        /* \"#utility.yul\":1743:1760   */\n      add\n        /* \"#utility.yul\":1695:1774   */\n      tag_126\n      jump\t// in\n    tag_145:\n        /* \"#utility.yul\":1686:1774   */\n      swap2\n      pop\n        /* \"#utility.yul\":1569:1780   */\n      pop\n      swap3\n      swap2\n      pop\n      pop\n      jump\t// out\n        /* \"#utility.yul\":1786:1925   */\n    tag_125:\n      0x00\n        /* \"#utility.yul\":1870:1876   */\n      dup2\n        /* \"#utility.yul\":1857:1877   */\n      calldataload\n        /* \"#utility.yul\":1848:1877   */\n      swap1\n      pop\n        /* \"#utility.yul\":1886:1919   */\n      tag_147\n        /* \"#utility.yul\":1913:1918   */\n      dup2\n        /* \"#utility.yul\":1886:1919   */\n      tag_148\n      jump\t// in\n    tag_147:\n        /* \"#utility.yul\":1838:1925   */\n      swap3\n      swap2\n      pop\n      pop\n      jump\t// out\n        /* \"#utility.yul\":1931:2193   */\n    tag_17:\n      0x00\n        /* \"#utility.yul\":2039:2041   */\n      0x20\n        /* \"#utility.yul\":2027:2036   */\n      dup3\n        /* \"#utility.yul\":2018:2025   */\n      dup5\n        /* \"#utility.yul\":2014:2037   */\n      sub\n        /* \"#utility.yul\":2010:2042   */\n      slt\n        /* \"#utility.yul\":2007:2009   */\n      iszero\n      tag_150\n      jumpi\n        /* \"#utility.yul\":2055:2056   */\n      0x00\n        /* \"#utility.yul\":2052:2053   */\n      dup1\n        /* \"#utility.yul\":2045:2057   */\n      revert\n        /* \"#utility.yul\":2007:2009   */\n    tag_150:\n        /* \"#utility.yul\":2098:2099   */\n      0x00\n        /* \"#utility.yul\":2123:2176   */\n      tag_151\n        /* \"#utility.yul\":2168:2175   */\n      dup5\n        /* \"#utility.yul\":2159:2165   */\n      dup3\n        /* \"#utility.yul\":2148:2157   */\n      dup6\n        /* \"#utility.yul\":2144:2166   */\n      add\n        /* \"#utility.yul\":2123:2176   */\n      tag_125\n      jump\t// in\n    tag_151:\n        /* \"#utility.yul\":2113:2176   */\n      swap2\n      pop\n        /* \"#utility.yul\":2069:2186   */\n      pop\n        /* \"#utility.yul\":1997:2193   */\n      swap3\n      swap2\n      pop\n      pop\n      jump\t// out\n        /* \"#utility.yul\":2199:3462   */\n    tag_23:\n      0x00\n      dup1\n      0x00\n      dup1\n      0x00\n        /* \"#utility.yul\":2445:2448   */\n      0xa0\n        /* \"#utility.yul\":2433:2442   */\n      dup7\n        /* \"#utility.yul\":2424:2431   */\n      dup9\n        /* \"#utility.yul\":2420:2443   */\n      sub\n        /* \"#utility.yul\":2416:2449   */\n      slt\n        /* \"#utility.yul\":2413:2415   */\n      iszero\n      tag_153\n      jumpi\n        /* \"#utility.yul\":2462:2463   */\n      0x00\n        /* \"#utility.yul\":2459:2460   */\n      dup1\n        /* \"#utility.yul\":2452:2464   */\n      revert\n        /* \"#utility.yul\":2413:2415   */\n    tag_153:\n        /* \"#utility.yul\":2505:2506   */\n      0x00\n        /* \"#utility.yul\":2530:2583   */\n      tag_154\n        /* \"#utility.yul\":2575:2582   */\n      dup9\n        /* \"#utility.yul\":2566:2572   */\n      dup3\n        /* \"#utility.yul\":2555:2564   */\n      dup10\n        /* \"#utility.yul\":2551:2573   */\n      add\n        /* \"#utility.yul\":2530:2583   */\n      tag_125\n      jump\t// in\n    tag_154:\n        /* \"#utility.yul\":2520:2583   */\n      swap6\n      pop\n        /* \"#utility.yul\":2476:2593   */\n      pop\n        /* \"#utility.yul\":2660:2662   */\n      0x20\n        /* \"#utility.yul\":2649:2658   */\n      dup7\n        /* \"#utility.yul\":2645:2663   */\n      add\n        /* \"#utility.yul\":2632:2664   */\n      calldataload\n        /* \"#utility.yul\":2691:2709   */\n      0xffffffffffffffff\n        /* \"#utility.yul\":2683:2689   */\n      dup2\n        /* \"#utility.yul\":2680:2710   */\n      gt\n        /* \"#utility.yul\":2677:2679   */\n      iszero\n      tag_155\n      jumpi\n        /* \"#utility.yul\":2723:2724   */\n      0x00\n        /* \"#utility.yul\":2720:2721   */\n      dup1\n        /* \"#utility.yul\":2713:2725   */\n      revert\n        /* \"#utility.yul\":2677:2679   */\n    tag_155:\n        /* \"#utility.yul\":2751:2814   */\n      tag_156\n        /* \"#utility.yul\":2806:2813   */\n      dup9\n        /* \"#utility.yul\":2797:2803   */\n      dup3\n        /* \"#utility.yul\":2786:2795   */\n      dup10\n        /* \"#utility.yul\":2782:2804   */\n      add\n        /* \"#utility.yul\":2751:2814   */\n      tag_142\n      jump\t// in\n    tag_156:\n        /* \"#utility.yul\":2741:2814   */\n      swap5\n      pop\n        /* \"#utility.yul\":2603:2824   */\n      pop\n        /* \"#utility.yul\":2863:2865   */\n      0x40\n        /* \"#utility.yul\":2889:2952   */\n      tag_157\n        /* \"#utility.yul\":2944:2951   */\n      dup9\n        /* \"#utility.yul\":2935:2941   */\n      dup3\n        /* \"#utility.yul\":2924:2933   */\n      dup10\n        /* \"#utility.yul\":2920:2942   */\n      add\n        /* \"#utility.yul\":2889:2952   */\n      tag_138\n      jump\t// in\n    tag_157:\n        /* \"#utility.yul\":2879:2952   */\n      swap4\n      pop\n        /* \"#utility.yul\":2834:2962   */\n      pop\n        /* \"#utility.yul\":3029:3031   */\n      0x60\n        /* \"#utility.yul\":3018:3027   */\n      dup7\n        /* \"#utility.yul\":3014:3032   */\n      add\n        /* \"#utility.yul\":3001:3033   */\n      calldataload\n        /* \"#utility.yul\":3060:3078   */\n      0xffffffffffffffff\n        /* \"#utility.yul\":3052:3058   */\n      dup2\n        /* \"#utility.yul\":3049:3079   */\n      gt\n        /* \"#utility.yul\":3046:3048   */\n      iszero\n      tag_158\n      jumpi\n        /* \"#utility.yul\":3092:3093   */\n      0x00\n        /* \"#utility.yul\":3089:3090   */\n      dup1\n        /* \"#utility.yul\":3082:3094   */\n      revert\n        /* \"#utility.yul\":3046:3048   */\n    tag_158:\n        /* \"#utility.yul\":3120:3198   */\n      tag_159\n        /* \"#utility.yul\":3190:3197   */\n      dup9\n        /* \"#utility.yul\":3181:3187   */\n      dup3\n        /* \"#utility.yul\":3170:3179   */\n      dup10\n        /* \"#utility.yul\":3166:3188   */\n      add\n        /* \"#utility.yul\":3120:3198   */\n      tag_134\n      jump\t// in\n    tag_159:\n        /* \"#utility.yul\":3110:3198   */\n      swap3\n      pop\n        /* \"#utility.yul\":2972:3208   */\n      pop\n        /* \"#utility.yul\":3275:3278   */\n      0x80\n        /* \"#utility.yul\":3264:3273   */\n      dup7\n        /* \"#utility.yul\":3260:3279   */\n      add\n        /* \"#utility.yul\":3247:3280   */\n      calldataload\n        /* \"#utility.yul\":3307:3325   */\n      0xffffffffffffffff\n        /* \"#utility.yul\":3299:3305   */\n      dup2\n        /* \"#utility.yul\":3296:3326   */\n      gt\n        /* \"#utility.yul\":3293:3295   */\n      iszero\n      tag_160\n      jumpi\n        /* \"#utility.yul\":3339:3340   */\n      0x00\n        /* \"#utility.yul\":3336:3337   */\n      dup1\n        /* \"#utility.yul\":3329:3341   */\n      revert\n        /* \"#utility.yul\":3293:3295   */\n    tag_160:\n        /* \"#utility.yul\":3367:3445   */\n      tag_161\n        /* \"#utility.yul\":3437:3444   */\n      dup9\n        /* \"#utility.yul\":3428:3434   */\n      dup3\n        /* \"#utility.yul\":3417:3426   */\n      dup10\n        /* \"#utility.yul\":3413:3435   */\n      add\n        /* \"#utility.yul\":3367:3445   */\n      tag_134\n      jump\t// in\n    tag_161:\n        /* \"#utility.yul\":3357:3445   */\n      swap2\n      pop\n        /* \"#utility.yul\":3218:3455   */\n      pop\n        /* \"#utility.yul\":2403:3462   */\n      swap3\n      swap6\n      pop\n      swap3\n      swap6\n      swap1\n      swap4\n      pop\n      jump\t// out\n        /* \"#utility.yul\":3468:3664   */\n    tag_162:\n      0x00\n        /* \"#utility.yul\":3592:3658   */\n      tag_164\n        /* \"#utility.yul\":3654:3657   */\n      dup4\n        /* \"#utility.yul\":3646:3652   */\n      dup4\n        /* \"#utility.yul\":3592:3658   */\n      tag_165\n      jump\t// in\n    tag_164:\n        /* \"#utility.yul\":3578:3658   */\n      swap1\n      pop\n        /* \"#utility.yul\":3568:3664   */\n      swap3\n      swap2\n      pop\n      pop\n      jump\t// out\n        /* \"#utility.yul\":3670:3849   */\n    tag_166:\n      0x00\n        /* \"#utility.yul\":3760:3806   */\n      tag_168\n        /* \"#utility.yul\":3802:3805   */\n      dup4\n        /* \"#utility.yul\":3794:3800   */\n      dup4\n        /* \"#utility.yul\":3760:3806   */\n      tag_169\n      jump\t// in\n    tag_168:\n        /* \"#utility.yul\":3838:3842   */\n      0x20\n        /* \"#utility.yul\":3833:3836   */\n      dup4\n        /* \"#utility.yul\":3829:3843   */\n      add\n        /* \"#utility.yul\":3815:3843   */\n      swap1\n      pop\n        /* \"#utility.yul\":3750:3849   */\n      swap3\n      swap2\n      pop\n      pop\n      jump\t// out\n        /* \"#utility.yul\":3883:4874   */\n    tag_170:\n      0x00\n        /* \"#utility.yul\":4051:4115   */\n      tag_172\n        /* \"#utility.yul\":4109:4114   */\n      dup3\n        /* \"#utility.yul\":4051:4115   */\n      tag_173\n      jump\t// in\n    tag_172:\n        /* \"#utility.yul\":4131:4227   */\n      tag_174\n        /* \"#utility.yul\":4220:4226   */\n      dup2\n        /* \"#utility.yul\":4215:4218   */\n      dup6\n        /* \"#utility.yul\":4131:4227   */\n      tag_175\n      jump\t// in\n    tag_174:\n        /* \"#utility.yul\":4124:4227   */\n      swap4\n      pop\n        /* \"#utility.yul\":4253:4256   */\n      dup4\n        /* \"#utility.yul\":4298:4302   */\n      0x20\n        /* \"#utility.yul\":4290:4296   */\n      dup3\n        /* \"#utility.yul\":4286:4303   */\n      mul\n        /* \"#utility.yul\":4281:4284   */\n      dup6\n        /* \"#utility.yul\":4277:4304   */\n      add\n        /* \"#utility.yul\":4328:4394   */\n      tag_176\n        /* \"#utility.yul\":4388:4393   */\n      dup6\n        /* \"#utility.yul\":4328:4394   */\n      tag_177\n      jump\t// in\n    tag_176:\n        /* \"#utility.yul\":4417:4424   */\n      dup1\n        /* \"#utility.yul\":4448:4449   */\n      0x00\n        /* \"#utility.yul\":4433:4829   */\n    tag_178:\n        /* \"#utility.yul\":4458:4464   */\n      dup6\n        /* \"#utility.yul\":4455:4456   */\n      dup2\n        /* \"#utility.yul\":4452:4465   */\n      lt\n        /* \"#utility.yul\":4433:4829   */\n      iszero\n      tag_180\n      jumpi\n        /* \"#utility.yul\":4529:4538   */\n      dup5\n        /* \"#utility.yul\":4523:4527   */\n      dup5\n        /* \"#utility.yul\":4519:4539   */\n      sub\n        /* \"#utility.yul\":4514:4517   */\n      dup10\n        /* \"#utility.yul\":4507:4540   */\n      mstore\n        /* \"#utility.yul\":4580:4586   */\n      dup2\n        /* \"#utility.yul\":4574:4587   */\n      mload\n        /* \"#utility.yul\":4608:4692   */\n      tag_181\n        /* \"#utility.yul\":4687:4691   */\n      dup6\n        /* \"#utility.yul\":4672:4685   */\n      dup3\n        /* \"#utility.yul\":4608:4692   */\n      tag_162\n      jump\t// in\n    tag_181:\n        /* \"#utility.yul\":4600:4692   */\n      swap5\n      pop\n        /* \"#utility.yul\":4715:4785   */\n      tag_182\n        /* \"#utility.yul\":4778:4784   */\n      dup4\n        /* \"#utility.yul\":4715:4785   */\n      tag_183\n      jump\t// in\n    tag_182:\n        /* \"#utility.yul\":4705:4785   */\n      swap3\n      pop\n        /* \"#utility.yul\":4814:4818   */\n      0x20\n        /* \"#utility.yul\":4809:4812   */\n      dup11\n        /* \"#utility.yul\":4805:4819   */\n      add\n        /* \"#utility.yul\":4798:4819   */\n      swap10\n      pop\n        /* \"#utility.yul\":4493:4829   */\n      pop\n        /* \"#utility.yul\":4480:4481   */\n      0x01\n        /* \"#utility.yul\":4477:4478   */\n      dup2\n        /* \"#utility.yul\":4473:4482   */\n      add\n        /* \"#utility.yul\":4468:4482   */\n      swap1\n      pop\n        /* \"#utility.yul\":4433:4829   */\n      jump(tag_178)\n    tag_180:\n        /* \"#utility.yul\":4437:4451   */\n      pop\n        /* \"#utility.yul\":4845:4849   */\n      dup3\n        /* \"#utility.yul\":4838:4849   */\n      swap8\n      pop\n        /* \"#utility.yul\":4865:4868   */\n      dup8\n        /* \"#utility.yul\":4858:4868   */\n      swap6\n      pop\n        /* \"#utility.yul\":4027:4874   */\n      pop\n      pop\n      pop\n      pop\n      pop\n      swap3\n      swap2\n      pop\n      pop\n      jump\t// out\n        /* \"#utility.yul\":4910:5642   */\n    tag_184:\n      0x00\n        /* \"#utility.yul\":5058:5112   */\n      tag_186\n        /* \"#utility.yul\":5106:5111   */\n      dup3\n        /* \"#utility.yul\":5058:5112   */\n      tag_187\n      jump\t// in\n    tag_186:\n        /* \"#utility.yul\":5128:5214   */\n      tag_188\n        /* \"#utility.yul\":5207:5213   */\n      dup2\n        /* \"#utility.yul\":5202:5205   */\n      dup6\n        /* \"#utility.yul\":5128:5214   */\n      tag_189\n      jump\t// in\n    tag_188:\n        /* \"#utility.yul\":5121:5214   */\n      swap4\n      pop\n        /* \"#utility.yul\":5238:5294   */\n      tag_190\n        /* \"#utility.yul\":5288:5293   */\n      dup4\n        /* \"#utility.yul\":5238:5294   */\n      tag_191\n      jump\t// in\n    tag_190:\n        /* \"#utility.yul\":5317:5324   */\n      dup1\n        /* \"#utility.yul\":5348:5349   */\n      0x00\n        /* \"#utility.yul\":5333:5617   */\n    tag_192:\n        /* \"#utility.yul\":5358:5364   */\n      dup4\n        /* \"#utility.yul\":5355:5356   */\n      dup2\n        /* \"#utility.yul\":5352:5365   */\n      lt\n        /* \"#utility.yul\":5333:5617   */\n      iszero\n      tag_194\n      jumpi\n        /* \"#utility.yul\":5434:5440   */\n      dup2\n        /* \"#utility.yul\":5428:5441   */\n      mload\n        /* \"#utility.yul\":5461:5524   */\n      tag_195\n        /* \"#utility.yul\":5520:5523   */\n      dup9\n        /* \"#utility.yul\":5505:5518   */\n      dup3\n        /* \"#utility.yul\":5461:5524   */\n      tag_166\n      jump\t// in\n    tag_195:\n        /* \"#utility.yul\":5454:5524   */\n      swap8\n      pop\n        /* \"#utility.yul\":5547:5607   */\n      tag_196\n        /* \"#utility.yul\":5600:5606   */\n      dup4\n        /* \"#utility.yul\":5547:5607   */\n      tag_197\n      jump\t// in\n    tag_196:\n        /* \"#utility.yul\":5537:5607   */\n      swap3\n      pop\n        /* \"#utility.yul\":5393:5617   */\n      pop\n        /* \"#utility.yul\":5380:5381   */\n      0x01\n        /* \"#utility.yul\":5377:5378   */\n      dup2\n        /* \"#utility.yul\":5373:5382   */\n      add\n        /* \"#utility.yul\":5368:5382   */\n      swap1\n      pop\n        /* \"#utility.yul\":5333:5617   */\n      jump(tag_192)\n    tag_194:\n        /* \"#utility.yul\":5337:5351   */\n      pop\n        /* \"#utility.yul\":5633:5636   */\n      dup6\n        /* \"#utility.yul\":5626:5636   */\n      swap4\n      pop\n        /* \"#utility.yul\":5034:5642   */\n      pop\n      pop\n      pop\n      swap3\n      swap2\n      pop\n      pop\n      jump\t// out\n        /* \"#utility.yul\":5648:5757   */\n    tag_198:\n        /* \"#utility.yul\":5729:5750   */\n      tag_200\n        /* \"#utility.yul\":5744:5749   */\n      dup2\n        /* \"#utility.yul\":5729:5750   */\n      tag_201\n      jump\t// in\n    tag_200:\n        /* \"#utility.yul\":5724:5727   */\n      dup3\n        /* \"#utility.yul\":5717:5751   */\n      mstore\n        /* \"#utility.yul\":5707:5757   */\n      pop\n      pop\n      jump\t// out\n        /* \"#utility.yul\":5763:6107   */\n    tag_165:\n      0x00\n        /* \"#utility.yul\":5869:5908   */\n      tag_203\n        /* \"#utility.yul\":5902:5907   */\n      dup3\n        /* \"#utility.yul\":5869:5908   */\n      tag_204\n      jump\t// in\n    tag_203:\n        /* \"#utility.yul\":5924:5985   */\n      tag_205\n        /* \"#utility.yul\":5978:5984   */\n      dup2\n        /* \"#utility.yul\":5973:5976   */\n      dup6\n        /* \"#utility.yul\":5924:5985   */\n      tag_206\n      jump\t// in\n    tag_205:\n        /* \"#utility.yul\":5917:5985   */\n      swap4\n      pop\n        /* \"#utility.yul\":5994:6046   */\n      tag_207\n        /* \"#utility.yul\":6039:6045   */\n      dup2\n        /* \"#utility.yul\":6034:6037   */\n      dup6\n        /* \"#utility.yul\":6027:6031   */\n      0x20\n        /* \"#utility.yul\":6020:6025   */\n      dup7\n        /* \"#utility.yul\":6016:6032   */\n      add\n        /* \"#utility.yul\":5994:6046   */\n      tag_208\n      jump\t// in\n    tag_207:\n        /* \"#utility.yul\":6071:6100   */\n      tag_209\n        /* \"#utility.yul\":6093:6099   */\n      dup2\n        /* \"#utility.yul\":6071:6100   */\n      tag_210\n      jump\t// in\n    tag_209:\n        /* \"#utility.yul\":6066:6069   */\n      dup5\n        /* \"#utility.yul\":6062:6101   */\n      add\n        /* \"#utility.yul\":6055:6101   */\n      swap2\n      pop\n        /* \"#utility.yul\":5845:6107   */\n      pop\n      swap3\n      swap2\n      pop\n      pop\n      jump\t// out\n        /* \"#utility.yul\":6113:6477   */\n    tag_211:\n      0x00\n        /* \"#utility.yul\":6229:6268   */\n      tag_213\n        /* \"#utility.yul\":6262:6267   */\n      dup3\n        /* \"#utility.yul\":6229:6268   */\n      tag_204\n      jump\t// in\n    tag_213:\n        /* \"#utility.yul\":6284:6355   */\n      tag_214\n        /* \"#utility.yul\":6348:6354   */\n      dup2\n        /* \"#utility.yul\":6343:6346   */\n      dup6\n        /* \"#utility.yul\":6284:6355   */\n      tag_215\n      jump\t// in\n    tag_214:\n        /* \"#utility.yul\":6277:6355   */\n      swap4\n      pop\n        /* \"#utility.yul\":6364:6416   */\n      tag_216\n        /* \"#utility.yul\":6409:6415   */\n      dup2\n        /* \"#utility.yul\":6404:6407   */\n      dup6\n        /* \"#utility.yul\":6397:6401   */\n      0x20\n        /* \"#utility.yul\":6390:6395   */\n      dup7\n        /* \"#utility.yul\":6386:6402   */\n      add\n        /* \"#utility.yul\":6364:6416   */\n      tag_208\n      jump\t// in\n    tag_216:\n        /* \"#utility.yul\":6441:6470   */\n      tag_217\n        /* \"#utility.yul\":6463:6469   */\n      dup2\n        /* \"#utility.yul\":6441:6470   */\n      tag_210\n      jump\t// in\n    tag_217:\n        /* \"#utility.yul\":6436:6439   */\n      dup5\n        /* \"#utility.yul\":6432:6471   */\n      add\n        /* \"#utility.yul\":6425:6471   */\n      swap2\n      pop\n        /* \"#utility.yul\":6205:6477   */\n      pop\n      swap3\n      swap2\n      pop\n      pop\n      jump\t// out\n        /* \"#utility.yul\":6483:6591   */\n    tag_169:\n        /* \"#utility.yul\":6560:6584   */\n      tag_219\n        /* \"#utility.yul\":6578:6583   */\n      dup2\n        /* \"#utility.yul\":6560:6584   */\n      tag_220\n      jump\t// in\n    tag_219:\n        /* \"#utility.yul\":6555:6558   */\n      dup3\n        /* \"#utility.yul\":6548:6585   */\n      mstore\n        /* \"#utility.yul\":6538:6591   */\n      pop\n      pop\n      jump\t// out\n        /* \"#utility.yul\":6597:6715   */\n    tag_221:\n        /* \"#utility.yul\":6684:6708   */\n      tag_223\n        /* \"#utility.yul\":6702:6707   */\n      dup2\n        /* \"#utility.yul\":6684:6708   */\n      tag_220\n      jump\t// in\n    tag_223:\n        /* \"#utility.yul\":6679:6682   */\n      dup3\n        /* \"#utility.yul\":6672:6709   */\n      mstore\n        /* \"#utility.yul\":6662:6715   */\n      pop\n      pop\n      jump\t// out\n        /* \"#utility.yul\":6721:7134   */\n    tag_14:\n      0x00\n        /* \"#utility.yul\":6922:6924   */\n      0x20\n        /* \"#utility.yul\":6911:6920   */\n      dup3\n        /* \"#utility.yul\":6907:6925   */\n      add\n        /* \"#utility.yul\":6899:6925   */\n      swap1\n      pop\n        /* \"#utility.yul\":6971:6980   */\n      dup2\n        /* \"#utility.yul\":6965:6969   */\n      dup2\n        /* \"#utility.yul\":6961:6981   */\n      sub\n        /* \"#utility.yul\":6957:6958   */\n      0x00\n        /* \"#utility.yul\":6946:6955   */\n      dup4\n        /* \"#utility.yul\":6942:6959   */\n      add\n        /* \"#utility.yul\":6935:6982   */\n      mstore\n        /* \"#utility.yul\":6999:7127   */\n      tag_225\n        /* \"#utility.yul\":7122:7126   */\n      dup2\n        /* \"#utility.yul\":7113:7119   */\n      dup5\n        /* \"#utility.yul\":6999:7127   */\n      tag_170\n      jump\t// in\n    tag_225:\n        /* \"#utility.yul\":6991:7127   */\n      swap1\n      pop\n        /* \"#utility.yul\":6889:7134   */\n      swap3\n      swap2\n      pop\n      pop\n      jump\t// out\n        /* \"#utility.yul\":7140:7513   */\n    tag_28:\n      0x00\n        /* \"#utility.yul\":7321:7323   */\n      0x20\n        /* \"#utility.yul\":7310:7319   */\n      dup3\n        /* \"#utility.yul\":7306:7324   */\n      add\n        /* \"#utility.yul\":7298:7324   */\n      swap1\n      pop\n        /* \"#utility.yul\":7370:7379   */\n      dup2\n        /* \"#utility.yul\":7364:7368   */\n      dup2\n        /* \"#utility.yul\":7360:7380   */\n      sub\n        /* \"#utility.yul\":7356:7357   */\n      0x00\n        /* \"#utility.yul\":7345:7354   */\n      dup4\n        /* \"#utility.yul\":7341:7358   */\n      add\n        /* \"#utility.yul\":7334:7381   */\n      mstore\n        /* \"#utility.yul\":7398:7506   */\n      tag_227\n        /* \"#utility.yul\":7501:7505   */\n      dup2\n        /* \"#utility.yul\":7492:7498   */\n      dup5\n        /* \"#utility.yul\":7398:7506   */\n      tag_184\n      jump\t// in\n    tag_227:\n        /* \"#utility.yul\":7390:7506   */\n      swap1\n      pop\n        /* \"#utility.yul\":7288:7513   */\n      swap3\n      swap2\n      pop\n      pop\n      jump\t// out\n        /* \"#utility.yul\":7519:7729   */\n    tag_38:\n      0x00\n        /* \"#utility.yul\":7644:7646   */\n      0x20\n        /* \"#utility.yul\":7633:7642   */\n      dup3\n        /* \"#utility.yul\":7629:7647   */\n      add\n        /* \"#utility.yul\":7621:7647   */\n      swap1\n      pop\n        /* \"#utility.yul\":7657:7722   */\n      tag_229\n        /* \"#utility.yul\":7719:7720   */\n      0x00\n        /* \"#utility.yul\":7708:7717   */\n      dup4\n        /* \"#utility.yul\":7704:7721   */\n      add\n        /* \"#utility.yul\":7695:7701   */\n      dup5\n        /* \"#utility.yul\":7657:7722   */\n      tag_198\n      jump\t// in\n    tag_229:\n        /* \"#utility.yul\":7611:7729   */\n      swap3\n      swap2\n      pop\n      pop\n      jump\t// out\n        /* \"#utility.yul\":7735:8048   */\n    tag_20:\n      0x00\n        /* \"#utility.yul\":7886:7888   */\n      0x20\n        /* \"#utility.yul\":7875:7884   */\n      dup3\n        /* \"#utility.yul\":7871:7889   */\n      add\n        /* \"#utility.yul\":7863:7889   */\n      swap1\n      pop\n        /* \"#utility.yul\":7935:7944   */\n      dup2\n        /* \"#utility.yul\":7929:7933   */\n      dup2\n        /* \"#utility.yul\":7925:7945   */\n      sub\n        /* \"#utility.yul\":7921:7922   */\n      0x00\n        /* \"#utility.yul\":7910:7919   */\n      dup4\n        /* \"#utility.yul\":7906:7923   */\n      add\n        /* \"#utility.yul\":7899:7946   */\n      mstore\n        /* \"#utility.yul\":7963:8041   */\n      tag_231\n        /* \"#utility.yul\":8036:8040   */\n      dup2\n        /* \"#utility.yul\":8027:8033   */\n      dup5\n        /* \"#utility.yul\":7963:8041   */\n      tag_211\n      jump\t// in\n    tag_231:\n        /* \"#utility.yul\":7955:8041   */\n      swap1\n      pop\n        /* \"#utility.yul\":7853:8048   */\n      swap3\n      swap2\n      pop\n      pop\n      jump\t// out\n        /* \"#utility.yul\":8054:8276   */\n    tag_33:\n      0x00\n        /* \"#utility.yul\":8185:8187   */\n      0x20\n        /* \"#utility.yul\":8174:8183   */\n      dup3\n        /* \"#utility.yul\":8170:8188   */\n      add\n        /* \"#utility.yul\":8162:8188   */\n      swap1\n      pop\n        /* \"#utility.yul\":8198:8269   */\n      tag_233\n        /* \"#utility.yul\":8266:8267   */\n      0x00\n        /* \"#utility.yul\":8255:8264   */\n      dup4\n        /* \"#utility.yul\":8251:8268   */\n      add\n        /* \"#utility.yul\":8242:8248   */\n      dup5\n        /* \"#utility.yul\":8198:8269   */\n      tag_221\n      jump\t// in\n    tag_233:\n        /* \"#utility.yul\":8152:8276   */\n      swap3\n      swap2\n      pop\n      pop\n      jump\t// out\n        /* \"#utility.yul\":8282:8565   */\n    tag_119:\n      0x00\n        /* \"#utility.yul\":8348:8350   */\n      0x40\n        /* \"#utility.yul\":8342:8351   */\n      mload\n        /* \"#utility.yul\":8332:8351   */\n      swap1\n      pop\n        /* \"#utility.yul\":8390:8394   */\n      dup2\n        /* \"#utility.yul\":8382:8388   */\n      dup2\n        /* \"#utility.yul\":8378:8395   */\n      add\n        /* \"#utility.yul\":8497:8503   */\n      dup2\n        /* \"#utility.yul\":8485:8495   */\n      dup2\n        /* \"#utility.yul\":8482:8504   */\n      lt\n        /* \"#utility.yul\":8461:8479   */\n      0xffffffffffffffff\n        /* \"#utility.yul\":8449:8459   */\n      dup3\n        /* \"#utility.yul\":8446:8480   */\n      gt\n        /* \"#utility.yul\":8443:8505   */\n      or\n        /* \"#utility.yul\":8440:8442   */\n      iszero\n      tag_235\n      jumpi\n        /* \"#utility.yul\":8508:8526   */\n      tag_236\n      tag_237\n      jump\t// in\n    tag_236:\n        /* \"#utility.yul\":8440:8442   */\n    tag_235:\n        /* \"#utility.yul\":8548:8558   */\n      dup1\n        /* \"#utility.yul\":8544:8546   */\n      0x40\n        /* \"#utility.yul\":8537:8559   */\n      mstore\n        /* \"#utility.yul\":8322:8565   */\n      pop\n      swap2\n      swap1\n      pop\n      jump\t// out\n        /* \"#utility.yul\":8571:8882   */\n    tag_118:\n      0x00\n        /* \"#utility.yul\":8738:8756   */\n      0xffffffffffffffff\n        /* \"#utility.yul\":8730:8736   */\n      dup3\n        /* \"#utility.yul\":8727:8757   */\n      gt\n        /* \"#utility.yul\":8724:8726   */\n      iszero\n      tag_239\n      jumpi\n        /* \"#utility.yul\":8760:8778   */\n      tag_240\n      tag_237\n      jump\t// in\n    tag_240:\n        /* \"#utility.yul\":8724:8726   */\n    tag_239:\n        /* \"#utility.yul\":8810:8814   */\n      0x20\n        /* \"#utility.yul\":8802:8808   */\n      dup3\n        /* \"#utility.yul\":8798:8815   */\n      mul\n        /* \"#utility.yul\":8790:8815   */\n      swap1\n      pop\n        /* \"#utility.yul\":8870:8874   */\n      0x20\n        /* \"#utility.yul\":8864:8868   */\n      dup2\n        /* \"#utility.yul\":8860:8875   */\n      add\n        /* \"#utility.yul\":8852:8875   */\n      swap1\n      pop\n        /* \"#utility.yul\":8653:8882   */\n      swap2\n      swap1\n      pop\n      jump\t// out\n        /* \"#utility.yul\":8888:9220   */\n    tag_130:\n      0x00\n        /* \"#utility.yul\":9040:9058   */\n      0xffffffffffffffff\n        /* \"#utility.yul\":9032:9038   */\n      dup3\n        /* \"#utility.yul\":9029:9059   */\n      gt\n        /* \"#utility.yul\":9026:9028   */\n      iszero\n      tag_242\n      jumpi\n        /* \"#utility.yul\":9062:9080   */\n      tag_243\n      tag_237\n      jump\t// in\n    tag_243:\n        /* \"#utility.yul\":9026:9028   */\n    tag_242:\n        /* \"#utility.yul\":9147:9151   */\n      0x1f\n        /* \"#utility.yul\":9143:9152   */\n      not\n        /* \"#utility.yul\":9136:9140   */\n      0x1f\n        /* \"#utility.yul\":9128:9134   */\n      dup4\n        /* \"#utility.yul\":9124:9141   */\n      add\n        /* \"#utility.yul\":9120:9153   */\n      and\n        /* \"#utility.yul\":9112:9153   */\n      swap1\n      pop\n        /* \"#utility.yul\":9208:9212   */\n      0x20\n        /* \"#utility.yul\":9202:9206   */\n      dup2\n        /* \"#utility.yul\":9198:9213   */\n      add\n        /* \"#utility.yul\":9190:9213   */\n      swap1\n      pop\n        /* \"#utility.yul\":8955:9220   */\n      swap2\n      swap1\n      pop\n      jump\t// out\n        /* \"#utility.yul\":9226:9368   */\n    tag_177:\n      0x00\n        /* \"#utility.yul\":9326:9329   */\n      dup2\n        /* \"#utility.yul\":9318:9329   */\n      swap1\n      pop\n        /* \"#utility.yul\":9356:9360   */\n      0x20\n        /* \"#utility.yul\":9351:9354   */\n      dup3\n        /* \"#utility.yul\":9347:9361   */\n      add\n        /* \"#utility.yul\":9339:9361   */\n      swap1\n      pop\n        /* \"#utility.yul\":9308:9368   */\n      swap2\n      swap1\n      pop\n      jump\t// out\n        /* \"#utility.yul\":9374:9506   */\n    tag_191:\n      0x00\n        /* \"#utility.yul\":9464:9467   */\n      dup2\n        /* \"#utility.yul\":9456:9467   */\n      swap1\n      pop\n        /* \"#utility.yul\":9494:9498   */\n      0x20\n        /* \"#utility.yul\":9489:9492   */\n      dup3\n        /* \"#utility.yul\":9485:9499   */\n      add\n        /* \"#utility.yul\":9477:9499   */\n      swap1\n      pop\n        /* \"#utility.yul\":9446:9506   */\n      swap2\n      swap1\n      pop\n      jump\t// out\n        /* \"#utility.yul\":9512:9636   */\n    tag_173:\n      0x00\n        /* \"#utility.yul\":9623:9628   */\n      dup2\n        /* \"#utility.yul\":9617:9629   */\n      mload\n        /* \"#utility.yul\":9607:9629   */\n      swap1\n      pop\n        /* \"#utility.yul\":9596:9636   */\n      swap2\n      swap1\n      pop\n      jump\t// out\n        /* \"#utility.yul\":9642:9756   */\n    tag_187:\n      0x00\n        /* \"#utility.yul\":9743:9748   */\n      dup2\n        /* \"#utility.yul\":9737:9749   */\n      mload\n        /* \"#utility.yul\":9727:9749   */\n      swap1\n      pop\n        /* \"#utility.yul\":9716:9756   */\n      swap2\n      swap1\n      pop\n      jump\t// out\n        /* \"#utility.yul\":9762:9861   */\n    tag_204:\n      0x00\n        /* \"#utility.yul\":9848:9853   */\n      dup2\n        /* \"#utility.yul\":9842:9854   */\n      mload\n        /* \"#utility.yul\":9832:9854   */\n      swap1\n      pop\n        /* \"#utility.yul\":9821:9861   */\n      swap2\n      swap1\n      pop\n      jump\t// out\n        /* \"#utility.yul\":9867:9990   */\n    tag_183:\n      0x00\n        /* \"#utility.yul\":9979:9983   */\n      0x20\n        /* \"#utility.yul\":9974:9977   */\n      dup3\n        /* \"#utility.yul\":9970:9984   */\n      add\n        /* \"#utility.yul\":9962:9984   */\n      swap1\n      pop\n        /* \"#utility.yul\":9952:9990   */\n      swap2\n      swap1\n      pop\n      jump\t// out\n        /* \"#utility.yul\":9996:10109   */\n    tag_197:\n      0x00\n        /* \"#utility.yul\":10098:10102   */\n      0x20\n        /* \"#utility.yul\":10093:10096   */\n      dup3\n        /* \"#utility.yul\":10089:10103   */\n      add\n        /* \"#utility.yul\":10081:10103   */\n      swap1\n      pop\n        /* \"#utility.yul\":10071:10109   */\n      swap2\n      swap1\n      pop\n      jump\t// out\n        /* \"#utility.yul\":10115:10309   */\n    tag_175:\n      0x00\n        /* \"#utility.yul\":10258:10264   */\n      dup3\n        /* \"#utility.yul\":10253:10256   */\n      dup3\n        /* \"#utility.yul\":10246:10265   */\n      mstore\n        /* \"#utility.yul\":10298:10302   */\n      0x20\n        /* \"#utility.yul\":10293:10296   */\n      dup3\n        /* \"#utility.yul\":10289:10303   */\n      add\n        /* \"#utility.yul\":10274:10303   */\n      swap1\n      pop\n        /* \"#utility.yul\":10236:10309   */\n      swap3\n      swap2\n      pop\n      pop\n      jump\t// out\n        /* \"#utility.yul\":10315:10499   */\n    tag_189:\n      0x00\n        /* \"#utility.yul\":10448:10454   */\n      dup3\n        /* \"#utility.yul\":10443:10446   */\n      dup3\n        /* \"#utility.yul\":10436:10455   */\n      mstore\n        /* \"#utility.yul\":10488:10492   */\n      0x20\n        /* \"#utility.yul\":10483:10486   */\n      dup3\n        /* \"#utility.yul\":10479:10493   */\n      add\n        /* \"#utility.yul\":10464:10493   */\n      swap1\n      pop\n        /* \"#utility.yul\":10426:10499   */\n      swap3\n      swap2\n      pop\n      pop\n      jump\t// out\n        /* \"#utility.yul\":10505:10664   */\n    tag_206:\n      0x00\n        /* \"#utility.yul\":10613:10619   */\n      dup3\n        /* \"#utility.yul\":10608:10611   */\n      dup3\n        /* \"#utility.yul\":10601:10620   */\n      mstore\n        /* \"#utility.yul\":10653:10657   */\n      0x20\n        /* \"#utility.yul\":10648:10651   */\n      dup3\n        /* \"#utility.yul\":10644:10658   */\n      add\n        /* \"#utility.yul\":10629:10658   */\n      swap1\n      pop\n        /* \"#utility.yul\":10591:10664   */\n      swap3\n      swap2\n      pop\n      pop\n      jump\t// out\n        /* \"#utility.yul\":10670:10839   */\n    tag_215:\n      0x00\n        /* \"#utility.yul\":10788:10794   */\n      dup3\n        /* \"#utility.yul\":10783:10786   */\n      dup3\n        /* \"#utility.yul\":10776:10795   */\n      mstore\n        /* \"#utility.yul\":10828:10832   */\n      0x20\n        /* \"#utility.yul\":10823:10826   */\n      dup3\n        /* \"#utility.yul\":10819:10833   */\n      add\n        /* \"#utility.yul\":10804:10833   */\n      swap1\n      pop\n        /* \"#utility.yul\":10766:10839   */\n      swap3\n      swap2\n      pop\n      pop\n      jump\t// out\n        /* \"#utility.yul\":10845:10935   */\n    tag_201:\n      0x00\n        /* \"#utility.yul\":10922:10927   */\n      dup2\n        /* \"#utility.yul\":10915:10928   */\n      iszero\n        /* \"#utility.yul\":10908:10929   */\n      iszero\n        /* \"#utility.yul\":10897:10929   */\n      swap1\n      pop\n        /* \"#utility.yul\":10887:10935   */\n      swap2\n      swap1\n      pop\n      jump\t// out\n        /* \"#utility.yul\":10941:11018   */\n    tag_220:\n      0x00\n        /* \"#utility.yul\":11007:11012   */\n      dup2\n        /* \"#utility.yul\":10996:11012   */\n      swap1\n      pop\n        /* \"#utility.yul\":10986:11018   */\n      swap2\n      swap1\n      pop\n      jump\t// out\n        /* \"#utility.yul\":11024:11178   */\n    tag_133:\n        /* \"#utility.yul\":11108:11114   */\n      dup3\n        /* \"#utility.yul\":11103:11106   */\n      dup2\n        /* \"#utility.yul\":11098:11101   */\n      dup4\n        /* \"#utility.yul\":11085:11115   */\n      calldatacopy\n        /* \"#utility.yul\":11170:11171   */\n      0x00\n        /* \"#utility.yul\":11161:11167   */\n      dup4\n        /* \"#utility.yul\":11156:11159   */\n      dup4\n        /* \"#utility.yul\":11152:11168   */\n      add\n        /* \"#utility.yul\":11145:11172   */\n      mstore\n        /* \"#utility.yul\":11075:11178   */\n      pop\n      pop\n      pop\n      jump\t// out\n        /* \"#utility.yul\":11184:11491   */\n    tag_208:\n        /* \"#utility.yul\":11252:11253   */\n      0x00\n        /* \"#utility.yul\":11262:11375   */\n    tag_259:\n        /* \"#utility.yul\":11276:11282   */\n      dup4\n        /* \"#utility.yul\":11273:11274   */\n      dup2\n        /* \"#utility.yul\":11270:11283   */\n      lt\n        /* \"#utility.yul\":11262:11375   */\n      iszero\n      tag_261\n      jumpi\n        /* \"#utility.yul\":11361:11362   */\n      dup1\n        /* \"#utility.yul\":11356:11359   */\n      dup3\n        /* \"#utility.yul\":11352:11363   */\n      add\n        /* \"#utility.yul\":11346:11364   */\n      mload\n        /* \"#utility.yul\":11342:11343   */\n      dup2\n        /* \"#utility.yul\":11337:11340   */\n      dup5\n        /* \"#utility.yul\":11333:11344   */\n      add\n        /* \"#utility.yul\":11326:11365   */\n      mstore\n        /* \"#utility.yul\":11298:11300   */\n      0x20\n        /* \"#utility.yul\":11295:11296   */\n      dup2\n        /* \"#utility.yul\":11291:11301   */\n      add\n        /* \"#utility.yul\":11286:11301   */\n      swap1\n      pop\n        /* \"#utility.yul\":11262:11375   */\n      jump(tag_259)\n    tag_261:\n        /* \"#utility.yul\":11393:11399   */\n      dup4\n        /* \"#utility.yul\":11390:11391   */\n      dup2\n        /* \"#utility.yul\":11387:11400   */\n      gt\n        /* \"#utility.yul\":11384:11386   */\n      iszero\n      tag_262\n      jumpi\n        /* \"#utility.yul\":11473:11474   */\n      0x00\n        /* \"#utility.yul\":11464:11470   */\n      dup5\n        /* \"#utility.yul\":11459:11462   */\n      dup5\n        /* \"#utility.yul\":11455:11471   */\n      add\n        /* \"#utility.yul\":11448:11475   */\n      mstore\n        /* \"#utility.yul\":11384:11386   */\n    tag_262:\n        /* \"#utility.yul\":11233:11491   */\n      pop\n      pop\n      pop\n      pop\n      jump\t// out\n        /* \"#utility.yul\":11497:11817   */\n    tag_48:\n      0x00\n        /* \"#utility.yul\":11578:11579   */\n      0x02\n        /* \"#utility.yul\":11572:11576   */\n      dup3\n        /* \"#utility.yul\":11568:11580   */\n      div\n        /* \"#utility.yul\":11558:11580   */\n      swap1\n      pop\n        /* \"#utility.yul\":11625:11626   */\n      0x01\n        /* \"#utility.yul\":11619:11623   */\n      dup3\n        /* \"#utility.yul\":11615:11627   */\n      and\n        /* \"#utility.yul\":11646:11664   */\n      dup1\n        /* \"#utility.yul\":11636:11638   */\n      tag_264\n      jumpi\n        /* \"#utility.yul\":11702:11706   */\n      0x7f\n        /* \"#utility.yul\":11694:11700   */\n      dup3\n        /* \"#utility.yul\":11690:11707   */\n      and\n        /* \"#utility.yul\":11680:11707   */\n      swap2\n      pop\n        /* \"#utility.yul\":11636:11638   */\n    tag_264:\n        /* \"#utility.yul\":11764:11766   */\n      0x20\n        /* \"#utility.yul\":11756:11762   */\n      dup3\n        /* \"#utility.yul\":11753:11767   */\n      lt\n        /* \"#utility.yul\":11733:11751   */\n      dup2\n        /* \"#utility.yul\":11730:11768   */\n      eq\n        /* \"#utility.yul\":11727:11729   */\n      iszero\n      tag_265\n      jumpi\n        /* \"#utility.yul\":11783:11801   */\n      tag_266\n      tag_267\n      jump\t// in\n    tag_266:\n        /* \"#utility.yul\":11727:11729   */\n    tag_265:\n        /* \"#utility.yul\":11548:11817   */\n      pop\n      swap2\n      swap1\n      pop\n      jump\t// out\n        /* \"#utility.yul\":11823:12003   */\n    tag_267:\n        /* \"#utility.yul\":11871:11948   */\n      0x4e487b7100000000000000000000000000000000000000000000000000000000\n        /* \"#utility.yul\":11868:11869   */\n      0x00\n        /* \"#utility.yul\":11861:11949   */\n      mstore\n        /* \"#utility.yul\":11968:11972   */\n      0x22\n        /* \"#utility.yul\":11965:11966   */\n      0x04\n        /* \"#utility.yul\":11958:11973   */\n      mstore\n        /* \"#utility.yul\":11992:11996   */\n      0x24\n        /* \"#utility.yul\":11989:11990   */\n      0x00\n        /* \"#utility.yul\":11982:11997   */\n      revert\n        /* \"#utility.yul\":12009:12189   */\n    tag_237:\n        /* \"#utility.yul\":12057:12134   */\n      0x4e487b7100000000000000000000000000000000000000000000000000000000\n        /* \"#utility.yul\":12054:12055   */\n      0x00\n        /* \"#utility.yul\":12047:12135   */\n      mstore\n        /* \"#utility.yul\":12154:12158   */\n      0x41\n        /* \"#utility.yul\":12151:12152   */\n      0x04\n        /* \"#utility.yul\":12144:12159   */\n      mstore\n        /* \"#utility.yul\":12178:12182   */\n      0x24\n        /* \"#utility.yul\":12175:12176   */\n      0x00\n        /* \"#utility.yul\":12168:12183   */\n      revert\n        /* \"#utility.yul\":12195:12297   */\n    tag_210:\n      0x00\n        /* \"#utility.yul\":12287:12289   */\n      0x1f\n        /* \"#utility.yul\":12283:12290   */\n      not\n        /* \"#utility.yul\":12278:12280   */\n      0x1f\n        /* \"#utility.yul\":12271:12276   */\n      dup4\n        /* \"#utility.yul\":12267:12281   */\n      add\n        /* \"#utility.yul\":12263:12291   */\n      and\n        /* \"#utility.yul\":12253:12291   */\n      swap1\n      pop\n        /* \"#utility.yul\":12243:12297   */\n      swap2\n      swap1\n      pop\n      jump\t// out\n        /* \"#utility.yul\":12303:12412   */\n    tag_141:\n        /* \"#utility.yul\":12386:12387   */\n      0x04\n        /* \"#utility.yul\":12379:12384   */\n      dup2\n        /* \"#utility.yul\":12376:12388   */\n      lt\n        /* \"#utility.yul\":12366:12368   */\n      tag_272\n      jumpi\n        /* \"#utility.yul\":12402:12403   */\n      0x00\n        /* \"#utility.yul\":12399:12400   */\n      dup1\n        /* \"#utility.yul\":12392:12404   */\n      revert\n        /* \"#utility.yul\":12366:12368   */\n    tag_272:\n        /* \"#utility.yul\":12356:12412   */\n      pop\n      jump\t// out\n        /* \"#utility.yul\":12418:12540   */\n    tag_148:\n        /* \"#utility.yul\":12491:12515   */\n      tag_274\n        /* \"#utility.yul\":12509:12514   */\n      dup2\n        /* \"#utility.yul\":12491:12515   */\n      tag_220\n      jump\t// in\n    tag_274:\n        /* \"#utility.yul\":12484:12489   */\n      dup2\n        /* \"#utility.yul\":12481:12516   */\n      eq\n        /* \"#utility.yul\":12471:12473   */\n      tag_275\n      jumpi\n        /* \"#utility.yul\":12530:12531   */\n      0x00\n        /* \"#utility.yul\":12527:12528   */\n      dup1\n        /* \"#utility.yul\":12520:12532   */\n      revert\n        /* \"#utility.yul\":12471:12473   */\n    tag_275:\n        /* \"#utility.yul\":12461:12540   */\n      pop\n      jump\t// out\n\n    auxdata: 0xa2646970667358221220349b03bd05e2a987c867760520045dbd4a4cd7a61b3f29e95e7149168d03a2c364736f6c63430008000033\n}\n","bytecode":{"linkReferences":{},"object":"608060405234801561001057600080fd5b50610ff2806100206000396000f3fe608060405234801561001057600080fd5b506004361061007d5760003560e01c8063909e4ab61161005b578063909e4ab6146100ec578063957941571461010a5780639849cee91461013a578063993c04101461016a5761007d565b80634d60f6511461008257806361ea18df146100a057806372a598cc146100d0575b600080fd5b61008a61019a565b6040516100979190610cd4565b60405180910390f35b6100ba60048036038101906100b59190610a4e565b610273565b6040516100c79190610d33565b60405180910390f35b6100ea60048036038101906100e59190610a77565b61031f565b005b6100f4610470565b6040516101019190610cf6565b60405180910390f35b610124600480360381019061011f9190610a4e565b6104c8565b6040516101319190610d55565b60405180910390f35b610154600480360381019061014f9190610a4e565b6104ec565b6040516101619190610d18565b60405180910390f35b610184600480360381019061017f9190610a4e565b610518565b6040516101919190610d18565b60405180910390f35b60606002805480602002602001604051908101604052809291908181526020016000905b8282101561026a5783829060005260206000200180546101dd90610ef4565b80601f016020809104026020016040519081016040528092919081815260200182805461020990610ef4565b80156102565780601f1061022b57610100808354040283529160200191610256565b820191906000526020600020905b81548152906001019060200180831161023957829003601f168201915b5050505050815260200190600101906101be565b50505050905090565b6002818154811061028357600080fd5b90600052602060002001600091509050805461029e90610ef4565b80601f01602080910402602001604051908101604052809291908181526020018280546102ca90610ef4565b80156103175780601f106102ec57610100808354040283529160200191610317565b820191906000526020600020905b8154815290600101906020018083116102fa57829003601f168201915b505050505081565b60006040518060a00160405280600015158152602001868152602001856003811115610374577f4e487b7100000000000000000000000000000000000000000000000000000000600052602160045260246000fd5b81526020018481526020018381525090508060008088815260200190815260200160002060008201518160000160006101000a81548160ff02191690831515021790555060208201518160010190805190602001906103d49291906107a9565b5060408201518160020160006101000a81548160ff02191690836003811115610426577f4e487b7100000000000000000000000000000000000000000000000000000000600052602160045260246000fd5b0217905550606082015181600301908051906020019061044792919061082f565b50608082015181600401908051906020019061046492919061082f565b50905050505050505050565b606060018054806020026020016040519081016040528092919081815260200182805480156104be57602002820191906000526020600020905b8154815260200190600101908083116104aa575b5050505050905090565b600181815481106104d857600080fd5b906000526020600020016000915090505481565b600080600083815260200190815260200160002060000160009054906101000a900460ff169050919050565b60008060008084815260200190815260200160002060030180548060200260200160405190810160405280929190818152602001828054801561057a57602002820191906000526020600020905b815481526020019060010190808311610566575b50505050509050600081511415610594576001915061068c565b600060038111156105ce577f4e487b7100000000000000000000000000000000000000000000000000000000600052602160045260246000fd5b60008085815260200190815260200160002060020160009054906101000a900460ff166003811115610629577f4e487b7100000000000000000000000000000000000000000000000000000000600052602160045260246000fd5b141561068b576001151561067d82600081518110610670577f4e487b7100000000000000000000000000000000000000000000000000000000600052603260045260246000fd5b60200260200101516104ec565b1515141561068a57600191505b5b5b811561077257600160008085815260200190815260200160002060000160006101000a81548160ff021916908315150217905550600183908060018154018082558091505060019003906000526020600020016000909190919091505560026000808581526020019081526020016000206001019080600181540180825580915050600190039060005260206000200160009091909190915090805461073190610ef4565b61073c92919061087c565b50600115157facd30b4f9fd5868793e13ffb506f03374a23d9feba1249ac2cc7b0fe024ff4ba60405160405180910390a26107a3565b600015157facd30b4f9fd5868793e13ffb506f03374a23d9feba1249ac2cc7b0fe024ff4ba60405160405180910390a25b50919050565b8280546107b590610ef4565b90600052602060002090601f0160209004810192826107d7576000855561081e565b82601f106107f057805160ff191683800117855561081e565b8280016001018555821561081e579182015b8281111561081d578251825591602001919060010190610802565b5b50905061082b9190610909565b5090565b82805482825590600052602060002090810192821561086b579160200282015b8281111561086a57825182559160200191906001019061084f565b5b5090506108789190610909565b5090565b82805461088890610ef4565b90600052602060002090601f0160209004810192826108aa57600085556108f8565b82601f106108bb57805485556108f8565b828001600101855582156108f857600052602060002091601f016020900482015b828111156108f75782548255916001019190600101906108dc565b5b5090506109059190610909565b5090565b5b8082111561092257600081600090555060010161090a565b5090565b600061093961093484610da1565b610d70565b9050808382526020820190508285602086028201111561095857600080fd5b60005b85811015610988578161096e8882610a39565b84526020840193506020830192505060018101905061095b565b5050509392505050565b60006109a56109a084610dcd565b610d70565b9050828152602081018484840111156109bd57600080fd5b6109c8848285610eb2565b509392505050565b600082601f8301126109e157600080fd5b81356109f1848260208601610926565b91505092915050565b600081359050610a0981610f95565b92915050565b600082601f830112610a2057600080fd5b8135610a30848260208601610992565b91505092915050565b600081359050610a4881610fa5565b92915050565b600060208284031215610a6057600080fd5b6000610a6e84828501610a39565b91505092915050565b600080600080600060a08688031215610a8f57600080fd5b6000610a9d88828901610a39565b955050602086013567ffffffffffffffff811115610aba57600080fd5b610ac688828901610a0f565b9450506040610ad7888289016109fa565b935050606086013567ffffffffffffffff811115610af457600080fd5b610b00888289016109d0565b925050608086013567ffffffffffffffff811115610b1d57600080fd5b610b29888289016109d0565b9150509295509295909350565b6000610b428383610c44565b905092915050565b6000610b568383610cb6565b60208301905092915050565b6000610b6d82610e1d565b610b778185610e58565b935083602082028501610b8985610dfd565b8060005b85811015610bc55784840389528151610ba68582610b36565b9450610bb183610e3e565b925060208a01995050600181019050610b8d565b50829750879550505050505092915050565b6000610be282610e28565b610bec8185610e69565b9350610bf783610e0d565b8060005b83811015610c28578151610c0f8882610b4a565b9750610c1a83610e4b565b925050600181019050610bfb565b5085935050505092915050565b610c3e81610e9c565b82525050565b6000610c4f82610e33565b610c598185610e7a565b9350610c69818560208601610ec1565b610c7281610f84565b840191505092915050565b6000610c8882610e33565b610c928185610e8b565b9350610ca2818560208601610ec1565b610cab81610f84565b840191505092915050565b610cbf81610ea8565b82525050565b610cce81610ea8565b82525050565b60006020820190508181036000830152610cee8184610b62565b905092915050565b60006020820190508181036000830152610d108184610bd7565b905092915050565b6000602082019050610d2d6000830184610c35565b92915050565b60006020820190508181036000830152610d4d8184610c7d565b905092915050565b6000602082019050610d6a6000830184610cc5565b92915050565b6000604051905081810181811067ffffffffffffffff82111715610d9757610d96610f55565b5b8060405250919050565b600067ffffffffffffffff821115610dbc57610dbb610f55565b5b602082029050602081019050919050565b600067ffffffffffffffff821115610de857610de7610f55565b5b601f19601f8301169050602081019050919050565b6000819050602082019050919050565b6000819050602082019050919050565b600081519050919050565b600081519050919050565b600081519050919050565b6000602082019050919050565b6000602082019050919050565b600082825260208201905092915050565b600082825260208201905092915050565b600082825260208201905092915050565b600082825260208201905092915050565b60008115159050919050565b6000819050919050565b82818337600083830152505050565b60005b83811015610edf578082015181840152602081019050610ec4565b83811115610eee576000848401525b50505050565b60006002820490506001821680610f0c57607f821691505b60208210811415610f2057610f1f610f26565b5b50919050565b7f4e487b7100000000000000000000000000000000000000000000000000000000600052602260045260246000fd5b7f4e487b7100000000000000000000000000000000000000000000000000000000600052604160045260246000fd5b6000601f19601f8301169050919050565b60048110610fa257600080fd5b50565b610fae81610ea8565b8114610fb957600080fd5b5056fea2646970667358221220349b03bd05e2a987c867760520045dbd4a4cd7a61b3f29e95e7149168d03a2c364736f6c63430008000033","opcodes":"PUSH1 0x80 PUSH1 0x40 MSTORE CALLVALUE DUP1 ISZERO PUSH2 0x10 JUMPI PUSH1 0x0 DUP1 REVERT JUMPDEST POP PUSH2 0xFF2 DUP1 PUSH2 0x20 PUSH1 0x0 CODECOPY PUSH1 0x0 RETURN INVALID PUSH1 0x80 PUSH1 0x40 MSTORE CALLVALUE DUP1 ISZERO PUSH2 0x10 JUMPI PUSH1 0x0 DUP1 REVERT JUMPDEST POP PUSH1 0x4 CALLDATASIZE LT PUSH2 0x7D JUMPI PUSH1 0x0 CALLDATALOAD PUSH1 0xE0 SHR DUP1 PUSH4 0x909E4AB6 GT PUSH2 0x5B JUMPI DUP1 PUSH4 0x909E4AB6 EQ PUSH2 0xEC JUMPI DUP1 PUSH4 0x95794157 EQ PUSH2 0x10A JUMPI DUP1 PUSH4 0x9849CEE9 EQ PUSH2 0x13A JUMPI DUP1 PUSH4 0x993C0410 EQ PUSH2 0x16A JUMPI PUSH2 0x7D JUMP JUMPDEST DUP1 PUSH4 0x4D60F651 EQ PUSH2 0x82 JUMPI DUP1 PUSH4 0x61EA18DF EQ PUSH2 0xA0 JUMPI DUP1 PUSH4 0x72A598CC EQ PUSH2 0xD0 JUMPI JUMPDEST PUSH1 0x0 DUP1 REVERT JUMPDEST PUSH2 0x8A PUSH2 0x19A JUMP JUMPDEST PUSH1 0x40 MLOAD PUSH2 0x97 SWAP2 SWAP1 PUSH2 0xCD4 JUMP JUMPDEST PUSH1 0x40 MLOAD DUP1 SWAP2 SUB SWAP1 RETURN JUMPDEST PUSH2 0xBA PUSH1 0x4 DUP1 CALLDATASIZE SUB DUP2 ADD SWAP1 PUSH2 0xB5 SWAP2 SWAP1 PUSH2 0xA4E JUMP JUMPDEST PUSH2 0x273 JUMP JUMPDEST PUSH1 0x40 MLOAD PUSH2 0xC7 SWAP2 SWAP1 PUSH2 0xD33 JUMP JUMPDEST PUSH1 0x40 MLOAD DUP1 SWAP2 SUB SWAP1 RETURN JUMPDEST PUSH2 0xEA PUSH1 0x4 DUP1 CALLDATASIZE SUB DUP2 ADD SWAP1 PUSH2 0xE5 SWAP2 SWAP1 PUSH2 0xA77 JUMP JUMPDEST PUSH2 0x31F JUMP JUMPDEST STOP JUMPDEST PUSH2 0xF4 PUSH2 0x470 JUMP JUMPDEST PUSH1 0x40 MLOAD PUSH2 0x101 SWAP2 SWAP1 PUSH2 0xCF6 JUMP JUMPDEST PUSH1 0x40 MLOAD DUP1 SWAP2 SUB SWAP1 RETURN JUMPDEST PUSH2 0x124 PUSH1 0x4 DUP1 CALLDATASIZE SUB DUP2 ADD SWAP1 PUSH2 0x11F SWAP2 SWAP1 PUSH2 0xA4E JUMP JUMPDEST PUSH2 0x4C8 JUMP JUMPDEST PUSH1 0x40 MLOAD PUSH2 0x131 SWAP2 SWAP1 PUSH2 0xD55 JUMP JUMPDEST PUSH1 0x40 MLOAD DUP1 SWAP2 SUB SWAP1 RETURN JUMPDEST PUSH2 0x154 PUSH1 0x4 DUP1 CALLDATASIZE SUB DUP2 ADD SWAP1 PUSH2 0x14F SWAP2 SWAP1 PUSH2 0xA4E JUMP JUMPDEST PUSH2 0x4EC JUMP JUMPDEST PUSH1 0x40 MLOAD PUSH2 0x161 SWAP2 SWAP1 PUSH2 0xD18 JUMP JUMPDEST PUSH1 0x40 MLOAD DUP1 SWAP2 SUB SWAP1 RETURN JUMPDEST PUSH2 0x184 PUSH1 0x4 DUP1 CALLDATASIZE SUB DUP2 ADD SWAP1 PUSH2 0x17F SWAP2 SWAP1 PUSH2 0xA4E JUMP JUMPDEST PUSH2 0x518 JUMP JUMPDEST PUSH1 0x40 MLOAD PUSH2 0x191 SWAP2 SWAP1 PUSH2 0xD18 JUMP JUMPDEST PUSH1 0x40 MLOAD DUP1 SWAP2 SUB SWAP1 RETURN JUMPDEST PUSH1 0x60 PUSH1 0x2 DUP1 SLOAD DUP1 PUSH1 0x20 MUL PUSH1 0x20 ADD PUSH1 0x40 MLOAD SWAP1 DUP2 ADD PUSH1 0x40 MSTORE DUP1 SWAP3 SWAP2 SWAP1 DUP2 DUP2 MSTORE PUSH1 0x20 ADD PUSH1 0x0 SWAP1 JUMPDEST DUP3 DUP3 LT ISZERO PUSH2 0x26A JUMPI DUP4 DUP3 SWAP1 PUSH1 0x0 MSTORE PUSH1 0x20 PUSH1 0x0 KECCAK256 ADD DUP1 SLOAD PUSH2 0x1DD SWAP1 PUSH2 0xEF4 JUMP JUMPDEST DUP1 PUSH1 0x1F ADD PUSH1 0x20 DUP1 SWAP2 DIV MUL PUSH1 0x20 ADD PUSH1 0x40 MLOAD SWAP1 DUP2 ADD PUSH1 0x40 MSTORE DUP1 SWAP3 SWAP2 SWAP1 DUP2 DUP2 MSTORE PUSH1 0x20 ADD DUP3 DUP1 SLOAD PUSH2 0x209 SWAP1 PUSH2 0xEF4 JUMP JUMPDEST DUP1 ISZERO PUSH2 0x256 JUMPI DUP1 PUSH1 0x1F LT PUSH2 0x22B JUMPI PUSH2 0x100 DUP1 DUP4 SLOAD DIV MUL DUP4 MSTORE SWAP2 PUSH1 0x20 ADD SWAP2 PUSH2 0x256 JUMP JUMPDEST DUP3 ADD SWAP2 SWAP1 PUSH1 0x0 MSTORE PUSH1 0x20 PUSH1 0x0 KECCAK256 SWAP1 JUMPDEST DUP2 SLOAD DUP2 MSTORE SWAP1 PUSH1 0x1 ADD SWAP1 PUSH1 0x20 ADD DUP1 DUP4 GT PUSH2 0x239 JUMPI DUP3 SWAP1 SUB PUSH1 0x1F AND DUP3 ADD SWAP2 JUMPDEST POP POP POP POP POP DUP2 MSTORE PUSH1 0x20 ADD SWAP1 PUSH1 0x1 ADD SWAP1 PUSH2 0x1BE JUMP JUMPDEST POP POP POP POP SWAP1 POP SWAP1 JUMP JUMPDEST PUSH1 0x2 DUP2 DUP2 SLOAD DUP2 LT PUSH2 0x283 JUMPI PUSH1 0x0 DUP1 REVERT JUMPDEST SWAP1 PUSH1 0x0 MSTORE PUSH1 0x20 PUSH1 0x0 KECCAK256 ADD PUSH1 0x0 SWAP2 POP SWAP1 POP DUP1 SLOAD PUSH2 0x29E SWAP1 PUSH2 0xEF4 JUMP JUMPDEST DUP1 PUSH1 0x1F ADD PUSH1 0x20 DUP1 SWAP2 DIV MUL PUSH1 0x20 ADD PUSH1 0x40 MLOAD SWAP1 DUP2 ADD PUSH1 0x40 MSTORE DUP1 SWAP3 SWAP2 SWAP1 DUP2 DUP2 MSTORE PUSH1 0x20 ADD DUP3 DUP1 SLOAD PUSH2 0x2CA SWAP1 PUSH2 0xEF4 JUMP JUMPDEST DUP1 ISZERO PUSH2 0x317 JUMPI DUP1 PUSH1 0x1F LT PUSH2 0x2EC JUMPI PUSH2 0x100 DUP1 DUP4 SLOAD DIV MUL DUP4 MSTORE SWAP2 PUSH1 0x20 ADD SWAP2 PUSH2 0x317 JUMP JUMPDEST DUP3 ADD SWAP2 SWAP1 PUSH1 0x0 MSTORE PUSH1 0x20 PUSH1 0x0 KECCAK256 SWAP1 JUMPDEST DUP2 SLOAD DUP2 MSTORE SWAP1 PUSH1 0x1 ADD SWAP1 PUSH1 0x20 ADD DUP1 DUP4 GT PUSH2 0x2FA JUMPI DUP3 SWAP1 SUB PUSH1 0x1F AND DUP3 ADD SWAP2 JUMPDEST POP POP POP POP POP DUP2 JUMP JUMPDEST PUSH1 0x0 PUSH1 0x40 MLOAD DUP1 PUSH1 0xA0 ADD PUSH1 0x40 MSTORE DUP1 PUSH1 0x0 ISZERO ISZERO DUP2 MSTORE PUSH1 0x20 ADD DUP7 DUP2 MSTORE PUSH1 0x20 ADD DUP6 PUSH1 0x3 DUP2 GT ISZERO PUSH2 0x374 JUMPI PUSH32 0x4E487B7100000000000000000000000000000000000000000000000000000000 PUSH1 0x0 MSTORE PUSH1 0x21 PUSH1 0x4 MSTORE PUSH1 0x24 PUSH1 0x0 REVERT JUMPDEST DUP2 MSTORE PUSH1 0x20 ADD DUP5 DUP2 MSTORE PUSH1 0x20 ADD DUP4 DUP2 MSTORE POP SWAP1 POP DUP1 PUSH1 0x0 DUP1 DUP9 DUP2 MSTORE PUSH1 0x20 ADD SWAP1 DUP2 MSTORE PUSH1 0x20 ADD PUSH1 0x0 KECCAK256 PUSH1 0x0 DUP3 ADD MLOAD DUP2 PUSH1 0x0 ADD PUSH1 0x0 PUSH2 0x100 EXP DUP2 SLOAD DUP2 PUSH1 0xFF MUL NOT AND SWAP1 DUP4 ISZERO ISZERO MUL OR SWAP1 SSTORE POP PUSH1 0x20 DUP3 ADD MLOAD DUP2 PUSH1 0x1 ADD SWAP1 DUP1 MLOAD SWAP1 PUSH1 0x20 ADD SWAP1 PUSH2 0x3D4 SWAP3 SWAP2 SWAP1 PUSH2 0x7A9 JUMP JUMPDEST POP PUSH1 0x40 DUP3 ADD MLOAD DUP2 PUSH1 0x2 ADD PUSH1 0x0 PUSH2 0x100 EXP DUP2 SLOAD DUP2 PUSH1 0xFF MUL NOT AND SWAP1 DUP4 PUSH1 0x3 DUP2 GT ISZERO PUSH2 0x426 JUMPI PUSH32 0x4E487B7100000000000000000000000000000000000000000000000000000000 PUSH1 0x0 MSTORE PUSH1 0x21 PUSH1 0x4 MSTORE PUSH1 0x24 PUSH1 0x0 REVERT JUMPDEST MUL OR SWAP1 SSTORE POP PUSH1 0x60 DUP3 ADD MLOAD DUP2 PUSH1 0x3 ADD SWAP1 DUP1 MLOAD SWAP1 PUSH1 0x20 ADD SWAP1 PUSH2 0x447 SWAP3 SWAP2 SWAP1 PUSH2 0x82F JUMP JUMPDEST POP PUSH1 0x80 DUP3 ADD MLOAD DUP2 PUSH1 0x4 ADD SWAP1 DUP1 MLOAD SWAP1 PUSH1 0x20 ADD SWAP1 PUSH2 0x464 SWAP3 SWAP2 SWAP1 PUSH2 0x82F JUMP JUMPDEST POP SWAP1 POP POP POP POP POP POP POP POP JUMP JUMPDEST PUSH1 0x60 PUSH1 0x1 DUP1 SLOAD DUP1 PUSH1 0x20 MUL PUSH1 0x20 ADD PUSH1 0x40 MLOAD SWAP1 DUP2 ADD PUSH1 0x40 MSTORE DUP1 SWAP3 SWAP2 SWAP1 DUP2 DUP2 MSTORE PUSH1 0x20 ADD DUP3 DUP1 SLOAD DUP1 ISZERO PUSH2 0x4BE JUMPI PUSH1 0x20 MUL DUP3 ADD SWAP2 SWAP1 PUSH1 0x0 MSTORE PUSH1 0x20 PUSH1 0x0 KECCAK256 SWAP1 JUMPDEST DUP2 SLOAD DUP2 MSTORE PUSH1 0x20 ADD SWAP1 PUSH1 0x1 ADD SWAP1 DUP1 DUP4 GT PUSH2 0x4AA JUMPI JUMPDEST POP POP POP POP POP SWAP1 POP SWAP1 JUMP JUMPDEST PUSH1 0x1 DUP2 DUP2 SLOAD DUP2 LT PUSH2 0x4D8 JUMPI PUSH1 0x0 DUP1 REVERT JUMPDEST SWAP1 PUSH1 0x0 MSTORE PUSH1 0x20 PUSH1 0x0 KECCAK256 ADD PUSH1 0x0 SWAP2 POP SWAP1 POP SLOAD DUP2 JUMP JUMPDEST PUSH1 0x0 DUP1 PUSH1 0x0 DUP4 DUP2 MSTORE PUSH1 0x20 ADD SWAP1 DUP2 MSTORE PUSH1 0x20 ADD PUSH1 0x0 KECCAK256 PUSH1 0x0 ADD PUSH1 0x0 SWAP1 SLOAD SWAP1 PUSH2 0x100 EXP SWAP1 DIV PUSH1 0xFF AND SWAP1 POP SWAP2 SWAP1 POP JUMP JUMPDEST PUSH1 0x0 DUP1 PUSH1 0x0 DUP1 DUP5 DUP2 MSTORE PUSH1 0x20 ADD SWAP1 DUP2 MSTORE PUSH1 0x20 ADD PUSH1 0x0 KECCAK256 PUSH1 0x3 ADD DUP1 SLOAD DUP1 PUSH1 0x20 MUL PUSH1 0x20 ADD PUSH1 0x40 MLOAD SWAP1 DUP2 ADD PUSH1 0x40 MSTORE DUP1 SWAP3 SWAP2 SWAP1 DUP2 DUP2 MSTORE PUSH1 0x20 ADD DUP3 DUP1 SLOAD DUP1 ISZERO PUSH2 0x57A JUMPI PUSH1 0x20 MUL DUP3 ADD SWAP2 SWAP1 PUSH1 0x0 MSTORE PUSH1 0x20 PUSH1 0x0 KECCAK256 SWAP1 JUMPDEST DUP2 SLOAD DUP2 MSTORE PUSH1 0x20 ADD SWAP1 PUSH1 0x1 ADD SWAP1 DUP1 DUP4 GT PUSH2 0x566 JUMPI JUMPDEST POP POP POP POP POP SWAP1 POP PUSH1 0x0 DUP2 MLOAD EQ ISZERO PUSH2 0x594 JUMPI PUSH1 0x1 SWAP2 POP PUSH2 0x68C JUMP JUMPDEST PUSH1 0x0 PUSH1 0x3 DUP2 GT ISZERO PUSH2 0x5CE JUMPI PUSH32 0x4E487B7100000000000000000000000000000000000000000000000000000000 PUSH1 0x0 MSTORE PUSH1 0x21 PUSH1 0x4 MSTORE PUSH1 0x24 PUSH1 0x0 REVERT JUMPDEST PUSH1 0x0 DUP1 DUP6 DUP2 MSTORE PUSH1 0x20 ADD SWAP1 DUP2 MSTORE PUSH1 0x20 ADD PUSH1 0x0 KECCAK256 PUSH1 0x2 ADD PUSH1 0x0 SWAP1 SLOAD SWAP1 PUSH2 0x100 EXP SWAP1 DIV PUSH1 0xFF AND PUSH1 0x3 DUP2 GT ISZERO PUSH2 0x629 JUMPI PUSH32 0x4E487B7100000000000000000000000000000000000000000000000000000000 PUSH1 0x0 MSTORE PUSH1 0x21 PUSH1 0x4 MSTORE PUSH1 0x24 PUSH1 0x0 REVERT JUMPDEST EQ ISZERO PUSH2 0x68B JUMPI PUSH1 0x1 ISZERO ISZERO PUSH2 0x67D DUP3 PUSH1 0x0 DUP2 MLOAD DUP2 LT PUSH2 0x670 JUMPI PUSH32 0x4E487B7100000000000000000000000000000000000000000000000000000000 PUSH1 0x0 MSTORE PUSH1 0x32 PUSH1 0x4 MSTORE PUSH1 0x24 PUSH1 0x0 REVERT JUMPDEST PUSH1 0x20 MUL PUSH1 0x20 ADD ADD MLOAD PUSH2 0x4EC JUMP JUMPDEST ISZERO ISZERO EQ ISZERO PUSH2 0x68A JUMPI PUSH1 0x1 SWAP2 POP JUMPDEST JUMPDEST JUMPDEST DUP2 ISZERO PUSH2 0x772 JUMPI PUSH1 0x1 PUSH1 0x0 DUP1 DUP6 DUP2 MSTORE PUSH1 0x20 ADD SWAP1 DUP2 MSTORE PUSH1 0x20 ADD PUSH1 0x0 KECCAK256 PUSH1 0x0 ADD PUSH1 0x0 PUSH2 0x100 EXP DUP2 SLOAD DUP2 PUSH1 0xFF MUL NOT AND SWAP1 DUP4 ISZERO ISZERO MUL OR SWAP1 SSTORE POP PUSH1 0x1 DUP4 SWAP1 DUP1 PUSH1 0x1 DUP2 SLOAD ADD DUP1 DUP3 SSTORE DUP1 SWAP2 POP POP PUSH1 0x1 SWAP1 SUB SWAP1 PUSH1 0x0 MSTORE PUSH1 0x20 PUSH1 0x0 KECCAK256 ADD PUSH1 0x0 SWAP1 SWAP2 SWAP1 SWAP2 SWAP1 SWAP2 POP SSTORE PUSH1 0x2 PUSH1 0x0 DUP1 DUP6 DUP2 MSTORE PUSH1 0x20 ADD SWAP1 DUP2 MSTORE PUSH1 0x20 ADD PUSH1 0x0 KECCAK256 PUSH1 0x1 ADD SWAP1 DUP1 PUSH1 0x1 DUP2 SLOAD ADD DUP1 DUP3 SSTORE DUP1 SWAP2 POP POP PUSH1 0x1 SWAP1 SUB SWAP1 PUSH1 0x0 MSTORE PUSH1 0x20 PUSH1 0x0 KECCAK256 ADD PUSH1 0x0 SWAP1 SWAP2 SWAP1 SWAP2 SWAP1 SWAP2 POP SWAP1 DUP1 SLOAD PUSH2 0x731 SWAP1 PUSH2 0xEF4 JUMP JUMPDEST PUSH2 0x73C SWAP3 SWAP2 SWAP1 PUSH2 0x87C JUMP JUMPDEST POP PUSH1 0x1 ISZERO ISZERO PUSH32 0xACD30B4F9FD5868793E13FFB506F03374A23D9FEBA1249AC2CC7B0FE024FF4BA PUSH1 0x40 MLOAD PUSH1 0x40 MLOAD DUP1 SWAP2 SUB SWAP1 LOG2 PUSH2 0x7A3 JUMP JUMPDEST PUSH1 0x0 ISZERO ISZERO PUSH32 0xACD30B4F9FD5868793E13FFB506F03374A23D9FEBA1249AC2CC7B0FE024FF4BA PUSH1 0x40 MLOAD PUSH1 0x40 MLOAD DUP1 SWAP2 SUB SWAP1 LOG2 JUMPDEST POP SWAP2 SWAP1 POP JUMP JUMPDEST DUP3 DUP1 SLOAD PUSH2 0x7B5 SWAP1 PUSH2 0xEF4 JUMP JUMPDEST SWAP1 PUSH1 0x0 MSTORE PUSH1 0x20 PUSH1 0x0 KECCAK256 SWAP1 PUSH1 0x1F ADD PUSH1 0x20 SWAP1 DIV DUP2 ADD SWAP3 DUP3 PUSH2 0x7D7 JUMPI PUSH1 0x0 DUP6 SSTORE PUSH2 0x81E JUMP JUMPDEST DUP3 PUSH1 0x1F LT PUSH2 0x7F0 JUMPI DUP1 MLOAD PUSH1 0xFF NOT AND DUP4 DUP1 ADD OR DUP6 SSTORE PUSH2 0x81E JUMP JUMPDEST DUP3 DUP1 ADD PUSH1 0x1 ADD DUP6 SSTORE DUP3 ISZERO PUSH2 0x81E JUMPI SWAP2 DUP3 ADD JUMPDEST DUP3 DUP2 GT ISZERO PUSH2 0x81D JUMPI DUP3 MLOAD DUP3 SSTORE SWAP2 PUSH1 0x20 ADD SWAP2 SWAP1 PUSH1 0x1 ADD SWAP1 PUSH2 0x802 JUMP JUMPDEST JUMPDEST POP SWAP1 POP PUSH2 0x82B SWAP2 SWAP1 PUSH2 0x909 JUMP JUMPDEST POP SWAP1 JUMP JUMPDEST DUP3 DUP1 SLOAD DUP3 DUP3 SSTORE SWAP1 PUSH1 0x0 MSTORE PUSH1 0x20 PUSH1 0x0 KECCAK256 SWAP1 DUP2 ADD SWAP3 DUP3 ISZERO PUSH2 0x86B JUMPI SWAP2 PUSH1 0x20 MUL DUP3 ADD JUMPDEST DUP3 DUP2 GT ISZERO PUSH2 0x86A JUMPI DUP3 MLOAD DUP3 SSTORE SWAP2 PUSH1 0x20 ADD SWAP2 SWAP1 PUSH1 0x1 ADD SWAP1 PUSH2 0x84F JUMP JUMPDEST JUMPDEST POP SWAP1 POP PUSH2 0x878 SWAP2 SWAP1 PUSH2 0x909 JUMP JUMPDEST POP SWAP1 JUMP JUMPDEST DUP3 DUP1 SLOAD PUSH2 0x888 SWAP1 PUSH2 0xEF4 JUMP JUMPDEST SWAP1 PUSH1 0x0 MSTORE PUSH1 0x20 PUSH1 0x0 KECCAK256 SWAP1 PUSH1 0x1F ADD PUSH1 0x20 SWAP1 DIV DUP2 ADD SWAP3 DUP3 PUSH2 0x8AA JUMPI PUSH1 0x0 DUP6 SSTORE PUSH2 0x8F8 JUMP JUMPDEST DUP3 PUSH1 0x1F LT PUSH2 0x8BB JUMPI DUP1 SLOAD DUP6 SSTORE PUSH2 0x8F8 JUMP JUMPDEST DUP3 DUP1 ADD PUSH1 0x1 ADD DUP6 SSTORE DUP3 ISZERO PUSH2 0x8F8 JUMPI PUSH1 0x0 MSTORE PUSH1 0x20 PUSH1 0x0 KECCAK256 SWAP2 PUSH1 0x1F ADD PUSH1 0x20 SWAP1 DIV DUP3 ADD JUMPDEST DUP3 DUP2 GT ISZERO PUSH2 0x8F7 JUMPI DUP3 SLOAD DUP3 SSTORE SWAP2 PUSH1 0x1 ADD SWAP2 SWAP1 PUSH1 0x1 ADD SWAP1 PUSH2 0x8DC JUMP JUMPDEST JUMPDEST POP SWAP1 POP PUSH2 0x905 SWAP2 SWAP1 PUSH2 0x909 JUMP JUMPDEST POP SWAP1 JUMP JUMPDEST JUMPDEST DUP1 DUP3 GT ISZERO PUSH2 0x922 JUMPI PUSH1 0x0 DUP2 PUSH1 0x0 SWAP1 SSTORE POP PUSH1 0x1 ADD PUSH2 0x90A JUMP JUMPDEST POP SWAP1 JUMP JUMPDEST PUSH1 0x0 PUSH2 0x939 PUSH2 0x934 DUP5 PUSH2 0xDA1 JUMP JUMPDEST PUSH2 0xD70 JUMP JUMPDEST SWAP1 POP DUP1 DUP4 DUP3 MSTORE PUSH1 0x20 DUP3 ADD SWAP1 POP DUP3 DUP6 PUSH1 0x20 DUP7 MUL DUP3 ADD GT ISZERO PUSH2 0x958 JUMPI PUSH1 0x0 DUP1 REVERT JUMPDEST PUSH1 0x0 JUMPDEST DUP6 DUP2 LT ISZERO PUSH2 0x988 JUMPI DUP2 PUSH2 0x96E DUP9 DUP3 PUSH2 0xA39 JUMP JUMPDEST DUP5 MSTORE PUSH1 0x20 DUP5 ADD SWAP4 POP PUSH1 0x20 DUP4 ADD SWAP3 POP POP PUSH1 0x1 DUP2 ADD SWAP1 POP PUSH2 0x95B JUMP JUMPDEST POP POP POP SWAP4 SWAP3 POP POP POP JUMP JUMPDEST PUSH1 0x0 PUSH2 0x9A5 PUSH2 0x9A0 DUP5 PUSH2 0xDCD JUMP JUMPDEST PUSH2 0xD70 JUMP JUMPDEST SWAP1 POP DUP3 DUP2 MSTORE PUSH1 0x20 DUP2 ADD DUP5 DUP5 DUP5 ADD GT ISZERO PUSH2 0x9BD JUMPI PUSH1 0x0 DUP1 REVERT JUMPDEST PUSH2 0x9C8 DUP5 DUP3 DUP6 PUSH2 0xEB2 JUMP JUMPDEST POP SWAP4 SWAP3 POP POP POP JUMP JUMPDEST PUSH1 0x0 DUP3 PUSH1 0x1F DUP4 ADD SLT PUSH2 0x9E1 JUMPI PUSH1 0x0 DUP1 REVERT JUMPDEST DUP2 CALLDATALOAD PUSH2 0x9F1 DUP5 DUP3 PUSH1 0x20 DUP7 ADD PUSH2 0x926 JUMP JUMPDEST SWAP2 POP POP SWAP3 SWAP2 POP POP JUMP JUMPDEST PUSH1 0x0 DUP2 CALLDATALOAD SWAP1 POP PUSH2 0xA09 DUP2 PUSH2 0xF95 JUMP JUMPDEST SWAP3 SWAP2 POP POP JUMP JUMPDEST PUSH1 0x0 DUP3 PUSH1 0x1F DUP4 ADD SLT PUSH2 0xA20 JUMPI PUSH1 0x0 DUP1 REVERT JUMPDEST DUP2 CALLDATALOAD PUSH2 0xA30 DUP5 DUP3 PUSH1 0x20 DUP7 ADD PUSH2 0x992 JUMP JUMPDEST SWAP2 POP POP SWAP3 SWAP2 POP POP JUMP JUMPDEST PUSH1 0x0 DUP2 CALLDATALOAD SWAP1 POP PUSH2 0xA48 DUP2 PUSH2 0xFA5 JUMP JUMPDEST SWAP3 SWAP2 POP POP JUMP JUMPDEST PUSH1 0x0 PUSH1 0x20 DUP3 DUP5 SUB SLT ISZERO PUSH2 0xA60 JUMPI PUSH1 0x0 DUP1 REVERT JUMPDEST PUSH1 0x0 PUSH2 0xA6E DUP5 DUP3 DUP6 ADD PUSH2 0xA39 JUMP JUMPDEST SWAP2 POP POP SWAP3 SWAP2 POP POP JUMP JUMPDEST PUSH1 0x0 DUP1 PUSH1 0x0 DUP1 PUSH1 0x0 PUSH1 0xA0 DUP7 DUP9 SUB SLT ISZERO PUSH2 0xA8F JUMPI PUSH1 0x0 DUP1 REVERT JUMPDEST PUSH1 0x0 PUSH2 0xA9D DUP9 DUP3 DUP10 ADD PUSH2 0xA39 JUMP JUMPDEST SWAP6 POP POP PUSH1 0x20 DUP7 ADD CALLDATALOAD PUSH8 0xFFFFFFFFFFFFFFFF DUP2 GT ISZERO PUSH2 0xABA JUMPI PUSH1 0x0 DUP1 REVERT JUMPDEST PUSH2 0xAC6 DUP9 DUP3 DUP10 ADD PUSH2 0xA0F JUMP JUMPDEST SWAP5 POP POP PUSH1 0x40 PUSH2 0xAD7 DUP9 DUP3 DUP10 ADD PUSH2 0x9FA JUMP JUMPDEST SWAP4 POP POP PUSH1 0x60 DUP7 ADD CALLDATALOAD PUSH8 0xFFFFFFFFFFFFFFFF DUP2 GT ISZERO PUSH2 0xAF4 JUMPI PUSH1 0x0 DUP1 REVERT JUMPDEST PUSH2 0xB00 DUP9 DUP3 DUP10 ADD PUSH2 0x9D0 JUMP JUMPDEST SWAP3 POP POP PUSH1 0x80 DUP7 ADD CALLDATALOAD PUSH8 0xFFFFFFFFFFFFFFFF DUP2 GT ISZERO PUSH2 0xB1D JUMPI PUSH1 0x0 DUP1 REVERT JUMPDEST PUSH2 0xB29 DUP9 DUP3 DUP10 ADD PUSH2 0x9D0 JUMP JUMPDEST SWAP2 POP POP SWAP3 SWAP6 POP SWAP3 SWAP6 SWAP1 SWAP4 POP JUMP JUMPDEST PUSH1 0x0 PUSH2 0xB42 DUP4 DUP4 PUSH2 0xC44 JUMP JUMPDEST SWAP1 POP SWAP3 SWAP2 POP POP JUMP JUMPDEST PUSH1 0x0 PUSH2 0xB56 DUP4 DUP4 PUSH2 0xCB6 JUMP JUMPDEST PUSH1 0x20 DUP4 ADD SWAP1 POP SWAP3 SWAP2 POP POP JUMP JUMPDEST PUSH1 0x0 PUSH2 0xB6D DUP3 PUSH2 0xE1D JUMP JUMPDEST PUSH2 0xB77 DUP2 DUP6 PUSH2 0xE58 JUMP JUMPDEST SWAP4 POP DUP4 PUSH1 0x20 DUP3 MUL DUP6 ADD PUSH2 0xB89 DUP6 PUSH2 0xDFD JUMP JUMPDEST DUP1 PUSH1 0x0 JUMPDEST DUP6 DUP2 LT ISZERO PUSH2 0xBC5 JUMPI DUP5 DUP5 SUB DUP10 MSTORE DUP2 MLOAD PUSH2 0xBA6 DUP6 DUP3 PUSH2 0xB36 JUMP JUMPDEST SWAP5 POP PUSH2 0xBB1 DUP4 PUSH2 0xE3E JUMP JUMPDEST SWAP3 POP PUSH1 0x20 DUP11 ADD SWAP10 POP POP PUSH1 0x1 DUP2 ADD SWAP1 POP PUSH2 0xB8D JUMP JUMPDEST POP DUP3 SWAP8 POP DUP8 SWAP6 POP POP POP POP POP POP SWAP3 SWAP2 POP POP JUMP JUMPDEST PUSH1 0x0 PUSH2 0xBE2 DUP3 PUSH2 0xE28 JUMP JUMPDEST PUSH2 0xBEC DUP2 DUP6 PUSH2 0xE69 JUMP JUMPDEST SWAP4 POP PUSH2 0xBF7 DUP4 PUSH2 0xE0D JUMP JUMPDEST DUP1 PUSH1 0x0 JUMPDEST DUP4 DUP2 LT ISZERO PUSH2 0xC28 JUMPI DUP2 MLOAD PUSH2 0xC0F DUP9 DUP3 PUSH2 0xB4A JUMP JUMPDEST SWAP8 POP PUSH2 0xC1A DUP4 PUSH2 0xE4B JUMP JUMPDEST SWAP3 POP POP PUSH1 0x1 DUP2 ADD SWAP1 POP PUSH2 0xBFB JUMP JUMPDEST POP DUP6 SWAP4 POP POP POP POP SWAP3 SWAP2 POP POP JUMP JUMPDEST PUSH2 0xC3E DUP2 PUSH2 0xE9C JUMP JUMPDEST DUP3 MSTORE POP POP JUMP JUMPDEST PUSH1 0x0 PUSH2 0xC4F DUP3 PUSH2 0xE33 JUMP JUMPDEST PUSH2 0xC59 DUP2 DUP6 PUSH2 0xE7A JUMP JUMPDEST SWAP4 POP PUSH2 0xC69 DUP2 DUP6 PUSH1 0x20 DUP7 ADD PUSH2 0xEC1 JUMP JUMPDEST PUSH2 0xC72 DUP2 PUSH2 0xF84 JUMP JUMPDEST DUP5 ADD SWAP2 POP POP SWAP3 SWAP2 POP POP JUMP JUMPDEST PUSH1 0x0 PUSH2 0xC88 DUP3 PUSH2 0xE33 JUMP JUMPDEST PUSH2 0xC92 DUP2 DUP6 PUSH2 0xE8B JUMP JUMPDEST SWAP4 POP PUSH2 0xCA2 DUP2 DUP6 PUSH1 0x20 DUP7 ADD PUSH2 0xEC1 JUMP JUMPDEST PUSH2 0xCAB DUP2 PUSH2 0xF84 JUMP JUMPDEST DUP5 ADD SWAP2 POP POP SWAP3 SWAP2 POP POP JUMP JUMPDEST PUSH2 0xCBF DUP2 PUSH2 0xEA8 JUMP JUMPDEST DUP3 MSTORE POP POP JUMP JUMPDEST PUSH2 0xCCE DUP2 PUSH2 0xEA8 JUMP JUMPDEST DUP3 MSTORE POP POP JUMP JUMPDEST PUSH1 0x0 PUSH1 0x20 DUP3 ADD SWAP1 POP DUP2 DUP2 SUB PUSH1 0x0 DUP4 ADD MSTORE PUSH2 0xCEE DUP2 DUP5 PUSH2 0xB62 JUMP JUMPDEST SWAP1 POP SWAP3 SWAP2 POP POP JUMP JUMPDEST PUSH1 0x0 PUSH1 0x20 DUP3 ADD SWAP1 POP DUP2 DUP2 SUB PUSH1 0x0 DUP4 ADD MSTORE PUSH2 0xD10 DUP2 DUP5 PUSH2 0xBD7 JUMP JUMPDEST SWAP1 POP SWAP3 SWAP2 POP POP JUMP JUMPDEST PUSH1 0x0 PUSH1 0x20 DUP3 ADD SWAP1 POP PUSH2 0xD2D PUSH1 0x0 DUP4 ADD DUP5 PUSH2 0xC35 JUMP JUMPDEST SWAP3 SWAP2 POP POP JUMP JUMPDEST PUSH1 0x0 PUSH1 0x20 DUP3 ADD SWAP1 POP DUP2 DUP2 SUB PUSH1 0x0 DUP4 ADD MSTORE PUSH2 0xD4D DUP2 DUP5 PUSH2 0xC7D JUMP JUMPDEST SWAP1 POP SWAP3 SWAP2 POP POP JUMP JUMPDEST PUSH1 0x0 PUSH1 0x20 DUP3 ADD SWAP1 POP PUSH2 0xD6A PUSH1 0x0 DUP4 ADD DUP5 PUSH2 0xCC5 JUMP JUMPDEST SWAP3 SWAP2 POP POP JUMP JUMPDEST PUSH1 0x0 PUSH1 0x40 MLOAD SWAP1 POP DUP2 DUP2 ADD DUP2 DUP2 LT PUSH8 0xFFFFFFFFFFFFFFFF DUP3 GT OR ISZERO PUSH2 0xD97 JUMPI PUSH2 0xD96 PUSH2 0xF55 JUMP JUMPDEST JUMPDEST DUP1 PUSH1 0x40 MSTORE POP SWAP2 SWAP1 POP JUMP JUMPDEST PUSH1 0x0 PUSH8 0xFFFFFFFFFFFFFFFF DUP3 GT ISZERO PUSH2 0xDBC JUMPI PUSH2 0xDBB PUSH2 0xF55 JUMP JUMPDEST JUMPDEST PUSH1 0x20 DUP3 MUL SWAP1 POP PUSH1 0x20 DUP2 ADD SWAP1 POP SWAP2 SWAP1 POP JUMP JUMPDEST PUSH1 0x0 PUSH8 0xFFFFFFFFFFFFFFFF DUP3 GT ISZERO PUSH2 0xDE8 JUMPI PUSH2 0xDE7 PUSH2 0xF55 JUMP JUMPDEST JUMPDEST PUSH1 0x1F NOT PUSH1 0x1F DUP4 ADD AND SWAP1 POP PUSH1 0x20 DUP2 ADD SWAP1 POP SWAP2 SWAP1 POP JUMP JUMPDEST PUSH1 0x0 DUP2 SWAP1 POP PUSH1 0x20 DUP3 ADD SWAP1 POP SWAP2 SWAP1 POP JUMP JUMPDEST PUSH1 0x0 DUP2 SWAP1 POP PUSH1 0x20 DUP3 ADD SWAP1 POP SWAP2 SWAP1 POP JUMP JUMPDEST PUSH1 0x0 DUP2 MLOAD SWAP1 POP SWAP2 SWAP1 POP JUMP JUMPDEST PUSH1 0x0 DUP2 MLOAD SWAP1 POP SWAP2 SWAP1 POP JUMP JUMPDEST PUSH1 0x0 DUP2 MLOAD SWAP1 POP SWAP2 SWAP1 POP JUMP JUMPDEST PUSH1 0x0 PUSH1 0x20 DUP3 ADD SWAP1 POP SWAP2 SWAP1 POP JUMP JUMPDEST PUSH1 0x0 PUSH1 0x20 DUP3 ADD SWAP1 POP SWAP2 SWAP1 POP JUMP JUMPDEST PUSH1 0x0 DUP3 DUP3 MSTORE PUSH1 0x20 DUP3 ADD SWAP1 POP SWAP3 SWAP2 POP POP JUMP JUMPDEST PUSH1 0x0 DUP3 DUP3 MSTORE PUSH1 0x20 DUP3 ADD SWAP1 POP SWAP3 SWAP2 POP POP JUMP JUMPDEST PUSH1 0x0 DUP3 DUP3 MSTORE PUSH1 0x20 DUP3 ADD SWAP1 POP SWAP3 SWAP2 POP POP JUMP JUMPDEST PUSH1 0x0 DUP3 DUP3 MSTORE PUSH1 0x20 DUP3 ADD SWAP1 POP SWAP3 SWAP2 POP POP JUMP JUMPDEST PUSH1 0x0 DUP2 ISZERO ISZERO SWAP1 POP SWAP2 SWAP1 POP JUMP JUMPDEST PUSH1 0x0 DUP2 SWAP1 POP SWAP2 SWAP1 POP JUMP JUMPDEST DUP3 DUP2 DUP4 CALLDATACOPY PUSH1 0x0 DUP4 DUP4 ADD MSTORE POP POP POP JUMP JUMPDEST PUSH1 0x0 JUMPDEST DUP4 DUP2 LT ISZERO PUSH2 0xEDF JUMPI DUP1 DUP3 ADD MLOAD DUP2 DUP5 ADD MSTORE PUSH1 0x20 DUP2 ADD SWAP1 POP PUSH2 0xEC4 JUMP JUMPDEST DUP4 DUP2 GT ISZERO PUSH2 0xEEE JUMPI PUSH1 0x0 DUP5 DUP5 ADD MSTORE JUMPDEST POP POP POP POP JUMP JUMPDEST PUSH1 0x0 PUSH1 0x2 DUP3 DIV SWAP1 POP PUSH1 0x1 DUP3 AND DUP1 PUSH2 0xF0C JUMPI PUSH1 0x7F DUP3 AND SWAP2 POP JUMPDEST PUSH1 0x20 DUP3 LT DUP2 EQ ISZERO PUSH2 0xF20 JUMPI PUSH2 0xF1F PUSH2 0xF26 JUMP JUMPDEST JUMPDEST POP SWAP2 SWAP1 POP JUMP JUMPDEST PUSH32 0x4E487B7100000000000000000000000000000000000000000000000000000000 PUSH1 0x0 MSTORE PUSH1 0x22 PUSH1 0x4 MSTORE PUSH1 0x24 PUSH1 0x0 REVERT JUMPDEST PUSH32 0x4E487B7100000000000000000000000000000000000000000000000000000000 PUSH1 0x0 MSTORE PUSH1 0x41 PUSH1 0x4 MSTORE PUSH1 0x24 PUSH1 0x0 REVERT JUMPDEST PUSH1 0x0 PUSH1 0x1F NOT PUSH1 0x1F DUP4 ADD AND SWAP1 POP SWAP2 SWAP1 POP JUMP JUMPDEST PUSH1 0x4 DUP2 LT PUSH2 0xFA2 JUMPI PUSH1 0x0 DUP1 REVERT JUMPDEST POP JUMP JUMPDEST PUSH2 0xFAE DUP2 PUSH2 0xEA8 JUMP JUMPDEST DUP2 EQ PUSH2 0xFB9 JUMPI PUSH1 0x0 DUP1 REVERT JUMPDEST POP JUMP INVALID LOG2 PUSH5 0x6970667358 0x22 SLT KECCAK256 CALLVALUE SWAP12 SUB 0xBD SDIV 0xE2 0xA9 DUP8 0xC8 PUSH8 0x760520045DBD4A4C 0xD7 0xA6 SHL EXTCODEHASH 0x29 0xE9 0x5E PUSH18 0x49168D03A2C364736F6C6343000800003300 "},"gasEstimates":{"creation":{"codeDepositCost":"816400","executionCost":"851","totalCost":"817251"},"external":{"completing(uint256)":"infinite","createTask(uint256,string,uint8,uint256[],uint256[])":"infinite","debugStringeventLog(uint256)":"infinite","getDebugStringeventLog()":"infinite","getLog()":"infinite","isTaskCompletedById(uint256)":"1572","theRealEventLog(uint256)":"infinite"}},"methodIdentifiers":{"completing(uint256)":"993c0410","createTask(uint256,string,uint8,uint256[],uint256[])":"72a598cc","debugStringeventLog(uint256)":"61ea18df","getDebugStringeventLog()":"4d60f651","getLog()":"909e4ab6","isTaskCompletedById(uint256)":"9849cee9","theRealEventLog(uint256)":"95794157"}},"storageLayout":{"storage":[{"astId":25,"contract":"BasicEnzian.sol:BasicEnzian","label":"tasks","offset":0,"slot":"0","type":"t_mapping(t_uint256,t_struct(Task)20_storage)"},{"astId":32,"contract":"BasicEnzian.sol:BasicEnzian","label":"theRealEventLog","offset":0,"slot":"1","type":"t_array(t_uint256)dyn_storage"},{"astId":44,"contract":"BasicEnzian.sol:BasicEnzian","label":"debugStringeventLog","offset":0,"slot":"2","type":"t_array(t_string_storage)dyn_storage"}],"types":{"t_array(t_string_storage)dyn_storage":{"base":"t_string_storage","encoding":"dynamic_array","label":"string[]","numberOfBytes":"32"},"t_array(t_uint256)dyn_storage":{"base":"t_uint256","encoding":"dynamic_array","label":"uint256[]","numberOfBytes":"32"},"t_bool":{"encoding":"inplace","label":"bool","numberOfBytes":"1"},"t_enum(Tasktype)6":{"encoding":"inplace","label":"enum BasicEnzian.Tasktype","numberOfBytes":"1"},"t_mapping(t_uint256,t_struct(Task)20_storage)":{"encoding":"mapping","key":"t_uint256","label":"mapping(uint256 => struct BasicEnzian.Task)","numberOfBytes":"32","value":"t_struct(Task)20_storage"},"t_string_storage":{"encoding":"bytes","label":"string","numberOfBytes":"32"},"t_struct(Task)20_storage":{"encoding":"inplace","label":"struct BasicEnzian.Task","members":[{"astId":8,"contract":"BasicEnzian.sol:BasicEnzian","label":"completed","offset":0,"slot":"0","type":"t_bool"},{"astId":10,"contract":"BasicEnzian.sol:BasicEnzian","label":"activity","offset":0,"slot":"1","type":"t_string_storage"},{"astId":13,"contract":"BasicEnzian.sol:BasicEnzian","label":"tasktype","offset":0,"slot":"2","type":"t_enum(Tasktype)6"},{"astId":16,"contract":"BasicEnzian.sol:BasicEnzian","label":"requirements","offset":0,"slot":"3","type":"t_array(t_uint256)dyn_storage"},{"astId":19,"contract":"BasicEnzian.sol:BasicEnzian","label":"competitors","offset":0,"slot":"4","type":"t_array(t_uint256)dyn_storage"}],"numberOfBytes":"160"},"t_uint256":{"encoding":"inplace","label":"uint256","numberOfBytes":"32"}}},"userdoc":{"kind":"user","methods":{},"version":1}}