{"abi":[{"inputs":[{"internalType":"string","name":"initialMessage","type":"string"}],"stateMutability":"nonpayable","type":"constructor"},{"inputs":[],"name":"getMessage","outputs":[{"internalType":"string","name":"","type":"string"}],"stateMutability":"view","type":"function"},{"inputs":[],"name":"message","outputs":[{"internalType":"string","name":"","type":"string"}],"stateMutability":"view","type":"function"},{"inputs":[{"internalType":"string","name":"newMessage","type":"string"}],"name":"setMessage","outputs":[],"stateMutability":"nonpayable","type":"function"}],"devdoc":{"kind":"dev","methods":{},"version":1},"evm":{"assembly":"    /* \"BasicEnzian.sol\":66:415  contract BasicEnzian {\r... */\n  mstore(0x40, 0x80)\n    /* \"BasicEnzian.sol\":124:210  constructor (string memory initialMessage) {\r... */\n  callvalue\n  dup1\n  iszero\n  tag_1\n  jumpi\n  0x00\n  dup1\n  revert\ntag_1:\n  pop\n  mload(0x40)\n  sub(codesize, bytecodeSize)\n  dup1\n  bytecodeSize\n  dup4\n  codecopy\n  dup2\n  dup2\n  add\n  0x40\n  mstore\n  dup2\n  add\n  swap1\n  tag_2\n  swap2\n  swap1\n  tag_3\n  jump\t// in\ntag_2:\n    /* \"BasicEnzian.sol\":188:202  initialMessage */\n  dup1\n    /* \"BasicEnzian.sol\":178:185  message */\n  0x00\n    /* \"BasicEnzian.sol\":178:202  message = initialMessage */\n  swap1\n  dup1\n  mload\n  swap1\n  0x20\n  add\n  swap1\n  tag_6\n  swap3\n  swap2\n  swap1\n  tag_7\n  jump\t// in\ntag_6:\n  pop\n    /* \"BasicEnzian.sol\":124:210  constructor (string memory initialMessage) {\r... */\n  pop\n    /* \"BasicEnzian.sol\":66:415  contract BasicEnzian {\r... */\n  jump(tag_8)\ntag_7:\n  dup3\n  dup1\n  sload\n  tag_9\n  swap1\n  tag_10\n  jump\t// in\ntag_9:\n  swap1\n  0x00\n  mstore\n  keccak256(0x00, 0x20)\n  swap1\n  0x1f\n  add\n  0x20\n  swap1\n  div\n  dup2\n  add\n  swap3\n  dup3\n  tag_12\n  jumpi\n  0x00\n  dup6\n  sstore\n  jump(tag_11)\ntag_12:\n  dup3\n  0x1f\n  lt\n  tag_13\n  jumpi\n  dup1\n  mload\n  not(0xff)\n  and\n  dup4\n  dup1\n  add\n  or\n  dup6\n  sstore\n  jump(tag_11)\ntag_13:\n  dup3\n  dup1\n  add\n  0x01\n  add\n  dup6\n  sstore\n  dup3\n  iszero\n  tag_11\n  jumpi\n  swap2\n  dup3\n  add\ntag_14:\n  dup3\n  dup2\n  gt\n  iszero\n  tag_15\n  jumpi\n  dup3\n  mload\n  dup3\n  sstore\n  swap2\n  0x20\n  add\n  swap2\n  swap1\n  0x01\n  add\n  swap1\n  jump(tag_14)\ntag_15:\ntag_11:\n  pop\n  swap1\n  pop\n  tag_16\n  swap2\n  swap1\n  tag_17\n  jump\t// in\ntag_16:\n  pop\n  swap1\n  jump\t// out\ntag_17:\ntag_18:\n  dup1\n  dup3\n  gt\n  iszero\n  tag_19\n  jumpi\n  0x00\n  dup2\n  0x00\n  swap1\n  sstore\n  pop\n  0x01\n  add\n  jump(tag_18)\ntag_19:\n  pop\n  swap1\n  jump\t// out\n    /* \"#utility.yul\":7:360   */\ntag_21:\n  0x00\n    /* \"#utility.yul\":121:186   */\n  tag_23\n    /* \"#utility.yul\":136:185   */\n  tag_24\n    /* \"#utility.yul\":178:184   */\n  dup5\n    /* \"#utility.yul\":136:185   */\n  tag_25\n  jump\t// in\ntag_24:\n    /* \"#utility.yul\":121:186   */\n  tag_26\n  jump\t// in\ntag_23:\n    /* \"#utility.yul\":112:186   */\n  swap1\n  pop\n    /* \"#utility.yul\":209:215   */\n  dup3\n    /* \"#utility.yul\":202:207   */\n  dup2\n    /* \"#utility.yul\":195:216   */\n  mstore\n    /* \"#utility.yul\":247:251   */\n  0x20\n    /* \"#utility.yul\":240:245   */\n  dup2\n    /* \"#utility.yul\":236:252   */\n  add\n    /* \"#utility.yul\":285:288   */\n  dup5\n    /* \"#utility.yul\":276:282   */\n  dup5\n    /* \"#utility.yul\":271:274   */\n  dup5\n    /* \"#utility.yul\":267:283   */\n  add\n    /* \"#utility.yul\":264:289   */\n  gt\n    /* \"#utility.yul\":261:263   */\n  iszero\n  tag_27\n  jumpi\n    /* \"#utility.yul\":302:303   */\n  0x00\n    /* \"#utility.yul\":299:300   */\n  dup1\n    /* \"#utility.yul\":292:304   */\n  revert\n    /* \"#utility.yul\":261:263   */\ntag_27:\n    /* \"#utility.yul\":315:354   */\n  tag_28\n    /* \"#utility.yul\":347:353   */\n  dup5\n    /* \"#utility.yul\":342:345   */\n  dup3\n    /* \"#utility.yul\":337:340   */\n  dup6\n    /* \"#utility.yul\":315:354   */\n  tag_29\n  jump\t// in\ntag_28:\n    /* \"#utility.yul\":102:360   */\n  pop\n  swap4\n  swap3\n  pop\n  pop\n  pop\n  jump\t// out\n    /* \"#utility.yul\":380:668   */\ntag_30:\n  0x00\n    /* \"#utility.yul\":496:499   */\n  dup3\n    /* \"#utility.yul\":489:493   */\n  0x1f\n    /* \"#utility.yul\":481:487   */\n  dup4\n    /* \"#utility.yul\":477:494   */\n  add\n    /* \"#utility.yul\":473:500   */\n  slt\n    /* \"#utility.yul\":463:465   */\n  tag_32\n  jumpi\n    /* \"#utility.yul\":514:515   */\n  0x00\n    /* \"#utility.yul\":511:512   */\n  dup1\n    /* \"#utility.yul\":504:516   */\n  revert\n    /* \"#utility.yul\":463:465   */\ntag_32:\n    /* \"#utility.yul\":547:553   */\n  dup2\n    /* \"#utility.yul\":541:554   */\n  mload\n    /* \"#utility.yul\":572:662   */\n  tag_33\n    /* \"#utility.yul\":658:661   */\n  dup5\n    /* \"#utility.yul\":650:656   */\n  dup3\n    /* \"#utility.yul\":643:647   */\n  0x20\n    /* \"#utility.yul\":635:641   */\n  dup7\n    /* \"#utility.yul\":631:648   */\n  add\n    /* \"#utility.yul\":572:662   */\n  tag_21\n  jump\t// in\ntag_33:\n    /* \"#utility.yul\":563:662   */\n  swap2\n  pop\n    /* \"#utility.yul\":453:668   */\n  pop\n  swap3\n  swap2\n  pop\n  pop\n  jump\t// out\n    /* \"#utility.yul\":674:1064   */\ntag_3:\n  0x00\n    /* \"#utility.yul\":803:805   */\n  0x20\n    /* \"#utility.yul\":791:800   */\n  dup3\n    /* \"#utility.yul\":782:789   */\n  dup5\n    /* \"#utility.yul\":778:801   */\n  sub\n    /* \"#utility.yul\":774:806   */\n  slt\n    /* \"#utility.yul\":771:773   */\n  iszero\n  tag_35\n  jumpi\n    /* \"#utility.yul\":819:820   */\n  0x00\n    /* \"#utility.yul\":816:817   */\n  dup1\n    /* \"#utility.yul\":809:821   */\n  revert\n    /* \"#utility.yul\":771:773   */\ntag_35:\n    /* \"#utility.yul\":883:884   */\n  0x00\n    /* \"#utility.yul\":872:881   */\n  dup3\n    /* \"#utility.yul\":868:885   */\n  add\n    /* \"#utility.yul\":862:886   */\n  mload\n    /* \"#utility.yul\":913:931   */\n  0xffffffffffffffff\n    /* \"#utility.yul\":905:911   */\n  dup2\n    /* \"#utility.yul\":902:932   */\n  gt\n    /* \"#utility.yul\":899:901   */\n  iszero\n  tag_36\n  jumpi\n    /* \"#utility.yul\":945:946   */\n  0x00\n    /* \"#utility.yul\":942:943   */\n  dup1\n    /* \"#utility.yul\":935:947   */\n  revert\n    /* \"#utility.yul\":899:901   */\ntag_36:\n    /* \"#utility.yul\":973:1047   */\n  tag_37\n    /* \"#utility.yul\":1039:1046   */\n  dup5\n    /* \"#utility.yul\":1030:1036   */\n  dup3\n    /* \"#utility.yul\":1019:1028   */\n  dup6\n    /* \"#utility.yul\":1015:1037   */\n  add\n    /* \"#utility.yul\":973:1047   */\n  tag_30\n  jump\t// in\ntag_37:\n    /* \"#utility.yul\":963:1047   */\n  swap2\n  pop\n    /* \"#utility.yul\":833:1057   */\n  pop\n    /* \"#utility.yul\":761:1064   */\n  swap3\n  swap2\n  pop\n  pop\n  jump\t// out\n    /* \"#utility.yul\":1070:1353   */\ntag_26:\n  0x00\n    /* \"#utility.yul\":1136:1138   */\n  0x40\n    /* \"#utility.yul\":1130:1139   */\n  mload\n    /* \"#utility.yul\":1120:1139   */\n  swap1\n  pop\n    /* \"#utility.yul\":1178:1182   */\n  dup2\n    /* \"#utility.yul\":1170:1176   */\n  dup2\n    /* \"#utility.yul\":1166:1183   */\n  add\n    /* \"#utility.yul\":1285:1291   */\n  dup2\n    /* \"#utility.yul\":1273:1283   */\n  dup2\n    /* \"#utility.yul\":1270:1292   */\n  lt\n    /* \"#utility.yul\":1249:1267   */\n  0xffffffffffffffff\n    /* \"#utility.yul\":1237:1247   */\n  dup3\n    /* \"#utility.yul\":1234:1268   */\n  gt\n    /* \"#utility.yul\":1231:1293   */\n  or\n    /* \"#utility.yul\":1228:1230   */\n  iszero\n  tag_39\n  jumpi\n    /* \"#utility.yul\":1296:1314   */\n  tag_40\n  tag_41\n  jump\t// in\ntag_40:\n    /* \"#utility.yul\":1228:1230   */\ntag_39:\n    /* \"#utility.yul\":1336:1346   */\n  dup1\n    /* \"#utility.yul\":1332:1334   */\n  0x40\n    /* \"#utility.yul\":1325:1347   */\n  mstore\n    /* \"#utility.yul\":1110:1353   */\n  pop\n  swap2\n  swap1\n  pop\n  jump\t// out\n    /* \"#utility.yul\":1359:1691   */\ntag_25:\n  0x00\n    /* \"#utility.yul\":1511:1529   */\n  0xffffffffffffffff\n    /* \"#utility.yul\":1503:1509   */\n  dup3\n    /* \"#utility.yul\":1500:1530   */\n  gt\n    /* \"#utility.yul\":1497:1499   */\n  iszero\n  tag_43\n  jumpi\n    /* \"#utility.yul\":1533:1551   */\n  tag_44\n  tag_41\n  jump\t// in\ntag_44:\n    /* \"#utility.yul\":1497:1499   */\ntag_43:\n    /* \"#utility.yul\":1618:1622   */\n  0x1f\n    /* \"#utility.yul\":1614:1623   */\n  not\n    /* \"#utility.yul\":1607:1611   */\n  0x1f\n    /* \"#utility.yul\":1599:1605   */\n  dup4\n    /* \"#utility.yul\":1595:1612   */\n  add\n    /* \"#utility.yul\":1591:1624   */\n  and\n    /* \"#utility.yul\":1583:1624   */\n  swap1\n  pop\n    /* \"#utility.yul\":1679:1683   */\n  0x20\n    /* \"#utility.yul\":1673:1677   */\n  dup2\n    /* \"#utility.yul\":1669:1684   */\n  add\n    /* \"#utility.yul\":1661:1684   */\n  swap1\n  pop\n    /* \"#utility.yul\":1426:1691   */\n  swap2\n  swap1\n  pop\n  jump\t// out\n    /* \"#utility.yul\":1697:2004   */\ntag_29:\n    /* \"#utility.yul\":1765:1766   */\n  0x00\n    /* \"#utility.yul\":1775:1888   */\ntag_46:\n    /* \"#utility.yul\":1789:1795   */\n  dup4\n    /* \"#utility.yul\":1786:1787   */\n  dup2\n    /* \"#utility.yul\":1783:1796   */\n  lt\n    /* \"#utility.yul\":1775:1888   */\n  iszero\n  tag_48\n  jumpi\n    /* \"#utility.yul\":1874:1875   */\n  dup1\n    /* \"#utility.yul\":1869:1872   */\n  dup3\n    /* \"#utility.yul\":1865:1876   */\n  add\n    /* \"#utility.yul\":1859:1877   */\n  mload\n    /* \"#utility.yul\":1855:1856   */\n  dup2\n    /* \"#utility.yul\":1850:1853   */\n  dup5\n    /* \"#utility.yul\":1846:1857   */\n  add\n    /* \"#utility.yul\":1839:1878   */\n  mstore\n    /* \"#utility.yul\":1811:1813   */\n  0x20\n    /* \"#utility.yul\":1808:1809   */\n  dup2\n    /* \"#utility.yul\":1804:1814   */\n  add\n    /* \"#utility.yul\":1799:1814   */\n  swap1\n  pop\n    /* \"#utility.yul\":1775:1888   */\n  jump(tag_46)\ntag_48:\n    /* \"#utility.yul\":1906:1912   */\n  dup4\n    /* \"#utility.yul\":1903:1904   */\n  dup2\n    /* \"#utility.yul\":1900:1913   */\n  gt\n    /* \"#utility.yul\":1897:1899   */\n  iszero\n  tag_49\n  jumpi\n    /* \"#utility.yul\":1986:1987   */\n  0x00\n    /* \"#utility.yul\":1977:1983   */\n  dup5\n    /* \"#utility.yul\":1972:1975   */\n  dup5\n    /* \"#utility.yul\":1968:1984   */\n  add\n    /* \"#utility.yul\":1961:1988   */\n  mstore\n    /* \"#utility.yul\":1897:1899   */\ntag_49:\n    /* \"#utility.yul\":1746:2004   */\n  pop\n  pop\n  pop\n  pop\n  jump\t// out\n    /* \"#utility.yul\":2010:2330   */\ntag_10:\n  0x00\n    /* \"#utility.yul\":2091:2092   */\n  0x02\n    /* \"#utility.yul\":2085:2089   */\n  dup3\n    /* \"#utility.yul\":2081:2093   */\n  div\n    /* \"#utility.yul\":2071:2093   */\n  swap1\n  pop\n    /* \"#utility.yul\":2138:2139   */\n  0x01\n    /* \"#utility.yul\":2132:2136   */\n  dup3\n    /* \"#utility.yul\":2128:2140   */\n  and\n    /* \"#utility.yul\":2159:2177   */\n  dup1\n    /* \"#utility.yul\":2149:2151   */\n  tag_51\n  jumpi\n    /* \"#utility.yul\":2215:2219   */\n  0x7f\n    /* \"#utility.yul\":2207:2213   */\n  dup3\n    /* \"#utility.yul\":2203:2220   */\n  and\n    /* \"#utility.yul\":2193:2220   */\n  swap2\n  pop\n    /* \"#utility.yul\":2149:2151   */\ntag_51:\n    /* \"#utility.yul\":2277:2279   */\n  0x20\n    /* \"#utility.yul\":2269:2275   */\n  dup3\n    /* \"#utility.yul\":2266:2280   */\n  lt\n    /* \"#utility.yul\":2246:2264   */\n  dup2\n    /* \"#utility.yul\":2243:2281   */\n  eq\n    /* \"#utility.yul\":2240:2242   */\n  iszero\n  tag_52\n  jumpi\n    /* \"#utility.yul\":2296:2314   */\n  tag_53\n  tag_54\n  jump\t// in\ntag_53:\n    /* \"#utility.yul\":2240:2242   */\ntag_52:\n    /* \"#utility.yul\":2061:2330   */\n  pop\n  swap2\n  swap1\n  pop\n  jump\t// out\n    /* \"#utility.yul\":2336:2516   */\ntag_54:\n    /* \"#utility.yul\":2384:2461   */\n  0x4e487b7100000000000000000000000000000000000000000000000000000000\n    /* \"#utility.yul\":2381:2382   */\n  0x00\n    /* \"#utility.yul\":2374:2462   */\n  mstore\n    /* \"#utility.yul\":2481:2485   */\n  0x22\n    /* \"#utility.yul\":2478:2479   */\n  0x04\n    /* \"#utility.yul\":2471:2486   */\n  mstore\n    /* \"#utility.yul\":2505:2509   */\n  0x24\n    /* \"#utility.yul\":2502:2503   */\n  0x00\n    /* \"#utility.yul\":2495:2510   */\n  revert\n    /* \"#utility.yul\":2522:2702   */\ntag_41:\n    /* \"#utility.yul\":2570:2647   */\n  0x4e487b7100000000000000000000000000000000000000000000000000000000\n    /* \"#utility.yul\":2567:2568   */\n  0x00\n    /* \"#utility.yul\":2560:2648   */\n  mstore\n    /* \"#utility.yul\":2667:2671   */\n  0x41\n    /* \"#utility.yul\":2664:2665   */\n  0x04\n    /* \"#utility.yul\":2657:2672   */\n  mstore\n    /* \"#utility.yul\":2691:2695   */\n  0x24\n    /* \"#utility.yul\":2688:2689   */\n  0x00\n    /* \"#utility.yul\":2681:2696   */\n  revert\n    /* \"BasicEnzian.sol\":66:415  contract BasicEnzian {\r... */\ntag_8:\n  dataSize(sub_0)\n  dup1\n  dataOffset(sub_0)\n  0x00\n  codecopy\n  0x00\n  return\nstop\n\nsub_0: assembly {\n        /* \"BasicEnzian.sol\":66:415  contract BasicEnzian {\r... */\n      mstore(0x40, 0x80)\n      callvalue\n      dup1\n      iszero\n      tag_1\n      jumpi\n      0x00\n      dup1\n      revert\n    tag_1:\n      pop\n      jumpi(tag_2, lt(calldatasize, 0x04))\n      shr(0xe0, calldataload(0x00))\n      dup1\n      0x368b8772\n      eq\n      tag_3\n      jumpi\n      dup1\n      0xce6d41de\n      eq\n      tag_4\n      jumpi\n      dup1\n      0xe21f37ce\n      eq\n      tag_5\n      jumpi\n    tag_2:\n      0x00\n      dup1\n      revert\n        /* \"BasicEnzian.sol\":218:310  function setMessage(string memory newMessage) public {\r... */\n    tag_3:\n      tag_6\n      0x04\n      dup1\n      calldatasize\n      sub\n      dup2\n      add\n      swap1\n      tag_7\n      swap2\n      swap1\n      tag_8\n      jump\t// in\n    tag_7:\n      tag_9\n      jump\t// in\n    tag_6:\n      stop\n        /* \"BasicEnzian.sol\":318:410  function getMessage() public view returns(string memory) {\r... */\n    tag_4:\n      tag_10\n      tag_11\n      jump\t// in\n    tag_10:\n      mload(0x40)\n      tag_12\n      swap2\n      swap1\n      tag_13\n      jump\t// in\n    tag_12:\n      mload(0x40)\n      dup1\n      swap2\n      sub\n      swap1\n      return\n        /* \"BasicEnzian.sol\":94:115  string public message */\n    tag_5:\n      tag_14\n      tag_15\n      jump\t// in\n    tag_14:\n      mload(0x40)\n      tag_16\n      swap2\n      swap1\n      tag_13\n      jump\t// in\n    tag_16:\n      mload(0x40)\n      dup1\n      swap2\n      sub\n      swap1\n      return\n        /* \"BasicEnzian.sol\":218:310  function setMessage(string memory newMessage) public {\r... */\n    tag_9:\n        /* \"BasicEnzian.sol\":292:302  newMessage */\n      dup1\n        /* \"BasicEnzian.sol\":282:289  message */\n      0x00\n        /* \"BasicEnzian.sol\":282:302  message = newMessage */\n      swap1\n      dup1\n      mload\n      swap1\n      0x20\n      add\n      swap1\n      tag_18\n      swap3\n      swap2\n      swap1\n      tag_19\n      jump\t// in\n    tag_18:\n      pop\n        /* \"BasicEnzian.sol\":218:310  function setMessage(string memory newMessage) public {\r... */\n      pop\n      jump\t// out\n        /* \"BasicEnzian.sol\":318:410  function getMessage() public view returns(string memory) {\r... */\n    tag_11:\n        /* \"BasicEnzian.sol\":360:373  string memory */\n      0x60\n        /* \"BasicEnzian.sol\":393:400  message */\n      0x00\n        /* \"BasicEnzian.sol\":386:400  return message */\n      dup1\n      sload\n      tag_21\n      swap1\n      tag_22\n      jump\t// in\n    tag_21:\n      dup1\n      0x1f\n      add\n      0x20\n      dup1\n      swap2\n      div\n      mul\n      0x20\n      add\n      mload(0x40)\n      swap1\n      dup2\n      add\n      0x40\n      mstore\n      dup1\n      swap3\n      swap2\n      swap1\n      dup2\n      dup2\n      mstore\n      0x20\n      add\n      dup3\n      dup1\n      sload\n      tag_23\n      swap1\n      tag_22\n      jump\t// in\n    tag_23:\n      dup1\n      iszero\n      tag_24\n      jumpi\n      dup1\n      0x1f\n      lt\n      tag_25\n      jumpi\n      0x0100\n      dup1\n      dup4\n      sload\n      div\n      mul\n      dup4\n      mstore\n      swap2\n      0x20\n      add\n      swap2\n      jump(tag_24)\n    tag_25:\n      dup3\n      add\n      swap2\n      swap1\n      0x00\n      mstore\n      keccak256(0x00, 0x20)\n      swap1\n    tag_26:\n      dup2\n      sload\n      dup2\n      mstore\n      swap1\n      0x01\n      add\n      swap1\n      0x20\n      add\n      dup1\n      dup4\n      gt\n      tag_26\n      jumpi\n      dup3\n      swap1\n      sub\n      0x1f\n      and\n      dup3\n      add\n      swap2\n    tag_24:\n      pop\n      pop\n      pop\n      pop\n      pop\n      swap1\n      pop\n        /* \"BasicEnzian.sol\":318:410  function getMessage() public view returns(string memory) {\r... */\n      swap1\n      jump\t// out\n        /* \"BasicEnzian.sol\":94:115  string public message */\n    tag_15:\n      0x00\n      dup1\n      sload\n      tag_27\n      swap1\n      tag_22\n      jump\t// in\n    tag_27:\n      dup1\n      0x1f\n      add\n      0x20\n      dup1\n      swap2\n      div\n      mul\n      0x20\n      add\n      mload(0x40)\n      swap1\n      dup2\n      add\n      0x40\n      mstore\n      dup1\n      swap3\n      swap2\n      swap1\n      dup2\n      dup2\n      mstore\n      0x20\n      add\n      dup3\n      dup1\n      sload\n      tag_28\n      swap1\n      tag_22\n      jump\t// in\n    tag_28:\n      dup1\n      iszero\n      tag_29\n      jumpi\n      dup1\n      0x1f\n      lt\n      tag_30\n      jumpi\n      0x0100\n      dup1\n      dup4\n      sload\n      div\n      mul\n      dup4\n      mstore\n      swap2\n      0x20\n      add\n      swap2\n      jump(tag_29)\n    tag_30:\n      dup3\n      add\n      swap2\n      swap1\n      0x00\n      mstore\n      keccak256(0x00, 0x20)\n      swap1\n    tag_31:\n      dup2\n      sload\n      dup2\n      mstore\n      swap1\n      0x01\n      add\n      swap1\n      0x20\n      add\n      dup1\n      dup4\n      gt\n      tag_31\n      jumpi\n      dup3\n      swap1\n      sub\n      0x1f\n      and\n      dup3\n      add\n      swap2\n    tag_29:\n      pop\n      pop\n      pop\n      pop\n      pop\n      dup2\n      jump\t// out\n    tag_19:\n      dup3\n      dup1\n      sload\n      tag_32\n      swap1\n      tag_22\n      jump\t// in\n    tag_32:\n      swap1\n      0x00\n      mstore\n      keccak256(0x00, 0x20)\n      swap1\n      0x1f\n      add\n      0x20\n      swap1\n      div\n      dup2\n      add\n      swap3\n      dup3\n      tag_34\n      jumpi\n      0x00\n      dup6\n      sstore\n      jump(tag_33)\n    tag_34:\n      dup3\n      0x1f\n      lt\n      tag_35\n      jumpi\n      dup1\n      mload\n      not(0xff)\n      and\n      dup4\n      dup1\n      add\n      or\n      dup6\n      sstore\n      jump(tag_33)\n    tag_35:\n      dup3\n      dup1\n      add\n      0x01\n      add\n      dup6\n      sstore\n      dup3\n      iszero\n      tag_33\n      jumpi\n      swap2\n      dup3\n      add\n    tag_36:\n      dup3\n      dup2\n      gt\n      iszero\n      tag_37\n      jumpi\n      dup3\n      mload\n      dup3\n      sstore\n      swap2\n      0x20\n      add\n      swap2\n      swap1\n      0x01\n      add\n      swap1\n      jump(tag_36)\n    tag_37:\n    tag_33:\n      pop\n      swap1\n      pop\n      tag_38\n      swap2\n      swap1\n      tag_39\n      jump\t// in\n    tag_38:\n      pop\n      swap1\n      jump\t// out\n    tag_39:\n    tag_40:\n      dup1\n      dup3\n      gt\n      iszero\n      tag_41\n      jumpi\n      0x00\n      dup2\n      0x00\n      swap1\n      sstore\n      pop\n      0x01\n      add\n      jump(tag_40)\n    tag_41:\n      pop\n      swap1\n      jump\t// out\n        /* \"#utility.yul\":7:351   */\n    tag_43:\n      0x00\n        /* \"#utility.yul\":110:175   */\n      tag_45\n        /* \"#utility.yul\":125:174   */\n      tag_46\n        /* \"#utility.yul\":167:173   */\n      dup5\n        /* \"#utility.yul\":125:174   */\n      tag_47\n      jump\t// in\n    tag_46:\n        /* \"#utility.yul\":110:175   */\n      tag_48\n      jump\t// in\n    tag_45:\n        /* \"#utility.yul\":101:175   */\n      swap1\n      pop\n        /* \"#utility.yul\":198:204   */\n      dup3\n        /* \"#utility.yul\":191:196   */\n      dup2\n        /* \"#utility.yul\":184:205   */\n      mstore\n        /* \"#utility.yul\":236:240   */\n      0x20\n        /* \"#utility.yul\":229:234   */\n      dup2\n        /* \"#utility.yul\":225:241   */\n      add\n        /* \"#utility.yul\":274:277   */\n      dup5\n        /* \"#utility.yul\":265:271   */\n      dup5\n        /* \"#utility.yul\":260:263   */\n      dup5\n        /* \"#utility.yul\":256:272   */\n      add\n        /* \"#utility.yul\":253:278   */\n      gt\n        /* \"#utility.yul\":250:252   */\n      iszero\n      tag_49\n      jumpi\n        /* \"#utility.yul\":291:292   */\n      0x00\n        /* \"#utility.yul\":288:289   */\n      dup1\n        /* \"#utility.yul\":281:293   */\n      revert\n        /* \"#utility.yul\":250:252   */\n    tag_49:\n        /* \"#utility.yul\":304:345   */\n      tag_50\n        /* \"#utility.yul\":338:344   */\n      dup5\n        /* \"#utility.yul\":333:336   */\n      dup3\n        /* \"#utility.yul\":328:331   */\n      dup6\n        /* \"#utility.yul\":304:345   */\n      tag_51\n      jump\t// in\n    tag_50:\n        /* \"#utility.yul\":91:351   */\n      pop\n      swap4\n      swap3\n      pop\n      pop\n      pop\n      jump\t// out\n        /* \"#utility.yul\":371:644   */\n    tag_52:\n      0x00\n        /* \"#utility.yul\":476:479   */\n      dup3\n        /* \"#utility.yul\":469:473   */\n      0x1f\n        /* \"#utility.yul\":461:467   */\n      dup4\n        /* \"#utility.yul\":457:474   */\n      add\n        /* \"#utility.yul\":453:480   */\n      slt\n        /* \"#utility.yul\":443:445   */\n      tag_54\n      jumpi\n        /* \"#utility.yul\":494:495   */\n      0x00\n        /* \"#utility.yul\":491:492   */\n      dup1\n        /* \"#utility.yul\":484:496   */\n      revert\n        /* \"#utility.yul\":443:445   */\n    tag_54:\n        /* \"#utility.yul\":534:540   */\n      dup2\n        /* \"#utility.yul\":521:541   */\n      calldataload\n        /* \"#utility.yul\":559:638   */\n      tag_55\n        /* \"#utility.yul\":634:637   */\n      dup5\n        /* \"#utility.yul\":626:632   */\n      dup3\n        /* \"#utility.yul\":619:623   */\n      0x20\n        /* \"#utility.yul\":611:617   */\n      dup7\n        /* \"#utility.yul\":607:624   */\n      add\n        /* \"#utility.yul\":559:638   */\n      tag_43\n      jump\t// in\n    tag_55:\n        /* \"#utility.yul\":550:638   */\n      swap2\n      pop\n        /* \"#utility.yul\":433:644   */\n      pop\n      swap3\n      swap2\n      pop\n      pop\n      jump\t// out\n        /* \"#utility.yul\":650:1025   */\n    tag_8:\n      0x00\n        /* \"#utility.yul\":768:770   */\n      0x20\n        /* \"#utility.yul\":756:765   */\n      dup3\n        /* \"#utility.yul\":747:754   */\n      dup5\n        /* \"#utility.yul\":743:766   */\n      sub\n        /* \"#utility.yul\":739:771   */\n      slt\n        /* \"#utility.yul\":736:738   */\n      iszero\n      tag_57\n      jumpi\n        /* \"#utility.yul\":784:785   */\n      0x00\n        /* \"#utility.yul\":781:782   */\n      dup1\n        /* \"#utility.yul\":774:786   */\n      revert\n        /* \"#utility.yul\":736:738   */\n    tag_57:\n        /* \"#utility.yul\":855:856   */\n      0x00\n        /* \"#utility.yul\":844:853   */\n      dup3\n        /* \"#utility.yul\":840:857   */\n      add\n        /* \"#utility.yul\":827:858   */\n      calldataload\n        /* \"#utility.yul\":885:903   */\n      0xffffffffffffffff\n        /* \"#utility.yul\":877:883   */\n      dup2\n        /* \"#utility.yul\":874:904   */\n      gt\n        /* \"#utility.yul\":871:873   */\n      iszero\n      tag_58\n      jumpi\n        /* \"#utility.yul\":917:918   */\n      0x00\n        /* \"#utility.yul\":914:915   */\n      dup1\n        /* \"#utility.yul\":907:919   */\n      revert\n        /* \"#utility.yul\":871:873   */\n    tag_58:\n        /* \"#utility.yul\":945:1008   */\n      tag_59\n        /* \"#utility.yul\":1000:1007   */\n      dup5\n        /* \"#utility.yul\":991:997   */\n      dup3\n        /* \"#utility.yul\":980:989   */\n      dup6\n        /* \"#utility.yul\":976:998   */\n      add\n        /* \"#utility.yul\":945:1008   */\n      tag_52\n      jump\t// in\n    tag_59:\n        /* \"#utility.yul\":935:1008   */\n      swap2\n      pop\n        /* \"#utility.yul\":798:1018   */\n      pop\n        /* \"#utility.yul\":726:1025   */\n      swap3\n      swap2\n      pop\n      pop\n      jump\t// out\n        /* \"#utility.yul\":1031:1395   */\n    tag_60:\n      0x00\n        /* \"#utility.yul\":1147:1186   */\n      tag_62\n        /* \"#utility.yul\":1180:1185   */\n      dup3\n        /* \"#utility.yul\":1147:1186   */\n      tag_63\n      jump\t// in\n    tag_62:\n        /* \"#utility.yul\":1202:1273   */\n      tag_64\n        /* \"#utility.yul\":1266:1272   */\n      dup2\n        /* \"#utility.yul\":1261:1264   */\n      dup6\n        /* \"#utility.yul\":1202:1273   */\n      tag_65\n      jump\t// in\n    tag_64:\n        /* \"#utility.yul\":1195:1273   */\n      swap4\n      pop\n        /* \"#utility.yul\":1282:1334   */\n      tag_66\n        /* \"#utility.yul\":1327:1333   */\n      dup2\n        /* \"#utility.yul\":1322:1325   */\n      dup6\n        /* \"#utility.yul\":1315:1319   */\n      0x20\n        /* \"#utility.yul\":1308:1313   */\n      dup7\n        /* \"#utility.yul\":1304:1320   */\n      add\n        /* \"#utility.yul\":1282:1334   */\n      tag_67\n      jump\t// in\n    tag_66:\n        /* \"#utility.yul\":1359:1388   */\n      tag_68\n        /* \"#utility.yul\":1381:1387   */\n      dup2\n        /* \"#utility.yul\":1359:1388   */\n      tag_69\n      jump\t// in\n    tag_68:\n        /* \"#utility.yul\":1354:1357   */\n      dup5\n        /* \"#utility.yul\":1350:1389   */\n      add\n        /* \"#utility.yul\":1343:1389   */\n      swap2\n      pop\n        /* \"#utility.yul\":1123:1395   */\n      pop\n      swap3\n      swap2\n      pop\n      pop\n      jump\t// out\n        /* \"#utility.yul\":1401:1714   */\n    tag_13:\n      0x00\n        /* \"#utility.yul\":1552:1554   */\n      0x20\n        /* \"#utility.yul\":1541:1550   */\n      dup3\n        /* \"#utility.yul\":1537:1555   */\n      add\n        /* \"#utility.yul\":1529:1555   */\n      swap1\n      pop\n        /* \"#utility.yul\":1601:1610   */\n      dup2\n        /* \"#utility.yul\":1595:1599   */\n      dup2\n        /* \"#utility.yul\":1591:1611   */\n      sub\n        /* \"#utility.yul\":1587:1588   */\n      0x00\n        /* \"#utility.yul\":1576:1585   */\n      dup4\n        /* \"#utility.yul\":1572:1589   */\n      add\n        /* \"#utility.yul\":1565:1612   */\n      mstore\n        /* \"#utility.yul\":1629:1707   */\n      tag_71\n        /* \"#utility.yul\":1702:1706   */\n      dup2\n        /* \"#utility.yul\":1693:1699   */\n      dup5\n        /* \"#utility.yul\":1629:1707   */\n      tag_60\n      jump\t// in\n    tag_71:\n        /* \"#utility.yul\":1621:1707   */\n      swap1\n      pop\n        /* \"#utility.yul\":1519:1714   */\n      swap3\n      swap2\n      pop\n      pop\n      jump\t// out\n        /* \"#utility.yul\":1720:2003   */\n    tag_48:\n      0x00\n        /* \"#utility.yul\":1786:1788   */\n      0x40\n        /* \"#utility.yul\":1780:1789   */\n      mload\n        /* \"#utility.yul\":1770:1789   */\n      swap1\n      pop\n        /* \"#utility.yul\":1828:1832   */\n      dup2\n        /* \"#utility.yul\":1820:1826   */\n      dup2\n        /* \"#utility.yul\":1816:1833   */\n      add\n        /* \"#utility.yul\":1935:1941   */\n      dup2\n        /* \"#utility.yul\":1923:1933   */\n      dup2\n        /* \"#utility.yul\":1920:1942   */\n      lt\n        /* \"#utility.yul\":1899:1917   */\n      0xffffffffffffffff\n        /* \"#utility.yul\":1887:1897   */\n      dup3\n        /* \"#utility.yul\":1884:1918   */\n      gt\n        /* \"#utility.yul\":1881:1943   */\n      or\n        /* \"#utility.yul\":1878:1880   */\n      iszero\n      tag_73\n      jumpi\n        /* \"#utility.yul\":1946:1964   */\n      tag_74\n      tag_75\n      jump\t// in\n    tag_74:\n        /* \"#utility.yul\":1878:1880   */\n    tag_73:\n        /* \"#utility.yul\":1986:1996   */\n      dup1\n        /* \"#utility.yul\":1982:1984   */\n      0x40\n        /* \"#utility.yul\":1975:1997   */\n      mstore\n        /* \"#utility.yul\":1760:2003   */\n      pop\n      swap2\n      swap1\n      pop\n      jump\t// out\n        /* \"#utility.yul\":2009:2341   */\n    tag_47:\n      0x00\n        /* \"#utility.yul\":2161:2179   */\n      0xffffffffffffffff\n        /* \"#utility.yul\":2153:2159   */\n      dup3\n        /* \"#utility.yul\":2150:2180   */\n      gt\n        /* \"#utility.yul\":2147:2149   */\n      iszero\n      tag_77\n      jumpi\n        /* \"#utility.yul\":2183:2201   */\n      tag_78\n      tag_75\n      jump\t// in\n    tag_78:\n        /* \"#utility.yul\":2147:2149   */\n    tag_77:\n        /* \"#utility.yul\":2268:2272   */\n      0x1f\n        /* \"#utility.yul\":2264:2273   */\n      not\n        /* \"#utility.yul\":2257:2261   */\n      0x1f\n        /* \"#utility.yul\":2249:2255   */\n      dup4\n        /* \"#utility.yul\":2245:2262   */\n      add\n        /* \"#utility.yul\":2241:2274   */\n      and\n        /* \"#utility.yul\":2233:2274   */\n      swap1\n      pop\n        /* \"#utility.yul\":2329:2333   */\n      0x20\n        /* \"#utility.yul\":2323:2327   */\n      dup2\n        /* \"#utility.yul\":2319:2334   */\n      add\n        /* \"#utility.yul\":2311:2334   */\n      swap1\n      pop\n        /* \"#utility.yul\":2076:2341   */\n      swap2\n      swap1\n      pop\n      jump\t// out\n        /* \"#utility.yul\":2347:2446   */\n    tag_63:\n      0x00\n        /* \"#utility.yul\":2433:2438   */\n      dup2\n        /* \"#utility.yul\":2427:2439   */\n      mload\n        /* \"#utility.yul\":2417:2439   */\n      swap1\n      pop\n        /* \"#utility.yul\":2406:2446   */\n      swap2\n      swap1\n      pop\n      jump\t// out\n        /* \"#utility.yul\":2452:2621   */\n    tag_65:\n      0x00\n        /* \"#utility.yul\":2570:2576   */\n      dup3\n        /* \"#utility.yul\":2565:2568   */\n      dup3\n        /* \"#utility.yul\":2558:2577   */\n      mstore\n        /* \"#utility.yul\":2610:2614   */\n      0x20\n        /* \"#utility.yul\":2605:2608   */\n      dup3\n        /* \"#utility.yul\":2601:2615   */\n      add\n        /* \"#utility.yul\":2586:2615   */\n      swap1\n      pop\n        /* \"#utility.yul\":2548:2621   */\n      swap3\n      swap2\n      pop\n      pop\n      jump\t// out\n        /* \"#utility.yul\":2627:2781   */\n    tag_51:\n        /* \"#utility.yul\":2711:2717   */\n      dup3\n        /* \"#utility.yul\":2706:2709   */\n      dup2\n        /* \"#utility.yul\":2701:2704   */\n      dup4\n        /* \"#utility.yul\":2688:2718   */\n      calldatacopy\n        /* \"#utility.yul\":2773:2774   */\n      0x00\n        /* \"#utility.yul\":2764:2770   */\n      dup4\n        /* \"#utility.yul\":2759:2762   */\n      dup4\n        /* \"#utility.yul\":2755:2771   */\n      add\n        /* \"#utility.yul\":2748:2775   */\n      mstore\n        /* \"#utility.yul\":2678:2781   */\n      pop\n      pop\n      pop\n      jump\t// out\n        /* \"#utility.yul\":2787:3094   */\n    tag_67:\n        /* \"#utility.yul\":2855:2856   */\n      0x00\n        /* \"#utility.yul\":2865:2978   */\n    tag_83:\n        /* \"#utility.yul\":2879:2885   */\n      dup4\n        /* \"#utility.yul\":2876:2877   */\n      dup2\n        /* \"#utility.yul\":2873:2886   */\n      lt\n        /* \"#utility.yul\":2865:2978   */\n      iszero\n      tag_85\n      jumpi\n        /* \"#utility.yul\":2964:2965   */\n      dup1\n        /* \"#utility.yul\":2959:2962   */\n      dup3\n        /* \"#utility.yul\":2955:2966   */\n      add\n        /* \"#utility.yul\":2949:2967   */\n      mload\n        /* \"#utility.yul\":2945:2946   */\n      dup2\n        /* \"#utility.yul\":2940:2943   */\n      dup5\n        /* \"#utility.yul\":2936:2947   */\n      add\n        /* \"#utility.yul\":2929:2968   */\n      mstore\n        /* \"#utility.yul\":2901:2903   */\n      0x20\n        /* \"#utility.yul\":2898:2899   */\n      dup2\n        /* \"#utility.yul\":2894:2904   */\n      add\n        /* \"#utility.yul\":2889:2904   */\n      swap1\n      pop\n        /* \"#utility.yul\":2865:2978   */\n      jump(tag_83)\n    tag_85:\n        /* \"#utility.yul\":2996:3002   */\n      dup4\n        /* \"#utility.yul\":2993:2994   */\n      dup2\n        /* \"#utility.yul\":2990:3003   */\n      gt\n        /* \"#utility.yul\":2987:2989   */\n      iszero\n      tag_86\n      jumpi\n        /* \"#utility.yul\":3076:3077   */\n      0x00\n        /* \"#utility.yul\":3067:3073   */\n      dup5\n        /* \"#utility.yul\":3062:3065   */\n      dup5\n        /* \"#utility.yul\":3058:3074   */\n      add\n        /* \"#utility.yul\":3051:3078   */\n      mstore\n        /* \"#utility.yul\":2987:2989   */\n    tag_86:\n        /* \"#utility.yul\":2836:3094   */\n      pop\n      pop\n      pop\n      pop\n      jump\t// out\n        /* \"#utility.yul\":3100:3420   */\n    tag_22:\n      0x00\n        /* \"#utility.yul\":3181:3182   */\n      0x02\n        /* \"#utility.yul\":3175:3179   */\n      dup3\n        /* \"#utility.yul\":3171:3183   */\n      div\n        /* \"#utility.yul\":3161:3183   */\n      swap1\n      pop\n        /* \"#utility.yul\":3228:3229   */\n      0x01\n        /* \"#utility.yul\":3222:3226   */\n      dup3\n        /* \"#utility.yul\":3218:3230   */\n      and\n        /* \"#utility.yul\":3249:3267   */\n      dup1\n        /* \"#utility.yul\":3239:3241   */\n      tag_88\n      jumpi\n        /* \"#utility.yul\":3305:3309   */\n      0x7f\n        /* \"#utility.yul\":3297:3303   */\n      dup3\n        /* \"#utility.yul\":3293:3310   */\n      and\n        /* \"#utility.yul\":3283:3310   */\n      swap2\n      pop\n        /* \"#utility.yul\":3239:3241   */\n    tag_88:\n        /* \"#utility.yul\":3367:3369   */\n      0x20\n        /* \"#utility.yul\":3359:3365   */\n      dup3\n        /* \"#utility.yul\":3356:3370   */\n      lt\n        /* \"#utility.yul\":3336:3354   */\n      dup2\n        /* \"#utility.yul\":3333:3371   */\n      eq\n        /* \"#utility.yul\":3330:3332   */\n      iszero\n      tag_89\n      jumpi\n        /* \"#utility.yul\":3386:3404   */\n      tag_90\n      tag_91\n      jump\t// in\n    tag_90:\n        /* \"#utility.yul\":3330:3332   */\n    tag_89:\n        /* \"#utility.yul\":3151:3420   */\n      pop\n      swap2\n      swap1\n      pop\n      jump\t// out\n        /* \"#utility.yul\":3426:3606   */\n    tag_91:\n        /* \"#utility.yul\":3474:3551   */\n      0x4e487b7100000000000000000000000000000000000000000000000000000000\n        /* \"#utility.yul\":3471:3472   */\n      0x00\n        /* \"#utility.yul\":3464:3552   */\n      mstore\n        /* \"#utility.yul\":3571:3575   */\n      0x22\n        /* \"#utility.yul\":3568:3569   */\n      0x04\n        /* \"#utility.yul\":3561:3576   */\n      mstore\n        /* \"#utility.yul\":3595:3599   */\n      0x24\n        /* \"#utility.yul\":3592:3593   */\n      0x00\n        /* \"#utility.yul\":3585:3600   */\n      revert\n        /* \"#utility.yul\":3612:3792   */\n    tag_75:\n        /* \"#utility.yul\":3660:3737   */\n      0x4e487b7100000000000000000000000000000000000000000000000000000000\n        /* \"#utility.yul\":3657:3658   */\n      0x00\n        /* \"#utility.yul\":3650:3738   */\n      mstore\n        /* \"#utility.yul\":3757:3761   */\n      0x41\n        /* \"#utility.yul\":3754:3755   */\n      0x04\n        /* \"#utility.yul\":3747:3762   */\n      mstore\n        /* \"#utility.yul\":3781:3785   */\n      0x24\n        /* \"#utility.yul\":3778:3779   */\n      0x00\n        /* \"#utility.yul\":3771:3786   */\n      revert\n        /* \"#utility.yul\":3798:3900   */\n    tag_69:\n      0x00\n        /* \"#utility.yul\":3890:3892   */\n      0x1f\n        /* \"#utility.yul\":3886:3893   */\n      not\n        /* \"#utility.yul\":3881:3883   */\n      0x1f\n        /* \"#utility.yul\":3874:3879   */\n      dup4\n        /* \"#utility.yul\":3870:3884   */\n      add\n        /* \"#utility.yul\":3866:3894   */\n      and\n        /* \"#utility.yul\":3856:3894   */\n      swap1\n      pop\n        /* \"#utility.yul\":3846:3900   */\n      swap2\n      swap1\n      pop\n      jump\t// out\n\n    auxdata: 0xa264697066735822122043641d4e1866b38bc21daa5ffbb1b2c4dcad4ea1f9d088c5a2dd4faeec5c2b2164736f6c63430008000033\n}\n","bytecode":{"linkReferences":{},"object":"608060405234801561001057600080fd5b506040516107e33803806107e38339818101604052810190610032919061015a565b806000908051906020019061004892919061004f565b50506102bf565b82805461005b9061022f565b90600052602060002090601f01602090048101928261007d57600085556100c4565b82601f1061009657805160ff19168380011785556100c4565b828001600101855582156100c4579182015b828111156100c35782518255916020019190600101906100a8565b5b5090506100d191906100d5565b5090565b5b808211156100ee5760008160009055506001016100d6565b5090565b6000610105610100846101cc565b61019b565b90508281526020810184848401111561011d57600080fd5b6101288482856101fc565b509392505050565b600082601f83011261014157600080fd5b81516101518482602086016100f2565b91505092915050565b60006020828403121561016c57600080fd5b600082015167ffffffffffffffff81111561018657600080fd5b61019284828501610130565b91505092915050565b6000604051905081810181811067ffffffffffffffff821117156101c2576101c1610290565b5b8060405250919050565b600067ffffffffffffffff8211156101e7576101e6610290565b5b601f19601f8301169050602081019050919050565b60005b8381101561021a5780820151818401526020810190506101ff565b83811115610229576000848401525b50505050565b6000600282049050600182168061024757607f821691505b6020821081141561025b5761025a610261565b5b50919050565b7f4e487b7100000000000000000000000000000000000000000000000000000000600052602260045260246000fd5b7f4e487b7100000000000000000000000000000000000000000000000000000000600052604160045260246000fd5b610515806102ce6000396000f3fe608060405234801561001057600080fd5b50600436106100415760003560e01c8063368b877214610046578063ce6d41de14610062578063e21f37ce14610080575b600080fd5b610060600480360381019061005b91906102e3565b61009e565b005b61006a6100b8565b604051610077919061035d565b60405180910390f35b61008861014a565b604051610095919061035d565b60405180910390f35b80600090805190602001906100b49291906101d8565b5050565b6060600080546100c79061043e565b80601f01602080910402602001604051908101604052809291908181526020018280546100f39061043e565b80156101405780601f1061011557610100808354040283529160200191610140565b820191906000526020600020905b81548152906001019060200180831161012357829003601f168201915b5050505050905090565b600080546101579061043e565b80601f01602080910402602001604051908101604052809291908181526020018280546101839061043e565b80156101d05780601f106101a5576101008083540402835291602001916101d0565b820191906000526020600020905b8154815290600101906020018083116101b357829003601f168201915b505050505081565b8280546101e49061043e565b90600052602060002090601f016020900481019282610206576000855561024d565b82601f1061021f57805160ff191683800117855561024d565b8280016001018555821561024d579182015b8281111561024c578251825591602001919060010190610231565b5b50905061025a919061025e565b5090565b5b8082111561027757600081600090555060010161025f565b5090565b600061028e610289846103b0565b61037f565b9050828152602081018484840111156102a657600080fd5b6102b18482856103fc565b509392505050565b600082601f8301126102ca57600080fd5b81356102da84826020860161027b565b91505092915050565b6000602082840312156102f557600080fd5b600082013567ffffffffffffffff81111561030f57600080fd5b61031b848285016102b9565b91505092915050565b600061032f826103e0565b61033981856103eb565b935061034981856020860161040b565b610352816104ce565b840191505092915050565b600060208201905081810360008301526103778184610324565b905092915050565b6000604051905081810181811067ffffffffffffffff821117156103a6576103a561049f565b5b8060405250919050565b600067ffffffffffffffff8211156103cb576103ca61049f565b5b601f19601f8301169050602081019050919050565b600081519050919050565b600082825260208201905092915050565b82818337600083830152505050565b60005b8381101561042957808201518184015260208101905061040e565b83811115610438576000848401525b50505050565b6000600282049050600182168061045657607f821691505b6020821081141561046a57610469610470565b5b50919050565b7f4e487b7100000000000000000000000000000000000000000000000000000000600052602260045260246000fd5b7f4e487b7100000000000000000000000000000000000000000000000000000000600052604160045260246000fd5b6000601f19601f830116905091905056fea264697066735822122043641d4e1866b38bc21daa5ffbb1b2c4dcad4ea1f9d088c5a2dd4faeec5c2b2164736f6c63430008000033","opcodes":"PUSH1 0x80 PUSH1 0x40 MSTORE CALLVALUE DUP1 ISZERO PUSH2 0x10 JUMPI PUSH1 0x0 DUP1 REVERT JUMPDEST POP PUSH1 0x40 MLOAD PUSH2 0x7E3 CODESIZE SUB DUP1 PUSH2 0x7E3 DUP4 CODECOPY DUP2 DUP2 ADD PUSH1 0x40 MSTORE DUP2 ADD SWAP1 PUSH2 0x32 SWAP2 SWAP1 PUSH2 0x15A JUMP JUMPDEST DUP1 PUSH1 0x0 SWAP1 DUP1 MLOAD SWAP1 PUSH1 0x20 ADD SWAP1 PUSH2 0x48 SWAP3 SWAP2 SWAP1 PUSH2 0x4F JUMP JUMPDEST POP POP PUSH2 0x2BF JUMP JUMPDEST DUP3 DUP1 SLOAD PUSH2 0x5B SWAP1 PUSH2 0x22F JUMP JUMPDEST SWAP1 PUSH1 0x0 MSTORE PUSH1 0x20 PUSH1 0x0 KECCAK256 SWAP1 PUSH1 0x1F ADD PUSH1 0x20 SWAP1 DIV DUP2 ADD SWAP3 DUP3 PUSH2 0x7D JUMPI PUSH1 0x0 DUP6 SSTORE PUSH2 0xC4 JUMP JUMPDEST DUP3 PUSH1 0x1F LT PUSH2 0x96 JUMPI DUP1 MLOAD PUSH1 0xFF NOT AND DUP4 DUP1 ADD OR DUP6 SSTORE PUSH2 0xC4 JUMP JUMPDEST DUP3 DUP1 ADD PUSH1 0x1 ADD DUP6 SSTORE DUP3 ISZERO PUSH2 0xC4 JUMPI SWAP2 DUP3 ADD JUMPDEST DUP3 DUP2 GT ISZERO PUSH2 0xC3 JUMPI DUP3 MLOAD DUP3 SSTORE SWAP2 PUSH1 0x20 ADD SWAP2 SWAP1 PUSH1 0x1 ADD SWAP1 PUSH2 0xA8 JUMP JUMPDEST JUMPDEST POP SWAP1 POP PUSH2 0xD1 SWAP2 SWAP1 PUSH2 0xD5 JUMP JUMPDEST POP SWAP1 JUMP JUMPDEST JUMPDEST DUP1 DUP3 GT ISZERO PUSH2 0xEE JUMPI PUSH1 0x0 DUP2 PUSH1 0x0 SWAP1 SSTORE POP PUSH1 0x1 ADD PUSH2 0xD6 JUMP JUMPDEST POP SWAP1 JUMP JUMPDEST PUSH1 0x0 PUSH2 0x105 PUSH2 0x100 DUP5 PUSH2 0x1CC JUMP JUMPDEST PUSH2 0x19B JUMP JUMPDEST SWAP1 POP DUP3 DUP2 MSTORE PUSH1 0x20 DUP2 ADD DUP5 DUP5 DUP5 ADD GT ISZERO PUSH2 0x11D JUMPI PUSH1 0x0 DUP1 REVERT JUMPDEST PUSH2 0x128 DUP5 DUP3 DUP6 PUSH2 0x1FC JUMP JUMPDEST POP SWAP4 SWAP3 POP POP POP JUMP JUMPDEST PUSH1 0x0 DUP3 PUSH1 0x1F DUP4 ADD SLT PUSH2 0x141 JUMPI PUSH1 0x0 DUP1 REVERT JUMPDEST DUP2 MLOAD PUSH2 0x151 DUP5 DUP3 PUSH1 0x20 DUP7 ADD PUSH2 0xF2 JUMP JUMPDEST SWAP2 POP POP SWAP3 SWAP2 POP POP JUMP JUMPDEST PUSH1 0x0 PUSH1 0x20 DUP3 DUP5 SUB SLT ISZERO PUSH2 0x16C JUMPI PUSH1 0x0 DUP1 REVERT JUMPDEST PUSH1 0x0 DUP3 ADD MLOAD PUSH8 0xFFFFFFFFFFFFFFFF DUP2 GT ISZERO PUSH2 0x186 JUMPI PUSH1 0x0 DUP1 REVERT JUMPDEST PUSH2 0x192 DUP5 DUP3 DUP6 ADD PUSH2 0x130 JUMP JUMPDEST SWAP2 POP POP SWAP3 SWAP2 POP POP JUMP JUMPDEST PUSH1 0x0 PUSH1 0x40 MLOAD SWAP1 POP DUP2 DUP2 ADD DUP2 DUP2 LT PUSH8 0xFFFFFFFFFFFFFFFF DUP3 GT OR ISZERO PUSH2 0x1C2 JUMPI PUSH2 0x1C1 PUSH2 0x290 JUMP JUMPDEST JUMPDEST DUP1 PUSH1 0x40 MSTORE POP SWAP2 SWAP1 POP JUMP JUMPDEST PUSH1 0x0 PUSH8 0xFFFFFFFFFFFFFFFF DUP3 GT ISZERO PUSH2 0x1E7 JUMPI PUSH2 0x1E6 PUSH2 0x290 JUMP JUMPDEST JUMPDEST PUSH1 0x1F NOT PUSH1 0x1F DUP4 ADD AND SWAP1 POP PUSH1 0x20 DUP2 ADD SWAP1 POP SWAP2 SWAP1 POP JUMP JUMPDEST PUSH1 0x0 JUMPDEST DUP4 DUP2 LT ISZERO PUSH2 0x21A JUMPI DUP1 DUP3 ADD MLOAD DUP2 DUP5 ADD MSTORE PUSH1 0x20 DUP2 ADD SWAP1 POP PUSH2 0x1FF JUMP JUMPDEST DUP4 DUP2 GT ISZERO PUSH2 0x229 JUMPI PUSH1 0x0 DUP5 DUP5 ADD MSTORE JUMPDEST POP POP POP POP JUMP JUMPDEST PUSH1 0x0 PUSH1 0x2 DUP3 DIV SWAP1 POP PUSH1 0x1 DUP3 AND DUP1 PUSH2 0x247 JUMPI PUSH1 0x7F DUP3 AND SWAP2 POP JUMPDEST PUSH1 0x20 DUP3 LT DUP2 EQ ISZERO PUSH2 0x25B JUMPI PUSH2 0x25A PUSH2 0x261 JUMP JUMPDEST JUMPDEST POP SWAP2 SWAP1 POP JUMP JUMPDEST PUSH32 0x4E487B7100000000000000000000000000000000000000000000000000000000 PUSH1 0x0 MSTORE PUSH1 0x22 PUSH1 0x4 MSTORE PUSH1 0x24 PUSH1 0x0 REVERT JUMPDEST PUSH32 0x4E487B7100000000000000000000000000000000000000000000000000000000 PUSH1 0x0 MSTORE PUSH1 0x41 PUSH1 0x4 MSTORE PUSH1 0x24 PUSH1 0x0 REVERT JUMPDEST PUSH2 0x515 DUP1 PUSH2 0x2CE PUSH1 0x0 CODECOPY PUSH1 0x0 RETURN INVALID PUSH1 0x80 PUSH1 0x40 MSTORE CALLVALUE DUP1 ISZERO PUSH2 0x10 JUMPI PUSH1 0x0 DUP1 REVERT JUMPDEST POP PUSH1 0x4 CALLDATASIZE LT PUSH2 0x41 JUMPI PUSH1 0x0 CALLDATALOAD PUSH1 0xE0 SHR DUP1 PUSH4 0x368B8772 EQ PUSH2 0x46 JUMPI DUP1 PUSH4 0xCE6D41DE EQ PUSH2 0x62 JUMPI DUP1 PUSH4 0xE21F37CE EQ PUSH2 0x80 JUMPI JUMPDEST PUSH1 0x0 DUP1 REVERT JUMPDEST PUSH2 0x60 PUSH1 0x4 DUP1 CALLDATASIZE SUB DUP2 ADD SWAP1 PUSH2 0x5B SWAP2 SWAP1 PUSH2 0x2E3 JUMP JUMPDEST PUSH2 0x9E JUMP JUMPDEST STOP JUMPDEST PUSH2 0x6A PUSH2 0xB8 JUMP JUMPDEST PUSH1 0x40 MLOAD PUSH2 0x77 SWAP2 SWAP1 PUSH2 0x35D JUMP JUMPDEST PUSH1 0x40 MLOAD DUP1 SWAP2 SUB SWAP1 RETURN JUMPDEST PUSH2 0x88 PUSH2 0x14A JUMP JUMPDEST PUSH1 0x40 MLOAD PUSH2 0x95 SWAP2 SWAP1 PUSH2 0x35D JUMP JUMPDEST PUSH1 0x40 MLOAD DUP1 SWAP2 SUB SWAP1 RETURN JUMPDEST DUP1 PUSH1 0x0 SWAP1 DUP1 MLOAD SWAP1 PUSH1 0x20 ADD SWAP1 PUSH2 0xB4 SWAP3 SWAP2 SWAP1 PUSH2 0x1D8 JUMP JUMPDEST POP POP JUMP JUMPDEST PUSH1 0x60 PUSH1 0x0 DUP1 SLOAD PUSH2 0xC7 SWAP1 PUSH2 0x43E JUMP JUMPDEST DUP1 PUSH1 0x1F ADD PUSH1 0x20 DUP1 SWAP2 DIV MUL PUSH1 0x20 ADD PUSH1 0x40 MLOAD SWAP1 DUP2 ADD PUSH1 0x40 MSTORE DUP1 SWAP3 SWAP2 SWAP1 DUP2 DUP2 MSTORE PUSH1 0x20 ADD DUP3 DUP1 SLOAD PUSH2 0xF3 SWAP1 PUSH2 0x43E JUMP JUMPDEST DUP1 ISZERO PUSH2 0x140 JUMPI DUP1 PUSH1 0x1F LT PUSH2 0x115 JUMPI PUSH2 0x100 DUP1 DUP4 SLOAD DIV MUL DUP4 MSTORE SWAP2 PUSH1 0x20 ADD SWAP2 PUSH2 0x140 JUMP JUMPDEST DUP3 ADD SWAP2 SWAP1 PUSH1 0x0 MSTORE PUSH1 0x20 PUSH1 0x0 KECCAK256 SWAP1 JUMPDEST DUP2 SLOAD DUP2 MSTORE SWAP1 PUSH1 0x1 ADD SWAP1 PUSH1 0x20 ADD DUP1 DUP4 GT PUSH2 0x123 JUMPI DUP3 SWAP1 SUB PUSH1 0x1F AND DUP3 ADD SWAP2 JUMPDEST POP POP POP POP POP SWAP1 POP SWAP1 JUMP JUMPDEST PUSH1 0x0 DUP1 SLOAD PUSH2 0x157 SWAP1 PUSH2 0x43E JUMP JUMPDEST DUP1 PUSH1 0x1F ADD PUSH1 0x20 DUP1 SWAP2 DIV MUL PUSH1 0x20 ADD PUSH1 0x40 MLOAD SWAP1 DUP2 ADD PUSH1 0x40 MSTORE DUP1 SWAP3 SWAP2 SWAP1 DUP2 DUP2 MSTORE PUSH1 0x20 ADD DUP3 DUP1 SLOAD PUSH2 0x183 SWAP1 PUSH2 0x43E JUMP JUMPDEST DUP1 ISZERO PUSH2 0x1D0 JUMPI DUP1 PUSH1 0x1F LT PUSH2 0x1A5 JUMPI PUSH2 0x100 DUP1 DUP4 SLOAD DIV MUL DUP4 MSTORE SWAP2 PUSH1 0x20 ADD SWAP2 PUSH2 0x1D0 JUMP JUMPDEST DUP3 ADD SWAP2 SWAP1 PUSH1 0x0 MSTORE PUSH1 0x20 PUSH1 0x0 KECCAK256 SWAP1 JUMPDEST DUP2 SLOAD DUP2 MSTORE SWAP1 PUSH1 0x1 ADD SWAP1 PUSH1 0x20 ADD DUP1 DUP4 GT PUSH2 0x1B3 JUMPI DUP3 SWAP1 SUB PUSH1 0x1F AND DUP3 ADD SWAP2 JUMPDEST POP POP POP POP POP DUP2 JUMP JUMPDEST DUP3 DUP1 SLOAD PUSH2 0x1E4 SWAP1 PUSH2 0x43E JUMP JUMPDEST SWAP1 PUSH1 0x0 MSTORE PUSH1 0x20 PUSH1 0x0 KECCAK256 SWAP1 PUSH1 0x1F ADD PUSH1 0x20 SWAP1 DIV DUP2 ADD SWAP3 DUP3 PUSH2 0x206 JUMPI PUSH1 0x0 DUP6 SSTORE PUSH2 0x24D JUMP JUMPDEST DUP3 PUSH1 0x1F LT PUSH2 0x21F JUMPI DUP1 MLOAD PUSH1 0xFF NOT AND DUP4 DUP1 ADD OR DUP6 SSTORE PUSH2 0x24D JUMP JUMPDEST DUP3 DUP1 ADD PUSH1 0x1 ADD DUP6 SSTORE DUP3 ISZERO PUSH2 0x24D JUMPI SWAP2 DUP3 ADD JUMPDEST DUP3 DUP2 GT ISZERO PUSH2 0x24C JUMPI DUP3 MLOAD DUP3 SSTORE SWAP2 PUSH1 0x20 ADD SWAP2 SWAP1 PUSH1 0x1 ADD SWAP1 PUSH2 0x231 JUMP JUMPDEST JUMPDEST POP SWAP1 POP PUSH2 0x25A SWAP2 SWAP1 PUSH2 0x25E JUMP JUMPDEST POP SWAP1 JUMP JUMPDEST JUMPDEST DUP1 DUP3 GT ISZERO PUSH2 0x277 JUMPI PUSH1 0x0 DUP2 PUSH1 0x0 SWAP1 SSTORE POP PUSH1 0x1 ADD PUSH2 0x25F JUMP JUMPDEST POP SWAP1 JUMP JUMPDEST PUSH1 0x0 PUSH2 0x28E PUSH2 0x289 DUP5 PUSH2 0x3B0 JUMP JUMPDEST PUSH2 0x37F JUMP JUMPDEST SWAP1 POP DUP3 DUP2 MSTORE PUSH1 0x20 DUP2 ADD DUP5 DUP5 DUP5 ADD GT ISZERO PUSH2 0x2A6 JUMPI PUSH1 0x0 DUP1 REVERT JUMPDEST PUSH2 0x2B1 DUP5 DUP3 DUP6 PUSH2 0x3FC JUMP JUMPDEST POP SWAP4 SWAP3 POP POP POP JUMP JUMPDEST PUSH1 0x0 DUP3 PUSH1 0x1F DUP4 ADD SLT PUSH2 0x2CA JUMPI PUSH1 0x0 DUP1 REVERT JUMPDEST DUP2 CALLDATALOAD PUSH2 0x2DA DUP5 DUP3 PUSH1 0x20 DUP7 ADD PUSH2 0x27B JUMP JUMPDEST SWAP2 POP POP SWAP3 SWAP2 POP POP JUMP JUMPDEST PUSH1 0x0 PUSH1 0x20 DUP3 DUP5 SUB SLT ISZERO PUSH2 0x2F5 JUMPI PUSH1 0x0 DUP1 REVERT JUMPDEST PUSH1 0x0 DUP3 ADD CALLDATALOAD PUSH8 0xFFFFFFFFFFFFFFFF DUP2 GT ISZERO PUSH2 0x30F JUMPI PUSH1 0x0 DUP1 REVERT JUMPDEST PUSH2 0x31B DUP5 DUP3 DUP6 ADD PUSH2 0x2B9 JUMP JUMPDEST SWAP2 POP POP SWAP3 SWAP2 POP POP JUMP JUMPDEST PUSH1 0x0 PUSH2 0x32F DUP3 PUSH2 0x3E0 JUMP JUMPDEST PUSH2 0x339 DUP2 DUP6 PUSH2 0x3EB JUMP JUMPDEST SWAP4 POP PUSH2 0x349 DUP2 DUP6 PUSH1 0x20 DUP7 ADD PUSH2 0x40B JUMP JUMPDEST PUSH2 0x352 DUP2 PUSH2 0x4CE JUMP JUMPDEST DUP5 ADD SWAP2 POP POP SWAP3 SWAP2 POP POP JUMP JUMPDEST PUSH1 0x0 PUSH1 0x20 DUP3 ADD SWAP1 POP DUP2 DUP2 SUB PUSH1 0x0 DUP4 ADD MSTORE PUSH2 0x377 DUP2 DUP5 PUSH2 0x324 JUMP JUMPDEST SWAP1 POP SWAP3 SWAP2 POP POP JUMP JUMPDEST PUSH1 0x0 PUSH1 0x40 MLOAD SWAP1 POP DUP2 DUP2 ADD DUP2 DUP2 LT PUSH8 0xFFFFFFFFFFFFFFFF DUP3 GT OR ISZERO PUSH2 0x3A6 JUMPI PUSH2 0x3A5 PUSH2 0x49F JUMP JUMPDEST JUMPDEST DUP1 PUSH1 0x40 MSTORE POP SWAP2 SWAP1 POP JUMP JUMPDEST PUSH1 0x0 PUSH8 0xFFFFFFFFFFFFFFFF DUP3 GT ISZERO PUSH2 0x3CB JUMPI PUSH2 0x3CA PUSH2 0x49F JUMP JUMPDEST JUMPDEST PUSH1 0x1F NOT PUSH1 0x1F DUP4 ADD AND SWAP1 POP PUSH1 0x20 DUP2 ADD SWAP1 POP SWAP2 SWAP1 POP JUMP JUMPDEST PUSH1 0x0 DUP2 MLOAD SWAP1 POP SWAP2 SWAP1 POP JUMP JUMPDEST PUSH1 0x0 DUP3 DUP3 MSTORE PUSH1 0x20 DUP3 ADD SWAP1 POP SWAP3 SWAP2 POP POP JUMP JUMPDEST DUP3 DUP2 DUP4 CALLDATACOPY PUSH1 0x0 DUP4 DUP4 ADD MSTORE POP POP POP JUMP JUMPDEST PUSH1 0x0 JUMPDEST DUP4 DUP2 LT ISZERO PUSH2 0x429 JUMPI DUP1 DUP3 ADD MLOAD DUP2 DUP5 ADD MSTORE PUSH1 0x20 DUP2 ADD SWAP1 POP PUSH2 0x40E JUMP JUMPDEST DUP4 DUP2 GT ISZERO PUSH2 0x438 JUMPI PUSH1 0x0 DUP5 DUP5 ADD MSTORE JUMPDEST POP POP POP POP JUMP JUMPDEST PUSH1 0x0 PUSH1 0x2 DUP3 DIV SWAP1 POP PUSH1 0x1 DUP3 AND DUP1 PUSH2 0x456 JUMPI PUSH1 0x7F DUP3 AND SWAP2 POP JUMPDEST PUSH1 0x20 DUP3 LT DUP2 EQ ISZERO PUSH2 0x46A JUMPI PUSH2 0x469 PUSH2 0x470 JUMP JUMPDEST JUMPDEST POP SWAP2 SWAP1 POP JUMP JUMPDEST PUSH32 0x4E487B7100000000000000000000000000000000000000000000000000000000 PUSH1 0x0 MSTORE PUSH1 0x22 PUSH1 0x4 MSTORE PUSH1 0x24 PUSH1 0x0 REVERT JUMPDEST PUSH32 0x4E487B7100000000000000000000000000000000000000000000000000000000 PUSH1 0x0 MSTORE PUSH1 0x41 PUSH1 0x4 MSTORE PUSH1 0x24 PUSH1 0x0 REVERT JUMPDEST PUSH1 0x0 PUSH1 0x1F NOT PUSH1 0x1F DUP4 ADD AND SWAP1 POP SWAP2 SWAP1 POP JUMP INVALID LOG2 PUSH5 0x6970667358 0x22 SLT KECCAK256 NUMBER PUSH5 0x1D4E1866B3 DUP12 0xC2 SAR 0xAA 0x5F 0xFB 0xB1 0xB2 0xC4 0xDC 0xAD 0x4E LOG1 0xF9 0xD0 DUP9 0xC5 LOG2 0xDD 0x4F 0xAE 0xEC 0x5C 0x2B 0x21 PUSH5 0x736F6C6343 STOP ADDMOD STOP STOP CALLER "},"gasEstimates":{"creation":{"codeDepositCost":"260200","executionCost":"infinite","totalCost":"infinite"},"external":{"getMessage()":"infinite","message()":"infinite","setMessage(string)":"infinite"}},"methodIdentifiers":{"getMessage()":"ce6d41de","message()":"e21f37ce","setMessage(string)":"368b8772"}},"storageLayout":{"storage":[{"astId":3,"contract":"BasicEnzian.sol:BasicEnzian","label":"message","offset":0,"slot":"0","type":"t_string_storage"}],"types":{"t_string_storage":{"encoding":"bytes","label":"string","numberOfBytes":"32"}}},"userdoc":{"kind":"user","methods":{},"version":1}}