{"abi":[{"anonymous":false,"inputs":[{"indexed":true,"internalType":"bool","name":"success","type":"bool"}],"name":"TaskCompleted","type":"event"},{"inputs":[{"internalType":"uint256","name":"taskId","type":"uint256"}],"name":"completing","outputs":[{"internalType":"bool","name":"success","type":"bool"}],"stateMutability":"nonpayable","type":"function"},{"inputs":[{"internalType":"uint256","name":"_id","type":"uint256"},{"internalType":"string","name":"_activity","type":"string"},{"internalType":"address","name":"_taskresource","type":"address"},{"internalType":"enum BasicEnzian.GatewayType","name":"_pmg","type":"uint8"},{"internalType":"uint256[]","name":"_requirements","type":"uint256[]"},{"internalType":"uint256[]","name":"_competitors","type":"uint256[]"}],"name":"createTask","outputs":[],"stateMutability":"nonpayable","type":"function"},{"inputs":[{"internalType":"uint256","name":"_id","type":"uint256"},{"internalType":"string","name":"_activity","type":"string"},{"internalType":"address","name":"_taskresource","type":"address"},{"internalType":"enum BasicEnzian.GatewayType","name":"_pmg","type":"uint8"},{"internalType":"uint256[]","name":"_requirements","type":"uint256[]"},{"internalType":"uint256[]","name":"_competitors","type":"uint256[]"},{"components":[{"internalType":"uint256","name":"endBoss","type":"uint256"},{"internalType":"enum BasicEnzian.GatewayType","name":"gatewaytype","type":"uint8"},{"internalType":"enum BasicEnzian.DecisionType","name":"type_","type":"uint8"},{"internalType":"bool","name":"completed","type":"bool"},{"internalType":"bool","name":"exists","type":"bool"},{"internalType":"enum DecisionLibrary.Operator","name":"operator","type":"uint8"},{"internalType":"string","name":"processVariable","type":"string"},{"internalType":"string","name":"s_value","type":"string"},{"internalType":"int256[]","name":"i_value","type":"int256[]"}],"internalType":"struct BasicEnzian.Decision","name":"_decision","type":"tuple"}],"name":"createTaskWithDecision","outputs":[],"stateMutability":"nonpayable","type":"function"},{"inputs":[{"internalType":"uint256","name":"","type":"uint256"}],"name":"debugStringeventLog","outputs":[{"internalType":"string","name":"","type":"string"}],"stateMutability":"view","type":"function"},{"inputs":[],"name":"decisionTest","outputs":[{"internalType":"uint256","name":"drei","type":"uint256"}],"stateMutability":"pure","type":"function"},{"inputs":[{"components":[{"internalType":"uint256","name":"endBoss","type":"uint256"},{"internalType":"enum BasicEnzian.GatewayType","name":"gatewaytype","type":"uint8"},{"internalType":"enum BasicEnzian.DecisionType","name":"type_","type":"uint8"},{"internalType":"bool","name":"completed","type":"bool"},{"internalType":"bool","name":"exists","type":"bool"},{"internalType":"enum DecisionLibrary.Operator","name":"operator","type":"uint8"},{"internalType":"string","name":"processVariable","type":"string"},{"internalType":"string","name":"s_value","type":"string"},{"internalType":"int256[]","name":"i_value","type":"int256[]"}],"internalType":"struct BasicEnzian.Decision","name":"_decision","type":"tuple"}],"name":"evaluateDecision","outputs":[{"internalType":"bool","name":"success","type":"bool"}],"stateMutability":"view","type":"function"},{"inputs":[{"internalType":"int256","name":"i1","type":"int256"},{"internalType":"int256[]","name":"i2","type":"int256[]"},{"internalType":"enum DecisionLibrary.Operator","name":"op","type":"uint8"}],"name":"evaluateTest","outputs":[{"internalType":"bool","name":"equality","type":"bool"}],"stateMutability":"pure","type":"function"},{"inputs":[],"name":"getDebugStringeventLog","outputs":[{"internalType":"string[]","name":"theevents","type":"string[]"}],"stateMutability":"view","type":"function"},{"inputs":[{"internalType":"string","name":"variableName","type":"string"}],"name":"getIntProcessVariableValue","outputs":[{"internalType":"int256","name":"thevalue","type":"int256"}],"stateMutability":"view","type":"function"},{"inputs":[],"name":"getLog","outputs":[{"internalType":"uint256[]","name":"theevents","type":"uint256[]"}],"stateMutability":"view","type":"function"},{"inputs":[{"internalType":"uint256","name":"_id","type":"uint256"}],"name":"getTaskById","outputs":[{"internalType":"bool","name":"status","type":"bool"},{"internalType":"string","name":"description","type":"string"},{"internalType":"address","name":"taskresource","type":"address"},{"internalType":"enum BasicEnzian.GatewayType","name":"gateway","type":"uint8"},{"internalType":"uint256[]","name":"requirements","type":"uint256[]"},{"internalType":"uint256[]","name":"competitors","type":"uint256[]"}],"stateMutability":"view","type":"function"},{"inputs":[{"internalType":"string","name":"","type":"string"}],"name":"integer_processVariables","outputs":[{"internalType":"int256","name":"","type":"int256"}],"stateMutability":"view","type":"function"},{"inputs":[{"internalType":"uint256","name":"_id","type":"uint256"}],"name":"isTaskCompletedById","outputs":[{"internalType":"bool","name":"success","type":"bool"}],"stateMutability":"view","type":"function"},{"inputs":[{"internalType":"string","name":"","type":"string"}],"name":"string_processVariables","outputs":[{"internalType":"string","name":"","type":"string"}],"stateMutability":"view","type":"function"},{"inputs":[{"internalType":"uint256","name":"","type":"uint256"}],"name":"theRealEventLog","outputs":[{"internalType":"uint256","name":"","type":"uint256"}],"stateMutability":"view","type":"function"},{"inputs":[{"internalType":"string","name":"variableName","type":"string"},{"internalType":"int256","name":"newValue","type":"int256"}],"name":"updateIntProcessVariable","outputs":[],"stateMutability":"nonpayable","type":"function"},{"inputs":[{"internalType":"string","name":"variableName","type":"string"},{"internalType":"string","name":"newValue","type":"string"}],"name":"updateStringProcessVariable","outputs":[],"stateMutability":"nonpayable","type":"function"}],"devdoc":{"kind":"dev","methods":{},"version":1},"evm":{"assembly":"    /* \"BasicEnzian.sol\":61:8942  contract BasicEnzian {\r... */\n  mstore(0x40, 0x80)\n  callvalue\n  dup1\n  iszero\n  tag_1\n  jumpi\n  0x00\n  dup1\n  revert\ntag_1:\n  pop\n  dataSize(sub_0)\n  dup1\n  dataOffset(sub_0)\n  0x00\n  codecopy\n  0x00\n  return\nstop\n\nsub_0: assembly {\n        /* \"BasicEnzian.sol\":61:8942  contract BasicEnzian {\r... */\n      mstore(0x40, 0x80)\n      callvalue\n      dup1\n      iszero\n      tag_1\n      jumpi\n      0x00\n      dup1\n      revert\n    tag_1:\n      pop\n      jumpi(tag_2, lt(calldatasize, 0x04))\n      shr(0xe0, calldataload(0x00))\n      dup1\n      0x909e4ab6\n      gt\n      tag_20\n      jumpi\n      dup1\n      0x993c0410\n      gt\n      tag_21\n      jumpi\n      dup1\n      0x993c0410\n      eq\n      tag_15\n      jumpi\n      dup1\n      0xa7c1eb90\n      eq\n      tag_16\n      jumpi\n      dup1\n      0xb8c56cae\n      eq\n      tag_17\n      jumpi\n      dup1\n      0xc7b1ee06\n      eq\n      tag_18\n      jumpi\n      dup1\n      0xfe9620c9\n      eq\n      tag_19\n      jumpi\n      jump(tag_2)\n    tag_21:\n      dup1\n      0x909e4ab6\n      eq\n      tag_11\n      jumpi\n      dup1\n      0x95794157\n      eq\n      tag_12\n      jumpi\n      dup1\n      0x976217cd\n      eq\n      tag_13\n      jumpi\n      dup1\n      0x9849cee9\n      eq\n      tag_14\n      jumpi\n      jump(tag_2)\n    tag_20:\n      dup1\n      0x4d60f651\n      gt\n      tag_22\n      jumpi\n      dup1\n      0x4d60f651\n      eq\n      tag_7\n      jumpi\n      dup1\n      0x61ea18df\n      eq\n      tag_8\n      jumpi\n      dup1\n      0x71c56f9b\n      eq\n      tag_9\n      jumpi\n      dup1\n      0x897a3e27\n      eq\n      tag_10\n      jumpi\n      jump(tag_2)\n    tag_22:\n      dup1\n      0x06470433\n      eq\n      tag_3\n      jumpi\n      dup1\n      0x307ed4be\n      eq\n      tag_4\n      jumpi\n      dup1\n      0x38624725\n      eq\n      tag_5\n      jumpi\n      dup1\n      0x38b7b6f0\n      eq\n      tag_6\n      jumpi\n    tag_2:\n      0x00\n      dup1\n      revert\n        /* \"BasicEnzian.sol\":7315:7965  function evaluateDecision(Decision memory _decision) public view returns (bool success){\r... */\n    tag_3:\n      tag_23\n      0x04\n      dup1\n      calldatasize\n      sub\n      dup2\n      add\n      swap1\n      tag_24\n      swap2\n      swap1\n      tag_25\n      jump\t// in\n    tag_24:\n      tag_26\n      jump\t// in\n    tag_23:\n      mload(0x40)\n      tag_27\n      swap2\n      swap1\n      tag_28\n      jump\t// in\n    tag_27:\n      mload(0x40)\n      dup1\n      swap2\n      sub\n      swap1\n      return\n        /* \"BasicEnzian.sol\":1975:2577  function createTask(\r... */\n    tag_4:\n      tag_29\n      0x04\n      dup1\n      calldatasize\n      sub\n      dup2\n      add\n      swap1\n      tag_30\n      swap2\n      swap1\n      tag_31\n      jump\t// in\n    tag_30:\n      tag_32\n      jump\t// in\n    tag_29:\n      stop\n        /* \"BasicEnzian.sol\":1220:1274  mapping(string => int) public integer_processVariables */\n    tag_5:\n      tag_33\n      0x04\n      dup1\n      calldatasize\n      sub\n      dup2\n      add\n      swap1\n      tag_34\n      swap2\n      swap1\n      tag_35\n      jump\t// in\n    tag_34:\n      tag_36\n      jump\t// in\n    tag_33:\n      mload(0x40)\n      tag_37\n      swap2\n      swap1\n      tag_38\n      jump\t// in\n    tag_37:\n      mload(0x40)\n      dup1\n      swap2\n      sub\n      swap1\n      return\n        /* \"BasicEnzian.sol\":3297:3450  function updateIntProcessVariable(string calldata variableName, int newValue) public {\r... */\n    tag_6:\n      tag_39\n      0x04\n      dup1\n      calldatasize\n      sub\n      dup2\n      add\n      swap1\n      tag_40\n      swap2\n      swap1\n      tag_41\n      jump\t// in\n    tag_40:\n      tag_42\n      jump\t// in\n    tag_39:\n      stop\n        /* \"BasicEnzian.sol\":1696:1822  function getDebugStringeventLog() public view returns(string[] memory theevents) {\r... */\n    tag_7:\n      tag_43\n      tag_44\n      jump\t// in\n    tag_43:\n      mload(0x40)\n      tag_45\n      swap2\n      swap1\n      tag_46\n      jump\t// in\n    tag_45:\n      mload(0x40)\n      dup1\n      swap2\n      sub\n      swap1\n      return\n        /* \"BasicEnzian.sol\":1654:1689  string[] public debugStringeventLog */\n    tag_8:\n      tag_47\n      0x04\n      dup1\n      calldatasize\n      sub\n      dup2\n      add\n      swap1\n      tag_48\n      swap2\n      swap1\n      tag_49\n      jump\t// in\n    tag_48:\n      tag_50\n      jump\t// in\n    tag_47:\n      mload(0x40)\n      tag_51\n      swap2\n      swap1\n      tag_52\n      jump\t// in\n    tag_51:\n      mload(0x40)\n      dup1\n      swap2\n      sub\n      swap1\n      return\n        /* \"BasicEnzian.sol\":8800:8937  function decisionTest() public pure returns(uint drei) {\r... */\n    tag_9:\n      tag_53\n      tag_54\n      jump\t// in\n    tag_53:\n      mload(0x40)\n      tag_55\n      swap2\n      swap1\n      tag_56\n      jump\t// in\n    tag_55:\n      mload(0x40)\n      dup1\n      swap2\n      sub\n      swap1\n      return\n        /* \"BasicEnzian.sol\":3637:3802  function getIntProcessVariableValue(string calldata variableName) public view returns (int thevalue) {\r... */\n    tag_10:\n      tag_57\n      0x04\n      dup1\n      calldatasize\n      sub\n      dup2\n      add\n      swap1\n      tag_58\n      swap2\n      swap1\n      tag_59\n      jump\t// in\n    tag_58:\n      tag_60\n      jump\t// in\n    tag_57:\n      mload(0x40)\n      tag_61\n      swap2\n      swap1\n      tag_38\n      jump\t// in\n    tag_61:\n      mload(0x40)\n      dup1\n      swap2\n      sub\n      swap1\n      return\n        /* \"BasicEnzian.sol\":1450:1554  function getLog() public view returns(uint[] memory theevents) {\r... */\n    tag_11:\n      tag_62\n      tag_63\n      jump\t// in\n    tag_62:\n      mload(0x40)\n      tag_64\n      swap2\n      swap1\n      tag_65\n      jump\t// in\n    tag_64:\n      mload(0x40)\n      dup1\n      swap2\n      sub\n      swap1\n      return\n        /* \"BasicEnzian.sol\":1414:1443  uint[] public theRealEventLog */\n    tag_12:\n      tag_66\n      0x04\n      dup1\n      calldatasize\n      sub\n      dup2\n      add\n      swap1\n      tag_67\n      swap2\n      swap1\n      tag_49\n      jump\t// in\n    tag_67:\n      tag_68\n      jump\t// in\n    tag_66:\n      mload(0x40)\n      tag_69\n      swap2\n      swap1\n      tag_56\n      jump\t// in\n    tag_69:\n      mload(0x40)\n      dup1\n      swap2\n      sub\n      swap1\n      return\n        /* \"BasicEnzian.sol\":8395:8792  function getTaskById(uint _id) public view returns (bool status,\r... */\n    tag_13:\n      tag_70\n      0x04\n      dup1\n      calldatasize\n      sub\n      dup2\n      add\n      swap1\n      tag_71\n      swap2\n      swap1\n      tag_49\n      jump\t// in\n    tag_71:\n      tag_72\n      jump\t// in\n    tag_70:\n      mload(0x40)\n      tag_73\n      swap7\n      swap6\n      swap5\n      swap4\n      swap3\n      swap2\n      swap1\n      tag_74\n      jump\t// in\n    tag_73:\n      mload(0x40)\n      dup1\n      swap2\n      sub\n      swap1\n      return\n        /* \"BasicEnzian.sol\":8167:8290  function isTaskCompletedById(uint _id) public view returns (bool success){\r... */\n    tag_14:\n      tag_75\n      0x04\n      dup1\n      calldatasize\n      sub\n      dup2\n      add\n      swap1\n      tag_76\n      swap2\n      swap1\n      tag_49\n      jump\t// in\n    tag_76:\n      tag_77\n      jump\t// in\n    tag_75:\n      mload(0x40)\n      tag_78\n      swap2\n      swap1\n      tag_28\n      jump\t// in\n    tag_78:\n      mload(0x40)\n      dup1\n      swap2\n      sub\n      swap1\n      return\n        /* \"BasicEnzian.sol\":3902:7121  function completing(uint taskId) public returns (bool success){\r... */\n    tag_15:\n      tag_79\n      0x04\n      dup1\n      calldatasize\n      sub\n      dup2\n      add\n      swap1\n      tag_80\n      swap2\n      swap1\n      tag_49\n      jump\t// in\n    tag_80:\n      tag_81\n      jump\t// in\n    tag_79:\n      mload(0x40)\n      tag_82\n      swap2\n      swap1\n      tag_28\n      jump\t// in\n    tag_82:\n      mload(0x40)\n      dup1\n      swap2\n      sub\n      swap1\n      return\n        /* \"BasicEnzian.sol\":7133:7307  function evaluateTest(int i1, int[] memory i2, DecisionLibrary.Operator op) public pure returns (bool equality) {\r... */\n    tag_16:\n      tag_83\n      0x04\n      dup1\n      calldatasize\n      sub\n      dup2\n      add\n      swap1\n      tag_84\n      swap2\n      swap1\n      tag_85\n      jump\t// in\n    tag_84:\n      tag_86\n      jump\t// in\n    tag_83:\n      mload(0x40)\n      tag_87\n      swap2\n      swap1\n      tag_28\n      jump\t// in\n    tag_87:\n      mload(0x40)\n      dup1\n      swap2\n      sub\n      swap1\n      return\n        /* \"BasicEnzian.sol\":1281:1337  mapping(string => string) public string_processVariables */\n    tag_17:\n      tag_88\n      0x04\n      dup1\n      calldatasize\n      sub\n      dup2\n      add\n      swap1\n      tag_89\n      swap2\n      swap1\n      tag_35\n      jump\t// in\n    tag_89:\n      tag_90\n      jump\t// in\n    tag_88:\n      mload(0x40)\n      tag_91\n      swap2\n      swap1\n      tag_52\n      jump\t// in\n    tag_91:\n      mload(0x40)\n      dup1\n      swap2\n      sub\n      swap1\n      return\n        /* \"BasicEnzian.sol\":2596:3285  function createTaskWithDecision(\r... */\n    tag_18:\n      tag_92\n      0x04\n      dup1\n      calldatasize\n      sub\n      dup2\n      add\n      swap1\n      tag_93\n      swap2\n      swap1\n      tag_94\n      jump\t// in\n    tag_93:\n      tag_95\n      jump\t// in\n    tag_92:\n      stop\n        /* \"BasicEnzian.sol\":3462:3629  function updateStringProcessVariable(string calldata variableName, string calldata newValue) public {\r... */\n    tag_19:\n      tag_96\n      0x04\n      dup1\n      calldatasize\n      sub\n      dup2\n      add\n      swap1\n      tag_97\n      swap2\n      swap1\n      tag_98\n      jump\t// in\n    tag_97:\n      tag_99\n      jump\t// in\n    tag_96:\n      stop\n        /* \"BasicEnzian.sol\":7315:7965  function evaluateDecision(Decision memory _decision) public view returns (bool success){\r... */\n    tag_26:\n        /* \"BasicEnzian.sol\":7389:7401  bool success */\n      0x00\n        /* \"BasicEnzian.sol\":7435:7458  DecisionType.STRINGDESC */\n      dup1\n        /* \"BasicEnzian.sol\":7416:7458  _decision.type_ == DecisionType.STRINGDESC */\n      0x02\n      dup2\n      gt\n      iszero\n      tag_101\n      jumpi\n      mstore(0x00, 0x4e487b7100000000000000000000000000000000000000000000000000000000)\n      mstore(0x04, 0x21)\n      revert(0x00, 0x24)\n    tag_101:\n        /* \"BasicEnzian.sol\":7416:7425  _decision */\n      dup3\n        /* \"BasicEnzian.sol\":7416:7431  _decision.type_ */\n      0x40\n      add\n      mload\n        /* \"BasicEnzian.sol\":7416:7458  _decision.type_ == DecisionType.STRINGDESC */\n      0x02\n      dup2\n      gt\n      iszero\n      tag_102\n      jumpi\n      mstore(0x00, 0x4e487b7100000000000000000000000000000000000000000000000000000000)\n      mstore(0x04, 0x21)\n      revert(0x00, 0x24)\n    tag_102:\n      eq\n        /* \"BasicEnzian.sol\":7413:7958  if(_decision.type_ == DecisionType.STRINGDESC){\r... */\n      iszero\n      tag_103\n      jumpi\n        /* \"BasicEnzian.sol\":7474:7510  string memory valueOfProcessVariable */\n      0x00\n        /* \"BasicEnzian.sol\":7513:7536  string_processVariables */\n      0x02\n        /* \"BasicEnzian.sol\":7537:7546  _decision */\n      dup4\n        /* \"BasicEnzian.sol\":7537:7562  _decision.processVariable */\n      0xc0\n      add\n      mload\n        /* \"BasicEnzian.sol\":7513:7563  string_processVariables[_decision.processVariable] */\n      mload(0x40)\n      tag_104\n      swap2\n      swap1\n      tag_105\n      jump\t// in\n    tag_104:\n      swap1\n      dup2\n      mstore\n      0x20\n      add\n      mload(0x40)\n      dup1\n      swap2\n      sub\n      swap1\n      keccak256\n        /* \"BasicEnzian.sol\":7474:7563  string memory valueOfProcessVariable = string_processVariables[_decision.processVariable] */\n      dup1\n      sload\n      tag_106\n      swap1\n      tag_107\n      jump\t// in\n    tag_106:\n      dup1\n      0x1f\n      add\n      0x20\n      dup1\n      swap2\n      div\n      mul\n      0x20\n      add\n      mload(0x40)\n      swap1\n      dup2\n      add\n      0x40\n      mstore\n      dup1\n      swap3\n      swap2\n      swap1\n      dup2\n      dup2\n      mstore\n      0x20\n      add\n      dup3\n      dup1\n      sload\n      tag_108\n      swap1\n      tag_107\n      jump\t// in\n    tag_108:\n      dup1\n      iszero\n      tag_109\n      jumpi\n      dup1\n      0x1f\n      lt\n      tag_110\n      jumpi\n      0x0100\n      dup1\n      dup4\n      sload\n      div\n      mul\n      dup4\n      mstore\n      swap2\n      0x20\n      add\n      swap2\n      jump(tag_109)\n    tag_110:\n      dup3\n      add\n      swap2\n      swap1\n      0x00\n      mstore\n      keccak256(0x00, 0x20)\n      swap1\n    tag_111:\n      dup2\n      sload\n      dup2\n      mstore\n      swap1\n      0x01\n      add\n      swap1\n      0x20\n      add\n      dup1\n      dup4\n      gt\n      tag_111\n      jumpi\n      dup3\n      swap1\n      sub\n      0x1f\n      and\n      dup3\n      add\n      swap2\n    tag_109:\n      pop\n      pop\n      pop\n      pop\n      pop\n      swap1\n      pop\n        /* \"BasicEnzian.sol\":7585:7600  DecisionLibrary */\n      linkerSymbol(\"80c56c7074f1c42024adf49f5dc2b40495aa8bbb68c1dca7ae61973c3346d226\")\n        /* \"BasicEnzian.sol\":7585:7609  DecisionLibrary.evaluate */\n      0xa8c0bf8e\n        /* \"BasicEnzian.sol\":7610:7632  valueOfProcessVariable */\n      dup3\n        /* \"BasicEnzian.sol\":7634:7643  _decision */\n      dup6\n        /* \"BasicEnzian.sol\":7634:7651  _decision.s_value */\n      0xe0\n      add\n      mload\n        /* \"BasicEnzian.sol\":7653:7662  _decision */\n      dup7\n        /* \"BasicEnzian.sol\":7653:7671  _decision.operator */\n      0xa0\n      add\n      mload\n        /* \"BasicEnzian.sol\":7585:7672  DecisionLibrary.evaluate(valueOfProcessVariable, _decision.s_value, _decision.operator) */\n      mload(0x40)\n      dup5\n      0xffffffff\n      and\n      0xe0\n      shl\n      dup2\n      mstore\n      0x04\n      add\n      tag_112\n      swap4\n      swap3\n      swap2\n      swap1\n      tag_113\n      jump\t// in\n    tag_112:\n      0x20\n      mload(0x40)\n      dup1\n      dup4\n      sub\n      dup2\n      dup7\n      dup1\n      extcodesize\n      iszero\n      dup1\n      iszero\n      tag_114\n      jumpi\n      0x00\n      dup1\n      revert\n    tag_114:\n      pop\n      gas\n      delegatecall\n      iszero\n      dup1\n      iszero\n      tag_116\n      jumpi\n      returndatasize\n      0x00\n      dup1\n      returndatacopy\n      revert(0x00, returndatasize)\n    tag_116:\n      pop\n      pop\n      pop\n      pop\n      mload(0x40)\n      returndatasize\n      not(0x1f)\n      0x1f\n      dup3\n      add\n      and\n      dup3\n      add\n      dup1\n      0x40\n      mstore\n      pop\n      dup2\n      add\n      swap1\n      tag_117\n      swap2\n      swap1\n      tag_118\n      jump\t// in\n    tag_117:\n        /* \"BasicEnzian.sol\":7578:7672  return DecisionLibrary.evaluate(valueOfProcessVariable, _decision.s_value, _decision.operator) */\n      swap2\n      pop\n      pop\n      jump(tag_100)\n        /* \"BasicEnzian.sol\":7413:7958  if(_decision.type_ == DecisionType.STRINGDESC){\r... */\n    tag_103:\n        /* \"BasicEnzian.sol\":7721:7741  DecisionType.INTDESC */\n      0x01\n        /* \"BasicEnzian.sol\":7702:7741  _decision.type_ == DecisionType.INTDESC */\n      0x02\n      dup2\n      gt\n      iszero\n      tag_120\n      jumpi\n      mstore(0x00, 0x4e487b7100000000000000000000000000000000000000000000000000000000)\n      mstore(0x04, 0x21)\n      revert(0x00, 0x24)\n    tag_120:\n        /* \"BasicEnzian.sol\":7702:7711  _decision */\n      dup3\n        /* \"BasicEnzian.sol\":7702:7717  _decision.type_ */\n      0x40\n      add\n      mload\n        /* \"BasicEnzian.sol\":7702:7741  _decision.type_ == DecisionType.INTDESC */\n      0x02\n      dup2\n      gt\n      iszero\n      tag_121\n      jumpi\n      mstore(0x00, 0x4e487b7100000000000000000000000000000000000000000000000000000000)\n      mstore(0x04, 0x21)\n      revert(0x00, 0x24)\n    tag_121:\n      eq\n        /* \"BasicEnzian.sol\":7699:7958  if(_decision.type_ == DecisionType.INTDESC){\r... */\n      iszero\n      tag_122\n      jumpi\n        /* \"BasicEnzian.sol\":7757:7783  int valueOfProcessVariable */\n      0x00\n        /* \"BasicEnzian.sol\":7786:7810  integer_processVariables */\n      0x01\n        /* \"BasicEnzian.sol\":7811:7820  _decision */\n      dup4\n        /* \"BasicEnzian.sol\":7811:7836  _decision.processVariable */\n      0xc0\n      add\n      mload\n        /* \"BasicEnzian.sol\":7786:7837  integer_processVariables[_decision.processVariable] */\n      mload(0x40)\n      tag_123\n      swap2\n      swap1\n      tag_105\n      jump\t// in\n    tag_123:\n      swap1\n      dup2\n      mstore\n      0x20\n      add\n      mload(0x40)\n      dup1\n      swap2\n      sub\n      swap1\n      keccak256\n      sload\n        /* \"BasicEnzian.sol\":7757:7837  int valueOfProcessVariable = integer_processVariables[_decision.processVariable] */\n      swap1\n      pop\n        /* \"BasicEnzian.sol\":7859:7874  DecisionLibrary */\n      linkerSymbol(\"80c56c7074f1c42024adf49f5dc2b40495aa8bbb68c1dca7ae61973c3346d226\")\n        /* \"BasicEnzian.sol\":7859:7883  DecisionLibrary.evaluate */\n      0xe1df7ad6\n        /* \"BasicEnzian.sol\":7884:7906  valueOfProcessVariable */\n      dup3\n        /* \"BasicEnzian.sol\":7908:7917  _decision */\n      dup6\n        /* \"BasicEnzian.sol\":7908:7925  _decision.i_value */\n      0x0100\n      add\n      mload\n        /* \"BasicEnzian.sol\":7927:7936  _decision */\n      dup7\n        /* \"BasicEnzian.sol\":7927:7945  _decision.operator */\n      0xa0\n      add\n      mload\n        /* \"BasicEnzian.sol\":7859:7946  DecisionLibrary.evaluate(valueOfProcessVariable, _decision.i_value, _decision.operator) */\n      mload(0x40)\n      dup5\n      0xffffffff\n      and\n      0xe0\n      shl\n      dup2\n      mstore\n      0x04\n      add\n      tag_124\n      swap4\n      swap3\n      swap2\n      swap1\n      tag_125\n      jump\t// in\n    tag_124:\n      0x20\n      mload(0x40)\n      dup1\n      dup4\n      sub\n      dup2\n      dup7\n      dup1\n      extcodesize\n      iszero\n      dup1\n      iszero\n      tag_126\n      jumpi\n      0x00\n      dup1\n      revert\n    tag_126:\n      pop\n      gas\n      delegatecall\n      iszero\n      dup1\n      iszero\n      tag_128\n      jumpi\n      returndatasize\n      0x00\n      dup1\n      returndatacopy\n      revert(0x00, returndatasize)\n    tag_128:\n      pop\n      pop\n      pop\n      pop\n      mload(0x40)\n      returndatasize\n      not(0x1f)\n      0x1f\n      dup3\n      add\n      and\n      dup3\n      add\n      dup1\n      0x40\n      mstore\n      pop\n      dup2\n      add\n      swap1\n      tag_129\n      swap2\n      swap1\n      tag_118\n      jump\t// in\n    tag_129:\n        /* \"BasicEnzian.sol\":7852:7946  return DecisionLibrary.evaluate(valueOfProcessVariable, _decision.i_value, _decision.operator) */\n      swap2\n      pop\n      pop\n      jump(tag_100)\n        /* \"BasicEnzian.sol\":7699:7958  if(_decision.type_ == DecisionType.INTDESC){\r... */\n    tag_122:\n        /* \"BasicEnzian.sol\":7315:7965  function evaluateDecision(Decision memory _decision) public view returns (bool success){\r... */\n    tag_100:\n      swap2\n      swap1\n      pop\n      jump\t// out\n        /* \"BasicEnzian.sol\":1975:2577  function createTask(\r... */\n    tag_32:\n        /* \"BasicEnzian.sol\":2245:2265  Task memory myStruct */\n      tag_131\n      tag_132\n      jump\t// in\n    tag_131:\n        /* \"BasicEnzian.sol\":2296:2305  _activity */\n      dup6\n        /* \"BasicEnzian.sol\":2276:2284  myStruct */\n      dup2\n        /* \"BasicEnzian.sol\":2276:2293  myStruct.activity */\n      0x00\n      add\n        /* \"BasicEnzian.sol\":2276:2305  myStruct.activity = _activity */\n      dup2\n      swap1\n      mstore\n      pop\n        /* \"BasicEnzian.sol\":2340:2353  _taskresource */\n      dup5\n        /* \"BasicEnzian.sol\":2316:2324  myStruct */\n      dup2\n        /* \"BasicEnzian.sol\":2316:2337  myStruct.taskresource */\n      0x20\n      add\n        /* \"BasicEnzian.sol\":2316:2353  myStruct.taskresource = _taskresource */\n      swap1\n      0xffffffffffffffffffffffffffffffffffffffff\n      and\n      swap1\n      dup2\n      0xffffffffffffffffffffffffffffffffffffffff\n      and\n      dup2\n      mstore\n      pop\n      pop\n        /* \"BasicEnzian.sol\":2385:2390  false */\n      0x00\n        /* \"BasicEnzian.sol\":2364:2372  myStruct */\n      dup2\n        /* \"BasicEnzian.sol\":2364:2382  myStruct.completed */\n      0x40\n      add\n        /* \"BasicEnzian.sol\":2364:2390  myStruct.completed = false */\n      swap1\n      iszero\n      iszero\n      swap1\n      dup2\n      iszero\n      iszero\n      dup2\n      mstore\n      pop\n      pop\n        /* \"BasicEnzian.sol\":2437:2441  _pmg */\n      dup4\n        /* \"BasicEnzian.sol\":2401:2409  myStruct */\n      dup2\n        /* \"BasicEnzian.sol\":2401:2434  myStruct.preceedingMergingGateway */\n      0x60\n      add\n        /* \"BasicEnzian.sol\":2401:2441  myStruct.preceedingMergingGateway = _pmg */\n      swap1\n      0x03\n      dup2\n      gt\n      iszero\n      tag_133\n      jumpi\n      mstore(0x00, 0x4e487b7100000000000000000000000000000000000000000000000000000000)\n      mstore(0x04, 0x21)\n      revert(0x00, 0x24)\n    tag_133:\n      swap1\n      dup2\n      0x03\n      dup2\n      gt\n      iszero\n      tag_134\n      jumpi\n      mstore(0x00, 0x4e487b7100000000000000000000000000000000000000000000000000000000)\n      mstore(0x04, 0x21)\n      revert(0x00, 0x24)\n    tag_134:\n      dup2\n      mstore\n      pop\n      pop\n        /* \"BasicEnzian.sol\":2476:2489  _requirements */\n      dup3\n        /* \"BasicEnzian.sol\":2452:2460  myStruct */\n      dup2\n        /* \"BasicEnzian.sol\":2452:2473  myStruct.requirements */\n      0x80\n      add\n        /* \"BasicEnzian.sol\":2452:2489  myStruct.requirements = _requirements */\n      dup2\n      swap1\n      mstore\n      pop\n        /* \"BasicEnzian.sol\":2523:2535  _competitors */\n      dup2\n        /* \"BasicEnzian.sol\":2500:2508  myStruct */\n      dup2\n        /* \"BasicEnzian.sol\":2500:2520  myStruct.competitors */\n      0xa0\n      add\n        /* \"BasicEnzian.sol\":2500:2535  myStruct.competitors = _competitors */\n      dup2\n      swap1\n      mstore\n      pop\n        /* \"BasicEnzian.sol\":2560:2568  myStruct */\n      dup1\n        /* \"BasicEnzian.sol\":2546:2551  tasks */\n      0x00\n        /* \"BasicEnzian.sol\":2546:2556  tasks[_id] */\n      dup1\n        /* \"BasicEnzian.sol\":2552:2555  _id */\n      dup10\n        /* \"BasicEnzian.sol\":2546:2556  tasks[_id] */\n      dup2\n      mstore\n      0x20\n      add\n      swap1\n      dup2\n      mstore\n      0x20\n      add\n      0x00\n      keccak256\n        /* \"BasicEnzian.sol\":2546:2569  tasks[_id] = (myStruct) */\n      0x00\n      dup3\n      add\n      mload\n      dup2\n      0x00\n      add\n      swap1\n      dup1\n      mload\n      swap1\n      0x20\n      add\n      swap1\n      tag_135\n      swap3\n      swap2\n      swap1\n      tag_136\n      jump\t// in\n    tag_135:\n      pop\n      0x20\n      dup3\n      add\n      mload\n      dup2\n      0x01\n      add\n      exp(0x0100, 0x00)\n      dup2\n      sload\n      dup2\n      0xffffffffffffffffffffffffffffffffffffffff\n      mul\n      not\n      and\n      swap1\n      dup4\n      0xffffffffffffffffffffffffffffffffffffffff\n      and\n      mul\n      or\n      swap1\n      sstore\n      pop\n      0x40\n      dup3\n      add\n      mload\n      dup2\n      0x01\n      add\n      exp(0x0100, 0x14)\n      dup2\n      sload\n      dup2\n      0xff\n      mul\n      not\n      and\n      swap1\n      dup4\n      iszero\n      iszero\n      mul\n      or\n      swap1\n      sstore\n      pop\n      0x60\n      dup3\n      add\n      mload\n      dup2\n      0x01\n      add\n      exp(0x0100, 0x15)\n      dup2\n      sload\n      dup2\n      0xff\n      mul\n      not\n      and\n      swap1\n      dup4\n      0x03\n      dup2\n      gt\n      iszero\n      tag_137\n      jumpi\n      mstore(0x00, 0x4e487b7100000000000000000000000000000000000000000000000000000000)\n      mstore(0x04, 0x21)\n      revert(0x00, 0x24)\n    tag_137:\n      mul\n      or\n      swap1\n      sstore\n      pop\n      0x80\n      dup3\n      add\n      mload\n      dup2\n      0x02\n      add\n      swap1\n      dup1\n      mload\n      swap1\n      0x20\n      add\n      swap1\n      tag_138\n      swap3\n      swap2\n      swap1\n      tag_139\n      jump\t// in\n    tag_138:\n      pop\n      0xa0\n      dup3\n      add\n      mload\n      dup2\n      0x03\n      add\n      swap1\n      dup1\n      mload\n      swap1\n      0x20\n      add\n      swap1\n      tag_140\n      swap3\n      swap2\n      swap1\n      tag_139\n      jump\t// in\n    tag_140:\n      pop\n      0xc0\n      dup3\n      add\n      mload\n      dup2\n      0x04\n      add\n      0x00\n      dup3\n      add\n      mload\n      dup2\n      0x00\n      add\n      sstore\n      0x20\n      dup3\n      add\n      mload\n      dup2\n      0x01\n      add\n      exp(0x0100, 0x00)\n      dup2\n      sload\n      dup2\n      0xff\n      mul\n      not\n      and\n      swap1\n      dup4\n      0x03\n      dup2\n      gt\n      iszero\n      tag_141\n      jumpi\n      mstore(0x00, 0x4e487b7100000000000000000000000000000000000000000000000000000000)\n      mstore(0x04, 0x21)\n      revert(0x00, 0x24)\n    tag_141:\n      mul\n      or\n      swap1\n      sstore\n      pop\n      0x40\n      dup3\n      add\n      mload\n      dup2\n      0x01\n      add\n      exp(0x0100, 0x01)\n      dup2\n      sload\n      dup2\n      0xff\n      mul\n      not\n      and\n      swap1\n      dup4\n      0x02\n      dup2\n      gt\n      iszero\n      tag_142\n      jumpi\n      mstore(0x00, 0x4e487b7100000000000000000000000000000000000000000000000000000000)\n      mstore(0x04, 0x21)\n      revert(0x00, 0x24)\n    tag_142:\n      mul\n      or\n      swap1\n      sstore\n      pop\n      0x60\n      dup3\n      add\n      mload\n      dup2\n      0x01\n      add\n      exp(0x0100, 0x02)\n      dup2\n      sload\n      dup2\n      0xff\n      mul\n      not\n      and\n      swap1\n      dup4\n      iszero\n      iszero\n      mul\n      or\n      swap1\n      sstore\n      pop\n      0x80\n      dup3\n      add\n      mload\n      dup2\n      0x01\n      add\n      exp(0x0100, 0x03)\n      dup2\n      sload\n      dup2\n      0xff\n      mul\n      not\n      and\n      swap1\n      dup4\n      iszero\n      iszero\n      mul\n      or\n      swap1\n      sstore\n      pop\n      0xa0\n      dup3\n      add\n      mload\n      dup2\n      0x01\n      add\n      exp(0x0100, 0x04)\n      dup2\n      sload\n      dup2\n      0xff\n      mul\n      not\n      and\n      swap1\n      dup4\n      0x06\n      dup2\n      gt\n      iszero\n      tag_143\n      jumpi\n      mstore(0x00, 0x4e487b7100000000000000000000000000000000000000000000000000000000)\n      mstore(0x04, 0x21)\n      revert(0x00, 0x24)\n    tag_143:\n      mul\n      or\n      swap1\n      sstore\n      pop\n      0xc0\n      dup3\n      add\n      mload\n      dup2\n      0x02\n      add\n      swap1\n      dup1\n      mload\n      swap1\n      0x20\n      add\n      swap1\n      tag_144\n      swap3\n      swap2\n      swap1\n      tag_136\n      jump\t// in\n    tag_144:\n      pop\n      0xe0\n      dup3\n      add\n      mload\n      dup2\n      0x03\n      add\n      swap1\n      dup1\n      mload\n      swap1\n      0x20\n      add\n      swap1\n      tag_145\n      swap3\n      swap2\n      swap1\n      tag_136\n      jump\t// in\n    tag_145:\n      pop\n      0x0100\n      dup3\n      add\n      mload\n      dup2\n      0x04\n      add\n      swap1\n      dup1\n      mload\n      swap1\n      0x20\n      add\n      swap1\n      tag_146\n      swap3\n      swap2\n      swap1\n      tag_147\n      jump\t// in\n    tag_146:\n      pop\n      pop\n      pop\n      swap1\n      pop\n      pop\n        /* \"BasicEnzian.sol\":1975:2577  function createTask(\r... */\n      pop\n      pop\n      pop\n      pop\n      pop\n      pop\n      pop\n      jump\t// out\n        /* \"BasicEnzian.sol\":1220:1274  mapping(string => int) public integer_processVariables */\n    tag_36:\n      0x01\n      dup2\n      dup1\n      mload\n      0x20\n      dup2\n      add\n      dup3\n      add\n      dup1\n      mload\n      dup5\n      dup3\n      mstore\n      0x20\n      dup4\n      add\n      0x20\n      dup6\n      add\n      keccak256\n      dup2\n      dup4\n      mstore\n      dup1\n      swap6\n      pop\n      pop\n      pop\n      pop\n      pop\n      pop\n      0x00\n      swap2\n      pop\n      swap1\n      pop\n      sload\n      dup2\n      jump\t// out\n        /* \"BasicEnzian.sol\":3297:3450  function updateIntProcessVariable(string calldata variableName, int newValue) public {\r... */\n    tag_42:\n        /* \"BasicEnzian.sol\":3434:3442  newValue */\n      dup1\n        /* \"BasicEnzian.sol\":3393:3417  integer_processVariables */\n      0x01\n        /* \"BasicEnzian.sol\":3418:3430  variableName */\n      dup5\n      dup5\n        /* \"BasicEnzian.sol\":3393:3431  integer_processVariables[variableName] */\n      mload(0x40)\n      tag_149\n      swap3\n      swap2\n      swap1\n      tag_150\n      jump\t// in\n    tag_149:\n      swap1\n      dup2\n      mstore\n      0x20\n      add\n      mload(0x40)\n      dup1\n      swap2\n      sub\n      swap1\n      keccak256\n        /* \"BasicEnzian.sol\":3393:3442  integer_processVariables[variableName] = newValue */\n      dup2\n      swap1\n      sstore\n      pop\n        /* \"BasicEnzian.sol\":3297:3450  function updateIntProcessVariable(string calldata variableName, int newValue) public {\r... */\n      pop\n      pop\n      pop\n      jump\t// out\n        /* \"BasicEnzian.sol\":1696:1822  function getDebugStringeventLog() public view returns(string[] memory theevents) {\r... */\n    tag_44:\n        /* \"BasicEnzian.sol\":1750:1775  string[] memory theevents */\n      0x60\n        /* \"BasicEnzian.sol\":1795:1814  debugStringeventLog */\n      0x04\n        /* \"BasicEnzian.sol\":1788:1814  return debugStringeventLog */\n      dup1\n      sload\n      dup1\n      0x20\n      mul\n      0x20\n      add\n      mload(0x40)\n      swap1\n      dup2\n      add\n      0x40\n      mstore\n      dup1\n      swap3\n      swap2\n      swap1\n      dup2\n      dup2\n      mstore\n      0x20\n      add\n      0x00\n      swap1\n    tag_152:\n      dup3\n      dup3\n      lt\n      iszero\n      tag_153\n      jumpi\n      dup4\n      dup3\n      swap1\n      0x00\n      mstore\n      keccak256(0x00, 0x20)\n      add\n      dup1\n      sload\n      tag_155\n      swap1\n      tag_107\n      jump\t// in\n    tag_155:\n      dup1\n      0x1f\n      add\n      0x20\n      dup1\n      swap2\n      div\n      mul\n      0x20\n      add\n      mload(0x40)\n      swap1\n      dup2\n      add\n      0x40\n      mstore\n      dup1\n      swap3\n      swap2\n      swap1\n      dup2\n      dup2\n      mstore\n      0x20\n      add\n      dup3\n      dup1\n      sload\n      tag_156\n      swap1\n      tag_107\n      jump\t// in\n    tag_156:\n      dup1\n      iszero\n      tag_157\n      jumpi\n      dup1\n      0x1f\n      lt\n      tag_158\n      jumpi\n      0x0100\n      dup1\n      dup4\n      sload\n      div\n      mul\n      dup4\n      mstore\n      swap2\n      0x20\n      add\n      swap2\n      jump(tag_157)\n    tag_158:\n      dup3\n      add\n      swap2\n      swap1\n      0x00\n      mstore\n      keccak256(0x00, 0x20)\n      swap1\n    tag_159:\n      dup2\n      sload\n      dup2\n      mstore\n      swap1\n      0x01\n      add\n      swap1\n      0x20\n      add\n      dup1\n      dup4\n      gt\n      tag_159\n      jumpi\n      dup3\n      swap1\n      sub\n      0x1f\n      and\n      dup3\n      add\n      swap2\n    tag_157:\n      pop\n      pop\n      pop\n      pop\n      pop\n      dup2\n      mstore\n      0x20\n      add\n      swap1\n      0x01\n      add\n      swap1\n      jump(tag_152)\n    tag_153:\n      pop\n      pop\n      pop\n      pop\n      swap1\n      pop\n        /* \"BasicEnzian.sol\":1696:1822  function getDebugStringeventLog() public view returns(string[] memory theevents) {\r... */\n      swap1\n      jump\t// out\n        /* \"BasicEnzian.sol\":1654:1689  string[] public debugStringeventLog */\n    tag_50:\n      0x04\n      dup2\n      dup2\n      sload\n      dup2\n      lt\n      tag_160\n      jumpi\n      0x00\n      dup1\n      revert\n    tag_160:\n      swap1\n      0x00\n      mstore\n      keccak256(0x00, 0x20)\n      add\n      0x00\n      swap2\n      pop\n      swap1\n      pop\n      dup1\n      sload\n      tag_162\n      swap1\n      tag_107\n      jump\t// in\n    tag_162:\n      dup1\n      0x1f\n      add\n      0x20\n      dup1\n      swap2\n      div\n      mul\n      0x20\n      add\n      mload(0x40)\n      swap1\n      dup2\n      add\n      0x40\n      mstore\n      dup1\n      swap3\n      swap2\n      swap1\n      dup2\n      dup2\n      mstore\n      0x20\n      add\n      dup3\n      dup1\n      sload\n      tag_163\n      swap1\n      tag_107\n      jump\t// in\n    tag_163:\n      dup1\n      iszero\n      tag_164\n      jumpi\n      dup1\n      0x1f\n      lt\n      tag_165\n      jumpi\n      0x0100\n      dup1\n      dup4\n      sload\n      div\n      mul\n      dup4\n      mstore\n      swap2\n      0x20\n      add\n      swap2\n      jump(tag_164)\n    tag_165:\n      dup3\n      add\n      swap2\n      swap1\n      0x00\n      mstore\n      keccak256(0x00, 0x20)\n      swap1\n    tag_166:\n      dup2\n      sload\n      dup2\n      mstore\n      swap1\n      0x01\n      add\n      swap1\n      0x20\n      add\n      dup1\n      dup4\n      gt\n      tag_166\n      jumpi\n      dup3\n      swap1\n      sub\n      0x1f\n      and\n      dup3\n      add\n      swap2\n    tag_164:\n      pop\n      pop\n      pop\n      pop\n      pop\n      dup2\n      jump\t// out\n        /* \"BasicEnzian.sol\":8800:8937  function decisionTest() public pure returns(uint drei) {\r... */\n    tag_54:\n        /* \"BasicEnzian.sol\":8844:8853  uint drei */\n      0x00\n        /* \"BasicEnzian.sol\":8866:8874  uint zwo */\n      dup1\n        /* \"BasicEnzian.sol\":8877:8892  DecisionLibrary */\n      linkerSymbol(\"80c56c7074f1c42024adf49f5dc2b40495aa8bbb68c1dca7ae61973c3346d226\")\n        /* \"BasicEnzian.sol\":8877:8902  DecisionLibrary.returnZwo */\n      0xc237647f\n        /* \"BasicEnzian.sol\":8877:8904  DecisionLibrary.returnZwo() */\n      mload(0x40)\n      dup2\n      0xffffffff\n      and\n      0xe0\n      shl\n      dup2\n      mstore\n      0x04\n      add\n      0x20\n      mload(0x40)\n      dup1\n      dup4\n      sub\n      dup2\n      dup7\n      dup1\n      extcodesize\n      iszero\n      dup1\n      iszero\n      tag_168\n      jumpi\n      0x00\n      dup1\n      revert\n    tag_168:\n      pop\n      gas\n      delegatecall\n      iszero\n      dup1\n      iszero\n      tag_170\n      jumpi\n      returndatasize\n      0x00\n      dup1\n      returndatacopy\n      revert(0x00, returndatasize)\n    tag_170:\n      pop\n      pop\n      pop\n      pop\n      mload(0x40)\n      returndatasize\n      not(0x1f)\n      0x1f\n      dup3\n      add\n      and\n      dup3\n      add\n      dup1\n      0x40\n      mstore\n      pop\n      dup2\n      add\n      swap1\n      tag_171\n      swap2\n      swap1\n      tag_172\n      jump\t// in\n    tag_171:\n        /* \"BasicEnzian.sol\":8866:8904  uint zwo = DecisionLibrary.returnZwo() */\n      swap1\n      pop\n        /* \"BasicEnzian.sol\":8926:8927  5 */\n      0x05\n        /* \"BasicEnzian.sol\":8922:8925  zwo */\n      dup2\n        /* \"BasicEnzian.sol\":8922:8927  zwo+5 */\n      tag_173\n      swap2\n      swap1\n      tag_174\n      jump\t// in\n    tag_173:\n        /* \"BasicEnzian.sol\":8915:8927  return zwo+5 */\n      swap2\n      pop\n      pop\n        /* \"BasicEnzian.sol\":8800:8937  function decisionTest() public pure returns(uint drei) {\r... */\n      swap1\n      jump\t// out\n        /* \"BasicEnzian.sol\":3637:3802  function getIntProcessVariableValue(string calldata variableName) public view returns (int thevalue) {\r... */\n    tag_60:\n        /* \"BasicEnzian.sol\":3724:3736  int thevalue */\n      0x00\n        /* \"BasicEnzian.sol\":3756:3780  integer_processVariables */\n      0x01\n        /* \"BasicEnzian.sol\":3781:3793  variableName */\n      dup4\n      dup4\n        /* \"BasicEnzian.sol\":3756:3794  integer_processVariables[variableName] */\n      mload(0x40)\n      tag_176\n      swap3\n      swap2\n      swap1\n      tag_150\n      jump\t// in\n    tag_176:\n      swap1\n      dup2\n      mstore\n      0x20\n      add\n      mload(0x40)\n      dup1\n      swap2\n      sub\n      swap1\n      keccak256\n      sload\n        /* \"BasicEnzian.sol\":3749:3794  return integer_processVariables[variableName] */\n      swap1\n      pop\n        /* \"BasicEnzian.sol\":3637:3802  function getIntProcessVariableValue(string calldata variableName) public view returns (int thevalue) {\r... */\n      swap3\n      swap2\n      pop\n      pop\n      jump\t// out\n        /* \"BasicEnzian.sol\":1450:1554  function getLog() public view returns(uint[] memory theevents) {\r... */\n    tag_63:\n        /* \"BasicEnzian.sol\":1488:1511  uint[] memory theevents */\n      0x60\n        /* \"BasicEnzian.sol\":1531:1546  theRealEventLog */\n      0x03\n        /* \"BasicEnzian.sol\":1524:1546  return theRealEventLog */\n      dup1\n      sload\n      dup1\n      0x20\n      mul\n      0x20\n      add\n      mload(0x40)\n      swap1\n      dup2\n      add\n      0x40\n      mstore\n      dup1\n      swap3\n      swap2\n      swap1\n      dup2\n      dup2\n      mstore\n      0x20\n      add\n      dup3\n      dup1\n      sload\n      dup1\n      iszero\n      tag_178\n      jumpi\n      0x20\n      mul\n      dup3\n      add\n      swap2\n      swap1\n      0x00\n      mstore\n      keccak256(0x00, 0x20)\n      swap1\n    tag_179:\n      dup2\n      sload\n      dup2\n      mstore\n      0x20\n      add\n      swap1\n      0x01\n      add\n      swap1\n      dup1\n      dup4\n      gt\n      tag_179\n      jumpi\n    tag_178:\n      pop\n      pop\n      pop\n      pop\n      pop\n      swap1\n      pop\n        /* \"BasicEnzian.sol\":1450:1554  function getLog() public view returns(uint[] memory theevents) {\r... */\n      swap1\n      jump\t// out\n        /* \"BasicEnzian.sol\":1414:1443  uint[] public theRealEventLog */\n    tag_68:\n      0x03\n      dup2\n      dup2\n      sload\n      dup2\n      lt\n      tag_180\n      jumpi\n      0x00\n      dup1\n      revert\n    tag_180:\n      swap1\n      0x00\n      mstore\n      keccak256(0x00, 0x20)\n      add\n      0x00\n      swap2\n      pop\n      swap1\n      pop\n      sload\n      dup2\n      jump\t// out\n        /* \"BasicEnzian.sol\":8395:8792  function getTaskById(uint _id) public view returns (bool status,\r... */\n    tag_72:\n        /* \"BasicEnzian.sol\":8447:8458  bool status */\n      0x00\n        /* \"BasicEnzian.sol\":8469:8494  string memory description */\n      0x60\n        /* \"BasicEnzian.sol\":8496:8516  address taskresource */\n      0x00\n        /* \"BasicEnzian.sol\":8518:8537  GatewayType gateway */\n      dup1\n        /* \"BasicEnzian.sol\":8548:8574  uint[] memory requirements */\n      0x60\n        /* \"BasicEnzian.sol\":8576:8601  uint[] memory competitors */\n      dup1\n        /* \"BasicEnzian.sol\":8621:8626  tasks */\n      0x00\n        /* \"BasicEnzian.sol\":8621:8631  tasks[_id] */\n      dup1\n        /* \"BasicEnzian.sol\":8627:8630  _id */\n      dup9\n        /* \"BasicEnzian.sol\":8621:8631  tasks[_id] */\n      dup2\n      mstore\n      0x20\n      add\n      swap1\n      dup2\n      mstore\n      0x20\n      add\n      0x00\n      keccak256\n        /* \"BasicEnzian.sol\":8621:8641  tasks[_id].completed */\n      0x01\n      add\n      0x14\n      swap1\n      sload\n      swap1\n      0x0100\n      exp\n      swap1\n      div\n      0xff\n      and\n        /* \"BasicEnzian.sol\":8643:8648  tasks */\n      0x00\n        /* \"BasicEnzian.sol\":8643:8653  tasks[_id] */\n      dup1\n        /* \"BasicEnzian.sol\":8649:8652  _id */\n      dup10\n        /* \"BasicEnzian.sol\":8643:8653  tasks[_id] */\n      dup2\n      mstore\n      0x20\n      add\n      swap1\n      dup2\n      mstore\n      0x20\n      add\n      0x00\n      keccak256\n        /* \"BasicEnzian.sol\":8643:8662  tasks[_id].activity */\n      0x00\n      add\n        /* \"BasicEnzian.sol\":8664:8669  tasks */\n      0x00\n        /* \"BasicEnzian.sol\":8664:8674  tasks[_id] */\n      dup1\n        /* \"BasicEnzian.sol\":8670:8673  _id */\n      dup11\n        /* \"BasicEnzian.sol\":8664:8674  tasks[_id] */\n      dup2\n      mstore\n      0x20\n      add\n      swap1\n      dup2\n      mstore\n      0x20\n      add\n      0x00\n      keccak256\n        /* \"BasicEnzian.sol\":8664:8687  tasks[_id].taskresource */\n      0x01\n      add\n      0x00\n      swap1\n      sload\n      swap1\n      0x0100\n      exp\n      swap1\n      div\n      0xffffffffffffffffffffffffffffffffffffffff\n      and\n        /* \"BasicEnzian.sol\":8699:8704  tasks */\n      0x00\n        /* \"BasicEnzian.sol\":8699:8709  tasks[_id] */\n      dup1\n        /* \"BasicEnzian.sol\":8705:8708  _id */\n      dup12\n        /* \"BasicEnzian.sol\":8699:8709  tasks[_id] */\n      dup2\n      mstore\n      0x20\n      add\n      swap1\n      dup2\n      mstore\n      0x20\n      add\n      0x00\n      keccak256\n        /* \"BasicEnzian.sol\":8699:8734  tasks[_id].preceedingMergingGateway */\n      0x01\n      add\n      0x15\n      swap1\n      sload\n      swap1\n      0x0100\n      exp\n      swap1\n      div\n      0xff\n      and\n        /* \"BasicEnzian.sol\":8736:8741  tasks */\n      0x00\n        /* \"BasicEnzian.sol\":8736:8746  tasks[_id] */\n      dup1\n        /* \"BasicEnzian.sol\":8742:8745  _id */\n      dup13\n        /* \"BasicEnzian.sol\":8736:8746  tasks[_id] */\n      dup2\n      mstore\n      0x20\n      add\n      swap1\n      dup2\n      mstore\n      0x20\n      add\n      0x00\n      keccak256\n        /* \"BasicEnzian.sol\":8736:8759  tasks[_id].requirements */\n      0x02\n      add\n        /* \"BasicEnzian.sol\":8761:8766  tasks */\n      0x00\n        /* \"BasicEnzian.sol\":8761:8771  tasks[_id] */\n      dup1\n        /* \"BasicEnzian.sol\":8767:8770  _id */\n      dup14\n        /* \"BasicEnzian.sol\":8761:8771  tasks[_id] */\n      dup2\n      mstore\n      0x20\n      add\n      swap1\n      dup2\n      mstore\n      0x20\n      add\n      0x00\n      keccak256\n        /* \"BasicEnzian.sol\":8761:8783  tasks[_id].competitors */\n      0x03\n      add\n        /* \"BasicEnzian.sol\":8613:8784  return (tasks[_id].completed, tasks[_id].activity, tasks[_id].taskresource,\r... */\n      dup5\n      dup1\n      sload\n      tag_183\n      swap1\n      tag_107\n      jump\t// in\n    tag_183:\n      dup1\n      0x1f\n      add\n      0x20\n      dup1\n      swap2\n      div\n      mul\n      0x20\n      add\n      mload(0x40)\n      swap1\n      dup2\n      add\n      0x40\n      mstore\n      dup1\n      swap3\n      swap2\n      swap1\n      dup2\n      dup2\n      mstore\n      0x20\n      add\n      dup3\n      dup1\n      sload\n      tag_184\n      swap1\n      tag_107\n      jump\t// in\n    tag_184:\n      dup1\n      iszero\n      tag_185\n      jumpi\n      dup1\n      0x1f\n      lt\n      tag_186\n      jumpi\n      0x0100\n      dup1\n      dup4\n      sload\n      div\n      mul\n      dup4\n      mstore\n      swap2\n      0x20\n      add\n      swap2\n      jump(tag_185)\n    tag_186:\n      dup3\n      add\n      swap2\n      swap1\n      0x00\n      mstore\n      keccak256(0x00, 0x20)\n      swap1\n    tag_187:\n      dup2\n      sload\n      dup2\n      mstore\n      swap1\n      0x01\n      add\n      swap1\n      0x20\n      add\n      dup1\n      dup4\n      gt\n      tag_187\n      jumpi\n      dup3\n      swap1\n      sub\n      0x1f\n      and\n      dup3\n      add\n      swap2\n    tag_185:\n      pop\n      pop\n      pop\n      pop\n      pop\n      swap5\n      pop\n      dup2\n      dup1\n      sload\n      dup1\n      0x20\n      mul\n      0x20\n      add\n      mload(0x40)\n      swap1\n      dup2\n      add\n      0x40\n      mstore\n      dup1\n      swap3\n      swap2\n      swap1\n      dup2\n      dup2\n      mstore\n      0x20\n      add\n      dup3\n      dup1\n      sload\n      dup1\n      iszero\n      tag_188\n      jumpi\n      0x20\n      mul\n      dup3\n      add\n      swap2\n      swap1\n      0x00\n      mstore\n      keccak256(0x00, 0x20)\n      swap1\n    tag_189:\n      dup2\n      sload\n      dup2\n      mstore\n      0x20\n      add\n      swap1\n      0x01\n      add\n      swap1\n      dup1\n      dup4\n      gt\n      tag_189\n      jumpi\n    tag_188:\n      pop\n      pop\n      pop\n      pop\n      pop\n      swap2\n      pop\n      dup1\n      dup1\n      sload\n      dup1\n      0x20\n      mul\n      0x20\n      add\n      mload(0x40)\n      swap1\n      dup2\n      add\n      0x40\n      mstore\n      dup1\n      swap3\n      swap2\n      swap1\n      dup2\n      dup2\n      mstore\n      0x20\n      add\n      dup3\n      dup1\n      sload\n      dup1\n      iszero\n      tag_190\n      jumpi\n      0x20\n      mul\n      dup3\n      add\n      swap2\n      swap1\n      0x00\n      mstore\n      keccak256(0x00, 0x20)\n      swap1\n    tag_191:\n      dup2\n      sload\n      dup2\n      mstore\n      0x20\n      add\n      swap1\n      0x01\n      add\n      swap1\n      dup1\n      dup4\n      gt\n      tag_191\n      jumpi\n    tag_190:\n      pop\n      pop\n      pop\n      pop\n      pop\n      swap1\n      pop\n      swap6\n      pop\n      swap6\n      pop\n      swap6\n      pop\n      swap6\n      pop\n      swap6\n      pop\n      swap6\n      pop\n        /* \"BasicEnzian.sol\":8395:8792  function getTaskById(uint _id) public view returns (bool status,\r... */\n      swap2\n      swap4\n      swap6\n      pop\n      swap2\n      swap4\n      swap6\n      jump\t// out\n        /* \"BasicEnzian.sol\":8167:8290  function isTaskCompletedById(uint _id) public view returns (bool success){\r... */\n    tag_77:\n        /* \"BasicEnzian.sol\":8227:8239  bool success */\n      0x00\n        /* \"BasicEnzian.sol\":8261:8266  tasks */\n      dup1\n        /* \"BasicEnzian.sol\":8261:8271  tasks[_id] */\n      0x00\n        /* \"BasicEnzian.sol\":8267:8270  _id */\n      dup4\n        /* \"BasicEnzian.sol\":8261:8271  tasks[_id] */\n      dup2\n      mstore\n      0x20\n      add\n      swap1\n      dup2\n      mstore\n      0x20\n      add\n      0x00\n      keccak256\n        /* \"BasicEnzian.sol\":8261:8281  tasks[_id].completed */\n      0x01\n      add\n      0x14\n      swap1\n      sload\n      swap1\n      0x0100\n      exp\n      swap1\n      div\n      0xff\n      and\n        /* \"BasicEnzian.sol\":8253:8282  return (tasks[_id].completed) */\n      swap1\n      pop\n        /* \"BasicEnzian.sol\":8167:8290  function isTaskCompletedById(uint _id) public view returns (bool success){\r... */\n      swap2\n      swap1\n      pop\n      jump\t// out\n        /* \"BasicEnzian.sol\":3902:7121  function completing(uint taskId) public returns (bool success){\r... */\n    tag_81:\n        /* \"BasicEnzian.sol\":3951:3963  bool success */\n      0x00\n        /* \"BasicEnzian.sol\":4030:4046  address resource */\n      dup1\n        /* \"BasicEnzian.sol\":4049:4054  tasks */\n      0x00\n        /* \"BasicEnzian.sol\":4049:4062  tasks[taskId] */\n      dup1\n        /* \"BasicEnzian.sol\":4055:4061  taskId */\n      dup5\n        /* \"BasicEnzian.sol\":4049:4062  tasks[taskId] */\n      dup2\n      mstore\n      0x20\n      add\n      swap1\n      dup2\n      mstore\n      0x20\n      add\n      0x00\n      keccak256\n        /* \"BasicEnzian.sol\":4049:4075  tasks[taskId].taskresource */\n      0x01\n      add\n      0x00\n      swap1\n      sload\n      swap1\n      0x0100\n      exp\n      swap1\n      div\n      0xffffffffffffffffffffffffffffffffffffffff\n      and\n        /* \"BasicEnzian.sol\":4030:4075  address resource = tasks[taskId].taskresource */\n      swap1\n      pop\n        /* \"BasicEnzian.sol\":4114:4115  0 */\n      0x00\n        /* \"BasicEnzian.sol\":4094:4116  resource == address(0) */\n      0xffffffffffffffffffffffffffffffffffffffff\n      and\n        /* \"BasicEnzian.sol\":4094:4102  resource */\n      dup2\n        /* \"BasicEnzian.sol\":4094:4116  resource == address(0) */\n      0xffffffffffffffffffffffffffffffffffffffff\n      and\n      eq\n        /* \"BasicEnzian.sol\":4094:4142  resource == address(0) || resource == msg.sender */\n      dup1\n      tag_194\n      jumpi\n      pop\n        /* \"BasicEnzian.sol\":4132:4142  msg.sender */\n      caller\n        /* \"BasicEnzian.sol\":4120:4142  resource == msg.sender */\n      0xffffffffffffffffffffffffffffffffffffffff\n      and\n        /* \"BasicEnzian.sol\":4120:4128  resource */\n      dup2\n        /* \"BasicEnzian.sol\":4120:4142  resource == msg.sender */\n      0xffffffffffffffffffffffffffffffffffffffff\n      and\n      eq\n        /* \"BasicEnzian.sol\":4094:4142  resource == address(0) || resource == msg.sender */\n    tag_194:\n        /* \"BasicEnzian.sol\":4144:4149  tasks */\n      0x00\n        /* \"BasicEnzian.sol\":4144:4157  tasks[taskId] */\n      dup1\n        /* \"BasicEnzian.sol\":4150:4156  taskId */\n      dup6\n        /* \"BasicEnzian.sol\":4144:4157  tasks[taskId] */\n      dup2\n      mstore\n      0x20\n      add\n      swap1\n      dup2\n      mstore\n      0x20\n      add\n      0x00\n      keccak256\n        /* \"BasicEnzian.sol\":4144:4166  tasks[taskId].activity */\n      0x00\n      add\n        /* \"BasicEnzian.sol\":4086:4167  require(resource == address(0) || resource == msg.sender, tasks[taskId].activity) */\n      swap1\n      tag_195\n      jumpi\n      mload(0x40)\n      0x08c379a000000000000000000000000000000000000000000000000000000000\n      dup2\n      mstore\n      0x04\n      add\n      tag_196\n      swap2\n      swap1\n      tag_197\n      jump\t// in\n    tag_196:\n      mload(0x40)\n      dup1\n      swap2\n      sub\n      swap1\n      revert\n    tag_195:\n      pop\n        /* \"BasicEnzian.sol\":4267:4272  tasks */\n      0x00\n        /* \"BasicEnzian.sol\":4267:4280  tasks[taskId] */\n      dup1\n        /* \"BasicEnzian.sol\":4273:4279  taskId */\n      dup5\n        /* \"BasicEnzian.sol\":4267:4280  tasks[taskId] */\n      dup2\n      mstore\n      0x20\n      add\n      swap1\n      dup2\n      mstore\n      0x20\n      add\n      0x00\n      keccak256\n        /* \"BasicEnzian.sol\":4267:4289  tasks[taskId].decision */\n      0x04\n      add\n        /* \"BasicEnzian.sol\":4267:4296  tasks[taskId].decision.exists */\n      0x01\n      add\n      0x03\n      swap1\n      sload\n      swap1\n      0x0100\n      exp\n      swap1\n      div\n      0xff\n      and\n        /* \"BasicEnzian.sol\":4264:4445  if(tasks[taskId].decision.exists) {\r... */\n      iszero\n      tag_198\n      jumpi\n        /* \"BasicEnzian.sol\":4313:4324  bool result */\n      0x00\n        /* \"BasicEnzian.sol\":4327:4367  evaluateDecision(tasks[taskId].decision) */\n      tag_199\n        /* \"BasicEnzian.sol\":4344:4349  tasks */\n      0x00\n        /* \"BasicEnzian.sol\":4344:4357  tasks[taskId] */\n      dup1\n        /* \"BasicEnzian.sol\":4350:4356  taskId */\n      dup7\n        /* \"BasicEnzian.sol\":4344:4357  tasks[taskId] */\n      dup2\n      mstore\n      0x20\n      add\n      swap1\n      dup2\n      mstore\n      0x20\n      add\n      0x00\n      keccak256\n        /* \"BasicEnzian.sol\":4344:4366  tasks[taskId].decision */\n      0x04\n      add\n        /* \"BasicEnzian.sol\":4327:4367  evaluateDecision(tasks[taskId].decision) */\n      mload(0x40)\n      dup1\n      0x0120\n      add\n      0x40\n      mstore\n      swap1\n      dup2\n      0x00\n      dup3\n      add\n      sload\n      dup2\n      mstore\n      0x20\n      add\n      0x01\n      dup3\n      add\n      0x00\n      swap1\n      sload\n      swap1\n      0x0100\n      exp\n      swap1\n      div\n      0xff\n      and\n      0x03\n      dup2\n      gt\n      iszero\n      tag_200\n      jumpi\n      mstore(0x00, 0x4e487b7100000000000000000000000000000000000000000000000000000000)\n      mstore(0x04, 0x21)\n      revert(0x00, 0x24)\n    tag_200:\n      0x03\n      dup2\n      gt\n      iszero\n      tag_201\n      jumpi\n      mstore(0x00, 0x4e487b7100000000000000000000000000000000000000000000000000000000)\n      mstore(0x04, 0x21)\n      revert(0x00, 0x24)\n    tag_201:\n      dup2\n      mstore\n      0x20\n      add\n      0x01\n      dup3\n      add\n      0x01\n      swap1\n      sload\n      swap1\n      0x0100\n      exp\n      swap1\n      div\n      0xff\n      and\n      0x02\n      dup2\n      gt\n      iszero\n      tag_202\n      jumpi\n      mstore(0x00, 0x4e487b7100000000000000000000000000000000000000000000000000000000)\n      mstore(0x04, 0x21)\n      revert(0x00, 0x24)\n    tag_202:\n      0x02\n      dup2\n      gt\n      iszero\n      tag_203\n      jumpi\n      mstore(0x00, 0x4e487b7100000000000000000000000000000000000000000000000000000000)\n      mstore(0x04, 0x21)\n      revert(0x00, 0x24)\n    tag_203:\n      dup2\n      mstore\n      0x20\n      add\n      0x01\n      dup3\n      add\n      0x02\n      swap1\n      sload\n      swap1\n      0x0100\n      exp\n      swap1\n      div\n      0xff\n      and\n      iszero\n      iszero\n      iszero\n      iszero\n      dup2\n      mstore\n      0x20\n      add\n      0x01\n      dup3\n      add\n      0x03\n      swap1\n      sload\n      swap1\n      0x0100\n      exp\n      swap1\n      div\n      0xff\n      and\n      iszero\n      iszero\n      iszero\n      iszero\n      dup2\n      mstore\n      0x20\n      add\n      0x01\n      dup3\n      add\n      0x04\n      swap1\n      sload\n      swap1\n      0x0100\n      exp\n      swap1\n      div\n      0xff\n      and\n      0x06\n      dup2\n      gt\n      iszero\n      tag_204\n      jumpi\n      mstore(0x00, 0x4e487b7100000000000000000000000000000000000000000000000000000000)\n      mstore(0x04, 0x21)\n      revert(0x00, 0x24)\n    tag_204:\n      0x06\n      dup2\n      gt\n      iszero\n      tag_205\n      jumpi\n      mstore(0x00, 0x4e487b7100000000000000000000000000000000000000000000000000000000)\n      mstore(0x04, 0x21)\n      revert(0x00, 0x24)\n    tag_205:\n      dup2\n      mstore\n      0x20\n      add\n      0x02\n      dup3\n      add\n      dup1\n      sload\n      tag_206\n      swap1\n      tag_107\n      jump\t// in\n    tag_206:\n      dup1\n      0x1f\n      add\n      0x20\n      dup1\n      swap2\n      div\n      mul\n      0x20\n      add\n      mload(0x40)\n      swap1\n      dup2\n      add\n      0x40\n      mstore\n      dup1\n      swap3\n      swap2\n      swap1\n      dup2\n      dup2\n      mstore\n      0x20\n      add\n      dup3\n      dup1\n      sload\n      tag_207\n      swap1\n      tag_107\n      jump\t// in\n    tag_207:\n      dup1\n      iszero\n      tag_208\n      jumpi\n      dup1\n      0x1f\n      lt\n      tag_209\n      jumpi\n      0x0100\n      dup1\n      dup4\n      sload\n      div\n      mul\n      dup4\n      mstore\n      swap2\n      0x20\n      add\n      swap2\n      jump(tag_208)\n    tag_209:\n      dup3\n      add\n      swap2\n      swap1\n      0x00\n      mstore\n      keccak256(0x00, 0x20)\n      swap1\n    tag_210:\n      dup2\n      sload\n      dup2\n      mstore\n      swap1\n      0x01\n      add\n      swap1\n      0x20\n      add\n      dup1\n      dup4\n      gt\n      tag_210\n      jumpi\n      dup3\n      swap1\n      sub\n      0x1f\n      and\n      dup3\n      add\n      swap2\n    tag_208:\n      pop\n      pop\n      pop\n      pop\n      pop\n      dup2\n      mstore\n      0x20\n      add\n      0x03\n      dup3\n      add\n      dup1\n      sload\n      tag_211\n      swap1\n      tag_107\n      jump\t// in\n    tag_211:\n      dup1\n      0x1f\n      add\n      0x20\n      dup1\n      swap2\n      div\n      mul\n      0x20\n      add\n      mload(0x40)\n      swap1\n      dup2\n      add\n      0x40\n      mstore\n      dup1\n      swap3\n      swap2\n      swap1\n      dup2\n      dup2\n      mstore\n      0x20\n      add\n      dup3\n      dup1\n      sload\n      tag_212\n      swap1\n      tag_107\n      jump\t// in\n    tag_212:\n      dup1\n      iszero\n      tag_213\n      jumpi\n      dup1\n      0x1f\n      lt\n      tag_214\n      jumpi\n      0x0100\n      dup1\n      dup4\n      sload\n      div\n      mul\n      dup4\n      mstore\n      swap2\n      0x20\n      add\n      swap2\n      jump(tag_213)\n    tag_214:\n      dup3\n      add\n      swap2\n      swap1\n      0x00\n      mstore\n      keccak256(0x00, 0x20)\n      swap1\n    tag_215:\n      dup2\n      sload\n      dup2\n      mstore\n      swap1\n      0x01\n      add\n      swap1\n      0x20\n      add\n      dup1\n      dup4\n      gt\n      tag_215\n      jumpi\n      dup3\n      swap1\n      sub\n      0x1f\n      and\n      dup3\n      add\n      swap2\n    tag_213:\n      pop\n      pop\n      pop\n      pop\n      pop\n      dup2\n      mstore\n      0x20\n      add\n      0x04\n      dup3\n      add\n      dup1\n      sload\n      dup1\n      0x20\n      mul\n      0x20\n      add\n      mload(0x40)\n      swap1\n      dup2\n      add\n      0x40\n      mstore\n      dup1\n      swap3\n      swap2\n      swap1\n      dup2\n      dup2\n      mstore\n      0x20\n      add\n      dup3\n      dup1\n      sload\n      dup1\n      iszero\n      tag_216\n      jumpi\n      0x20\n      mul\n      dup3\n      add\n      swap2\n      swap1\n      0x00\n      mstore\n      keccak256(0x00, 0x20)\n      swap1\n    tag_217:\n      dup2\n      sload\n      dup2\n      mstore\n      0x20\n      add\n      swap1\n      0x01\n      add\n      swap1\n      dup1\n      dup4\n      gt\n      tag_217\n      jumpi\n    tag_216:\n      pop\n      pop\n      pop\n      pop\n      pop\n      dup2\n      mstore\n      pop\n      pop\n        /* \"BasicEnzian.sol\":4327:4343  evaluateDecision */\n      tag_26\n        /* \"BasicEnzian.sol\":4327:4367  evaluateDecision(tasks[taskId].decision) */\n      jump\t// in\n    tag_199:\n        /* \"BasicEnzian.sol\":4313:4367  bool result = evaluateDecision(tasks[taskId].decision) */\n      swap1\n      pop\n        /* \"BasicEnzian.sol\":4390:4396  result */\n      dup1\n        /* \"BasicEnzian.sol\":4382:4433  require(result, 'Process Variable is not correct.') */\n      tag_218\n      jumpi\n      mload(0x40)\n      0x08c379a000000000000000000000000000000000000000000000000000000000\n      dup2\n      mstore\n      0x04\n      add\n      tag_219\n      swap1\n      tag_220\n      jump\t// in\n    tag_219:\n      mload(0x40)\n      dup1\n      swap2\n      sub\n      swap1\n      revert\n    tag_218:\n        /* \"BasicEnzian.sol\":4264:4445  if(tasks[taskId].decision.exists) {\r... */\n      pop\n    tag_198:\n        /* \"BasicEnzian.sol\":4524:4554  uint[] memory requiredTasksIds */\n      0x00\n        /* \"BasicEnzian.sol\":4557:4562  tasks */\n      dup1\n        /* \"BasicEnzian.sol\":4557:4570  tasks[taskId] */\n      0x00\n        /* \"BasicEnzian.sol\":4563:4569  taskId */\n      dup6\n        /* \"BasicEnzian.sol\":4557:4570  tasks[taskId] */\n      dup2\n      mstore\n      0x20\n      add\n      swap1\n      dup2\n      mstore\n      0x20\n      add\n      0x00\n      keccak256\n        /* \"BasicEnzian.sol\":4557:4583  tasks[taskId].requirements */\n      0x02\n      add\n        /* \"BasicEnzian.sol\":4524:4583  uint[] memory requiredTasksIds = tasks[taskId].requirements */\n      dup1\n      sload\n      dup1\n      0x20\n      mul\n      0x20\n      add\n      mload(0x40)\n      swap1\n      dup2\n      add\n      0x40\n      mstore\n      dup1\n      swap3\n      swap2\n      swap1\n      dup2\n      dup2\n      mstore\n      0x20\n      add\n      dup3\n      dup1\n      sload\n      dup1\n      iszero\n      tag_221\n      jumpi\n      0x20\n      mul\n      dup3\n      add\n      swap2\n      swap1\n      0x00\n      mstore\n      keccak256(0x00, 0x20)\n      swap1\n    tag_222:\n      dup2\n      sload\n      dup2\n      mstore\n      0x20\n      add\n      swap1\n      0x01\n      add\n      swap1\n      dup1\n      dup4\n      gt\n      tag_222\n      jumpi\n    tag_221:\n      pop\n      pop\n      pop\n      pop\n      pop\n      swap1\n      pop\n        /* \"BasicEnzian.sol\":4625:4626  0 */\n      0x00\n        /* \"BasicEnzian.sol\":4598:4614  requiredTasksIds */\n      dup2\n        /* \"BasicEnzian.sol\":4598:4621  requiredTasksIds.length */\n      mload\n        /* \"BasicEnzian.sol\":4598:4626  requiredTasksIds.length == 0 */\n      eq\n        /* \"BasicEnzian.sol\":4594:6754  if (requiredTasksIds.length == 0) {\r... */\n      iszero\n      tag_223\n      jumpi\n        /* \"BasicEnzian.sol\":4653:4657  true */\n      0x01\n        /* \"BasicEnzian.sol\":4643:4657  success = true */\n      swap3\n      pop\n        /* \"BasicEnzian.sol\":4594:6754  if (requiredTasksIds.length == 0) {\r... */\n      jump(tag_224)\n    tag_223:\n        /* \"BasicEnzian.sol\":4699:4718  GatewayType gateway */\n      0x00\n        /* \"BasicEnzian.sol\":4721:4726  tasks */\n      dup1\n        /* \"BasicEnzian.sol\":4721:4734  tasks[taskId] */\n      0x00\n        /* \"BasicEnzian.sol\":4727:4733  taskId */\n      dup7\n        /* \"BasicEnzian.sol\":4721:4734  tasks[taskId] */\n      dup2\n      mstore\n      0x20\n      add\n      swap1\n      dup2\n      mstore\n      0x20\n      add\n      0x00\n      keccak256\n        /* \"BasicEnzian.sol\":4721:4759  tasks[taskId].preceedingMergingGateway */\n      0x01\n      add\n      0x15\n      swap1\n      sload\n      swap1\n      0x0100\n      exp\n      swap1\n      div\n      0xff\n      and\n        /* \"BasicEnzian.sol\":4699:4759  GatewayType gateway = tasks[taskId].preceedingMergingGateway */\n      swap1\n      pop\n        /* \"BasicEnzian.sol\":4803:4819  GatewayType.NONE */\n      0x00\n        /* \"BasicEnzian.sol\":4792:4819  gateway == GatewayType.NONE */\n      0x03\n      dup2\n      gt\n      iszero\n      tag_225\n      jumpi\n      mstore(0x00, 0x4e487b7100000000000000000000000000000000000000000000000000000000)\n      mstore(0x04, 0x21)\n      revert(0x00, 0x24)\n    tag_225:\n        /* \"BasicEnzian.sol\":4792:4799  gateway */\n      dup2\n        /* \"BasicEnzian.sol\":4792:4819  gateway == GatewayType.NONE */\n      0x03\n      dup2\n      gt\n      iszero\n      tag_226\n      jumpi\n      mstore(0x00, 0x4e487b7100000000000000000000000000000000000000000000000000000000)\n      mstore(0x04, 0x21)\n      revert(0x00, 0x24)\n    tag_226:\n      eq\n        /* \"BasicEnzian.sol\":4788:6723  if (gateway == GatewayType.NONE) {\r... */\n      iszero\n      tag_227\n      jumpi\n        /* \"BasicEnzian.sol\":4888:4892  true */\n      0x01\n        /* \"BasicEnzian.sol\":4844:4892  isTaskCompletedById(requiredTasksIds[0]) == true */\n      iszero\n      iszero\n        /* \"BasicEnzian.sol\":4844:4884  isTaskCompletedById(requiredTasksIds[0]) */\n      tag_228\n        /* \"BasicEnzian.sol\":4864:4880  requiredTasksIds */\n      dup4\n        /* \"BasicEnzian.sol\":4881:4882  0 */\n      0x00\n        /* \"BasicEnzian.sol\":4864:4883  requiredTasksIds[0] */\n      dup2\n      mload\n      dup2\n      lt\n      tag_229\n      jumpi\n      mstore(0x00, 0x4e487b7100000000000000000000000000000000000000000000000000000000)\n      mstore(0x04, 0x32)\n      revert(0x00, 0x24)\n    tag_229:\n      0x20\n      mul\n      0x20\n      add\n      add\n      mload\n        /* \"BasicEnzian.sol\":4844:4863  isTaskCompletedById */\n      tag_77\n        /* \"BasicEnzian.sol\":4844:4884  isTaskCompletedById(requiredTasksIds[0]) */\n      jump\t// in\n    tag_228:\n        /* \"BasicEnzian.sol\":4844:4892  isTaskCompletedById(requiredTasksIds[0]) == true */\n      iszero\n      iszero\n      eq\n        /* \"BasicEnzian.sol\":4840:4951  if (isTaskCompletedById(requiredTasksIds[0]) == true) {\r... */\n      iszero\n      tag_230\n      jumpi\n        /* \"BasicEnzian.sol\":4927:4931  true */\n      0x01\n        /* \"BasicEnzian.sol\":4917:4931  success = true */\n      swap4\n      pop\n        /* \"BasicEnzian.sol\":4840:4951  if (isTaskCompletedById(requiredTasksIds[0]) == true) {\r... */\n    tag_230:\n        /* \"BasicEnzian.sol\":4788:6723  if (gateway == GatewayType.NONE) {\r... */\n      jump(tag_231)\n    tag_227:\n        /* \"BasicEnzian.sol\":5004:5030  uint fulfilledRequirements */\n      0x00\n        /* \"BasicEnzian.sol\":5110:5116  uint i */\n      dup1\n        /* \"BasicEnzian.sol\":5119:5120  0 */\n      0x00\n        /* \"BasicEnzian.sol\":5110:5120  uint i = 0 */\n      swap1\n      pop\n        /* \"BasicEnzian.sol\":5105:5326  for (uint i = 0; i < requiredTasksIds.length; i++) {\r... */\n    tag_232:\n        /* \"BasicEnzian.sol\":5126:5142  requiredTasksIds */\n      dup4\n        /* \"BasicEnzian.sol\":5126:5149  requiredTasksIds.length */\n      mload\n        /* \"BasicEnzian.sol\":5122:5123  i */\n      dup2\n        /* \"BasicEnzian.sol\":5122:5149  i < requiredTasksIds.length */\n      lt\n        /* \"BasicEnzian.sol\":5105:5326  for (uint i = 0; i < requiredTasksIds.length; i++) {\r... */\n      iszero\n      tag_233\n      jumpi\n        /* \"BasicEnzian.sol\":5227:5231  true */\n      0x01\n        /* \"BasicEnzian.sol\":5183:5231  isTaskCompletedById(requiredTasksIds[i]) == true */\n      iszero\n      iszero\n        /* \"BasicEnzian.sol\":5183:5223  isTaskCompletedById(requiredTasksIds[i]) */\n      tag_235\n        /* \"BasicEnzian.sol\":5203:5219  requiredTasksIds */\n      dup6\n        /* \"BasicEnzian.sol\":5220:5221  i */\n      dup4\n        /* \"BasicEnzian.sol\":5203:5222  requiredTasksIds[i] */\n      dup2\n      mload\n      dup2\n      lt\n      tag_236\n      jumpi\n      mstore(0x00, 0x4e487b7100000000000000000000000000000000000000000000000000000000)\n      mstore(0x04, 0x32)\n      revert(0x00, 0x24)\n    tag_236:\n      0x20\n      mul\n      0x20\n      add\n      add\n      mload\n        /* \"BasicEnzian.sol\":5183:5202  isTaskCompletedById */\n      tag_77\n        /* \"BasicEnzian.sol\":5183:5223  isTaskCompletedById(requiredTasksIds[i]) */\n      jump\t// in\n    tag_235:\n        /* \"BasicEnzian.sol\":5183:5231  isTaskCompletedById(requiredTasksIds[i]) == true */\n      iszero\n      iszero\n      eq\n        /* \"BasicEnzian.sol\":5179:5307  if (isTaskCompletedById(requiredTasksIds[i]) == true) {\r... */\n      iszero\n      tag_237\n      jumpi\n        /* \"BasicEnzian.sol\":5260:5283  fulfilledRequirements++ */\n      dup2\n      dup1\n      tag_238\n      swap1\n      tag_239\n      jump\t// in\n    tag_238:\n      swap3\n      pop\n      pop\n        /* \"BasicEnzian.sol\":5179:5307  if (isTaskCompletedById(requiredTasksIds[i]) == true) {\r... */\n    tag_237:\n        /* \"BasicEnzian.sol\":5151:5154  i++ */\n      dup1\n      dup1\n      tag_240\n      swap1\n      tag_239\n      jump\t// in\n    tag_240:\n      swap2\n      pop\n      pop\n        /* \"BasicEnzian.sol\":5105:5326  for (uint i = 0; i < requiredTasksIds.length; i++) {\r... */\n      jump(tag_232)\n    tag_233:\n      pop\n        /* \"BasicEnzian.sol\":5376:5391  GatewayType.AND */\n      0x01\n        /* \"BasicEnzian.sol\":5365:5391  gateway == GatewayType.AND */\n      0x03\n      dup2\n      gt\n      iszero\n      tag_241\n      jumpi\n      mstore(0x00, 0x4e487b7100000000000000000000000000000000000000000000000000000000)\n      mstore(0x04, 0x21)\n      revert(0x00, 0x24)\n    tag_241:\n        /* \"BasicEnzian.sol\":5365:5372  gateway */\n      dup3\n        /* \"BasicEnzian.sol\":5365:5391  gateway == GatewayType.AND */\n      0x03\n      dup2\n      gt\n      iszero\n      tag_242\n      jumpi\n      mstore(0x00, 0x4e487b7100000000000000000000000000000000000000000000000000000000)\n      mstore(0x04, 0x21)\n      revert(0x00, 0x24)\n    tag_242:\n      eq\n        /* \"BasicEnzian.sol\":5362:6679  if(gateway == GatewayType.AND) {\r... */\n      iszero\n      tag_243\n      jumpi\n        /* \"BasicEnzian.sol\":5514:5530  requiredTasksIds */\n      dup3\n        /* \"BasicEnzian.sol\":5514:5537  requiredTasksIds.length */\n      mload\n        /* \"BasicEnzian.sol\":5489:5510  fulfilledRequirements */\n      dup2\n        /* \"BasicEnzian.sol\":5489:5537  fulfilledRequirements == requiredTasksIds.length */\n      eq\n        /* \"BasicEnzian.sol\":5485:5603  if (fulfilledRequirements == requiredTasksIds.length) {\r... */\n      iszero\n      tag_244\n      jumpi\n        /* \"BasicEnzian.sol\":5575:5579  true */\n      0x01\n        /* \"BasicEnzian.sol\":5565:5579  success = true */\n      swap5\n      pop\n        /* \"BasicEnzian.sol\":5485:5603  if (fulfilledRequirements == requiredTasksIds.length) {\r... */\n    tag_244:\n        /* \"BasicEnzian.sol\":5362:6679  if(gateway == GatewayType.AND) {\r... */\n      jump(tag_245)\n    tag_243:\n        /* \"BasicEnzian.sol\":5882:5896  GatewayType.OR */\n      0x02\n        /* \"BasicEnzian.sol\":5871:5896  gateway == GatewayType.OR */\n      0x03\n      dup2\n      gt\n      iszero\n      tag_246\n      jumpi\n      mstore(0x00, 0x4e487b7100000000000000000000000000000000000000000000000000000000)\n      mstore(0x04, 0x21)\n      revert(0x00, 0x24)\n    tag_246:\n        /* \"BasicEnzian.sol\":5871:5878  gateway */\n      dup3\n        /* \"BasicEnzian.sol\":5871:5896  gateway == GatewayType.OR */\n      0x03\n      dup2\n      gt\n      iszero\n      tag_247\n      jumpi\n      mstore(0x00, 0x4e487b7100000000000000000000000000000000000000000000000000000000)\n      mstore(0x04, 0x21)\n      revert(0x00, 0x24)\n    tag_247:\n      eq\n        /* \"BasicEnzian.sol\":5868:6638  if(gateway == GatewayType.OR) {\r... */\n      iszero\n      tag_248\n      jumpi\n        /* \"BasicEnzian.sol\":6031:6035  true */\n      0x01\n        /* \"BasicEnzian.sol\":6021:6035  success = true */\n      swap5\n      pop\n        /* \"BasicEnzian.sol\":5868:6638  if(gateway == GatewayType.OR) {\r... */\n      jump(tag_249)\n    tag_248:\n        /* \"BasicEnzian.sol\":6100:6115  GatewayType.XOR */\n      0x03\n        /* \"BasicEnzian.sol\":6089:6115  gateway == GatewayType.XOR */\n      dup1\n      dup2\n      gt\n      iszero\n      tag_250\n      jumpi\n      mstore(0x00, 0x4e487b7100000000000000000000000000000000000000000000000000000000)\n      mstore(0x04, 0x21)\n      revert(0x00, 0x24)\n    tag_250:\n        /* \"BasicEnzian.sol\":6089:6096  gateway */\n      dup3\n        /* \"BasicEnzian.sol\":6089:6115  gateway == GatewayType.XOR */\n      0x03\n      dup2\n      gt\n      iszero\n      tag_251\n      jumpi\n      mstore(0x00, 0x4e487b7100000000000000000000000000000000000000000000000000000000)\n      mstore(0x04, 0x21)\n      revert(0x00, 0x24)\n    tag_251:\n      eq\n        /* \"BasicEnzian.sol\":6086:6638  if(gateway == GatewayType.XOR) {\r... */\n      iszero\n      tag_252\n      jumpi\n        /* \"BasicEnzian.sol\":6173:6174  1 */\n      0x01\n        /* \"BasicEnzian.sol\":6148:6169  fulfilledRequirements */\n      dup2\n        /* \"BasicEnzian.sol\":6148:6174  fulfilledRequirements == 1 */\n      eq\n        /* \"BasicEnzian.sol\":6148:6204  fulfilledRequirements == 1 || fulfilledRequirements == 2 */\n      dup1\n      tag_253\n      jumpi\n      pop\n        /* \"BasicEnzian.sol\":6203:6204  2 */\n      0x02\n        /* \"BasicEnzian.sol\":6178:6199  fulfilledRequirements */\n      dup2\n        /* \"BasicEnzian.sol\":6178:6204  fulfilledRequirements == 2 */\n      eq\n        /* \"BasicEnzian.sol\":6148:6204  fulfilledRequirements == 1 || fulfilledRequirements == 2 */\n    tag_253:\n        /* \"BasicEnzian.sol\":6144:6279  if (fulfilledRequirements == 1 || fulfilledRequirements == 2) {\r... */\n      iszero\n      tag_254\n      jumpi\n        /* \"BasicEnzian.sol\":6247:6251  true */\n      0x01\n        /* \"BasicEnzian.sol\":6237:6251  success = true */\n      swap5\n      pop\n        /* \"BasicEnzian.sol\":6144:6279  if (fulfilledRequirements == 1 || fulfilledRequirements == 2) {\r... */\n    tag_254:\n        /* \"BasicEnzian.sol\":6086:6638  if(gateway == GatewayType.XOR) {\r... */\n    tag_252:\n        /* \"BasicEnzian.sol\":5868:6638  if(gateway == GatewayType.OR) {\r... */\n    tag_249:\n        /* \"BasicEnzian.sol\":5362:6679  if(gateway == GatewayType.AND) {\r... */\n    tag_245:\n        /* \"BasicEnzian.sol\":4788:6723  if (gateway == GatewayType.NONE) {\r... */\n      pop\n    tag_231:\n        /* \"BasicEnzian.sol\":4594:6754  if (requiredTasksIds.length == 0) {\r... */\n      pop\n    tag_224:\n        /* \"BasicEnzian.sol\":6791:6798  success */\n      dup3\n        /* \"BasicEnzian.sol\":6788:7069  if(success) {\r... */\n      iszero\n      tag_255\n      jumpi\n        /* \"BasicEnzian.sol\":6841:6845  true */\n      0x01\n        /* \"BasicEnzian.sol\":6815:6820  tasks */\n      0x00\n        /* \"BasicEnzian.sol\":6815:6828  tasks[taskId] */\n      dup1\n        /* \"BasicEnzian.sol\":6821:6827  taskId */\n      dup7\n        /* \"BasicEnzian.sol\":6815:6828  tasks[taskId] */\n      dup2\n      mstore\n      0x20\n      add\n      swap1\n      dup2\n      mstore\n      0x20\n      add\n      0x00\n      keccak256\n        /* \"BasicEnzian.sol\":6815:6838  tasks[taskId].completed */\n      0x01\n      add\n      0x14\n        /* \"BasicEnzian.sol\":6815:6845  tasks[taskId].completed = true */\n      0x0100\n      exp\n      dup2\n      sload\n      dup2\n      0xff\n      mul\n      not\n      and\n      swap1\n      dup4\n      iszero\n      iszero\n      mul\n      or\n      swap1\n      sstore\n      pop\n        /* \"BasicEnzian.sol\":6860:6875  theRealEventLog */\n      0x03\n        /* \"BasicEnzian.sol\":6881:6887  taskId */\n      dup5\n        /* \"BasicEnzian.sol\":6860:6888  theRealEventLog.push(taskId) */\n      swap1\n      dup1\n      0x01\n      dup2\n      sload\n      add\n      dup1\n      dup3\n      sstore\n      dup1\n      swap2\n      pop\n      pop\n      0x01\n      swap1\n      sub\n      swap1\n      0x00\n      mstore\n      keccak256(0x00, 0x20)\n      add\n      0x00\n      swap1\n      swap2\n      swap1\n      swap2\n      swap1\n      swap2\n      pop\n      sstore\n        /* \"BasicEnzian.sol\":6903:6922  debugStringeventLog */\n      0x04\n        /* \"BasicEnzian.sol\":6928:6933  tasks */\n      0x00\n        /* \"BasicEnzian.sol\":6928:6941  tasks[taskId] */\n      dup1\n        /* \"BasicEnzian.sol\":6934:6940  taskId */\n      dup7\n        /* \"BasicEnzian.sol\":6928:6941  tasks[taskId] */\n      dup2\n      mstore\n      0x20\n      add\n      swap1\n      dup2\n      mstore\n      0x20\n      add\n      0x00\n      keccak256\n        /* \"BasicEnzian.sol\":6928:6950  tasks[taskId].activity */\n      0x00\n      add\n        /* \"BasicEnzian.sol\":6903:6951  debugStringeventLog.push(tasks[taskId].activity) */\n      swap1\n      dup1\n      0x01\n      dup2\n      sload\n      add\n      dup1\n      dup3\n      sstore\n      dup1\n      swap2\n      pop\n      pop\n      0x01\n      swap1\n      sub\n      swap1\n      0x00\n      mstore\n      keccak256(0x00, 0x20)\n      add\n      0x00\n      swap1\n      swap2\n      swap1\n      swap2\n      swap1\n      swap2\n      pop\n      swap1\n      dup1\n      sload\n      tag_258\n      swap1\n      tag_107\n      jump\t// in\n    tag_258:\n      tag_259\n      swap3\n      swap2\n      swap1\n      tag_260\n      jump\t// in\n    tag_259:\n      pop\n        /* \"BasicEnzian.sol\":6985:6989  true */\n      0x01\n        /* \"BasicEnzian.sol\":6971:6990  TaskCompleted(true) */\n      iszero\n      iszero\n      0xacd30b4f9fd5868793e13ffb506f03374a23d9feba1249ac2cc7b0fe024ff4ba\n      mload(0x40)\n      mload(0x40)\n      dup1\n      swap2\n      sub\n      swap1\n      log2\n        /* \"BasicEnzian.sol\":6788:7069  if(success) {\r... */\n      jump(tag_261)\n    tag_255:\n        /* \"BasicEnzian.sol\":7051:7056  false */\n      0x00\n        /* \"BasicEnzian.sol\":7037:7057  TaskCompleted(false) */\n      iszero\n      iszero\n      0xacd30b4f9fd5868793e13ffb506f03374a23d9feba1249ac2cc7b0fe024ff4ba\n      mload(0x40)\n      mload(0x40)\n      dup1\n      swap2\n      sub\n      swap1\n      log2\n        /* \"BasicEnzian.sol\":6788:7069  if(success) {\r... */\n    tag_261:\n        /* \"BasicEnzian.sol\":7089:7103  return success */\n      pop\n      pop\n        /* \"BasicEnzian.sol\":3902:7121  function completing(uint taskId) public returns (bool success){\r... */\n      swap2\n      swap1\n      pop\n      jump\t// out\n        /* \"BasicEnzian.sol\":7133:7307  function evaluateTest(int i1, int[] memory i2, DecisionLibrary.Operator op) public pure returns (bool equality) {\r... */\n    tag_86:\n        /* \"BasicEnzian.sol\":7230:7243  bool equality */\n      0x00\n        /* \"BasicEnzian.sol\":7263:7278  DecisionLibrary */\n      linkerSymbol(\"80c56c7074f1c42024adf49f5dc2b40495aa8bbb68c1dca7ae61973c3346d226\")\n        /* \"BasicEnzian.sol\":7263:7287  DecisionLibrary.evaluate */\n      0xe1df7ad6\n        /* \"BasicEnzian.sol\":7288:7290  i1 */\n      dup6\n        /* \"BasicEnzian.sol\":7292:7294  i2 */\n      dup6\n        /* \"BasicEnzian.sol\":7296:7298  op */\n      dup6\n        /* \"BasicEnzian.sol\":7263:7299  DecisionLibrary.evaluate(i1, i2, op) */\n      mload(0x40)\n      dup5\n      0xffffffff\n      and\n      0xe0\n      shl\n      dup2\n      mstore\n      0x04\n      add\n      tag_263\n      swap4\n      swap3\n      swap2\n      swap1\n      tag_125\n      jump\t// in\n    tag_263:\n      0x20\n      mload(0x40)\n      dup1\n      dup4\n      sub\n      dup2\n      dup7\n      dup1\n      extcodesize\n      iszero\n      dup1\n      iszero\n      tag_264\n      jumpi\n      0x00\n      dup1\n      revert\n    tag_264:\n      pop\n      gas\n      delegatecall\n      iszero\n      dup1\n      iszero\n      tag_266\n      jumpi\n      returndatasize\n      0x00\n      dup1\n      returndatacopy\n      revert(0x00, returndatasize)\n    tag_266:\n      pop\n      pop\n      pop\n      pop\n      mload(0x40)\n      returndatasize\n      not(0x1f)\n      0x1f\n      dup3\n      add\n      and\n      dup3\n      add\n      dup1\n      0x40\n      mstore\n      pop\n      dup2\n      add\n      swap1\n      tag_267\n      swap2\n      swap1\n      tag_118\n      jump\t// in\n    tag_267:\n        /* \"BasicEnzian.sol\":7256:7299  return DecisionLibrary.evaluate(i1, i2, op) */\n      swap1\n      pop\n        /* \"BasicEnzian.sol\":7133:7307  function evaluateTest(int i1, int[] memory i2, DecisionLibrary.Operator op) public pure returns (bool equality) {\r... */\n      swap4\n      swap3\n      pop\n      pop\n      pop\n      jump\t// out\n        /* \"BasicEnzian.sol\":1281:1337  mapping(string => string) public string_processVariables */\n    tag_90:\n      0x02\n      dup2\n      dup1\n      mload\n      0x20\n      dup2\n      add\n      dup3\n      add\n      dup1\n      mload\n      dup5\n      dup3\n      mstore\n      0x20\n      dup4\n      add\n      0x20\n      dup6\n      add\n      keccak256\n      dup2\n      dup4\n      mstore\n      dup1\n      swap6\n      pop\n      pop\n      pop\n      pop\n      pop\n      pop\n      0x00\n      swap2\n      pop\n      swap1\n      pop\n      dup1\n      sload\n      tag_268\n      swap1\n      tag_107\n      jump\t// in\n    tag_268:\n      dup1\n      0x1f\n      add\n      0x20\n      dup1\n      swap2\n      div\n      mul\n      0x20\n      add\n      mload(0x40)\n      swap1\n      dup2\n      add\n      0x40\n      mstore\n      dup1\n      swap3\n      swap2\n      swap1\n      dup2\n      dup2\n      mstore\n      0x20\n      add\n      dup3\n      dup1\n      sload\n      tag_269\n      swap1\n      tag_107\n      jump\t// in\n    tag_269:\n      dup1\n      iszero\n      tag_270\n      jumpi\n      dup1\n      0x1f\n      lt\n      tag_271\n      jumpi\n      0x0100\n      dup1\n      dup4\n      sload\n      div\n      mul\n      dup4\n      mstore\n      swap2\n      0x20\n      add\n      swap2\n      jump(tag_270)\n    tag_271:\n      dup3\n      add\n      swap2\n      swap1\n      0x00\n      mstore\n      keccak256(0x00, 0x20)\n      swap1\n    tag_272:\n      dup2\n      sload\n      dup2\n      mstore\n      swap1\n      0x01\n      add\n      swap1\n      0x20\n      add\n      dup1\n      dup4\n      gt\n      tag_272\n      jumpi\n      dup3\n      swap1\n      sub\n      0x1f\n      and\n      dup3\n      add\n      swap2\n    tag_270:\n      pop\n      pop\n      pop\n      pop\n      pop\n      dup2\n      jump\t// out\n        /* \"BasicEnzian.sol\":2596:3285  function createTaskWithDecision(\r... */\n    tag_95:\n        /* \"BasicEnzian.sol\":2904:2927  DecisionType.STRINGDESC */\n      0x00\n        /* \"BasicEnzian.sol\":2885:2927  _decision.type_ == DecisionType.STRINGDESC */\n      0x02\n      dup2\n      gt\n      iszero\n      tag_274\n      jumpi\n      mstore(0x00, 0x4e487b7100000000000000000000000000000000000000000000000000000000)\n      mstore(0x04, 0x21)\n      revert(0x00, 0x24)\n    tag_274:\n        /* \"BasicEnzian.sol\":2885:2894  _decision */\n      dup2\n        /* \"BasicEnzian.sol\":2885:2900  _decision.type_ */\n      0x40\n      add\n      mload\n        /* \"BasicEnzian.sol\":2885:2927  _decision.type_ == DecisionType.STRINGDESC */\n      0x02\n      dup2\n      gt\n      iszero\n      tag_275\n      jumpi\n      mstore(0x00, 0x4e487b7100000000000000000000000000000000000000000000000000000000)\n      mstore(0x04, 0x21)\n      revert(0x00, 0x24)\n    tag_275:\n      eq\n        /* \"BasicEnzian.sol\":2882:3143  if(_decision.type_ == DecisionType.STRINGDESC) {\r... */\n      iszero\n      tag_276\n      jumpi\n        /* \"BasicEnzian.sol\":2944:2999  string_processVariables[_decision.processVariable] = \"\" */\n      mload(0x40)\n      dup1\n      0x20\n      add\n      0x40\n      mstore\n      dup1\n      0x00\n      dup2\n      mstore\n      pop\n        /* \"BasicEnzian.sol\":2944:2967  string_processVariables */\n      0x02\n        /* \"BasicEnzian.sol\":2968:2977  _decision */\n      dup3\n        /* \"BasicEnzian.sol\":2968:2993  _decision.processVariable */\n      0xc0\n      add\n      mload\n        /* \"BasicEnzian.sol\":2944:2994  string_processVariables[_decision.processVariable] */\n      mload(0x40)\n      tag_277\n      swap2\n      swap1\n      tag_105\n      jump\t// in\n    tag_277:\n      swap1\n      dup2\n      mstore\n      0x20\n      add\n      mload(0x40)\n      dup1\n      swap2\n      sub\n      swap1\n      keccak256\n        /* \"BasicEnzian.sol\":2944:2999  string_processVariables[_decision.processVariable] = \"\" */\n      swap1\n      dup1\n      mload\n      swap1\n      0x20\n      add\n      swap1\n      tag_278\n      swap3\n      swap2\n      swap1\n      tag_136\n      jump\t// in\n    tag_278:\n      pop\n        /* \"BasicEnzian.sol\":2882:3143  if(_decision.type_ == DecisionType.STRINGDESC) {\r... */\n      jump(tag_279)\n    tag_276:\n        /* \"BasicEnzian.sol\":3039:3059  DecisionType.INTDESC */\n      0x01\n        /* \"BasicEnzian.sol\":3020:3059  _decision.type_ == DecisionType.INTDESC */\n      0x02\n      dup2\n      gt\n      iszero\n      tag_280\n      jumpi\n      mstore(0x00, 0x4e487b7100000000000000000000000000000000000000000000000000000000)\n      mstore(0x04, 0x21)\n      revert(0x00, 0x24)\n    tag_280:\n        /* \"BasicEnzian.sol\":3020:3029  _decision */\n      dup2\n        /* \"BasicEnzian.sol\":3020:3035  _decision.type_ */\n      0x40\n      add\n      mload\n        /* \"BasicEnzian.sol\":3020:3059  _decision.type_ == DecisionType.INTDESC */\n      0x02\n      dup2\n      gt\n      iszero\n      tag_281\n      jumpi\n      mstore(0x00, 0x4e487b7100000000000000000000000000000000000000000000000000000000)\n      mstore(0x04, 0x21)\n      revert(0x00, 0x24)\n    tag_281:\n      eq\n        /* \"BasicEnzian.sol\":3017:3143  if(_decision.type_ == DecisionType.INTDESC) {\r... */\n      iszero\n      tag_282\n      jumpi\n        /* \"BasicEnzian.sol\":3130:3131  5 */\n      0x05\n        /* \"BasicEnzian.sol\":3076:3100  integer_processVariables */\n      0x01\n        /* \"BasicEnzian.sol\":3101:3110  _decision */\n      dup3\n        /* \"BasicEnzian.sol\":3101:3126  _decision.processVariable */\n      0xc0\n      add\n      mload\n        /* \"BasicEnzian.sol\":3076:3127  integer_processVariables[_decision.processVariable] */\n      mload(0x40)\n      tag_283\n      swap2\n      swap1\n      tag_105\n      jump\t// in\n    tag_283:\n      swap1\n      dup2\n      mstore\n      0x20\n      add\n      mload(0x40)\n      dup1\n      swap2\n      sub\n      swap1\n      keccak256\n        /* \"BasicEnzian.sol\":3076:3131  integer_processVariables[_decision.processVariable] = 5 */\n      dup2\n      swap1\n      sstore\n      pop\n        /* \"BasicEnzian.sol\":3017:3143  if(_decision.type_ == DecisionType.INTDESC) {\r... */\n    tag_282:\n        /* \"BasicEnzian.sol\":2882:3143  if(_decision.type_ == DecisionType.STRINGDESC) {\r... */\n    tag_279:\n        /* \"BasicEnzian.sol\":3155:3231  createTask(_id, _activity, _taskresource, _pmg, _requirements, _competitors) */\n      tag_284\n        /* \"BasicEnzian.sol\":3166:3169  _id */\n      dup8\n        /* \"BasicEnzian.sol\":3171:3180  _activity */\n      dup8\n        /* \"BasicEnzian.sol\":3182:3195  _taskresource */\n      dup8\n        /* \"BasicEnzian.sol\":3197:3201  _pmg */\n      dup8\n        /* \"BasicEnzian.sol\":3203:3216  _requirements */\n      dup8\n        /* \"BasicEnzian.sol\":3218:3230  _competitors */\n      dup8\n        /* \"BasicEnzian.sol\":3155:3165  createTask */\n      tag_32\n        /* \"BasicEnzian.sol\":3155:3231  createTask(_id, _activity, _taskresource, _pmg, _requirements, _competitors) */\n      jump\t// in\n    tag_284:\n        /* \"BasicEnzian.sol\":3266:3275  _decision */\n      dup1\n        /* \"BasicEnzian.sol\":3244:3249  tasks */\n      0x00\n        /* \"BasicEnzian.sol\":3244:3254  tasks[_id] */\n      dup1\n        /* \"BasicEnzian.sol\":3250:3253  _id */\n      dup10\n        /* \"BasicEnzian.sol\":3244:3254  tasks[_id] */\n      dup2\n      mstore\n      0x20\n      add\n      swap1\n      dup2\n      mstore\n      0x20\n      add\n      0x00\n      keccak256\n        /* \"BasicEnzian.sol\":3244:3263  tasks[_id].decision */\n      0x04\n      add\n        /* \"BasicEnzian.sol\":3244:3275  tasks[_id].decision = _decision */\n      0x00\n      dup3\n      add\n      mload\n      dup2\n      0x00\n      add\n      sstore\n      0x20\n      dup3\n      add\n      mload\n      dup2\n      0x01\n      add\n      exp(0x0100, 0x00)\n      dup2\n      sload\n      dup2\n      0xff\n      mul\n      not\n      and\n      swap1\n      dup4\n      0x03\n      dup2\n      gt\n      iszero\n      tag_285\n      jumpi\n      mstore(0x00, 0x4e487b7100000000000000000000000000000000000000000000000000000000)\n      mstore(0x04, 0x21)\n      revert(0x00, 0x24)\n    tag_285:\n      mul\n      or\n      swap1\n      sstore\n      pop\n      0x40\n      dup3\n      add\n      mload\n      dup2\n      0x01\n      add\n      exp(0x0100, 0x01)\n      dup2\n      sload\n      dup2\n      0xff\n      mul\n      not\n      and\n      swap1\n      dup4\n      0x02\n      dup2\n      gt\n      iszero\n      tag_286\n      jumpi\n      mstore(0x00, 0x4e487b7100000000000000000000000000000000000000000000000000000000)\n      mstore(0x04, 0x21)\n      revert(0x00, 0x24)\n    tag_286:\n      mul\n      or\n      swap1\n      sstore\n      pop\n      0x60\n      dup3\n      add\n      mload\n      dup2\n      0x01\n      add\n      exp(0x0100, 0x02)\n      dup2\n      sload\n      dup2\n      0xff\n      mul\n      not\n      and\n      swap1\n      dup4\n      iszero\n      iszero\n      mul\n      or\n      swap1\n      sstore\n      pop\n      0x80\n      dup3\n      add\n      mload\n      dup2\n      0x01\n      add\n      exp(0x0100, 0x03)\n      dup2\n      sload\n      dup2\n      0xff\n      mul\n      not\n      and\n      swap1\n      dup4\n      iszero\n      iszero\n      mul\n      or\n      swap1\n      sstore\n      pop\n      0xa0\n      dup3\n      add\n      mload\n      dup2\n      0x01\n      add\n      exp(0x0100, 0x04)\n      dup2\n      sload\n      dup2\n      0xff\n      mul\n      not\n      and\n      swap1\n      dup4\n      0x06\n      dup2\n      gt\n      iszero\n      tag_287\n      jumpi\n      mstore(0x00, 0x4e487b7100000000000000000000000000000000000000000000000000000000)\n      mstore(0x04, 0x21)\n      revert(0x00, 0x24)\n    tag_287:\n      mul\n      or\n      swap1\n      sstore\n      pop\n      0xc0\n      dup3\n      add\n      mload\n      dup2\n      0x02\n      add\n      swap1\n      dup1\n      mload\n      swap1\n      0x20\n      add\n      swap1\n      tag_288\n      swap3\n      swap2\n      swap1\n      tag_136\n      jump\t// in\n    tag_288:\n      pop\n      0xe0\n      dup3\n      add\n      mload\n      dup2\n      0x03\n      add\n      swap1\n      dup1\n      mload\n      swap1\n      0x20\n      add\n      swap1\n      tag_289\n      swap3\n      swap2\n      swap1\n      tag_136\n      jump\t// in\n    tag_289:\n      pop\n      0x0100\n      dup3\n      add\n      mload\n      dup2\n      0x04\n      add\n      swap1\n      dup1\n      mload\n      swap1\n      0x20\n      add\n      swap1\n      tag_290\n      swap3\n      swap2\n      swap1\n      tag_147\n      jump\t// in\n    tag_290:\n      pop\n      swap1\n      pop\n      pop\n        /* \"BasicEnzian.sol\":2596:3285  function createTaskWithDecision(\r... */\n      pop\n      pop\n      pop\n      pop\n      pop\n      pop\n      pop\n      jump\t// out\n        /* \"BasicEnzian.sol\":3462:3629  function updateStringProcessVariable(string calldata variableName, string calldata newValue) public {\r... */\n    tag_99:\n        /* \"BasicEnzian.sol\":3613:3621  newValue */\n      dup2\n      dup2\n        /* \"BasicEnzian.sol\":3573:3596  string_processVariables */\n      0x02\n        /* \"BasicEnzian.sol\":3597:3609  variableName */\n      dup7\n      dup7\n        /* \"BasicEnzian.sol\":3573:3610  string_processVariables[variableName] */\n      mload(0x40)\n      tag_292\n      swap3\n      swap2\n      swap1\n      tag_150\n      jump\t// in\n    tag_292:\n      swap1\n      dup2\n      mstore\n      0x20\n      add\n      mload(0x40)\n      dup1\n      swap2\n      sub\n      swap1\n      keccak256\n        /* \"BasicEnzian.sol\":3573:3621  string_processVariables[variableName] = newValue */\n      swap2\n      swap1\n      tag_293\n      swap3\n      swap2\n      swap1\n      tag_294\n      jump\t// in\n    tag_293:\n      pop\n        /* \"BasicEnzian.sol\":3462:3629  function updateStringProcessVariable(string calldata variableName, string calldata newValue) public {\r... */\n      pop\n      pop\n      pop\n      pop\n      jump\t// out\n    tag_132:\n      mload(0x40)\n      dup1\n      0xe0\n      add\n      0x40\n      mstore\n      dup1\n      0x60\n      dup2\n      mstore\n      0x20\n      add\n      and(0xffffffffffffffffffffffffffffffffffffffff, 0x00)\n      dup2\n      mstore\n      0x20\n      add\n      iszero(iszero(0x00))\n      dup2\n      mstore\n      0x20\n      add\n      0x00\n      0x03\n      dup2\n      gt\n      iszero\n      tag_295\n      jumpi\n      mstore(0x00, 0x4e487b7100000000000000000000000000000000000000000000000000000000)\n      mstore(0x04, 0x21)\n      revert(0x00, 0x24)\n    tag_295:\n      dup2\n      mstore\n      0x20\n      add\n      0x60\n      dup2\n      mstore\n      0x20\n      add\n      0x60\n      dup2\n      mstore\n      0x20\n      add\n      tag_296\n      tag_297\n      jump\t// in\n    tag_296:\n      dup2\n      mstore\n      pop\n      swap1\n      jump\t// out\n    tag_136:\n      dup3\n      dup1\n      sload\n      tag_298\n      swap1\n      tag_107\n      jump\t// in\n    tag_298:\n      swap1\n      0x00\n      mstore\n      keccak256(0x00, 0x20)\n      swap1\n      0x1f\n      add\n      0x20\n      swap1\n      div\n      dup2\n      add\n      swap3\n      dup3\n      tag_300\n      jumpi\n      0x00\n      dup6\n      sstore\n      jump(tag_299)\n    tag_300:\n      dup3\n      0x1f\n      lt\n      tag_301\n      jumpi\n      dup1\n      mload\n      not(0xff)\n      and\n      dup4\n      dup1\n      add\n      or\n      dup6\n      sstore\n      jump(tag_299)\n    tag_301:\n      dup3\n      dup1\n      add\n      0x01\n      add\n      dup6\n      sstore\n      dup3\n      iszero\n      tag_299\n      jumpi\n      swap2\n      dup3\n      add\n    tag_302:\n      dup3\n      dup2\n      gt\n      iszero\n      tag_303\n      jumpi\n      dup3\n      mload\n      dup3\n      sstore\n      swap2\n      0x20\n      add\n      swap2\n      swap1\n      0x01\n      add\n      swap1\n      jump(tag_302)\n    tag_303:\n    tag_299:\n      pop\n      swap1\n      pop\n      tag_304\n      swap2\n      swap1\n      tag_305\n      jump\t// in\n    tag_304:\n      pop\n      swap1\n      jump\t// out\n    tag_139:\n      dup3\n      dup1\n      sload\n      dup3\n      dup3\n      sstore\n      swap1\n      0x00\n      mstore\n      keccak256(0x00, 0x20)\n      swap1\n      dup2\n      add\n      swap3\n      dup3\n      iszero\n      tag_306\n      jumpi\n      swap2\n      0x20\n      mul\n      dup3\n      add\n    tag_307:\n      dup3\n      dup2\n      gt\n      iszero\n      tag_308\n      jumpi\n      dup3\n      mload\n      dup3\n      sstore\n      swap2\n      0x20\n      add\n      swap2\n      swap1\n      0x01\n      add\n      swap1\n      jump(tag_307)\n    tag_308:\n    tag_306:\n      pop\n      swap1\n      pop\n      tag_309\n      swap2\n      swap1\n      tag_305\n      jump\t// in\n    tag_309:\n      pop\n      swap1\n      jump\t// out\n    tag_147:\n      dup3\n      dup1\n      sload\n      dup3\n      dup3\n      sstore\n      swap1\n      0x00\n      mstore\n      keccak256(0x00, 0x20)\n      swap1\n      dup2\n      add\n      swap3\n      dup3\n      iszero\n      tag_310\n      jumpi\n      swap2\n      0x20\n      mul\n      dup3\n      add\n    tag_311:\n      dup3\n      dup2\n      gt\n      iszero\n      tag_312\n      jumpi\n      dup3\n      mload\n      dup3\n      sstore\n      swap2\n      0x20\n      add\n      swap2\n      swap1\n      0x01\n      add\n      swap1\n      jump(tag_311)\n    tag_312:\n    tag_310:\n      pop\n      swap1\n      pop\n      tag_313\n      swap2\n      swap1\n      tag_314\n      jump\t// in\n    tag_313:\n      pop\n      swap1\n      jump\t// out\n    tag_260:\n      dup3\n      dup1\n      sload\n      tag_315\n      swap1\n      tag_107\n      jump\t// in\n    tag_315:\n      swap1\n      0x00\n      mstore\n      keccak256(0x00, 0x20)\n      swap1\n      0x1f\n      add\n      0x20\n      swap1\n      div\n      dup2\n      add\n      swap3\n      dup3\n      tag_317\n      jumpi\n      0x00\n      dup6\n      sstore\n      jump(tag_316)\n    tag_317:\n      dup3\n      0x1f\n      lt\n      tag_318\n      jumpi\n      dup1\n      sload\n      dup6\n      sstore\n      jump(tag_316)\n    tag_318:\n      dup3\n      dup1\n      add\n      0x01\n      add\n      dup6\n      sstore\n      dup3\n      iszero\n      tag_316\n      jumpi\n      0x00\n      mstore\n      keccak256(0x00, 0x20)\n      swap2\n      0x1f\n      add\n      0x20\n      swap1\n      div\n      dup3\n      add\n    tag_319:\n      dup3\n      dup2\n      gt\n      iszero\n      tag_320\n      jumpi\n      dup3\n      sload\n      dup3\n      sstore\n      swap2\n      0x01\n      add\n      swap2\n      swap1\n      0x01\n      add\n      swap1\n      jump(tag_319)\n    tag_320:\n    tag_316:\n      pop\n      swap1\n      pop\n      tag_321\n      swap2\n      swap1\n      tag_305\n      jump\t// in\n    tag_321:\n      pop\n      swap1\n      jump\t// out\n    tag_294:\n      dup3\n      dup1\n      sload\n      tag_322\n      swap1\n      tag_107\n      jump\t// in\n    tag_322:\n      swap1\n      0x00\n      mstore\n      keccak256(0x00, 0x20)\n      swap1\n      0x1f\n      add\n      0x20\n      swap1\n      div\n      dup2\n      add\n      swap3\n      dup3\n      tag_324\n      jumpi\n      0x00\n      dup6\n      sstore\n      jump(tag_323)\n    tag_324:\n      dup3\n      0x1f\n      lt\n      tag_325\n      jumpi\n      dup1\n      calldataload\n      not(0xff)\n      and\n      dup4\n      dup1\n      add\n      or\n      dup6\n      sstore\n      jump(tag_323)\n    tag_325:\n      dup3\n      dup1\n      add\n      0x01\n      add\n      dup6\n      sstore\n      dup3\n      iszero\n      tag_323\n      jumpi\n      swap2\n      dup3\n      add\n    tag_326:\n      dup3\n      dup2\n      gt\n      iszero\n      tag_327\n      jumpi\n      dup3\n      calldataload\n      dup3\n      sstore\n      swap2\n      0x20\n      add\n      swap2\n      swap1\n      0x01\n      add\n      swap1\n      jump(tag_326)\n    tag_327:\n    tag_323:\n      pop\n      swap1\n      pop\n      tag_328\n      swap2\n      swap1\n      tag_305\n      jump\t// in\n    tag_328:\n      pop\n      swap1\n      jump\t// out\n    tag_297:\n      mload(0x40)\n      dup1\n      0x0120\n      add\n      0x40\n      mstore\n      dup1\n      0x00\n      dup2\n      mstore\n      0x20\n      add\n      0x00\n      0x03\n      dup2\n      gt\n      iszero\n      tag_329\n      jumpi\n      mstore(0x00, 0x4e487b7100000000000000000000000000000000000000000000000000000000)\n      mstore(0x04, 0x21)\n      revert(0x00, 0x24)\n    tag_329:\n      dup2\n      mstore\n      0x20\n      add\n      0x00\n      0x02\n      dup2\n      gt\n      iszero\n      tag_330\n      jumpi\n      mstore(0x00, 0x4e487b7100000000000000000000000000000000000000000000000000000000)\n      mstore(0x04, 0x21)\n      revert(0x00, 0x24)\n    tag_330:\n      dup2\n      mstore\n      0x20\n      add\n      iszero(iszero(0x00))\n      dup2\n      mstore\n      0x20\n      add\n      iszero(iszero(0x00))\n      dup2\n      mstore\n      0x20\n      add\n      0x00\n      0x06\n      dup2\n      gt\n      iszero\n      tag_331\n      jumpi\n      mstore(0x00, 0x4e487b7100000000000000000000000000000000000000000000000000000000)\n      mstore(0x04, 0x21)\n      revert(0x00, 0x24)\n    tag_331:\n      dup2\n      mstore\n      0x20\n      add\n      0x60\n      dup2\n      mstore\n      0x20\n      add\n      0x60\n      dup2\n      mstore\n      0x20\n      add\n      0x60\n      dup2\n      mstore\n      pop\n      swap1\n      jump\t// out\n    tag_305:\n    tag_332:\n      dup1\n      dup3\n      gt\n      iszero\n      tag_333\n      jumpi\n      0x00\n      dup2\n      0x00\n      swap1\n      sstore\n      pop\n      0x01\n      add\n      jump(tag_332)\n    tag_333:\n      pop\n      swap1\n      jump\t// out\n    tag_314:\n    tag_334:\n      dup1\n      dup3\n      gt\n      iszero\n      tag_335\n      jumpi\n      0x00\n      dup2\n      0x00\n      swap1\n      sstore\n      pop\n      0x01\n      add\n      jump(tag_334)\n    tag_335:\n      pop\n      swap1\n      jump\t// out\n        /* \"#utility.yul\":23:642   */\n    tag_337:\n      0x00\n        /* \"#utility.yul\":143:222   */\n      tag_339\n        /* \"#utility.yul\":158:221   */\n      tag_340\n        /* \"#utility.yul\":214:220   */\n      dup5\n        /* \"#utility.yul\":158:221   */\n      tag_341\n      jump\t// in\n    tag_340:\n        /* \"#utility.yul\":143:222   */\n      tag_342\n      jump\t// in\n    tag_339:\n        /* \"#utility.yul\":134:222   */\n      swap1\n      pop\n        /* \"#utility.yul\":242:247   */\n      dup1\n        /* \"#utility.yul\":270:276   */\n      dup4\n        /* \"#utility.yul\":263:268   */\n      dup3\n        /* \"#utility.yul\":256:277   */\n      mstore\n        /* \"#utility.yul\":296:300   */\n      0x20\n        /* \"#utility.yul\":289:294   */\n      dup3\n        /* \"#utility.yul\":285:301   */\n      add\n        /* \"#utility.yul\":278:301   */\n      swap1\n      pop\n        /* \"#utility.yul\":321:327   */\n      dup3\n        /* \"#utility.yul\":371:374   */\n      dup6\n        /* \"#utility.yul\":363:367   */\n      0x20\n        /* \"#utility.yul\":355:361   */\n      dup7\n        /* \"#utility.yul\":351:368   */\n      mul\n        /* \"#utility.yul\":346:349   */\n      dup3\n        /* \"#utility.yul\":342:369   */\n      add\n        /* \"#utility.yul\":339:375   */\n      gt\n        /* \"#utility.yul\":336:338   */\n      iszero\n      tag_343\n      jumpi\n        /* \"#utility.yul\":388:389   */\n      0x00\n        /* \"#utility.yul\":385:386   */\n      dup1\n        /* \"#utility.yul\":378:390   */\n      revert\n        /* \"#utility.yul\":336:338   */\n    tag_343:\n        /* \"#utility.yul\":416:417   */\n      0x00\n        /* \"#utility.yul\":401:636   */\n    tag_344:\n        /* \"#utility.yul\":426:432   */\n      dup6\n        /* \"#utility.yul\":423:424   */\n      dup2\n        /* \"#utility.yul\":420:433   */\n      lt\n        /* \"#utility.yul\":401:636   */\n      iszero\n      tag_346\n      jumpi\n        /* \"#utility.yul\":493:496   */\n      dup2\n        /* \"#utility.yul\":521:557   */\n      tag_347\n        /* \"#utility.yul\":553:556   */\n      dup9\n        /* \"#utility.yul\":541:551   */\n      dup3\n        /* \"#utility.yul\":521:557   */\n      tag_348\n      jump\t// in\n    tag_347:\n        /* \"#utility.yul\":516:519   */\n      dup5\n        /* \"#utility.yul\":509:558   */\n      mstore\n        /* \"#utility.yul\":587:591   */\n      0x20\n        /* \"#utility.yul\":582:585   */\n      dup5\n        /* \"#utility.yul\":578:592   */\n      add\n        /* \"#utility.yul\":571:592   */\n      swap4\n      pop\n        /* \"#utility.yul\":621:625   */\n      0x20\n        /* \"#utility.yul\":616:619   */\n      dup4\n        /* \"#utility.yul\":612:626   */\n      add\n        /* \"#utility.yul\":605:626   */\n      swap3\n      pop\n        /* \"#utility.yul\":461:636   */\n      pop\n        /* \"#utility.yul\":448:449   */\n      0x01\n        /* \"#utility.yul\":445:446   */\n      dup2\n        /* \"#utility.yul\":441:450   */\n      add\n        /* \"#utility.yul\":436:450   */\n      swap1\n      pop\n        /* \"#utility.yul\":401:636   */\n      jump(tag_344)\n    tag_346:\n        /* \"#utility.yul\":405:419   */\n      pop\n        /* \"#utility.yul\":124:642   */\n      pop\n      pop\n      swap4\n      swap3\n      pop\n      pop\n      pop\n      jump\t// out\n        /* \"#utility.yul\":665:1287   */\n    tag_349:\n      0x00\n        /* \"#utility.yul\":786:866   */\n      tag_351\n        /* \"#utility.yul\":801:865   */\n      tag_352\n        /* \"#utility.yul\":858:864   */\n      dup5\n        /* \"#utility.yul\":801:865   */\n      tag_353\n      jump\t// in\n    tag_352:\n        /* \"#utility.yul\":786:866   */\n      tag_342\n      jump\t// in\n    tag_351:\n        /* \"#utility.yul\":777:866   */\n      swap1\n      pop\n        /* \"#utility.yul\":886:891   */\n      dup1\n        /* \"#utility.yul\":914:920   */\n      dup4\n        /* \"#utility.yul\":907:912   */\n      dup3\n        /* \"#utility.yul\":900:921   */\n      mstore\n        /* \"#utility.yul\":940:944   */\n      0x20\n        /* \"#utility.yul\":933:938   */\n      dup3\n        /* \"#utility.yul\":929:945   */\n      add\n        /* \"#utility.yul\":922:945   */\n      swap1\n      pop\n        /* \"#utility.yul\":965:971   */\n      dup3\n        /* \"#utility.yul\":1015:1018   */\n      dup6\n        /* \"#utility.yul\":1007:1011   */\n      0x20\n        /* \"#utility.yul\":999:1005   */\n      dup7\n        /* \"#utility.yul\":995:1012   */\n      mul\n        /* \"#utility.yul\":990:993   */\n      dup3\n        /* \"#utility.yul\":986:1013   */\n      add\n        /* \"#utility.yul\":983:1019   */\n      gt\n        /* \"#utility.yul\":980:982   */\n      iszero\n      tag_354\n      jumpi\n        /* \"#utility.yul\":1032:1033   */\n      0x00\n        /* \"#utility.yul\":1029:1030   */\n      dup1\n        /* \"#utility.yul\":1022:1034   */\n      revert\n        /* \"#utility.yul\":980:982   */\n    tag_354:\n        /* \"#utility.yul\":1060:1061   */\n      0x00\n        /* \"#utility.yul\":1045:1281   */\n    tag_355:\n        /* \"#utility.yul\":1070:1076   */\n      dup6\n        /* \"#utility.yul\":1067:1068   */\n      dup2\n        /* \"#utility.yul\":1064:1077   */\n      lt\n        /* \"#utility.yul\":1045:1281   */\n      iszero\n      tag_357\n      jumpi\n        /* \"#utility.yul\":1137:1140   */\n      dup2\n        /* \"#utility.yul\":1165:1202   */\n      tag_358\n        /* \"#utility.yul\":1198:1201   */\n      dup9\n        /* \"#utility.yul\":1186:1196   */\n      dup3\n        /* \"#utility.yul\":1165:1202   */\n      tag_359\n      jump\t// in\n    tag_358:\n        /* \"#utility.yul\":1160:1163   */\n      dup5\n        /* \"#utility.yul\":1153:1203   */\n      mstore\n        /* \"#utility.yul\":1232:1236   */\n      0x20\n        /* \"#utility.yul\":1227:1230   */\n      dup5\n        /* \"#utility.yul\":1223:1237   */\n      add\n        /* \"#utility.yul\":1216:1237   */\n      swap4\n      pop\n        /* \"#utility.yul\":1266:1270   */\n      0x20\n        /* \"#utility.yul\":1261:1264   */\n      dup4\n        /* \"#utility.yul\":1257:1271   */\n      add\n        /* \"#utility.yul\":1250:1271   */\n      swap3\n      pop\n        /* \"#utility.yul\":1105:1281   */\n      pop\n        /* \"#utility.yul\":1092:1093   */\n      0x01\n        /* \"#utility.yul\":1089:1090   */\n      dup2\n        /* \"#utility.yul\":1085:1094   */\n      add\n        /* \"#utility.yul\":1080:1094   */\n      swap1\n      pop\n        /* \"#utility.yul\":1045:1281   */\n      jump(tag_355)\n    tag_357:\n        /* \"#utility.yul\":1049:1063   */\n      pop\n        /* \"#utility.yul\":767:1287   */\n      pop\n      pop\n      swap4\n      swap3\n      pop\n      pop\n      pop\n      jump\t// out\n        /* \"#utility.yul\":1293:1637   */\n    tag_360:\n      0x00\n        /* \"#utility.yul\":1396:1461   */\n      tag_362\n        /* \"#utility.yul\":1411:1460   */\n      tag_363\n        /* \"#utility.yul\":1453:1459   */\n      dup5\n        /* \"#utility.yul\":1411:1460   */\n      tag_364\n      jump\t// in\n    tag_363:\n        /* \"#utility.yul\":1396:1461   */\n      tag_342\n      jump\t// in\n    tag_362:\n        /* \"#utility.yul\":1387:1461   */\n      swap1\n      pop\n        /* \"#utility.yul\":1484:1490   */\n      dup3\n        /* \"#utility.yul\":1477:1482   */\n      dup2\n        /* \"#utility.yul\":1470:1491   */\n      mstore\n        /* \"#utility.yul\":1522:1526   */\n      0x20\n        /* \"#utility.yul\":1515:1520   */\n      dup2\n        /* \"#utility.yul\":1511:1527   */\n      add\n        /* \"#utility.yul\":1560:1563   */\n      dup5\n        /* \"#utility.yul\":1551:1557   */\n      dup5\n        /* \"#utility.yul\":1546:1549   */\n      dup5\n        /* \"#utility.yul\":1542:1558   */\n      add\n        /* \"#utility.yul\":1539:1564   */\n      gt\n        /* \"#utility.yul\":1536:1538   */\n      iszero\n      tag_365\n      jumpi\n        /* \"#utility.yul\":1577:1578   */\n      0x00\n        /* \"#utility.yul\":1574:1575   */\n      dup1\n        /* \"#utility.yul\":1567:1579   */\n      revert\n        /* \"#utility.yul\":1536:1538   */\n    tag_365:\n        /* \"#utility.yul\":1590:1631   */\n      tag_366\n        /* \"#utility.yul\":1624:1630   */\n      dup5\n        /* \"#utility.yul\":1619:1622   */\n      dup3\n        /* \"#utility.yul\":1614:1617   */\n      dup6\n        /* \"#utility.yul\":1590:1631   */\n      tag_367\n      jump\t// in\n    tag_366:\n        /* \"#utility.yul\":1377:1637   */\n      pop\n      swap4\n      swap3\n      pop\n      pop\n      pop\n      jump\t// out\n        /* \"#utility.yul\":1643:1782   */\n    tag_368:\n      0x00\n        /* \"#utility.yul\":1727:1733   */\n      dup2\n        /* \"#utility.yul\":1714:1734   */\n      calldataload\n        /* \"#utility.yul\":1705:1734   */\n      swap1\n      pop\n        /* \"#utility.yul\":1743:1776   */\n      tag_370\n        /* \"#utility.yul\":1770:1775   */\n      dup2\n        /* \"#utility.yul\":1743:1776   */\n      tag_371\n      jump\t// in\n    tag_370:\n        /* \"#utility.yul\":1695:1782   */\n      swap3\n      swap2\n      pop\n      pop\n      jump\t// out\n        /* \"#utility.yul\":1804:2105   */\n    tag_372:\n      0x00\n        /* \"#utility.yul\":1923:1926   */\n      dup3\n        /* \"#utility.yul\":1916:1920   */\n      0x1f\n        /* \"#utility.yul\":1908:1914   */\n      dup4\n        /* \"#utility.yul\":1904:1921   */\n      add\n        /* \"#utility.yul\":1900:1927   */\n      slt\n        /* \"#utility.yul\":1890:1892   */\n      tag_374\n      jumpi\n        /* \"#utility.yul\":1941:1942   */\n      0x00\n        /* \"#utility.yul\":1938:1939   */\n      dup1\n        /* \"#utility.yul\":1931:1943   */\n      revert\n        /* \"#utility.yul\":1890:1892   */\n    tag_374:\n        /* \"#utility.yul\":1981:1987   */\n      dup2\n        /* \"#utility.yul\":1968:1988   */\n      calldataload\n        /* \"#utility.yul\":2006:2099   */\n      tag_375\n        /* \"#utility.yul\":2095:2098   */\n      dup5\n        /* \"#utility.yul\":2087:2093   */\n      dup3\n        /* \"#utility.yul\":2080:2084   */\n      0x20\n        /* \"#utility.yul\":2072:2078   */\n      dup7\n        /* \"#utility.yul\":2068:2085   */\n      add\n        /* \"#utility.yul\":2006:2099   */\n      tag_337\n      jump\t// in\n    tag_375:\n        /* \"#utility.yul\":1997:2099   */\n      swap2\n      pop\n        /* \"#utility.yul\":1880:2105   */\n      pop\n      swap3\n      swap2\n      pop\n      pop\n      jump\t// out\n        /* \"#utility.yul\":2128:2431   */\n    tag_376:\n      0x00\n        /* \"#utility.yul\":2248:2251   */\n      dup3\n        /* \"#utility.yul\":2241:2245   */\n      0x1f\n        /* \"#utility.yul\":2233:2239   */\n      dup4\n        /* \"#utility.yul\":2229:2246   */\n      add\n        /* \"#utility.yul\":2225:2252   */\n      slt\n        /* \"#utility.yul\":2215:2217   */\n      tag_378\n      jumpi\n        /* \"#utility.yul\":2266:2267   */\n      0x00\n        /* \"#utility.yul\":2263:2264   */\n      dup1\n        /* \"#utility.yul\":2256:2268   */\n      revert\n        /* \"#utility.yul\":2215:2217   */\n    tag_378:\n        /* \"#utility.yul\":2306:2312   */\n      dup2\n        /* \"#utility.yul\":2293:2313   */\n      calldataload\n        /* \"#utility.yul\":2331:2425   */\n      tag_379\n        /* \"#utility.yul\":2421:2424   */\n      dup5\n        /* \"#utility.yul\":2413:2419   */\n      dup3\n        /* \"#utility.yul\":2406:2410   */\n      0x20\n        /* \"#utility.yul\":2398:2404   */\n      dup7\n        /* \"#utility.yul\":2394:2411   */\n      add\n        /* \"#utility.yul\":2331:2425   */\n      tag_349\n      jump\t// in\n    tag_379:\n        /* \"#utility.yul\":2322:2425   */\n      swap2\n      pop\n        /* \"#utility.yul\":2205:2431   */\n      pop\n      swap3\n      swap2\n      pop\n      pop\n      jump\t// out\n        /* \"#utility.yul\":2437:2570   */\n    tag_380:\n      0x00\n        /* \"#utility.yul\":2518:2524   */\n      dup2\n        /* \"#utility.yul\":2505:2525   */\n      calldataload\n        /* \"#utility.yul\":2496:2525   */\n      swap1\n      pop\n        /* \"#utility.yul\":2534:2564   */\n      tag_382\n        /* \"#utility.yul\":2558:2563   */\n      dup2\n        /* \"#utility.yul\":2534:2564   */\n      tag_383\n      jump\t// in\n    tag_382:\n        /* \"#utility.yul\":2486:2570   */\n      swap3\n      swap2\n      pop\n      pop\n      jump\t// out\n        /* \"#utility.yul\":2576:2713   */\n    tag_384:\n      0x00\n        /* \"#utility.yul\":2661:2667   */\n      dup2\n        /* \"#utility.yul\":2655:2668   */\n      mload\n        /* \"#utility.yul\":2646:2668   */\n      swap1\n      pop\n        /* \"#utility.yul\":2677:2707   */\n      tag_386\n        /* \"#utility.yul\":2701:2706   */\n      dup2\n        /* \"#utility.yul\":2677:2707   */\n      tag_383\n      jump\t// in\n    tag_386:\n        /* \"#utility.yul\":2636:2713   */\n      swap3\n      swap2\n      pop\n      pop\n      jump\t// out\n        /* \"#utility.yul\":2719:2888   */\n    tag_387:\n      0x00\n        /* \"#utility.yul\":2818:2824   */\n      dup2\n        /* \"#utility.yul\":2805:2825   */\n      calldataload\n        /* \"#utility.yul\":2796:2825   */\n      swap1\n      pop\n        /* \"#utility.yul\":2834:2882   */\n      tag_389\n        /* \"#utility.yul\":2876:2881   */\n      dup2\n        /* \"#utility.yul\":2834:2882   */\n      tag_390\n      jump\t// in\n    tag_389:\n        /* \"#utility.yul\":2786:2888   */\n      swap3\n      swap2\n      pop\n      pop\n      jump\t// out\n        /* \"#utility.yul\":2894:3059   */\n    tag_391:\n      0x00\n        /* \"#utility.yul\":2991:2997   */\n      dup2\n        /* \"#utility.yul\":2978:2998   */\n      calldataload\n        /* \"#utility.yul\":2969:2998   */\n      swap1\n      pop\n        /* \"#utility.yul\":3007:3053   */\n      tag_393\n        /* \"#utility.yul\":3047:3052   */\n      dup2\n        /* \"#utility.yul\":3007:3053   */\n      tag_394\n      jump\t// in\n    tag_393:\n        /* \"#utility.yul\":2959:3059   */\n      swap3\n      swap2\n      pop\n      pop\n      jump\t// out\n        /* \"#utility.yul\":3065:3228   */\n    tag_395:\n      0x00\n        /* \"#utility.yul\":3161:3167   */\n      dup2\n        /* \"#utility.yul\":3148:3168   */\n      calldataload\n        /* \"#utility.yul\":3139:3168   */\n      swap1\n      pop\n        /* \"#utility.yul\":3177:3222   */\n      tag_397\n        /* \"#utility.yul\":3216:3221   */\n      dup2\n        /* \"#utility.yul\":3177:3222   */\n      tag_398\n      jump\t// in\n    tag_397:\n        /* \"#utility.yul\":3129:3228   */\n      swap3\n      swap2\n      pop\n      pop\n      jump\t// out\n        /* \"#utility.yul\":3234:3371   */\n    tag_348:\n      0x00\n        /* \"#utility.yul\":3317:3323   */\n      dup2\n        /* \"#utility.yul\":3304:3324   */\n      calldataload\n        /* \"#utility.yul\":3295:3324   */\n      swap1\n      pop\n        /* \"#utility.yul\":3333:3365   */\n      tag_400\n        /* \"#utility.yul\":3359:3364   */\n      dup2\n        /* \"#utility.yul\":3333:3365   */\n      tag_401\n      jump\t// in\n    tag_400:\n        /* \"#utility.yul\":3285:3371   */\n      swap3\n      swap2\n      pop\n      pop\n      jump\t// out\n        /* \"#utility.yul\":3391:3743   */\n    tag_402:\n      0x00\n      dup1\n        /* \"#utility.yul\":3509:3512   */\n      dup4\n        /* \"#utility.yul\":3502:3506   */\n      0x1f\n        /* \"#utility.yul\":3494:3500   */\n      dup5\n        /* \"#utility.yul\":3490:3507   */\n      add\n        /* \"#utility.yul\":3486:3513   */\n      slt\n        /* \"#utility.yul\":3476:3478   */\n      tag_404\n      jumpi\n        /* \"#utility.yul\":3527:3528   */\n      0x00\n        /* \"#utility.yul\":3524:3525   */\n      dup1\n        /* \"#utility.yul\":3517:3529   */\n      revert\n        /* \"#utility.yul\":3476:3478   */\n    tag_404:\n        /* \"#utility.yul\":3563:3569   */\n      dup3\n        /* \"#utility.yul\":3550:3570   */\n      calldataload\n        /* \"#utility.yul\":3540:3570   */\n      swap1\n      pop\n        /* \"#utility.yul\":3593:3611   */\n      0xffffffffffffffff\n        /* \"#utility.yul\":3585:3591   */\n      dup2\n        /* \"#utility.yul\":3582:3612   */\n      gt\n        /* \"#utility.yul\":3579:3581   */\n      iszero\n      tag_405\n      jumpi\n        /* \"#utility.yul\":3625:3626   */\n      0x00\n        /* \"#utility.yul\":3622:3623   */\n      dup1\n        /* \"#utility.yul\":3615:3627   */\n      revert\n        /* \"#utility.yul\":3579:3581   */\n    tag_405:\n        /* \"#utility.yul\":3662:3666   */\n      0x20\n        /* \"#utility.yul\":3654:3660   */\n      dup4\n        /* \"#utility.yul\":3650:3667   */\n      add\n        /* \"#utility.yul\":3638:3667   */\n      swap2\n      pop\n        /* \"#utility.yul\":3716:3719   */\n      dup4\n        /* \"#utility.yul\":3708:3712   */\n      0x01\n        /* \"#utility.yul\":3700:3706   */\n      dup3\n        /* \"#utility.yul\":3696:3713   */\n      mul\n        /* \"#utility.yul\":3686:3694   */\n      dup4\n        /* \"#utility.yul\":3682:3714   */\n      add\n        /* \"#utility.yul\":3679:3720   */\n      gt\n        /* \"#utility.yul\":3676:3678   */\n      iszero\n      tag_406\n      jumpi\n        /* \"#utility.yul\":3733:3734   */\n      0x00\n        /* \"#utility.yul\":3730:3731   */\n      dup1\n        /* \"#utility.yul\":3723:3735   */\n      revert\n        /* \"#utility.yul\":3676:3678   */\n    tag_406:\n        /* \"#utility.yul\":3466:3743   */\n      swap3\n      pop\n      swap3\n      swap1\n      pop\n      jump\t// out\n        /* \"#utility.yul\":3763:4036   */\n    tag_407:\n      0x00\n        /* \"#utility.yul\":3868:3871   */\n      dup3\n        /* \"#utility.yul\":3861:3865   */\n      0x1f\n        /* \"#utility.yul\":3853:3859   */\n      dup4\n        /* \"#utility.yul\":3849:3866   */\n      add\n        /* \"#utility.yul\":3845:3872   */\n      slt\n        /* \"#utility.yul\":3835:3837   */\n      tag_409\n      jumpi\n        /* \"#utility.yul\":3886:3887   */\n      0x00\n        /* \"#utility.yul\":3883:3884   */\n      dup1\n        /* \"#utility.yul\":3876:3888   */\n      revert\n        /* \"#utility.yul\":3835:3837   */\n    tag_409:\n        /* \"#utility.yul\":3926:3932   */\n      dup2\n        /* \"#utility.yul\":3913:3933   */\n      calldataload\n        /* \"#utility.yul\":3951:4030   */\n      tag_410\n        /* \"#utility.yul\":4026:4029   */\n      dup5\n        /* \"#utility.yul\":4018:4024   */\n      dup3\n        /* \"#utility.yul\":4011:4015   */\n      0x20\n        /* \"#utility.yul\":4003:4009   */\n      dup7\n        /* \"#utility.yul\":3999:4016   */\n      add\n        /* \"#utility.yul\":3951:4030   */\n      tag_360\n      jump\t// in\n    tag_410:\n        /* \"#utility.yul\":3942:4030   */\n      swap2\n      pop\n        /* \"#utility.yul\":3825:4036   */\n      pop\n      swap3\n      swap2\n      pop\n      pop\n      jump\t// out\n        /* \"#utility.yul\":4077:6116   */\n    tag_411:\n      0x00\n        /* \"#utility.yul\":4194:4200   */\n      0x0120\n        /* \"#utility.yul\":4182:4191   */\n      dup3\n        /* \"#utility.yul\":4177:4180   */\n      dup5\n        /* \"#utility.yul\":4173:4192   */\n      sub\n        /* \"#utility.yul\":4169:4201   */\n      slt\n        /* \"#utility.yul\":4166:4168   */\n      iszero\n      tag_413\n      jumpi\n        /* \"#utility.yul\":4214:4215   */\n      0x00\n        /* \"#utility.yul\":4211:4212   */\n      dup1\n        /* \"#utility.yul\":4204:4216   */\n      revert\n        /* \"#utility.yul\":4166:4168   */\n    tag_413:\n        /* \"#utility.yul\":4236:4258   */\n      tag_414\n        /* \"#utility.yul\":4251:4257   */\n      0x0120\n        /* \"#utility.yul\":4236:4258   */\n      tag_342\n      jump\t// in\n    tag_414:\n        /* \"#utility.yul\":4227:4258   */\n      swap1\n      pop\n        /* \"#utility.yul\":4320:4321   */\n      0x00\n        /* \"#utility.yul\":4360:4409   */\n      tag_415\n        /* \"#utility.yul\":4405:4408   */\n      dup5\n        /* \"#utility.yul\":4396:4402   */\n      dup3\n        /* \"#utility.yul\":4385:4394   */\n      dup6\n        /* \"#utility.yul\":4381:4403   */\n      add\n        /* \"#utility.yul\":4360:4409   */\n      tag_359\n      jump\t// in\n    tag_415:\n        /* \"#utility.yul\":4353:4357   */\n      0x00\n        /* \"#utility.yul\":4346:4351   */\n      dup4\n        /* \"#utility.yul\":4342:4358   */\n      add\n        /* \"#utility.yul\":4335:4410   */\n      mstore\n        /* \"#utility.yul\":4268:4421   */\n      pop\n        /* \"#utility.yul\":4487:4489   */\n      0x20\n        /* \"#utility.yul\":4528:4590   */\n      tag_416\n        /* \"#utility.yul\":4586:4589   */\n      dup5\n        /* \"#utility.yul\":4577:4583   */\n      dup3\n        /* \"#utility.yul\":4566:4575   */\n      dup6\n        /* \"#utility.yul\":4562:4584   */\n      add\n        /* \"#utility.yul\":4528:4590   */\n      tag_391\n      jump\t// in\n    tag_416:\n        /* \"#utility.yul\":4521:4525   */\n      0x20\n        /* \"#utility.yul\":4514:4519   */\n      dup4\n        /* \"#utility.yul\":4510:4526   */\n      add\n        /* \"#utility.yul\":4503:4591   */\n      mstore\n        /* \"#utility.yul\":4431:4602   */\n      pop\n        /* \"#utility.yul\":4662:4664   */\n      0x40\n        /* \"#utility.yul\":4703:4767   */\n      tag_417\n        /* \"#utility.yul\":4763:4766   */\n      dup5\n        /* \"#utility.yul\":4754:4760   */\n      dup3\n        /* \"#utility.yul\":4743:4752   */\n      dup6\n        /* \"#utility.yul\":4739:4761   */\n      add\n        /* \"#utility.yul\":4703:4767   */\n      tag_387\n      jump\t// in\n    tag_417:\n        /* \"#utility.yul\":4696:4700   */\n      0x40\n        /* \"#utility.yul\":4689:4694   */\n      dup4\n        /* \"#utility.yul\":4685:4701   */\n      add\n        /* \"#utility.yul\":4678:4768   */\n      mstore\n        /* \"#utility.yul\":4612:4779   */\n      pop\n        /* \"#utility.yul\":4843:4845   */\n      0x60\n        /* \"#utility.yul\":4884:4930   */\n      tag_418\n        /* \"#utility.yul\":4926:4929   */\n      dup5\n        /* \"#utility.yul\":4917:4923   */\n      dup3\n        /* \"#utility.yul\":4906:4915   */\n      dup6\n        /* \"#utility.yul\":4902:4924   */\n      add\n        /* \"#utility.yul\":4884:4930   */\n      tag_380\n      jump\t// in\n    tag_418:\n        /* \"#utility.yul\":4877:4881   */\n      0x60\n        /* \"#utility.yul\":4870:4875   */\n      dup4\n        /* \"#utility.yul\":4866:4882   */\n      add\n        /* \"#utility.yul\":4859:4931   */\n      mstore\n        /* \"#utility.yul\":4789:4942   */\n      pop\n        /* \"#utility.yul\":5003:5006   */\n      0x80\n        /* \"#utility.yul\":5045:5091   */\n      tag_419\n        /* \"#utility.yul\":5087:5090   */\n      dup5\n        /* \"#utility.yul\":5078:5084   */\n      dup3\n        /* \"#utility.yul\":5067:5076   */\n      dup6\n        /* \"#utility.yul\":5063:5085   */\n      add\n        /* \"#utility.yul\":5045:5091   */\n      tag_380\n      jump\t// in\n    tag_419:\n        /* \"#utility.yul\":5038:5042   */\n      0x80\n        /* \"#utility.yul\":5031:5036   */\n      dup4\n        /* \"#utility.yul\":5027:5043   */\n      add\n        /* \"#utility.yul\":5020:5092   */\n      mstore\n        /* \"#utility.yul\":4952:5103   */\n      pop\n        /* \"#utility.yul\":5166:5169   */\n      0xa0\n        /* \"#utility.yul\":5208:5269   */\n      tag_420\n        /* \"#utility.yul\":5265:5268   */\n      dup5\n        /* \"#utility.yul\":5256:5262   */\n      dup3\n        /* \"#utility.yul\":5245:5254   */\n      dup6\n        /* \"#utility.yul\":5241:5263   */\n      add\n        /* \"#utility.yul\":5208:5269   */\n      tag_395\n      jump\t// in\n    tag_420:\n        /* \"#utility.yul\":5201:5205   */\n      0xa0\n        /* \"#utility.yul\":5194:5199   */\n      dup4\n        /* \"#utility.yul\":5190:5206   */\n      add\n        /* \"#utility.yul\":5183:5270   */\n      mstore\n        /* \"#utility.yul\":5113:5281   */\n      pop\n        /* \"#utility.yul\":5379:5382   */\n      0xc0\n        /* \"#utility.yul\":5368:5377   */\n      dup3\n        /* \"#utility.yul\":5364:5383   */\n      add\n        /* \"#utility.yul\":5351:5384   */\n      calldataload\n        /* \"#utility.yul\":5411:5429   */\n      0xffffffffffffffff\n        /* \"#utility.yul\":5403:5409   */\n      dup2\n        /* \"#utility.yul\":5400:5430   */\n      gt\n        /* \"#utility.yul\":5397:5399   */\n      iszero\n      tag_421\n      jumpi\n        /* \"#utility.yul\":5443:5444   */\n      0x00\n        /* \"#utility.yul\":5440:5441   */\n      dup1\n        /* \"#utility.yul\":5433:5445   */\n      revert\n        /* \"#utility.yul\":5397:5399   */\n    tag_421:\n        /* \"#utility.yul\":5486:5545   */\n      tag_422\n        /* \"#utility.yul\":5541:5544   */\n      dup5\n        /* \"#utility.yul\":5532:5538   */\n      dup3\n        /* \"#utility.yul\":5521:5530   */\n      dup6\n        /* \"#utility.yul\":5517:5539   */\n      add\n        /* \"#utility.yul\":5486:5545   */\n      tag_407\n      jump\t// in\n    tag_422:\n        /* \"#utility.yul\":5479:5483   */\n      0xc0\n        /* \"#utility.yul\":5472:5477   */\n      dup4\n        /* \"#utility.yul\":5468:5484   */\n      add\n        /* \"#utility.yul\":5461:5546   */\n      mstore\n        /* \"#utility.yul\":5291:5557   */\n      pop\n        /* \"#utility.yul\":5647:5650   */\n      0xe0\n        /* \"#utility.yul\":5636:5645   */\n      dup3\n        /* \"#utility.yul\":5632:5651   */\n      add\n        /* \"#utility.yul\":5619:5652   */\n      calldataload\n        /* \"#utility.yul\":5679:5697   */\n      0xffffffffffffffff\n        /* \"#utility.yul\":5671:5677   */\n      dup2\n        /* \"#utility.yul\":5668:5698   */\n      gt\n        /* \"#utility.yul\":5665:5667   */\n      iszero\n      tag_423\n      jumpi\n        /* \"#utility.yul\":5711:5712   */\n      0x00\n        /* \"#utility.yul\":5708:5709   */\n      dup1\n        /* \"#utility.yul\":5701:5713   */\n      revert\n        /* \"#utility.yul\":5665:5667   */\n    tag_423:\n        /* \"#utility.yul\":5754:5813   */\n      tag_424\n        /* \"#utility.yul\":5809:5812   */\n      dup5\n        /* \"#utility.yul\":5800:5806   */\n      dup3\n        /* \"#utility.yul\":5789:5798   */\n      dup6\n        /* \"#utility.yul\":5785:5807   */\n      add\n        /* \"#utility.yul\":5754:5813   */\n      tag_407\n      jump\t// in\n    tag_424:\n        /* \"#utility.yul\":5747:5751   */\n      0xe0\n        /* \"#utility.yul\":5740:5745   */\n      dup4\n        /* \"#utility.yul\":5736:5752   */\n      add\n        /* \"#utility.yul\":5729:5814   */\n      mstore\n        /* \"#utility.yul\":5567:5825   */\n      pop\n        /* \"#utility.yul\":5915:5918   */\n      0x0100\n        /* \"#utility.yul\":5904:5913   */\n      dup3\n        /* \"#utility.yul\":5900:5919   */\n      add\n        /* \"#utility.yul\":5887:5920   */\n      calldataload\n        /* \"#utility.yul\":5947:5965   */\n      0xffffffffffffffff\n        /* \"#utility.yul\":5939:5945   */\n      dup2\n        /* \"#utility.yul\":5936:5966   */\n      gt\n        /* \"#utility.yul\":5933:5935   */\n      iszero\n      tag_425\n      jumpi\n        /* \"#utility.yul\":5979:5980   */\n      0x00\n        /* \"#utility.yul\":5976:5977   */\n      dup1\n        /* \"#utility.yul\":5969:5981   */\n      revert\n        /* \"#utility.yul\":5933:5935   */\n    tag_425:\n        /* \"#utility.yul\":6024:6097   */\n      tag_426\n        /* \"#utility.yul\":6093:6096   */\n      dup5\n        /* \"#utility.yul\":6084:6090   */\n      dup3\n        /* \"#utility.yul\":6073:6082   */\n      dup6\n        /* \"#utility.yul\":6069:6091   */\n      add\n        /* \"#utility.yul\":6024:6097   */\n      tag_372\n      jump\t// in\n    tag_426:\n        /* \"#utility.yul\":6015:6021   */\n      0x0100\n        /* \"#utility.yul\":6008:6013   */\n      dup4\n        /* \"#utility.yul\":6004:6022   */\n      add\n        /* \"#utility.yul\":5997:6098   */\n      mstore\n        /* \"#utility.yul\":5835:6109   */\n      pop\n        /* \"#utility.yul\":4156:6116   */\n      swap3\n      swap2\n      pop\n      pop\n      jump\t// out\n        /* \"#utility.yul\":6122:6261   */\n    tag_359:\n      0x00\n        /* \"#utility.yul\":6206:6212   */\n      dup2\n        /* \"#utility.yul\":6193:6213   */\n      calldataload\n        /* \"#utility.yul\":6184:6213   */\n      swap1\n      pop\n        /* \"#utility.yul\":6222:6255   */\n      tag_428\n        /* \"#utility.yul\":6249:6254   */\n      dup2\n        /* \"#utility.yul\":6222:6255   */\n      tag_429\n      jump\t// in\n    tag_428:\n        /* \"#utility.yul\":6174:6261   */\n      swap3\n      swap2\n      pop\n      pop\n      jump\t// out\n        /* \"#utility.yul\":6267:6410   */\n    tag_430:\n      0x00\n        /* \"#utility.yul\":6355:6361   */\n      dup2\n        /* \"#utility.yul\":6349:6362   */\n      mload\n        /* \"#utility.yul\":6340:6362   */\n      swap1\n      pop\n        /* \"#utility.yul\":6371:6404   */\n      tag_432\n        /* \"#utility.yul\":6398:6403   */\n      dup2\n        /* \"#utility.yul\":6371:6404   */\n      tag_429\n      jump\t// in\n    tag_432:\n        /* \"#utility.yul\":6330:6410   */\n      swap3\n      swap2\n      pop\n      pop\n      jump\t// out\n        /* \"#utility.yul\":6416:6694   */\n    tag_118:\n      0x00\n        /* \"#utility.yul\":6532:6534   */\n      0x20\n        /* \"#utility.yul\":6520:6529   */\n      dup3\n        /* \"#utility.yul\":6511:6518   */\n      dup5\n        /* \"#utility.yul\":6507:6530   */\n      sub\n        /* \"#utility.yul\":6503:6535   */\n      slt\n        /* \"#utility.yul\":6500:6502   */\n      iszero\n      tag_434\n      jumpi\n        /* \"#utility.yul\":6548:6549   */\n      0x00\n        /* \"#utility.yul\":6545:6546   */\n      dup1\n        /* \"#utility.yul\":6538:6550   */\n      revert\n        /* \"#utility.yul\":6500:6502   */\n    tag_434:\n        /* \"#utility.yul\":6591:6592   */\n      0x00\n        /* \"#utility.yul\":6616:6677   */\n      tag_435\n        /* \"#utility.yul\":6669:6676   */\n      dup5\n        /* \"#utility.yul\":6660:6666   */\n      dup3\n        /* \"#utility.yul\":6649:6658   */\n      dup6\n        /* \"#utility.yul\":6645:6667   */\n      add\n        /* \"#utility.yul\":6616:6677   */\n      tag_384\n      jump\t// in\n    tag_435:\n        /* \"#utility.yul\":6606:6677   */\n      swap2\n      pop\n        /* \"#utility.yul\":6562:6687   */\n      pop\n        /* \"#utility.yul\":6490:6694   */\n      swap3\n      swap2\n      pop\n      pop\n      jump\t// out\n        /* \"#utility.yul\":6700:7415   */\n    tag_85:\n      0x00\n      dup1\n      0x00\n        /* \"#utility.yul\":6877:6879   */\n      0x60\n        /* \"#utility.yul\":6865:6874   */\n      dup5\n        /* \"#utility.yul\":6856:6863   */\n      dup7\n        /* \"#utility.yul\":6852:6875   */\n      sub\n        /* \"#utility.yul\":6848:6880   */\n      slt\n        /* \"#utility.yul\":6845:6847   */\n      iszero\n      tag_437\n      jumpi\n        /* \"#utility.yul\":6893:6894   */\n      0x00\n        /* \"#utility.yul\":6890:6891   */\n      dup1\n        /* \"#utility.yul\":6883:6895   */\n      revert\n        /* \"#utility.yul\":6845:6847   */\n    tag_437:\n        /* \"#utility.yul\":6936:6937   */\n      0x00\n        /* \"#utility.yul\":6961:7013   */\n      tag_438\n        /* \"#utility.yul\":7005:7012   */\n      dup7\n        /* \"#utility.yul\":6996:7002   */\n      dup3\n        /* \"#utility.yul\":6985:6994   */\n      dup8\n        /* \"#utility.yul\":6981:7003   */\n      add\n        /* \"#utility.yul\":6961:7013   */\n      tag_348\n      jump\t// in\n    tag_438:\n        /* \"#utility.yul\":6951:7013   */\n      swap4\n      pop\n        /* \"#utility.yul\":6907:7023   */\n      pop\n        /* \"#utility.yul\":7090:7092   */\n      0x20\n        /* \"#utility.yul\":7079:7088   */\n      dup5\n        /* \"#utility.yul\":7075:7093   */\n      add\n        /* \"#utility.yul\":7062:7094   */\n      calldataload\n        /* \"#utility.yul\":7121:7139   */\n      0xffffffffffffffff\n        /* \"#utility.yul\":7113:7119   */\n      dup2\n        /* \"#utility.yul\":7110:7140   */\n      gt\n        /* \"#utility.yul\":7107:7109   */\n      iszero\n      tag_439\n      jumpi\n        /* \"#utility.yul\":7153:7154   */\n      0x00\n        /* \"#utility.yul\":7150:7151   */\n      dup1\n        /* \"#utility.yul\":7143:7155   */\n      revert\n        /* \"#utility.yul\":7107:7109   */\n    tag_439:\n        /* \"#utility.yul\":7181:7258   */\n      tag_440\n        /* \"#utility.yul\":7250:7257   */\n      dup7\n        /* \"#utility.yul\":7241:7247   */\n      dup3\n        /* \"#utility.yul\":7230:7239   */\n      dup8\n        /* \"#utility.yul\":7226:7248   */\n      add\n        /* \"#utility.yul\":7181:7258   */\n      tag_372\n      jump\t// in\n    tag_440:\n        /* \"#utility.yul\":7171:7258   */\n      swap3\n      pop\n        /* \"#utility.yul\":7033:7268   */\n      pop\n        /* \"#utility.yul\":7307:7309   */\n      0x40\n        /* \"#utility.yul\":7333:7398   */\n      tag_441\n        /* \"#utility.yul\":7390:7397   */\n      dup7\n        /* \"#utility.yul\":7381:7387   */\n      dup3\n        /* \"#utility.yul\":7370:7379   */\n      dup8\n        /* \"#utility.yul\":7366:7388   */\n      add\n        /* \"#utility.yul\":7333:7398   */\n      tag_395\n      jump\t// in\n    tag_441:\n        /* \"#utility.yul\":7323:7398   */\n      swap2\n      pop\n        /* \"#utility.yul\":7278:7408   */\n      pop\n        /* \"#utility.yul\":6835:7415   */\n      swap3\n      pop\n      swap3\n      pop\n      swap3\n      jump\t// out\n        /* \"#utility.yul\":7421:7816   */\n    tag_59:\n      0x00\n      dup1\n        /* \"#utility.yul\":7549:7551   */\n      0x20\n        /* \"#utility.yul\":7537:7546   */\n      dup4\n        /* \"#utility.yul\":7528:7535   */\n      dup6\n        /* \"#utility.yul\":7524:7547   */\n      sub\n        /* \"#utility.yul\":7520:7552   */\n      slt\n        /* \"#utility.yul\":7517:7519   */\n      iszero\n      tag_443\n      jumpi\n        /* \"#utility.yul\":7565:7566   */\n      0x00\n        /* \"#utility.yul\":7562:7563   */\n      dup1\n        /* \"#utility.yul\":7555:7567   */\n      revert\n        /* \"#utility.yul\":7517:7519   */\n    tag_443:\n        /* \"#utility.yul\":7636:7637   */\n      0x00\n        /* \"#utility.yul\":7625:7634   */\n      dup4\n        /* \"#utility.yul\":7621:7638   */\n      add\n        /* \"#utility.yul\":7608:7639   */\n      calldataload\n        /* \"#utility.yul\":7666:7684   */\n      0xffffffffffffffff\n        /* \"#utility.yul\":7658:7664   */\n      dup2\n        /* \"#utility.yul\":7655:7685   */\n      gt\n        /* \"#utility.yul\":7652:7654   */\n      iszero\n      tag_444\n      jumpi\n        /* \"#utility.yul\":7698:7699   */\n      0x00\n        /* \"#utility.yul\":7695:7696   */\n      dup1\n        /* \"#utility.yul\":7688:7700   */\n      revert\n        /* \"#utility.yul\":7652:7654   */\n    tag_444:\n        /* \"#utility.yul\":7734:7799   */\n      tag_445\n        /* \"#utility.yul\":7791:7798   */\n      dup6\n        /* \"#utility.yul\":7782:7788   */\n      dup3\n        /* \"#utility.yul\":7771:7780   */\n      dup7\n        /* \"#utility.yul\":7767:7789   */\n      add\n        /* \"#utility.yul\":7734:7799   */\n      tag_402\n      jump\t// in\n    tag_445:\n        /* \"#utility.yul\":7716:7799   */\n      swap3\n      pop\n      swap3\n      pop\n        /* \"#utility.yul\":7579:7809   */\n      pop\n        /* \"#utility.yul\":7507:7816   */\n      swap3\n      pop\n      swap3\n      swap1\n      pop\n      jump\t// out\n        /* \"#utility.yul\":7822:8360   */\n    tag_41:\n      0x00\n      dup1\n      0x00\n        /* \"#utility.yul\":7966:7968   */\n      0x40\n        /* \"#utility.yul\":7954:7963   */\n      dup5\n        /* \"#utility.yul\":7945:7952   */\n      dup7\n        /* \"#utility.yul\":7941:7964   */\n      sub\n        /* \"#utility.yul\":7937:7969   */\n      slt\n        /* \"#utility.yul\":7934:7936   */\n      iszero\n      tag_447\n      jumpi\n        /* \"#utility.yul\":7982:7983   */\n      0x00\n        /* \"#utility.yul\":7979:7980   */\n      dup1\n        /* \"#utility.yul\":7972:7984   */\n      revert\n        /* \"#utility.yul\":7934:7936   */\n    tag_447:\n        /* \"#utility.yul\":8053:8054   */\n      0x00\n        /* \"#utility.yul\":8042:8051   */\n      dup5\n        /* \"#utility.yul\":8038:8055   */\n      add\n        /* \"#utility.yul\":8025:8056   */\n      calldataload\n        /* \"#utility.yul\":8083:8101   */\n      0xffffffffffffffff\n        /* \"#utility.yul\":8075:8081   */\n      dup2\n        /* \"#utility.yul\":8072:8102   */\n      gt\n        /* \"#utility.yul\":8069:8071   */\n      iszero\n      tag_448\n      jumpi\n        /* \"#utility.yul\":8115:8116   */\n      0x00\n        /* \"#utility.yul\":8112:8113   */\n      dup1\n        /* \"#utility.yul\":8105:8117   */\n      revert\n        /* \"#utility.yul\":8069:8071   */\n    tag_448:\n        /* \"#utility.yul\":8151:8216   */\n      tag_449\n        /* \"#utility.yul\":8208:8215   */\n      dup7\n        /* \"#utility.yul\":8199:8205   */\n      dup3\n        /* \"#utility.yul\":8188:8197   */\n      dup8\n        /* \"#utility.yul\":8184:8206   */\n      add\n        /* \"#utility.yul\":8151:8216   */\n      tag_402\n      jump\t// in\n    tag_449:\n        /* \"#utility.yul\":8133:8216   */\n      swap4\n      pop\n      swap4\n      pop\n        /* \"#utility.yul\":7996:8226   */\n      pop\n        /* \"#utility.yul\":8265:8267   */\n      0x20\n        /* \"#utility.yul\":8291:8343   */\n      tag_450\n        /* \"#utility.yul\":8335:8342   */\n      dup7\n        /* \"#utility.yul\":8326:8332   */\n      dup3\n        /* \"#utility.yul\":8315:8324   */\n      dup8\n        /* \"#utility.yul\":8311:8333   */\n      add\n        /* \"#utility.yul\":8291:8343   */\n      tag_348\n      jump\t// in\n    tag_450:\n        /* \"#utility.yul\":8281:8343   */\n      swap2\n      pop\n        /* \"#utility.yul\":8236:8353   */\n      pop\n        /* \"#utility.yul\":7924:8360   */\n      swap3\n      pop\n      swap3\n      pop\n      swap3\n      jump\t// out\n        /* \"#utility.yul\":8366:9039   */\n    tag_98:\n      0x00\n      dup1\n      0x00\n      dup1\n        /* \"#utility.yul\":8531:8533   */\n      0x40\n        /* \"#utility.yul\":8519:8528   */\n      dup6\n        /* \"#utility.yul\":8510:8517   */\n      dup8\n        /* \"#utility.yul\":8506:8529   */\n      sub\n        /* \"#utility.yul\":8502:8534   */\n      slt\n        /* \"#utility.yul\":8499:8501   */\n      iszero\n      tag_452\n      jumpi\n        /* \"#utility.yul\":8547:8548   */\n      0x00\n        /* \"#utility.yul\":8544:8545   */\n      dup1\n        /* \"#utility.yul\":8537:8549   */\n      revert\n        /* \"#utility.yul\":8499:8501   */\n    tag_452:\n        /* \"#utility.yul\":8618:8619   */\n      0x00\n        /* \"#utility.yul\":8607:8616   */\n      dup6\n        /* \"#utility.yul\":8603:8620   */\n      add\n        /* \"#utility.yul\":8590:8621   */\n      calldataload\n        /* \"#utility.yul\":8648:8666   */\n      0xffffffffffffffff\n        /* \"#utility.yul\":8640:8646   */\n      dup2\n        /* \"#utility.yul\":8637:8667   */\n      gt\n        /* \"#utility.yul\":8634:8636   */\n      iszero\n      tag_453\n      jumpi\n        /* \"#utility.yul\":8680:8681   */\n      0x00\n        /* \"#utility.yul\":8677:8678   */\n      dup1\n        /* \"#utility.yul\":8670:8682   */\n      revert\n        /* \"#utility.yul\":8634:8636   */\n    tag_453:\n        /* \"#utility.yul\":8716:8781   */\n      tag_454\n        /* \"#utility.yul\":8773:8780   */\n      dup8\n        /* \"#utility.yul\":8764:8770   */\n      dup3\n        /* \"#utility.yul\":8753:8762   */\n      dup9\n        /* \"#utility.yul\":8749:8771   */\n      add\n        /* \"#utility.yul\":8716:8781   */\n      tag_402\n      jump\t// in\n    tag_454:\n        /* \"#utility.yul\":8698:8781   */\n      swap5\n      pop\n      swap5\n      pop\n        /* \"#utility.yul\":8561:8791   */\n      pop\n        /* \"#utility.yul\":8858:8860   */\n      0x20\n        /* \"#utility.yul\":8847:8856   */\n      dup6\n        /* \"#utility.yul\":8843:8861   */\n      add\n        /* \"#utility.yul\":8830:8862   */\n      calldataload\n        /* \"#utility.yul\":8889:8907   */\n      0xffffffffffffffff\n        /* \"#utility.yul\":8881:8887   */\n      dup2\n        /* \"#utility.yul\":8878:8908   */\n      gt\n        /* \"#utility.yul\":8875:8877   */\n      iszero\n      tag_455\n      jumpi\n        /* \"#utility.yul\":8921:8922   */\n      0x00\n        /* \"#utility.yul\":8918:8919   */\n      dup1\n        /* \"#utility.yul\":8911:8923   */\n      revert\n        /* \"#utility.yul\":8875:8877   */\n    tag_455:\n        /* \"#utility.yul\":8957:9022   */\n      tag_456\n        /* \"#utility.yul\":9014:9021   */\n      dup8\n        /* \"#utility.yul\":9005:9011   */\n      dup3\n        /* \"#utility.yul\":8994:9003   */\n      dup9\n        /* \"#utility.yul\":8990:9012   */\n      add\n        /* \"#utility.yul\":8957:9022   */\n      tag_402\n      jump\t// in\n    tag_456:\n        /* \"#utility.yul\":8939:9022   */\n      swap3\n      pop\n      swap3\n      pop\n        /* \"#utility.yul\":8801:9032   */\n      pop\n        /* \"#utility.yul\":8489:9039   */\n      swap3\n      swap6\n      swap2\n      swap5\n      pop\n      swap3\n      pop\n      jump\t// out\n        /* \"#utility.yul\":9045:9420   */\n    tag_35:\n      0x00\n        /* \"#utility.yul\":9163:9165   */\n      0x20\n        /* \"#utility.yul\":9151:9160   */\n      dup3\n        /* \"#utility.yul\":9142:9149   */\n      dup5\n        /* \"#utility.yul\":9138:9161   */\n      sub\n        /* \"#utility.yul\":9134:9166   */\n      slt\n        /* \"#utility.yul\":9131:9133   */\n      iszero\n      tag_458\n      jumpi\n        /* \"#utility.yul\":9179:9180   */\n      0x00\n        /* \"#utility.yul\":9176:9177   */\n      dup1\n        /* \"#utility.yul\":9169:9181   */\n      revert\n        /* \"#utility.yul\":9131:9133   */\n    tag_458:\n        /* \"#utility.yul\":9250:9251   */\n      0x00\n        /* \"#utility.yul\":9239:9248   */\n      dup3\n        /* \"#utility.yul\":9235:9252   */\n      add\n        /* \"#utility.yul\":9222:9253   */\n      calldataload\n        /* \"#utility.yul\":9280:9298   */\n      0xffffffffffffffff\n        /* \"#utility.yul\":9272:9278   */\n      dup2\n        /* \"#utility.yul\":9269:9299   */\n      gt\n        /* \"#utility.yul\":9266:9268   */\n      iszero\n      tag_459\n      jumpi\n        /* \"#utility.yul\":9312:9313   */\n      0x00\n        /* \"#utility.yul\":9309:9310   */\n      dup1\n        /* \"#utility.yul\":9302:9314   */\n      revert\n        /* \"#utility.yul\":9266:9268   */\n    tag_459:\n        /* \"#utility.yul\":9340:9403   */\n      tag_460\n        /* \"#utility.yul\":9395:9402   */\n      dup5\n        /* \"#utility.yul\":9386:9392   */\n      dup3\n        /* \"#utility.yul\":9375:9384   */\n      dup6\n        /* \"#utility.yul\":9371:9393   */\n      add\n        /* \"#utility.yul\":9340:9403   */\n      tag_407\n      jump\t// in\n    tag_460:\n        /* \"#utility.yul\":9330:9403   */\n      swap2\n      pop\n        /* \"#utility.yul\":9193:9413   */\n      pop\n        /* \"#utility.yul\":9121:9420   */\n      swap3\n      swap2\n      pop\n      pop\n      jump\t// out\n        /* \"#utility.yul\":9426:9829   */\n    tag_25:\n      0x00\n        /* \"#utility.yul\":9558:9560   */\n      0x20\n        /* \"#utility.yul\":9546:9555   */\n      dup3\n        /* \"#utility.yul\":9537:9544   */\n      dup5\n        /* \"#utility.yul\":9533:9556   */\n      sub\n        /* \"#utility.yul\":9529:9561   */\n      slt\n        /* \"#utility.yul\":9526:9528   */\n      iszero\n      tag_462\n      jumpi\n        /* \"#utility.yul\":9574:9575   */\n      0x00\n        /* \"#utility.yul\":9571:9572   */\n      dup1\n        /* \"#utility.yul\":9564:9576   */\n      revert\n        /* \"#utility.yul\":9526:9528   */\n    tag_462:\n        /* \"#utility.yul\":9645:9646   */\n      0x00\n        /* \"#utility.yul\":9634:9643   */\n      dup3\n        /* \"#utility.yul\":9630:9647   */\n      add\n        /* \"#utility.yul\":9617:9648   */\n      calldataload\n        /* \"#utility.yul\":9675:9693   */\n      0xffffffffffffffff\n        /* \"#utility.yul\":9667:9673   */\n      dup2\n        /* \"#utility.yul\":9664:9694   */\n      gt\n        /* \"#utility.yul\":9661:9663   */\n      iszero\n      tag_463\n      jumpi\n        /* \"#utility.yul\":9707:9708   */\n      0x00\n        /* \"#utility.yul\":9704:9705   */\n      dup1\n        /* \"#utility.yul\":9697:9709   */\n      revert\n        /* \"#utility.yul\":9661:9663   */\n    tag_463:\n        /* \"#utility.yul\":9735:9812   */\n      tag_464\n        /* \"#utility.yul\":9804:9811   */\n      dup5\n        /* \"#utility.yul\":9795:9801   */\n      dup3\n        /* \"#utility.yul\":9784:9793   */\n      dup6\n        /* \"#utility.yul\":9780:9802   */\n      add\n        /* \"#utility.yul\":9735:9812   */\n      tag_411\n      jump\t// in\n    tag_464:\n        /* \"#utility.yul\":9725:9812   */\n      swap2\n      pop\n        /* \"#utility.yul\":9588:9822   */\n      pop\n        /* \"#utility.yul\":9516:9829   */\n      swap3\n      swap2\n      pop\n      pop\n      jump\t// out\n        /* \"#utility.yul\":9835:10097   */\n    tag_49:\n      0x00\n        /* \"#utility.yul\":9943:9945   */\n      0x20\n        /* \"#utility.yul\":9931:9940   */\n      dup3\n        /* \"#utility.yul\":9922:9929   */\n      dup5\n        /* \"#utility.yul\":9918:9941   */\n      sub\n        /* \"#utility.yul\":9914:9946   */\n      slt\n        /* \"#utility.yul\":9911:9913   */\n      iszero\n      tag_466\n      jumpi\n        /* \"#utility.yul\":9959:9960   */\n      0x00\n        /* \"#utility.yul\":9956:9957   */\n      dup1\n        /* \"#utility.yul\":9949:9961   */\n      revert\n        /* \"#utility.yul\":9911:9913   */\n    tag_466:\n        /* \"#utility.yul\":10002:10003   */\n      0x00\n        /* \"#utility.yul\":10027:10080   */\n      tag_467\n        /* \"#utility.yul\":10072:10079   */\n      dup5\n        /* \"#utility.yul\":10063:10069   */\n      dup3\n        /* \"#utility.yul\":10052:10061   */\n      dup6\n        /* \"#utility.yul\":10048:10070   */\n      add\n        /* \"#utility.yul\":10027:10080   */\n      tag_359\n      jump\t// in\n    tag_467:\n        /* \"#utility.yul\":10017:10080   */\n      swap2\n      pop\n        /* \"#utility.yul\":9973:10090   */\n      pop\n        /* \"#utility.yul\":9901:10097   */\n      swap3\n      swap2\n      pop\n      pop\n      jump\t// out\n        /* \"#utility.yul\":10103:10387   */\n    tag_172:\n      0x00\n        /* \"#utility.yul\":10222:10224   */\n      0x20\n        /* \"#utility.yul\":10210:10219   */\n      dup3\n        /* \"#utility.yul\":10201:10208   */\n      dup5\n        /* \"#utility.yul\":10197:10220   */\n      sub\n        /* \"#utility.yul\":10193:10225   */\n      slt\n        /* \"#utility.yul\":10190:10192   */\n      iszero\n      tag_469\n      jumpi\n        /* \"#utility.yul\":10238:10239   */\n      0x00\n        /* \"#utility.yul\":10235:10236   */\n      dup1\n        /* \"#utility.yul\":10228:10240   */\n      revert\n        /* \"#utility.yul\":10190:10192   */\n    tag_469:\n        /* \"#utility.yul\":10281:10282   */\n      0x00\n        /* \"#utility.yul\":10306:10370   */\n      tag_470\n        /* \"#utility.yul\":10362:10369   */\n      dup5\n        /* \"#utility.yul\":10353:10359   */\n      dup3\n        /* \"#utility.yul\":10342:10351   */\n      dup6\n        /* \"#utility.yul\":10338:10360   */\n      add\n        /* \"#utility.yul\":10306:10370   */\n      tag_430\n      jump\t// in\n    tag_470:\n        /* \"#utility.yul\":10296:10370   */\n      swap2\n      pop\n        /* \"#utility.yul\":10252:10380   */\n      pop\n        /* \"#utility.yul\":10180:10387   */\n      swap3\n      swap2\n      pop\n      pop\n      jump\t// out\n        /* \"#utility.yul\":10393:11808   */\n    tag_31:\n      0x00\n      dup1\n      0x00\n      dup1\n      0x00\n      dup1\n        /* \"#utility.yul\":10659:10662   */\n      0xc0\n        /* \"#utility.yul\":10647:10656   */\n      dup8\n        /* \"#utility.yul\":10638:10645   */\n      dup10\n        /* \"#utility.yul\":10634:10657   */\n      sub\n        /* \"#utility.yul\":10630:10663   */\n      slt\n        /* \"#utility.yul\":10627:10629   */\n      iszero\n      tag_472\n      jumpi\n        /* \"#utility.yul\":10676:10677   */\n      0x00\n        /* \"#utility.yul\":10673:10674   */\n      dup1\n        /* \"#utility.yul\":10666:10678   */\n      revert\n        /* \"#utility.yul\":10627:10629   */\n    tag_472:\n        /* \"#utility.yul\":10719:10720   */\n      0x00\n        /* \"#utility.yul\":10744:10797   */\n      tag_473\n        /* \"#utility.yul\":10789:10796   */\n      dup10\n        /* \"#utility.yul\":10780:10786   */\n      dup3\n        /* \"#utility.yul\":10769:10778   */\n      dup11\n        /* \"#utility.yul\":10765:10787   */\n      add\n        /* \"#utility.yul\":10744:10797   */\n      tag_359\n      jump\t// in\n    tag_473:\n        /* \"#utility.yul\":10734:10797   */\n      swap7\n      pop\n        /* \"#utility.yul\":10690:10807   */\n      pop\n        /* \"#utility.yul\":10874:10876   */\n      0x20\n        /* \"#utility.yul\":10863:10872   */\n      dup8\n        /* \"#utility.yul\":10859:10877   */\n      add\n        /* \"#utility.yul\":10846:10878   */\n      calldataload\n        /* \"#utility.yul\":10905:10923   */\n      0xffffffffffffffff\n        /* \"#utility.yul\":10897:10903   */\n      dup2\n        /* \"#utility.yul\":10894:10924   */\n      gt\n        /* \"#utility.yul\":10891:10893   */\n      iszero\n      tag_474\n      jumpi\n        /* \"#utility.yul\":10937:10938   */\n      0x00\n        /* \"#utility.yul\":10934:10935   */\n      dup1\n        /* \"#utility.yul\":10927:10939   */\n      revert\n        /* \"#utility.yul\":10891:10893   */\n    tag_474:\n        /* \"#utility.yul\":10965:11028   */\n      tag_475\n        /* \"#utility.yul\":11020:11027   */\n      dup10\n        /* \"#utility.yul\":11011:11017   */\n      dup3\n        /* \"#utility.yul\":11000:11009   */\n      dup11\n        /* \"#utility.yul\":10996:11018   */\n      add\n        /* \"#utility.yul\":10965:11028   */\n      tag_407\n      jump\t// in\n    tag_475:\n        /* \"#utility.yul\":10955:11028   */\n      swap6\n      pop\n        /* \"#utility.yul\":10817:11038   */\n      pop\n        /* \"#utility.yul\":11077:11079   */\n      0x40\n        /* \"#utility.yul\":11103:11156   */\n      tag_476\n        /* \"#utility.yul\":11148:11155   */\n      dup10\n        /* \"#utility.yul\":11139:11145   */\n      dup3\n        /* \"#utility.yul\":11128:11137   */\n      dup11\n        /* \"#utility.yul\":11124:11146   */\n      add\n        /* \"#utility.yul\":11103:11156   */\n      tag_368\n      jump\t// in\n    tag_476:\n        /* \"#utility.yul\":11093:11156   */\n      swap5\n      pop\n        /* \"#utility.yul\":11048:11166   */\n      pop\n        /* \"#utility.yul\":11205:11207   */\n      0x60\n        /* \"#utility.yul\":11231:11297   */\n      tag_477\n        /* \"#utility.yul\":11289:11296   */\n      dup10\n        /* \"#utility.yul\":11280:11286   */\n      dup3\n        /* \"#utility.yul\":11269:11278   */\n      dup11\n        /* \"#utility.yul\":11265:11287   */\n      add\n        /* \"#utility.yul\":11231:11297   */\n      tag_391\n      jump\t// in\n    tag_477:\n        /* \"#utility.yul\":11221:11297   */\n      swap4\n      pop\n        /* \"#utility.yul\":11176:11307   */\n      pop\n        /* \"#utility.yul\":11374:11377   */\n      0x80\n        /* \"#utility.yul\":11363:11372   */\n      dup8\n        /* \"#utility.yul\":11359:11378   */\n      add\n        /* \"#utility.yul\":11346:11379   */\n      calldataload\n        /* \"#utility.yul\":11406:11424   */\n      0xffffffffffffffff\n        /* \"#utility.yul\":11398:11404   */\n      dup2\n        /* \"#utility.yul\":11395:11425   */\n      gt\n        /* \"#utility.yul\":11392:11394   */\n      iszero\n      tag_478\n      jumpi\n        /* \"#utility.yul\":11438:11439   */\n      0x00\n        /* \"#utility.yul\":11435:11436   */\n      dup1\n        /* \"#utility.yul\":11428:11440   */\n      revert\n        /* \"#utility.yul\":11392:11394   */\n    tag_478:\n        /* \"#utility.yul\":11466:11544   */\n      tag_479\n        /* \"#utility.yul\":11536:11543   */\n      dup10\n        /* \"#utility.yul\":11527:11533   */\n      dup3\n        /* \"#utility.yul\":11516:11525   */\n      dup11\n        /* \"#utility.yul\":11512:11534   */\n      add\n        /* \"#utility.yul\":11466:11544   */\n      tag_376\n      jump\t// in\n    tag_479:\n        /* \"#utility.yul\":11456:11544   */\n      swap3\n      pop\n        /* \"#utility.yul\":11317:11554   */\n      pop\n        /* \"#utility.yul\":11621:11624   */\n      0xa0\n        /* \"#utility.yul\":11610:11619   */\n      dup8\n        /* \"#utility.yul\":11606:11625   */\n      add\n        /* \"#utility.yul\":11593:11626   */\n      calldataload\n        /* \"#utility.yul\":11653:11671   */\n      0xffffffffffffffff\n        /* \"#utility.yul\":11645:11651   */\n      dup2\n        /* \"#utility.yul\":11642:11672   */\n      gt\n        /* \"#utility.yul\":11639:11641   */\n      iszero\n      tag_480\n      jumpi\n        /* \"#utility.yul\":11685:11686   */\n      0x00\n        /* \"#utility.yul\":11682:11683   */\n      dup1\n        /* \"#utility.yul\":11675:11687   */\n      revert\n        /* \"#utility.yul\":11639:11641   */\n    tag_480:\n        /* \"#utility.yul\":11713:11791   */\n      tag_481\n        /* \"#utility.yul\":11783:11790   */\n      dup10\n        /* \"#utility.yul\":11774:11780   */\n      dup3\n        /* \"#utility.yul\":11763:11772   */\n      dup11\n        /* \"#utility.yul\":11759:11781   */\n      add\n        /* \"#utility.yul\":11713:11791   */\n      tag_376\n      jump\t// in\n    tag_481:\n        /* \"#utility.yul\":11703:11791   */\n      swap2\n      pop\n        /* \"#utility.yul\":11564:11801   */\n      pop\n        /* \"#utility.yul\":10617:11808   */\n      swap3\n      swap6\n      pop\n      swap3\n      swap6\n      pop\n      swap3\n      swap6\n      jump\t// out\n        /* \"#utility.yul\":11814:13516   */\n    tag_94:\n      0x00\n      dup1\n      0x00\n      dup1\n      0x00\n      dup1\n      0x00\n        /* \"#utility.yul\":12121:12124   */\n      0xe0\n        /* \"#utility.yul\":12109:12118   */\n      dup9\n        /* \"#utility.yul\":12100:12107   */\n      dup11\n        /* \"#utility.yul\":12096:12119   */\n      sub\n        /* \"#utility.yul\":12092:12125   */\n      slt\n        /* \"#utility.yul\":12089:12091   */\n      iszero\n      tag_483\n      jumpi\n        /* \"#utility.yul\":12138:12139   */\n      0x00\n        /* \"#utility.yul\":12135:12136   */\n      dup1\n        /* \"#utility.yul\":12128:12140   */\n      revert\n        /* \"#utility.yul\":12089:12091   */\n    tag_483:\n        /* \"#utility.yul\":12181:12182   */\n      0x00\n        /* \"#utility.yul\":12206:12259   */\n      tag_484\n        /* \"#utility.yul\":12251:12258   */\n      dup11\n        /* \"#utility.yul\":12242:12248   */\n      dup3\n        /* \"#utility.yul\":12231:12240   */\n      dup12\n        /* \"#utility.yul\":12227:12249   */\n      add\n        /* \"#utility.yul\":12206:12259   */\n      tag_359\n      jump\t// in\n    tag_484:\n        /* \"#utility.yul\":12196:12259   */\n      swap8\n      pop\n        /* \"#utility.yul\":12152:12269   */\n      pop\n        /* \"#utility.yul\":12336:12338   */\n      0x20\n        /* \"#utility.yul\":12325:12334   */\n      dup9\n        /* \"#utility.yul\":12321:12339   */\n      add\n        /* \"#utility.yul\":12308:12340   */\n      calldataload\n        /* \"#utility.yul\":12367:12385   */\n      0xffffffffffffffff\n        /* \"#utility.yul\":12359:12365   */\n      dup2\n        /* \"#utility.yul\":12356:12386   */\n      gt\n        /* \"#utility.yul\":12353:12355   */\n      iszero\n      tag_485\n      jumpi\n        /* \"#utility.yul\":12399:12400   */\n      0x00\n        /* \"#utility.yul\":12396:12397   */\n      dup1\n        /* \"#utility.yul\":12389:12401   */\n      revert\n        /* \"#utility.yul\":12353:12355   */\n    tag_485:\n        /* \"#utility.yul\":12427:12490   */\n      tag_486\n        /* \"#utility.yul\":12482:12489   */\n      dup11\n        /* \"#utility.yul\":12473:12479   */\n      dup3\n        /* \"#utility.yul\":12462:12471   */\n      dup12\n        /* \"#utility.yul\":12458:12480   */\n      add\n        /* \"#utility.yul\":12427:12490   */\n      tag_407\n      jump\t// in\n    tag_486:\n        /* \"#utility.yul\":12417:12490   */\n      swap7\n      pop\n        /* \"#utility.yul\":12279:12500   */\n      pop\n        /* \"#utility.yul\":12539:12541   */\n      0x40\n        /* \"#utility.yul\":12565:12618   */\n      tag_487\n        /* \"#utility.yul\":12610:12617   */\n      dup11\n        /* \"#utility.yul\":12601:12607   */\n      dup3\n        /* \"#utility.yul\":12590:12599   */\n      dup12\n        /* \"#utility.yul\":12586:12608   */\n      add\n        /* \"#utility.yul\":12565:12618   */\n      tag_368\n      jump\t// in\n    tag_487:\n        /* \"#utility.yul\":12555:12618   */\n      swap6\n      pop\n        /* \"#utility.yul\":12510:12628   */\n      pop\n        /* \"#utility.yul\":12667:12669   */\n      0x60\n        /* \"#utility.yul\":12693:12759   */\n      tag_488\n        /* \"#utility.yul\":12751:12758   */\n      dup11\n        /* \"#utility.yul\":12742:12748   */\n      dup3\n        /* \"#utility.yul\":12731:12740   */\n      dup12\n        /* \"#utility.yul\":12727:12749   */\n      add\n        /* \"#utility.yul\":12693:12759   */\n      tag_391\n      jump\t// in\n    tag_488:\n        /* \"#utility.yul\":12683:12759   */\n      swap5\n      pop\n        /* \"#utility.yul\":12638:12769   */\n      pop\n        /* \"#utility.yul\":12836:12839   */\n      0x80\n        /* \"#utility.yul\":12825:12834   */\n      dup9\n        /* \"#utility.yul\":12821:12840   */\n      add\n        /* \"#utility.yul\":12808:12841   */\n      calldataload\n        /* \"#utility.yul\":12868:12886   */\n      0xffffffffffffffff\n        /* \"#utility.yul\":12860:12866   */\n      dup2\n        /* \"#utility.yul\":12857:12887   */\n      gt\n        /* \"#utility.yul\":12854:12856   */\n      iszero\n      tag_489\n      jumpi\n        /* \"#utility.yul\":12900:12901   */\n      0x00\n        /* \"#utility.yul\":12897:12898   */\n      dup1\n        /* \"#utility.yul\":12890:12902   */\n      revert\n        /* \"#utility.yul\":12854:12856   */\n    tag_489:\n        /* \"#utility.yul\":12928:13006   */\n      tag_490\n        /* \"#utility.yul\":12998:13005   */\n      dup11\n        /* \"#utility.yul\":12989:12995   */\n      dup3\n        /* \"#utility.yul\":12978:12987   */\n      dup12\n        /* \"#utility.yul\":12974:12996   */\n      add\n        /* \"#utility.yul\":12928:13006   */\n      tag_376\n      jump\t// in\n    tag_490:\n        /* \"#utility.yul\":12918:13006   */\n      swap4\n      pop\n        /* \"#utility.yul\":12779:13016   */\n      pop\n        /* \"#utility.yul\":13083:13086   */\n      0xa0\n        /* \"#utility.yul\":13072:13081   */\n      dup9\n        /* \"#utility.yul\":13068:13087   */\n      add\n        /* \"#utility.yul\":13055:13088   */\n      calldataload\n        /* \"#utility.yul\":13115:13133   */\n      0xffffffffffffffff\n        /* \"#utility.yul\":13107:13113   */\n      dup2\n        /* \"#utility.yul\":13104:13134   */\n      gt\n        /* \"#utility.yul\":13101:13103   */\n      iszero\n      tag_491\n      jumpi\n        /* \"#utility.yul\":13147:13148   */\n      0x00\n        /* \"#utility.yul\":13144:13145   */\n      dup1\n        /* \"#utility.yul\":13137:13149   */\n      revert\n        /* \"#utility.yul\":13101:13103   */\n    tag_491:\n        /* \"#utility.yul\":13175:13253   */\n      tag_492\n        /* \"#utility.yul\":13245:13252   */\n      dup11\n        /* \"#utility.yul\":13236:13242   */\n      dup3\n        /* \"#utility.yul\":13225:13234   */\n      dup12\n        /* \"#utility.yul\":13221:13243   */\n      add\n        /* \"#utility.yul\":13175:13253   */\n      tag_376\n      jump\t// in\n    tag_492:\n        /* \"#utility.yul\":13165:13253   */\n      swap3\n      pop\n        /* \"#utility.yul\":13026:13263   */\n      pop\n        /* \"#utility.yul\":13330:13333   */\n      0xc0\n        /* \"#utility.yul\":13319:13328   */\n      dup9\n        /* \"#utility.yul\":13315:13334   */\n      add\n        /* \"#utility.yul\":13302:13335   */\n      calldataload\n        /* \"#utility.yul\":13362:13380   */\n      0xffffffffffffffff\n        /* \"#utility.yul\":13354:13360   */\n      dup2\n        /* \"#utility.yul\":13351:13381   */\n      gt\n        /* \"#utility.yul\":13348:13350   */\n      iszero\n      tag_493\n      jumpi\n        /* \"#utility.yul\":13394:13395   */\n      0x00\n        /* \"#utility.yul\":13391:13392   */\n      dup1\n        /* \"#utility.yul\":13384:13396   */\n      revert\n        /* \"#utility.yul\":13348:13350   */\n    tag_493:\n        /* \"#utility.yul\":13422:13499   */\n      tag_494\n        /* \"#utility.yul\":13491:13498   */\n      dup11\n        /* \"#utility.yul\":13482:13488   */\n      dup3\n        /* \"#utility.yul\":13471:13480   */\n      dup12\n        /* \"#utility.yul\":13467:13489   */\n      add\n        /* \"#utility.yul\":13422:13499   */\n      tag_411\n      jump\t// in\n    tag_494:\n        /* \"#utility.yul\":13412:13499   */\n      swap2\n      pop\n        /* \"#utility.yul\":13273:13509   */\n      pop\n        /* \"#utility.yul\":12079:13516   */\n      swap3\n      swap6\n      swap9\n      swap2\n      swap5\n      swap8\n      pop\n      swap3\n      swap6\n      pop\n      jump\t// out\n        /* \"#utility.yul\":13522:13713   */\n    tag_495:\n      0x00\n        /* \"#utility.yul\":13618:13670   */\n      tag_497\n        /* \"#utility.yul\":13666:13669   */\n      dup4\n        /* \"#utility.yul\":13658:13664   */\n      dup4\n        /* \"#utility.yul\":13618:13670   */\n      tag_498\n      jump\t// in\n    tag_497:\n        /* \"#utility.yul\":13702:13706   */\n      0x20\n        /* \"#utility.yul\":13697:13700   */\n      dup4\n        /* \"#utility.yul\":13693:13707   */\n      add\n        /* \"#utility.yul\":13679:13707   */\n      swap1\n      pop\n        /* \"#utility.yul\":13608:13713   */\n      swap3\n      swap2\n      pop\n      pop\n      jump\t// out\n        /* \"#utility.yul\":13719:13915   */\n    tag_499:\n      0x00\n        /* \"#utility.yul\":13843:13909   */\n      tag_501\n        /* \"#utility.yul\":13905:13908   */\n      dup4\n        /* \"#utility.yul\":13897:13903   */\n      dup4\n        /* \"#utility.yul\":13843:13909   */\n      tag_502\n      jump\t// in\n    tag_501:\n        /* \"#utility.yul\":13829:13909   */\n      swap1\n      pop\n        /* \"#utility.yul\":13819:13915   */\n      swap3\n      swap2\n      pop\n      pop\n      jump\t// out\n        /* \"#utility.yul\":13921:14100   */\n    tag_503:\n      0x00\n        /* \"#utility.yul\":14011:14057   */\n      tag_505\n        /* \"#utility.yul\":14053:14056   */\n      dup4\n        /* \"#utility.yul\":14045:14051   */\n      dup4\n        /* \"#utility.yul\":14011:14057   */\n      tag_506\n      jump\t// in\n    tag_505:\n        /* \"#utility.yul\":14089:14093   */\n      0x20\n        /* \"#utility.yul\":14084:14087   */\n      dup4\n        /* \"#utility.yul\":14080:14094   */\n      add\n        /* \"#utility.yul\":14066:14094   */\n      swap1\n      pop\n        /* \"#utility.yul\":14001:14100   */\n      swap3\n      swap2\n      pop\n      pop\n      jump\t// out\n        /* \"#utility.yul\":14106:14224   */\n    tag_507:\n        /* \"#utility.yul\":14193:14217   */\n      tag_509\n        /* \"#utility.yul\":14211:14216   */\n      dup2\n        /* \"#utility.yul\":14193:14217   */\n      tag_510\n      jump\t// in\n    tag_509:\n        /* \"#utility.yul\":14188:14191   */\n      dup3\n        /* \"#utility.yul\":14181:14218   */\n      mstore\n        /* \"#utility.yul\":14171:14224   */\n      pop\n      pop\n      jump\t// out\n        /* \"#utility.yul\":14258:15006   */\n    tag_511:\n      0x00\n        /* \"#utility.yul\":14412:14465   */\n      tag_513\n        /* \"#utility.yul\":14459:14464   */\n      dup3\n        /* \"#utility.yul\":14412:14465   */\n      tag_514\n      jump\t// in\n    tag_513:\n        /* \"#utility.yul\":14481:14574   */\n      tag_515\n        /* \"#utility.yul\":14567:14573   */\n      dup2\n        /* \"#utility.yul\":14562:14565   */\n      dup6\n        /* \"#utility.yul\":14481:14574   */\n      tag_516\n      jump\t// in\n    tag_515:\n        /* \"#utility.yul\":14474:14574   */\n      swap4\n      pop\n        /* \"#utility.yul\":14598:14653   */\n      tag_517\n        /* \"#utility.yul\":14647:14652   */\n      dup4\n        /* \"#utility.yul\":14598:14653   */\n      tag_518\n      jump\t// in\n    tag_517:\n        /* \"#utility.yul\":14676:14683   */\n      dup1\n        /* \"#utility.yul\":14707:14708   */\n      0x00\n        /* \"#utility.yul\":14692:14981   */\n    tag_519:\n        /* \"#utility.yul\":14717:14723   */\n      dup4\n        /* \"#utility.yul\":14714:14715   */\n      dup2\n        /* \"#utility.yul\":14711:14724   */\n      lt\n        /* \"#utility.yul\":14692:14981   */\n      iszero\n      tag_521\n      jumpi\n        /* \"#utility.yul\":14793:14799   */\n      dup2\n        /* \"#utility.yul\":14787:14800   */\n      mload\n        /* \"#utility.yul\":14820:14889   */\n      tag_522\n        /* \"#utility.yul\":14885:14888   */\n      dup9\n        /* \"#utility.yul\":14870:14883   */\n      dup3\n        /* \"#utility.yul\":14820:14889   */\n      tag_495\n      jump\t// in\n    tag_522:\n        /* \"#utility.yul\":14813:14889   */\n      swap8\n      pop\n        /* \"#utility.yul\":14912:14971   */\n      tag_523\n        /* \"#utility.yul\":14964:14970   */\n      dup4\n        /* \"#utility.yul\":14912:14971   */\n      tag_524\n      jump\t// in\n    tag_523:\n        /* \"#utility.yul\":14902:14971   */\n      swap3\n      pop\n        /* \"#utility.yul\":14752:14981   */\n      pop\n        /* \"#utility.yul\":14739:14740   */\n      0x01\n        /* \"#utility.yul\":14736:14737   */\n      dup2\n        /* \"#utility.yul\":14732:14741   */\n      add\n        /* \"#utility.yul\":14727:14741   */\n      swap1\n      pop\n        /* \"#utility.yul\":14692:14981   */\n      jump(tag_519)\n    tag_521:\n        /* \"#utility.yul\":14696:14710   */\n      pop\n        /* \"#utility.yul\":14997:15000   */\n      dup6\n        /* \"#utility.yul\":14990:15000   */\n      swap4\n      pop\n        /* \"#utility.yul\":14388:15006   */\n      pop\n      pop\n      pop\n      swap3\n      swap2\n      pop\n      pop\n      jump\t// out\n        /* \"#utility.yul\":15040:16031   */\n    tag_525:\n      0x00\n        /* \"#utility.yul\":15208:15272   */\n      tag_527\n        /* \"#utility.yul\":15266:15271   */\n      dup3\n        /* \"#utility.yul\":15208:15272   */\n      tag_528\n      jump\t// in\n    tag_527:\n        /* \"#utility.yul\":15288:15384   */\n      tag_529\n        /* \"#utility.yul\":15377:15383   */\n      dup2\n        /* \"#utility.yul\":15372:15375   */\n      dup6\n        /* \"#utility.yul\":15288:15384   */\n      tag_530\n      jump\t// in\n    tag_529:\n        /* \"#utility.yul\":15281:15384   */\n      swap4\n      pop\n        /* \"#utility.yul\":15410:15413   */\n      dup4\n        /* \"#utility.yul\":15455:15459   */\n      0x20\n        /* \"#utility.yul\":15447:15453   */\n      dup3\n        /* \"#utility.yul\":15443:15460   */\n      mul\n        /* \"#utility.yul\":15438:15441   */\n      dup6\n        /* \"#utility.yul\":15434:15461   */\n      add\n        /* \"#utility.yul\":15485:15551   */\n      tag_531\n        /* \"#utility.yul\":15545:15550   */\n      dup6\n        /* \"#utility.yul\":15485:15551   */\n      tag_532\n      jump\t// in\n    tag_531:\n        /* \"#utility.yul\":15574:15581   */\n      dup1\n        /* \"#utility.yul\":15605:15606   */\n      0x00\n        /* \"#utility.yul\":15590:15986   */\n    tag_533:\n        /* \"#utility.yul\":15615:15621   */\n      dup6\n        /* \"#utility.yul\":15612:15613   */\n      dup2\n        /* \"#utility.yul\":15609:15622   */\n      lt\n        /* \"#utility.yul\":15590:15986   */\n      iszero\n      tag_535\n      jumpi\n        /* \"#utility.yul\":15686:15695   */\n      dup5\n        /* \"#utility.yul\":15680:15684   */\n      dup5\n        /* \"#utility.yul\":15676:15696   */\n      sub\n        /* \"#utility.yul\":15671:15674   */\n      dup10\n        /* \"#utility.yul\":15664:15697   */\n      mstore\n        /* \"#utility.yul\":15737:15743   */\n      dup2\n        /* \"#utility.yul\":15731:15744   */\n      mload\n        /* \"#utility.yul\":15765:15849   */\n      tag_536\n        /* \"#utility.yul\":15844:15848   */\n      dup6\n        /* \"#utility.yul\":15829:15842   */\n      dup3\n        /* \"#utility.yul\":15765:15849   */\n      tag_499\n      jump\t// in\n    tag_536:\n        /* \"#utility.yul\":15757:15849   */\n      swap5\n      pop\n        /* \"#utility.yul\":15872:15942   */\n      tag_537\n        /* \"#utility.yul\":15935:15941   */\n      dup4\n        /* \"#utility.yul\":15872:15942   */\n      tag_538\n      jump\t// in\n    tag_537:\n        /* \"#utility.yul\":15862:15942   */\n      swap3\n      pop\n        /* \"#utility.yul\":15971:15975   */\n      0x20\n        /* \"#utility.yul\":15966:15969   */\n      dup11\n        /* \"#utility.yul\":15962:15976   */\n      add\n        /* \"#utility.yul\":15955:15976   */\n      swap10\n      pop\n        /* \"#utility.yul\":15650:15986   */\n      pop\n        /* \"#utility.yul\":15637:15638   */\n      0x01\n        /* \"#utility.yul\":15634:15635   */\n      dup2\n        /* \"#utility.yul\":15630:15639   */\n      add\n        /* \"#utility.yul\":15625:15639   */\n      swap1\n      pop\n        /* \"#utility.yul\":15590:15986   */\n      jump(tag_533)\n    tag_535:\n        /* \"#utility.yul\":15594:15608   */\n      pop\n        /* \"#utility.yul\":16002:16006   */\n      dup3\n        /* \"#utility.yul\":15995:16006   */\n      swap8\n      pop\n        /* \"#utility.yul\":16022:16025   */\n      dup8\n        /* \"#utility.yul\":16015:16025   */\n      swap6\n      pop\n        /* \"#utility.yul\":15184:16031   */\n      pop\n      pop\n      pop\n      pop\n      pop\n      swap3\n      swap2\n      pop\n      pop\n      jump\t// out\n        /* \"#utility.yul\":16067:16799   */\n    tag_539:\n      0x00\n        /* \"#utility.yul\":16215:16269   */\n      tag_541\n        /* \"#utility.yul\":16263:16268   */\n      dup3\n        /* \"#utility.yul\":16215:16269   */\n      tag_542\n      jump\t// in\n    tag_541:\n        /* \"#utility.yul\":16285:16371   */\n      tag_543\n        /* \"#utility.yul\":16364:16370   */\n      dup2\n        /* \"#utility.yul\":16359:16362   */\n      dup6\n        /* \"#utility.yul\":16285:16371   */\n      tag_544\n      jump\t// in\n    tag_543:\n        /* \"#utility.yul\":16278:16371   */\n      swap4\n      pop\n        /* \"#utility.yul\":16395:16451   */\n      tag_545\n        /* \"#utility.yul\":16445:16450   */\n      dup4\n        /* \"#utility.yul\":16395:16451   */\n      tag_546\n      jump\t// in\n    tag_545:\n        /* \"#utility.yul\":16474:16481   */\n      dup1\n        /* \"#utility.yul\":16505:16506   */\n      0x00\n        /* \"#utility.yul\":16490:16774   */\n    tag_547:\n        /* \"#utility.yul\":16515:16521   */\n      dup4\n        /* \"#utility.yul\":16512:16513   */\n      dup2\n        /* \"#utility.yul\":16509:16522   */\n      lt\n        /* \"#utility.yul\":16490:16774   */\n      iszero\n      tag_549\n      jumpi\n        /* \"#utility.yul\":16591:16597   */\n      dup2\n        /* \"#utility.yul\":16585:16598   */\n      mload\n        /* \"#utility.yul\":16618:16681   */\n      tag_550\n        /* \"#utility.yul\":16677:16680   */\n      dup9\n        /* \"#utility.yul\":16662:16675   */\n      dup3\n        /* \"#utility.yul\":16618:16681   */\n      tag_503\n      jump\t// in\n    tag_550:\n        /* \"#utility.yul\":16611:16681   */\n      swap8\n      pop\n        /* \"#utility.yul\":16704:16764   */\n      tag_551\n        /* \"#utility.yul\":16757:16763   */\n      dup4\n        /* \"#utility.yul\":16704:16764   */\n      tag_552\n      jump\t// in\n    tag_551:\n        /* \"#utility.yul\":16694:16764   */\n      swap3\n      pop\n        /* \"#utility.yul\":16550:16774   */\n      pop\n        /* \"#utility.yul\":16537:16538   */\n      0x01\n        /* \"#utility.yul\":16534:16535   */\n      dup2\n        /* \"#utility.yul\":16530:16539   */\n      add\n        /* \"#utility.yul\":16525:16539   */\n      swap1\n      pop\n        /* \"#utility.yul\":16490:16774   */\n      jump(tag_547)\n    tag_549:\n        /* \"#utility.yul\":16494:16508   */\n      pop\n        /* \"#utility.yul\":16790:16793   */\n      dup6\n        /* \"#utility.yul\":16783:16793   */\n      swap4\n      pop\n        /* \"#utility.yul\":16191:16799   */\n      pop\n      pop\n      pop\n      swap3\n      swap2\n      pop\n      pop\n      jump\t// out\n        /* \"#utility.yul\":16805:16914   */\n    tag_553:\n        /* \"#utility.yul\":16886:16907   */\n      tag_555\n        /* \"#utility.yul\":16901:16906   */\n      dup2\n        /* \"#utility.yul\":16886:16907   */\n      tag_556\n      jump\t// in\n    tag_555:\n        /* \"#utility.yul\":16881:16884   */\n      dup3\n        /* \"#utility.yul\":16874:16908   */\n      mstore\n        /* \"#utility.yul\":16864:16914   */\n      pop\n      pop\n      jump\t// out\n        /* \"#utility.yul\":16920:17073   */\n    tag_557:\n        /* \"#utility.yul\":17018:17066   */\n      tag_559\n        /* \"#utility.yul\":17060:17065   */\n      dup2\n        /* \"#utility.yul\":17018:17066   */\n      tag_560\n      jump\t// in\n    tag_559:\n        /* \"#utility.yul\":17013:17016   */\n      dup3\n        /* \"#utility.yul\":17006:17067   */\n      mstore\n        /* \"#utility.yul\":16996:17073   */\n      pop\n      pop\n      jump\t// out\n        /* \"#utility.yul\":17079:17238   */\n    tag_561:\n        /* \"#utility.yul\":17184:17231   */\n      tag_563\n        /* \"#utility.yul\":17225:17230   */\n      dup2\n        /* \"#utility.yul\":17184:17231   */\n      tag_564\n      jump\t// in\n    tag_563:\n        /* \"#utility.yul\":17179:17182   */\n      dup3\n        /* \"#utility.yul\":17172:17232   */\n      mstore\n        /* \"#utility.yul\":17162:17238   */\n      pop\n      pop\n      jump\t// out\n        /* \"#utility.yul\":17244:17359   */\n    tag_565:\n        /* \"#utility.yul\":17329:17352   */\n      tag_567\n        /* \"#utility.yul\":17346:17351   */\n      dup2\n        /* \"#utility.yul\":17329:17352   */\n      tag_568\n      jump\t// in\n    tag_567:\n        /* \"#utility.yul\":17324:17327   */\n      dup3\n        /* \"#utility.yul\":17317:17353   */\n      mstore\n        /* \"#utility.yul\":17307:17359   */\n      pop\n      pop\n      jump\t// out\n        /* \"#utility.yul\":17365:17488   */\n    tag_569:\n        /* \"#utility.yul\":17458:17481   */\n      tag_571\n        /* \"#utility.yul\":17475:17480   */\n      dup2\n        /* \"#utility.yul\":17458:17481   */\n      tag_568\n      jump\t// in\n    tag_571:\n        /* \"#utility.yul\":17453:17456   */\n      dup3\n        /* \"#utility.yul\":17446:17482   */\n      mstore\n        /* \"#utility.yul\":17436:17488   */\n      pop\n      pop\n      jump\t// out\n        /* \"#utility.yul\":17494:17607   */\n    tag_498:\n        /* \"#utility.yul\":17577:17600   */\n      tag_573\n        /* \"#utility.yul\":17594:17599   */\n      dup2\n        /* \"#utility.yul\":17577:17600   */\n      tag_568\n      jump\t// in\n    tag_573:\n        /* \"#utility.yul\":17572:17575   */\n      dup3\n        /* \"#utility.yul\":17565:17601   */\n      mstore\n        /* \"#utility.yul\":17555:17607   */\n      pop\n      pop\n      jump\t// out\n        /* \"#utility.yul\":17637:17954   */\n    tag_574:\n      0x00\n        /* \"#utility.yul\":17774:17863   */\n      tag_576\n        /* \"#utility.yul\":17856:17862   */\n      dup4\n        /* \"#utility.yul\":17851:17854   */\n      dup6\n        /* \"#utility.yul\":17774:17863   */\n      tag_577\n      jump\t// in\n    tag_576:\n        /* \"#utility.yul\":17767:17863   */\n      swap4\n      pop\n        /* \"#utility.yul\":17873:17916   */\n      tag_578\n        /* \"#utility.yul\":17909:17915   */\n      dup4\n        /* \"#utility.yul\":17904:17907   */\n      dup6\n        /* \"#utility.yul\":17897:17902   */\n      dup5\n        /* \"#utility.yul\":17873:17916   */\n      tag_367\n      jump\t// in\n    tag_578:\n        /* \"#utility.yul\":17941:17947   */\n      dup3\n        /* \"#utility.yul\":17936:17939   */\n      dup5\n        /* \"#utility.yul\":17932:17948   */\n      add\n        /* \"#utility.yul\":17925:17948   */\n      swap1\n      pop\n        /* \"#utility.yul\":17757:17954   */\n      swap4\n      swap3\n      pop\n      pop\n      pop\n      jump\t// out\n        /* \"#utility.yul\":17960:18304   */\n    tag_502:\n      0x00\n        /* \"#utility.yul\":18066:18105   */\n      tag_580\n        /* \"#utility.yul\":18099:18104   */\n      dup3\n        /* \"#utility.yul\":18066:18105   */\n      tag_581\n      jump\t// in\n    tag_580:\n        /* \"#utility.yul\":18121:18182   */\n      tag_582\n        /* \"#utility.yul\":18175:18181   */\n      dup2\n        /* \"#utility.yul\":18170:18173   */\n      dup6\n        /* \"#utility.yul\":18121:18182   */\n      tag_583\n      jump\t// in\n    tag_582:\n        /* \"#utility.yul\":18114:18182   */\n      swap4\n      pop\n        /* \"#utility.yul\":18191:18243   */\n      tag_584\n        /* \"#utility.yul\":18236:18242   */\n      dup2\n        /* \"#utility.yul\":18231:18234   */\n      dup6\n        /* \"#utility.yul\":18224:18228   */\n      0x20\n        /* \"#utility.yul\":18217:18222   */\n      dup7\n        /* \"#utility.yul\":18213:18229   */\n      add\n        /* \"#utility.yul\":18191:18243   */\n      tag_585\n      jump\t// in\n    tag_584:\n        /* \"#utility.yul\":18268:18297   */\n      tag_586\n        /* \"#utility.yul\":18290:18296   */\n      dup2\n        /* \"#utility.yul\":18268:18297   */\n      tag_587\n      jump\t// in\n    tag_586:\n        /* \"#utility.yul\":18263:18266   */\n      dup5\n        /* \"#utility.yul\":18259:18298   */\n      add\n        /* \"#utility.yul\":18252:18298   */\n      swap2\n      pop\n        /* \"#utility.yul\":18042:18304   */\n      pop\n      swap3\n      swap2\n      pop\n      pop\n      jump\t// out\n        /* \"#utility.yul\":18310:18674   */\n    tag_588:\n      0x00\n        /* \"#utility.yul\":18426:18465   */\n      tag_590\n        /* \"#utility.yul\":18459:18464   */\n      dup3\n        /* \"#utility.yul\":18426:18465   */\n      tag_581\n      jump\t// in\n    tag_590:\n        /* \"#utility.yul\":18481:18552   */\n      tag_591\n        /* \"#utility.yul\":18545:18551   */\n      dup2\n        /* \"#utility.yul\":18540:18543   */\n      dup6\n        /* \"#utility.yul\":18481:18552   */\n      tag_592\n      jump\t// in\n    tag_591:\n        /* \"#utility.yul\":18474:18552   */\n      swap4\n      pop\n        /* \"#utility.yul\":18561:18613   */\n      tag_593\n        /* \"#utility.yul\":18606:18612   */\n      dup2\n        /* \"#utility.yul\":18601:18604   */\n      dup6\n        /* \"#utility.yul\":18594:18598   */\n      0x20\n        /* \"#utility.yul\":18587:18592   */\n      dup7\n        /* \"#utility.yul\":18583:18599   */\n      add\n        /* \"#utility.yul\":18561:18613   */\n      tag_585\n      jump\t// in\n    tag_593:\n        /* \"#utility.yul\":18638:18667   */\n      tag_594\n        /* \"#utility.yul\":18660:18666   */\n      dup2\n        /* \"#utility.yul\":18638:18667   */\n      tag_587\n      jump\t// in\n    tag_594:\n        /* \"#utility.yul\":18633:18636   */\n      dup5\n        /* \"#utility.yul\":18629:18668   */\n      add\n        /* \"#utility.yul\":18622:18668   */\n      swap2\n      pop\n        /* \"#utility.yul\":18402:18674   */\n      pop\n      swap3\n      swap2\n      pop\n      pop\n      jump\t// out\n        /* \"#utility.yul\":18680:19060   */\n    tag_595:\n      0x00\n        /* \"#utility.yul\":18804:18843   */\n      tag_597\n        /* \"#utility.yul\":18837:18842   */\n      dup3\n        /* \"#utility.yul\":18804:18843   */\n      tag_581\n      jump\t// in\n    tag_597:\n        /* \"#utility.yul\":18859:18938   */\n      tag_598\n        /* \"#utility.yul\":18931:18937   */\n      dup2\n        /* \"#utility.yul\":18926:18929   */\n      dup6\n        /* \"#utility.yul\":18859:18938   */\n      tag_599\n      jump\t// in\n    tag_598:\n        /* \"#utility.yul\":18852:18938   */\n      swap4\n      pop\n        /* \"#utility.yul\":18947:18999   */\n      tag_600\n        /* \"#utility.yul\":18992:18998   */\n      dup2\n        /* \"#utility.yul\":18987:18990   */\n      dup6\n        /* \"#utility.yul\":18980:18984   */\n      0x20\n        /* \"#utility.yul\":18973:18978   */\n      dup7\n        /* \"#utility.yul\":18969:18985   */\n      add\n        /* \"#utility.yul\":18947:18999   */\n      tag_585\n      jump\t// in\n    tag_600:\n        /* \"#utility.yul\":19024:19053   */\n      tag_601\n        /* \"#utility.yul\":19046:19052   */\n      dup2\n        /* \"#utility.yul\":19024:19053   */\n      tag_587\n      jump\t// in\n    tag_601:\n        /* \"#utility.yul\":19019:19022   */\n      dup5\n        /* \"#utility.yul\":19015:19054   */\n      add\n        /* \"#utility.yul\":19008:19054   */\n      swap2\n      pop\n        /* \"#utility.yul\":18780:19060   */\n      pop\n      swap3\n      swap2\n      pop\n      pop\n      jump\t// out\n        /* \"#utility.yul\":19066:19443   */\n    tag_602:\n      0x00\n        /* \"#utility.yul\":19200:19239   */\n      tag_604\n        /* \"#utility.yul\":19233:19238   */\n      dup3\n        /* \"#utility.yul\":19200:19239   */\n      tag_581\n      jump\t// in\n    tag_604:\n        /* \"#utility.yul\":19255:19344   */\n      tag_605\n        /* \"#utility.yul\":19337:19343   */\n      dup2\n        /* \"#utility.yul\":19332:19335   */\n      dup6\n        /* \"#utility.yul\":19255:19344   */\n      tag_577\n      jump\t// in\n    tag_605:\n        /* \"#utility.yul\":19248:19344   */\n      swap4\n      pop\n        /* \"#utility.yul\":19353:19405   */\n      tag_606\n        /* \"#utility.yul\":19398:19404   */\n      dup2\n        /* \"#utility.yul\":19393:19396   */\n      dup6\n        /* \"#utility.yul\":19386:19390   */\n      0x20\n        /* \"#utility.yul\":19379:19384   */\n      dup7\n        /* \"#utility.yul\":19375:19391   */\n      add\n        /* \"#utility.yul\":19353:19405   */\n      tag_585\n      jump\t// in\n    tag_606:\n        /* \"#utility.yul\":19430:19436   */\n      dup1\n        /* \"#utility.yul\":19425:19428   */\n      dup5\n        /* \"#utility.yul\":19421:19437   */\n      add\n        /* \"#utility.yul\":19414:19437   */\n      swap2\n      pop\n        /* \"#utility.yul\":19176:19443   */\n      pop\n      swap3\n      swap2\n      pop\n      pop\n      jump\t// out\n        /* \"#utility.yul\":19473:20275   */\n    tag_607:\n      0x00\n        /* \"#utility.yul\":19595:19600   */\n      dup2\n        /* \"#utility.yul\":19589:19601   */\n      sload\n        /* \"#utility.yul\":19624:19660   */\n      tag_609\n        /* \"#utility.yul\":19650:19659   */\n      dup2\n        /* \"#utility.yul\":19624:19660   */\n      tag_107\n      jump\t// in\n    tag_609:\n        /* \"#utility.yul\":19676:19747   */\n      tag_610\n        /* \"#utility.yul\":19740:19746   */\n      dup2\n        /* \"#utility.yul\":19735:19738   */\n      dup7\n        /* \"#utility.yul\":19676:19747   */\n      tag_592\n      jump\t// in\n    tag_610:\n        /* \"#utility.yul\":19669:19747   */\n      swap5\n      pop\n        /* \"#utility.yul\":19778:19779   */\n      0x01\n        /* \"#utility.yul\":19767:19776   */\n      dup3\n        /* \"#utility.yul\":19763:19780   */\n      and\n        /* \"#utility.yul\":19794:19795   */\n      0x00\n        /* \"#utility.yul\":19789:19924   */\n      dup2\n      eq\n      tag_612\n      jumpi\n        /* \"#utility.yul\":19938:19939   */\n      0x01\n        /* \"#utility.yul\":19933:20269   */\n      dup2\n      eq\n      tag_613\n      jumpi\n        /* \"#utility.yul\":19756:20269   */\n      jump(tag_611)\n        /* \"#utility.yul\":19789:19924   */\n    tag_612:\n        /* \"#utility.yul\":19873:19877   */\n      0xff\n        /* \"#utility.yul\":19869:19878   */\n      not\n        /* \"#utility.yul\":19858:19867   */\n      dup4\n        /* \"#utility.yul\":19854:19879   */\n      and\n        /* \"#utility.yul\":19849:19852   */\n      dup7\n        /* \"#utility.yul\":19842:19880   */\n      mstore\n        /* \"#utility.yul\":19909:19913   */\n      0x20\n        /* \"#utility.yul\":19904:19907   */\n      dup7\n        /* \"#utility.yul\":19900:19914   */\n      add\n        /* \"#utility.yul\":19893:19914   */\n      swap4\n      pop\n        /* \"#utility.yul\":19789:19924   */\n      jump(tag_611)\n        /* \"#utility.yul\":19933:20269   */\n    tag_613:\n        /* \"#utility.yul\":20000:20038   */\n      tag_614\n        /* \"#utility.yul\":20032:20037   */\n      dup6\n        /* \"#utility.yul\":20000:20038   */\n      tag_615\n      jump\t// in\n    tag_614:\n        /* \"#utility.yul\":20060:20061   */\n      0x00\n        /* \"#utility.yul\":20074:20228   */\n    tag_616:\n        /* \"#utility.yul\":20088:20094   */\n      dup4\n        /* \"#utility.yul\":20085:20086   */\n      dup2\n        /* \"#utility.yul\":20082:20095   */\n      lt\n        /* \"#utility.yul\":20074:20228   */\n      iszero\n      tag_618\n      jumpi\n        /* \"#utility.yul\":20162:20169   */\n      dup2\n        /* \"#utility.yul\":20156:20170   */\n      sload\n        /* \"#utility.yul\":20152:20153   */\n      dup2\n        /* \"#utility.yul\":20147:20150   */\n      dup10\n        /* \"#utility.yul\":20143:20154   */\n      add\n        /* \"#utility.yul\":20136:20171   */\n      mstore\n        /* \"#utility.yul\":20212:20213   */\n      0x01\n        /* \"#utility.yul\":20203:20210   */\n      dup3\n        /* \"#utility.yul\":20199:20214   */\n      add\n        /* \"#utility.yul\":20188:20214   */\n      swap2\n      pop\n        /* \"#utility.yul\":20110:20114   */\n      0x20\n        /* \"#utility.yul\":20107:20108   */\n      dup2\n        /* \"#utility.yul\":20103:20115   */\n      add\n        /* \"#utility.yul\":20098:20115   */\n      swap1\n      pop\n        /* \"#utility.yul\":20074:20228   */\n      jump(tag_616)\n    tag_618:\n        /* \"#utility.yul\":20257:20258   */\n      dup1\n        /* \"#utility.yul\":20252:20255   */\n      dup9\n        /* \"#utility.yul\":20248:20259   */\n      add\n        /* \"#utility.yul\":20241:20259   */\n      swap6\n      pop\n        /* \"#utility.yul\":19940:20269   */\n      pop\n      pop\n        /* \"#utility.yul\":19756:20269   */\n    tag_611:\n      pop\n        /* \"#utility.yul\":19562:20275   */\n      pop\n      pop\n      swap3\n      swap2\n      pop\n      pop\n      jump\t// out\n        /* \"#utility.yul\":20281:20611   */\n    tag_619:\n      0x00\n        /* \"#utility.yul\":20444:20511   */\n      tag_621\n        /* \"#utility.yul\":20508:20510   */\n      0x20\n        /* \"#utility.yul\":20503:20506   */\n      dup4\n        /* \"#utility.yul\":20444:20511   */\n      tag_592\n      jump\t// in\n    tag_621:\n        /* \"#utility.yul\":20437:20511   */\n      swap2\n      pop\n        /* \"#utility.yul\":20541:20575   */\n      0x50726f63657373205661726961626c65206973206e6f7420636f72726563742e\n        /* \"#utility.yul\":20537:20538   */\n      0x00\n        /* \"#utility.yul\":20532:20535   */\n      dup4\n        /* \"#utility.yul\":20528:20539   */\n      add\n        /* \"#utility.yul\":20521:20576   */\n      mstore\n        /* \"#utility.yul\":20602:20604   */\n      0x20\n        /* \"#utility.yul\":20597:20600   */\n      dup3\n        /* \"#utility.yul\":20593:20605   */\n      add\n        /* \"#utility.yul\":20586:20605   */\n      swap1\n      pop\n        /* \"#utility.yul\":20427:20611   */\n      swap2\n      swap1\n      pop\n      jump\t// out\n        /* \"#utility.yul\":20617:20725   */\n    tag_506:\n        /* \"#utility.yul\":20694:20718   */\n      tag_623\n        /* \"#utility.yul\":20712:20717   */\n      dup2\n        /* \"#utility.yul\":20694:20718   */\n      tag_624\n      jump\t// in\n    tag_623:\n        /* \"#utility.yul\":20689:20692   */\n      dup3\n        /* \"#utility.yul\":20682:20719   */\n      mstore\n        /* \"#utility.yul\":20672:20725   */\n      pop\n      pop\n      jump\t// out\n        /* \"#utility.yul\":20731:20849   */\n    tag_625:\n        /* \"#utility.yul\":20818:20842   */\n      tag_627\n        /* \"#utility.yul\":20836:20841   */\n      dup2\n        /* \"#utility.yul\":20818:20842   */\n      tag_624\n      jump\t// in\n    tag_627:\n        /* \"#utility.yul\":20813:20816   */\n      dup3\n        /* \"#utility.yul\":20806:20843   */\n      mstore\n        /* \"#utility.yul\":20796:20849   */\n      pop\n      pop\n      jump\t// out\n        /* \"#utility.yul\":20855:21150   */\n    tag_150:\n      0x00\n        /* \"#utility.yul\":21019:21124   */\n      tag_629\n        /* \"#utility.yul\":21120:21123   */\n      dup3\n        /* \"#utility.yul\":21111:21117   */\n      dup5\n        /* \"#utility.yul\":21103:21109   */\n      dup7\n        /* \"#utility.yul\":21019:21124   */\n      tag_574\n      jump\t// in\n    tag_629:\n        /* \"#utility.yul\":21012:21124   */\n      swap2\n      pop\n        /* \"#utility.yul\":21141:21144   */\n      dup2\n        /* \"#utility.yul\":21134:21144   */\n      swap1\n      pop\n        /* \"#utility.yul\":21001:21150   */\n      swap4\n      swap3\n      pop\n      pop\n      pop\n      jump\t// out\n        /* \"#utility.yul\":21156:21431   */\n    tag_105:\n      0x00\n        /* \"#utility.yul\":21310:21405   */\n      tag_631\n        /* \"#utility.yul\":21401:21404   */\n      dup3\n        /* \"#utility.yul\":21392:21398   */\n      dup5\n        /* \"#utility.yul\":21310:21405   */\n      tag_602\n      jump\t// in\n    tag_631:\n        /* \"#utility.yul\":21303:21405   */\n      swap2\n      pop\n        /* \"#utility.yul\":21422:21425   */\n      dup2\n        /* \"#utility.yul\":21415:21425   */\n      swap1\n      pop\n        /* \"#utility.yul\":21292:21431   */\n      swap3\n      swap2\n      pop\n      pop\n      jump\t// out\n        /* \"#utility.yul\":21437:21850   */\n    tag_46:\n      0x00\n        /* \"#utility.yul\":21638:21640   */\n      0x20\n        /* \"#utility.yul\":21627:21636   */\n      dup3\n        /* \"#utility.yul\":21623:21641   */\n      add\n        /* \"#utility.yul\":21615:21641   */\n      swap1\n      pop\n        /* \"#utility.yul\":21687:21696   */\n      dup2\n        /* \"#utility.yul\":21681:21685   */\n      dup2\n        /* \"#utility.yul\":21677:21697   */\n      sub\n        /* \"#utility.yul\":21673:21674   */\n      0x00\n        /* \"#utility.yul\":21662:21671   */\n      dup4\n        /* \"#utility.yul\":21658:21675   */\n      add\n        /* \"#utility.yul\":21651:21698   */\n      mstore\n        /* \"#utility.yul\":21715:21843   */\n      tag_633\n        /* \"#utility.yul\":21838:21842   */\n      dup2\n        /* \"#utility.yul\":21829:21835   */\n      dup5\n        /* \"#utility.yul\":21715:21843   */\n      tag_525\n      jump\t// in\n    tag_633:\n        /* \"#utility.yul\":21707:21843   */\n      swap1\n      pop\n        /* \"#utility.yul\":21605:21850   */\n      swap3\n      swap2\n      pop\n      pop\n      jump\t// out\n        /* \"#utility.yul\":21856:22229   */\n    tag_65:\n      0x00\n        /* \"#utility.yul\":22037:22039   */\n      0x20\n        /* \"#utility.yul\":22026:22035   */\n      dup3\n        /* \"#utility.yul\":22022:22040   */\n      add\n        /* \"#utility.yul\":22014:22040   */\n      swap1\n      pop\n        /* \"#utility.yul\":22086:22095   */\n      dup2\n        /* \"#utility.yul\":22080:22084   */\n      dup2\n        /* \"#utility.yul\":22076:22096   */\n      sub\n        /* \"#utility.yul\":22072:22073   */\n      0x00\n        /* \"#utility.yul\":22061:22070   */\n      dup4\n        /* \"#utility.yul\":22057:22074   */\n      add\n        /* \"#utility.yul\":22050:22097   */\n      mstore\n        /* \"#utility.yul\":22114:22222   */\n      tag_635\n        /* \"#utility.yul\":22217:22221   */\n      dup2\n        /* \"#utility.yul\":22208:22214   */\n      dup5\n        /* \"#utility.yul\":22114:22222   */\n      tag_539\n      jump\t// in\n    tag_635:\n        /* \"#utility.yul\":22106:22222   */\n      swap1\n      pop\n        /* \"#utility.yul\":22004:22229   */\n      swap3\n      swap2\n      pop\n      pop\n      jump\t// out\n        /* \"#utility.yul\":22235:22445   */\n    tag_28:\n      0x00\n        /* \"#utility.yul\":22360:22362   */\n      0x20\n        /* \"#utility.yul\":22349:22358   */\n      dup3\n        /* \"#utility.yul\":22345:22363   */\n      add\n        /* \"#utility.yul\":22337:22363   */\n      swap1\n      pop\n        /* \"#utility.yul\":22373:22438   */\n      tag_637\n        /* \"#utility.yul\":22435:22436   */\n      0x00\n        /* \"#utility.yul\":22424:22433   */\n      dup4\n        /* \"#utility.yul\":22420:22437   */\n      add\n        /* \"#utility.yul\":22411:22417   */\n      dup5\n        /* \"#utility.yul\":22373:22438   */\n      tag_553\n      jump\t// in\n    tag_637:\n        /* \"#utility.yul\":22327:22445   */\n      swap3\n      swap2\n      pop\n      pop\n      jump\t// out\n        /* \"#utility.yul\":22451:23629   */\n    tag_74:\n      0x00\n        /* \"#utility.yul\":22847:22850   */\n      0xc0\n        /* \"#utility.yul\":22836:22845   */\n      dup3\n        /* \"#utility.yul\":22832:22851   */\n      add\n        /* \"#utility.yul\":22824:22851   */\n      swap1\n      pop\n        /* \"#utility.yul\":22861:22926   */\n      tag_639\n        /* \"#utility.yul\":22923:22924   */\n      0x00\n        /* \"#utility.yul\":22912:22921   */\n      dup4\n        /* \"#utility.yul\":22908:22925   */\n      add\n        /* \"#utility.yul\":22899:22905   */\n      dup10\n        /* \"#utility.yul\":22861:22926   */\n      tag_553\n      jump\t// in\n    tag_639:\n        /* \"#utility.yul\":22973:22982   */\n      dup2\n        /* \"#utility.yul\":22967:22971   */\n      dup2\n        /* \"#utility.yul\":22963:22983   */\n      sub\n        /* \"#utility.yul\":22958:22960   */\n      0x20\n        /* \"#utility.yul\":22947:22956   */\n      dup4\n        /* \"#utility.yul\":22943:22961   */\n      add\n        /* \"#utility.yul\":22936:22984   */\n      mstore\n        /* \"#utility.yul\":23001:23079   */\n      tag_640\n        /* \"#utility.yul\":23074:23078   */\n      dup2\n        /* \"#utility.yul\":23065:23071   */\n      dup9\n        /* \"#utility.yul\":23001:23079   */\n      tag_588\n      jump\t// in\n    tag_640:\n        /* \"#utility.yul\":22993:23079   */\n      swap1\n      pop\n        /* \"#utility.yul\":23089:23161   */\n      tag_641\n        /* \"#utility.yul\":23157:23159   */\n      0x40\n        /* \"#utility.yul\":23146:23155   */\n      dup4\n        /* \"#utility.yul\":23142:23160   */\n      add\n        /* \"#utility.yul\":23133:23139   */\n      dup8\n        /* \"#utility.yul\":23089:23161   */\n      tag_507\n      jump\t// in\n    tag_641:\n        /* \"#utility.yul\":23171:23254   */\n      tag_642\n        /* \"#utility.yul\":23250:23252   */\n      0x60\n        /* \"#utility.yul\":23239:23248   */\n      dup4\n        /* \"#utility.yul\":23235:23253   */\n      add\n        /* \"#utility.yul\":23226:23232   */\n      dup7\n        /* \"#utility.yul\":23171:23254   */\n      tag_557\n      jump\t// in\n    tag_642:\n        /* \"#utility.yul\":23302:23311   */\n      dup2\n        /* \"#utility.yul\":23296:23300   */\n      dup2\n        /* \"#utility.yul\":23292:23312   */\n      sub\n        /* \"#utility.yul\":23286:23289   */\n      0x80\n        /* \"#utility.yul\":23275:23284   */\n      dup4\n        /* \"#utility.yul\":23271:23290   */\n      add\n        /* \"#utility.yul\":23264:23313   */\n      mstore\n        /* \"#utility.yul\":23330:23438   */\n      tag_643\n        /* \"#utility.yul\":23433:23437   */\n      dup2\n        /* \"#utility.yul\":23424:23430   */\n      dup6\n        /* \"#utility.yul\":23330:23438   */\n      tag_539\n      jump\t// in\n    tag_643:\n        /* \"#utility.yul\":23322:23438   */\n      swap1\n      pop\n        /* \"#utility.yul\":23486:23495   */\n      dup2\n        /* \"#utility.yul\":23480:23484   */\n      dup2\n        /* \"#utility.yul\":23476:23496   */\n      sub\n        /* \"#utility.yul\":23470:23473   */\n      0xa0\n        /* \"#utility.yul\":23459:23468   */\n      dup4\n        /* \"#utility.yul\":23455:23474   */\n      add\n        /* \"#utility.yul\":23448:23497   */\n      mstore\n        /* \"#utility.yul\":23514:23622   */\n      tag_644\n        /* \"#utility.yul\":23617:23621   */\n      dup2\n        /* \"#utility.yul\":23608:23614   */\n      dup5\n        /* \"#utility.yul\":23514:23622   */\n      tag_539\n      jump\t// in\n    tag_644:\n        /* \"#utility.yul\":23506:23622   */\n      swap1\n      pop\n        /* \"#utility.yul\":22814:23629   */\n      swap8\n      swap7\n      pop\n      pop\n      pop\n      pop\n      pop\n      pop\n      pop\n      jump\t// out\n        /* \"#utility.yul\":23635:23853   */\n    tag_38:\n      0x00\n        /* \"#utility.yul\":23764:23766   */\n      0x20\n        /* \"#utility.yul\":23753:23762   */\n      dup3\n        /* \"#utility.yul\":23749:23767   */\n      add\n        /* \"#utility.yul\":23741:23767   */\n      swap1\n      pop\n        /* \"#utility.yul\":23777:23846   */\n      tag_646\n        /* \"#utility.yul\":23843:23844   */\n      0x00\n        /* \"#utility.yul\":23832:23841   */\n      dup4\n        /* \"#utility.yul\":23828:23845   */\n      add\n        /* \"#utility.yul\":23819:23825   */\n      dup5\n        /* \"#utility.yul\":23777:23846   */\n      tag_565\n      jump\t// in\n    tag_646:\n        /* \"#utility.yul\":23731:23853   */\n      swap3\n      swap2\n      pop\n      pop\n      jump\t// out\n        /* \"#utility.yul\":23859:24496   */\n    tag_125:\n      0x00\n        /* \"#utility.yul\":24110:24112   */\n      0x60\n        /* \"#utility.yul\":24099:24108   */\n      dup3\n        /* \"#utility.yul\":24095:24113   */\n      add\n        /* \"#utility.yul\":24087:24113   */\n      swap1\n      pop\n        /* \"#utility.yul\":24123:24200   */\n      tag_648\n        /* \"#utility.yul\":24197:24198   */\n      0x00\n        /* \"#utility.yul\":24186:24195   */\n      dup4\n        /* \"#utility.yul\":24182:24199   */\n      add\n        /* \"#utility.yul\":24173:24179   */\n      dup7\n        /* \"#utility.yul\":24123:24200   */\n      tag_569\n      jump\t// in\n    tag_648:\n        /* \"#utility.yul\":24247:24256   */\n      dup2\n        /* \"#utility.yul\":24241:24245   */\n      dup2\n        /* \"#utility.yul\":24237:24257   */\n      sub\n        /* \"#utility.yul\":24232:24234   */\n      0x20\n        /* \"#utility.yul\":24221:24230   */\n      dup4\n        /* \"#utility.yul\":24217:24235   */\n      add\n        /* \"#utility.yul\":24210:24258   */\n      mstore\n        /* \"#utility.yul\":24275:24389   */\n      tag_649\n        /* \"#utility.yul\":24384:24388   */\n      dup2\n        /* \"#utility.yul\":24375:24381   */\n      dup6\n        /* \"#utility.yul\":24275:24389   */\n      tag_511\n      jump\t// in\n    tag_649:\n        /* \"#utility.yul\":24267:24389   */\n      swap1\n      pop\n        /* \"#utility.yul\":24399:24489   */\n      tag_650\n        /* \"#utility.yul\":24485:24487   */\n      0x40\n        /* \"#utility.yul\":24474:24483   */\n      dup4\n        /* \"#utility.yul\":24470:24488   */\n      add\n        /* \"#utility.yul\":24461:24467   */\n      dup5\n        /* \"#utility.yul\":24399:24489   */\n      tag_561\n      jump\t// in\n    tag_650:\n        /* \"#utility.yul\":24077:24496   */\n      swap5\n      swap4\n      pop\n      pop\n      pop\n      pop\n      jump\t// out\n        /* \"#utility.yul\":24502:24815   */\n    tag_52:\n      0x00\n        /* \"#utility.yul\":24653:24655   */\n      0x20\n        /* \"#utility.yul\":24642:24651   */\n      dup3\n        /* \"#utility.yul\":24638:24656   */\n      add\n        /* \"#utility.yul\":24630:24656   */\n      swap1\n      pop\n        /* \"#utility.yul\":24702:24711   */\n      dup2\n        /* \"#utility.yul\":24696:24700   */\n      dup2\n        /* \"#utility.yul\":24692:24712   */\n      sub\n        /* \"#utility.yul\":24688:24689   */\n      0x00\n        /* \"#utility.yul\":24677:24686   */\n      dup4\n        /* \"#utility.yul\":24673:24690   */\n      add\n        /* \"#utility.yul\":24666:24713   */\n      mstore\n        /* \"#utility.yul\":24730:24808   */\n      tag_652\n        /* \"#utility.yul\":24803:24807   */\n      dup2\n        /* \"#utility.yul\":24794:24800   */\n      dup5\n        /* \"#utility.yul\":24730:24808   */\n      tag_588\n      jump\t// in\n    tag_652:\n        /* \"#utility.yul\":24722:24808   */\n      swap1\n      pop\n        /* \"#utility.yul\":24620:24815   */\n      swap3\n      swap2\n      pop\n      pop\n      jump\t// out\n        /* \"#utility.yul\":24821:25497   */\n    tag_113:\n      0x00\n        /* \"#utility.yul\":25066:25068   */\n      0x60\n        /* \"#utility.yul\":25055:25064   */\n      dup3\n        /* \"#utility.yul\":25051:25069   */\n      add\n        /* \"#utility.yul\":25043:25069   */\n      swap1\n      pop\n        /* \"#utility.yul\":25115:25124   */\n      dup2\n        /* \"#utility.yul\":25109:25113   */\n      dup2\n        /* \"#utility.yul\":25105:25125   */\n      sub\n        /* \"#utility.yul\":25101:25102   */\n      0x00\n        /* \"#utility.yul\":25090:25099   */\n      dup4\n        /* \"#utility.yul\":25086:25103   */\n      add\n        /* \"#utility.yul\":25079:25126   */\n      mstore\n        /* \"#utility.yul\":25143:25229   */\n      tag_654\n        /* \"#utility.yul\":25224:25228   */\n      dup2\n        /* \"#utility.yul\":25215:25221   */\n      dup7\n        /* \"#utility.yul\":25143:25229   */\n      tag_595\n      jump\t// in\n    tag_654:\n        /* \"#utility.yul\":25135:25229   */\n      swap1\n      pop\n        /* \"#utility.yul\":25276:25285   */\n      dup2\n        /* \"#utility.yul\":25270:25274   */\n      dup2\n        /* \"#utility.yul\":25266:25286   */\n      sub\n        /* \"#utility.yul\":25261:25263   */\n      0x20\n        /* \"#utility.yul\":25250:25259   */\n      dup4\n        /* \"#utility.yul\":25246:25264   */\n      add\n        /* \"#utility.yul\":25239:25287   */\n      mstore\n        /* \"#utility.yul\":25304:25390   */\n      tag_655\n        /* \"#utility.yul\":25385:25389   */\n      dup2\n        /* \"#utility.yul\":25376:25382   */\n      dup6\n        /* \"#utility.yul\":25304:25390   */\n      tag_595\n      jump\t// in\n    tag_655:\n        /* \"#utility.yul\":25296:25390   */\n      swap1\n      pop\n        /* \"#utility.yul\":25400:25490   */\n      tag_656\n        /* \"#utility.yul\":25486:25488   */\n      0x40\n        /* \"#utility.yul\":25475:25484   */\n      dup4\n        /* \"#utility.yul\":25471:25489   */\n      add\n        /* \"#utility.yul\":25462:25468   */\n      dup5\n        /* \"#utility.yul\":25400:25490   */\n      tag_561\n      jump\t// in\n    tag_656:\n        /* \"#utility.yul\":25033:25497   */\n      swap5\n      swap4\n      pop\n      pop\n      pop\n      pop\n      jump\t// out\n        /* \"#utility.yul\":25503:25810   */\n    tag_197:\n      0x00\n        /* \"#utility.yul\":25651:25653   */\n      0x20\n        /* \"#utility.yul\":25640:25649   */\n      dup3\n        /* \"#utility.yul\":25636:25654   */\n      add\n        /* \"#utility.yul\":25628:25654   */\n      swap1\n      pop\n        /* \"#utility.yul\":25700:25709   */\n      dup2\n        /* \"#utility.yul\":25694:25698   */\n      dup2\n        /* \"#utility.yul\":25690:25710   */\n      sub\n        /* \"#utility.yul\":25686:25687   */\n      0x00\n        /* \"#utility.yul\":25675:25684   */\n      dup4\n        /* \"#utility.yul\":25671:25688   */\n      add\n        /* \"#utility.yul\":25664:25711   */\n      mstore\n        /* \"#utility.yul\":25728:25803   */\n      tag_658\n        /* \"#utility.yul\":25798:25802   */\n      dup2\n        /* \"#utility.yul\":25789:25795   */\n      dup5\n        /* \"#utility.yul\":25728:25803   */\n      tag_607\n      jump\t// in\n    tag_658:\n        /* \"#utility.yul\":25720:25803   */\n      swap1\n      pop\n        /* \"#utility.yul\":25618:25810   */\n      swap3\n      swap2\n      pop\n      pop\n      jump\t// out\n        /* \"#utility.yul\":25816:26235   */\n    tag_220:\n      0x00\n        /* \"#utility.yul\":26020:26022   */\n      0x20\n        /* \"#utility.yul\":26009:26018   */\n      dup3\n        /* \"#utility.yul\":26005:26023   */\n      add\n        /* \"#utility.yul\":25997:26023   */\n      swap1\n      pop\n        /* \"#utility.yul\":26069:26078   */\n      dup2\n        /* \"#utility.yul\":26063:26067   */\n      dup2\n        /* \"#utility.yul\":26059:26079   */\n      sub\n        /* \"#utility.yul\":26055:26056   */\n      0x00\n        /* \"#utility.yul\":26044:26053   */\n      dup4\n        /* \"#utility.yul\":26040:26057   */\n      add\n        /* \"#utility.yul\":26033:26080   */\n      mstore\n        /* \"#utility.yul\":26097:26228   */\n      tag_660\n        /* \"#utility.yul\":26223:26227   */\n      dup2\n        /* \"#utility.yul\":26097:26228   */\n      tag_619\n      jump\t// in\n    tag_660:\n        /* \"#utility.yul\":26089:26228   */\n      swap1\n      pop\n        /* \"#utility.yul\":25987:26235   */\n      swap2\n      swap1\n      pop\n      jump\t// out\n        /* \"#utility.yul\":26241:26463   */\n    tag_56:\n      0x00\n        /* \"#utility.yul\":26372:26374   */\n      0x20\n        /* \"#utility.yul\":26361:26370   */\n      dup3\n        /* \"#utility.yul\":26357:26375   */\n      add\n        /* \"#utility.yul\":26349:26375   */\n      swap1\n      pop\n        /* \"#utility.yul\":26385:26456   */\n      tag_662\n        /* \"#utility.yul\":26453:26454   */\n      0x00\n        /* \"#utility.yul\":26442:26451   */\n      dup4\n        /* \"#utility.yul\":26438:26455   */\n      add\n        /* \"#utility.yul\":26429:26435   */\n      dup5\n        /* \"#utility.yul\":26385:26456   */\n      tag_625\n      jump\t// in\n    tag_662:\n        /* \"#utility.yul\":26339:26463   */\n      swap3\n      swap2\n      pop\n      pop\n      jump\t// out\n        /* \"#utility.yul\":26469:26752   */\n    tag_342:\n      0x00\n        /* \"#utility.yul\":26535:26537   */\n      0x40\n        /* \"#utility.yul\":26529:26538   */\n      mload\n        /* \"#utility.yul\":26519:26538   */\n      swap1\n      pop\n        /* \"#utility.yul\":26577:26581   */\n      dup2\n        /* \"#utility.yul\":26569:26575   */\n      dup2\n        /* \"#utility.yul\":26565:26582   */\n      add\n        /* \"#utility.yul\":26684:26690   */\n      dup2\n        /* \"#utility.yul\":26672:26682   */\n      dup2\n        /* \"#utility.yul\":26669:26691   */\n      lt\n        /* \"#utility.yul\":26648:26666   */\n      0xffffffffffffffff\n        /* \"#utility.yul\":26636:26646   */\n      dup3\n        /* \"#utility.yul\":26633:26667   */\n      gt\n        /* \"#utility.yul\":26630:26692   */\n      or\n        /* \"#utility.yul\":26627:26629   */\n      iszero\n      tag_664\n      jumpi\n        /* \"#utility.yul\":26695:26713   */\n      tag_665\n      tag_666\n      jump\t// in\n    tag_665:\n        /* \"#utility.yul\":26627:26629   */\n    tag_664:\n        /* \"#utility.yul\":26735:26745   */\n      dup1\n        /* \"#utility.yul\":26731:26733   */\n      0x40\n        /* \"#utility.yul\":26724:26746   */\n      mstore\n        /* \"#utility.yul\":26509:26752   */\n      pop\n      swap2\n      swap1\n      pop\n      jump\t// out\n        /* \"#utility.yul\":26758:27068   */\n    tag_341:\n      0x00\n        /* \"#utility.yul\":26924:26942   */\n      0xffffffffffffffff\n        /* \"#utility.yul\":26916:26922   */\n      dup3\n        /* \"#utility.yul\":26913:26943   */\n      gt\n        /* \"#utility.yul\":26910:26912   */\n      iszero\n      tag_668\n      jumpi\n        /* \"#utility.yul\":26946:26964   */\n      tag_669\n      tag_666\n      jump\t// in\n    tag_669:\n        /* \"#utility.yul\":26910:26912   */\n    tag_668:\n        /* \"#utility.yul\":26996:27000   */\n      0x20\n        /* \"#utility.yul\":26988:26994   */\n      dup3\n        /* \"#utility.yul\":26984:27001   */\n      mul\n        /* \"#utility.yul\":26976:27001   */\n      swap1\n      pop\n        /* \"#utility.yul\":27056:27060   */\n      0x20\n        /* \"#utility.yul\":27050:27054   */\n      dup2\n        /* \"#utility.yul\":27046:27061   */\n      add\n        /* \"#utility.yul\":27038:27061   */\n      swap1\n      pop\n        /* \"#utility.yul\":26839:27068   */\n      swap2\n      swap1\n      pop\n      jump\t// out\n        /* \"#utility.yul\":27074:27385   */\n    tag_353:\n      0x00\n        /* \"#utility.yul\":27241:27259   */\n      0xffffffffffffffff\n        /* \"#utility.yul\":27233:27239   */\n      dup3\n        /* \"#utility.yul\":27230:27260   */\n      gt\n        /* \"#utility.yul\":27227:27229   */\n      iszero\n      tag_671\n      jumpi\n        /* \"#utility.yul\":27263:27281   */\n      tag_672\n      tag_666\n      jump\t// in\n    tag_672:\n        /* \"#utility.yul\":27227:27229   */\n    tag_671:\n        /* \"#utility.yul\":27313:27317   */\n      0x20\n        /* \"#utility.yul\":27305:27311   */\n      dup3\n        /* \"#utility.yul\":27301:27318   */\n      mul\n        /* \"#utility.yul\":27293:27318   */\n      swap1\n      pop\n        /* \"#utility.yul\":27373:27377   */\n      0x20\n        /* \"#utility.yul\":27367:27371   */\n      dup2\n        /* \"#utility.yul\":27363:27378   */\n      add\n        /* \"#utility.yul\":27355:27378   */\n      swap1\n      pop\n        /* \"#utility.yul\":27156:27385   */\n      swap2\n      swap1\n      pop\n      jump\t// out\n        /* \"#utility.yul\":27391:27723   */\n    tag_364:\n      0x00\n        /* \"#utility.yul\":27543:27561   */\n      0xffffffffffffffff\n        /* \"#utility.yul\":27535:27541   */\n      dup3\n        /* \"#utility.yul\":27532:27562   */\n      gt\n        /* \"#utility.yul\":27529:27531   */\n      iszero\n      tag_674\n      jumpi\n        /* \"#utility.yul\":27565:27583   */\n      tag_675\n      tag_666\n      jump\t// in\n    tag_675:\n        /* \"#utility.yul\":27529:27531   */\n    tag_674:\n        /* \"#utility.yul\":27650:27654   */\n      0x1f\n        /* \"#utility.yul\":27646:27655   */\n      not\n        /* \"#utility.yul\":27639:27643   */\n      0x1f\n        /* \"#utility.yul\":27631:27637   */\n      dup4\n        /* \"#utility.yul\":27627:27644   */\n      add\n        /* \"#utility.yul\":27623:27656   */\n      and\n        /* \"#utility.yul\":27615:27656   */\n      swap1\n      pop\n        /* \"#utility.yul\":27711:27715   */\n      0x20\n        /* \"#utility.yul\":27705:27709   */\n      dup2\n        /* \"#utility.yul\":27701:27716   */\n      add\n        /* \"#utility.yul\":27693:27716   */\n      swap1\n      pop\n        /* \"#utility.yul\":27458:27723   */\n      swap2\n      swap1\n      pop\n      jump\t// out\n        /* \"#utility.yul\":27729:27860   */\n    tag_518:\n      0x00\n        /* \"#utility.yul\":27818:27821   */\n      dup2\n        /* \"#utility.yul\":27810:27821   */\n      swap1\n      pop\n        /* \"#utility.yul\":27848:27852   */\n      0x20\n        /* \"#utility.yul\":27843:27846   */\n      dup3\n        /* \"#utility.yul\":27839:27853   */\n      add\n        /* \"#utility.yul\":27831:27853   */\n      swap1\n      pop\n        /* \"#utility.yul\":27800:27860   */\n      swap2\n      swap1\n      pop\n      jump\t// out\n        /* \"#utility.yul\":27866:28008   */\n    tag_532:\n      0x00\n        /* \"#utility.yul\":27966:27969   */\n      dup2\n        /* \"#utility.yul\":27958:27969   */\n      swap1\n      pop\n        /* \"#utility.yul\":27996:28000   */\n      0x20\n        /* \"#utility.yul\":27991:27994   */\n      dup3\n        /* \"#utility.yul\":27987:28001   */\n      add\n        /* \"#utility.yul\":27979:28001   */\n      swap1\n      pop\n        /* \"#utility.yul\":27948:28008   */\n      swap2\n      swap1\n      pop\n      jump\t// out\n        /* \"#utility.yul\":28014:28146   */\n    tag_546:\n      0x00\n        /* \"#utility.yul\":28104:28107   */\n      dup2\n        /* \"#utility.yul\":28096:28107   */\n      swap1\n      pop\n        /* \"#utility.yul\":28134:28138   */\n      0x20\n        /* \"#utility.yul\":28129:28132   */\n      dup3\n        /* \"#utility.yul\":28125:28139   */\n      add\n        /* \"#utility.yul\":28117:28139   */\n      swap1\n      pop\n        /* \"#utility.yul\":28086:28146   */\n      swap2\n      swap1\n      pop\n      jump\t// out\n        /* \"#utility.yul\":28152:28293   */\n    tag_615:\n      0x00\n        /* \"#utility.yul\":28224:28227   */\n      dup2\n        /* \"#utility.yul\":28216:28227   */\n      swap1\n      pop\n        /* \"#utility.yul\":28247:28250   */\n      dup2\n        /* \"#utility.yul\":28244:28245   */\n      0x00\n        /* \"#utility.yul\":28237:28251   */\n      mstore\n        /* \"#utility.yul\":28281:28285   */\n      0x20\n        /* \"#utility.yul\":28278:28279   */\n      0x00\n        /* \"#utility.yul\":28268:28286   */\n      keccak256\n        /* \"#utility.yul\":28260:28286   */\n      swap1\n      pop\n        /* \"#utility.yul\":28206:28293   */\n      swap2\n      swap1\n      pop\n      jump\t// out\n        /* \"#utility.yul\":28299:28412   */\n    tag_514:\n      0x00\n        /* \"#utility.yul\":28399:28404   */\n      dup2\n        /* \"#utility.yul\":28393:28405   */\n      mload\n        /* \"#utility.yul\":28383:28405   */\n      swap1\n      pop\n        /* \"#utility.yul\":28372:28412   */\n      swap2\n      swap1\n      pop\n      jump\t// out\n        /* \"#utility.yul\":28418:28542   */\n    tag_528:\n      0x00\n        /* \"#utility.yul\":28529:28534   */\n      dup2\n        /* \"#utility.yul\":28523:28535   */\n      mload\n        /* \"#utility.yul\":28513:28535   */\n      swap1\n      pop\n        /* \"#utility.yul\":28502:28542   */\n      swap2\n      swap1\n      pop\n      jump\t// out\n        /* \"#utility.yul\":28548:28662   */\n    tag_542:\n      0x00\n        /* \"#utility.yul\":28649:28654   */\n      dup2\n        /* \"#utility.yul\":28643:28655   */\n      mload\n        /* \"#utility.yul\":28633:28655   */\n      swap1\n      pop\n        /* \"#utility.yul\":28622:28662   */\n      swap2\n      swap1\n      pop\n      jump\t// out\n        /* \"#utility.yul\":28668:28767   */\n    tag_581:\n      0x00\n        /* \"#utility.yul\":28754:28759   */\n      dup2\n        /* \"#utility.yul\":28748:28760   */\n      mload\n        /* \"#utility.yul\":28738:28760   */\n      swap1\n      pop\n        /* \"#utility.yul\":28727:28767   */\n      swap2\n      swap1\n      pop\n      jump\t// out\n        /* \"#utility.yul\":28773:28885   */\n    tag_524:\n      0x00\n        /* \"#utility.yul\":28874:28878   */\n      0x20\n        /* \"#utility.yul\":28869:28872   */\n      dup3\n        /* \"#utility.yul\":28865:28879   */\n      add\n        /* \"#utility.yul\":28857:28879   */\n      swap1\n      pop\n        /* \"#utility.yul\":28847:28885   */\n      swap2\n      swap1\n      pop\n      jump\t// out\n        /* \"#utility.yul\":28891:29014   */\n    tag_538:\n      0x00\n        /* \"#utility.yul\":29003:29007   */\n      0x20\n        /* \"#utility.yul\":28998:29001   */\n      dup3\n        /* \"#utility.yul\":28994:29008   */\n      add\n        /* \"#utility.yul\":28986:29008   */\n      swap1\n      pop\n        /* \"#utility.yul\":28976:29014   */\n      swap2\n      swap1\n      pop\n      jump\t// out\n        /* \"#utility.yul\":29020:29133   */\n    tag_552:\n      0x00\n        /* \"#utility.yul\":29122:29126   */\n      0x20\n        /* \"#utility.yul\":29117:29120   */\n      dup3\n        /* \"#utility.yul\":29113:29127   */\n      add\n        /* \"#utility.yul\":29105:29127   */\n      swap1\n      pop\n        /* \"#utility.yul\":29095:29133   */\n      swap2\n      swap1\n      pop\n      jump\t// out\n        /* \"#utility.yul\":29139:29330   */\n    tag_516:\n      0x00\n        /* \"#utility.yul\":29279:29285   */\n      dup3\n        /* \"#utility.yul\":29274:29277   */\n      dup3\n        /* \"#utility.yul\":29267:29286   */\n      mstore\n        /* \"#utility.yul\":29319:29323   */\n      0x20\n        /* \"#utility.yul\":29314:29317   */\n      dup3\n        /* \"#utility.yul\":29310:29324   */\n      add\n        /* \"#utility.yul\":29295:29324   */\n      swap1\n      pop\n        /* \"#utility.yul\":29257:29330   */\n      swap3\n      swap2\n      pop\n      pop\n      jump\t// out\n        /* \"#utility.yul\":29336:29530   */\n    tag_530:\n      0x00\n        /* \"#utility.yul\":29479:29485   */\n      dup3\n        /* \"#utility.yul\":29474:29477   */\n      dup3\n        /* \"#utility.yul\":29467:29486   */\n      mstore\n        /* \"#utility.yul\":29519:29523   */\n      0x20\n        /* \"#utility.yul\":29514:29517   */\n      dup3\n        /* \"#utility.yul\":29510:29524   */\n      add\n        /* \"#utility.yul\":29495:29524   */\n      swap1\n      pop\n        /* \"#utility.yul\":29457:29530   */\n      swap3\n      swap2\n      pop\n      pop\n      jump\t// out\n        /* \"#utility.yul\":29536:29720   */\n    tag_544:\n      0x00\n        /* \"#utility.yul\":29669:29675   */\n      dup3\n        /* \"#utility.yul\":29664:29667   */\n      dup3\n        /* \"#utility.yul\":29657:29676   */\n      mstore\n        /* \"#utility.yul\":29709:29713   */\n      0x20\n        /* \"#utility.yul\":29704:29707   */\n      dup3\n        /* \"#utility.yul\":29700:29714   */\n      add\n        /* \"#utility.yul\":29685:29714   */\n      swap1\n      pop\n        /* \"#utility.yul\":29647:29720   */\n      swap3\n      swap2\n      pop\n      pop\n      jump\t// out\n        /* \"#utility.yul\":29726:29885   */\n    tag_583:\n      0x00\n        /* \"#utility.yul\":29834:29840   */\n      dup3\n        /* \"#utility.yul\":29829:29832   */\n      dup3\n        /* \"#utility.yul\":29822:29841   */\n      mstore\n        /* \"#utility.yul\":29874:29878   */\n      0x20\n        /* \"#utility.yul\":29869:29872   */\n      dup3\n        /* \"#utility.yul\":29865:29879   */\n      add\n        /* \"#utility.yul\":29850:29879   */\n      swap1\n      pop\n        /* \"#utility.yul\":29812:29885   */\n      swap3\n      swap2\n      pop\n      pop\n      jump\t// out\n        /* \"#utility.yul\":29891:30060   */\n    tag_592:\n      0x00\n        /* \"#utility.yul\":30009:30015   */\n      dup3\n        /* \"#utility.yul\":30004:30007   */\n      dup3\n        /* \"#utility.yul\":29997:30016   */\n      mstore\n        /* \"#utility.yul\":30049:30053   */\n      0x20\n        /* \"#utility.yul\":30044:30047   */\n      dup3\n        /* \"#utility.yul\":30040:30054   */\n      add\n        /* \"#utility.yul\":30025:30054   */\n      swap1\n      pop\n        /* \"#utility.yul\":29987:30060   */\n      swap3\n      swap2\n      pop\n      pop\n      jump\t// out\n        /* \"#utility.yul\":30066:30243   */\n    tag_599:\n      0x00\n        /* \"#utility.yul\":30192:30198   */\n      dup3\n        /* \"#utility.yul\":30187:30190   */\n      dup3\n        /* \"#utility.yul\":30180:30199   */\n      mstore\n        /* \"#utility.yul\":30232:30236   */\n      0x20\n        /* \"#utility.yul\":30227:30230   */\n      dup3\n        /* \"#utility.yul\":30223:30237   */\n      add\n        /* \"#utility.yul\":30208:30237   */\n      swap1\n      pop\n        /* \"#utility.yul\":30170:30243   */\n      swap3\n      swap2\n      pop\n      pop\n      jump\t// out\n        /* \"#utility.yul\":30249:30397   */\n    tag_577:\n      0x00\n        /* \"#utility.yul\":30388:30391   */\n      dup2\n        /* \"#utility.yul\":30373:30391   */\n      swap1\n      pop\n        /* \"#utility.yul\":30363:30397   */\n      swap3\n      swap2\n      pop\n      pop\n      jump\t// out\n        /* \"#utility.yul\":30403:30708   */\n    tag_174:\n      0x00\n        /* \"#utility.yul\":30462:30482   */\n      tag_695\n        /* \"#utility.yul\":30480:30481   */\n      dup3\n        /* \"#utility.yul\":30462:30482   */\n      tag_624\n      jump\t// in\n    tag_695:\n        /* \"#utility.yul\":30457:30482   */\n      swap2\n      pop\n        /* \"#utility.yul\":30496:30516   */\n      tag_696\n        /* \"#utility.yul\":30514:30515   */\n      dup4\n        /* \"#utility.yul\":30496:30516   */\n      tag_624\n      jump\t// in\n    tag_696:\n        /* \"#utility.yul\":30491:30516   */\n      swap3\n      pop\n        /* \"#utility.yul\":30650:30651   */\n      dup3\n        /* \"#utility.yul\":30582:30648   */\n      0xffffffffffffffffffffffffffffffffffffffffffffffffffffffffffffffff\n        /* \"#utility.yul\":30578:30652   */\n      sub\n        /* \"#utility.yul\":30575:30576   */\n      dup3\n        /* \"#utility.yul\":30572:30653   */\n      gt\n        /* \"#utility.yul\":30569:30571   */\n      iszero\n      tag_697\n      jumpi\n        /* \"#utility.yul\":30656:30674   */\n      tag_698\n      tag_699\n      jump\t// in\n    tag_698:\n        /* \"#utility.yul\":30569:30571   */\n    tag_697:\n        /* \"#utility.yul\":30700:30701   */\n      dup3\n        /* \"#utility.yul\":30697:30698   */\n      dup3\n        /* \"#utility.yul\":30693:30702   */\n      add\n        /* \"#utility.yul\":30686:30702   */\n      swap1\n      pop\n        /* \"#utility.yul\":30447:30708   */\n      swap3\n      swap2\n      pop\n      pop\n      jump\t// out\n        /* \"#utility.yul\":30714:30810   */\n    tag_510:\n      0x00\n        /* \"#utility.yul\":30780:30804   */\n      tag_701\n        /* \"#utility.yul\":30798:30803   */\n      dup3\n        /* \"#utility.yul\":30780:30804   */\n      tag_702\n      jump\t// in\n    tag_701:\n        /* \"#utility.yul\":30769:30804   */\n      swap1\n      pop\n        /* \"#utility.yul\":30759:30810   */\n      swap2\n      swap1\n      pop\n      jump\t// out\n        /* \"#utility.yul\":30816:30906   */\n    tag_556:\n      0x00\n        /* \"#utility.yul\":30893:30898   */\n      dup2\n        /* \"#utility.yul\":30886:30899   */\n      iszero\n        /* \"#utility.yul\":30879:30900   */\n      iszero\n        /* \"#utility.yul\":30868:30900   */\n      swap1\n      pop\n        /* \"#utility.yul\":30858:30906   */\n      swap2\n      swap1\n      pop\n      jump\t// out\n        /* \"#utility.yul\":30912:31049   */\n    tag_704:\n      0x00\n        /* \"#utility.yul\":30991:30996   */\n      dup2\n        /* \"#utility.yul\":30980:30996   */\n      swap1\n      pop\n        /* \"#utility.yul\":30997:31043   */\n      tag_706\n        /* \"#utility.yul\":31037:31042   */\n      dup3\n        /* \"#utility.yul\":30997:31043   */\n      tag_707\n      jump\t// in\n    tag_706:\n        /* \"#utility.yul\":30970:31049   */\n      swap2\n      swap1\n      pop\n      jump\t// out\n        /* \"#utility.yul\":31055:31190   */\n    tag_708:\n      0x00\n        /* \"#utility.yul\":31133:31138   */\n      dup2\n        /* \"#utility.yul\":31122:31138   */\n      swap1\n      pop\n        /* \"#utility.yul\":31139:31184   */\n      tag_710\n        /* \"#utility.yul\":31178:31183   */\n      dup3\n        /* \"#utility.yul\":31139:31184   */\n      tag_711\n      jump\t// in\n    tag_710:\n        /* \"#utility.yul\":31112:31190   */\n      swap2\n      swap1\n      pop\n      jump\t// out\n        /* \"#utility.yul\":31196:31272   */\n    tag_568:\n      0x00\n        /* \"#utility.yul\":31261:31266   */\n      dup2\n        /* \"#utility.yul\":31250:31266   */\n      swap1\n      pop\n        /* \"#utility.yul\":31240:31272   */\n      swap2\n      swap1\n      pop\n      jump\t// out\n        /* \"#utility.yul\":31278:31404   */\n    tag_702:\n      0x00\n        /* \"#utility.yul\":31355:31397   */\n      0xffffffffffffffffffffffffffffffffffffffff\n        /* \"#utility.yul\":31348:31353   */\n      dup3\n        /* \"#utility.yul\":31344:31398   */\n      and\n        /* \"#utility.yul\":31333:31398   */\n      swap1\n      pop\n        /* \"#utility.yul\":31323:31404   */\n      swap2\n      swap1\n      pop\n      jump\t// out\n        /* \"#utility.yul\":31410:31487   */\n    tag_624:\n      0x00\n        /* \"#utility.yul\":31476:31481   */\n      dup2\n        /* \"#utility.yul\":31465:31481   */\n      swap1\n      pop\n        /* \"#utility.yul\":31455:31487   */\n      swap2\n      swap1\n      pop\n      jump\t// out\n        /* \"#utility.yul\":31493:31630   */\n    tag_560:\n      0x00\n        /* \"#utility.yul\":31587:31624   */\n      tag_716\n        /* \"#utility.yul\":31618:31623   */\n      dup3\n        /* \"#utility.yul\":31587:31624   */\n      tag_704\n      jump\t// in\n    tag_716:\n        /* \"#utility.yul\":31574:31624   */\n      swap1\n      pop\n        /* \"#utility.yul\":31564:31630   */\n      swap2\n      swap1\n      pop\n      jump\t// out\n        /* \"#utility.yul\":31636:31771   */\n    tag_564:\n      0x00\n        /* \"#utility.yul\":31729:31765   */\n      tag_718\n        /* \"#utility.yul\":31759:31764   */\n      dup3\n        /* \"#utility.yul\":31729:31765   */\n      tag_708\n      jump\t// in\n    tag_718:\n        /* \"#utility.yul\":31716:31765   */\n      swap1\n      pop\n        /* \"#utility.yul\":31706:31771   */\n      swap2\n      swap1\n      pop\n      jump\t// out\n        /* \"#utility.yul\":31777:31931   */\n    tag_367:\n        /* \"#utility.yul\":31861:31867   */\n      dup3\n        /* \"#utility.yul\":31856:31859   */\n      dup2\n        /* \"#utility.yul\":31851:31854   */\n      dup4\n        /* \"#utility.yul\":31838:31868   */\n      calldatacopy\n        /* \"#utility.yul\":31923:31924   */\n      0x00\n        /* \"#utility.yul\":31914:31920   */\n      dup4\n        /* \"#utility.yul\":31909:31912   */\n      dup4\n        /* \"#utility.yul\":31905:31921   */\n      add\n        /* \"#utility.yul\":31898:31925   */\n      mstore\n        /* \"#utility.yul\":31828:31931   */\n      pop\n      pop\n      pop\n      jump\t// out\n        /* \"#utility.yul\":31937:32244   */\n    tag_585:\n        /* \"#utility.yul\":32005:32006   */\n      0x00\n        /* \"#utility.yul\":32015:32128   */\n    tag_721:\n        /* \"#utility.yul\":32029:32035   */\n      dup4\n        /* \"#utility.yul\":32026:32027   */\n      dup2\n        /* \"#utility.yul\":32023:32036   */\n      lt\n        /* \"#utility.yul\":32015:32128   */\n      iszero\n      tag_723\n      jumpi\n        /* \"#utility.yul\":32114:32115   */\n      dup1\n        /* \"#utility.yul\":32109:32112   */\n      dup3\n        /* \"#utility.yul\":32105:32116   */\n      add\n        /* \"#utility.yul\":32099:32117   */\n      mload\n        /* \"#utility.yul\":32095:32096   */\n      dup2\n        /* \"#utility.yul\":32090:32093   */\n      dup5\n        /* \"#utility.yul\":32086:32097   */\n      add\n        /* \"#utility.yul\":32079:32118   */\n      mstore\n        /* \"#utility.yul\":32051:32053   */\n      0x20\n        /* \"#utility.yul\":32048:32049   */\n      dup2\n        /* \"#utility.yul\":32044:32054   */\n      add\n        /* \"#utility.yul\":32039:32054   */\n      swap1\n      pop\n        /* \"#utility.yul\":32015:32128   */\n      jump(tag_721)\n    tag_723:\n        /* \"#utility.yul\":32146:32152   */\n      dup4\n        /* \"#utility.yul\":32143:32144   */\n      dup2\n        /* \"#utility.yul\":32140:32153   */\n      gt\n        /* \"#utility.yul\":32137:32139   */\n      iszero\n      tag_724\n      jumpi\n        /* \"#utility.yul\":32226:32227   */\n      0x00\n        /* \"#utility.yul\":32217:32223   */\n      dup5\n        /* \"#utility.yul\":32212:32215   */\n      dup5\n        /* \"#utility.yul\":32208:32224   */\n      add\n        /* \"#utility.yul\":32201:32228   */\n      mstore\n        /* \"#utility.yul\":32137:32139   */\n    tag_724:\n        /* \"#utility.yul\":31986:32244   */\n      pop\n      pop\n      pop\n      pop\n      jump\t// out\n        /* \"#utility.yul\":32250:32570   */\n    tag_107:\n      0x00\n        /* \"#utility.yul\":32331:32332   */\n      0x02\n        /* \"#utility.yul\":32325:32329   */\n      dup3\n        /* \"#utility.yul\":32321:32333   */\n      div\n        /* \"#utility.yul\":32311:32333   */\n      swap1\n      pop\n        /* \"#utility.yul\":32378:32379   */\n      0x01\n        /* \"#utility.yul\":32372:32376   */\n      dup3\n        /* \"#utility.yul\":32368:32380   */\n      and\n        /* \"#utility.yul\":32399:32417   */\n      dup1\n        /* \"#utility.yul\":32389:32391   */\n      tag_726\n      jumpi\n        /* \"#utility.yul\":32455:32459   */\n      0x7f\n        /* \"#utility.yul\":32447:32453   */\n      dup3\n        /* \"#utility.yul\":32443:32460   */\n      and\n        /* \"#utility.yul\":32433:32460   */\n      swap2\n      pop\n        /* \"#utility.yul\":32389:32391   */\n    tag_726:\n        /* \"#utility.yul\":32517:32519   */\n      0x20\n        /* \"#utility.yul\":32509:32515   */\n      dup3\n        /* \"#utility.yul\":32506:32520   */\n      lt\n        /* \"#utility.yul\":32486:32504   */\n      dup2\n        /* \"#utility.yul\":32483:32521   */\n      eq\n        /* \"#utility.yul\":32480:32482   */\n      iszero\n      tag_727\n      jumpi\n        /* \"#utility.yul\":32536:32554   */\n      tag_728\n      tag_729\n      jump\t// in\n    tag_728:\n        /* \"#utility.yul\":32480:32482   */\n    tag_727:\n        /* \"#utility.yul\":32301:32570   */\n      pop\n      swap2\n      swap1\n      pop\n      jump\t// out\n        /* \"#utility.yul\":32576:32809   */\n    tag_239:\n      0x00\n        /* \"#utility.yul\":32638:32662   */\n      tag_731\n        /* \"#utility.yul\":32656:32661   */\n      dup3\n        /* \"#utility.yul\":32638:32662   */\n      tag_624\n      jump\t// in\n    tag_731:\n        /* \"#utility.yul\":32629:32662   */\n      swap2\n      pop\n        /* \"#utility.yul\":32684:32750   */\n      0xffffffffffffffffffffffffffffffffffffffffffffffffffffffffffffffff\n        /* \"#utility.yul\":32677:32682   */\n      dup3\n        /* \"#utility.yul\":32674:32751   */\n      eq\n        /* \"#utility.yul\":32671:32673   */\n      iszero\n      tag_732\n      jumpi\n        /* \"#utility.yul\":32754:32772   */\n      tag_733\n      tag_699\n      jump\t// in\n    tag_733:\n        /* \"#utility.yul\":32671:32673   */\n    tag_732:\n        /* \"#utility.yul\":32801:32802   */\n      0x01\n        /* \"#utility.yul\":32794:32799   */\n      dup3\n        /* \"#utility.yul\":32790:32803   */\n      add\n        /* \"#utility.yul\":32783:32803   */\n      swap1\n      pop\n        /* \"#utility.yul\":32619:32809   */\n      swap2\n      swap1\n      pop\n      jump\t// out\n        /* \"#utility.yul\":32815:32995   */\n    tag_699:\n        /* \"#utility.yul\":32863:32940   */\n      0x4e487b7100000000000000000000000000000000000000000000000000000000\n        /* \"#utility.yul\":32860:32861   */\n      0x00\n        /* \"#utility.yul\":32853:32941   */\n      mstore\n        /* \"#utility.yul\":32960:32964   */\n      0x11\n        /* \"#utility.yul\":32957:32958   */\n      0x04\n        /* \"#utility.yul\":32950:32965   */\n      mstore\n        /* \"#utility.yul\":32984:32988   */\n      0x24\n        /* \"#utility.yul\":32981:32982   */\n      0x00\n        /* \"#utility.yul\":32974:32989   */\n      revert\n        /* \"#utility.yul\":33001:33181   */\n    tag_735:\n        /* \"#utility.yul\":33049:33126   */\n      0x4e487b7100000000000000000000000000000000000000000000000000000000\n        /* \"#utility.yul\":33046:33047   */\n      0x00\n        /* \"#utility.yul\":33039:33127   */\n      mstore\n        /* \"#utility.yul\":33146:33150   */\n      0x21\n        /* \"#utility.yul\":33143:33144   */\n      0x04\n        /* \"#utility.yul\":33136:33151   */\n      mstore\n        /* \"#utility.yul\":33170:33174   */\n      0x24\n        /* \"#utility.yul\":33167:33168   */\n      0x00\n        /* \"#utility.yul\":33160:33175   */\n      revert\n        /* \"#utility.yul\":33187:33367   */\n    tag_729:\n        /* \"#utility.yul\":33235:33312   */\n      0x4e487b7100000000000000000000000000000000000000000000000000000000\n        /* \"#utility.yul\":33232:33233   */\n      0x00\n        /* \"#utility.yul\":33225:33313   */\n      mstore\n        /* \"#utility.yul\":33332:33336   */\n      0x22\n        /* \"#utility.yul\":33329:33330   */\n      0x04\n        /* \"#utility.yul\":33322:33337   */\n      mstore\n        /* \"#utility.yul\":33356:33360   */\n      0x24\n        /* \"#utility.yul\":33353:33354   */\n      0x00\n        /* \"#utility.yul\":33346:33361   */\n      revert\n        /* \"#utility.yul\":33373:33553   */\n    tag_666:\n        /* \"#utility.yul\":33421:33498   */\n      0x4e487b7100000000000000000000000000000000000000000000000000000000\n        /* \"#utility.yul\":33418:33419   */\n      0x00\n        /* \"#utility.yul\":33411:33499   */\n      mstore\n        /* \"#utility.yul\":33518:33522   */\n      0x41\n        /* \"#utility.yul\":33515:33516   */\n      0x04\n        /* \"#utility.yul\":33508:33523   */\n      mstore\n        /* \"#utility.yul\":33542:33546   */\n      0x24\n        /* \"#utility.yul\":33539:33540   */\n      0x00\n        /* \"#utility.yul\":33532:33547   */\n      revert\n        /* \"#utility.yul\":33559:33661   */\n    tag_587:\n      0x00\n        /* \"#utility.yul\":33651:33653   */\n      0x1f\n        /* \"#utility.yul\":33647:33654   */\n      not\n        /* \"#utility.yul\":33642:33644   */\n      0x1f\n        /* \"#utility.yul\":33635:33640   */\n      dup4\n        /* \"#utility.yul\":33631:33645   */\n      add\n        /* \"#utility.yul\":33627:33655   */\n      and\n        /* \"#utility.yul\":33617:33655   */\n      swap1\n      pop\n        /* \"#utility.yul\":33607:33661   */\n      swap2\n      swap1\n      pop\n      jump\t// out\n        /* \"#utility.yul\":33667:33785   */\n    tag_707:\n        /* \"#utility.yul\":33753:33754   */\n      0x04\n        /* \"#utility.yul\":33746:33751   */\n      dup2\n        /* \"#utility.yul\":33743:33755   */\n      lt\n        /* \"#utility.yul\":33733:33735   */\n      tag_741\n      jumpi\n        /* \"#utility.yul\":33759:33777   */\n      tag_742\n      tag_735\n      jump\t// in\n    tag_742:\n        /* \"#utility.yul\":33733:33735   */\n    tag_741:\n        /* \"#utility.yul\":33723:33785   */\n      pop\n      jump\t// out\n        /* \"#utility.yul\":33791:33908   */\n    tag_711:\n        /* \"#utility.yul\":33876:33877   */\n      0x07\n        /* \"#utility.yul\":33869:33874   */\n      dup2\n        /* \"#utility.yul\":33866:33878   */\n      lt\n        /* \"#utility.yul\":33856:33858   */\n      tag_744\n      jumpi\n        /* \"#utility.yul\":33882:33900   */\n      tag_745\n      tag_735\n      jump\t// in\n    tag_745:\n        /* \"#utility.yul\":33856:33858   */\n    tag_744:\n        /* \"#utility.yul\":33846:33908   */\n      pop\n      jump\t// out\n        /* \"#utility.yul\":33914:34036   */\n    tag_371:\n        /* \"#utility.yul\":33987:34011   */\n      tag_747\n        /* \"#utility.yul\":34005:34010   */\n      dup2\n        /* \"#utility.yul\":33987:34011   */\n      tag_510\n      jump\t// in\n    tag_747:\n        /* \"#utility.yul\":33980:33985   */\n      dup2\n        /* \"#utility.yul\":33977:34012   */\n      eq\n        /* \"#utility.yul\":33967:33969   */\n      tag_748\n      jumpi\n        /* \"#utility.yul\":34026:34027   */\n      0x00\n        /* \"#utility.yul\":34023:34024   */\n      dup1\n        /* \"#utility.yul\":34016:34028   */\n      revert\n        /* \"#utility.yul\":33967:33969   */\n    tag_748:\n        /* \"#utility.yul\":33957:34036   */\n      pop\n      jump\t// out\n        /* \"#utility.yul\":34042:34158   */\n    tag_383:\n        /* \"#utility.yul\":34112:34133   */\n      tag_750\n        /* \"#utility.yul\":34127:34132   */\n      dup2\n        /* \"#utility.yul\":34112:34133   */\n      tag_556\n      jump\t// in\n    tag_750:\n        /* \"#utility.yul\":34105:34110   */\n      dup2\n        /* \"#utility.yul\":34102:34134   */\n      eq\n        /* \"#utility.yul\":34092:34094   */\n      tag_751\n      jumpi\n        /* \"#utility.yul\":34148:34149   */\n      0x00\n        /* \"#utility.yul\":34145:34146   */\n      dup1\n        /* \"#utility.yul\":34138:34150   */\n      revert\n        /* \"#utility.yul\":34092:34094   */\n    tag_751:\n        /* \"#utility.yul\":34082:34158   */\n      pop\n      jump\t// out\n        /* \"#utility.yul\":34164:34278   */\n    tag_390:\n        /* \"#utility.yul\":34252:34253   */\n      0x03\n        /* \"#utility.yul\":34245:34250   */\n      dup2\n        /* \"#utility.yul\":34242:34254   */\n      lt\n        /* \"#utility.yul\":34232:34234   */\n      tag_753\n      jumpi\n        /* \"#utility.yul\":34268:34269   */\n      0x00\n        /* \"#utility.yul\":34265:34266   */\n      dup1\n        /* \"#utility.yul\":34258:34270   */\n      revert\n        /* \"#utility.yul\":34232:34234   */\n    tag_753:\n        /* \"#utility.yul\":34222:34278   */\n      pop\n      jump\t// out\n        /* \"#utility.yul\":34284:34396   */\n    tag_394:\n        /* \"#utility.yul\":34370:34371   */\n      0x04\n        /* \"#utility.yul\":34363:34368   */\n      dup2\n        /* \"#utility.yul\":34360:34372   */\n      lt\n        /* \"#utility.yul\":34350:34352   */\n      tag_755\n      jumpi\n        /* \"#utility.yul\":34386:34387   */\n      0x00\n        /* \"#utility.yul\":34383:34384   */\n      dup1\n        /* \"#utility.yul\":34376:34388   */\n      revert\n        /* \"#utility.yul\":34350:34352   */\n    tag_755:\n        /* \"#utility.yul\":34340:34396   */\n      pop\n      jump\t// out\n        /* \"#utility.yul\":34402:34513   */\n    tag_398:\n        /* \"#utility.yul\":34487:34488   */\n      0x07\n        /* \"#utility.yul\":34480:34485   */\n      dup2\n        /* \"#utility.yul\":34477:34489   */\n      lt\n        /* \"#utility.yul\":34467:34469   */\n      tag_757\n      jumpi\n        /* \"#utility.yul\":34503:34504   */\n      0x00\n        /* \"#utility.yul\":34500:34501   */\n      dup1\n        /* \"#utility.yul\":34493:34505   */\n      revert\n        /* \"#utility.yul\":34467:34469   */\n    tag_757:\n        /* \"#utility.yul\":34457:34513   */\n      pop\n      jump\t// out\n        /* \"#utility.yul\":34519:34639   */\n    tag_401:\n        /* \"#utility.yul\":34591:34614   */\n      tag_759\n        /* \"#utility.yul\":34608:34613   */\n      dup2\n        /* \"#utility.yul\":34591:34614   */\n      tag_568\n      jump\t// in\n    tag_759:\n        /* \"#utility.yul\":34584:34589   */\n      dup2\n        /* \"#utility.yul\":34581:34615   */\n      eq\n        /* \"#utility.yul\":34571:34573   */\n      tag_760\n      jumpi\n        /* \"#utility.yul\":34629:34630   */\n      0x00\n        /* \"#utility.yul\":34626:34627   */\n      dup1\n        /* \"#utility.yul\":34619:34631   */\n      revert\n        /* \"#utility.yul\":34571:34573   */\n    tag_760:\n        /* \"#utility.yul\":34561:34639   */\n      pop\n      jump\t// out\n        /* \"#utility.yul\":34645:34767   */\n    tag_429:\n        /* \"#utility.yul\":34718:34742   */\n      tag_762\n        /* \"#utility.yul\":34736:34741   */\n      dup2\n        /* \"#utility.yul\":34718:34742   */\n      tag_624\n      jump\t// in\n    tag_762:\n        /* \"#utility.yul\":34711:34716   */\n      dup2\n        /* \"#utility.yul\":34708:34743   */\n      eq\n        /* \"#utility.yul\":34698:34700   */\n      tag_763\n      jumpi\n        /* \"#utility.yul\":34757:34758   */\n      0x00\n        /* \"#utility.yul\":34754:34755   */\n      dup1\n        /* \"#utility.yul\":34747:34759   */\n      revert\n        /* \"#utility.yul\":34698:34700   */\n    tag_763:\n        /* \"#utility.yul\":34688:34767   */\n      pop\n      jump\t// out\n\n    auxdata: 0xa26469706673582212205c2f6b3fd31fec498aba38da3b18d14840e9c589951960ff07c0280f896544a064736f6c63430008000033\n}\n","bytecode":{"linkReferences":{},"object":"608060405234801561001057600080fd5b50613558806100206000396000f3fe608060405234801561001057600080fd5b506004361061010b5760003560e01c8063909e4ab6116100a2578063993c041011610071578063993c0410146102f7578063a7c1eb9014610327578063b8c56cae14610357578063c7b1ee0614610387578063fe9620c9146103a35761010b565b8063909e4ab6146102445780639579415714610262578063976217cd146102925780639849cee9146102c75761010b565b80634d60f651116100de5780634d60f651146101a857806361ea18df146101c657806371c56f9b146101f6578063897a3e27146102145761010b565b80630647043314610110578063307ed4be14610140578063386247251461015c57806338b7b6f01461018c575b600080fd5b61012a600480360381019061012591906127ef565b6103bf565b6040516101379190612e82565b60405180910390f35b61015a60048036038101906101559190612882565b6106cd565b005b610176600480360381019061017191906127ae565b610a97565b6040516101839190612f13565b60405180910390f35b6101a660048036038101906101a191906126e1565b610ac5565b005b6101b0610aef565b6040516101bd9190612e3e565b60405180910390f35b6101e060048036038101906101db9190612830565b610bc8565b6040516101ed9190612f6c565b60405180910390f35b6101fe610c74565b60405161020b9190613015565b60405180910390f35b61022e6004803603810190610229919061269c565b610d08565b60405161023b9190612f13565b60405180910390f35b61024c610d33565b6040516102599190612e60565b60405180910390f35b61027c60048036038101906102779190612830565b610d8b565b6040516102899190613015565b60405180910390f35b6102ac60048036038101906102a79190612830565b610daf565b6040516102be96959493929190612e9d565b60405180910390f35b6102e160048036038101906102dc9190612830565b610fb9565b6040516102ee9190612e82565b60405180910390f35b610311600480360381019061030c9190612830565b610fe5565b60405161031e9190612e82565b60405180910390f35b610341600480360381019061033c9190612635565b611990565b60405161034e9190612e82565b60405180910390f35b610371600480360381019061036c91906127ae565b611a26565b60405161037e9190612f6c565b60405180910390f35b6103a1600480360381019061039c9190612953565b611adc565b005b6103bd60048036038101906103b89190612739565b611e1f565b005b60008060028111156103fa577f4e487b7100000000000000000000000000000000000000000000000000000000600052602160045260246000fd5b82604001516002811115610437577f4e487b7100000000000000000000000000000000000000000000000000000000600052602160045260246000fd5b141561058757600060028360c001516040516104539190612e27565b9081526020016040518091039020805461046c90613326565b80601f016020809104026020016040519081016040528092919081815260200182805461049890613326565b80156104e55780601f106104ba576101008083540402835291602001916104e5565b820191906000526020600020905b8154815290600101906020018083116104c857829003601f168201915b50505050509050736ab00a2aa2559bcd90db818fd3fbfc58097acd7863a8c0bf8e828560e001518660a001516040518463ffffffff1660e01b815260040161052f93929190612f8e565b60206040518083038186803b15801561054757600080fd5b505af415801561055b573d6000803e3d6000fd5b505050506040513d601f19601f8201168201806040525081019061057f919061260c565b9150506106c8565b600160028111156105c1577f4e487b7100000000000000000000000000000000000000000000000000000000600052602160045260246000fd5b826040015160028111156105fe577f4e487b7100000000000000000000000000000000000000000000000000000000600052602160045260246000fd5b14156106c757600060018360c0015160405161061a9190612e27565b9081526020016040518091039020549050736ab00a2aa2559bcd90db818fd3fbfc58097acd7863e1df7ad6828561010001518660a001516040518463ffffffff1660e01b815260040161066f93929190612f2e565b60206040518083038186803b15801561068757600080fd5b505af415801561069b573d6000803e3d6000fd5b505050506040513d601f19601f820116820180604052508101906106bf919061260c565b9150506106c8565b5b919050565b6106d5611e55565b85816000018190525084816020019073ffffffffffffffffffffffffffffffffffffffff16908173ffffffffffffffffffffffffffffffffffffffff168152505060008160400190151590811515815250508381606001906003811115610765577f4e487b7100000000000000000000000000000000000000000000000000000000600052602160045260246000fd5b9081600381111561079f577f4e487b7100000000000000000000000000000000000000000000000000000000600052602160045260246000fd5b81525050828160800181905250818160a001819052508060008089815260200190815260200160002060008201518160000190805190602001906107e4929190611ee8565b5060208201518160010160006101000a81548173ffffffffffffffffffffffffffffffffffffffff021916908373ffffffffffffffffffffffffffffffffffffffff16021790555060408201518160010160146101000a81548160ff02191690831515021790555060608201518160010160156101000a81548160ff0219169083600381111561089d577f4e487b7100000000000000000000000000000000000000000000000000000000600052602160045260246000fd5b021790555060808201518160020190805190602001906108be929190611f6e565b5060a08201518160030190805190602001906108db929190611f6e565b5060c0820151816004016000820151816000015560208201518160010160006101000a81548160ff02191690836003811115610940577f4e487b7100000000000000000000000000000000000000000000000000000000600052602160045260246000fd5b021790555060408201518160010160016101000a81548160ff02191690836002811115610996577f4e487b7100000000000000000000000000000000000000000000000000000000600052602160045260246000fd5b021790555060608201518160010160026101000a81548160ff02191690831515021790555060808201518160010160036101000a81548160ff02191690831515021790555060a08201518160010160046101000a81548160ff02191690836006811115610a2c577f4e487b7100000000000000000000000000000000000000000000000000000000600052602160045260246000fd5b021790555060c0820151816002019080519060200190610a4d929190611ee8565b5060e0820151816003019080519060200190610a6a929190611ee8565b50610100820151816004019080519060200190610a88929190611fbb565b50505090505050505050505050565b6001818051602081018201805184825260208301602085012081835280955050505050506000915090505481565b8060018484604051610ad8929190612e0e565b908152602001604051809103902081905550505050565b60606004805480602002602001604051908101604052809291908181526020016000905b82821015610bbf578382906000526020600020018054610b3290613326565b80601f0160208091040260200160405190810160405280929190818152602001828054610b5e90613326565b8015610bab5780601f10610b8057610100808354040283529160200191610bab565b820191906000526020600020905b815481529060010190602001808311610b8e57829003601f168201915b505050505081526020019060010190610b13565b50505050905090565b60048181548110610bd857600080fd5b906000526020600020016000915090508054610bf390613326565b80601f0160208091040260200160405190810160405280929190818152602001828054610c1f90613326565b8015610c6c5780601f10610c4157610100808354040283529160200191610c6c565b820191906000526020600020905b815481529060010190602001808311610c4f57829003601f168201915b505050505081565b600080736ab00a2aa2559bcd90db818fd3fbfc58097acd7863c237647f6040518163ffffffff1660e01b815260040160206040518083038186803b158015610cbb57600080fd5b505af4158015610ccf573d6000803e3d6000fd5b505050506040513d601f19601f82011682018060405250810190610cf39190612859565b9050600581610d0291906131f2565b91505090565b600060018383604051610d1c929190612e0e565b908152602001604051809103902054905092915050565b60606003805480602002602001604051908101604052809291908181526020018280548015610d8157602002820191906000526020600020905b815481526020019060010190808311610d6d575b5050505050905090565b60038181548110610d9b57600080fd5b906000526020600020016000915090505481565b6000606060008060608060008088815260200190815260200160002060010160149054906101000a900460ff166000808981526020019081526020016000206000016000808a815260200190815260200160002060010160009054906101000a900473ffffffffffffffffffffffffffffffffffffffff166000808b815260200190815260200160002060010160159054906101000a900460ff166000808c81526020019081526020016000206002016000808d8152602001908152602001600020600301848054610e8090613326565b80601f0160208091040260200160405190810160405280929190818152602001828054610eac90613326565b8015610ef95780601f10610ece57610100808354040283529160200191610ef9565b820191906000526020600020905b815481529060010190602001808311610edc57829003601f168201915b5050505050945081805480602002602001604051908101604052809291908181526020018280548015610f4b57602002820191906000526020600020905b815481526020019060010190808311610f37575b5050505050915080805480602002602001604051908101604052809291908181526020018280548015610f9d57602002820191906000526020600020905b815481526020019060010190808311610f89575b5050505050905095509550955095509550955091939550919395565b600080600083815260200190815260200160002060010160149054906101000a900460ff169050919050565b60008060008084815260200190815260200160002060010160009054906101000a900473ffffffffffffffffffffffffffffffffffffffff169050600073ffffffffffffffffffffffffffffffffffffffff168173ffffffffffffffffffffffffffffffffffffffff16148061108657503373ffffffffffffffffffffffffffffffffffffffff168173ffffffffffffffffffffffffffffffffffffffff16145b600080858152602001908152602001600020600001906110dc576040517f08c379a00000000000000000000000000000000000000000000000000000000081526004016110d39190612fd3565b60405180910390fd5b5060008084815260200190815260200160002060040160010160039054906101000a900460ff16156114c857600061148460008086815260200190815260200160002060040160405180610120016040529081600082015481526020016001820160009054906101000a900460ff166003811115611183577f4e487b7100000000000000000000000000000000000000000000000000000000600052602160045260246000fd5b60038111156111bb577f4e487b7100000000000000000000000000000000000000000000000000000000600052602160045260246000fd5b81526020016001820160019054906101000a900460ff16600281111561120a577f4e487b7100000000000000000000000000000000000000000000000000000000600052602160045260246000fd5b6002811115611242577f4e487b7100000000000000000000000000000000000000000000000000000000600052602160045260246000fd5b81526020016001820160029054906101000a900460ff161515151581526020016001820160039054906101000a900460ff161515151581526020016001820160049054906101000a900460ff1660068111156112c7577f4e487b7100000000000000000000000000000000000000000000000000000000600052602160045260246000fd5b60068111156112ff577f4e487b7100000000000000000000000000000000000000000000000000000000600052602160045260246000fd5b815260200160028201805461131390613326565b80601f016020809104026020016040519081016040528092919081815260200182805461133f90613326565b801561138c5780601f106113615761010080835404028352916020019161138c565b820191906000526020600020905b81548152906001019060200180831161136f57829003601f168201915b505050505081526020016003820180546113a590613326565b80601f01602080910402602001604051908101604052809291908181526020018280546113d190613326565b801561141e5780601f106113f35761010080835404028352916020019161141e565b820191906000526020600020905b81548152906001019060200180831161140157829003601f168201915b505050505081526020016004820180548060200260200160405190810160405280929190818152602001828054801561147657602002820191906000526020600020905b815481526020019060010190808311611462575b5050505050815250506103bf565b9050806114c6576040517f08c379a00000000000000000000000000000000000000000000000000000000081526004016114bd90612ff5565b60405180910390fd5b505b600080600085815260200190815260200160002060020180548060200260200160405190810160405280929190818152602001828054801561152957602002820191906000526020600020905b815481526020019060010190808311611515575b505050505090506000815114156115435760019250611872565b600080600086815260200190815260200160002060010160159054906101000a900460ff169050600060038111156115a4577f4e487b7100000000000000000000000000000000000000000000000000000000600052602160045260246000fd5b8160038111156115dd577f4e487b7100000000000000000000000000000000000000000000000000000000600052602160045260246000fd5b1415611643576001151561163183600081518110611624577f4e487b7100000000000000000000000000000000000000000000000000000000600052603260045260246000fd5b6020026020010151610fb9565b1515141561163e57600193505b611870565b600080600090505b83518110156116cb57600115156116a1858381518110611694577f4e487b7100000000000000000000000000000000000000000000000000000000600052603260045260246000fd5b6020026020010151610fb9565b151514156116b85781806116b490613358565b9250505b80806116c390613358565b91505061164b565b5060016003811115611706577f4e487b7100000000000000000000000000000000000000000000000000000000600052602160045260246000fd5b82600381111561173f577f4e487b7100000000000000000000000000000000000000000000000000000000600052602160045260246000fd5b141561175857825181141561175357600194505b61186e565b60026003811115611792577f4e487b7100000000000000000000000000000000000000000000000000000000600052602160045260246000fd5b8260038111156117cb577f4e487b7100000000000000000000000000000000000000000000000000000000600052602160045260246000fd5b14156117da576001945061186d565b600380811115611813577f4e487b7100000000000000000000000000000000000000000000000000000000600052602160045260246000fd5b82600381111561184c577f4e487b7100000000000000000000000000000000000000000000000000000000600052602160045260246000fd5b141561186c5760018114806118615750600281145b1561186b57600194505b5b5b5b505b505b821561195857600160008086815260200190815260200160002060010160146101000a81548160ff021916908315150217905550600384908060018154018082558091505060019003906000526020600020016000909190919091505560046000808681526020019081526020016000206000019080600181540180825580915050600190039060005260206000200160009091909190915090805461191790613326565b611922929190612008565b50600115157facd30b4f9fd5868793e13ffb506f03374a23d9feba1249ac2cc7b0fe024ff4ba60405160405180910390a2611989565b600015157facd30b4f9fd5868793e13ffb506f03374a23d9feba1249ac2cc7b0fe024ff4ba60405160405180910390a25b5050919050565b6000736ab00a2aa2559bcd90db818fd3fbfc58097acd7863e1df7ad68585856040518463ffffffff1660e01b81526004016119cd93929190612f2e565b60206040518083038186803b1580156119e557600080fd5b505af41580156119f9573d6000803e3d6000fd5b505050506040513d601f19601f82011682018060405250810190611a1d919061260c565b90509392505050565b6002818051602081018201805184825260208301602085012081835280955050505050506000915090508054611a5b90613326565b80601f0160208091040260200160405190810160405280929190818152602001828054611a8790613326565b8015611ad45780601f10611aa957610100808354040283529160200191611ad4565b820191906000526020600020905b815481529060010190602001808311611ab757829003601f168201915b505050505081565b60006002811115611b16577f4e487b7100000000000000000000000000000000000000000000000000000000600052602160045260246000fd5b81604001516002811115611b53577f4e487b7100000000000000000000000000000000000000000000000000000000600052602160045260246000fd5b1415611ba4576040518060200160405280600081525060028260c00151604051611b7d9190612e27565b90815260200160405180910390209080519060200190611b9e929190611ee8565b50611c4b565b60016002811115611bde577f4e487b7100000000000000000000000000000000000000000000000000000000600052602160045260246000fd5b81604001516002811115611c1b577f4e487b7100000000000000000000000000000000000000000000000000000000600052602160045260246000fd5b1415611c4a57600560018260c00151604051611c379190612e27565b9081526020016040518091039020819055505b5b611c598787878787876106cd565b806000808981526020019081526020016000206004016000820151816000015560208201518160010160006101000a81548160ff02191690836003811115611cca577f4e487b7100000000000000000000000000000000000000000000000000000000600052602160045260246000fd5b021790555060408201518160010160016101000a81548160ff02191690836002811115611d20577f4e487b7100000000000000000000000000000000000000000000000000000000600052602160045260246000fd5b021790555060608201518160010160026101000a81548160ff02191690831515021790555060808201518160010160036101000a81548160ff02191690831515021790555060a08201518160010160046101000a81548160ff02191690836006811115611db6577f4e487b7100000000000000000000000000000000000000000000000000000000600052602160045260246000fd5b021790555060c0820151816002019080519060200190611dd7929190611ee8565b5060e0820151816003019080519060200190611df4929190611ee8565b50610100820151816004019080519060200190611e12929190611fbb565b5090505050505050505050565b818160028686604051611e33929190612e0e565b90815260200160405180910390209190611e4e929190612095565b5050505050565b6040518060e0016040528060608152602001600073ffffffffffffffffffffffffffffffffffffffff16815260200160001515815260200160006003811115611ec7577f4e487b7100000000000000000000000000000000000000000000000000000000600052602160045260246000fd5b81526020016060815260200160608152602001611ee261211b565b81525090565b828054611ef490613326565b90600052602060002090601f016020900481019282611f165760008555611f5d565b82601f10611f2f57805160ff1916838001178555611f5d565b82800160010185558215611f5d579182015b82811115611f5c578251825591602001919060010190611f41565b5b509050611f6a9190612213565b5090565b828054828255906000526020600020908101928215611faa579160200282015b82811115611fa9578251825591602001919060010190611f8e565b5b509050611fb79190612213565b5090565b828054828255906000526020600020908101928215611ff7579160200282015b82811115611ff6578251825591602001919060010190611fdb565b5b5090506120049190612230565b5090565b82805461201490613326565b90600052602060002090601f0160209004810192826120365760008555612084565b82601f106120475780548555612084565b8280016001018555821561208457600052602060002091601f016020900482015b82811115612083578254825591600101919060010190612068565b5b5090506120919190612213565b5090565b8280546120a190613326565b90600052602060002090601f0160209004810192826120c3576000855561210a565b82601f106120dc57803560ff191683800117855561210a565b8280016001018555821561210a579182015b828111156121095782358255916020019190600101906120ee565b5b5090506121179190612213565b5090565b6040518061012001604052806000815260200160006003811115612168577f4e487b7100000000000000000000000000000000000000000000000000000000600052602160045260246000fd5b8152602001600060028111156121a7577f4e487b7100000000000000000000000000000000000000000000000000000000600052602160045260246000fd5b8152602001600015158152602001600015158152602001600060068111156121f8577f4e487b7100000000000000000000000000000000000000000000000000000000600052602160045260246000fd5b81526020016060815260200160608152602001606081525090565b5b8082111561222c576000816000905550600101612214565b5090565b5b80821115612249576000816000905550600101612231565b5090565b600061226061225b84613061565b613030565b9050808382526020820190508285602086028201111561227f57600080fd5b60005b858110156122af57816122958882612435565b845260208401935060208301925050600181019050612282565b5050509392505050565b60006122cc6122c78461308d565b613030565b905080838252602082019050828560208602820111156122eb57600080fd5b60005b8581101561231b578161230188826125e2565b8452602084019350602083019250506001810190506122ee565b5050509392505050565b6000612338612333846130b9565b613030565b90508281526020810184848401111561235057600080fd5b61235b8482856132e4565b509392505050565b60008135905061237281613496565b92915050565b600082601f83011261238957600080fd5b813561239984826020860161224d565b91505092915050565b600082601f8301126123b357600080fd5b81356123c38482602086016122b9565b91505092915050565b6000813590506123db816134ad565b92915050565b6000815190506123f0816134ad565b92915050565b600081359050612405816134c4565b92915050565b60008135905061241a816134d4565b92915050565b60008135905061242f816134e4565b92915050565b600081359050612444816134f4565b92915050565b60008083601f84011261245c57600080fd5b8235905067ffffffffffffffff81111561247557600080fd5b60208301915083600182028301111561248d57600080fd5b9250929050565b600082601f8301126124a557600080fd5b81356124b5848260208601612325565b91505092915050565b600061012082840312156124d157600080fd5b6124dc610120613030565b905060006124ec848285016125e2565b60008301525060206125008482850161240b565b6020830152506040612514848285016123f6565b6040830152506060612528848285016123cc565b606083015250608061253c848285016123cc565b60808301525060a061255084828501612420565b60a08301525060c082013567ffffffffffffffff81111561257057600080fd5b61257c84828501612494565b60c08301525060e082013567ffffffffffffffff81111561259c57600080fd5b6125a884828501612494565b60e08301525061010082013567ffffffffffffffff8111156125c957600080fd5b6125d584828501612378565b6101008301525092915050565b6000813590506125f18161350b565b92915050565b6000815190506126068161350b565b92915050565b60006020828403121561261e57600080fd5b600061262c848285016123e1565b91505092915050565b60008060006060848603121561264a57600080fd5b600061265886828701612435565b935050602084013567ffffffffffffffff81111561267557600080fd5b61268186828701612378565b925050604061269286828701612420565b9150509250925092565b600080602083850312156126af57600080fd5b600083013567ffffffffffffffff8111156126c957600080fd5b6126d58582860161244a565b92509250509250929050565b6000806000604084860312156126f657600080fd5b600084013567ffffffffffffffff81111561271057600080fd5b61271c8682870161244a565b9350935050602061272f86828701612435565b9150509250925092565b6000806000806040858703121561274f57600080fd5b600085013567ffffffffffffffff81111561276957600080fd5b6127758782880161244a565b9450945050602085013567ffffffffffffffff81111561279457600080fd5b6127a08782880161244a565b925092505092959194509250565b6000602082840312156127c057600080fd5b600082013567ffffffffffffffff8111156127da57600080fd5b6127e684828501612494565b91505092915050565b60006020828403121561280157600080fd5b600082013567ffffffffffffffff81111561281b57600080fd5b612827848285016124be565b91505092915050565b60006020828403121561284257600080fd5b6000612850848285016125e2565b91505092915050565b60006020828403121561286b57600080fd5b6000612879848285016125f7565b91505092915050565b60008060008060008060c0878903121561289b57600080fd5b60006128a989828a016125e2565b965050602087013567ffffffffffffffff8111156128c657600080fd5b6128d289828a01612494565b95505060406128e389828a01612363565b94505060606128f489828a0161240b565b935050608087013567ffffffffffffffff81111561291157600080fd5b61291d89828a016123a2565b92505060a087013567ffffffffffffffff81111561293a57600080fd5b61294689828a016123a2565b9150509295509295509295565b600080600080600080600060e0888a03121561296e57600080fd5b600061297c8a828b016125e2565b975050602088013567ffffffffffffffff81111561299957600080fd5b6129a58a828b01612494565b96505060406129b68a828b01612363565b95505060606129c78a828b0161240b565b945050608088013567ffffffffffffffff8111156129e457600080fd5b6129f08a828b016123a2565b93505060a088013567ffffffffffffffff811115612a0d57600080fd5b612a198a828b016123a2565b92505060c088013567ffffffffffffffff811115612a3657600080fd5b612a428a828b016124be565b91505092959891949750929550565b6000612a5d8383612c20565b60208301905092915050565b6000612a758383612c54565b905092915050565b6000612a898383612df0565b60208301905092915050565b612a9e81613248565b82525050565b6000612aaf8261312e565b612ab98185613181565b9350612ac4836130e9565b8060005b83811015612af5578151612adc8882612a51565b9750612ae78361315a565b925050600181019050612ac8565b5085935050505092915050565b6000612b0d82613139565b612b178185613192565b935083602082028501612b29856130f9565b8060005b85811015612b655784840389528151612b468582612a69565b9450612b5183613167565b925060208a01995050600181019050612b2d565b50829750879550505050505092915050565b6000612b8282613144565b612b8c81856131a3565b9350612b9783613109565b8060005b83811015612bc8578151612baf8882612a7d565b9750612bba83613174565b925050600181019050612b9b565b5085935050505092915050565b612bde8161325a565b82525050565b612bed816132c0565b82525050565b612bfc816132d2565b82525050565b612c0b8161328c565b82525050565b612c1a8161328c565b82525050565b612c298161328c565b82525050565b6000612c3b83856131e7565b9350612c488385846132e4565b82840190509392505050565b6000612c5f8261314f565b612c6981856131b4565b9350612c798185602086016132f3565b612c828161345d565b840191505092915050565b6000612c988261314f565b612ca281856131c5565b9350612cb28185602086016132f3565b612cbb8161345d565b840191505092915050565b6000612cd18261314f565b612cdb81856131d6565b9350612ceb8185602086016132f3565b612cf48161345d565b840191505092915050565b6000612d0a8261314f565b612d1481856131e7565b9350612d248185602086016132f3565b80840191505092915050565b60008154612d3d81613326565b612d4781866131c5565b94506001821660008114612d625760018114612d7457612da7565b60ff1983168652602086019350612da7565b612d7d85613119565b60005b83811015612d9f57815481890152600182019150602081019050612d80565b808801955050505b50505092915050565b6000612dbd6020836131c5565b91507f50726f63657373205661726961626c65206973206e6f7420636f72726563742e6000830152602082019050919050565b612df9816132b6565b82525050565b612e08816132b6565b82525050565b6000612e1b828486612c2f565b91508190509392505050565b6000612e338284612cff565b915081905092915050565b60006020820190508181036000830152612e588184612b02565b905092915050565b60006020820190508181036000830152612e7a8184612b77565b905092915050565b6000602082019050612e976000830184612bd5565b92915050565b600060c082019050612eb26000830189612bd5565b8181036020830152612ec48188612c8d565b9050612ed36040830187612a95565b612ee06060830186612be4565b8181036080830152612ef28185612b77565b905081810360a0830152612f068184612b77565b9050979650505050505050565b6000602082019050612f286000830184612c02565b92915050565b6000606082019050612f436000830186612c11565b8181036020830152612f558185612aa4565b9050612f646040830184612bf3565b949350505050565b60006020820190508181036000830152612f868184612c8d565b905092915050565b60006060820190508181036000830152612fa88186612cc6565b90508181036020830152612fbc8185612cc6565b9050612fcb6040830184612bf3565b949350505050565b60006020820190508181036000830152612fed8184612d30565b905092915050565b6000602082019050818103600083015261300e81612db0565b9050919050565b600060208201905061302a6000830184612dff565b92915050565b6000604051905081810181811067ffffffffffffffff821117156130575761305661342e565b5b8060405250919050565b600067ffffffffffffffff82111561307c5761307b61342e565b5b602082029050602081019050919050565b600067ffffffffffffffff8211156130a8576130a761342e565b5b602082029050602081019050919050565b600067ffffffffffffffff8211156130d4576130d361342e565b5b601f19601f8301169050602081019050919050565b6000819050602082019050919050565b6000819050602082019050919050565b6000819050602082019050919050565b60008190508160005260206000209050919050565b600081519050919050565b600081519050919050565b600081519050919050565b600081519050919050565b6000602082019050919050565b6000602082019050919050565b6000602082019050919050565b600082825260208201905092915050565b600082825260208201905092915050565b600082825260208201905092915050565b600082825260208201905092915050565b600082825260208201905092915050565b600082825260208201905092915050565b600081905092915050565b60006131fd826132b6565b9150613208836132b6565b9250827fffffffffffffffffffffffffffffffffffffffffffffffffffffffffffffffff0382111561323d5761323c6133a1565b5b828201905092915050565b600061325382613296565b9050919050565b60008115159050919050565b60008190506132748261346e565b919050565b600081905061328782613482565b919050565b6000819050919050565b600073ffffffffffffffffffffffffffffffffffffffff82169050919050565b6000819050919050565b60006132cb82613266565b9050919050565b60006132dd82613279565b9050919050565b82818337600083830152505050565b60005b838110156133115780820151818401526020810190506132f6565b83811115613320576000848401525b50505050565b6000600282049050600182168061333e57607f821691505b60208210811415613352576133516133ff565b5b50919050565b6000613363826132b6565b91507fffffffffffffffffffffffffffffffffffffffffffffffffffffffffffffffff821415613396576133956133a1565b5b600182019050919050565b7f4e487b7100000000000000000000000000000000000000000000000000000000600052601160045260246000fd5b7f4e487b7100000000000000000000000000000000000000000000000000000000600052602160045260246000fd5b7f4e487b7100000000000000000000000000000000000000000000000000000000600052602260045260246000fd5b7f4e487b7100000000000000000000000000000000000000000000000000000000600052604160045260246000fd5b6000601f19601f8301169050919050565b6004811061347f5761347e6133d0565b5b50565b60078110613493576134926133d0565b5b50565b61349f81613248565b81146134aa57600080fd5b50565b6134b68161325a565b81146134c157600080fd5b50565b600381106134d157600080fd5b50565b600481106134e157600080fd5b50565b600781106134f157600080fd5b50565b6134fd8161328c565b811461350857600080fd5b50565b613514816132b6565b811461351f57600080fd5b5056fea26469706673582212205c2f6b3fd31fec498aba38da3b18d14840e9c589951960ff07c0280f896544a064736f6c63430008000033","opcodes":"PUSH1 0x80 PUSH1 0x40 MSTORE CALLVALUE DUP1 ISZERO PUSH2 0x10 JUMPI PUSH1 0x0 DUP1 REVERT JUMPDEST POP PUSH2 0x3558 DUP1 PUSH2 0x20 PUSH1 0x0 CODECOPY PUSH1 0x0 RETURN INVALID PUSH1 0x80 PUSH1 0x40 MSTORE CALLVALUE DUP1 ISZERO PUSH2 0x10 JUMPI PUSH1 0x0 DUP1 REVERT JUMPDEST POP PUSH1 0x4 CALLDATASIZE LT PUSH2 0x10B JUMPI PUSH1 0x0 CALLDATALOAD PUSH1 0xE0 SHR DUP1 PUSH4 0x909E4AB6 GT PUSH2 0xA2 JUMPI DUP1 PUSH4 0x993C0410 GT PUSH2 0x71 JUMPI DUP1 PUSH4 0x993C0410 EQ PUSH2 0x2F7 JUMPI DUP1 PUSH4 0xA7C1EB90 EQ PUSH2 0x327 JUMPI DUP1 PUSH4 0xB8C56CAE EQ PUSH2 0x357 JUMPI DUP1 PUSH4 0xC7B1EE06 EQ PUSH2 0x387 JUMPI DUP1 PUSH4 0xFE9620C9 EQ PUSH2 0x3A3 JUMPI PUSH2 0x10B JUMP JUMPDEST DUP1 PUSH4 0x909E4AB6 EQ PUSH2 0x244 JUMPI DUP1 PUSH4 0x95794157 EQ PUSH2 0x262 JUMPI DUP1 PUSH4 0x976217CD EQ PUSH2 0x292 JUMPI DUP1 PUSH4 0x9849CEE9 EQ PUSH2 0x2C7 JUMPI PUSH2 0x10B JUMP JUMPDEST DUP1 PUSH4 0x4D60F651 GT PUSH2 0xDE JUMPI DUP1 PUSH4 0x4D60F651 EQ PUSH2 0x1A8 JUMPI DUP1 PUSH4 0x61EA18DF EQ PUSH2 0x1C6 JUMPI DUP1 PUSH4 0x71C56F9B EQ PUSH2 0x1F6 JUMPI DUP1 PUSH4 0x897A3E27 EQ PUSH2 0x214 JUMPI PUSH2 0x10B JUMP JUMPDEST DUP1 PUSH4 0x6470433 EQ PUSH2 0x110 JUMPI DUP1 PUSH4 0x307ED4BE EQ PUSH2 0x140 JUMPI DUP1 PUSH4 0x38624725 EQ PUSH2 0x15C JUMPI DUP1 PUSH4 0x38B7B6F0 EQ PUSH2 0x18C JUMPI JUMPDEST PUSH1 0x0 DUP1 REVERT JUMPDEST PUSH2 0x12A PUSH1 0x4 DUP1 CALLDATASIZE SUB DUP2 ADD SWAP1 PUSH2 0x125 SWAP2 SWAP1 PUSH2 0x27EF JUMP JUMPDEST PUSH2 0x3BF JUMP JUMPDEST PUSH1 0x40 MLOAD PUSH2 0x137 SWAP2 SWAP1 PUSH2 0x2E82 JUMP JUMPDEST PUSH1 0x40 MLOAD DUP1 SWAP2 SUB SWAP1 RETURN JUMPDEST PUSH2 0x15A PUSH1 0x4 DUP1 CALLDATASIZE SUB DUP2 ADD SWAP1 PUSH2 0x155 SWAP2 SWAP1 PUSH2 0x2882 JUMP JUMPDEST PUSH2 0x6CD JUMP JUMPDEST STOP JUMPDEST PUSH2 0x176 PUSH1 0x4 DUP1 CALLDATASIZE SUB DUP2 ADD SWAP1 PUSH2 0x171 SWAP2 SWAP1 PUSH2 0x27AE JUMP JUMPDEST PUSH2 0xA97 JUMP JUMPDEST PUSH1 0x40 MLOAD PUSH2 0x183 SWAP2 SWAP1 PUSH2 0x2F13 JUMP JUMPDEST PUSH1 0x40 MLOAD DUP1 SWAP2 SUB SWAP1 RETURN JUMPDEST PUSH2 0x1A6 PUSH1 0x4 DUP1 CALLDATASIZE SUB DUP2 ADD SWAP1 PUSH2 0x1A1 SWAP2 SWAP1 PUSH2 0x26E1 JUMP JUMPDEST PUSH2 0xAC5 JUMP JUMPDEST STOP JUMPDEST PUSH2 0x1B0 PUSH2 0xAEF JUMP JUMPDEST PUSH1 0x40 MLOAD PUSH2 0x1BD SWAP2 SWAP1 PUSH2 0x2E3E JUMP JUMPDEST PUSH1 0x40 MLOAD DUP1 SWAP2 SUB SWAP1 RETURN JUMPDEST PUSH2 0x1E0 PUSH1 0x4 DUP1 CALLDATASIZE SUB DUP2 ADD SWAP1 PUSH2 0x1DB SWAP2 SWAP1 PUSH2 0x2830 JUMP JUMPDEST PUSH2 0xBC8 JUMP JUMPDEST PUSH1 0x40 MLOAD PUSH2 0x1ED SWAP2 SWAP1 PUSH2 0x2F6C JUMP JUMPDEST PUSH1 0x40 MLOAD DUP1 SWAP2 SUB SWAP1 RETURN JUMPDEST PUSH2 0x1FE PUSH2 0xC74 JUMP JUMPDEST PUSH1 0x40 MLOAD PUSH2 0x20B SWAP2 SWAP1 PUSH2 0x3015 JUMP JUMPDEST PUSH1 0x40 MLOAD DUP1 SWAP2 SUB SWAP1 RETURN JUMPDEST PUSH2 0x22E PUSH1 0x4 DUP1 CALLDATASIZE SUB DUP2 ADD SWAP1 PUSH2 0x229 SWAP2 SWAP1 PUSH2 0x269C JUMP JUMPDEST PUSH2 0xD08 JUMP JUMPDEST PUSH1 0x40 MLOAD PUSH2 0x23B SWAP2 SWAP1 PUSH2 0x2F13 JUMP JUMPDEST PUSH1 0x40 MLOAD DUP1 SWAP2 SUB SWAP1 RETURN JUMPDEST PUSH2 0x24C PUSH2 0xD33 JUMP JUMPDEST PUSH1 0x40 MLOAD PUSH2 0x259 SWAP2 SWAP1 PUSH2 0x2E60 JUMP JUMPDEST PUSH1 0x40 MLOAD DUP1 SWAP2 SUB SWAP1 RETURN JUMPDEST PUSH2 0x27C PUSH1 0x4 DUP1 CALLDATASIZE SUB DUP2 ADD SWAP1 PUSH2 0x277 SWAP2 SWAP1 PUSH2 0x2830 JUMP JUMPDEST PUSH2 0xD8B JUMP JUMPDEST PUSH1 0x40 MLOAD PUSH2 0x289 SWAP2 SWAP1 PUSH2 0x3015 JUMP JUMPDEST PUSH1 0x40 MLOAD DUP1 SWAP2 SUB SWAP1 RETURN JUMPDEST PUSH2 0x2AC PUSH1 0x4 DUP1 CALLDATASIZE SUB DUP2 ADD SWAP1 PUSH2 0x2A7 SWAP2 SWAP1 PUSH2 0x2830 JUMP JUMPDEST PUSH2 0xDAF JUMP JUMPDEST PUSH1 0x40 MLOAD PUSH2 0x2BE SWAP7 SWAP6 SWAP5 SWAP4 SWAP3 SWAP2 SWAP1 PUSH2 0x2E9D JUMP JUMPDEST PUSH1 0x40 MLOAD DUP1 SWAP2 SUB SWAP1 RETURN JUMPDEST PUSH2 0x2E1 PUSH1 0x4 DUP1 CALLDATASIZE SUB DUP2 ADD SWAP1 PUSH2 0x2DC SWAP2 SWAP1 PUSH2 0x2830 JUMP JUMPDEST PUSH2 0xFB9 JUMP JUMPDEST PUSH1 0x40 MLOAD PUSH2 0x2EE SWAP2 SWAP1 PUSH2 0x2E82 JUMP JUMPDEST PUSH1 0x40 MLOAD DUP1 SWAP2 SUB SWAP1 RETURN JUMPDEST PUSH2 0x311 PUSH1 0x4 DUP1 CALLDATASIZE SUB DUP2 ADD SWAP1 PUSH2 0x30C SWAP2 SWAP1 PUSH2 0x2830 JUMP JUMPDEST PUSH2 0xFE5 JUMP JUMPDEST PUSH1 0x40 MLOAD PUSH2 0x31E SWAP2 SWAP1 PUSH2 0x2E82 JUMP JUMPDEST PUSH1 0x40 MLOAD DUP1 SWAP2 SUB SWAP1 RETURN JUMPDEST PUSH2 0x341 PUSH1 0x4 DUP1 CALLDATASIZE SUB DUP2 ADD SWAP1 PUSH2 0x33C SWAP2 SWAP1 PUSH2 0x2635 JUMP JUMPDEST PUSH2 0x1990 JUMP JUMPDEST PUSH1 0x40 MLOAD PUSH2 0x34E SWAP2 SWAP1 PUSH2 0x2E82 JUMP JUMPDEST PUSH1 0x40 MLOAD DUP1 SWAP2 SUB SWAP1 RETURN JUMPDEST PUSH2 0x371 PUSH1 0x4 DUP1 CALLDATASIZE SUB DUP2 ADD SWAP1 PUSH2 0x36C SWAP2 SWAP1 PUSH2 0x27AE JUMP JUMPDEST PUSH2 0x1A26 JUMP JUMPDEST PUSH1 0x40 MLOAD PUSH2 0x37E SWAP2 SWAP1 PUSH2 0x2F6C JUMP JUMPDEST PUSH1 0x40 MLOAD DUP1 SWAP2 SUB SWAP1 RETURN JUMPDEST PUSH2 0x3A1 PUSH1 0x4 DUP1 CALLDATASIZE SUB DUP2 ADD SWAP1 PUSH2 0x39C SWAP2 SWAP1 PUSH2 0x2953 JUMP JUMPDEST PUSH2 0x1ADC JUMP JUMPDEST STOP JUMPDEST PUSH2 0x3BD PUSH1 0x4 DUP1 CALLDATASIZE SUB DUP2 ADD SWAP1 PUSH2 0x3B8 SWAP2 SWAP1 PUSH2 0x2739 JUMP JUMPDEST PUSH2 0x1E1F JUMP JUMPDEST STOP JUMPDEST PUSH1 0x0 DUP1 PUSH1 0x2 DUP2 GT ISZERO PUSH2 0x3FA JUMPI PUSH32 0x4E487B7100000000000000000000000000000000000000000000000000000000 PUSH1 0x0 MSTORE PUSH1 0x21 PUSH1 0x4 MSTORE PUSH1 0x24 PUSH1 0x0 REVERT JUMPDEST DUP3 PUSH1 0x40 ADD MLOAD PUSH1 0x2 DUP2 GT ISZERO PUSH2 0x437 JUMPI PUSH32 0x4E487B7100000000000000000000000000000000000000000000000000000000 PUSH1 0x0 MSTORE PUSH1 0x21 PUSH1 0x4 MSTORE PUSH1 0x24 PUSH1 0x0 REVERT JUMPDEST EQ ISZERO PUSH2 0x587 JUMPI PUSH1 0x0 PUSH1 0x2 DUP4 PUSH1 0xC0 ADD MLOAD PUSH1 0x40 MLOAD PUSH2 0x453 SWAP2 SWAP1 PUSH2 0x2E27 JUMP JUMPDEST SWAP1 DUP2 MSTORE PUSH1 0x20 ADD PUSH1 0x40 MLOAD DUP1 SWAP2 SUB SWAP1 KECCAK256 DUP1 SLOAD PUSH2 0x46C SWAP1 PUSH2 0x3326 JUMP JUMPDEST DUP1 PUSH1 0x1F ADD PUSH1 0x20 DUP1 SWAP2 DIV MUL PUSH1 0x20 ADD PUSH1 0x40 MLOAD SWAP1 DUP2 ADD PUSH1 0x40 MSTORE DUP1 SWAP3 SWAP2 SWAP1 DUP2 DUP2 MSTORE PUSH1 0x20 ADD DUP3 DUP1 SLOAD PUSH2 0x498 SWAP1 PUSH2 0x3326 JUMP JUMPDEST DUP1 ISZERO PUSH2 0x4E5 JUMPI DUP1 PUSH1 0x1F LT PUSH2 0x4BA JUMPI PUSH2 0x100 DUP1 DUP4 SLOAD DIV MUL DUP4 MSTORE SWAP2 PUSH1 0x20 ADD SWAP2 PUSH2 0x4E5 JUMP JUMPDEST DUP3 ADD SWAP2 SWAP1 PUSH1 0x0 MSTORE PUSH1 0x20 PUSH1 0x0 KECCAK256 SWAP1 JUMPDEST DUP2 SLOAD DUP2 MSTORE SWAP1 PUSH1 0x1 ADD SWAP1 PUSH1 0x20 ADD DUP1 DUP4 GT PUSH2 0x4C8 JUMPI DUP3 SWAP1 SUB PUSH1 0x1F AND DUP3 ADD SWAP2 JUMPDEST POP POP POP POP POP SWAP1 POP PUSH20 0x6AB00A2AA2559BCD90DB818FD3FBFC58097ACD78 PUSH4 0xA8C0BF8E DUP3 DUP6 PUSH1 0xE0 ADD MLOAD DUP7 PUSH1 0xA0 ADD MLOAD PUSH1 0x40 MLOAD DUP5 PUSH4 0xFFFFFFFF AND PUSH1 0xE0 SHL DUP2 MSTORE PUSH1 0x4 ADD PUSH2 0x52F SWAP4 SWAP3 SWAP2 SWAP1 PUSH2 0x2F8E JUMP JUMPDEST PUSH1 0x20 PUSH1 0x40 MLOAD DUP1 DUP4 SUB DUP2 DUP7 DUP1 EXTCODESIZE ISZERO DUP1 ISZERO PUSH2 0x547 JUMPI PUSH1 0x0 DUP1 REVERT JUMPDEST POP GAS DELEGATECALL ISZERO DUP1 ISZERO PUSH2 0x55B JUMPI RETURNDATASIZE PUSH1 0x0 DUP1 RETURNDATACOPY RETURNDATASIZE PUSH1 0x0 REVERT JUMPDEST POP POP POP POP PUSH1 0x40 MLOAD RETURNDATASIZE PUSH1 0x1F NOT PUSH1 0x1F DUP3 ADD AND DUP3 ADD DUP1 PUSH1 0x40 MSTORE POP DUP2 ADD SWAP1 PUSH2 0x57F SWAP2 SWAP1 PUSH2 0x260C JUMP JUMPDEST SWAP2 POP POP PUSH2 0x6C8 JUMP JUMPDEST PUSH1 0x1 PUSH1 0x2 DUP2 GT ISZERO PUSH2 0x5C1 JUMPI PUSH32 0x4E487B7100000000000000000000000000000000000000000000000000000000 PUSH1 0x0 MSTORE PUSH1 0x21 PUSH1 0x4 MSTORE PUSH1 0x24 PUSH1 0x0 REVERT JUMPDEST DUP3 PUSH1 0x40 ADD MLOAD PUSH1 0x2 DUP2 GT ISZERO PUSH2 0x5FE JUMPI PUSH32 0x4E487B7100000000000000000000000000000000000000000000000000000000 PUSH1 0x0 MSTORE PUSH1 0x21 PUSH1 0x4 MSTORE PUSH1 0x24 PUSH1 0x0 REVERT JUMPDEST EQ ISZERO PUSH2 0x6C7 JUMPI PUSH1 0x0 PUSH1 0x1 DUP4 PUSH1 0xC0 ADD MLOAD PUSH1 0x40 MLOAD PUSH2 0x61A SWAP2 SWAP1 PUSH2 0x2E27 JUMP JUMPDEST SWAP1 DUP2 MSTORE PUSH1 0x20 ADD PUSH1 0x40 MLOAD DUP1 SWAP2 SUB SWAP1 KECCAK256 SLOAD SWAP1 POP PUSH20 0x6AB00A2AA2559BCD90DB818FD3FBFC58097ACD78 PUSH4 0xE1DF7AD6 DUP3 DUP6 PUSH2 0x100 ADD MLOAD DUP7 PUSH1 0xA0 ADD MLOAD PUSH1 0x40 MLOAD DUP5 PUSH4 0xFFFFFFFF AND PUSH1 0xE0 SHL DUP2 MSTORE PUSH1 0x4 ADD PUSH2 0x66F SWAP4 SWAP3 SWAP2 SWAP1 PUSH2 0x2F2E JUMP JUMPDEST PUSH1 0x20 PUSH1 0x40 MLOAD DUP1 DUP4 SUB DUP2 DUP7 DUP1 EXTCODESIZE ISZERO DUP1 ISZERO PUSH2 0x687 JUMPI PUSH1 0x0 DUP1 REVERT JUMPDEST POP GAS DELEGATECALL ISZERO DUP1 ISZERO PUSH2 0x69B JUMPI RETURNDATASIZE PUSH1 0x0 DUP1 RETURNDATACOPY RETURNDATASIZE PUSH1 0x0 REVERT JUMPDEST POP POP POP POP PUSH1 0x40 MLOAD RETURNDATASIZE PUSH1 0x1F NOT PUSH1 0x1F DUP3 ADD AND DUP3 ADD DUP1 PUSH1 0x40 MSTORE POP DUP2 ADD SWAP1 PUSH2 0x6BF SWAP2 SWAP1 PUSH2 0x260C JUMP JUMPDEST SWAP2 POP POP PUSH2 0x6C8 JUMP JUMPDEST JUMPDEST SWAP2 SWAP1 POP JUMP JUMPDEST PUSH2 0x6D5 PUSH2 0x1E55 JUMP JUMPDEST DUP6 DUP2 PUSH1 0x0 ADD DUP2 SWAP1 MSTORE POP DUP5 DUP2 PUSH1 0x20 ADD SWAP1 PUSH20 0xFFFFFFFFFFFFFFFFFFFFFFFFFFFFFFFFFFFFFFFF AND SWAP1 DUP2 PUSH20 0xFFFFFFFFFFFFFFFFFFFFFFFFFFFFFFFFFFFFFFFF AND DUP2 MSTORE POP POP PUSH1 0x0 DUP2 PUSH1 0x40 ADD SWAP1 ISZERO ISZERO SWAP1 DUP2 ISZERO ISZERO DUP2 MSTORE POP POP DUP4 DUP2 PUSH1 0x60 ADD SWAP1 PUSH1 0x3 DUP2 GT ISZERO PUSH2 0x765 JUMPI PUSH32 0x4E487B7100000000000000000000000000000000000000000000000000000000 PUSH1 0x0 MSTORE PUSH1 0x21 PUSH1 0x4 MSTORE PUSH1 0x24 PUSH1 0x0 REVERT JUMPDEST SWAP1 DUP2 PUSH1 0x3 DUP2 GT ISZERO PUSH2 0x79F JUMPI PUSH32 0x4E487B7100000000000000000000000000000000000000000000000000000000 PUSH1 0x0 MSTORE PUSH1 0x21 PUSH1 0x4 MSTORE PUSH1 0x24 PUSH1 0x0 REVERT JUMPDEST DUP2 MSTORE POP POP DUP3 DUP2 PUSH1 0x80 ADD DUP2 SWAP1 MSTORE POP DUP2 DUP2 PUSH1 0xA0 ADD DUP2 SWAP1 MSTORE POP DUP1 PUSH1 0x0 DUP1 DUP10 DUP2 MSTORE PUSH1 0x20 ADD SWAP1 DUP2 MSTORE PUSH1 0x20 ADD PUSH1 0x0 KECCAK256 PUSH1 0x0 DUP3 ADD MLOAD DUP2 PUSH1 0x0 ADD SWAP1 DUP1 MLOAD SWAP1 PUSH1 0x20 ADD SWAP1 PUSH2 0x7E4 SWAP3 SWAP2 SWAP1 PUSH2 0x1EE8 JUMP JUMPDEST POP PUSH1 0x20 DUP3 ADD MLOAD DUP2 PUSH1 0x1 ADD PUSH1 0x0 PUSH2 0x100 EXP DUP2 SLOAD DUP2 PUSH20 0xFFFFFFFFFFFFFFFFFFFFFFFFFFFFFFFFFFFFFFFF MUL NOT AND SWAP1 DUP4 PUSH20 0xFFFFFFFFFFFFFFFFFFFFFFFFFFFFFFFFFFFFFFFF AND MUL OR SWAP1 SSTORE POP PUSH1 0x40 DUP3 ADD MLOAD DUP2 PUSH1 0x1 ADD PUSH1 0x14 PUSH2 0x100 EXP DUP2 SLOAD DUP2 PUSH1 0xFF MUL NOT AND SWAP1 DUP4 ISZERO ISZERO MUL OR SWAP1 SSTORE POP PUSH1 0x60 DUP3 ADD MLOAD DUP2 PUSH1 0x1 ADD PUSH1 0x15 PUSH2 0x100 EXP DUP2 SLOAD DUP2 PUSH1 0xFF MUL NOT AND SWAP1 DUP4 PUSH1 0x3 DUP2 GT ISZERO PUSH2 0x89D JUMPI PUSH32 0x4E487B7100000000000000000000000000000000000000000000000000000000 PUSH1 0x0 MSTORE PUSH1 0x21 PUSH1 0x4 MSTORE PUSH1 0x24 PUSH1 0x0 REVERT JUMPDEST MUL OR SWAP1 SSTORE POP PUSH1 0x80 DUP3 ADD MLOAD DUP2 PUSH1 0x2 ADD SWAP1 DUP1 MLOAD SWAP1 PUSH1 0x20 ADD SWAP1 PUSH2 0x8BE SWAP3 SWAP2 SWAP1 PUSH2 0x1F6E JUMP JUMPDEST POP PUSH1 0xA0 DUP3 ADD MLOAD DUP2 PUSH1 0x3 ADD SWAP1 DUP1 MLOAD SWAP1 PUSH1 0x20 ADD SWAP1 PUSH2 0x8DB SWAP3 SWAP2 SWAP1 PUSH2 0x1F6E JUMP JUMPDEST POP PUSH1 0xC0 DUP3 ADD MLOAD DUP2 PUSH1 0x4 ADD PUSH1 0x0 DUP3 ADD MLOAD DUP2 PUSH1 0x0 ADD SSTORE PUSH1 0x20 DUP3 ADD MLOAD DUP2 PUSH1 0x1 ADD PUSH1 0x0 PUSH2 0x100 EXP DUP2 SLOAD DUP2 PUSH1 0xFF MUL NOT AND SWAP1 DUP4 PUSH1 0x3 DUP2 GT ISZERO PUSH2 0x940 JUMPI PUSH32 0x4E487B7100000000000000000000000000000000000000000000000000000000 PUSH1 0x0 MSTORE PUSH1 0x21 PUSH1 0x4 MSTORE PUSH1 0x24 PUSH1 0x0 REVERT JUMPDEST MUL OR SWAP1 SSTORE POP PUSH1 0x40 DUP3 ADD MLOAD DUP2 PUSH1 0x1 ADD PUSH1 0x1 PUSH2 0x100 EXP DUP2 SLOAD DUP2 PUSH1 0xFF MUL NOT AND SWAP1 DUP4 PUSH1 0x2 DUP2 GT ISZERO PUSH2 0x996 JUMPI PUSH32 0x4E487B7100000000000000000000000000000000000000000000000000000000 PUSH1 0x0 MSTORE PUSH1 0x21 PUSH1 0x4 MSTORE PUSH1 0x24 PUSH1 0x0 REVERT JUMPDEST MUL OR SWAP1 SSTORE POP PUSH1 0x60 DUP3 ADD MLOAD DUP2 PUSH1 0x1 ADD PUSH1 0x2 PUSH2 0x100 EXP DUP2 SLOAD DUP2 PUSH1 0xFF MUL NOT AND SWAP1 DUP4 ISZERO ISZERO MUL OR SWAP1 SSTORE POP PUSH1 0x80 DUP3 ADD MLOAD DUP2 PUSH1 0x1 ADD PUSH1 0x3 PUSH2 0x100 EXP DUP2 SLOAD DUP2 PUSH1 0xFF MUL NOT AND SWAP1 DUP4 ISZERO ISZERO MUL OR SWAP1 SSTORE POP PUSH1 0xA0 DUP3 ADD MLOAD DUP2 PUSH1 0x1 ADD PUSH1 0x4 PUSH2 0x100 EXP DUP2 SLOAD DUP2 PUSH1 0xFF MUL NOT AND SWAP1 DUP4 PUSH1 0x6 DUP2 GT ISZERO PUSH2 0xA2C JUMPI PUSH32 0x4E487B7100000000000000000000000000000000000000000000000000000000 PUSH1 0x0 MSTORE PUSH1 0x21 PUSH1 0x4 MSTORE PUSH1 0x24 PUSH1 0x0 REVERT JUMPDEST MUL OR SWAP1 SSTORE POP PUSH1 0xC0 DUP3 ADD MLOAD DUP2 PUSH1 0x2 ADD SWAP1 DUP1 MLOAD SWAP1 PUSH1 0x20 ADD SWAP1 PUSH2 0xA4D SWAP3 SWAP2 SWAP1 PUSH2 0x1EE8 JUMP JUMPDEST POP PUSH1 0xE0 DUP3 ADD MLOAD DUP2 PUSH1 0x3 ADD SWAP1 DUP1 MLOAD SWAP1 PUSH1 0x20 ADD SWAP1 PUSH2 0xA6A SWAP3 SWAP2 SWAP1 PUSH2 0x1EE8 JUMP JUMPDEST POP PUSH2 0x100 DUP3 ADD MLOAD DUP2 PUSH1 0x4 ADD SWAP1 DUP1 MLOAD SWAP1 PUSH1 0x20 ADD SWAP1 PUSH2 0xA88 SWAP3 SWAP2 SWAP1 PUSH2 0x1FBB JUMP JUMPDEST POP POP POP SWAP1 POP POP POP POP POP POP POP POP POP JUMP JUMPDEST PUSH1 0x1 DUP2 DUP1 MLOAD PUSH1 0x20 DUP2 ADD DUP3 ADD DUP1 MLOAD DUP5 DUP3 MSTORE PUSH1 0x20 DUP4 ADD PUSH1 0x20 DUP6 ADD KECCAK256 DUP2 DUP4 MSTORE DUP1 SWAP6 POP POP POP POP POP POP PUSH1 0x0 SWAP2 POP SWAP1 POP SLOAD DUP2 JUMP JUMPDEST DUP1 PUSH1 0x1 DUP5 DUP5 PUSH1 0x40 MLOAD PUSH2 0xAD8 SWAP3 SWAP2 SWAP1 PUSH2 0x2E0E JUMP JUMPDEST SWAP1 DUP2 MSTORE PUSH1 0x20 ADD PUSH1 0x40 MLOAD DUP1 SWAP2 SUB SWAP1 KECCAK256 DUP2 SWAP1 SSTORE POP POP POP POP JUMP JUMPDEST PUSH1 0x60 PUSH1 0x4 DUP1 SLOAD DUP1 PUSH1 0x20 MUL PUSH1 0x20 ADD PUSH1 0x40 MLOAD SWAP1 DUP2 ADD PUSH1 0x40 MSTORE DUP1 SWAP3 SWAP2 SWAP1 DUP2 DUP2 MSTORE PUSH1 0x20 ADD PUSH1 0x0 SWAP1 JUMPDEST DUP3 DUP3 LT ISZERO PUSH2 0xBBF JUMPI DUP4 DUP3 SWAP1 PUSH1 0x0 MSTORE PUSH1 0x20 PUSH1 0x0 KECCAK256 ADD DUP1 SLOAD PUSH2 0xB32 SWAP1 PUSH2 0x3326 JUMP JUMPDEST DUP1 PUSH1 0x1F ADD PUSH1 0x20 DUP1 SWAP2 DIV MUL PUSH1 0x20 ADD PUSH1 0x40 MLOAD SWAP1 DUP2 ADD PUSH1 0x40 MSTORE DUP1 SWAP3 SWAP2 SWAP1 DUP2 DUP2 MSTORE PUSH1 0x20 ADD DUP3 DUP1 SLOAD PUSH2 0xB5E SWAP1 PUSH2 0x3326 JUMP JUMPDEST DUP1 ISZERO PUSH2 0xBAB JUMPI DUP1 PUSH1 0x1F LT PUSH2 0xB80 JUMPI PUSH2 0x100 DUP1 DUP4 SLOAD DIV MUL DUP4 MSTORE SWAP2 PUSH1 0x20 ADD SWAP2 PUSH2 0xBAB JUMP JUMPDEST DUP3 ADD SWAP2 SWAP1 PUSH1 0x0 MSTORE PUSH1 0x20 PUSH1 0x0 KECCAK256 SWAP1 JUMPDEST DUP2 SLOAD DUP2 MSTORE SWAP1 PUSH1 0x1 ADD SWAP1 PUSH1 0x20 ADD DUP1 DUP4 GT PUSH2 0xB8E JUMPI DUP3 SWAP1 SUB PUSH1 0x1F AND DUP3 ADD SWAP2 JUMPDEST POP POP POP POP POP DUP2 MSTORE PUSH1 0x20 ADD SWAP1 PUSH1 0x1 ADD SWAP1 PUSH2 0xB13 JUMP JUMPDEST POP POP POP POP SWAP1 POP SWAP1 JUMP JUMPDEST PUSH1 0x4 DUP2 DUP2 SLOAD DUP2 LT PUSH2 0xBD8 JUMPI PUSH1 0x0 DUP1 REVERT JUMPDEST SWAP1 PUSH1 0x0 MSTORE PUSH1 0x20 PUSH1 0x0 KECCAK256 ADD PUSH1 0x0 SWAP2 POP SWAP1 POP DUP1 SLOAD PUSH2 0xBF3 SWAP1 PUSH2 0x3326 JUMP JUMPDEST DUP1 PUSH1 0x1F ADD PUSH1 0x20 DUP1 SWAP2 DIV MUL PUSH1 0x20 ADD PUSH1 0x40 MLOAD SWAP1 DUP2 ADD PUSH1 0x40 MSTORE DUP1 SWAP3 SWAP2 SWAP1 DUP2 DUP2 MSTORE PUSH1 0x20 ADD DUP3 DUP1 SLOAD PUSH2 0xC1F SWAP1 PUSH2 0x3326 JUMP JUMPDEST DUP1 ISZERO PUSH2 0xC6C JUMPI DUP1 PUSH1 0x1F LT PUSH2 0xC41 JUMPI PUSH2 0x100 DUP1 DUP4 SLOAD DIV MUL DUP4 MSTORE SWAP2 PUSH1 0x20 ADD SWAP2 PUSH2 0xC6C JUMP JUMPDEST DUP3 ADD SWAP2 SWAP1 PUSH1 0x0 MSTORE PUSH1 0x20 PUSH1 0x0 KECCAK256 SWAP1 JUMPDEST DUP2 SLOAD DUP2 MSTORE SWAP1 PUSH1 0x1 ADD SWAP1 PUSH1 0x20 ADD DUP1 DUP4 GT PUSH2 0xC4F JUMPI DUP3 SWAP1 SUB PUSH1 0x1F AND DUP3 ADD SWAP2 JUMPDEST POP POP POP POP POP DUP2 JUMP JUMPDEST PUSH1 0x0 DUP1 PUSH20 0x6AB00A2AA2559BCD90DB818FD3FBFC58097ACD78 PUSH4 0xC237647F PUSH1 0x40 MLOAD DUP2 PUSH4 0xFFFFFFFF AND PUSH1 0xE0 SHL DUP2 MSTORE PUSH1 0x4 ADD PUSH1 0x20 PUSH1 0x40 MLOAD DUP1 DUP4 SUB DUP2 DUP7 DUP1 EXTCODESIZE ISZERO DUP1 ISZERO PUSH2 0xCBB JUMPI PUSH1 0x0 DUP1 REVERT JUMPDEST POP GAS DELEGATECALL ISZERO DUP1 ISZERO PUSH2 0xCCF JUMPI RETURNDATASIZE PUSH1 0x0 DUP1 RETURNDATACOPY RETURNDATASIZE PUSH1 0x0 REVERT JUMPDEST POP POP POP POP PUSH1 0x40 MLOAD RETURNDATASIZE PUSH1 0x1F NOT PUSH1 0x1F DUP3 ADD AND DUP3 ADD DUP1 PUSH1 0x40 MSTORE POP DUP2 ADD SWAP1 PUSH2 0xCF3 SWAP2 SWAP1 PUSH2 0x2859 JUMP JUMPDEST SWAP1 POP PUSH1 0x5 DUP2 PUSH2 0xD02 SWAP2 SWAP1 PUSH2 0x31F2 JUMP JUMPDEST SWAP2 POP POP SWAP1 JUMP JUMPDEST PUSH1 0x0 PUSH1 0x1 DUP4 DUP4 PUSH1 0x40 MLOAD PUSH2 0xD1C SWAP3 SWAP2 SWAP1 PUSH2 0x2E0E JUMP JUMPDEST SWAP1 DUP2 MSTORE PUSH1 0x20 ADD PUSH1 0x40 MLOAD DUP1 SWAP2 SUB SWAP1 KECCAK256 SLOAD SWAP1 POP SWAP3 SWAP2 POP POP JUMP JUMPDEST PUSH1 0x60 PUSH1 0x3 DUP1 SLOAD DUP1 PUSH1 0x20 MUL PUSH1 0x20 ADD PUSH1 0x40 MLOAD SWAP1 DUP2 ADD PUSH1 0x40 MSTORE DUP1 SWAP3 SWAP2 SWAP1 DUP2 DUP2 MSTORE PUSH1 0x20 ADD DUP3 DUP1 SLOAD DUP1 ISZERO PUSH2 0xD81 JUMPI PUSH1 0x20 MUL DUP3 ADD SWAP2 SWAP1 PUSH1 0x0 MSTORE PUSH1 0x20 PUSH1 0x0 KECCAK256 SWAP1 JUMPDEST DUP2 SLOAD DUP2 MSTORE PUSH1 0x20 ADD SWAP1 PUSH1 0x1 ADD SWAP1 DUP1 DUP4 GT PUSH2 0xD6D JUMPI JUMPDEST POP POP POP POP POP SWAP1 POP SWAP1 JUMP JUMPDEST PUSH1 0x3 DUP2 DUP2 SLOAD DUP2 LT PUSH2 0xD9B JUMPI PUSH1 0x0 DUP1 REVERT JUMPDEST SWAP1 PUSH1 0x0 MSTORE PUSH1 0x20 PUSH1 0x0 KECCAK256 ADD PUSH1 0x0 SWAP2 POP SWAP1 POP SLOAD DUP2 JUMP JUMPDEST PUSH1 0x0 PUSH1 0x60 PUSH1 0x0 DUP1 PUSH1 0x60 DUP1 PUSH1 0x0 DUP1 DUP9 DUP2 MSTORE PUSH1 0x20 ADD SWAP1 DUP2 MSTORE PUSH1 0x20 ADD PUSH1 0x0 KECCAK256 PUSH1 0x1 ADD PUSH1 0x14 SWAP1 SLOAD SWAP1 PUSH2 0x100 EXP SWAP1 DIV PUSH1 0xFF AND PUSH1 0x0 DUP1 DUP10 DUP2 MSTORE PUSH1 0x20 ADD SWAP1 DUP2 MSTORE PUSH1 0x20 ADD PUSH1 0x0 KECCAK256 PUSH1 0x0 ADD PUSH1 0x0 DUP1 DUP11 DUP2 MSTORE PUSH1 0x20 ADD SWAP1 DUP2 MSTORE PUSH1 0x20 ADD PUSH1 0x0 KECCAK256 PUSH1 0x1 ADD PUSH1 0x0 SWAP1 SLOAD SWAP1 PUSH2 0x100 EXP SWAP1 DIV PUSH20 0xFFFFFFFFFFFFFFFFFFFFFFFFFFFFFFFFFFFFFFFF AND PUSH1 0x0 DUP1 DUP12 DUP2 MSTORE PUSH1 0x20 ADD SWAP1 DUP2 MSTORE PUSH1 0x20 ADD PUSH1 0x0 KECCAK256 PUSH1 0x1 ADD PUSH1 0x15 SWAP1 SLOAD SWAP1 PUSH2 0x100 EXP SWAP1 DIV PUSH1 0xFF AND PUSH1 0x0 DUP1 DUP13 DUP2 MSTORE PUSH1 0x20 ADD SWAP1 DUP2 MSTORE PUSH1 0x20 ADD PUSH1 0x0 KECCAK256 PUSH1 0x2 ADD PUSH1 0x0 DUP1 DUP14 DUP2 MSTORE PUSH1 0x20 ADD SWAP1 DUP2 MSTORE PUSH1 0x20 ADD PUSH1 0x0 KECCAK256 PUSH1 0x3 ADD DUP5 DUP1 SLOAD PUSH2 0xE80 SWAP1 PUSH2 0x3326 JUMP JUMPDEST DUP1 PUSH1 0x1F ADD PUSH1 0x20 DUP1 SWAP2 DIV MUL PUSH1 0x20 ADD PUSH1 0x40 MLOAD SWAP1 DUP2 ADD PUSH1 0x40 MSTORE DUP1 SWAP3 SWAP2 SWAP1 DUP2 DUP2 MSTORE PUSH1 0x20 ADD DUP3 DUP1 SLOAD PUSH2 0xEAC SWAP1 PUSH2 0x3326 JUMP JUMPDEST DUP1 ISZERO PUSH2 0xEF9 JUMPI DUP1 PUSH1 0x1F LT PUSH2 0xECE JUMPI PUSH2 0x100 DUP1 DUP4 SLOAD DIV MUL DUP4 MSTORE SWAP2 PUSH1 0x20 ADD SWAP2 PUSH2 0xEF9 JUMP JUMPDEST DUP3 ADD SWAP2 SWAP1 PUSH1 0x0 MSTORE PUSH1 0x20 PUSH1 0x0 KECCAK256 SWAP1 JUMPDEST DUP2 SLOAD DUP2 MSTORE SWAP1 PUSH1 0x1 ADD SWAP1 PUSH1 0x20 ADD DUP1 DUP4 GT PUSH2 0xEDC JUMPI DUP3 SWAP1 SUB PUSH1 0x1F AND DUP3 ADD SWAP2 JUMPDEST POP POP POP POP POP SWAP5 POP DUP2 DUP1 SLOAD DUP1 PUSH1 0x20 MUL PUSH1 0x20 ADD PUSH1 0x40 MLOAD SWAP1 DUP2 ADD PUSH1 0x40 MSTORE DUP1 SWAP3 SWAP2 SWAP1 DUP2 DUP2 MSTORE PUSH1 0x20 ADD DUP3 DUP1 SLOAD DUP1 ISZERO PUSH2 0xF4B JUMPI PUSH1 0x20 MUL DUP3 ADD SWAP2 SWAP1 PUSH1 0x0 MSTORE PUSH1 0x20 PUSH1 0x0 KECCAK256 SWAP1 JUMPDEST DUP2 SLOAD DUP2 MSTORE PUSH1 0x20 ADD SWAP1 PUSH1 0x1 ADD SWAP1 DUP1 DUP4 GT PUSH2 0xF37 JUMPI JUMPDEST POP POP POP POP POP SWAP2 POP DUP1 DUP1 SLOAD DUP1 PUSH1 0x20 MUL PUSH1 0x20 ADD PUSH1 0x40 MLOAD SWAP1 DUP2 ADD PUSH1 0x40 MSTORE DUP1 SWAP3 SWAP2 SWAP1 DUP2 DUP2 MSTORE PUSH1 0x20 ADD DUP3 DUP1 SLOAD DUP1 ISZERO PUSH2 0xF9D JUMPI PUSH1 0x20 MUL DUP3 ADD SWAP2 SWAP1 PUSH1 0x0 MSTORE PUSH1 0x20 PUSH1 0x0 KECCAK256 SWAP1 JUMPDEST DUP2 SLOAD DUP2 MSTORE PUSH1 0x20 ADD SWAP1 PUSH1 0x1 ADD SWAP1 DUP1 DUP4 GT PUSH2 0xF89 JUMPI JUMPDEST POP POP POP POP POP SWAP1 POP SWAP6 POP SWAP6 POP SWAP6 POP SWAP6 POP SWAP6 POP SWAP6 POP SWAP2 SWAP4 SWAP6 POP SWAP2 SWAP4 SWAP6 JUMP JUMPDEST PUSH1 0x0 DUP1 PUSH1 0x0 DUP4 DUP2 MSTORE PUSH1 0x20 ADD SWAP1 DUP2 MSTORE PUSH1 0x20 ADD PUSH1 0x0 KECCAK256 PUSH1 0x1 ADD PUSH1 0x14 SWAP1 SLOAD SWAP1 PUSH2 0x100 EXP SWAP1 DIV PUSH1 0xFF AND SWAP1 POP SWAP2 SWAP1 POP JUMP JUMPDEST PUSH1 0x0 DUP1 PUSH1 0x0 DUP1 DUP5 DUP2 MSTORE PUSH1 0x20 ADD SWAP1 DUP2 MSTORE PUSH1 0x20 ADD PUSH1 0x0 KECCAK256 PUSH1 0x1 ADD PUSH1 0x0 SWAP1 SLOAD SWAP1 PUSH2 0x100 EXP SWAP1 DIV PUSH20 0xFFFFFFFFFFFFFFFFFFFFFFFFFFFFFFFFFFFFFFFF AND SWAP1 POP PUSH1 0x0 PUSH20 0xFFFFFFFFFFFFFFFFFFFFFFFFFFFFFFFFFFFFFFFF AND DUP2 PUSH20 0xFFFFFFFFFFFFFFFFFFFFFFFFFFFFFFFFFFFFFFFF AND EQ DUP1 PUSH2 0x1086 JUMPI POP CALLER PUSH20 0xFFFFFFFFFFFFFFFFFFFFFFFFFFFFFFFFFFFFFFFF AND DUP2 PUSH20 0xFFFFFFFFFFFFFFFFFFFFFFFFFFFFFFFFFFFFFFFF AND EQ JUMPDEST PUSH1 0x0 DUP1 DUP6 DUP2 MSTORE PUSH1 0x20 ADD SWAP1 DUP2 MSTORE PUSH1 0x20 ADD PUSH1 0x0 KECCAK256 PUSH1 0x0 ADD SWAP1 PUSH2 0x10DC JUMPI PUSH1 0x40 MLOAD PUSH32 0x8C379A000000000000000000000000000000000000000000000000000000000 DUP2 MSTORE PUSH1 0x4 ADD PUSH2 0x10D3 SWAP2 SWAP1 PUSH2 0x2FD3 JUMP JUMPDEST PUSH1 0x40 MLOAD DUP1 SWAP2 SUB SWAP1 REVERT JUMPDEST POP PUSH1 0x0 DUP1 DUP5 DUP2 MSTORE PUSH1 0x20 ADD SWAP1 DUP2 MSTORE PUSH1 0x20 ADD PUSH1 0x0 KECCAK256 PUSH1 0x4 ADD PUSH1 0x1 ADD PUSH1 0x3 SWAP1 SLOAD SWAP1 PUSH2 0x100 EXP SWAP1 DIV PUSH1 0xFF AND ISZERO PUSH2 0x14C8 JUMPI PUSH1 0x0 PUSH2 0x1484 PUSH1 0x0 DUP1 DUP7 DUP2 MSTORE PUSH1 0x20 ADD SWAP1 DUP2 MSTORE PUSH1 0x20 ADD PUSH1 0x0 KECCAK256 PUSH1 0x4 ADD PUSH1 0x40 MLOAD DUP1 PUSH2 0x120 ADD PUSH1 0x40 MSTORE SWAP1 DUP2 PUSH1 0x0 DUP3 ADD SLOAD DUP2 MSTORE PUSH1 0x20 ADD PUSH1 0x1 DUP3 ADD PUSH1 0x0 SWAP1 SLOAD SWAP1 PUSH2 0x100 EXP SWAP1 DIV PUSH1 0xFF AND PUSH1 0x3 DUP2 GT ISZERO PUSH2 0x1183 JUMPI PUSH32 0x4E487B7100000000000000000000000000000000000000000000000000000000 PUSH1 0x0 MSTORE PUSH1 0x21 PUSH1 0x4 MSTORE PUSH1 0x24 PUSH1 0x0 REVERT JUMPDEST PUSH1 0x3 DUP2 GT ISZERO PUSH2 0x11BB JUMPI PUSH32 0x4E487B7100000000000000000000000000000000000000000000000000000000 PUSH1 0x0 MSTORE PUSH1 0x21 PUSH1 0x4 MSTORE PUSH1 0x24 PUSH1 0x0 REVERT JUMPDEST DUP2 MSTORE PUSH1 0x20 ADD PUSH1 0x1 DUP3 ADD PUSH1 0x1 SWAP1 SLOAD SWAP1 PUSH2 0x100 EXP SWAP1 DIV PUSH1 0xFF AND PUSH1 0x2 DUP2 GT ISZERO PUSH2 0x120A JUMPI PUSH32 0x4E487B7100000000000000000000000000000000000000000000000000000000 PUSH1 0x0 MSTORE PUSH1 0x21 PUSH1 0x4 MSTORE PUSH1 0x24 PUSH1 0x0 REVERT JUMPDEST PUSH1 0x2 DUP2 GT ISZERO PUSH2 0x1242 JUMPI PUSH32 0x4E487B7100000000000000000000000000000000000000000000000000000000 PUSH1 0x0 MSTORE PUSH1 0x21 PUSH1 0x4 MSTORE PUSH1 0x24 PUSH1 0x0 REVERT JUMPDEST DUP2 MSTORE PUSH1 0x20 ADD PUSH1 0x1 DUP3 ADD PUSH1 0x2 SWAP1 SLOAD SWAP1 PUSH2 0x100 EXP SWAP1 DIV PUSH1 0xFF AND ISZERO ISZERO ISZERO ISZERO DUP2 MSTORE PUSH1 0x20 ADD PUSH1 0x1 DUP3 ADD PUSH1 0x3 SWAP1 SLOAD SWAP1 PUSH2 0x100 EXP SWAP1 DIV PUSH1 0xFF AND ISZERO ISZERO ISZERO ISZERO DUP2 MSTORE PUSH1 0x20 ADD PUSH1 0x1 DUP3 ADD PUSH1 0x4 SWAP1 SLOAD SWAP1 PUSH2 0x100 EXP SWAP1 DIV PUSH1 0xFF AND PUSH1 0x6 DUP2 GT ISZERO PUSH2 0x12C7 JUMPI PUSH32 0x4E487B7100000000000000000000000000000000000000000000000000000000 PUSH1 0x0 MSTORE PUSH1 0x21 PUSH1 0x4 MSTORE PUSH1 0x24 PUSH1 0x0 REVERT JUMPDEST PUSH1 0x6 DUP2 GT ISZERO PUSH2 0x12FF JUMPI PUSH32 0x4E487B7100000000000000000000000000000000000000000000000000000000 PUSH1 0x0 MSTORE PUSH1 0x21 PUSH1 0x4 MSTORE PUSH1 0x24 PUSH1 0x0 REVERT JUMPDEST DUP2 MSTORE PUSH1 0x20 ADD PUSH1 0x2 DUP3 ADD DUP1 SLOAD PUSH2 0x1313 SWAP1 PUSH2 0x3326 JUMP JUMPDEST DUP1 PUSH1 0x1F ADD PUSH1 0x20 DUP1 SWAP2 DIV MUL PUSH1 0x20 ADD PUSH1 0x40 MLOAD SWAP1 DUP2 ADD PUSH1 0x40 MSTORE DUP1 SWAP3 SWAP2 SWAP1 DUP2 DUP2 MSTORE PUSH1 0x20 ADD DUP3 DUP1 SLOAD PUSH2 0x133F SWAP1 PUSH2 0x3326 JUMP JUMPDEST DUP1 ISZERO PUSH2 0x138C JUMPI DUP1 PUSH1 0x1F LT PUSH2 0x1361 JUMPI PUSH2 0x100 DUP1 DUP4 SLOAD DIV MUL DUP4 MSTORE SWAP2 PUSH1 0x20 ADD SWAP2 PUSH2 0x138C JUMP JUMPDEST DUP3 ADD SWAP2 SWAP1 PUSH1 0x0 MSTORE PUSH1 0x20 PUSH1 0x0 KECCAK256 SWAP1 JUMPDEST DUP2 SLOAD DUP2 MSTORE SWAP1 PUSH1 0x1 ADD SWAP1 PUSH1 0x20 ADD DUP1 DUP4 GT PUSH2 0x136F JUMPI DUP3 SWAP1 SUB PUSH1 0x1F AND DUP3 ADD SWAP2 JUMPDEST POP POP POP POP POP DUP2 MSTORE PUSH1 0x20 ADD PUSH1 0x3 DUP3 ADD DUP1 SLOAD PUSH2 0x13A5 SWAP1 PUSH2 0x3326 JUMP JUMPDEST DUP1 PUSH1 0x1F ADD PUSH1 0x20 DUP1 SWAP2 DIV MUL PUSH1 0x20 ADD PUSH1 0x40 MLOAD SWAP1 DUP2 ADD PUSH1 0x40 MSTORE DUP1 SWAP3 SWAP2 SWAP1 DUP2 DUP2 MSTORE PUSH1 0x20 ADD DUP3 DUP1 SLOAD PUSH2 0x13D1 SWAP1 PUSH2 0x3326 JUMP JUMPDEST DUP1 ISZERO PUSH2 0x141E JUMPI DUP1 PUSH1 0x1F LT PUSH2 0x13F3 JUMPI PUSH2 0x100 DUP1 DUP4 SLOAD DIV MUL DUP4 MSTORE SWAP2 PUSH1 0x20 ADD SWAP2 PUSH2 0x141E JUMP JUMPDEST DUP3 ADD SWAP2 SWAP1 PUSH1 0x0 MSTORE PUSH1 0x20 PUSH1 0x0 KECCAK256 SWAP1 JUMPDEST DUP2 SLOAD DUP2 MSTORE SWAP1 PUSH1 0x1 ADD SWAP1 PUSH1 0x20 ADD DUP1 DUP4 GT PUSH2 0x1401 JUMPI DUP3 SWAP1 SUB PUSH1 0x1F AND DUP3 ADD SWAP2 JUMPDEST POP POP POP POP POP DUP2 MSTORE PUSH1 0x20 ADD PUSH1 0x4 DUP3 ADD DUP1 SLOAD DUP1 PUSH1 0x20 MUL PUSH1 0x20 ADD PUSH1 0x40 MLOAD SWAP1 DUP2 ADD PUSH1 0x40 MSTORE DUP1 SWAP3 SWAP2 SWAP1 DUP2 DUP2 MSTORE PUSH1 0x20 ADD DUP3 DUP1 SLOAD DUP1 ISZERO PUSH2 0x1476 JUMPI PUSH1 0x20 MUL DUP3 ADD SWAP2 SWAP1 PUSH1 0x0 MSTORE PUSH1 0x20 PUSH1 0x0 KECCAK256 SWAP1 JUMPDEST DUP2 SLOAD DUP2 MSTORE PUSH1 0x20 ADD SWAP1 PUSH1 0x1 ADD SWAP1 DUP1 DUP4 GT PUSH2 0x1462 JUMPI JUMPDEST POP POP POP POP POP DUP2 MSTORE POP POP PUSH2 0x3BF JUMP JUMPDEST SWAP1 POP DUP1 PUSH2 0x14C6 JUMPI PUSH1 0x40 MLOAD PUSH32 0x8C379A000000000000000000000000000000000000000000000000000000000 DUP2 MSTORE PUSH1 0x4 ADD PUSH2 0x14BD SWAP1 PUSH2 0x2FF5 JUMP JUMPDEST PUSH1 0x40 MLOAD DUP1 SWAP2 SUB SWAP1 REVERT JUMPDEST POP JUMPDEST PUSH1 0x0 DUP1 PUSH1 0x0 DUP6 DUP2 MSTORE PUSH1 0x20 ADD SWAP1 DUP2 MSTORE PUSH1 0x20 ADD PUSH1 0x0 KECCAK256 PUSH1 0x2 ADD DUP1 SLOAD DUP1 PUSH1 0x20 MUL PUSH1 0x20 ADD PUSH1 0x40 MLOAD SWAP1 DUP2 ADD PUSH1 0x40 MSTORE DUP1 SWAP3 SWAP2 SWAP1 DUP2 DUP2 MSTORE PUSH1 0x20 ADD DUP3 DUP1 SLOAD DUP1 ISZERO PUSH2 0x1529 JUMPI PUSH1 0x20 MUL DUP3 ADD SWAP2 SWAP1 PUSH1 0x0 MSTORE PUSH1 0x20 PUSH1 0x0 KECCAK256 SWAP1 JUMPDEST DUP2 SLOAD DUP2 MSTORE PUSH1 0x20 ADD SWAP1 PUSH1 0x1 ADD SWAP1 DUP1 DUP4 GT PUSH2 0x1515 JUMPI JUMPDEST POP POP POP POP POP SWAP1 POP PUSH1 0x0 DUP2 MLOAD EQ ISZERO PUSH2 0x1543 JUMPI PUSH1 0x1 SWAP3 POP PUSH2 0x1872 JUMP JUMPDEST PUSH1 0x0 DUP1 PUSH1 0x0 DUP7 DUP2 MSTORE PUSH1 0x20 ADD SWAP1 DUP2 MSTORE PUSH1 0x20 ADD PUSH1 0x0 KECCAK256 PUSH1 0x1 ADD PUSH1 0x15 SWAP1 SLOAD SWAP1 PUSH2 0x100 EXP SWAP1 DIV PUSH1 0xFF AND SWAP1 POP PUSH1 0x0 PUSH1 0x3 DUP2 GT ISZERO PUSH2 0x15A4 JUMPI PUSH32 0x4E487B7100000000000000000000000000000000000000000000000000000000 PUSH1 0x0 MSTORE PUSH1 0x21 PUSH1 0x4 MSTORE PUSH1 0x24 PUSH1 0x0 REVERT JUMPDEST DUP2 PUSH1 0x3 DUP2 GT ISZERO PUSH2 0x15DD JUMPI PUSH32 0x4E487B7100000000000000000000000000000000000000000000000000000000 PUSH1 0x0 MSTORE PUSH1 0x21 PUSH1 0x4 MSTORE PUSH1 0x24 PUSH1 0x0 REVERT JUMPDEST EQ ISZERO PUSH2 0x1643 JUMPI PUSH1 0x1 ISZERO ISZERO PUSH2 0x1631 DUP4 PUSH1 0x0 DUP2 MLOAD DUP2 LT PUSH2 0x1624 JUMPI PUSH32 0x4E487B7100000000000000000000000000000000000000000000000000000000 PUSH1 0x0 MSTORE PUSH1 0x32 PUSH1 0x4 MSTORE PUSH1 0x24 PUSH1 0x0 REVERT JUMPDEST PUSH1 0x20 MUL PUSH1 0x20 ADD ADD MLOAD PUSH2 0xFB9 JUMP JUMPDEST ISZERO ISZERO EQ ISZERO PUSH2 0x163E JUMPI PUSH1 0x1 SWAP4 POP JUMPDEST PUSH2 0x1870 JUMP JUMPDEST PUSH1 0x0 DUP1 PUSH1 0x0 SWAP1 POP JUMPDEST DUP4 MLOAD DUP2 LT ISZERO PUSH2 0x16CB JUMPI PUSH1 0x1 ISZERO ISZERO PUSH2 0x16A1 DUP6 DUP4 DUP2 MLOAD DUP2 LT PUSH2 0x1694 JUMPI PUSH32 0x4E487B7100000000000000000000000000000000000000000000000000000000 PUSH1 0x0 MSTORE PUSH1 0x32 PUSH1 0x4 MSTORE PUSH1 0x24 PUSH1 0x0 REVERT JUMPDEST PUSH1 0x20 MUL PUSH1 0x20 ADD ADD MLOAD PUSH2 0xFB9 JUMP JUMPDEST ISZERO ISZERO EQ ISZERO PUSH2 0x16B8 JUMPI DUP2 DUP1 PUSH2 0x16B4 SWAP1 PUSH2 0x3358 JUMP JUMPDEST SWAP3 POP POP JUMPDEST DUP1 DUP1 PUSH2 0x16C3 SWAP1 PUSH2 0x3358 JUMP JUMPDEST SWAP2 POP POP PUSH2 0x164B JUMP JUMPDEST POP PUSH1 0x1 PUSH1 0x3 DUP2 GT ISZERO PUSH2 0x1706 JUMPI PUSH32 0x4E487B7100000000000000000000000000000000000000000000000000000000 PUSH1 0x0 MSTORE PUSH1 0x21 PUSH1 0x4 MSTORE PUSH1 0x24 PUSH1 0x0 REVERT JUMPDEST DUP3 PUSH1 0x3 DUP2 GT ISZERO PUSH2 0x173F JUMPI PUSH32 0x4E487B7100000000000000000000000000000000000000000000000000000000 PUSH1 0x0 MSTORE PUSH1 0x21 PUSH1 0x4 MSTORE PUSH1 0x24 PUSH1 0x0 REVERT JUMPDEST EQ ISZERO PUSH2 0x1758 JUMPI DUP3 MLOAD DUP2 EQ ISZERO PUSH2 0x1753 JUMPI PUSH1 0x1 SWAP5 POP JUMPDEST PUSH2 0x186E JUMP JUMPDEST PUSH1 0x2 PUSH1 0x3 DUP2 GT ISZERO PUSH2 0x1792 JUMPI PUSH32 0x4E487B7100000000000000000000000000000000000000000000000000000000 PUSH1 0x0 MSTORE PUSH1 0x21 PUSH1 0x4 MSTORE PUSH1 0x24 PUSH1 0x0 REVERT JUMPDEST DUP3 PUSH1 0x3 DUP2 GT ISZERO PUSH2 0x17CB JUMPI PUSH32 0x4E487B7100000000000000000000000000000000000000000000000000000000 PUSH1 0x0 MSTORE PUSH1 0x21 PUSH1 0x4 MSTORE PUSH1 0x24 PUSH1 0x0 REVERT JUMPDEST EQ ISZERO PUSH2 0x17DA JUMPI PUSH1 0x1 SWAP5 POP PUSH2 0x186D JUMP JUMPDEST PUSH1 0x3 DUP1 DUP2 GT ISZERO PUSH2 0x1813 JUMPI PUSH32 0x4E487B7100000000000000000000000000000000000000000000000000000000 PUSH1 0x0 MSTORE PUSH1 0x21 PUSH1 0x4 MSTORE PUSH1 0x24 PUSH1 0x0 REVERT JUMPDEST DUP3 PUSH1 0x3 DUP2 GT ISZERO PUSH2 0x184C JUMPI PUSH32 0x4E487B7100000000000000000000000000000000000000000000000000000000 PUSH1 0x0 MSTORE PUSH1 0x21 PUSH1 0x4 MSTORE PUSH1 0x24 PUSH1 0x0 REVERT JUMPDEST EQ ISZERO PUSH2 0x186C JUMPI PUSH1 0x1 DUP2 EQ DUP1 PUSH2 0x1861 JUMPI POP PUSH1 0x2 DUP2 EQ JUMPDEST ISZERO PUSH2 0x186B JUMPI PUSH1 0x1 SWAP5 POP JUMPDEST JUMPDEST JUMPDEST JUMPDEST POP JUMPDEST POP JUMPDEST DUP3 ISZERO PUSH2 0x1958 JUMPI PUSH1 0x1 PUSH1 0x0 DUP1 DUP7 DUP2 MSTORE PUSH1 0x20 ADD SWAP1 DUP2 MSTORE PUSH1 0x20 ADD PUSH1 0x0 KECCAK256 PUSH1 0x1 ADD PUSH1 0x14 PUSH2 0x100 EXP DUP2 SLOAD DUP2 PUSH1 0xFF MUL NOT AND SWAP1 DUP4 ISZERO ISZERO MUL OR SWAP1 SSTORE POP PUSH1 0x3 DUP5 SWAP1 DUP1 PUSH1 0x1 DUP2 SLOAD ADD DUP1 DUP3 SSTORE DUP1 SWAP2 POP POP PUSH1 0x1 SWAP1 SUB SWAP1 PUSH1 0x0 MSTORE PUSH1 0x20 PUSH1 0x0 KECCAK256 ADD PUSH1 0x0 SWAP1 SWAP2 SWAP1 SWAP2 SWAP1 SWAP2 POP SSTORE PUSH1 0x4 PUSH1 0x0 DUP1 DUP7 DUP2 MSTORE PUSH1 0x20 ADD SWAP1 DUP2 MSTORE PUSH1 0x20 ADD PUSH1 0x0 KECCAK256 PUSH1 0x0 ADD SWAP1 DUP1 PUSH1 0x1 DUP2 SLOAD ADD DUP1 DUP3 SSTORE DUP1 SWAP2 POP POP PUSH1 0x1 SWAP1 SUB SWAP1 PUSH1 0x0 MSTORE PUSH1 0x20 PUSH1 0x0 KECCAK256 ADD PUSH1 0x0 SWAP1 SWAP2 SWAP1 SWAP2 SWAP1 SWAP2 POP SWAP1 DUP1 SLOAD PUSH2 0x1917 SWAP1 PUSH2 0x3326 JUMP JUMPDEST PUSH2 0x1922 SWAP3 SWAP2 SWAP1 PUSH2 0x2008 JUMP JUMPDEST POP PUSH1 0x1 ISZERO ISZERO PUSH32 0xACD30B4F9FD5868793E13FFB506F03374A23D9FEBA1249AC2CC7B0FE024FF4BA PUSH1 0x40 MLOAD PUSH1 0x40 MLOAD DUP1 SWAP2 SUB SWAP1 LOG2 PUSH2 0x1989 JUMP JUMPDEST PUSH1 0x0 ISZERO ISZERO PUSH32 0xACD30B4F9FD5868793E13FFB506F03374A23D9FEBA1249AC2CC7B0FE024FF4BA PUSH1 0x40 MLOAD PUSH1 0x40 MLOAD DUP1 SWAP2 SUB SWAP1 LOG2 JUMPDEST POP POP SWAP2 SWAP1 POP JUMP JUMPDEST PUSH1 0x0 PUSH20 0x6AB00A2AA2559BCD90DB818FD3FBFC58097ACD78 PUSH4 0xE1DF7AD6 DUP6 DUP6 DUP6 PUSH1 0x40 MLOAD DUP5 PUSH4 0xFFFFFFFF AND PUSH1 0xE0 SHL DUP2 MSTORE PUSH1 0x4 ADD PUSH2 0x19CD SWAP4 SWAP3 SWAP2 SWAP1 PUSH2 0x2F2E JUMP JUMPDEST PUSH1 0x20 PUSH1 0x40 MLOAD DUP1 DUP4 SUB DUP2 DUP7 DUP1 EXTCODESIZE ISZERO DUP1 ISZERO PUSH2 0x19E5 JUMPI PUSH1 0x0 DUP1 REVERT JUMPDEST POP GAS DELEGATECALL ISZERO DUP1 ISZERO PUSH2 0x19F9 JUMPI RETURNDATASIZE PUSH1 0x0 DUP1 RETURNDATACOPY RETURNDATASIZE PUSH1 0x0 REVERT JUMPDEST POP POP POP POP PUSH1 0x40 MLOAD RETURNDATASIZE PUSH1 0x1F NOT PUSH1 0x1F DUP3 ADD AND DUP3 ADD DUP1 PUSH1 0x40 MSTORE POP DUP2 ADD SWAP1 PUSH2 0x1A1D SWAP2 SWAP1 PUSH2 0x260C JUMP JUMPDEST SWAP1 POP SWAP4 SWAP3 POP POP POP JUMP JUMPDEST PUSH1 0x2 DUP2 DUP1 MLOAD PUSH1 0x20 DUP2 ADD DUP3 ADD DUP1 MLOAD DUP5 DUP3 MSTORE PUSH1 0x20 DUP4 ADD PUSH1 0x20 DUP6 ADD KECCAK256 DUP2 DUP4 MSTORE DUP1 SWAP6 POP POP POP POP POP POP PUSH1 0x0 SWAP2 POP SWAP1 POP DUP1 SLOAD PUSH2 0x1A5B SWAP1 PUSH2 0x3326 JUMP JUMPDEST DUP1 PUSH1 0x1F ADD PUSH1 0x20 DUP1 SWAP2 DIV MUL PUSH1 0x20 ADD PUSH1 0x40 MLOAD SWAP1 DUP2 ADD PUSH1 0x40 MSTORE DUP1 SWAP3 SWAP2 SWAP1 DUP2 DUP2 MSTORE PUSH1 0x20 ADD DUP3 DUP1 SLOAD PUSH2 0x1A87 SWAP1 PUSH2 0x3326 JUMP JUMPDEST DUP1 ISZERO PUSH2 0x1AD4 JUMPI DUP1 PUSH1 0x1F LT PUSH2 0x1AA9 JUMPI PUSH2 0x100 DUP1 DUP4 SLOAD DIV MUL DUP4 MSTORE SWAP2 PUSH1 0x20 ADD SWAP2 PUSH2 0x1AD4 JUMP JUMPDEST DUP3 ADD SWAP2 SWAP1 PUSH1 0x0 MSTORE PUSH1 0x20 PUSH1 0x0 KECCAK256 SWAP1 JUMPDEST DUP2 SLOAD DUP2 MSTORE SWAP1 PUSH1 0x1 ADD SWAP1 PUSH1 0x20 ADD DUP1 DUP4 GT PUSH2 0x1AB7 JUMPI DUP3 SWAP1 SUB PUSH1 0x1F AND DUP3 ADD SWAP2 JUMPDEST POP POP POP POP POP DUP2 JUMP JUMPDEST PUSH1 0x0 PUSH1 0x2 DUP2 GT ISZERO PUSH2 0x1B16 JUMPI PUSH32 0x4E487B7100000000000000000000000000000000000000000000000000000000 PUSH1 0x0 MSTORE PUSH1 0x21 PUSH1 0x4 MSTORE PUSH1 0x24 PUSH1 0x0 REVERT JUMPDEST DUP2 PUSH1 0x40 ADD MLOAD PUSH1 0x2 DUP2 GT ISZERO PUSH2 0x1B53 JUMPI PUSH32 0x4E487B7100000000000000000000000000000000000000000000000000000000 PUSH1 0x0 MSTORE PUSH1 0x21 PUSH1 0x4 MSTORE PUSH1 0x24 PUSH1 0x0 REVERT JUMPDEST EQ ISZERO PUSH2 0x1BA4 JUMPI PUSH1 0x40 MLOAD DUP1 PUSH1 0x20 ADD PUSH1 0x40 MSTORE DUP1 PUSH1 0x0 DUP2 MSTORE POP PUSH1 0x2 DUP3 PUSH1 0xC0 ADD MLOAD PUSH1 0x40 MLOAD PUSH2 0x1B7D SWAP2 SWAP1 PUSH2 0x2E27 JUMP JUMPDEST SWAP1 DUP2 MSTORE PUSH1 0x20 ADD PUSH1 0x40 MLOAD DUP1 SWAP2 SUB SWAP1 KECCAK256 SWAP1 DUP1 MLOAD SWAP1 PUSH1 0x20 ADD SWAP1 PUSH2 0x1B9E SWAP3 SWAP2 SWAP1 PUSH2 0x1EE8 JUMP JUMPDEST POP PUSH2 0x1C4B JUMP JUMPDEST PUSH1 0x1 PUSH1 0x2 DUP2 GT ISZERO PUSH2 0x1BDE JUMPI PUSH32 0x4E487B7100000000000000000000000000000000000000000000000000000000 PUSH1 0x0 MSTORE PUSH1 0x21 PUSH1 0x4 MSTORE PUSH1 0x24 PUSH1 0x0 REVERT JUMPDEST DUP2 PUSH1 0x40 ADD MLOAD PUSH1 0x2 DUP2 GT ISZERO PUSH2 0x1C1B JUMPI PUSH32 0x4E487B7100000000000000000000000000000000000000000000000000000000 PUSH1 0x0 MSTORE PUSH1 0x21 PUSH1 0x4 MSTORE PUSH1 0x24 PUSH1 0x0 REVERT JUMPDEST EQ ISZERO PUSH2 0x1C4A JUMPI PUSH1 0x5 PUSH1 0x1 DUP3 PUSH1 0xC0 ADD MLOAD PUSH1 0x40 MLOAD PUSH2 0x1C37 SWAP2 SWAP1 PUSH2 0x2E27 JUMP JUMPDEST SWAP1 DUP2 MSTORE PUSH1 0x20 ADD PUSH1 0x40 MLOAD DUP1 SWAP2 SUB SWAP1 KECCAK256 DUP2 SWAP1 SSTORE POP JUMPDEST JUMPDEST PUSH2 0x1C59 DUP8 DUP8 DUP8 DUP8 DUP8 DUP8 PUSH2 0x6CD JUMP JUMPDEST DUP1 PUSH1 0x0 DUP1 DUP10 DUP2 MSTORE PUSH1 0x20 ADD SWAP1 DUP2 MSTORE PUSH1 0x20 ADD PUSH1 0x0 KECCAK256 PUSH1 0x4 ADD PUSH1 0x0 DUP3 ADD MLOAD DUP2 PUSH1 0x0 ADD SSTORE PUSH1 0x20 DUP3 ADD MLOAD DUP2 PUSH1 0x1 ADD PUSH1 0x0 PUSH2 0x100 EXP DUP2 SLOAD DUP2 PUSH1 0xFF MUL NOT AND SWAP1 DUP4 PUSH1 0x3 DUP2 GT ISZERO PUSH2 0x1CCA JUMPI PUSH32 0x4E487B7100000000000000000000000000000000000000000000000000000000 PUSH1 0x0 MSTORE PUSH1 0x21 PUSH1 0x4 MSTORE PUSH1 0x24 PUSH1 0x0 REVERT JUMPDEST MUL OR SWAP1 SSTORE POP PUSH1 0x40 DUP3 ADD MLOAD DUP2 PUSH1 0x1 ADD PUSH1 0x1 PUSH2 0x100 EXP DUP2 SLOAD DUP2 PUSH1 0xFF MUL NOT AND SWAP1 DUP4 PUSH1 0x2 DUP2 GT ISZERO PUSH2 0x1D20 JUMPI PUSH32 0x4E487B7100000000000000000000000000000000000000000000000000000000 PUSH1 0x0 MSTORE PUSH1 0x21 PUSH1 0x4 MSTORE PUSH1 0x24 PUSH1 0x0 REVERT JUMPDEST MUL OR SWAP1 SSTORE POP PUSH1 0x60 DUP3 ADD MLOAD DUP2 PUSH1 0x1 ADD PUSH1 0x2 PUSH2 0x100 EXP DUP2 SLOAD DUP2 PUSH1 0xFF MUL NOT AND SWAP1 DUP4 ISZERO ISZERO MUL OR SWAP1 SSTORE POP PUSH1 0x80 DUP3 ADD MLOAD DUP2 PUSH1 0x1 ADD PUSH1 0x3 PUSH2 0x100 EXP DUP2 SLOAD DUP2 PUSH1 0xFF MUL NOT AND SWAP1 DUP4 ISZERO ISZERO MUL OR SWAP1 SSTORE POP PUSH1 0xA0 DUP3 ADD MLOAD DUP2 PUSH1 0x1 ADD PUSH1 0x4 PUSH2 0x100 EXP DUP2 SLOAD DUP2 PUSH1 0xFF MUL NOT AND SWAP1 DUP4 PUSH1 0x6 DUP2 GT ISZERO PUSH2 0x1DB6 JUMPI PUSH32 0x4E487B7100000000000000000000000000000000000000000000000000000000 PUSH1 0x0 MSTORE PUSH1 0x21 PUSH1 0x4 MSTORE PUSH1 0x24 PUSH1 0x0 REVERT JUMPDEST MUL OR SWAP1 SSTORE POP PUSH1 0xC0 DUP3 ADD MLOAD DUP2 PUSH1 0x2 ADD SWAP1 DUP1 MLOAD SWAP1 PUSH1 0x20 ADD SWAP1 PUSH2 0x1DD7 SWAP3 SWAP2 SWAP1 PUSH2 0x1EE8 JUMP JUMPDEST POP PUSH1 0xE0 DUP3 ADD MLOAD DUP2 PUSH1 0x3 ADD SWAP1 DUP1 MLOAD SWAP1 PUSH1 0x20 ADD SWAP1 PUSH2 0x1DF4 SWAP3 SWAP2 SWAP1 PUSH2 0x1EE8 JUMP JUMPDEST POP PUSH2 0x100 DUP3 ADD MLOAD DUP2 PUSH1 0x4 ADD SWAP1 DUP1 MLOAD SWAP1 PUSH1 0x20 ADD SWAP1 PUSH2 0x1E12 SWAP3 SWAP2 SWAP1 PUSH2 0x1FBB JUMP JUMPDEST POP SWAP1 POP POP POP POP POP POP POP POP POP JUMP JUMPDEST DUP2 DUP2 PUSH1 0x2 DUP7 DUP7 PUSH1 0x40 MLOAD PUSH2 0x1E33 SWAP3 SWAP2 SWAP1 PUSH2 0x2E0E JUMP JUMPDEST SWAP1 DUP2 MSTORE PUSH1 0x20 ADD PUSH1 0x40 MLOAD DUP1 SWAP2 SUB SWAP1 KECCAK256 SWAP2 SWAP1 PUSH2 0x1E4E SWAP3 SWAP2 SWAP1 PUSH2 0x2095 JUMP JUMPDEST POP POP POP POP POP JUMP JUMPDEST PUSH1 0x40 MLOAD DUP1 PUSH1 0xE0 ADD PUSH1 0x40 MSTORE DUP1 PUSH1 0x60 DUP2 MSTORE PUSH1 0x20 ADD PUSH1 0x0 PUSH20 0xFFFFFFFFFFFFFFFFFFFFFFFFFFFFFFFFFFFFFFFF AND DUP2 MSTORE PUSH1 0x20 ADD PUSH1 0x0 ISZERO ISZERO DUP2 MSTORE PUSH1 0x20 ADD PUSH1 0x0 PUSH1 0x3 DUP2 GT ISZERO PUSH2 0x1EC7 JUMPI PUSH32 0x4E487B7100000000000000000000000000000000000000000000000000000000 PUSH1 0x0 MSTORE PUSH1 0x21 PUSH1 0x4 MSTORE PUSH1 0x24 PUSH1 0x0 REVERT JUMPDEST DUP2 MSTORE PUSH1 0x20 ADD PUSH1 0x60 DUP2 MSTORE PUSH1 0x20 ADD PUSH1 0x60 DUP2 MSTORE PUSH1 0x20 ADD PUSH2 0x1EE2 PUSH2 0x211B JUMP JUMPDEST DUP2 MSTORE POP SWAP1 JUMP JUMPDEST DUP3 DUP1 SLOAD PUSH2 0x1EF4 SWAP1 PUSH2 0x3326 JUMP JUMPDEST SWAP1 PUSH1 0x0 MSTORE PUSH1 0x20 PUSH1 0x0 KECCAK256 SWAP1 PUSH1 0x1F ADD PUSH1 0x20 SWAP1 DIV DUP2 ADD SWAP3 DUP3 PUSH2 0x1F16 JUMPI PUSH1 0x0 DUP6 SSTORE PUSH2 0x1F5D JUMP JUMPDEST DUP3 PUSH1 0x1F LT PUSH2 0x1F2F JUMPI DUP1 MLOAD PUSH1 0xFF NOT AND DUP4 DUP1 ADD OR DUP6 SSTORE PUSH2 0x1F5D JUMP JUMPDEST DUP3 DUP1 ADD PUSH1 0x1 ADD DUP6 SSTORE DUP3 ISZERO PUSH2 0x1F5D JUMPI SWAP2 DUP3 ADD JUMPDEST DUP3 DUP2 GT ISZERO PUSH2 0x1F5C JUMPI DUP3 MLOAD DUP3 SSTORE SWAP2 PUSH1 0x20 ADD SWAP2 SWAP1 PUSH1 0x1 ADD SWAP1 PUSH2 0x1F41 JUMP JUMPDEST JUMPDEST POP SWAP1 POP PUSH2 0x1F6A SWAP2 SWAP1 PUSH2 0x2213 JUMP JUMPDEST POP SWAP1 JUMP JUMPDEST DUP3 DUP1 SLOAD DUP3 DUP3 SSTORE SWAP1 PUSH1 0x0 MSTORE PUSH1 0x20 PUSH1 0x0 KECCAK256 SWAP1 DUP2 ADD SWAP3 DUP3 ISZERO PUSH2 0x1FAA JUMPI SWAP2 PUSH1 0x20 MUL DUP3 ADD JUMPDEST DUP3 DUP2 GT ISZERO PUSH2 0x1FA9 JUMPI DUP3 MLOAD DUP3 SSTORE SWAP2 PUSH1 0x20 ADD SWAP2 SWAP1 PUSH1 0x1 ADD SWAP1 PUSH2 0x1F8E JUMP JUMPDEST JUMPDEST POP SWAP1 POP PUSH2 0x1FB7 SWAP2 SWAP1 PUSH2 0x2213 JUMP JUMPDEST POP SWAP1 JUMP JUMPDEST DUP3 DUP1 SLOAD DUP3 DUP3 SSTORE SWAP1 PUSH1 0x0 MSTORE PUSH1 0x20 PUSH1 0x0 KECCAK256 SWAP1 DUP2 ADD SWAP3 DUP3 ISZERO PUSH2 0x1FF7 JUMPI SWAP2 PUSH1 0x20 MUL DUP3 ADD JUMPDEST DUP3 DUP2 GT ISZERO PUSH2 0x1FF6 JUMPI DUP3 MLOAD DUP3 SSTORE SWAP2 PUSH1 0x20 ADD SWAP2 SWAP1 PUSH1 0x1 ADD SWAP1 PUSH2 0x1FDB JUMP JUMPDEST JUMPDEST POP SWAP1 POP PUSH2 0x2004 SWAP2 SWAP1 PUSH2 0x2230 JUMP JUMPDEST POP SWAP1 JUMP JUMPDEST DUP3 DUP1 SLOAD PUSH2 0x2014 SWAP1 PUSH2 0x3326 JUMP JUMPDEST SWAP1 PUSH1 0x0 MSTORE PUSH1 0x20 PUSH1 0x0 KECCAK256 SWAP1 PUSH1 0x1F ADD PUSH1 0x20 SWAP1 DIV DUP2 ADD SWAP3 DUP3 PUSH2 0x2036 JUMPI PUSH1 0x0 DUP6 SSTORE PUSH2 0x2084 JUMP JUMPDEST DUP3 PUSH1 0x1F LT PUSH2 0x2047 JUMPI DUP1 SLOAD DUP6 SSTORE PUSH2 0x2084 JUMP JUMPDEST DUP3 DUP1 ADD PUSH1 0x1 ADD DUP6 SSTORE DUP3 ISZERO PUSH2 0x2084 JUMPI PUSH1 0x0 MSTORE PUSH1 0x20 PUSH1 0x0 KECCAK256 SWAP2 PUSH1 0x1F ADD PUSH1 0x20 SWAP1 DIV DUP3 ADD JUMPDEST DUP3 DUP2 GT ISZERO PUSH2 0x2083 JUMPI DUP3 SLOAD DUP3 SSTORE SWAP2 PUSH1 0x1 ADD SWAP2 SWAP1 PUSH1 0x1 ADD SWAP1 PUSH2 0x2068 JUMP JUMPDEST JUMPDEST POP SWAP1 POP PUSH2 0x2091 SWAP2 SWAP1 PUSH2 0x2213 JUMP JUMPDEST POP SWAP1 JUMP JUMPDEST DUP3 DUP1 SLOAD PUSH2 0x20A1 SWAP1 PUSH2 0x3326 JUMP JUMPDEST SWAP1 PUSH1 0x0 MSTORE PUSH1 0x20 PUSH1 0x0 KECCAK256 SWAP1 PUSH1 0x1F ADD PUSH1 0x20 SWAP1 DIV DUP2 ADD SWAP3 DUP3 PUSH2 0x20C3 JUMPI PUSH1 0x0 DUP6 SSTORE PUSH2 0x210A JUMP JUMPDEST DUP3 PUSH1 0x1F LT PUSH2 0x20DC JUMPI DUP1 CALLDATALOAD PUSH1 0xFF NOT AND DUP4 DUP1 ADD OR DUP6 SSTORE PUSH2 0x210A JUMP JUMPDEST DUP3 DUP1 ADD PUSH1 0x1 ADD DUP6 SSTORE DUP3 ISZERO PUSH2 0x210A JUMPI SWAP2 DUP3 ADD JUMPDEST DUP3 DUP2 GT ISZERO PUSH2 0x2109 JUMPI DUP3 CALLDATALOAD DUP3 SSTORE SWAP2 PUSH1 0x20 ADD SWAP2 SWAP1 PUSH1 0x1 ADD SWAP1 PUSH2 0x20EE JUMP JUMPDEST JUMPDEST POP SWAP1 POP PUSH2 0x2117 SWAP2 SWAP1 PUSH2 0x2213 JUMP JUMPDEST POP SWAP1 JUMP JUMPDEST PUSH1 0x40 MLOAD DUP1 PUSH2 0x120 ADD PUSH1 0x40 MSTORE DUP1 PUSH1 0x0 DUP2 MSTORE PUSH1 0x20 ADD PUSH1 0x0 PUSH1 0x3 DUP2 GT ISZERO PUSH2 0x2168 JUMPI PUSH32 0x4E487B7100000000000000000000000000000000000000000000000000000000 PUSH1 0x0 MSTORE PUSH1 0x21 PUSH1 0x4 MSTORE PUSH1 0x24 PUSH1 0x0 REVERT JUMPDEST DUP2 MSTORE PUSH1 0x20 ADD PUSH1 0x0 PUSH1 0x2 DUP2 GT ISZERO PUSH2 0x21A7 JUMPI PUSH32 0x4E487B7100000000000000000000000000000000000000000000000000000000 PUSH1 0x0 MSTORE PUSH1 0x21 PUSH1 0x4 MSTORE PUSH1 0x24 PUSH1 0x0 REVERT JUMPDEST DUP2 MSTORE PUSH1 0x20 ADD PUSH1 0x0 ISZERO ISZERO DUP2 MSTORE PUSH1 0x20 ADD PUSH1 0x0 ISZERO ISZERO DUP2 MSTORE PUSH1 0x20 ADD PUSH1 0x0 PUSH1 0x6 DUP2 GT ISZERO PUSH2 0x21F8 JUMPI PUSH32 0x4E487B7100000000000000000000000000000000000000000000000000000000 PUSH1 0x0 MSTORE PUSH1 0x21 PUSH1 0x4 MSTORE PUSH1 0x24 PUSH1 0x0 REVERT JUMPDEST DUP2 MSTORE PUSH1 0x20 ADD PUSH1 0x60 DUP2 MSTORE PUSH1 0x20 ADD PUSH1 0x60 DUP2 MSTORE PUSH1 0x20 ADD PUSH1 0x60 DUP2 MSTORE POP SWAP1 JUMP JUMPDEST JUMPDEST DUP1 DUP3 GT ISZERO PUSH2 0x222C JUMPI PUSH1 0x0 DUP2 PUSH1 0x0 SWAP1 SSTORE POP PUSH1 0x1 ADD PUSH2 0x2214 JUMP JUMPDEST POP SWAP1 JUMP JUMPDEST JUMPDEST DUP1 DUP3 GT ISZERO PUSH2 0x2249 JUMPI PUSH1 0x0 DUP2 PUSH1 0x0 SWAP1 SSTORE POP PUSH1 0x1 ADD PUSH2 0x2231 JUMP JUMPDEST POP SWAP1 JUMP JUMPDEST PUSH1 0x0 PUSH2 0x2260 PUSH2 0x225B DUP5 PUSH2 0x3061 JUMP JUMPDEST PUSH2 0x3030 JUMP JUMPDEST SWAP1 POP DUP1 DUP4 DUP3 MSTORE PUSH1 0x20 DUP3 ADD SWAP1 POP DUP3 DUP6 PUSH1 0x20 DUP7 MUL DUP3 ADD GT ISZERO PUSH2 0x227F JUMPI PUSH1 0x0 DUP1 REVERT JUMPDEST PUSH1 0x0 JUMPDEST DUP6 DUP2 LT ISZERO PUSH2 0x22AF JUMPI DUP2 PUSH2 0x2295 DUP9 DUP3 PUSH2 0x2435 JUMP JUMPDEST DUP5 MSTORE PUSH1 0x20 DUP5 ADD SWAP4 POP PUSH1 0x20 DUP4 ADD SWAP3 POP POP PUSH1 0x1 DUP2 ADD SWAP1 POP PUSH2 0x2282 JUMP JUMPDEST POP POP POP SWAP4 SWAP3 POP POP POP JUMP JUMPDEST PUSH1 0x0 PUSH2 0x22CC PUSH2 0x22C7 DUP5 PUSH2 0x308D JUMP JUMPDEST PUSH2 0x3030 JUMP JUMPDEST SWAP1 POP DUP1 DUP4 DUP3 MSTORE PUSH1 0x20 DUP3 ADD SWAP1 POP DUP3 DUP6 PUSH1 0x20 DUP7 MUL DUP3 ADD GT ISZERO PUSH2 0x22EB JUMPI PUSH1 0x0 DUP1 REVERT JUMPDEST PUSH1 0x0 JUMPDEST DUP6 DUP2 LT ISZERO PUSH2 0x231B JUMPI DUP2 PUSH2 0x2301 DUP9 DUP3 PUSH2 0x25E2 JUMP JUMPDEST DUP5 MSTORE PUSH1 0x20 DUP5 ADD SWAP4 POP PUSH1 0x20 DUP4 ADD SWAP3 POP POP PUSH1 0x1 DUP2 ADD SWAP1 POP PUSH2 0x22EE JUMP JUMPDEST POP POP POP SWAP4 SWAP3 POP POP POP JUMP JUMPDEST PUSH1 0x0 PUSH2 0x2338 PUSH2 0x2333 DUP5 PUSH2 0x30B9 JUMP JUMPDEST PUSH2 0x3030 JUMP JUMPDEST SWAP1 POP DUP3 DUP2 MSTORE PUSH1 0x20 DUP2 ADD DUP5 DUP5 DUP5 ADD GT ISZERO PUSH2 0x2350 JUMPI PUSH1 0x0 DUP1 REVERT JUMPDEST PUSH2 0x235B DUP5 DUP3 DUP6 PUSH2 0x32E4 JUMP JUMPDEST POP SWAP4 SWAP3 POP POP POP JUMP JUMPDEST PUSH1 0x0 DUP2 CALLDATALOAD SWAP1 POP PUSH2 0x2372 DUP2 PUSH2 0x3496 JUMP JUMPDEST SWAP3 SWAP2 POP POP JUMP JUMPDEST PUSH1 0x0 DUP3 PUSH1 0x1F DUP4 ADD SLT PUSH2 0x2389 JUMPI PUSH1 0x0 DUP1 REVERT JUMPDEST DUP2 CALLDATALOAD PUSH2 0x2399 DUP5 DUP3 PUSH1 0x20 DUP7 ADD PUSH2 0x224D JUMP JUMPDEST SWAP2 POP POP SWAP3 SWAP2 POP POP JUMP JUMPDEST PUSH1 0x0 DUP3 PUSH1 0x1F DUP4 ADD SLT PUSH2 0x23B3 JUMPI PUSH1 0x0 DUP1 REVERT JUMPDEST DUP2 CALLDATALOAD PUSH2 0x23C3 DUP5 DUP3 PUSH1 0x20 DUP7 ADD PUSH2 0x22B9 JUMP JUMPDEST SWAP2 POP POP SWAP3 SWAP2 POP POP JUMP JUMPDEST PUSH1 0x0 DUP2 CALLDATALOAD SWAP1 POP PUSH2 0x23DB DUP2 PUSH2 0x34AD JUMP JUMPDEST SWAP3 SWAP2 POP POP JUMP JUMPDEST PUSH1 0x0 DUP2 MLOAD SWAP1 POP PUSH2 0x23F0 DUP2 PUSH2 0x34AD JUMP JUMPDEST SWAP3 SWAP2 POP POP JUMP JUMPDEST PUSH1 0x0 DUP2 CALLDATALOAD SWAP1 POP PUSH2 0x2405 DUP2 PUSH2 0x34C4 JUMP JUMPDEST SWAP3 SWAP2 POP POP JUMP JUMPDEST PUSH1 0x0 DUP2 CALLDATALOAD SWAP1 POP PUSH2 0x241A DUP2 PUSH2 0x34D4 JUMP JUMPDEST SWAP3 SWAP2 POP POP JUMP JUMPDEST PUSH1 0x0 DUP2 CALLDATALOAD SWAP1 POP PUSH2 0x242F DUP2 PUSH2 0x34E4 JUMP JUMPDEST SWAP3 SWAP2 POP POP JUMP JUMPDEST PUSH1 0x0 DUP2 CALLDATALOAD SWAP1 POP PUSH2 0x2444 DUP2 PUSH2 0x34F4 JUMP JUMPDEST SWAP3 SWAP2 POP POP JUMP JUMPDEST PUSH1 0x0 DUP1 DUP4 PUSH1 0x1F DUP5 ADD SLT PUSH2 0x245C JUMPI PUSH1 0x0 DUP1 REVERT JUMPDEST DUP3 CALLDATALOAD SWAP1 POP PUSH8 0xFFFFFFFFFFFFFFFF DUP2 GT ISZERO PUSH2 0x2475 JUMPI PUSH1 0x0 DUP1 REVERT JUMPDEST PUSH1 0x20 DUP4 ADD SWAP2 POP DUP4 PUSH1 0x1 DUP3 MUL DUP4 ADD GT ISZERO PUSH2 0x248D JUMPI PUSH1 0x0 DUP1 REVERT JUMPDEST SWAP3 POP SWAP3 SWAP1 POP JUMP JUMPDEST PUSH1 0x0 DUP3 PUSH1 0x1F DUP4 ADD SLT PUSH2 0x24A5 JUMPI PUSH1 0x0 DUP1 REVERT JUMPDEST DUP2 CALLDATALOAD PUSH2 0x24B5 DUP5 DUP3 PUSH1 0x20 DUP7 ADD PUSH2 0x2325 JUMP JUMPDEST SWAP2 POP POP SWAP3 SWAP2 POP POP JUMP JUMPDEST PUSH1 0x0 PUSH2 0x120 DUP3 DUP5 SUB SLT ISZERO PUSH2 0x24D1 JUMPI PUSH1 0x0 DUP1 REVERT JUMPDEST PUSH2 0x24DC PUSH2 0x120 PUSH2 0x3030 JUMP JUMPDEST SWAP1 POP PUSH1 0x0 PUSH2 0x24EC DUP5 DUP3 DUP6 ADD PUSH2 0x25E2 JUMP JUMPDEST PUSH1 0x0 DUP4 ADD MSTORE POP PUSH1 0x20 PUSH2 0x2500 DUP5 DUP3 DUP6 ADD PUSH2 0x240B JUMP JUMPDEST PUSH1 0x20 DUP4 ADD MSTORE POP PUSH1 0x40 PUSH2 0x2514 DUP5 DUP3 DUP6 ADD PUSH2 0x23F6 JUMP JUMPDEST PUSH1 0x40 DUP4 ADD MSTORE POP PUSH1 0x60 PUSH2 0x2528 DUP5 DUP3 DUP6 ADD PUSH2 0x23CC JUMP JUMPDEST PUSH1 0x60 DUP4 ADD MSTORE POP PUSH1 0x80 PUSH2 0x253C DUP5 DUP3 DUP6 ADD PUSH2 0x23CC JUMP JUMPDEST PUSH1 0x80 DUP4 ADD MSTORE POP PUSH1 0xA0 PUSH2 0x2550 DUP5 DUP3 DUP6 ADD PUSH2 0x2420 JUMP JUMPDEST PUSH1 0xA0 DUP4 ADD MSTORE POP PUSH1 0xC0 DUP3 ADD CALLDATALOAD PUSH8 0xFFFFFFFFFFFFFFFF DUP2 GT ISZERO PUSH2 0x2570 JUMPI PUSH1 0x0 DUP1 REVERT JUMPDEST PUSH2 0x257C DUP5 DUP3 DUP6 ADD PUSH2 0x2494 JUMP JUMPDEST PUSH1 0xC0 DUP4 ADD MSTORE POP PUSH1 0xE0 DUP3 ADD CALLDATALOAD PUSH8 0xFFFFFFFFFFFFFFFF DUP2 GT ISZERO PUSH2 0x259C JUMPI PUSH1 0x0 DUP1 REVERT JUMPDEST PUSH2 0x25A8 DUP5 DUP3 DUP6 ADD PUSH2 0x2494 JUMP JUMPDEST PUSH1 0xE0 DUP4 ADD MSTORE POP PUSH2 0x100 DUP3 ADD CALLDATALOAD PUSH8 0xFFFFFFFFFFFFFFFF DUP2 GT ISZERO PUSH2 0x25C9 JUMPI PUSH1 0x0 DUP1 REVERT JUMPDEST PUSH2 0x25D5 DUP5 DUP3 DUP6 ADD PUSH2 0x2378 JUMP JUMPDEST PUSH2 0x100 DUP4 ADD MSTORE POP SWAP3 SWAP2 POP POP JUMP JUMPDEST PUSH1 0x0 DUP2 CALLDATALOAD SWAP1 POP PUSH2 0x25F1 DUP2 PUSH2 0x350B JUMP JUMPDEST SWAP3 SWAP2 POP POP JUMP JUMPDEST PUSH1 0x0 DUP2 MLOAD SWAP1 POP PUSH2 0x2606 DUP2 PUSH2 0x350B JUMP JUMPDEST SWAP3 SWAP2 POP POP JUMP JUMPDEST PUSH1 0x0 PUSH1 0x20 DUP3 DUP5 SUB SLT ISZERO PUSH2 0x261E JUMPI PUSH1 0x0 DUP1 REVERT JUMPDEST PUSH1 0x0 PUSH2 0x262C DUP5 DUP3 DUP6 ADD PUSH2 0x23E1 JUMP JUMPDEST SWAP2 POP POP SWAP3 SWAP2 POP POP JUMP JUMPDEST PUSH1 0x0 DUP1 PUSH1 0x0 PUSH1 0x60 DUP5 DUP7 SUB SLT ISZERO PUSH2 0x264A JUMPI PUSH1 0x0 DUP1 REVERT JUMPDEST PUSH1 0x0 PUSH2 0x2658 DUP7 DUP3 DUP8 ADD PUSH2 0x2435 JUMP JUMPDEST SWAP4 POP POP PUSH1 0x20 DUP5 ADD CALLDATALOAD PUSH8 0xFFFFFFFFFFFFFFFF DUP2 GT ISZERO PUSH2 0x2675 JUMPI PUSH1 0x0 DUP1 REVERT JUMPDEST PUSH2 0x2681 DUP7 DUP3 DUP8 ADD PUSH2 0x2378 JUMP JUMPDEST SWAP3 POP POP PUSH1 0x40 PUSH2 0x2692 DUP7 DUP3 DUP8 ADD PUSH2 0x2420 JUMP JUMPDEST SWAP2 POP POP SWAP3 POP SWAP3 POP SWAP3 JUMP JUMPDEST PUSH1 0x0 DUP1 PUSH1 0x20 DUP4 DUP6 SUB SLT ISZERO PUSH2 0x26AF JUMPI PUSH1 0x0 DUP1 REVERT JUMPDEST PUSH1 0x0 DUP4 ADD CALLDATALOAD PUSH8 0xFFFFFFFFFFFFFFFF DUP2 GT ISZERO PUSH2 0x26C9 JUMPI PUSH1 0x0 DUP1 REVERT JUMPDEST PUSH2 0x26D5 DUP6 DUP3 DUP7 ADD PUSH2 0x244A JUMP JUMPDEST SWAP3 POP SWAP3 POP POP SWAP3 POP SWAP3 SWAP1 POP JUMP JUMPDEST PUSH1 0x0 DUP1 PUSH1 0x0 PUSH1 0x40 DUP5 DUP7 SUB SLT ISZERO PUSH2 0x26F6 JUMPI PUSH1 0x0 DUP1 REVERT JUMPDEST PUSH1 0x0 DUP5 ADD CALLDATALOAD PUSH8 0xFFFFFFFFFFFFFFFF DUP2 GT ISZERO PUSH2 0x2710 JUMPI PUSH1 0x0 DUP1 REVERT JUMPDEST PUSH2 0x271C DUP7 DUP3 DUP8 ADD PUSH2 0x244A JUMP JUMPDEST SWAP4 POP SWAP4 POP POP PUSH1 0x20 PUSH2 0x272F DUP7 DUP3 DUP8 ADD PUSH2 0x2435 JUMP JUMPDEST SWAP2 POP POP SWAP3 POP SWAP3 POP SWAP3 JUMP JUMPDEST PUSH1 0x0 DUP1 PUSH1 0x0 DUP1 PUSH1 0x40 DUP6 DUP8 SUB SLT ISZERO PUSH2 0x274F JUMPI PUSH1 0x0 DUP1 REVERT JUMPDEST PUSH1 0x0 DUP6 ADD CALLDATALOAD PUSH8 0xFFFFFFFFFFFFFFFF DUP2 GT ISZERO PUSH2 0x2769 JUMPI PUSH1 0x0 DUP1 REVERT JUMPDEST PUSH2 0x2775 DUP8 DUP3 DUP9 ADD PUSH2 0x244A JUMP JUMPDEST SWAP5 POP SWAP5 POP POP PUSH1 0x20 DUP6 ADD CALLDATALOAD PUSH8 0xFFFFFFFFFFFFFFFF DUP2 GT ISZERO PUSH2 0x2794 JUMPI PUSH1 0x0 DUP1 REVERT JUMPDEST PUSH2 0x27A0 DUP8 DUP3 DUP9 ADD PUSH2 0x244A JUMP JUMPDEST SWAP3 POP SWAP3 POP POP SWAP3 SWAP6 SWAP2 SWAP5 POP SWAP3 POP JUMP JUMPDEST PUSH1 0x0 PUSH1 0x20 DUP3 DUP5 SUB SLT ISZERO PUSH2 0x27C0 JUMPI PUSH1 0x0 DUP1 REVERT JUMPDEST PUSH1 0x0 DUP3 ADD CALLDATALOAD PUSH8 0xFFFFFFFFFFFFFFFF DUP2 GT ISZERO PUSH2 0x27DA JUMPI PUSH1 0x0 DUP1 REVERT JUMPDEST PUSH2 0x27E6 DUP5 DUP3 DUP6 ADD PUSH2 0x2494 JUMP JUMPDEST SWAP2 POP POP SWAP3 SWAP2 POP POP JUMP JUMPDEST PUSH1 0x0 PUSH1 0x20 DUP3 DUP5 SUB SLT ISZERO PUSH2 0x2801 JUMPI PUSH1 0x0 DUP1 REVERT JUMPDEST PUSH1 0x0 DUP3 ADD CALLDATALOAD PUSH8 0xFFFFFFFFFFFFFFFF DUP2 GT ISZERO PUSH2 0x281B JUMPI PUSH1 0x0 DUP1 REVERT JUMPDEST PUSH2 0x2827 DUP5 DUP3 DUP6 ADD PUSH2 0x24BE JUMP JUMPDEST SWAP2 POP POP SWAP3 SWAP2 POP POP JUMP JUMPDEST PUSH1 0x0 PUSH1 0x20 DUP3 DUP5 SUB SLT ISZERO PUSH2 0x2842 JUMPI PUSH1 0x0 DUP1 REVERT JUMPDEST PUSH1 0x0 PUSH2 0x2850 DUP5 DUP3 DUP6 ADD PUSH2 0x25E2 JUMP JUMPDEST SWAP2 POP POP SWAP3 SWAP2 POP POP JUMP JUMPDEST PUSH1 0x0 PUSH1 0x20 DUP3 DUP5 SUB SLT ISZERO PUSH2 0x286B JUMPI PUSH1 0x0 DUP1 REVERT JUMPDEST PUSH1 0x0 PUSH2 0x2879 DUP5 DUP3 DUP6 ADD PUSH2 0x25F7 JUMP JUMPDEST SWAP2 POP POP SWAP3 SWAP2 POP POP JUMP JUMPDEST PUSH1 0x0 DUP1 PUSH1 0x0 DUP1 PUSH1 0x0 DUP1 PUSH1 0xC0 DUP8 DUP10 SUB SLT ISZERO PUSH2 0x289B JUMPI PUSH1 0x0 DUP1 REVERT JUMPDEST PUSH1 0x0 PUSH2 0x28A9 DUP10 DUP3 DUP11 ADD PUSH2 0x25E2 JUMP JUMPDEST SWAP7 POP POP PUSH1 0x20 DUP8 ADD CALLDATALOAD PUSH8 0xFFFFFFFFFFFFFFFF DUP2 GT ISZERO PUSH2 0x28C6 JUMPI PUSH1 0x0 DUP1 REVERT JUMPDEST PUSH2 0x28D2 DUP10 DUP3 DUP11 ADD PUSH2 0x2494 JUMP JUMPDEST SWAP6 POP POP PUSH1 0x40 PUSH2 0x28E3 DUP10 DUP3 DUP11 ADD PUSH2 0x2363 JUMP JUMPDEST SWAP5 POP POP PUSH1 0x60 PUSH2 0x28F4 DUP10 DUP3 DUP11 ADD PUSH2 0x240B JUMP JUMPDEST SWAP4 POP POP PUSH1 0x80 DUP8 ADD CALLDATALOAD PUSH8 0xFFFFFFFFFFFFFFFF DUP2 GT ISZERO PUSH2 0x2911 JUMPI PUSH1 0x0 DUP1 REVERT JUMPDEST PUSH2 0x291D DUP10 DUP3 DUP11 ADD PUSH2 0x23A2 JUMP JUMPDEST SWAP3 POP POP PUSH1 0xA0 DUP8 ADD CALLDATALOAD PUSH8 0xFFFFFFFFFFFFFFFF DUP2 GT ISZERO PUSH2 0x293A JUMPI PUSH1 0x0 DUP1 REVERT JUMPDEST PUSH2 0x2946 DUP10 DUP3 DUP11 ADD PUSH2 0x23A2 JUMP JUMPDEST SWAP2 POP POP SWAP3 SWAP6 POP SWAP3 SWAP6 POP SWAP3 SWAP6 JUMP JUMPDEST PUSH1 0x0 DUP1 PUSH1 0x0 DUP1 PUSH1 0x0 DUP1 PUSH1 0x0 PUSH1 0xE0 DUP9 DUP11 SUB SLT ISZERO PUSH2 0x296E JUMPI PUSH1 0x0 DUP1 REVERT JUMPDEST PUSH1 0x0 PUSH2 0x297C DUP11 DUP3 DUP12 ADD PUSH2 0x25E2 JUMP JUMPDEST SWAP8 POP POP PUSH1 0x20 DUP9 ADD CALLDATALOAD PUSH8 0xFFFFFFFFFFFFFFFF DUP2 GT ISZERO PUSH2 0x2999 JUMPI PUSH1 0x0 DUP1 REVERT JUMPDEST PUSH2 0x29A5 DUP11 DUP3 DUP12 ADD PUSH2 0x2494 JUMP JUMPDEST SWAP7 POP POP PUSH1 0x40 PUSH2 0x29B6 DUP11 DUP3 DUP12 ADD PUSH2 0x2363 JUMP JUMPDEST SWAP6 POP POP PUSH1 0x60 PUSH2 0x29C7 DUP11 DUP3 DUP12 ADD PUSH2 0x240B JUMP JUMPDEST SWAP5 POP POP PUSH1 0x80 DUP9 ADD CALLDATALOAD PUSH8 0xFFFFFFFFFFFFFFFF DUP2 GT ISZERO PUSH2 0x29E4 JUMPI PUSH1 0x0 DUP1 REVERT JUMPDEST PUSH2 0x29F0 DUP11 DUP3 DUP12 ADD PUSH2 0x23A2 JUMP JUMPDEST SWAP4 POP POP PUSH1 0xA0 DUP9 ADD CALLDATALOAD PUSH8 0xFFFFFFFFFFFFFFFF DUP2 GT ISZERO PUSH2 0x2A0D JUMPI PUSH1 0x0 DUP1 REVERT JUMPDEST PUSH2 0x2A19 DUP11 DUP3 DUP12 ADD PUSH2 0x23A2 JUMP JUMPDEST SWAP3 POP POP PUSH1 0xC0 DUP9 ADD CALLDATALOAD PUSH8 0xFFFFFFFFFFFFFFFF DUP2 GT ISZERO PUSH2 0x2A36 JUMPI PUSH1 0x0 DUP1 REVERT JUMPDEST PUSH2 0x2A42 DUP11 DUP3 DUP12 ADD PUSH2 0x24BE JUMP JUMPDEST SWAP2 POP POP SWAP3 SWAP6 SWAP9 SWAP2 SWAP5 SWAP8 POP SWAP3 SWAP6 POP JUMP JUMPDEST PUSH1 0x0 PUSH2 0x2A5D DUP4 DUP4 PUSH2 0x2C20 JUMP JUMPDEST PUSH1 0x20 DUP4 ADD SWAP1 POP SWAP3 SWAP2 POP POP JUMP JUMPDEST PUSH1 0x0 PUSH2 0x2A75 DUP4 DUP4 PUSH2 0x2C54 JUMP JUMPDEST SWAP1 POP SWAP3 SWAP2 POP POP JUMP JUMPDEST PUSH1 0x0 PUSH2 0x2A89 DUP4 DUP4 PUSH2 0x2DF0 JUMP JUMPDEST PUSH1 0x20 DUP4 ADD SWAP1 POP SWAP3 SWAP2 POP POP JUMP JUMPDEST PUSH2 0x2A9E DUP2 PUSH2 0x3248 JUMP JUMPDEST DUP3 MSTORE POP POP JUMP JUMPDEST PUSH1 0x0 PUSH2 0x2AAF DUP3 PUSH2 0x312E JUMP JUMPDEST PUSH2 0x2AB9 DUP2 DUP6 PUSH2 0x3181 JUMP JUMPDEST SWAP4 POP PUSH2 0x2AC4 DUP4 PUSH2 0x30E9 JUMP JUMPDEST DUP1 PUSH1 0x0 JUMPDEST DUP4 DUP2 LT ISZERO PUSH2 0x2AF5 JUMPI DUP2 MLOAD PUSH2 0x2ADC DUP9 DUP3 PUSH2 0x2A51 JUMP JUMPDEST SWAP8 POP PUSH2 0x2AE7 DUP4 PUSH2 0x315A JUMP JUMPDEST SWAP3 POP POP PUSH1 0x1 DUP2 ADD SWAP1 POP PUSH2 0x2AC8 JUMP JUMPDEST POP DUP6 SWAP4 POP POP POP POP SWAP3 SWAP2 POP POP JUMP JUMPDEST PUSH1 0x0 PUSH2 0x2B0D DUP3 PUSH2 0x3139 JUMP JUMPDEST PUSH2 0x2B17 DUP2 DUP6 PUSH2 0x3192 JUMP JUMPDEST SWAP4 POP DUP4 PUSH1 0x20 DUP3 MUL DUP6 ADD PUSH2 0x2B29 DUP6 PUSH2 0x30F9 JUMP JUMPDEST DUP1 PUSH1 0x0 JUMPDEST DUP6 DUP2 LT ISZERO PUSH2 0x2B65 JUMPI DUP5 DUP5 SUB DUP10 MSTORE DUP2 MLOAD PUSH2 0x2B46 DUP6 DUP3 PUSH2 0x2A69 JUMP JUMPDEST SWAP5 POP PUSH2 0x2B51 DUP4 PUSH2 0x3167 JUMP JUMPDEST SWAP3 POP PUSH1 0x20 DUP11 ADD SWAP10 POP POP PUSH1 0x1 DUP2 ADD SWAP1 POP PUSH2 0x2B2D JUMP JUMPDEST POP DUP3 SWAP8 POP DUP8 SWAP6 POP POP POP POP POP POP SWAP3 SWAP2 POP POP JUMP JUMPDEST PUSH1 0x0 PUSH2 0x2B82 DUP3 PUSH2 0x3144 JUMP JUMPDEST PUSH2 0x2B8C DUP2 DUP6 PUSH2 0x31A3 JUMP JUMPDEST SWAP4 POP PUSH2 0x2B97 DUP4 PUSH2 0x3109 JUMP JUMPDEST DUP1 PUSH1 0x0 JUMPDEST DUP4 DUP2 LT ISZERO PUSH2 0x2BC8 JUMPI DUP2 MLOAD PUSH2 0x2BAF DUP9 DUP3 PUSH2 0x2A7D JUMP JUMPDEST SWAP8 POP PUSH2 0x2BBA DUP4 PUSH2 0x3174 JUMP JUMPDEST SWAP3 POP POP PUSH1 0x1 DUP2 ADD SWAP1 POP PUSH2 0x2B9B JUMP JUMPDEST POP DUP6 SWAP4 POP POP POP POP SWAP3 SWAP2 POP POP JUMP JUMPDEST PUSH2 0x2BDE DUP2 PUSH2 0x325A JUMP JUMPDEST DUP3 MSTORE POP POP JUMP JUMPDEST PUSH2 0x2BED DUP2 PUSH2 0x32C0 JUMP JUMPDEST DUP3 MSTORE POP POP JUMP JUMPDEST PUSH2 0x2BFC DUP2 PUSH2 0x32D2 JUMP JUMPDEST DUP3 MSTORE POP POP JUMP JUMPDEST PUSH2 0x2C0B DUP2 PUSH2 0x328C JUMP JUMPDEST DUP3 MSTORE POP POP JUMP JUMPDEST PUSH2 0x2C1A DUP2 PUSH2 0x328C JUMP JUMPDEST DUP3 MSTORE POP POP JUMP JUMPDEST PUSH2 0x2C29 DUP2 PUSH2 0x328C JUMP JUMPDEST DUP3 MSTORE POP POP JUMP JUMPDEST PUSH1 0x0 PUSH2 0x2C3B DUP4 DUP6 PUSH2 0x31E7 JUMP JUMPDEST SWAP4 POP PUSH2 0x2C48 DUP4 DUP6 DUP5 PUSH2 0x32E4 JUMP JUMPDEST DUP3 DUP5 ADD SWAP1 POP SWAP4 SWAP3 POP POP POP JUMP JUMPDEST PUSH1 0x0 PUSH2 0x2C5F DUP3 PUSH2 0x314F JUMP JUMPDEST PUSH2 0x2C69 DUP2 DUP6 PUSH2 0x31B4 JUMP JUMPDEST SWAP4 POP PUSH2 0x2C79 DUP2 DUP6 PUSH1 0x20 DUP7 ADD PUSH2 0x32F3 JUMP JUMPDEST PUSH2 0x2C82 DUP2 PUSH2 0x345D JUMP JUMPDEST DUP5 ADD SWAP2 POP POP SWAP3 SWAP2 POP POP JUMP JUMPDEST PUSH1 0x0 PUSH2 0x2C98 DUP3 PUSH2 0x314F JUMP JUMPDEST PUSH2 0x2CA2 DUP2 DUP6 PUSH2 0x31C5 JUMP JUMPDEST SWAP4 POP PUSH2 0x2CB2 DUP2 DUP6 PUSH1 0x20 DUP7 ADD PUSH2 0x32F3 JUMP JUMPDEST PUSH2 0x2CBB DUP2 PUSH2 0x345D JUMP JUMPDEST DUP5 ADD SWAP2 POP POP SWAP3 SWAP2 POP POP JUMP JUMPDEST PUSH1 0x0 PUSH2 0x2CD1 DUP3 PUSH2 0x314F JUMP JUMPDEST PUSH2 0x2CDB DUP2 DUP6 PUSH2 0x31D6 JUMP JUMPDEST SWAP4 POP PUSH2 0x2CEB DUP2 DUP6 PUSH1 0x20 DUP7 ADD PUSH2 0x32F3 JUMP JUMPDEST PUSH2 0x2CF4 DUP2 PUSH2 0x345D JUMP JUMPDEST DUP5 ADD SWAP2 POP POP SWAP3 SWAP2 POP POP JUMP JUMPDEST PUSH1 0x0 PUSH2 0x2D0A DUP3 PUSH2 0x314F JUMP JUMPDEST PUSH2 0x2D14 DUP2 DUP6 PUSH2 0x31E7 JUMP JUMPDEST SWAP4 POP PUSH2 0x2D24 DUP2 DUP6 PUSH1 0x20 DUP7 ADD PUSH2 0x32F3 JUMP JUMPDEST DUP1 DUP5 ADD SWAP2 POP POP SWAP3 SWAP2 POP POP JUMP JUMPDEST PUSH1 0x0 DUP2 SLOAD PUSH2 0x2D3D DUP2 PUSH2 0x3326 JUMP JUMPDEST PUSH2 0x2D47 DUP2 DUP7 PUSH2 0x31C5 JUMP JUMPDEST SWAP5 POP PUSH1 0x1 DUP3 AND PUSH1 0x0 DUP2 EQ PUSH2 0x2D62 JUMPI PUSH1 0x1 DUP2 EQ PUSH2 0x2D74 JUMPI PUSH2 0x2DA7 JUMP JUMPDEST PUSH1 0xFF NOT DUP4 AND DUP7 MSTORE PUSH1 0x20 DUP7 ADD SWAP4 POP PUSH2 0x2DA7 JUMP JUMPDEST PUSH2 0x2D7D DUP6 PUSH2 0x3119 JUMP JUMPDEST PUSH1 0x0 JUMPDEST DUP4 DUP2 LT ISZERO PUSH2 0x2D9F JUMPI DUP2 SLOAD DUP2 DUP10 ADD MSTORE PUSH1 0x1 DUP3 ADD SWAP2 POP PUSH1 0x20 DUP2 ADD SWAP1 POP PUSH2 0x2D80 JUMP JUMPDEST DUP1 DUP9 ADD SWAP6 POP POP POP JUMPDEST POP POP POP SWAP3 SWAP2 POP POP JUMP JUMPDEST PUSH1 0x0 PUSH2 0x2DBD PUSH1 0x20 DUP4 PUSH2 0x31C5 JUMP JUMPDEST SWAP2 POP PUSH32 0x50726F63657373205661726961626C65206973206E6F7420636F72726563742E PUSH1 0x0 DUP4 ADD MSTORE PUSH1 0x20 DUP3 ADD SWAP1 POP SWAP2 SWAP1 POP JUMP JUMPDEST PUSH2 0x2DF9 DUP2 PUSH2 0x32B6 JUMP JUMPDEST DUP3 MSTORE POP POP JUMP JUMPDEST PUSH2 0x2E08 DUP2 PUSH2 0x32B6 JUMP JUMPDEST DUP3 MSTORE POP POP JUMP JUMPDEST PUSH1 0x0 PUSH2 0x2E1B DUP3 DUP5 DUP7 PUSH2 0x2C2F JUMP JUMPDEST SWAP2 POP DUP2 SWAP1 POP SWAP4 SWAP3 POP POP POP JUMP JUMPDEST PUSH1 0x0 PUSH2 0x2E33 DUP3 DUP5 PUSH2 0x2CFF JUMP JUMPDEST SWAP2 POP DUP2 SWAP1 POP SWAP3 SWAP2 POP POP JUMP JUMPDEST PUSH1 0x0 PUSH1 0x20 DUP3 ADD SWAP1 POP DUP2 DUP2 SUB PUSH1 0x0 DUP4 ADD MSTORE PUSH2 0x2E58 DUP2 DUP5 PUSH2 0x2B02 JUMP JUMPDEST SWAP1 POP SWAP3 SWAP2 POP POP JUMP JUMPDEST PUSH1 0x0 PUSH1 0x20 DUP3 ADD SWAP1 POP DUP2 DUP2 SUB PUSH1 0x0 DUP4 ADD MSTORE PUSH2 0x2E7A DUP2 DUP5 PUSH2 0x2B77 JUMP JUMPDEST SWAP1 POP SWAP3 SWAP2 POP POP JUMP JUMPDEST PUSH1 0x0 PUSH1 0x20 DUP3 ADD SWAP1 POP PUSH2 0x2E97 PUSH1 0x0 DUP4 ADD DUP5 PUSH2 0x2BD5 JUMP JUMPDEST SWAP3 SWAP2 POP POP JUMP JUMPDEST PUSH1 0x0 PUSH1 0xC0 DUP3 ADD SWAP1 POP PUSH2 0x2EB2 PUSH1 0x0 DUP4 ADD DUP10 PUSH2 0x2BD5 JUMP JUMPDEST DUP2 DUP2 SUB PUSH1 0x20 DUP4 ADD MSTORE PUSH2 0x2EC4 DUP2 DUP9 PUSH2 0x2C8D JUMP JUMPDEST SWAP1 POP PUSH2 0x2ED3 PUSH1 0x40 DUP4 ADD DUP8 PUSH2 0x2A95 JUMP JUMPDEST PUSH2 0x2EE0 PUSH1 0x60 DUP4 ADD DUP7 PUSH2 0x2BE4 JUMP JUMPDEST DUP2 DUP2 SUB PUSH1 0x80 DUP4 ADD MSTORE PUSH2 0x2EF2 DUP2 DUP6 PUSH2 0x2B77 JUMP JUMPDEST SWAP1 POP DUP2 DUP2 SUB PUSH1 0xA0 DUP4 ADD MSTORE PUSH2 0x2F06 DUP2 DUP5 PUSH2 0x2B77 JUMP JUMPDEST SWAP1 POP SWAP8 SWAP7 POP POP POP POP POP POP POP JUMP JUMPDEST PUSH1 0x0 PUSH1 0x20 DUP3 ADD SWAP1 POP PUSH2 0x2F28 PUSH1 0x0 DUP4 ADD DUP5 PUSH2 0x2C02 JUMP JUMPDEST SWAP3 SWAP2 POP POP JUMP JUMPDEST PUSH1 0x0 PUSH1 0x60 DUP3 ADD SWAP1 POP PUSH2 0x2F43 PUSH1 0x0 DUP4 ADD DUP7 PUSH2 0x2C11 JUMP JUMPDEST DUP2 DUP2 SUB PUSH1 0x20 DUP4 ADD MSTORE PUSH2 0x2F55 DUP2 DUP6 PUSH2 0x2AA4 JUMP JUMPDEST SWAP1 POP PUSH2 0x2F64 PUSH1 0x40 DUP4 ADD DUP5 PUSH2 0x2BF3 JUMP JUMPDEST SWAP5 SWAP4 POP POP POP POP JUMP JUMPDEST PUSH1 0x0 PUSH1 0x20 DUP3 ADD SWAP1 POP DUP2 DUP2 SUB PUSH1 0x0 DUP4 ADD MSTORE PUSH2 0x2F86 DUP2 DUP5 PUSH2 0x2C8D JUMP JUMPDEST SWAP1 POP SWAP3 SWAP2 POP POP JUMP JUMPDEST PUSH1 0x0 PUSH1 0x60 DUP3 ADD SWAP1 POP DUP2 DUP2 SUB PUSH1 0x0 DUP4 ADD MSTORE PUSH2 0x2FA8 DUP2 DUP7 PUSH2 0x2CC6 JUMP JUMPDEST SWAP1 POP DUP2 DUP2 SUB PUSH1 0x20 DUP4 ADD MSTORE PUSH2 0x2FBC DUP2 DUP6 PUSH2 0x2CC6 JUMP JUMPDEST SWAP1 POP PUSH2 0x2FCB PUSH1 0x40 DUP4 ADD DUP5 PUSH2 0x2BF3 JUMP JUMPDEST SWAP5 SWAP4 POP POP POP POP JUMP JUMPDEST PUSH1 0x0 PUSH1 0x20 DUP3 ADD SWAP1 POP DUP2 DUP2 SUB PUSH1 0x0 DUP4 ADD MSTORE PUSH2 0x2FED DUP2 DUP5 PUSH2 0x2D30 JUMP JUMPDEST SWAP1 POP SWAP3 SWAP2 POP POP JUMP JUMPDEST PUSH1 0x0 PUSH1 0x20 DUP3 ADD SWAP1 POP DUP2 DUP2 SUB PUSH1 0x0 DUP4 ADD MSTORE PUSH2 0x300E DUP2 PUSH2 0x2DB0 JUMP JUMPDEST SWAP1 POP SWAP2 SWAP1 POP JUMP JUMPDEST PUSH1 0x0 PUSH1 0x20 DUP3 ADD SWAP1 POP PUSH2 0x302A PUSH1 0x0 DUP4 ADD DUP5 PUSH2 0x2DFF JUMP JUMPDEST SWAP3 SWAP2 POP POP JUMP JUMPDEST PUSH1 0x0 PUSH1 0x40 MLOAD SWAP1 POP DUP2 DUP2 ADD DUP2 DUP2 LT PUSH8 0xFFFFFFFFFFFFFFFF DUP3 GT OR ISZERO PUSH2 0x3057 JUMPI PUSH2 0x3056 PUSH2 0x342E JUMP JUMPDEST JUMPDEST DUP1 PUSH1 0x40 MSTORE POP SWAP2 SWAP1 POP JUMP JUMPDEST PUSH1 0x0 PUSH8 0xFFFFFFFFFFFFFFFF DUP3 GT ISZERO PUSH2 0x307C JUMPI PUSH2 0x307B PUSH2 0x342E JUMP JUMPDEST JUMPDEST PUSH1 0x20 DUP3 MUL SWAP1 POP PUSH1 0x20 DUP2 ADD SWAP1 POP SWAP2 SWAP1 POP JUMP JUMPDEST PUSH1 0x0 PUSH8 0xFFFFFFFFFFFFFFFF DUP3 GT ISZERO PUSH2 0x30A8 JUMPI PUSH2 0x30A7 PUSH2 0x342E JUMP JUMPDEST JUMPDEST PUSH1 0x20 DUP3 MUL SWAP1 POP PUSH1 0x20 DUP2 ADD SWAP1 POP SWAP2 SWAP1 POP JUMP JUMPDEST PUSH1 0x0 PUSH8 0xFFFFFFFFFFFFFFFF DUP3 GT ISZERO PUSH2 0x30D4 JUMPI PUSH2 0x30D3 PUSH2 0x342E JUMP JUMPDEST JUMPDEST PUSH1 0x1F NOT PUSH1 0x1F DUP4 ADD AND SWAP1 POP PUSH1 0x20 DUP2 ADD SWAP1 POP SWAP2 SWAP1 POP JUMP JUMPDEST PUSH1 0x0 DUP2 SWAP1 POP PUSH1 0x20 DUP3 ADD SWAP1 POP SWAP2 SWAP1 POP JUMP JUMPDEST PUSH1 0x0 DUP2 SWAP1 POP PUSH1 0x20 DUP3 ADD SWAP1 POP SWAP2 SWAP1 POP JUMP JUMPDEST PUSH1 0x0 DUP2 SWAP1 POP PUSH1 0x20 DUP3 ADD SWAP1 POP SWAP2 SWAP1 POP JUMP JUMPDEST PUSH1 0x0 DUP2 SWAP1 POP DUP2 PUSH1 0x0 MSTORE PUSH1 0x20 PUSH1 0x0 KECCAK256 SWAP1 POP SWAP2 SWAP1 POP JUMP JUMPDEST PUSH1 0x0 DUP2 MLOAD SWAP1 POP SWAP2 SWAP1 POP JUMP JUMPDEST PUSH1 0x0 DUP2 MLOAD SWAP1 POP SWAP2 SWAP1 POP JUMP JUMPDEST PUSH1 0x0 DUP2 MLOAD SWAP1 POP SWAP2 SWAP1 POP JUMP JUMPDEST PUSH1 0x0 DUP2 MLOAD SWAP1 POP SWAP2 SWAP1 POP JUMP JUMPDEST PUSH1 0x0 PUSH1 0x20 DUP3 ADD SWAP1 POP SWAP2 SWAP1 POP JUMP JUMPDEST PUSH1 0x0 PUSH1 0x20 DUP3 ADD SWAP1 POP SWAP2 SWAP1 POP JUMP JUMPDEST PUSH1 0x0 PUSH1 0x20 DUP3 ADD SWAP1 POP SWAP2 SWAP1 POP JUMP JUMPDEST PUSH1 0x0 DUP3 DUP3 MSTORE PUSH1 0x20 DUP3 ADD SWAP1 POP SWAP3 SWAP2 POP POP JUMP JUMPDEST PUSH1 0x0 DUP3 DUP3 MSTORE PUSH1 0x20 DUP3 ADD SWAP1 POP SWAP3 SWAP2 POP POP JUMP JUMPDEST PUSH1 0x0 DUP3 DUP3 MSTORE PUSH1 0x20 DUP3 ADD SWAP1 POP SWAP3 SWAP2 POP POP JUMP JUMPDEST PUSH1 0x0 DUP3 DUP3 MSTORE PUSH1 0x20 DUP3 ADD SWAP1 POP SWAP3 SWAP2 POP POP JUMP JUMPDEST PUSH1 0x0 DUP3 DUP3 MSTORE PUSH1 0x20 DUP3 ADD SWAP1 POP SWAP3 SWAP2 POP POP JUMP JUMPDEST PUSH1 0x0 DUP3 DUP3 MSTORE PUSH1 0x20 DUP3 ADD SWAP1 POP SWAP3 SWAP2 POP POP JUMP JUMPDEST PUSH1 0x0 DUP2 SWAP1 POP SWAP3 SWAP2 POP POP JUMP JUMPDEST PUSH1 0x0 PUSH2 0x31FD DUP3 PUSH2 0x32B6 JUMP JUMPDEST SWAP2 POP PUSH2 0x3208 DUP4 PUSH2 0x32B6 JUMP JUMPDEST SWAP3 POP DUP3 PUSH32 0xFFFFFFFFFFFFFFFFFFFFFFFFFFFFFFFFFFFFFFFFFFFFFFFFFFFFFFFFFFFFFFFF SUB DUP3 GT ISZERO PUSH2 0x323D JUMPI PUSH2 0x323C PUSH2 0x33A1 JUMP JUMPDEST JUMPDEST DUP3 DUP3 ADD SWAP1 POP SWAP3 SWAP2 POP POP JUMP JUMPDEST PUSH1 0x0 PUSH2 0x3253 DUP3 PUSH2 0x3296 JUMP JUMPDEST SWAP1 POP SWAP2 SWAP1 POP JUMP JUMPDEST PUSH1 0x0 DUP2 ISZERO ISZERO SWAP1 POP SWAP2 SWAP1 POP JUMP JUMPDEST PUSH1 0x0 DUP2 SWAP1 POP PUSH2 0x3274 DUP3 PUSH2 0x346E JUMP JUMPDEST SWAP2 SWAP1 POP JUMP JUMPDEST PUSH1 0x0 DUP2 SWAP1 POP PUSH2 0x3287 DUP3 PUSH2 0x3482 JUMP JUMPDEST SWAP2 SWAP1 POP JUMP JUMPDEST PUSH1 0x0 DUP2 SWAP1 POP SWAP2 SWAP1 POP JUMP JUMPDEST PUSH1 0x0 PUSH20 0xFFFFFFFFFFFFFFFFFFFFFFFFFFFFFFFFFFFFFFFF DUP3 AND SWAP1 POP SWAP2 SWAP1 POP JUMP JUMPDEST PUSH1 0x0 DUP2 SWAP1 POP SWAP2 SWAP1 POP JUMP JUMPDEST PUSH1 0x0 PUSH2 0x32CB DUP3 PUSH2 0x3266 JUMP JUMPDEST SWAP1 POP SWAP2 SWAP1 POP JUMP JUMPDEST PUSH1 0x0 PUSH2 0x32DD DUP3 PUSH2 0x3279 JUMP JUMPDEST SWAP1 POP SWAP2 SWAP1 POP JUMP JUMPDEST DUP3 DUP2 DUP4 CALLDATACOPY PUSH1 0x0 DUP4 DUP4 ADD MSTORE POP POP POP JUMP JUMPDEST PUSH1 0x0 JUMPDEST DUP4 DUP2 LT ISZERO PUSH2 0x3311 JUMPI DUP1 DUP3 ADD MLOAD DUP2 DUP5 ADD MSTORE PUSH1 0x20 DUP2 ADD SWAP1 POP PUSH2 0x32F6 JUMP JUMPDEST DUP4 DUP2 GT ISZERO PUSH2 0x3320 JUMPI PUSH1 0x0 DUP5 DUP5 ADD MSTORE JUMPDEST POP POP POP POP JUMP JUMPDEST PUSH1 0x0 PUSH1 0x2 DUP3 DIV SWAP1 POP PUSH1 0x1 DUP3 AND DUP1 PUSH2 0x333E JUMPI PUSH1 0x7F DUP3 AND SWAP2 POP JUMPDEST PUSH1 0x20 DUP3 LT DUP2 EQ ISZERO PUSH2 0x3352 JUMPI PUSH2 0x3351 PUSH2 0x33FF JUMP JUMPDEST JUMPDEST POP SWAP2 SWAP1 POP JUMP JUMPDEST PUSH1 0x0 PUSH2 0x3363 DUP3 PUSH2 0x32B6 JUMP JUMPDEST SWAP2 POP PUSH32 0xFFFFFFFFFFFFFFFFFFFFFFFFFFFFFFFFFFFFFFFFFFFFFFFFFFFFFFFFFFFFFFFF DUP3 EQ ISZERO PUSH2 0x3396 JUMPI PUSH2 0x3395 PUSH2 0x33A1 JUMP JUMPDEST JUMPDEST PUSH1 0x1 DUP3 ADD SWAP1 POP SWAP2 SWAP1 POP JUMP JUMPDEST PUSH32 0x4E487B7100000000000000000000000000000000000000000000000000000000 PUSH1 0x0 MSTORE PUSH1 0x11 PUSH1 0x4 MSTORE PUSH1 0x24 PUSH1 0x0 REVERT JUMPDEST PUSH32 0x4E487B7100000000000000000000000000000000000000000000000000000000 PUSH1 0x0 MSTORE PUSH1 0x21 PUSH1 0x4 MSTORE PUSH1 0x24 PUSH1 0x0 REVERT JUMPDEST PUSH32 0x4E487B7100000000000000000000000000000000000000000000000000000000 PUSH1 0x0 MSTORE PUSH1 0x22 PUSH1 0x4 MSTORE PUSH1 0x24 PUSH1 0x0 REVERT JUMPDEST PUSH32 0x4E487B7100000000000000000000000000000000000000000000000000000000 PUSH1 0x0 MSTORE PUSH1 0x41 PUSH1 0x4 MSTORE PUSH1 0x24 PUSH1 0x0 REVERT JUMPDEST PUSH1 0x0 PUSH1 0x1F NOT PUSH1 0x1F DUP4 ADD AND SWAP1 POP SWAP2 SWAP1 POP JUMP JUMPDEST PUSH1 0x4 DUP2 LT PUSH2 0x347F JUMPI PUSH2 0x347E PUSH2 0x33D0 JUMP JUMPDEST JUMPDEST POP JUMP JUMPDEST PUSH1 0x7 DUP2 LT PUSH2 0x3493 JUMPI PUSH2 0x3492 PUSH2 0x33D0 JUMP JUMPDEST JUMPDEST POP JUMP JUMPDEST PUSH2 0x349F DUP2 PUSH2 0x3248 JUMP JUMPDEST DUP2 EQ PUSH2 0x34AA JUMPI PUSH1 0x0 DUP1 REVERT JUMPDEST POP JUMP JUMPDEST PUSH2 0x34B6 DUP2 PUSH2 0x325A JUMP JUMPDEST DUP2 EQ PUSH2 0x34C1 JUMPI PUSH1 0x0 DUP1 REVERT JUMPDEST POP JUMP JUMPDEST PUSH1 0x3 DUP2 LT PUSH2 0x34D1 JUMPI PUSH1 0x0 DUP1 REVERT JUMPDEST POP JUMP JUMPDEST PUSH1 0x4 DUP2 LT PUSH2 0x34E1 JUMPI PUSH1 0x0 DUP1 REVERT JUMPDEST POP JUMP JUMPDEST PUSH1 0x7 DUP2 LT PUSH2 0x34F1 JUMPI PUSH1 0x0 DUP1 REVERT JUMPDEST POP JUMP JUMPDEST PUSH2 0x34FD DUP2 PUSH2 0x328C JUMP JUMPDEST DUP2 EQ PUSH2 0x3508 JUMPI PUSH1 0x0 DUP1 REVERT JUMPDEST POP JUMP JUMPDEST PUSH2 0x3514 DUP2 PUSH2 0x32B6 JUMP JUMPDEST DUP2 EQ PUSH2 0x351F JUMPI PUSH1 0x0 DUP1 REVERT JUMPDEST POP JUMP INVALID LOG2 PUSH5 0x6970667358 0x22 SLT KECCAK256 0x5C 0x2F PUSH12 0x3FD31FEC498ABA38DA3B18D1 0x48 BLOCKHASH 0xE9 0xC5 DUP10 SWAP6 NOT PUSH1 0xFF SMOD 0xC0 0x28 0xF DUP10 PUSH6 0x44A064736F6C PUSH4 0x43000800 STOP CALLER "},"gasEstimates":{"creation":{"codeDepositCost":"2731200","executionCost":"2969","totalCost":"2734169"},"external":{"completing(uint256)":"infinite","createTask(uint256,string,address,uint8,uint256[],uint256[])":"infinite","createTaskWithDecision(uint256,string,address,uint8,uint256[],uint256[],(uint256,uint8,uint8,bool,bool,uint8,string,string,int256[]))":"infinite","debugStringeventLog(uint256)":"infinite","decisionTest()":"infinite","evaluateDecision((uint256,uint8,uint8,bool,bool,uint8,string,string,int256[]))":"infinite","evaluateTest(int256,int256[],uint8)":"infinite","getDebugStringeventLog()":"infinite","getIntProcessVariableValue(string)":"infinite","getLog()":"infinite","getTaskById(uint256)":"infinite","integer_processVariables(string)":"infinite","isTaskCompletedById(uint256)":"1667","string_processVariables(string)":"infinite","theRealEventLog(uint256)":"infinite","updateIntProcessVariable(string,int256)":"infinite","updateStringProcessVariable(string,string)":"infinite"}},"methodIdentifiers":{"completing(uint256)":"993c0410","createTask(uint256,string,address,uint8,uint256[],uint256[])":"307ed4be","createTaskWithDecision(uint256,string,address,uint8,uint256[],uint256[],(uint256,uint8,uint8,bool,bool,uint8,string,string,int256[]))":"c7b1ee06","debugStringeventLog(uint256)":"61ea18df","decisionTest()":"71c56f9b","evaluateDecision((uint256,uint8,uint8,bool,bool,uint8,string,string,int256[]))":"06470433","evaluateTest(int256,int256[],uint8)":"a7c1eb90","getDebugStringeventLog()":"4d60f651","getIntProcessVariableValue(string)":"897a3e27","getLog()":"909e4ab6","getTaskById(uint256)":"976217cd","integer_processVariables(string)":"38624725","isTaskCompletedById(uint256)":"9849cee9","string_processVariables(string)":"b8c56cae","theRealEventLog(uint256)":"95794157","updateIntProcessVariable(string,int256)":"38b7b6f0","updateStringProcessVariable(string,string)":"fe9620c9"}},"storageLayout":{"storage":[{"astId":31,"contract":"BasicEnzian.sol:BasicEnzian","label":"tasks","offset":0,"slot":"0","type":"t_mapping(t_uint256,t_struct(Task)26_storage)"},{"astId":66,"contract":"BasicEnzian.sol:BasicEnzian","label":"integer_processVariables","offset":0,"slot":"1","type":"t_mapping(t_string_memory_ptr,t_int256)"},{"astId":70,"contract":"BasicEnzian.sol:BasicEnzian","label":"string_processVariables","offset":0,"slot":"2","type":"t_mapping(t_string_memory_ptr,t_string_storage)"},{"astId":73,"contract":"BasicEnzian.sol:BasicEnzian","label":"theRealEventLog","offset":0,"slot":"3","type":"t_array(t_uint256)dyn_storage"},{"astId":85,"contract":"BasicEnzian.sol:BasicEnzian","label":"debugStringeventLog","offset":0,"slot":"4","type":"t_array(t_string_storage)dyn_storage"}],"types":{"t_address":{"encoding":"inplace","label":"address","numberOfBytes":"20"},"t_array(t_int256)dyn_storage":{"base":"t_int256","encoding":"dynamic_array","label":"int256[]","numberOfBytes":"32"},"t_array(t_string_storage)dyn_storage":{"base":"t_string_storage","encoding":"dynamic_array","label":"string[]","numberOfBytes":"32"},"t_array(t_uint256)dyn_storage":{"base":"t_uint256","encoding":"dynamic_array","label":"uint256[]","numberOfBytes":"32"},"t_bool":{"encoding":"inplace","label":"bool","numberOfBytes":"1"},"t_enum(DecisionType)39":{"encoding":"inplace","label":"enum BasicEnzian.DecisionType","numberOfBytes":"1"},"t_enum(GatewayType)7":{"encoding":"inplace","label":"enum BasicEnzian.GatewayType","numberOfBytes":"1"},"t_enum(Operator)643":{"encoding":"inplace","label":"enum DecisionLibrary.Operator","numberOfBytes":"1"},"t_int256":{"encoding":"inplace","label":"int256","numberOfBytes":"32"},"t_mapping(t_string_memory_ptr,t_int256)":{"encoding":"mapping","key":"t_string_memory_ptr","label":"mapping(string => int256)","numberOfBytes":"32","value":"t_int256"},"t_mapping(t_string_memory_ptr,t_string_storage)":{"encoding":"mapping","key":"t_string_memory_ptr","label":"mapping(string => string)","numberOfBytes":"32","value":"t_string_storage"},"t_mapping(t_uint256,t_struct(Task)26_storage)":{"encoding":"mapping","key":"t_uint256","label":"mapping(uint256 => struct BasicEnzian.Task)","numberOfBytes":"32","value":"t_struct(Task)26_storage"},"t_string_memory_ptr":{"encoding":"bytes","label":"string","numberOfBytes":"32"},"t_string_storage":{"encoding":"bytes","label":"string","numberOfBytes":"32"},"t_struct(Decision)62_storage":{"encoding":"inplace","label":"struct BasicEnzian.Decision","members":[{"astId":41,"contract":"BasicEnzian.sol:BasicEnzian","label":"endBoss","offset":0,"slot":"0","type":"t_uint256"},{"astId":44,"contract":"BasicEnzian.sol:BasicEnzian","label":"gatewaytype","offset":0,"slot":"1","type":"t_enum(GatewayType)7"},{"astId":47,"contract":"BasicEnzian.sol:BasicEnzian","label":"type_","offset":1,"slot":"1","type":"t_enum(DecisionType)39"},{"astId":49,"contract":"BasicEnzian.sol:BasicEnzian","label":"completed","offset":2,"slot":"1","type":"t_bool"},{"astId":51,"contract":"BasicEnzian.sol:BasicEnzian","label":"exists","offset":3,"slot":"1","type":"t_bool"},{"astId":54,"contract":"BasicEnzian.sol:BasicEnzian","label":"operator","offset":4,"slot":"1","type":"t_enum(Operator)643"},{"astId":56,"contract":"BasicEnzian.sol:BasicEnzian","label":"processVariable","offset":0,"slot":"2","type":"t_string_storage"},{"astId":58,"contract":"BasicEnzian.sol:BasicEnzian","label":"s_value","offset":0,"slot":"3","type":"t_string_storage"},{"astId":61,"contract":"BasicEnzian.sol:BasicEnzian","label":"i_value","offset":0,"slot":"4","type":"t_array(t_int256)dyn_storage"}],"numberOfBytes":"160"},"t_struct(Task)26_storage":{"encoding":"inplace","label":"struct BasicEnzian.Task","members":[{"astId":9,"contract":"BasicEnzian.sol:BasicEnzian","label":"activity","offset":0,"slot":"0","type":"t_string_storage"},{"astId":11,"contract":"BasicEnzian.sol:BasicEnzian","label":"taskresource","offset":0,"slot":"1","type":"t_address"},{"astId":13,"contract":"BasicEnzian.sol:BasicEnzian","label":"completed","offset":20,"slot":"1","type":"t_bool"},{"astId":16,"contract":"BasicEnzian.sol:BasicEnzian","label":"preceedingMergingGateway","offset":21,"slot":"1","type":"t_enum(GatewayType)7"},{"astId":19,"contract":"BasicEnzian.sol:BasicEnzian","label":"requirements","offset":0,"slot":"2","type":"t_array(t_uint256)dyn_storage"},{"astId":22,"contract":"BasicEnzian.sol:BasicEnzian","label":"competitors","offset":0,"slot":"3","type":"t_array(t_uint256)dyn_storage"},{"astId":25,"contract":"BasicEnzian.sol:BasicEnzian","label":"decision","offset":0,"slot":"4","type":"t_struct(Decision)62_storage"}],"numberOfBytes":"288"},"t_uint256":{"encoding":"inplace","label":"uint256","numberOfBytes":"32"}}},"userdoc":{"kind":"user","methods":{},"version":1}}