{"abi":[{"anonymous":false,"inputs":[{"indexed":true,"internalType":"bool","name":"success","type":"bool"}],"name":"TaskCompleted","type":"event"},{"inputs":[{"internalType":"uint256","name":"taskId","type":"uint256"},{"internalType":"enum BasicEnzian.GatewayType","name":"_gatewaytype","type":"uint8"},{"internalType":"enum BasicEnzian.DecisionType","name":"_type","type":"uint8"},{"internalType":"enum BasicEnzian.Operator","name":"_op","type":"uint8"},{"components":[{"internalType":"uint256","name":"idtoglobalintegerpayload","type":"uint256"},{"internalType":"uint256[]","name":"local","type":"uint256[]"}],"internalType":"struct BasicEnzian.IntegerOperants","name":"_intoperants","type":"tuple"}],"name":"addDecisionToTask","outputs":[{"internalType":"bool","name":"success","type":"bool"}],"stateMutability":"nonpayable","type":"function"},{"inputs":[{"internalType":"uint256","name":"taskId","type":"uint256"}],"name":"completing","outputs":[{"internalType":"bool","name":"success","type":"bool"}],"stateMutability":"nonpayable","type":"function"},{"inputs":[{"internalType":"uint256","name":"_id","type":"uint256"},{"internalType":"string","name":"_activity","type":"string"},{"internalType":"address","name":"_taskresource","type":"address"},{"internalType":"enum BasicEnzian.GatewayType","name":"_pmg","type":"uint8"},{"internalType":"uint256[]","name":"_requirements","type":"uint256[]"},{"internalType":"uint256[]","name":"_competitors","type":"uint256[]"}],"name":"createTask","outputs":[],"stateMutability":"nonpayable","type":"function"},{"inputs":[{"internalType":"uint256","name":"_id","type":"uint256"},{"internalType":"string","name":"_activity","type":"string"},{"internalType":"address","name":"_taskresource","type":"address"},{"internalType":"enum BasicEnzian.GatewayType","name":"_pmg","type":"uint8"},{"internalType":"uint256[]","name":"_requirements","type":"uint256[]"},{"internalType":"uint256[]","name":"_competitors","type":"uint256[]"},{"components":[{"internalType":"uint256","name":"endBoss","type":"uint256"},{"internalType":"enum BasicEnzian.GatewayType","name":"gatewaytype","type":"uint8"},{"internalType":"enum BasicEnzian.DecisionType","name":"typ","type":"uint8"},{"internalType":"bool","name":"completed","type":"bool"},{"internalType":"bool","name":"exists","type":"bool"},{"internalType":"enum BasicEnzian.Operator","name":"operator","type":"uint8"},{"components":[{"internalType":"uint256","name":"idtoglobalintegerpayload","type":"uint256"},{"internalType":"uint256[]","name":"local","type":"uint256[]"}],"internalType":"struct BasicEnzian.IntegerOperants","name":"integeroperants","type":"tuple"},{"components":[{"internalType":"uint256","name":"idtoglobalstringpayload","type":"uint256"},{"internalType":"string","name":"local","type":"string"}],"internalType":"struct BasicEnzian.StringOperants","name":"stringoperants","type":"tuple"}],"internalType":"struct BasicEnzian.Decision","name":"_decision","type":"tuple"}],"name":"createTaskWithDecision","outputs":[],"stateMutability":"nonpayable","type":"function"},{"inputs":[{"internalType":"uint256","name":"","type":"uint256"}],"name":"debugStringeventLog","outputs":[{"internalType":"string","name":"","type":"string"}],"stateMutability":"view","type":"function"},{"inputs":[],"name":"decisionTest","outputs":[{"internalType":"uint256","name":"drei","type":"uint256"}],"stateMutability":"pure","type":"function"},{"inputs":[],"name":"getDebugStringeventLog","outputs":[{"internalType":"string[]","name":"theevents","type":"string[]"}],"stateMutability":"view","type":"function"},{"inputs":[],"name":"getLog","outputs":[{"internalType":"uint256[]","name":"theevents","type":"uint256[]"}],"stateMutability":"view","type":"function"},{"inputs":[{"internalType":"uint256","name":"_id","type":"uint256"}],"name":"getTaskById","outputs":[{"internalType":"bool","name":"status","type":"bool"},{"internalType":"string","name":"description","type":"string"},{"internalType":"address","name":"taskresource","type":"address"},{"internalType":"enum BasicEnzian.GatewayType","name":"gateway","type":"uint8"},{"internalType":"uint256[]","name":"requirements","type":"uint256[]"},{"internalType":"uint256[]","name":"competitors","type":"uint256[]"}],"stateMutability":"view","type":"function"},{"inputs":[{"internalType":"uint256","name":"_id","type":"uint256"}],"name":"isTaskCompletedById","outputs":[{"internalType":"bool","name":"success","type":"bool"}],"stateMutability":"view","type":"function"},{"inputs":[{"internalType":"uint256","name":"","type":"uint256"}],"name":"theRealEventLog","outputs":[{"internalType":"uint256","name":"","type":"uint256"}],"stateMutability":"view","type":"function"}],"devdoc":{"kind":"dev","methods":{},"version":1},"evm":{"assembly":"    /* \"BasicEnzian.sol\":61:8920  contract BasicEnzian {\r... */\n  mstore(0x40, 0x80)\n  callvalue\n  dup1\n  iszero\n  tag_1\n  jumpi\n  0x00\n  dup1\n  revert\ntag_1:\n  pop\n  dataSize(sub_0)\n  dup1\n  dataOffset(sub_0)\n  0x00\n  codecopy\n  0x00\n  return\nstop\n\nsub_0: assembly {\n        /* \"BasicEnzian.sol\":61:8920  contract BasicEnzian {\r... */\n      mstore(0x40, 0x80)\n      callvalue\n      dup1\n      iszero\n      tag_1\n      jumpi\n      0x00\n      dup1\n      revert\n    tag_1:\n      pop\n      jumpi(tag_2, lt(calldatasize, 0x04))\n      shr(0xe0, calldataload(0x00))\n      dup1\n      0x71c56f9b\n      gt\n      tag_14\n      jumpi\n      dup1\n      0x71c56f9b\n      eq\n      tag_8\n      jumpi\n      dup1\n      0x909e4ab6\n      eq\n      tag_9\n      jumpi\n      dup1\n      0x95794157\n      eq\n      tag_10\n      jumpi\n      dup1\n      0x976217cd\n      eq\n      tag_11\n      jumpi\n      dup1\n      0x9849cee9\n      eq\n      tag_12\n      jumpi\n      dup1\n      0x993c0410\n      eq\n      tag_13\n      jumpi\n      jump(tag_2)\n    tag_14:\n      dup1\n      0x301e26f4\n      eq\n      tag_3\n      jumpi\n      dup1\n      0x307ed4be\n      eq\n      tag_4\n      jumpi\n      dup1\n      0x4c88bf2f\n      eq\n      tag_5\n      jumpi\n      dup1\n      0x4d60f651\n      eq\n      tag_6\n      jumpi\n      dup1\n      0x61ea18df\n      eq\n      tag_7\n      jumpi\n    tag_2:\n      0x00\n      dup1\n      revert\n        /* \"BasicEnzian.sol\":3246:3936  function createTaskWithDecision(\r... */\n    tag_3:\n      tag_15\n      0x04\n      dup1\n      calldatasize\n      sub\n      dup2\n      add\n      swap1\n      tag_16\n      swap2\n      swap1\n      tag_17\n      jump\t// in\n    tag_16:\n      tag_18\n      jump\t// in\n    tag_15:\n      stop\n        /* \"BasicEnzian.sol\":2074:2676  function createTask(\r... */\n    tag_4:\n      tag_19\n      0x04\n      dup1\n      calldatasize\n      sub\n      dup2\n      add\n      swap1\n      tag_20\n      swap2\n      swap1\n      tag_21\n      jump\t// in\n    tag_20:\n      tag_22\n      jump\t// in\n    tag_19:\n      stop\n        /* \"BasicEnzian.sol\":2688:3221  function addDecisionToTask(\r... */\n    tag_5:\n      tag_23\n      0x04\n      dup1\n      calldatasize\n      sub\n      dup2\n      add\n      swap1\n      tag_24\n      swap2\n      swap1\n      tag_25\n      jump\t// in\n    tag_24:\n      tag_26\n      jump\t// in\n    tag_23:\n      mload(0x40)\n      tag_27\n      swap2\n      swap1\n      tag_28\n      jump\t// in\n    tag_27:\n      mload(0x40)\n      dup1\n      swap2\n      sub\n      swap1\n      return\n        /* \"BasicEnzian.sol\":1795:1921  function getDebugStringeventLog() public view returns(string[] memory theevents) {\r... */\n    tag_6:\n      tag_29\n      tag_30\n      jump\t// in\n    tag_29:\n      mload(0x40)\n      tag_31\n      swap2\n      swap1\n      tag_32\n      jump\t// in\n    tag_31:\n      mload(0x40)\n      dup1\n      swap2\n      sub\n      swap1\n      return\n        /* \"BasicEnzian.sol\":1753:1788  string[] public debugStringeventLog */\n    tag_7:\n      tag_33\n      0x04\n      dup1\n      calldatasize\n      sub\n      dup2\n      add\n      swap1\n      tag_34\n      swap2\n      swap1\n      tag_35\n      jump\t// in\n    tag_34:\n      tag_36\n      jump\t// in\n    tag_33:\n      mload(0x40)\n      tag_37\n      swap2\n      swap1\n      tag_38\n      jump\t// in\n    tag_37:\n      mload(0x40)\n      dup1\n      swap2\n      sub\n      swap1\n      return\n        /* \"BasicEnzian.sol\":8778:8915  function decisionTest() public pure returns(uint drei) {\r... */\n    tag_8:\n      tag_39\n      tag_40\n      jump\t// in\n    tag_39:\n      mload(0x40)\n      tag_41\n      swap2\n      swap1\n      tag_42\n      jump\t// in\n    tag_41:\n      mload(0x40)\n      dup1\n      swap2\n      sub\n      swap1\n      return\n        /* \"BasicEnzian.sol\":1549:1653  function getLog() public view returns(uint[] memory theevents) {\r... */\n    tag_9:\n      tag_43\n      tag_44\n      jump\t// in\n    tag_43:\n      mload(0x40)\n      tag_45\n      swap2\n      swap1\n      tag_46\n      jump\t// in\n    tag_45:\n      mload(0x40)\n      dup1\n      swap2\n      sub\n      swap1\n      return\n        /* \"BasicEnzian.sol\":1513:1542  uint[] public theRealEventLog */\n    tag_10:\n      tag_47\n      0x04\n      dup1\n      calldatasize\n      sub\n      dup2\n      add\n      swap1\n      tag_48\n      swap2\n      swap1\n      tag_35\n      jump\t// in\n    tag_48:\n      tag_49\n      jump\t// in\n    tag_47:\n      mload(0x40)\n      tag_50\n      swap2\n      swap1\n      tag_42\n      jump\t// in\n    tag_50:\n      mload(0x40)\n      dup1\n      swap2\n      sub\n      swap1\n      return\n        /* \"BasicEnzian.sol\":8373:8770  function getTaskById(uint _id) public view returns (bool status,\r... */\n    tag_11:\n      tag_51\n      0x04\n      dup1\n      calldatasize\n      sub\n      dup2\n      add\n      swap1\n      tag_52\n      swap2\n      swap1\n      tag_35\n      jump\t// in\n    tag_52:\n      tag_53\n      jump\t// in\n    tag_51:\n      mload(0x40)\n      tag_54\n      swap7\n      swap6\n      swap5\n      swap4\n      swap3\n      swap2\n      swap1\n      tag_55\n      jump\t// in\n    tag_54:\n      mload(0x40)\n      dup1\n      swap2\n      sub\n      swap1\n      return\n        /* \"BasicEnzian.sol\":8145:8268  function isTaskCompletedById(uint _id) public view returns (bool success){\r... */\n    tag_12:\n      tag_56\n      0x04\n      dup1\n      calldatasize\n      sub\n      dup2\n      add\n      swap1\n      tag_57\n      swap2\n      swap1\n      tag_35\n      jump\t// in\n    tag_57:\n      tag_58\n      jump\t// in\n    tag_56:\n      mload(0x40)\n      tag_59\n      swap2\n      swap1\n      tag_28\n      jump\t// in\n    tag_59:\n      mload(0x40)\n      dup1\n      swap2\n      sub\n      swap1\n      return\n        /* \"BasicEnzian.sol\":4048:7250  function completing(uint taskId) public returns (bool success){\r... */\n    tag_13:\n      tag_60\n      0x04\n      dup1\n      calldatasize\n      sub\n      dup2\n      add\n      swap1\n      tag_61\n      swap2\n      swap1\n      tag_35\n      jump\t// in\n    tag_61:\n      tag_62\n      jump\t// in\n    tag_60:\n      mload(0x40)\n      tag_63\n      swap2\n      swap1\n      tag_28\n      jump\t// in\n    tag_63:\n      mload(0x40)\n      dup1\n      swap2\n      sub\n      swap1\n      return\n        /* \"BasicEnzian.sol\":3246:3936  function createTaskWithDecision(\r... */\n    tag_18:\n        /* \"BasicEnzian.sol\":3564:3584  Task memory myStruct */\n      tag_65\n      tag_66\n      jump\t// in\n    tag_65:\n        /* \"BasicEnzian.sol\":3615:3624  _activity */\n      dup7\n        /* \"BasicEnzian.sol\":3595:3603  myStruct */\n      dup2\n        /* \"BasicEnzian.sol\":3595:3612  myStruct.activity */\n      0x00\n      add\n        /* \"BasicEnzian.sol\":3595:3624  myStruct.activity = _activity */\n      dup2\n      swap1\n      mstore\n      pop\n        /* \"BasicEnzian.sol\":3659:3672  _taskresource */\n      dup6\n        /* \"BasicEnzian.sol\":3635:3643  myStruct */\n      dup2\n        /* \"BasicEnzian.sol\":3635:3656  myStruct.taskresource */\n      0x20\n      add\n        /* \"BasicEnzian.sol\":3635:3672  myStruct.taskresource = _taskresource */\n      swap1\n      0xffffffffffffffffffffffffffffffffffffffff\n      and\n      swap1\n      dup2\n      0xffffffffffffffffffffffffffffffffffffffff\n      and\n      dup2\n      mstore\n      pop\n      pop\n        /* \"BasicEnzian.sol\":3704:3709  false */\n      0x00\n        /* \"BasicEnzian.sol\":3683:3691  myStruct */\n      dup2\n        /* \"BasicEnzian.sol\":3683:3701  myStruct.completed */\n      0x40\n      add\n        /* \"BasicEnzian.sol\":3683:3709  myStruct.completed = false */\n      swap1\n      iszero\n      iszero\n      swap1\n      dup2\n      iszero\n      iszero\n      dup2\n      mstore\n      pop\n      pop\n        /* \"BasicEnzian.sol\":3756:3760  _pmg */\n      dup5\n        /* \"BasicEnzian.sol\":3720:3728  myStruct */\n      dup2\n        /* \"BasicEnzian.sol\":3720:3753  myStruct.preceedingMergingGateway */\n      0x60\n      add\n        /* \"BasicEnzian.sol\":3720:3760  myStruct.preceedingMergingGateway = _pmg */\n      swap1\n      0x03\n      dup2\n      gt\n      iszero\n      tag_67\n      jumpi\n      mstore(0x00, 0x4e487b7100000000000000000000000000000000000000000000000000000000)\n      mstore(0x04, 0x21)\n      revert(0x00, 0x24)\n    tag_67:\n      swap1\n      dup2\n      0x03\n      dup2\n      gt\n      iszero\n      tag_68\n      jumpi\n      mstore(0x00, 0x4e487b7100000000000000000000000000000000000000000000000000000000)\n      mstore(0x04, 0x21)\n      revert(0x00, 0x24)\n    tag_68:\n      dup2\n      mstore\n      pop\n      pop\n        /* \"BasicEnzian.sol\":3795:3808  _requirements */\n      dup4\n        /* \"BasicEnzian.sol\":3771:3779  myStruct */\n      dup2\n        /* \"BasicEnzian.sol\":3771:3792  myStruct.requirements */\n      0x80\n      add\n        /* \"BasicEnzian.sol\":3771:3808  myStruct.requirements = _requirements */\n      dup2\n      swap1\n      mstore\n      pop\n        /* \"BasicEnzian.sol\":3842:3854  _competitors */\n      dup3\n        /* \"BasicEnzian.sol\":3819:3827  myStruct */\n      dup2\n        /* \"BasicEnzian.sol\":3819:3839  myStruct.competitors */\n      0xa0\n      add\n        /* \"BasicEnzian.sol\":3819:3854  myStruct.competitors = _competitors */\n      dup2\n      swap1\n      mstore\n      pop\n        /* \"BasicEnzian.sol\":3885:3894  _decision */\n      dup2\n        /* \"BasicEnzian.sol\":3865:3873  myStruct */\n      dup2\n        /* \"BasicEnzian.sol\":3865:3882  myStruct.decision */\n      0xc0\n      add\n        /* \"BasicEnzian.sol\":3865:3894  myStruct.decision = _decision */\n      dup2\n      swap1\n      mstore\n      pop\n        /* \"BasicEnzian.sol\":3919:3927  myStruct */\n      dup1\n        /* \"BasicEnzian.sol\":3905:3910  tasks */\n      0x00\n        /* \"BasicEnzian.sol\":3905:3915  tasks[_id] */\n      dup1\n        /* \"BasicEnzian.sol\":3911:3914  _id */\n      dup11\n        /* \"BasicEnzian.sol\":3905:3915  tasks[_id] */\n      dup2\n      mstore\n      0x20\n      add\n      swap1\n      dup2\n      mstore\n      0x20\n      add\n      0x00\n      keccak256\n        /* \"BasicEnzian.sol\":3905:3928  tasks[_id] = (myStruct) */\n      0x00\n      dup3\n      add\n      mload\n      dup2\n      0x00\n      add\n      swap1\n      dup1\n      mload\n      swap1\n      0x20\n      add\n      swap1\n      tag_69\n      swap3\n      swap2\n      swap1\n      tag_70\n      jump\t// in\n    tag_69:\n      pop\n      0x20\n      dup3\n      add\n      mload\n      dup2\n      0x01\n      add\n      exp(0x0100, 0x00)\n      dup2\n      sload\n      dup2\n      0xffffffffffffffffffffffffffffffffffffffff\n      mul\n      not\n      and\n      swap1\n      dup4\n      0xffffffffffffffffffffffffffffffffffffffff\n      and\n      mul\n      or\n      swap1\n      sstore\n      pop\n      0x40\n      dup3\n      add\n      mload\n      dup2\n      0x01\n      add\n      exp(0x0100, 0x14)\n      dup2\n      sload\n      dup2\n      0xff\n      mul\n      not\n      and\n      swap1\n      dup4\n      iszero\n      iszero\n      mul\n      or\n      swap1\n      sstore\n      pop\n      0x60\n      dup3\n      add\n      mload\n      dup2\n      0x01\n      add\n      exp(0x0100, 0x15)\n      dup2\n      sload\n      dup2\n      0xff\n      mul\n      not\n      and\n      swap1\n      dup4\n      0x03\n      dup2\n      gt\n      iszero\n      tag_71\n      jumpi\n      mstore(0x00, 0x4e487b7100000000000000000000000000000000000000000000000000000000)\n      mstore(0x04, 0x21)\n      revert(0x00, 0x24)\n    tag_71:\n      mul\n      or\n      swap1\n      sstore\n      pop\n      0x80\n      dup3\n      add\n      mload\n      dup2\n      0x02\n      add\n      swap1\n      dup1\n      mload\n      swap1\n      0x20\n      add\n      swap1\n      tag_72\n      swap3\n      swap2\n      swap1\n      tag_73\n      jump\t// in\n    tag_72:\n      pop\n      0xa0\n      dup3\n      add\n      mload\n      dup2\n      0x03\n      add\n      swap1\n      dup1\n      mload\n      swap1\n      0x20\n      add\n      swap1\n      tag_74\n      swap3\n      swap2\n      swap1\n      tag_73\n      jump\t// in\n    tag_74:\n      pop\n      0xc0\n      dup3\n      add\n      mload\n      dup2\n      0x04\n      add\n      0x00\n      dup3\n      add\n      mload\n      dup2\n      0x00\n      add\n      sstore\n      0x20\n      dup3\n      add\n      mload\n      dup2\n      0x01\n      add\n      exp(0x0100, 0x00)\n      dup2\n      sload\n      dup2\n      0xff\n      mul\n      not\n      and\n      swap1\n      dup4\n      0x03\n      dup2\n      gt\n      iszero\n      tag_75\n      jumpi\n      mstore(0x00, 0x4e487b7100000000000000000000000000000000000000000000000000000000)\n      mstore(0x04, 0x21)\n      revert(0x00, 0x24)\n    tag_75:\n      mul\n      or\n      swap1\n      sstore\n      pop\n      0x40\n      dup3\n      add\n      mload\n      dup2\n      0x01\n      add\n      exp(0x0100, 0x01)\n      dup2\n      sload\n      dup2\n      0xff\n      mul\n      not\n      and\n      swap1\n      dup4\n      0x02\n      dup2\n      gt\n      iszero\n      tag_76\n      jumpi\n      mstore(0x00, 0x4e487b7100000000000000000000000000000000000000000000000000000000)\n      mstore(0x04, 0x21)\n      revert(0x00, 0x24)\n    tag_76:\n      mul\n      or\n      swap1\n      sstore\n      pop\n      0x60\n      dup3\n      add\n      mload\n      dup2\n      0x01\n      add\n      exp(0x0100, 0x02)\n      dup2\n      sload\n      dup2\n      0xff\n      mul\n      not\n      and\n      swap1\n      dup4\n      iszero\n      iszero\n      mul\n      or\n      swap1\n      sstore\n      pop\n      0x80\n      dup3\n      add\n      mload\n      dup2\n      0x01\n      add\n      exp(0x0100, 0x03)\n      dup2\n      sload\n      dup2\n      0xff\n      mul\n      not\n      and\n      swap1\n      dup4\n      iszero\n      iszero\n      mul\n      or\n      swap1\n      sstore\n      pop\n      0xa0\n      dup3\n      add\n      mload\n      dup2\n      0x01\n      add\n      exp(0x0100, 0x04)\n      dup2\n      sload\n      dup2\n      0xff\n      mul\n      not\n      and\n      swap1\n      dup4\n      0x06\n      dup2\n      gt\n      iszero\n      tag_77\n      jumpi\n      mstore(0x00, 0x4e487b7100000000000000000000000000000000000000000000000000000000)\n      mstore(0x04, 0x21)\n      revert(0x00, 0x24)\n    tag_77:\n      mul\n      or\n      swap1\n      sstore\n      pop\n      0xc0\n      dup3\n      add\n      mload\n      dup2\n      0x02\n      add\n      0x00\n      dup3\n      add\n      mload\n      dup2\n      0x00\n      add\n      sstore\n      0x20\n      dup3\n      add\n      mload\n      dup2\n      0x01\n      add\n      swap1\n      dup1\n      mload\n      swap1\n      0x20\n      add\n      swap1\n      tag_78\n      swap3\n      swap2\n      swap1\n      tag_73\n      jump\t// in\n    tag_78:\n      pop\n      pop\n      pop\n      0xe0\n      dup3\n      add\n      mload\n      dup2\n      0x04\n      add\n      0x00\n      dup3\n      add\n      mload\n      dup2\n      0x00\n      add\n      sstore\n      0x20\n      dup3\n      add\n      mload\n      dup2\n      0x01\n      add\n      swap1\n      dup1\n      mload\n      swap1\n      0x20\n      add\n      swap1\n      tag_79\n      swap3\n      swap2\n      swap1\n      tag_70\n      jump\t// in\n    tag_79:\n      pop\n      pop\n      pop\n      pop\n      pop\n      swap1\n      pop\n      pop\n        /* \"BasicEnzian.sol\":3246:3936  function createTaskWithDecision(\r... */\n      pop\n      pop\n      pop\n      pop\n      pop\n      pop\n      pop\n      pop\n      jump\t// out\n        /* \"BasicEnzian.sol\":2074:2676  function createTask(\r... */\n    tag_22:\n        /* \"BasicEnzian.sol\":2344:2364  Task memory myStruct */\n      tag_81\n      tag_66\n      jump\t// in\n    tag_81:\n        /* \"BasicEnzian.sol\":2395:2404  _activity */\n      dup6\n        /* \"BasicEnzian.sol\":2375:2383  myStruct */\n      dup2\n        /* \"BasicEnzian.sol\":2375:2392  myStruct.activity */\n      0x00\n      add\n        /* \"BasicEnzian.sol\":2375:2404  myStruct.activity = _activity */\n      dup2\n      swap1\n      mstore\n      pop\n        /* \"BasicEnzian.sol\":2439:2452  _taskresource */\n      dup5\n        /* \"BasicEnzian.sol\":2415:2423  myStruct */\n      dup2\n        /* \"BasicEnzian.sol\":2415:2436  myStruct.taskresource */\n      0x20\n      add\n        /* \"BasicEnzian.sol\":2415:2452  myStruct.taskresource = _taskresource */\n      swap1\n      0xffffffffffffffffffffffffffffffffffffffff\n      and\n      swap1\n      dup2\n      0xffffffffffffffffffffffffffffffffffffffff\n      and\n      dup2\n      mstore\n      pop\n      pop\n        /* \"BasicEnzian.sol\":2484:2489  false */\n      0x00\n        /* \"BasicEnzian.sol\":2463:2471  myStruct */\n      dup2\n        /* \"BasicEnzian.sol\":2463:2481  myStruct.completed */\n      0x40\n      add\n        /* \"BasicEnzian.sol\":2463:2489  myStruct.completed = false */\n      swap1\n      iszero\n      iszero\n      swap1\n      dup2\n      iszero\n      iszero\n      dup2\n      mstore\n      pop\n      pop\n        /* \"BasicEnzian.sol\":2536:2540  _pmg */\n      dup4\n        /* \"BasicEnzian.sol\":2500:2508  myStruct */\n      dup2\n        /* \"BasicEnzian.sol\":2500:2533  myStruct.preceedingMergingGateway */\n      0x60\n      add\n        /* \"BasicEnzian.sol\":2500:2540  myStruct.preceedingMergingGateway = _pmg */\n      swap1\n      0x03\n      dup2\n      gt\n      iszero\n      tag_82\n      jumpi\n      mstore(0x00, 0x4e487b7100000000000000000000000000000000000000000000000000000000)\n      mstore(0x04, 0x21)\n      revert(0x00, 0x24)\n    tag_82:\n      swap1\n      dup2\n      0x03\n      dup2\n      gt\n      iszero\n      tag_83\n      jumpi\n      mstore(0x00, 0x4e487b7100000000000000000000000000000000000000000000000000000000)\n      mstore(0x04, 0x21)\n      revert(0x00, 0x24)\n    tag_83:\n      dup2\n      mstore\n      pop\n      pop\n        /* \"BasicEnzian.sol\":2575:2588  _requirements */\n      dup3\n        /* \"BasicEnzian.sol\":2551:2559  myStruct */\n      dup2\n        /* \"BasicEnzian.sol\":2551:2572  myStruct.requirements */\n      0x80\n      add\n        /* \"BasicEnzian.sol\":2551:2588  myStruct.requirements = _requirements */\n      dup2\n      swap1\n      mstore\n      pop\n        /* \"BasicEnzian.sol\":2622:2634  _competitors */\n      dup2\n        /* \"BasicEnzian.sol\":2599:2607  myStruct */\n      dup2\n        /* \"BasicEnzian.sol\":2599:2619  myStruct.competitors */\n      0xa0\n      add\n        /* \"BasicEnzian.sol\":2599:2634  myStruct.competitors = _competitors */\n      dup2\n      swap1\n      mstore\n      pop\n        /* \"BasicEnzian.sol\":2659:2667  myStruct */\n      dup1\n        /* \"BasicEnzian.sol\":2645:2650  tasks */\n      0x00\n        /* \"BasicEnzian.sol\":2645:2655  tasks[_id] */\n      dup1\n        /* \"BasicEnzian.sol\":2651:2654  _id */\n      dup10\n        /* \"BasicEnzian.sol\":2645:2655  tasks[_id] */\n      dup2\n      mstore\n      0x20\n      add\n      swap1\n      dup2\n      mstore\n      0x20\n      add\n      0x00\n      keccak256\n        /* \"BasicEnzian.sol\":2645:2668  tasks[_id] = (myStruct) */\n      0x00\n      dup3\n      add\n      mload\n      dup2\n      0x00\n      add\n      swap1\n      dup1\n      mload\n      swap1\n      0x20\n      add\n      swap1\n      tag_84\n      swap3\n      swap2\n      swap1\n      tag_70\n      jump\t// in\n    tag_84:\n      pop\n      0x20\n      dup3\n      add\n      mload\n      dup2\n      0x01\n      add\n      exp(0x0100, 0x00)\n      dup2\n      sload\n      dup2\n      0xffffffffffffffffffffffffffffffffffffffff\n      mul\n      not\n      and\n      swap1\n      dup4\n      0xffffffffffffffffffffffffffffffffffffffff\n      and\n      mul\n      or\n      swap1\n      sstore\n      pop\n      0x40\n      dup3\n      add\n      mload\n      dup2\n      0x01\n      add\n      exp(0x0100, 0x14)\n      dup2\n      sload\n      dup2\n      0xff\n      mul\n      not\n      and\n      swap1\n      dup4\n      iszero\n      iszero\n      mul\n      or\n      swap1\n      sstore\n      pop\n      0x60\n      dup3\n      add\n      mload\n      dup2\n      0x01\n      add\n      exp(0x0100, 0x15)\n      dup2\n      sload\n      dup2\n      0xff\n      mul\n      not\n      and\n      swap1\n      dup4\n      0x03\n      dup2\n      gt\n      iszero\n      tag_85\n      jumpi\n      mstore(0x00, 0x4e487b7100000000000000000000000000000000000000000000000000000000)\n      mstore(0x04, 0x21)\n      revert(0x00, 0x24)\n    tag_85:\n      mul\n      or\n      swap1\n      sstore\n      pop\n      0x80\n      dup3\n      add\n      mload\n      dup2\n      0x02\n      add\n      swap1\n      dup1\n      mload\n      swap1\n      0x20\n      add\n      swap1\n      tag_86\n      swap3\n      swap2\n      swap1\n      tag_73\n      jump\t// in\n    tag_86:\n      pop\n      0xa0\n      dup3\n      add\n      mload\n      dup2\n      0x03\n      add\n      swap1\n      dup1\n      mload\n      swap1\n      0x20\n      add\n      swap1\n      tag_87\n      swap3\n      swap2\n      swap1\n      tag_73\n      jump\t// in\n    tag_87:\n      pop\n      0xc0\n      dup3\n      add\n      mload\n      dup2\n      0x04\n      add\n      0x00\n      dup3\n      add\n      mload\n      dup2\n      0x00\n      add\n      sstore\n      0x20\n      dup3\n      add\n      mload\n      dup2\n      0x01\n      add\n      exp(0x0100, 0x00)\n      dup2\n      sload\n      dup2\n      0xff\n      mul\n      not\n      and\n      swap1\n      dup4\n      0x03\n      dup2\n      gt\n      iszero\n      tag_88\n      jumpi\n      mstore(0x00, 0x4e487b7100000000000000000000000000000000000000000000000000000000)\n      mstore(0x04, 0x21)\n      revert(0x00, 0x24)\n    tag_88:\n      mul\n      or\n      swap1\n      sstore\n      pop\n      0x40\n      dup3\n      add\n      mload\n      dup2\n      0x01\n      add\n      exp(0x0100, 0x01)\n      dup2\n      sload\n      dup2\n      0xff\n      mul\n      not\n      and\n      swap1\n      dup4\n      0x02\n      dup2\n      gt\n      iszero\n      tag_89\n      jumpi\n      mstore(0x00, 0x4e487b7100000000000000000000000000000000000000000000000000000000)\n      mstore(0x04, 0x21)\n      revert(0x00, 0x24)\n    tag_89:\n      mul\n      or\n      swap1\n      sstore\n      pop\n      0x60\n      dup3\n      add\n      mload\n      dup2\n      0x01\n      add\n      exp(0x0100, 0x02)\n      dup2\n      sload\n      dup2\n      0xff\n      mul\n      not\n      and\n      swap1\n      dup4\n      iszero\n      iszero\n      mul\n      or\n      swap1\n      sstore\n      pop\n      0x80\n      dup3\n      add\n      mload\n      dup2\n      0x01\n      add\n      exp(0x0100, 0x03)\n      dup2\n      sload\n      dup2\n      0xff\n      mul\n      not\n      and\n      swap1\n      dup4\n      iszero\n      iszero\n      mul\n      or\n      swap1\n      sstore\n      pop\n      0xa0\n      dup3\n      add\n      mload\n      dup2\n      0x01\n      add\n      exp(0x0100, 0x04)\n      dup2\n      sload\n      dup2\n      0xff\n      mul\n      not\n      and\n      swap1\n      dup4\n      0x06\n      dup2\n      gt\n      iszero\n      tag_90\n      jumpi\n      mstore(0x00, 0x4e487b7100000000000000000000000000000000000000000000000000000000)\n      mstore(0x04, 0x21)\n      revert(0x00, 0x24)\n    tag_90:\n      mul\n      or\n      swap1\n      sstore\n      pop\n      0xc0\n      dup3\n      add\n      mload\n      dup2\n      0x02\n      add\n      0x00\n      dup3\n      add\n      mload\n      dup2\n      0x00\n      add\n      sstore\n      0x20\n      dup3\n      add\n      mload\n      dup2\n      0x01\n      add\n      swap1\n      dup1\n      mload\n      swap1\n      0x20\n      add\n      swap1\n      tag_91\n      swap3\n      swap2\n      swap1\n      tag_73\n      jump\t// in\n    tag_91:\n      pop\n      pop\n      pop\n      0xe0\n      dup3\n      add\n      mload\n      dup2\n      0x04\n      add\n      0x00\n      dup3\n      add\n      mload\n      dup2\n      0x00\n      add\n      sstore\n      0x20\n      dup3\n      add\n      mload\n      dup2\n      0x01\n      add\n      swap1\n      dup1\n      mload\n      swap1\n      0x20\n      add\n      swap1\n      tag_92\n      swap3\n      swap2\n      swap1\n      tag_70\n      jump\t// in\n    tag_92:\n      pop\n      pop\n      pop\n      pop\n      pop\n      swap1\n      pop\n      pop\n        /* \"BasicEnzian.sol\":2074:2676  function createTask(\r... */\n      pop\n      pop\n      pop\n      pop\n      pop\n      pop\n      pop\n      jump\t// out\n        /* \"BasicEnzian.sol\":2688:3221  function addDecisionToTask(\r... */\n    tag_26:\n        /* \"BasicEnzian.sol\":2893:2905  bool success */\n      0x00\n        /* \"BasicEnzian.sol\":2965:2977  _gatewaytype */\n      dup5\n        /* \"BasicEnzian.sol\":2928:2933  tasks */\n      0x00\n        /* \"BasicEnzian.sol\":2928:2941  tasks[taskId] */\n      dup1\n        /* \"BasicEnzian.sol\":2934:2940  taskId */\n      dup9\n        /* \"BasicEnzian.sol\":2928:2941  tasks[taskId] */\n      dup2\n      mstore\n      0x20\n      add\n      swap1\n      dup2\n      mstore\n      0x20\n      add\n      0x00\n      keccak256\n        /* \"BasicEnzian.sol\":2928:2950  tasks[taskId].decision */\n      0x04\n      add\n        /* \"BasicEnzian.sol\":2928:2962  tasks[taskId].decision.gatewaytype */\n      0x01\n      add\n      0x00\n        /* \"BasicEnzian.sol\":2928:2977  tasks[taskId].decision.gatewaytype = _gatewaytype */\n      0x0100\n      exp\n      dup2\n      sload\n      dup2\n      0xff\n      mul\n      not\n      and\n      swap1\n      dup4\n      0x03\n      dup2\n      gt\n      iszero\n      tag_94\n      jumpi\n      mstore(0x00, 0x4e487b7100000000000000000000000000000000000000000000000000000000)\n      mstore(0x04, 0x21)\n      revert(0x00, 0x24)\n    tag_94:\n      mul\n      or\n      swap1\n      sstore\n      pop\n        /* \"BasicEnzian.sol\":3017:3022  _type */\n      dup4\n        /* \"BasicEnzian.sol\":2988:2993  tasks */\n      0x00\n        /* \"BasicEnzian.sol\":2988:3001  tasks[taskId] */\n      dup1\n        /* \"BasicEnzian.sol\":2994:3000  taskId */\n      dup9\n        /* \"BasicEnzian.sol\":2988:3001  tasks[taskId] */\n      dup2\n      mstore\n      0x20\n      add\n      swap1\n      dup2\n      mstore\n      0x20\n      add\n      0x00\n      keccak256\n        /* \"BasicEnzian.sol\":2988:3010  tasks[taskId].decision */\n      0x04\n      add\n        /* \"BasicEnzian.sol\":2988:3014  tasks[taskId].decision.typ */\n      0x01\n      add\n      0x01\n        /* \"BasicEnzian.sol\":2988:3022  tasks[taskId].decision.typ = _type */\n      0x0100\n      exp\n      dup2\n      sload\n      dup2\n      0xff\n      mul\n      not\n      and\n      swap1\n      dup4\n      0x02\n      dup2\n      gt\n      iszero\n      tag_95\n      jumpi\n      mstore(0x00, 0x4e487b7100000000000000000000000000000000000000000000000000000000)\n      mstore(0x04, 0x21)\n      revert(0x00, 0x24)\n    tag_95:\n      mul\n      or\n      swap1\n      sstore\n      pop\n        /* \"BasicEnzian.sol\":3067:3070  _op */\n      dup3\n        /* \"BasicEnzian.sol\":3033:3038  tasks */\n      0x00\n        /* \"BasicEnzian.sol\":3033:3046  tasks[taskId] */\n      dup1\n        /* \"BasicEnzian.sol\":3039:3045  taskId */\n      dup9\n        /* \"BasicEnzian.sol\":3033:3046  tasks[taskId] */\n      dup2\n      mstore\n      0x20\n      add\n      swap1\n      dup2\n      mstore\n      0x20\n      add\n      0x00\n      keccak256\n        /* \"BasicEnzian.sol\":3033:3055  tasks[taskId].decision */\n      0x04\n      add\n        /* \"BasicEnzian.sol\":3033:3064  tasks[taskId].decision.operator */\n      0x01\n      add\n      0x04\n        /* \"BasicEnzian.sol\":3033:3070  tasks[taskId].decision.operator = _op */\n      0x0100\n      exp\n      dup2\n      sload\n      dup2\n      0xff\n      mul\n      not\n      and\n      swap1\n      dup4\n      0x06\n      dup2\n      gt\n      iszero\n      tag_96\n      jumpi\n      mstore(0x00, 0x4e487b7100000000000000000000000000000000000000000000000000000000)\n      mstore(0x04, 0x21)\n      revert(0x00, 0x24)\n    tag_96:\n      mul\n      or\n      swap1\n      sstore\n      pop\n        /* \"BasicEnzian.sol\":3122:3134  _intoperants */\n      dup2\n        /* \"BasicEnzian.sol\":3081:3086  tasks */\n      0x00\n        /* \"BasicEnzian.sol\":3081:3094  tasks[taskId] */\n      dup1\n        /* \"BasicEnzian.sol\":3087:3093  taskId */\n      dup9\n        /* \"BasicEnzian.sol\":3081:3094  tasks[taskId] */\n      dup2\n      mstore\n      0x20\n      add\n      swap1\n      dup2\n      mstore\n      0x20\n      add\n      0x00\n      keccak256\n        /* \"BasicEnzian.sol\":3081:3103  tasks[taskId].decision */\n      0x04\n      add\n        /* \"BasicEnzian.sol\":3081:3119  tasks[taskId].decision.integeroperants */\n      0x02\n      add\n        /* \"BasicEnzian.sol\":3081:3134  tasks[taskId].decision.integeroperants = _intoperants */\n      0x00\n      dup3\n      add\n      mload\n      dup2\n      0x00\n      add\n      sstore\n      0x20\n      dup3\n      add\n      mload\n      dup2\n      0x01\n      add\n      swap1\n      dup1\n      mload\n      swap1\n      0x20\n      add\n      swap1\n      tag_97\n      swap3\n      swap2\n      swap1\n      tag_73\n      jump\t// in\n    tag_97:\n      pop\n      swap1\n      pop\n      pop\n        /* \"BasicEnzian.sol\":3177:3181  true */\n      0x01\n        /* \"BasicEnzian.sol\":3145:3150  tasks */\n      0x00\n        /* \"BasicEnzian.sol\":3145:3158  tasks[taskId] */\n      dup1\n        /* \"BasicEnzian.sol\":3151:3157  taskId */\n      dup9\n        /* \"BasicEnzian.sol\":3145:3158  tasks[taskId] */\n      dup2\n      mstore\n      0x20\n      add\n      swap1\n      dup2\n      mstore\n      0x20\n      add\n      0x00\n      keccak256\n        /* \"BasicEnzian.sol\":3145:3167  tasks[taskId].decision */\n      0x04\n      add\n        /* \"BasicEnzian.sol\":3145:3174  tasks[taskId].decision.exists */\n      0x01\n      add\n      0x03\n        /* \"BasicEnzian.sol\":3145:3181  tasks[taskId].decision.exists = true */\n      0x0100\n      exp\n      dup2\n      sload\n      dup2\n      0xff\n      mul\n      not\n      and\n      swap1\n      dup4\n      iszero\n      iszero\n      mul\n      or\n      swap1\n      sstore\n      pop\n        /* \"BasicEnzian.sol\":3199:3203  true */\n      0x01\n        /* \"BasicEnzian.sol\":3192:3203  return true */\n      swap1\n      pop\n        /* \"BasicEnzian.sol\":2688:3221  function addDecisionToTask(\r... */\n      swap6\n      swap5\n      pop\n      pop\n      pop\n      pop\n      pop\n      jump\t// out\n        /* \"BasicEnzian.sol\":1795:1921  function getDebugStringeventLog() public view returns(string[] memory theevents) {\r... */\n    tag_30:\n        /* \"BasicEnzian.sol\":1849:1874  string[] memory theevents */\n      0x60\n        /* \"BasicEnzian.sol\":1894:1913  debugStringeventLog */\n      0x04\n        /* \"BasicEnzian.sol\":1887:1913  return debugStringeventLog */\n      dup1\n      sload\n      dup1\n      0x20\n      mul\n      0x20\n      add\n      mload(0x40)\n      swap1\n      dup2\n      add\n      0x40\n      mstore\n      dup1\n      swap3\n      swap2\n      swap1\n      dup2\n      dup2\n      mstore\n      0x20\n      add\n      0x00\n      swap1\n    tag_99:\n      dup3\n      dup3\n      lt\n      iszero\n      tag_100\n      jumpi\n      dup4\n      dup3\n      swap1\n      0x00\n      mstore\n      keccak256(0x00, 0x20)\n      add\n      dup1\n      sload\n      tag_102\n      swap1\n      tag_103\n      jump\t// in\n    tag_102:\n      dup1\n      0x1f\n      add\n      0x20\n      dup1\n      swap2\n      div\n      mul\n      0x20\n      add\n      mload(0x40)\n      swap1\n      dup2\n      add\n      0x40\n      mstore\n      dup1\n      swap3\n      swap2\n      swap1\n      dup2\n      dup2\n      mstore\n      0x20\n      add\n      dup3\n      dup1\n      sload\n      tag_104\n      swap1\n      tag_103\n      jump\t// in\n    tag_104:\n      dup1\n      iszero\n      tag_105\n      jumpi\n      dup1\n      0x1f\n      lt\n      tag_106\n      jumpi\n      0x0100\n      dup1\n      dup4\n      sload\n      div\n      mul\n      dup4\n      mstore\n      swap2\n      0x20\n      add\n      swap2\n      jump(tag_105)\n    tag_106:\n      dup3\n      add\n      swap2\n      swap1\n      0x00\n      mstore\n      keccak256(0x00, 0x20)\n      swap1\n    tag_107:\n      dup2\n      sload\n      dup2\n      mstore\n      swap1\n      0x01\n      add\n      swap1\n      0x20\n      add\n      dup1\n      dup4\n      gt\n      tag_107\n      jumpi\n      dup3\n      swap1\n      sub\n      0x1f\n      and\n      dup3\n      add\n      swap2\n    tag_105:\n      pop\n      pop\n      pop\n      pop\n      pop\n      dup2\n      mstore\n      0x20\n      add\n      swap1\n      0x01\n      add\n      swap1\n      jump(tag_99)\n    tag_100:\n      pop\n      pop\n      pop\n      pop\n      swap1\n      pop\n        /* \"BasicEnzian.sol\":1795:1921  function getDebugStringeventLog() public view returns(string[] memory theevents) {\r... */\n      swap1\n      jump\t// out\n        /* \"BasicEnzian.sol\":1753:1788  string[] public debugStringeventLog */\n    tag_36:\n      0x04\n      dup2\n      dup2\n      sload\n      dup2\n      lt\n      tag_108\n      jumpi\n      0x00\n      dup1\n      revert\n    tag_108:\n      swap1\n      0x00\n      mstore\n      keccak256(0x00, 0x20)\n      add\n      0x00\n      swap2\n      pop\n      swap1\n      pop\n      dup1\n      sload\n      tag_110\n      swap1\n      tag_103\n      jump\t// in\n    tag_110:\n      dup1\n      0x1f\n      add\n      0x20\n      dup1\n      swap2\n      div\n      mul\n      0x20\n      add\n      mload(0x40)\n      swap1\n      dup2\n      add\n      0x40\n      mstore\n      dup1\n      swap3\n      swap2\n      swap1\n      dup2\n      dup2\n      mstore\n      0x20\n      add\n      dup3\n      dup1\n      sload\n      tag_111\n      swap1\n      tag_103\n      jump\t// in\n    tag_111:\n      dup1\n      iszero\n      tag_112\n      jumpi\n      dup1\n      0x1f\n      lt\n      tag_113\n      jumpi\n      0x0100\n      dup1\n      dup4\n      sload\n      div\n      mul\n      dup4\n      mstore\n      swap2\n      0x20\n      add\n      swap2\n      jump(tag_112)\n    tag_113:\n      dup3\n      add\n      swap2\n      swap1\n      0x00\n      mstore\n      keccak256(0x00, 0x20)\n      swap1\n    tag_114:\n      dup2\n      sload\n      dup2\n      mstore\n      swap1\n      0x01\n      add\n      swap1\n      0x20\n      add\n      dup1\n      dup4\n      gt\n      tag_114\n      jumpi\n      dup3\n      swap1\n      sub\n      0x1f\n      and\n      dup3\n      add\n      swap2\n    tag_112:\n      pop\n      pop\n      pop\n      pop\n      pop\n      dup2\n      jump\t// out\n        /* \"BasicEnzian.sol\":8778:8915  function decisionTest() public pure returns(uint drei) {\r... */\n    tag_40:\n        /* \"BasicEnzian.sol\":8822:8831  uint drei */\n      0x00\n        /* \"BasicEnzian.sol\":8844:8852  uint zwo */\n      dup1\n        /* \"BasicEnzian.sol\":8855:8870  DecisionLibrary */\n      linkerSymbol(\"80c56c7074f1c42024adf49f5dc2b40495aa8bbb68c1dca7ae61973c3346d226\")\n        /* \"BasicEnzian.sol\":8855:8880  DecisionLibrary.returnZwo */\n      0xc237647f\n        /* \"BasicEnzian.sol\":8855:8882  DecisionLibrary.returnZwo() */\n      mload(0x40)\n      dup2\n      0xffffffff\n      and\n      0xe0\n      shl\n      dup2\n      mstore\n      0x04\n      add\n      0x20\n      mload(0x40)\n      dup1\n      dup4\n      sub\n      dup2\n      dup7\n      dup1\n      extcodesize\n      iszero\n      dup1\n      iszero\n      tag_116\n      jumpi\n      0x00\n      dup1\n      revert\n    tag_116:\n      pop\n      gas\n      delegatecall\n      iszero\n      dup1\n      iszero\n      tag_118\n      jumpi\n      returndatasize\n      0x00\n      dup1\n      returndatacopy\n      revert(0x00, returndatasize)\n    tag_118:\n      pop\n      pop\n      pop\n      pop\n      mload(0x40)\n      returndatasize\n      not(0x1f)\n      0x1f\n      dup3\n      add\n      and\n      dup3\n      add\n      dup1\n      0x40\n      mstore\n      pop\n      dup2\n      add\n      swap1\n      tag_119\n      swap2\n      swap1\n      tag_120\n      jump\t// in\n    tag_119:\n        /* \"BasicEnzian.sol\":8844:8882  uint zwo = DecisionLibrary.returnZwo() */\n      swap1\n      pop\n        /* \"BasicEnzian.sol\":8904:8905  5 */\n      0x05\n        /* \"BasicEnzian.sol\":8900:8903  zwo */\n      dup2\n        /* \"BasicEnzian.sol\":8900:8905  zwo+5 */\n      tag_121\n      swap2\n      swap1\n      tag_122\n      jump\t// in\n    tag_121:\n        /* \"BasicEnzian.sol\":8893:8905  return zwo+5 */\n      swap2\n      pop\n      pop\n        /* \"BasicEnzian.sol\":8778:8915  function decisionTest() public pure returns(uint drei) {\r... */\n      swap1\n      jump\t// out\n        /* \"BasicEnzian.sol\":1549:1653  function getLog() public view returns(uint[] memory theevents) {\r... */\n    tag_44:\n        /* \"BasicEnzian.sol\":1587:1610  uint[] memory theevents */\n      0x60\n        /* \"BasicEnzian.sol\":1630:1645  theRealEventLog */\n      0x03\n        /* \"BasicEnzian.sol\":1623:1645  return theRealEventLog */\n      dup1\n      sload\n      dup1\n      0x20\n      mul\n      0x20\n      add\n      mload(0x40)\n      swap1\n      dup2\n      add\n      0x40\n      mstore\n      dup1\n      swap3\n      swap2\n      swap1\n      dup2\n      dup2\n      mstore\n      0x20\n      add\n      dup3\n      dup1\n      sload\n      dup1\n      iszero\n      tag_124\n      jumpi\n      0x20\n      mul\n      dup3\n      add\n      swap2\n      swap1\n      0x00\n      mstore\n      keccak256(0x00, 0x20)\n      swap1\n    tag_125:\n      dup2\n      sload\n      dup2\n      mstore\n      0x20\n      add\n      swap1\n      0x01\n      add\n      swap1\n      dup1\n      dup4\n      gt\n      tag_125\n      jumpi\n    tag_124:\n      pop\n      pop\n      pop\n      pop\n      pop\n      swap1\n      pop\n        /* \"BasicEnzian.sol\":1549:1653  function getLog() public view returns(uint[] memory theevents) {\r... */\n      swap1\n      jump\t// out\n        /* \"BasicEnzian.sol\":1513:1542  uint[] public theRealEventLog */\n    tag_49:\n      0x03\n      dup2\n      dup2\n      sload\n      dup2\n      lt\n      tag_126\n      jumpi\n      0x00\n      dup1\n      revert\n    tag_126:\n      swap1\n      0x00\n      mstore\n      keccak256(0x00, 0x20)\n      add\n      0x00\n      swap2\n      pop\n      swap1\n      pop\n      sload\n      dup2\n      jump\t// out\n        /* \"BasicEnzian.sol\":8373:8770  function getTaskById(uint _id) public view returns (bool status,\r... */\n    tag_53:\n        /* \"BasicEnzian.sol\":8425:8436  bool status */\n      0x00\n        /* \"BasicEnzian.sol\":8447:8472  string memory description */\n      0x60\n        /* \"BasicEnzian.sol\":8474:8494  address taskresource */\n      0x00\n        /* \"BasicEnzian.sol\":8496:8515  GatewayType gateway */\n      dup1\n        /* \"BasicEnzian.sol\":8526:8552  uint[] memory requirements */\n      0x60\n        /* \"BasicEnzian.sol\":8554:8579  uint[] memory competitors */\n      dup1\n        /* \"BasicEnzian.sol\":8599:8604  tasks */\n      0x00\n        /* \"BasicEnzian.sol\":8599:8609  tasks[_id] */\n      dup1\n        /* \"BasicEnzian.sol\":8605:8608  _id */\n      dup9\n        /* \"BasicEnzian.sol\":8599:8609  tasks[_id] */\n      dup2\n      mstore\n      0x20\n      add\n      swap1\n      dup2\n      mstore\n      0x20\n      add\n      0x00\n      keccak256\n        /* \"BasicEnzian.sol\":8599:8619  tasks[_id].completed */\n      0x01\n      add\n      0x14\n      swap1\n      sload\n      swap1\n      0x0100\n      exp\n      swap1\n      div\n      0xff\n      and\n        /* \"BasicEnzian.sol\":8621:8626  tasks */\n      0x00\n        /* \"BasicEnzian.sol\":8621:8631  tasks[_id] */\n      dup1\n        /* \"BasicEnzian.sol\":8627:8630  _id */\n      dup10\n        /* \"BasicEnzian.sol\":8621:8631  tasks[_id] */\n      dup2\n      mstore\n      0x20\n      add\n      swap1\n      dup2\n      mstore\n      0x20\n      add\n      0x00\n      keccak256\n        /* \"BasicEnzian.sol\":8621:8640  tasks[_id].activity */\n      0x00\n      add\n        /* \"BasicEnzian.sol\":8642:8647  tasks */\n      0x00\n        /* \"BasicEnzian.sol\":8642:8652  tasks[_id] */\n      dup1\n        /* \"BasicEnzian.sol\":8648:8651  _id */\n      dup11\n        /* \"BasicEnzian.sol\":8642:8652  tasks[_id] */\n      dup2\n      mstore\n      0x20\n      add\n      swap1\n      dup2\n      mstore\n      0x20\n      add\n      0x00\n      keccak256\n        /* \"BasicEnzian.sol\":8642:8665  tasks[_id].taskresource */\n      0x01\n      add\n      0x00\n      swap1\n      sload\n      swap1\n      0x0100\n      exp\n      swap1\n      div\n      0xffffffffffffffffffffffffffffffffffffffff\n      and\n        /* \"BasicEnzian.sol\":8677:8682  tasks */\n      0x00\n        /* \"BasicEnzian.sol\":8677:8687  tasks[_id] */\n      dup1\n        /* \"BasicEnzian.sol\":8683:8686  _id */\n      dup12\n        /* \"BasicEnzian.sol\":8677:8687  tasks[_id] */\n      dup2\n      mstore\n      0x20\n      add\n      swap1\n      dup2\n      mstore\n      0x20\n      add\n      0x00\n      keccak256\n        /* \"BasicEnzian.sol\":8677:8712  tasks[_id].preceedingMergingGateway */\n      0x01\n      add\n      0x15\n      swap1\n      sload\n      swap1\n      0x0100\n      exp\n      swap1\n      div\n      0xff\n      and\n        /* \"BasicEnzian.sol\":8714:8719  tasks */\n      0x00\n        /* \"BasicEnzian.sol\":8714:8724  tasks[_id] */\n      dup1\n        /* \"BasicEnzian.sol\":8720:8723  _id */\n      dup13\n        /* \"BasicEnzian.sol\":8714:8724  tasks[_id] */\n      dup2\n      mstore\n      0x20\n      add\n      swap1\n      dup2\n      mstore\n      0x20\n      add\n      0x00\n      keccak256\n        /* \"BasicEnzian.sol\":8714:8737  tasks[_id].requirements */\n      0x02\n      add\n        /* \"BasicEnzian.sol\":8739:8744  tasks */\n      0x00\n        /* \"BasicEnzian.sol\":8739:8749  tasks[_id] */\n      dup1\n        /* \"BasicEnzian.sol\":8745:8748  _id */\n      dup14\n        /* \"BasicEnzian.sol\":8739:8749  tasks[_id] */\n      dup2\n      mstore\n      0x20\n      add\n      swap1\n      dup2\n      mstore\n      0x20\n      add\n      0x00\n      keccak256\n        /* \"BasicEnzian.sol\":8739:8761  tasks[_id].competitors */\n      0x03\n      add\n        /* \"BasicEnzian.sol\":8591:8762  return (tasks[_id].completed, tasks[_id].activity, tasks[_id].taskresource,\r... */\n      dup5\n      dup1\n      sload\n      tag_129\n      swap1\n      tag_103\n      jump\t// in\n    tag_129:\n      dup1\n      0x1f\n      add\n      0x20\n      dup1\n      swap2\n      div\n      mul\n      0x20\n      add\n      mload(0x40)\n      swap1\n      dup2\n      add\n      0x40\n      mstore\n      dup1\n      swap3\n      swap2\n      swap1\n      dup2\n      dup2\n      mstore\n      0x20\n      add\n      dup3\n      dup1\n      sload\n      tag_130\n      swap1\n      tag_103\n      jump\t// in\n    tag_130:\n      dup1\n      iszero\n      tag_131\n      jumpi\n      dup1\n      0x1f\n      lt\n      tag_132\n      jumpi\n      0x0100\n      dup1\n      dup4\n      sload\n      div\n      mul\n      dup4\n      mstore\n      swap2\n      0x20\n      add\n      swap2\n      jump(tag_131)\n    tag_132:\n      dup3\n      add\n      swap2\n      swap1\n      0x00\n      mstore\n      keccak256(0x00, 0x20)\n      swap1\n    tag_133:\n      dup2\n      sload\n      dup2\n      mstore\n      swap1\n      0x01\n      add\n      swap1\n      0x20\n      add\n      dup1\n      dup4\n      gt\n      tag_133\n      jumpi\n      dup3\n      swap1\n      sub\n      0x1f\n      and\n      dup3\n      add\n      swap2\n    tag_131:\n      pop\n      pop\n      pop\n      pop\n      pop\n      swap5\n      pop\n      dup2\n      dup1\n      sload\n      dup1\n      0x20\n      mul\n      0x20\n      add\n      mload(0x40)\n      swap1\n      dup2\n      add\n      0x40\n      mstore\n      dup1\n      swap3\n      swap2\n      swap1\n      dup2\n      dup2\n      mstore\n      0x20\n      add\n      dup3\n      dup1\n      sload\n      dup1\n      iszero\n      tag_134\n      jumpi\n      0x20\n      mul\n      dup3\n      add\n      swap2\n      swap1\n      0x00\n      mstore\n      keccak256(0x00, 0x20)\n      swap1\n    tag_135:\n      dup2\n      sload\n      dup2\n      mstore\n      0x20\n      add\n      swap1\n      0x01\n      add\n      swap1\n      dup1\n      dup4\n      gt\n      tag_135\n      jumpi\n    tag_134:\n      pop\n      pop\n      pop\n      pop\n      pop\n      swap2\n      pop\n      dup1\n      dup1\n      sload\n      dup1\n      0x20\n      mul\n      0x20\n      add\n      mload(0x40)\n      swap1\n      dup2\n      add\n      0x40\n      mstore\n      dup1\n      swap3\n      swap2\n      swap1\n      dup2\n      dup2\n      mstore\n      0x20\n      add\n      dup3\n      dup1\n      sload\n      dup1\n      iszero\n      tag_136\n      jumpi\n      0x20\n      mul\n      dup3\n      add\n      swap2\n      swap1\n      0x00\n      mstore\n      keccak256(0x00, 0x20)\n      swap1\n    tag_137:\n      dup2\n      sload\n      dup2\n      mstore\n      0x20\n      add\n      swap1\n      0x01\n      add\n      swap1\n      dup1\n      dup4\n      gt\n      tag_137\n      jumpi\n    tag_136:\n      pop\n      pop\n      pop\n      pop\n      pop\n      swap1\n      pop\n      swap6\n      pop\n      swap6\n      pop\n      swap6\n      pop\n      swap6\n      pop\n      swap6\n      pop\n      swap6\n      pop\n        /* \"BasicEnzian.sol\":8373:8770  function getTaskById(uint _id) public view returns (bool status,\r... */\n      swap2\n      swap4\n      swap6\n      pop\n      swap2\n      swap4\n      swap6\n      jump\t// out\n        /* \"BasicEnzian.sol\":8145:8268  function isTaskCompletedById(uint _id) public view returns (bool success){\r... */\n    tag_58:\n        /* \"BasicEnzian.sol\":8205:8217  bool success */\n      0x00\n        /* \"BasicEnzian.sol\":8239:8244  tasks */\n      dup1\n        /* \"BasicEnzian.sol\":8239:8249  tasks[_id] */\n      0x00\n        /* \"BasicEnzian.sol\":8245:8248  _id */\n      dup4\n        /* \"BasicEnzian.sol\":8239:8249  tasks[_id] */\n      dup2\n      mstore\n      0x20\n      add\n      swap1\n      dup2\n      mstore\n      0x20\n      add\n      0x00\n      keccak256\n        /* \"BasicEnzian.sol\":8239:8259  tasks[_id].completed */\n      0x01\n      add\n      0x14\n      swap1\n      sload\n      swap1\n      0x0100\n      exp\n      swap1\n      div\n      0xff\n      and\n        /* \"BasicEnzian.sol\":8231:8260  return (tasks[_id].completed) */\n      swap1\n      pop\n        /* \"BasicEnzian.sol\":8145:8268  function isTaskCompletedById(uint _id) public view returns (bool success){\r... */\n      swap2\n      swap1\n      pop\n      jump\t// out\n        /* \"BasicEnzian.sol\":4048:7250  function completing(uint taskId) public returns (bool success){\r... */\n    tag_62:\n        /* \"BasicEnzian.sol\":4097:4109  bool success */\n      0x00\n        /* \"BasicEnzian.sol\":4176:4192  address resource */\n      dup1\n        /* \"BasicEnzian.sol\":4195:4200  tasks */\n      0x00\n        /* \"BasicEnzian.sol\":4195:4208  tasks[taskId] */\n      dup1\n        /* \"BasicEnzian.sol\":4201:4207  taskId */\n      dup5\n        /* \"BasicEnzian.sol\":4195:4208  tasks[taskId] */\n      dup2\n      mstore\n      0x20\n      add\n      swap1\n      dup2\n      mstore\n      0x20\n      add\n      0x00\n      keccak256\n        /* \"BasicEnzian.sol\":4195:4221  tasks[taskId].taskresource */\n      0x01\n      add\n      0x00\n      swap1\n      sload\n      swap1\n      0x0100\n      exp\n      swap1\n      div\n      0xffffffffffffffffffffffffffffffffffffffff\n      and\n        /* \"BasicEnzian.sol\":4176:4221  address resource = tasks[taskId].taskresource */\n      swap1\n      pop\n        /* \"BasicEnzian.sol\":4260:4261  0 */\n      0x00\n        /* \"BasicEnzian.sol\":4240:4262  resource == address(0) */\n      0xffffffffffffffffffffffffffffffffffffffff\n      and\n        /* \"BasicEnzian.sol\":4240:4248  resource */\n      dup2\n        /* \"BasicEnzian.sol\":4240:4262  resource == address(0) */\n      0xffffffffffffffffffffffffffffffffffffffff\n      and\n      eq\n        /* \"BasicEnzian.sol\":4240:4288  resource == address(0) || resource == msg.sender */\n      dup1\n      tag_140\n      jumpi\n      pop\n        /* \"BasicEnzian.sol\":4278:4288  msg.sender */\n      caller\n        /* \"BasicEnzian.sol\":4266:4288  resource == msg.sender */\n      0xffffffffffffffffffffffffffffffffffffffff\n      and\n        /* \"BasicEnzian.sol\":4266:4274  resource */\n      dup2\n        /* \"BasicEnzian.sol\":4266:4288  resource == msg.sender */\n      0xffffffffffffffffffffffffffffffffffffffff\n      and\n      eq\n        /* \"BasicEnzian.sol\":4240:4288  resource == address(0) || resource == msg.sender */\n    tag_140:\n        /* \"BasicEnzian.sol\":4290:4295  tasks */\n      0x00\n        /* \"BasicEnzian.sol\":4290:4303  tasks[taskId] */\n      dup1\n        /* \"BasicEnzian.sol\":4296:4302  taskId */\n      dup6\n        /* \"BasicEnzian.sol\":4290:4303  tasks[taskId] */\n      dup2\n      mstore\n      0x20\n      add\n      swap1\n      dup2\n      mstore\n      0x20\n      add\n      0x00\n      keccak256\n        /* \"BasicEnzian.sol\":4290:4312  tasks[taskId].activity */\n      0x00\n      add\n        /* \"BasicEnzian.sol\":4232:4313  require(resource == address(0) || resource == msg.sender, tasks[taskId].activity) */\n      swap1\n      tag_141\n      jumpi\n      mload(0x40)\n      0x08c379a000000000000000000000000000000000000000000000000000000000\n      dup2\n      mstore\n      0x04\n      add\n      tag_142\n      swap2\n      swap1\n      tag_143\n      jump\t// in\n    tag_142:\n      mload(0x40)\n      dup1\n      swap2\n      sub\n      swap1\n      revert\n    tag_141:\n      pop\n        /* \"BasicEnzian.sol\":4653:4683  uint[] memory requiredTasksIds */\n      0x00\n        /* \"BasicEnzian.sol\":4686:4691  tasks */\n      dup1\n        /* \"BasicEnzian.sol\":4686:4699  tasks[taskId] */\n      0x00\n        /* \"BasicEnzian.sol\":4692:4698  taskId */\n      dup6\n        /* \"BasicEnzian.sol\":4686:4699  tasks[taskId] */\n      dup2\n      mstore\n      0x20\n      add\n      swap1\n      dup2\n      mstore\n      0x20\n      add\n      0x00\n      keccak256\n        /* \"BasicEnzian.sol\":4686:4712  tasks[taskId].requirements */\n      0x02\n      add\n        /* \"BasicEnzian.sol\":4653:4712  uint[] memory requiredTasksIds = tasks[taskId].requirements */\n      dup1\n      sload\n      dup1\n      0x20\n      mul\n      0x20\n      add\n      mload(0x40)\n      swap1\n      dup2\n      add\n      0x40\n      mstore\n      dup1\n      swap3\n      swap2\n      swap1\n      dup2\n      dup2\n      mstore\n      0x20\n      add\n      dup3\n      dup1\n      sload\n      dup1\n      iszero\n      tag_144\n      jumpi\n      0x20\n      mul\n      dup3\n      add\n      swap2\n      swap1\n      0x00\n      mstore\n      keccak256(0x00, 0x20)\n      swap1\n    tag_145:\n      dup2\n      sload\n      dup2\n      mstore\n      0x20\n      add\n      swap1\n      0x01\n      add\n      swap1\n      dup1\n      dup4\n      gt\n      tag_145\n      jumpi\n    tag_144:\n      pop\n      pop\n      pop\n      pop\n      pop\n      swap1\n      pop\n        /* \"BasicEnzian.sol\":4754:4755  0 */\n      0x00\n        /* \"BasicEnzian.sol\":4727:4743  requiredTasksIds */\n      dup2\n        /* \"BasicEnzian.sol\":4727:4750  requiredTasksIds.length */\n      mload\n        /* \"BasicEnzian.sol\":4727:4755  requiredTasksIds.length == 0 */\n      eq\n        /* \"BasicEnzian.sol\":4723:6883  if (requiredTasksIds.length == 0) {\r... */\n      iszero\n      tag_146\n      jumpi\n        /* \"BasicEnzian.sol\":4782:4786  true */\n      0x01\n        /* \"BasicEnzian.sol\":4772:4786  success = true */\n      swap3\n      pop\n        /* \"BasicEnzian.sol\":4723:6883  if (requiredTasksIds.length == 0) {\r... */\n      jump(tag_147)\n    tag_146:\n        /* \"BasicEnzian.sol\":4828:4847  GatewayType gateway */\n      0x00\n        /* \"BasicEnzian.sol\":4850:4855  tasks */\n      dup1\n        /* \"BasicEnzian.sol\":4850:4863  tasks[taskId] */\n      0x00\n        /* \"BasicEnzian.sol\":4856:4862  taskId */\n      dup7\n        /* \"BasicEnzian.sol\":4850:4863  tasks[taskId] */\n      dup2\n      mstore\n      0x20\n      add\n      swap1\n      dup2\n      mstore\n      0x20\n      add\n      0x00\n      keccak256\n        /* \"BasicEnzian.sol\":4850:4888  tasks[taskId].preceedingMergingGateway */\n      0x01\n      add\n      0x15\n      swap1\n      sload\n      swap1\n      0x0100\n      exp\n      swap1\n      div\n      0xff\n      and\n        /* \"BasicEnzian.sol\":4828:4888  GatewayType gateway = tasks[taskId].preceedingMergingGateway */\n      swap1\n      pop\n        /* \"BasicEnzian.sol\":4932:4948  GatewayType.NONE */\n      0x00\n        /* \"BasicEnzian.sol\":4921:4948  gateway == GatewayType.NONE */\n      0x03\n      dup2\n      gt\n      iszero\n      tag_148\n      jumpi\n      mstore(0x00, 0x4e487b7100000000000000000000000000000000000000000000000000000000)\n      mstore(0x04, 0x21)\n      revert(0x00, 0x24)\n    tag_148:\n        /* \"BasicEnzian.sol\":4921:4928  gateway */\n      dup2\n        /* \"BasicEnzian.sol\":4921:4948  gateway == GatewayType.NONE */\n      0x03\n      dup2\n      gt\n      iszero\n      tag_149\n      jumpi\n      mstore(0x00, 0x4e487b7100000000000000000000000000000000000000000000000000000000)\n      mstore(0x04, 0x21)\n      revert(0x00, 0x24)\n    tag_149:\n      eq\n        /* \"BasicEnzian.sol\":4917:6852  if (gateway == GatewayType.NONE) {\r... */\n      iszero\n      tag_150\n      jumpi\n        /* \"BasicEnzian.sol\":5017:5021  true */\n      0x01\n        /* \"BasicEnzian.sol\":4973:5021  isTaskCompletedById(requiredTasksIds[0]) == true */\n      iszero\n      iszero\n        /* \"BasicEnzian.sol\":4973:5013  isTaskCompletedById(requiredTasksIds[0]) */\n      tag_151\n        /* \"BasicEnzian.sol\":4993:5009  requiredTasksIds */\n      dup4\n        /* \"BasicEnzian.sol\":5010:5011  0 */\n      0x00\n        /* \"BasicEnzian.sol\":4993:5012  requiredTasksIds[0] */\n      dup2\n      mload\n      dup2\n      lt\n      tag_152\n      jumpi\n      mstore(0x00, 0x4e487b7100000000000000000000000000000000000000000000000000000000)\n      mstore(0x04, 0x32)\n      revert(0x00, 0x24)\n    tag_152:\n      0x20\n      mul\n      0x20\n      add\n      add\n      mload\n        /* \"BasicEnzian.sol\":4973:4992  isTaskCompletedById */\n      tag_58\n        /* \"BasicEnzian.sol\":4973:5013  isTaskCompletedById(requiredTasksIds[0]) */\n      jump\t// in\n    tag_151:\n        /* \"BasicEnzian.sol\":4973:5021  isTaskCompletedById(requiredTasksIds[0]) == true */\n      iszero\n      iszero\n      eq\n        /* \"BasicEnzian.sol\":4969:5080  if (isTaskCompletedById(requiredTasksIds[0]) == true) {\r... */\n      iszero\n      tag_153\n      jumpi\n        /* \"BasicEnzian.sol\":5056:5060  true */\n      0x01\n        /* \"BasicEnzian.sol\":5046:5060  success = true */\n      swap4\n      pop\n        /* \"BasicEnzian.sol\":4969:5080  if (isTaskCompletedById(requiredTasksIds[0]) == true) {\r... */\n    tag_153:\n        /* \"BasicEnzian.sol\":4917:6852  if (gateway == GatewayType.NONE) {\r... */\n      jump(tag_154)\n    tag_150:\n        /* \"BasicEnzian.sol\":5133:5159  uint fulfilledRequirements */\n      0x00\n        /* \"BasicEnzian.sol\":5239:5245  uint i */\n      dup1\n        /* \"BasicEnzian.sol\":5248:5249  0 */\n      0x00\n        /* \"BasicEnzian.sol\":5239:5249  uint i = 0 */\n      swap1\n      pop\n        /* \"BasicEnzian.sol\":5234:5455  for (uint i = 0; i < requiredTasksIds.length; i++) {\r... */\n    tag_155:\n        /* \"BasicEnzian.sol\":5255:5271  requiredTasksIds */\n      dup4\n        /* \"BasicEnzian.sol\":5255:5278  requiredTasksIds.length */\n      mload\n        /* \"BasicEnzian.sol\":5251:5252  i */\n      dup2\n        /* \"BasicEnzian.sol\":5251:5278  i < requiredTasksIds.length */\n      lt\n        /* \"BasicEnzian.sol\":5234:5455  for (uint i = 0; i < requiredTasksIds.length; i++) {\r... */\n      iszero\n      tag_156\n      jumpi\n        /* \"BasicEnzian.sol\":5356:5360  true */\n      0x01\n        /* \"BasicEnzian.sol\":5312:5360  isTaskCompletedById(requiredTasksIds[i]) == true */\n      iszero\n      iszero\n        /* \"BasicEnzian.sol\":5312:5352  isTaskCompletedById(requiredTasksIds[i]) */\n      tag_158\n        /* \"BasicEnzian.sol\":5332:5348  requiredTasksIds */\n      dup6\n        /* \"BasicEnzian.sol\":5349:5350  i */\n      dup4\n        /* \"BasicEnzian.sol\":5332:5351  requiredTasksIds[i] */\n      dup2\n      mload\n      dup2\n      lt\n      tag_159\n      jumpi\n      mstore(0x00, 0x4e487b7100000000000000000000000000000000000000000000000000000000)\n      mstore(0x04, 0x32)\n      revert(0x00, 0x24)\n    tag_159:\n      0x20\n      mul\n      0x20\n      add\n      add\n      mload\n        /* \"BasicEnzian.sol\":5312:5331  isTaskCompletedById */\n      tag_58\n        /* \"BasicEnzian.sol\":5312:5352  isTaskCompletedById(requiredTasksIds[i]) */\n      jump\t// in\n    tag_158:\n        /* \"BasicEnzian.sol\":5312:5360  isTaskCompletedById(requiredTasksIds[i]) == true */\n      iszero\n      iszero\n      eq\n        /* \"BasicEnzian.sol\":5308:5436  if (isTaskCompletedById(requiredTasksIds[i]) == true) {\r... */\n      iszero\n      tag_160\n      jumpi\n        /* \"BasicEnzian.sol\":5389:5412  fulfilledRequirements++ */\n      dup2\n      dup1\n      tag_161\n      swap1\n      tag_162\n      jump\t// in\n    tag_161:\n      swap3\n      pop\n      pop\n        /* \"BasicEnzian.sol\":5308:5436  if (isTaskCompletedById(requiredTasksIds[i]) == true) {\r... */\n    tag_160:\n        /* \"BasicEnzian.sol\":5280:5283  i++ */\n      dup1\n      dup1\n      tag_163\n      swap1\n      tag_162\n      jump\t// in\n    tag_163:\n      swap2\n      pop\n      pop\n        /* \"BasicEnzian.sol\":5234:5455  for (uint i = 0; i < requiredTasksIds.length; i++) {\r... */\n      jump(tag_155)\n    tag_156:\n      pop\n        /* \"BasicEnzian.sol\":5505:5520  GatewayType.AND */\n      0x01\n        /* \"BasicEnzian.sol\":5494:5520  gateway == GatewayType.AND */\n      0x03\n      dup2\n      gt\n      iszero\n      tag_164\n      jumpi\n      mstore(0x00, 0x4e487b7100000000000000000000000000000000000000000000000000000000)\n      mstore(0x04, 0x21)\n      revert(0x00, 0x24)\n    tag_164:\n        /* \"BasicEnzian.sol\":5494:5501  gateway */\n      dup3\n        /* \"BasicEnzian.sol\":5494:5520  gateway == GatewayType.AND */\n      0x03\n      dup2\n      gt\n      iszero\n      tag_165\n      jumpi\n      mstore(0x00, 0x4e487b7100000000000000000000000000000000000000000000000000000000)\n      mstore(0x04, 0x21)\n      revert(0x00, 0x24)\n    tag_165:\n      eq\n        /* \"BasicEnzian.sol\":5491:6808  if(gateway == GatewayType.AND) {\r... */\n      iszero\n      tag_166\n      jumpi\n        /* \"BasicEnzian.sol\":5643:5659  requiredTasksIds */\n      dup3\n        /* \"BasicEnzian.sol\":5643:5666  requiredTasksIds.length */\n      mload\n        /* \"BasicEnzian.sol\":5618:5639  fulfilledRequirements */\n      dup2\n        /* \"BasicEnzian.sol\":5618:5666  fulfilledRequirements == requiredTasksIds.length */\n      eq\n        /* \"BasicEnzian.sol\":5614:5732  if (fulfilledRequirements == requiredTasksIds.length) {\r... */\n      iszero\n      tag_167\n      jumpi\n        /* \"BasicEnzian.sol\":5704:5708  true */\n      0x01\n        /* \"BasicEnzian.sol\":5694:5708  success = true */\n      swap5\n      pop\n        /* \"BasicEnzian.sol\":5614:5732  if (fulfilledRequirements == requiredTasksIds.length) {\r... */\n    tag_167:\n        /* \"BasicEnzian.sol\":5491:6808  if(gateway == GatewayType.AND) {\r... */\n      jump(tag_168)\n    tag_166:\n        /* \"BasicEnzian.sol\":6011:6025  GatewayType.OR */\n      0x02\n        /* \"BasicEnzian.sol\":6000:6025  gateway == GatewayType.OR */\n      0x03\n      dup2\n      gt\n      iszero\n      tag_169\n      jumpi\n      mstore(0x00, 0x4e487b7100000000000000000000000000000000000000000000000000000000)\n      mstore(0x04, 0x21)\n      revert(0x00, 0x24)\n    tag_169:\n        /* \"BasicEnzian.sol\":6000:6007  gateway */\n      dup3\n        /* \"BasicEnzian.sol\":6000:6025  gateway == GatewayType.OR */\n      0x03\n      dup2\n      gt\n      iszero\n      tag_170\n      jumpi\n      mstore(0x00, 0x4e487b7100000000000000000000000000000000000000000000000000000000)\n      mstore(0x04, 0x21)\n      revert(0x00, 0x24)\n    tag_170:\n      eq\n        /* \"BasicEnzian.sol\":5997:6767  if(gateway == GatewayType.OR) {\r... */\n      iszero\n      tag_171\n      jumpi\n        /* \"BasicEnzian.sol\":6160:6164  true */\n      0x01\n        /* \"BasicEnzian.sol\":6150:6164  success = true */\n      swap5\n      pop\n        /* \"BasicEnzian.sol\":5997:6767  if(gateway == GatewayType.OR) {\r... */\n      jump(tag_172)\n    tag_171:\n        /* \"BasicEnzian.sol\":6229:6244  GatewayType.XOR */\n      0x03\n        /* \"BasicEnzian.sol\":6218:6244  gateway == GatewayType.XOR */\n      dup1\n      dup2\n      gt\n      iszero\n      tag_173\n      jumpi\n      mstore(0x00, 0x4e487b7100000000000000000000000000000000000000000000000000000000)\n      mstore(0x04, 0x21)\n      revert(0x00, 0x24)\n    tag_173:\n        /* \"BasicEnzian.sol\":6218:6225  gateway */\n      dup3\n        /* \"BasicEnzian.sol\":6218:6244  gateway == GatewayType.XOR */\n      0x03\n      dup2\n      gt\n      iszero\n      tag_174\n      jumpi\n      mstore(0x00, 0x4e487b7100000000000000000000000000000000000000000000000000000000)\n      mstore(0x04, 0x21)\n      revert(0x00, 0x24)\n    tag_174:\n      eq\n        /* \"BasicEnzian.sol\":6215:6767  if(gateway == GatewayType.XOR) {\r... */\n      iszero\n      tag_175\n      jumpi\n        /* \"BasicEnzian.sol\":6302:6303  1 */\n      0x01\n        /* \"BasicEnzian.sol\":6277:6298  fulfilledRequirements */\n      dup2\n        /* \"BasicEnzian.sol\":6277:6303  fulfilledRequirements == 1 */\n      eq\n        /* \"BasicEnzian.sol\":6277:6333  fulfilledRequirements == 1 || fulfilledRequirements == 2 */\n      dup1\n      tag_176\n      jumpi\n      pop\n        /* \"BasicEnzian.sol\":6332:6333  2 */\n      0x02\n        /* \"BasicEnzian.sol\":6307:6328  fulfilledRequirements */\n      dup2\n        /* \"BasicEnzian.sol\":6307:6333  fulfilledRequirements == 2 */\n      eq\n        /* \"BasicEnzian.sol\":6277:6333  fulfilledRequirements == 1 || fulfilledRequirements == 2 */\n    tag_176:\n        /* \"BasicEnzian.sol\":6273:6408  if (fulfilledRequirements == 1 || fulfilledRequirements == 2) {\r... */\n      iszero\n      tag_177\n      jumpi\n        /* \"BasicEnzian.sol\":6376:6380  true */\n      0x01\n        /* \"BasicEnzian.sol\":6366:6380  success = true */\n      swap5\n      pop\n        /* \"BasicEnzian.sol\":6273:6408  if (fulfilledRequirements == 1 || fulfilledRequirements == 2) {\r... */\n    tag_177:\n        /* \"BasicEnzian.sol\":6215:6767  if(gateway == GatewayType.XOR) {\r... */\n    tag_175:\n        /* \"BasicEnzian.sol\":5997:6767  if(gateway == GatewayType.OR) {\r... */\n    tag_172:\n        /* \"BasicEnzian.sol\":5491:6808  if(gateway == GatewayType.AND) {\r... */\n    tag_168:\n        /* \"BasicEnzian.sol\":4917:6852  if (gateway == GatewayType.NONE) {\r... */\n      pop\n    tag_154:\n        /* \"BasicEnzian.sol\":4723:6883  if (requiredTasksIds.length == 0) {\r... */\n      pop\n    tag_147:\n        /* \"BasicEnzian.sol\":6920:6927  success */\n      dup3\n        /* \"BasicEnzian.sol\":6917:7198  if(success) {\r... */\n      iszero\n      tag_178\n      jumpi\n        /* \"BasicEnzian.sol\":6970:6974  true */\n      0x01\n        /* \"BasicEnzian.sol\":6944:6949  tasks */\n      0x00\n        /* \"BasicEnzian.sol\":6944:6957  tasks[taskId] */\n      dup1\n        /* \"BasicEnzian.sol\":6950:6956  taskId */\n      dup7\n        /* \"BasicEnzian.sol\":6944:6957  tasks[taskId] */\n      dup2\n      mstore\n      0x20\n      add\n      swap1\n      dup2\n      mstore\n      0x20\n      add\n      0x00\n      keccak256\n        /* \"BasicEnzian.sol\":6944:6967  tasks[taskId].completed */\n      0x01\n      add\n      0x14\n        /* \"BasicEnzian.sol\":6944:6974  tasks[taskId].completed = true */\n      0x0100\n      exp\n      dup2\n      sload\n      dup2\n      0xff\n      mul\n      not\n      and\n      swap1\n      dup4\n      iszero\n      iszero\n      mul\n      or\n      swap1\n      sstore\n      pop\n        /* \"BasicEnzian.sol\":6989:7004  theRealEventLog */\n      0x03\n        /* \"BasicEnzian.sol\":7010:7016  taskId */\n      dup5\n        /* \"BasicEnzian.sol\":6989:7017  theRealEventLog.push(taskId) */\n      swap1\n      dup1\n      0x01\n      dup2\n      sload\n      add\n      dup1\n      dup3\n      sstore\n      dup1\n      swap2\n      pop\n      pop\n      0x01\n      swap1\n      sub\n      swap1\n      0x00\n      mstore\n      keccak256(0x00, 0x20)\n      add\n      0x00\n      swap1\n      swap2\n      swap1\n      swap2\n      swap1\n      swap2\n      pop\n      sstore\n        /* \"BasicEnzian.sol\":7032:7051  debugStringeventLog */\n      0x04\n        /* \"BasicEnzian.sol\":7057:7062  tasks */\n      0x00\n        /* \"BasicEnzian.sol\":7057:7070  tasks[taskId] */\n      dup1\n        /* \"BasicEnzian.sol\":7063:7069  taskId */\n      dup7\n        /* \"BasicEnzian.sol\":7057:7070  tasks[taskId] */\n      dup2\n      mstore\n      0x20\n      add\n      swap1\n      dup2\n      mstore\n      0x20\n      add\n      0x00\n      keccak256\n        /* \"BasicEnzian.sol\":7057:7079  tasks[taskId].activity */\n      0x00\n      add\n        /* \"BasicEnzian.sol\":7032:7080  debugStringeventLog.push(tasks[taskId].activity) */\n      swap1\n      dup1\n      0x01\n      dup2\n      sload\n      add\n      dup1\n      dup3\n      sstore\n      dup1\n      swap2\n      pop\n      pop\n      0x01\n      swap1\n      sub\n      swap1\n      0x00\n      mstore\n      keccak256(0x00, 0x20)\n      add\n      0x00\n      swap1\n      swap2\n      swap1\n      swap2\n      swap1\n      swap2\n      pop\n      swap1\n      dup1\n      sload\n      tag_181\n      swap1\n      tag_103\n      jump\t// in\n    tag_181:\n      tag_182\n      swap3\n      swap2\n      swap1\n      tag_183\n      jump\t// in\n    tag_182:\n      pop\n        /* \"BasicEnzian.sol\":7114:7118  true */\n      0x01\n        /* \"BasicEnzian.sol\":7100:7119  TaskCompleted(true) */\n      iszero\n      iszero\n      0xacd30b4f9fd5868793e13ffb506f03374a23d9feba1249ac2cc7b0fe024ff4ba\n      mload(0x40)\n      mload(0x40)\n      dup1\n      swap2\n      sub\n      swap1\n      log2\n        /* \"BasicEnzian.sol\":6917:7198  if(success) {\r... */\n      jump(tag_184)\n    tag_178:\n        /* \"BasicEnzian.sol\":7180:7185  false */\n      0x00\n        /* \"BasicEnzian.sol\":7166:7186  TaskCompleted(false) */\n      iszero\n      iszero\n      0xacd30b4f9fd5868793e13ffb506f03374a23d9feba1249ac2cc7b0fe024ff4ba\n      mload(0x40)\n      mload(0x40)\n      dup1\n      swap2\n      sub\n      swap1\n      log2\n        /* \"BasicEnzian.sol\":6917:7198  if(success) {\r... */\n    tag_184:\n        /* \"BasicEnzian.sol\":7218:7232  return success */\n      pop\n      pop\n        /* \"BasicEnzian.sol\":4048:7250  function completing(uint taskId) public returns (bool success){\r... */\n      swap2\n      swap1\n      pop\n      jump\t// out\n    tag_66:\n      mload(0x40)\n      dup1\n      0xe0\n      add\n      0x40\n      mstore\n      dup1\n      0x60\n      dup2\n      mstore\n      0x20\n      add\n      and(0xffffffffffffffffffffffffffffffffffffffff, 0x00)\n      dup2\n      mstore\n      0x20\n      add\n      iszero(iszero(0x00))\n      dup2\n      mstore\n      0x20\n      add\n      0x00\n      0x03\n      dup2\n      gt\n      iszero\n      tag_185\n      jumpi\n      mstore(0x00, 0x4e487b7100000000000000000000000000000000000000000000000000000000)\n      mstore(0x04, 0x21)\n      revert(0x00, 0x24)\n    tag_185:\n      dup2\n      mstore\n      0x20\n      add\n      0x60\n      dup2\n      mstore\n      0x20\n      add\n      0x60\n      dup2\n      mstore\n      0x20\n      add\n      tag_186\n      tag_187\n      jump\t// in\n    tag_186:\n      dup2\n      mstore\n      pop\n      swap1\n      jump\t// out\n    tag_70:\n      dup3\n      dup1\n      sload\n      tag_188\n      swap1\n      tag_103\n      jump\t// in\n    tag_188:\n      swap1\n      0x00\n      mstore\n      keccak256(0x00, 0x20)\n      swap1\n      0x1f\n      add\n      0x20\n      swap1\n      div\n      dup2\n      add\n      swap3\n      dup3\n      tag_190\n      jumpi\n      0x00\n      dup6\n      sstore\n      jump(tag_189)\n    tag_190:\n      dup3\n      0x1f\n      lt\n      tag_191\n      jumpi\n      dup1\n      mload\n      not(0xff)\n      and\n      dup4\n      dup1\n      add\n      or\n      dup6\n      sstore\n      jump(tag_189)\n    tag_191:\n      dup3\n      dup1\n      add\n      0x01\n      add\n      dup6\n      sstore\n      dup3\n      iszero\n      tag_189\n      jumpi\n      swap2\n      dup3\n      add\n    tag_192:\n      dup3\n      dup2\n      gt\n      iszero\n      tag_193\n      jumpi\n      dup3\n      mload\n      dup3\n      sstore\n      swap2\n      0x20\n      add\n      swap2\n      swap1\n      0x01\n      add\n      swap1\n      jump(tag_192)\n    tag_193:\n    tag_189:\n      pop\n      swap1\n      pop\n      tag_194\n      swap2\n      swap1\n      tag_195\n      jump\t// in\n    tag_194:\n      pop\n      swap1\n      jump\t// out\n    tag_73:\n      dup3\n      dup1\n      sload\n      dup3\n      dup3\n      sstore\n      swap1\n      0x00\n      mstore\n      keccak256(0x00, 0x20)\n      swap1\n      dup2\n      add\n      swap3\n      dup3\n      iszero\n      tag_196\n      jumpi\n      swap2\n      0x20\n      mul\n      dup3\n      add\n    tag_197:\n      dup3\n      dup2\n      gt\n      iszero\n      tag_198\n      jumpi\n      dup3\n      mload\n      dup3\n      sstore\n      swap2\n      0x20\n      add\n      swap2\n      swap1\n      0x01\n      add\n      swap1\n      jump(tag_197)\n    tag_198:\n    tag_196:\n      pop\n      swap1\n      pop\n      tag_199\n      swap2\n      swap1\n      tag_195\n      jump\t// in\n    tag_199:\n      pop\n      swap1\n      jump\t// out\n    tag_183:\n      dup3\n      dup1\n      sload\n      tag_200\n      swap1\n      tag_103\n      jump\t// in\n    tag_200:\n      swap1\n      0x00\n      mstore\n      keccak256(0x00, 0x20)\n      swap1\n      0x1f\n      add\n      0x20\n      swap1\n      div\n      dup2\n      add\n      swap3\n      dup3\n      tag_202\n      jumpi\n      0x00\n      dup6\n      sstore\n      jump(tag_201)\n    tag_202:\n      dup3\n      0x1f\n      lt\n      tag_203\n      jumpi\n      dup1\n      sload\n      dup6\n      sstore\n      jump(tag_201)\n    tag_203:\n      dup3\n      dup1\n      add\n      0x01\n      add\n      dup6\n      sstore\n      dup3\n      iszero\n      tag_201\n      jumpi\n      0x00\n      mstore\n      keccak256(0x00, 0x20)\n      swap2\n      0x1f\n      add\n      0x20\n      swap1\n      div\n      dup3\n      add\n    tag_204:\n      dup3\n      dup2\n      gt\n      iszero\n      tag_205\n      jumpi\n      dup3\n      sload\n      dup3\n      sstore\n      swap2\n      0x01\n      add\n      swap2\n      swap1\n      0x01\n      add\n      swap1\n      jump(tag_204)\n    tag_205:\n    tag_201:\n      pop\n      swap1\n      pop\n      tag_206\n      swap2\n      swap1\n      tag_195\n      jump\t// in\n    tag_206:\n      pop\n      swap1\n      jump\t// out\n    tag_187:\n      mload(0x40)\n      dup1\n      0x0100\n      add\n      0x40\n      mstore\n      dup1\n      0x00\n      dup2\n      mstore\n      0x20\n      add\n      0x00\n      0x03\n      dup2\n      gt\n      iszero\n      tag_207\n      jumpi\n      mstore(0x00, 0x4e487b7100000000000000000000000000000000000000000000000000000000)\n      mstore(0x04, 0x21)\n      revert(0x00, 0x24)\n    tag_207:\n      dup2\n      mstore\n      0x20\n      add\n      0x00\n      0x02\n      dup2\n      gt\n      iszero\n      tag_208\n      jumpi\n      mstore(0x00, 0x4e487b7100000000000000000000000000000000000000000000000000000000)\n      mstore(0x04, 0x21)\n      revert(0x00, 0x24)\n    tag_208:\n      dup2\n      mstore\n      0x20\n      add\n      iszero(iszero(0x00))\n      dup2\n      mstore\n      0x20\n      add\n      iszero(iszero(0x00))\n      dup2\n      mstore\n      0x20\n      add\n      0x00\n      0x06\n      dup2\n      gt\n      iszero\n      tag_209\n      jumpi\n      mstore(0x00, 0x4e487b7100000000000000000000000000000000000000000000000000000000)\n      mstore(0x04, 0x21)\n      revert(0x00, 0x24)\n    tag_209:\n      dup2\n      mstore\n      0x20\n      add\n      tag_210\n      tag_211\n      jump\t// in\n    tag_210:\n      dup2\n      mstore\n      0x20\n      add\n      tag_212\n      tag_213\n      jump\t// in\n    tag_212:\n      dup2\n      mstore\n      pop\n      swap1\n      jump\t// out\n    tag_195:\n    tag_214:\n      dup1\n      dup3\n      gt\n      iszero\n      tag_215\n      jumpi\n      0x00\n      dup2\n      0x00\n      swap1\n      sstore\n      pop\n      0x01\n      add\n      jump(tag_214)\n    tag_215:\n      pop\n      swap1\n      jump\t// out\n    tag_211:\n      mload(0x40)\n      dup1\n      0x40\n      add\n      0x40\n      mstore\n      dup1\n      0x00\n      dup2\n      mstore\n      0x20\n      add\n      0x60\n      dup2\n      mstore\n      pop\n      swap1\n      jump\t// out\n    tag_213:\n      mload(0x40)\n      dup1\n      0x40\n      add\n      0x40\n      mstore\n      dup1\n      0x00\n      dup2\n      mstore\n      0x20\n      add\n      0x60\n      dup2\n      mstore\n      pop\n      swap1\n      jump\t// out\n        /* \"#utility.yul\":24:646   */\n    tag_217:\n      0x00\n        /* \"#utility.yul\":145:225   */\n      tag_219\n        /* \"#utility.yul\":160:224   */\n      tag_220\n        /* \"#utility.yul\":217:223   */\n      dup5\n        /* \"#utility.yul\":160:224   */\n      tag_221\n      jump\t// in\n    tag_220:\n        /* \"#utility.yul\":145:225   */\n      tag_222\n      jump\t// in\n    tag_219:\n        /* \"#utility.yul\":136:225   */\n      swap1\n      pop\n        /* \"#utility.yul\":245:250   */\n      dup1\n        /* \"#utility.yul\":273:279   */\n      dup4\n        /* \"#utility.yul\":266:271   */\n      dup3\n        /* \"#utility.yul\":259:280   */\n      mstore\n        /* \"#utility.yul\":299:303   */\n      0x20\n        /* \"#utility.yul\":292:297   */\n      dup3\n        /* \"#utility.yul\":288:304   */\n      add\n        /* \"#utility.yul\":281:304   */\n      swap1\n      pop\n        /* \"#utility.yul\":324:330   */\n      dup3\n        /* \"#utility.yul\":374:377   */\n      dup6\n        /* \"#utility.yul\":366:370   */\n      0x20\n        /* \"#utility.yul\":358:364   */\n      dup7\n        /* \"#utility.yul\":354:371   */\n      mul\n        /* \"#utility.yul\":349:352   */\n      dup3\n        /* \"#utility.yul\":345:372   */\n      add\n        /* \"#utility.yul\":342:378   */\n      gt\n        /* \"#utility.yul\":339:341   */\n      iszero\n      tag_223\n      jumpi\n        /* \"#utility.yul\":391:392   */\n      0x00\n        /* \"#utility.yul\":388:389   */\n      dup1\n        /* \"#utility.yul\":381:393   */\n      revert\n        /* \"#utility.yul\":339:341   */\n    tag_223:\n        /* \"#utility.yul\":419:420   */\n      0x00\n        /* \"#utility.yul\":404:640   */\n    tag_224:\n        /* \"#utility.yul\":429:435   */\n      dup6\n        /* \"#utility.yul\":426:427   */\n      dup2\n        /* \"#utility.yul\":423:436   */\n      lt\n        /* \"#utility.yul\":404:640   */\n      iszero\n      tag_226\n      jumpi\n        /* \"#utility.yul\":496:499   */\n      dup2\n        /* \"#utility.yul\":524:561   */\n      tag_227\n        /* \"#utility.yul\":557:560   */\n      dup9\n        /* \"#utility.yul\":545:555   */\n      dup3\n        /* \"#utility.yul\":524:561   */\n      tag_228\n      jump\t// in\n    tag_227:\n        /* \"#utility.yul\":519:522   */\n      dup5\n        /* \"#utility.yul\":512:562   */\n      mstore\n        /* \"#utility.yul\":591:595   */\n      0x20\n        /* \"#utility.yul\":586:589   */\n      dup5\n        /* \"#utility.yul\":582:596   */\n      add\n        /* \"#utility.yul\":575:596   */\n      swap4\n      pop\n        /* \"#utility.yul\":625:629   */\n      0x20\n        /* \"#utility.yul\":620:623   */\n      dup4\n        /* \"#utility.yul\":616:630   */\n      add\n        /* \"#utility.yul\":609:630   */\n      swap3\n      pop\n        /* \"#utility.yul\":464:640   */\n      pop\n        /* \"#utility.yul\":451:452   */\n      0x01\n        /* \"#utility.yul\":448:449   */\n      dup2\n        /* \"#utility.yul\":444:453   */\n      add\n        /* \"#utility.yul\":439:453   */\n      swap1\n      pop\n        /* \"#utility.yul\":404:640   */\n      jump(tag_224)\n    tag_226:\n        /* \"#utility.yul\":408:422   */\n      pop\n        /* \"#utility.yul\":126:646   */\n      pop\n      pop\n      swap4\n      swap3\n      pop\n      pop\n      pop\n      jump\t// out\n        /* \"#utility.yul\":652:996   */\n    tag_229:\n      0x00\n        /* \"#utility.yul\":755:820   */\n      tag_231\n        /* \"#utility.yul\":770:819   */\n      tag_232\n        /* \"#utility.yul\":812:818   */\n      dup5\n        /* \"#utility.yul\":770:819   */\n      tag_233\n      jump\t// in\n    tag_232:\n        /* \"#utility.yul\":755:820   */\n      tag_222\n      jump\t// in\n    tag_231:\n        /* \"#utility.yul\":746:820   */\n      swap1\n      pop\n        /* \"#utility.yul\":843:849   */\n      dup3\n        /* \"#utility.yul\":836:841   */\n      dup2\n        /* \"#utility.yul\":829:850   */\n      mstore\n        /* \"#utility.yul\":881:885   */\n      0x20\n        /* \"#utility.yul\":874:879   */\n      dup2\n        /* \"#utility.yul\":870:886   */\n      add\n        /* \"#utility.yul\":919:922   */\n      dup5\n        /* \"#utility.yul\":910:916   */\n      dup5\n        /* \"#utility.yul\":905:908   */\n      dup5\n        /* \"#utility.yul\":901:917   */\n      add\n        /* \"#utility.yul\":898:923   */\n      gt\n        /* \"#utility.yul\":895:897   */\n      iszero\n      tag_234\n      jumpi\n        /* \"#utility.yul\":936:937   */\n      0x00\n        /* \"#utility.yul\":933:934   */\n      dup1\n        /* \"#utility.yul\":926:938   */\n      revert\n        /* \"#utility.yul\":895:897   */\n    tag_234:\n        /* \"#utility.yul\":949:990   */\n      tag_235\n        /* \"#utility.yul\":983:989   */\n      dup5\n        /* \"#utility.yul\":978:981   */\n      dup3\n        /* \"#utility.yul\":973:976   */\n      dup6\n        /* \"#utility.yul\":949:990   */\n      tag_236\n      jump\t// in\n    tag_235:\n        /* \"#utility.yul\":736:996   */\n      pop\n      swap4\n      swap3\n      pop\n      pop\n      pop\n      jump\t// out\n        /* \"#utility.yul\":1002:1141   */\n    tag_237:\n      0x00\n        /* \"#utility.yul\":1086:1092   */\n      dup2\n        /* \"#utility.yul\":1073:1093   */\n      calldataload\n        /* \"#utility.yul\":1064:1093   */\n      swap1\n      pop\n        /* \"#utility.yul\":1102:1135   */\n      tag_239\n        /* \"#utility.yul\":1129:1134   */\n      dup2\n        /* \"#utility.yul\":1102:1135   */\n      tag_240\n      jump\t// in\n    tag_239:\n        /* \"#utility.yul\":1054:1141   */\n      swap3\n      swap2\n      pop\n      pop\n      jump\t// out\n        /* \"#utility.yul\":1164:1467   */\n    tag_241:\n      0x00\n        /* \"#utility.yul\":1284:1287   */\n      dup3\n        /* \"#utility.yul\":1277:1281   */\n      0x1f\n        /* \"#utility.yul\":1269:1275   */\n      dup4\n        /* \"#utility.yul\":1265:1282   */\n      add\n        /* \"#utility.yul\":1261:1288   */\n      slt\n        /* \"#utility.yul\":1251:1253   */\n      tag_243\n      jumpi\n        /* \"#utility.yul\":1302:1303   */\n      0x00\n        /* \"#utility.yul\":1299:1300   */\n      dup1\n        /* \"#utility.yul\":1292:1304   */\n      revert\n        /* \"#utility.yul\":1251:1253   */\n    tag_243:\n        /* \"#utility.yul\":1342:1348   */\n      dup2\n        /* \"#utility.yul\":1329:1349   */\n      calldataload\n        /* \"#utility.yul\":1367:1461   */\n      tag_244\n        /* \"#utility.yul\":1457:1460   */\n      dup5\n        /* \"#utility.yul\":1449:1455   */\n      dup3\n        /* \"#utility.yul\":1442:1446   */\n      0x20\n        /* \"#utility.yul\":1434:1440   */\n      dup7\n        /* \"#utility.yul\":1430:1447   */\n      add\n        /* \"#utility.yul\":1367:1461   */\n      tag_217\n      jump\t// in\n    tag_244:\n        /* \"#utility.yul\":1358:1461   */\n      swap2\n      pop\n        /* \"#utility.yul\":1241:1467   */\n      pop\n      swap3\n      swap2\n      pop\n      pop\n      jump\t// out\n        /* \"#utility.yul\":1473:1606   */\n    tag_245:\n      0x00\n        /* \"#utility.yul\":1554:1560   */\n      dup2\n        /* \"#utility.yul\":1541:1561   */\n      calldataload\n        /* \"#utility.yul\":1532:1561   */\n      swap1\n      pop\n        /* \"#utility.yul\":1570:1600   */\n      tag_247\n        /* \"#utility.yul\":1594:1599   */\n      dup2\n        /* \"#utility.yul\":1570:1600   */\n      tag_248\n      jump\t// in\n    tag_247:\n        /* \"#utility.yul\":1522:1606   */\n      swap3\n      swap2\n      pop\n      pop\n      jump\t// out\n        /* \"#utility.yul\":1612:1781   */\n    tag_249:\n      0x00\n        /* \"#utility.yul\":1711:1717   */\n      dup2\n        /* \"#utility.yul\":1698:1718   */\n      calldataload\n        /* \"#utility.yul\":1689:1718   */\n      swap1\n      pop\n        /* \"#utility.yul\":1727:1775   */\n      tag_251\n        /* \"#utility.yul\":1769:1774   */\n      dup2\n        /* \"#utility.yul\":1727:1775   */\n      tag_252\n      jump\t// in\n    tag_251:\n        /* \"#utility.yul\":1679:1781   */\n      swap3\n      swap2\n      pop\n      pop\n      jump\t// out\n        /* \"#utility.yul\":1787:1952   */\n    tag_253:\n      0x00\n        /* \"#utility.yul\":1884:1890   */\n      dup2\n        /* \"#utility.yul\":1871:1891   */\n      calldataload\n        /* \"#utility.yul\":1862:1891   */\n      swap1\n      pop\n        /* \"#utility.yul\":1900:1946   */\n      tag_255\n        /* \"#utility.yul\":1940:1945   */\n      dup2\n        /* \"#utility.yul\":1900:1946   */\n      tag_256\n      jump\t// in\n    tag_255:\n        /* \"#utility.yul\":1852:1952   */\n      swap3\n      swap2\n      pop\n      pop\n      jump\t// out\n        /* \"#utility.yul\":1958:2119   */\n    tag_257:\n      0x00\n        /* \"#utility.yul\":2053:2059   */\n      dup2\n        /* \"#utility.yul\":2040:2060   */\n      calldataload\n        /* \"#utility.yul\":2031:2060   */\n      swap1\n      pop\n        /* \"#utility.yul\":2069:2113   */\n      tag_259\n        /* \"#utility.yul\":2107:2112   */\n      dup2\n        /* \"#utility.yul\":2069:2113   */\n      tag_260\n      jump\t// in\n    tag_259:\n        /* \"#utility.yul\":2021:2119   */\n      swap3\n      swap2\n      pop\n      pop\n      jump\t// out\n        /* \"#utility.yul\":2139:2412   */\n    tag_261:\n      0x00\n        /* \"#utility.yul\":2244:2247   */\n      dup3\n        /* \"#utility.yul\":2237:2241   */\n      0x1f\n        /* \"#utility.yul\":2229:2235   */\n      dup4\n        /* \"#utility.yul\":2225:2242   */\n      add\n        /* \"#utility.yul\":2221:2248   */\n      slt\n        /* \"#utility.yul\":2211:2213   */\n      tag_263\n      jumpi\n        /* \"#utility.yul\":2262:2263   */\n      0x00\n        /* \"#utility.yul\":2259:2260   */\n      dup1\n        /* \"#utility.yul\":2252:2264   */\n      revert\n        /* \"#utility.yul\":2211:2213   */\n    tag_263:\n        /* \"#utility.yul\":2302:2308   */\n      dup2\n        /* \"#utility.yul\":2289:2309   */\n      calldataload\n        /* \"#utility.yul\":2327:2406   */\n      tag_264\n        /* \"#utility.yul\":2402:2405   */\n      dup5\n        /* \"#utility.yul\":2394:2400   */\n      dup3\n        /* \"#utility.yul\":2387:2391   */\n      0x20\n        /* \"#utility.yul\":2379:2385   */\n      dup7\n        /* \"#utility.yul\":2375:2392   */\n      add\n        /* \"#utility.yul\":2327:2406   */\n      tag_229\n      jump\t// in\n    tag_264:\n        /* \"#utility.yul\":2318:2406   */\n      swap2\n      pop\n        /* \"#utility.yul\":2201:2412   */\n      pop\n      swap3\n      swap2\n      pop\n      pop\n      jump\t// out\n        /* \"#utility.yul\":2453:4253   */\n    tag_265:\n      0x00\n        /* \"#utility.yul\":2570:2576   */\n      0x0100\n        /* \"#utility.yul\":2558:2567   */\n      dup3\n        /* \"#utility.yul\":2553:2556   */\n      dup5\n        /* \"#utility.yul\":2549:2568   */\n      sub\n        /* \"#utility.yul\":2545:2577   */\n      slt\n        /* \"#utility.yul\":2542:2544   */\n      iszero\n      tag_267\n      jumpi\n        /* \"#utility.yul\":2590:2591   */\n      0x00\n        /* \"#utility.yul\":2587:2588   */\n      dup1\n        /* \"#utility.yul\":2580:2592   */\n      revert\n        /* \"#utility.yul\":2542:2544   */\n    tag_267:\n        /* \"#utility.yul\":2612:2634   */\n      tag_268\n        /* \"#utility.yul\":2627:2633   */\n      0x0100\n        /* \"#utility.yul\":2612:2634   */\n      tag_222\n      jump\t// in\n    tag_268:\n        /* \"#utility.yul\":2603:2634   */\n      swap1\n      pop\n        /* \"#utility.yul\":2696:2697   */\n      0x00\n        /* \"#utility.yul\":2736:2785   */\n      tag_269\n        /* \"#utility.yul\":2781:2784   */\n      dup5\n        /* \"#utility.yul\":2772:2778   */\n      dup3\n        /* \"#utility.yul\":2761:2770   */\n      dup6\n        /* \"#utility.yul\":2757:2779   */\n      add\n        /* \"#utility.yul\":2736:2785   */\n      tag_228\n      jump\t// in\n    tag_269:\n        /* \"#utility.yul\":2729:2733   */\n      0x00\n        /* \"#utility.yul\":2722:2727   */\n      dup4\n        /* \"#utility.yul\":2718:2734   */\n      add\n        /* \"#utility.yul\":2711:2786   */\n      mstore\n        /* \"#utility.yul\":2644:2797   */\n      pop\n        /* \"#utility.yul\":2863:2865   */\n      0x20\n        /* \"#utility.yul\":2904:2966   */\n      tag_270\n        /* \"#utility.yul\":2962:2965   */\n      dup5\n        /* \"#utility.yul\":2953:2959   */\n      dup3\n        /* \"#utility.yul\":2942:2951   */\n      dup6\n        /* \"#utility.yul\":2938:2960   */\n      add\n        /* \"#utility.yul\":2904:2966   */\n      tag_253\n      jump\t// in\n    tag_270:\n        /* \"#utility.yul\":2897:2901   */\n      0x20\n        /* \"#utility.yul\":2890:2895   */\n      dup4\n        /* \"#utility.yul\":2886:2902   */\n      add\n        /* \"#utility.yul\":2879:2967   */\n      mstore\n        /* \"#utility.yul\":2807:2978   */\n      pop\n        /* \"#utility.yul\":3036:3038   */\n      0x40\n        /* \"#utility.yul\":3077:3141   */\n      tag_271\n        /* \"#utility.yul\":3137:3140   */\n      dup5\n        /* \"#utility.yul\":3128:3134   */\n      dup3\n        /* \"#utility.yul\":3117:3126   */\n      dup6\n        /* \"#utility.yul\":3113:3135   */\n      add\n        /* \"#utility.yul\":3077:3141   */\n      tag_249\n      jump\t// in\n    tag_271:\n        /* \"#utility.yul\":3070:3074   */\n      0x40\n        /* \"#utility.yul\":3063:3068   */\n      dup4\n        /* \"#utility.yul\":3059:3075   */\n      add\n        /* \"#utility.yul\":3052:3142   */\n      mstore\n        /* \"#utility.yul\":2988:3153   */\n      pop\n        /* \"#utility.yul\":3217:3219   */\n      0x60\n        /* \"#utility.yul\":3258:3304   */\n      tag_272\n        /* \"#utility.yul\":3300:3303   */\n      dup5\n        /* \"#utility.yul\":3291:3297   */\n      dup3\n        /* \"#utility.yul\":3280:3289   */\n      dup6\n        /* \"#utility.yul\":3276:3298   */\n      add\n        /* \"#utility.yul\":3258:3304   */\n      tag_245\n      jump\t// in\n    tag_272:\n        /* \"#utility.yul\":3251:3255   */\n      0x60\n        /* \"#utility.yul\":3244:3249   */\n      dup4\n        /* \"#utility.yul\":3240:3256   */\n      add\n        /* \"#utility.yul\":3233:3305   */\n      mstore\n        /* \"#utility.yul\":3163:3316   */\n      pop\n        /* \"#utility.yul\":3377:3380   */\n      0x80\n        /* \"#utility.yul\":3419:3465   */\n      tag_273\n        /* \"#utility.yul\":3461:3464   */\n      dup5\n        /* \"#utility.yul\":3452:3458   */\n      dup3\n        /* \"#utility.yul\":3441:3450   */\n      dup6\n        /* \"#utility.yul\":3437:3459   */\n      add\n        /* \"#utility.yul\":3419:3465   */\n      tag_245\n      jump\t// in\n    tag_273:\n        /* \"#utility.yul\":3412:3416   */\n      0x80\n        /* \"#utility.yul\":3405:3410   */\n      dup4\n        /* \"#utility.yul\":3401:3417   */\n      add\n        /* \"#utility.yul\":3394:3466   */\n      mstore\n        /* \"#utility.yul\":3326:3477   */\n      pop\n        /* \"#utility.yul\":3540:3543   */\n      0xa0\n        /* \"#utility.yul\":3582:3642   */\n      tag_274\n        /* \"#utility.yul\":3638:3641   */\n      dup5\n        /* \"#utility.yul\":3629:3635   */\n      dup3\n        /* \"#utility.yul\":3618:3627   */\n      dup6\n        /* \"#utility.yul\":3614:3636   */\n      add\n        /* \"#utility.yul\":3582:3642   */\n      tag_257\n      jump\t// in\n    tag_274:\n        /* \"#utility.yul\":3575:3579   */\n      0xa0\n        /* \"#utility.yul\":3568:3573   */\n      dup4\n        /* \"#utility.yul\":3564:3580   */\n      add\n        /* \"#utility.yul\":3557:3643   */\n      mstore\n        /* \"#utility.yul\":3487:3654   */\n      pop\n        /* \"#utility.yul\":3752:3755   */\n      0xc0\n        /* \"#utility.yul\":3741:3750   */\n      dup3\n        /* \"#utility.yul\":3737:3756   */\n      add\n        /* \"#utility.yul\":3724:3757   */\n      calldataload\n        /* \"#utility.yul\":3784:3802   */\n      0xffffffffffffffff\n        /* \"#utility.yul\":3776:3782   */\n      dup2\n        /* \"#utility.yul\":3773:3803   */\n      gt\n        /* \"#utility.yul\":3770:3772   */\n      iszero\n      tag_275\n      jumpi\n        /* \"#utility.yul\":3816:3817   */\n      0x00\n        /* \"#utility.yul\":3813:3814   */\n      dup1\n        /* \"#utility.yul\":3806:3818   */\n      revert\n        /* \"#utility.yul\":3770:3772   */\n    tag_275:\n        /* \"#utility.yul\":3859:3939   */\n      tag_276\n        /* \"#utility.yul\":3935:3938   */\n      dup5\n        /* \"#utility.yul\":3926:3932   */\n      dup3\n        /* \"#utility.yul\":3915:3924   */\n      dup6\n        /* \"#utility.yul\":3911:3933   */\n      add\n        /* \"#utility.yul\":3859:3939   */\n      tag_277\n      jump\t// in\n    tag_276:\n        /* \"#utility.yul\":3852:3856   */\n      0xc0\n        /* \"#utility.yul\":3845:3850   */\n      dup4\n        /* \"#utility.yul\":3841:3857   */\n      add\n        /* \"#utility.yul\":3834:3940   */\n      mstore\n        /* \"#utility.yul\":3664:3951   */\n      pop\n        /* \"#utility.yul\":4048:4051   */\n      0xe0\n        /* \"#utility.yul\":4037:4046   */\n      dup3\n        /* \"#utility.yul\":4033:4052   */\n      add\n        /* \"#utility.yul\":4020:4053   */\n      calldataload\n        /* \"#utility.yul\":4080:4098   */\n      0xffffffffffffffff\n        /* \"#utility.yul\":4072:4078   */\n      dup2\n        /* \"#utility.yul\":4069:4099   */\n      gt\n        /* \"#utility.yul\":4066:4068   */\n      iszero\n      tag_278\n      jumpi\n        /* \"#utility.yul\":4112:4113   */\n      0x00\n        /* \"#utility.yul\":4109:4110   */\n      dup1\n        /* \"#utility.yul\":4102:4114   */\n      revert\n        /* \"#utility.yul\":4066:4068   */\n    tag_278:\n        /* \"#utility.yul\":4155:4234   */\n      tag_279\n        /* \"#utility.yul\":4230:4233   */\n      dup5\n        /* \"#utility.yul\":4221:4227   */\n      dup3\n        /* \"#utility.yul\":4210:4219   */\n      dup6\n        /* \"#utility.yul\":4206:4228   */\n      add\n        /* \"#utility.yul\":4155:4234   */\n      tag_280\n      jump\t// in\n    tag_279:\n        /* \"#utility.yul\":4148:4152   */\n      0xe0\n        /* \"#utility.yul\":4141:4146   */\n      dup4\n        /* \"#utility.yul\":4137:4153   */\n      add\n        /* \"#utility.yul\":4130:4235   */\n      mstore\n        /* \"#utility.yul\":3961:4246   */\n      pop\n        /* \"#utility.yul\":2532:4253   */\n      swap3\n      swap2\n      pop\n      pop\n      jump\t// out\n        /* \"#utility.yul\":4301:4952   */\n    tag_277:\n      0x00\n        /* \"#utility.yul\":4425:4429   */\n      0x40\n        /* \"#utility.yul\":4413:4422   */\n      dup3\n        /* \"#utility.yul\":4408:4411   */\n      dup5\n        /* \"#utility.yul\":4404:4423   */\n      sub\n        /* \"#utility.yul\":4400:4430   */\n      slt\n        /* \"#utility.yul\":4397:4399   */\n      iszero\n      tag_282\n      jumpi\n        /* \"#utility.yul\":4443:4444   */\n      0x00\n        /* \"#utility.yul\":4440:4441   */\n      dup1\n        /* \"#utility.yul\":4433:4445   */\n      revert\n        /* \"#utility.yul\":4397:4399   */\n    tag_282:\n        /* \"#utility.yul\":4465:4485   */\n      tag_283\n        /* \"#utility.yul\":4480:4484   */\n      0x40\n        /* \"#utility.yul\":4465:4485   */\n      tag_222\n      jump\t// in\n    tag_283:\n        /* \"#utility.yul\":4456:4485   */\n      swap1\n      pop\n        /* \"#utility.yul\":4564:4565   */\n      0x00\n        /* \"#utility.yul\":4604:4653   */\n      tag_284\n        /* \"#utility.yul\":4649:4652   */\n      dup5\n        /* \"#utility.yul\":4640:4646   */\n      dup3\n        /* \"#utility.yul\":4629:4638   */\n      dup6\n        /* \"#utility.yul\":4625:4647   */\n      add\n        /* \"#utility.yul\":4604:4653   */\n      tag_228\n      jump\t// in\n    tag_284:\n        /* \"#utility.yul\":4597:4601   */\n      0x00\n        /* \"#utility.yul\":4590:4595   */\n      dup4\n        /* \"#utility.yul\":4586:4602   */\n      add\n        /* \"#utility.yul\":4579:4654   */\n      mstore\n        /* \"#utility.yul\":4495:4665   */\n      pop\n        /* \"#utility.yul\":4753:4755   */\n      0x20\n        /* \"#utility.yul\":4742:4751   */\n      dup3\n        /* \"#utility.yul\":4738:4756   */\n      add\n        /* \"#utility.yul\":4725:4757   */\n      calldataload\n        /* \"#utility.yul\":4784:4802   */\n      0xffffffffffffffff\n        /* \"#utility.yul\":4776:4782   */\n      dup2\n        /* \"#utility.yul\":4773:4803   */\n      gt\n        /* \"#utility.yul\":4770:4772   */\n      iszero\n      tag_285\n      jumpi\n        /* \"#utility.yul\":4816:4817   */\n      0x00\n        /* \"#utility.yul\":4813:4814   */\n      dup1\n        /* \"#utility.yul\":4806:4818   */\n      revert\n        /* \"#utility.yul\":4770:4772   */\n    tag_285:\n        /* \"#utility.yul\":4859:4933   */\n      tag_286\n        /* \"#utility.yul\":4929:4932   */\n      dup5\n        /* \"#utility.yul\":4920:4926   */\n      dup3\n        /* \"#utility.yul\":4909:4918   */\n      dup6\n        /* \"#utility.yul\":4905:4927   */\n      add\n        /* \"#utility.yul\":4859:4933   */\n      tag_241\n      jump\t// in\n    tag_286:\n        /* \"#utility.yul\":4852:4856   */\n      0x20\n        /* \"#utility.yul\":4845:4850   */\n      dup4\n        /* \"#utility.yul\":4841:4857   */\n      add\n        /* \"#utility.yul\":4834:4934   */\n      mstore\n        /* \"#utility.yul\":4675:4945   */\n      pop\n        /* \"#utility.yul\":4387:4952   */\n      swap3\n      swap2\n      pop\n      pop\n      jump\t// out\n        /* \"#utility.yul\":4999:5633   */\n    tag_280:\n      0x00\n        /* \"#utility.yul\":5122:5126   */\n      0x40\n        /* \"#utility.yul\":5110:5119   */\n      dup3\n        /* \"#utility.yul\":5105:5108   */\n      dup5\n        /* \"#utility.yul\":5101:5120   */\n      sub\n        /* \"#utility.yul\":5097:5127   */\n      slt\n        /* \"#utility.yul\":5094:5096   */\n      iszero\n      tag_288\n      jumpi\n        /* \"#utility.yul\":5140:5141   */\n      0x00\n        /* \"#utility.yul\":5137:5138   */\n      dup1\n        /* \"#utility.yul\":5130:5142   */\n      revert\n        /* \"#utility.yul\":5094:5096   */\n    tag_288:\n        /* \"#utility.yul\":5162:5182   */\n      tag_289\n        /* \"#utility.yul\":5177:5181   */\n      0x40\n        /* \"#utility.yul\":5162:5182   */\n      tag_222\n      jump\t// in\n    tag_289:\n        /* \"#utility.yul\":5153:5182   */\n      swap1\n      pop\n        /* \"#utility.yul\":5260:5261   */\n      0x00\n        /* \"#utility.yul\":5300:5349   */\n      tag_290\n        /* \"#utility.yul\":5345:5348   */\n      dup5\n        /* \"#utility.yul\":5336:5342   */\n      dup3\n        /* \"#utility.yul\":5325:5334   */\n      dup6\n        /* \"#utility.yul\":5321:5343   */\n      add\n        /* \"#utility.yul\":5300:5349   */\n      tag_228\n      jump\t// in\n    tag_290:\n        /* \"#utility.yul\":5293:5297   */\n      0x00\n        /* \"#utility.yul\":5286:5291   */\n      dup4\n        /* \"#utility.yul\":5282:5298   */\n      add\n        /* \"#utility.yul\":5275:5350   */\n      mstore\n        /* \"#utility.yul\":5192:5361   */\n      pop\n        /* \"#utility.yul\":5449:5451   */\n      0x20\n        /* \"#utility.yul\":5438:5447   */\n      dup3\n        /* \"#utility.yul\":5434:5452   */\n      add\n        /* \"#utility.yul\":5421:5453   */\n      calldataload\n        /* \"#utility.yul\":5480:5498   */\n      0xffffffffffffffff\n        /* \"#utility.yul\":5472:5478   */\n      dup2\n        /* \"#utility.yul\":5469:5499   */\n      gt\n        /* \"#utility.yul\":5466:5468   */\n      iszero\n      tag_291\n      jumpi\n        /* \"#utility.yul\":5512:5513   */\n      0x00\n        /* \"#utility.yul\":5509:5510   */\n      dup1\n        /* \"#utility.yul\":5502:5514   */\n      revert\n        /* \"#utility.yul\":5466:5468   */\n    tag_291:\n        /* \"#utility.yul\":5555:5614   */\n      tag_292\n        /* \"#utility.yul\":5610:5613   */\n      dup5\n        /* \"#utility.yul\":5601:5607   */\n      dup3\n        /* \"#utility.yul\":5590:5599   */\n      dup6\n        /* \"#utility.yul\":5586:5608   */\n      add\n        /* \"#utility.yul\":5555:5614   */\n      tag_261\n      jump\t// in\n    tag_292:\n        /* \"#utility.yul\":5548:5552   */\n      0x20\n        /* \"#utility.yul\":5541:5546   */\n      dup4\n        /* \"#utility.yul\":5537:5553   */\n      add\n        /* \"#utility.yul\":5530:5615   */\n      mstore\n        /* \"#utility.yul\":5371:5626   */\n      pop\n        /* \"#utility.yul\":5084:5633   */\n      swap3\n      swap2\n      pop\n      pop\n      jump\t// out\n        /* \"#utility.yul\":5639:5778   */\n    tag_228:\n      0x00\n        /* \"#utility.yul\":5723:5729   */\n      dup2\n        /* \"#utility.yul\":5710:5730   */\n      calldataload\n        /* \"#utility.yul\":5701:5730   */\n      swap1\n      pop\n        /* \"#utility.yul\":5739:5772   */\n      tag_294\n        /* \"#utility.yul\":5766:5771   */\n      dup2\n        /* \"#utility.yul\":5739:5772   */\n      tag_295\n      jump\t// in\n    tag_294:\n        /* \"#utility.yul\":5691:5778   */\n      swap3\n      swap2\n      pop\n      pop\n      jump\t// out\n        /* \"#utility.yul\":5784:5927   */\n    tag_296:\n      0x00\n        /* \"#utility.yul\":5872:5878   */\n      dup2\n        /* \"#utility.yul\":5866:5879   */\n      mload\n        /* \"#utility.yul\":5857:5879   */\n      swap1\n      pop\n        /* \"#utility.yul\":5888:5921   */\n      tag_298\n        /* \"#utility.yul\":5915:5920   */\n      dup2\n        /* \"#utility.yul\":5888:5921   */\n      tag_295\n      jump\t// in\n    tag_298:\n        /* \"#utility.yul\":5847:5927   */\n      swap3\n      swap2\n      pop\n      pop\n      jump\t// out\n        /* \"#utility.yul\":5933:6195   */\n    tag_35:\n      0x00\n        /* \"#utility.yul\":6041:6043   */\n      0x20\n        /* \"#utility.yul\":6029:6038   */\n      dup3\n        /* \"#utility.yul\":6020:6027   */\n      dup5\n        /* \"#utility.yul\":6016:6039   */\n      sub\n        /* \"#utility.yul\":6012:6044   */\n      slt\n        /* \"#utility.yul\":6009:6011   */\n      iszero\n      tag_300\n      jumpi\n        /* \"#utility.yul\":6057:6058   */\n      0x00\n        /* \"#utility.yul\":6054:6055   */\n      dup1\n        /* \"#utility.yul\":6047:6059   */\n      revert\n        /* \"#utility.yul\":6009:6011   */\n    tag_300:\n        /* \"#utility.yul\":6100:6101   */\n      0x00\n        /* \"#utility.yul\":6125:6178   */\n      tag_301\n        /* \"#utility.yul\":6170:6177   */\n      dup5\n        /* \"#utility.yul\":6161:6167   */\n      dup3\n        /* \"#utility.yul\":6150:6159   */\n      dup6\n        /* \"#utility.yul\":6146:6168   */\n      add\n        /* \"#utility.yul\":6125:6178   */\n      tag_228\n      jump\t// in\n    tag_301:\n        /* \"#utility.yul\":6115:6178   */\n      swap2\n      pop\n        /* \"#utility.yul\":6071:6188   */\n      pop\n        /* \"#utility.yul\":5999:6195   */\n      swap3\n      swap2\n      pop\n      pop\n      jump\t// out\n        /* \"#utility.yul\":6201:6485   */\n    tag_120:\n      0x00\n        /* \"#utility.yul\":6320:6322   */\n      0x20\n        /* \"#utility.yul\":6308:6317   */\n      dup3\n        /* \"#utility.yul\":6299:6306   */\n      dup5\n        /* \"#utility.yul\":6295:6318   */\n      sub\n        /* \"#utility.yul\":6291:6323   */\n      slt\n        /* \"#utility.yul\":6288:6290   */\n      iszero\n      tag_303\n      jumpi\n        /* \"#utility.yul\":6336:6337   */\n      0x00\n        /* \"#utility.yul\":6333:6334   */\n      dup1\n        /* \"#utility.yul\":6326:6338   */\n      revert\n        /* \"#utility.yul\":6288:6290   */\n    tag_303:\n        /* \"#utility.yul\":6379:6380   */\n      0x00\n        /* \"#utility.yul\":6404:6468   */\n      tag_304\n        /* \"#utility.yul\":6460:6467   */\n      dup5\n        /* \"#utility.yul\":6451:6457   */\n      dup3\n        /* \"#utility.yul\":6440:6449   */\n      dup6\n        /* \"#utility.yul\":6436:6458   */\n      add\n        /* \"#utility.yul\":6404:6468   */\n      tag_296\n      jump\t// in\n    tag_304:\n        /* \"#utility.yul\":6394:6468   */\n      swap2\n      pop\n        /* \"#utility.yul\":6350:6478   */\n      pop\n        /* \"#utility.yul\":6278:6485   */\n      swap3\n      swap2\n      pop\n      pop\n      jump\t// out\n        /* \"#utility.yul\":6491:7568   */\n    tag_25:\n      0x00\n      dup1\n      0x00\n      dup1\n      0x00\n        /* \"#utility.yul\":6737:6740   */\n      0xa0\n        /* \"#utility.yul\":6725:6734   */\n      dup7\n        /* \"#utility.yul\":6716:6723   */\n      dup9\n        /* \"#utility.yul\":6712:6735   */\n      sub\n        /* \"#utility.yul\":6708:6741   */\n      slt\n        /* \"#utility.yul\":6705:6707   */\n      iszero\n      tag_306\n      jumpi\n        /* \"#utility.yul\":6754:6755   */\n      0x00\n        /* \"#utility.yul\":6751:6752   */\n      dup1\n        /* \"#utility.yul\":6744:6756   */\n      revert\n        /* \"#utility.yul\":6705:6707   */\n    tag_306:\n        /* \"#utility.yul\":6797:6798   */\n      0x00\n        /* \"#utility.yul\":6822:6875   */\n      tag_307\n        /* \"#utility.yul\":6867:6874   */\n      dup9\n        /* \"#utility.yul\":6858:6864   */\n      dup3\n        /* \"#utility.yul\":6847:6856   */\n      dup10\n        /* \"#utility.yul\":6843:6865   */\n      add\n        /* \"#utility.yul\":6822:6875   */\n      tag_228\n      jump\t// in\n    tag_307:\n        /* \"#utility.yul\":6812:6875   */\n      swap6\n      pop\n        /* \"#utility.yul\":6768:6885   */\n      pop\n        /* \"#utility.yul\":6924:6926   */\n      0x20\n        /* \"#utility.yul\":6950:7016   */\n      tag_308\n        /* \"#utility.yul\":7008:7015   */\n      dup9\n        /* \"#utility.yul\":6999:7005   */\n      dup3\n        /* \"#utility.yul\":6988:6997   */\n      dup10\n        /* \"#utility.yul\":6984:7006   */\n      add\n        /* \"#utility.yul\":6950:7016   */\n      tag_253\n      jump\t// in\n    tag_308:\n        /* \"#utility.yul\":6940:7016   */\n      swap5\n      pop\n        /* \"#utility.yul\":6895:7026   */\n      pop\n        /* \"#utility.yul\":7065:7067   */\n      0x40\n        /* \"#utility.yul\":7091:7159   */\n      tag_309\n        /* \"#utility.yul\":7151:7158   */\n      dup9\n        /* \"#utility.yul\":7142:7148   */\n      dup3\n        /* \"#utility.yul\":7131:7140   */\n      dup10\n        /* \"#utility.yul\":7127:7149   */\n      add\n        /* \"#utility.yul\":7091:7159   */\n      tag_249\n      jump\t// in\n    tag_309:\n        /* \"#utility.yul\":7081:7159   */\n      swap4\n      pop\n        /* \"#utility.yul\":7036:7169   */\n      pop\n        /* \"#utility.yul\":7208:7210   */\n      0x60\n        /* \"#utility.yul\":7234:7298   */\n      tag_310\n        /* \"#utility.yul\":7290:7297   */\n      dup9\n        /* \"#utility.yul\":7281:7287   */\n      dup3\n        /* \"#utility.yul\":7270:7279   */\n      dup10\n        /* \"#utility.yul\":7266:7288   */\n      add\n        /* \"#utility.yul\":7234:7298   */\n      tag_257\n      jump\t// in\n    tag_310:\n        /* \"#utility.yul\":7224:7298   */\n      swap3\n      pop\n        /* \"#utility.yul\":7179:7308   */\n      pop\n        /* \"#utility.yul\":7375:7378   */\n      0x80\n        /* \"#utility.yul\":7364:7373   */\n      dup7\n        /* \"#utility.yul\":7360:7379   */\n      add\n        /* \"#utility.yul\":7347:7380   */\n      calldataload\n        /* \"#utility.yul\":7407:7425   */\n      0xffffffffffffffff\n        /* \"#utility.yul\":7399:7405   */\n      dup2\n        /* \"#utility.yul\":7396:7426   */\n      gt\n        /* \"#utility.yul\":7393:7395   */\n      iszero\n      tag_311\n      jumpi\n        /* \"#utility.yul\":7439:7440   */\n      0x00\n        /* \"#utility.yul\":7436:7437   */\n      dup1\n        /* \"#utility.yul\":7429:7441   */\n      revert\n        /* \"#utility.yul\":7393:7395   */\n    tag_311:\n        /* \"#utility.yul\":7467:7551   */\n      tag_312\n        /* \"#utility.yul\":7543:7550   */\n      dup9\n        /* \"#utility.yul\":7534:7540   */\n      dup3\n        /* \"#utility.yul\":7523:7532   */\n      dup10\n        /* \"#utility.yul\":7519:7541   */\n      add\n        /* \"#utility.yul\":7467:7551   */\n      tag_277\n      jump\t// in\n    tag_312:\n        /* \"#utility.yul\":7457:7551   */\n      swap2\n      pop\n        /* \"#utility.yul\":7318:7561   */\n      pop\n        /* \"#utility.yul\":6695:7568   */\n      swap3\n      swap6\n      pop\n      swap3\n      swap6\n      swap1\n      swap4\n      pop\n      jump\t// out\n        /* \"#utility.yul\":7574:8989   */\n    tag_21:\n      0x00\n      dup1\n      0x00\n      dup1\n      0x00\n      dup1\n        /* \"#utility.yul\":7840:7843   */\n      0xc0\n        /* \"#utility.yul\":7828:7837   */\n      dup8\n        /* \"#utility.yul\":7819:7826   */\n      dup10\n        /* \"#utility.yul\":7815:7838   */\n      sub\n        /* \"#utility.yul\":7811:7844   */\n      slt\n        /* \"#utility.yul\":7808:7810   */\n      iszero\n      tag_314\n      jumpi\n        /* \"#utility.yul\":7857:7858   */\n      0x00\n        /* \"#utility.yul\":7854:7855   */\n      dup1\n        /* \"#utility.yul\":7847:7859   */\n      revert\n        /* \"#utility.yul\":7808:7810   */\n    tag_314:\n        /* \"#utility.yul\":7900:7901   */\n      0x00\n        /* \"#utility.yul\":7925:7978   */\n      tag_315\n        /* \"#utility.yul\":7970:7977   */\n      dup10\n        /* \"#utility.yul\":7961:7967   */\n      dup3\n        /* \"#utility.yul\":7950:7959   */\n      dup11\n        /* \"#utility.yul\":7946:7968   */\n      add\n        /* \"#utility.yul\":7925:7978   */\n      tag_228\n      jump\t// in\n    tag_315:\n        /* \"#utility.yul\":7915:7978   */\n      swap7\n      pop\n        /* \"#utility.yul\":7871:7988   */\n      pop\n        /* \"#utility.yul\":8055:8057   */\n      0x20\n        /* \"#utility.yul\":8044:8053   */\n      dup8\n        /* \"#utility.yul\":8040:8058   */\n      add\n        /* \"#utility.yul\":8027:8059   */\n      calldataload\n        /* \"#utility.yul\":8086:8104   */\n      0xffffffffffffffff\n        /* \"#utility.yul\":8078:8084   */\n      dup2\n        /* \"#utility.yul\":8075:8105   */\n      gt\n        /* \"#utility.yul\":8072:8074   */\n      iszero\n      tag_316\n      jumpi\n        /* \"#utility.yul\":8118:8119   */\n      0x00\n        /* \"#utility.yul\":8115:8116   */\n      dup1\n        /* \"#utility.yul\":8108:8120   */\n      revert\n        /* \"#utility.yul\":8072:8074   */\n    tag_316:\n        /* \"#utility.yul\":8146:8209   */\n      tag_317\n        /* \"#utility.yul\":8201:8208   */\n      dup10\n        /* \"#utility.yul\":8192:8198   */\n      dup3\n        /* \"#utility.yul\":8181:8190   */\n      dup11\n        /* \"#utility.yul\":8177:8199   */\n      add\n        /* \"#utility.yul\":8146:8209   */\n      tag_261\n      jump\t// in\n    tag_317:\n        /* \"#utility.yul\":8136:8209   */\n      swap6\n      pop\n        /* \"#utility.yul\":7998:8219   */\n      pop\n        /* \"#utility.yul\":8258:8260   */\n      0x40\n        /* \"#utility.yul\":8284:8337   */\n      tag_318\n        /* \"#utility.yul\":8329:8336   */\n      dup10\n        /* \"#utility.yul\":8320:8326   */\n      dup3\n        /* \"#utility.yul\":8309:8318   */\n      dup11\n        /* \"#utility.yul\":8305:8327   */\n      add\n        /* \"#utility.yul\":8284:8337   */\n      tag_237\n      jump\t// in\n    tag_318:\n        /* \"#utility.yul\":8274:8337   */\n      swap5\n      pop\n        /* \"#utility.yul\":8229:8347   */\n      pop\n        /* \"#utility.yul\":8386:8388   */\n      0x60\n        /* \"#utility.yul\":8412:8478   */\n      tag_319\n        /* \"#utility.yul\":8470:8477   */\n      dup10\n        /* \"#utility.yul\":8461:8467   */\n      dup3\n        /* \"#utility.yul\":8450:8459   */\n      dup11\n        /* \"#utility.yul\":8446:8468   */\n      add\n        /* \"#utility.yul\":8412:8478   */\n      tag_253\n      jump\t// in\n    tag_319:\n        /* \"#utility.yul\":8402:8478   */\n      swap4\n      pop\n        /* \"#utility.yul\":8357:8488   */\n      pop\n        /* \"#utility.yul\":8555:8558   */\n      0x80\n        /* \"#utility.yul\":8544:8553   */\n      dup8\n        /* \"#utility.yul\":8540:8559   */\n      add\n        /* \"#utility.yul\":8527:8560   */\n      calldataload\n        /* \"#utility.yul\":8587:8605   */\n      0xffffffffffffffff\n        /* \"#utility.yul\":8579:8585   */\n      dup2\n        /* \"#utility.yul\":8576:8606   */\n      gt\n        /* \"#utility.yul\":8573:8575   */\n      iszero\n      tag_320\n      jumpi\n        /* \"#utility.yul\":8619:8620   */\n      0x00\n        /* \"#utility.yul\":8616:8617   */\n      dup1\n        /* \"#utility.yul\":8609:8621   */\n      revert\n        /* \"#utility.yul\":8573:8575   */\n    tag_320:\n        /* \"#utility.yul\":8647:8725   */\n      tag_321\n        /* \"#utility.yul\":8717:8724   */\n      dup10\n        /* \"#utility.yul\":8708:8714   */\n      dup3\n        /* \"#utility.yul\":8697:8706   */\n      dup11\n        /* \"#utility.yul\":8693:8715   */\n      add\n        /* \"#utility.yul\":8647:8725   */\n      tag_241\n      jump\t// in\n    tag_321:\n        /* \"#utility.yul\":8637:8725   */\n      swap3\n      pop\n        /* \"#utility.yul\":8498:8735   */\n      pop\n        /* \"#utility.yul\":8802:8805   */\n      0xa0\n        /* \"#utility.yul\":8791:8800   */\n      dup8\n        /* \"#utility.yul\":8787:8806   */\n      add\n        /* \"#utility.yul\":8774:8807   */\n      calldataload\n        /* \"#utility.yul\":8834:8852   */\n      0xffffffffffffffff\n        /* \"#utility.yul\":8826:8832   */\n      dup2\n        /* \"#utility.yul\":8823:8853   */\n      gt\n        /* \"#utility.yul\":8820:8822   */\n      iszero\n      tag_322\n      jumpi\n        /* \"#utility.yul\":8866:8867   */\n      0x00\n        /* \"#utility.yul\":8863:8864   */\n      dup1\n        /* \"#utility.yul\":8856:8868   */\n      revert\n        /* \"#utility.yul\":8820:8822   */\n    tag_322:\n        /* \"#utility.yul\":8894:8972   */\n      tag_323\n        /* \"#utility.yul\":8964:8971   */\n      dup10\n        /* \"#utility.yul\":8955:8961   */\n      dup3\n        /* \"#utility.yul\":8944:8953   */\n      dup11\n        /* \"#utility.yul\":8940:8962   */\n      add\n        /* \"#utility.yul\":8894:8972   */\n      tag_241\n      jump\t// in\n    tag_323:\n        /* \"#utility.yul\":8884:8972   */\n      swap2\n      pop\n        /* \"#utility.yul\":8745:8982   */\n      pop\n        /* \"#utility.yul\":7798:8989   */\n      swap3\n      swap6\n      pop\n      swap3\n      swap6\n      pop\n      swap3\n      swap6\n      jump\t// out\n        /* \"#utility.yul\":8995:10697   */\n    tag_17:\n      0x00\n      dup1\n      0x00\n      dup1\n      0x00\n      dup1\n      0x00\n        /* \"#utility.yul\":9302:9305   */\n      0xe0\n        /* \"#utility.yul\":9290:9299   */\n      dup9\n        /* \"#utility.yul\":9281:9288   */\n      dup11\n        /* \"#utility.yul\":9277:9300   */\n      sub\n        /* \"#utility.yul\":9273:9306   */\n      slt\n        /* \"#utility.yul\":9270:9272   */\n      iszero\n      tag_325\n      jumpi\n        /* \"#utility.yul\":9319:9320   */\n      0x00\n        /* \"#utility.yul\":9316:9317   */\n      dup1\n        /* \"#utility.yul\":9309:9321   */\n      revert\n        /* \"#utility.yul\":9270:9272   */\n    tag_325:\n        /* \"#utility.yul\":9362:9363   */\n      0x00\n        /* \"#utility.yul\":9387:9440   */\n      tag_326\n        /* \"#utility.yul\":9432:9439   */\n      dup11\n        /* \"#utility.yul\":9423:9429   */\n      dup3\n        /* \"#utility.yul\":9412:9421   */\n      dup12\n        /* \"#utility.yul\":9408:9430   */\n      add\n        /* \"#utility.yul\":9387:9440   */\n      tag_228\n      jump\t// in\n    tag_326:\n        /* \"#utility.yul\":9377:9440   */\n      swap8\n      pop\n        /* \"#utility.yul\":9333:9450   */\n      pop\n        /* \"#utility.yul\":9517:9519   */\n      0x20\n        /* \"#utility.yul\":9506:9515   */\n      dup9\n        /* \"#utility.yul\":9502:9520   */\n      add\n        /* \"#utility.yul\":9489:9521   */\n      calldataload\n        /* \"#utility.yul\":9548:9566   */\n      0xffffffffffffffff\n        /* \"#utility.yul\":9540:9546   */\n      dup2\n        /* \"#utility.yul\":9537:9567   */\n      gt\n        /* \"#utility.yul\":9534:9536   */\n      iszero\n      tag_327\n      jumpi\n        /* \"#utility.yul\":9580:9581   */\n      0x00\n        /* \"#utility.yul\":9577:9578   */\n      dup1\n        /* \"#utility.yul\":9570:9582   */\n      revert\n        /* \"#utility.yul\":9534:9536   */\n    tag_327:\n        /* \"#utility.yul\":9608:9671   */\n      tag_328\n        /* \"#utility.yul\":9663:9670   */\n      dup11\n        /* \"#utility.yul\":9654:9660   */\n      dup3\n        /* \"#utility.yul\":9643:9652   */\n      dup12\n        /* \"#utility.yul\":9639:9661   */\n      add\n        /* \"#utility.yul\":9608:9671   */\n      tag_261\n      jump\t// in\n    tag_328:\n        /* \"#utility.yul\":9598:9671   */\n      swap7\n      pop\n        /* \"#utility.yul\":9460:9681   */\n      pop\n        /* \"#utility.yul\":9720:9722   */\n      0x40\n        /* \"#utility.yul\":9746:9799   */\n      tag_329\n        /* \"#utility.yul\":9791:9798   */\n      dup11\n        /* \"#utility.yul\":9782:9788   */\n      dup3\n        /* \"#utility.yul\":9771:9780   */\n      dup12\n        /* \"#utility.yul\":9767:9789   */\n      add\n        /* \"#utility.yul\":9746:9799   */\n      tag_237\n      jump\t// in\n    tag_329:\n        /* \"#utility.yul\":9736:9799   */\n      swap6\n      pop\n        /* \"#utility.yul\":9691:9809   */\n      pop\n        /* \"#utility.yul\":9848:9850   */\n      0x60\n        /* \"#utility.yul\":9874:9940   */\n      tag_330\n        /* \"#utility.yul\":9932:9939   */\n      dup11\n        /* \"#utility.yul\":9923:9929   */\n      dup3\n        /* \"#utility.yul\":9912:9921   */\n      dup12\n        /* \"#utility.yul\":9908:9930   */\n      add\n        /* \"#utility.yul\":9874:9940   */\n      tag_253\n      jump\t// in\n    tag_330:\n        /* \"#utility.yul\":9864:9940   */\n      swap5\n      pop\n        /* \"#utility.yul\":9819:9950   */\n      pop\n        /* \"#utility.yul\":10017:10020   */\n      0x80\n        /* \"#utility.yul\":10006:10015   */\n      dup9\n        /* \"#utility.yul\":10002:10021   */\n      add\n        /* \"#utility.yul\":9989:10022   */\n      calldataload\n        /* \"#utility.yul\":10049:10067   */\n      0xffffffffffffffff\n        /* \"#utility.yul\":10041:10047   */\n      dup2\n        /* \"#utility.yul\":10038:10068   */\n      gt\n        /* \"#utility.yul\":10035:10037   */\n      iszero\n      tag_331\n      jumpi\n        /* \"#utility.yul\":10081:10082   */\n      0x00\n        /* \"#utility.yul\":10078:10079   */\n      dup1\n        /* \"#utility.yul\":10071:10083   */\n      revert\n        /* \"#utility.yul\":10035:10037   */\n    tag_331:\n        /* \"#utility.yul\":10109:10187   */\n      tag_332\n        /* \"#utility.yul\":10179:10186   */\n      dup11\n        /* \"#utility.yul\":10170:10176   */\n      dup3\n        /* \"#utility.yul\":10159:10168   */\n      dup12\n        /* \"#utility.yul\":10155:10177   */\n      add\n        /* \"#utility.yul\":10109:10187   */\n      tag_241\n      jump\t// in\n    tag_332:\n        /* \"#utility.yul\":10099:10187   */\n      swap4\n      pop\n        /* \"#utility.yul\":9960:10197   */\n      pop\n        /* \"#utility.yul\":10264:10267   */\n      0xa0\n        /* \"#utility.yul\":10253:10262   */\n      dup9\n        /* \"#utility.yul\":10249:10268   */\n      add\n        /* \"#utility.yul\":10236:10269   */\n      calldataload\n        /* \"#utility.yul\":10296:10314   */\n      0xffffffffffffffff\n        /* \"#utility.yul\":10288:10294   */\n      dup2\n        /* \"#utility.yul\":10285:10315   */\n      gt\n        /* \"#utility.yul\":10282:10284   */\n      iszero\n      tag_333\n      jumpi\n        /* \"#utility.yul\":10328:10329   */\n      0x00\n        /* \"#utility.yul\":10325:10326   */\n      dup1\n        /* \"#utility.yul\":10318:10330   */\n      revert\n        /* \"#utility.yul\":10282:10284   */\n    tag_333:\n        /* \"#utility.yul\":10356:10434   */\n      tag_334\n        /* \"#utility.yul\":10426:10433   */\n      dup11\n        /* \"#utility.yul\":10417:10423   */\n      dup3\n        /* \"#utility.yul\":10406:10415   */\n      dup12\n        /* \"#utility.yul\":10402:10424   */\n      add\n        /* \"#utility.yul\":10356:10434   */\n      tag_241\n      jump\t// in\n    tag_334:\n        /* \"#utility.yul\":10346:10434   */\n      swap3\n      pop\n        /* \"#utility.yul\":10207:10444   */\n      pop\n        /* \"#utility.yul\":10511:10514   */\n      0xc0\n        /* \"#utility.yul\":10500:10509   */\n      dup9\n        /* \"#utility.yul\":10496:10515   */\n      add\n        /* \"#utility.yul\":10483:10516   */\n      calldataload\n        /* \"#utility.yul\":10543:10561   */\n      0xffffffffffffffff\n        /* \"#utility.yul\":10535:10541   */\n      dup2\n        /* \"#utility.yul\":10532:10562   */\n      gt\n        /* \"#utility.yul\":10529:10531   */\n      iszero\n      tag_335\n      jumpi\n        /* \"#utility.yul\":10575:10576   */\n      0x00\n        /* \"#utility.yul\":10572:10573   */\n      dup1\n        /* \"#utility.yul\":10565:10577   */\n      revert\n        /* \"#utility.yul\":10529:10531   */\n    tag_335:\n        /* \"#utility.yul\":10603:10680   */\n      tag_336\n        /* \"#utility.yul\":10672:10679   */\n      dup11\n        /* \"#utility.yul\":10663:10669   */\n      dup3\n        /* \"#utility.yul\":10652:10661   */\n      dup12\n        /* \"#utility.yul\":10648:10670   */\n      add\n        /* \"#utility.yul\":10603:10680   */\n      tag_265\n      jump\t// in\n    tag_336:\n        /* \"#utility.yul\":10593:10680   */\n      swap2\n      pop\n        /* \"#utility.yul\":10454:10690   */\n      pop\n        /* \"#utility.yul\":9260:10697   */\n      swap3\n      swap6\n      swap9\n      swap2\n      swap5\n      swap8\n      pop\n      swap3\n      swap6\n      pop\n      jump\t// out\n        /* \"#utility.yul\":10703:10899   */\n    tag_337:\n      0x00\n        /* \"#utility.yul\":10827:10893   */\n      tag_339\n        /* \"#utility.yul\":10889:10892   */\n      dup4\n        /* \"#utility.yul\":10881:10887   */\n      dup4\n        /* \"#utility.yul\":10827:10893   */\n      tag_340\n      jump\t// in\n    tag_339:\n        /* \"#utility.yul\":10813:10893   */\n      swap1\n      pop\n        /* \"#utility.yul\":10803:10899   */\n      swap3\n      swap2\n      pop\n      pop\n      jump\t// out\n        /* \"#utility.yul\":10905:11084   */\n    tag_341:\n      0x00\n        /* \"#utility.yul\":10995:11041   */\n      tag_343\n        /* \"#utility.yul\":11037:11040   */\n      dup4\n        /* \"#utility.yul\":11029:11035   */\n      dup4\n        /* \"#utility.yul\":10995:11041   */\n      tag_344\n      jump\t// in\n    tag_343:\n        /* \"#utility.yul\":11073:11077   */\n      0x20\n        /* \"#utility.yul\":11068:11071   */\n      dup4\n        /* \"#utility.yul\":11064:11078   */\n      add\n        /* \"#utility.yul\":11050:11078   */\n      swap1\n      pop\n        /* \"#utility.yul\":10985:11084   */\n      swap3\n      swap2\n      pop\n      pop\n      jump\t// out\n        /* \"#utility.yul\":11090:11208   */\n    tag_345:\n        /* \"#utility.yul\":11177:11201   */\n      tag_347\n        /* \"#utility.yul\":11195:11200   */\n      dup2\n        /* \"#utility.yul\":11177:11201   */\n      tag_348\n      jump\t// in\n    tag_347:\n        /* \"#utility.yul\":11172:11175   */\n      dup3\n        /* \"#utility.yul\":11165:11202   */\n      mstore\n        /* \"#utility.yul\":11155:11208   */\n      pop\n      pop\n      jump\t// out\n        /* \"#utility.yul\":11242:12233   */\n    tag_349:\n      0x00\n        /* \"#utility.yul\":11410:11474   */\n      tag_351\n        /* \"#utility.yul\":11468:11473   */\n      dup3\n        /* \"#utility.yul\":11410:11474   */\n      tag_352\n      jump\t// in\n    tag_351:\n        /* \"#utility.yul\":11490:11586   */\n      tag_353\n        /* \"#utility.yul\":11579:11585   */\n      dup2\n        /* \"#utility.yul\":11574:11577   */\n      dup6\n        /* \"#utility.yul\":11490:11586   */\n      tag_354\n      jump\t// in\n    tag_353:\n        /* \"#utility.yul\":11483:11586   */\n      swap4\n      pop\n        /* \"#utility.yul\":11612:11615   */\n      dup4\n        /* \"#utility.yul\":11657:11661   */\n      0x20\n        /* \"#utility.yul\":11649:11655   */\n      dup3\n        /* \"#utility.yul\":11645:11662   */\n      mul\n        /* \"#utility.yul\":11640:11643   */\n      dup6\n        /* \"#utility.yul\":11636:11663   */\n      add\n        /* \"#utility.yul\":11687:11753   */\n      tag_355\n        /* \"#utility.yul\":11747:11752   */\n      dup6\n        /* \"#utility.yul\":11687:11753   */\n      tag_356\n      jump\t// in\n    tag_355:\n        /* \"#utility.yul\":11776:11783   */\n      dup1\n        /* \"#utility.yul\":11807:11808   */\n      0x00\n        /* \"#utility.yul\":11792:12188   */\n    tag_357:\n        /* \"#utility.yul\":11817:11823   */\n      dup6\n        /* \"#utility.yul\":11814:11815   */\n      dup2\n        /* \"#utility.yul\":11811:11824   */\n      lt\n        /* \"#utility.yul\":11792:12188   */\n      iszero\n      tag_359\n      jumpi\n        /* \"#utility.yul\":11888:11897   */\n      dup5\n        /* \"#utility.yul\":11882:11886   */\n      dup5\n        /* \"#utility.yul\":11878:11898   */\n      sub\n        /* \"#utility.yul\":11873:11876   */\n      dup10\n        /* \"#utility.yul\":11866:11899   */\n      mstore\n        /* \"#utility.yul\":11939:11945   */\n      dup2\n        /* \"#utility.yul\":11933:11946   */\n      mload\n        /* \"#utility.yul\":11967:12051   */\n      tag_360\n        /* \"#utility.yul\":12046:12050   */\n      dup6\n        /* \"#utility.yul\":12031:12044   */\n      dup3\n        /* \"#utility.yul\":11967:12051   */\n      tag_337\n      jump\t// in\n    tag_360:\n        /* \"#utility.yul\":11959:12051   */\n      swap5\n      pop\n        /* \"#utility.yul\":12074:12144   */\n      tag_361\n        /* \"#utility.yul\":12137:12143   */\n      dup4\n        /* \"#utility.yul\":12074:12144   */\n      tag_362\n      jump\t// in\n    tag_361:\n        /* \"#utility.yul\":12064:12144   */\n      swap3\n      pop\n        /* \"#utility.yul\":12173:12177   */\n      0x20\n        /* \"#utility.yul\":12168:12171   */\n      dup11\n        /* \"#utility.yul\":12164:12178   */\n      add\n        /* \"#utility.yul\":12157:12178   */\n      swap10\n      pop\n        /* \"#utility.yul\":11852:12188   */\n      pop\n        /* \"#utility.yul\":11839:11840   */\n      0x01\n        /* \"#utility.yul\":11836:11837   */\n      dup2\n        /* \"#utility.yul\":11832:11841   */\n      add\n        /* \"#utility.yul\":11827:11841   */\n      swap1\n      pop\n        /* \"#utility.yul\":11792:12188   */\n      jump(tag_357)\n    tag_359:\n        /* \"#utility.yul\":11796:11810   */\n      pop\n        /* \"#utility.yul\":12204:12208   */\n      dup3\n        /* \"#utility.yul\":12197:12208   */\n      swap8\n      pop\n        /* \"#utility.yul\":12224:12227   */\n      dup8\n        /* \"#utility.yul\":12217:12227   */\n      swap6\n      pop\n        /* \"#utility.yul\":11386:12233   */\n      pop\n      pop\n      pop\n      pop\n      pop\n      swap3\n      swap2\n      pop\n      pop\n      jump\t// out\n        /* \"#utility.yul\":12269:13001   */\n    tag_363:\n      0x00\n        /* \"#utility.yul\":12417:12471   */\n      tag_365\n        /* \"#utility.yul\":12465:12470   */\n      dup3\n        /* \"#utility.yul\":12417:12471   */\n      tag_366\n      jump\t// in\n    tag_365:\n        /* \"#utility.yul\":12487:12573   */\n      tag_367\n        /* \"#utility.yul\":12566:12572   */\n      dup2\n        /* \"#utility.yul\":12561:12564   */\n      dup6\n        /* \"#utility.yul\":12487:12573   */\n      tag_368\n      jump\t// in\n    tag_367:\n        /* \"#utility.yul\":12480:12573   */\n      swap4\n      pop\n        /* \"#utility.yul\":12597:12653   */\n      tag_369\n        /* \"#utility.yul\":12647:12652   */\n      dup4\n        /* \"#utility.yul\":12597:12653   */\n      tag_370\n      jump\t// in\n    tag_369:\n        /* \"#utility.yul\":12676:12683   */\n      dup1\n        /* \"#utility.yul\":12707:12708   */\n      0x00\n        /* \"#utility.yul\":12692:12976   */\n    tag_371:\n        /* \"#utility.yul\":12717:12723   */\n      dup4\n        /* \"#utility.yul\":12714:12715   */\n      dup2\n        /* \"#utility.yul\":12711:12724   */\n      lt\n        /* \"#utility.yul\":12692:12976   */\n      iszero\n      tag_373\n      jumpi\n        /* \"#utility.yul\":12793:12799   */\n      dup2\n        /* \"#utility.yul\":12787:12800   */\n      mload\n        /* \"#utility.yul\":12820:12883   */\n      tag_374\n        /* \"#utility.yul\":12879:12882   */\n      dup9\n        /* \"#utility.yul\":12864:12877   */\n      dup3\n        /* \"#utility.yul\":12820:12883   */\n      tag_341\n      jump\t// in\n    tag_374:\n        /* \"#utility.yul\":12813:12883   */\n      swap8\n      pop\n        /* \"#utility.yul\":12906:12966   */\n      tag_375\n        /* \"#utility.yul\":12959:12965   */\n      dup4\n        /* \"#utility.yul\":12906:12966   */\n      tag_376\n      jump\t// in\n    tag_375:\n        /* \"#utility.yul\":12896:12966   */\n      swap3\n      pop\n        /* \"#utility.yul\":12752:12976   */\n      pop\n        /* \"#utility.yul\":12739:12740   */\n      0x01\n        /* \"#utility.yul\":12736:12737   */\n      dup2\n        /* \"#utility.yul\":12732:12741   */\n      add\n        /* \"#utility.yul\":12727:12741   */\n      swap1\n      pop\n        /* \"#utility.yul\":12692:12976   */\n      jump(tag_371)\n    tag_373:\n        /* \"#utility.yul\":12696:12710   */\n      pop\n        /* \"#utility.yul\":12992:12995   */\n      dup6\n        /* \"#utility.yul\":12985:12995   */\n      swap4\n      pop\n        /* \"#utility.yul\":12393:13001   */\n      pop\n      pop\n      pop\n      swap3\n      swap2\n      pop\n      pop\n      jump\t// out\n        /* \"#utility.yul\":13007:13116   */\n    tag_377:\n        /* \"#utility.yul\":13088:13109   */\n      tag_379\n        /* \"#utility.yul\":13103:13108   */\n      dup2\n        /* \"#utility.yul\":13088:13109   */\n      tag_380\n      jump\t// in\n    tag_379:\n        /* \"#utility.yul\":13083:13086   */\n      dup3\n        /* \"#utility.yul\":13076:13110   */\n      mstore\n        /* \"#utility.yul\":13066:13116   */\n      pop\n      pop\n      jump\t// out\n        /* \"#utility.yul\":13122:13275   */\n    tag_381:\n        /* \"#utility.yul\":13220:13268   */\n      tag_383\n        /* \"#utility.yul\":13262:13267   */\n      dup2\n        /* \"#utility.yul\":13220:13268   */\n      tag_384\n      jump\t// in\n    tag_383:\n        /* \"#utility.yul\":13215:13218   */\n      dup3\n        /* \"#utility.yul\":13208:13269   */\n      mstore\n        /* \"#utility.yul\":13198:13275   */\n      pop\n      pop\n      jump\t// out\n        /* \"#utility.yul\":13281:13625   */\n    tag_340:\n      0x00\n        /* \"#utility.yul\":13387:13426   */\n      tag_386\n        /* \"#utility.yul\":13420:13425   */\n      dup3\n        /* \"#utility.yul\":13387:13426   */\n      tag_387\n      jump\t// in\n    tag_386:\n        /* \"#utility.yul\":13442:13503   */\n      tag_388\n        /* \"#utility.yul\":13496:13502   */\n      dup2\n        /* \"#utility.yul\":13491:13494   */\n      dup6\n        /* \"#utility.yul\":13442:13503   */\n      tag_389\n      jump\t// in\n    tag_388:\n        /* \"#utility.yul\":13435:13503   */\n      swap4\n      pop\n        /* \"#utility.yul\":13512:13564   */\n      tag_390\n        /* \"#utility.yul\":13557:13563   */\n      dup2\n        /* \"#utility.yul\":13552:13555   */\n      dup6\n        /* \"#utility.yul\":13545:13549   */\n      0x20\n        /* \"#utility.yul\":13538:13543   */\n      dup7\n        /* \"#utility.yul\":13534:13550   */\n      add\n        /* \"#utility.yul\":13512:13564   */\n      tag_391\n      jump\t// in\n    tag_390:\n        /* \"#utility.yul\":13589:13618   */\n      tag_392\n        /* \"#utility.yul\":13611:13617   */\n      dup2\n        /* \"#utility.yul\":13589:13618   */\n      tag_393\n      jump\t// in\n    tag_392:\n        /* \"#utility.yul\":13584:13587   */\n      dup5\n        /* \"#utility.yul\":13580:13619   */\n      add\n        /* \"#utility.yul\":13573:13619   */\n      swap2\n      pop\n        /* \"#utility.yul\":13363:13625   */\n      pop\n      swap3\n      swap2\n      pop\n      pop\n      jump\t// out\n        /* \"#utility.yul\":13631:13995   */\n    tag_394:\n      0x00\n        /* \"#utility.yul\":13747:13786   */\n      tag_396\n        /* \"#utility.yul\":13780:13785   */\n      dup3\n        /* \"#utility.yul\":13747:13786   */\n      tag_387\n      jump\t// in\n    tag_396:\n        /* \"#utility.yul\":13802:13873   */\n      tag_397\n        /* \"#utility.yul\":13866:13872   */\n      dup2\n        /* \"#utility.yul\":13861:13864   */\n      dup6\n        /* \"#utility.yul\":13802:13873   */\n      tag_398\n      jump\t// in\n    tag_397:\n        /* \"#utility.yul\":13795:13873   */\n      swap4\n      pop\n        /* \"#utility.yul\":13882:13934   */\n      tag_399\n        /* \"#utility.yul\":13927:13933   */\n      dup2\n        /* \"#utility.yul\":13922:13925   */\n      dup6\n        /* \"#utility.yul\":13915:13919   */\n      0x20\n        /* \"#utility.yul\":13908:13913   */\n      dup7\n        /* \"#utility.yul\":13904:13920   */\n      add\n        /* \"#utility.yul\":13882:13934   */\n      tag_391\n      jump\t// in\n    tag_399:\n        /* \"#utility.yul\":13959:13988   */\n      tag_400\n        /* \"#utility.yul\":13981:13987   */\n      dup2\n        /* \"#utility.yul\":13959:13988   */\n      tag_393\n      jump\t// in\n    tag_400:\n        /* \"#utility.yul\":13954:13957   */\n      dup5\n        /* \"#utility.yul\":13950:13989   */\n      add\n        /* \"#utility.yul\":13943:13989   */\n      swap2\n      pop\n        /* \"#utility.yul\":13723:13995   */\n      pop\n      swap3\n      swap2\n      pop\n      pop\n      jump\t// out\n        /* \"#utility.yul\":14025:14827   */\n    tag_401:\n      0x00\n        /* \"#utility.yul\":14147:14152   */\n      dup2\n        /* \"#utility.yul\":14141:14153   */\n      sload\n        /* \"#utility.yul\":14176:14212   */\n      tag_403\n        /* \"#utility.yul\":14202:14211   */\n      dup2\n        /* \"#utility.yul\":14176:14212   */\n      tag_103\n      jump\t// in\n    tag_403:\n        /* \"#utility.yul\":14228:14299   */\n      tag_404\n        /* \"#utility.yul\":14292:14298   */\n      dup2\n        /* \"#utility.yul\":14287:14290   */\n      dup7\n        /* \"#utility.yul\":14228:14299   */\n      tag_398\n      jump\t// in\n    tag_404:\n        /* \"#utility.yul\":14221:14299   */\n      swap5\n      pop\n        /* \"#utility.yul\":14330:14331   */\n      0x01\n        /* \"#utility.yul\":14319:14328   */\n      dup3\n        /* \"#utility.yul\":14315:14332   */\n      and\n        /* \"#utility.yul\":14346:14347   */\n      0x00\n        /* \"#utility.yul\":14341:14476   */\n      dup2\n      eq\n      tag_406\n      jumpi\n        /* \"#utility.yul\":14490:14491   */\n      0x01\n        /* \"#utility.yul\":14485:14821   */\n      dup2\n      eq\n      tag_407\n      jumpi\n        /* \"#utility.yul\":14308:14821   */\n      jump(tag_405)\n        /* \"#utility.yul\":14341:14476   */\n    tag_406:\n        /* \"#utility.yul\":14425:14429   */\n      0xff\n        /* \"#utility.yul\":14421:14430   */\n      not\n        /* \"#utility.yul\":14410:14419   */\n      dup4\n        /* \"#utility.yul\":14406:14431   */\n      and\n        /* \"#utility.yul\":14401:14404   */\n      dup7\n        /* \"#utility.yul\":14394:14432   */\n      mstore\n        /* \"#utility.yul\":14461:14465   */\n      0x20\n        /* \"#utility.yul\":14456:14459   */\n      dup7\n        /* \"#utility.yul\":14452:14466   */\n      add\n        /* \"#utility.yul\":14445:14466   */\n      swap4\n      pop\n        /* \"#utility.yul\":14341:14476   */\n      jump(tag_405)\n        /* \"#utility.yul\":14485:14821   */\n    tag_407:\n        /* \"#utility.yul\":14552:14590   */\n      tag_408\n        /* \"#utility.yul\":14584:14589   */\n      dup6\n        /* \"#utility.yul\":14552:14590   */\n      tag_409\n      jump\t// in\n    tag_408:\n        /* \"#utility.yul\":14612:14613   */\n      0x00\n        /* \"#utility.yul\":14626:14780   */\n    tag_410:\n        /* \"#utility.yul\":14640:14646   */\n      dup4\n        /* \"#utility.yul\":14637:14638   */\n      dup2\n        /* \"#utility.yul\":14634:14647   */\n      lt\n        /* \"#utility.yul\":14626:14780   */\n      iszero\n      tag_412\n      jumpi\n        /* \"#utility.yul\":14714:14721   */\n      dup2\n        /* \"#utility.yul\":14708:14722   */\n      sload\n        /* \"#utility.yul\":14704:14705   */\n      dup2\n        /* \"#utility.yul\":14699:14702   */\n      dup10\n        /* \"#utility.yul\":14695:14706   */\n      add\n        /* \"#utility.yul\":14688:14723   */\n      mstore\n        /* \"#utility.yul\":14764:14765   */\n      0x01\n        /* \"#utility.yul\":14755:14762   */\n      dup3\n        /* \"#utility.yul\":14751:14766   */\n      add\n        /* \"#utility.yul\":14740:14766   */\n      swap2\n      pop\n        /* \"#utility.yul\":14662:14666   */\n      0x20\n        /* \"#utility.yul\":14659:14660   */\n      dup2\n        /* \"#utility.yul\":14655:14667   */\n      add\n        /* \"#utility.yul\":14650:14667   */\n      swap1\n      pop\n        /* \"#utility.yul\":14626:14780   */\n      jump(tag_410)\n    tag_412:\n        /* \"#utility.yul\":14809:14810   */\n      dup1\n        /* \"#utility.yul\":14804:14807   */\n      dup9\n        /* \"#utility.yul\":14800:14811   */\n      add\n        /* \"#utility.yul\":14793:14811   */\n      swap6\n      pop\n        /* \"#utility.yul\":14492:14821   */\n      pop\n      pop\n        /* \"#utility.yul\":14308:14821   */\n    tag_405:\n      pop\n        /* \"#utility.yul\":14114:14827   */\n      pop\n      pop\n      swap3\n      swap2\n      pop\n      pop\n      jump\t// out\n        /* \"#utility.yul\":14833:14941   */\n    tag_344:\n        /* \"#utility.yul\":14910:14934   */\n      tag_414\n        /* \"#utility.yul\":14928:14933   */\n      dup2\n        /* \"#utility.yul\":14910:14934   */\n      tag_415\n      jump\t// in\n    tag_414:\n        /* \"#utility.yul\":14905:14908   */\n      dup3\n        /* \"#utility.yul\":14898:14935   */\n      mstore\n        /* \"#utility.yul\":14888:14941   */\n      pop\n      pop\n      jump\t// out\n        /* \"#utility.yul\":14947:15065   */\n    tag_416:\n        /* \"#utility.yul\":15034:15058   */\n      tag_418\n        /* \"#utility.yul\":15052:15057   */\n      dup2\n        /* \"#utility.yul\":15034:15058   */\n      tag_415\n      jump\t// in\n    tag_418:\n        /* \"#utility.yul\":15029:15032   */\n      dup3\n        /* \"#utility.yul\":15022:15059   */\n      mstore\n        /* \"#utility.yul\":15012:15065   */\n      pop\n      pop\n      jump\t// out\n        /* \"#utility.yul\":15071:15484   */\n    tag_32:\n      0x00\n        /* \"#utility.yul\":15272:15274   */\n      0x20\n        /* \"#utility.yul\":15261:15270   */\n      dup3\n        /* \"#utility.yul\":15257:15275   */\n      add\n        /* \"#utility.yul\":15249:15275   */\n      swap1\n      pop\n        /* \"#utility.yul\":15321:15330   */\n      dup2\n        /* \"#utility.yul\":15315:15319   */\n      dup2\n        /* \"#utility.yul\":15311:15331   */\n      sub\n        /* \"#utility.yul\":15307:15308   */\n      0x00\n        /* \"#utility.yul\":15296:15305   */\n      dup4\n        /* \"#utility.yul\":15292:15309   */\n      add\n        /* \"#utility.yul\":15285:15332   */\n      mstore\n        /* \"#utility.yul\":15349:15477   */\n      tag_420\n        /* \"#utility.yul\":15472:15476   */\n      dup2\n        /* \"#utility.yul\":15463:15469   */\n      dup5\n        /* \"#utility.yul\":15349:15477   */\n      tag_349\n      jump\t// in\n    tag_420:\n        /* \"#utility.yul\":15341:15477   */\n      swap1\n      pop\n        /* \"#utility.yul\":15239:15484   */\n      swap3\n      swap2\n      pop\n      pop\n      jump\t// out\n        /* \"#utility.yul\":15490:15863   */\n    tag_46:\n      0x00\n        /* \"#utility.yul\":15671:15673   */\n      0x20\n        /* \"#utility.yul\":15660:15669   */\n      dup3\n        /* \"#utility.yul\":15656:15674   */\n      add\n        /* \"#utility.yul\":15648:15674   */\n      swap1\n      pop\n        /* \"#utility.yul\":15720:15729   */\n      dup2\n        /* \"#utility.yul\":15714:15718   */\n      dup2\n        /* \"#utility.yul\":15710:15730   */\n      sub\n        /* \"#utility.yul\":15706:15707   */\n      0x00\n        /* \"#utility.yul\":15695:15704   */\n      dup4\n        /* \"#utility.yul\":15691:15708   */\n      add\n        /* \"#utility.yul\":15684:15731   */\n      mstore\n        /* \"#utility.yul\":15748:15856   */\n      tag_422\n        /* \"#utility.yul\":15851:15855   */\n      dup2\n        /* \"#utility.yul\":15842:15848   */\n      dup5\n        /* \"#utility.yul\":15748:15856   */\n      tag_363\n      jump\t// in\n    tag_422:\n        /* \"#utility.yul\":15740:15856   */\n      swap1\n      pop\n        /* \"#utility.yul\":15638:15863   */\n      swap3\n      swap2\n      pop\n      pop\n      jump\t// out\n        /* \"#utility.yul\":15869:16079   */\n    tag_28:\n      0x00\n        /* \"#utility.yul\":15994:15996   */\n      0x20\n        /* \"#utility.yul\":15983:15992   */\n      dup3\n        /* \"#utility.yul\":15979:15997   */\n      add\n        /* \"#utility.yul\":15971:15997   */\n      swap1\n      pop\n        /* \"#utility.yul\":16007:16072   */\n      tag_424\n        /* \"#utility.yul\":16069:16070   */\n      0x00\n        /* \"#utility.yul\":16058:16067   */\n      dup4\n        /* \"#utility.yul\":16054:16071   */\n      add\n        /* \"#utility.yul\":16045:16051   */\n      dup5\n        /* \"#utility.yul\":16007:16072   */\n      tag_377\n      jump\t// in\n    tag_424:\n        /* \"#utility.yul\":15961:16079   */\n      swap3\n      swap2\n      pop\n      pop\n      jump\t// out\n        /* \"#utility.yul\":16085:17263   */\n    tag_55:\n      0x00\n        /* \"#utility.yul\":16481:16484   */\n      0xc0\n        /* \"#utility.yul\":16470:16479   */\n      dup3\n        /* \"#utility.yul\":16466:16485   */\n      add\n        /* \"#utility.yul\":16458:16485   */\n      swap1\n      pop\n        /* \"#utility.yul\":16495:16560   */\n      tag_426\n        /* \"#utility.yul\":16557:16558   */\n      0x00\n        /* \"#utility.yul\":16546:16555   */\n      dup4\n        /* \"#utility.yul\":16542:16559   */\n      add\n        /* \"#utility.yul\":16533:16539   */\n      dup10\n        /* \"#utility.yul\":16495:16560   */\n      tag_377\n      jump\t// in\n    tag_426:\n        /* \"#utility.yul\":16607:16616   */\n      dup2\n        /* \"#utility.yul\":16601:16605   */\n      dup2\n        /* \"#utility.yul\":16597:16617   */\n      sub\n        /* \"#utility.yul\":16592:16594   */\n      0x20\n        /* \"#utility.yul\":16581:16590   */\n      dup4\n        /* \"#utility.yul\":16577:16595   */\n      add\n        /* \"#utility.yul\":16570:16618   */\n      mstore\n        /* \"#utility.yul\":16635:16713   */\n      tag_427\n        /* \"#utility.yul\":16708:16712   */\n      dup2\n        /* \"#utility.yul\":16699:16705   */\n      dup9\n        /* \"#utility.yul\":16635:16713   */\n      tag_394\n      jump\t// in\n    tag_427:\n        /* \"#utility.yul\":16627:16713   */\n      swap1\n      pop\n        /* \"#utility.yul\":16723:16795   */\n      tag_428\n        /* \"#utility.yul\":16791:16793   */\n      0x40\n        /* \"#utility.yul\":16780:16789   */\n      dup4\n        /* \"#utility.yul\":16776:16794   */\n      add\n        /* \"#utility.yul\":16767:16773   */\n      dup8\n        /* \"#utility.yul\":16723:16795   */\n      tag_345\n      jump\t// in\n    tag_428:\n        /* \"#utility.yul\":16805:16888   */\n      tag_429\n        /* \"#utility.yul\":16884:16886   */\n      0x60\n        /* \"#utility.yul\":16873:16882   */\n      dup4\n        /* \"#utility.yul\":16869:16887   */\n      add\n        /* \"#utility.yul\":16860:16866   */\n      dup7\n        /* \"#utility.yul\":16805:16888   */\n      tag_381\n      jump\t// in\n    tag_429:\n        /* \"#utility.yul\":16936:16945   */\n      dup2\n        /* \"#utility.yul\":16930:16934   */\n      dup2\n        /* \"#utility.yul\":16926:16946   */\n      sub\n        /* \"#utility.yul\":16920:16923   */\n      0x80\n        /* \"#utility.yul\":16909:16918   */\n      dup4\n        /* \"#utility.yul\":16905:16924   */\n      add\n        /* \"#utility.yul\":16898:16947   */\n      mstore\n        /* \"#utility.yul\":16964:17072   */\n      tag_430\n        /* \"#utility.yul\":17067:17071   */\n      dup2\n        /* \"#utility.yul\":17058:17064   */\n      dup6\n        /* \"#utility.yul\":16964:17072   */\n      tag_363\n      jump\t// in\n    tag_430:\n        /* \"#utility.yul\":16956:17072   */\n      swap1\n      pop\n        /* \"#utility.yul\":17120:17129   */\n      dup2\n        /* \"#utility.yul\":17114:17118   */\n      dup2\n        /* \"#utility.yul\":17110:17130   */\n      sub\n        /* \"#utility.yul\":17104:17107   */\n      0xa0\n        /* \"#utility.yul\":17093:17102   */\n      dup4\n        /* \"#utility.yul\":17089:17108   */\n      add\n        /* \"#utility.yul\":17082:17131   */\n      mstore\n        /* \"#utility.yul\":17148:17256   */\n      tag_431\n        /* \"#utility.yul\":17251:17255   */\n      dup2\n        /* \"#utility.yul\":17242:17248   */\n      dup5\n        /* \"#utility.yul\":17148:17256   */\n      tag_363\n      jump\t// in\n    tag_431:\n        /* \"#utility.yul\":17140:17256   */\n      swap1\n      pop\n        /* \"#utility.yul\":16448:17263   */\n      swap8\n      swap7\n      pop\n      pop\n      pop\n      pop\n      pop\n      pop\n      pop\n      jump\t// out\n        /* \"#utility.yul\":17269:17582   */\n    tag_38:\n      0x00\n        /* \"#utility.yul\":17420:17422   */\n      0x20\n        /* \"#utility.yul\":17409:17418   */\n      dup3\n        /* \"#utility.yul\":17405:17423   */\n      add\n        /* \"#utility.yul\":17397:17423   */\n      swap1\n      pop\n        /* \"#utility.yul\":17469:17478   */\n      dup2\n        /* \"#utility.yul\":17463:17467   */\n      dup2\n        /* \"#utility.yul\":17459:17479   */\n      sub\n        /* \"#utility.yul\":17455:17456   */\n      0x00\n        /* \"#utility.yul\":17444:17453   */\n      dup4\n        /* \"#utility.yul\":17440:17457   */\n      add\n        /* \"#utility.yul\":17433:17480   */\n      mstore\n        /* \"#utility.yul\":17497:17575   */\n      tag_433\n        /* \"#utility.yul\":17570:17574   */\n      dup2\n        /* \"#utility.yul\":17561:17567   */\n      dup5\n        /* \"#utility.yul\":17497:17575   */\n      tag_394\n      jump\t// in\n    tag_433:\n        /* \"#utility.yul\":17489:17575   */\n      swap1\n      pop\n        /* \"#utility.yul\":17387:17582   */\n      swap3\n      swap2\n      pop\n      pop\n      jump\t// out\n        /* \"#utility.yul\":17588:17895   */\n    tag_143:\n      0x00\n        /* \"#utility.yul\":17736:17738   */\n      0x20\n        /* \"#utility.yul\":17725:17734   */\n      dup3\n        /* \"#utility.yul\":17721:17739   */\n      add\n        /* \"#utility.yul\":17713:17739   */\n      swap1\n      pop\n        /* \"#utility.yul\":17785:17794   */\n      dup2\n        /* \"#utility.yul\":17779:17783   */\n      dup2\n        /* \"#utility.yul\":17775:17795   */\n      sub\n        /* \"#utility.yul\":17771:17772   */\n      0x00\n        /* \"#utility.yul\":17760:17769   */\n      dup4\n        /* \"#utility.yul\":17756:17773   */\n      add\n        /* \"#utility.yul\":17749:17796   */\n      mstore\n        /* \"#utility.yul\":17813:17888   */\n      tag_435\n        /* \"#utility.yul\":17883:17887   */\n      dup2\n        /* \"#utility.yul\":17874:17880   */\n      dup5\n        /* \"#utility.yul\":17813:17888   */\n      tag_401\n      jump\t// in\n    tag_435:\n        /* \"#utility.yul\":17805:17888   */\n      swap1\n      pop\n        /* \"#utility.yul\":17703:17895   */\n      swap3\n      swap2\n      pop\n      pop\n      jump\t// out\n        /* \"#utility.yul\":17901:18123   */\n    tag_42:\n      0x00\n        /* \"#utility.yul\":18032:18034   */\n      0x20\n        /* \"#utility.yul\":18021:18030   */\n      dup3\n        /* \"#utility.yul\":18017:18035   */\n      add\n        /* \"#utility.yul\":18009:18035   */\n      swap1\n      pop\n        /* \"#utility.yul\":18045:18116   */\n      tag_437\n        /* \"#utility.yul\":18113:18114   */\n      0x00\n        /* \"#utility.yul\":18102:18111   */\n      dup4\n        /* \"#utility.yul\":18098:18115   */\n      add\n        /* \"#utility.yul\":18089:18095   */\n      dup5\n        /* \"#utility.yul\":18045:18116   */\n      tag_416\n      jump\t// in\n    tag_437:\n        /* \"#utility.yul\":17999:18123   */\n      swap3\n      swap2\n      pop\n      pop\n      jump\t// out\n        /* \"#utility.yul\":18129:18412   */\n    tag_222:\n      0x00\n        /* \"#utility.yul\":18195:18197   */\n      0x40\n        /* \"#utility.yul\":18189:18198   */\n      mload\n        /* \"#utility.yul\":18179:18198   */\n      swap1\n      pop\n        /* \"#utility.yul\":18237:18241   */\n      dup2\n        /* \"#utility.yul\":18229:18235   */\n      dup2\n        /* \"#utility.yul\":18225:18242   */\n      add\n        /* \"#utility.yul\":18344:18350   */\n      dup2\n        /* \"#utility.yul\":18332:18342   */\n      dup2\n        /* \"#utility.yul\":18329:18351   */\n      lt\n        /* \"#utility.yul\":18308:18326   */\n      0xffffffffffffffff\n        /* \"#utility.yul\":18296:18306   */\n      dup3\n        /* \"#utility.yul\":18293:18327   */\n      gt\n        /* \"#utility.yul\":18290:18352   */\n      or\n        /* \"#utility.yul\":18287:18289   */\n      iszero\n      tag_439\n      jumpi\n        /* \"#utility.yul\":18355:18373   */\n      tag_440\n      tag_441\n      jump\t// in\n    tag_440:\n        /* \"#utility.yul\":18287:18289   */\n    tag_439:\n        /* \"#utility.yul\":18395:18405   */\n      dup1\n        /* \"#utility.yul\":18391:18393   */\n      0x40\n        /* \"#utility.yul\":18384:18406   */\n      mstore\n        /* \"#utility.yul\":18169:18412   */\n      pop\n      swap2\n      swap1\n      pop\n      jump\t// out\n        /* \"#utility.yul\":18418:18729   */\n    tag_221:\n      0x00\n        /* \"#utility.yul\":18585:18603   */\n      0xffffffffffffffff\n        /* \"#utility.yul\":18577:18583   */\n      dup3\n        /* \"#utility.yul\":18574:18604   */\n      gt\n        /* \"#utility.yul\":18571:18573   */\n      iszero\n      tag_443\n      jumpi\n        /* \"#utility.yul\":18607:18625   */\n      tag_444\n      tag_441\n      jump\t// in\n    tag_444:\n        /* \"#utility.yul\":18571:18573   */\n    tag_443:\n        /* \"#utility.yul\":18657:18661   */\n      0x20\n        /* \"#utility.yul\":18649:18655   */\n      dup3\n        /* \"#utility.yul\":18645:18662   */\n      mul\n        /* \"#utility.yul\":18637:18662   */\n      swap1\n      pop\n        /* \"#utility.yul\":18717:18721   */\n      0x20\n        /* \"#utility.yul\":18711:18715   */\n      dup2\n        /* \"#utility.yul\":18707:18722   */\n      add\n        /* \"#utility.yul\":18699:18722   */\n      swap1\n      pop\n        /* \"#utility.yul\":18500:18729   */\n      swap2\n      swap1\n      pop\n      jump\t// out\n        /* \"#utility.yul\":18735:19067   */\n    tag_233:\n      0x00\n        /* \"#utility.yul\":18887:18905   */\n      0xffffffffffffffff\n        /* \"#utility.yul\":18879:18885   */\n      dup3\n        /* \"#utility.yul\":18876:18906   */\n      gt\n        /* \"#utility.yul\":18873:18875   */\n      iszero\n      tag_446\n      jumpi\n        /* \"#utility.yul\":18909:18927   */\n      tag_447\n      tag_441\n      jump\t// in\n    tag_447:\n        /* \"#utility.yul\":18873:18875   */\n    tag_446:\n        /* \"#utility.yul\":18994:18998   */\n      0x1f\n        /* \"#utility.yul\":18990:18999   */\n      not\n        /* \"#utility.yul\":18983:18987   */\n      0x1f\n        /* \"#utility.yul\":18975:18981   */\n      dup4\n        /* \"#utility.yul\":18971:18988   */\n      add\n        /* \"#utility.yul\":18967:19000   */\n      and\n        /* \"#utility.yul\":18959:19000   */\n      swap1\n      pop\n        /* \"#utility.yul\":19055:19059   */\n      0x20\n        /* \"#utility.yul\":19049:19053   */\n      dup2\n        /* \"#utility.yul\":19045:19060   */\n      add\n        /* \"#utility.yul\":19037:19060   */\n      swap1\n      pop\n        /* \"#utility.yul\":18802:19067   */\n      swap2\n      swap1\n      pop\n      jump\t// out\n        /* \"#utility.yul\":19073:19215   */\n    tag_356:\n      0x00\n        /* \"#utility.yul\":19173:19176   */\n      dup2\n        /* \"#utility.yul\":19165:19176   */\n      swap1\n      pop\n        /* \"#utility.yul\":19203:19207   */\n      0x20\n        /* \"#utility.yul\":19198:19201   */\n      dup3\n        /* \"#utility.yul\":19194:19208   */\n      add\n        /* \"#utility.yul\":19186:19208   */\n      swap1\n      pop\n        /* \"#utility.yul\":19155:19215   */\n      swap2\n      swap1\n      pop\n      jump\t// out\n        /* \"#utility.yul\":19221:19353   */\n    tag_370:\n      0x00\n        /* \"#utility.yul\":19311:19314   */\n      dup2\n        /* \"#utility.yul\":19303:19314   */\n      swap1\n      pop\n        /* \"#utility.yul\":19341:19345   */\n      0x20\n        /* \"#utility.yul\":19336:19339   */\n      dup3\n        /* \"#utility.yul\":19332:19346   */\n      add\n        /* \"#utility.yul\":19324:19346   */\n      swap1\n      pop\n        /* \"#utility.yul\":19293:19353   */\n      swap2\n      swap1\n      pop\n      jump\t// out\n        /* \"#utility.yul\":19359:19500   */\n    tag_409:\n      0x00\n        /* \"#utility.yul\":19431:19434   */\n      dup2\n        /* \"#utility.yul\":19423:19434   */\n      swap1\n      pop\n        /* \"#utility.yul\":19454:19457   */\n      dup2\n        /* \"#utility.yul\":19451:19452   */\n      0x00\n        /* \"#utility.yul\":19444:19458   */\n      mstore\n        /* \"#utility.yul\":19488:19492   */\n      0x20\n        /* \"#utility.yul\":19485:19486   */\n      0x00\n        /* \"#utility.yul\":19475:19493   */\n      keccak256\n        /* \"#utility.yul\":19467:19493   */\n      swap1\n      pop\n        /* \"#utility.yul\":19413:19500   */\n      swap2\n      swap1\n      pop\n      jump\t// out\n        /* \"#utility.yul\":19506:19630   */\n    tag_352:\n      0x00\n        /* \"#utility.yul\":19617:19622   */\n      dup2\n        /* \"#utility.yul\":19611:19623   */\n      mload\n        /* \"#utility.yul\":19601:19623   */\n      swap1\n      pop\n        /* \"#utility.yul\":19590:19630   */\n      swap2\n      swap1\n      pop\n      jump\t// out\n        /* \"#utility.yul\":19636:19750   */\n    tag_366:\n      0x00\n        /* \"#utility.yul\":19737:19742   */\n      dup2\n        /* \"#utility.yul\":19731:19743   */\n      mload\n        /* \"#utility.yul\":19721:19743   */\n      swap1\n      pop\n        /* \"#utility.yul\":19710:19750   */\n      swap2\n      swap1\n      pop\n      jump\t// out\n        /* \"#utility.yul\":19756:19855   */\n    tag_387:\n      0x00\n        /* \"#utility.yul\":19842:19847   */\n      dup2\n        /* \"#utility.yul\":19836:19848   */\n      mload\n        /* \"#utility.yul\":19826:19848   */\n      swap1\n      pop\n        /* \"#utility.yul\":19815:19855   */\n      swap2\n      swap1\n      pop\n      jump\t// out\n        /* \"#utility.yul\":19861:19984   */\n    tag_362:\n      0x00\n        /* \"#utility.yul\":19973:19977   */\n      0x20\n        /* \"#utility.yul\":19968:19971   */\n      dup3\n        /* \"#utility.yul\":19964:19978   */\n      add\n        /* \"#utility.yul\":19956:19978   */\n      swap1\n      pop\n        /* \"#utility.yul\":19946:19984   */\n      swap2\n      swap1\n      pop\n      jump\t// out\n        /* \"#utility.yul\":19990:20103   */\n    tag_376:\n      0x00\n        /* \"#utility.yul\":20092:20096   */\n      0x20\n        /* \"#utility.yul\":20087:20090   */\n      dup3\n        /* \"#utility.yul\":20083:20097   */\n      add\n        /* \"#utility.yul\":20075:20097   */\n      swap1\n      pop\n        /* \"#utility.yul\":20065:20103   */\n      swap2\n      swap1\n      pop\n      jump\t// out\n        /* \"#utility.yul\":20109:20303   */\n    tag_354:\n      0x00\n        /* \"#utility.yul\":20252:20258   */\n      dup3\n        /* \"#utility.yul\":20247:20250   */\n      dup3\n        /* \"#utility.yul\":20240:20259   */\n      mstore\n        /* \"#utility.yul\":20292:20296   */\n      0x20\n        /* \"#utility.yul\":20287:20290   */\n      dup3\n        /* \"#utility.yul\":20283:20297   */\n      add\n        /* \"#utility.yul\":20268:20297   */\n      swap1\n      pop\n        /* \"#utility.yul\":20230:20303   */\n      swap3\n      swap2\n      pop\n      pop\n      jump\t// out\n        /* \"#utility.yul\":20309:20493   */\n    tag_368:\n      0x00\n        /* \"#utility.yul\":20442:20448   */\n      dup3\n        /* \"#utility.yul\":20437:20440   */\n      dup3\n        /* \"#utility.yul\":20430:20449   */\n      mstore\n        /* \"#utility.yul\":20482:20486   */\n      0x20\n        /* \"#utility.yul\":20477:20480   */\n      dup3\n        /* \"#utility.yul\":20473:20487   */\n      add\n        /* \"#utility.yul\":20458:20487   */\n      swap1\n      pop\n        /* \"#utility.yul\":20420:20493   */\n      swap3\n      swap2\n      pop\n      pop\n      jump\t// out\n        /* \"#utility.yul\":20499:20658   */\n    tag_389:\n      0x00\n        /* \"#utility.yul\":20607:20613   */\n      dup3\n        /* \"#utility.yul\":20602:20605   */\n      dup3\n        /* \"#utility.yul\":20595:20614   */\n      mstore\n        /* \"#utility.yul\":20647:20651   */\n      0x20\n        /* \"#utility.yul\":20642:20645   */\n      dup3\n        /* \"#utility.yul\":20638:20652   */\n      add\n        /* \"#utility.yul\":20623:20652   */\n      swap1\n      pop\n        /* \"#utility.yul\":20585:20658   */\n      swap3\n      swap2\n      pop\n      pop\n      jump\t// out\n        /* \"#utility.yul\":20664:20833   */\n    tag_398:\n      0x00\n        /* \"#utility.yul\":20782:20788   */\n      dup3\n        /* \"#utility.yul\":20777:20780   */\n      dup3\n        /* \"#utility.yul\":20770:20789   */\n      mstore\n        /* \"#utility.yul\":20822:20826   */\n      0x20\n        /* \"#utility.yul\":20817:20820   */\n      dup3\n        /* \"#utility.yul\":20813:20827   */\n      add\n        /* \"#utility.yul\":20798:20827   */\n      swap1\n      pop\n        /* \"#utility.yul\":20760:20833   */\n      swap3\n      swap2\n      pop\n      pop\n      jump\t// out\n        /* \"#utility.yul\":20839:21144   */\n    tag_122:\n      0x00\n        /* \"#utility.yul\":20898:20918   */\n      tag_461\n        /* \"#utility.yul\":20916:20917   */\n      dup3\n        /* \"#utility.yul\":20898:20918   */\n      tag_415\n      jump\t// in\n    tag_461:\n        /* \"#utility.yul\":20893:20918   */\n      swap2\n      pop\n        /* \"#utility.yul\":20932:20952   */\n      tag_462\n        /* \"#utility.yul\":20950:20951   */\n      dup4\n        /* \"#utility.yul\":20932:20952   */\n      tag_415\n      jump\t// in\n    tag_462:\n        /* \"#utility.yul\":20927:20952   */\n      swap3\n      pop\n        /* \"#utility.yul\":21086:21087   */\n      dup3\n        /* \"#utility.yul\":21018:21084   */\n      0xffffffffffffffffffffffffffffffffffffffffffffffffffffffffffffffff\n        /* \"#utility.yul\":21014:21088   */\n      sub\n        /* \"#utility.yul\":21011:21012   */\n      dup3\n        /* \"#utility.yul\":21008:21089   */\n      gt\n        /* \"#utility.yul\":21005:21007   */\n      iszero\n      tag_463\n      jumpi\n        /* \"#utility.yul\":21092:21110   */\n      tag_464\n      tag_465\n      jump\t// in\n    tag_464:\n        /* \"#utility.yul\":21005:21007   */\n    tag_463:\n        /* \"#utility.yul\":21136:21137   */\n      dup3\n        /* \"#utility.yul\":21133:21134   */\n      dup3\n        /* \"#utility.yul\":21129:21138   */\n      add\n        /* \"#utility.yul\":21122:21138   */\n      swap1\n      pop\n        /* \"#utility.yul\":20883:21144   */\n      swap3\n      swap2\n      pop\n      pop\n      jump\t// out\n        /* \"#utility.yul\":21150:21246   */\n    tag_348:\n      0x00\n        /* \"#utility.yul\":21216:21240   */\n      tag_467\n        /* \"#utility.yul\":21234:21239   */\n      dup3\n        /* \"#utility.yul\":21216:21240   */\n      tag_468\n      jump\t// in\n    tag_467:\n        /* \"#utility.yul\":21205:21240   */\n      swap1\n      pop\n        /* \"#utility.yul\":21195:21246   */\n      swap2\n      swap1\n      pop\n      jump\t// out\n        /* \"#utility.yul\":21252:21342   */\n    tag_380:\n      0x00\n        /* \"#utility.yul\":21329:21334   */\n      dup2\n        /* \"#utility.yul\":21322:21335   */\n      iszero\n        /* \"#utility.yul\":21315:21336   */\n      iszero\n        /* \"#utility.yul\":21304:21336   */\n      swap1\n      pop\n        /* \"#utility.yul\":21294:21342   */\n      swap2\n      swap1\n      pop\n      jump\t// out\n        /* \"#utility.yul\":21348:21485   */\n    tag_470:\n      0x00\n        /* \"#utility.yul\":21427:21432   */\n      dup2\n        /* \"#utility.yul\":21416:21432   */\n      swap1\n      pop\n        /* \"#utility.yul\":21433:21479   */\n      tag_472\n        /* \"#utility.yul\":21473:21478   */\n      dup3\n        /* \"#utility.yul\":21433:21479   */\n      tag_473\n      jump\t// in\n    tag_472:\n        /* \"#utility.yul\":21406:21485   */\n      swap2\n      swap1\n      pop\n      jump\t// out\n        /* \"#utility.yul\":21491:21617   */\n    tag_468:\n      0x00\n        /* \"#utility.yul\":21568:21610   */\n      0xffffffffffffffffffffffffffffffffffffffff\n        /* \"#utility.yul\":21561:21566   */\n      dup3\n        /* \"#utility.yul\":21557:21611   */\n      and\n        /* \"#utility.yul\":21546:21611   */\n      swap1\n      pop\n        /* \"#utility.yul\":21536:21617   */\n      swap2\n      swap1\n      pop\n      jump\t// out\n        /* \"#utility.yul\":21623:21700   */\n    tag_415:\n      0x00\n        /* \"#utility.yul\":21689:21694   */\n      dup2\n        /* \"#utility.yul\":21678:21694   */\n      swap1\n      pop\n        /* \"#utility.yul\":21668:21700   */\n      swap2\n      swap1\n      pop\n      jump\t// out\n        /* \"#utility.yul\":21706:21843   */\n    tag_384:\n      0x00\n        /* \"#utility.yul\":21800:21837   */\n      tag_477\n        /* \"#utility.yul\":21831:21836   */\n      dup3\n        /* \"#utility.yul\":21800:21837   */\n      tag_470\n      jump\t// in\n    tag_477:\n        /* \"#utility.yul\":21787:21837   */\n      swap1\n      pop\n        /* \"#utility.yul\":21777:21843   */\n      swap2\n      swap1\n      pop\n      jump\t// out\n        /* \"#utility.yul\":21849:22003   */\n    tag_236:\n        /* \"#utility.yul\":21933:21939   */\n      dup3\n        /* \"#utility.yul\":21928:21931   */\n      dup2\n        /* \"#utility.yul\":21923:21926   */\n      dup4\n        /* \"#utility.yul\":21910:21940   */\n      calldatacopy\n        /* \"#utility.yul\":21995:21996   */\n      0x00\n        /* \"#utility.yul\":21986:21992   */\n      dup4\n        /* \"#utility.yul\":21981:21984   */\n      dup4\n        /* \"#utility.yul\":21977:21993   */\n      add\n        /* \"#utility.yul\":21970:21997   */\n      mstore\n        /* \"#utility.yul\":21900:22003   */\n      pop\n      pop\n      pop\n      jump\t// out\n        /* \"#utility.yul\":22009:22316   */\n    tag_391:\n        /* \"#utility.yul\":22077:22078   */\n      0x00\n        /* \"#utility.yul\":22087:22200   */\n    tag_480:\n        /* \"#utility.yul\":22101:22107   */\n      dup4\n        /* \"#utility.yul\":22098:22099   */\n      dup2\n        /* \"#utility.yul\":22095:22108   */\n      lt\n        /* \"#utility.yul\":22087:22200   */\n      iszero\n      tag_482\n      jumpi\n        /* \"#utility.yul\":22186:22187   */\n      dup1\n        /* \"#utility.yul\":22181:22184   */\n      dup3\n        /* \"#utility.yul\":22177:22188   */\n      add\n        /* \"#utility.yul\":22171:22189   */\n      mload\n        /* \"#utility.yul\":22167:22168   */\n      dup2\n        /* \"#utility.yul\":22162:22165   */\n      dup5\n        /* \"#utility.yul\":22158:22169   */\n      add\n        /* \"#utility.yul\":22151:22190   */\n      mstore\n        /* \"#utility.yul\":22123:22125   */\n      0x20\n        /* \"#utility.yul\":22120:22121   */\n      dup2\n        /* \"#utility.yul\":22116:22126   */\n      add\n        /* \"#utility.yul\":22111:22126   */\n      swap1\n      pop\n        /* \"#utility.yul\":22087:22200   */\n      jump(tag_480)\n    tag_482:\n        /* \"#utility.yul\":22218:22224   */\n      dup4\n        /* \"#utility.yul\":22215:22216   */\n      dup2\n        /* \"#utility.yul\":22212:22225   */\n      gt\n        /* \"#utility.yul\":22209:22211   */\n      iszero\n      tag_483\n      jumpi\n        /* \"#utility.yul\":22298:22299   */\n      0x00\n        /* \"#utility.yul\":22289:22295   */\n      dup5\n        /* \"#utility.yul\":22284:22287   */\n      dup5\n        /* \"#utility.yul\":22280:22296   */\n      add\n        /* \"#utility.yul\":22273:22300   */\n      mstore\n        /* \"#utility.yul\":22209:22211   */\n    tag_483:\n        /* \"#utility.yul\":22058:22316   */\n      pop\n      pop\n      pop\n      pop\n      jump\t// out\n        /* \"#utility.yul\":22322:22642   */\n    tag_103:\n      0x00\n        /* \"#utility.yul\":22403:22404   */\n      0x02\n        /* \"#utility.yul\":22397:22401   */\n      dup3\n        /* \"#utility.yul\":22393:22405   */\n      div\n        /* \"#utility.yul\":22383:22405   */\n      swap1\n      pop\n        /* \"#utility.yul\":22450:22451   */\n      0x01\n        /* \"#utility.yul\":22444:22448   */\n      dup3\n        /* \"#utility.yul\":22440:22452   */\n      and\n        /* \"#utility.yul\":22471:22489   */\n      dup1\n        /* \"#utility.yul\":22461:22463   */\n      tag_485\n      jumpi\n        /* \"#utility.yul\":22527:22531   */\n      0x7f\n        /* \"#utility.yul\":22519:22525   */\n      dup3\n        /* \"#utility.yul\":22515:22532   */\n      and\n        /* \"#utility.yul\":22505:22532   */\n      swap2\n      pop\n        /* \"#utility.yul\":22461:22463   */\n    tag_485:\n        /* \"#utility.yul\":22589:22591   */\n      0x20\n        /* \"#utility.yul\":22581:22587   */\n      dup3\n        /* \"#utility.yul\":22578:22592   */\n      lt\n        /* \"#utility.yul\":22558:22576   */\n      dup2\n        /* \"#utility.yul\":22555:22593   */\n      eq\n        /* \"#utility.yul\":22552:22554   */\n      iszero\n      tag_486\n      jumpi\n        /* \"#utility.yul\":22608:22626   */\n      tag_487\n      tag_488\n      jump\t// in\n    tag_487:\n        /* \"#utility.yul\":22552:22554   */\n    tag_486:\n        /* \"#utility.yul\":22373:22642   */\n      pop\n      swap2\n      swap1\n      pop\n      jump\t// out\n        /* \"#utility.yul\":22648:22881   */\n    tag_162:\n      0x00\n        /* \"#utility.yul\":22710:22734   */\n      tag_490\n        /* \"#utility.yul\":22728:22733   */\n      dup3\n        /* \"#utility.yul\":22710:22734   */\n      tag_415\n      jump\t// in\n    tag_490:\n        /* \"#utility.yul\":22701:22734   */\n      swap2\n      pop\n        /* \"#utility.yul\":22756:22822   */\n      0xffffffffffffffffffffffffffffffffffffffffffffffffffffffffffffffff\n        /* \"#utility.yul\":22749:22754   */\n      dup3\n        /* \"#utility.yul\":22746:22823   */\n      eq\n        /* \"#utility.yul\":22743:22745   */\n      iszero\n      tag_491\n      jumpi\n        /* \"#utility.yul\":22826:22844   */\n      tag_492\n      tag_465\n      jump\t// in\n    tag_492:\n        /* \"#utility.yul\":22743:22745   */\n    tag_491:\n        /* \"#utility.yul\":22873:22874   */\n      0x01\n        /* \"#utility.yul\":22866:22871   */\n      dup3\n        /* \"#utility.yul\":22862:22875   */\n      add\n        /* \"#utility.yul\":22855:22875   */\n      swap1\n      pop\n        /* \"#utility.yul\":22691:22881   */\n      swap2\n      swap1\n      pop\n      jump\t// out\n        /* \"#utility.yul\":22887:23067   */\n    tag_465:\n        /* \"#utility.yul\":22935:23012   */\n      0x4e487b7100000000000000000000000000000000000000000000000000000000\n        /* \"#utility.yul\":22932:22933   */\n      0x00\n        /* \"#utility.yul\":22925:23013   */\n      mstore\n        /* \"#utility.yul\":23032:23036   */\n      0x11\n        /* \"#utility.yul\":23029:23030   */\n      0x04\n        /* \"#utility.yul\":23022:23037   */\n      mstore\n        /* \"#utility.yul\":23056:23060   */\n      0x24\n        /* \"#utility.yul\":23053:23054   */\n      0x00\n        /* \"#utility.yul\":23046:23061   */\n      revert\n        /* \"#utility.yul\":23073:23253   */\n    tag_494:\n        /* \"#utility.yul\":23121:23198   */\n      0x4e487b7100000000000000000000000000000000000000000000000000000000\n        /* \"#utility.yul\":23118:23119   */\n      0x00\n        /* \"#utility.yul\":23111:23199   */\n      mstore\n        /* \"#utility.yul\":23218:23222   */\n      0x21\n        /* \"#utility.yul\":23215:23216   */\n      0x04\n        /* \"#utility.yul\":23208:23223   */\n      mstore\n        /* \"#utility.yul\":23242:23246   */\n      0x24\n        /* \"#utility.yul\":23239:23240   */\n      0x00\n        /* \"#utility.yul\":23232:23247   */\n      revert\n        /* \"#utility.yul\":23259:23439   */\n    tag_488:\n        /* \"#utility.yul\":23307:23384   */\n      0x4e487b7100000000000000000000000000000000000000000000000000000000\n        /* \"#utility.yul\":23304:23305   */\n      0x00\n        /* \"#utility.yul\":23297:23385   */\n      mstore\n        /* \"#utility.yul\":23404:23408   */\n      0x22\n        /* \"#utility.yul\":23401:23402   */\n      0x04\n        /* \"#utility.yul\":23394:23409   */\n      mstore\n        /* \"#utility.yul\":23428:23432   */\n      0x24\n        /* \"#utility.yul\":23425:23426   */\n      0x00\n        /* \"#utility.yul\":23418:23433   */\n      revert\n        /* \"#utility.yul\":23445:23625   */\n    tag_441:\n        /* \"#utility.yul\":23493:23570   */\n      0x4e487b7100000000000000000000000000000000000000000000000000000000\n        /* \"#utility.yul\":23490:23491   */\n      0x00\n        /* \"#utility.yul\":23483:23571   */\n      mstore\n        /* \"#utility.yul\":23590:23594   */\n      0x41\n        /* \"#utility.yul\":23587:23588   */\n      0x04\n        /* \"#utility.yul\":23580:23595   */\n      mstore\n        /* \"#utility.yul\":23614:23618   */\n      0x24\n        /* \"#utility.yul\":23611:23612   */\n      0x00\n        /* \"#utility.yul\":23604:23619   */\n      revert\n        /* \"#utility.yul\":23631:23733   */\n    tag_393:\n      0x00\n        /* \"#utility.yul\":23723:23725   */\n      0x1f\n        /* \"#utility.yul\":23719:23726   */\n      not\n        /* \"#utility.yul\":23714:23716   */\n      0x1f\n        /* \"#utility.yul\":23707:23712   */\n      dup4\n        /* \"#utility.yul\":23703:23717   */\n      add\n        /* \"#utility.yul\":23699:23727   */\n      and\n        /* \"#utility.yul\":23689:23727   */\n      swap1\n      pop\n        /* \"#utility.yul\":23679:23733   */\n      swap2\n      swap1\n      pop\n      jump\t// out\n        /* \"#utility.yul\":23739:23857   */\n    tag_473:\n        /* \"#utility.yul\":23825:23826   */\n      0x04\n        /* \"#utility.yul\":23818:23823   */\n      dup2\n        /* \"#utility.yul\":23815:23827   */\n      lt\n        /* \"#utility.yul\":23805:23807   */\n      tag_500\n      jumpi\n        /* \"#utility.yul\":23831:23849   */\n      tag_501\n      tag_494\n      jump\t// in\n    tag_501:\n        /* \"#utility.yul\":23805:23807   */\n    tag_500:\n        /* \"#utility.yul\":23795:23857   */\n      pop\n      jump\t// out\n        /* \"#utility.yul\":23863:23985   */\n    tag_240:\n        /* \"#utility.yul\":23936:23960   */\n      tag_503\n        /* \"#utility.yul\":23954:23959   */\n      dup2\n        /* \"#utility.yul\":23936:23960   */\n      tag_348\n      jump\t// in\n    tag_503:\n        /* \"#utility.yul\":23929:23934   */\n      dup2\n        /* \"#utility.yul\":23926:23961   */\n      eq\n        /* \"#utility.yul\":23916:23918   */\n      tag_504\n      jumpi\n        /* \"#utility.yul\":23975:23976   */\n      0x00\n        /* \"#utility.yul\":23972:23973   */\n      dup1\n        /* \"#utility.yul\":23965:23977   */\n      revert\n        /* \"#utility.yul\":23916:23918   */\n    tag_504:\n        /* \"#utility.yul\":23906:23985   */\n      pop\n      jump\t// out\n        /* \"#utility.yul\":23991:24107   */\n    tag_248:\n        /* \"#utility.yul\":24061:24082   */\n      tag_506\n        /* \"#utility.yul\":24076:24081   */\n      dup2\n        /* \"#utility.yul\":24061:24082   */\n      tag_380\n      jump\t// in\n    tag_506:\n        /* \"#utility.yul\":24054:24059   */\n      dup2\n        /* \"#utility.yul\":24051:24083   */\n      eq\n        /* \"#utility.yul\":24041:24043   */\n      tag_507\n      jumpi\n        /* \"#utility.yul\":24097:24098   */\n      0x00\n        /* \"#utility.yul\":24094:24095   */\n      dup1\n        /* \"#utility.yul\":24087:24099   */\n      revert\n        /* \"#utility.yul\":24041:24043   */\n    tag_507:\n        /* \"#utility.yul\":24031:24107   */\n      pop\n      jump\t// out\n        /* \"#utility.yul\":24113:24227   */\n    tag_252:\n        /* \"#utility.yul\":24201:24202   */\n      0x03\n        /* \"#utility.yul\":24194:24199   */\n      dup2\n        /* \"#utility.yul\":24191:24203   */\n      lt\n        /* \"#utility.yul\":24181:24183   */\n      tag_509\n      jumpi\n        /* \"#utility.yul\":24217:24218   */\n      0x00\n        /* \"#utility.yul\":24214:24215   */\n      dup1\n        /* \"#utility.yul\":24207:24219   */\n      revert\n        /* \"#utility.yul\":24181:24183   */\n    tag_509:\n        /* \"#utility.yul\":24171:24227   */\n      pop\n      jump\t// out\n        /* \"#utility.yul\":24233:24345   */\n    tag_256:\n        /* \"#utility.yul\":24319:24320   */\n      0x04\n        /* \"#utility.yul\":24312:24317   */\n      dup2\n        /* \"#utility.yul\":24309:24321   */\n      lt\n        /* \"#utility.yul\":24299:24301   */\n      tag_511\n      jumpi\n        /* \"#utility.yul\":24335:24336   */\n      0x00\n        /* \"#utility.yul\":24332:24333   */\n      dup1\n        /* \"#utility.yul\":24325:24337   */\n      revert\n        /* \"#utility.yul\":24299:24301   */\n    tag_511:\n        /* \"#utility.yul\":24289:24345   */\n      pop\n      jump\t// out\n        /* \"#utility.yul\":24351:24461   */\n    tag_260:\n        /* \"#utility.yul\":24435:24436   */\n      0x07\n        /* \"#utility.yul\":24428:24433   */\n      dup2\n        /* \"#utility.yul\":24425:24437   */\n      lt\n        /* \"#utility.yul\":24415:24417   */\n      tag_513\n      jumpi\n        /* \"#utility.yul\":24451:24452   */\n      0x00\n        /* \"#utility.yul\":24448:24449   */\n      dup1\n        /* \"#utility.yul\":24441:24453   */\n      revert\n        /* \"#utility.yul\":24415:24417   */\n    tag_513:\n        /* \"#utility.yul\":24405:24461   */\n      pop\n      jump\t// out\n        /* \"#utility.yul\":24467:24589   */\n    tag_295:\n        /* \"#utility.yul\":24540:24564   */\n      tag_515\n        /* \"#utility.yul\":24558:24563   */\n      dup2\n        /* \"#utility.yul\":24540:24564   */\n      tag_415\n      jump\t// in\n    tag_515:\n        /* \"#utility.yul\":24533:24538   */\n      dup2\n        /* \"#utility.yul\":24530:24565   */\n      eq\n        /* \"#utility.yul\":24520:24522   */\n      tag_516\n      jumpi\n        /* \"#utility.yul\":24579:24580   */\n      0x00\n        /* \"#utility.yul\":24576:24577   */\n      dup1\n        /* \"#utility.yul\":24569:24581   */\n      revert\n        /* \"#utility.yul\":24520:24522   */\n    tag_516:\n        /* \"#utility.yul\":24510:24589   */\n      pop\n      jump\t// out\n\n    auxdata: 0xa26469706673582212209924e5c11aa65f3b955cb239de946dbab42c9b05932b751329f9db0f60f395bd64736f6c63430008000033\n}\n","bytecode":{"linkReferences":{},"object":"608060405234801561001057600080fd5b50612758806100206000396000f3fe608060405234801561001057600080fd5b50600436106100a95760003560e01c806371c56f9b1161007157806371c56f9b14610164578063909e4ab61461018257806395794157146101a0578063976217cd146101d05780639849cee914610205578063993c041014610235576100a9565b8063301e26f4146100ae578063307ed4be146100ca5780634c88bf2f146100e65780634d60f6511461011657806361ea18df14610134575b600080fd5b6100c860048036038101906100c39190611e9d565b610265565b005b6100e460048036038101906100df9190611dcc565b610645565b005b61010060048036038101906100fb9190611d3d565b610a1b565b60405161010d919061221b565b60405180910390f35b61011e610bd0565b60405161012b91906121d7565b60405180910390f35b61014e60048036038101906101499190611ceb565b610ca9565b60405161015b91906122ac565b60405180910390f35b61016c610d55565b60405161017991906122f0565b60405180910390f35b61018a610de9565b60405161019791906121f9565b60405180910390f35b6101ba60048036038101906101b59190611ceb565b610e41565b6040516101c791906122f0565b60405180910390f35b6101ea60048036038101906101e59190611ceb565b610e65565b6040516101fc96959493929190612236565b60405180910390f35b61021f600480360381019061021a9190611ceb565b61106f565b60405161022c919061221b565b60405180910390f35b61024f600480360381019061024a9190611ceb565b61109b565b60405161025c919061221b565b60405180910390f35b61026d61165b565b86816000018190525085816020019073ffffffffffffffffffffffffffffffffffffffff16908173ffffffffffffffffffffffffffffffffffffffff1681525050600081604001901515908115158152505084816060019060038111156102fd577f4e487b7100000000000000000000000000000000000000000000000000000000600052602160045260246000fd5b90816003811115610337577f4e487b7100000000000000000000000000000000000000000000000000000000600052602160045260246000fd5b81525050838160800181905250828160a00181905250818160c00181905250806000808a815260200190815260200160002060008201518160000190805190602001906103859291906116ee565b5060208201518160010160006101000a81548173ffffffffffffffffffffffffffffffffffffffff021916908373ffffffffffffffffffffffffffffffffffffffff16021790555060408201518160010160146101000a81548160ff02191690831515021790555060608201518160010160156101000a81548160ff0219169083600381111561043e577f4e487b7100000000000000000000000000000000000000000000000000000000600052602160045260246000fd5b0217905550608082015181600201908051906020019061045f929190611774565b5060a082015181600301908051906020019061047c929190611774565b5060c0820151816004016000820151816000015560208201518160010160006101000a81548160ff021916908360038111156104e1577f4e487b7100000000000000000000000000000000000000000000000000000000600052602160045260246000fd5b021790555060408201518160010160016101000a81548160ff02191690836002811115610537577f4e487b7100000000000000000000000000000000000000000000000000000000600052602160045260246000fd5b021790555060608201518160010160026101000a81548160ff02191690831515021790555060808201518160010160036101000a81548160ff02191690831515021790555060a08201518160010160046101000a81548160ff021916908360068111156105cd577f4e487b7100000000000000000000000000000000000000000000000000000000600052602160045260246000fd5b021790555060c082015181600201600082015181600001556020820151816001019080519060200190610601929190611774565b50505060e0820151816004016000820151816000015560208201518160010190805190602001906106339291906116ee565b50505050509050505050505050505050565b61064d61165b565b85816000018190525084816020019073ffffffffffffffffffffffffffffffffffffffff16908173ffffffffffffffffffffffffffffffffffffffff1681525050600081604001901515908115158152505083816060019060038111156106dd577f4e487b7100000000000000000000000000000000000000000000000000000000600052602160045260246000fd5b90816003811115610717577f4e487b7100000000000000000000000000000000000000000000000000000000600052602160045260246000fd5b81525050828160800181905250818160a0018190525080600080898152602001908152602001600020600082015181600001908051906020019061075c9291906116ee565b5060208201518160010160006101000a81548173ffffffffffffffffffffffffffffffffffffffff021916908373ffffffffffffffffffffffffffffffffffffffff16021790555060408201518160010160146101000a81548160ff02191690831515021790555060608201518160010160156101000a81548160ff02191690836003811115610815577f4e487b7100000000000000000000000000000000000000000000000000000000600052602160045260246000fd5b02179055506080820151816002019080519060200190610836929190611774565b5060a0820151816003019080519060200190610853929190611774565b5060c0820151816004016000820151816000015560208201518160010160006101000a81548160ff021916908360038111156108b8577f4e487b7100000000000000000000000000000000000000000000000000000000600052602160045260246000fd5b021790555060408201518160010160016101000a81548160ff0219169083600281111561090e577f4e487b7100000000000000000000000000000000000000000000000000000000600052602160045260246000fd5b021790555060608201518160010160026101000a81548160ff02191690831515021790555060808201518160010160036101000a81548160ff02191690831515021790555060a08201518160010160046101000a81548160ff021916908360068111156109a4577f4e487b7100000000000000000000000000000000000000000000000000000000600052602160045260246000fd5b021790555060c0820151816002016000820151816000015560208201518160010190805190602001906109d8929190611774565b50505060e082015181600401600082015181600001556020820151816001019080519060200190610a0a9291906116ee565b505050505090505050505050505050565b60008460008088815260200190815260200160002060040160010160006101000a81548160ff02191690836003811115610a7e577f4e487b7100000000000000000000000000000000000000000000000000000000600052602160045260246000fd5b02179055508360008088815260200190815260200160002060040160010160016101000a81548160ff02191690836002811115610ae4577f4e487b7100000000000000000000000000000000000000000000000000000000600052602160045260246000fd5b02179055508260008088815260200190815260200160002060040160010160046101000a81548160ff02191690836006811115610b4a577f4e487b7100000000000000000000000000000000000000000000000000000000600052602160045260246000fd5b021790555081600080888152602001908152602001600020600401600201600082015181600001556020820151816001019080519060200190610b8e929190611774565b50905050600160008088815260200190815260200160002060040160010160036101000a81548160ff0219169083151502179055506001905095945050505050565b60606004805480602002602001604051908101604052809291908181526020016000905b82821015610ca0578382906000526020600020018054610c1390612551565b80601f0160208091040260200160405190810160405280929190818152602001828054610c3f90612551565b8015610c8c5780601f10610c6157610100808354040283529160200191610c8c565b820191906000526020600020905b815481529060010190602001808311610c6f57829003601f168201915b505050505081526020019060010190610bf4565b50505050905090565b60048181548110610cb957600080fd5b906000526020600020016000915090508054610cd490612551565b80601f0160208091040260200160405190810160405280929190818152602001828054610d0090612551565b8015610d4d5780601f10610d2257610100808354040283529160200191610d4d565b820191906000526020600020905b815481529060010190602001808311610d3057829003601f168201915b505050505081565b6000807327b1618cb7956bbf41bc640a506f4563ae74f61363c237647f6040518163ffffffff1660e01b815260040160206040518083038186803b158015610d9c57600080fd5b505af4158015610db0573d6000803e3d6000fd5b505050506040513d601f19601f82011682018060405250810190610dd49190611d14565b9050600581610de3919061244c565b91505090565b60606003805480602002602001604051908101604052809291908181526020018280548015610e3757602002820191906000526020600020905b815481526020019060010190808311610e23575b5050505050905090565b60038181548110610e5157600080fd5b906000526020600020016000915090505481565b6000606060008060608060008088815260200190815260200160002060010160149054906101000a900460ff166000808981526020019081526020016000206000016000808a815260200190815260200160002060010160009054906101000a900473ffffffffffffffffffffffffffffffffffffffff166000808b815260200190815260200160002060010160159054906101000a900460ff166000808c81526020019081526020016000206002016000808d8152602001908152602001600020600301848054610f3690612551565b80601f0160208091040260200160405190810160405280929190818152602001828054610f6290612551565b8015610faf5780601f10610f8457610100808354040283529160200191610faf565b820191906000526020600020905b815481529060010190602001808311610f9257829003601f168201915b505050505094508180548060200260200160405190810160405280929190818152602001828054801561100157602002820191906000526020600020905b815481526020019060010190808311610fed575b505050505091508080548060200260200160405190810160405280929190818152602001828054801561105357602002820191906000526020600020905b81548152602001906001019080831161103f575b5050505050905095509550955095509550955091939550919395565b600080600083815260200190815260200160002060010160149054906101000a900460ff169050919050565b60008060008084815260200190815260200160002060010160009054906101000a900473ffffffffffffffffffffffffffffffffffffffff169050600073ffffffffffffffffffffffffffffffffffffffff168173ffffffffffffffffffffffffffffffffffffffff16148061113c57503373ffffffffffffffffffffffffffffffffffffffff168173ffffffffffffffffffffffffffffffffffffffff16145b60008085815260200190815260200160002060000190611192576040517f08c379a000000000000000000000000000000000000000000000000000000000815260040161118991906122ce565b60405180910390fd5b5060008060008581526020019081526020016000206002018054806020026020016040519081016040528092919081815260200182805480156111f457602002820191906000526020600020905b8154815260200190600101908083116111e0575b5050505050905060008151141561120e576001925061153d565b600080600086815260200190815260200160002060010160159054906101000a900460ff1690506000600381111561126f577f4e487b7100000000000000000000000000000000000000000000000000000000600052602160045260246000fd5b8160038111156112a8577f4e487b7100000000000000000000000000000000000000000000000000000000600052602160045260246000fd5b141561130e57600115156112fc836000815181106112ef577f4e487b7100000000000000000000000000000000000000000000000000000000600052603260045260246000fd5b602002602001015161106f565b1515141561130957600193505b61153b565b600080600090505b8351811015611396576001151561136c85838151811061135f577f4e487b7100000000000000000000000000000000000000000000000000000000600052603260045260246000fd5b602002602001015161106f565b1515141561138357818061137f90612583565b9250505b808061138e90612583565b915050611316565b50600160038111156113d1577f4e487b7100000000000000000000000000000000000000000000000000000000600052602160045260246000fd5b82600381111561140a577f4e487b7100000000000000000000000000000000000000000000000000000000600052602160045260246000fd5b141561142357825181141561141e57600194505b611539565b6002600381111561145d577f4e487b7100000000000000000000000000000000000000000000000000000000600052602160045260246000fd5b826003811115611496577f4e487b7100000000000000000000000000000000000000000000000000000000600052602160045260246000fd5b14156114a55760019450611538565b6003808111156114de577f4e487b7100000000000000000000000000000000000000000000000000000000600052602160045260246000fd5b826003811115611517577f4e487b7100000000000000000000000000000000000000000000000000000000600052602160045260246000fd5b141561153757600181148061152c5750600281145b1561153657600194505b5b5b5b505b505b821561162357600160008086815260200190815260200160002060010160146101000a81548160ff02191690831515021790555060038490806001815401808255809150506001900390600052602060002001600090919091909150556004600080868152602001908152602001600020600001908060018154018082558091505060019003906000526020600020016000909190919091509080546115e290612551565b6115ed9291906117c1565b50600115157facd30b4f9fd5868793e13ffb506f03374a23d9feba1249ac2cc7b0fe024ff4ba60405160405180910390a2611654565b600015157facd30b4f9fd5868793e13ffb506f03374a23d9feba1249ac2cc7b0fe024ff4ba60405160405180910390a25b5050919050565b6040518060e0016040528060608152602001600073ffffffffffffffffffffffffffffffffffffffff168152602001600015158152602001600060038111156116cd577f4e487b7100000000000000000000000000000000000000000000000000000000600052602160045260246000fd5b815260200160608152602001606081526020016116e861184e565b81525090565b8280546116fa90612551565b90600052602060002090601f01602090048101928261171c5760008555611763565b82601f1061173557805160ff1916838001178555611763565b82800160010185558215611763579182015b82811115611762578251825591602001919060010190611747565b5b509050611770919061194b565b5090565b8280548282559060005260206000209081019282156117b0579160200282015b828111156117af578251825591602001919060010190611794565b5b5090506117bd919061194b565b5090565b8280546117cd90612551565b90600052602060002090601f0160209004810192826117ef576000855561183d565b82601f10611800578054855561183d565b8280016001018555821561183d57600052602060002091601f016020900482015b8281111561183c578254825591600101919060010190611821565b5b50905061184a919061194b565b5090565b604051806101000160405280600081526020016000600381111561189b577f4e487b7100000000000000000000000000000000000000000000000000000000600052602160045260246000fd5b8152602001600060028111156118da577f4e487b7100000000000000000000000000000000000000000000000000000000600052602160045260246000fd5b81526020016000151581526020016000151581526020016000600681111561192b577f4e487b7100000000000000000000000000000000000000000000000000000000600052602160045260246000fd5b8152602001611938611968565b8152602001611945611982565b81525090565b5b8082111561196457600081600090555060010161194c565b5090565b604051806040016040528060008152602001606081525090565b604051806040016040528060008152602001606081525090565b60006119af6119aa8461233c565b61230b565b905080838252602082019050828560208602820111156119ce57600080fd5b60005b858110156119fe57816119e48882611cc1565b8452602084019350602083019250506001810190506119d1565b5050509392505050565b6000611a1b611a1684612368565b61230b565b905082815260208101848484011115611a3357600080fd5b611a3e84828561250f565b509392505050565b600081359050611a55816126ad565b92915050565b600082601f830112611a6c57600080fd5b8135611a7c84826020860161199c565b91505092915050565b600081359050611a94816126c4565b92915050565b600081359050611aa9816126db565b92915050565b600081359050611abe816126eb565b92915050565b600081359050611ad3816126fb565b92915050565b600082601f830112611aea57600080fd5b8135611afa848260208601611a08565b91505092915050565b60006101008284031215611b1657600080fd5b611b2161010061230b565b90506000611b3184828501611cc1565b6000830152506020611b4584828501611aaf565b6020830152506040611b5984828501611a9a565b6040830152506060611b6d84828501611a85565b6060830152506080611b8184828501611a85565b60808301525060a0611b9584828501611ac4565b60a08301525060c082013567ffffffffffffffff811115611bb557600080fd5b611bc184828501611bf9565b60c08301525060e082013567ffffffffffffffff811115611be157600080fd5b611bed84828501611c5d565b60e08301525092915050565b600060408284031215611c0b57600080fd5b611c15604061230b565b90506000611c2584828501611cc1565b600083015250602082013567ffffffffffffffff811115611c4557600080fd5b611c5184828501611a5b565b60208301525092915050565b600060408284031215611c6f57600080fd5b611c79604061230b565b90506000611c8984828501611cc1565b600083015250602082013567ffffffffffffffff811115611ca957600080fd5b611cb584828501611ad9565b60208301525092915050565b600081359050611cd08161270b565b92915050565b600081519050611ce58161270b565b92915050565b600060208284031215611cfd57600080fd5b6000611d0b84828501611cc1565b91505092915050565b600060208284031215611d2657600080fd5b6000611d3484828501611cd6565b91505092915050565b600080600080600060a08688031215611d5557600080fd5b6000611d6388828901611cc1565b9550506020611d7488828901611aaf565b9450506040611d8588828901611a9a565b9350506060611d9688828901611ac4565b925050608086013567ffffffffffffffff811115611db357600080fd5b611dbf88828901611bf9565b9150509295509295909350565b60008060008060008060c08789031215611de557600080fd5b6000611df389828a01611cc1565b965050602087013567ffffffffffffffff811115611e1057600080fd5b611e1c89828a01611ad9565b9550506040611e2d89828a01611a46565b9450506060611e3e89828a01611aaf565b935050608087013567ffffffffffffffff811115611e5b57600080fd5b611e6789828a01611a5b565b92505060a087013567ffffffffffffffff811115611e8457600080fd5b611e9089828a01611a5b565b9150509295509295509295565b600080600080600080600060e0888a031215611eb857600080fd5b6000611ec68a828b01611cc1565b975050602088013567ffffffffffffffff811115611ee357600080fd5b611eef8a828b01611ad9565b9650506040611f008a828b01611a46565b9550506060611f118a828b01611aaf565b945050608088013567ffffffffffffffff811115611f2e57600080fd5b611f3a8a828b01611a5b565b93505060a088013567ffffffffffffffff811115611f5757600080fd5b611f638a828b01611a5b565b92505060c088013567ffffffffffffffff811115611f8057600080fd5b611f8c8a828b01611b03565b91505092959891949750929550565b6000611fa783836120c7565b905092915050565b6000611fbb83836121b9565b60208301905092915050565b611fd0816124a2565b82525050565b6000611fe1826123cd565b611feb8185612408565b935083602082028501611ffd85612398565b8060005b85811015612039578484038952815161201a8582611f9b565b9450612025836123ee565b925060208a01995050600181019050612001565b50829750879550505050505092915050565b6000612056826123d8565b6120608185612419565b935061206b836123a8565b8060005b8381101561209c5781516120838882611faf565b975061208e836123fb565b92505060018101905061206f565b5085935050505092915050565b6120b2816124b4565b82525050565b6120c1816124fd565b82525050565b60006120d2826123e3565b6120dc818561242a565b93506120ec81856020860161251e565b6120f581612688565b840191505092915050565b600061210b826123e3565b612115818561243b565b935061212581856020860161251e565b61212e81612688565b840191505092915050565b6000815461214681612551565b612150818661243b565b9450600182166000811461216b576001811461217d576121b0565b60ff19831686526020860193506121b0565b612186856123b8565b60005b838110156121a857815481890152600182019150602081019050612189565b808801955050505b50505092915050565b6121c2816124f3565b82525050565b6121d1816124f3565b82525050565b600060208201905081810360008301526121f18184611fd6565b905092915050565b60006020820190508181036000830152612213818461204b565b905092915050565b600060208201905061223060008301846120a9565b92915050565b600060c08201905061224b60008301896120a9565b818103602083015261225d8188612100565b905061226c6040830187611fc7565b61227960608301866120b8565b818103608083015261228b818561204b565b905081810360a083015261229f818461204b565b9050979650505050505050565b600060208201905081810360008301526122c68184612100565b905092915050565b600060208201905081810360008301526122e88184612139565b905092915050565b600060208201905061230560008301846121c8565b92915050565b6000604051905081810181811067ffffffffffffffff8211171561233257612331612659565b5b8060405250919050565b600067ffffffffffffffff82111561235757612356612659565b5b602082029050602081019050919050565b600067ffffffffffffffff82111561238357612382612659565b5b601f19601f8301169050602081019050919050565b6000819050602082019050919050565b6000819050602082019050919050565b60008190508160005260206000209050919050565b600081519050919050565b600081519050919050565b600081519050919050565b6000602082019050919050565b6000602082019050919050565b600082825260208201905092915050565b600082825260208201905092915050565b600082825260208201905092915050565b600082825260208201905092915050565b6000612457826124f3565b9150612462836124f3565b9250827fffffffffffffffffffffffffffffffffffffffffffffffffffffffffffffffff03821115612497576124966125cc565b5b828201905092915050565b60006124ad826124d3565b9050919050565b60008115159050919050565b60008190506124ce82612699565b919050565b600073ffffffffffffffffffffffffffffffffffffffff82169050919050565b6000819050919050565b6000612508826124c0565b9050919050565b82818337600083830152505050565b60005b8381101561253c578082015181840152602081019050612521565b8381111561254b576000848401525b50505050565b6000600282049050600182168061256957607f821691505b6020821081141561257d5761257c61262a565b5b50919050565b600061258e826124f3565b91507fffffffffffffffffffffffffffffffffffffffffffffffffffffffffffffffff8214156125c1576125c06125cc565b5b600182019050919050565b7f4e487b7100000000000000000000000000000000000000000000000000000000600052601160045260246000fd5b7f4e487b7100000000000000000000000000000000000000000000000000000000600052602160045260246000fd5b7f4e487b7100000000000000000000000000000000000000000000000000000000600052602260045260246000fd5b7f4e487b7100000000000000000000000000000000000000000000000000000000600052604160045260246000fd5b6000601f19601f8301169050919050565b600481106126aa576126a96125fb565b5b50565b6126b6816124a2565b81146126c157600080fd5b50565b6126cd816124b4565b81146126d857600080fd5b50565b600381106126e857600080fd5b50565b600481106126f857600080fd5b50565b6007811061270857600080fd5b50565b612714816124f3565b811461271f57600080fd5b5056fea26469706673582212209924e5c11aa65f3b955cb239de946dbab42c9b05932b751329f9db0f60f395bd64736f6c63430008000033","opcodes":"PUSH1 0x80 PUSH1 0x40 MSTORE CALLVALUE DUP1 ISZERO PUSH2 0x10 JUMPI PUSH1 0x0 DUP1 REVERT JUMPDEST POP PUSH2 0x2758 DUP1 PUSH2 0x20 PUSH1 0x0 CODECOPY PUSH1 0x0 RETURN INVALID PUSH1 0x80 PUSH1 0x40 MSTORE CALLVALUE DUP1 ISZERO PUSH2 0x10 JUMPI PUSH1 0x0 DUP1 REVERT JUMPDEST POP PUSH1 0x4 CALLDATASIZE LT PUSH2 0xA9 JUMPI PUSH1 0x0 CALLDATALOAD PUSH1 0xE0 SHR DUP1 PUSH4 0x71C56F9B GT PUSH2 0x71 JUMPI DUP1 PUSH4 0x71C56F9B EQ PUSH2 0x164 JUMPI DUP1 PUSH4 0x909E4AB6 EQ PUSH2 0x182 JUMPI DUP1 PUSH4 0x95794157 EQ PUSH2 0x1A0 JUMPI DUP1 PUSH4 0x976217CD EQ PUSH2 0x1D0 JUMPI DUP1 PUSH4 0x9849CEE9 EQ PUSH2 0x205 JUMPI DUP1 PUSH4 0x993C0410 EQ PUSH2 0x235 JUMPI PUSH2 0xA9 JUMP JUMPDEST DUP1 PUSH4 0x301E26F4 EQ PUSH2 0xAE JUMPI DUP1 PUSH4 0x307ED4BE EQ PUSH2 0xCA JUMPI DUP1 PUSH4 0x4C88BF2F EQ PUSH2 0xE6 JUMPI DUP1 PUSH4 0x4D60F651 EQ PUSH2 0x116 JUMPI DUP1 PUSH4 0x61EA18DF EQ PUSH2 0x134 JUMPI JUMPDEST PUSH1 0x0 DUP1 REVERT JUMPDEST PUSH2 0xC8 PUSH1 0x4 DUP1 CALLDATASIZE SUB DUP2 ADD SWAP1 PUSH2 0xC3 SWAP2 SWAP1 PUSH2 0x1E9D JUMP JUMPDEST PUSH2 0x265 JUMP JUMPDEST STOP JUMPDEST PUSH2 0xE4 PUSH1 0x4 DUP1 CALLDATASIZE SUB DUP2 ADD SWAP1 PUSH2 0xDF SWAP2 SWAP1 PUSH2 0x1DCC JUMP JUMPDEST PUSH2 0x645 JUMP JUMPDEST STOP JUMPDEST PUSH2 0x100 PUSH1 0x4 DUP1 CALLDATASIZE SUB DUP2 ADD SWAP1 PUSH2 0xFB SWAP2 SWAP1 PUSH2 0x1D3D JUMP JUMPDEST PUSH2 0xA1B JUMP JUMPDEST PUSH1 0x40 MLOAD PUSH2 0x10D SWAP2 SWAP1 PUSH2 0x221B JUMP JUMPDEST PUSH1 0x40 MLOAD DUP1 SWAP2 SUB SWAP1 RETURN JUMPDEST PUSH2 0x11E PUSH2 0xBD0 JUMP JUMPDEST PUSH1 0x40 MLOAD PUSH2 0x12B SWAP2 SWAP1 PUSH2 0x21D7 JUMP JUMPDEST PUSH1 0x40 MLOAD DUP1 SWAP2 SUB SWAP1 RETURN JUMPDEST PUSH2 0x14E PUSH1 0x4 DUP1 CALLDATASIZE SUB DUP2 ADD SWAP1 PUSH2 0x149 SWAP2 SWAP1 PUSH2 0x1CEB JUMP JUMPDEST PUSH2 0xCA9 JUMP JUMPDEST PUSH1 0x40 MLOAD PUSH2 0x15B SWAP2 SWAP1 PUSH2 0x22AC JUMP JUMPDEST PUSH1 0x40 MLOAD DUP1 SWAP2 SUB SWAP1 RETURN JUMPDEST PUSH2 0x16C PUSH2 0xD55 JUMP JUMPDEST PUSH1 0x40 MLOAD PUSH2 0x179 SWAP2 SWAP1 PUSH2 0x22F0 JUMP JUMPDEST PUSH1 0x40 MLOAD DUP1 SWAP2 SUB SWAP1 RETURN JUMPDEST PUSH2 0x18A PUSH2 0xDE9 JUMP JUMPDEST PUSH1 0x40 MLOAD PUSH2 0x197 SWAP2 SWAP1 PUSH2 0x21F9 JUMP JUMPDEST PUSH1 0x40 MLOAD DUP1 SWAP2 SUB SWAP1 RETURN JUMPDEST PUSH2 0x1BA PUSH1 0x4 DUP1 CALLDATASIZE SUB DUP2 ADD SWAP1 PUSH2 0x1B5 SWAP2 SWAP1 PUSH2 0x1CEB JUMP JUMPDEST PUSH2 0xE41 JUMP JUMPDEST PUSH1 0x40 MLOAD PUSH2 0x1C7 SWAP2 SWAP1 PUSH2 0x22F0 JUMP JUMPDEST PUSH1 0x40 MLOAD DUP1 SWAP2 SUB SWAP1 RETURN JUMPDEST PUSH2 0x1EA PUSH1 0x4 DUP1 CALLDATASIZE SUB DUP2 ADD SWAP1 PUSH2 0x1E5 SWAP2 SWAP1 PUSH2 0x1CEB JUMP JUMPDEST PUSH2 0xE65 JUMP JUMPDEST PUSH1 0x40 MLOAD PUSH2 0x1FC SWAP7 SWAP6 SWAP5 SWAP4 SWAP3 SWAP2 SWAP1 PUSH2 0x2236 JUMP JUMPDEST PUSH1 0x40 MLOAD DUP1 SWAP2 SUB SWAP1 RETURN JUMPDEST PUSH2 0x21F PUSH1 0x4 DUP1 CALLDATASIZE SUB DUP2 ADD SWAP1 PUSH2 0x21A SWAP2 SWAP1 PUSH2 0x1CEB JUMP JUMPDEST PUSH2 0x106F JUMP JUMPDEST PUSH1 0x40 MLOAD PUSH2 0x22C SWAP2 SWAP1 PUSH2 0x221B JUMP JUMPDEST PUSH1 0x40 MLOAD DUP1 SWAP2 SUB SWAP1 RETURN JUMPDEST PUSH2 0x24F PUSH1 0x4 DUP1 CALLDATASIZE SUB DUP2 ADD SWAP1 PUSH2 0x24A SWAP2 SWAP1 PUSH2 0x1CEB JUMP JUMPDEST PUSH2 0x109B JUMP JUMPDEST PUSH1 0x40 MLOAD PUSH2 0x25C SWAP2 SWAP1 PUSH2 0x221B JUMP JUMPDEST PUSH1 0x40 MLOAD DUP1 SWAP2 SUB SWAP1 RETURN JUMPDEST PUSH2 0x26D PUSH2 0x165B JUMP JUMPDEST DUP7 DUP2 PUSH1 0x0 ADD DUP2 SWAP1 MSTORE POP DUP6 DUP2 PUSH1 0x20 ADD SWAP1 PUSH20 0xFFFFFFFFFFFFFFFFFFFFFFFFFFFFFFFFFFFFFFFF AND SWAP1 DUP2 PUSH20 0xFFFFFFFFFFFFFFFFFFFFFFFFFFFFFFFFFFFFFFFF AND DUP2 MSTORE POP POP PUSH1 0x0 DUP2 PUSH1 0x40 ADD SWAP1 ISZERO ISZERO SWAP1 DUP2 ISZERO ISZERO DUP2 MSTORE POP POP DUP5 DUP2 PUSH1 0x60 ADD SWAP1 PUSH1 0x3 DUP2 GT ISZERO PUSH2 0x2FD JUMPI PUSH32 0x4E487B7100000000000000000000000000000000000000000000000000000000 PUSH1 0x0 MSTORE PUSH1 0x21 PUSH1 0x4 MSTORE PUSH1 0x24 PUSH1 0x0 REVERT JUMPDEST SWAP1 DUP2 PUSH1 0x3 DUP2 GT ISZERO PUSH2 0x337 JUMPI PUSH32 0x4E487B7100000000000000000000000000000000000000000000000000000000 PUSH1 0x0 MSTORE PUSH1 0x21 PUSH1 0x4 MSTORE PUSH1 0x24 PUSH1 0x0 REVERT JUMPDEST DUP2 MSTORE POP POP DUP4 DUP2 PUSH1 0x80 ADD DUP2 SWAP1 MSTORE POP DUP3 DUP2 PUSH1 0xA0 ADD DUP2 SWAP1 MSTORE POP DUP2 DUP2 PUSH1 0xC0 ADD DUP2 SWAP1 MSTORE POP DUP1 PUSH1 0x0 DUP1 DUP11 DUP2 MSTORE PUSH1 0x20 ADD SWAP1 DUP2 MSTORE PUSH1 0x20 ADD PUSH1 0x0 KECCAK256 PUSH1 0x0 DUP3 ADD MLOAD DUP2 PUSH1 0x0 ADD SWAP1 DUP1 MLOAD SWAP1 PUSH1 0x20 ADD SWAP1 PUSH2 0x385 SWAP3 SWAP2 SWAP1 PUSH2 0x16EE JUMP JUMPDEST POP PUSH1 0x20 DUP3 ADD MLOAD DUP2 PUSH1 0x1 ADD PUSH1 0x0 PUSH2 0x100 EXP DUP2 SLOAD DUP2 PUSH20 0xFFFFFFFFFFFFFFFFFFFFFFFFFFFFFFFFFFFFFFFF MUL NOT AND SWAP1 DUP4 PUSH20 0xFFFFFFFFFFFFFFFFFFFFFFFFFFFFFFFFFFFFFFFF AND MUL OR SWAP1 SSTORE POP PUSH1 0x40 DUP3 ADD MLOAD DUP2 PUSH1 0x1 ADD PUSH1 0x14 PUSH2 0x100 EXP DUP2 SLOAD DUP2 PUSH1 0xFF MUL NOT AND SWAP1 DUP4 ISZERO ISZERO MUL OR SWAP1 SSTORE POP PUSH1 0x60 DUP3 ADD MLOAD DUP2 PUSH1 0x1 ADD PUSH1 0x15 PUSH2 0x100 EXP DUP2 SLOAD DUP2 PUSH1 0xFF MUL NOT AND SWAP1 DUP4 PUSH1 0x3 DUP2 GT ISZERO PUSH2 0x43E JUMPI PUSH32 0x4E487B7100000000000000000000000000000000000000000000000000000000 PUSH1 0x0 MSTORE PUSH1 0x21 PUSH1 0x4 MSTORE PUSH1 0x24 PUSH1 0x0 REVERT JUMPDEST MUL OR SWAP1 SSTORE POP PUSH1 0x80 DUP3 ADD MLOAD DUP2 PUSH1 0x2 ADD SWAP1 DUP1 MLOAD SWAP1 PUSH1 0x20 ADD SWAP1 PUSH2 0x45F SWAP3 SWAP2 SWAP1 PUSH2 0x1774 JUMP JUMPDEST POP PUSH1 0xA0 DUP3 ADD MLOAD DUP2 PUSH1 0x3 ADD SWAP1 DUP1 MLOAD SWAP1 PUSH1 0x20 ADD SWAP1 PUSH2 0x47C SWAP3 SWAP2 SWAP1 PUSH2 0x1774 JUMP JUMPDEST POP PUSH1 0xC0 DUP3 ADD MLOAD DUP2 PUSH1 0x4 ADD PUSH1 0x0 DUP3 ADD MLOAD DUP2 PUSH1 0x0 ADD SSTORE PUSH1 0x20 DUP3 ADD MLOAD DUP2 PUSH1 0x1 ADD PUSH1 0x0 PUSH2 0x100 EXP DUP2 SLOAD DUP2 PUSH1 0xFF MUL NOT AND SWAP1 DUP4 PUSH1 0x3 DUP2 GT ISZERO PUSH2 0x4E1 JUMPI PUSH32 0x4E487B7100000000000000000000000000000000000000000000000000000000 PUSH1 0x0 MSTORE PUSH1 0x21 PUSH1 0x4 MSTORE PUSH1 0x24 PUSH1 0x0 REVERT JUMPDEST MUL OR SWAP1 SSTORE POP PUSH1 0x40 DUP3 ADD MLOAD DUP2 PUSH1 0x1 ADD PUSH1 0x1 PUSH2 0x100 EXP DUP2 SLOAD DUP2 PUSH1 0xFF MUL NOT AND SWAP1 DUP4 PUSH1 0x2 DUP2 GT ISZERO PUSH2 0x537 JUMPI PUSH32 0x4E487B7100000000000000000000000000000000000000000000000000000000 PUSH1 0x0 MSTORE PUSH1 0x21 PUSH1 0x4 MSTORE PUSH1 0x24 PUSH1 0x0 REVERT JUMPDEST MUL OR SWAP1 SSTORE POP PUSH1 0x60 DUP3 ADD MLOAD DUP2 PUSH1 0x1 ADD PUSH1 0x2 PUSH2 0x100 EXP DUP2 SLOAD DUP2 PUSH1 0xFF MUL NOT AND SWAP1 DUP4 ISZERO ISZERO MUL OR SWAP1 SSTORE POP PUSH1 0x80 DUP3 ADD MLOAD DUP2 PUSH1 0x1 ADD PUSH1 0x3 PUSH2 0x100 EXP DUP2 SLOAD DUP2 PUSH1 0xFF MUL NOT AND SWAP1 DUP4 ISZERO ISZERO MUL OR SWAP1 SSTORE POP PUSH1 0xA0 DUP3 ADD MLOAD DUP2 PUSH1 0x1 ADD PUSH1 0x4 PUSH2 0x100 EXP DUP2 SLOAD DUP2 PUSH1 0xFF MUL NOT AND SWAP1 DUP4 PUSH1 0x6 DUP2 GT ISZERO PUSH2 0x5CD JUMPI PUSH32 0x4E487B7100000000000000000000000000000000000000000000000000000000 PUSH1 0x0 MSTORE PUSH1 0x21 PUSH1 0x4 MSTORE PUSH1 0x24 PUSH1 0x0 REVERT JUMPDEST MUL OR SWAP1 SSTORE POP PUSH1 0xC0 DUP3 ADD MLOAD DUP2 PUSH1 0x2 ADD PUSH1 0x0 DUP3 ADD MLOAD DUP2 PUSH1 0x0 ADD SSTORE PUSH1 0x20 DUP3 ADD MLOAD DUP2 PUSH1 0x1 ADD SWAP1 DUP1 MLOAD SWAP1 PUSH1 0x20 ADD SWAP1 PUSH2 0x601 SWAP3 SWAP2 SWAP1 PUSH2 0x1774 JUMP JUMPDEST POP POP POP PUSH1 0xE0 DUP3 ADD MLOAD DUP2 PUSH1 0x4 ADD PUSH1 0x0 DUP3 ADD MLOAD DUP2 PUSH1 0x0 ADD SSTORE PUSH1 0x20 DUP3 ADD MLOAD DUP2 PUSH1 0x1 ADD SWAP1 DUP1 MLOAD SWAP1 PUSH1 0x20 ADD SWAP1 PUSH2 0x633 SWAP3 SWAP2 SWAP1 PUSH2 0x16EE JUMP JUMPDEST POP POP POP POP POP SWAP1 POP POP POP POP POP POP POP POP POP POP JUMP JUMPDEST PUSH2 0x64D PUSH2 0x165B JUMP JUMPDEST DUP6 DUP2 PUSH1 0x0 ADD DUP2 SWAP1 MSTORE POP DUP5 DUP2 PUSH1 0x20 ADD SWAP1 PUSH20 0xFFFFFFFFFFFFFFFFFFFFFFFFFFFFFFFFFFFFFFFF AND SWAP1 DUP2 PUSH20 0xFFFFFFFFFFFFFFFFFFFFFFFFFFFFFFFFFFFFFFFF AND DUP2 MSTORE POP POP PUSH1 0x0 DUP2 PUSH1 0x40 ADD SWAP1 ISZERO ISZERO SWAP1 DUP2 ISZERO ISZERO DUP2 MSTORE POP POP DUP4 DUP2 PUSH1 0x60 ADD SWAP1 PUSH1 0x3 DUP2 GT ISZERO PUSH2 0x6DD JUMPI PUSH32 0x4E487B7100000000000000000000000000000000000000000000000000000000 PUSH1 0x0 MSTORE PUSH1 0x21 PUSH1 0x4 MSTORE PUSH1 0x24 PUSH1 0x0 REVERT JUMPDEST SWAP1 DUP2 PUSH1 0x3 DUP2 GT ISZERO PUSH2 0x717 JUMPI PUSH32 0x4E487B7100000000000000000000000000000000000000000000000000000000 PUSH1 0x0 MSTORE PUSH1 0x21 PUSH1 0x4 MSTORE PUSH1 0x24 PUSH1 0x0 REVERT JUMPDEST DUP2 MSTORE POP POP DUP3 DUP2 PUSH1 0x80 ADD DUP2 SWAP1 MSTORE POP DUP2 DUP2 PUSH1 0xA0 ADD DUP2 SWAP1 MSTORE POP DUP1 PUSH1 0x0 DUP1 DUP10 DUP2 MSTORE PUSH1 0x20 ADD SWAP1 DUP2 MSTORE PUSH1 0x20 ADD PUSH1 0x0 KECCAK256 PUSH1 0x0 DUP3 ADD MLOAD DUP2 PUSH1 0x0 ADD SWAP1 DUP1 MLOAD SWAP1 PUSH1 0x20 ADD SWAP1 PUSH2 0x75C SWAP3 SWAP2 SWAP1 PUSH2 0x16EE JUMP JUMPDEST POP PUSH1 0x20 DUP3 ADD MLOAD DUP2 PUSH1 0x1 ADD PUSH1 0x0 PUSH2 0x100 EXP DUP2 SLOAD DUP2 PUSH20 0xFFFFFFFFFFFFFFFFFFFFFFFFFFFFFFFFFFFFFFFF MUL NOT AND SWAP1 DUP4 PUSH20 0xFFFFFFFFFFFFFFFFFFFFFFFFFFFFFFFFFFFFFFFF AND MUL OR SWAP1 SSTORE POP PUSH1 0x40 DUP3 ADD MLOAD DUP2 PUSH1 0x1 ADD PUSH1 0x14 PUSH2 0x100 EXP DUP2 SLOAD DUP2 PUSH1 0xFF MUL NOT AND SWAP1 DUP4 ISZERO ISZERO MUL OR SWAP1 SSTORE POP PUSH1 0x60 DUP3 ADD MLOAD DUP2 PUSH1 0x1 ADD PUSH1 0x15 PUSH2 0x100 EXP DUP2 SLOAD DUP2 PUSH1 0xFF MUL NOT AND SWAP1 DUP4 PUSH1 0x3 DUP2 GT ISZERO PUSH2 0x815 JUMPI PUSH32 0x4E487B7100000000000000000000000000000000000000000000000000000000 PUSH1 0x0 MSTORE PUSH1 0x21 PUSH1 0x4 MSTORE PUSH1 0x24 PUSH1 0x0 REVERT JUMPDEST MUL OR SWAP1 SSTORE POP PUSH1 0x80 DUP3 ADD MLOAD DUP2 PUSH1 0x2 ADD SWAP1 DUP1 MLOAD SWAP1 PUSH1 0x20 ADD SWAP1 PUSH2 0x836 SWAP3 SWAP2 SWAP1 PUSH2 0x1774 JUMP JUMPDEST POP PUSH1 0xA0 DUP3 ADD MLOAD DUP2 PUSH1 0x3 ADD SWAP1 DUP1 MLOAD SWAP1 PUSH1 0x20 ADD SWAP1 PUSH2 0x853 SWAP3 SWAP2 SWAP1 PUSH2 0x1774 JUMP JUMPDEST POP PUSH1 0xC0 DUP3 ADD MLOAD DUP2 PUSH1 0x4 ADD PUSH1 0x0 DUP3 ADD MLOAD DUP2 PUSH1 0x0 ADD SSTORE PUSH1 0x20 DUP3 ADD MLOAD DUP2 PUSH1 0x1 ADD PUSH1 0x0 PUSH2 0x100 EXP DUP2 SLOAD DUP2 PUSH1 0xFF MUL NOT AND SWAP1 DUP4 PUSH1 0x3 DUP2 GT ISZERO PUSH2 0x8B8 JUMPI PUSH32 0x4E487B7100000000000000000000000000000000000000000000000000000000 PUSH1 0x0 MSTORE PUSH1 0x21 PUSH1 0x4 MSTORE PUSH1 0x24 PUSH1 0x0 REVERT JUMPDEST MUL OR SWAP1 SSTORE POP PUSH1 0x40 DUP3 ADD MLOAD DUP2 PUSH1 0x1 ADD PUSH1 0x1 PUSH2 0x100 EXP DUP2 SLOAD DUP2 PUSH1 0xFF MUL NOT AND SWAP1 DUP4 PUSH1 0x2 DUP2 GT ISZERO PUSH2 0x90E JUMPI PUSH32 0x4E487B7100000000000000000000000000000000000000000000000000000000 PUSH1 0x0 MSTORE PUSH1 0x21 PUSH1 0x4 MSTORE PUSH1 0x24 PUSH1 0x0 REVERT JUMPDEST MUL OR SWAP1 SSTORE POP PUSH1 0x60 DUP3 ADD MLOAD DUP2 PUSH1 0x1 ADD PUSH1 0x2 PUSH2 0x100 EXP DUP2 SLOAD DUP2 PUSH1 0xFF MUL NOT AND SWAP1 DUP4 ISZERO ISZERO MUL OR SWAP1 SSTORE POP PUSH1 0x80 DUP3 ADD MLOAD DUP2 PUSH1 0x1 ADD PUSH1 0x3 PUSH2 0x100 EXP DUP2 SLOAD DUP2 PUSH1 0xFF MUL NOT AND SWAP1 DUP4 ISZERO ISZERO MUL OR SWAP1 SSTORE POP PUSH1 0xA0 DUP3 ADD MLOAD DUP2 PUSH1 0x1 ADD PUSH1 0x4 PUSH2 0x100 EXP DUP2 SLOAD DUP2 PUSH1 0xFF MUL NOT AND SWAP1 DUP4 PUSH1 0x6 DUP2 GT ISZERO PUSH2 0x9A4 JUMPI PUSH32 0x4E487B7100000000000000000000000000000000000000000000000000000000 PUSH1 0x0 MSTORE PUSH1 0x21 PUSH1 0x4 MSTORE PUSH1 0x24 PUSH1 0x0 REVERT JUMPDEST MUL OR SWAP1 SSTORE POP PUSH1 0xC0 DUP3 ADD MLOAD DUP2 PUSH1 0x2 ADD PUSH1 0x0 DUP3 ADD MLOAD DUP2 PUSH1 0x0 ADD SSTORE PUSH1 0x20 DUP3 ADD MLOAD DUP2 PUSH1 0x1 ADD SWAP1 DUP1 MLOAD SWAP1 PUSH1 0x20 ADD SWAP1 PUSH2 0x9D8 SWAP3 SWAP2 SWAP1 PUSH2 0x1774 JUMP JUMPDEST POP POP POP PUSH1 0xE0 DUP3 ADD MLOAD DUP2 PUSH1 0x4 ADD PUSH1 0x0 DUP3 ADD MLOAD DUP2 PUSH1 0x0 ADD SSTORE PUSH1 0x20 DUP3 ADD MLOAD DUP2 PUSH1 0x1 ADD SWAP1 DUP1 MLOAD SWAP1 PUSH1 0x20 ADD SWAP1 PUSH2 0xA0A SWAP3 SWAP2 SWAP1 PUSH2 0x16EE JUMP JUMPDEST POP POP POP POP POP SWAP1 POP POP POP POP POP POP POP POP POP JUMP JUMPDEST PUSH1 0x0 DUP5 PUSH1 0x0 DUP1 DUP9 DUP2 MSTORE PUSH1 0x20 ADD SWAP1 DUP2 MSTORE PUSH1 0x20 ADD PUSH1 0x0 KECCAK256 PUSH1 0x4 ADD PUSH1 0x1 ADD PUSH1 0x0 PUSH2 0x100 EXP DUP2 SLOAD DUP2 PUSH1 0xFF MUL NOT AND SWAP1 DUP4 PUSH1 0x3 DUP2 GT ISZERO PUSH2 0xA7E JUMPI PUSH32 0x4E487B7100000000000000000000000000000000000000000000000000000000 PUSH1 0x0 MSTORE PUSH1 0x21 PUSH1 0x4 MSTORE PUSH1 0x24 PUSH1 0x0 REVERT JUMPDEST MUL OR SWAP1 SSTORE POP DUP4 PUSH1 0x0 DUP1 DUP9 DUP2 MSTORE PUSH1 0x20 ADD SWAP1 DUP2 MSTORE PUSH1 0x20 ADD PUSH1 0x0 KECCAK256 PUSH1 0x4 ADD PUSH1 0x1 ADD PUSH1 0x1 PUSH2 0x100 EXP DUP2 SLOAD DUP2 PUSH1 0xFF MUL NOT AND SWAP1 DUP4 PUSH1 0x2 DUP2 GT ISZERO PUSH2 0xAE4 JUMPI PUSH32 0x4E487B7100000000000000000000000000000000000000000000000000000000 PUSH1 0x0 MSTORE PUSH1 0x21 PUSH1 0x4 MSTORE PUSH1 0x24 PUSH1 0x0 REVERT JUMPDEST MUL OR SWAP1 SSTORE POP DUP3 PUSH1 0x0 DUP1 DUP9 DUP2 MSTORE PUSH1 0x20 ADD SWAP1 DUP2 MSTORE PUSH1 0x20 ADD PUSH1 0x0 KECCAK256 PUSH1 0x4 ADD PUSH1 0x1 ADD PUSH1 0x4 PUSH2 0x100 EXP DUP2 SLOAD DUP2 PUSH1 0xFF MUL NOT AND SWAP1 DUP4 PUSH1 0x6 DUP2 GT ISZERO PUSH2 0xB4A JUMPI PUSH32 0x4E487B7100000000000000000000000000000000000000000000000000000000 PUSH1 0x0 MSTORE PUSH1 0x21 PUSH1 0x4 MSTORE PUSH1 0x24 PUSH1 0x0 REVERT JUMPDEST MUL OR SWAP1 SSTORE POP DUP2 PUSH1 0x0 DUP1 DUP9 DUP2 MSTORE PUSH1 0x20 ADD SWAP1 DUP2 MSTORE PUSH1 0x20 ADD PUSH1 0x0 KECCAK256 PUSH1 0x4 ADD PUSH1 0x2 ADD PUSH1 0x0 DUP3 ADD MLOAD DUP2 PUSH1 0x0 ADD SSTORE PUSH1 0x20 DUP3 ADD MLOAD DUP2 PUSH1 0x1 ADD SWAP1 DUP1 MLOAD SWAP1 PUSH1 0x20 ADD SWAP1 PUSH2 0xB8E SWAP3 SWAP2 SWAP1 PUSH2 0x1774 JUMP JUMPDEST POP SWAP1 POP POP PUSH1 0x1 PUSH1 0x0 DUP1 DUP9 DUP2 MSTORE PUSH1 0x20 ADD SWAP1 DUP2 MSTORE PUSH1 0x20 ADD PUSH1 0x0 KECCAK256 PUSH1 0x4 ADD PUSH1 0x1 ADD PUSH1 0x3 PUSH2 0x100 EXP DUP2 SLOAD DUP2 PUSH1 0xFF MUL NOT AND SWAP1 DUP4 ISZERO ISZERO MUL OR SWAP1 SSTORE POP PUSH1 0x1 SWAP1 POP SWAP6 SWAP5 POP POP POP POP POP JUMP JUMPDEST PUSH1 0x60 PUSH1 0x4 DUP1 SLOAD DUP1 PUSH1 0x20 MUL PUSH1 0x20 ADD PUSH1 0x40 MLOAD SWAP1 DUP2 ADD PUSH1 0x40 MSTORE DUP1 SWAP3 SWAP2 SWAP1 DUP2 DUP2 MSTORE PUSH1 0x20 ADD PUSH1 0x0 SWAP1 JUMPDEST DUP3 DUP3 LT ISZERO PUSH2 0xCA0 JUMPI DUP4 DUP3 SWAP1 PUSH1 0x0 MSTORE PUSH1 0x20 PUSH1 0x0 KECCAK256 ADD DUP1 SLOAD PUSH2 0xC13 SWAP1 PUSH2 0x2551 JUMP JUMPDEST DUP1 PUSH1 0x1F ADD PUSH1 0x20 DUP1 SWAP2 DIV MUL PUSH1 0x20 ADD PUSH1 0x40 MLOAD SWAP1 DUP2 ADD PUSH1 0x40 MSTORE DUP1 SWAP3 SWAP2 SWAP1 DUP2 DUP2 MSTORE PUSH1 0x20 ADD DUP3 DUP1 SLOAD PUSH2 0xC3F SWAP1 PUSH2 0x2551 JUMP JUMPDEST DUP1 ISZERO PUSH2 0xC8C JUMPI DUP1 PUSH1 0x1F LT PUSH2 0xC61 JUMPI PUSH2 0x100 DUP1 DUP4 SLOAD DIV MUL DUP4 MSTORE SWAP2 PUSH1 0x20 ADD SWAP2 PUSH2 0xC8C JUMP JUMPDEST DUP3 ADD SWAP2 SWAP1 PUSH1 0x0 MSTORE PUSH1 0x20 PUSH1 0x0 KECCAK256 SWAP1 JUMPDEST DUP2 SLOAD DUP2 MSTORE SWAP1 PUSH1 0x1 ADD SWAP1 PUSH1 0x20 ADD DUP1 DUP4 GT PUSH2 0xC6F JUMPI DUP3 SWAP1 SUB PUSH1 0x1F AND DUP3 ADD SWAP2 JUMPDEST POP POP POP POP POP DUP2 MSTORE PUSH1 0x20 ADD SWAP1 PUSH1 0x1 ADD SWAP1 PUSH2 0xBF4 JUMP JUMPDEST POP POP POP POP SWAP1 POP SWAP1 JUMP JUMPDEST PUSH1 0x4 DUP2 DUP2 SLOAD DUP2 LT PUSH2 0xCB9 JUMPI PUSH1 0x0 DUP1 REVERT JUMPDEST SWAP1 PUSH1 0x0 MSTORE PUSH1 0x20 PUSH1 0x0 KECCAK256 ADD PUSH1 0x0 SWAP2 POP SWAP1 POP DUP1 SLOAD PUSH2 0xCD4 SWAP1 PUSH2 0x2551 JUMP JUMPDEST DUP1 PUSH1 0x1F ADD PUSH1 0x20 DUP1 SWAP2 DIV MUL PUSH1 0x20 ADD PUSH1 0x40 MLOAD SWAP1 DUP2 ADD PUSH1 0x40 MSTORE DUP1 SWAP3 SWAP2 SWAP1 DUP2 DUP2 MSTORE PUSH1 0x20 ADD DUP3 DUP1 SLOAD PUSH2 0xD00 SWAP1 PUSH2 0x2551 JUMP JUMPDEST DUP1 ISZERO PUSH2 0xD4D JUMPI DUP1 PUSH1 0x1F LT PUSH2 0xD22 JUMPI PUSH2 0x100 DUP1 DUP4 SLOAD DIV MUL DUP4 MSTORE SWAP2 PUSH1 0x20 ADD SWAP2 PUSH2 0xD4D JUMP JUMPDEST DUP3 ADD SWAP2 SWAP1 PUSH1 0x0 MSTORE PUSH1 0x20 PUSH1 0x0 KECCAK256 SWAP1 JUMPDEST DUP2 SLOAD DUP2 MSTORE SWAP1 PUSH1 0x1 ADD SWAP1 PUSH1 0x20 ADD DUP1 DUP4 GT PUSH2 0xD30 JUMPI DUP3 SWAP1 SUB PUSH1 0x1F AND DUP3 ADD SWAP2 JUMPDEST POP POP POP POP POP DUP2 JUMP JUMPDEST PUSH1 0x0 DUP1 PUSH20 0x27B1618CB7956BBF41BC640A506F4563AE74F613 PUSH4 0xC237647F PUSH1 0x40 MLOAD DUP2 PUSH4 0xFFFFFFFF AND PUSH1 0xE0 SHL DUP2 MSTORE PUSH1 0x4 ADD PUSH1 0x20 PUSH1 0x40 MLOAD DUP1 DUP4 SUB DUP2 DUP7 DUP1 EXTCODESIZE ISZERO DUP1 ISZERO PUSH2 0xD9C JUMPI PUSH1 0x0 DUP1 REVERT JUMPDEST POP GAS DELEGATECALL ISZERO DUP1 ISZERO PUSH2 0xDB0 JUMPI RETURNDATASIZE PUSH1 0x0 DUP1 RETURNDATACOPY RETURNDATASIZE PUSH1 0x0 REVERT JUMPDEST POP POP POP POP PUSH1 0x40 MLOAD RETURNDATASIZE PUSH1 0x1F NOT PUSH1 0x1F DUP3 ADD AND DUP3 ADD DUP1 PUSH1 0x40 MSTORE POP DUP2 ADD SWAP1 PUSH2 0xDD4 SWAP2 SWAP1 PUSH2 0x1D14 JUMP JUMPDEST SWAP1 POP PUSH1 0x5 DUP2 PUSH2 0xDE3 SWAP2 SWAP1 PUSH2 0x244C JUMP JUMPDEST SWAP2 POP POP SWAP1 JUMP JUMPDEST PUSH1 0x60 PUSH1 0x3 DUP1 SLOAD DUP1 PUSH1 0x20 MUL PUSH1 0x20 ADD PUSH1 0x40 MLOAD SWAP1 DUP2 ADD PUSH1 0x40 MSTORE DUP1 SWAP3 SWAP2 SWAP1 DUP2 DUP2 MSTORE PUSH1 0x20 ADD DUP3 DUP1 SLOAD DUP1 ISZERO PUSH2 0xE37 JUMPI PUSH1 0x20 MUL DUP3 ADD SWAP2 SWAP1 PUSH1 0x0 MSTORE PUSH1 0x20 PUSH1 0x0 KECCAK256 SWAP1 JUMPDEST DUP2 SLOAD DUP2 MSTORE PUSH1 0x20 ADD SWAP1 PUSH1 0x1 ADD SWAP1 DUP1 DUP4 GT PUSH2 0xE23 JUMPI JUMPDEST POP POP POP POP POP SWAP1 POP SWAP1 JUMP JUMPDEST PUSH1 0x3 DUP2 DUP2 SLOAD DUP2 LT PUSH2 0xE51 JUMPI PUSH1 0x0 DUP1 REVERT JUMPDEST SWAP1 PUSH1 0x0 MSTORE PUSH1 0x20 PUSH1 0x0 KECCAK256 ADD PUSH1 0x0 SWAP2 POP SWAP1 POP SLOAD DUP2 JUMP JUMPDEST PUSH1 0x0 PUSH1 0x60 PUSH1 0x0 DUP1 PUSH1 0x60 DUP1 PUSH1 0x0 DUP1 DUP9 DUP2 MSTORE PUSH1 0x20 ADD SWAP1 DUP2 MSTORE PUSH1 0x20 ADD PUSH1 0x0 KECCAK256 PUSH1 0x1 ADD PUSH1 0x14 SWAP1 SLOAD SWAP1 PUSH2 0x100 EXP SWAP1 DIV PUSH1 0xFF AND PUSH1 0x0 DUP1 DUP10 DUP2 MSTORE PUSH1 0x20 ADD SWAP1 DUP2 MSTORE PUSH1 0x20 ADD PUSH1 0x0 KECCAK256 PUSH1 0x0 ADD PUSH1 0x0 DUP1 DUP11 DUP2 MSTORE PUSH1 0x20 ADD SWAP1 DUP2 MSTORE PUSH1 0x20 ADD PUSH1 0x0 KECCAK256 PUSH1 0x1 ADD PUSH1 0x0 SWAP1 SLOAD SWAP1 PUSH2 0x100 EXP SWAP1 DIV PUSH20 0xFFFFFFFFFFFFFFFFFFFFFFFFFFFFFFFFFFFFFFFF AND PUSH1 0x0 DUP1 DUP12 DUP2 MSTORE PUSH1 0x20 ADD SWAP1 DUP2 MSTORE PUSH1 0x20 ADD PUSH1 0x0 KECCAK256 PUSH1 0x1 ADD PUSH1 0x15 SWAP1 SLOAD SWAP1 PUSH2 0x100 EXP SWAP1 DIV PUSH1 0xFF AND PUSH1 0x0 DUP1 DUP13 DUP2 MSTORE PUSH1 0x20 ADD SWAP1 DUP2 MSTORE PUSH1 0x20 ADD PUSH1 0x0 KECCAK256 PUSH1 0x2 ADD PUSH1 0x0 DUP1 DUP14 DUP2 MSTORE PUSH1 0x20 ADD SWAP1 DUP2 MSTORE PUSH1 0x20 ADD PUSH1 0x0 KECCAK256 PUSH1 0x3 ADD DUP5 DUP1 SLOAD PUSH2 0xF36 SWAP1 PUSH2 0x2551 JUMP JUMPDEST DUP1 PUSH1 0x1F ADD PUSH1 0x20 DUP1 SWAP2 DIV MUL PUSH1 0x20 ADD PUSH1 0x40 MLOAD SWAP1 DUP2 ADD PUSH1 0x40 MSTORE DUP1 SWAP3 SWAP2 SWAP1 DUP2 DUP2 MSTORE PUSH1 0x20 ADD DUP3 DUP1 SLOAD PUSH2 0xF62 SWAP1 PUSH2 0x2551 JUMP JUMPDEST DUP1 ISZERO PUSH2 0xFAF JUMPI DUP1 PUSH1 0x1F LT PUSH2 0xF84 JUMPI PUSH2 0x100 DUP1 DUP4 SLOAD DIV MUL DUP4 MSTORE SWAP2 PUSH1 0x20 ADD SWAP2 PUSH2 0xFAF JUMP JUMPDEST DUP3 ADD SWAP2 SWAP1 PUSH1 0x0 MSTORE PUSH1 0x20 PUSH1 0x0 KECCAK256 SWAP1 JUMPDEST DUP2 SLOAD DUP2 MSTORE SWAP1 PUSH1 0x1 ADD SWAP1 PUSH1 0x20 ADD DUP1 DUP4 GT PUSH2 0xF92 JUMPI DUP3 SWAP1 SUB PUSH1 0x1F AND DUP3 ADD SWAP2 JUMPDEST POP POP POP POP POP SWAP5 POP DUP2 DUP1 SLOAD DUP1 PUSH1 0x20 MUL PUSH1 0x20 ADD PUSH1 0x40 MLOAD SWAP1 DUP2 ADD PUSH1 0x40 MSTORE DUP1 SWAP3 SWAP2 SWAP1 DUP2 DUP2 MSTORE PUSH1 0x20 ADD DUP3 DUP1 SLOAD DUP1 ISZERO PUSH2 0x1001 JUMPI PUSH1 0x20 MUL DUP3 ADD SWAP2 SWAP1 PUSH1 0x0 MSTORE PUSH1 0x20 PUSH1 0x0 KECCAK256 SWAP1 JUMPDEST DUP2 SLOAD DUP2 MSTORE PUSH1 0x20 ADD SWAP1 PUSH1 0x1 ADD SWAP1 DUP1 DUP4 GT PUSH2 0xFED JUMPI JUMPDEST POP POP POP POP POP SWAP2 POP DUP1 DUP1 SLOAD DUP1 PUSH1 0x20 MUL PUSH1 0x20 ADD PUSH1 0x40 MLOAD SWAP1 DUP2 ADD PUSH1 0x40 MSTORE DUP1 SWAP3 SWAP2 SWAP1 DUP2 DUP2 MSTORE PUSH1 0x20 ADD DUP3 DUP1 SLOAD DUP1 ISZERO PUSH2 0x1053 JUMPI PUSH1 0x20 MUL DUP3 ADD SWAP2 SWAP1 PUSH1 0x0 MSTORE PUSH1 0x20 PUSH1 0x0 KECCAK256 SWAP1 JUMPDEST DUP2 SLOAD DUP2 MSTORE PUSH1 0x20 ADD SWAP1 PUSH1 0x1 ADD SWAP1 DUP1 DUP4 GT PUSH2 0x103F JUMPI JUMPDEST POP POP POP POP POP SWAP1 POP SWAP6 POP SWAP6 POP SWAP6 POP SWAP6 POP SWAP6 POP SWAP6 POP SWAP2 SWAP4 SWAP6 POP SWAP2 SWAP4 SWAP6 JUMP JUMPDEST PUSH1 0x0 DUP1 PUSH1 0x0 DUP4 DUP2 MSTORE PUSH1 0x20 ADD SWAP1 DUP2 MSTORE PUSH1 0x20 ADD PUSH1 0x0 KECCAK256 PUSH1 0x1 ADD PUSH1 0x14 SWAP1 SLOAD SWAP1 PUSH2 0x100 EXP SWAP1 DIV PUSH1 0xFF AND SWAP1 POP SWAP2 SWAP1 POP JUMP JUMPDEST PUSH1 0x0 DUP1 PUSH1 0x0 DUP1 DUP5 DUP2 MSTORE PUSH1 0x20 ADD SWAP1 DUP2 MSTORE PUSH1 0x20 ADD PUSH1 0x0 KECCAK256 PUSH1 0x1 ADD PUSH1 0x0 SWAP1 SLOAD SWAP1 PUSH2 0x100 EXP SWAP1 DIV PUSH20 0xFFFFFFFFFFFFFFFFFFFFFFFFFFFFFFFFFFFFFFFF AND SWAP1 POP PUSH1 0x0 PUSH20 0xFFFFFFFFFFFFFFFFFFFFFFFFFFFFFFFFFFFFFFFF AND DUP2 PUSH20 0xFFFFFFFFFFFFFFFFFFFFFFFFFFFFFFFFFFFFFFFF AND EQ DUP1 PUSH2 0x113C JUMPI POP CALLER PUSH20 0xFFFFFFFFFFFFFFFFFFFFFFFFFFFFFFFFFFFFFFFF AND DUP2 PUSH20 0xFFFFFFFFFFFFFFFFFFFFFFFFFFFFFFFFFFFFFFFF AND EQ JUMPDEST PUSH1 0x0 DUP1 DUP6 DUP2 MSTORE PUSH1 0x20 ADD SWAP1 DUP2 MSTORE PUSH1 0x20 ADD PUSH1 0x0 KECCAK256 PUSH1 0x0 ADD SWAP1 PUSH2 0x1192 JUMPI PUSH1 0x40 MLOAD PUSH32 0x8C379A000000000000000000000000000000000000000000000000000000000 DUP2 MSTORE PUSH1 0x4 ADD PUSH2 0x1189 SWAP2 SWAP1 PUSH2 0x22CE JUMP JUMPDEST PUSH1 0x40 MLOAD DUP1 SWAP2 SUB SWAP1 REVERT JUMPDEST POP PUSH1 0x0 DUP1 PUSH1 0x0 DUP6 DUP2 MSTORE PUSH1 0x20 ADD SWAP1 DUP2 MSTORE PUSH1 0x20 ADD PUSH1 0x0 KECCAK256 PUSH1 0x2 ADD DUP1 SLOAD DUP1 PUSH1 0x20 MUL PUSH1 0x20 ADD PUSH1 0x40 MLOAD SWAP1 DUP2 ADD PUSH1 0x40 MSTORE DUP1 SWAP3 SWAP2 SWAP1 DUP2 DUP2 MSTORE PUSH1 0x20 ADD DUP3 DUP1 SLOAD DUP1 ISZERO PUSH2 0x11F4 JUMPI PUSH1 0x20 MUL DUP3 ADD SWAP2 SWAP1 PUSH1 0x0 MSTORE PUSH1 0x20 PUSH1 0x0 KECCAK256 SWAP1 JUMPDEST DUP2 SLOAD DUP2 MSTORE PUSH1 0x20 ADD SWAP1 PUSH1 0x1 ADD SWAP1 DUP1 DUP4 GT PUSH2 0x11E0 JUMPI JUMPDEST POP POP POP POP POP SWAP1 POP PUSH1 0x0 DUP2 MLOAD EQ ISZERO PUSH2 0x120E JUMPI PUSH1 0x1 SWAP3 POP PUSH2 0x153D JUMP JUMPDEST PUSH1 0x0 DUP1 PUSH1 0x0 DUP7 DUP2 MSTORE PUSH1 0x20 ADD SWAP1 DUP2 MSTORE PUSH1 0x20 ADD PUSH1 0x0 KECCAK256 PUSH1 0x1 ADD PUSH1 0x15 SWAP1 SLOAD SWAP1 PUSH2 0x100 EXP SWAP1 DIV PUSH1 0xFF AND SWAP1 POP PUSH1 0x0 PUSH1 0x3 DUP2 GT ISZERO PUSH2 0x126F JUMPI PUSH32 0x4E487B7100000000000000000000000000000000000000000000000000000000 PUSH1 0x0 MSTORE PUSH1 0x21 PUSH1 0x4 MSTORE PUSH1 0x24 PUSH1 0x0 REVERT JUMPDEST DUP2 PUSH1 0x3 DUP2 GT ISZERO PUSH2 0x12A8 JUMPI PUSH32 0x4E487B7100000000000000000000000000000000000000000000000000000000 PUSH1 0x0 MSTORE PUSH1 0x21 PUSH1 0x4 MSTORE PUSH1 0x24 PUSH1 0x0 REVERT JUMPDEST EQ ISZERO PUSH2 0x130E JUMPI PUSH1 0x1 ISZERO ISZERO PUSH2 0x12FC DUP4 PUSH1 0x0 DUP2 MLOAD DUP2 LT PUSH2 0x12EF JUMPI PUSH32 0x4E487B7100000000000000000000000000000000000000000000000000000000 PUSH1 0x0 MSTORE PUSH1 0x32 PUSH1 0x4 MSTORE PUSH1 0x24 PUSH1 0x0 REVERT JUMPDEST PUSH1 0x20 MUL PUSH1 0x20 ADD ADD MLOAD PUSH2 0x106F JUMP JUMPDEST ISZERO ISZERO EQ ISZERO PUSH2 0x1309 JUMPI PUSH1 0x1 SWAP4 POP JUMPDEST PUSH2 0x153B JUMP JUMPDEST PUSH1 0x0 DUP1 PUSH1 0x0 SWAP1 POP JUMPDEST DUP4 MLOAD DUP2 LT ISZERO PUSH2 0x1396 JUMPI PUSH1 0x1 ISZERO ISZERO PUSH2 0x136C DUP6 DUP4 DUP2 MLOAD DUP2 LT PUSH2 0x135F JUMPI PUSH32 0x4E487B7100000000000000000000000000000000000000000000000000000000 PUSH1 0x0 MSTORE PUSH1 0x32 PUSH1 0x4 MSTORE PUSH1 0x24 PUSH1 0x0 REVERT JUMPDEST PUSH1 0x20 MUL PUSH1 0x20 ADD ADD MLOAD PUSH2 0x106F JUMP JUMPDEST ISZERO ISZERO EQ ISZERO PUSH2 0x1383 JUMPI DUP2 DUP1 PUSH2 0x137F SWAP1 PUSH2 0x2583 JUMP JUMPDEST SWAP3 POP POP JUMPDEST DUP1 DUP1 PUSH2 0x138E SWAP1 PUSH2 0x2583 JUMP JUMPDEST SWAP2 POP POP PUSH2 0x1316 JUMP JUMPDEST POP PUSH1 0x1 PUSH1 0x3 DUP2 GT ISZERO PUSH2 0x13D1 JUMPI PUSH32 0x4E487B7100000000000000000000000000000000000000000000000000000000 PUSH1 0x0 MSTORE PUSH1 0x21 PUSH1 0x4 MSTORE PUSH1 0x24 PUSH1 0x0 REVERT JUMPDEST DUP3 PUSH1 0x3 DUP2 GT ISZERO PUSH2 0x140A JUMPI PUSH32 0x4E487B7100000000000000000000000000000000000000000000000000000000 PUSH1 0x0 MSTORE PUSH1 0x21 PUSH1 0x4 MSTORE PUSH1 0x24 PUSH1 0x0 REVERT JUMPDEST EQ ISZERO PUSH2 0x1423 JUMPI DUP3 MLOAD DUP2 EQ ISZERO PUSH2 0x141E JUMPI PUSH1 0x1 SWAP5 POP JUMPDEST PUSH2 0x1539 JUMP JUMPDEST PUSH1 0x2 PUSH1 0x3 DUP2 GT ISZERO PUSH2 0x145D JUMPI PUSH32 0x4E487B7100000000000000000000000000000000000000000000000000000000 PUSH1 0x0 MSTORE PUSH1 0x21 PUSH1 0x4 MSTORE PUSH1 0x24 PUSH1 0x0 REVERT JUMPDEST DUP3 PUSH1 0x3 DUP2 GT ISZERO PUSH2 0x1496 JUMPI PUSH32 0x4E487B7100000000000000000000000000000000000000000000000000000000 PUSH1 0x0 MSTORE PUSH1 0x21 PUSH1 0x4 MSTORE PUSH1 0x24 PUSH1 0x0 REVERT JUMPDEST EQ ISZERO PUSH2 0x14A5 JUMPI PUSH1 0x1 SWAP5 POP PUSH2 0x1538 JUMP JUMPDEST PUSH1 0x3 DUP1 DUP2 GT ISZERO PUSH2 0x14DE JUMPI PUSH32 0x4E487B7100000000000000000000000000000000000000000000000000000000 PUSH1 0x0 MSTORE PUSH1 0x21 PUSH1 0x4 MSTORE PUSH1 0x24 PUSH1 0x0 REVERT JUMPDEST DUP3 PUSH1 0x3 DUP2 GT ISZERO PUSH2 0x1517 JUMPI PUSH32 0x4E487B7100000000000000000000000000000000000000000000000000000000 PUSH1 0x0 MSTORE PUSH1 0x21 PUSH1 0x4 MSTORE PUSH1 0x24 PUSH1 0x0 REVERT JUMPDEST EQ ISZERO PUSH2 0x1537 JUMPI PUSH1 0x1 DUP2 EQ DUP1 PUSH2 0x152C JUMPI POP PUSH1 0x2 DUP2 EQ JUMPDEST ISZERO PUSH2 0x1536 JUMPI PUSH1 0x1 SWAP5 POP JUMPDEST JUMPDEST JUMPDEST JUMPDEST POP JUMPDEST POP JUMPDEST DUP3 ISZERO PUSH2 0x1623 JUMPI PUSH1 0x1 PUSH1 0x0 DUP1 DUP7 DUP2 MSTORE PUSH1 0x20 ADD SWAP1 DUP2 MSTORE PUSH1 0x20 ADD PUSH1 0x0 KECCAK256 PUSH1 0x1 ADD PUSH1 0x14 PUSH2 0x100 EXP DUP2 SLOAD DUP2 PUSH1 0xFF MUL NOT AND SWAP1 DUP4 ISZERO ISZERO MUL OR SWAP1 SSTORE POP PUSH1 0x3 DUP5 SWAP1 DUP1 PUSH1 0x1 DUP2 SLOAD ADD DUP1 DUP3 SSTORE DUP1 SWAP2 POP POP PUSH1 0x1 SWAP1 SUB SWAP1 PUSH1 0x0 MSTORE PUSH1 0x20 PUSH1 0x0 KECCAK256 ADD PUSH1 0x0 SWAP1 SWAP2 SWAP1 SWAP2 SWAP1 SWAP2 POP SSTORE PUSH1 0x4 PUSH1 0x0 DUP1 DUP7 DUP2 MSTORE PUSH1 0x20 ADD SWAP1 DUP2 MSTORE PUSH1 0x20 ADD PUSH1 0x0 KECCAK256 PUSH1 0x0 ADD SWAP1 DUP1 PUSH1 0x1 DUP2 SLOAD ADD DUP1 DUP3 SSTORE DUP1 SWAP2 POP POP PUSH1 0x1 SWAP1 SUB SWAP1 PUSH1 0x0 MSTORE PUSH1 0x20 PUSH1 0x0 KECCAK256 ADD PUSH1 0x0 SWAP1 SWAP2 SWAP1 SWAP2 SWAP1 SWAP2 POP SWAP1 DUP1 SLOAD PUSH2 0x15E2 SWAP1 PUSH2 0x2551 JUMP JUMPDEST PUSH2 0x15ED SWAP3 SWAP2 SWAP1 PUSH2 0x17C1 JUMP JUMPDEST POP PUSH1 0x1 ISZERO ISZERO PUSH32 0xACD30B4F9FD5868793E13FFB506F03374A23D9FEBA1249AC2CC7B0FE024FF4BA PUSH1 0x40 MLOAD PUSH1 0x40 MLOAD DUP1 SWAP2 SUB SWAP1 LOG2 PUSH2 0x1654 JUMP JUMPDEST PUSH1 0x0 ISZERO ISZERO PUSH32 0xACD30B4F9FD5868793E13FFB506F03374A23D9FEBA1249AC2CC7B0FE024FF4BA PUSH1 0x40 MLOAD PUSH1 0x40 MLOAD DUP1 SWAP2 SUB SWAP1 LOG2 JUMPDEST POP POP SWAP2 SWAP1 POP JUMP JUMPDEST PUSH1 0x40 MLOAD DUP1 PUSH1 0xE0 ADD PUSH1 0x40 MSTORE DUP1 PUSH1 0x60 DUP2 MSTORE PUSH1 0x20 ADD PUSH1 0x0 PUSH20 0xFFFFFFFFFFFFFFFFFFFFFFFFFFFFFFFFFFFFFFFF AND DUP2 MSTORE PUSH1 0x20 ADD PUSH1 0x0 ISZERO ISZERO DUP2 MSTORE PUSH1 0x20 ADD PUSH1 0x0 PUSH1 0x3 DUP2 GT ISZERO PUSH2 0x16CD JUMPI PUSH32 0x4E487B7100000000000000000000000000000000000000000000000000000000 PUSH1 0x0 MSTORE PUSH1 0x21 PUSH1 0x4 MSTORE PUSH1 0x24 PUSH1 0x0 REVERT JUMPDEST DUP2 MSTORE PUSH1 0x20 ADD PUSH1 0x60 DUP2 MSTORE PUSH1 0x20 ADD PUSH1 0x60 DUP2 MSTORE PUSH1 0x20 ADD PUSH2 0x16E8 PUSH2 0x184E JUMP JUMPDEST DUP2 MSTORE POP SWAP1 JUMP JUMPDEST DUP3 DUP1 SLOAD PUSH2 0x16FA SWAP1 PUSH2 0x2551 JUMP JUMPDEST SWAP1 PUSH1 0x0 MSTORE PUSH1 0x20 PUSH1 0x0 KECCAK256 SWAP1 PUSH1 0x1F ADD PUSH1 0x20 SWAP1 DIV DUP2 ADD SWAP3 DUP3 PUSH2 0x171C JUMPI PUSH1 0x0 DUP6 SSTORE PUSH2 0x1763 JUMP JUMPDEST DUP3 PUSH1 0x1F LT PUSH2 0x1735 JUMPI DUP1 MLOAD PUSH1 0xFF NOT AND DUP4 DUP1 ADD OR DUP6 SSTORE PUSH2 0x1763 JUMP JUMPDEST DUP3 DUP1 ADD PUSH1 0x1 ADD DUP6 SSTORE DUP3 ISZERO PUSH2 0x1763 JUMPI SWAP2 DUP3 ADD JUMPDEST DUP3 DUP2 GT ISZERO PUSH2 0x1762 JUMPI DUP3 MLOAD DUP3 SSTORE SWAP2 PUSH1 0x20 ADD SWAP2 SWAP1 PUSH1 0x1 ADD SWAP1 PUSH2 0x1747 JUMP JUMPDEST JUMPDEST POP SWAP1 POP PUSH2 0x1770 SWAP2 SWAP1 PUSH2 0x194B JUMP JUMPDEST POP SWAP1 JUMP JUMPDEST DUP3 DUP1 SLOAD DUP3 DUP3 SSTORE SWAP1 PUSH1 0x0 MSTORE PUSH1 0x20 PUSH1 0x0 KECCAK256 SWAP1 DUP2 ADD SWAP3 DUP3 ISZERO PUSH2 0x17B0 JUMPI SWAP2 PUSH1 0x20 MUL DUP3 ADD JUMPDEST DUP3 DUP2 GT ISZERO PUSH2 0x17AF JUMPI DUP3 MLOAD DUP3 SSTORE SWAP2 PUSH1 0x20 ADD SWAP2 SWAP1 PUSH1 0x1 ADD SWAP1 PUSH2 0x1794 JUMP JUMPDEST JUMPDEST POP SWAP1 POP PUSH2 0x17BD SWAP2 SWAP1 PUSH2 0x194B JUMP JUMPDEST POP SWAP1 JUMP JUMPDEST DUP3 DUP1 SLOAD PUSH2 0x17CD SWAP1 PUSH2 0x2551 JUMP JUMPDEST SWAP1 PUSH1 0x0 MSTORE PUSH1 0x20 PUSH1 0x0 KECCAK256 SWAP1 PUSH1 0x1F ADD PUSH1 0x20 SWAP1 DIV DUP2 ADD SWAP3 DUP3 PUSH2 0x17EF JUMPI PUSH1 0x0 DUP6 SSTORE PUSH2 0x183D JUMP JUMPDEST DUP3 PUSH1 0x1F LT PUSH2 0x1800 JUMPI DUP1 SLOAD DUP6 SSTORE PUSH2 0x183D JUMP JUMPDEST DUP3 DUP1 ADD PUSH1 0x1 ADD DUP6 SSTORE DUP3 ISZERO PUSH2 0x183D JUMPI PUSH1 0x0 MSTORE PUSH1 0x20 PUSH1 0x0 KECCAK256 SWAP2 PUSH1 0x1F ADD PUSH1 0x20 SWAP1 DIV DUP3 ADD JUMPDEST DUP3 DUP2 GT ISZERO PUSH2 0x183C JUMPI DUP3 SLOAD DUP3 SSTORE SWAP2 PUSH1 0x1 ADD SWAP2 SWAP1 PUSH1 0x1 ADD SWAP1 PUSH2 0x1821 JUMP JUMPDEST JUMPDEST POP SWAP1 POP PUSH2 0x184A SWAP2 SWAP1 PUSH2 0x194B JUMP JUMPDEST POP SWAP1 JUMP JUMPDEST PUSH1 0x40 MLOAD DUP1 PUSH2 0x100 ADD PUSH1 0x40 MSTORE DUP1 PUSH1 0x0 DUP2 MSTORE PUSH1 0x20 ADD PUSH1 0x0 PUSH1 0x3 DUP2 GT ISZERO PUSH2 0x189B JUMPI PUSH32 0x4E487B7100000000000000000000000000000000000000000000000000000000 PUSH1 0x0 MSTORE PUSH1 0x21 PUSH1 0x4 MSTORE PUSH1 0x24 PUSH1 0x0 REVERT JUMPDEST DUP2 MSTORE PUSH1 0x20 ADD PUSH1 0x0 PUSH1 0x2 DUP2 GT ISZERO PUSH2 0x18DA JUMPI PUSH32 0x4E487B7100000000000000000000000000000000000000000000000000000000 PUSH1 0x0 MSTORE PUSH1 0x21 PUSH1 0x4 MSTORE PUSH1 0x24 PUSH1 0x0 REVERT JUMPDEST DUP2 MSTORE PUSH1 0x20 ADD PUSH1 0x0 ISZERO ISZERO DUP2 MSTORE PUSH1 0x20 ADD PUSH1 0x0 ISZERO ISZERO DUP2 MSTORE PUSH1 0x20 ADD PUSH1 0x0 PUSH1 0x6 DUP2 GT ISZERO PUSH2 0x192B JUMPI PUSH32 0x4E487B7100000000000000000000000000000000000000000000000000000000 PUSH1 0x0 MSTORE PUSH1 0x21 PUSH1 0x4 MSTORE PUSH1 0x24 PUSH1 0x0 REVERT JUMPDEST DUP2 MSTORE PUSH1 0x20 ADD PUSH2 0x1938 PUSH2 0x1968 JUMP JUMPDEST DUP2 MSTORE PUSH1 0x20 ADD PUSH2 0x1945 PUSH2 0x1982 JUMP JUMPDEST DUP2 MSTORE POP SWAP1 JUMP JUMPDEST JUMPDEST DUP1 DUP3 GT ISZERO PUSH2 0x1964 JUMPI PUSH1 0x0 DUP2 PUSH1 0x0 SWAP1 SSTORE POP PUSH1 0x1 ADD PUSH2 0x194C JUMP JUMPDEST POP SWAP1 JUMP JUMPDEST PUSH1 0x40 MLOAD DUP1 PUSH1 0x40 ADD PUSH1 0x40 MSTORE DUP1 PUSH1 0x0 DUP2 MSTORE PUSH1 0x20 ADD PUSH1 0x60 DUP2 MSTORE POP SWAP1 JUMP JUMPDEST PUSH1 0x40 MLOAD DUP1 PUSH1 0x40 ADD PUSH1 0x40 MSTORE DUP1 PUSH1 0x0 DUP2 MSTORE PUSH1 0x20 ADD PUSH1 0x60 DUP2 MSTORE POP SWAP1 JUMP JUMPDEST PUSH1 0x0 PUSH2 0x19AF PUSH2 0x19AA DUP5 PUSH2 0x233C JUMP JUMPDEST PUSH2 0x230B JUMP JUMPDEST SWAP1 POP DUP1 DUP4 DUP3 MSTORE PUSH1 0x20 DUP3 ADD SWAP1 POP DUP3 DUP6 PUSH1 0x20 DUP7 MUL DUP3 ADD GT ISZERO PUSH2 0x19CE JUMPI PUSH1 0x0 DUP1 REVERT JUMPDEST PUSH1 0x0 JUMPDEST DUP6 DUP2 LT ISZERO PUSH2 0x19FE JUMPI DUP2 PUSH2 0x19E4 DUP9 DUP3 PUSH2 0x1CC1 JUMP JUMPDEST DUP5 MSTORE PUSH1 0x20 DUP5 ADD SWAP4 POP PUSH1 0x20 DUP4 ADD SWAP3 POP POP PUSH1 0x1 DUP2 ADD SWAP1 POP PUSH2 0x19D1 JUMP JUMPDEST POP POP POP SWAP4 SWAP3 POP POP POP JUMP JUMPDEST PUSH1 0x0 PUSH2 0x1A1B PUSH2 0x1A16 DUP5 PUSH2 0x2368 JUMP JUMPDEST PUSH2 0x230B JUMP JUMPDEST SWAP1 POP DUP3 DUP2 MSTORE PUSH1 0x20 DUP2 ADD DUP5 DUP5 DUP5 ADD GT ISZERO PUSH2 0x1A33 JUMPI PUSH1 0x0 DUP1 REVERT JUMPDEST PUSH2 0x1A3E DUP5 DUP3 DUP6 PUSH2 0x250F JUMP JUMPDEST POP SWAP4 SWAP3 POP POP POP JUMP JUMPDEST PUSH1 0x0 DUP2 CALLDATALOAD SWAP1 POP PUSH2 0x1A55 DUP2 PUSH2 0x26AD JUMP JUMPDEST SWAP3 SWAP2 POP POP JUMP JUMPDEST PUSH1 0x0 DUP3 PUSH1 0x1F DUP4 ADD SLT PUSH2 0x1A6C JUMPI PUSH1 0x0 DUP1 REVERT JUMPDEST DUP2 CALLDATALOAD PUSH2 0x1A7C DUP5 DUP3 PUSH1 0x20 DUP7 ADD PUSH2 0x199C JUMP JUMPDEST SWAP2 POP POP SWAP3 SWAP2 POP POP JUMP JUMPDEST PUSH1 0x0 DUP2 CALLDATALOAD SWAP1 POP PUSH2 0x1A94 DUP2 PUSH2 0x26C4 JUMP JUMPDEST SWAP3 SWAP2 POP POP JUMP JUMPDEST PUSH1 0x0 DUP2 CALLDATALOAD SWAP1 POP PUSH2 0x1AA9 DUP2 PUSH2 0x26DB JUMP JUMPDEST SWAP3 SWAP2 POP POP JUMP JUMPDEST PUSH1 0x0 DUP2 CALLDATALOAD SWAP1 POP PUSH2 0x1ABE DUP2 PUSH2 0x26EB JUMP JUMPDEST SWAP3 SWAP2 POP POP JUMP JUMPDEST PUSH1 0x0 DUP2 CALLDATALOAD SWAP1 POP PUSH2 0x1AD3 DUP2 PUSH2 0x26FB JUMP JUMPDEST SWAP3 SWAP2 POP POP JUMP JUMPDEST PUSH1 0x0 DUP3 PUSH1 0x1F DUP4 ADD SLT PUSH2 0x1AEA JUMPI PUSH1 0x0 DUP1 REVERT JUMPDEST DUP2 CALLDATALOAD PUSH2 0x1AFA DUP5 DUP3 PUSH1 0x20 DUP7 ADD PUSH2 0x1A08 JUMP JUMPDEST SWAP2 POP POP SWAP3 SWAP2 POP POP JUMP JUMPDEST PUSH1 0x0 PUSH2 0x100 DUP3 DUP5 SUB SLT ISZERO PUSH2 0x1B16 JUMPI PUSH1 0x0 DUP1 REVERT JUMPDEST PUSH2 0x1B21 PUSH2 0x100 PUSH2 0x230B JUMP JUMPDEST SWAP1 POP PUSH1 0x0 PUSH2 0x1B31 DUP5 DUP3 DUP6 ADD PUSH2 0x1CC1 JUMP JUMPDEST PUSH1 0x0 DUP4 ADD MSTORE POP PUSH1 0x20 PUSH2 0x1B45 DUP5 DUP3 DUP6 ADD PUSH2 0x1AAF JUMP JUMPDEST PUSH1 0x20 DUP4 ADD MSTORE POP PUSH1 0x40 PUSH2 0x1B59 DUP5 DUP3 DUP6 ADD PUSH2 0x1A9A JUMP JUMPDEST PUSH1 0x40 DUP4 ADD MSTORE POP PUSH1 0x60 PUSH2 0x1B6D DUP5 DUP3 DUP6 ADD PUSH2 0x1A85 JUMP JUMPDEST PUSH1 0x60 DUP4 ADD MSTORE POP PUSH1 0x80 PUSH2 0x1B81 DUP5 DUP3 DUP6 ADD PUSH2 0x1A85 JUMP JUMPDEST PUSH1 0x80 DUP4 ADD MSTORE POP PUSH1 0xA0 PUSH2 0x1B95 DUP5 DUP3 DUP6 ADD PUSH2 0x1AC4 JUMP JUMPDEST PUSH1 0xA0 DUP4 ADD MSTORE POP PUSH1 0xC0 DUP3 ADD CALLDATALOAD PUSH8 0xFFFFFFFFFFFFFFFF DUP2 GT ISZERO PUSH2 0x1BB5 JUMPI PUSH1 0x0 DUP1 REVERT JUMPDEST PUSH2 0x1BC1 DUP5 DUP3 DUP6 ADD PUSH2 0x1BF9 JUMP JUMPDEST PUSH1 0xC0 DUP4 ADD MSTORE POP PUSH1 0xE0 DUP3 ADD CALLDATALOAD PUSH8 0xFFFFFFFFFFFFFFFF DUP2 GT ISZERO PUSH2 0x1BE1 JUMPI PUSH1 0x0 DUP1 REVERT JUMPDEST PUSH2 0x1BED DUP5 DUP3 DUP6 ADD PUSH2 0x1C5D JUMP JUMPDEST PUSH1 0xE0 DUP4 ADD MSTORE POP SWAP3 SWAP2 POP POP JUMP JUMPDEST PUSH1 0x0 PUSH1 0x40 DUP3 DUP5 SUB SLT ISZERO PUSH2 0x1C0B JUMPI PUSH1 0x0 DUP1 REVERT JUMPDEST PUSH2 0x1C15 PUSH1 0x40 PUSH2 0x230B JUMP JUMPDEST SWAP1 POP PUSH1 0x0 PUSH2 0x1C25 DUP5 DUP3 DUP6 ADD PUSH2 0x1CC1 JUMP JUMPDEST PUSH1 0x0 DUP4 ADD MSTORE POP PUSH1 0x20 DUP3 ADD CALLDATALOAD PUSH8 0xFFFFFFFFFFFFFFFF DUP2 GT ISZERO PUSH2 0x1C45 JUMPI PUSH1 0x0 DUP1 REVERT JUMPDEST PUSH2 0x1C51 DUP5 DUP3 DUP6 ADD PUSH2 0x1A5B JUMP JUMPDEST PUSH1 0x20 DUP4 ADD MSTORE POP SWAP3 SWAP2 POP POP JUMP JUMPDEST PUSH1 0x0 PUSH1 0x40 DUP3 DUP5 SUB SLT ISZERO PUSH2 0x1C6F JUMPI PUSH1 0x0 DUP1 REVERT JUMPDEST PUSH2 0x1C79 PUSH1 0x40 PUSH2 0x230B JUMP JUMPDEST SWAP1 POP PUSH1 0x0 PUSH2 0x1C89 DUP5 DUP3 DUP6 ADD PUSH2 0x1CC1 JUMP JUMPDEST PUSH1 0x0 DUP4 ADD MSTORE POP PUSH1 0x20 DUP3 ADD CALLDATALOAD PUSH8 0xFFFFFFFFFFFFFFFF DUP2 GT ISZERO PUSH2 0x1CA9 JUMPI PUSH1 0x0 DUP1 REVERT JUMPDEST PUSH2 0x1CB5 DUP5 DUP3 DUP6 ADD PUSH2 0x1AD9 JUMP JUMPDEST PUSH1 0x20 DUP4 ADD MSTORE POP SWAP3 SWAP2 POP POP JUMP JUMPDEST PUSH1 0x0 DUP2 CALLDATALOAD SWAP1 POP PUSH2 0x1CD0 DUP2 PUSH2 0x270B JUMP JUMPDEST SWAP3 SWAP2 POP POP JUMP JUMPDEST PUSH1 0x0 DUP2 MLOAD SWAP1 POP PUSH2 0x1CE5 DUP2 PUSH2 0x270B JUMP JUMPDEST SWAP3 SWAP2 POP POP JUMP JUMPDEST PUSH1 0x0 PUSH1 0x20 DUP3 DUP5 SUB SLT ISZERO PUSH2 0x1CFD JUMPI PUSH1 0x0 DUP1 REVERT JUMPDEST PUSH1 0x0 PUSH2 0x1D0B DUP5 DUP3 DUP6 ADD PUSH2 0x1CC1 JUMP JUMPDEST SWAP2 POP POP SWAP3 SWAP2 POP POP JUMP JUMPDEST PUSH1 0x0 PUSH1 0x20 DUP3 DUP5 SUB SLT ISZERO PUSH2 0x1D26 JUMPI PUSH1 0x0 DUP1 REVERT JUMPDEST PUSH1 0x0 PUSH2 0x1D34 DUP5 DUP3 DUP6 ADD PUSH2 0x1CD6 JUMP JUMPDEST SWAP2 POP POP SWAP3 SWAP2 POP POP JUMP JUMPDEST PUSH1 0x0 DUP1 PUSH1 0x0 DUP1 PUSH1 0x0 PUSH1 0xA0 DUP7 DUP9 SUB SLT ISZERO PUSH2 0x1D55 JUMPI PUSH1 0x0 DUP1 REVERT JUMPDEST PUSH1 0x0 PUSH2 0x1D63 DUP9 DUP3 DUP10 ADD PUSH2 0x1CC1 JUMP JUMPDEST SWAP6 POP POP PUSH1 0x20 PUSH2 0x1D74 DUP9 DUP3 DUP10 ADD PUSH2 0x1AAF JUMP JUMPDEST SWAP5 POP POP PUSH1 0x40 PUSH2 0x1D85 DUP9 DUP3 DUP10 ADD PUSH2 0x1A9A JUMP JUMPDEST SWAP4 POP POP PUSH1 0x60 PUSH2 0x1D96 DUP9 DUP3 DUP10 ADD PUSH2 0x1AC4 JUMP JUMPDEST SWAP3 POP POP PUSH1 0x80 DUP7 ADD CALLDATALOAD PUSH8 0xFFFFFFFFFFFFFFFF DUP2 GT ISZERO PUSH2 0x1DB3 JUMPI PUSH1 0x0 DUP1 REVERT JUMPDEST PUSH2 0x1DBF DUP9 DUP3 DUP10 ADD PUSH2 0x1BF9 JUMP JUMPDEST SWAP2 POP POP SWAP3 SWAP6 POP SWAP3 SWAP6 SWAP1 SWAP4 POP JUMP JUMPDEST PUSH1 0x0 DUP1 PUSH1 0x0 DUP1 PUSH1 0x0 DUP1 PUSH1 0xC0 DUP8 DUP10 SUB SLT ISZERO PUSH2 0x1DE5 JUMPI PUSH1 0x0 DUP1 REVERT JUMPDEST PUSH1 0x0 PUSH2 0x1DF3 DUP10 DUP3 DUP11 ADD PUSH2 0x1CC1 JUMP JUMPDEST SWAP7 POP POP PUSH1 0x20 DUP8 ADD CALLDATALOAD PUSH8 0xFFFFFFFFFFFFFFFF DUP2 GT ISZERO PUSH2 0x1E10 JUMPI PUSH1 0x0 DUP1 REVERT JUMPDEST PUSH2 0x1E1C DUP10 DUP3 DUP11 ADD PUSH2 0x1AD9 JUMP JUMPDEST SWAP6 POP POP PUSH1 0x40 PUSH2 0x1E2D DUP10 DUP3 DUP11 ADD PUSH2 0x1A46 JUMP JUMPDEST SWAP5 POP POP PUSH1 0x60 PUSH2 0x1E3E DUP10 DUP3 DUP11 ADD PUSH2 0x1AAF JUMP JUMPDEST SWAP4 POP POP PUSH1 0x80 DUP8 ADD CALLDATALOAD PUSH8 0xFFFFFFFFFFFFFFFF DUP2 GT ISZERO PUSH2 0x1E5B JUMPI PUSH1 0x0 DUP1 REVERT JUMPDEST PUSH2 0x1E67 DUP10 DUP3 DUP11 ADD PUSH2 0x1A5B JUMP JUMPDEST SWAP3 POP POP PUSH1 0xA0 DUP8 ADD CALLDATALOAD PUSH8 0xFFFFFFFFFFFFFFFF DUP2 GT ISZERO PUSH2 0x1E84 JUMPI PUSH1 0x0 DUP1 REVERT JUMPDEST PUSH2 0x1E90 DUP10 DUP3 DUP11 ADD PUSH2 0x1A5B JUMP JUMPDEST SWAP2 POP POP SWAP3 SWAP6 POP SWAP3 SWAP6 POP SWAP3 SWAP6 JUMP JUMPDEST PUSH1 0x0 DUP1 PUSH1 0x0 DUP1 PUSH1 0x0 DUP1 PUSH1 0x0 PUSH1 0xE0 DUP9 DUP11 SUB SLT ISZERO PUSH2 0x1EB8 JUMPI PUSH1 0x0 DUP1 REVERT JUMPDEST PUSH1 0x0 PUSH2 0x1EC6 DUP11 DUP3 DUP12 ADD PUSH2 0x1CC1 JUMP JUMPDEST SWAP8 POP POP PUSH1 0x20 DUP9 ADD CALLDATALOAD PUSH8 0xFFFFFFFFFFFFFFFF DUP2 GT ISZERO PUSH2 0x1EE3 JUMPI PUSH1 0x0 DUP1 REVERT JUMPDEST PUSH2 0x1EEF DUP11 DUP3 DUP12 ADD PUSH2 0x1AD9 JUMP JUMPDEST SWAP7 POP POP PUSH1 0x40 PUSH2 0x1F00 DUP11 DUP3 DUP12 ADD PUSH2 0x1A46 JUMP JUMPDEST SWAP6 POP POP PUSH1 0x60 PUSH2 0x1F11 DUP11 DUP3 DUP12 ADD PUSH2 0x1AAF JUMP JUMPDEST SWAP5 POP POP PUSH1 0x80 DUP9 ADD CALLDATALOAD PUSH8 0xFFFFFFFFFFFFFFFF DUP2 GT ISZERO PUSH2 0x1F2E JUMPI PUSH1 0x0 DUP1 REVERT JUMPDEST PUSH2 0x1F3A DUP11 DUP3 DUP12 ADD PUSH2 0x1A5B JUMP JUMPDEST SWAP4 POP POP PUSH1 0xA0 DUP9 ADD CALLDATALOAD PUSH8 0xFFFFFFFFFFFFFFFF DUP2 GT ISZERO PUSH2 0x1F57 JUMPI PUSH1 0x0 DUP1 REVERT JUMPDEST PUSH2 0x1F63 DUP11 DUP3 DUP12 ADD PUSH2 0x1A5B JUMP JUMPDEST SWAP3 POP POP PUSH1 0xC0 DUP9 ADD CALLDATALOAD PUSH8 0xFFFFFFFFFFFFFFFF DUP2 GT ISZERO PUSH2 0x1F80 JUMPI PUSH1 0x0 DUP1 REVERT JUMPDEST PUSH2 0x1F8C DUP11 DUP3 DUP12 ADD PUSH2 0x1B03 JUMP JUMPDEST SWAP2 POP POP SWAP3 SWAP6 SWAP9 SWAP2 SWAP5 SWAP8 POP SWAP3 SWAP6 POP JUMP JUMPDEST PUSH1 0x0 PUSH2 0x1FA7 DUP4 DUP4 PUSH2 0x20C7 JUMP JUMPDEST SWAP1 POP SWAP3 SWAP2 POP POP JUMP JUMPDEST PUSH1 0x0 PUSH2 0x1FBB DUP4 DUP4 PUSH2 0x21B9 JUMP JUMPDEST PUSH1 0x20 DUP4 ADD SWAP1 POP SWAP3 SWAP2 POP POP JUMP JUMPDEST PUSH2 0x1FD0 DUP2 PUSH2 0x24A2 JUMP JUMPDEST DUP3 MSTORE POP POP JUMP JUMPDEST PUSH1 0x0 PUSH2 0x1FE1 DUP3 PUSH2 0x23CD JUMP JUMPDEST PUSH2 0x1FEB DUP2 DUP6 PUSH2 0x2408 JUMP JUMPDEST SWAP4 POP DUP4 PUSH1 0x20 DUP3 MUL DUP6 ADD PUSH2 0x1FFD DUP6 PUSH2 0x2398 JUMP JUMPDEST DUP1 PUSH1 0x0 JUMPDEST DUP6 DUP2 LT ISZERO PUSH2 0x2039 JUMPI DUP5 DUP5 SUB DUP10 MSTORE DUP2 MLOAD PUSH2 0x201A DUP6 DUP3 PUSH2 0x1F9B JUMP JUMPDEST SWAP5 POP PUSH2 0x2025 DUP4 PUSH2 0x23EE JUMP JUMPDEST SWAP3 POP PUSH1 0x20 DUP11 ADD SWAP10 POP POP PUSH1 0x1 DUP2 ADD SWAP1 POP PUSH2 0x2001 JUMP JUMPDEST POP DUP3 SWAP8 POP DUP8 SWAP6 POP POP POP POP POP POP SWAP3 SWAP2 POP POP JUMP JUMPDEST PUSH1 0x0 PUSH2 0x2056 DUP3 PUSH2 0x23D8 JUMP JUMPDEST PUSH2 0x2060 DUP2 DUP6 PUSH2 0x2419 JUMP JUMPDEST SWAP4 POP PUSH2 0x206B DUP4 PUSH2 0x23A8 JUMP JUMPDEST DUP1 PUSH1 0x0 JUMPDEST DUP4 DUP2 LT ISZERO PUSH2 0x209C JUMPI DUP2 MLOAD PUSH2 0x2083 DUP9 DUP3 PUSH2 0x1FAF JUMP JUMPDEST SWAP8 POP PUSH2 0x208E DUP4 PUSH2 0x23FB JUMP JUMPDEST SWAP3 POP POP PUSH1 0x1 DUP2 ADD SWAP1 POP PUSH2 0x206F JUMP JUMPDEST POP DUP6 SWAP4 POP POP POP POP SWAP3 SWAP2 POP POP JUMP JUMPDEST PUSH2 0x20B2 DUP2 PUSH2 0x24B4 JUMP JUMPDEST DUP3 MSTORE POP POP JUMP JUMPDEST PUSH2 0x20C1 DUP2 PUSH2 0x24FD JUMP JUMPDEST DUP3 MSTORE POP POP JUMP JUMPDEST PUSH1 0x0 PUSH2 0x20D2 DUP3 PUSH2 0x23E3 JUMP JUMPDEST PUSH2 0x20DC DUP2 DUP6 PUSH2 0x242A JUMP JUMPDEST SWAP4 POP PUSH2 0x20EC DUP2 DUP6 PUSH1 0x20 DUP7 ADD PUSH2 0x251E JUMP JUMPDEST PUSH2 0x20F5 DUP2 PUSH2 0x2688 JUMP JUMPDEST DUP5 ADD SWAP2 POP POP SWAP3 SWAP2 POP POP JUMP JUMPDEST PUSH1 0x0 PUSH2 0x210B DUP3 PUSH2 0x23E3 JUMP JUMPDEST PUSH2 0x2115 DUP2 DUP6 PUSH2 0x243B JUMP JUMPDEST SWAP4 POP PUSH2 0x2125 DUP2 DUP6 PUSH1 0x20 DUP7 ADD PUSH2 0x251E JUMP JUMPDEST PUSH2 0x212E DUP2 PUSH2 0x2688 JUMP JUMPDEST DUP5 ADD SWAP2 POP POP SWAP3 SWAP2 POP POP JUMP JUMPDEST PUSH1 0x0 DUP2 SLOAD PUSH2 0x2146 DUP2 PUSH2 0x2551 JUMP JUMPDEST PUSH2 0x2150 DUP2 DUP7 PUSH2 0x243B JUMP JUMPDEST SWAP5 POP PUSH1 0x1 DUP3 AND PUSH1 0x0 DUP2 EQ PUSH2 0x216B JUMPI PUSH1 0x1 DUP2 EQ PUSH2 0x217D JUMPI PUSH2 0x21B0 JUMP JUMPDEST PUSH1 0xFF NOT DUP4 AND DUP7 MSTORE PUSH1 0x20 DUP7 ADD SWAP4 POP PUSH2 0x21B0 JUMP JUMPDEST PUSH2 0x2186 DUP6 PUSH2 0x23B8 JUMP JUMPDEST PUSH1 0x0 JUMPDEST DUP4 DUP2 LT ISZERO PUSH2 0x21A8 JUMPI DUP2 SLOAD DUP2 DUP10 ADD MSTORE PUSH1 0x1 DUP3 ADD SWAP2 POP PUSH1 0x20 DUP2 ADD SWAP1 POP PUSH2 0x2189 JUMP JUMPDEST DUP1 DUP9 ADD SWAP6 POP POP POP JUMPDEST POP POP POP SWAP3 SWAP2 POP POP JUMP JUMPDEST PUSH2 0x21C2 DUP2 PUSH2 0x24F3 JUMP JUMPDEST DUP3 MSTORE POP POP JUMP JUMPDEST PUSH2 0x21D1 DUP2 PUSH2 0x24F3 JUMP JUMPDEST DUP3 MSTORE POP POP JUMP JUMPDEST PUSH1 0x0 PUSH1 0x20 DUP3 ADD SWAP1 POP DUP2 DUP2 SUB PUSH1 0x0 DUP4 ADD MSTORE PUSH2 0x21F1 DUP2 DUP5 PUSH2 0x1FD6 JUMP JUMPDEST SWAP1 POP SWAP3 SWAP2 POP POP JUMP JUMPDEST PUSH1 0x0 PUSH1 0x20 DUP3 ADD SWAP1 POP DUP2 DUP2 SUB PUSH1 0x0 DUP4 ADD MSTORE PUSH2 0x2213 DUP2 DUP5 PUSH2 0x204B JUMP JUMPDEST SWAP1 POP SWAP3 SWAP2 POP POP JUMP JUMPDEST PUSH1 0x0 PUSH1 0x20 DUP3 ADD SWAP1 POP PUSH2 0x2230 PUSH1 0x0 DUP4 ADD DUP5 PUSH2 0x20A9 JUMP JUMPDEST SWAP3 SWAP2 POP POP JUMP JUMPDEST PUSH1 0x0 PUSH1 0xC0 DUP3 ADD SWAP1 POP PUSH2 0x224B PUSH1 0x0 DUP4 ADD DUP10 PUSH2 0x20A9 JUMP JUMPDEST DUP2 DUP2 SUB PUSH1 0x20 DUP4 ADD MSTORE PUSH2 0x225D DUP2 DUP9 PUSH2 0x2100 JUMP JUMPDEST SWAP1 POP PUSH2 0x226C PUSH1 0x40 DUP4 ADD DUP8 PUSH2 0x1FC7 JUMP JUMPDEST PUSH2 0x2279 PUSH1 0x60 DUP4 ADD DUP7 PUSH2 0x20B8 JUMP JUMPDEST DUP2 DUP2 SUB PUSH1 0x80 DUP4 ADD MSTORE PUSH2 0x228B DUP2 DUP6 PUSH2 0x204B JUMP JUMPDEST SWAP1 POP DUP2 DUP2 SUB PUSH1 0xA0 DUP4 ADD MSTORE PUSH2 0x229F DUP2 DUP5 PUSH2 0x204B JUMP JUMPDEST SWAP1 POP SWAP8 SWAP7 POP POP POP POP POP POP POP JUMP JUMPDEST PUSH1 0x0 PUSH1 0x20 DUP3 ADD SWAP1 POP DUP2 DUP2 SUB PUSH1 0x0 DUP4 ADD MSTORE PUSH2 0x22C6 DUP2 DUP5 PUSH2 0x2100 JUMP JUMPDEST SWAP1 POP SWAP3 SWAP2 POP POP JUMP JUMPDEST PUSH1 0x0 PUSH1 0x20 DUP3 ADD SWAP1 POP DUP2 DUP2 SUB PUSH1 0x0 DUP4 ADD MSTORE PUSH2 0x22E8 DUP2 DUP5 PUSH2 0x2139 JUMP JUMPDEST SWAP1 POP SWAP3 SWAP2 POP POP JUMP JUMPDEST PUSH1 0x0 PUSH1 0x20 DUP3 ADD SWAP1 POP PUSH2 0x2305 PUSH1 0x0 DUP4 ADD DUP5 PUSH2 0x21C8 JUMP JUMPDEST SWAP3 SWAP2 POP POP JUMP JUMPDEST PUSH1 0x0 PUSH1 0x40 MLOAD SWAP1 POP DUP2 DUP2 ADD DUP2 DUP2 LT PUSH8 0xFFFFFFFFFFFFFFFF DUP3 GT OR ISZERO PUSH2 0x2332 JUMPI PUSH2 0x2331 PUSH2 0x2659 JUMP JUMPDEST JUMPDEST DUP1 PUSH1 0x40 MSTORE POP SWAP2 SWAP1 POP JUMP JUMPDEST PUSH1 0x0 PUSH8 0xFFFFFFFFFFFFFFFF DUP3 GT ISZERO PUSH2 0x2357 JUMPI PUSH2 0x2356 PUSH2 0x2659 JUMP JUMPDEST JUMPDEST PUSH1 0x20 DUP3 MUL SWAP1 POP PUSH1 0x20 DUP2 ADD SWAP1 POP SWAP2 SWAP1 POP JUMP JUMPDEST PUSH1 0x0 PUSH8 0xFFFFFFFFFFFFFFFF DUP3 GT ISZERO PUSH2 0x2383 JUMPI PUSH2 0x2382 PUSH2 0x2659 JUMP JUMPDEST JUMPDEST PUSH1 0x1F NOT PUSH1 0x1F DUP4 ADD AND SWAP1 POP PUSH1 0x20 DUP2 ADD SWAP1 POP SWAP2 SWAP1 POP JUMP JUMPDEST PUSH1 0x0 DUP2 SWAP1 POP PUSH1 0x20 DUP3 ADD SWAP1 POP SWAP2 SWAP1 POP JUMP JUMPDEST PUSH1 0x0 DUP2 SWAP1 POP PUSH1 0x20 DUP3 ADD SWAP1 POP SWAP2 SWAP1 POP JUMP JUMPDEST PUSH1 0x0 DUP2 SWAP1 POP DUP2 PUSH1 0x0 MSTORE PUSH1 0x20 PUSH1 0x0 KECCAK256 SWAP1 POP SWAP2 SWAP1 POP JUMP JUMPDEST PUSH1 0x0 DUP2 MLOAD SWAP1 POP SWAP2 SWAP1 POP JUMP JUMPDEST PUSH1 0x0 DUP2 MLOAD SWAP1 POP SWAP2 SWAP1 POP JUMP JUMPDEST PUSH1 0x0 DUP2 MLOAD SWAP1 POP SWAP2 SWAP1 POP JUMP JUMPDEST PUSH1 0x0 PUSH1 0x20 DUP3 ADD SWAP1 POP SWAP2 SWAP1 POP JUMP JUMPDEST PUSH1 0x0 PUSH1 0x20 DUP3 ADD SWAP1 POP SWAP2 SWAP1 POP JUMP JUMPDEST PUSH1 0x0 DUP3 DUP3 MSTORE PUSH1 0x20 DUP3 ADD SWAP1 POP SWAP3 SWAP2 POP POP JUMP JUMPDEST PUSH1 0x0 DUP3 DUP3 MSTORE PUSH1 0x20 DUP3 ADD SWAP1 POP SWAP3 SWAP2 POP POP JUMP JUMPDEST PUSH1 0x0 DUP3 DUP3 MSTORE PUSH1 0x20 DUP3 ADD SWAP1 POP SWAP3 SWAP2 POP POP JUMP JUMPDEST PUSH1 0x0 DUP3 DUP3 MSTORE PUSH1 0x20 DUP3 ADD SWAP1 POP SWAP3 SWAP2 POP POP JUMP JUMPDEST PUSH1 0x0 PUSH2 0x2457 DUP3 PUSH2 0x24F3 JUMP JUMPDEST SWAP2 POP PUSH2 0x2462 DUP4 PUSH2 0x24F3 JUMP JUMPDEST SWAP3 POP DUP3 PUSH32 0xFFFFFFFFFFFFFFFFFFFFFFFFFFFFFFFFFFFFFFFFFFFFFFFFFFFFFFFFFFFFFFFF SUB DUP3 GT ISZERO PUSH2 0x2497 JUMPI PUSH2 0x2496 PUSH2 0x25CC JUMP JUMPDEST JUMPDEST DUP3 DUP3 ADD SWAP1 POP SWAP3 SWAP2 POP POP JUMP JUMPDEST PUSH1 0x0 PUSH2 0x24AD DUP3 PUSH2 0x24D3 JUMP JUMPDEST SWAP1 POP SWAP2 SWAP1 POP JUMP JUMPDEST PUSH1 0x0 DUP2 ISZERO ISZERO SWAP1 POP SWAP2 SWAP1 POP JUMP JUMPDEST PUSH1 0x0 DUP2 SWAP1 POP PUSH2 0x24CE DUP3 PUSH2 0x2699 JUMP JUMPDEST SWAP2 SWAP1 POP JUMP JUMPDEST PUSH1 0x0 PUSH20 0xFFFFFFFFFFFFFFFFFFFFFFFFFFFFFFFFFFFFFFFF DUP3 AND SWAP1 POP SWAP2 SWAP1 POP JUMP JUMPDEST PUSH1 0x0 DUP2 SWAP1 POP SWAP2 SWAP1 POP JUMP JUMPDEST PUSH1 0x0 PUSH2 0x2508 DUP3 PUSH2 0x24C0 JUMP JUMPDEST SWAP1 POP SWAP2 SWAP1 POP JUMP JUMPDEST DUP3 DUP2 DUP4 CALLDATACOPY PUSH1 0x0 DUP4 DUP4 ADD MSTORE POP POP POP JUMP JUMPDEST PUSH1 0x0 JUMPDEST DUP4 DUP2 LT ISZERO PUSH2 0x253C JUMPI DUP1 DUP3 ADD MLOAD DUP2 DUP5 ADD MSTORE PUSH1 0x20 DUP2 ADD SWAP1 POP PUSH2 0x2521 JUMP JUMPDEST DUP4 DUP2 GT ISZERO PUSH2 0x254B JUMPI PUSH1 0x0 DUP5 DUP5 ADD MSTORE JUMPDEST POP POP POP POP JUMP JUMPDEST PUSH1 0x0 PUSH1 0x2 DUP3 DIV SWAP1 POP PUSH1 0x1 DUP3 AND DUP1 PUSH2 0x2569 JUMPI PUSH1 0x7F DUP3 AND SWAP2 POP JUMPDEST PUSH1 0x20 DUP3 LT DUP2 EQ ISZERO PUSH2 0x257D JUMPI PUSH2 0x257C PUSH2 0x262A JUMP JUMPDEST JUMPDEST POP SWAP2 SWAP1 POP JUMP JUMPDEST PUSH1 0x0 PUSH2 0x258E DUP3 PUSH2 0x24F3 JUMP JUMPDEST SWAP2 POP PUSH32 0xFFFFFFFFFFFFFFFFFFFFFFFFFFFFFFFFFFFFFFFFFFFFFFFFFFFFFFFFFFFFFFFF DUP3 EQ ISZERO PUSH2 0x25C1 JUMPI PUSH2 0x25C0 PUSH2 0x25CC JUMP JUMPDEST JUMPDEST PUSH1 0x1 DUP3 ADD SWAP1 POP SWAP2 SWAP1 POP JUMP JUMPDEST PUSH32 0x4E487B7100000000000000000000000000000000000000000000000000000000 PUSH1 0x0 MSTORE PUSH1 0x11 PUSH1 0x4 MSTORE PUSH1 0x24 PUSH1 0x0 REVERT JUMPDEST PUSH32 0x4E487B7100000000000000000000000000000000000000000000000000000000 PUSH1 0x0 MSTORE PUSH1 0x21 PUSH1 0x4 MSTORE PUSH1 0x24 PUSH1 0x0 REVERT JUMPDEST PUSH32 0x4E487B7100000000000000000000000000000000000000000000000000000000 PUSH1 0x0 MSTORE PUSH1 0x22 PUSH1 0x4 MSTORE PUSH1 0x24 PUSH1 0x0 REVERT JUMPDEST PUSH32 0x4E487B7100000000000000000000000000000000000000000000000000000000 PUSH1 0x0 MSTORE PUSH1 0x41 PUSH1 0x4 MSTORE PUSH1 0x24 PUSH1 0x0 REVERT JUMPDEST PUSH1 0x0 PUSH1 0x1F NOT PUSH1 0x1F DUP4 ADD AND SWAP1 POP SWAP2 SWAP1 POP JUMP JUMPDEST PUSH1 0x4 DUP2 LT PUSH2 0x26AA JUMPI PUSH2 0x26A9 PUSH2 0x25FB JUMP JUMPDEST JUMPDEST POP JUMP JUMPDEST PUSH2 0x26B6 DUP2 PUSH2 0x24A2 JUMP JUMPDEST DUP2 EQ PUSH2 0x26C1 JUMPI PUSH1 0x0 DUP1 REVERT JUMPDEST POP JUMP JUMPDEST PUSH2 0x26CD DUP2 PUSH2 0x24B4 JUMP JUMPDEST DUP2 EQ PUSH2 0x26D8 JUMPI PUSH1 0x0 DUP1 REVERT JUMPDEST POP JUMP JUMPDEST PUSH1 0x3 DUP2 LT PUSH2 0x26E8 JUMPI PUSH1 0x0 DUP1 REVERT JUMPDEST POP JUMP JUMPDEST PUSH1 0x4 DUP2 LT PUSH2 0x26F8 JUMPI PUSH1 0x0 DUP1 REVERT JUMPDEST POP JUMP JUMPDEST PUSH1 0x7 DUP2 LT PUSH2 0x2708 JUMPI PUSH1 0x0 DUP1 REVERT JUMPDEST POP JUMP JUMPDEST PUSH2 0x2714 DUP2 PUSH2 0x24F3 JUMP JUMPDEST DUP2 EQ PUSH2 0x271F JUMPI PUSH1 0x0 DUP1 REVERT JUMPDEST POP JUMP INVALID LOG2 PUSH5 0x6970667358 0x22 SLT KECCAK256 SWAP10 0x24 0xE5 0xC1 BYTE 0xA6 0x5F EXTCODESIZE SWAP6 0x5C 0xB2 CODECOPY 0xDE SWAP5 PUSH14 0xBAB42C9B05932B751329F9DB0F60 RETURN SWAP6 0xBD PUSH5 0x736F6C6343 STOP ADDMOD STOP STOP CALLER "},"gasEstimates":{"creation":{"codeDepositCost":"2014400","executionCost":"2134","totalCost":"2016534"},"external":{"addDecisionToTask(uint256,uint8,uint8,uint8,(uint256,uint256[]))":"infinite","completing(uint256)":"infinite","createTask(uint256,string,address,uint8,uint256[],uint256[])":"infinite","createTaskWithDecision(uint256,string,address,uint8,uint256[],uint256[],(uint256,uint8,uint8,bool,bool,uint8,(uint256,uint256[]),(uint256,string)))":"infinite","debugStringeventLog(uint256)":"infinite","decisionTest()":"infinite","getDebugStringeventLog()":"infinite","getLog()":"infinite","getTaskById(uint256)":"infinite","isTaskCompletedById(uint256)":"1666","theRealEventLog(uint256)":"infinite"}},"methodIdentifiers":{"addDecisionToTask(uint256,uint8,uint8,uint8,(uint256,uint256[]))":"4c88bf2f","completing(uint256)":"993c0410","createTask(uint256,string,address,uint8,uint256[],uint256[])":"307ed4be","createTaskWithDecision(uint256,string,address,uint8,uint256[],uint256[],(uint256,uint8,uint8,bool,bool,uint8,(uint256,uint256[]),(uint256,string)))":"301e26f4","debugStringeventLog(uint256)":"61ea18df","decisionTest()":"71c56f9b","getDebugStringeventLog()":"4d60f651","getLog()":"909e4ab6","getTaskById(uint256)":"976217cd","isTaskCompletedById(uint256)":"9849cee9","theRealEventLog(uint256)":"95794157"}},"storageLayout":{"storage":[{"astId":31,"contract":"BasicEnzian.sol:BasicEnzian","label":"tasks","offset":0,"slot":"0","type":"t_mapping(t_uint256,t_struct(Task)26_storage)"},{"astId":83,"contract":"BasicEnzian.sol:BasicEnzian","label":"globalStringPayload","offset":0,"slot":"1","type":"t_array(t_string_storage)dyn_storage"},{"astId":86,"contract":"BasicEnzian.sol:BasicEnzian","label":"globalIntegerPayload","offset":0,"slot":"2","type":"t_array(t_uint256)dyn_storage"},{"astId":89,"contract":"BasicEnzian.sol:BasicEnzian","label":"theRealEventLog","offset":0,"slot":"3","type":"t_array(t_uint256)dyn_storage"},{"astId":101,"contract":"BasicEnzian.sol:BasicEnzian","label":"debugStringeventLog","offset":0,"slot":"4","type":"t_array(t_string_storage)dyn_storage"}],"types":{"t_address":{"encoding":"inplace","label":"address","numberOfBytes":"20"},"t_array(t_string_storage)dyn_storage":{"base":"t_string_storage","encoding":"dynamic_array","label":"string[]","numberOfBytes":"32"},"t_array(t_uint256)dyn_storage":{"base":"t_uint256","encoding":"dynamic_array","label":"uint256[]","numberOfBytes":"32"},"t_bool":{"encoding":"inplace","label":"bool","numberOfBytes":"1"},"t_enum(DecisionType)39":{"encoding":"inplace","label":"enum BasicEnzian.DecisionType","numberOfBytes":"1"},"t_enum(GatewayType)7":{"encoding":"inplace","label":"enum BasicEnzian.GatewayType","numberOfBytes":"1"},"t_enum(Operator)47":{"encoding":"inplace","label":"enum BasicEnzian.Operator","numberOfBytes":"1"},"t_mapping(t_uint256,t_struct(Task)26_storage)":{"encoding":"mapping","key":"t_uint256","label":"mapping(uint256 => struct BasicEnzian.Task)","numberOfBytes":"32","value":"t_struct(Task)26_storage"},"t_string_storage":{"encoding":"bytes","label":"string","numberOfBytes":"32"},"t_struct(Decision)80_storage":{"encoding":"inplace","label":"struct BasicEnzian.Decision","members":[{"astId":60,"contract":"BasicEnzian.sol:BasicEnzian","label":"endBoss","offset":0,"slot":"0","type":"t_uint256"},{"astId":63,"contract":"BasicEnzian.sol:BasicEnzian","label":"gatewaytype","offset":0,"slot":"1","type":"t_enum(GatewayType)7"},{"astId":66,"contract":"BasicEnzian.sol:BasicEnzian","label":"typ","offset":1,"slot":"1","type":"t_enum(DecisionType)39"},{"astId":68,"contract":"BasicEnzian.sol:BasicEnzian","label":"completed","offset":2,"slot":"1","type":"t_bool"},{"astId":70,"contract":"BasicEnzian.sol:BasicEnzian","label":"exists","offset":3,"slot":"1","type":"t_bool"},{"astId":73,"contract":"BasicEnzian.sol:BasicEnzian","label":"operator","offset":4,"slot":"1","type":"t_enum(Operator)47"},{"astId":76,"contract":"BasicEnzian.sol:BasicEnzian","label":"integeroperants","offset":0,"slot":"2","type":"t_struct(IntegerOperants)53_storage"},{"astId":79,"contract":"BasicEnzian.sol:BasicEnzian","label":"stringoperants","offset":0,"slot":"4","type":"t_struct(StringOperants)58_storage"}],"numberOfBytes":"192"},"t_struct(IntegerOperants)53_storage":{"encoding":"inplace","label":"struct BasicEnzian.IntegerOperants","members":[{"astId":49,"contract":"BasicEnzian.sol:BasicEnzian","label":"idtoglobalintegerpayload","offset":0,"slot":"0","type":"t_uint256"},{"astId":52,"contract":"BasicEnzian.sol:BasicEnzian","label":"local","offset":0,"slot":"1","type":"t_array(t_uint256)dyn_storage"}],"numberOfBytes":"64"},"t_struct(StringOperants)58_storage":{"encoding":"inplace","label":"struct BasicEnzian.StringOperants","members":[{"astId":55,"contract":"BasicEnzian.sol:BasicEnzian","label":"idtoglobalstringpayload","offset":0,"slot":"0","type":"t_uint256"},{"astId":57,"contract":"BasicEnzian.sol:BasicEnzian","label":"local","offset":0,"slot":"1","type":"t_string_storage"}],"numberOfBytes":"64"},"t_struct(Task)26_storage":{"encoding":"inplace","label":"struct BasicEnzian.Task","members":[{"astId":9,"contract":"BasicEnzian.sol:BasicEnzian","label":"activity","offset":0,"slot":"0","type":"t_string_storage"},{"astId":11,"contract":"BasicEnzian.sol:BasicEnzian","label":"taskresource","offset":0,"slot":"1","type":"t_address"},{"astId":13,"contract":"BasicEnzian.sol:BasicEnzian","label":"completed","offset":20,"slot":"1","type":"t_bool"},{"astId":16,"contract":"BasicEnzian.sol:BasicEnzian","label":"preceedingMergingGateway","offset":21,"slot":"1","type":"t_enum(GatewayType)7"},{"astId":19,"contract":"BasicEnzian.sol:BasicEnzian","label":"requirements","offset":0,"slot":"2","type":"t_array(t_uint256)dyn_storage"},{"astId":22,"contract":"BasicEnzian.sol:BasicEnzian","label":"competitors","offset":0,"slot":"3","type":"t_array(t_uint256)dyn_storage"},{"astId":25,"contract":"BasicEnzian.sol:BasicEnzian","label":"decision","offset":0,"slot":"4","type":"t_struct(Decision)80_storage"}],"numberOfBytes":"320"},"t_uint256":{"encoding":"inplace","label":"uint256","numberOfBytes":"32"}}},"userdoc":{"kind":"user","methods":{},"version":1}}