{"abi":[{"inputs":[{"internalType":"string","name":"s1","type":"string"},{"internalType":"string","name":"s2","type":"string"},{"internalType":"enum DecisionLibrary.Operator","name":"_op","type":"DecisionLibrary.Operator"}],"name":"evaluate","outputs":[{"internalType":"bool","name":"isEqual","type":"bool"}],"stateMutability":"pure","type":"function"},{"inputs":[{"internalType":"int256","name":"i1","type":"int256"},{"internalType":"int256[]","name":"i2","type":"int256[]"},{"internalType":"enum DecisionLibrary.Operator","name":"_op","type":"DecisionLibrary.Operator"}],"name":"evaluate","outputs":[{"internalType":"bool","name":"isEqual","type":"bool"}],"stateMutability":"pure","type":"function"},{"inputs":[],"name":"returnZwo","outputs":[{"internalType":"uint256","name":"zwo","type":"uint256"}],"stateMutability":"pure","type":"function"}],"devdoc":{"kind":"dev","methods":{},"version":1},"evm":{"assembly":"    /* \"DecisionLibrary.sol\":26:1267  library DecisionLibrary{\r... */\n  dataSize(sub_0)\n  dataOffset(sub_0)\n  0x0b\n  dup3\n  dup3\n  dup3\n  codecopy\n  dup1\n  mload\n  0x00\n  byte\n  0x73\n  eq\n  tag_1\n  jumpi\n  mstore(0x00, 0x4e487b7100000000000000000000000000000000000000000000000000000000)\n  mstore(0x04, 0x00)\n  revert(0x00, 0x24)\ntag_1:\n  mstore(0x00, address)\n  0x73\n  dup2\n  mstore8\n  dup3\n  dup2\n  return\nstop\n\nsub_0: assembly {\n        /* \"DecisionLibrary.sol\":26:1267  library DecisionLibrary{\r... */\n      eq(address, deployTimeAddress())\n      mstore(0x40, 0x80)\n      jumpi(tag_1, lt(calldatasize, 0x04))\n      shr(0xe0, calldataload(0x00))\n      dup1\n      0xa8c0bf8e\n      eq\n      tag_2\n      jumpi\n      dup1\n      0xc237647f\n      eq\n      tag_3\n      jumpi\n      dup1\n      0xe1df7ad6\n      eq\n      tag_4\n      jumpi\n    tag_1:\n      0x00\n      dup1\n      revert\n        /* \"DecisionLibrary.sol\":119:357  function evaluate(string memory s1, string memory s2, Operator _op) public pure returns (bool isEqual) {\r... */\n    tag_2:\n      tag_5\n      0x04\n      dup1\n      calldatasize\n      sub\n      dup2\n      add\n      swap1\n      tag_6\n      swap2\n      swap1\n      tag_7\n      jump\t// in\n    tag_6:\n      tag_8\n      jump\t// in\n    tag_5:\n      mload(0x40)\n      tag_9\n      swap2\n      swap1\n      tag_10\n      jump\t// in\n    tag_9:\n      mload(0x40)\n      dup1\n      swap2\n      sub\n      swap1\n      return\n        /* \"DecisionLibrary.sol\":1186:1264  function returnZwo() public pure returns(uint zwo) {\r... */\n    tag_3:\n      tag_11\n      tag_12\n      jump\t// in\n    tag_11:\n      mload(0x40)\n      tag_13\n      swap2\n      swap1\n      tag_14\n      jump\t// in\n    tag_13:\n      mload(0x40)\n      dup1\n      swap2\n      sub\n      swap1\n      return\n        /* \"DecisionLibrary.sol\":407:1174  function evaluate(int i1, int[] memory i2, Operator _op) public pure returns (bool isEqual) {\r... */\n    tag_4:\n      tag_15\n      0x04\n      dup1\n      calldatasize\n      sub\n      dup2\n      add\n      swap1\n      tag_16\n      swap2\n      swap1\n      tag_17\n      jump\t// in\n    tag_16:\n      tag_18\n      jump\t// in\n    tag_15:\n      mload(0x40)\n      tag_19\n      swap2\n      swap1\n      tag_10\n      jump\t// in\n    tag_19:\n      mload(0x40)\n      dup1\n      swap2\n      sub\n      swap1\n      return\n        /* \"DecisionLibrary.sol\":119:357  function evaluate(string memory s1, string memory s2, Operator _op) public pure returns (bool isEqual) {\r... */\n    tag_8:\n        /* \"DecisionLibrary.sol\":208:220  bool isEqual */\n      0x00\n        /* \"DecisionLibrary.sol\":233:244  bool equals */\n      dup1\n        /* \"DecisionLibrary.sol\":287:289  s2 */\n      dup4\n        /* \"DecisionLibrary.sol\":271:291  keccak256(bytes(s2)) */\n      dup1\n      mload\n      swap1\n      0x20\n      add\n      keccak256\n        /* \"DecisionLibrary.sol\":263:265  s1 */\n      dup6\n        /* \"DecisionLibrary.sol\":247:267  keccak256(bytes(s1)) */\n      dup1\n      mload\n      swap1\n      0x20\n      add\n      keccak256\n        /* \"DecisionLibrary.sol\":247:291  keccak256(bytes(s1)) == keccak256(bytes(s2)) */\n      eq\n        /* \"DecisionLibrary.sol\":233:291  bool equals = keccak256(bytes(s1)) == keccak256(bytes(s2)) */\n      swap1\n      pop\n        /* \"DecisionLibrary.sol\":316:330  Operator.EQUAL */\n      0x02\n        /* \"DecisionLibrary.sol\":309:330  _op == Operator.EQUAL */\n      0x06\n      dup2\n      gt\n      iszero\n      tag_21\n      jumpi\n      mstore(0x00, 0x4e487b7100000000000000000000000000000000000000000000000000000000)\n      mstore(0x04, 0x21)\n      revert(0x00, 0x24)\n    tag_21:\n        /* \"DecisionLibrary.sol\":309:312  _op */\n      dup4\n        /* \"DecisionLibrary.sol\":309:330  _op == Operator.EQUAL */\n      0x06\n      dup2\n      gt\n      iszero\n      tag_22\n      jumpi\n      mstore(0x00, 0x4e487b7100000000000000000000000000000000000000000000000000000000)\n      mstore(0x04, 0x21)\n      revert(0x00, 0x24)\n    tag_22:\n      eq\n        /* \"DecisionLibrary.sol\":309:348  _op == Operator.EQUAL? equals : !equals */\n      tag_23\n      jumpi\n        /* \"DecisionLibrary.sol\":342:348  equals */\n      dup1\n        /* \"DecisionLibrary.sol\":341:348  !equals */\n      iszero\n        /* \"DecisionLibrary.sol\":309:348  _op == Operator.EQUAL? equals : !equals */\n      jump(tag_24)\n    tag_23:\n        /* \"DecisionLibrary.sol\":332:338  equals */\n      dup1\n        /* \"DecisionLibrary.sol\":309:348  _op == Operator.EQUAL? equals : !equals */\n    tag_24:\n        /* \"DecisionLibrary.sol\":302:348  return _op == Operator.EQUAL? equals : !equals */\n      swap2\n      pop\n      pop\n        /* \"DecisionLibrary.sol\":119:357  function evaluate(string memory s1, string memory s2, Operator _op) public pure returns (bool isEqual) {\r... */\n      swap4\n      swap3\n      pop\n      pop\n      pop\n      jump\t// out\n        /* \"DecisionLibrary.sol\":1186:1264  function returnZwo() public pure returns(uint zwo) {\r... */\n    tag_12:\n        /* \"DecisionLibrary.sol\":1227:1235  uint zwo */\n      0x00\n        /* \"DecisionLibrary.sol\":1255:1256  7 */\n      0x07\n        /* \"DecisionLibrary.sol\":1248:1256  return 7 */\n      swap1\n      pop\n        /* \"DecisionLibrary.sol\":1186:1264  function returnZwo() public pure returns(uint zwo) {\r... */\n      swap1\n      jump\t// out\n        /* \"DecisionLibrary.sol\":407:1174  function evaluate(int i1, int[] memory i2, Operator _op) public pure returns (bool isEqual) {\r... */\n    tag_18:\n        /* \"DecisionLibrary.sol\":485:497  bool isEqual */\n      0x00\n        /* \"DecisionLibrary.sol\":548:561  Operator.LESS */\n      dup1\n        /* \"DecisionLibrary.sol\":541:561  _op == Operator.LESS */\n      0x06\n      dup2\n      gt\n      iszero\n      tag_27\n      jumpi\n      mstore(0x00, 0x4e487b7100000000000000000000000000000000000000000000000000000000)\n      mstore(0x04, 0x21)\n      revert(0x00, 0x24)\n    tag_27:\n        /* \"DecisionLibrary.sol\":541:544  _op */\n      dup3\n        /* \"DecisionLibrary.sol\":541:561  _op == Operator.LESS */\n      0x06\n      dup2\n      gt\n      iszero\n      tag_28\n      jumpi\n      mstore(0x00, 0x4e487b7100000000000000000000000000000000000000000000000000000000)\n      mstore(0x04, 0x21)\n      revert(0x00, 0x24)\n    tag_28:\n      eq\n        /* \"DecisionLibrary.sol\":538:580  if(_op == Operator.LESS) return i1 < i2[0] */\n      iszero\n      tag_29\n      jumpi\n        /* \"DecisionLibrary.sol\":575:577  i2 */\n      dup3\n        /* \"DecisionLibrary.sol\":578:579  0 */\n      0x00\n        /* \"DecisionLibrary.sol\":575:580  i2[0] */\n      dup2\n      mload\n      dup2\n      lt\n      tag_30\n      jumpi\n      mstore(0x00, 0x4e487b7100000000000000000000000000000000000000000000000000000000)\n      mstore(0x04, 0x32)\n      revert(0x00, 0x24)\n    tag_30:\n      0x20\n      mul\n      0x20\n      add\n      add\n      mload\n        /* \"DecisionLibrary.sol\":570:572  i1 */\n      dup5\n        /* \"DecisionLibrary.sol\":570:580  i1 < i2[0] */\n      slt\n        /* \"DecisionLibrary.sol\":563:580  return i1 < i2[0] */\n      swap1\n      pop\n      jump(tag_26)\n        /* \"DecisionLibrary.sol\":538:580  if(_op == Operator.LESS) return i1 < i2[0] */\n    tag_29:\n        /* \"DecisionLibrary.sol\":619:635  Operator.GREATER */\n      0x01\n        /* \"DecisionLibrary.sol\":612:635  _op == Operator.GREATER */\n      0x06\n      dup2\n      gt\n      iszero\n      tag_31\n      jumpi\n      mstore(0x00, 0x4e487b7100000000000000000000000000000000000000000000000000000000)\n      mstore(0x04, 0x21)\n      revert(0x00, 0x24)\n    tag_31:\n        /* \"DecisionLibrary.sol\":612:615  _op */\n      dup3\n        /* \"DecisionLibrary.sol\":612:635  _op == Operator.GREATER */\n      0x06\n      dup2\n      gt\n      iszero\n      tag_32\n      jumpi\n      mstore(0x00, 0x4e487b7100000000000000000000000000000000000000000000000000000000)\n      mstore(0x04, 0x21)\n      revert(0x00, 0x24)\n    tag_32:\n      eq\n        /* \"DecisionLibrary.sol\":609:655  if(_op == Operator.GREATER)  return i1 > i2[0] */\n      iszero\n      tag_33\n      jumpi\n        /* \"DecisionLibrary.sol\":650:652  i2 */\n      dup3\n        /* \"DecisionLibrary.sol\":653:654  0 */\n      0x00\n        /* \"DecisionLibrary.sol\":650:655  i2[0] */\n      dup2\n      mload\n      dup2\n      lt\n      tag_34\n      jumpi\n      mstore(0x00, 0x4e487b7100000000000000000000000000000000000000000000000000000000)\n      mstore(0x04, 0x32)\n      revert(0x00, 0x24)\n    tag_34:\n      0x20\n      mul\n      0x20\n      add\n      add\n      mload\n        /* \"DecisionLibrary.sol\":645:647  i1 */\n      dup5\n        /* \"DecisionLibrary.sol\":645:655  i1 > i2[0] */\n      sgt\n        /* \"DecisionLibrary.sol\":638:655  return i1 > i2[0] */\n      swap1\n      pop\n      jump(tag_26)\n        /* \"DecisionLibrary.sol\":609:655  if(_op == Operator.GREATER)  return i1 > i2[0] */\n    tag_33:\n        /* \"DecisionLibrary.sol\":694:708  Operator.EQUAL */\n      0x02\n        /* \"DecisionLibrary.sol\":687:708  _op == Operator.EQUAL */\n      0x06\n      dup2\n      gt\n      iszero\n      tag_35\n      jumpi\n      mstore(0x00, 0x4e487b7100000000000000000000000000000000000000000000000000000000)\n      mstore(0x04, 0x21)\n      revert(0x00, 0x24)\n    tag_35:\n        /* \"DecisionLibrary.sol\":687:690  _op */\n      dup3\n        /* \"DecisionLibrary.sol\":687:708  _op == Operator.EQUAL */\n      0x06\n      dup2\n      gt\n      iszero\n      tag_36\n      jumpi\n      mstore(0x00, 0x4e487b7100000000000000000000000000000000000000000000000000000000)\n      mstore(0x04, 0x21)\n      revert(0x00, 0x24)\n    tag_36:\n      eq\n        /* \"DecisionLibrary.sol\":684:728  if(_op == Operator.EQUAL) return i1 == i2[0] */\n      iszero\n      tag_37\n      jumpi\n        /* \"DecisionLibrary.sol\":723:725  i2 */\n      dup3\n        /* \"DecisionLibrary.sol\":726:727  0 */\n      0x00\n        /* \"DecisionLibrary.sol\":723:728  i2[0] */\n      dup2\n      mload\n      dup2\n      lt\n      tag_38\n      jumpi\n      mstore(0x00, 0x4e487b7100000000000000000000000000000000000000000000000000000000)\n      mstore(0x04, 0x32)\n      revert(0x00, 0x24)\n    tag_38:\n      0x20\n      mul\n      0x20\n      add\n      add\n      mload\n        /* \"DecisionLibrary.sol\":717:719  i1 */\n      dup5\n        /* \"DecisionLibrary.sol\":717:728  i1 == i2[0] */\n      eq\n        /* \"DecisionLibrary.sol\":710:728  return i1 == i2[0] */\n      swap1\n      pop\n      jump(tag_26)\n        /* \"DecisionLibrary.sol\":684:728  if(_op == Operator.EQUAL) return i1 == i2[0] */\n    tag_37:\n        /* \"DecisionLibrary.sol\":768:780  Operator.LEQ */\n      0x04\n        /* \"DecisionLibrary.sol\":761:780  _op == Operator.LEQ */\n      0x06\n      dup2\n      gt\n      iszero\n      tag_39\n      jumpi\n      mstore(0x00, 0x4e487b7100000000000000000000000000000000000000000000000000000000)\n      mstore(0x04, 0x21)\n      revert(0x00, 0x24)\n    tag_39:\n        /* \"DecisionLibrary.sol\":761:764  _op */\n      dup3\n        /* \"DecisionLibrary.sol\":761:780  _op == Operator.LEQ */\n      0x06\n      dup2\n      gt\n      iszero\n      tag_40\n      jumpi\n      mstore(0x00, 0x4e487b7100000000000000000000000000000000000000000000000000000000)\n      mstore(0x04, 0x21)\n      revert(0x00, 0x24)\n    tag_40:\n      eq\n        /* \"DecisionLibrary.sol\":758:800  if(_op == Operator.LEQ) return i1 <= i2[0] */\n      iszero\n      tag_41\n      jumpi\n        /* \"DecisionLibrary.sol\":795:797  i2 */\n      dup3\n        /* \"DecisionLibrary.sol\":798:799  0 */\n      0x00\n        /* \"DecisionLibrary.sol\":795:800  i2[0] */\n      dup2\n      mload\n      dup2\n      lt\n      tag_42\n      jumpi\n      mstore(0x00, 0x4e487b7100000000000000000000000000000000000000000000000000000000)\n      mstore(0x04, 0x32)\n      revert(0x00, 0x24)\n    tag_42:\n      0x20\n      mul\n      0x20\n      add\n      add\n      mload\n        /* \"DecisionLibrary.sol\":789:791  i1 */\n      dup5\n        /* \"DecisionLibrary.sol\":789:800  i1 <= i2[0] */\n      sgt\n      iszero\n        /* \"DecisionLibrary.sol\":782:800  return i1 <= i2[0] */\n      swap1\n      pop\n      jump(tag_26)\n        /* \"DecisionLibrary.sol\":758:800  if(_op == Operator.LEQ) return i1 <= i2[0] */\n    tag_41:\n        /* \"DecisionLibrary.sol\":840:852  Operator.GEQ */\n      0x05\n        /* \"DecisionLibrary.sol\":833:852  _op == Operator.GEQ */\n      0x06\n      dup2\n      gt\n      iszero\n      tag_43\n      jumpi\n      mstore(0x00, 0x4e487b7100000000000000000000000000000000000000000000000000000000)\n      mstore(0x04, 0x21)\n      revert(0x00, 0x24)\n    tag_43:\n        /* \"DecisionLibrary.sol\":833:836  _op */\n      dup3\n        /* \"DecisionLibrary.sol\":833:852  _op == Operator.GEQ */\n      0x06\n      dup2\n      gt\n      iszero\n      tag_44\n      jumpi\n      mstore(0x00, 0x4e487b7100000000000000000000000000000000000000000000000000000000)\n      mstore(0x04, 0x21)\n      revert(0x00, 0x24)\n    tag_44:\n      eq\n        /* \"DecisionLibrary.sol\":830:872  if(_op == Operator.GEQ) return i1 >= i2[0] */\n      iszero\n      tag_45\n      jumpi\n        /* \"DecisionLibrary.sol\":867:869  i2 */\n      dup3\n        /* \"DecisionLibrary.sol\":870:871  0 */\n      0x00\n        /* \"DecisionLibrary.sol\":867:872  i2[0] */\n      dup2\n      mload\n      dup2\n      lt\n      tag_46\n      jumpi\n      mstore(0x00, 0x4e487b7100000000000000000000000000000000000000000000000000000000)\n      mstore(0x04, 0x32)\n      revert(0x00, 0x24)\n    tag_46:\n      0x20\n      mul\n      0x20\n      add\n      add\n      mload\n        /* \"DecisionLibrary.sol\":861:863  i1 */\n      dup5\n        /* \"DecisionLibrary.sol\":861:872  i1 >= i2[0] */\n      slt\n      iszero\n        /* \"DecisionLibrary.sol\":854:872  return i1 >= i2[0] */\n      swap1\n      pop\n      jump(tag_26)\n        /* \"DecisionLibrary.sol\":830:872  if(_op == Operator.GEQ) return i1 >= i2[0] */\n    tag_45:\n        /* \"DecisionLibrary.sol\":917:933  Operator.ELEMENT */\n      0x06\n        /* \"DecisionLibrary.sol\":910:933  _op == Operator.ELEMENT */\n      dup1\n      dup2\n      gt\n      iszero\n      tag_47\n      jumpi\n      mstore(0x00, 0x4e487b7100000000000000000000000000000000000000000000000000000000)\n      mstore(0x04, 0x21)\n      revert(0x00, 0x24)\n    tag_47:\n        /* \"DecisionLibrary.sol\":910:913  _op */\n      dup3\n        /* \"DecisionLibrary.sol\":910:933  _op == Operator.ELEMENT */\n      0x06\n      dup2\n      gt\n      iszero\n      tag_48\n      jumpi\n      mstore(0x00, 0x4e487b7100000000000000000000000000000000000000000000000000000000)\n      mstore(0x04, 0x21)\n      revert(0x00, 0x24)\n    tag_48:\n      eq\n        /* \"DecisionLibrary.sol\":907:1144  if(_op == Operator.ELEMENT){\r... */\n      iszero\n      tag_49\n      jumpi\n        /* \"DecisionLibrary.sol\":954:968  uint elementid */\n      0x00\n        /* \"DecisionLibrary.sol\":949:1122  for (uint elementid = 0; elementid < i2.length ; elementid++){\r... */\n    tag_50:\n        /* \"DecisionLibrary.sol\":986:988  i2 */\n      dup4\n        /* \"DecisionLibrary.sol\":986:995  i2.length */\n      mload\n        /* \"DecisionLibrary.sol\":974:983  elementid */\n      dup2\n        /* \"DecisionLibrary.sol\":974:995  elementid < i2.length */\n      lt\n        /* \"DecisionLibrary.sol\":949:1122  for (uint elementid = 0; elementid < i2.length ; elementid++){\r... */\n      iszero\n      tag_51\n      jumpi\n        /* \"DecisionLibrary.sol\":1039:1041  i2 */\n      dup4\n        /* \"DecisionLibrary.sol\":1042:1051  elementid */\n      dup2\n        /* \"DecisionLibrary.sol\":1039:1052  i2[elementid] */\n      dup2\n      mload\n      dup2\n      lt\n      tag_53\n      jumpi\n      mstore(0x00, 0x4e487b7100000000000000000000000000000000000000000000000000000000)\n      mstore(0x04, 0x32)\n      revert(0x00, 0x24)\n    tag_53:\n      0x20\n      mul\n      0x20\n      add\n      add\n      mload\n        /* \"DecisionLibrary.sol\":1033:1035  i1 */\n      dup6\n        /* \"DecisionLibrary.sol\":1033:1052  i1 == i2[elementid] */\n      eq\n        /* \"DecisionLibrary.sol\":1029:1107  if (i1 == i2[elementid]){\r... */\n      iszero\n      tag_54\n      jumpi\n        /* \"DecisionLibrary.sol\":1083:1087  true */\n      0x01\n        /* \"DecisionLibrary.sol\":1076:1087  return true */\n      swap2\n      pop\n      pop\n      jump(tag_26)\n        /* \"DecisionLibrary.sol\":1029:1107  if (i1 == i2[elementid]){\r... */\n    tag_54:\n        /* \"DecisionLibrary.sol\":998:1009  elementid++ */\n      dup1\n      dup1\n      tag_55\n      swap1\n      tag_56\n      jump\t// in\n    tag_55:\n      swap2\n      pop\n      pop\n        /* \"DecisionLibrary.sol\":949:1122  for (uint elementid = 0; elementid < i2.length ; elementid++){\r... */\n      jump(tag_50)\n    tag_51:\n      pop\n        /* \"DecisionLibrary.sol\":907:1144  if(_op == Operator.ELEMENT){\r... */\n    tag_49:\n        /* \"DecisionLibrary.sol\":1161:1166  false */\n      0x00\n        /* \"DecisionLibrary.sol\":1154:1166  return false */\n      swap1\n      pop\n        /* \"DecisionLibrary.sol\":407:1174  function evaluate(int i1, int[] memory i2, Operator _op) public pure returns (bool isEqual) {\r... */\n    tag_26:\n      swap4\n      swap3\n      pop\n      pop\n      pop\n      jump\t// out\n        /* \"#utility.yul\":23:642   */\n    tag_58:\n      0x00\n        /* \"#utility.yul\":143:222   */\n      tag_60\n        /* \"#utility.yul\":158:221   */\n      tag_61\n        /* \"#utility.yul\":214:220   */\n      dup5\n        /* \"#utility.yul\":158:221   */\n      tag_62\n      jump\t// in\n    tag_61:\n        /* \"#utility.yul\":143:222   */\n      tag_63\n      jump\t// in\n    tag_60:\n        /* \"#utility.yul\":134:222   */\n      swap1\n      pop\n        /* \"#utility.yul\":242:247   */\n      dup1\n        /* \"#utility.yul\":270:276   */\n      dup4\n        /* \"#utility.yul\":263:268   */\n      dup3\n        /* \"#utility.yul\":256:277   */\n      mstore\n        /* \"#utility.yul\":296:300   */\n      0x20\n        /* \"#utility.yul\":289:294   */\n      dup3\n        /* \"#utility.yul\":285:301   */\n      add\n        /* \"#utility.yul\":278:301   */\n      swap1\n      pop\n        /* \"#utility.yul\":321:327   */\n      dup3\n        /* \"#utility.yul\":371:374   */\n      dup6\n        /* \"#utility.yul\":363:367   */\n      0x20\n        /* \"#utility.yul\":355:361   */\n      dup7\n        /* \"#utility.yul\":351:368   */\n      mul\n        /* \"#utility.yul\":346:349   */\n      dup3\n        /* \"#utility.yul\":342:369   */\n      add\n        /* \"#utility.yul\":339:375   */\n      gt\n        /* \"#utility.yul\":336:338   */\n      iszero\n      tag_64\n      jumpi\n        /* \"#utility.yul\":388:389   */\n      0x00\n        /* \"#utility.yul\":385:386   */\n      dup1\n        /* \"#utility.yul\":378:390   */\n      revert\n        /* \"#utility.yul\":336:338   */\n    tag_64:\n        /* \"#utility.yul\":416:417   */\n      0x00\n        /* \"#utility.yul\":401:636   */\n    tag_65:\n        /* \"#utility.yul\":426:432   */\n      dup6\n        /* \"#utility.yul\":423:424   */\n      dup2\n        /* \"#utility.yul\":420:433   */\n      lt\n        /* \"#utility.yul\":401:636   */\n      iszero\n      tag_67\n      jumpi\n        /* \"#utility.yul\":493:496   */\n      dup2\n        /* \"#utility.yul\":521:557   */\n      tag_68\n        /* \"#utility.yul\":553:556   */\n      dup9\n        /* \"#utility.yul\":541:551   */\n      dup3\n        /* \"#utility.yul\":521:557   */\n      tag_69\n      jump\t// in\n    tag_68:\n        /* \"#utility.yul\":516:519   */\n      dup5\n        /* \"#utility.yul\":509:558   */\n      mstore\n        /* \"#utility.yul\":587:591   */\n      0x20\n        /* \"#utility.yul\":582:585   */\n      dup5\n        /* \"#utility.yul\":578:592   */\n      add\n        /* \"#utility.yul\":571:592   */\n      swap4\n      pop\n        /* \"#utility.yul\":621:625   */\n      0x20\n        /* \"#utility.yul\":616:619   */\n      dup4\n        /* \"#utility.yul\":612:626   */\n      add\n        /* \"#utility.yul\":605:626   */\n      swap3\n      pop\n        /* \"#utility.yul\":461:636   */\n      pop\n        /* \"#utility.yul\":448:449   */\n      0x01\n        /* \"#utility.yul\":445:446   */\n      dup2\n        /* \"#utility.yul\":441:450   */\n      add\n        /* \"#utility.yul\":436:450   */\n      swap1\n      pop\n        /* \"#utility.yul\":401:636   */\n      jump(tag_65)\n    tag_67:\n        /* \"#utility.yul\":405:419   */\n      pop\n        /* \"#utility.yul\":124:642   */\n      pop\n      pop\n      swap4\n      swap3\n      pop\n      pop\n      pop\n      jump\t// out\n        /* \"#utility.yul\":648:992   */\n    tag_70:\n      0x00\n        /* \"#utility.yul\":751:816   */\n      tag_72\n        /* \"#utility.yul\":766:815   */\n      tag_73\n        /* \"#utility.yul\":808:814   */\n      dup5\n        /* \"#utility.yul\":766:815   */\n      tag_74\n      jump\t// in\n    tag_73:\n        /* \"#utility.yul\":751:816   */\n      tag_63\n      jump\t// in\n    tag_72:\n        /* \"#utility.yul\":742:816   */\n      swap1\n      pop\n        /* \"#utility.yul\":839:845   */\n      dup3\n        /* \"#utility.yul\":832:837   */\n      dup2\n        /* \"#utility.yul\":825:846   */\n      mstore\n        /* \"#utility.yul\":877:881   */\n      0x20\n        /* \"#utility.yul\":870:875   */\n      dup2\n        /* \"#utility.yul\":866:882   */\n      add\n        /* \"#utility.yul\":915:918   */\n      dup5\n        /* \"#utility.yul\":906:912   */\n      dup5\n        /* \"#utility.yul\":901:904   */\n      dup5\n        /* \"#utility.yul\":897:913   */\n      add\n        /* \"#utility.yul\":894:919   */\n      gt\n        /* \"#utility.yul\":891:893   */\n      iszero\n      tag_75\n      jumpi\n        /* \"#utility.yul\":932:933   */\n      0x00\n        /* \"#utility.yul\":929:930   */\n      dup1\n        /* \"#utility.yul\":922:934   */\n      revert\n        /* \"#utility.yul\":891:893   */\n    tag_75:\n        /* \"#utility.yul\":945:986   */\n      tag_76\n        /* \"#utility.yul\":979:985   */\n      dup5\n        /* \"#utility.yul\":974:977   */\n      dup3\n        /* \"#utility.yul\":969:972   */\n      dup6\n        /* \"#utility.yul\":945:986   */\n      tag_77\n      jump\t// in\n    tag_76:\n        /* \"#utility.yul\":732:992   */\n      pop\n      swap4\n      swap3\n      pop\n      pop\n      pop\n      jump\t// out\n        /* \"#utility.yul\":1014:1315   */\n    tag_78:\n      0x00\n        /* \"#utility.yul\":1133:1136   */\n      dup3\n        /* \"#utility.yul\":1126:1130   */\n      0x1f\n        /* \"#utility.yul\":1118:1124   */\n      dup4\n        /* \"#utility.yul\":1114:1131   */\n      add\n        /* \"#utility.yul\":1110:1137   */\n      slt\n        /* \"#utility.yul\":1100:1102   */\n      tag_80\n      jumpi\n        /* \"#utility.yul\":1151:1152   */\n      0x00\n        /* \"#utility.yul\":1148:1149   */\n      dup1\n        /* \"#utility.yul\":1141:1153   */\n      revert\n        /* \"#utility.yul\":1100:1102   */\n    tag_80:\n        /* \"#utility.yul\":1191:1197   */\n      dup2\n        /* \"#utility.yul\":1178:1198   */\n      calldataload\n        /* \"#utility.yul\":1216:1309   */\n      tag_81\n        /* \"#utility.yul\":1305:1308   */\n      dup5\n        /* \"#utility.yul\":1297:1303   */\n      dup3\n        /* \"#utility.yul\":1290:1294   */\n      0x20\n        /* \"#utility.yul\":1282:1288   */\n      dup7\n        /* \"#utility.yul\":1278:1295   */\n      add\n        /* \"#utility.yul\":1216:1309   */\n      tag_58\n      jump\t// in\n    tag_81:\n        /* \"#utility.yul\":1207:1309   */\n      swap2\n      pop\n        /* \"#utility.yul\":1090:1315   */\n      pop\n      swap3\n      swap2\n      pop\n      pop\n      jump\t// out\n        /* \"#utility.yul\":1321:1480   */\n    tag_82:\n      0x00\n        /* \"#utility.yul\":1415:1421   */\n      dup2\n        /* \"#utility.yul\":1402:1422   */\n      calldataload\n        /* \"#utility.yul\":1393:1422   */\n      swap1\n      pop\n        /* \"#utility.yul\":1431:1474   */\n      tag_84\n        /* \"#utility.yul\":1468:1473   */\n      dup2\n        /* \"#utility.yul\":1431:1474   */\n      tag_85\n      jump\t// in\n    tag_84:\n        /* \"#utility.yul\":1383:1480   */\n      swap3\n      swap2\n      pop\n      pop\n      jump\t// out\n        /* \"#utility.yul\":1486:1623   */\n    tag_69:\n      0x00\n        /* \"#utility.yul\":1569:1575   */\n      dup2\n        /* \"#utility.yul\":1556:1576   */\n      calldataload\n        /* \"#utility.yul\":1547:1576   */\n      swap1\n      pop\n        /* \"#utility.yul\":1585:1617   */\n      tag_87\n        /* \"#utility.yul\":1611:1616   */\n      dup2\n        /* \"#utility.yul\":1585:1617   */\n      tag_88\n      jump\t// in\n    tag_87:\n        /* \"#utility.yul\":1537:1623   */\n      swap3\n      swap2\n      pop\n      pop\n      jump\t// out\n        /* \"#utility.yul\":1643:1916   */\n    tag_89:\n      0x00\n        /* \"#utility.yul\":1748:1751   */\n      dup3\n        /* \"#utility.yul\":1741:1745   */\n      0x1f\n        /* \"#utility.yul\":1733:1739   */\n      dup4\n        /* \"#utility.yul\":1729:1746   */\n      add\n        /* \"#utility.yul\":1725:1752   */\n      slt\n        /* \"#utility.yul\":1715:1717   */\n      tag_91\n      jumpi\n        /* \"#utility.yul\":1766:1767   */\n      0x00\n        /* \"#utility.yul\":1763:1764   */\n      dup1\n        /* \"#utility.yul\":1756:1768   */\n      revert\n        /* \"#utility.yul\":1715:1717   */\n    tag_91:\n        /* \"#utility.yul\":1806:1812   */\n      dup2\n        /* \"#utility.yul\":1793:1813   */\n      calldataload\n        /* \"#utility.yul\":1831:1910   */\n      tag_92\n        /* \"#utility.yul\":1906:1909   */\n      dup5\n        /* \"#utility.yul\":1898:1904   */\n      dup3\n        /* \"#utility.yul\":1891:1895   */\n      0x20\n        /* \"#utility.yul\":1883:1889   */\n      dup7\n        /* \"#utility.yul\":1879:1896   */\n      add\n        /* \"#utility.yul\":1831:1910   */\n      tag_70\n      jump\t// in\n    tag_92:\n        /* \"#utility.yul\":1822:1910   */\n      swap2\n      pop\n        /* \"#utility.yul\":1705:1916   */\n      pop\n      swap3\n      swap2\n      pop\n      pop\n      jump\t// out\n        /* \"#utility.yul\":1922:2633   */\n    tag_17:\n      0x00\n      dup1\n      0x00\n        /* \"#utility.yul\":2097:2099   */\n      0x60\n        /* \"#utility.yul\":2085:2094   */\n      dup5\n        /* \"#utility.yul\":2076:2083   */\n      dup7\n        /* \"#utility.yul\":2072:2095   */\n      sub\n        /* \"#utility.yul\":2068:2100   */\n      slt\n        /* \"#utility.yul\":2065:2067   */\n      iszero\n      tag_94\n      jumpi\n        /* \"#utility.yul\":2113:2114   */\n      0x00\n        /* \"#utility.yul\":2110:2111   */\n      dup1\n        /* \"#utility.yul\":2103:2115   */\n      revert\n        /* \"#utility.yul\":2065:2067   */\n    tag_94:\n        /* \"#utility.yul\":2156:2157   */\n      0x00\n        /* \"#utility.yul\":2181:2233   */\n      tag_95\n        /* \"#utility.yul\":2225:2232   */\n      dup7\n        /* \"#utility.yul\":2216:2222   */\n      dup3\n        /* \"#utility.yul\":2205:2214   */\n      dup8\n        /* \"#utility.yul\":2201:2223   */\n      add\n        /* \"#utility.yul\":2181:2233   */\n      tag_69\n      jump\t// in\n    tag_95:\n        /* \"#utility.yul\":2171:2233   */\n      swap4\n      pop\n        /* \"#utility.yul\":2127:2243   */\n      pop\n        /* \"#utility.yul\":2310:2312   */\n      0x20\n        /* \"#utility.yul\":2299:2308   */\n      dup5\n        /* \"#utility.yul\":2295:2313   */\n      add\n        /* \"#utility.yul\":2282:2314   */\n      calldataload\n        /* \"#utility.yul\":2341:2359   */\n      0xffffffffffffffff\n        /* \"#utility.yul\":2333:2339   */\n      dup2\n        /* \"#utility.yul\":2330:2360   */\n      gt\n        /* \"#utility.yul\":2327:2329   */\n      iszero\n      tag_96\n      jumpi\n        /* \"#utility.yul\":2373:2374   */\n      0x00\n        /* \"#utility.yul\":2370:2371   */\n      dup1\n        /* \"#utility.yul\":2363:2375   */\n      revert\n        /* \"#utility.yul\":2327:2329   */\n    tag_96:\n        /* \"#utility.yul\":2401:2478   */\n      tag_97\n        /* \"#utility.yul\":2470:2477   */\n      dup7\n        /* \"#utility.yul\":2461:2467   */\n      dup3\n        /* \"#utility.yul\":2450:2459   */\n      dup8\n        /* \"#utility.yul\":2446:2468   */\n      add\n        /* \"#utility.yul\":2401:2478   */\n      tag_78\n      jump\t// in\n    tag_97:\n        /* \"#utility.yul\":2391:2478   */\n      swap3\n      pop\n        /* \"#utility.yul\":2253:2488   */\n      pop\n        /* \"#utility.yul\":2527:2529   */\n      0x40\n        /* \"#utility.yul\":2553:2616   */\n      tag_98\n        /* \"#utility.yul\":2608:2615   */\n      dup7\n        /* \"#utility.yul\":2599:2605   */\n      dup3\n        /* \"#utility.yul\":2588:2597   */\n      dup8\n        /* \"#utility.yul\":2584:2606   */\n      add\n        /* \"#utility.yul\":2553:2616   */\n      tag_82\n      jump\t// in\n    tag_98:\n        /* \"#utility.yul\":2543:2616   */\n      swap2\n      pop\n        /* \"#utility.yul\":2498:2626   */\n      pop\n        /* \"#utility.yul\":2055:2633   */\n      swap3\n      pop\n      swap3\n      pop\n      swap3\n      jump\t// out\n        /* \"#utility.yul\":2639:3437   */\n    tag_7:\n      0x00\n      dup1\n      0x00\n        /* \"#utility.yul\":2811:2813   */\n      0x60\n        /* \"#utility.yul\":2799:2808   */\n      dup5\n        /* \"#utility.yul\":2790:2797   */\n      dup7\n        /* \"#utility.yul\":2786:2809   */\n      sub\n        /* \"#utility.yul\":2782:2814   */\n      slt\n        /* \"#utility.yul\":2779:2781   */\n      iszero\n      tag_100\n      jumpi\n        /* \"#utility.yul\":2827:2828   */\n      0x00\n        /* \"#utility.yul\":2824:2825   */\n      dup1\n        /* \"#utility.yul\":2817:2829   */\n      revert\n        /* \"#utility.yul\":2779:2781   */\n    tag_100:\n        /* \"#utility.yul\":2898:2899   */\n      0x00\n        /* \"#utility.yul\":2887:2896   */\n      dup5\n        /* \"#utility.yul\":2883:2900   */\n      add\n        /* \"#utility.yul\":2870:2901   */\n      calldataload\n        /* \"#utility.yul\":2928:2946   */\n      0xffffffffffffffff\n        /* \"#utility.yul\":2920:2926   */\n      dup2\n        /* \"#utility.yul\":2917:2947   */\n      gt\n        /* \"#utility.yul\":2914:2916   */\n      iszero\n      tag_101\n      jumpi\n        /* \"#utility.yul\":2960:2961   */\n      0x00\n        /* \"#utility.yul\":2957:2958   */\n      dup1\n        /* \"#utility.yul\":2950:2962   */\n      revert\n        /* \"#utility.yul\":2914:2916   */\n    tag_101:\n        /* \"#utility.yul\":2988:3051   */\n      tag_102\n        /* \"#utility.yul\":3043:3050   */\n      dup7\n        /* \"#utility.yul\":3034:3040   */\n      dup3\n        /* \"#utility.yul\":3023:3032   */\n      dup8\n        /* \"#utility.yul\":3019:3041   */\n      add\n        /* \"#utility.yul\":2988:3051   */\n      tag_89\n      jump\t// in\n    tag_102:\n        /* \"#utility.yul\":2978:3051   */\n      swap4\n      pop\n        /* \"#utility.yul\":2841:3061   */\n      pop\n        /* \"#utility.yul\":3128:3130   */\n      0x20\n        /* \"#utility.yul\":3117:3126   */\n      dup5\n        /* \"#utility.yul\":3113:3131   */\n      add\n        /* \"#utility.yul\":3100:3132   */\n      calldataload\n        /* \"#utility.yul\":3159:3177   */\n      0xffffffffffffffff\n        /* \"#utility.yul\":3151:3157   */\n      dup2\n        /* \"#utility.yul\":3148:3178   */\n      gt\n        /* \"#utility.yul\":3145:3147   */\n      iszero\n      tag_103\n      jumpi\n        /* \"#utility.yul\":3191:3192   */\n      0x00\n        /* \"#utility.yul\":3188:3189   */\n      dup1\n        /* \"#utility.yul\":3181:3193   */\n      revert\n        /* \"#utility.yul\":3145:3147   */\n    tag_103:\n        /* \"#utility.yul\":3219:3282   */\n      tag_104\n        /* \"#utility.yul\":3274:3281   */\n      dup7\n        /* \"#utility.yul\":3265:3271   */\n      dup3\n        /* \"#utility.yul\":3254:3263   */\n      dup8\n        /* \"#utility.yul\":3250:3272   */\n      add\n        /* \"#utility.yul\":3219:3282   */\n      tag_89\n      jump\t// in\n    tag_104:\n        /* \"#utility.yul\":3209:3282   */\n      swap3\n      pop\n        /* \"#utility.yul\":3071:3292   */\n      pop\n        /* \"#utility.yul\":3331:3333   */\n      0x40\n        /* \"#utility.yul\":3357:3420   */\n      tag_105\n        /* \"#utility.yul\":3412:3419   */\n      dup7\n        /* \"#utility.yul\":3403:3409   */\n      dup3\n        /* \"#utility.yul\":3392:3401   */\n      dup8\n        /* \"#utility.yul\":3388:3410   */\n      add\n        /* \"#utility.yul\":3357:3420   */\n      tag_82\n      jump\t// in\n    tag_105:\n        /* \"#utility.yul\":3347:3420   */\n      swap2\n      pop\n        /* \"#utility.yul\":3302:3430   */\n      pop\n        /* \"#utility.yul\":2769:3437   */\n      swap3\n      pop\n      swap3\n      pop\n      swap3\n      jump\t// out\n        /* \"#utility.yul\":3443:3560   */\n    tag_106:\n        /* \"#utility.yul\":3532:3553   */\n      tag_108\n        /* \"#utility.yul\":3547:3552   */\n      dup2\n        /* \"#utility.yul\":3532:3553   */\n      tag_109\n      jump\t// in\n    tag_108:\n        /* \"#utility.yul\":3527:3530   */\n      dup3\n        /* \"#utility.yul\":3520:3554   */\n      mstore\n        /* \"#utility.yul\":3510:3560   */\n      pop\n      pop\n      jump\t// out\n        /* \"#utility.yul\":3566:3692   */\n    tag_110:\n        /* \"#utility.yul\":3661:3685   */\n      tag_112\n        /* \"#utility.yul\":3679:3684   */\n      dup2\n        /* \"#utility.yul\":3661:3685   */\n      tag_113\n      jump\t// in\n    tag_112:\n        /* \"#utility.yul\":3656:3659   */\n      dup3\n        /* \"#utility.yul\":3649:3686   */\n      mstore\n        /* \"#utility.yul\":3639:3692   */\n      pop\n      pop\n      jump\t// out\n        /* \"#utility.yul\":3698:3924   */\n    tag_10:\n      0x00\n        /* \"#utility.yul\":3831:3833   */\n      0x20\n        /* \"#utility.yul\":3820:3829   */\n      dup3\n        /* \"#utility.yul\":3816:3834   */\n      add\n        /* \"#utility.yul\":3808:3834   */\n      swap1\n      pop\n        /* \"#utility.yul\":3844:3917   */\n      tag_115\n        /* \"#utility.yul\":3914:3915   */\n      0x00\n        /* \"#utility.yul\":3903:3912   */\n      dup4\n        /* \"#utility.yul\":3899:3916   */\n      add\n        /* \"#utility.yul\":3890:3896   */\n      dup5\n        /* \"#utility.yul\":3844:3917   */\n      tag_106\n      jump\t// in\n    tag_115:\n        /* \"#utility.yul\":3798:3924   */\n      swap3\n      swap2\n      pop\n      pop\n      jump\t// out\n        /* \"#utility.yul\":3930:4168   */\n    tag_14:\n      0x00\n        /* \"#utility.yul\":4069:4071   */\n      0x20\n        /* \"#utility.yul\":4058:4067   */\n      dup3\n        /* \"#utility.yul\":4054:4072   */\n      add\n        /* \"#utility.yul\":4046:4072   */\n      swap1\n      pop\n        /* \"#utility.yul\":4082:4161   */\n      tag_117\n        /* \"#utility.yul\":4158:4159   */\n      0x00\n        /* \"#utility.yul\":4147:4156   */\n      dup4\n        /* \"#utility.yul\":4143:4160   */\n      add\n        /* \"#utility.yul\":4134:4140   */\n      dup5\n        /* \"#utility.yul\":4082:4161   */\n      tag_110\n      jump\t// in\n    tag_117:\n        /* \"#utility.yul\":4036:4168   */\n      swap3\n      swap2\n      pop\n      pop\n      jump\t// out\n        /* \"#utility.yul\":4174:4457   */\n    tag_63:\n      0x00\n        /* \"#utility.yul\":4240:4242   */\n      0x40\n        /* \"#utility.yul\":4234:4243   */\n      mload\n        /* \"#utility.yul\":4224:4243   */\n      swap1\n      pop\n        /* \"#utility.yul\":4282:4286   */\n      dup2\n        /* \"#utility.yul\":4274:4280   */\n      dup2\n        /* \"#utility.yul\":4270:4287   */\n      add\n        /* \"#utility.yul\":4389:4395   */\n      dup2\n        /* \"#utility.yul\":4377:4387   */\n      dup2\n        /* \"#utility.yul\":4374:4396   */\n      lt\n        /* \"#utility.yul\":4353:4371   */\n      0xffffffffffffffff\n        /* \"#utility.yul\":4341:4351   */\n      dup3\n        /* \"#utility.yul\":4338:4372   */\n      gt\n        /* \"#utility.yul\":4335:4397   */\n      or\n        /* \"#utility.yul\":4332:4334   */\n      iszero\n      tag_119\n      jumpi\n        /* \"#utility.yul\":4400:4418   */\n      tag_120\n      tag_121\n      jump\t// in\n    tag_120:\n        /* \"#utility.yul\":4332:4334   */\n    tag_119:\n        /* \"#utility.yul\":4440:4450   */\n      dup1\n        /* \"#utility.yul\":4436:4438   */\n      0x40\n        /* \"#utility.yul\":4429:4451   */\n      mstore\n        /* \"#utility.yul\":4214:4457   */\n      pop\n      swap2\n      swap1\n      pop\n      jump\t// out\n        /* \"#utility.yul\":4463:4773   */\n    tag_62:\n      0x00\n        /* \"#utility.yul\":4629:4647   */\n      0xffffffffffffffff\n        /* \"#utility.yul\":4621:4627   */\n      dup3\n        /* \"#utility.yul\":4618:4648   */\n      gt\n        /* \"#utility.yul\":4615:4617   */\n      iszero\n      tag_123\n      jumpi\n        /* \"#utility.yul\":4651:4669   */\n      tag_124\n      tag_121\n      jump\t// in\n    tag_124:\n        /* \"#utility.yul\":4615:4617   */\n    tag_123:\n        /* \"#utility.yul\":4701:4705   */\n      0x20\n        /* \"#utility.yul\":4693:4699   */\n      dup3\n        /* \"#utility.yul\":4689:4706   */\n      mul\n        /* \"#utility.yul\":4681:4706   */\n      swap1\n      pop\n        /* \"#utility.yul\":4761:4765   */\n      0x20\n        /* \"#utility.yul\":4755:4759   */\n      dup2\n        /* \"#utility.yul\":4751:4766   */\n      add\n        /* \"#utility.yul\":4743:4766   */\n      swap1\n      pop\n        /* \"#utility.yul\":4544:4773   */\n      swap2\n      swap1\n      pop\n      jump\t// out\n        /* \"#utility.yul\":4779:5111   */\n    tag_74:\n      0x00\n        /* \"#utility.yul\":4931:4949   */\n      0xffffffffffffffff\n        /* \"#utility.yul\":4923:4929   */\n      dup3\n        /* \"#utility.yul\":4920:4950   */\n      gt\n        /* \"#utility.yul\":4917:4919   */\n      iszero\n      tag_126\n      jumpi\n        /* \"#utility.yul\":4953:4971   */\n      tag_127\n      tag_121\n      jump\t// in\n    tag_127:\n        /* \"#utility.yul\":4917:4919   */\n    tag_126:\n        /* \"#utility.yul\":5038:5042   */\n      0x1f\n        /* \"#utility.yul\":5034:5043   */\n      not\n        /* \"#utility.yul\":5027:5031   */\n      0x1f\n        /* \"#utility.yul\":5019:5025   */\n      dup4\n        /* \"#utility.yul\":5015:5032   */\n      add\n        /* \"#utility.yul\":5011:5044   */\n      and\n        /* \"#utility.yul\":5003:5044   */\n      swap1\n      pop\n        /* \"#utility.yul\":5099:5103   */\n      0x20\n        /* \"#utility.yul\":5093:5097   */\n      dup2\n        /* \"#utility.yul\":5089:5104   */\n      add\n        /* \"#utility.yul\":5081:5104   */\n      swap1\n      pop\n        /* \"#utility.yul\":4846:5111   */\n      swap2\n      swap1\n      pop\n      jump\t// out\n        /* \"#utility.yul\":5117:5207   */\n    tag_109:\n      0x00\n        /* \"#utility.yul\":5194:5199   */\n      dup2\n        /* \"#utility.yul\":5187:5200   */\n      iszero\n        /* \"#utility.yul\":5180:5201   */\n      iszero\n        /* \"#utility.yul\":5169:5201   */\n      swap1\n      pop\n        /* \"#utility.yul\":5159:5207   */\n      swap2\n      swap1\n      pop\n      jump\t// out\n        /* \"#utility.yul\":5213:5289   */\n    tag_129:\n      0x00\n        /* \"#utility.yul\":5278:5283   */\n      dup2\n        /* \"#utility.yul\":5267:5283   */\n      swap1\n      pop\n        /* \"#utility.yul\":5257:5289   */\n      swap2\n      swap1\n      pop\n      jump\t// out\n        /* \"#utility.yul\":5295:5372   */\n    tag_113:\n      0x00\n        /* \"#utility.yul\":5361:5366   */\n      dup2\n        /* \"#utility.yul\":5350:5366   */\n      swap1\n      pop\n        /* \"#utility.yul\":5340:5372   */\n      swap2\n      swap1\n      pop\n      jump\t// out\n        /* \"#utility.yul\":5378:5532   */\n    tag_77:\n        /* \"#utility.yul\":5462:5468   */\n      dup3\n        /* \"#utility.yul\":5457:5460   */\n      dup2\n        /* \"#utility.yul\":5452:5455   */\n      dup4\n        /* \"#utility.yul\":5439:5469   */\n      calldatacopy\n        /* \"#utility.yul\":5524:5525   */\n      0x00\n        /* \"#utility.yul\":5515:5521   */\n      dup4\n        /* \"#utility.yul\":5510:5513   */\n      dup4\n        /* \"#utility.yul\":5506:5522   */\n      add\n        /* \"#utility.yul\":5499:5526   */\n      mstore\n        /* \"#utility.yul\":5429:5532   */\n      pop\n      pop\n      pop\n      jump\t// out\n        /* \"#utility.yul\":5538:5771   */\n    tag_56:\n      0x00\n        /* \"#utility.yul\":5600:5624   */\n      tag_134\n        /* \"#utility.yul\":5618:5623   */\n      dup3\n        /* \"#utility.yul\":5600:5624   */\n      tag_113\n      jump\t// in\n    tag_134:\n        /* \"#utility.yul\":5591:5624   */\n      swap2\n      pop\n        /* \"#utility.yul\":5646:5712   */\n      0xffffffffffffffffffffffffffffffffffffffffffffffffffffffffffffffff\n        /* \"#utility.yul\":5639:5644   */\n      dup3\n        /* \"#utility.yul\":5636:5713   */\n      eq\n        /* \"#utility.yul\":5633:5635   */\n      iszero\n      tag_135\n      jumpi\n        /* \"#utility.yul\":5716:5734   */\n      tag_136\n      tag_137\n      jump\t// in\n    tag_136:\n        /* \"#utility.yul\":5633:5635   */\n    tag_135:\n        /* \"#utility.yul\":5763:5764   */\n      0x01\n        /* \"#utility.yul\":5756:5761   */\n      dup3\n        /* \"#utility.yul\":5752:5765   */\n      add\n        /* \"#utility.yul\":5745:5765   */\n      swap1\n      pop\n        /* \"#utility.yul\":5581:5771   */\n      swap2\n      swap1\n      pop\n      jump\t// out\n        /* \"#utility.yul\":5777:5957   */\n    tag_137:\n        /* \"#utility.yul\":5825:5902   */\n      0x4e487b7100000000000000000000000000000000000000000000000000000000\n        /* \"#utility.yul\":5822:5823   */\n      0x00\n        /* \"#utility.yul\":5815:5903   */\n      mstore\n        /* \"#utility.yul\":5922:5926   */\n      0x11\n        /* \"#utility.yul\":5919:5920   */\n      0x04\n        /* \"#utility.yul\":5912:5927   */\n      mstore\n        /* \"#utility.yul\":5946:5950   */\n      0x24\n        /* \"#utility.yul\":5943:5944   */\n      0x00\n        /* \"#utility.yul\":5936:5951   */\n      revert\n        /* \"#utility.yul\":5963:6143   */\n    tag_121:\n        /* \"#utility.yul\":6011:6088   */\n      0x4e487b7100000000000000000000000000000000000000000000000000000000\n        /* \"#utility.yul\":6008:6009   */\n      0x00\n        /* \"#utility.yul\":6001:6089   */\n      mstore\n        /* \"#utility.yul\":6108:6112   */\n      0x41\n        /* \"#utility.yul\":6105:6106   */\n      0x04\n        /* \"#utility.yul\":6098:6113   */\n      mstore\n        /* \"#utility.yul\":6132:6136   */\n      0x24\n        /* \"#utility.yul\":6129:6130   */\n      0x00\n        /* \"#utility.yul\":6122:6137   */\n      revert\n        /* \"#utility.yul\":6149:6258   */\n    tag_85:\n        /* \"#utility.yul\":6232:6233   */\n      0x07\n        /* \"#utility.yul\":6225:6230   */\n      dup2\n        /* \"#utility.yul\":6222:6234   */\n      lt\n        /* \"#utility.yul\":6212:6214   */\n      tag_141\n      jumpi\n        /* \"#utility.yul\":6248:6249   */\n      0x00\n        /* \"#utility.yul\":6245:6246   */\n      dup1\n        /* \"#utility.yul\":6238:6250   */\n      revert\n        /* \"#utility.yul\":6212:6214   */\n    tag_141:\n        /* \"#utility.yul\":6202:6258   */\n      pop\n      jump\t// out\n        /* \"#utility.yul\":6264:6384   */\n    tag_88:\n        /* \"#utility.yul\":6336:6359   */\n      tag_143\n        /* \"#utility.yul\":6353:6358   */\n      dup2\n        /* \"#utility.yul\":6336:6359   */\n      tag_129\n      jump\t// in\n    tag_143:\n        /* \"#utility.yul\":6329:6334   */\n      dup2\n        /* \"#utility.yul\":6326:6360   */\n      eq\n        /* \"#utility.yul\":6316:6318   */\n      tag_144\n      jumpi\n        /* \"#utility.yul\":6374:6375   */\n      0x00\n        /* \"#utility.yul\":6371:6372   */\n      dup1\n        /* \"#utility.yul\":6364:6376   */\n      revert\n        /* \"#utility.yul\":6316:6318   */\n    tag_144:\n        /* \"#utility.yul\":6306:6384   */\n      pop\n      jump\t// out\n\n    auxdata: 0xa2646970667358221220f4f61aae8ad00343d47ded42e34bdad8d36f8bf0e818786c79429225b140b5a264736f6c63430008000033\n}\n","bytecode":{"linkReferences":{},"object":"610a68610053600b82828239805160001a607314610046577f4e487b7100000000000000000000000000000000000000000000000000000000600052600060045260246000fd5b30600052607381538281f3fe730000000000000000000000000000000000000000301460806040526004361061004b5760003560e01c8063a8c0bf8e14610050578063c237647f14610080578063e1df7ad61461009e575b600080fd5b61006a600480360381019061006591906107d5565b6100ce565b6040516100779190610872565b60405180910390f35b61008861016f565b604051610095919061088d565b60405180910390f35b6100b860048036038101906100b3919061076e565b610178565b6040516100c59190610872565b60405180910390f35b600080838051906020012085805190602001201490506002600681111561011e577f4e487b7100000000000000000000000000000000000000000000000000000000600052602160045260246000fd5b836006811115610157577f4e487b7100000000000000000000000000000000000000000000000000000000600052602160045260246000fd5b14610163578015610165565b805b9150509392505050565b60006007905090565b60008060068111156101b3577f4e487b7100000000000000000000000000000000000000000000000000000000600052602160045260246000fd5b8260068111156101ec577f4e487b7100000000000000000000000000000000000000000000000000000000600052602160045260246000fd5b141561023d578260008151811061022c577f4e487b7100000000000000000000000000000000000000000000000000000000600052603260045260246000fd5b60200260200101518412905061063f565b60016006811115610277577f4e487b7100000000000000000000000000000000000000000000000000000000600052602160045260246000fd5b8260068111156102b0577f4e487b7100000000000000000000000000000000000000000000000000000000600052602160045260246000fd5b141561030157826000815181106102f0577f4e487b7100000000000000000000000000000000000000000000000000000000600052603260045260246000fd5b60200260200101518413905061063f565b6002600681111561033b577f4e487b7100000000000000000000000000000000000000000000000000000000600052602160045260246000fd5b826006811115610374577f4e487b7100000000000000000000000000000000000000000000000000000000600052602160045260246000fd5b14156103c557826000815181106103b4577f4e487b7100000000000000000000000000000000000000000000000000000000600052603260045260246000fd5b60200260200101518414905061063f565b600460068111156103ff577f4e487b7100000000000000000000000000000000000000000000000000000000600052602160045260246000fd5b826006811115610438577f4e487b7100000000000000000000000000000000000000000000000000000000600052602160045260246000fd5b141561048a5782600081518110610478577f4e487b7100000000000000000000000000000000000000000000000000000000600052603260045260246000fd5b6020026020010151841315905061063f565b600560068111156104c4577f4e487b7100000000000000000000000000000000000000000000000000000000600052602160045260246000fd5b8260068111156104fd577f4e487b7100000000000000000000000000000000000000000000000000000000600052602160045260246000fd5b141561054f578260008151811061053d577f4e487b7100000000000000000000000000000000000000000000000000000000600052603260045260246000fd5b6020026020010151841215905061063f565b600680811115610588577f4e487b7100000000000000000000000000000000000000000000000000000000600052602160045260246000fd5b8260068111156105c1577f4e487b7100000000000000000000000000000000000000000000000000000000600052602160045260246000fd5b141561063a5760005b83518110156106385783818151811061060c577f4e487b7100000000000000000000000000000000000000000000000000000000600052603260045260246000fd5b602002602001015185141561062557600191505061063f565b808061063090610964565b9150506105ca565b505b600090505b9392505050565b6000610659610654846108d9565b6108a8565b9050808382526020820190508285602086028201111561067857600080fd5b60005b858110156106a8578161068e888261072f565b84526020840193506020830192505060018101905061067b565b5050509392505050565b60006106c56106c084610905565b6108a8565b9050828152602081018484840111156106dd57600080fd5b6106e8848285610955565b509392505050565b600082601f83011261070157600080fd5b8135610711848260208601610646565b91505092915050565b60008135905061072981610a0b565b92915050565b60008135905061073e81610a1b565b92915050565b600082601f83011261075557600080fd5b81356107658482602086016106b2565b91505092915050565b60008060006060848603121561078357600080fd5b60006107918682870161072f565b935050602084013567ffffffffffffffff8111156107ae57600080fd5b6107ba868287016106f0565b92505060406107cb8682870161071a565b9150509250925092565b6000806000606084860312156107ea57600080fd5b600084013567ffffffffffffffff81111561080457600080fd5b61081086828701610744565b935050602084013567ffffffffffffffff81111561082d57600080fd5b61083986828701610744565b925050604061084a8682870161071a565b9150509250925092565b61085d81610935565b82525050565b61086c8161094b565b82525050565b60006020820190506108876000830184610854565b92915050565b60006020820190506108a26000830184610863565b92915050565b6000604051905081810181811067ffffffffffffffff821117156108cf576108ce6109dc565b5b8060405250919050565b600067ffffffffffffffff8211156108f4576108f36109dc565b5b602082029050602081019050919050565b600067ffffffffffffffff8211156109205761091f6109dc565b5b601f19601f8301169050602081019050919050565b60008115159050919050565b6000819050919050565b6000819050919050565b82818337600083830152505050565b600061096f8261094b565b91507fffffffffffffffffffffffffffffffffffffffffffffffffffffffffffffffff8214156109a2576109a16109ad565b5b600182019050919050565b7f4e487b7100000000000000000000000000000000000000000000000000000000600052601160045260246000fd5b7f4e487b7100000000000000000000000000000000000000000000000000000000600052604160045260246000fd5b60078110610a1857600080fd5b50565b610a2481610941565b8114610a2f57600080fd5b5056fea2646970667358221220f4f61aae8ad00343d47ded42e34bdad8d36f8bf0e818786c79429225b140b5a264736f6c63430008000033","opcodes":"PUSH2 0xA68 PUSH2 0x53 PUSH1 0xB DUP3 DUP3 DUP3 CODECOPY DUP1 MLOAD PUSH1 0x0 BYTE PUSH1 0x73 EQ PUSH2 0x46 JUMPI PUSH32 0x4E487B7100000000000000000000000000000000000000000000000000000000 PUSH1 0x0 MSTORE PUSH1 0x0 PUSH1 0x4 MSTORE PUSH1 0x24 PUSH1 0x0 REVERT JUMPDEST ADDRESS PUSH1 0x0 MSTORE PUSH1 0x73 DUP2 MSTORE8 DUP3 DUP2 RETURN INVALID PUSH20 0x0 ADDRESS EQ PUSH1 0x80 PUSH1 0x40 MSTORE PUSH1 0x4 CALLDATASIZE LT PUSH2 0x4B JUMPI PUSH1 0x0 CALLDATALOAD PUSH1 0xE0 SHR DUP1 PUSH4 0xA8C0BF8E EQ PUSH2 0x50 JUMPI DUP1 PUSH4 0xC237647F EQ PUSH2 0x80 JUMPI DUP1 PUSH4 0xE1DF7AD6 EQ PUSH2 0x9E JUMPI JUMPDEST PUSH1 0x0 DUP1 REVERT JUMPDEST PUSH2 0x6A PUSH1 0x4 DUP1 CALLDATASIZE SUB DUP2 ADD SWAP1 PUSH2 0x65 SWAP2 SWAP1 PUSH2 0x7D5 JUMP JUMPDEST PUSH2 0xCE JUMP JUMPDEST PUSH1 0x40 MLOAD PUSH2 0x77 SWAP2 SWAP1 PUSH2 0x872 JUMP JUMPDEST PUSH1 0x40 MLOAD DUP1 SWAP2 SUB SWAP1 RETURN JUMPDEST PUSH2 0x88 PUSH2 0x16F JUMP JUMPDEST PUSH1 0x40 MLOAD PUSH2 0x95 SWAP2 SWAP1 PUSH2 0x88D JUMP JUMPDEST PUSH1 0x40 MLOAD DUP1 SWAP2 SUB SWAP1 RETURN JUMPDEST PUSH2 0xB8 PUSH1 0x4 DUP1 CALLDATASIZE SUB DUP2 ADD SWAP1 PUSH2 0xB3 SWAP2 SWAP1 PUSH2 0x76E JUMP JUMPDEST PUSH2 0x178 JUMP JUMPDEST PUSH1 0x40 MLOAD PUSH2 0xC5 SWAP2 SWAP1 PUSH2 0x872 JUMP JUMPDEST PUSH1 0x40 MLOAD DUP1 SWAP2 SUB SWAP1 RETURN JUMPDEST PUSH1 0x0 DUP1 DUP4 DUP1 MLOAD SWAP1 PUSH1 0x20 ADD KECCAK256 DUP6 DUP1 MLOAD SWAP1 PUSH1 0x20 ADD KECCAK256 EQ SWAP1 POP PUSH1 0x2 PUSH1 0x6 DUP2 GT ISZERO PUSH2 0x11E JUMPI PUSH32 0x4E487B7100000000000000000000000000000000000000000000000000000000 PUSH1 0x0 MSTORE PUSH1 0x21 PUSH1 0x4 MSTORE PUSH1 0x24 PUSH1 0x0 REVERT JUMPDEST DUP4 PUSH1 0x6 DUP2 GT ISZERO PUSH2 0x157 JUMPI PUSH32 0x4E487B7100000000000000000000000000000000000000000000000000000000 PUSH1 0x0 MSTORE PUSH1 0x21 PUSH1 0x4 MSTORE PUSH1 0x24 PUSH1 0x0 REVERT JUMPDEST EQ PUSH2 0x163 JUMPI DUP1 ISZERO PUSH2 0x165 JUMP JUMPDEST DUP1 JUMPDEST SWAP2 POP POP SWAP4 SWAP3 POP POP POP JUMP JUMPDEST PUSH1 0x0 PUSH1 0x7 SWAP1 POP SWAP1 JUMP JUMPDEST PUSH1 0x0 DUP1 PUSH1 0x6 DUP2 GT ISZERO PUSH2 0x1B3 JUMPI PUSH32 0x4E487B7100000000000000000000000000000000000000000000000000000000 PUSH1 0x0 MSTORE PUSH1 0x21 PUSH1 0x4 MSTORE PUSH1 0x24 PUSH1 0x0 REVERT JUMPDEST DUP3 PUSH1 0x6 DUP2 GT ISZERO PUSH2 0x1EC JUMPI PUSH32 0x4E487B7100000000000000000000000000000000000000000000000000000000 PUSH1 0x0 MSTORE PUSH1 0x21 PUSH1 0x4 MSTORE PUSH1 0x24 PUSH1 0x0 REVERT JUMPDEST EQ ISZERO PUSH2 0x23D JUMPI DUP3 PUSH1 0x0 DUP2 MLOAD DUP2 LT PUSH2 0x22C JUMPI PUSH32 0x4E487B7100000000000000000000000000000000000000000000000000000000 PUSH1 0x0 MSTORE PUSH1 0x32 PUSH1 0x4 MSTORE PUSH1 0x24 PUSH1 0x0 REVERT JUMPDEST PUSH1 0x20 MUL PUSH1 0x20 ADD ADD MLOAD DUP5 SLT SWAP1 POP PUSH2 0x63F JUMP JUMPDEST PUSH1 0x1 PUSH1 0x6 DUP2 GT ISZERO PUSH2 0x277 JUMPI PUSH32 0x4E487B7100000000000000000000000000000000000000000000000000000000 PUSH1 0x0 MSTORE PUSH1 0x21 PUSH1 0x4 MSTORE PUSH1 0x24 PUSH1 0x0 REVERT JUMPDEST DUP3 PUSH1 0x6 DUP2 GT ISZERO PUSH2 0x2B0 JUMPI PUSH32 0x4E487B7100000000000000000000000000000000000000000000000000000000 PUSH1 0x0 MSTORE PUSH1 0x21 PUSH1 0x4 MSTORE PUSH1 0x24 PUSH1 0x0 REVERT JUMPDEST EQ ISZERO PUSH2 0x301 JUMPI DUP3 PUSH1 0x0 DUP2 MLOAD DUP2 LT PUSH2 0x2F0 JUMPI PUSH32 0x4E487B7100000000000000000000000000000000000000000000000000000000 PUSH1 0x0 MSTORE PUSH1 0x32 PUSH1 0x4 MSTORE PUSH1 0x24 PUSH1 0x0 REVERT JUMPDEST PUSH1 0x20 MUL PUSH1 0x20 ADD ADD MLOAD DUP5 SGT SWAP1 POP PUSH2 0x63F JUMP JUMPDEST PUSH1 0x2 PUSH1 0x6 DUP2 GT ISZERO PUSH2 0x33B JUMPI PUSH32 0x4E487B7100000000000000000000000000000000000000000000000000000000 PUSH1 0x0 MSTORE PUSH1 0x21 PUSH1 0x4 MSTORE PUSH1 0x24 PUSH1 0x0 REVERT JUMPDEST DUP3 PUSH1 0x6 DUP2 GT ISZERO PUSH2 0x374 JUMPI PUSH32 0x4E487B7100000000000000000000000000000000000000000000000000000000 PUSH1 0x0 MSTORE PUSH1 0x21 PUSH1 0x4 MSTORE PUSH1 0x24 PUSH1 0x0 REVERT JUMPDEST EQ ISZERO PUSH2 0x3C5 JUMPI DUP3 PUSH1 0x0 DUP2 MLOAD DUP2 LT PUSH2 0x3B4 JUMPI PUSH32 0x4E487B7100000000000000000000000000000000000000000000000000000000 PUSH1 0x0 MSTORE PUSH1 0x32 PUSH1 0x4 MSTORE PUSH1 0x24 PUSH1 0x0 REVERT JUMPDEST PUSH1 0x20 MUL PUSH1 0x20 ADD ADD MLOAD DUP5 EQ SWAP1 POP PUSH2 0x63F JUMP JUMPDEST PUSH1 0x4 PUSH1 0x6 DUP2 GT ISZERO PUSH2 0x3FF JUMPI PUSH32 0x4E487B7100000000000000000000000000000000000000000000000000000000 PUSH1 0x0 MSTORE PUSH1 0x21 PUSH1 0x4 MSTORE PUSH1 0x24 PUSH1 0x0 REVERT JUMPDEST DUP3 PUSH1 0x6 DUP2 GT ISZERO PUSH2 0x438 JUMPI PUSH32 0x4E487B7100000000000000000000000000000000000000000000000000000000 PUSH1 0x0 MSTORE PUSH1 0x21 PUSH1 0x4 MSTORE PUSH1 0x24 PUSH1 0x0 REVERT JUMPDEST EQ ISZERO PUSH2 0x48A JUMPI DUP3 PUSH1 0x0 DUP2 MLOAD DUP2 LT PUSH2 0x478 JUMPI PUSH32 0x4E487B7100000000000000000000000000000000000000000000000000000000 PUSH1 0x0 MSTORE PUSH1 0x32 PUSH1 0x4 MSTORE PUSH1 0x24 PUSH1 0x0 REVERT JUMPDEST PUSH1 0x20 MUL PUSH1 0x20 ADD ADD MLOAD DUP5 SGT ISZERO SWAP1 POP PUSH2 0x63F JUMP JUMPDEST PUSH1 0x5 PUSH1 0x6 DUP2 GT ISZERO PUSH2 0x4C4 JUMPI PUSH32 0x4E487B7100000000000000000000000000000000000000000000000000000000 PUSH1 0x0 MSTORE PUSH1 0x21 PUSH1 0x4 MSTORE PUSH1 0x24 PUSH1 0x0 REVERT JUMPDEST DUP3 PUSH1 0x6 DUP2 GT ISZERO PUSH2 0x4FD JUMPI PUSH32 0x4E487B7100000000000000000000000000000000000000000000000000000000 PUSH1 0x0 MSTORE PUSH1 0x21 PUSH1 0x4 MSTORE PUSH1 0x24 PUSH1 0x0 REVERT JUMPDEST EQ ISZERO PUSH2 0x54F JUMPI DUP3 PUSH1 0x0 DUP2 MLOAD DUP2 LT PUSH2 0x53D JUMPI PUSH32 0x4E487B7100000000000000000000000000000000000000000000000000000000 PUSH1 0x0 MSTORE PUSH1 0x32 PUSH1 0x4 MSTORE PUSH1 0x24 PUSH1 0x0 REVERT JUMPDEST PUSH1 0x20 MUL PUSH1 0x20 ADD ADD MLOAD DUP5 SLT ISZERO SWAP1 POP PUSH2 0x63F JUMP JUMPDEST PUSH1 0x6 DUP1 DUP2 GT ISZERO PUSH2 0x588 JUMPI PUSH32 0x4E487B7100000000000000000000000000000000000000000000000000000000 PUSH1 0x0 MSTORE PUSH1 0x21 PUSH1 0x4 MSTORE PUSH1 0x24 PUSH1 0x0 REVERT JUMPDEST DUP3 PUSH1 0x6 DUP2 GT ISZERO PUSH2 0x5C1 JUMPI PUSH32 0x4E487B7100000000000000000000000000000000000000000000000000000000 PUSH1 0x0 MSTORE PUSH1 0x21 PUSH1 0x4 MSTORE PUSH1 0x24 PUSH1 0x0 REVERT JUMPDEST EQ ISZERO PUSH2 0x63A JUMPI PUSH1 0x0 JUMPDEST DUP4 MLOAD DUP2 LT ISZERO PUSH2 0x638 JUMPI DUP4 DUP2 DUP2 MLOAD DUP2 LT PUSH2 0x60C JUMPI PUSH32 0x4E487B7100000000000000000000000000000000000000000000000000000000 PUSH1 0x0 MSTORE PUSH1 0x32 PUSH1 0x4 MSTORE PUSH1 0x24 PUSH1 0x0 REVERT JUMPDEST PUSH1 0x20 MUL PUSH1 0x20 ADD ADD MLOAD DUP6 EQ ISZERO PUSH2 0x625 JUMPI PUSH1 0x1 SWAP2 POP POP PUSH2 0x63F JUMP JUMPDEST DUP1 DUP1 PUSH2 0x630 SWAP1 PUSH2 0x964 JUMP JUMPDEST SWAP2 POP POP PUSH2 0x5CA JUMP JUMPDEST POP JUMPDEST PUSH1 0x0 SWAP1 POP JUMPDEST SWAP4 SWAP3 POP POP POP JUMP JUMPDEST PUSH1 0x0 PUSH2 0x659 PUSH2 0x654 DUP5 PUSH2 0x8D9 JUMP JUMPDEST PUSH2 0x8A8 JUMP JUMPDEST SWAP1 POP DUP1 DUP4 DUP3 MSTORE PUSH1 0x20 DUP3 ADD SWAP1 POP DUP3 DUP6 PUSH1 0x20 DUP7 MUL DUP3 ADD GT ISZERO PUSH2 0x678 JUMPI PUSH1 0x0 DUP1 REVERT JUMPDEST PUSH1 0x0 JUMPDEST DUP6 DUP2 LT ISZERO PUSH2 0x6A8 JUMPI DUP2 PUSH2 0x68E DUP9 DUP3 PUSH2 0x72F JUMP JUMPDEST DUP5 MSTORE PUSH1 0x20 DUP5 ADD SWAP4 POP PUSH1 0x20 DUP4 ADD SWAP3 POP POP PUSH1 0x1 DUP2 ADD SWAP1 POP PUSH2 0x67B JUMP JUMPDEST POP POP POP SWAP4 SWAP3 POP POP POP JUMP JUMPDEST PUSH1 0x0 PUSH2 0x6C5 PUSH2 0x6C0 DUP5 PUSH2 0x905 JUMP JUMPDEST PUSH2 0x8A8 JUMP JUMPDEST SWAP1 POP DUP3 DUP2 MSTORE PUSH1 0x20 DUP2 ADD DUP5 DUP5 DUP5 ADD GT ISZERO PUSH2 0x6DD JUMPI PUSH1 0x0 DUP1 REVERT JUMPDEST PUSH2 0x6E8 DUP5 DUP3 DUP6 PUSH2 0x955 JUMP JUMPDEST POP SWAP4 SWAP3 POP POP POP JUMP JUMPDEST PUSH1 0x0 DUP3 PUSH1 0x1F DUP4 ADD SLT PUSH2 0x701 JUMPI PUSH1 0x0 DUP1 REVERT JUMPDEST DUP2 CALLDATALOAD PUSH2 0x711 DUP5 DUP3 PUSH1 0x20 DUP7 ADD PUSH2 0x646 JUMP JUMPDEST SWAP2 POP POP SWAP3 SWAP2 POP POP JUMP JUMPDEST PUSH1 0x0 DUP2 CALLDATALOAD SWAP1 POP PUSH2 0x729 DUP2 PUSH2 0xA0B JUMP JUMPDEST SWAP3 SWAP2 POP POP JUMP JUMPDEST PUSH1 0x0 DUP2 CALLDATALOAD SWAP1 POP PUSH2 0x73E DUP2 PUSH2 0xA1B JUMP JUMPDEST SWAP3 SWAP2 POP POP JUMP JUMPDEST PUSH1 0x0 DUP3 PUSH1 0x1F DUP4 ADD SLT PUSH2 0x755 JUMPI PUSH1 0x0 DUP1 REVERT JUMPDEST DUP2 CALLDATALOAD PUSH2 0x765 DUP5 DUP3 PUSH1 0x20 DUP7 ADD PUSH2 0x6B2 JUMP JUMPDEST SWAP2 POP POP SWAP3 SWAP2 POP POP JUMP JUMPDEST PUSH1 0x0 DUP1 PUSH1 0x0 PUSH1 0x60 DUP5 DUP7 SUB SLT ISZERO PUSH2 0x783 JUMPI PUSH1 0x0 DUP1 REVERT JUMPDEST PUSH1 0x0 PUSH2 0x791 DUP7 DUP3 DUP8 ADD PUSH2 0x72F JUMP JUMPDEST SWAP4 POP POP PUSH1 0x20 DUP5 ADD CALLDATALOAD PUSH8 0xFFFFFFFFFFFFFFFF DUP2 GT ISZERO PUSH2 0x7AE JUMPI PUSH1 0x0 DUP1 REVERT JUMPDEST PUSH2 0x7BA DUP7 DUP3 DUP8 ADD PUSH2 0x6F0 JUMP JUMPDEST SWAP3 POP POP PUSH1 0x40 PUSH2 0x7CB DUP7 DUP3 DUP8 ADD PUSH2 0x71A JUMP JUMPDEST SWAP2 POP POP SWAP3 POP SWAP3 POP SWAP3 JUMP JUMPDEST PUSH1 0x0 DUP1 PUSH1 0x0 PUSH1 0x60 DUP5 DUP7 SUB SLT ISZERO PUSH2 0x7EA JUMPI PUSH1 0x0 DUP1 REVERT JUMPDEST PUSH1 0x0 DUP5 ADD CALLDATALOAD PUSH8 0xFFFFFFFFFFFFFFFF DUP2 GT ISZERO PUSH2 0x804 JUMPI PUSH1 0x0 DUP1 REVERT JUMPDEST PUSH2 0x810 DUP7 DUP3 DUP8 ADD PUSH2 0x744 JUMP JUMPDEST SWAP4 POP POP PUSH1 0x20 DUP5 ADD CALLDATALOAD PUSH8 0xFFFFFFFFFFFFFFFF DUP2 GT ISZERO PUSH2 0x82D JUMPI PUSH1 0x0 DUP1 REVERT JUMPDEST PUSH2 0x839 DUP7 DUP3 DUP8 ADD PUSH2 0x744 JUMP JUMPDEST SWAP3 POP POP PUSH1 0x40 PUSH2 0x84A DUP7 DUP3 DUP8 ADD PUSH2 0x71A JUMP JUMPDEST SWAP2 POP POP SWAP3 POP SWAP3 POP SWAP3 JUMP JUMPDEST PUSH2 0x85D DUP2 PUSH2 0x935 JUMP JUMPDEST DUP3 MSTORE POP POP JUMP JUMPDEST PUSH2 0x86C DUP2 PUSH2 0x94B JUMP JUMPDEST DUP3 MSTORE POP POP JUMP JUMPDEST PUSH1 0x0 PUSH1 0x20 DUP3 ADD SWAP1 POP PUSH2 0x887 PUSH1 0x0 DUP4 ADD DUP5 PUSH2 0x854 JUMP JUMPDEST SWAP3 SWAP2 POP POP JUMP JUMPDEST PUSH1 0x0 PUSH1 0x20 DUP3 ADD SWAP1 POP PUSH2 0x8A2 PUSH1 0x0 DUP4 ADD DUP5 PUSH2 0x863 JUMP JUMPDEST SWAP3 SWAP2 POP POP JUMP JUMPDEST PUSH1 0x0 PUSH1 0x40 MLOAD SWAP1 POP DUP2 DUP2 ADD DUP2 DUP2 LT PUSH8 0xFFFFFFFFFFFFFFFF DUP3 GT OR ISZERO PUSH2 0x8CF JUMPI PUSH2 0x8CE PUSH2 0x9DC JUMP JUMPDEST JUMPDEST DUP1 PUSH1 0x40 MSTORE POP SWAP2 SWAP1 POP JUMP JUMPDEST PUSH1 0x0 PUSH8 0xFFFFFFFFFFFFFFFF DUP3 GT ISZERO PUSH2 0x8F4 JUMPI PUSH2 0x8F3 PUSH2 0x9DC JUMP JUMPDEST JUMPDEST PUSH1 0x20 DUP3 MUL SWAP1 POP PUSH1 0x20 DUP2 ADD SWAP1 POP SWAP2 SWAP1 POP JUMP JUMPDEST PUSH1 0x0 PUSH8 0xFFFFFFFFFFFFFFFF DUP3 GT ISZERO PUSH2 0x920 JUMPI PUSH2 0x91F PUSH2 0x9DC JUMP JUMPDEST JUMPDEST PUSH1 0x1F NOT PUSH1 0x1F DUP4 ADD AND SWAP1 POP PUSH1 0x20 DUP2 ADD SWAP1 POP SWAP2 SWAP1 POP JUMP JUMPDEST PUSH1 0x0 DUP2 ISZERO ISZERO SWAP1 POP SWAP2 SWAP1 POP JUMP JUMPDEST PUSH1 0x0 DUP2 SWAP1 POP SWAP2 SWAP1 POP JUMP JUMPDEST PUSH1 0x0 DUP2 SWAP1 POP SWAP2 SWAP1 POP JUMP JUMPDEST DUP3 DUP2 DUP4 CALLDATACOPY PUSH1 0x0 DUP4 DUP4 ADD MSTORE POP POP POP JUMP JUMPDEST PUSH1 0x0 PUSH2 0x96F DUP3 PUSH2 0x94B JUMP JUMPDEST SWAP2 POP PUSH32 0xFFFFFFFFFFFFFFFFFFFFFFFFFFFFFFFFFFFFFFFFFFFFFFFFFFFFFFFFFFFFFFFF DUP3 EQ ISZERO PUSH2 0x9A2 JUMPI PUSH2 0x9A1 PUSH2 0x9AD JUMP JUMPDEST JUMPDEST PUSH1 0x1 DUP3 ADD SWAP1 POP SWAP2 SWAP1 POP JUMP JUMPDEST PUSH32 0x4E487B7100000000000000000000000000000000000000000000000000000000 PUSH1 0x0 MSTORE PUSH1 0x11 PUSH1 0x4 MSTORE PUSH1 0x24 PUSH1 0x0 REVERT JUMPDEST PUSH32 0x4E487B7100000000000000000000000000000000000000000000000000000000 PUSH1 0x0 MSTORE PUSH1 0x41 PUSH1 0x4 MSTORE PUSH1 0x24 PUSH1 0x0 REVERT JUMPDEST PUSH1 0x7 DUP2 LT PUSH2 0xA18 JUMPI PUSH1 0x0 DUP1 REVERT JUMPDEST POP JUMP JUMPDEST PUSH2 0xA24 DUP2 PUSH2 0x941 JUMP JUMPDEST DUP2 EQ PUSH2 0xA2F JUMPI PUSH1 0x0 DUP1 REVERT JUMPDEST POP JUMP INVALID LOG2 PUSH5 0x6970667358 0x22 SLT KECCAK256 DELEGATECALL 0xF6 BYTE 0xAE DUP11 0xD0 SUB NUMBER 0xD4 PUSH30 0xED42E34BDAD8D36F8BF0E818786C79429225B140B5A264736F6C63430008 STOP STOP CALLER "},"gasEstimates":{"creation":{"codeDepositCost":"532800","executionCost":"593","totalCost":"533393"},"external":{"evaluate(int256,int256[],DecisionLibrary.Operator)":"infinite","evaluate(string,string,DecisionLibrary.Operator)":"infinite","returnZwo()":"321"}},"methodIdentifiers":{"evaluate(int256,int256[],DecisionLibrary.Operator)":"e1df7ad6","evaluate(string,string,DecisionLibrary.Operator)":"a8c0bf8e","returnZwo()":"c237647f"}},"storageLayout":{"storage":[],"types":null},"userdoc":{"kind":"user","methods":{},"version":1}}