{"abi":[{"inputs":[],"name":"returnZwo","outputs":[{"internalType":"uint256","name":"zwo","type":"uint256"}],"stateMutability":"pure","type":"function"}],"devdoc":{"kind":"dev","methods":{},"version":1},"evm":{"assembly":"    /* \"DecisionLibrary.sol\":26:2358  library DecisionLibrary{\r... */\n  dataSize(sub_0)\n  dataOffset(sub_0)\n  0x0b\n  dup3\n  dup3\n  dup3\n  codecopy\n  dup1\n  mload\n  0x00\n  byte\n  0x73\n  eq\n  tag_1\n  jumpi\n  mstore(0x00, 0x4e487b7100000000000000000000000000000000000000000000000000000000)\n  mstore(0x04, 0x00)\n  revert(0x00, 0x24)\ntag_1:\n  mstore(0x00, address)\n  0x73\n  dup2\n  mstore8\n  dup3\n  dup2\n  return\nstop\n\nsub_0: assembly {\n        /* \"DecisionLibrary.sol\":26:2358  library DecisionLibrary{\r... */\n      eq(address, deployTimeAddress())\n      mstore(0x40, 0x80)\n      jumpi(tag_1, lt(calldatasize, 0x04))\n      shr(0xe0, calldataload(0x00))\n      dup1\n      0xc237647f\n      eq\n      tag_2\n      jumpi\n    tag_1:\n      0x00\n      dup1\n      revert\n        /* \"DecisionLibrary.sol\":58:136  function returnZwo() public pure returns(uint zwo) {\r... */\n    tag_2:\n      tag_3\n      tag_4\n      jump\t// in\n    tag_3:\n      mload(0x40)\n      tag_5\n      swap2\n      swap1\n      tag_6\n      jump\t// in\n    tag_5:\n      mload(0x40)\n      dup1\n      swap2\n      sub\n      swap1\n      return\n    tag_4:\n        /* \"DecisionLibrary.sol\":99:107  uint zwo */\n      0x00\n        /* \"DecisionLibrary.sol\":127:128  7 */\n      0x07\n        /* \"DecisionLibrary.sol\":120:128  return 7 */\n      swap1\n      pop\n        /* \"DecisionLibrary.sol\":58:136  function returnZwo() public pure returns(uint zwo) {\r... */\n      swap1\n      jump\t// out\n        /* \"#utility.yul\":7:133   */\n    tag_9:\n        /* \"#utility.yul\":102:126   */\n      tag_11\n        /* \"#utility.yul\":120:125   */\n      dup2\n        /* \"#utility.yul\":102:126   */\n      tag_12\n      jump\t// in\n    tag_11:\n        /* \"#utility.yul\":97:100   */\n      dup3\n        /* \"#utility.yul\":90:127   */\n      mstore\n        /* \"#utility.yul\":80:133   */\n      pop\n      pop\n      jump\t// out\n        /* \"#utility.yul\":139:377   */\n    tag_6:\n      0x00\n        /* \"#utility.yul\":278:280   */\n      0x20\n        /* \"#utility.yul\":267:276   */\n      dup3\n        /* \"#utility.yul\":263:281   */\n      add\n        /* \"#utility.yul\":255:281   */\n      swap1\n      pop\n        /* \"#utility.yul\":291:370   */\n      tag_14\n        /* \"#utility.yul\":367:368   */\n      0x00\n        /* \"#utility.yul\":356:365   */\n      dup4\n        /* \"#utility.yul\":352:369   */\n      add\n        /* \"#utility.yul\":343:349   */\n      dup5\n        /* \"#utility.yul\":291:370   */\n      tag_9\n      jump\t// in\n    tag_14:\n        /* \"#utility.yul\":245:377   */\n      swap3\n      swap2\n      pop\n      pop\n      jump\t// out\n        /* \"#utility.yul\":383:460   */\n    tag_12:\n      0x00\n        /* \"#utility.yul\":449:454   */\n      dup2\n        /* \"#utility.yul\":438:454   */\n      swap1\n      pop\n        /* \"#utility.yul\":428:460   */\n      swap2\n      swap1\n      pop\n      jump\t// out\n\n    auxdata: 0xa26469706673582212203ad5a3f22acd9a8d36869ec2ac17c5033b30adc592bdc48e517069141ed1b15b64736f6c63430008000033\n}\n","bytecode":{"linkReferences":{},"object":"60c1610052600b82828239805160001a607314610045577f4e487b7100000000000000000000000000000000000000000000000000000000600052600060045260246000fd5b30600052607381538281f3fe730000000000000000000000000000000000000000301460806040526004361060335760003560e01c8063c237647f146038575b600080fd5b603e6052565b604051604991906068565b60405180910390f35b60006007905090565b6062816081565b82525050565b6000602082019050607b6000830184605b565b92915050565b600081905091905056fea26469706673582212203ad5a3f22acd9a8d36869ec2ac17c5033b30adc592bdc48e517069141ed1b15b64736f6c63430008000033","opcodes":"PUSH1 0xC1 PUSH2 0x52 PUSH1 0xB DUP3 DUP3 DUP3 CODECOPY DUP1 MLOAD PUSH1 0x0 BYTE PUSH1 0x73 EQ PUSH2 0x45 JUMPI PUSH32 0x4E487B7100000000000000000000000000000000000000000000000000000000 PUSH1 0x0 MSTORE PUSH1 0x0 PUSH1 0x4 MSTORE PUSH1 0x24 PUSH1 0x0 REVERT JUMPDEST ADDRESS PUSH1 0x0 MSTORE PUSH1 0x73 DUP2 MSTORE8 DUP3 DUP2 RETURN INVALID PUSH20 0x0 ADDRESS EQ PUSH1 0x80 PUSH1 0x40 MSTORE PUSH1 0x4 CALLDATASIZE LT PUSH1 0x33 JUMPI PUSH1 0x0 CALLDATALOAD PUSH1 0xE0 SHR DUP1 PUSH4 0xC237647F EQ PUSH1 0x38 JUMPI JUMPDEST PUSH1 0x0 DUP1 REVERT JUMPDEST PUSH1 0x3E PUSH1 0x52 JUMP JUMPDEST PUSH1 0x40 MLOAD PUSH1 0x49 SWAP2 SWAP1 PUSH1 0x68 JUMP JUMPDEST PUSH1 0x40 MLOAD DUP1 SWAP2 SUB SWAP1 RETURN JUMPDEST PUSH1 0x0 PUSH1 0x7 SWAP1 POP SWAP1 JUMP JUMPDEST PUSH1 0x62 DUP2 PUSH1 0x81 JUMP JUMPDEST DUP3 MSTORE POP POP JUMP JUMPDEST PUSH1 0x0 PUSH1 0x20 DUP3 ADD SWAP1 POP PUSH1 0x7B PUSH1 0x0 DUP4 ADD DUP5 PUSH1 0x5B JUMP JUMPDEST SWAP3 SWAP2 POP POP JUMP JUMPDEST PUSH1 0x0 DUP2 SWAP1 POP SWAP2 SWAP1 POP JUMP INVALID LOG2 PUSH5 0x6970667358 0x22 SLT KECCAK256 GASPRICE 0xD5 LOG3 CALLCODE 0x2A 0xCD SWAP11 DUP14 CALLDATASIZE DUP7 SWAP15 0xC2 0xAC OR 0xC5 SUB EXTCODESIZE ADDRESS 0xAD 0xC5 SWAP3 0xBD 0xC4 DUP15 MLOAD PUSH17 0x69141ED1B15B64736F6C63430008000033 "},"gasEstimates":{"creation":{"codeDepositCost":"38600","executionCost":"118","totalCost":"38718"},"external":{"returnZwo()":"299"}},"methodIdentifiers":{"returnZwo()":"c237647f"}},"storageLayout":{"storage":[],"types":null},"userdoc":{"kind":"user","methods":{},"version":1}}