{"abi":[{"inputs":[{"internalType":"uint256","name":"i1","type":"uint256"},{"internalType":"uint256[]","name":"i2","type":"uint256[]"},{"internalType":"enum DecisionLibrary.Operator","name":"_op","type":"DecisionLibrary.Operator"}],"name":"evaluate","outputs":[{"internalType":"bool","name":"isEqual","type":"bool"}],"stateMutability":"pure","type":"function"},{"inputs":[{"internalType":"string","name":"s1","type":"string"},{"internalType":"string","name":"s2","type":"string"},{"internalType":"enum DecisionLibrary.Operator","name":"_op","type":"DecisionLibrary.Operator"}],"name":"evaluate","outputs":[{"internalType":"bool","name":"isEqual","type":"bool"}],"stateMutability":"pure","type":"function"},{"inputs":[],"name":"returnZwo","outputs":[{"internalType":"uint256","name":"zwo","type":"uint256"}],"stateMutability":"pure","type":"function"}],"devdoc":{"kind":"dev","methods":{},"version":1},"evm":{"assembly":"    /* \"DecisionLibrary.sol\":26:1269  library DecisionLibrary{\r... */\n  dataSize(sub_0)\n  dataOffset(sub_0)\n  0x0b\n  dup3\n  dup3\n  dup3\n  codecopy\n  dup1\n  mload\n  0x00\n  byte\n  0x73\n  eq\n  tag_1\n  jumpi\n  mstore(0x00, 0x4e487b7100000000000000000000000000000000000000000000000000000000)\n  mstore(0x04, 0x00)\n  revert(0x00, 0x24)\ntag_1:\n  mstore(0x00, address)\n  0x73\n  dup2\n  mstore8\n  dup3\n  dup2\n  return\nstop\n\nsub_0: assembly {\n        /* \"DecisionLibrary.sol\":26:1269  library DecisionLibrary{\r... */\n      eq(address, deployTimeAddress())\n      mstore(0x40, 0x80)\n      jumpi(tag_1, lt(calldatasize, 0x04))\n      shr(0xe0, calldataload(0x00))\n      dup1\n      0x88276283\n      eq\n      tag_2\n      jumpi\n      dup1\n      0xa8c0bf8e\n      eq\n      tag_3\n      jumpi\n      dup1\n      0xc237647f\n      eq\n      tag_4\n      jumpi\n    tag_1:\n      0x00\n      dup1\n      revert\n        /* \"DecisionLibrary.sol\":407:1176  function evaluate(uint i1, uint[] memory i2, Operator _op) public pure returns (bool isEqual) {\r... */\n    tag_2:\n      tag_5\n      0x04\n      dup1\n      calldatasize\n      sub\n      dup2\n      add\n      swap1\n      tag_6\n      swap2\n      swap1\n      tag_7\n      jump\t// in\n    tag_6:\n      tag_8\n      jump\t// in\n    tag_5:\n      mload(0x40)\n      tag_9\n      swap2\n      swap1\n      tag_10\n      jump\t// in\n    tag_9:\n      mload(0x40)\n      dup1\n      swap2\n      sub\n      swap1\n      return\n        /* \"DecisionLibrary.sol\":119:357  function evaluate(string memory s1, string memory s2, Operator _op) public pure returns (bool isEqual) {\r... */\n    tag_3:\n      tag_11\n      0x04\n      dup1\n      calldatasize\n      sub\n      dup2\n      add\n      swap1\n      tag_12\n      swap2\n      swap1\n      tag_13\n      jump\t// in\n    tag_12:\n      tag_14\n      jump\t// in\n    tag_11:\n      mload(0x40)\n      tag_15\n      swap2\n      swap1\n      tag_10\n      jump\t// in\n    tag_15:\n      mload(0x40)\n      dup1\n      swap2\n      sub\n      swap1\n      return\n        /* \"DecisionLibrary.sol\":1188:1266  function returnZwo() public pure returns(uint zwo) {\r... */\n    tag_4:\n      tag_16\n      tag_17\n      jump\t// in\n    tag_16:\n      mload(0x40)\n      tag_18\n      swap2\n      swap1\n      tag_19\n      jump\t// in\n    tag_18:\n      mload(0x40)\n      dup1\n      swap2\n      sub\n      swap1\n      return\n        /* \"DecisionLibrary.sol\":407:1176  function evaluate(uint i1, uint[] memory i2, Operator _op) public pure returns (bool isEqual) {\r... */\n    tag_8:\n        /* \"DecisionLibrary.sol\":487:499  bool isEqual */\n      0x00\n        /* \"DecisionLibrary.sol\":550:563  Operator.LESS */\n      dup1\n        /* \"DecisionLibrary.sol\":543:563  _op == Operator.LESS */\n      0x06\n      dup2\n      gt\n      iszero\n      tag_21\n      jumpi\n      mstore(0x00, 0x4e487b7100000000000000000000000000000000000000000000000000000000)\n      mstore(0x04, 0x21)\n      revert(0x00, 0x24)\n    tag_21:\n        /* \"DecisionLibrary.sol\":543:546  _op */\n      dup3\n        /* \"DecisionLibrary.sol\":543:563  _op == Operator.LESS */\n      0x06\n      dup2\n      gt\n      iszero\n      tag_22\n      jumpi\n      mstore(0x00, 0x4e487b7100000000000000000000000000000000000000000000000000000000)\n      mstore(0x04, 0x21)\n      revert(0x00, 0x24)\n    tag_22:\n      eq\n        /* \"DecisionLibrary.sol\":540:582  if(_op == Operator.LESS) return i1 < i2[0] */\n      iszero\n      tag_23\n      jumpi\n        /* \"DecisionLibrary.sol\":577:579  i2 */\n      dup3\n        /* \"DecisionLibrary.sol\":580:581  0 */\n      0x00\n        /* \"DecisionLibrary.sol\":577:582  i2[0] */\n      dup2\n      mload\n      dup2\n      lt\n      tag_24\n      jumpi\n      mstore(0x00, 0x4e487b7100000000000000000000000000000000000000000000000000000000)\n      mstore(0x04, 0x32)\n      revert(0x00, 0x24)\n    tag_24:\n      0x20\n      mul\n      0x20\n      add\n      add\n      mload\n        /* \"DecisionLibrary.sol\":572:574  i1 */\n      dup5\n        /* \"DecisionLibrary.sol\":572:582  i1 < i2[0] */\n      lt\n        /* \"DecisionLibrary.sol\":565:582  return i1 < i2[0] */\n      swap1\n      pop\n      jump(tag_20)\n        /* \"DecisionLibrary.sol\":540:582  if(_op == Operator.LESS) return i1 < i2[0] */\n    tag_23:\n        /* \"DecisionLibrary.sol\":621:637  Operator.GREATER */\n      0x01\n        /* \"DecisionLibrary.sol\":614:637  _op == Operator.GREATER */\n      0x06\n      dup2\n      gt\n      iszero\n      tag_25\n      jumpi\n      mstore(0x00, 0x4e487b7100000000000000000000000000000000000000000000000000000000)\n      mstore(0x04, 0x21)\n      revert(0x00, 0x24)\n    tag_25:\n        /* \"DecisionLibrary.sol\":614:617  _op */\n      dup3\n        /* \"DecisionLibrary.sol\":614:637  _op == Operator.GREATER */\n      0x06\n      dup2\n      gt\n      iszero\n      tag_26\n      jumpi\n      mstore(0x00, 0x4e487b7100000000000000000000000000000000000000000000000000000000)\n      mstore(0x04, 0x21)\n      revert(0x00, 0x24)\n    tag_26:\n      eq\n        /* \"DecisionLibrary.sol\":611:657  if(_op == Operator.GREATER)  return i1 > i2[0] */\n      iszero\n      tag_27\n      jumpi\n        /* \"DecisionLibrary.sol\":652:654  i2 */\n      dup3\n        /* \"DecisionLibrary.sol\":655:656  0 */\n      0x00\n        /* \"DecisionLibrary.sol\":652:657  i2[0] */\n      dup2\n      mload\n      dup2\n      lt\n      tag_28\n      jumpi\n      mstore(0x00, 0x4e487b7100000000000000000000000000000000000000000000000000000000)\n      mstore(0x04, 0x32)\n      revert(0x00, 0x24)\n    tag_28:\n      0x20\n      mul\n      0x20\n      add\n      add\n      mload\n        /* \"DecisionLibrary.sol\":647:649  i1 */\n      dup5\n        /* \"DecisionLibrary.sol\":647:657  i1 > i2[0] */\n      gt\n        /* \"DecisionLibrary.sol\":640:657  return i1 > i2[0] */\n      swap1\n      pop\n      jump(tag_20)\n        /* \"DecisionLibrary.sol\":611:657  if(_op == Operator.GREATER)  return i1 > i2[0] */\n    tag_27:\n        /* \"DecisionLibrary.sol\":696:710  Operator.EQUAL */\n      0x02\n        /* \"DecisionLibrary.sol\":689:710  _op == Operator.EQUAL */\n      0x06\n      dup2\n      gt\n      iszero\n      tag_29\n      jumpi\n      mstore(0x00, 0x4e487b7100000000000000000000000000000000000000000000000000000000)\n      mstore(0x04, 0x21)\n      revert(0x00, 0x24)\n    tag_29:\n        /* \"DecisionLibrary.sol\":689:692  _op */\n      dup3\n        /* \"DecisionLibrary.sol\":689:710  _op == Operator.EQUAL */\n      0x06\n      dup2\n      gt\n      iszero\n      tag_30\n      jumpi\n      mstore(0x00, 0x4e487b7100000000000000000000000000000000000000000000000000000000)\n      mstore(0x04, 0x21)\n      revert(0x00, 0x24)\n    tag_30:\n      eq\n        /* \"DecisionLibrary.sol\":686:730  if(_op == Operator.EQUAL) return i1 == i2[0] */\n      iszero\n      tag_31\n      jumpi\n        /* \"DecisionLibrary.sol\":725:727  i2 */\n      dup3\n        /* \"DecisionLibrary.sol\":728:729  0 */\n      0x00\n        /* \"DecisionLibrary.sol\":725:730  i2[0] */\n      dup2\n      mload\n      dup2\n      lt\n      tag_32\n      jumpi\n      mstore(0x00, 0x4e487b7100000000000000000000000000000000000000000000000000000000)\n      mstore(0x04, 0x32)\n      revert(0x00, 0x24)\n    tag_32:\n      0x20\n      mul\n      0x20\n      add\n      add\n      mload\n        /* \"DecisionLibrary.sol\":719:721  i1 */\n      dup5\n        /* \"DecisionLibrary.sol\":719:730  i1 == i2[0] */\n      eq\n        /* \"DecisionLibrary.sol\":712:730  return i1 == i2[0] */\n      swap1\n      pop\n      jump(tag_20)\n        /* \"DecisionLibrary.sol\":686:730  if(_op == Operator.EQUAL) return i1 == i2[0] */\n    tag_31:\n        /* \"DecisionLibrary.sol\":770:782  Operator.LEQ */\n      0x04\n        /* \"DecisionLibrary.sol\":763:782  _op == Operator.LEQ */\n      0x06\n      dup2\n      gt\n      iszero\n      tag_33\n      jumpi\n      mstore(0x00, 0x4e487b7100000000000000000000000000000000000000000000000000000000)\n      mstore(0x04, 0x21)\n      revert(0x00, 0x24)\n    tag_33:\n        /* \"DecisionLibrary.sol\":763:766  _op */\n      dup3\n        /* \"DecisionLibrary.sol\":763:782  _op == Operator.LEQ */\n      0x06\n      dup2\n      gt\n      iszero\n      tag_34\n      jumpi\n      mstore(0x00, 0x4e487b7100000000000000000000000000000000000000000000000000000000)\n      mstore(0x04, 0x21)\n      revert(0x00, 0x24)\n    tag_34:\n      eq\n        /* \"DecisionLibrary.sol\":760:802  if(_op == Operator.LEQ) return i1 <= i2[0] */\n      iszero\n      tag_35\n      jumpi\n        /* \"DecisionLibrary.sol\":797:799  i2 */\n      dup3\n        /* \"DecisionLibrary.sol\":800:801  0 */\n      0x00\n        /* \"DecisionLibrary.sol\":797:802  i2[0] */\n      dup2\n      mload\n      dup2\n      lt\n      tag_36\n      jumpi\n      mstore(0x00, 0x4e487b7100000000000000000000000000000000000000000000000000000000)\n      mstore(0x04, 0x32)\n      revert(0x00, 0x24)\n    tag_36:\n      0x20\n      mul\n      0x20\n      add\n      add\n      mload\n        /* \"DecisionLibrary.sol\":791:793  i1 */\n      dup5\n        /* \"DecisionLibrary.sol\":791:802  i1 <= i2[0] */\n      gt\n      iszero\n        /* \"DecisionLibrary.sol\":784:802  return i1 <= i2[0] */\n      swap1\n      pop\n      jump(tag_20)\n        /* \"DecisionLibrary.sol\":760:802  if(_op == Operator.LEQ) return i1 <= i2[0] */\n    tag_35:\n        /* \"DecisionLibrary.sol\":842:854  Operator.GEQ */\n      0x05\n        /* \"DecisionLibrary.sol\":835:854  _op == Operator.GEQ */\n      0x06\n      dup2\n      gt\n      iszero\n      tag_37\n      jumpi\n      mstore(0x00, 0x4e487b7100000000000000000000000000000000000000000000000000000000)\n      mstore(0x04, 0x21)\n      revert(0x00, 0x24)\n    tag_37:\n        /* \"DecisionLibrary.sol\":835:838  _op */\n      dup3\n        /* \"DecisionLibrary.sol\":835:854  _op == Operator.GEQ */\n      0x06\n      dup2\n      gt\n      iszero\n      tag_38\n      jumpi\n      mstore(0x00, 0x4e487b7100000000000000000000000000000000000000000000000000000000)\n      mstore(0x04, 0x21)\n      revert(0x00, 0x24)\n    tag_38:\n      eq\n        /* \"DecisionLibrary.sol\":832:874  if(_op == Operator.GEQ) return i1 >= i2[0] */\n      iszero\n      tag_39\n      jumpi\n        /* \"DecisionLibrary.sol\":869:871  i2 */\n      dup3\n        /* \"DecisionLibrary.sol\":872:873  0 */\n      0x00\n        /* \"DecisionLibrary.sol\":869:874  i2[0] */\n      dup2\n      mload\n      dup2\n      lt\n      tag_40\n      jumpi\n      mstore(0x00, 0x4e487b7100000000000000000000000000000000000000000000000000000000)\n      mstore(0x04, 0x32)\n      revert(0x00, 0x24)\n    tag_40:\n      0x20\n      mul\n      0x20\n      add\n      add\n      mload\n        /* \"DecisionLibrary.sol\":863:865  i1 */\n      dup5\n        /* \"DecisionLibrary.sol\":863:874  i1 >= i2[0] */\n      lt\n      iszero\n        /* \"DecisionLibrary.sol\":856:874  return i1 >= i2[0] */\n      swap1\n      pop\n      jump(tag_20)\n        /* \"DecisionLibrary.sol\":832:874  if(_op == Operator.GEQ) return i1 >= i2[0] */\n    tag_39:\n        /* \"DecisionLibrary.sol\":919:935  Operator.ELEMENT */\n      0x06\n        /* \"DecisionLibrary.sol\":912:935  _op == Operator.ELEMENT */\n      dup1\n      dup2\n      gt\n      iszero\n      tag_41\n      jumpi\n      mstore(0x00, 0x4e487b7100000000000000000000000000000000000000000000000000000000)\n      mstore(0x04, 0x21)\n      revert(0x00, 0x24)\n    tag_41:\n        /* \"DecisionLibrary.sol\":912:915  _op */\n      dup3\n        /* \"DecisionLibrary.sol\":912:935  _op == Operator.ELEMENT */\n      0x06\n      dup2\n      gt\n      iszero\n      tag_42\n      jumpi\n      mstore(0x00, 0x4e487b7100000000000000000000000000000000000000000000000000000000)\n      mstore(0x04, 0x21)\n      revert(0x00, 0x24)\n    tag_42:\n      eq\n        /* \"DecisionLibrary.sol\":909:1146  if(_op == Operator.ELEMENT){\r... */\n      iszero\n      tag_43\n      jumpi\n        /* \"DecisionLibrary.sol\":956:970  uint elementid */\n      0x00\n        /* \"DecisionLibrary.sol\":951:1124  for (uint elementid = 0; elementid < i2.length ; elementid++){\r... */\n    tag_44:\n        /* \"DecisionLibrary.sol\":988:990  i2 */\n      dup4\n        /* \"DecisionLibrary.sol\":988:997  i2.length */\n      mload\n        /* \"DecisionLibrary.sol\":976:985  elementid */\n      dup2\n        /* \"DecisionLibrary.sol\":976:997  elementid < i2.length */\n      lt\n        /* \"DecisionLibrary.sol\":951:1124  for (uint elementid = 0; elementid < i2.length ; elementid++){\r... */\n      iszero\n      tag_45\n      jumpi\n        /* \"DecisionLibrary.sol\":1041:1043  i2 */\n      dup4\n        /* \"DecisionLibrary.sol\":1044:1053  elementid */\n      dup2\n        /* \"DecisionLibrary.sol\":1041:1054  i2[elementid] */\n      dup2\n      mload\n      dup2\n      lt\n      tag_47\n      jumpi\n      mstore(0x00, 0x4e487b7100000000000000000000000000000000000000000000000000000000)\n      mstore(0x04, 0x32)\n      revert(0x00, 0x24)\n    tag_47:\n      0x20\n      mul\n      0x20\n      add\n      add\n      mload\n        /* \"DecisionLibrary.sol\":1035:1037  i1 */\n      dup6\n        /* \"DecisionLibrary.sol\":1035:1054  i1 == i2[elementid] */\n      eq\n        /* \"DecisionLibrary.sol\":1031:1109  if (i1 == i2[elementid]){\r... */\n      iszero\n      tag_48\n      jumpi\n        /* \"DecisionLibrary.sol\":1085:1089  true */\n      0x01\n        /* \"DecisionLibrary.sol\":1078:1089  return true */\n      swap2\n      pop\n      pop\n      jump(tag_20)\n        /* \"DecisionLibrary.sol\":1031:1109  if (i1 == i2[elementid]){\r... */\n    tag_48:\n        /* \"DecisionLibrary.sol\":1000:1011  elementid++ */\n      dup1\n      dup1\n      tag_49\n      swap1\n      tag_50\n      jump\t// in\n    tag_49:\n      swap2\n      pop\n      pop\n        /* \"DecisionLibrary.sol\":951:1124  for (uint elementid = 0; elementid < i2.length ; elementid++){\r... */\n      jump(tag_44)\n    tag_45:\n      pop\n        /* \"DecisionLibrary.sol\":909:1146  if(_op == Operator.ELEMENT){\r... */\n    tag_43:\n        /* \"DecisionLibrary.sol\":1163:1168  false */\n      0x00\n        /* \"DecisionLibrary.sol\":1156:1168  return false */\n      swap1\n      pop\n        /* \"DecisionLibrary.sol\":407:1176  function evaluate(uint i1, uint[] memory i2, Operator _op) public pure returns (bool isEqual) {\r... */\n    tag_20:\n      swap4\n      swap3\n      pop\n      pop\n      pop\n      jump\t// out\n        /* \"DecisionLibrary.sol\":119:357  function evaluate(string memory s1, string memory s2, Operator _op) public pure returns (bool isEqual) {\r... */\n    tag_14:\n        /* \"DecisionLibrary.sol\":208:220  bool isEqual */\n      0x00\n        /* \"DecisionLibrary.sol\":233:244  bool equals */\n      dup1\n        /* \"DecisionLibrary.sol\":287:289  s2 */\n      dup4\n        /* \"DecisionLibrary.sol\":271:291  keccak256(bytes(s2)) */\n      dup1\n      mload\n      swap1\n      0x20\n      add\n      keccak256\n        /* \"DecisionLibrary.sol\":263:265  s1 */\n      dup6\n        /* \"DecisionLibrary.sol\":247:267  keccak256(bytes(s1)) */\n      dup1\n      mload\n      swap1\n      0x20\n      add\n      keccak256\n        /* \"DecisionLibrary.sol\":247:291  keccak256(bytes(s1)) == keccak256(bytes(s2)) */\n      eq\n        /* \"DecisionLibrary.sol\":233:291  bool equals = keccak256(bytes(s1)) == keccak256(bytes(s2)) */\n      swap1\n      pop\n        /* \"DecisionLibrary.sol\":316:330  Operator.EQUAL */\n      0x02\n        /* \"DecisionLibrary.sol\":309:330  _op == Operator.EQUAL */\n      0x06\n      dup2\n      gt\n      iszero\n      tag_52\n      jumpi\n      mstore(0x00, 0x4e487b7100000000000000000000000000000000000000000000000000000000)\n      mstore(0x04, 0x21)\n      revert(0x00, 0x24)\n    tag_52:\n        /* \"DecisionLibrary.sol\":309:312  _op */\n      dup4\n        /* \"DecisionLibrary.sol\":309:330  _op == Operator.EQUAL */\n      0x06\n      dup2\n      gt\n      iszero\n      tag_53\n      jumpi\n      mstore(0x00, 0x4e487b7100000000000000000000000000000000000000000000000000000000)\n      mstore(0x04, 0x21)\n      revert(0x00, 0x24)\n    tag_53:\n      eq\n        /* \"DecisionLibrary.sol\":309:348  _op == Operator.EQUAL? equals : !equals */\n      tag_54\n      jumpi\n        /* \"DecisionLibrary.sol\":342:348  equals */\n      dup1\n        /* \"DecisionLibrary.sol\":341:348  !equals */\n      iszero\n        /* \"DecisionLibrary.sol\":309:348  _op == Operator.EQUAL? equals : !equals */\n      jump(tag_55)\n    tag_54:\n        /* \"DecisionLibrary.sol\":332:338  equals */\n      dup1\n        /* \"DecisionLibrary.sol\":309:348  _op == Operator.EQUAL? equals : !equals */\n    tag_55:\n        /* \"DecisionLibrary.sol\":302:348  return _op == Operator.EQUAL? equals : !equals */\n      swap2\n      pop\n      pop\n        /* \"DecisionLibrary.sol\":119:357  function evaluate(string memory s1, string memory s2, Operator _op) public pure returns (bool isEqual) {\r... */\n      swap4\n      swap3\n      pop\n      pop\n      pop\n      jump\t// out\n        /* \"DecisionLibrary.sol\":1188:1266  function returnZwo() public pure returns(uint zwo) {\r... */\n    tag_17:\n        /* \"DecisionLibrary.sol\":1229:1237  uint zwo */\n      0x00\n        /* \"DecisionLibrary.sol\":1257:1258  7 */\n      0x07\n        /* \"DecisionLibrary.sol\":1250:1258  return 7 */\n      swap1\n      pop\n        /* \"DecisionLibrary.sol\":1188:1266  function returnZwo() public pure returns(uint zwo) {\r... */\n      swap1\n      jump\t// out\n        /* \"#utility.yul\":24:646   */\n    tag_58:\n      0x00\n        /* \"#utility.yul\":145:225   */\n      tag_60\n        /* \"#utility.yul\":160:224   */\n      tag_61\n        /* \"#utility.yul\":217:223   */\n      dup5\n        /* \"#utility.yul\":160:224   */\n      tag_62\n      jump\t// in\n    tag_61:\n        /* \"#utility.yul\":145:225   */\n      tag_63\n      jump\t// in\n    tag_60:\n        /* \"#utility.yul\":136:225   */\n      swap1\n      pop\n        /* \"#utility.yul\":245:250   */\n      dup1\n        /* \"#utility.yul\":273:279   */\n      dup4\n        /* \"#utility.yul\":266:271   */\n      dup3\n        /* \"#utility.yul\":259:280   */\n      mstore\n        /* \"#utility.yul\":299:303   */\n      0x20\n        /* \"#utility.yul\":292:297   */\n      dup3\n        /* \"#utility.yul\":288:304   */\n      add\n        /* \"#utility.yul\":281:304   */\n      swap1\n      pop\n        /* \"#utility.yul\":324:330   */\n      dup3\n        /* \"#utility.yul\":374:377   */\n      dup6\n        /* \"#utility.yul\":366:370   */\n      0x20\n        /* \"#utility.yul\":358:364   */\n      dup7\n        /* \"#utility.yul\":354:371   */\n      mul\n        /* \"#utility.yul\":349:352   */\n      dup3\n        /* \"#utility.yul\":345:372   */\n      add\n        /* \"#utility.yul\":342:378   */\n      gt\n        /* \"#utility.yul\":339:341   */\n      iszero\n      tag_64\n      jumpi\n        /* \"#utility.yul\":391:392   */\n      0x00\n        /* \"#utility.yul\":388:389   */\n      dup1\n        /* \"#utility.yul\":381:393   */\n      revert\n        /* \"#utility.yul\":339:341   */\n    tag_64:\n        /* \"#utility.yul\":419:420   */\n      0x00\n        /* \"#utility.yul\":404:640   */\n    tag_65:\n        /* \"#utility.yul\":429:435   */\n      dup6\n        /* \"#utility.yul\":426:427   */\n      dup2\n        /* \"#utility.yul\":423:436   */\n      lt\n        /* \"#utility.yul\":404:640   */\n      iszero\n      tag_67\n      jumpi\n        /* \"#utility.yul\":496:499   */\n      dup2\n        /* \"#utility.yul\":524:561   */\n      tag_68\n        /* \"#utility.yul\":557:560   */\n      dup9\n        /* \"#utility.yul\":545:555   */\n      dup3\n        /* \"#utility.yul\":524:561   */\n      tag_69\n      jump\t// in\n    tag_68:\n        /* \"#utility.yul\":519:522   */\n      dup5\n        /* \"#utility.yul\":512:562   */\n      mstore\n        /* \"#utility.yul\":591:595   */\n      0x20\n        /* \"#utility.yul\":586:589   */\n      dup5\n        /* \"#utility.yul\":582:596   */\n      add\n        /* \"#utility.yul\":575:596   */\n      swap4\n      pop\n        /* \"#utility.yul\":625:629   */\n      0x20\n        /* \"#utility.yul\":620:623   */\n      dup4\n        /* \"#utility.yul\":616:630   */\n      add\n        /* \"#utility.yul\":609:630   */\n      swap3\n      pop\n        /* \"#utility.yul\":464:640   */\n      pop\n        /* \"#utility.yul\":451:452   */\n      0x01\n        /* \"#utility.yul\":448:449   */\n      dup2\n        /* \"#utility.yul\":444:453   */\n      add\n        /* \"#utility.yul\":439:453   */\n      swap1\n      pop\n        /* \"#utility.yul\":404:640   */\n      jump(tag_65)\n    tag_67:\n        /* \"#utility.yul\":408:422   */\n      pop\n        /* \"#utility.yul\":126:646   */\n      pop\n      pop\n      swap4\n      swap3\n      pop\n      pop\n      pop\n      jump\t// out\n        /* \"#utility.yul\":652:996   */\n    tag_70:\n      0x00\n        /* \"#utility.yul\":755:820   */\n      tag_72\n        /* \"#utility.yul\":770:819   */\n      tag_73\n        /* \"#utility.yul\":812:818   */\n      dup5\n        /* \"#utility.yul\":770:819   */\n      tag_74\n      jump\t// in\n    tag_73:\n        /* \"#utility.yul\":755:820   */\n      tag_63\n      jump\t// in\n    tag_72:\n        /* \"#utility.yul\":746:820   */\n      swap1\n      pop\n        /* \"#utility.yul\":843:849   */\n      dup3\n        /* \"#utility.yul\":836:841   */\n      dup2\n        /* \"#utility.yul\":829:850   */\n      mstore\n        /* \"#utility.yul\":881:885   */\n      0x20\n        /* \"#utility.yul\":874:879   */\n      dup2\n        /* \"#utility.yul\":870:886   */\n      add\n        /* \"#utility.yul\":919:922   */\n      dup5\n        /* \"#utility.yul\":910:916   */\n      dup5\n        /* \"#utility.yul\":905:908   */\n      dup5\n        /* \"#utility.yul\":901:917   */\n      add\n        /* \"#utility.yul\":898:923   */\n      gt\n        /* \"#utility.yul\":895:897   */\n      iszero\n      tag_75\n      jumpi\n        /* \"#utility.yul\":936:937   */\n      0x00\n        /* \"#utility.yul\":933:934   */\n      dup1\n        /* \"#utility.yul\":926:938   */\n      revert\n        /* \"#utility.yul\":895:897   */\n    tag_75:\n        /* \"#utility.yul\":949:990   */\n      tag_76\n        /* \"#utility.yul\":983:989   */\n      dup5\n        /* \"#utility.yul\":978:981   */\n      dup3\n        /* \"#utility.yul\":973:976   */\n      dup6\n        /* \"#utility.yul\":949:990   */\n      tag_77\n      jump\t// in\n    tag_76:\n        /* \"#utility.yul\":736:996   */\n      pop\n      swap4\n      swap3\n      pop\n      pop\n      pop\n      jump\t// out\n        /* \"#utility.yul\":1019:1322   */\n    tag_78:\n      0x00\n        /* \"#utility.yul\":1139:1142   */\n      dup3\n        /* \"#utility.yul\":1132:1136   */\n      0x1f\n        /* \"#utility.yul\":1124:1130   */\n      dup4\n        /* \"#utility.yul\":1120:1137   */\n      add\n        /* \"#utility.yul\":1116:1143   */\n      slt\n        /* \"#utility.yul\":1106:1108   */\n      tag_80\n      jumpi\n        /* \"#utility.yul\":1157:1158   */\n      0x00\n        /* \"#utility.yul\":1154:1155   */\n      dup1\n        /* \"#utility.yul\":1147:1159   */\n      revert\n        /* \"#utility.yul\":1106:1108   */\n    tag_80:\n        /* \"#utility.yul\":1197:1203   */\n      dup2\n        /* \"#utility.yul\":1184:1204   */\n      calldataload\n        /* \"#utility.yul\":1222:1316   */\n      tag_81\n        /* \"#utility.yul\":1312:1315   */\n      dup5\n        /* \"#utility.yul\":1304:1310   */\n      dup3\n        /* \"#utility.yul\":1297:1301   */\n      0x20\n        /* \"#utility.yul\":1289:1295   */\n      dup7\n        /* \"#utility.yul\":1285:1302   */\n      add\n        /* \"#utility.yul\":1222:1316   */\n      tag_58\n      jump\t// in\n    tag_81:\n        /* \"#utility.yul\":1213:1316   */\n      swap2\n      pop\n        /* \"#utility.yul\":1096:1322   */\n      pop\n      swap3\n      swap2\n      pop\n      pop\n      jump\t// out\n        /* \"#utility.yul\":1328:1487   */\n    tag_82:\n      0x00\n        /* \"#utility.yul\":1422:1428   */\n      dup2\n        /* \"#utility.yul\":1409:1429   */\n      calldataload\n        /* \"#utility.yul\":1400:1429   */\n      swap1\n      pop\n        /* \"#utility.yul\":1438:1481   */\n      tag_84\n        /* \"#utility.yul\":1475:1480   */\n      dup2\n        /* \"#utility.yul\":1438:1481   */\n      tag_85\n      jump\t// in\n    tag_84:\n        /* \"#utility.yul\":1390:1487   */\n      swap3\n      swap2\n      pop\n      pop\n      jump\t// out\n        /* \"#utility.yul\":1507:1780   */\n    tag_86:\n      0x00\n        /* \"#utility.yul\":1612:1615   */\n      dup3\n        /* \"#utility.yul\":1605:1609   */\n      0x1f\n        /* \"#utility.yul\":1597:1603   */\n      dup4\n        /* \"#utility.yul\":1593:1610   */\n      add\n        /* \"#utility.yul\":1589:1616   */\n      slt\n        /* \"#utility.yul\":1579:1581   */\n      tag_88\n      jumpi\n        /* \"#utility.yul\":1630:1631   */\n      0x00\n        /* \"#utility.yul\":1627:1628   */\n      dup1\n        /* \"#utility.yul\":1620:1632   */\n      revert\n        /* \"#utility.yul\":1579:1581   */\n    tag_88:\n        /* \"#utility.yul\":1670:1676   */\n      dup2\n        /* \"#utility.yul\":1657:1677   */\n      calldataload\n        /* \"#utility.yul\":1695:1774   */\n      tag_89\n        /* \"#utility.yul\":1770:1773   */\n      dup5\n        /* \"#utility.yul\":1762:1768   */\n      dup3\n        /* \"#utility.yul\":1755:1759   */\n      0x20\n        /* \"#utility.yul\":1747:1753   */\n      dup7\n        /* \"#utility.yul\":1743:1760   */\n      add\n        /* \"#utility.yul\":1695:1774   */\n      tag_70\n      jump\t// in\n    tag_89:\n        /* \"#utility.yul\":1686:1774   */\n      swap2\n      pop\n        /* \"#utility.yul\":1569:1780   */\n      pop\n      swap3\n      swap2\n      pop\n      pop\n      jump\t// out\n        /* \"#utility.yul\":1786:1925   */\n    tag_69:\n      0x00\n        /* \"#utility.yul\":1870:1876   */\n      dup2\n        /* \"#utility.yul\":1857:1877   */\n      calldataload\n        /* \"#utility.yul\":1848:1877   */\n      swap1\n      pop\n        /* \"#utility.yul\":1886:1919   */\n      tag_91\n        /* \"#utility.yul\":1913:1918   */\n      dup2\n        /* \"#utility.yul\":1886:1919   */\n      tag_92\n      jump\t// in\n    tag_91:\n        /* \"#utility.yul\":1838:1925   */\n      swap3\n      swap2\n      pop\n      pop\n      jump\t// out\n        /* \"#utility.yul\":1931:2729   */\n    tag_13:\n      0x00\n      dup1\n      0x00\n        /* \"#utility.yul\":2103:2105   */\n      0x60\n        /* \"#utility.yul\":2091:2100   */\n      dup5\n        /* \"#utility.yul\":2082:2089   */\n      dup7\n        /* \"#utility.yul\":2078:2101   */\n      sub\n        /* \"#utility.yul\":2074:2106   */\n      slt\n        /* \"#utility.yul\":2071:2073   */\n      iszero\n      tag_94\n      jumpi\n        /* \"#utility.yul\":2119:2120   */\n      0x00\n        /* \"#utility.yul\":2116:2117   */\n      dup1\n        /* \"#utility.yul\":2109:2121   */\n      revert\n        /* \"#utility.yul\":2071:2073   */\n    tag_94:\n        /* \"#utility.yul\":2190:2191   */\n      0x00\n        /* \"#utility.yul\":2179:2188   */\n      dup5\n        /* \"#utility.yul\":2175:2192   */\n      add\n        /* \"#utility.yul\":2162:2193   */\n      calldataload\n        /* \"#utility.yul\":2220:2238   */\n      0xffffffffffffffff\n        /* \"#utility.yul\":2212:2218   */\n      dup2\n        /* \"#utility.yul\":2209:2239   */\n      gt\n        /* \"#utility.yul\":2206:2208   */\n      iszero\n      tag_95\n      jumpi\n        /* \"#utility.yul\":2252:2253   */\n      0x00\n        /* \"#utility.yul\":2249:2250   */\n      dup1\n        /* \"#utility.yul\":2242:2254   */\n      revert\n        /* \"#utility.yul\":2206:2208   */\n    tag_95:\n        /* \"#utility.yul\":2280:2343   */\n      tag_96\n        /* \"#utility.yul\":2335:2342   */\n      dup7\n        /* \"#utility.yul\":2326:2332   */\n      dup3\n        /* \"#utility.yul\":2315:2324   */\n      dup8\n        /* \"#utility.yul\":2311:2333   */\n      add\n        /* \"#utility.yul\":2280:2343   */\n      tag_86\n      jump\t// in\n    tag_96:\n        /* \"#utility.yul\":2270:2343   */\n      swap4\n      pop\n        /* \"#utility.yul\":2133:2353   */\n      pop\n        /* \"#utility.yul\":2420:2422   */\n      0x20\n        /* \"#utility.yul\":2409:2418   */\n      dup5\n        /* \"#utility.yul\":2405:2423   */\n      add\n        /* \"#utility.yul\":2392:2424   */\n      calldataload\n        /* \"#utility.yul\":2451:2469   */\n      0xffffffffffffffff\n        /* \"#utility.yul\":2443:2449   */\n      dup2\n        /* \"#utility.yul\":2440:2470   */\n      gt\n        /* \"#utility.yul\":2437:2439   */\n      iszero\n      tag_97\n      jumpi\n        /* \"#utility.yul\":2483:2484   */\n      0x00\n        /* \"#utility.yul\":2480:2481   */\n      dup1\n        /* \"#utility.yul\":2473:2485   */\n      revert\n        /* \"#utility.yul\":2437:2439   */\n    tag_97:\n        /* \"#utility.yul\":2511:2574   */\n      tag_98\n        /* \"#utility.yul\":2566:2573   */\n      dup7\n        /* \"#utility.yul\":2557:2563   */\n      dup3\n        /* \"#utility.yul\":2546:2555   */\n      dup8\n        /* \"#utility.yul\":2542:2564   */\n      add\n        /* \"#utility.yul\":2511:2574   */\n      tag_86\n      jump\t// in\n    tag_98:\n        /* \"#utility.yul\":2501:2574   */\n      swap3\n      pop\n        /* \"#utility.yul\":2363:2584   */\n      pop\n        /* \"#utility.yul\":2623:2625   */\n      0x40\n        /* \"#utility.yul\":2649:2712   */\n      tag_99\n        /* \"#utility.yul\":2704:2711   */\n      dup7\n        /* \"#utility.yul\":2695:2701   */\n      dup3\n        /* \"#utility.yul\":2684:2693   */\n      dup8\n        /* \"#utility.yul\":2680:2702   */\n      add\n        /* \"#utility.yul\":2649:2712   */\n      tag_82\n      jump\t// in\n    tag_99:\n        /* \"#utility.yul\":2639:2712   */\n      swap2\n      pop\n        /* \"#utility.yul\":2594:2722   */\n      pop\n        /* \"#utility.yul\":2061:2729   */\n      swap3\n      pop\n      swap3\n      pop\n      swap3\n      jump\t// out\n        /* \"#utility.yul\":2735:3450   */\n    tag_7:\n      0x00\n      dup1\n      0x00\n        /* \"#utility.yul\":2912:2914   */\n      0x60\n        /* \"#utility.yul\":2900:2909   */\n      dup5\n        /* \"#utility.yul\":2891:2898   */\n      dup7\n        /* \"#utility.yul\":2887:2910   */\n      sub\n        /* \"#utility.yul\":2883:2915   */\n      slt\n        /* \"#utility.yul\":2880:2882   */\n      iszero\n      tag_101\n      jumpi\n        /* \"#utility.yul\":2928:2929   */\n      0x00\n        /* \"#utility.yul\":2925:2926   */\n      dup1\n        /* \"#utility.yul\":2918:2930   */\n      revert\n        /* \"#utility.yul\":2880:2882   */\n    tag_101:\n        /* \"#utility.yul\":2971:2972   */\n      0x00\n        /* \"#utility.yul\":2996:3049   */\n      tag_102\n        /* \"#utility.yul\":3041:3048   */\n      dup7\n        /* \"#utility.yul\":3032:3038   */\n      dup3\n        /* \"#utility.yul\":3021:3030   */\n      dup8\n        /* \"#utility.yul\":3017:3039   */\n      add\n        /* \"#utility.yul\":2996:3049   */\n      tag_69\n      jump\t// in\n    tag_102:\n        /* \"#utility.yul\":2986:3049   */\n      swap4\n      pop\n        /* \"#utility.yul\":2942:3059   */\n      pop\n        /* \"#utility.yul\":3126:3128   */\n      0x20\n        /* \"#utility.yul\":3115:3124   */\n      dup5\n        /* \"#utility.yul\":3111:3129   */\n      add\n        /* \"#utility.yul\":3098:3130   */\n      calldataload\n        /* \"#utility.yul\":3157:3175   */\n      0xffffffffffffffff\n        /* \"#utility.yul\":3149:3155   */\n      dup2\n        /* \"#utility.yul\":3146:3176   */\n      gt\n        /* \"#utility.yul\":3143:3145   */\n      iszero\n      tag_103\n      jumpi\n        /* \"#utility.yul\":3189:3190   */\n      0x00\n        /* \"#utility.yul\":3186:3187   */\n      dup1\n        /* \"#utility.yul\":3179:3191   */\n      revert\n        /* \"#utility.yul\":3143:3145   */\n    tag_103:\n        /* \"#utility.yul\":3217:3295   */\n      tag_104\n        /* \"#utility.yul\":3287:3294   */\n      dup7\n        /* \"#utility.yul\":3278:3284   */\n      dup3\n        /* \"#utility.yul\":3267:3276   */\n      dup8\n        /* \"#utility.yul\":3263:3285   */\n      add\n        /* \"#utility.yul\":3217:3295   */\n      tag_78\n      jump\t// in\n    tag_104:\n        /* \"#utility.yul\":3207:3295   */\n      swap3\n      pop\n        /* \"#utility.yul\":3069:3305   */\n      pop\n        /* \"#utility.yul\":3344:3346   */\n      0x40\n        /* \"#utility.yul\":3370:3433   */\n      tag_105\n        /* \"#utility.yul\":3425:3432   */\n      dup7\n        /* \"#utility.yul\":3416:3422   */\n      dup3\n        /* \"#utility.yul\":3405:3414   */\n      dup8\n        /* \"#utility.yul\":3401:3423   */\n      add\n        /* \"#utility.yul\":3370:3433   */\n      tag_82\n      jump\t// in\n    tag_105:\n        /* \"#utility.yul\":3360:3433   */\n      swap2\n      pop\n        /* \"#utility.yul\":3315:3443   */\n      pop\n        /* \"#utility.yul\":2870:3450   */\n      swap3\n      pop\n      swap3\n      pop\n      swap3\n      jump\t// out\n        /* \"#utility.yul\":3456:3573   */\n    tag_106:\n        /* \"#utility.yul\":3545:3566   */\n      tag_108\n        /* \"#utility.yul\":3560:3565   */\n      dup2\n        /* \"#utility.yul\":3545:3566   */\n      tag_109\n      jump\t// in\n    tag_108:\n        /* \"#utility.yul\":3540:3543   */\n      dup3\n        /* \"#utility.yul\":3533:3567   */\n      mstore\n        /* \"#utility.yul\":3523:3573   */\n      pop\n      pop\n      jump\t// out\n        /* \"#utility.yul\":3579:3705   */\n    tag_110:\n        /* \"#utility.yul\":3674:3698   */\n      tag_112\n        /* \"#utility.yul\":3692:3697   */\n      dup2\n        /* \"#utility.yul\":3674:3698   */\n      tag_113\n      jump\t// in\n    tag_112:\n        /* \"#utility.yul\":3669:3672   */\n      dup3\n        /* \"#utility.yul\":3662:3699   */\n      mstore\n        /* \"#utility.yul\":3652:3705   */\n      pop\n      pop\n      jump\t// out\n        /* \"#utility.yul\":3711:3937   */\n    tag_10:\n      0x00\n        /* \"#utility.yul\":3844:3846   */\n      0x20\n        /* \"#utility.yul\":3833:3842   */\n      dup3\n        /* \"#utility.yul\":3829:3847   */\n      add\n        /* \"#utility.yul\":3821:3847   */\n      swap1\n      pop\n        /* \"#utility.yul\":3857:3930   */\n      tag_115\n        /* \"#utility.yul\":3927:3928   */\n      0x00\n        /* \"#utility.yul\":3916:3925   */\n      dup4\n        /* \"#utility.yul\":3912:3929   */\n      add\n        /* \"#utility.yul\":3903:3909   */\n      dup5\n        /* \"#utility.yul\":3857:3930   */\n      tag_106\n      jump\t// in\n    tag_115:\n        /* \"#utility.yul\":3811:3937   */\n      swap3\n      swap2\n      pop\n      pop\n      jump\t// out\n        /* \"#utility.yul\":3943:4181   */\n    tag_19:\n      0x00\n        /* \"#utility.yul\":4082:4084   */\n      0x20\n        /* \"#utility.yul\":4071:4080   */\n      dup3\n        /* \"#utility.yul\":4067:4085   */\n      add\n        /* \"#utility.yul\":4059:4085   */\n      swap1\n      pop\n        /* \"#utility.yul\":4095:4174   */\n      tag_117\n        /* \"#utility.yul\":4171:4172   */\n      0x00\n        /* \"#utility.yul\":4160:4169   */\n      dup4\n        /* \"#utility.yul\":4156:4173   */\n      add\n        /* \"#utility.yul\":4147:4153   */\n      dup5\n        /* \"#utility.yul\":4095:4174   */\n      tag_110\n      jump\t// in\n    tag_117:\n        /* \"#utility.yul\":4049:4181   */\n      swap3\n      swap2\n      pop\n      pop\n      jump\t// out\n        /* \"#utility.yul\":4187:4470   */\n    tag_63:\n      0x00\n        /* \"#utility.yul\":4253:4255   */\n      0x40\n        /* \"#utility.yul\":4247:4256   */\n      mload\n        /* \"#utility.yul\":4237:4256   */\n      swap1\n      pop\n        /* \"#utility.yul\":4295:4299   */\n      dup2\n        /* \"#utility.yul\":4287:4293   */\n      dup2\n        /* \"#utility.yul\":4283:4300   */\n      add\n        /* \"#utility.yul\":4402:4408   */\n      dup2\n        /* \"#utility.yul\":4390:4400   */\n      dup2\n        /* \"#utility.yul\":4387:4409   */\n      lt\n        /* \"#utility.yul\":4366:4384   */\n      0xffffffffffffffff\n        /* \"#utility.yul\":4354:4364   */\n      dup3\n        /* \"#utility.yul\":4351:4385   */\n      gt\n        /* \"#utility.yul\":4348:4410   */\n      or\n        /* \"#utility.yul\":4345:4347   */\n      iszero\n      tag_119\n      jumpi\n        /* \"#utility.yul\":4413:4431   */\n      tag_120\n      tag_121\n      jump\t// in\n    tag_120:\n        /* \"#utility.yul\":4345:4347   */\n    tag_119:\n        /* \"#utility.yul\":4453:4463   */\n      dup1\n        /* \"#utility.yul\":4449:4451   */\n      0x40\n        /* \"#utility.yul\":4442:4464   */\n      mstore\n        /* \"#utility.yul\":4227:4470   */\n      pop\n      swap2\n      swap1\n      pop\n      jump\t// out\n        /* \"#utility.yul\":4476:4787   */\n    tag_62:\n      0x00\n        /* \"#utility.yul\":4643:4661   */\n      0xffffffffffffffff\n        /* \"#utility.yul\":4635:4641   */\n      dup3\n        /* \"#utility.yul\":4632:4662   */\n      gt\n        /* \"#utility.yul\":4629:4631   */\n      iszero\n      tag_123\n      jumpi\n        /* \"#utility.yul\":4665:4683   */\n      tag_124\n      tag_121\n      jump\t// in\n    tag_124:\n        /* \"#utility.yul\":4629:4631   */\n    tag_123:\n        /* \"#utility.yul\":4715:4719   */\n      0x20\n        /* \"#utility.yul\":4707:4713   */\n      dup3\n        /* \"#utility.yul\":4703:4720   */\n      mul\n        /* \"#utility.yul\":4695:4720   */\n      swap1\n      pop\n        /* \"#utility.yul\":4775:4779   */\n      0x20\n        /* \"#utility.yul\":4769:4773   */\n      dup2\n        /* \"#utility.yul\":4765:4780   */\n      add\n        /* \"#utility.yul\":4757:4780   */\n      swap1\n      pop\n        /* \"#utility.yul\":4558:4787   */\n      swap2\n      swap1\n      pop\n      jump\t// out\n        /* \"#utility.yul\":4793:5125   */\n    tag_74:\n      0x00\n        /* \"#utility.yul\":4945:4963   */\n      0xffffffffffffffff\n        /* \"#utility.yul\":4937:4943   */\n      dup3\n        /* \"#utility.yul\":4934:4964   */\n      gt\n        /* \"#utility.yul\":4931:4933   */\n      iszero\n      tag_126\n      jumpi\n        /* \"#utility.yul\":4967:4985   */\n      tag_127\n      tag_121\n      jump\t// in\n    tag_127:\n        /* \"#utility.yul\":4931:4933   */\n    tag_126:\n        /* \"#utility.yul\":5052:5056   */\n      0x1f\n        /* \"#utility.yul\":5048:5057   */\n      not\n        /* \"#utility.yul\":5041:5045   */\n      0x1f\n        /* \"#utility.yul\":5033:5039   */\n      dup4\n        /* \"#utility.yul\":5029:5046   */\n      add\n        /* \"#utility.yul\":5025:5058   */\n      and\n        /* \"#utility.yul\":5017:5058   */\n      swap1\n      pop\n        /* \"#utility.yul\":5113:5117   */\n      0x20\n        /* \"#utility.yul\":5107:5111   */\n      dup2\n        /* \"#utility.yul\":5103:5118   */\n      add\n        /* \"#utility.yul\":5095:5118   */\n      swap1\n      pop\n        /* \"#utility.yul\":4860:5125   */\n      swap2\n      swap1\n      pop\n      jump\t// out\n        /* \"#utility.yul\":5131:5221   */\n    tag_109:\n      0x00\n        /* \"#utility.yul\":5208:5213   */\n      dup2\n        /* \"#utility.yul\":5201:5214   */\n      iszero\n        /* \"#utility.yul\":5194:5215   */\n      iszero\n        /* \"#utility.yul\":5183:5215   */\n      swap1\n      pop\n        /* \"#utility.yul\":5173:5221   */\n      swap2\n      swap1\n      pop\n      jump\t// out\n        /* \"#utility.yul\":5227:5304   */\n    tag_113:\n      0x00\n        /* \"#utility.yul\":5293:5298   */\n      dup2\n        /* \"#utility.yul\":5282:5298   */\n      swap1\n      pop\n        /* \"#utility.yul\":5272:5304   */\n      swap2\n      swap1\n      pop\n      jump\t// out\n        /* \"#utility.yul\":5310:5464   */\n    tag_77:\n        /* \"#utility.yul\":5394:5400   */\n      dup3\n        /* \"#utility.yul\":5389:5392   */\n      dup2\n        /* \"#utility.yul\":5384:5387   */\n      dup4\n        /* \"#utility.yul\":5371:5401   */\n      calldatacopy\n        /* \"#utility.yul\":5456:5457   */\n      0x00\n        /* \"#utility.yul\":5447:5453   */\n      dup4\n        /* \"#utility.yul\":5442:5445   */\n      dup4\n        /* \"#utility.yul\":5438:5454   */\n      add\n        /* \"#utility.yul\":5431:5458   */\n      mstore\n        /* \"#utility.yul\":5361:5464   */\n      pop\n      pop\n      pop\n      jump\t// out\n        /* \"#utility.yul\":5470:5703   */\n    tag_50:\n      0x00\n        /* \"#utility.yul\":5532:5556   */\n      tag_132\n        /* \"#utility.yul\":5550:5555   */\n      dup3\n        /* \"#utility.yul\":5532:5556   */\n      tag_113\n      jump\t// in\n    tag_132:\n        /* \"#utility.yul\":5523:5556   */\n      swap2\n      pop\n        /* \"#utility.yul\":5578:5644   */\n      0xffffffffffffffffffffffffffffffffffffffffffffffffffffffffffffffff\n        /* \"#utility.yul\":5571:5576   */\n      dup3\n        /* \"#utility.yul\":5568:5645   */\n      eq\n        /* \"#utility.yul\":5565:5567   */\n      iszero\n      tag_133\n      jumpi\n        /* \"#utility.yul\":5648:5666   */\n      tag_134\n      tag_135\n      jump\t// in\n    tag_134:\n        /* \"#utility.yul\":5565:5567   */\n    tag_133:\n        /* \"#utility.yul\":5695:5696   */\n      0x01\n        /* \"#utility.yul\":5688:5693   */\n      dup3\n        /* \"#utility.yul\":5684:5697   */\n      add\n        /* \"#utility.yul\":5677:5697   */\n      swap1\n      pop\n        /* \"#utility.yul\":5513:5703   */\n      swap2\n      swap1\n      pop\n      jump\t// out\n        /* \"#utility.yul\":5709:5889   */\n    tag_135:\n        /* \"#utility.yul\":5757:5834   */\n      0x4e487b7100000000000000000000000000000000000000000000000000000000\n        /* \"#utility.yul\":5754:5755   */\n      0x00\n        /* \"#utility.yul\":5747:5835   */\n      mstore\n        /* \"#utility.yul\":5854:5858   */\n      0x11\n        /* \"#utility.yul\":5851:5852   */\n      0x04\n        /* \"#utility.yul\":5844:5859   */\n      mstore\n        /* \"#utility.yul\":5878:5882   */\n      0x24\n        /* \"#utility.yul\":5875:5876   */\n      0x00\n        /* \"#utility.yul\":5868:5883   */\n      revert\n        /* \"#utility.yul\":5895:6075   */\n    tag_121:\n        /* \"#utility.yul\":5943:6020   */\n      0x4e487b7100000000000000000000000000000000000000000000000000000000\n        /* \"#utility.yul\":5940:5941   */\n      0x00\n        /* \"#utility.yul\":5933:6021   */\n      mstore\n        /* \"#utility.yul\":6040:6044   */\n      0x41\n        /* \"#utility.yul\":6037:6038   */\n      0x04\n        /* \"#utility.yul\":6030:6045   */\n      mstore\n        /* \"#utility.yul\":6064:6068   */\n      0x24\n        /* \"#utility.yul\":6061:6062   */\n      0x00\n        /* \"#utility.yul\":6054:6069   */\n      revert\n        /* \"#utility.yul\":6081:6190   */\n    tag_85:\n        /* \"#utility.yul\":6164:6165   */\n      0x07\n        /* \"#utility.yul\":6157:6162   */\n      dup2\n        /* \"#utility.yul\":6154:6166   */\n      lt\n        /* \"#utility.yul\":6144:6146   */\n      tag_139\n      jumpi\n        /* \"#utility.yul\":6180:6181   */\n      0x00\n        /* \"#utility.yul\":6177:6178   */\n      dup1\n        /* \"#utility.yul\":6170:6182   */\n      revert\n        /* \"#utility.yul\":6144:6146   */\n    tag_139:\n        /* \"#utility.yul\":6134:6190   */\n      pop\n      jump\t// out\n        /* \"#utility.yul\":6196:6318   */\n    tag_92:\n        /* \"#utility.yul\":6269:6293   */\n      tag_141\n        /* \"#utility.yul\":6287:6292   */\n      dup2\n        /* \"#utility.yul\":6269:6293   */\n      tag_113\n      jump\t// in\n    tag_141:\n        /* \"#utility.yul\":6262:6267   */\n      dup2\n        /* \"#utility.yul\":6259:6294   */\n      eq\n        /* \"#utility.yul\":6249:6251   */\n      tag_142\n      jumpi\n        /* \"#utility.yul\":6308:6309   */\n      0x00\n        /* \"#utility.yul\":6305:6306   */\n      dup1\n        /* \"#utility.yul\":6298:6310   */\n      revert\n        /* \"#utility.yul\":6249:6251   */\n    tag_142:\n        /* \"#utility.yul\":6239:6318   */\n      pop\n      jump\t// out\n\n    auxdata: 0xa2646970667358221220fa70600f6ac5064814b66c9b08237343ba25d202d661ecb549871e004bd70fd364736f6c63430008000033\n}\n","bytecode":{"linkReferences":{},"object":"610a5e610053600b82828239805160001a607314610046577f4e487b7100000000000000000000000000000000000000000000000000000000600052600060045260246000fd5b30600052607381538281f3fe730000000000000000000000000000000000000000301460806040526004361061004b5760003560e01c80638827628314610050578063a8c0bf8e14610080578063c237647f146100b0575b600080fd5b61006a600480360381019061006591906107ed565b6100ce565b6040516100779190610872565b60405180910390f35b61009a6004803603810190610095919061076e565b61059c565b6040516100a79190610872565b60405180910390f35b6100b861063d565b6040516100c5919061088d565b60405180910390f35b6000806006811115610109577f4e487b7100000000000000000000000000000000000000000000000000000000600052602160045260246000fd5b826006811115610142577f4e487b7100000000000000000000000000000000000000000000000000000000600052602160045260246000fd5b14156101935782600081518110610182577f4e487b7100000000000000000000000000000000000000000000000000000000600052603260045260246000fd5b602002602001015184109050610595565b600160068111156101cd577f4e487b7100000000000000000000000000000000000000000000000000000000600052602160045260246000fd5b826006811115610206577f4e487b7100000000000000000000000000000000000000000000000000000000600052602160045260246000fd5b14156102575782600081518110610246577f4e487b7100000000000000000000000000000000000000000000000000000000600052603260045260246000fd5b602002602001015184119050610595565b60026006811115610291577f4e487b7100000000000000000000000000000000000000000000000000000000600052602160045260246000fd5b8260068111156102ca577f4e487b7100000000000000000000000000000000000000000000000000000000600052602160045260246000fd5b141561031b578260008151811061030a577f4e487b7100000000000000000000000000000000000000000000000000000000600052603260045260246000fd5b602002602001015184149050610595565b60046006811115610355577f4e487b7100000000000000000000000000000000000000000000000000000000600052602160045260246000fd5b82600681111561038e577f4e487b7100000000000000000000000000000000000000000000000000000000600052602160045260246000fd5b14156103e057826000815181106103ce577f4e487b7100000000000000000000000000000000000000000000000000000000600052603260045260246000fd5b60200260200101518411159050610595565b6005600681111561041a577f4e487b7100000000000000000000000000000000000000000000000000000000600052602160045260246000fd5b826006811115610453577f4e487b7100000000000000000000000000000000000000000000000000000000600052602160045260246000fd5b14156104a55782600081518110610493577f4e487b7100000000000000000000000000000000000000000000000000000000600052603260045260246000fd5b60200260200101518410159050610595565b6006808111156104de577f4e487b7100000000000000000000000000000000000000000000000000000000600052602160045260246000fd5b826006811115610517577f4e487b7100000000000000000000000000000000000000000000000000000000600052602160045260246000fd5b14156105905760005b835181101561058e57838181518110610562577f4e487b7100000000000000000000000000000000000000000000000000000000600052603260045260246000fd5b602002602001015185141561057b576001915050610595565b80806105869061095a565b915050610520565b505b600090505b9392505050565b60008083805190602001208580519060200120149050600260068111156105ec577f4e487b7100000000000000000000000000000000000000000000000000000000600052602160045260246000fd5b836006811115610625577f4e487b7100000000000000000000000000000000000000000000000000000000600052602160045260246000fd5b14610631578015610633565b805b9150509392505050565b60006007905090565b6000610659610654846108d9565b6108a8565b9050808382526020820190508285602086028201111561067857600080fd5b60005b858110156106a8578161068e8882610759565b84526020840193506020830192505060018101905061067b565b5050509392505050565b60006106c56106c084610905565b6108a8565b9050828152602081018484840111156106dd57600080fd5b6106e884828561094b565b509392505050565b600082601f83011261070157600080fd5b8135610711848260208601610646565b91505092915050565b60008135905061072981610a01565b92915050565b600082601f83011261074057600080fd5b81356107508482602086016106b2565b91505092915050565b60008135905061076881610a11565b92915050565b60008060006060848603121561078357600080fd5b600084013567ffffffffffffffff81111561079d57600080fd5b6107a98682870161072f565b935050602084013567ffffffffffffffff8111156107c657600080fd5b6107d28682870161072f565b92505060406107e38682870161071a565b9150509250925092565b60008060006060848603121561080257600080fd5b600061081086828701610759565b935050602084013567ffffffffffffffff81111561082d57600080fd5b610839868287016106f0565b925050604061084a8682870161071a565b9150509250925092565b61085d81610935565b82525050565b61086c81610941565b82525050565b60006020820190506108876000830184610854565b92915050565b60006020820190506108a26000830184610863565b92915050565b6000604051905081810181811067ffffffffffffffff821117156108cf576108ce6109d2565b5b8060405250919050565b600067ffffffffffffffff8211156108f4576108f36109d2565b5b602082029050602081019050919050565b600067ffffffffffffffff8211156109205761091f6109d2565b5b601f19601f8301169050602081019050919050565b60008115159050919050565b6000819050919050565b82818337600083830152505050565b600061096582610941565b91507fffffffffffffffffffffffffffffffffffffffffffffffffffffffffffffffff821415610998576109976109a3565b5b600182019050919050565b7f4e487b7100000000000000000000000000000000000000000000000000000000600052601160045260246000fd5b7f4e487b7100000000000000000000000000000000000000000000000000000000600052604160045260246000fd5b60078110610a0e57600080fd5b50565b610a1a81610941565b8114610a2557600080fd5b5056fea2646970667358221220fa70600f6ac5064814b66c9b08237343ba25d202d661ecb549871e004bd70fd364736f6c63430008000033","opcodes":"PUSH2 0xA5E PUSH2 0x53 PUSH1 0xB DUP3 DUP3 DUP3 CODECOPY DUP1 MLOAD PUSH1 0x0 BYTE PUSH1 0x73 EQ PUSH2 0x46 JUMPI PUSH32 0x4E487B7100000000000000000000000000000000000000000000000000000000 PUSH1 0x0 MSTORE PUSH1 0x0 PUSH1 0x4 MSTORE PUSH1 0x24 PUSH1 0x0 REVERT JUMPDEST ADDRESS PUSH1 0x0 MSTORE PUSH1 0x73 DUP2 MSTORE8 DUP3 DUP2 RETURN INVALID PUSH20 0x0 ADDRESS EQ PUSH1 0x80 PUSH1 0x40 MSTORE PUSH1 0x4 CALLDATASIZE LT PUSH2 0x4B JUMPI PUSH1 0x0 CALLDATALOAD PUSH1 0xE0 SHR DUP1 PUSH4 0x88276283 EQ PUSH2 0x50 JUMPI DUP1 PUSH4 0xA8C0BF8E EQ PUSH2 0x80 JUMPI DUP1 PUSH4 0xC237647F EQ PUSH2 0xB0 JUMPI JUMPDEST PUSH1 0x0 DUP1 REVERT JUMPDEST PUSH2 0x6A PUSH1 0x4 DUP1 CALLDATASIZE SUB DUP2 ADD SWAP1 PUSH2 0x65 SWAP2 SWAP1 PUSH2 0x7ED JUMP JUMPDEST PUSH2 0xCE JUMP JUMPDEST PUSH1 0x40 MLOAD PUSH2 0x77 SWAP2 SWAP1 PUSH2 0x872 JUMP JUMPDEST PUSH1 0x40 MLOAD DUP1 SWAP2 SUB SWAP1 RETURN JUMPDEST PUSH2 0x9A PUSH1 0x4 DUP1 CALLDATASIZE SUB DUP2 ADD SWAP1 PUSH2 0x95 SWAP2 SWAP1 PUSH2 0x76E JUMP JUMPDEST PUSH2 0x59C JUMP JUMPDEST PUSH1 0x40 MLOAD PUSH2 0xA7 SWAP2 SWAP1 PUSH2 0x872 JUMP JUMPDEST PUSH1 0x40 MLOAD DUP1 SWAP2 SUB SWAP1 RETURN JUMPDEST PUSH2 0xB8 PUSH2 0x63D JUMP JUMPDEST PUSH1 0x40 MLOAD PUSH2 0xC5 SWAP2 SWAP1 PUSH2 0x88D JUMP JUMPDEST PUSH1 0x40 MLOAD DUP1 SWAP2 SUB SWAP1 RETURN JUMPDEST PUSH1 0x0 DUP1 PUSH1 0x6 DUP2 GT ISZERO PUSH2 0x109 JUMPI PUSH32 0x4E487B7100000000000000000000000000000000000000000000000000000000 PUSH1 0x0 MSTORE PUSH1 0x21 PUSH1 0x4 MSTORE PUSH1 0x24 PUSH1 0x0 REVERT JUMPDEST DUP3 PUSH1 0x6 DUP2 GT ISZERO PUSH2 0x142 JUMPI PUSH32 0x4E487B7100000000000000000000000000000000000000000000000000000000 PUSH1 0x0 MSTORE PUSH1 0x21 PUSH1 0x4 MSTORE PUSH1 0x24 PUSH1 0x0 REVERT JUMPDEST EQ ISZERO PUSH2 0x193 JUMPI DUP3 PUSH1 0x0 DUP2 MLOAD DUP2 LT PUSH2 0x182 JUMPI PUSH32 0x4E487B7100000000000000000000000000000000000000000000000000000000 PUSH1 0x0 MSTORE PUSH1 0x32 PUSH1 0x4 MSTORE PUSH1 0x24 PUSH1 0x0 REVERT JUMPDEST PUSH1 0x20 MUL PUSH1 0x20 ADD ADD MLOAD DUP5 LT SWAP1 POP PUSH2 0x595 JUMP JUMPDEST PUSH1 0x1 PUSH1 0x6 DUP2 GT ISZERO PUSH2 0x1CD JUMPI PUSH32 0x4E487B7100000000000000000000000000000000000000000000000000000000 PUSH1 0x0 MSTORE PUSH1 0x21 PUSH1 0x4 MSTORE PUSH1 0x24 PUSH1 0x0 REVERT JUMPDEST DUP3 PUSH1 0x6 DUP2 GT ISZERO PUSH2 0x206 JUMPI PUSH32 0x4E487B7100000000000000000000000000000000000000000000000000000000 PUSH1 0x0 MSTORE PUSH1 0x21 PUSH1 0x4 MSTORE PUSH1 0x24 PUSH1 0x0 REVERT JUMPDEST EQ ISZERO PUSH2 0x257 JUMPI DUP3 PUSH1 0x0 DUP2 MLOAD DUP2 LT PUSH2 0x246 JUMPI PUSH32 0x4E487B7100000000000000000000000000000000000000000000000000000000 PUSH1 0x0 MSTORE PUSH1 0x32 PUSH1 0x4 MSTORE PUSH1 0x24 PUSH1 0x0 REVERT JUMPDEST PUSH1 0x20 MUL PUSH1 0x20 ADD ADD MLOAD DUP5 GT SWAP1 POP PUSH2 0x595 JUMP JUMPDEST PUSH1 0x2 PUSH1 0x6 DUP2 GT ISZERO PUSH2 0x291 JUMPI PUSH32 0x4E487B7100000000000000000000000000000000000000000000000000000000 PUSH1 0x0 MSTORE PUSH1 0x21 PUSH1 0x4 MSTORE PUSH1 0x24 PUSH1 0x0 REVERT JUMPDEST DUP3 PUSH1 0x6 DUP2 GT ISZERO PUSH2 0x2CA JUMPI PUSH32 0x4E487B7100000000000000000000000000000000000000000000000000000000 PUSH1 0x0 MSTORE PUSH1 0x21 PUSH1 0x4 MSTORE PUSH1 0x24 PUSH1 0x0 REVERT JUMPDEST EQ ISZERO PUSH2 0x31B JUMPI DUP3 PUSH1 0x0 DUP2 MLOAD DUP2 LT PUSH2 0x30A JUMPI PUSH32 0x4E487B7100000000000000000000000000000000000000000000000000000000 PUSH1 0x0 MSTORE PUSH1 0x32 PUSH1 0x4 MSTORE PUSH1 0x24 PUSH1 0x0 REVERT JUMPDEST PUSH1 0x20 MUL PUSH1 0x20 ADD ADD MLOAD DUP5 EQ SWAP1 POP PUSH2 0x595 JUMP JUMPDEST PUSH1 0x4 PUSH1 0x6 DUP2 GT ISZERO PUSH2 0x355 JUMPI PUSH32 0x4E487B7100000000000000000000000000000000000000000000000000000000 PUSH1 0x0 MSTORE PUSH1 0x21 PUSH1 0x4 MSTORE PUSH1 0x24 PUSH1 0x0 REVERT JUMPDEST DUP3 PUSH1 0x6 DUP2 GT ISZERO PUSH2 0x38E JUMPI PUSH32 0x4E487B7100000000000000000000000000000000000000000000000000000000 PUSH1 0x0 MSTORE PUSH1 0x21 PUSH1 0x4 MSTORE PUSH1 0x24 PUSH1 0x0 REVERT JUMPDEST EQ ISZERO PUSH2 0x3E0 JUMPI DUP3 PUSH1 0x0 DUP2 MLOAD DUP2 LT PUSH2 0x3CE JUMPI PUSH32 0x4E487B7100000000000000000000000000000000000000000000000000000000 PUSH1 0x0 MSTORE PUSH1 0x32 PUSH1 0x4 MSTORE PUSH1 0x24 PUSH1 0x0 REVERT JUMPDEST PUSH1 0x20 MUL PUSH1 0x20 ADD ADD MLOAD DUP5 GT ISZERO SWAP1 POP PUSH2 0x595 JUMP JUMPDEST PUSH1 0x5 PUSH1 0x6 DUP2 GT ISZERO PUSH2 0x41A JUMPI PUSH32 0x4E487B7100000000000000000000000000000000000000000000000000000000 PUSH1 0x0 MSTORE PUSH1 0x21 PUSH1 0x4 MSTORE PUSH1 0x24 PUSH1 0x0 REVERT JUMPDEST DUP3 PUSH1 0x6 DUP2 GT ISZERO PUSH2 0x453 JUMPI PUSH32 0x4E487B7100000000000000000000000000000000000000000000000000000000 PUSH1 0x0 MSTORE PUSH1 0x21 PUSH1 0x4 MSTORE PUSH1 0x24 PUSH1 0x0 REVERT JUMPDEST EQ ISZERO PUSH2 0x4A5 JUMPI DUP3 PUSH1 0x0 DUP2 MLOAD DUP2 LT PUSH2 0x493 JUMPI PUSH32 0x4E487B7100000000000000000000000000000000000000000000000000000000 PUSH1 0x0 MSTORE PUSH1 0x32 PUSH1 0x4 MSTORE PUSH1 0x24 PUSH1 0x0 REVERT JUMPDEST PUSH1 0x20 MUL PUSH1 0x20 ADD ADD MLOAD DUP5 LT ISZERO SWAP1 POP PUSH2 0x595 JUMP JUMPDEST PUSH1 0x6 DUP1 DUP2 GT ISZERO PUSH2 0x4DE JUMPI PUSH32 0x4E487B7100000000000000000000000000000000000000000000000000000000 PUSH1 0x0 MSTORE PUSH1 0x21 PUSH1 0x4 MSTORE PUSH1 0x24 PUSH1 0x0 REVERT JUMPDEST DUP3 PUSH1 0x6 DUP2 GT ISZERO PUSH2 0x517 JUMPI PUSH32 0x4E487B7100000000000000000000000000000000000000000000000000000000 PUSH1 0x0 MSTORE PUSH1 0x21 PUSH1 0x4 MSTORE PUSH1 0x24 PUSH1 0x0 REVERT JUMPDEST EQ ISZERO PUSH2 0x590 JUMPI PUSH1 0x0 JUMPDEST DUP4 MLOAD DUP2 LT ISZERO PUSH2 0x58E JUMPI DUP4 DUP2 DUP2 MLOAD DUP2 LT PUSH2 0x562 JUMPI PUSH32 0x4E487B7100000000000000000000000000000000000000000000000000000000 PUSH1 0x0 MSTORE PUSH1 0x32 PUSH1 0x4 MSTORE PUSH1 0x24 PUSH1 0x0 REVERT JUMPDEST PUSH1 0x20 MUL PUSH1 0x20 ADD ADD MLOAD DUP6 EQ ISZERO PUSH2 0x57B JUMPI PUSH1 0x1 SWAP2 POP POP PUSH2 0x595 JUMP JUMPDEST DUP1 DUP1 PUSH2 0x586 SWAP1 PUSH2 0x95A JUMP JUMPDEST SWAP2 POP POP PUSH2 0x520 JUMP JUMPDEST POP JUMPDEST PUSH1 0x0 SWAP1 POP JUMPDEST SWAP4 SWAP3 POP POP POP JUMP JUMPDEST PUSH1 0x0 DUP1 DUP4 DUP1 MLOAD SWAP1 PUSH1 0x20 ADD KECCAK256 DUP6 DUP1 MLOAD SWAP1 PUSH1 0x20 ADD KECCAK256 EQ SWAP1 POP PUSH1 0x2 PUSH1 0x6 DUP2 GT ISZERO PUSH2 0x5EC JUMPI PUSH32 0x4E487B7100000000000000000000000000000000000000000000000000000000 PUSH1 0x0 MSTORE PUSH1 0x21 PUSH1 0x4 MSTORE PUSH1 0x24 PUSH1 0x0 REVERT JUMPDEST DUP4 PUSH1 0x6 DUP2 GT ISZERO PUSH2 0x625 JUMPI PUSH32 0x4E487B7100000000000000000000000000000000000000000000000000000000 PUSH1 0x0 MSTORE PUSH1 0x21 PUSH1 0x4 MSTORE PUSH1 0x24 PUSH1 0x0 REVERT JUMPDEST EQ PUSH2 0x631 JUMPI DUP1 ISZERO PUSH2 0x633 JUMP JUMPDEST DUP1 JUMPDEST SWAP2 POP POP SWAP4 SWAP3 POP POP POP JUMP JUMPDEST PUSH1 0x0 PUSH1 0x7 SWAP1 POP SWAP1 JUMP JUMPDEST PUSH1 0x0 PUSH2 0x659 PUSH2 0x654 DUP5 PUSH2 0x8D9 JUMP JUMPDEST PUSH2 0x8A8 JUMP JUMPDEST SWAP1 POP DUP1 DUP4 DUP3 MSTORE PUSH1 0x20 DUP3 ADD SWAP1 POP DUP3 DUP6 PUSH1 0x20 DUP7 MUL DUP3 ADD GT ISZERO PUSH2 0x678 JUMPI PUSH1 0x0 DUP1 REVERT JUMPDEST PUSH1 0x0 JUMPDEST DUP6 DUP2 LT ISZERO PUSH2 0x6A8 JUMPI DUP2 PUSH2 0x68E DUP9 DUP3 PUSH2 0x759 JUMP JUMPDEST DUP5 MSTORE PUSH1 0x20 DUP5 ADD SWAP4 POP PUSH1 0x20 DUP4 ADD SWAP3 POP POP PUSH1 0x1 DUP2 ADD SWAP1 POP PUSH2 0x67B JUMP JUMPDEST POP POP POP SWAP4 SWAP3 POP POP POP JUMP JUMPDEST PUSH1 0x0 PUSH2 0x6C5 PUSH2 0x6C0 DUP5 PUSH2 0x905 JUMP JUMPDEST PUSH2 0x8A8 JUMP JUMPDEST SWAP1 POP DUP3 DUP2 MSTORE PUSH1 0x20 DUP2 ADD DUP5 DUP5 DUP5 ADD GT ISZERO PUSH2 0x6DD JUMPI PUSH1 0x0 DUP1 REVERT JUMPDEST PUSH2 0x6E8 DUP5 DUP3 DUP6 PUSH2 0x94B JUMP JUMPDEST POP SWAP4 SWAP3 POP POP POP JUMP JUMPDEST PUSH1 0x0 DUP3 PUSH1 0x1F DUP4 ADD SLT PUSH2 0x701 JUMPI PUSH1 0x0 DUP1 REVERT JUMPDEST DUP2 CALLDATALOAD PUSH2 0x711 DUP5 DUP3 PUSH1 0x20 DUP7 ADD PUSH2 0x646 JUMP JUMPDEST SWAP2 POP POP SWAP3 SWAP2 POP POP JUMP JUMPDEST PUSH1 0x0 DUP2 CALLDATALOAD SWAP1 POP PUSH2 0x729 DUP2 PUSH2 0xA01 JUMP JUMPDEST SWAP3 SWAP2 POP POP JUMP JUMPDEST PUSH1 0x0 DUP3 PUSH1 0x1F DUP4 ADD SLT PUSH2 0x740 JUMPI PUSH1 0x0 DUP1 REVERT JUMPDEST DUP2 CALLDATALOAD PUSH2 0x750 DUP5 DUP3 PUSH1 0x20 DUP7 ADD PUSH2 0x6B2 JUMP JUMPDEST SWAP2 POP POP SWAP3 SWAP2 POP POP JUMP JUMPDEST PUSH1 0x0 DUP2 CALLDATALOAD SWAP1 POP PUSH2 0x768 DUP2 PUSH2 0xA11 JUMP JUMPDEST SWAP3 SWAP2 POP POP JUMP JUMPDEST PUSH1 0x0 DUP1 PUSH1 0x0 PUSH1 0x60 DUP5 DUP7 SUB SLT ISZERO PUSH2 0x783 JUMPI PUSH1 0x0 DUP1 REVERT JUMPDEST PUSH1 0x0 DUP5 ADD CALLDATALOAD PUSH8 0xFFFFFFFFFFFFFFFF DUP2 GT ISZERO PUSH2 0x79D JUMPI PUSH1 0x0 DUP1 REVERT JUMPDEST PUSH2 0x7A9 DUP7 DUP3 DUP8 ADD PUSH2 0x72F JUMP JUMPDEST SWAP4 POP POP PUSH1 0x20 DUP5 ADD CALLDATALOAD PUSH8 0xFFFFFFFFFFFFFFFF DUP2 GT ISZERO PUSH2 0x7C6 JUMPI PUSH1 0x0 DUP1 REVERT JUMPDEST PUSH2 0x7D2 DUP7 DUP3 DUP8 ADD PUSH2 0x72F JUMP JUMPDEST SWAP3 POP POP PUSH1 0x40 PUSH2 0x7E3 DUP7 DUP3 DUP8 ADD PUSH2 0x71A JUMP JUMPDEST SWAP2 POP POP SWAP3 POP SWAP3 POP SWAP3 JUMP JUMPDEST PUSH1 0x0 DUP1 PUSH1 0x0 PUSH1 0x60 DUP5 DUP7 SUB SLT ISZERO PUSH2 0x802 JUMPI PUSH1 0x0 DUP1 REVERT JUMPDEST PUSH1 0x0 PUSH2 0x810 DUP7 DUP3 DUP8 ADD PUSH2 0x759 JUMP JUMPDEST SWAP4 POP POP PUSH1 0x20 DUP5 ADD CALLDATALOAD PUSH8 0xFFFFFFFFFFFFFFFF DUP2 GT ISZERO PUSH2 0x82D JUMPI PUSH1 0x0 DUP1 REVERT JUMPDEST PUSH2 0x839 DUP7 DUP3 DUP8 ADD PUSH2 0x6F0 JUMP JUMPDEST SWAP3 POP POP PUSH1 0x40 PUSH2 0x84A DUP7 DUP3 DUP8 ADD PUSH2 0x71A JUMP JUMPDEST SWAP2 POP POP SWAP3 POP SWAP3 POP SWAP3 JUMP JUMPDEST PUSH2 0x85D DUP2 PUSH2 0x935 JUMP JUMPDEST DUP3 MSTORE POP POP JUMP JUMPDEST PUSH2 0x86C DUP2 PUSH2 0x941 JUMP JUMPDEST DUP3 MSTORE POP POP JUMP JUMPDEST PUSH1 0x0 PUSH1 0x20 DUP3 ADD SWAP1 POP PUSH2 0x887 PUSH1 0x0 DUP4 ADD DUP5 PUSH2 0x854 JUMP JUMPDEST SWAP3 SWAP2 POP POP JUMP JUMPDEST PUSH1 0x0 PUSH1 0x20 DUP3 ADD SWAP1 POP PUSH2 0x8A2 PUSH1 0x0 DUP4 ADD DUP5 PUSH2 0x863 JUMP JUMPDEST SWAP3 SWAP2 POP POP JUMP JUMPDEST PUSH1 0x0 PUSH1 0x40 MLOAD SWAP1 POP DUP2 DUP2 ADD DUP2 DUP2 LT PUSH8 0xFFFFFFFFFFFFFFFF DUP3 GT OR ISZERO PUSH2 0x8CF JUMPI PUSH2 0x8CE PUSH2 0x9D2 JUMP JUMPDEST JUMPDEST DUP1 PUSH1 0x40 MSTORE POP SWAP2 SWAP1 POP JUMP JUMPDEST PUSH1 0x0 PUSH8 0xFFFFFFFFFFFFFFFF DUP3 GT ISZERO PUSH2 0x8F4 JUMPI PUSH2 0x8F3 PUSH2 0x9D2 JUMP JUMPDEST JUMPDEST PUSH1 0x20 DUP3 MUL SWAP1 POP PUSH1 0x20 DUP2 ADD SWAP1 POP SWAP2 SWAP1 POP JUMP JUMPDEST PUSH1 0x0 PUSH8 0xFFFFFFFFFFFFFFFF DUP3 GT ISZERO PUSH2 0x920 JUMPI PUSH2 0x91F PUSH2 0x9D2 JUMP JUMPDEST JUMPDEST PUSH1 0x1F NOT PUSH1 0x1F DUP4 ADD AND SWAP1 POP PUSH1 0x20 DUP2 ADD SWAP1 POP SWAP2 SWAP1 POP JUMP JUMPDEST PUSH1 0x0 DUP2 ISZERO ISZERO SWAP1 POP SWAP2 SWAP1 POP JUMP JUMPDEST PUSH1 0x0 DUP2 SWAP1 POP SWAP2 SWAP1 POP JUMP JUMPDEST DUP3 DUP2 DUP4 CALLDATACOPY PUSH1 0x0 DUP4 DUP4 ADD MSTORE POP POP POP JUMP JUMPDEST PUSH1 0x0 PUSH2 0x965 DUP3 PUSH2 0x941 JUMP JUMPDEST SWAP2 POP PUSH32 0xFFFFFFFFFFFFFFFFFFFFFFFFFFFFFFFFFFFFFFFFFFFFFFFFFFFFFFFFFFFFFFFF DUP3 EQ ISZERO PUSH2 0x998 JUMPI PUSH2 0x997 PUSH2 0x9A3 JUMP JUMPDEST JUMPDEST PUSH1 0x1 DUP3 ADD SWAP1 POP SWAP2 SWAP1 POP JUMP JUMPDEST PUSH32 0x4E487B7100000000000000000000000000000000000000000000000000000000 PUSH1 0x0 MSTORE PUSH1 0x11 PUSH1 0x4 MSTORE PUSH1 0x24 PUSH1 0x0 REVERT JUMPDEST PUSH32 0x4E487B7100000000000000000000000000000000000000000000000000000000 PUSH1 0x0 MSTORE PUSH1 0x41 PUSH1 0x4 MSTORE PUSH1 0x24 PUSH1 0x0 REVERT JUMPDEST PUSH1 0x7 DUP2 LT PUSH2 0xA0E JUMPI PUSH1 0x0 DUP1 REVERT JUMPDEST POP JUMP JUMPDEST PUSH2 0xA1A DUP2 PUSH2 0x941 JUMP JUMPDEST DUP2 EQ PUSH2 0xA25 JUMPI PUSH1 0x0 DUP1 REVERT JUMPDEST POP JUMP INVALID LOG2 PUSH5 0x6970667358 0x22 SLT KECCAK256 STATICCALL PUSH17 0x600F6AC5064814B66C9B08237343BA25D2 MUL 0xD6 PUSH2 0xECB5 0x49 DUP8 0x1E STOP 0x4B 0xD7 0xF 0xD3 PUSH5 0x736F6C6343 STOP ADDMOD STOP STOP CALLER "},"gasEstimates":{"creation":{"codeDepositCost":"530800","executionCost":"590","totalCost":"531390"},"external":{"evaluate(string,string,DecisionLibrary.Operator)":"infinite","evaluate(uint256,uint256[],DecisionLibrary.Operator)":"infinite","returnZwo()":"343"}},"methodIdentifiers":{"evaluate(string,string,DecisionLibrary.Operator)":"a8c0bf8e","evaluate(uint256,uint256[],DecisionLibrary.Operator)":"88276283","returnZwo()":"c237647f"}},"storageLayout":{"storage":[],"types":null},"userdoc":{"kind":"user","methods":{},"version":1}}